{
  "contracts/EHR.sol": {
    "EHR": {
      "abi": [
        {
          "inputs": [
            {
              "internalType": "address",
              "name": "_pli",
              "type": "address"
            }
          ],
          "stateMutability": "nonpayable",
          "type": "constructor"
        },
        {
          "anonymous": false,
          "inputs": [
            {
              "indexed": false,
              "internalType": "uint256",
              "name": "doctorId",
              "type": "uint256"
            },
            {
              "indexed": false,
              "internalType": "string",
              "name": "eventType",
              "type": "string"
            },
            {
              "indexed": false,
              "internalType": "address",
              "name": "doctor",
              "type": "address"
            },
            {
              "indexed": false,
              "internalType": "address",
              "name": "performedBy",
              "type": "address"
            },
            {
              "indexed": false,
              "internalType": "uint256",
              "name": "performedOn",
              "type": "uint256"
            }
          ],
          "name": "DoctorEvents",
          "type": "event"
        },
        {
          "anonymous": false,
          "inputs": [
            {
              "indexed": false,
              "internalType": "string",
              "name": "patientDetails",
              "type": "string"
            },
            {
              "indexed": false,
              "internalType": "string",
              "name": "vitals",
              "type": "string"
            },
            {
              "indexed": false,
              "internalType": "string",
              "name": "nominee",
              "type": "string"
            },
            {
              "indexed": false,
              "internalType": "string",
              "name": "contact",
              "type": "string"
            }
          ],
          "name": "InsuranceEvent",
          "type": "event"
        },
        {
          "anonymous": false,
          "inputs": [
            {
              "indexed": false,
              "internalType": "uint256",
              "name": "patientId",
              "type": "uint256"
            },
            {
              "indexed": false,
              "internalType": "string",
              "name": "eventType",
              "type": "string"
            },
            {
              "indexed": false,
              "internalType": "address",
              "name": "patient",
              "type": "address"
            },
            {
              "indexed": false,
              "internalType": "address",
              "name": "performedBy",
              "type": "address"
            },
            {
              "indexed": false,
              "internalType": "uint256",
              "name": "performedOn",
              "type": "uint256"
            }
          ],
          "name": "PatientEvents",
          "type": "event"
        },
        {
          "anonymous": false,
          "inputs": [
            {
              "indexed": false,
              "internalType": "address",
              "name": "patientAddr",
              "type": "address"
            },
            {
              "indexed": false,
              "internalType": "enum PatientInterface.RecordType",
              "name": "prescription",
              "type": "uint8"
            },
            {
              "indexed": false,
              "internalType": "enum PatientInterface.RecordType",
              "name": "insurance",
              "type": "uint8"
            }
          ],
          "name": "PharmacistEvent",
          "type": "event"
        },
        {
          "anonymous": false,
          "inputs": [
            {
              "indexed": true,
              "internalType": "bytes32",
              "name": "id",
              "type": "bytes32"
            }
          ],
          "name": "PluginCancelled",
          "type": "event"
        },
        {
          "anonymous": false,
          "inputs": [
            {
              "indexed": true,
              "internalType": "bytes32",
              "name": "id",
              "type": "bytes32"
            }
          ],
          "name": "PluginFulfilled",
          "type": "event"
        },
        {
          "anonymous": false,
          "inputs": [
            {
              "indexed": true,
              "internalType": "bytes32",
              "name": "id",
              "type": "bytes32"
            }
          ],
          "name": "PluginRequested",
          "type": "event"
        },
        {
          "anonymous": false,
          "inputs": [
            {
              "indexed": false,
              "internalType": "uint256",
              "name": "recordId",
              "type": "uint256"
            },
            {
              "indexed": false,
              "internalType": "string",
              "name": "eventType",
              "type": "string"
            },
            {
              "indexed": false,
              "internalType": "address",
              "name": "patient",
              "type": "address"
            },
            {
              "indexed": false,
              "internalType": "address",
              "name": "performedBy",
              "type": "address"
            },
            {
              "indexed": false,
              "internalType": "uint256",
              "name": "performedOn",
              "type": "uint256"
            }
          ],
          "name": "RecordEvents",
          "type": "event"
        },
        {
          "anonymous": false,
          "inputs": [
            {
              "indexed": true,
              "internalType": "bytes32",
              "name": "requestId",
              "type": "bytes32"
            },
            {
              "indexed": true,
              "internalType": "uint256",
              "name": "otp",
              "type": "uint256"
            }
          ],
          "name": "RequestPermissionFulfilled",
          "type": "event"
        },
        {
          "anonymous": false,
          "inputs": [
            {
              "indexed": false,
              "internalType": "string",
              "name": "patientDetails",
              "type": "string"
            },
            {
              "indexed": false,
              "internalType": "enum GenericInterface.Sex",
              "name": "sex",
              "type": "uint8"
            },
            {
              "indexed": false,
              "internalType": "string",
              "name": "nominee",
              "type": "string"
            },
            {
              "indexed": false,
              "internalType": "string",
              "name": "contact",
              "type": "string"
            },
            {
              "indexed": false,
              "internalType": "string",
              "name": "vitals",
              "type": "string"
            }
          ],
          "name": "emergencyView",
          "type": "event"
        },
        {
          "anonymous": false,
          "inputs": [
            {
              "indexed": true,
              "internalType": "address",
              "name": "requester",
              "type": "address"
            },
            {
              "indexed": true,
              "internalType": "bytes32",
              "name": "jobId",
              "type": "bytes32"
            },
            {
              "indexed": true,
              "internalType": "bytes32",
              "name": "requestId",
              "type": "bytes32"
            }
          ],
          "name": "requestCreated",
          "type": "event"
        },
        {
          "inputs": [
            {
              "internalType": "address",
              "name": "_insuranceAddr",
              "type": "address"
            },
            {
              "internalType": "address",
              "name": "_patientAddr",
              "type": "address"
            }
          ],
          "name": "InsuranceVerification",
          "outputs": [],
          "stateMutability": "nonpayable",
          "type": "function"
        },
        {
          "inputs": [
            {
              "internalType": "address",
              "name": "_patientAddr",
              "type": "address"
            }
          ],
          "name": "ambEcuView",
          "outputs": [],
          "stateMutability": "nonpayable",
          "type": "function"
        },
        {
          "inputs": [
            {
              "internalType": "address",
              "name": "_doctorAddress",
              "type": "address"
            }
          ],
          "name": "deRegisterDoctor",
          "outputs": [
            {
              "internalType": "bool",
              "name": "",
              "type": "bool"
            }
          ],
          "stateMutability": "nonpayable",
          "type": "function"
        },
        {
          "inputs": [
            {
              "internalType": "uint256",
              "name": "",
              "type": "uint256"
            }
          ],
          "name": "doctors",
          "outputs": [
            {
              "internalType": "uint256",
              "name": "doctorId",
              "type": "uint256"
            },
            {
              "internalType": "address",
              "name": "doctor",
              "type": "address"
            },
            {
              "internalType": "enum DoctorInterface.DoctorType",
              "name": "decordType",
              "type": "uint8"
            },
            {
              "internalType": "string",
              "name": "doctorDetails",
              "type": "string"
            },
            {
              "internalType": "enum GenericInterface.Status",
              "name": "status",
              "type": "uint8"
            },
            {
              "internalType": "enum GenericInterface.Sex",
              "name": "sex",
              "type": "uint8"
            },
            {
              "internalType": "uint256",
              "name": "registeredOn",
              "type": "uint256"
            },
            {
              "internalType": "address",
              "name": "registeredBy",
              "type": "address"
            }
          ],
          "stateMutability": "view",
          "type": "function"
        },
        {
          "inputs": [
            {
              "internalType": "address",
              "name": "",
              "type": "address"
            }
          ],
          "name": "doctorsRegistered",
          "outputs": [
            {
              "internalType": "bool",
              "name": "",
              "type": "bool"
            }
          ],
          "stateMutability": "view",
          "type": "function"
        },
        {
          "inputs": [
            {
              "internalType": "bytes32",
              "name": "",
              "type": "bytes32"
            }
          ],
          "name": "documentLogRequestIds",
          "outputs": [
            {
              "internalType": "uint256",
              "name": "logId",
              "type": "uint256"
            },
            {
              "internalType": "address",
              "name": "patient",
              "type": "address"
            },
            {
              "internalType": "uint256",
              "name": "recordAddedOn",
              "type": "uint256"
            },
            {
              "internalType": "address",
              "name": "recordAddedBy",
              "type": "address"
            },
            {
              "internalType": "uint256",
              "name": "otp",
              "type": "uint256"
            },
            {
              "internalType": "bool",
              "name": "processed",
              "type": "bool"
            }
          ],
          "stateMutability": "view",
          "type": "function"
        },
        {
          "inputs": [
            {
              "internalType": "uint256",
              "name": "",
              "type": "uint256"
            }
          ],
          "name": "documentLogs",
          "outputs": [
            {
              "internalType": "uint256",
              "name": "logId",
              "type": "uint256"
            },
            {
              "internalType": "address",
              "name": "patient",
              "type": "address"
            },
            {
              "internalType": "uint256",
              "name": "recordAddedOn",
              "type": "uint256"
            },
            {
              "internalType": "address",
              "name": "recordAddedBy",
              "type": "address"
            },
            {
              "internalType": "uint256",
              "name": "otp",
              "type": "uint256"
            },
            {
              "internalType": "bool",
              "name": "processed",
              "type": "bool"
            }
          ],
          "stateMutability": "view",
          "type": "function"
        },
        {
          "inputs": [
            {
              "internalType": "bytes32",
              "name": "_requestId",
              "type": "bytes32"
            },
            {
              "internalType": "uint256",
              "name": "_otp",
              "type": "uint256"
            }
          ],
          "name": "fulfillPermission",
          "outputs": [],
          "stateMutability": "nonpayable",
          "type": "function"
        },
        {
          "inputs": [
            {
              "internalType": "address",
              "name": "_roleAddr",
              "type": "address"
            }
          ],
          "name": "grantAccess",
          "outputs": [
            {
              "internalType": "bool",
              "name": "",
              "type": "bool"
            }
          ],
          "stateMutability": "nonpayable",
          "type": "function"
        },
        {
          "inputs": [
            {
              "internalType": "address",
              "name": "_patientAddr",
              "type": "address"
            },
            {
              "internalType": "string",
              "name": "_masterHash",
              "type": "string"
            },
            {
              "internalType": "string",
              "name": "_filehash",
              "type": "string"
            },
            {
              "internalType": "enum GenericInterface.Role",
              "name": "_roleType",
              "type": "uint8"
            },
            {
              "internalType": "enum PatientInterface.RecordType",
              "name": "_recordType",
              "type": "uint8"
            },
            {
              "internalType": "enum PatientInterface.DiagRepeat",
              "name": "_diagRepeat",
              "type": "uint8"
            }
          ],
          "name": "insertRecords",
          "outputs": [
            {
              "internalType": "bool",
              "name": "",
              "type": "bool"
            }
          ],
          "stateMutability": "nonpayable",
          "type": "function"
        },
        {
          "inputs": [],
          "name": "owner",
          "outputs": [
            {
              "internalType": "address",
              "name": "",
              "type": "address"
            }
          ],
          "stateMutability": "view",
          "type": "function"
        },
        {
          "inputs": [
            {
              "internalType": "address",
              "name": "",
              "type": "address"
            }
          ],
          "name": "patientDetails",
          "outputs": [
            {
              "internalType": "uint256",
              "name": "patientId",
              "type": "uint256"
            },
            {
              "internalType": "uint256",
              "name": "patientUUID",
              "type": "uint256"
            },
            {
              "internalType": "address",
              "name": "patient",
              "type": "address"
            },
            {
              "internalType": "string",
              "name": "patientDetails",
              "type": "string"
            },
            {
              "internalType": "enum GenericInterface.Sex",
              "name": "sex",
              "type": "uint8"
            },
            {
              "internalType": "string",
              "name": "vitals",
              "type": "string"
            },
            {
              "internalType": "uint256",
              "name": "registeredOn",
              "type": "uint256"
            },
            {
              "internalType": "address",
              "name": "registeredBy",
              "type": "address"
            },
            {
              "internalType": "string",
              "name": "masterHash",
              "type": "string"
            },
            {
              "internalType": "string",
              "name": "nominee",
              "type": "string"
            },
            {
              "internalType": "string",
              "name": "contact",
              "type": "string"
            },
            {
              "internalType": "enum GenericInterface.Status",
              "name": "status",
              "type": "uint8"
            },
            {
              "internalType": "enum PatientInterface.AccessStatus",
              "name": "access",
              "type": "uint8"
            }
          ],
          "stateMutability": "view",
          "type": "function"
        },
        {
          "inputs": [
            {
              "internalType": "address",
              "name": "",
              "type": "address"
            }
          ],
          "name": "patientRegistered",
          "outputs": [
            {
              "internalType": "bool",
              "name": "",
              "type": "bool"
            }
          ],
          "stateMutability": "view",
          "type": "function"
        },
        {
          "inputs": [
            {
              "internalType": "address",
              "name": "",
              "type": "address"
            },
            {
              "internalType": "address",
              "name": "",
              "type": "address"
            }
          ],
          "name": "patientToRole",
          "outputs": [
            {
              "internalType": "bool",
              "name": "",
              "type": "bool"
            }
          ],
          "stateMutability": "view",
          "type": "function"
        },
        {
          "inputs": [
            {
              "internalType": "uint256",
              "name": "",
              "type": "uint256"
            }
          ],
          "name": "patients",
          "outputs": [
            {
              "internalType": "uint256",
              "name": "patientId",
              "type": "uint256"
            },
            {
              "internalType": "uint256",
              "name": "patientUUID",
              "type": "uint256"
            },
            {
              "internalType": "address",
              "name": "patient",
              "type": "address"
            },
            {
              "internalType": "string",
              "name": "patientDetails",
              "type": "string"
            },
            {
              "internalType": "enum GenericInterface.Sex",
              "name": "sex",
              "type": "uint8"
            },
            {
              "internalType": "string",
              "name": "vitals",
              "type": "string"
            },
            {
              "internalType": "uint256",
              "name": "registeredOn",
              "type": "uint256"
            },
            {
              "internalType": "address",
              "name": "registeredBy",
              "type": "address"
            },
            {
              "internalType": "string",
              "name": "masterHash",
              "type": "string"
            },
            {
              "internalType": "string",
              "name": "nominee",
              "type": "string"
            },
            {
              "internalType": "string",
              "name": "contact",
              "type": "string"
            },
            {
              "internalType": "enum GenericInterface.Status",
              "name": "status",
              "type": "uint8"
            },
            {
              "internalType": "enum PatientInterface.AccessStatus",
              "name": "access",
              "type": "uint8"
            }
          ],
          "stateMutability": "view",
          "type": "function"
        },
        {
          "inputs": [
            {
              "internalType": "address",
              "name": "_chemistAddr",
              "type": "address"
            },
            {
              "internalType": "address",
              "name": "_patientAddr",
              "type": "address"
            }
          ],
          "name": "pharmacistView",
          "outputs": [],
          "stateMutability": "nonpayable",
          "type": "function"
        },
        {
          "inputs": [
            {
              "internalType": "uint256",
              "name": "",
              "type": "uint256"
            }
          ],
          "name": "records",
          "outputs": [
            {
              "internalType": "uint256",
              "name": "recordId",
              "type": "uint256"
            },
            {
              "internalType": "address",
              "name": "patient",
              "type": "address"
            },
            {
              "internalType": "string",
              "name": "fileHash",
              "type": "string"
            },
            {
              "internalType": "enum PatientInterface.RecordStatus",
              "name": "recordStatus",
              "type": "uint8"
            },
            {
              "internalType": "uint256",
              "name": "recordAddedOn",
              "type": "uint256"
            },
            {
              "internalType": "address",
              "name": "recordAddedBy",
              "type": "address"
            },
            {
              "internalType": "enum GenericInterface.Role",
              "name": "roleType",
              "type": "uint8"
            },
            {
              "internalType": "enum PatientInterface.RecordType",
              "name": "recordType",
              "type": "uint8"
            },
            {
              "internalType": "enum PatientInterface.DiagRepeat",
              "name": "diagRepeat",
              "type": "uint8"
            }
          ],
          "stateMutability": "view",
          "type": "function"
        },
        {
          "inputs": [
            {
              "internalType": "address",
              "name": "",
              "type": "address"
            }
          ],
          "name": "recordsDetails",
          "outputs": [
            {
              "internalType": "uint256",
              "name": "recordId",
              "type": "uint256"
            },
            {
              "internalType": "address",
              "name": "patient",
              "type": "address"
            },
            {
              "internalType": "string",
              "name": "fileHash",
              "type": "string"
            },
            {
              "internalType": "enum PatientInterface.RecordStatus",
              "name": "recordStatus",
              "type": "uint8"
            },
            {
              "internalType": "uint256",
              "name": "recordAddedOn",
              "type": "uint256"
            },
            {
              "internalType": "address",
              "name": "recordAddedBy",
              "type": "address"
            },
            {
              "internalType": "enum GenericInterface.Role",
              "name": "roleType",
              "type": "uint8"
            },
            {
              "internalType": "enum PatientInterface.RecordType",
              "name": "recordType",
              "type": "uint8"
            },
            {
              "internalType": "enum PatientInterface.DiagRepeat",
              "name": "diagRepeat",
              "type": "uint8"
            }
          ],
          "stateMutability": "view",
          "type": "function"
        },
        {
          "inputs": [
            {
              "internalType": "address",
              "name": "_doctorAddress",
              "type": "address"
            },
            {
              "internalType": "string",
              "name": "_metaData",
              "type": "string"
            },
            {
              "internalType": "enum DoctorInterface.DoctorType",
              "name": "_doctorType",
              "type": "uint8"
            },
            {
              "internalType": "enum GenericInterface.Status",
              "name": "_status",
              "type": "uint8"
            },
            {
              "internalType": "enum GenericInterface.Sex",
              "name": "_gender",
              "type": "uint8"
            }
          ],
          "name": "registerDoctor",
          "outputs": [
            {
              "internalType": "bool",
              "name": "",
              "type": "bool"
            }
          ],
          "stateMutability": "nonpayable",
          "type": "function"
        },
        {
          "inputs": [
            {
              "internalType": "address",
              "name": "_patientAddress",
              "type": "address"
            },
            {
              "internalType": "string",
              "name": "_metaData",
              "type": "string"
            },
            {
              "internalType": "string",
              "name": "_careGiverContact",
              "type": "string"
            },
            {
              "internalType": "string",
              "name": "_careGiverName",
              "type": "string"
            },
            {
              "internalType": "enum GenericInterface.Status",
              "name": "_status",
              "type": "uint8"
            },
            {
              "internalType": "enum GenericInterface.Sex",
              "name": "_gender",
              "type": "uint8"
            },
            {
              "internalType": "string",
              "name": "_vitals",
              "type": "string"
            },
            {
              "internalType": "string",
              "name": "_masterhash",
              "type": "string"
            }
          ],
          "name": "registerPatients",
          "outputs": [
            {
              "internalType": "uint256",
              "name": "",
              "type": "uint256"
            }
          ],
          "stateMutability": "nonpayable",
          "type": "function"
        },
        {
          "inputs": [
            {
              "internalType": "address",
              "name": "_oracle",
              "type": "address"
            },
            {
              "internalType": "string",
              "name": "_jobId",
              "type": "string"
            },
            {
              "internalType": "address",
              "name": "_patientAddr",
              "type": "address"
            },
            {
              "internalType": "string",
              "name": "_careGiverEmail",
              "type": "string"
            }
          ],
          "name": "requestToView",
          "outputs": [
            {
              "internalType": "bytes32",
              "name": "requestId",
              "type": "bytes32"
            }
          ],
          "stateMutability": "nonpayable",
          "type": "function"
        },
        {
          "inputs": [
            {
              "internalType": "address",
              "name": "_roleAddr",
              "type": "address"
            }
          ],
          "name": "revokeAccess",
          "outputs": [
            {
              "internalType": "bool",
              "name": "",
              "type": "bool"
            }
          ],
          "stateMutability": "nonpayable",
          "type": "function"
        }
      ],
      "evm": {
        "bytecode": {
          "linkReferences": {},
          "object": "608060405260016004553480156200001657600080fd5b50604051620049c1380380620049c18339810160408190526200003991620000d5565b600280546001600160a01b0319166001600160a01b038316179055600a8054336001600160a01b0319909116179055620000806006620000cc602090811b6200360b17901c565b620000976007620000cc60201b6200360b1760201c565b620000ae6008620000cc60201b6200360b1760201c565b620000c56009620000cc60201b6200360b1760201c565b5062000105565b80546001019055565b600060208284031215620000e7578081fd5b81516001600160a01b0381168114620000fe578182fd5b9392505050565b6148ac80620001156000396000f3fe608060405234801561001057600080fd5b50600436106101425760003560e01c80638da5cb5b116100b8578063c2a19d1d1161007c578063c2a19d1d14610316578063cf79014614610329578063d01d7683146103b6578063eb9560f5146103e4578063f363479714610436578063fa14396b1461044957600080fd5b80638da5cb5b1461028f57806393119a83146102ba578063a52c852a146102cd578063a888803e146102e0578063c0807d6f1461030357600080fd5b806340979b681161010a57806340979b68146101fb5780634eec4e741461020e5780636efb1b841461022f5780636f273a3e1461025657806385e68531146102695780638a335d101461027c57600080fd5b806304f0a2b614610147578063083cb02d1461015c5780630ae5e7391461019457806310c5f025146101a757806334461067146101d3575b600080fd5b61015a610155366004613eed565b61045c565b005b61017f61016a366004613ed3565b60126020526000908152604090205460ff1681565b60405190151581526020015b60405180910390f35b61017f6101a2366004613ed3565b610969565b6101ba6101b5366004613ed3565b610ef1565b60405161018b9d9c9b9a9998979695949392919061455c565b6101e66101e13660046141eb565b611221565b60405161018b999897969594939291906144d3565b61017f610209366004613ed3565b611315565b61022161021c3660046140cd565b611433565b60405190815260200161018b565b61024261023d3660046141eb565b6119a0565b60405161018b98979695949392919061445d565b61017f610264366004613fa1565b611a8b565b61017f610277366004613ed3565b611d75565b61022161028a366004613f1f565b6122ef565b600a546102a2906001600160a01b031681565b6040516001600160a01b03909116815260200161018b565b6101ba6102c83660046141eb565b612500565b61015a6102db36600461421b565b61253a565b61017f6102ee366004613ed3565b600f6020526000908152604090205460ff1681565b61015a610311366004613eed565b6126a2565b6101e6610324366004613ed3565b612752565b61037b6103373660046141eb565b60136020526000908152604090208054600182015460028301546003840154600485015460059095015493946001600160a01b039384169492939091169160ff1686565b604080519687526001600160a01b039586166020880152860193909352921660608401526080830191909152151560a082015260c00161018b565b61017f6103c4366004613eed565b601060209081526000928352604080842090915290825290205460ff1681565b61037b6103f23660046141eb565b60146020526000908152604090208054600182015460028301546003840154600485015460059095015493946001600160a01b039384169492939091169160ff1686565b61017f610444366004614023565b612784565b61015a610457366004613ed3565b61312e565b6001600160a01b0380821660009081526010602090815260408083209386168352929052205460ff1615156001146104db5760405162461bcd60e51b815260206004820152601b60248201527f4163636573732064656e69656420666f7220496e737572616e6365000000000060448201526064015b60405180910390fd5b6001600160a01b038082166000908152600e6020908152604080832081516101a0810183528154815260018201549381019390935260028101549094169082015260038301805492939192606084019190610535906147a2565b80601f0160208091040260200160405190810160405280929190818152602001828054610561906147a2565b80156105ae5780601f10610583576101008083540402835291602001916105ae565b820191906000526020600020905b81548152906001019060200180831161059157829003601f168201915b5050509183525050600482015460209091019060ff1660028111156105e357634e487b7160e01b600052602160045260246000fd5b600281111561060257634e487b7160e01b600052602160045260246000fd5b8152602001600582018054610616906147a2565b80601f0160208091040260200160405190810160405280929190818152602001828054610642906147a2565b801561068f5780601f106106645761010080835404028352916020019161068f565b820191906000526020600020905b81548152906001019060200180831161067257829003601f168201915b50505091835250506006820154602082015260078201546001600160a01b031660408201526008820180546060909201916106c9906147a2565b80601f01602080910402602001604051908101604052809291908181526020018280546106f5906147a2565b80156107425780601f1061071757610100808354040283529160200191610742565b820191906000526020600020905b81548152906001019060200180831161072557829003601f168201915b5050505050815260200160098201805461075b906147a2565b80601f0160208091040260200160405190810160405280929190818152602001828054610787906147a2565b80156107d45780601f106107a9576101008083540402835291602001916107d4565b820191906000526020600020905b8154815290600101906020018083116107b757829003601f168201915b50505050508152602001600a820180546107ed906147a2565b80601f0160208091040260200160405190810160405280929190818152602001828054610819906147a2565b80156108665780601f1061083b57610100808354040283529160200191610866565b820191906000526020600020905b81548152906001019060200180831161084957829003601f168201915b5050509183525050600b82015460209091019060ff16600481111561089b57634e487b7160e01b600052602160045260246000fd5b60048111156108ba57634e487b7160e01b600052602160045260246000fd5b8152602001600b820160019054906101000a900460ff1660038111156108f057634e487b7160e01b600052602160045260246000fd5b600381111561090f57634e487b7160e01b600052602160045260246000fd5b8152505090507f17d0d056163ef0ebd16b3aa12f5ed3273f01b4ed0d3d7cf772b7de458f5b1dd081606001518260a0015183610120015184610140015160405161095c94939291906143d5565b60405180910390a1505050565b336000818152600f602052604081205490919060ff1615156001146109a05760405162461bcd60e51b81526004016104d29061442d565b3360009081526010602090815260408083206001600160a01b038716845290915290205460ff1615610a105760405162461bcd60e51b815260206004820152601960248201527841636365737320686173206265656e2070726f76696465642160381b60448201526064016104d2565b3360008181526010602090815260408083206001600160a01b038881168552908352818420805460ff19166001908117909155948452600e835281842082516101a08101845281548152958101549386019390935260028301541690840152600381018054929392606084019190610a87906147a2565b80601f0160208091040260200160405190810160405280929190818152602001828054610ab3906147a2565b8015610b005780601f10610ad557610100808354040283529160200191610b00565b820191906000526020600020905b815481529060010190602001808311610ae357829003601f168201915b5050509183525050600482015460209091019060ff166002811115610b3557634e487b7160e01b600052602160045260246000fd5b6002811115610b5457634e487b7160e01b600052602160045260246000fd5b8152602001600582018054610b68906147a2565b80601f0160208091040260200160405190810160405280929190818152602001828054610b94906147a2565b8015610be15780601f10610bb657610100808354040283529160200191610be1565b820191906000526020600020905b815481529060010190602001808311610bc457829003601f168201915b50505091835250506006820154602082015260078201546001600160a01b03166040820152600882018054606090920191610c1b906147a2565b80601f0160208091040260200160405190810160405280929190818152602001828054610c47906147a2565b8015610c945780601f10610c6957610100808354040283529160200191610c94565b820191906000526020600020905b815481529060010190602001808311610c7757829003601f168201915b50505050508152602001600982018054610cad906147a2565b80601f0160208091040260200160405190810160405280929190818152602001828054610cd9906147a2565b8015610d265780601f10610cfb57610100808354040283529160200191610d26565b820191906000526020600020905b815481529060010190602001808311610d0957829003601f168201915b50505050508152602001600a82018054610d3f906147a2565b80601f0160208091040260200160405190810160405280929190818152602001828054610d6b906147a2565b8015610db85780601f10610d8d57610100808354040283529160200191610db8565b820191906000526020600020905b815481529060010190602001808311610d9b57829003601f168201915b5050509183525050600b82015460209091019060ff166004811115610ded57634e487b7160e01b600052602160045260246000fd5b6004811115610e0c57634e487b7160e01b600052602160045260246000fd5b8152602001600b820160019054906101000a900460ff166003811115610e4257634e487b7160e01b600052602160045260246000fd5b6003811115610e6157634e487b7160e01b600052602160045260246000fd5b90525080516040805191825260a0602083018190526017908301527f416363657373204772616e74205265676973746572656400000000000000000060c08301523390820181905260608201524260808201529091507feb790f1500bcf29d54354fc14a708e365eecd4ca74e3a4b7490ed8909137e5689060e0015b60405180910390a160019250505b50919050565b600e602052600090815260409020805460018201546002830154600384018054939492936001600160a01b039092169291610f2b906147a2565b80601f0160208091040260200160405190810160405280929190818152602001828054610f57906147a2565b8015610fa45780601f10610f7957610100808354040283529160200191610fa4565b820191906000526020600020905b815481529060010190602001808311610f8757829003601f168201915b5050506004840154600585018054949560ff909216949193509150610fc8906147a2565b80601f0160208091040260200160405190810160405280929190818152602001828054610ff4906147a2565b80156110415780601f1061101657610100808354040283529160200191611041565b820191906000526020600020905b81548152906001019060200180831161102457829003601f168201915b5050505060068301546007840154600885018054949592946001600160a01b03909216935090611070906147a2565b80601f016020809104026020016040519081016040528092919081815260200182805461109c906147a2565b80156110e95780601f106110be576101008083540402835291602001916110e9565b820191906000526020600020905b8154815290600101906020018083116110cc57829003601f168201915b5050505050908060090180546110fe906147a2565b80601f016020809104026020016040519081016040528092919081815260200182805461112a906147a2565b80156111775780601f1061114c57610100808354040283529160200191611177565b820191906000526020600020905b81548152906001019060200180831161115a57829003601f168201915b50505050509080600a01805461118c906147a2565b80601f01602080910402602001604051908101604052809291908181526020018280546111b8906147a2565b80156112055780601f106111da57610100808354040283529160200191611205565b820191906000526020600020905b8154815290600101906020018083116111e857829003601f168201915b505050600b909301549192505060ff808216916101009004168d565b600b6020526000908152604090208054600182015460028301805492936001600160a01b0390921692611253906147a2565b80601f016020809104026020016040519081016040528092919081815260200182805461127f906147a2565b80156112cc5780601f106112a1576101008083540402835291602001916112cc565b820191906000526020600020905b8154815290600101906020018083116112af57829003601f168201915b50505060038401546004850154600590950154939460ff918216949093506001600160a01b0381169250600160a01b8104821691600160a81b8204811691600160b01b90041689565b600a546000906001600160a01b0316331461132f57600080fd5b6001600160a01b038216600090815260126020526040902054829060ff1615156001146113965760405162461bcd60e51b8152602060048201526015602482015274111bd8dd1bdc88139bdd081c9959da5cdd195c9959605a1b60448201526064016104d2565b6001600160a01b0383166000818152601260209081526040808320805460ff19169055805192835260a091830182905260139183019190915272111bd8dd1bdc8811195c9959da5cdd195c9959606a1b60c08301528101919091523360608201524260808201527f64d11508cb09dba8068d04ced552b2c73ba7c3081d9f4c9166caa028b3213fcd9060e00160405180910390a150600192915050565b60008061143f60075490565b905061144f600780546001019055565b6040516bffffffffffffffffffffffff193360601b16602082015242603482015260009060029060540160408051601f19818403018152908290526114939161428e565b602060405180830381855afa1580156114b0573d6000803e3d6000fd5b5050506040513d601f19601f820116820180604052508101906114d39190614203565b60001c9050604051806101a001604052808381526020018281526020018c6001600160a01b031681526020018b815260200187600281111561152557634e487b7160e01b600052602160045260246000fd5b8152602001868152602001428152602001336001600160a01b031681526020018581526020018981526020018a815260200188600481111561157757634e487b7160e01b600052602160045260246000fd5b8152602001600390526000838152600d602090815260409182902083518155838201516001820155918301516002830180546001600160a01b0319166001600160a01b03909216919091179055606083015180516115db9260038501920190613cc7565b50608082015160048201805460ff1916600183600281111561160d57634e487b7160e01b600052602160045260246000fd5b021790555060a0820151805161162d916005840191602090910190613cc7565b5060c0820151600682015560e08201516007820180546001600160a01b0319166001600160a01b03909216919091179055610100820151805161167a916008840191602090910190613cc7565b506101208201518051611697916009840191602090910190613cc7565b5061014082015180516116b491600a840191602090910190613cc7565b50610160820151600b8201805460ff191660018360048111156116e757634e487b7160e01b600052602160045260246000fd5b0217905550610180820151600b8201805461ff00191661010083600381111561172057634e487b7160e01b600052602160045260246000fd5b021790555050506001600160a01b03808c166000818152600f60209081526040808320805460ff19166001908117909155878452600d8352818420948452600e90925290912082548155828201549181019190915560028083015490820180546001600160a01b031916919094161790925560038082018054929392918301916117a9906147a2565b6117b4929190613d4b565b50600482810154908201805460ff9092169160ff191660018360028111156117ec57634e487b7160e01b600052602160045260246000fd5b02179055506005820181600501908054611805906147a2565b611810929190613d4b565b506006828101549082015560078083015490820180546001600160a01b0319166001600160a01b039092169190911790556008808301805491830191611855906147a2565b611860929190613d4b565b506009820181600901908054611875906147a2565b611880929190613d4b565b50600a820181600a01908054611895906147a2565b6118a0929190613d4b565b50600b82810154908201805460ff9092169160ff191660018360048111156118d857634e487b7160e01b600052602160045260246000fd5b0217905550600b82810154908201805460ff61010093849004169261ff00199091169083600381111561191b57634e487b7160e01b600052602160045260246000fd5b0217905550506040805184815260a0602082018190526012908201527114185d1a595b9d08149959da5cdd195c995960721b60c082015233818301819052606082015242608082015290517feb790f1500bcf29d54354fc14a708e365eecd4ca74e3a4b7490ed8909137e56892509081900360e00190a19a9950505050505050505050565b60116020526000908152604090208054600182015460028301805492936001600160a01b03831693600160a01b90930460ff16929091906119e0906147a2565b80601f0160208091040260200160405190810160405280929190818152602001828054611a0c906147a2565b8015611a595780601f10611a2e57610100808354040283529160200191611a59565b820191906000526020600020905b815481529060010190602001808311611a3c57829003601f168201915b50505060038401546004850154600590950154939460ff8083169561010090930416935091506001600160a01b031688565b6001600160a01b03851660009081526012602052604081205460ff1615611af45760405162461bcd60e51b815260206004820152601860248201527f446f63746f7220697320616c72656164792061646465642e000000000000000060448201526064016104d2565b6000611aff60065490565b9050611b0f600680546001019055565b6001600160a01b038716600081815260126020908152604091829020805460ff19166001179055815161010081018352848152908101929092528101866004811115611b6b57634e487b7160e01b600052602160045260246000fd5b8152602001878152602001856004811115611b9657634e487b7160e01b600052602160045260246000fd5b8152602001846002811115611bbb57634e487b7160e01b600052602160045260246000fd5b8152426020808301919091523360409283015260008481526011825282902083518155908301516001820180546001600160a01b03929092166001600160a01b031983168117825593850151929390916001600160a81b03191617600160a01b836004811115611c3b57634e487b7160e01b600052602160045260246000fd5b021790555060608201518051611c5b916002840191602090910190613cc7565b50608082015160038201805460ff19166001836004811115611c8d57634e487b7160e01b600052602160045260246000fd5b021790555060a082015160038201805461ff001916610100836002811115611cc557634e487b7160e01b600052602160045260246000fd5b021790555060c082810151600483015560e092830151600590920180546001600160a01b0319166001600160a01b039384161790556040805185815260a060208201819052600c908201526b111bd8dd1bdc88105919195960a21b92810192909252918a16918101919091523360608201524260808201527f64d11508cb09dba8068d04ced552b2c73ba7c3081d9f4c9166caa028b3213fcd910160405180910390a15060019695505050505050565b336000818152600f602052604081205490919060ff161515600114611dac5760405162461bcd60e51b81526004016104d29061442d565b3360009081526010602090815260408083206001600160a01b038716845290915290205460ff161515600114611e205760405162461bcd60e51b815260206004820152601960248201527841636365737320686173206265656e2070726f76696465642160381b60448201526064016104d2565b3360008181526010602090815260408083206001600160a01b038881168552908352818420805460ff19169055938352600e825280832081516101a0810183528154815260018201549381019390935260028101549094169082015260038301805492939192606084019190611e95906147a2565b80601f0160208091040260200160405190810160405280929190818152602001828054611ec1906147a2565b8015611f0e5780601f10611ee357610100808354040283529160200191611f0e565b820191906000526020600020905b815481529060010190602001808311611ef157829003601f168201915b5050509183525050600482015460209091019060ff166002811115611f4357634e487b7160e01b600052602160045260246000fd5b6002811115611f6257634e487b7160e01b600052602160045260246000fd5b8152602001600582018054611f76906147a2565b80601f0160208091040260200160405190810160405280929190818152602001828054611fa2906147a2565b8015611fef5780601f10611fc457610100808354040283529160200191611fef565b820191906000526020600020905b815481529060010190602001808311611fd257829003601f168201915b50505091835250506006820154602082015260078201546001600160a01b03166040820152600882018054606090920191612029906147a2565b80601f0160208091040260200160405190810160405280929190818152602001828054612055906147a2565b80156120a25780601f10612077576101008083540402835291602001916120a2565b820191906000526020600020905b81548152906001019060200180831161208557829003601f168201915b505050505081526020016009820180546120bb906147a2565b80601f01602080910402602001604051908101604052809291908181526020018280546120e7906147a2565b80156121345780601f1061210957610100808354040283529160200191612134565b820191906000526020600020905b81548152906001019060200180831161211757829003601f168201915b50505050508152602001600a8201805461214d906147a2565b80601f0160208091040260200160405190810160405280929190818152602001828054612179906147a2565b80156121c65780601f1061219b576101008083540402835291602001916121c6565b820191906000526020600020905b8154815290600101906020018083116121a957829003601f168201915b5050509183525050600b82015460209091019060ff1660048111156121fb57634e487b7160e01b600052602160045260246000fd5b600481111561221a57634e487b7160e01b600052602160045260246000fd5b8152602001600b820160019054906101000a900460ff16600381111561225057634e487b7160e01b600052602160045260246000fd5b600381111561226f57634e487b7160e01b600052602160045260246000fd5b90525080516040805191825260a0602083018190526018908301527f416363657373205265766f6b652052656769737465726564000000000000000060c08301523390820181905260608201524260808201529091507feb790f1500bcf29d54354fc14a708e365eecd4ca74e3a4b7490ed8909137e5689060e001610edd565b6000806122fb60095490565b9050600061231961230b87613614565b30635296429560e11b613631565b60408051808201909152600e81526d18d85c9951da5d995c915b585a5b60921b602082015290915061234d90829086613656565b60408051808201909152600c81526b3930b73237b6a73ab6b132b960a11b602082015261cd2d9061238090839083613679565b6040805160c0810182528481526001600160a01b03888116602080840191825242848601908152336060860190815260808601888152600060a088018181528c82526013909552979097209551865592516001860180546001600160a01b031990811692871692909217905590516002860155915160038501805490931693169290921790559151600482015590516005909101805460ff19169115159190911790556124358883662386f26fc10000613697565b600084815260136020908152604080832084845260149092529091208154815560018083015490820180546001600160a01b039283166001600160a01b031991821617909155600280850154908401556003808501549084018054919093169116179055600480830154908201556005918201549101805460ff191660ff90921615159190911790559350836124ca88613614565b60405133907f7f3df4038a13e7b83557e5a0ebf67fec07391a522319ab42e81255e88de18ffb90600090a4505050949350505050565b600d602052600090815260409020805460018201546002830154600384018054939492936001600160a01b039092169291610f2b906147a2565b60008281526005602052604090205482906001600160a01b031633146125b35760405162461bcd60e51b815260206004820152602860248201527f536f75726365206d75737420626520746865206f7261636c65206f6620746865604482015267081c995c5d595cdd60c21b60648201526084016104d2565b60008181526005602052604080822080546001600160a01b03191690555182917fa40ad10b942505047c532a7399bf5eac2768b11b7155b40ec80309aea567f99891a2600083815260146020908152604091829020825160c0810184528154815260018201546001600160a01b03908116938201939093526002820154938101939093526003810154909116606083015260048101546080830181905260059091015460ff16151560a083015283141561269c57600160a0820152604051839085907fd43d51fb24cc5cf50d3877c6ead3eef8e9f387ed352909f52666203bfe18080490600090a35b50505050565b6001600160a01b038082166000908152601060209081526040808320938616835292905220548190839060ff16151560011461270f5760405162461bcd60e51b815260206004820152600c60248201526b1058d8d95cc811195b9a595960a21b60448201526064016104d2565b7f70fe213383d52a69e26a8c8b6862d18c03327e60659af1f59aa682b1039adf848360006004604051612744939291906142aa565b60405180910390a150505050565b600c6020526000908152604090208054600182015460028301805492936001600160a01b0390921692611253906147a2565b600060018460038111156127a857634e487b7160e01b600052602160045260246000fd5b1415612817573360009081526012602052604090205460ff1615156001146128125760405162461bcd60e51b815260206004820152601a60248201527f446f63746f72206e6f742072656769737465726572642079657400000000000060448201526064016104d2565b61287b565b336000908152600f602052604090205460ff16151560011461287b5760405162461bcd60e51b815260206004820152601b60248201527f50617469656e74206e6f7420726567697374657265726420796574000000000060448201526064016104d2565b600061288660085490565b9050612896600880546001019055565b6001600160a01b038089166000908152600e6020908152604080832081516101a08101835281548152600182015493810193909352600281015490941690820152600383018054929391926060840191906128f0906147a2565b80601f016020809104026020016040519081016040528092919081815260200182805461291c906147a2565b80156129695780601f1061293e57610100808354040283529160200191612969565b820191906000526020600020905b81548152906001019060200180831161294c57829003601f168201915b5050509183525050600482015460209091019060ff16600281111561299e57634e487b7160e01b600052602160045260246000fd5b60028111156129bd57634e487b7160e01b600052602160045260246000fd5b81526020016005820180546129d1906147a2565b80601f01602080910402602001604051908101604052809291908181526020018280546129fd906147a2565b8015612a4a5780601f10612a1f57610100808354040283529160200191612a4a565b820191906000526020600020905b815481529060010190602001808311612a2d57829003601f168201915b50505091835250506006820154602082015260078201546001600160a01b03166040820152600882018054606090920191612a84906147a2565b80601f0160208091040260200160405190810160405280929190818152602001828054612ab0906147a2565b8015612afd5780601f10612ad257610100808354040283529160200191612afd565b820191906000526020600020905b815481529060010190602001808311612ae057829003601f168201915b50505050508152602001600982018054612b16906147a2565b80601f0160208091040260200160405190810160405280929190818152602001828054612b42906147a2565b8015612b8f5780601f10612b6457610100808354040283529160200191612b8f565b820191906000526020600020905b815481529060010190602001808311612b7257829003601f168201915b50505050508152602001600a82018054612ba8906147a2565b80601f0160208091040260200160405190810160405280929190818152602001828054612bd4906147a2565b8015612c215780601f10612bf657610100808354040283529160200191612c21565b820191906000526020600020905b815481529060010190602001808311612c0457829003601f168201915b5050509183525050600b82015460209091019060ff166004811115612c5657634e487b7160e01b600052602160045260246000fd5b6004811115612c7557634e487b7160e01b600052602160045260246000fd5b8152602001600b820160019054906101000a900460ff166003811115612cab57634e487b7160e01b600052602160045260246000fd5b6003811115612cca57634e487b7160e01b600052602160045260246000fd5b905250610100810189905260408051610120810182528481526001600160a01b038c1660208201529081018990529091506060810160008152426020820152336040820152606001876003811115612d3257634e487b7160e01b600052602160045260246000fd5b8152602001866004811115612d5757634e487b7160e01b600052602160045260246000fd5b8152602001856003811115612d7c57634e487b7160e01b600052602160045260246000fd5b90526000838152600b602090815260409182902083518155838201516001820180546001600160a01b0319166001600160a01b03909216919091179055918301518051612dcf9260028501920190613cc7565b5060608201518160030160006101000a81548160ff02191690836003811115612e0857634e487b7160e01b600052602160045260246000fd5b02179055506080820151600482015560a08201516005820180546001600160a01b039092166001600160a01b031983168117825560c0850151926001600160a81b03191617600160a01b836003811115612e7257634e487b7160e01b600052602160045260246000fd5b021790555060e082015160058201805460ff60a81b1916600160a81b836004811115612eae57634e487b7160e01b600052602160045260246000fd5b021790555061010082015160058201805460ff60b01b1916600160b01b836003811115612eeb57634e487b7160e01b600052602160045260246000fd5b021790555050506000828152600b602090815260408083206001600160a01b03808e168552600c90935292208254815560018084015490820180546001600160a01b03191691909316179091556002808301805491830191612f4c906147a2565b612f57929190613d4b565b50600382810154828201805460ff90921692909160ff1916906001908490811115612f9257634e487b7160e01b600052602160045260246000fd5b0217905550600482810154908201556005808301805491830180546001600160a01b031981166001600160a01b039094169384178255915460ff600160a01b91829004169391926001600160a81b0319169091179083600381111561300757634e487b7160e01b600052602160045260246000fd5b0217905550600582810154908201805460ff600160a81b93849004169260ff60a81b199091169083600481111561304e57634e487b7160e01b600052602160045260246000fd5b0217905550600582810154908201805460ff600160b01b93849004169260ff60b01b199091169083600381111561309557634e487b7160e01b600052602160045260246000fd5b0217905550506040805184815260a0602082018190526018908201527f5265636f726420686173206265656e20696e736572746564000000000000000060c08201526001600160a01b038c168183015233606082015242608082015290517f4852d385b426147b4633d2db827a16e7e8d240a545fe4e0adf2e0c179cfa133292509081900360e00190a150600198975050505050505050565b600a546001600160a01b0316331461314557600080fd5b6001600160a01b0381166000908152600f6020526040902054819060ff1615156001146131845760405162461bcd60e51b81526004016104d29061442d565b6001600160a01b038083166000908152600e6020908152604080832081516101a08101835281548152600182015493810193909352600281015490941690820152600383018054929391926060840191906131de906147a2565b80601f016020809104026020016040519081016040528092919081815260200182805461320a906147a2565b80156132575780601f1061322c57610100808354040283529160200191613257565b820191906000526020600020905b81548152906001019060200180831161323a57829003601f168201915b5050509183525050600482015460209091019060ff16600281111561328c57634e487b7160e01b600052602160045260246000fd5b60028111156132ab57634e487b7160e01b600052602160045260246000fd5b81526020016005820180546132bf906147a2565b80601f01602080910402602001604051908101604052809291908181526020018280546132eb906147a2565b80156133385780601f1061330d57610100808354040283529160200191613338565b820191906000526020600020905b81548152906001019060200180831161331b57829003601f168201915b50505091835250506006820154602082015260078201546001600160a01b03166040820152600882018054606090920191613372906147a2565b80601f016020809104026020016040519081016040528092919081815260200182805461339e906147a2565b80156133eb5780601f106133c0576101008083540402835291602001916133eb565b820191906000526020600020905b8154815290600101906020018083116133ce57829003601f168201915b50505050508152602001600982018054613404906147a2565b80601f0160208091040260200160405190810160405280929190818152602001828054613430906147a2565b801561347d5780601f106134525761010080835404028352916020019161347d565b820191906000526020600020905b81548152906001019060200180831161346057829003601f168201915b50505050508152602001600a82018054613496906147a2565b80601f01602080910402602001604051908101604052809291908181526020018280546134c2906147a2565b801561350f5780601f106134e45761010080835404028352916020019161350f565b820191906000526020600020905b8154815290600101906020018083116134f257829003601f168201915b5050509183525050600b82015460209091019060ff16600481111561354457634e487b7160e01b600052602160045260246000fd5b600481111561356357634e487b7160e01b600052602160045260246000fd5b8152602001600b820160019054906101000a900460ff16600381111561359957634e487b7160e01b600052602160045260246000fd5b60038111156135b857634e487b7160e01b600052602160045260246000fd5b8152505090507f6e43f0a1523071fe23924a6f965d9061314ed05cf201a862fe084b59602389d4816060015182608001518361012001518461014001518560a0015160405161095c95949392919061436f565b80546001019055565b805160009082906136285750600092915050565b50506020015190565b613639613dc6565b613641613dc6565b61364d818686866136b6565b95945050505050565b608083015161366590836136f3565b608083015161367490826136f3565b505050565b608083015161368890836136f3565b6080830151613674908261370a565b60006136ae84848460016320214ca360e11b61371a565b949350505050565b6136be613dc6565b6136ce8560800151610100613926565b50509183526001600160a01b031660208301526001600160e01b031916604082015290565b6137008260038351613991565b6136748282613a5f565b61371682600083613991565b5050565b6004546040516bffffffffffffffffffffffff193060601b166020820152603481019190915260009060540160408051808303601f19018152918152815160209283012060045460608901526000818152600590935281832080546001600160a01b0319166001600160a01b038b16179055905190925082917fa6745906207afb96a5801b8e5711fd7b74c5780ce893a973806e179d675bbe2491a2600082600080886000015189602001518a604001518b606001518a8d60800151600001516040516024016137f19897969594939291906142e0565b60408051601f198184030181529181526020820180516001600160e01b03166001600160e01b0319909416939093179092526002549151630200057560e51b81529092506001600160a01b0390911690634000aea090613859908a9089908690600401614348565b602060405180830381600087803b15801561387357600080fd5b505af1158015613887573d6000803e3d6000fd5b505050506040513d601f19601f820116820180604052508101906138ab91906141cb565b6139035760405162461bcd60e51b815260206004820152602360248201527f756e61626c6520746f207472616e73666572416e6443616c6c20746f206f7261604482015262636c6560e81b60648201526084016104d2565b600160046000828254613916919061463d565b9091555091979650505050505050565b6040805180820190915260608152600060208201526139466020836147d7565b1561396e576139566020836147d7565b61396190602061475f565b61396b908361463d565b91505b506020808301829052604080518085526000815283019091019052815b92915050565b601781116139ac5761269c8360e0600585901b168317613a8d565b60ff81116139d6576139c9836018611fe0600586901b1617613a8d565b5061269c83826001613ab2565b61ffff8111613a01576139f4836019611fe0600586901b1617613a8d565b5061269c83826002613ab2565b63ffffffff8111613a2e57613a2183601a611fe0600586901b1617613a8d565b5061269c83826004613ab2565b67ffffffffffffffff811161367457613a5283601b611fe0600586901b1617613a8d565b5061269c83826008613ab2565b604080518082019091526060815260006020820152613a8683846000015151848551613ad8565b9392505050565b604080518082019091526060815260006020820152613a868384600001515184613bc2565b6040805180820190915260608152600060208201526136ae848560000151518585613c1e565b6040805180820190915260608152600060208201528251821115613afb57600080fd5b6020850151613b0a838661463d565b1115613b3d57613b3d85613b2d87602001518786613b28919061463d565b613c9f565b613b38906002614740565b613cb0565b600080865180518760208301019350808887011115613b5c5787860182525b505050602084015b60208410613b9c5780518252613b7b60208361463d565b9150613b8860208261463d565b9050613b9560208561475f565b9350613b64565b51815160001960208690036101000a019081169019919091161790525083949350505050565b60408051808201909152606081526000602082015283602001518310613bf757613bf78485602001516002613b389190614740565b835180516020858301018481535080851415613c14576001810182525b5093949350505050565b6040805180820190915260608152600060208201526020850151613c42858461463d565b1115613c5657613c5685613b2d868561463d565b60006001613c6684610100614698565b613c70919061475f565b9050855183868201018583198251161781525080518487011115613c945783860181525b509495945050505050565b600081831115610eeb57508161398b565b8151613cbc8383613926565b5061269c8382613a5f565b828054613cd3906147a2565b90600052602060002090601f016020900481019282613cf55760008555613d3b565b82601f10613d0e57805160ff1916838001178555613d3b565b82800160010185558215613d3b579182015b82811115613d3b578251825591602001919060010190613d20565b50613d47929150613e01565b5090565b828054613d57906147a2565b90600052602060002090601f016020900481019282613d795760008555613d3b565b82601f10613d8a5780548555613d3b565b82800160010185558215613d3b57600052602060002091601f016020900482015b82811115613d3b578254825591600101919060010190613dab565b6040805160a0810182526000808252602080830182905282840182905260608084018390528451808601909552845283015290608082015290565b5b80821115613d475760008155600101613e02565b80356001600160a01b0381168114613e2d57600080fd5b919050565b8035613e2d81614869565b803560038110613e2d57600080fd5b600082601f830112613e5c578081fd5b813567ffffffffffffffff80821115613e7757613e77614823565b604051601f8301601f19908116603f01168101908282118183101715613e9f57613e9f614823565b81604052838152866020858801011115613eb7578485fd5b8360208701602083013792830160200193909352509392505050565b600060208284031215613ee4578081fd5b613a8682613e16565b60008060408385031215613eff578081fd5b613f0883613e16565b9150613f1660208401613e16565b90509250929050565b60008060008060808587031215613f34578182fd5b613f3d85613e16565b9350602085013567ffffffffffffffff80821115613f59578384fd5b613f6588838901613e4c565b9450613f7360408801613e16565b93506060870135915080821115613f88578283fd5b50613f9587828801613e4c565b91505092959194509250565b600080600080600060a08688031215613fb8578081fd5b613fc186613e16565b9450602086013567ffffffffffffffff811115613fdc578182fd5b613fe888828901613e4c565b9450506040860135613ff981614869565b9250606086013561400981614869565b915061401760808701613e3d565b90509295509295909350565b60008060008060008060c0878903121561403b578081fd5b61404487613e16565b9550602087013567ffffffffffffffff80821115614060578283fd5b61406c8a838b01613e4c565b96506040890135915080821115614081578283fd5b5061408e89828a01613e4c565b945050606087013561409f8161485c565b925060808701356140af81614869565b915060a08701356140bf8161485c565b809150509295509295509295565b600080600080600080600080610100898b0312156140e9578182fd5b6140f289613e16565b9750602089013567ffffffffffffffff8082111561410e578384fd5b61411a8c838d01613e4c565b985060408b013591508082111561412f578384fd5b61413b8c838d01613e4c565b975060608b0135915080821115614150578384fd5b61415c8c838d01613e4c565b965061416a60808c01613e32565b955061417860a08c01613e3d565b945060c08b013591508082111561418d578384fd5b6141998c838d01613e4c565b935060e08b01359150808211156141ae578283fd5b506141bb8b828c01613e4c565b9150509295985092959890939650565b6000602082840312156141dc578081fd5b81518015158114613a86578182fd5b6000602082840312156141fc578081fd5b5035919050565b600060208284031215614214578081fd5b5051919050565b6000806040838503121561422d578182fd5b50508035926020909101359150565b60008151808452614254816020860160208601614776565b601f01601f19169290920160200192915050565b61427181614839565b9052565b600381106142715761427161480d565b6142718161484c565b600082516142a0818460208701614776565b9190910192915050565b6001600160a01b0384168152606081016142c38461484c565b8360208301526142d28361484c565b826040830152949350505050565b6001600160a01b0389811682526020820189905260408201889052861660608201526001600160e01b03198516608082015260a0810184905260c0810183905261010060e082018190526000906143398382018561423c565b9b9a5050505050505050505050565b60018060a01b038416815282602082015260606040820152600061364d606083018461423c565b60a08152600061438260a083018861423c565b61438f6020840188614275565b82810360408401526143a1818761423c565b905082810360608401526143b5818661423c565b905082810360808401526143c9818561423c565b98975050505050505050565b6080815260006143e8608083018761423c565b82810360208401526143fa818761423c565b9050828103604084015261440e818661423c565b90508281036060840152614422818561423c565b979650505050505050565b60208082526016908201527514185d1a595b9d08139bdd081c9959da5cdd195c995960521b604082015260600190565b8881526001600160a01b038881166020830152600090610100906144808a61484c565b8960408501528160608501526144988285018a61423c565b92506144a38861484c565b8760808501526144b660a0850188614275565b8560c085015280851660e085015250509998505050505050505050565b8981526001600160a01b038981166020830152610120604083018190526000916144ff8483018c61423c565b925061450a8a614839565b89606085015288608085015280881660a0850152505061452985614839565b8460c08301526145388461484c565b8360e083015261454783614839565b826101008301529a9950505050505050505050565b60006101a08f83528e602084015261457f604084018f6001600160a01b03169052565b8060608401526145918184018e61423c565b90506145a0608084018d614275565b82810360a08401526145b2818c61423c565b90508960c08401526145cf60e084018a6001600160a01b03169052565b8281036101008401526145e2818961423c565b90508281036101208401526145f7818861423c565b905082810361014084015261460c818761423c565b91505061461d610160830185614285565b61462b610180830184614268565b9e9d5050505050505050505050505050565b60008219821115614650576146506147f7565b500190565b600181815b80851115614690578160001904821115614676576146766147f7565b8085161561468357918102915b93841c939080029061465a565b509250929050565b6000613a8683836000826146ae5750600161398b565b816146bb5750600061398b565b81600181146146d157600281146146db576146f7565b600191505061398b565b60ff8411156146ec576146ec6147f7565b50506001821b61398b565b5060208310610133831016604e8410600b841016171561471a575081810a61398b565b6147248383614655565b8060001904821115614738576147386147f7565b029392505050565b600081600019048311821515161561475a5761475a6147f7565b500290565b600082821015614771576147716147f7565b500390565b60005b83811015614791578181015183820152602001614779565b8381111561269c5750506000910152565b600181811c908216806147b657607f821691505b60208210811415610eeb57634e487b7160e01b600052602260045260246000fd5b6000826147f257634e487b7160e01b81526012600452602481fd5b500690565b634e487b7160e01b600052601160045260246000fd5b634e487b7160e01b600052602160045260246000fd5b634e487b7160e01b600052604160045260246000fd5b600481106148495761484961480d565b50565b600581106148495761484961480d565b6004811061484957600080fd5b6005811061484957600080fdfea2646970667358221220668b94e4f4f13b1f46b47b7f825c95e01197126afbdc3ad173788928734e361264736f6c63430008040033",
          "opcodes": "PUSH1 0x80 PUSH1 0x40 MSTORE PUSH1 0x1 PUSH1 0x4 SSTORE CALLVALUE DUP1 ISZERO PUSH3 0x16 JUMPI PUSH1 0x0 DUP1 REVERT JUMPDEST POP PUSH1 0x40 MLOAD PUSH3 0x49C1 CODESIZE SUB DUP1 PUSH3 0x49C1 DUP4 CODECOPY DUP2 ADD PUSH1 0x40 DUP2 SWAP1 MSTORE PUSH3 0x39 SWAP2 PUSH3 0xD5 JUMP JUMPDEST PUSH1 0x2 DUP1 SLOAD PUSH1 0x1 PUSH1 0x1 PUSH1 0xA0 SHL SUB NOT AND PUSH1 0x1 PUSH1 0x1 PUSH1 0xA0 SHL SUB DUP4 AND OR SWAP1 SSTORE PUSH1 0xA DUP1 SLOAD CALLER PUSH1 0x1 PUSH1 0x1 PUSH1 0xA0 SHL SUB NOT SWAP1 SWAP2 AND OR SWAP1 SSTORE PUSH3 0x80 PUSH1 0x6 PUSH3 0xCC PUSH1 0x20 SWAP1 DUP2 SHL PUSH3 0x360B OR SWAP1 SHR JUMP JUMPDEST PUSH3 0x97 PUSH1 0x7 PUSH3 0xCC PUSH1 0x20 SHL PUSH3 0x360B OR PUSH1 0x20 SHR JUMP JUMPDEST PUSH3 0xAE PUSH1 0x8 PUSH3 0xCC PUSH1 0x20 SHL PUSH3 0x360B OR PUSH1 0x20 SHR JUMP JUMPDEST PUSH3 0xC5 PUSH1 0x9 PUSH3 0xCC PUSH1 0x20 SHL PUSH3 0x360B OR PUSH1 0x20 SHR JUMP JUMPDEST POP PUSH3 0x105 JUMP JUMPDEST DUP1 SLOAD PUSH1 0x1 ADD SWAP1 SSTORE JUMP JUMPDEST PUSH1 0x0 PUSH1 0x20 DUP3 DUP5 SUB SLT ISZERO PUSH3 0xE7 JUMPI DUP1 DUP2 REVERT JUMPDEST DUP2 MLOAD PUSH1 0x1 PUSH1 0x1 PUSH1 0xA0 SHL SUB DUP2 AND DUP2 EQ PUSH3 0xFE JUMPI DUP2 DUP3 REVERT JUMPDEST SWAP4 SWAP3 POP POP POP JUMP JUMPDEST PUSH2 0x48AC DUP1 PUSH3 0x115 PUSH1 0x0 CODECOPY PUSH1 0x0 RETURN INVALID PUSH1 0x80 PUSH1 0x40 MSTORE CALLVALUE DUP1 ISZERO PUSH2 0x10 JUMPI PUSH1 0x0 DUP1 REVERT JUMPDEST POP PUSH1 0x4 CALLDATASIZE LT PUSH2 0x142 JUMPI PUSH1 0x0 CALLDATALOAD PUSH1 0xE0 SHR DUP1 PUSH4 0x8DA5CB5B GT PUSH2 0xB8 JUMPI DUP1 PUSH4 0xC2A19D1D GT PUSH2 0x7C JUMPI DUP1 PUSH4 0xC2A19D1D EQ PUSH2 0x316 JUMPI DUP1 PUSH4 0xCF790146 EQ PUSH2 0x329 JUMPI DUP1 PUSH4 0xD01D7683 EQ PUSH2 0x3B6 JUMPI DUP1 PUSH4 0xEB9560F5 EQ PUSH2 0x3E4 JUMPI DUP1 PUSH4 0xF3634797 EQ PUSH2 0x436 JUMPI DUP1 PUSH4 0xFA14396B EQ PUSH2 0x449 JUMPI PUSH1 0x0 DUP1 REVERT JUMPDEST DUP1 PUSH4 0x8DA5CB5B EQ PUSH2 0x28F JUMPI DUP1 PUSH4 0x93119A83 EQ PUSH2 0x2BA JUMPI DUP1 PUSH4 0xA52C852A EQ PUSH2 0x2CD JUMPI DUP1 PUSH4 0xA888803E EQ PUSH2 0x2E0 JUMPI DUP1 PUSH4 0xC0807D6F EQ PUSH2 0x303 JUMPI PUSH1 0x0 DUP1 REVERT JUMPDEST DUP1 PUSH4 0x40979B68 GT PUSH2 0x10A JUMPI DUP1 PUSH4 0x40979B68 EQ PUSH2 0x1FB JUMPI DUP1 PUSH4 0x4EEC4E74 EQ PUSH2 0x20E JUMPI DUP1 PUSH4 0x6EFB1B84 EQ PUSH2 0x22F JUMPI DUP1 PUSH4 0x6F273A3E EQ PUSH2 0x256 JUMPI DUP1 PUSH4 0x85E68531 EQ PUSH2 0x269 JUMPI DUP1 PUSH4 0x8A335D10 EQ PUSH2 0x27C JUMPI PUSH1 0x0 DUP1 REVERT JUMPDEST DUP1 PUSH4 0x4F0A2B6 EQ PUSH2 0x147 JUMPI DUP1 PUSH4 0x83CB02D EQ PUSH2 0x15C JUMPI DUP1 PUSH4 0xAE5E739 EQ PUSH2 0x194 JUMPI DUP1 PUSH4 0x10C5F025 EQ PUSH2 0x1A7 JUMPI DUP1 PUSH4 0x34461067 EQ PUSH2 0x1D3 JUMPI JUMPDEST PUSH1 0x0 DUP1 REVERT JUMPDEST PUSH2 0x15A PUSH2 0x155 CALLDATASIZE PUSH1 0x4 PUSH2 0x3EED JUMP JUMPDEST PUSH2 0x45C JUMP JUMPDEST STOP JUMPDEST PUSH2 0x17F PUSH2 0x16A CALLDATASIZE PUSH1 0x4 PUSH2 0x3ED3 JUMP JUMPDEST PUSH1 0x12 PUSH1 0x20 MSTORE PUSH1 0x0 SWAP1 DUP2 MSTORE PUSH1 0x40 SWAP1 KECCAK256 SLOAD PUSH1 0xFF AND DUP2 JUMP JUMPDEST PUSH1 0x40 MLOAD SWAP1 ISZERO ISZERO DUP2 MSTORE PUSH1 0x20 ADD JUMPDEST PUSH1 0x40 MLOAD DUP1 SWAP2 SUB SWAP1 RETURN JUMPDEST PUSH2 0x17F PUSH2 0x1A2 CALLDATASIZE PUSH1 0x4 PUSH2 0x3ED3 JUMP JUMPDEST PUSH2 0x969 JUMP JUMPDEST PUSH2 0x1BA PUSH2 0x1B5 CALLDATASIZE PUSH1 0x4 PUSH2 0x3ED3 JUMP JUMPDEST PUSH2 0xEF1 JUMP JUMPDEST PUSH1 0x40 MLOAD PUSH2 0x18B SWAP14 SWAP13 SWAP12 SWAP11 SWAP10 SWAP9 SWAP8 SWAP7 SWAP6 SWAP5 SWAP4 SWAP3 SWAP2 SWAP1 PUSH2 0x455C JUMP JUMPDEST PUSH2 0x1E6 PUSH2 0x1E1 CALLDATASIZE PUSH1 0x4 PUSH2 0x41EB JUMP JUMPDEST PUSH2 0x1221 JUMP JUMPDEST PUSH1 0x40 MLOAD PUSH2 0x18B SWAP10 SWAP9 SWAP8 SWAP7 SWAP6 SWAP5 SWAP4 SWAP3 SWAP2 SWAP1 PUSH2 0x44D3 JUMP JUMPDEST PUSH2 0x17F PUSH2 0x209 CALLDATASIZE PUSH1 0x4 PUSH2 0x3ED3 JUMP JUMPDEST PUSH2 0x1315 JUMP JUMPDEST PUSH2 0x221 PUSH2 0x21C CALLDATASIZE PUSH1 0x4 PUSH2 0x40CD JUMP JUMPDEST PUSH2 0x1433 JUMP JUMPDEST PUSH1 0x40 MLOAD SWAP1 DUP2 MSTORE PUSH1 0x20 ADD PUSH2 0x18B JUMP JUMPDEST PUSH2 0x242 PUSH2 0x23D CALLDATASIZE PUSH1 0x4 PUSH2 0x41EB JUMP JUMPDEST PUSH2 0x19A0 JUMP JUMPDEST PUSH1 0x40 MLOAD PUSH2 0x18B SWAP9 SWAP8 SWAP7 SWAP6 SWAP5 SWAP4 SWAP3 SWAP2 SWAP1 PUSH2 0x445D JUMP JUMPDEST PUSH2 0x17F PUSH2 0x264 CALLDATASIZE PUSH1 0x4 PUSH2 0x3FA1 JUMP JUMPDEST PUSH2 0x1A8B JUMP JUMPDEST PUSH2 0x17F PUSH2 0x277 CALLDATASIZE PUSH1 0x4 PUSH2 0x3ED3 JUMP JUMPDEST PUSH2 0x1D75 JUMP JUMPDEST PUSH2 0x221 PUSH2 0x28A CALLDATASIZE PUSH1 0x4 PUSH2 0x3F1F JUMP JUMPDEST PUSH2 0x22EF JUMP JUMPDEST PUSH1 0xA SLOAD PUSH2 0x2A2 SWAP1 PUSH1 0x1 PUSH1 0x1 PUSH1 0xA0 SHL SUB AND DUP2 JUMP JUMPDEST PUSH1 0x40 MLOAD PUSH1 0x1 PUSH1 0x1 PUSH1 0xA0 SHL SUB SWAP1 SWAP2 AND DUP2 MSTORE PUSH1 0x20 ADD PUSH2 0x18B JUMP JUMPDEST PUSH2 0x1BA PUSH2 0x2C8 CALLDATASIZE PUSH1 0x4 PUSH2 0x41EB JUMP JUMPDEST PUSH2 0x2500 JUMP JUMPDEST PUSH2 0x15A PUSH2 0x2DB CALLDATASIZE PUSH1 0x4 PUSH2 0x421B JUMP JUMPDEST PUSH2 0x253A JUMP JUMPDEST PUSH2 0x17F PUSH2 0x2EE CALLDATASIZE PUSH1 0x4 PUSH2 0x3ED3 JUMP JUMPDEST PUSH1 0xF PUSH1 0x20 MSTORE PUSH1 0x0 SWAP1 DUP2 MSTORE PUSH1 0x40 SWAP1 KECCAK256 SLOAD PUSH1 0xFF AND DUP2 JUMP JUMPDEST PUSH2 0x15A PUSH2 0x311 CALLDATASIZE PUSH1 0x4 PUSH2 0x3EED JUMP JUMPDEST PUSH2 0x26A2 JUMP JUMPDEST PUSH2 0x1E6 PUSH2 0x324 CALLDATASIZE PUSH1 0x4 PUSH2 0x3ED3 JUMP JUMPDEST PUSH2 0x2752 JUMP JUMPDEST PUSH2 0x37B PUSH2 0x337 CALLDATASIZE PUSH1 0x4 PUSH2 0x41EB JUMP JUMPDEST PUSH1 0x13 PUSH1 0x20 MSTORE PUSH1 0x0 SWAP1 DUP2 MSTORE PUSH1 0x40 SWAP1 KECCAK256 DUP1 SLOAD PUSH1 0x1 DUP3 ADD SLOAD PUSH1 0x2 DUP4 ADD SLOAD PUSH1 0x3 DUP5 ADD SLOAD PUSH1 0x4 DUP6 ADD SLOAD PUSH1 0x5 SWAP1 SWAP6 ADD SLOAD SWAP4 SWAP5 PUSH1 0x1 PUSH1 0x1 PUSH1 0xA0 SHL SUB SWAP4 DUP5 AND SWAP5 SWAP3 SWAP4 SWAP1 SWAP2 AND SWAP2 PUSH1 0xFF AND DUP7 JUMP JUMPDEST PUSH1 0x40 DUP1 MLOAD SWAP7 DUP8 MSTORE PUSH1 0x1 PUSH1 0x1 PUSH1 0xA0 SHL SUB SWAP6 DUP7 AND PUSH1 0x20 DUP9 ADD MSTORE DUP7 ADD SWAP4 SWAP1 SWAP4 MSTORE SWAP3 AND PUSH1 0x60 DUP5 ADD MSTORE PUSH1 0x80 DUP4 ADD SWAP2 SWAP1 SWAP2 MSTORE ISZERO ISZERO PUSH1 0xA0 DUP3 ADD MSTORE PUSH1 0xC0 ADD PUSH2 0x18B JUMP JUMPDEST PUSH2 0x17F PUSH2 0x3C4 CALLDATASIZE PUSH1 0x4 PUSH2 0x3EED JUMP JUMPDEST PUSH1 0x10 PUSH1 0x20 SWAP1 DUP2 MSTORE PUSH1 0x0 SWAP3 DUP4 MSTORE PUSH1 0x40 DUP1 DUP5 KECCAK256 SWAP1 SWAP2 MSTORE SWAP1 DUP3 MSTORE SWAP1 KECCAK256 SLOAD PUSH1 0xFF AND DUP2 JUMP JUMPDEST PUSH2 0x37B PUSH2 0x3F2 CALLDATASIZE PUSH1 0x4 PUSH2 0x41EB JUMP JUMPDEST PUSH1 0x14 PUSH1 0x20 MSTORE PUSH1 0x0 SWAP1 DUP2 MSTORE PUSH1 0x40 SWAP1 KECCAK256 DUP1 SLOAD PUSH1 0x1 DUP3 ADD SLOAD PUSH1 0x2 DUP4 ADD SLOAD PUSH1 0x3 DUP5 ADD SLOAD PUSH1 0x4 DUP6 ADD SLOAD PUSH1 0x5 SWAP1 SWAP6 ADD SLOAD SWAP4 SWAP5 PUSH1 0x1 PUSH1 0x1 PUSH1 0xA0 SHL SUB SWAP4 DUP5 AND SWAP5 SWAP3 SWAP4 SWAP1 SWAP2 AND SWAP2 PUSH1 0xFF AND DUP7 JUMP JUMPDEST PUSH2 0x17F PUSH2 0x444 CALLDATASIZE PUSH1 0x4 PUSH2 0x4023 JUMP JUMPDEST PUSH2 0x2784 JUMP JUMPDEST PUSH2 0x15A PUSH2 0x457 CALLDATASIZE PUSH1 0x4 PUSH2 0x3ED3 JUMP JUMPDEST PUSH2 0x312E JUMP JUMPDEST PUSH1 0x1 PUSH1 0x1 PUSH1 0xA0 SHL SUB DUP1 DUP3 AND PUSH1 0x0 SWAP1 DUP2 MSTORE PUSH1 0x10 PUSH1 0x20 SWAP1 DUP2 MSTORE PUSH1 0x40 DUP1 DUP4 KECCAK256 SWAP4 DUP7 AND DUP4 MSTORE SWAP3 SWAP1 MSTORE KECCAK256 SLOAD PUSH1 0xFF AND ISZERO ISZERO PUSH1 0x1 EQ PUSH2 0x4DB JUMPI PUSH1 0x40 MLOAD PUSH3 0x461BCD PUSH1 0xE5 SHL DUP2 MSTORE PUSH1 0x20 PUSH1 0x4 DUP3 ADD MSTORE PUSH1 0x1B PUSH1 0x24 DUP3 ADD MSTORE PUSH32 0x4163636573732064656E69656420666F7220496E737572616E63650000000000 PUSH1 0x44 DUP3 ADD MSTORE PUSH1 0x64 ADD JUMPDEST PUSH1 0x40 MLOAD DUP1 SWAP2 SUB SWAP1 REVERT JUMPDEST PUSH1 0x1 PUSH1 0x1 PUSH1 0xA0 SHL SUB DUP1 DUP3 AND PUSH1 0x0 SWAP1 DUP2 MSTORE PUSH1 0xE PUSH1 0x20 SWAP1 DUP2 MSTORE PUSH1 0x40 DUP1 DUP4 KECCAK256 DUP2 MLOAD PUSH2 0x1A0 DUP2 ADD DUP4 MSTORE DUP2 SLOAD DUP2 MSTORE PUSH1 0x1 DUP3 ADD SLOAD SWAP4 DUP2 ADD SWAP4 SWAP1 SWAP4 MSTORE PUSH1 0x2 DUP2 ADD SLOAD SWAP1 SWAP5 AND SWAP1 DUP3 ADD MSTORE PUSH1 0x3 DUP4 ADD DUP1 SLOAD SWAP3 SWAP4 SWAP2 SWAP3 PUSH1 0x60 DUP5 ADD SWAP2 SWAP1 PUSH2 0x535 SWAP1 PUSH2 0x47A2 JUMP JUMPDEST DUP1 PUSH1 0x1F ADD PUSH1 0x20 DUP1 SWAP2 DIV MUL PUSH1 0x20 ADD PUSH1 0x40 MLOAD SWAP1 DUP2 ADD PUSH1 0x40 MSTORE DUP1 SWAP3 SWAP2 SWAP1 DUP2 DUP2 MSTORE PUSH1 0x20 ADD DUP3 DUP1 SLOAD PUSH2 0x561 SWAP1 PUSH2 0x47A2 JUMP JUMPDEST DUP1 ISZERO PUSH2 0x5AE JUMPI DUP1 PUSH1 0x1F LT PUSH2 0x583 JUMPI PUSH2 0x100 DUP1 DUP4 SLOAD DIV MUL DUP4 MSTORE SWAP2 PUSH1 0x20 ADD SWAP2 PUSH2 0x5AE JUMP JUMPDEST DUP3 ADD SWAP2 SWAP1 PUSH1 0x0 MSTORE PUSH1 0x20 PUSH1 0x0 KECCAK256 SWAP1 JUMPDEST DUP2 SLOAD DUP2 MSTORE SWAP1 PUSH1 0x1 ADD SWAP1 PUSH1 0x20 ADD DUP1 DUP4 GT PUSH2 0x591 JUMPI DUP3 SWAP1 SUB PUSH1 0x1F AND DUP3 ADD SWAP2 JUMPDEST POP POP POP SWAP2 DUP4 MSTORE POP POP PUSH1 0x4 DUP3 ADD SLOAD PUSH1 0x20 SWAP1 SWAP2 ADD SWAP1 PUSH1 0xFF AND PUSH1 0x2 DUP2 GT ISZERO PUSH2 0x5E3 JUMPI PUSH4 0x4E487B71 PUSH1 0xE0 SHL PUSH1 0x0 MSTORE PUSH1 0x21 PUSH1 0x4 MSTORE PUSH1 0x24 PUSH1 0x0 REVERT JUMPDEST PUSH1 0x2 DUP2 GT ISZERO PUSH2 0x602 JUMPI PUSH4 0x4E487B71 PUSH1 0xE0 SHL PUSH1 0x0 MSTORE PUSH1 0x21 PUSH1 0x4 MSTORE PUSH1 0x24 PUSH1 0x0 REVERT JUMPDEST DUP2 MSTORE PUSH1 0x20 ADD PUSH1 0x5 DUP3 ADD DUP1 SLOAD PUSH2 0x616 SWAP1 PUSH2 0x47A2 JUMP JUMPDEST DUP1 PUSH1 0x1F ADD PUSH1 0x20 DUP1 SWAP2 DIV MUL PUSH1 0x20 ADD PUSH1 0x40 MLOAD SWAP1 DUP2 ADD PUSH1 0x40 MSTORE DUP1 SWAP3 SWAP2 SWAP1 DUP2 DUP2 MSTORE PUSH1 0x20 ADD DUP3 DUP1 SLOAD PUSH2 0x642 SWAP1 PUSH2 0x47A2 JUMP JUMPDEST DUP1 ISZERO PUSH2 0x68F JUMPI DUP1 PUSH1 0x1F LT PUSH2 0x664 JUMPI PUSH2 0x100 DUP1 DUP4 SLOAD DIV MUL DUP4 MSTORE SWAP2 PUSH1 0x20 ADD SWAP2 PUSH2 0x68F JUMP JUMPDEST DUP3 ADD SWAP2 SWAP1 PUSH1 0x0 MSTORE PUSH1 0x20 PUSH1 0x0 KECCAK256 SWAP1 JUMPDEST DUP2 SLOAD DUP2 MSTORE SWAP1 PUSH1 0x1 ADD SWAP1 PUSH1 0x20 ADD DUP1 DUP4 GT PUSH2 0x672 JUMPI DUP3 SWAP1 SUB PUSH1 0x1F AND DUP3 ADD SWAP2 JUMPDEST POP POP POP SWAP2 DUP4 MSTORE POP POP PUSH1 0x6 DUP3 ADD SLOAD PUSH1 0x20 DUP3 ADD MSTORE PUSH1 0x7 DUP3 ADD SLOAD PUSH1 0x1 PUSH1 0x1 PUSH1 0xA0 SHL SUB AND PUSH1 0x40 DUP3 ADD MSTORE PUSH1 0x8 DUP3 ADD DUP1 SLOAD PUSH1 0x60 SWAP1 SWAP3 ADD SWAP2 PUSH2 0x6C9 SWAP1 PUSH2 0x47A2 JUMP JUMPDEST DUP1 PUSH1 0x1F ADD PUSH1 0x20 DUP1 SWAP2 DIV MUL PUSH1 0x20 ADD PUSH1 0x40 MLOAD SWAP1 DUP2 ADD PUSH1 0x40 MSTORE DUP1 SWAP3 SWAP2 SWAP1 DUP2 DUP2 MSTORE PUSH1 0x20 ADD DUP3 DUP1 SLOAD PUSH2 0x6F5 SWAP1 PUSH2 0x47A2 JUMP JUMPDEST DUP1 ISZERO PUSH2 0x742 JUMPI DUP1 PUSH1 0x1F LT PUSH2 0x717 JUMPI PUSH2 0x100 DUP1 DUP4 SLOAD DIV MUL DUP4 MSTORE SWAP2 PUSH1 0x20 ADD SWAP2 PUSH2 0x742 JUMP JUMPDEST DUP3 ADD SWAP2 SWAP1 PUSH1 0x0 MSTORE PUSH1 0x20 PUSH1 0x0 KECCAK256 SWAP1 JUMPDEST DUP2 SLOAD DUP2 MSTORE SWAP1 PUSH1 0x1 ADD SWAP1 PUSH1 0x20 ADD DUP1 DUP4 GT PUSH2 0x725 JUMPI DUP3 SWAP1 SUB PUSH1 0x1F AND DUP3 ADD SWAP2 JUMPDEST POP POP POP POP POP DUP2 MSTORE PUSH1 0x20 ADD PUSH1 0x9 DUP3 ADD DUP1 SLOAD PUSH2 0x75B SWAP1 PUSH2 0x47A2 JUMP JUMPDEST DUP1 PUSH1 0x1F ADD PUSH1 0x20 DUP1 SWAP2 DIV MUL PUSH1 0x20 ADD PUSH1 0x40 MLOAD SWAP1 DUP2 ADD PUSH1 0x40 MSTORE DUP1 SWAP3 SWAP2 SWAP1 DUP2 DUP2 MSTORE PUSH1 0x20 ADD DUP3 DUP1 SLOAD PUSH2 0x787 SWAP1 PUSH2 0x47A2 JUMP JUMPDEST DUP1 ISZERO PUSH2 0x7D4 JUMPI DUP1 PUSH1 0x1F LT PUSH2 0x7A9 JUMPI PUSH2 0x100 DUP1 DUP4 SLOAD DIV MUL DUP4 MSTORE SWAP2 PUSH1 0x20 ADD SWAP2 PUSH2 0x7D4 JUMP JUMPDEST DUP3 ADD SWAP2 SWAP1 PUSH1 0x0 MSTORE PUSH1 0x20 PUSH1 0x0 KECCAK256 SWAP1 JUMPDEST DUP2 SLOAD DUP2 MSTORE SWAP1 PUSH1 0x1 ADD SWAP1 PUSH1 0x20 ADD DUP1 DUP4 GT PUSH2 0x7B7 JUMPI DUP3 SWAP1 SUB PUSH1 0x1F AND DUP3 ADD SWAP2 JUMPDEST POP POP POP POP POP DUP2 MSTORE PUSH1 0x20 ADD PUSH1 0xA DUP3 ADD DUP1 SLOAD PUSH2 0x7ED SWAP1 PUSH2 0x47A2 JUMP JUMPDEST DUP1 PUSH1 0x1F ADD PUSH1 0x20 DUP1 SWAP2 DIV MUL PUSH1 0x20 ADD PUSH1 0x40 MLOAD SWAP1 DUP2 ADD PUSH1 0x40 MSTORE DUP1 SWAP3 SWAP2 SWAP1 DUP2 DUP2 MSTORE PUSH1 0x20 ADD DUP3 DUP1 SLOAD PUSH2 0x819 SWAP1 PUSH2 0x47A2 JUMP JUMPDEST DUP1 ISZERO PUSH2 0x866 JUMPI DUP1 PUSH1 0x1F LT PUSH2 0x83B JUMPI PUSH2 0x100 DUP1 DUP4 SLOAD DIV MUL DUP4 MSTORE SWAP2 PUSH1 0x20 ADD SWAP2 PUSH2 0x866 JUMP JUMPDEST DUP3 ADD SWAP2 SWAP1 PUSH1 0x0 MSTORE PUSH1 0x20 PUSH1 0x0 KECCAK256 SWAP1 JUMPDEST DUP2 SLOAD DUP2 MSTORE SWAP1 PUSH1 0x1 ADD SWAP1 PUSH1 0x20 ADD DUP1 DUP4 GT PUSH2 0x849 JUMPI DUP3 SWAP1 SUB PUSH1 0x1F AND DUP3 ADD SWAP2 JUMPDEST POP POP POP SWAP2 DUP4 MSTORE POP POP PUSH1 0xB DUP3 ADD SLOAD PUSH1 0x20 SWAP1 SWAP2 ADD SWAP1 PUSH1 0xFF AND PUSH1 0x4 DUP2 GT ISZERO PUSH2 0x89B JUMPI PUSH4 0x4E487B71 PUSH1 0xE0 SHL PUSH1 0x0 MSTORE PUSH1 0x21 PUSH1 0x4 MSTORE PUSH1 0x24 PUSH1 0x0 REVERT JUMPDEST PUSH1 0x4 DUP2 GT ISZERO PUSH2 0x8BA JUMPI PUSH4 0x4E487B71 PUSH1 0xE0 SHL PUSH1 0x0 MSTORE PUSH1 0x21 PUSH1 0x4 MSTORE PUSH1 0x24 PUSH1 0x0 REVERT JUMPDEST DUP2 MSTORE PUSH1 0x20 ADD PUSH1 0xB DUP3 ADD PUSH1 0x1 SWAP1 SLOAD SWAP1 PUSH2 0x100 EXP SWAP1 DIV PUSH1 0xFF AND PUSH1 0x3 DUP2 GT ISZERO PUSH2 0x8F0 JUMPI PUSH4 0x4E487B71 PUSH1 0xE0 SHL PUSH1 0x0 MSTORE PUSH1 0x21 PUSH1 0x4 MSTORE PUSH1 0x24 PUSH1 0x0 REVERT JUMPDEST PUSH1 0x3 DUP2 GT ISZERO PUSH2 0x90F JUMPI PUSH4 0x4E487B71 PUSH1 0xE0 SHL PUSH1 0x0 MSTORE PUSH1 0x21 PUSH1 0x4 MSTORE PUSH1 0x24 PUSH1 0x0 REVERT JUMPDEST DUP2 MSTORE POP POP SWAP1 POP PUSH32 0x17D0D056163EF0EBD16B3AA12F5ED3273F01B4ED0D3D7CF772B7DE458F5B1DD0 DUP2 PUSH1 0x60 ADD MLOAD DUP3 PUSH1 0xA0 ADD MLOAD DUP4 PUSH2 0x120 ADD MLOAD DUP5 PUSH2 0x140 ADD MLOAD PUSH1 0x40 MLOAD PUSH2 0x95C SWAP5 SWAP4 SWAP3 SWAP2 SWAP1 PUSH2 0x43D5 JUMP JUMPDEST PUSH1 0x40 MLOAD DUP1 SWAP2 SUB SWAP1 LOG1 POP POP POP JUMP JUMPDEST CALLER PUSH1 0x0 DUP2 DUP2 MSTORE PUSH1 0xF PUSH1 0x20 MSTORE PUSH1 0x40 DUP2 KECCAK256 SLOAD SWAP1 SWAP2 SWAP1 PUSH1 0xFF AND ISZERO ISZERO PUSH1 0x1 EQ PUSH2 0x9A0 JUMPI PUSH1 0x40 MLOAD PUSH3 0x461BCD PUSH1 0xE5 SHL DUP2 MSTORE PUSH1 0x4 ADD PUSH2 0x4D2 SWAP1 PUSH2 0x442D JUMP JUMPDEST CALLER PUSH1 0x0 SWAP1 DUP2 MSTORE PUSH1 0x10 PUSH1 0x20 SWAP1 DUP2 MSTORE PUSH1 0x40 DUP1 DUP4 KECCAK256 PUSH1 0x1 PUSH1 0x1 PUSH1 0xA0 SHL SUB DUP8 AND DUP5 MSTORE SWAP1 SWAP2 MSTORE SWAP1 KECCAK256 SLOAD PUSH1 0xFF AND ISZERO PUSH2 0xA10 JUMPI PUSH1 0x40 MLOAD PUSH3 0x461BCD PUSH1 0xE5 SHL DUP2 MSTORE PUSH1 0x20 PUSH1 0x4 DUP3 ADD MSTORE PUSH1 0x19 PUSH1 0x24 DUP3 ADD MSTORE PUSH25 0x41636365737320686173206265656E2070726F766964656421 PUSH1 0x38 SHL PUSH1 0x44 DUP3 ADD MSTORE PUSH1 0x64 ADD PUSH2 0x4D2 JUMP JUMPDEST CALLER PUSH1 0x0 DUP2 DUP2 MSTORE PUSH1 0x10 PUSH1 0x20 SWAP1 DUP2 MSTORE PUSH1 0x40 DUP1 DUP4 KECCAK256 PUSH1 0x1 PUSH1 0x1 PUSH1 0xA0 SHL SUB DUP9 DUP2 AND DUP6 MSTORE SWAP1 DUP4 MSTORE DUP2 DUP5 KECCAK256 DUP1 SLOAD PUSH1 0xFF NOT AND PUSH1 0x1 SWAP1 DUP2 OR SWAP1 SWAP2 SSTORE SWAP5 DUP5 MSTORE PUSH1 0xE DUP4 MSTORE DUP2 DUP5 KECCAK256 DUP3 MLOAD PUSH2 0x1A0 DUP2 ADD DUP5 MSTORE DUP2 SLOAD DUP2 MSTORE SWAP6 DUP2 ADD SLOAD SWAP4 DUP7 ADD SWAP4 SWAP1 SWAP4 MSTORE PUSH1 0x2 DUP4 ADD SLOAD AND SWAP1 DUP5 ADD MSTORE PUSH1 0x3 DUP2 ADD DUP1 SLOAD SWAP3 SWAP4 SWAP3 PUSH1 0x60 DUP5 ADD SWAP2 SWAP1 PUSH2 0xA87 SWAP1 PUSH2 0x47A2 JUMP JUMPDEST DUP1 PUSH1 0x1F ADD PUSH1 0x20 DUP1 SWAP2 DIV MUL PUSH1 0x20 ADD PUSH1 0x40 MLOAD SWAP1 DUP2 ADD PUSH1 0x40 MSTORE DUP1 SWAP3 SWAP2 SWAP1 DUP2 DUP2 MSTORE PUSH1 0x20 ADD DUP3 DUP1 SLOAD PUSH2 0xAB3 SWAP1 PUSH2 0x47A2 JUMP JUMPDEST DUP1 ISZERO PUSH2 0xB00 JUMPI DUP1 PUSH1 0x1F LT PUSH2 0xAD5 JUMPI PUSH2 0x100 DUP1 DUP4 SLOAD DIV MUL DUP4 MSTORE SWAP2 PUSH1 0x20 ADD SWAP2 PUSH2 0xB00 JUMP JUMPDEST DUP3 ADD SWAP2 SWAP1 PUSH1 0x0 MSTORE PUSH1 0x20 PUSH1 0x0 KECCAK256 SWAP1 JUMPDEST DUP2 SLOAD DUP2 MSTORE SWAP1 PUSH1 0x1 ADD SWAP1 PUSH1 0x20 ADD DUP1 DUP4 GT PUSH2 0xAE3 JUMPI DUP3 SWAP1 SUB PUSH1 0x1F AND DUP3 ADD SWAP2 JUMPDEST POP POP POP SWAP2 DUP4 MSTORE POP POP PUSH1 0x4 DUP3 ADD SLOAD PUSH1 0x20 SWAP1 SWAP2 ADD SWAP1 PUSH1 0xFF AND PUSH1 0x2 DUP2 GT ISZERO PUSH2 0xB35 JUMPI PUSH4 0x4E487B71 PUSH1 0xE0 SHL PUSH1 0x0 MSTORE PUSH1 0x21 PUSH1 0x4 MSTORE PUSH1 0x24 PUSH1 0x0 REVERT JUMPDEST PUSH1 0x2 DUP2 GT ISZERO PUSH2 0xB54 JUMPI PUSH4 0x4E487B71 PUSH1 0xE0 SHL PUSH1 0x0 MSTORE PUSH1 0x21 PUSH1 0x4 MSTORE PUSH1 0x24 PUSH1 0x0 REVERT JUMPDEST DUP2 MSTORE PUSH1 0x20 ADD PUSH1 0x5 DUP3 ADD DUP1 SLOAD PUSH2 0xB68 SWAP1 PUSH2 0x47A2 JUMP JUMPDEST DUP1 PUSH1 0x1F ADD PUSH1 0x20 DUP1 SWAP2 DIV MUL PUSH1 0x20 ADD PUSH1 0x40 MLOAD SWAP1 DUP2 ADD PUSH1 0x40 MSTORE DUP1 SWAP3 SWAP2 SWAP1 DUP2 DUP2 MSTORE PUSH1 0x20 ADD DUP3 DUP1 SLOAD PUSH2 0xB94 SWAP1 PUSH2 0x47A2 JUMP JUMPDEST DUP1 ISZERO PUSH2 0xBE1 JUMPI DUP1 PUSH1 0x1F LT PUSH2 0xBB6 JUMPI PUSH2 0x100 DUP1 DUP4 SLOAD DIV MUL DUP4 MSTORE SWAP2 PUSH1 0x20 ADD SWAP2 PUSH2 0xBE1 JUMP JUMPDEST DUP3 ADD SWAP2 SWAP1 PUSH1 0x0 MSTORE PUSH1 0x20 PUSH1 0x0 KECCAK256 SWAP1 JUMPDEST DUP2 SLOAD DUP2 MSTORE SWAP1 PUSH1 0x1 ADD SWAP1 PUSH1 0x20 ADD DUP1 DUP4 GT PUSH2 0xBC4 JUMPI DUP3 SWAP1 SUB PUSH1 0x1F AND DUP3 ADD SWAP2 JUMPDEST POP POP POP SWAP2 DUP4 MSTORE POP POP PUSH1 0x6 DUP3 ADD SLOAD PUSH1 0x20 DUP3 ADD MSTORE PUSH1 0x7 DUP3 ADD SLOAD PUSH1 0x1 PUSH1 0x1 PUSH1 0xA0 SHL SUB AND PUSH1 0x40 DUP3 ADD MSTORE PUSH1 0x8 DUP3 ADD DUP1 SLOAD PUSH1 0x60 SWAP1 SWAP3 ADD SWAP2 PUSH2 0xC1B SWAP1 PUSH2 0x47A2 JUMP JUMPDEST DUP1 PUSH1 0x1F ADD PUSH1 0x20 DUP1 SWAP2 DIV MUL PUSH1 0x20 ADD PUSH1 0x40 MLOAD SWAP1 DUP2 ADD PUSH1 0x40 MSTORE DUP1 SWAP3 SWAP2 SWAP1 DUP2 DUP2 MSTORE PUSH1 0x20 ADD DUP3 DUP1 SLOAD PUSH2 0xC47 SWAP1 PUSH2 0x47A2 JUMP JUMPDEST DUP1 ISZERO PUSH2 0xC94 JUMPI DUP1 PUSH1 0x1F LT PUSH2 0xC69 JUMPI PUSH2 0x100 DUP1 DUP4 SLOAD DIV MUL DUP4 MSTORE SWAP2 PUSH1 0x20 ADD SWAP2 PUSH2 0xC94 JUMP JUMPDEST DUP3 ADD SWAP2 SWAP1 PUSH1 0x0 MSTORE PUSH1 0x20 PUSH1 0x0 KECCAK256 SWAP1 JUMPDEST DUP2 SLOAD DUP2 MSTORE SWAP1 PUSH1 0x1 ADD SWAP1 PUSH1 0x20 ADD DUP1 DUP4 GT PUSH2 0xC77 JUMPI DUP3 SWAP1 SUB PUSH1 0x1F AND DUP3 ADD SWAP2 JUMPDEST POP POP POP POP POP DUP2 MSTORE PUSH1 0x20 ADD PUSH1 0x9 DUP3 ADD DUP1 SLOAD PUSH2 0xCAD SWAP1 PUSH2 0x47A2 JUMP JUMPDEST DUP1 PUSH1 0x1F ADD PUSH1 0x20 DUP1 SWAP2 DIV MUL PUSH1 0x20 ADD PUSH1 0x40 MLOAD SWAP1 DUP2 ADD PUSH1 0x40 MSTORE DUP1 SWAP3 SWAP2 SWAP1 DUP2 DUP2 MSTORE PUSH1 0x20 ADD DUP3 DUP1 SLOAD PUSH2 0xCD9 SWAP1 PUSH2 0x47A2 JUMP JUMPDEST DUP1 ISZERO PUSH2 0xD26 JUMPI DUP1 PUSH1 0x1F LT PUSH2 0xCFB JUMPI PUSH2 0x100 DUP1 DUP4 SLOAD DIV MUL DUP4 MSTORE SWAP2 PUSH1 0x20 ADD SWAP2 PUSH2 0xD26 JUMP JUMPDEST DUP3 ADD SWAP2 SWAP1 PUSH1 0x0 MSTORE PUSH1 0x20 PUSH1 0x0 KECCAK256 SWAP1 JUMPDEST DUP2 SLOAD DUP2 MSTORE SWAP1 PUSH1 0x1 ADD SWAP1 PUSH1 0x20 ADD DUP1 DUP4 GT PUSH2 0xD09 JUMPI DUP3 SWAP1 SUB PUSH1 0x1F AND DUP3 ADD SWAP2 JUMPDEST POP POP POP POP POP DUP2 MSTORE PUSH1 0x20 ADD PUSH1 0xA DUP3 ADD DUP1 SLOAD PUSH2 0xD3F SWAP1 PUSH2 0x47A2 JUMP JUMPDEST DUP1 PUSH1 0x1F ADD PUSH1 0x20 DUP1 SWAP2 DIV MUL PUSH1 0x20 ADD PUSH1 0x40 MLOAD SWAP1 DUP2 ADD PUSH1 0x40 MSTORE DUP1 SWAP3 SWAP2 SWAP1 DUP2 DUP2 MSTORE PUSH1 0x20 ADD DUP3 DUP1 SLOAD PUSH2 0xD6B SWAP1 PUSH2 0x47A2 JUMP JUMPDEST DUP1 ISZERO PUSH2 0xDB8 JUMPI DUP1 PUSH1 0x1F LT PUSH2 0xD8D JUMPI PUSH2 0x100 DUP1 DUP4 SLOAD DIV MUL DUP4 MSTORE SWAP2 PUSH1 0x20 ADD SWAP2 PUSH2 0xDB8 JUMP JUMPDEST DUP3 ADD SWAP2 SWAP1 PUSH1 0x0 MSTORE PUSH1 0x20 PUSH1 0x0 KECCAK256 SWAP1 JUMPDEST DUP2 SLOAD DUP2 MSTORE SWAP1 PUSH1 0x1 ADD SWAP1 PUSH1 0x20 ADD DUP1 DUP4 GT PUSH2 0xD9B JUMPI DUP3 SWAP1 SUB PUSH1 0x1F AND DUP3 ADD SWAP2 JUMPDEST POP POP POP SWAP2 DUP4 MSTORE POP POP PUSH1 0xB DUP3 ADD SLOAD PUSH1 0x20 SWAP1 SWAP2 ADD SWAP1 PUSH1 0xFF AND PUSH1 0x4 DUP2 GT ISZERO PUSH2 0xDED JUMPI PUSH4 0x4E487B71 PUSH1 0xE0 SHL PUSH1 0x0 MSTORE PUSH1 0x21 PUSH1 0x4 MSTORE PUSH1 0x24 PUSH1 0x0 REVERT JUMPDEST PUSH1 0x4 DUP2 GT ISZERO PUSH2 0xE0C JUMPI PUSH4 0x4E487B71 PUSH1 0xE0 SHL PUSH1 0x0 MSTORE PUSH1 0x21 PUSH1 0x4 MSTORE PUSH1 0x24 PUSH1 0x0 REVERT JUMPDEST DUP2 MSTORE PUSH1 0x20 ADD PUSH1 0xB DUP3 ADD PUSH1 0x1 SWAP1 SLOAD SWAP1 PUSH2 0x100 EXP SWAP1 DIV PUSH1 0xFF AND PUSH1 0x3 DUP2 GT ISZERO PUSH2 0xE42 JUMPI PUSH4 0x4E487B71 PUSH1 0xE0 SHL PUSH1 0x0 MSTORE PUSH1 0x21 PUSH1 0x4 MSTORE PUSH1 0x24 PUSH1 0x0 REVERT JUMPDEST PUSH1 0x3 DUP2 GT ISZERO PUSH2 0xE61 JUMPI PUSH4 0x4E487B71 PUSH1 0xE0 SHL PUSH1 0x0 MSTORE PUSH1 0x21 PUSH1 0x4 MSTORE PUSH1 0x24 PUSH1 0x0 REVERT JUMPDEST SWAP1 MSTORE POP DUP1 MLOAD PUSH1 0x40 DUP1 MLOAD SWAP2 DUP3 MSTORE PUSH1 0xA0 PUSH1 0x20 DUP4 ADD DUP2 SWAP1 MSTORE PUSH1 0x17 SWAP1 DUP4 ADD MSTORE PUSH32 0x416363657373204772616E742052656769737465726564000000000000000000 PUSH1 0xC0 DUP4 ADD MSTORE CALLER SWAP1 DUP3 ADD DUP2 SWAP1 MSTORE PUSH1 0x60 DUP3 ADD MSTORE TIMESTAMP PUSH1 0x80 DUP3 ADD MSTORE SWAP1 SWAP2 POP PUSH32 0xEB790F1500BCF29D54354FC14A708E365EECD4CA74E3A4B7490ED8909137E568 SWAP1 PUSH1 0xE0 ADD JUMPDEST PUSH1 0x40 MLOAD DUP1 SWAP2 SUB SWAP1 LOG1 PUSH1 0x1 SWAP3 POP POP JUMPDEST POP SWAP2 SWAP1 POP JUMP JUMPDEST PUSH1 0xE PUSH1 0x20 MSTORE PUSH1 0x0 SWAP1 DUP2 MSTORE PUSH1 0x40 SWAP1 KECCAK256 DUP1 SLOAD PUSH1 0x1 DUP3 ADD SLOAD PUSH1 0x2 DUP4 ADD SLOAD PUSH1 0x3 DUP5 ADD DUP1 SLOAD SWAP4 SWAP5 SWAP3 SWAP4 PUSH1 0x1 PUSH1 0x1 PUSH1 0xA0 SHL SUB SWAP1 SWAP3 AND SWAP3 SWAP2 PUSH2 0xF2B SWAP1 PUSH2 0x47A2 JUMP JUMPDEST DUP1 PUSH1 0x1F ADD PUSH1 0x20 DUP1 SWAP2 DIV MUL PUSH1 0x20 ADD PUSH1 0x40 MLOAD SWAP1 DUP2 ADD PUSH1 0x40 MSTORE DUP1 SWAP3 SWAP2 SWAP1 DUP2 DUP2 MSTORE PUSH1 0x20 ADD DUP3 DUP1 SLOAD PUSH2 0xF57 SWAP1 PUSH2 0x47A2 JUMP JUMPDEST DUP1 ISZERO PUSH2 0xFA4 JUMPI DUP1 PUSH1 0x1F LT PUSH2 0xF79 JUMPI PUSH2 0x100 DUP1 DUP4 SLOAD DIV MUL DUP4 MSTORE SWAP2 PUSH1 0x20 ADD SWAP2 PUSH2 0xFA4 JUMP JUMPDEST DUP3 ADD SWAP2 SWAP1 PUSH1 0x0 MSTORE PUSH1 0x20 PUSH1 0x0 KECCAK256 SWAP1 JUMPDEST DUP2 SLOAD DUP2 MSTORE SWAP1 PUSH1 0x1 ADD SWAP1 PUSH1 0x20 ADD DUP1 DUP4 GT PUSH2 0xF87 JUMPI DUP3 SWAP1 SUB PUSH1 0x1F AND DUP3 ADD SWAP2 JUMPDEST POP POP POP PUSH1 0x4 DUP5 ADD SLOAD PUSH1 0x5 DUP6 ADD DUP1 SLOAD SWAP5 SWAP6 PUSH1 0xFF SWAP1 SWAP3 AND SWAP5 SWAP2 SWAP4 POP SWAP2 POP PUSH2 0xFC8 SWAP1 PUSH2 0x47A2 JUMP JUMPDEST DUP1 PUSH1 0x1F ADD PUSH1 0x20 DUP1 SWAP2 DIV MUL PUSH1 0x20 ADD PUSH1 0x40 MLOAD SWAP1 DUP2 ADD PUSH1 0x40 MSTORE DUP1 SWAP3 SWAP2 SWAP1 DUP2 DUP2 MSTORE PUSH1 0x20 ADD DUP3 DUP1 SLOAD PUSH2 0xFF4 SWAP1 PUSH2 0x47A2 JUMP JUMPDEST DUP1 ISZERO PUSH2 0x1041 JUMPI DUP1 PUSH1 0x1F LT PUSH2 0x1016 JUMPI PUSH2 0x100 DUP1 DUP4 SLOAD DIV MUL DUP4 MSTORE SWAP2 PUSH1 0x20 ADD SWAP2 PUSH2 0x1041 JUMP JUMPDEST DUP3 ADD SWAP2 SWAP1 PUSH1 0x0 MSTORE PUSH1 0x20 PUSH1 0x0 KECCAK256 SWAP1 JUMPDEST DUP2 SLOAD DUP2 MSTORE SWAP1 PUSH1 0x1 ADD SWAP1 PUSH1 0x20 ADD DUP1 DUP4 GT PUSH2 0x1024 JUMPI DUP3 SWAP1 SUB PUSH1 0x1F AND DUP3 ADD SWAP2 JUMPDEST POP POP POP POP PUSH1 0x6 DUP4 ADD SLOAD PUSH1 0x7 DUP5 ADD SLOAD PUSH1 0x8 DUP6 ADD DUP1 SLOAD SWAP5 SWAP6 SWAP3 SWAP5 PUSH1 0x1 PUSH1 0x1 PUSH1 0xA0 SHL SUB SWAP1 SWAP3 AND SWAP4 POP SWAP1 PUSH2 0x1070 SWAP1 PUSH2 0x47A2 JUMP JUMPDEST DUP1 PUSH1 0x1F ADD PUSH1 0x20 DUP1 SWAP2 DIV MUL PUSH1 0x20 ADD PUSH1 0x40 MLOAD SWAP1 DUP2 ADD PUSH1 0x40 MSTORE DUP1 SWAP3 SWAP2 SWAP1 DUP2 DUP2 MSTORE PUSH1 0x20 ADD DUP3 DUP1 SLOAD PUSH2 0x109C SWAP1 PUSH2 0x47A2 JUMP JUMPDEST DUP1 ISZERO PUSH2 0x10E9 JUMPI DUP1 PUSH1 0x1F LT PUSH2 0x10BE JUMPI PUSH2 0x100 DUP1 DUP4 SLOAD DIV MUL DUP4 MSTORE SWAP2 PUSH1 0x20 ADD SWAP2 PUSH2 0x10E9 JUMP JUMPDEST DUP3 ADD SWAP2 SWAP1 PUSH1 0x0 MSTORE PUSH1 0x20 PUSH1 0x0 KECCAK256 SWAP1 JUMPDEST DUP2 SLOAD DUP2 MSTORE SWAP1 PUSH1 0x1 ADD SWAP1 PUSH1 0x20 ADD DUP1 DUP4 GT PUSH2 0x10CC JUMPI DUP3 SWAP1 SUB PUSH1 0x1F AND DUP3 ADD SWAP2 JUMPDEST POP POP POP POP POP SWAP1 DUP1 PUSH1 0x9 ADD DUP1 SLOAD PUSH2 0x10FE SWAP1 PUSH2 0x47A2 JUMP JUMPDEST DUP1 PUSH1 0x1F ADD PUSH1 0x20 DUP1 SWAP2 DIV MUL PUSH1 0x20 ADD PUSH1 0x40 MLOAD SWAP1 DUP2 ADD PUSH1 0x40 MSTORE DUP1 SWAP3 SWAP2 SWAP1 DUP2 DUP2 MSTORE PUSH1 0x20 ADD DUP3 DUP1 SLOAD PUSH2 0x112A SWAP1 PUSH2 0x47A2 JUMP JUMPDEST DUP1 ISZERO PUSH2 0x1177 JUMPI DUP1 PUSH1 0x1F LT PUSH2 0x114C JUMPI PUSH2 0x100 DUP1 DUP4 SLOAD DIV MUL DUP4 MSTORE SWAP2 PUSH1 0x20 ADD SWAP2 PUSH2 0x1177 JUMP JUMPDEST DUP3 ADD SWAP2 SWAP1 PUSH1 0x0 MSTORE PUSH1 0x20 PUSH1 0x0 KECCAK256 SWAP1 JUMPDEST DUP2 SLOAD DUP2 MSTORE SWAP1 PUSH1 0x1 ADD SWAP1 PUSH1 0x20 ADD DUP1 DUP4 GT PUSH2 0x115A JUMPI DUP3 SWAP1 SUB PUSH1 0x1F AND DUP3 ADD SWAP2 JUMPDEST POP POP POP POP POP SWAP1 DUP1 PUSH1 0xA ADD DUP1 SLOAD PUSH2 0x118C SWAP1 PUSH2 0x47A2 JUMP JUMPDEST DUP1 PUSH1 0x1F ADD PUSH1 0x20 DUP1 SWAP2 DIV MUL PUSH1 0x20 ADD PUSH1 0x40 MLOAD SWAP1 DUP2 ADD PUSH1 0x40 MSTORE DUP1 SWAP3 SWAP2 SWAP1 DUP2 DUP2 MSTORE PUSH1 0x20 ADD DUP3 DUP1 SLOAD PUSH2 0x11B8 SWAP1 PUSH2 0x47A2 JUMP JUMPDEST DUP1 ISZERO PUSH2 0x1205 JUMPI DUP1 PUSH1 0x1F LT PUSH2 0x11DA JUMPI PUSH2 0x100 DUP1 DUP4 SLOAD DIV MUL DUP4 MSTORE SWAP2 PUSH1 0x20 ADD SWAP2 PUSH2 0x1205 JUMP JUMPDEST DUP3 ADD SWAP2 SWAP1 PUSH1 0x0 MSTORE PUSH1 0x20 PUSH1 0x0 KECCAK256 SWAP1 JUMPDEST DUP2 SLOAD DUP2 MSTORE SWAP1 PUSH1 0x1 ADD SWAP1 PUSH1 0x20 ADD DUP1 DUP4 GT PUSH2 0x11E8 JUMPI DUP3 SWAP1 SUB PUSH1 0x1F AND DUP3 ADD SWAP2 JUMPDEST POP POP POP PUSH1 0xB SWAP1 SWAP4 ADD SLOAD SWAP2 SWAP3 POP POP PUSH1 0xFF DUP1 DUP3 AND SWAP2 PUSH2 0x100 SWAP1 DIV AND DUP14 JUMP JUMPDEST PUSH1 0xB PUSH1 0x20 MSTORE PUSH1 0x0 SWAP1 DUP2 MSTORE PUSH1 0x40 SWAP1 KECCAK256 DUP1 SLOAD PUSH1 0x1 DUP3 ADD SLOAD PUSH1 0x2 DUP4 ADD DUP1 SLOAD SWAP3 SWAP4 PUSH1 0x1 PUSH1 0x1 PUSH1 0xA0 SHL SUB SWAP1 SWAP3 AND SWAP3 PUSH2 0x1253 SWAP1 PUSH2 0x47A2 JUMP JUMPDEST DUP1 PUSH1 0x1F ADD PUSH1 0x20 DUP1 SWAP2 DIV MUL PUSH1 0x20 ADD PUSH1 0x40 MLOAD SWAP1 DUP2 ADD PUSH1 0x40 MSTORE DUP1 SWAP3 SWAP2 SWAP1 DUP2 DUP2 MSTORE PUSH1 0x20 ADD DUP3 DUP1 SLOAD PUSH2 0x127F SWAP1 PUSH2 0x47A2 JUMP JUMPDEST DUP1 ISZERO PUSH2 0x12CC JUMPI DUP1 PUSH1 0x1F LT PUSH2 0x12A1 JUMPI PUSH2 0x100 DUP1 DUP4 SLOAD DIV MUL DUP4 MSTORE SWAP2 PUSH1 0x20 ADD SWAP2 PUSH2 0x12CC JUMP JUMPDEST DUP3 ADD SWAP2 SWAP1 PUSH1 0x0 MSTORE PUSH1 0x20 PUSH1 0x0 KECCAK256 SWAP1 JUMPDEST DUP2 SLOAD DUP2 MSTORE SWAP1 PUSH1 0x1 ADD SWAP1 PUSH1 0x20 ADD DUP1 DUP4 GT PUSH2 0x12AF JUMPI DUP3 SWAP1 SUB PUSH1 0x1F AND DUP3 ADD SWAP2 JUMPDEST POP POP POP PUSH1 0x3 DUP5 ADD SLOAD PUSH1 0x4 DUP6 ADD SLOAD PUSH1 0x5 SWAP1 SWAP6 ADD SLOAD SWAP4 SWAP5 PUSH1 0xFF SWAP2 DUP3 AND SWAP5 SWAP1 SWAP4 POP PUSH1 0x1 PUSH1 0x1 PUSH1 0xA0 SHL SUB DUP2 AND SWAP3 POP PUSH1 0x1 PUSH1 0xA0 SHL DUP2 DIV DUP3 AND SWAP2 PUSH1 0x1 PUSH1 0xA8 SHL DUP3 DIV DUP2 AND SWAP2 PUSH1 0x1 PUSH1 0xB0 SHL SWAP1 DIV AND DUP10 JUMP JUMPDEST PUSH1 0xA SLOAD PUSH1 0x0 SWAP1 PUSH1 0x1 PUSH1 0x1 PUSH1 0xA0 SHL SUB AND CALLER EQ PUSH2 0x132F JUMPI PUSH1 0x0 DUP1 REVERT JUMPDEST PUSH1 0x1 PUSH1 0x1 PUSH1 0xA0 SHL SUB DUP3 AND PUSH1 0x0 SWAP1 DUP2 MSTORE PUSH1 0x12 PUSH1 0x20 MSTORE PUSH1 0x40 SWAP1 KECCAK256 SLOAD DUP3 SWAP1 PUSH1 0xFF AND ISZERO ISZERO PUSH1 0x1 EQ PUSH2 0x1396 JUMPI PUSH1 0x40 MLOAD PUSH3 0x461BCD PUSH1 0xE5 SHL DUP2 MSTORE PUSH1 0x20 PUSH1 0x4 DUP3 ADD MSTORE PUSH1 0x15 PUSH1 0x24 DUP3 ADD MSTORE PUSH21 0x111BD8DD1BDC88139BDD081C9959DA5CDD195C9959 PUSH1 0x5A SHL PUSH1 0x44 DUP3 ADD MSTORE PUSH1 0x64 ADD PUSH2 0x4D2 JUMP JUMPDEST PUSH1 0x1 PUSH1 0x1 PUSH1 0xA0 SHL SUB DUP4 AND PUSH1 0x0 DUP2 DUP2 MSTORE PUSH1 0x12 PUSH1 0x20 SWAP1 DUP2 MSTORE PUSH1 0x40 DUP1 DUP4 KECCAK256 DUP1 SLOAD PUSH1 0xFF NOT AND SWAP1 SSTORE DUP1 MLOAD SWAP3 DUP4 MSTORE PUSH1 0xA0 SWAP2 DUP4 ADD DUP3 SWAP1 MSTORE PUSH1 0x13 SWAP2 DUP4 ADD SWAP2 SWAP1 SWAP2 MSTORE PUSH19 0x111BD8DD1BDC8811195C9959DA5CDD195C9959 PUSH1 0x6A SHL PUSH1 0xC0 DUP4 ADD MSTORE DUP2 ADD SWAP2 SWAP1 SWAP2 MSTORE CALLER PUSH1 0x60 DUP3 ADD MSTORE TIMESTAMP PUSH1 0x80 DUP3 ADD MSTORE PUSH32 0x64D11508CB09DBA8068D04CED552B2C73BA7C3081D9F4C9166CAA028B3213FCD SWAP1 PUSH1 0xE0 ADD PUSH1 0x40 MLOAD DUP1 SWAP2 SUB SWAP1 LOG1 POP PUSH1 0x1 SWAP3 SWAP2 POP POP JUMP JUMPDEST PUSH1 0x0 DUP1 PUSH2 0x143F PUSH1 0x7 SLOAD SWAP1 JUMP JUMPDEST SWAP1 POP PUSH2 0x144F PUSH1 0x7 DUP1 SLOAD PUSH1 0x1 ADD SWAP1 SSTORE JUMP JUMPDEST PUSH1 0x40 MLOAD PUSH12 0xFFFFFFFFFFFFFFFFFFFFFFFF NOT CALLER PUSH1 0x60 SHL AND PUSH1 0x20 DUP3 ADD MSTORE TIMESTAMP PUSH1 0x34 DUP3 ADD MSTORE PUSH1 0x0 SWAP1 PUSH1 0x2 SWAP1 PUSH1 0x54 ADD PUSH1 0x40 DUP1 MLOAD PUSH1 0x1F NOT DUP2 DUP5 SUB ADD DUP2 MSTORE SWAP1 DUP3 SWAP1 MSTORE PUSH2 0x1493 SWAP2 PUSH2 0x428E JUMP JUMPDEST PUSH1 0x20 PUSH1 0x40 MLOAD DUP1 DUP4 SUB DUP2 DUP6 GAS STATICCALL ISZERO DUP1 ISZERO PUSH2 0x14B0 JUMPI RETURNDATASIZE PUSH1 0x0 DUP1 RETURNDATACOPY RETURNDATASIZE PUSH1 0x0 REVERT JUMPDEST POP POP POP PUSH1 0x40 MLOAD RETURNDATASIZE PUSH1 0x1F NOT PUSH1 0x1F DUP3 ADD AND DUP3 ADD DUP1 PUSH1 0x40 MSTORE POP DUP2 ADD SWAP1 PUSH2 0x14D3 SWAP2 SWAP1 PUSH2 0x4203 JUMP JUMPDEST PUSH1 0x0 SHR SWAP1 POP PUSH1 0x40 MLOAD DUP1 PUSH2 0x1A0 ADD PUSH1 0x40 MSTORE DUP1 DUP4 DUP2 MSTORE PUSH1 0x20 ADD DUP3 DUP2 MSTORE PUSH1 0x20 ADD DUP13 PUSH1 0x1 PUSH1 0x1 PUSH1 0xA0 SHL SUB AND DUP2 MSTORE PUSH1 0x20 ADD DUP12 DUP2 MSTORE PUSH1 0x20 ADD DUP8 PUSH1 0x2 DUP2 GT ISZERO PUSH2 0x1525 JUMPI PUSH4 0x4E487B71 PUSH1 0xE0 SHL PUSH1 0x0 MSTORE PUSH1 0x21 PUSH1 0x4 MSTORE PUSH1 0x24 PUSH1 0x0 REVERT JUMPDEST DUP2 MSTORE PUSH1 0x20 ADD DUP7 DUP2 MSTORE PUSH1 0x20 ADD TIMESTAMP DUP2 MSTORE PUSH1 0x20 ADD CALLER PUSH1 0x1 PUSH1 0x1 PUSH1 0xA0 SHL SUB AND DUP2 MSTORE PUSH1 0x20 ADD DUP6 DUP2 MSTORE PUSH1 0x20 ADD DUP10 DUP2 MSTORE PUSH1 0x20 ADD DUP11 DUP2 MSTORE PUSH1 0x20 ADD DUP9 PUSH1 0x4 DUP2 GT ISZERO PUSH2 0x1577 JUMPI PUSH4 0x4E487B71 PUSH1 0xE0 SHL PUSH1 0x0 MSTORE PUSH1 0x21 PUSH1 0x4 MSTORE PUSH1 0x24 PUSH1 0x0 REVERT JUMPDEST DUP2 MSTORE PUSH1 0x20 ADD PUSH1 0x3 SWAP1 MSTORE PUSH1 0x0 DUP4 DUP2 MSTORE PUSH1 0xD PUSH1 0x20 SWAP1 DUP2 MSTORE PUSH1 0x40 SWAP2 DUP3 SWAP1 KECCAK256 DUP4 MLOAD DUP2 SSTORE DUP4 DUP3 ADD MLOAD PUSH1 0x1 DUP3 ADD SSTORE SWAP2 DUP4 ADD MLOAD PUSH1 0x2 DUP4 ADD DUP1 SLOAD PUSH1 0x1 PUSH1 0x1 PUSH1 0xA0 SHL SUB NOT AND PUSH1 0x1 PUSH1 0x1 PUSH1 0xA0 SHL SUB SWAP1 SWAP3 AND SWAP2 SWAP1 SWAP2 OR SWAP1 SSTORE PUSH1 0x60 DUP4 ADD MLOAD DUP1 MLOAD PUSH2 0x15DB SWAP3 PUSH1 0x3 DUP6 ADD SWAP3 ADD SWAP1 PUSH2 0x3CC7 JUMP JUMPDEST POP PUSH1 0x80 DUP3 ADD MLOAD PUSH1 0x4 DUP3 ADD DUP1 SLOAD PUSH1 0xFF NOT AND PUSH1 0x1 DUP4 PUSH1 0x2 DUP2 GT ISZERO PUSH2 0x160D JUMPI PUSH4 0x4E487B71 PUSH1 0xE0 SHL PUSH1 0x0 MSTORE PUSH1 0x21 PUSH1 0x4 MSTORE PUSH1 0x24 PUSH1 0x0 REVERT JUMPDEST MUL OR SWAP1 SSTORE POP PUSH1 0xA0 DUP3 ADD MLOAD DUP1 MLOAD PUSH2 0x162D SWAP2 PUSH1 0x5 DUP5 ADD SWAP2 PUSH1 0x20 SWAP1 SWAP2 ADD SWAP1 PUSH2 0x3CC7 JUMP JUMPDEST POP PUSH1 0xC0 DUP3 ADD MLOAD PUSH1 0x6 DUP3 ADD SSTORE PUSH1 0xE0 DUP3 ADD MLOAD PUSH1 0x7 DUP3 ADD DUP1 SLOAD PUSH1 0x1 PUSH1 0x1 PUSH1 0xA0 SHL SUB NOT AND PUSH1 0x1 PUSH1 0x1 PUSH1 0xA0 SHL SUB SWAP1 SWAP3 AND SWAP2 SWAP1 SWAP2 OR SWAP1 SSTORE PUSH2 0x100 DUP3 ADD MLOAD DUP1 MLOAD PUSH2 0x167A SWAP2 PUSH1 0x8 DUP5 ADD SWAP2 PUSH1 0x20 SWAP1 SWAP2 ADD SWAP1 PUSH2 0x3CC7 JUMP JUMPDEST POP PUSH2 0x120 DUP3 ADD MLOAD DUP1 MLOAD PUSH2 0x1697 SWAP2 PUSH1 0x9 DUP5 ADD SWAP2 PUSH1 0x20 SWAP1 SWAP2 ADD SWAP1 PUSH2 0x3CC7 JUMP JUMPDEST POP PUSH2 0x140 DUP3 ADD MLOAD DUP1 MLOAD PUSH2 0x16B4 SWAP2 PUSH1 0xA DUP5 ADD SWAP2 PUSH1 0x20 SWAP1 SWAP2 ADD SWAP1 PUSH2 0x3CC7 JUMP JUMPDEST POP PUSH2 0x160 DUP3 ADD MLOAD PUSH1 0xB DUP3 ADD DUP1 SLOAD PUSH1 0xFF NOT AND PUSH1 0x1 DUP4 PUSH1 0x4 DUP2 GT ISZERO PUSH2 0x16E7 JUMPI PUSH4 0x4E487B71 PUSH1 0xE0 SHL PUSH1 0x0 MSTORE PUSH1 0x21 PUSH1 0x4 MSTORE PUSH1 0x24 PUSH1 0x0 REVERT JUMPDEST MUL OR SWAP1 SSTORE POP PUSH2 0x180 DUP3 ADD MLOAD PUSH1 0xB DUP3 ADD DUP1 SLOAD PUSH2 0xFF00 NOT AND PUSH2 0x100 DUP4 PUSH1 0x3 DUP2 GT ISZERO PUSH2 0x1720 JUMPI PUSH4 0x4E487B71 PUSH1 0xE0 SHL PUSH1 0x0 MSTORE PUSH1 0x21 PUSH1 0x4 MSTORE PUSH1 0x24 PUSH1 0x0 REVERT JUMPDEST MUL OR SWAP1 SSTORE POP POP POP PUSH1 0x1 PUSH1 0x1 PUSH1 0xA0 SHL SUB DUP1 DUP13 AND PUSH1 0x0 DUP2 DUP2 MSTORE PUSH1 0xF PUSH1 0x20 SWAP1 DUP2 MSTORE PUSH1 0x40 DUP1 DUP4 KECCAK256 DUP1 SLOAD PUSH1 0xFF NOT AND PUSH1 0x1 SWAP1 DUP2 OR SWAP1 SWAP2 SSTORE DUP8 DUP5 MSTORE PUSH1 0xD DUP4 MSTORE DUP2 DUP5 KECCAK256 SWAP5 DUP5 MSTORE PUSH1 0xE SWAP1 SWAP3 MSTORE SWAP1 SWAP2 KECCAK256 DUP3 SLOAD DUP2 SSTORE DUP3 DUP3 ADD SLOAD SWAP2 DUP2 ADD SWAP2 SWAP1 SWAP2 SSTORE PUSH1 0x2 DUP1 DUP4 ADD SLOAD SWAP1 DUP3 ADD DUP1 SLOAD PUSH1 0x1 PUSH1 0x1 PUSH1 0xA0 SHL SUB NOT AND SWAP2 SWAP1 SWAP5 AND OR SWAP1 SWAP3 SSTORE PUSH1 0x3 DUP1 DUP3 ADD DUP1 SLOAD SWAP3 SWAP4 SWAP3 SWAP2 DUP4 ADD SWAP2 PUSH2 0x17A9 SWAP1 PUSH2 0x47A2 JUMP JUMPDEST PUSH2 0x17B4 SWAP3 SWAP2 SWAP1 PUSH2 0x3D4B JUMP JUMPDEST POP PUSH1 0x4 DUP3 DUP2 ADD SLOAD SWAP1 DUP3 ADD DUP1 SLOAD PUSH1 0xFF SWAP1 SWAP3 AND SWAP2 PUSH1 0xFF NOT AND PUSH1 0x1 DUP4 PUSH1 0x2 DUP2 GT ISZERO PUSH2 0x17EC JUMPI PUSH4 0x4E487B71 PUSH1 0xE0 SHL PUSH1 0x0 MSTORE PUSH1 0x21 PUSH1 0x4 MSTORE PUSH1 0x24 PUSH1 0x0 REVERT JUMPDEST MUL OR SWAP1 SSTORE POP PUSH1 0x5 DUP3 ADD DUP2 PUSH1 0x5 ADD SWAP1 DUP1 SLOAD PUSH2 0x1805 SWAP1 PUSH2 0x47A2 JUMP JUMPDEST PUSH2 0x1810 SWAP3 SWAP2 SWAP1 PUSH2 0x3D4B JUMP JUMPDEST POP PUSH1 0x6 DUP3 DUP2 ADD SLOAD SWAP1 DUP3 ADD SSTORE PUSH1 0x7 DUP1 DUP4 ADD SLOAD SWAP1 DUP3 ADD DUP1 SLOAD PUSH1 0x1 PUSH1 0x1 PUSH1 0xA0 SHL SUB NOT AND PUSH1 0x1 PUSH1 0x1 PUSH1 0xA0 SHL SUB SWAP1 SWAP3 AND SWAP2 SWAP1 SWAP2 OR SWAP1 SSTORE PUSH1 0x8 DUP1 DUP4 ADD DUP1 SLOAD SWAP2 DUP4 ADD SWAP2 PUSH2 0x1855 SWAP1 PUSH2 0x47A2 JUMP JUMPDEST PUSH2 0x1860 SWAP3 SWAP2 SWAP1 PUSH2 0x3D4B JUMP JUMPDEST POP PUSH1 0x9 DUP3 ADD DUP2 PUSH1 0x9 ADD SWAP1 DUP1 SLOAD PUSH2 0x1875 SWAP1 PUSH2 0x47A2 JUMP JUMPDEST PUSH2 0x1880 SWAP3 SWAP2 SWAP1 PUSH2 0x3D4B JUMP JUMPDEST POP PUSH1 0xA DUP3 ADD DUP2 PUSH1 0xA ADD SWAP1 DUP1 SLOAD PUSH2 0x1895 SWAP1 PUSH2 0x47A2 JUMP JUMPDEST PUSH2 0x18A0 SWAP3 SWAP2 SWAP1 PUSH2 0x3D4B JUMP JUMPDEST POP PUSH1 0xB DUP3 DUP2 ADD SLOAD SWAP1 DUP3 ADD DUP1 SLOAD PUSH1 0xFF SWAP1 SWAP3 AND SWAP2 PUSH1 0xFF NOT AND PUSH1 0x1 DUP4 PUSH1 0x4 DUP2 GT ISZERO PUSH2 0x18D8 JUMPI PUSH4 0x4E487B71 PUSH1 0xE0 SHL PUSH1 0x0 MSTORE PUSH1 0x21 PUSH1 0x4 MSTORE PUSH1 0x24 PUSH1 0x0 REVERT JUMPDEST MUL OR SWAP1 SSTORE POP PUSH1 0xB DUP3 DUP2 ADD SLOAD SWAP1 DUP3 ADD DUP1 SLOAD PUSH1 0xFF PUSH2 0x100 SWAP4 DUP5 SWAP1 DIV AND SWAP3 PUSH2 0xFF00 NOT SWAP1 SWAP2 AND SWAP1 DUP4 PUSH1 0x3 DUP2 GT ISZERO PUSH2 0x191B JUMPI PUSH4 0x4E487B71 PUSH1 0xE0 SHL PUSH1 0x0 MSTORE PUSH1 0x21 PUSH1 0x4 MSTORE PUSH1 0x24 PUSH1 0x0 REVERT JUMPDEST MUL OR SWAP1 SSTORE POP POP PUSH1 0x40 DUP1 MLOAD DUP5 DUP2 MSTORE PUSH1 0xA0 PUSH1 0x20 DUP3 ADD DUP2 SWAP1 MSTORE PUSH1 0x12 SWAP1 DUP3 ADD MSTORE PUSH18 0x14185D1A595B9D08149959DA5CDD195C9959 PUSH1 0x72 SHL PUSH1 0xC0 DUP3 ADD MSTORE CALLER DUP2 DUP4 ADD DUP2 SWAP1 MSTORE PUSH1 0x60 DUP3 ADD MSTORE TIMESTAMP PUSH1 0x80 DUP3 ADD MSTORE SWAP1 MLOAD PUSH32 0xEB790F1500BCF29D54354FC14A708E365EECD4CA74E3A4B7490ED8909137E568 SWAP3 POP SWAP1 DUP2 SWAP1 SUB PUSH1 0xE0 ADD SWAP1 LOG1 SWAP11 SWAP10 POP POP POP POP POP POP POP POP POP POP JUMP JUMPDEST PUSH1 0x11 PUSH1 0x20 MSTORE PUSH1 0x0 SWAP1 DUP2 MSTORE PUSH1 0x40 SWAP1 KECCAK256 DUP1 SLOAD PUSH1 0x1 DUP3 ADD SLOAD PUSH1 0x2 DUP4 ADD DUP1 SLOAD SWAP3 SWAP4 PUSH1 0x1 PUSH1 0x1 PUSH1 0xA0 SHL SUB DUP4 AND SWAP4 PUSH1 0x1 PUSH1 0xA0 SHL SWAP1 SWAP4 DIV PUSH1 0xFF AND SWAP3 SWAP1 SWAP2 SWAP1 PUSH2 0x19E0 SWAP1 PUSH2 0x47A2 JUMP JUMPDEST DUP1 PUSH1 0x1F ADD PUSH1 0x20 DUP1 SWAP2 DIV MUL PUSH1 0x20 ADD PUSH1 0x40 MLOAD SWAP1 DUP2 ADD PUSH1 0x40 MSTORE DUP1 SWAP3 SWAP2 SWAP1 DUP2 DUP2 MSTORE PUSH1 0x20 ADD DUP3 DUP1 SLOAD PUSH2 0x1A0C SWAP1 PUSH2 0x47A2 JUMP JUMPDEST DUP1 ISZERO PUSH2 0x1A59 JUMPI DUP1 PUSH1 0x1F LT PUSH2 0x1A2E JUMPI PUSH2 0x100 DUP1 DUP4 SLOAD DIV MUL DUP4 MSTORE SWAP2 PUSH1 0x20 ADD SWAP2 PUSH2 0x1A59 JUMP JUMPDEST DUP3 ADD SWAP2 SWAP1 PUSH1 0x0 MSTORE PUSH1 0x20 PUSH1 0x0 KECCAK256 SWAP1 JUMPDEST DUP2 SLOAD DUP2 MSTORE SWAP1 PUSH1 0x1 ADD SWAP1 PUSH1 0x20 ADD DUP1 DUP4 GT PUSH2 0x1A3C JUMPI DUP3 SWAP1 SUB PUSH1 0x1F AND DUP3 ADD SWAP2 JUMPDEST POP POP POP PUSH1 0x3 DUP5 ADD SLOAD PUSH1 0x4 DUP6 ADD SLOAD PUSH1 0x5 SWAP1 SWAP6 ADD SLOAD SWAP4 SWAP5 PUSH1 0xFF DUP1 DUP4 AND SWAP6 PUSH2 0x100 SWAP1 SWAP4 DIV AND SWAP4 POP SWAP2 POP PUSH1 0x1 PUSH1 0x1 PUSH1 0xA0 SHL SUB AND DUP9 JUMP JUMPDEST PUSH1 0x1 PUSH1 0x1 PUSH1 0xA0 SHL SUB DUP6 AND PUSH1 0x0 SWAP1 DUP2 MSTORE PUSH1 0x12 PUSH1 0x20 MSTORE PUSH1 0x40 DUP2 KECCAK256 SLOAD PUSH1 0xFF AND ISZERO PUSH2 0x1AF4 JUMPI PUSH1 0x40 MLOAD PUSH3 0x461BCD PUSH1 0xE5 SHL DUP2 MSTORE PUSH1 0x20 PUSH1 0x4 DUP3 ADD MSTORE PUSH1 0x18 PUSH1 0x24 DUP3 ADD MSTORE PUSH32 0x446F63746F7220697320616C72656164792061646465642E0000000000000000 PUSH1 0x44 DUP3 ADD MSTORE PUSH1 0x64 ADD PUSH2 0x4D2 JUMP JUMPDEST PUSH1 0x0 PUSH2 0x1AFF PUSH1 0x6 SLOAD SWAP1 JUMP JUMPDEST SWAP1 POP PUSH2 0x1B0F PUSH1 0x6 DUP1 SLOAD PUSH1 0x1 ADD SWAP1 SSTORE JUMP JUMPDEST PUSH1 0x1 PUSH1 0x1 PUSH1 0xA0 SHL SUB DUP8 AND PUSH1 0x0 DUP2 DUP2 MSTORE PUSH1 0x12 PUSH1 0x20 SWAP1 DUP2 MSTORE PUSH1 0x40 SWAP2 DUP3 SWAP1 KECCAK256 DUP1 SLOAD PUSH1 0xFF NOT AND PUSH1 0x1 OR SWAP1 SSTORE DUP2 MLOAD PUSH2 0x100 DUP2 ADD DUP4 MSTORE DUP5 DUP2 MSTORE SWAP1 DUP2 ADD SWAP3 SWAP1 SWAP3 MSTORE DUP2 ADD DUP7 PUSH1 0x4 DUP2 GT ISZERO PUSH2 0x1B6B JUMPI PUSH4 0x4E487B71 PUSH1 0xE0 SHL PUSH1 0x0 MSTORE PUSH1 0x21 PUSH1 0x4 MSTORE PUSH1 0x24 PUSH1 0x0 REVERT JUMPDEST DUP2 MSTORE PUSH1 0x20 ADD DUP8 DUP2 MSTORE PUSH1 0x20 ADD DUP6 PUSH1 0x4 DUP2 GT ISZERO PUSH2 0x1B96 JUMPI PUSH4 0x4E487B71 PUSH1 0xE0 SHL PUSH1 0x0 MSTORE PUSH1 0x21 PUSH1 0x4 MSTORE PUSH1 0x24 PUSH1 0x0 REVERT JUMPDEST DUP2 MSTORE PUSH1 0x20 ADD DUP5 PUSH1 0x2 DUP2 GT ISZERO PUSH2 0x1BBB JUMPI PUSH4 0x4E487B71 PUSH1 0xE0 SHL PUSH1 0x0 MSTORE PUSH1 0x21 PUSH1 0x4 MSTORE PUSH1 0x24 PUSH1 0x0 REVERT JUMPDEST DUP2 MSTORE TIMESTAMP PUSH1 0x20 DUP1 DUP4 ADD SWAP2 SWAP1 SWAP2 MSTORE CALLER PUSH1 0x40 SWAP3 DUP4 ADD MSTORE PUSH1 0x0 DUP5 DUP2 MSTORE PUSH1 0x11 DUP3 MSTORE DUP3 SWAP1 KECCAK256 DUP4 MLOAD DUP2 SSTORE SWAP1 DUP4 ADD MLOAD PUSH1 0x1 DUP3 ADD DUP1 SLOAD PUSH1 0x1 PUSH1 0x1 PUSH1 0xA0 SHL SUB SWAP3 SWAP1 SWAP3 AND PUSH1 0x1 PUSH1 0x1 PUSH1 0xA0 SHL SUB NOT DUP4 AND DUP2 OR DUP3 SSTORE SWAP4 DUP6 ADD MLOAD SWAP3 SWAP4 SWAP1 SWAP2 PUSH1 0x1 PUSH1 0x1 PUSH1 0xA8 SHL SUB NOT AND OR PUSH1 0x1 PUSH1 0xA0 SHL DUP4 PUSH1 0x4 DUP2 GT ISZERO PUSH2 0x1C3B JUMPI PUSH4 0x4E487B71 PUSH1 0xE0 SHL PUSH1 0x0 MSTORE PUSH1 0x21 PUSH1 0x4 MSTORE PUSH1 0x24 PUSH1 0x0 REVERT JUMPDEST MUL OR SWAP1 SSTORE POP PUSH1 0x60 DUP3 ADD MLOAD DUP1 MLOAD PUSH2 0x1C5B SWAP2 PUSH1 0x2 DUP5 ADD SWAP2 PUSH1 0x20 SWAP1 SWAP2 ADD SWAP1 PUSH2 0x3CC7 JUMP JUMPDEST POP PUSH1 0x80 DUP3 ADD MLOAD PUSH1 0x3 DUP3 ADD DUP1 SLOAD PUSH1 0xFF NOT AND PUSH1 0x1 DUP4 PUSH1 0x4 DUP2 GT ISZERO PUSH2 0x1C8D JUMPI PUSH4 0x4E487B71 PUSH1 0xE0 SHL PUSH1 0x0 MSTORE PUSH1 0x21 PUSH1 0x4 MSTORE PUSH1 0x24 PUSH1 0x0 REVERT JUMPDEST MUL OR SWAP1 SSTORE POP PUSH1 0xA0 DUP3 ADD MLOAD PUSH1 0x3 DUP3 ADD DUP1 SLOAD PUSH2 0xFF00 NOT AND PUSH2 0x100 DUP4 PUSH1 0x2 DUP2 GT ISZERO PUSH2 0x1CC5 JUMPI PUSH4 0x4E487B71 PUSH1 0xE0 SHL PUSH1 0x0 MSTORE PUSH1 0x21 PUSH1 0x4 MSTORE PUSH1 0x24 PUSH1 0x0 REVERT JUMPDEST MUL OR SWAP1 SSTORE POP PUSH1 0xC0 DUP3 DUP2 ADD MLOAD PUSH1 0x4 DUP4 ADD SSTORE PUSH1 0xE0 SWAP3 DUP4 ADD MLOAD PUSH1 0x5 SWAP1 SWAP3 ADD DUP1 SLOAD PUSH1 0x1 PUSH1 0x1 PUSH1 0xA0 SHL SUB NOT AND PUSH1 0x1 PUSH1 0x1 PUSH1 0xA0 SHL SUB SWAP4 DUP5 AND OR SWAP1 SSTORE PUSH1 0x40 DUP1 MLOAD DUP6 DUP2 MSTORE PUSH1 0xA0 PUSH1 0x20 DUP3 ADD DUP2 SWAP1 MSTORE PUSH1 0xC SWAP1 DUP3 ADD MSTORE PUSH12 0x111BD8DD1BDC881059191959 PUSH1 0xA2 SHL SWAP3 DUP2 ADD SWAP3 SWAP1 SWAP3 MSTORE SWAP2 DUP11 AND SWAP2 DUP2 ADD SWAP2 SWAP1 SWAP2 MSTORE CALLER PUSH1 0x60 DUP3 ADD MSTORE TIMESTAMP PUSH1 0x80 DUP3 ADD MSTORE PUSH32 0x64D11508CB09DBA8068D04CED552B2C73BA7C3081D9F4C9166CAA028B3213FCD SWAP2 ADD PUSH1 0x40 MLOAD DUP1 SWAP2 SUB SWAP1 LOG1 POP PUSH1 0x1 SWAP7 SWAP6 POP POP POP POP POP POP JUMP JUMPDEST CALLER PUSH1 0x0 DUP2 DUP2 MSTORE PUSH1 0xF PUSH1 0x20 MSTORE PUSH1 0x40 DUP2 KECCAK256 SLOAD SWAP1 SWAP2 SWAP1 PUSH1 0xFF AND ISZERO ISZERO PUSH1 0x1 EQ PUSH2 0x1DAC JUMPI PUSH1 0x40 MLOAD PUSH3 0x461BCD PUSH1 0xE5 SHL DUP2 MSTORE PUSH1 0x4 ADD PUSH2 0x4D2 SWAP1 PUSH2 0x442D JUMP JUMPDEST CALLER PUSH1 0x0 SWAP1 DUP2 MSTORE PUSH1 0x10 PUSH1 0x20 SWAP1 DUP2 MSTORE PUSH1 0x40 DUP1 DUP4 KECCAK256 PUSH1 0x1 PUSH1 0x1 PUSH1 0xA0 SHL SUB DUP8 AND DUP5 MSTORE SWAP1 SWAP2 MSTORE SWAP1 KECCAK256 SLOAD PUSH1 0xFF AND ISZERO ISZERO PUSH1 0x1 EQ PUSH2 0x1E20 JUMPI PUSH1 0x40 MLOAD PUSH3 0x461BCD PUSH1 0xE5 SHL DUP2 MSTORE PUSH1 0x20 PUSH1 0x4 DUP3 ADD MSTORE PUSH1 0x19 PUSH1 0x24 DUP3 ADD MSTORE PUSH25 0x41636365737320686173206265656E2070726F766964656421 PUSH1 0x38 SHL PUSH1 0x44 DUP3 ADD MSTORE PUSH1 0x64 ADD PUSH2 0x4D2 JUMP JUMPDEST CALLER PUSH1 0x0 DUP2 DUP2 MSTORE PUSH1 0x10 PUSH1 0x20 SWAP1 DUP2 MSTORE PUSH1 0x40 DUP1 DUP4 KECCAK256 PUSH1 0x1 PUSH1 0x1 PUSH1 0xA0 SHL SUB DUP9 DUP2 AND DUP6 MSTORE SWAP1 DUP4 MSTORE DUP2 DUP5 KECCAK256 DUP1 SLOAD PUSH1 0xFF NOT AND SWAP1 SSTORE SWAP4 DUP4 MSTORE PUSH1 0xE DUP3 MSTORE DUP1 DUP4 KECCAK256 DUP2 MLOAD PUSH2 0x1A0 DUP2 ADD DUP4 MSTORE DUP2 SLOAD DUP2 MSTORE PUSH1 0x1 DUP3 ADD SLOAD SWAP4 DUP2 ADD SWAP4 SWAP1 SWAP4 MSTORE PUSH1 0x2 DUP2 ADD SLOAD SWAP1 SWAP5 AND SWAP1 DUP3 ADD MSTORE PUSH1 0x3 DUP4 ADD DUP1 SLOAD SWAP3 SWAP4 SWAP2 SWAP3 PUSH1 0x60 DUP5 ADD SWAP2 SWAP1 PUSH2 0x1E95 SWAP1 PUSH2 0x47A2 JUMP JUMPDEST DUP1 PUSH1 0x1F ADD PUSH1 0x20 DUP1 SWAP2 DIV MUL PUSH1 0x20 ADD PUSH1 0x40 MLOAD SWAP1 DUP2 ADD PUSH1 0x40 MSTORE DUP1 SWAP3 SWAP2 SWAP1 DUP2 DUP2 MSTORE PUSH1 0x20 ADD DUP3 DUP1 SLOAD PUSH2 0x1EC1 SWAP1 PUSH2 0x47A2 JUMP JUMPDEST DUP1 ISZERO PUSH2 0x1F0E JUMPI DUP1 PUSH1 0x1F LT PUSH2 0x1EE3 JUMPI PUSH2 0x100 DUP1 DUP4 SLOAD DIV MUL DUP4 MSTORE SWAP2 PUSH1 0x20 ADD SWAP2 PUSH2 0x1F0E JUMP JUMPDEST DUP3 ADD SWAP2 SWAP1 PUSH1 0x0 MSTORE PUSH1 0x20 PUSH1 0x0 KECCAK256 SWAP1 JUMPDEST DUP2 SLOAD DUP2 MSTORE SWAP1 PUSH1 0x1 ADD SWAP1 PUSH1 0x20 ADD DUP1 DUP4 GT PUSH2 0x1EF1 JUMPI DUP3 SWAP1 SUB PUSH1 0x1F AND DUP3 ADD SWAP2 JUMPDEST POP POP POP SWAP2 DUP4 MSTORE POP POP PUSH1 0x4 DUP3 ADD SLOAD PUSH1 0x20 SWAP1 SWAP2 ADD SWAP1 PUSH1 0xFF AND PUSH1 0x2 DUP2 GT ISZERO PUSH2 0x1F43 JUMPI PUSH4 0x4E487B71 PUSH1 0xE0 SHL PUSH1 0x0 MSTORE PUSH1 0x21 PUSH1 0x4 MSTORE PUSH1 0x24 PUSH1 0x0 REVERT JUMPDEST PUSH1 0x2 DUP2 GT ISZERO PUSH2 0x1F62 JUMPI PUSH4 0x4E487B71 PUSH1 0xE0 SHL PUSH1 0x0 MSTORE PUSH1 0x21 PUSH1 0x4 MSTORE PUSH1 0x24 PUSH1 0x0 REVERT JUMPDEST DUP2 MSTORE PUSH1 0x20 ADD PUSH1 0x5 DUP3 ADD DUP1 SLOAD PUSH2 0x1F76 SWAP1 PUSH2 0x47A2 JUMP JUMPDEST DUP1 PUSH1 0x1F ADD PUSH1 0x20 DUP1 SWAP2 DIV MUL PUSH1 0x20 ADD PUSH1 0x40 MLOAD SWAP1 DUP2 ADD PUSH1 0x40 MSTORE DUP1 SWAP3 SWAP2 SWAP1 DUP2 DUP2 MSTORE PUSH1 0x20 ADD DUP3 DUP1 SLOAD PUSH2 0x1FA2 SWAP1 PUSH2 0x47A2 JUMP JUMPDEST DUP1 ISZERO PUSH2 0x1FEF JUMPI DUP1 PUSH1 0x1F LT PUSH2 0x1FC4 JUMPI PUSH2 0x100 DUP1 DUP4 SLOAD DIV MUL DUP4 MSTORE SWAP2 PUSH1 0x20 ADD SWAP2 PUSH2 0x1FEF JUMP JUMPDEST DUP3 ADD SWAP2 SWAP1 PUSH1 0x0 MSTORE PUSH1 0x20 PUSH1 0x0 KECCAK256 SWAP1 JUMPDEST DUP2 SLOAD DUP2 MSTORE SWAP1 PUSH1 0x1 ADD SWAP1 PUSH1 0x20 ADD DUP1 DUP4 GT PUSH2 0x1FD2 JUMPI DUP3 SWAP1 SUB PUSH1 0x1F AND DUP3 ADD SWAP2 JUMPDEST POP POP POP SWAP2 DUP4 MSTORE POP POP PUSH1 0x6 DUP3 ADD SLOAD PUSH1 0x20 DUP3 ADD MSTORE PUSH1 0x7 DUP3 ADD SLOAD PUSH1 0x1 PUSH1 0x1 PUSH1 0xA0 SHL SUB AND PUSH1 0x40 DUP3 ADD MSTORE PUSH1 0x8 DUP3 ADD DUP1 SLOAD PUSH1 0x60 SWAP1 SWAP3 ADD SWAP2 PUSH2 0x2029 SWAP1 PUSH2 0x47A2 JUMP JUMPDEST DUP1 PUSH1 0x1F ADD PUSH1 0x20 DUP1 SWAP2 DIV MUL PUSH1 0x20 ADD PUSH1 0x40 MLOAD SWAP1 DUP2 ADD PUSH1 0x40 MSTORE DUP1 SWAP3 SWAP2 SWAP1 DUP2 DUP2 MSTORE PUSH1 0x20 ADD DUP3 DUP1 SLOAD PUSH2 0x2055 SWAP1 PUSH2 0x47A2 JUMP JUMPDEST DUP1 ISZERO PUSH2 0x20A2 JUMPI DUP1 PUSH1 0x1F LT PUSH2 0x2077 JUMPI PUSH2 0x100 DUP1 DUP4 SLOAD DIV MUL DUP4 MSTORE SWAP2 PUSH1 0x20 ADD SWAP2 PUSH2 0x20A2 JUMP JUMPDEST DUP3 ADD SWAP2 SWAP1 PUSH1 0x0 MSTORE PUSH1 0x20 PUSH1 0x0 KECCAK256 SWAP1 JUMPDEST DUP2 SLOAD DUP2 MSTORE SWAP1 PUSH1 0x1 ADD SWAP1 PUSH1 0x20 ADD DUP1 DUP4 GT PUSH2 0x2085 JUMPI DUP3 SWAP1 SUB PUSH1 0x1F AND DUP3 ADD SWAP2 JUMPDEST POP POP POP POP POP DUP2 MSTORE PUSH1 0x20 ADD PUSH1 0x9 DUP3 ADD DUP1 SLOAD PUSH2 0x20BB SWAP1 PUSH2 0x47A2 JUMP JUMPDEST DUP1 PUSH1 0x1F ADD PUSH1 0x20 DUP1 SWAP2 DIV MUL PUSH1 0x20 ADD PUSH1 0x40 MLOAD SWAP1 DUP2 ADD PUSH1 0x40 MSTORE DUP1 SWAP3 SWAP2 SWAP1 DUP2 DUP2 MSTORE PUSH1 0x20 ADD DUP3 DUP1 SLOAD PUSH2 0x20E7 SWAP1 PUSH2 0x47A2 JUMP JUMPDEST DUP1 ISZERO PUSH2 0x2134 JUMPI DUP1 PUSH1 0x1F LT PUSH2 0x2109 JUMPI PUSH2 0x100 DUP1 DUP4 SLOAD DIV MUL DUP4 MSTORE SWAP2 PUSH1 0x20 ADD SWAP2 PUSH2 0x2134 JUMP JUMPDEST DUP3 ADD SWAP2 SWAP1 PUSH1 0x0 MSTORE PUSH1 0x20 PUSH1 0x0 KECCAK256 SWAP1 JUMPDEST DUP2 SLOAD DUP2 MSTORE SWAP1 PUSH1 0x1 ADD SWAP1 PUSH1 0x20 ADD DUP1 DUP4 GT PUSH2 0x2117 JUMPI DUP3 SWAP1 SUB PUSH1 0x1F AND DUP3 ADD SWAP2 JUMPDEST POP POP POP POP POP DUP2 MSTORE PUSH1 0x20 ADD PUSH1 0xA DUP3 ADD DUP1 SLOAD PUSH2 0x214D SWAP1 PUSH2 0x47A2 JUMP JUMPDEST DUP1 PUSH1 0x1F ADD PUSH1 0x20 DUP1 SWAP2 DIV MUL PUSH1 0x20 ADD PUSH1 0x40 MLOAD SWAP1 DUP2 ADD PUSH1 0x40 MSTORE DUP1 SWAP3 SWAP2 SWAP1 DUP2 DUP2 MSTORE PUSH1 0x20 ADD DUP3 DUP1 SLOAD PUSH2 0x2179 SWAP1 PUSH2 0x47A2 JUMP JUMPDEST DUP1 ISZERO PUSH2 0x21C6 JUMPI DUP1 PUSH1 0x1F LT PUSH2 0x219B JUMPI PUSH2 0x100 DUP1 DUP4 SLOAD DIV MUL DUP4 MSTORE SWAP2 PUSH1 0x20 ADD SWAP2 PUSH2 0x21C6 JUMP JUMPDEST DUP3 ADD SWAP2 SWAP1 PUSH1 0x0 MSTORE PUSH1 0x20 PUSH1 0x0 KECCAK256 SWAP1 JUMPDEST DUP2 SLOAD DUP2 MSTORE SWAP1 PUSH1 0x1 ADD SWAP1 PUSH1 0x20 ADD DUP1 DUP4 GT PUSH2 0x21A9 JUMPI DUP3 SWAP1 SUB PUSH1 0x1F AND DUP3 ADD SWAP2 JUMPDEST POP POP POP SWAP2 DUP4 MSTORE POP POP PUSH1 0xB DUP3 ADD SLOAD PUSH1 0x20 SWAP1 SWAP2 ADD SWAP1 PUSH1 0xFF AND PUSH1 0x4 DUP2 GT ISZERO PUSH2 0x21FB JUMPI PUSH4 0x4E487B71 PUSH1 0xE0 SHL PUSH1 0x0 MSTORE PUSH1 0x21 PUSH1 0x4 MSTORE PUSH1 0x24 PUSH1 0x0 REVERT JUMPDEST PUSH1 0x4 DUP2 GT ISZERO PUSH2 0x221A JUMPI PUSH4 0x4E487B71 PUSH1 0xE0 SHL PUSH1 0x0 MSTORE PUSH1 0x21 PUSH1 0x4 MSTORE PUSH1 0x24 PUSH1 0x0 REVERT JUMPDEST DUP2 MSTORE PUSH1 0x20 ADD PUSH1 0xB DUP3 ADD PUSH1 0x1 SWAP1 SLOAD SWAP1 PUSH2 0x100 EXP SWAP1 DIV PUSH1 0xFF AND PUSH1 0x3 DUP2 GT ISZERO PUSH2 0x2250 JUMPI PUSH4 0x4E487B71 PUSH1 0xE0 SHL PUSH1 0x0 MSTORE PUSH1 0x21 PUSH1 0x4 MSTORE PUSH1 0x24 PUSH1 0x0 REVERT JUMPDEST PUSH1 0x3 DUP2 GT ISZERO PUSH2 0x226F JUMPI PUSH4 0x4E487B71 PUSH1 0xE0 SHL PUSH1 0x0 MSTORE PUSH1 0x21 PUSH1 0x4 MSTORE PUSH1 0x24 PUSH1 0x0 REVERT JUMPDEST SWAP1 MSTORE POP DUP1 MLOAD PUSH1 0x40 DUP1 MLOAD SWAP2 DUP3 MSTORE PUSH1 0xA0 PUSH1 0x20 DUP4 ADD DUP2 SWAP1 MSTORE PUSH1 0x18 SWAP1 DUP4 ADD MSTORE PUSH32 0x416363657373205265766F6B6520526567697374657265640000000000000000 PUSH1 0xC0 DUP4 ADD MSTORE CALLER SWAP1 DUP3 ADD DUP2 SWAP1 MSTORE PUSH1 0x60 DUP3 ADD MSTORE TIMESTAMP PUSH1 0x80 DUP3 ADD MSTORE SWAP1 SWAP2 POP PUSH32 0xEB790F1500BCF29D54354FC14A708E365EECD4CA74E3A4B7490ED8909137E568 SWAP1 PUSH1 0xE0 ADD PUSH2 0xEDD JUMP JUMPDEST PUSH1 0x0 DUP1 PUSH2 0x22FB PUSH1 0x9 SLOAD SWAP1 JUMP JUMPDEST SWAP1 POP PUSH1 0x0 PUSH2 0x2319 PUSH2 0x230B DUP8 PUSH2 0x3614 JUMP JUMPDEST ADDRESS PUSH4 0x52964295 PUSH1 0xE1 SHL PUSH2 0x3631 JUMP JUMPDEST PUSH1 0x40 DUP1 MLOAD DUP1 DUP3 ADD SWAP1 SWAP2 MSTORE PUSH1 0xE DUP2 MSTORE PUSH14 0x18D85C9951DA5D995C915B585A5B PUSH1 0x92 SHL PUSH1 0x20 DUP3 ADD MSTORE SWAP1 SWAP2 POP PUSH2 0x234D SWAP1 DUP3 SWAP1 DUP7 PUSH2 0x3656 JUMP JUMPDEST PUSH1 0x40 DUP1 MLOAD DUP1 DUP3 ADD SWAP1 SWAP2 MSTORE PUSH1 0xC DUP2 MSTORE PUSH12 0x3930B73237B6A73AB6B132B9 PUSH1 0xA1 SHL PUSH1 0x20 DUP3 ADD MSTORE PUSH2 0xCD2D SWAP1 PUSH2 0x2380 SWAP1 DUP4 SWAP1 DUP4 PUSH2 0x3679 JUMP JUMPDEST PUSH1 0x40 DUP1 MLOAD PUSH1 0xC0 DUP2 ADD DUP3 MSTORE DUP5 DUP2 MSTORE PUSH1 0x1 PUSH1 0x1 PUSH1 0xA0 SHL SUB DUP9 DUP2 AND PUSH1 0x20 DUP1 DUP5 ADD SWAP2 DUP3 MSTORE TIMESTAMP DUP5 DUP7 ADD SWAP1 DUP2 MSTORE CALLER PUSH1 0x60 DUP7 ADD SWAP1 DUP2 MSTORE PUSH1 0x80 DUP7 ADD DUP9 DUP2 MSTORE PUSH1 0x0 PUSH1 0xA0 DUP9 ADD DUP2 DUP2 MSTORE DUP13 DUP3 MSTORE PUSH1 0x13 SWAP1 SWAP6 MSTORE SWAP8 SWAP1 SWAP8 KECCAK256 SWAP6 MLOAD DUP7 SSTORE SWAP3 MLOAD PUSH1 0x1 DUP7 ADD DUP1 SLOAD PUSH1 0x1 PUSH1 0x1 PUSH1 0xA0 SHL SUB NOT SWAP1 DUP2 AND SWAP3 DUP8 AND SWAP3 SWAP1 SWAP3 OR SWAP1 SSTORE SWAP1 MLOAD PUSH1 0x2 DUP7 ADD SSTORE SWAP2 MLOAD PUSH1 0x3 DUP6 ADD DUP1 SLOAD SWAP1 SWAP4 AND SWAP4 AND SWAP3 SWAP1 SWAP3 OR SWAP1 SSTORE SWAP2 MLOAD PUSH1 0x4 DUP3 ADD SSTORE SWAP1 MLOAD PUSH1 0x5 SWAP1 SWAP2 ADD DUP1 SLOAD PUSH1 0xFF NOT AND SWAP2 ISZERO ISZERO SWAP2 SWAP1 SWAP2 OR SWAP1 SSTORE PUSH2 0x2435 DUP9 DUP4 PUSH7 0x2386F26FC10000 PUSH2 0x3697 JUMP JUMPDEST PUSH1 0x0 DUP5 DUP2 MSTORE PUSH1 0x13 PUSH1 0x20 SWAP1 DUP2 MSTORE PUSH1 0x40 DUP1 DUP4 KECCAK256 DUP5 DUP5 MSTORE PUSH1 0x14 SWAP1 SWAP3 MSTORE SWAP1 SWAP2 KECCAK256 DUP2 SLOAD DUP2 SSTORE PUSH1 0x1 DUP1 DUP4 ADD SLOAD SWAP1 DUP3 ADD DUP1 SLOAD PUSH1 0x1 PUSH1 0x1 PUSH1 0xA0 SHL SUB SWAP3 DUP4 AND PUSH1 0x1 PUSH1 0x1 PUSH1 0xA0 SHL SUB NOT SWAP2 DUP3 AND OR SWAP1 SWAP2 SSTORE PUSH1 0x2 DUP1 DUP6 ADD SLOAD SWAP1 DUP5 ADD SSTORE PUSH1 0x3 DUP1 DUP6 ADD SLOAD SWAP1 DUP5 ADD DUP1 SLOAD SWAP2 SWAP1 SWAP4 AND SWAP2 AND OR SWAP1 SSTORE PUSH1 0x4 DUP1 DUP4 ADD SLOAD SWAP1 DUP3 ADD SSTORE PUSH1 0x5 SWAP2 DUP3 ADD SLOAD SWAP2 ADD DUP1 SLOAD PUSH1 0xFF NOT AND PUSH1 0xFF SWAP1 SWAP3 AND ISZERO ISZERO SWAP2 SWAP1 SWAP2 OR SWAP1 SSTORE SWAP4 POP DUP4 PUSH2 0x24CA DUP9 PUSH2 0x3614 JUMP JUMPDEST PUSH1 0x40 MLOAD CALLER SWAP1 PUSH32 0x7F3DF4038A13E7B83557E5A0EBF67FEC07391A522319AB42E81255E88DE18FFB SWAP1 PUSH1 0x0 SWAP1 LOG4 POP POP POP SWAP5 SWAP4 POP POP POP POP JUMP JUMPDEST PUSH1 0xD PUSH1 0x20 MSTORE PUSH1 0x0 SWAP1 DUP2 MSTORE PUSH1 0x40 SWAP1 KECCAK256 DUP1 SLOAD PUSH1 0x1 DUP3 ADD SLOAD PUSH1 0x2 DUP4 ADD SLOAD PUSH1 0x3 DUP5 ADD DUP1 SLOAD SWAP4 SWAP5 SWAP3 SWAP4 PUSH1 0x1 PUSH1 0x1 PUSH1 0xA0 SHL SUB SWAP1 SWAP3 AND SWAP3 SWAP2 PUSH2 0xF2B SWAP1 PUSH2 0x47A2 JUMP JUMPDEST PUSH1 0x0 DUP3 DUP2 MSTORE PUSH1 0x5 PUSH1 0x20 MSTORE PUSH1 0x40 SWAP1 KECCAK256 SLOAD DUP3 SWAP1 PUSH1 0x1 PUSH1 0x1 PUSH1 0xA0 SHL SUB AND CALLER EQ PUSH2 0x25B3 JUMPI PUSH1 0x40 MLOAD PUSH3 0x461BCD PUSH1 0xE5 SHL DUP2 MSTORE PUSH1 0x20 PUSH1 0x4 DUP3 ADD MSTORE PUSH1 0x28 PUSH1 0x24 DUP3 ADD MSTORE PUSH32 0x536F75726365206D75737420626520746865206F7261636C65206F6620746865 PUSH1 0x44 DUP3 ADD MSTORE PUSH8 0x81C995C5D595CDD PUSH1 0xC2 SHL PUSH1 0x64 DUP3 ADD MSTORE PUSH1 0x84 ADD PUSH2 0x4D2 JUMP JUMPDEST PUSH1 0x0 DUP2 DUP2 MSTORE PUSH1 0x5 PUSH1 0x20 MSTORE PUSH1 0x40 DUP1 DUP3 KECCAK256 DUP1 SLOAD PUSH1 0x1 PUSH1 0x1 PUSH1 0xA0 SHL SUB NOT AND SWAP1 SSTORE MLOAD DUP3 SWAP2 PUSH32 0xA40AD10B942505047C532A7399BF5EAC2768B11B7155B40EC80309AEA567F998 SWAP2 LOG2 PUSH1 0x0 DUP4 DUP2 MSTORE PUSH1 0x14 PUSH1 0x20 SWAP1 DUP2 MSTORE PUSH1 0x40 SWAP2 DUP3 SWAP1 KECCAK256 DUP3 MLOAD PUSH1 0xC0 DUP2 ADD DUP5 MSTORE DUP2 SLOAD DUP2 MSTORE PUSH1 0x1 DUP3 ADD SLOAD PUSH1 0x1 PUSH1 0x1 PUSH1 0xA0 SHL SUB SWAP1 DUP2 AND SWAP4 DUP3 ADD SWAP4 SWAP1 SWAP4 MSTORE PUSH1 0x2 DUP3 ADD SLOAD SWAP4 DUP2 ADD SWAP4 SWAP1 SWAP4 MSTORE PUSH1 0x3 DUP2 ADD SLOAD SWAP1 SWAP2 AND PUSH1 0x60 DUP4 ADD MSTORE PUSH1 0x4 DUP2 ADD SLOAD PUSH1 0x80 DUP4 ADD DUP2 SWAP1 MSTORE PUSH1 0x5 SWAP1 SWAP2 ADD SLOAD PUSH1 0xFF AND ISZERO ISZERO PUSH1 0xA0 DUP4 ADD MSTORE DUP4 EQ ISZERO PUSH2 0x269C JUMPI PUSH1 0x1 PUSH1 0xA0 DUP3 ADD MSTORE PUSH1 0x40 MLOAD DUP4 SWAP1 DUP6 SWAP1 PUSH32 0xD43D51FB24CC5CF50D3877C6EAD3EEF8E9F387ED352909F52666203BFE180804 SWAP1 PUSH1 0x0 SWAP1 LOG3 JUMPDEST POP POP POP POP JUMP JUMPDEST PUSH1 0x1 PUSH1 0x1 PUSH1 0xA0 SHL SUB DUP1 DUP3 AND PUSH1 0x0 SWAP1 DUP2 MSTORE PUSH1 0x10 PUSH1 0x20 SWAP1 DUP2 MSTORE PUSH1 0x40 DUP1 DUP4 KECCAK256 SWAP4 DUP7 AND DUP4 MSTORE SWAP3 SWAP1 MSTORE KECCAK256 SLOAD DUP2 SWAP1 DUP4 SWAP1 PUSH1 0xFF AND ISZERO ISZERO PUSH1 0x1 EQ PUSH2 0x270F JUMPI PUSH1 0x40 MLOAD PUSH3 0x461BCD PUSH1 0xE5 SHL DUP2 MSTORE PUSH1 0x20 PUSH1 0x4 DUP3 ADD MSTORE PUSH1 0xC PUSH1 0x24 DUP3 ADD MSTORE PUSH12 0x1058D8D95CC811195B9A5959 PUSH1 0xA2 SHL PUSH1 0x44 DUP3 ADD MSTORE PUSH1 0x64 ADD PUSH2 0x4D2 JUMP JUMPDEST PUSH32 0x70FE213383D52A69E26A8C8B6862D18C03327E60659AF1F59AA682B1039ADF84 DUP4 PUSH1 0x0 PUSH1 0x4 PUSH1 0x40 MLOAD PUSH2 0x2744 SWAP4 SWAP3 SWAP2 SWAP1 PUSH2 0x42AA JUMP JUMPDEST PUSH1 0x40 MLOAD DUP1 SWAP2 SUB SWAP1 LOG1 POP POP POP POP JUMP JUMPDEST PUSH1 0xC PUSH1 0x20 MSTORE PUSH1 0x0 SWAP1 DUP2 MSTORE PUSH1 0x40 SWAP1 KECCAK256 DUP1 SLOAD PUSH1 0x1 DUP3 ADD SLOAD PUSH1 0x2 DUP4 ADD DUP1 SLOAD SWAP3 SWAP4 PUSH1 0x1 PUSH1 0x1 PUSH1 0xA0 SHL SUB SWAP1 SWAP3 AND SWAP3 PUSH2 0x1253 SWAP1 PUSH2 0x47A2 JUMP JUMPDEST PUSH1 0x0 PUSH1 0x1 DUP5 PUSH1 0x3 DUP2 GT ISZERO PUSH2 0x27A8 JUMPI PUSH4 0x4E487B71 PUSH1 0xE0 SHL PUSH1 0x0 MSTORE PUSH1 0x21 PUSH1 0x4 MSTORE PUSH1 0x24 PUSH1 0x0 REVERT JUMPDEST EQ ISZERO PUSH2 0x2817 JUMPI CALLER PUSH1 0x0 SWAP1 DUP2 MSTORE PUSH1 0x12 PUSH1 0x20 MSTORE PUSH1 0x40 SWAP1 KECCAK256 SLOAD PUSH1 0xFF AND ISZERO ISZERO PUSH1 0x1 EQ PUSH2 0x2812 JUMPI PUSH1 0x40 MLOAD PUSH3 0x461BCD PUSH1 0xE5 SHL DUP2 MSTORE PUSH1 0x20 PUSH1 0x4 DUP3 ADD MSTORE PUSH1 0x1A PUSH1 0x24 DUP3 ADD MSTORE PUSH32 0x446F63746F72206E6F7420726567697374657265726420796574000000000000 PUSH1 0x44 DUP3 ADD MSTORE PUSH1 0x64 ADD PUSH2 0x4D2 JUMP JUMPDEST PUSH2 0x287B JUMP JUMPDEST CALLER PUSH1 0x0 SWAP1 DUP2 MSTORE PUSH1 0xF PUSH1 0x20 MSTORE PUSH1 0x40 SWAP1 KECCAK256 SLOAD PUSH1 0xFF AND ISZERO ISZERO PUSH1 0x1 EQ PUSH2 0x287B JUMPI PUSH1 0x40 MLOAD PUSH3 0x461BCD PUSH1 0xE5 SHL DUP2 MSTORE PUSH1 0x20 PUSH1 0x4 DUP3 ADD MSTORE PUSH1 0x1B PUSH1 0x24 DUP3 ADD MSTORE PUSH32 0x50617469656E74206E6F74207265676973746572657264207965740000000000 PUSH1 0x44 DUP3 ADD MSTORE PUSH1 0x64 ADD PUSH2 0x4D2 JUMP JUMPDEST PUSH1 0x0 PUSH2 0x2886 PUSH1 0x8 SLOAD SWAP1 JUMP JUMPDEST SWAP1 POP PUSH2 0x2896 PUSH1 0x8 DUP1 SLOAD PUSH1 0x1 ADD SWAP1 SSTORE JUMP JUMPDEST PUSH1 0x1 PUSH1 0x1 PUSH1 0xA0 SHL SUB DUP1 DUP10 AND PUSH1 0x0 SWAP1 DUP2 MSTORE PUSH1 0xE PUSH1 0x20 SWAP1 DUP2 MSTORE PUSH1 0x40 DUP1 DUP4 KECCAK256 DUP2 MLOAD PUSH2 0x1A0 DUP2 ADD DUP4 MSTORE DUP2 SLOAD DUP2 MSTORE PUSH1 0x1 DUP3 ADD SLOAD SWAP4 DUP2 ADD SWAP4 SWAP1 SWAP4 MSTORE PUSH1 0x2 DUP2 ADD SLOAD SWAP1 SWAP5 AND SWAP1 DUP3 ADD MSTORE PUSH1 0x3 DUP4 ADD DUP1 SLOAD SWAP3 SWAP4 SWAP2 SWAP3 PUSH1 0x60 DUP5 ADD SWAP2 SWAP1 PUSH2 0x28F0 SWAP1 PUSH2 0x47A2 JUMP JUMPDEST DUP1 PUSH1 0x1F ADD PUSH1 0x20 DUP1 SWAP2 DIV MUL PUSH1 0x20 ADD PUSH1 0x40 MLOAD SWAP1 DUP2 ADD PUSH1 0x40 MSTORE DUP1 SWAP3 SWAP2 SWAP1 DUP2 DUP2 MSTORE PUSH1 0x20 ADD DUP3 DUP1 SLOAD PUSH2 0x291C SWAP1 PUSH2 0x47A2 JUMP JUMPDEST DUP1 ISZERO PUSH2 0x2969 JUMPI DUP1 PUSH1 0x1F LT PUSH2 0x293E JUMPI PUSH2 0x100 DUP1 DUP4 SLOAD DIV MUL DUP4 MSTORE SWAP2 PUSH1 0x20 ADD SWAP2 PUSH2 0x2969 JUMP JUMPDEST DUP3 ADD SWAP2 SWAP1 PUSH1 0x0 MSTORE PUSH1 0x20 PUSH1 0x0 KECCAK256 SWAP1 JUMPDEST DUP2 SLOAD DUP2 MSTORE SWAP1 PUSH1 0x1 ADD SWAP1 PUSH1 0x20 ADD DUP1 DUP4 GT PUSH2 0x294C JUMPI DUP3 SWAP1 SUB PUSH1 0x1F AND DUP3 ADD SWAP2 JUMPDEST POP POP POP SWAP2 DUP4 MSTORE POP POP PUSH1 0x4 DUP3 ADD SLOAD PUSH1 0x20 SWAP1 SWAP2 ADD SWAP1 PUSH1 0xFF AND PUSH1 0x2 DUP2 GT ISZERO PUSH2 0x299E JUMPI PUSH4 0x4E487B71 PUSH1 0xE0 SHL PUSH1 0x0 MSTORE PUSH1 0x21 PUSH1 0x4 MSTORE PUSH1 0x24 PUSH1 0x0 REVERT JUMPDEST PUSH1 0x2 DUP2 GT ISZERO PUSH2 0x29BD JUMPI PUSH4 0x4E487B71 PUSH1 0xE0 SHL PUSH1 0x0 MSTORE PUSH1 0x21 PUSH1 0x4 MSTORE PUSH1 0x24 PUSH1 0x0 REVERT JUMPDEST DUP2 MSTORE PUSH1 0x20 ADD PUSH1 0x5 DUP3 ADD DUP1 SLOAD PUSH2 0x29D1 SWAP1 PUSH2 0x47A2 JUMP JUMPDEST DUP1 PUSH1 0x1F ADD PUSH1 0x20 DUP1 SWAP2 DIV MUL PUSH1 0x20 ADD PUSH1 0x40 MLOAD SWAP1 DUP2 ADD PUSH1 0x40 MSTORE DUP1 SWAP3 SWAP2 SWAP1 DUP2 DUP2 MSTORE PUSH1 0x20 ADD DUP3 DUP1 SLOAD PUSH2 0x29FD SWAP1 PUSH2 0x47A2 JUMP JUMPDEST DUP1 ISZERO PUSH2 0x2A4A JUMPI DUP1 PUSH1 0x1F LT PUSH2 0x2A1F JUMPI PUSH2 0x100 DUP1 DUP4 SLOAD DIV MUL DUP4 MSTORE SWAP2 PUSH1 0x20 ADD SWAP2 PUSH2 0x2A4A JUMP JUMPDEST DUP3 ADD SWAP2 SWAP1 PUSH1 0x0 MSTORE PUSH1 0x20 PUSH1 0x0 KECCAK256 SWAP1 JUMPDEST DUP2 SLOAD DUP2 MSTORE SWAP1 PUSH1 0x1 ADD SWAP1 PUSH1 0x20 ADD DUP1 DUP4 GT PUSH2 0x2A2D JUMPI DUP3 SWAP1 SUB PUSH1 0x1F AND DUP3 ADD SWAP2 JUMPDEST POP POP POP SWAP2 DUP4 MSTORE POP POP PUSH1 0x6 DUP3 ADD SLOAD PUSH1 0x20 DUP3 ADD MSTORE PUSH1 0x7 DUP3 ADD SLOAD PUSH1 0x1 PUSH1 0x1 PUSH1 0xA0 SHL SUB AND PUSH1 0x40 DUP3 ADD MSTORE PUSH1 0x8 DUP3 ADD DUP1 SLOAD PUSH1 0x60 SWAP1 SWAP3 ADD SWAP2 PUSH2 0x2A84 SWAP1 PUSH2 0x47A2 JUMP JUMPDEST DUP1 PUSH1 0x1F ADD PUSH1 0x20 DUP1 SWAP2 DIV MUL PUSH1 0x20 ADD PUSH1 0x40 MLOAD SWAP1 DUP2 ADD PUSH1 0x40 MSTORE DUP1 SWAP3 SWAP2 SWAP1 DUP2 DUP2 MSTORE PUSH1 0x20 ADD DUP3 DUP1 SLOAD PUSH2 0x2AB0 SWAP1 PUSH2 0x47A2 JUMP JUMPDEST DUP1 ISZERO PUSH2 0x2AFD JUMPI DUP1 PUSH1 0x1F LT PUSH2 0x2AD2 JUMPI PUSH2 0x100 DUP1 DUP4 SLOAD DIV MUL DUP4 MSTORE SWAP2 PUSH1 0x20 ADD SWAP2 PUSH2 0x2AFD JUMP JUMPDEST DUP3 ADD SWAP2 SWAP1 PUSH1 0x0 MSTORE PUSH1 0x20 PUSH1 0x0 KECCAK256 SWAP1 JUMPDEST DUP2 SLOAD DUP2 MSTORE SWAP1 PUSH1 0x1 ADD SWAP1 PUSH1 0x20 ADD DUP1 DUP4 GT PUSH2 0x2AE0 JUMPI DUP3 SWAP1 SUB PUSH1 0x1F AND DUP3 ADD SWAP2 JUMPDEST POP POP POP POP POP DUP2 MSTORE PUSH1 0x20 ADD PUSH1 0x9 DUP3 ADD DUP1 SLOAD PUSH2 0x2B16 SWAP1 PUSH2 0x47A2 JUMP JUMPDEST DUP1 PUSH1 0x1F ADD PUSH1 0x20 DUP1 SWAP2 DIV MUL PUSH1 0x20 ADD PUSH1 0x40 MLOAD SWAP1 DUP2 ADD PUSH1 0x40 MSTORE DUP1 SWAP3 SWAP2 SWAP1 DUP2 DUP2 MSTORE PUSH1 0x20 ADD DUP3 DUP1 SLOAD PUSH2 0x2B42 SWAP1 PUSH2 0x47A2 JUMP JUMPDEST DUP1 ISZERO PUSH2 0x2B8F JUMPI DUP1 PUSH1 0x1F LT PUSH2 0x2B64 JUMPI PUSH2 0x100 DUP1 DUP4 SLOAD DIV MUL DUP4 MSTORE SWAP2 PUSH1 0x20 ADD SWAP2 PUSH2 0x2B8F JUMP JUMPDEST DUP3 ADD SWAP2 SWAP1 PUSH1 0x0 MSTORE PUSH1 0x20 PUSH1 0x0 KECCAK256 SWAP1 JUMPDEST DUP2 SLOAD DUP2 MSTORE SWAP1 PUSH1 0x1 ADD SWAP1 PUSH1 0x20 ADD DUP1 DUP4 GT PUSH2 0x2B72 JUMPI DUP3 SWAP1 SUB PUSH1 0x1F AND DUP3 ADD SWAP2 JUMPDEST POP POP POP POP POP DUP2 MSTORE PUSH1 0x20 ADD PUSH1 0xA DUP3 ADD DUP1 SLOAD PUSH2 0x2BA8 SWAP1 PUSH2 0x47A2 JUMP JUMPDEST DUP1 PUSH1 0x1F ADD PUSH1 0x20 DUP1 SWAP2 DIV MUL PUSH1 0x20 ADD PUSH1 0x40 MLOAD SWAP1 DUP2 ADD PUSH1 0x40 MSTORE DUP1 SWAP3 SWAP2 SWAP1 DUP2 DUP2 MSTORE PUSH1 0x20 ADD DUP3 DUP1 SLOAD PUSH2 0x2BD4 SWAP1 PUSH2 0x47A2 JUMP JUMPDEST DUP1 ISZERO PUSH2 0x2C21 JUMPI DUP1 PUSH1 0x1F LT PUSH2 0x2BF6 JUMPI PUSH2 0x100 DUP1 DUP4 SLOAD DIV MUL DUP4 MSTORE SWAP2 PUSH1 0x20 ADD SWAP2 PUSH2 0x2C21 JUMP JUMPDEST DUP3 ADD SWAP2 SWAP1 PUSH1 0x0 MSTORE PUSH1 0x20 PUSH1 0x0 KECCAK256 SWAP1 JUMPDEST DUP2 SLOAD DUP2 MSTORE SWAP1 PUSH1 0x1 ADD SWAP1 PUSH1 0x20 ADD DUP1 DUP4 GT PUSH2 0x2C04 JUMPI DUP3 SWAP1 SUB PUSH1 0x1F AND DUP3 ADD SWAP2 JUMPDEST POP POP POP SWAP2 DUP4 MSTORE POP POP PUSH1 0xB DUP3 ADD SLOAD PUSH1 0x20 SWAP1 SWAP2 ADD SWAP1 PUSH1 0xFF AND PUSH1 0x4 DUP2 GT ISZERO PUSH2 0x2C56 JUMPI PUSH4 0x4E487B71 PUSH1 0xE0 SHL PUSH1 0x0 MSTORE PUSH1 0x21 PUSH1 0x4 MSTORE PUSH1 0x24 PUSH1 0x0 REVERT JUMPDEST PUSH1 0x4 DUP2 GT ISZERO PUSH2 0x2C75 JUMPI PUSH4 0x4E487B71 PUSH1 0xE0 SHL PUSH1 0x0 MSTORE PUSH1 0x21 PUSH1 0x4 MSTORE PUSH1 0x24 PUSH1 0x0 REVERT JUMPDEST DUP2 MSTORE PUSH1 0x20 ADD PUSH1 0xB DUP3 ADD PUSH1 0x1 SWAP1 SLOAD SWAP1 PUSH2 0x100 EXP SWAP1 DIV PUSH1 0xFF AND PUSH1 0x3 DUP2 GT ISZERO PUSH2 0x2CAB JUMPI PUSH4 0x4E487B71 PUSH1 0xE0 SHL PUSH1 0x0 MSTORE PUSH1 0x21 PUSH1 0x4 MSTORE PUSH1 0x24 PUSH1 0x0 REVERT JUMPDEST PUSH1 0x3 DUP2 GT ISZERO PUSH2 0x2CCA JUMPI PUSH4 0x4E487B71 PUSH1 0xE0 SHL PUSH1 0x0 MSTORE PUSH1 0x21 PUSH1 0x4 MSTORE PUSH1 0x24 PUSH1 0x0 REVERT JUMPDEST SWAP1 MSTORE POP PUSH2 0x100 DUP2 ADD DUP10 SWAP1 MSTORE PUSH1 0x40 DUP1 MLOAD PUSH2 0x120 DUP2 ADD DUP3 MSTORE DUP5 DUP2 MSTORE PUSH1 0x1 PUSH1 0x1 PUSH1 0xA0 SHL SUB DUP13 AND PUSH1 0x20 DUP3 ADD MSTORE SWAP1 DUP2 ADD DUP10 SWAP1 MSTORE SWAP1 SWAP2 POP PUSH1 0x60 DUP2 ADD PUSH1 0x0 DUP2 MSTORE TIMESTAMP PUSH1 0x20 DUP3 ADD MSTORE CALLER PUSH1 0x40 DUP3 ADD MSTORE PUSH1 0x60 ADD DUP8 PUSH1 0x3 DUP2 GT ISZERO PUSH2 0x2D32 JUMPI PUSH4 0x4E487B71 PUSH1 0xE0 SHL PUSH1 0x0 MSTORE PUSH1 0x21 PUSH1 0x4 MSTORE PUSH1 0x24 PUSH1 0x0 REVERT JUMPDEST DUP2 MSTORE PUSH1 0x20 ADD DUP7 PUSH1 0x4 DUP2 GT ISZERO PUSH2 0x2D57 JUMPI PUSH4 0x4E487B71 PUSH1 0xE0 SHL PUSH1 0x0 MSTORE PUSH1 0x21 PUSH1 0x4 MSTORE PUSH1 0x24 PUSH1 0x0 REVERT JUMPDEST DUP2 MSTORE PUSH1 0x20 ADD DUP6 PUSH1 0x3 DUP2 GT ISZERO PUSH2 0x2D7C JUMPI PUSH4 0x4E487B71 PUSH1 0xE0 SHL PUSH1 0x0 MSTORE PUSH1 0x21 PUSH1 0x4 MSTORE PUSH1 0x24 PUSH1 0x0 REVERT JUMPDEST SWAP1 MSTORE PUSH1 0x0 DUP4 DUP2 MSTORE PUSH1 0xB PUSH1 0x20 SWAP1 DUP2 MSTORE PUSH1 0x40 SWAP2 DUP3 SWAP1 KECCAK256 DUP4 MLOAD DUP2 SSTORE DUP4 DUP3 ADD MLOAD PUSH1 0x1 DUP3 ADD DUP1 SLOAD PUSH1 0x1 PUSH1 0x1 PUSH1 0xA0 SHL SUB NOT AND PUSH1 0x1 PUSH1 0x1 PUSH1 0xA0 SHL SUB SWAP1 SWAP3 AND SWAP2 SWAP1 SWAP2 OR SWAP1 SSTORE SWAP2 DUP4 ADD MLOAD DUP1 MLOAD PUSH2 0x2DCF SWAP3 PUSH1 0x2 DUP6 ADD SWAP3 ADD SWAP1 PUSH2 0x3CC7 JUMP JUMPDEST POP PUSH1 0x60 DUP3 ADD MLOAD DUP2 PUSH1 0x3 ADD PUSH1 0x0 PUSH2 0x100 EXP DUP2 SLOAD DUP2 PUSH1 0xFF MUL NOT AND SWAP1 DUP4 PUSH1 0x3 DUP2 GT ISZERO PUSH2 0x2E08 JUMPI PUSH4 0x4E487B71 PUSH1 0xE0 SHL PUSH1 0x0 MSTORE PUSH1 0x21 PUSH1 0x4 MSTORE PUSH1 0x24 PUSH1 0x0 REVERT JUMPDEST MUL OR SWAP1 SSTORE POP PUSH1 0x80 DUP3 ADD MLOAD PUSH1 0x4 DUP3 ADD SSTORE PUSH1 0xA0 DUP3 ADD MLOAD PUSH1 0x5 DUP3 ADD DUP1 SLOAD PUSH1 0x1 PUSH1 0x1 PUSH1 0xA0 SHL SUB SWAP1 SWAP3 AND PUSH1 0x1 PUSH1 0x1 PUSH1 0xA0 SHL SUB NOT DUP4 AND DUP2 OR DUP3 SSTORE PUSH1 0xC0 DUP6 ADD MLOAD SWAP3 PUSH1 0x1 PUSH1 0x1 PUSH1 0xA8 SHL SUB NOT AND OR PUSH1 0x1 PUSH1 0xA0 SHL DUP4 PUSH1 0x3 DUP2 GT ISZERO PUSH2 0x2E72 JUMPI PUSH4 0x4E487B71 PUSH1 0xE0 SHL PUSH1 0x0 MSTORE PUSH1 0x21 PUSH1 0x4 MSTORE PUSH1 0x24 PUSH1 0x0 REVERT JUMPDEST MUL OR SWAP1 SSTORE POP PUSH1 0xE0 DUP3 ADD MLOAD PUSH1 0x5 DUP3 ADD DUP1 SLOAD PUSH1 0xFF PUSH1 0xA8 SHL NOT AND PUSH1 0x1 PUSH1 0xA8 SHL DUP4 PUSH1 0x4 DUP2 GT ISZERO PUSH2 0x2EAE JUMPI PUSH4 0x4E487B71 PUSH1 0xE0 SHL PUSH1 0x0 MSTORE PUSH1 0x21 PUSH1 0x4 MSTORE PUSH1 0x24 PUSH1 0x0 REVERT JUMPDEST MUL OR SWAP1 SSTORE POP PUSH2 0x100 DUP3 ADD MLOAD PUSH1 0x5 DUP3 ADD DUP1 SLOAD PUSH1 0xFF PUSH1 0xB0 SHL NOT AND PUSH1 0x1 PUSH1 0xB0 SHL DUP4 PUSH1 0x3 DUP2 GT ISZERO PUSH2 0x2EEB JUMPI PUSH4 0x4E487B71 PUSH1 0xE0 SHL PUSH1 0x0 MSTORE PUSH1 0x21 PUSH1 0x4 MSTORE PUSH1 0x24 PUSH1 0x0 REVERT JUMPDEST MUL OR SWAP1 SSTORE POP POP POP PUSH1 0x0 DUP3 DUP2 MSTORE PUSH1 0xB PUSH1 0x20 SWAP1 DUP2 MSTORE PUSH1 0x40 DUP1 DUP4 KECCAK256 PUSH1 0x1 PUSH1 0x1 PUSH1 0xA0 SHL SUB DUP1 DUP15 AND DUP6 MSTORE PUSH1 0xC SWAP1 SWAP4 MSTORE SWAP3 KECCAK256 DUP3 SLOAD DUP2 SSTORE PUSH1 0x1 DUP1 DUP5 ADD SLOAD SWAP1 DUP3 ADD DUP1 SLOAD PUSH1 0x1 PUSH1 0x1 PUSH1 0xA0 SHL SUB NOT AND SWAP2 SWAP1 SWAP4 AND OR SWAP1 SWAP2 SSTORE PUSH1 0x2 DUP1 DUP4 ADD DUP1 SLOAD SWAP2 DUP4 ADD SWAP2 PUSH2 0x2F4C SWAP1 PUSH2 0x47A2 JUMP JUMPDEST PUSH2 0x2F57 SWAP3 SWAP2 SWAP1 PUSH2 0x3D4B JUMP JUMPDEST POP PUSH1 0x3 DUP3 DUP2 ADD SLOAD DUP3 DUP3 ADD DUP1 SLOAD PUSH1 0xFF SWAP1 SWAP3 AND SWAP3 SWAP1 SWAP2 PUSH1 0xFF NOT AND SWAP1 PUSH1 0x1 SWAP1 DUP5 SWAP1 DUP2 GT ISZERO PUSH2 0x2F92 JUMPI PUSH4 0x4E487B71 PUSH1 0xE0 SHL PUSH1 0x0 MSTORE PUSH1 0x21 PUSH1 0x4 MSTORE PUSH1 0x24 PUSH1 0x0 REVERT JUMPDEST MUL OR SWAP1 SSTORE POP PUSH1 0x4 DUP3 DUP2 ADD SLOAD SWAP1 DUP3 ADD SSTORE PUSH1 0x5 DUP1 DUP4 ADD DUP1 SLOAD SWAP2 DUP4 ADD DUP1 SLOAD PUSH1 0x1 PUSH1 0x1 PUSH1 0xA0 SHL SUB NOT DUP2 AND PUSH1 0x1 PUSH1 0x1 PUSH1 0xA0 SHL SUB SWAP1 SWAP5 AND SWAP4 DUP5 OR DUP3 SSTORE SWAP2 SLOAD PUSH1 0xFF PUSH1 0x1 PUSH1 0xA0 SHL SWAP2 DUP3 SWAP1 DIV AND SWAP4 SWAP2 SWAP3 PUSH1 0x1 PUSH1 0x1 PUSH1 0xA8 SHL SUB NOT AND SWAP1 SWAP2 OR SWAP1 DUP4 PUSH1 0x3 DUP2 GT ISZERO PUSH2 0x3007 JUMPI PUSH4 0x4E487B71 PUSH1 0xE0 SHL PUSH1 0x0 MSTORE PUSH1 0x21 PUSH1 0x4 MSTORE PUSH1 0x24 PUSH1 0x0 REVERT JUMPDEST MUL OR SWAP1 SSTORE POP PUSH1 0x5 DUP3 DUP2 ADD SLOAD SWAP1 DUP3 ADD DUP1 SLOAD PUSH1 0xFF PUSH1 0x1 PUSH1 0xA8 SHL SWAP4 DUP5 SWAP1 DIV AND SWAP3 PUSH1 0xFF PUSH1 0xA8 SHL NOT SWAP1 SWAP2 AND SWAP1 DUP4 PUSH1 0x4 DUP2 GT ISZERO PUSH2 0x304E JUMPI PUSH4 0x4E487B71 PUSH1 0xE0 SHL PUSH1 0x0 MSTORE PUSH1 0x21 PUSH1 0x4 MSTORE PUSH1 0x24 PUSH1 0x0 REVERT JUMPDEST MUL OR SWAP1 SSTORE POP PUSH1 0x5 DUP3 DUP2 ADD SLOAD SWAP1 DUP3 ADD DUP1 SLOAD PUSH1 0xFF PUSH1 0x1 PUSH1 0xB0 SHL SWAP4 DUP5 SWAP1 DIV AND SWAP3 PUSH1 0xFF PUSH1 0xB0 SHL NOT SWAP1 SWAP2 AND SWAP1 DUP4 PUSH1 0x3 DUP2 GT ISZERO PUSH2 0x3095 JUMPI PUSH4 0x4E487B71 PUSH1 0xE0 SHL PUSH1 0x0 MSTORE PUSH1 0x21 PUSH1 0x4 MSTORE PUSH1 0x24 PUSH1 0x0 REVERT JUMPDEST MUL OR SWAP1 SSTORE POP POP PUSH1 0x40 DUP1 MLOAD DUP5 DUP2 MSTORE PUSH1 0xA0 PUSH1 0x20 DUP3 ADD DUP2 SWAP1 MSTORE PUSH1 0x18 SWAP1 DUP3 ADD MSTORE PUSH32 0x5265636F726420686173206265656E20696E7365727465640000000000000000 PUSH1 0xC0 DUP3 ADD MSTORE PUSH1 0x1 PUSH1 0x1 PUSH1 0xA0 SHL SUB DUP13 AND DUP2 DUP4 ADD MSTORE CALLER PUSH1 0x60 DUP3 ADD MSTORE TIMESTAMP PUSH1 0x80 DUP3 ADD MSTORE SWAP1 MLOAD PUSH32 0x4852D385B426147B4633D2DB827A16E7E8D240A545FE4E0ADF2E0C179CFA1332 SWAP3 POP SWAP1 DUP2 SWAP1 SUB PUSH1 0xE0 ADD SWAP1 LOG1 POP PUSH1 0x1 SWAP9 SWAP8 POP POP POP POP POP POP POP POP JUMP JUMPDEST PUSH1 0xA SLOAD PUSH1 0x1 PUSH1 0x1 PUSH1 0xA0 SHL SUB AND CALLER EQ PUSH2 0x3145 JUMPI PUSH1 0x0 DUP1 REVERT JUMPDEST PUSH1 0x1 PUSH1 0x1 PUSH1 0xA0 SHL SUB DUP2 AND PUSH1 0x0 SWAP1 DUP2 MSTORE PUSH1 0xF PUSH1 0x20 MSTORE PUSH1 0x40 SWAP1 KECCAK256 SLOAD DUP2 SWAP1 PUSH1 0xFF AND ISZERO ISZERO PUSH1 0x1 EQ PUSH2 0x3184 JUMPI PUSH1 0x40 MLOAD PUSH3 0x461BCD PUSH1 0xE5 SHL DUP2 MSTORE PUSH1 0x4 ADD PUSH2 0x4D2 SWAP1 PUSH2 0x442D JUMP JUMPDEST PUSH1 0x1 PUSH1 0x1 PUSH1 0xA0 SHL SUB DUP1 DUP4 AND PUSH1 0x0 SWAP1 DUP2 MSTORE PUSH1 0xE PUSH1 0x20 SWAP1 DUP2 MSTORE PUSH1 0x40 DUP1 DUP4 KECCAK256 DUP2 MLOAD PUSH2 0x1A0 DUP2 ADD DUP4 MSTORE DUP2 SLOAD DUP2 MSTORE PUSH1 0x1 DUP3 ADD SLOAD SWAP4 DUP2 ADD SWAP4 SWAP1 SWAP4 MSTORE PUSH1 0x2 DUP2 ADD SLOAD SWAP1 SWAP5 AND SWAP1 DUP3 ADD MSTORE PUSH1 0x3 DUP4 ADD DUP1 SLOAD SWAP3 SWAP4 SWAP2 SWAP3 PUSH1 0x60 DUP5 ADD SWAP2 SWAP1 PUSH2 0x31DE SWAP1 PUSH2 0x47A2 JUMP JUMPDEST DUP1 PUSH1 0x1F ADD PUSH1 0x20 DUP1 SWAP2 DIV MUL PUSH1 0x20 ADD PUSH1 0x40 MLOAD SWAP1 DUP2 ADD PUSH1 0x40 MSTORE DUP1 SWAP3 SWAP2 SWAP1 DUP2 DUP2 MSTORE PUSH1 0x20 ADD DUP3 DUP1 SLOAD PUSH2 0x320A SWAP1 PUSH2 0x47A2 JUMP JUMPDEST DUP1 ISZERO PUSH2 0x3257 JUMPI DUP1 PUSH1 0x1F LT PUSH2 0x322C JUMPI PUSH2 0x100 DUP1 DUP4 SLOAD DIV MUL DUP4 MSTORE SWAP2 PUSH1 0x20 ADD SWAP2 PUSH2 0x3257 JUMP JUMPDEST DUP3 ADD SWAP2 SWAP1 PUSH1 0x0 MSTORE PUSH1 0x20 PUSH1 0x0 KECCAK256 SWAP1 JUMPDEST DUP2 SLOAD DUP2 MSTORE SWAP1 PUSH1 0x1 ADD SWAP1 PUSH1 0x20 ADD DUP1 DUP4 GT PUSH2 0x323A JUMPI DUP3 SWAP1 SUB PUSH1 0x1F AND DUP3 ADD SWAP2 JUMPDEST POP POP POP SWAP2 DUP4 MSTORE POP POP PUSH1 0x4 DUP3 ADD SLOAD PUSH1 0x20 SWAP1 SWAP2 ADD SWAP1 PUSH1 0xFF AND PUSH1 0x2 DUP2 GT ISZERO PUSH2 0x328C JUMPI PUSH4 0x4E487B71 PUSH1 0xE0 SHL PUSH1 0x0 MSTORE PUSH1 0x21 PUSH1 0x4 MSTORE PUSH1 0x24 PUSH1 0x0 REVERT JUMPDEST PUSH1 0x2 DUP2 GT ISZERO PUSH2 0x32AB JUMPI PUSH4 0x4E487B71 PUSH1 0xE0 SHL PUSH1 0x0 MSTORE PUSH1 0x21 PUSH1 0x4 MSTORE PUSH1 0x24 PUSH1 0x0 REVERT JUMPDEST DUP2 MSTORE PUSH1 0x20 ADD PUSH1 0x5 DUP3 ADD DUP1 SLOAD PUSH2 0x32BF SWAP1 PUSH2 0x47A2 JUMP JUMPDEST DUP1 PUSH1 0x1F ADD PUSH1 0x20 DUP1 SWAP2 DIV MUL PUSH1 0x20 ADD PUSH1 0x40 MLOAD SWAP1 DUP2 ADD PUSH1 0x40 MSTORE DUP1 SWAP3 SWAP2 SWAP1 DUP2 DUP2 MSTORE PUSH1 0x20 ADD DUP3 DUP1 SLOAD PUSH2 0x32EB SWAP1 PUSH2 0x47A2 JUMP JUMPDEST DUP1 ISZERO PUSH2 0x3338 JUMPI DUP1 PUSH1 0x1F LT PUSH2 0x330D JUMPI PUSH2 0x100 DUP1 DUP4 SLOAD DIV MUL DUP4 MSTORE SWAP2 PUSH1 0x20 ADD SWAP2 PUSH2 0x3338 JUMP JUMPDEST DUP3 ADD SWAP2 SWAP1 PUSH1 0x0 MSTORE PUSH1 0x20 PUSH1 0x0 KECCAK256 SWAP1 JUMPDEST DUP2 SLOAD DUP2 MSTORE SWAP1 PUSH1 0x1 ADD SWAP1 PUSH1 0x20 ADD DUP1 DUP4 GT PUSH2 0x331B JUMPI DUP3 SWAP1 SUB PUSH1 0x1F AND DUP3 ADD SWAP2 JUMPDEST POP POP POP SWAP2 DUP4 MSTORE POP POP PUSH1 0x6 DUP3 ADD SLOAD PUSH1 0x20 DUP3 ADD MSTORE PUSH1 0x7 DUP3 ADD SLOAD PUSH1 0x1 PUSH1 0x1 PUSH1 0xA0 SHL SUB AND PUSH1 0x40 DUP3 ADD MSTORE PUSH1 0x8 DUP3 ADD DUP1 SLOAD PUSH1 0x60 SWAP1 SWAP3 ADD SWAP2 PUSH2 0x3372 SWAP1 PUSH2 0x47A2 JUMP JUMPDEST DUP1 PUSH1 0x1F ADD PUSH1 0x20 DUP1 SWAP2 DIV MUL PUSH1 0x20 ADD PUSH1 0x40 MLOAD SWAP1 DUP2 ADD PUSH1 0x40 MSTORE DUP1 SWAP3 SWAP2 SWAP1 DUP2 DUP2 MSTORE PUSH1 0x20 ADD DUP3 DUP1 SLOAD PUSH2 0x339E SWAP1 PUSH2 0x47A2 JUMP JUMPDEST DUP1 ISZERO PUSH2 0x33EB JUMPI DUP1 PUSH1 0x1F LT PUSH2 0x33C0 JUMPI PUSH2 0x100 DUP1 DUP4 SLOAD DIV MUL DUP4 MSTORE SWAP2 PUSH1 0x20 ADD SWAP2 PUSH2 0x33EB JUMP JUMPDEST DUP3 ADD SWAP2 SWAP1 PUSH1 0x0 MSTORE PUSH1 0x20 PUSH1 0x0 KECCAK256 SWAP1 JUMPDEST DUP2 SLOAD DUP2 MSTORE SWAP1 PUSH1 0x1 ADD SWAP1 PUSH1 0x20 ADD DUP1 DUP4 GT PUSH2 0x33CE JUMPI DUP3 SWAP1 SUB PUSH1 0x1F AND DUP3 ADD SWAP2 JUMPDEST POP POP POP POP POP DUP2 MSTORE PUSH1 0x20 ADD PUSH1 0x9 DUP3 ADD DUP1 SLOAD PUSH2 0x3404 SWAP1 PUSH2 0x47A2 JUMP JUMPDEST DUP1 PUSH1 0x1F ADD PUSH1 0x20 DUP1 SWAP2 DIV MUL PUSH1 0x20 ADD PUSH1 0x40 MLOAD SWAP1 DUP2 ADD PUSH1 0x40 MSTORE DUP1 SWAP3 SWAP2 SWAP1 DUP2 DUP2 MSTORE PUSH1 0x20 ADD DUP3 DUP1 SLOAD PUSH2 0x3430 SWAP1 PUSH2 0x47A2 JUMP JUMPDEST DUP1 ISZERO PUSH2 0x347D JUMPI DUP1 PUSH1 0x1F LT PUSH2 0x3452 JUMPI PUSH2 0x100 DUP1 DUP4 SLOAD DIV MUL DUP4 MSTORE SWAP2 PUSH1 0x20 ADD SWAP2 PUSH2 0x347D JUMP JUMPDEST DUP3 ADD SWAP2 SWAP1 PUSH1 0x0 MSTORE PUSH1 0x20 PUSH1 0x0 KECCAK256 SWAP1 JUMPDEST DUP2 SLOAD DUP2 MSTORE SWAP1 PUSH1 0x1 ADD SWAP1 PUSH1 0x20 ADD DUP1 DUP4 GT PUSH2 0x3460 JUMPI DUP3 SWAP1 SUB PUSH1 0x1F AND DUP3 ADD SWAP2 JUMPDEST POP POP POP POP POP DUP2 MSTORE PUSH1 0x20 ADD PUSH1 0xA DUP3 ADD DUP1 SLOAD PUSH2 0x3496 SWAP1 PUSH2 0x47A2 JUMP JUMPDEST DUP1 PUSH1 0x1F ADD PUSH1 0x20 DUP1 SWAP2 DIV MUL PUSH1 0x20 ADD PUSH1 0x40 MLOAD SWAP1 DUP2 ADD PUSH1 0x40 MSTORE DUP1 SWAP3 SWAP2 SWAP1 DUP2 DUP2 MSTORE PUSH1 0x20 ADD DUP3 DUP1 SLOAD PUSH2 0x34C2 SWAP1 PUSH2 0x47A2 JUMP JUMPDEST DUP1 ISZERO PUSH2 0x350F JUMPI DUP1 PUSH1 0x1F LT PUSH2 0x34E4 JUMPI PUSH2 0x100 DUP1 DUP4 SLOAD DIV MUL DUP4 MSTORE SWAP2 PUSH1 0x20 ADD SWAP2 PUSH2 0x350F JUMP JUMPDEST DUP3 ADD SWAP2 SWAP1 PUSH1 0x0 MSTORE PUSH1 0x20 PUSH1 0x0 KECCAK256 SWAP1 JUMPDEST DUP2 SLOAD DUP2 MSTORE SWAP1 PUSH1 0x1 ADD SWAP1 PUSH1 0x20 ADD DUP1 DUP4 GT PUSH2 0x34F2 JUMPI DUP3 SWAP1 SUB PUSH1 0x1F AND DUP3 ADD SWAP2 JUMPDEST POP POP POP SWAP2 DUP4 MSTORE POP POP PUSH1 0xB DUP3 ADD SLOAD PUSH1 0x20 SWAP1 SWAP2 ADD SWAP1 PUSH1 0xFF AND PUSH1 0x4 DUP2 GT ISZERO PUSH2 0x3544 JUMPI PUSH4 0x4E487B71 PUSH1 0xE0 SHL PUSH1 0x0 MSTORE PUSH1 0x21 PUSH1 0x4 MSTORE PUSH1 0x24 PUSH1 0x0 REVERT JUMPDEST PUSH1 0x4 DUP2 GT ISZERO PUSH2 0x3563 JUMPI PUSH4 0x4E487B71 PUSH1 0xE0 SHL PUSH1 0x0 MSTORE PUSH1 0x21 PUSH1 0x4 MSTORE PUSH1 0x24 PUSH1 0x0 REVERT JUMPDEST DUP2 MSTORE PUSH1 0x20 ADD PUSH1 0xB DUP3 ADD PUSH1 0x1 SWAP1 SLOAD SWAP1 PUSH2 0x100 EXP SWAP1 DIV PUSH1 0xFF AND PUSH1 0x3 DUP2 GT ISZERO PUSH2 0x3599 JUMPI PUSH4 0x4E487B71 PUSH1 0xE0 SHL PUSH1 0x0 MSTORE PUSH1 0x21 PUSH1 0x4 MSTORE PUSH1 0x24 PUSH1 0x0 REVERT JUMPDEST PUSH1 0x3 DUP2 GT ISZERO PUSH2 0x35B8 JUMPI PUSH4 0x4E487B71 PUSH1 0xE0 SHL PUSH1 0x0 MSTORE PUSH1 0x21 PUSH1 0x4 MSTORE PUSH1 0x24 PUSH1 0x0 REVERT JUMPDEST DUP2 MSTORE POP POP SWAP1 POP PUSH32 0x6E43F0A1523071FE23924A6F965D9061314ED05CF201A862FE084B59602389D4 DUP2 PUSH1 0x60 ADD MLOAD DUP3 PUSH1 0x80 ADD MLOAD DUP4 PUSH2 0x120 ADD MLOAD DUP5 PUSH2 0x140 ADD MLOAD DUP6 PUSH1 0xA0 ADD MLOAD PUSH1 0x40 MLOAD PUSH2 0x95C SWAP6 SWAP5 SWAP4 SWAP3 SWAP2 SWAP1 PUSH2 0x436F JUMP JUMPDEST DUP1 SLOAD PUSH1 0x1 ADD SWAP1 SSTORE JUMP JUMPDEST DUP1 MLOAD PUSH1 0x0 SWAP1 DUP3 SWAP1 PUSH2 0x3628 JUMPI POP PUSH1 0x0 SWAP3 SWAP2 POP POP JUMP JUMPDEST POP POP PUSH1 0x20 ADD MLOAD SWAP1 JUMP JUMPDEST PUSH2 0x3639 PUSH2 0x3DC6 JUMP JUMPDEST PUSH2 0x3641 PUSH2 0x3DC6 JUMP JUMPDEST PUSH2 0x364D DUP2 DUP7 DUP7 DUP7 PUSH2 0x36B6 JUMP JUMPDEST SWAP6 SWAP5 POP POP POP POP POP JUMP JUMPDEST PUSH1 0x80 DUP4 ADD MLOAD PUSH2 0x3665 SWAP1 DUP4 PUSH2 0x36F3 JUMP JUMPDEST PUSH1 0x80 DUP4 ADD MLOAD PUSH2 0x3674 SWAP1 DUP3 PUSH2 0x36F3 JUMP JUMPDEST POP POP POP JUMP JUMPDEST PUSH1 0x80 DUP4 ADD MLOAD PUSH2 0x3688 SWAP1 DUP4 PUSH2 0x36F3 JUMP JUMPDEST PUSH1 0x80 DUP4 ADD MLOAD PUSH2 0x3674 SWAP1 DUP3 PUSH2 0x370A JUMP JUMPDEST PUSH1 0x0 PUSH2 0x36AE DUP5 DUP5 DUP5 PUSH1 0x1 PUSH4 0x20214CA3 PUSH1 0xE1 SHL PUSH2 0x371A JUMP JUMPDEST SWAP5 SWAP4 POP POP POP POP JUMP JUMPDEST PUSH2 0x36BE PUSH2 0x3DC6 JUMP JUMPDEST PUSH2 0x36CE DUP6 PUSH1 0x80 ADD MLOAD PUSH2 0x100 PUSH2 0x3926 JUMP JUMPDEST POP POP SWAP2 DUP4 MSTORE PUSH1 0x1 PUSH1 0x1 PUSH1 0xA0 SHL SUB AND PUSH1 0x20 DUP4 ADD MSTORE PUSH1 0x1 PUSH1 0x1 PUSH1 0xE0 SHL SUB NOT AND PUSH1 0x40 DUP3 ADD MSTORE SWAP1 JUMP JUMPDEST PUSH2 0x3700 DUP3 PUSH1 0x3 DUP4 MLOAD PUSH2 0x3991 JUMP JUMPDEST PUSH2 0x3674 DUP3 DUP3 PUSH2 0x3A5F JUMP JUMPDEST PUSH2 0x3716 DUP3 PUSH1 0x0 DUP4 PUSH2 0x3991 JUMP JUMPDEST POP POP JUMP JUMPDEST PUSH1 0x4 SLOAD PUSH1 0x40 MLOAD PUSH12 0xFFFFFFFFFFFFFFFFFFFFFFFF NOT ADDRESS PUSH1 0x60 SHL AND PUSH1 0x20 DUP3 ADD MSTORE PUSH1 0x34 DUP2 ADD SWAP2 SWAP1 SWAP2 MSTORE PUSH1 0x0 SWAP1 PUSH1 0x54 ADD PUSH1 0x40 DUP1 MLOAD DUP1 DUP4 SUB PUSH1 0x1F NOT ADD DUP2 MSTORE SWAP2 DUP2 MSTORE DUP2 MLOAD PUSH1 0x20 SWAP3 DUP4 ADD KECCAK256 PUSH1 0x4 SLOAD PUSH1 0x60 DUP10 ADD MSTORE PUSH1 0x0 DUP2 DUP2 MSTORE PUSH1 0x5 SWAP1 SWAP4 MSTORE DUP2 DUP4 KECCAK256 DUP1 SLOAD PUSH1 0x1 PUSH1 0x1 PUSH1 0xA0 SHL SUB NOT AND PUSH1 0x1 PUSH1 0x1 PUSH1 0xA0 SHL SUB DUP12 AND OR SWAP1 SSTORE SWAP1 MLOAD SWAP1 SWAP3 POP DUP3 SWAP2 PUSH32 0xA6745906207AFB96A5801B8E5711FD7B74C5780CE893A973806E179D675BBE24 SWAP2 LOG2 PUSH1 0x0 DUP3 PUSH1 0x0 DUP1 DUP9 PUSH1 0x0 ADD MLOAD DUP10 PUSH1 0x20 ADD MLOAD DUP11 PUSH1 0x40 ADD MLOAD DUP12 PUSH1 0x60 ADD MLOAD DUP11 DUP14 PUSH1 0x80 ADD MLOAD PUSH1 0x0 ADD MLOAD PUSH1 0x40 MLOAD PUSH1 0x24 ADD PUSH2 0x37F1 SWAP9 SWAP8 SWAP7 SWAP6 SWAP5 SWAP4 SWAP3 SWAP2 SWAP1 PUSH2 0x42E0 JUMP JUMPDEST PUSH1 0x40 DUP1 MLOAD PUSH1 0x1F NOT DUP2 DUP5 SUB ADD DUP2 MSTORE SWAP2 DUP2 MSTORE PUSH1 0x20 DUP3 ADD DUP1 MLOAD PUSH1 0x1 PUSH1 0x1 PUSH1 0xE0 SHL SUB AND PUSH1 0x1 PUSH1 0x1 PUSH1 0xE0 SHL SUB NOT SWAP1 SWAP5 AND SWAP4 SWAP1 SWAP4 OR SWAP1 SWAP3 MSTORE PUSH1 0x2 SLOAD SWAP2 MLOAD PUSH4 0x2000575 PUSH1 0xE5 SHL DUP2 MSTORE SWAP1 SWAP3 POP PUSH1 0x1 PUSH1 0x1 PUSH1 0xA0 SHL SUB SWAP1 SWAP2 AND SWAP1 PUSH4 0x4000AEA0 SWAP1 PUSH2 0x3859 SWAP1 DUP11 SWAP1 DUP10 SWAP1 DUP7 SWAP1 PUSH1 0x4 ADD PUSH2 0x4348 JUMP JUMPDEST PUSH1 0x20 PUSH1 0x40 MLOAD DUP1 DUP4 SUB DUP2 PUSH1 0x0 DUP8 DUP1 EXTCODESIZE ISZERO DUP1 ISZERO PUSH2 0x3873 JUMPI PUSH1 0x0 DUP1 REVERT JUMPDEST POP GAS CALL ISZERO DUP1 ISZERO PUSH2 0x3887 JUMPI RETURNDATASIZE PUSH1 0x0 DUP1 RETURNDATACOPY RETURNDATASIZE PUSH1 0x0 REVERT JUMPDEST POP POP POP POP PUSH1 0x40 MLOAD RETURNDATASIZE PUSH1 0x1F NOT PUSH1 0x1F DUP3 ADD AND DUP3 ADD DUP1 PUSH1 0x40 MSTORE POP DUP2 ADD SWAP1 PUSH2 0x38AB SWAP2 SWAP1 PUSH2 0x41CB JUMP JUMPDEST PUSH2 0x3903 JUMPI PUSH1 0x40 MLOAD PUSH3 0x461BCD PUSH1 0xE5 SHL DUP2 MSTORE PUSH1 0x20 PUSH1 0x4 DUP3 ADD MSTORE PUSH1 0x23 PUSH1 0x24 DUP3 ADD MSTORE PUSH32 0x756E61626C6520746F207472616E73666572416E6443616C6C20746F206F7261 PUSH1 0x44 DUP3 ADD MSTORE PUSH3 0x636C65 PUSH1 0xE8 SHL PUSH1 0x64 DUP3 ADD MSTORE PUSH1 0x84 ADD PUSH2 0x4D2 JUMP JUMPDEST PUSH1 0x1 PUSH1 0x4 PUSH1 0x0 DUP3 DUP3 SLOAD PUSH2 0x3916 SWAP2 SWAP1 PUSH2 0x463D JUMP JUMPDEST SWAP1 SWAP2 SSTORE POP SWAP2 SWAP8 SWAP7 POP POP POP POP POP POP POP JUMP JUMPDEST PUSH1 0x40 DUP1 MLOAD DUP1 DUP3 ADD SWAP1 SWAP2 MSTORE PUSH1 0x60 DUP2 MSTORE PUSH1 0x0 PUSH1 0x20 DUP3 ADD MSTORE PUSH2 0x3946 PUSH1 0x20 DUP4 PUSH2 0x47D7 JUMP JUMPDEST ISZERO PUSH2 0x396E JUMPI PUSH2 0x3956 PUSH1 0x20 DUP4 PUSH2 0x47D7 JUMP JUMPDEST PUSH2 0x3961 SWAP1 PUSH1 0x20 PUSH2 0x475F JUMP JUMPDEST PUSH2 0x396B SWAP1 DUP4 PUSH2 0x463D JUMP JUMPDEST SWAP2 POP JUMPDEST POP PUSH1 0x20 DUP1 DUP4 ADD DUP3 SWAP1 MSTORE PUSH1 0x40 DUP1 MLOAD DUP1 DUP6 MSTORE PUSH1 0x0 DUP2 MSTORE DUP4 ADD SWAP1 SWAP2 ADD SWAP1 MSTORE DUP2 JUMPDEST SWAP3 SWAP2 POP POP JUMP JUMPDEST PUSH1 0x17 DUP2 GT PUSH2 0x39AC JUMPI PUSH2 0x269C DUP4 PUSH1 0xE0 PUSH1 0x5 DUP6 SWAP1 SHL AND DUP4 OR PUSH2 0x3A8D JUMP JUMPDEST PUSH1 0xFF DUP2 GT PUSH2 0x39D6 JUMPI PUSH2 0x39C9 DUP4 PUSH1 0x18 PUSH2 0x1FE0 PUSH1 0x5 DUP7 SWAP1 SHL AND OR PUSH2 0x3A8D JUMP JUMPDEST POP PUSH2 0x269C DUP4 DUP3 PUSH1 0x1 PUSH2 0x3AB2 JUMP JUMPDEST PUSH2 0xFFFF DUP2 GT PUSH2 0x3A01 JUMPI PUSH2 0x39F4 DUP4 PUSH1 0x19 PUSH2 0x1FE0 PUSH1 0x5 DUP7 SWAP1 SHL AND OR PUSH2 0x3A8D JUMP JUMPDEST POP PUSH2 0x269C DUP4 DUP3 PUSH1 0x2 PUSH2 0x3AB2 JUMP JUMPDEST PUSH4 0xFFFFFFFF DUP2 GT PUSH2 0x3A2E JUMPI PUSH2 0x3A21 DUP4 PUSH1 0x1A PUSH2 0x1FE0 PUSH1 0x5 DUP7 SWAP1 SHL AND OR PUSH2 0x3A8D JUMP JUMPDEST POP PUSH2 0x269C DUP4 DUP3 PUSH1 0x4 PUSH2 0x3AB2 JUMP JUMPDEST PUSH8 0xFFFFFFFFFFFFFFFF DUP2 GT PUSH2 0x3674 JUMPI PUSH2 0x3A52 DUP4 PUSH1 0x1B PUSH2 0x1FE0 PUSH1 0x5 DUP7 SWAP1 SHL AND OR PUSH2 0x3A8D JUMP JUMPDEST POP PUSH2 0x269C DUP4 DUP3 PUSH1 0x8 PUSH2 0x3AB2 JUMP JUMPDEST PUSH1 0x40 DUP1 MLOAD DUP1 DUP3 ADD SWAP1 SWAP2 MSTORE PUSH1 0x60 DUP2 MSTORE PUSH1 0x0 PUSH1 0x20 DUP3 ADD MSTORE PUSH2 0x3A86 DUP4 DUP5 PUSH1 0x0 ADD MLOAD MLOAD DUP5 DUP6 MLOAD PUSH2 0x3AD8 JUMP JUMPDEST SWAP4 SWAP3 POP POP POP JUMP JUMPDEST PUSH1 0x40 DUP1 MLOAD DUP1 DUP3 ADD SWAP1 SWAP2 MSTORE PUSH1 0x60 DUP2 MSTORE PUSH1 0x0 PUSH1 0x20 DUP3 ADD MSTORE PUSH2 0x3A86 DUP4 DUP5 PUSH1 0x0 ADD MLOAD MLOAD DUP5 PUSH2 0x3BC2 JUMP JUMPDEST PUSH1 0x40 DUP1 MLOAD DUP1 DUP3 ADD SWAP1 SWAP2 MSTORE PUSH1 0x60 DUP2 MSTORE PUSH1 0x0 PUSH1 0x20 DUP3 ADD MSTORE PUSH2 0x36AE DUP5 DUP6 PUSH1 0x0 ADD MLOAD MLOAD DUP6 DUP6 PUSH2 0x3C1E JUMP JUMPDEST PUSH1 0x40 DUP1 MLOAD DUP1 DUP3 ADD SWAP1 SWAP2 MSTORE PUSH1 0x60 DUP2 MSTORE PUSH1 0x0 PUSH1 0x20 DUP3 ADD MSTORE DUP3 MLOAD DUP3 GT ISZERO PUSH2 0x3AFB JUMPI PUSH1 0x0 DUP1 REVERT JUMPDEST PUSH1 0x20 DUP6 ADD MLOAD PUSH2 0x3B0A DUP4 DUP7 PUSH2 0x463D JUMP JUMPDEST GT ISZERO PUSH2 0x3B3D JUMPI PUSH2 0x3B3D DUP6 PUSH2 0x3B2D DUP8 PUSH1 0x20 ADD MLOAD DUP8 DUP7 PUSH2 0x3B28 SWAP2 SWAP1 PUSH2 0x463D JUMP JUMPDEST PUSH2 0x3C9F JUMP JUMPDEST PUSH2 0x3B38 SWAP1 PUSH1 0x2 PUSH2 0x4740 JUMP JUMPDEST PUSH2 0x3CB0 JUMP JUMPDEST PUSH1 0x0 DUP1 DUP7 MLOAD DUP1 MLOAD DUP8 PUSH1 0x20 DUP4 ADD ADD SWAP4 POP DUP1 DUP9 DUP8 ADD GT ISZERO PUSH2 0x3B5C JUMPI DUP8 DUP7 ADD DUP3 MSTORE JUMPDEST POP POP POP PUSH1 0x20 DUP5 ADD JUMPDEST PUSH1 0x20 DUP5 LT PUSH2 0x3B9C JUMPI DUP1 MLOAD DUP3 MSTORE PUSH2 0x3B7B PUSH1 0x20 DUP4 PUSH2 0x463D JUMP JUMPDEST SWAP2 POP PUSH2 0x3B88 PUSH1 0x20 DUP3 PUSH2 0x463D JUMP JUMPDEST SWAP1 POP PUSH2 0x3B95 PUSH1 0x20 DUP6 PUSH2 0x475F JUMP JUMPDEST SWAP4 POP PUSH2 0x3B64 JUMP JUMPDEST MLOAD DUP2 MLOAD PUSH1 0x0 NOT PUSH1 0x20 DUP7 SWAP1 SUB PUSH2 0x100 EXP ADD SWAP1 DUP2 AND SWAP1 NOT SWAP2 SWAP1 SWAP2 AND OR SWAP1 MSTORE POP DUP4 SWAP5 SWAP4 POP POP POP POP JUMP JUMPDEST PUSH1 0x40 DUP1 MLOAD DUP1 DUP3 ADD SWAP1 SWAP2 MSTORE PUSH1 0x60 DUP2 MSTORE PUSH1 0x0 PUSH1 0x20 DUP3 ADD MSTORE DUP4 PUSH1 0x20 ADD MLOAD DUP4 LT PUSH2 0x3BF7 JUMPI PUSH2 0x3BF7 DUP5 DUP6 PUSH1 0x20 ADD MLOAD PUSH1 0x2 PUSH2 0x3B38 SWAP2 SWAP1 PUSH2 0x4740 JUMP JUMPDEST DUP4 MLOAD DUP1 MLOAD PUSH1 0x20 DUP6 DUP4 ADD ADD DUP5 DUP2 MSTORE8 POP DUP1 DUP6 EQ ISZERO PUSH2 0x3C14 JUMPI PUSH1 0x1 DUP2 ADD DUP3 MSTORE JUMPDEST POP SWAP4 SWAP5 SWAP4 POP POP POP POP JUMP JUMPDEST PUSH1 0x40 DUP1 MLOAD DUP1 DUP3 ADD SWAP1 SWAP2 MSTORE PUSH1 0x60 DUP2 MSTORE PUSH1 0x0 PUSH1 0x20 DUP3 ADD MSTORE PUSH1 0x20 DUP6 ADD MLOAD PUSH2 0x3C42 DUP6 DUP5 PUSH2 0x463D JUMP JUMPDEST GT ISZERO PUSH2 0x3C56 JUMPI PUSH2 0x3C56 DUP6 PUSH2 0x3B2D DUP7 DUP6 PUSH2 0x463D JUMP JUMPDEST PUSH1 0x0 PUSH1 0x1 PUSH2 0x3C66 DUP5 PUSH2 0x100 PUSH2 0x4698 JUMP JUMPDEST PUSH2 0x3C70 SWAP2 SWAP1 PUSH2 0x475F JUMP JUMPDEST SWAP1 POP DUP6 MLOAD DUP4 DUP7 DUP3 ADD ADD DUP6 DUP4 NOT DUP3 MLOAD AND OR DUP2 MSTORE POP DUP1 MLOAD DUP5 DUP8 ADD GT ISZERO PUSH2 0x3C94 JUMPI DUP4 DUP7 ADD DUP2 MSTORE JUMPDEST POP SWAP5 SWAP6 SWAP5 POP POP POP POP POP JUMP JUMPDEST PUSH1 0x0 DUP2 DUP4 GT ISZERO PUSH2 0xEEB JUMPI POP DUP2 PUSH2 0x398B JUMP JUMPDEST DUP2 MLOAD PUSH2 0x3CBC DUP4 DUP4 PUSH2 0x3926 JUMP JUMPDEST POP PUSH2 0x269C DUP4 DUP3 PUSH2 0x3A5F JUMP JUMPDEST DUP3 DUP1 SLOAD PUSH2 0x3CD3 SWAP1 PUSH2 0x47A2 JUMP JUMPDEST SWAP1 PUSH1 0x0 MSTORE PUSH1 0x20 PUSH1 0x0 KECCAK256 SWAP1 PUSH1 0x1F ADD PUSH1 0x20 SWAP1 DIV DUP2 ADD SWAP3 DUP3 PUSH2 0x3CF5 JUMPI PUSH1 0x0 DUP6 SSTORE PUSH2 0x3D3B JUMP JUMPDEST DUP3 PUSH1 0x1F LT PUSH2 0x3D0E JUMPI DUP1 MLOAD PUSH1 0xFF NOT AND DUP4 DUP1 ADD OR DUP6 SSTORE PUSH2 0x3D3B JUMP JUMPDEST DUP3 DUP1 ADD PUSH1 0x1 ADD DUP6 SSTORE DUP3 ISZERO PUSH2 0x3D3B JUMPI SWAP2 DUP3 ADD JUMPDEST DUP3 DUP2 GT ISZERO PUSH2 0x3D3B JUMPI DUP3 MLOAD DUP3 SSTORE SWAP2 PUSH1 0x20 ADD SWAP2 SWAP1 PUSH1 0x1 ADD SWAP1 PUSH2 0x3D20 JUMP JUMPDEST POP PUSH2 0x3D47 SWAP3 SWAP2 POP PUSH2 0x3E01 JUMP JUMPDEST POP SWAP1 JUMP JUMPDEST DUP3 DUP1 SLOAD PUSH2 0x3D57 SWAP1 PUSH2 0x47A2 JUMP JUMPDEST SWAP1 PUSH1 0x0 MSTORE PUSH1 0x20 PUSH1 0x0 KECCAK256 SWAP1 PUSH1 0x1F ADD PUSH1 0x20 SWAP1 DIV DUP2 ADD SWAP3 DUP3 PUSH2 0x3D79 JUMPI PUSH1 0x0 DUP6 SSTORE PUSH2 0x3D3B JUMP JUMPDEST DUP3 PUSH1 0x1F LT PUSH2 0x3D8A JUMPI DUP1 SLOAD DUP6 SSTORE PUSH2 0x3D3B JUMP JUMPDEST DUP3 DUP1 ADD PUSH1 0x1 ADD DUP6 SSTORE DUP3 ISZERO PUSH2 0x3D3B JUMPI PUSH1 0x0 MSTORE PUSH1 0x20 PUSH1 0x0 KECCAK256 SWAP2 PUSH1 0x1F ADD PUSH1 0x20 SWAP1 DIV DUP3 ADD JUMPDEST DUP3 DUP2 GT ISZERO PUSH2 0x3D3B JUMPI DUP3 SLOAD DUP3 SSTORE SWAP2 PUSH1 0x1 ADD SWAP2 SWAP1 PUSH1 0x1 ADD SWAP1 PUSH2 0x3DAB JUMP JUMPDEST PUSH1 0x40 DUP1 MLOAD PUSH1 0xA0 DUP2 ADD DUP3 MSTORE PUSH1 0x0 DUP1 DUP3 MSTORE PUSH1 0x20 DUP1 DUP4 ADD DUP3 SWAP1 MSTORE DUP3 DUP5 ADD DUP3 SWAP1 MSTORE PUSH1 0x60 DUP1 DUP5 ADD DUP4 SWAP1 MSTORE DUP5 MLOAD DUP1 DUP7 ADD SWAP1 SWAP6 MSTORE DUP5 MSTORE DUP4 ADD MSTORE SWAP1 PUSH1 0x80 DUP3 ADD MSTORE SWAP1 JUMP JUMPDEST JUMPDEST DUP1 DUP3 GT ISZERO PUSH2 0x3D47 JUMPI PUSH1 0x0 DUP2 SSTORE PUSH1 0x1 ADD PUSH2 0x3E02 JUMP JUMPDEST DUP1 CALLDATALOAD PUSH1 0x1 PUSH1 0x1 PUSH1 0xA0 SHL SUB DUP2 AND DUP2 EQ PUSH2 0x3E2D JUMPI PUSH1 0x0 DUP1 REVERT JUMPDEST SWAP2 SWAP1 POP JUMP JUMPDEST DUP1 CALLDATALOAD PUSH2 0x3E2D DUP2 PUSH2 0x4869 JUMP JUMPDEST DUP1 CALLDATALOAD PUSH1 0x3 DUP2 LT PUSH2 0x3E2D JUMPI PUSH1 0x0 DUP1 REVERT JUMPDEST PUSH1 0x0 DUP3 PUSH1 0x1F DUP4 ADD SLT PUSH2 0x3E5C JUMPI DUP1 DUP2 REVERT JUMPDEST DUP2 CALLDATALOAD PUSH8 0xFFFFFFFFFFFFFFFF DUP1 DUP3 GT ISZERO PUSH2 0x3E77 JUMPI PUSH2 0x3E77 PUSH2 0x4823 JUMP JUMPDEST PUSH1 0x40 MLOAD PUSH1 0x1F DUP4 ADD PUSH1 0x1F NOT SWAP1 DUP2 AND PUSH1 0x3F ADD AND DUP2 ADD SWAP1 DUP3 DUP3 GT DUP2 DUP4 LT OR ISZERO PUSH2 0x3E9F JUMPI PUSH2 0x3E9F PUSH2 0x4823 JUMP JUMPDEST DUP2 PUSH1 0x40 MSTORE DUP4 DUP2 MSTORE DUP7 PUSH1 0x20 DUP6 DUP9 ADD ADD GT ISZERO PUSH2 0x3EB7 JUMPI DUP5 DUP6 REVERT JUMPDEST DUP4 PUSH1 0x20 DUP8 ADD PUSH1 0x20 DUP4 ADD CALLDATACOPY SWAP3 DUP4 ADD PUSH1 0x20 ADD SWAP4 SWAP1 SWAP4 MSTORE POP SWAP4 SWAP3 POP POP POP JUMP JUMPDEST PUSH1 0x0 PUSH1 0x20 DUP3 DUP5 SUB SLT ISZERO PUSH2 0x3EE4 JUMPI DUP1 DUP2 REVERT JUMPDEST PUSH2 0x3A86 DUP3 PUSH2 0x3E16 JUMP JUMPDEST PUSH1 0x0 DUP1 PUSH1 0x40 DUP4 DUP6 SUB SLT ISZERO PUSH2 0x3EFF JUMPI DUP1 DUP2 REVERT JUMPDEST PUSH2 0x3F08 DUP4 PUSH2 0x3E16 JUMP JUMPDEST SWAP2 POP PUSH2 0x3F16 PUSH1 0x20 DUP5 ADD PUSH2 0x3E16 JUMP JUMPDEST SWAP1 POP SWAP3 POP SWAP3 SWAP1 POP JUMP JUMPDEST PUSH1 0x0 DUP1 PUSH1 0x0 DUP1 PUSH1 0x80 DUP6 DUP8 SUB SLT ISZERO PUSH2 0x3F34 JUMPI DUP2 DUP3 REVERT JUMPDEST PUSH2 0x3F3D DUP6 PUSH2 0x3E16 JUMP JUMPDEST SWAP4 POP PUSH1 0x20 DUP6 ADD CALLDATALOAD PUSH8 0xFFFFFFFFFFFFFFFF DUP1 DUP3 GT ISZERO PUSH2 0x3F59 JUMPI DUP4 DUP5 REVERT JUMPDEST PUSH2 0x3F65 DUP9 DUP4 DUP10 ADD PUSH2 0x3E4C JUMP JUMPDEST SWAP5 POP PUSH2 0x3F73 PUSH1 0x40 DUP9 ADD PUSH2 0x3E16 JUMP JUMPDEST SWAP4 POP PUSH1 0x60 DUP8 ADD CALLDATALOAD SWAP2 POP DUP1 DUP3 GT ISZERO PUSH2 0x3F88 JUMPI DUP3 DUP4 REVERT JUMPDEST POP PUSH2 0x3F95 DUP8 DUP3 DUP9 ADD PUSH2 0x3E4C JUMP JUMPDEST SWAP2 POP POP SWAP3 SWAP6 SWAP2 SWAP5 POP SWAP3 POP JUMP JUMPDEST PUSH1 0x0 DUP1 PUSH1 0x0 DUP1 PUSH1 0x0 PUSH1 0xA0 DUP7 DUP9 SUB SLT ISZERO PUSH2 0x3FB8 JUMPI DUP1 DUP2 REVERT JUMPDEST PUSH2 0x3FC1 DUP7 PUSH2 0x3E16 JUMP JUMPDEST SWAP5 POP PUSH1 0x20 DUP7 ADD CALLDATALOAD PUSH8 0xFFFFFFFFFFFFFFFF DUP2 GT ISZERO PUSH2 0x3FDC JUMPI DUP2 DUP3 REVERT JUMPDEST PUSH2 0x3FE8 DUP9 DUP3 DUP10 ADD PUSH2 0x3E4C JUMP JUMPDEST SWAP5 POP POP PUSH1 0x40 DUP7 ADD CALLDATALOAD PUSH2 0x3FF9 DUP2 PUSH2 0x4869 JUMP JUMPDEST SWAP3 POP PUSH1 0x60 DUP7 ADD CALLDATALOAD PUSH2 0x4009 DUP2 PUSH2 0x4869 JUMP JUMPDEST SWAP2 POP PUSH2 0x4017 PUSH1 0x80 DUP8 ADD PUSH2 0x3E3D JUMP JUMPDEST SWAP1 POP SWAP3 SWAP6 POP SWAP3 SWAP6 SWAP1 SWAP4 POP JUMP JUMPDEST PUSH1 0x0 DUP1 PUSH1 0x0 DUP1 PUSH1 0x0 DUP1 PUSH1 0xC0 DUP8 DUP10 SUB SLT ISZERO PUSH2 0x403B JUMPI DUP1 DUP2 REVERT JUMPDEST PUSH2 0x4044 DUP8 PUSH2 0x3E16 JUMP JUMPDEST SWAP6 POP PUSH1 0x20 DUP8 ADD CALLDATALOAD PUSH8 0xFFFFFFFFFFFFFFFF DUP1 DUP3 GT ISZERO PUSH2 0x4060 JUMPI DUP3 DUP4 REVERT JUMPDEST PUSH2 0x406C DUP11 DUP4 DUP12 ADD PUSH2 0x3E4C JUMP JUMPDEST SWAP7 POP PUSH1 0x40 DUP10 ADD CALLDATALOAD SWAP2 POP DUP1 DUP3 GT ISZERO PUSH2 0x4081 JUMPI DUP3 DUP4 REVERT JUMPDEST POP PUSH2 0x408E DUP10 DUP3 DUP11 ADD PUSH2 0x3E4C JUMP JUMPDEST SWAP5 POP POP PUSH1 0x60 DUP8 ADD CALLDATALOAD PUSH2 0x409F DUP2 PUSH2 0x485C JUMP JUMPDEST SWAP3 POP PUSH1 0x80 DUP8 ADD CALLDATALOAD PUSH2 0x40AF DUP2 PUSH2 0x4869 JUMP JUMPDEST SWAP2 POP PUSH1 0xA0 DUP8 ADD CALLDATALOAD PUSH2 0x40BF DUP2 PUSH2 0x485C JUMP JUMPDEST DUP1 SWAP2 POP POP SWAP3 SWAP6 POP SWAP3 SWAP6 POP SWAP3 SWAP6 JUMP JUMPDEST PUSH1 0x0 DUP1 PUSH1 0x0 DUP1 PUSH1 0x0 DUP1 PUSH1 0x0 DUP1 PUSH2 0x100 DUP10 DUP12 SUB SLT ISZERO PUSH2 0x40E9 JUMPI DUP2 DUP3 REVERT JUMPDEST PUSH2 0x40F2 DUP10 PUSH2 0x3E16 JUMP JUMPDEST SWAP8 POP PUSH1 0x20 DUP10 ADD CALLDATALOAD PUSH8 0xFFFFFFFFFFFFFFFF DUP1 DUP3 GT ISZERO PUSH2 0x410E JUMPI DUP4 DUP5 REVERT JUMPDEST PUSH2 0x411A DUP13 DUP4 DUP14 ADD PUSH2 0x3E4C JUMP JUMPDEST SWAP9 POP PUSH1 0x40 DUP12 ADD CALLDATALOAD SWAP2 POP DUP1 DUP3 GT ISZERO PUSH2 0x412F JUMPI DUP4 DUP5 REVERT JUMPDEST PUSH2 0x413B DUP13 DUP4 DUP14 ADD PUSH2 0x3E4C JUMP JUMPDEST SWAP8 POP PUSH1 0x60 DUP12 ADD CALLDATALOAD SWAP2 POP DUP1 DUP3 GT ISZERO PUSH2 0x4150 JUMPI DUP4 DUP5 REVERT JUMPDEST PUSH2 0x415C DUP13 DUP4 DUP14 ADD PUSH2 0x3E4C JUMP JUMPDEST SWAP7 POP PUSH2 0x416A PUSH1 0x80 DUP13 ADD PUSH2 0x3E32 JUMP JUMPDEST SWAP6 POP PUSH2 0x4178 PUSH1 0xA0 DUP13 ADD PUSH2 0x3E3D JUMP JUMPDEST SWAP5 POP PUSH1 0xC0 DUP12 ADD CALLDATALOAD SWAP2 POP DUP1 DUP3 GT ISZERO PUSH2 0x418D JUMPI DUP4 DUP5 REVERT JUMPDEST PUSH2 0x4199 DUP13 DUP4 DUP14 ADD PUSH2 0x3E4C JUMP JUMPDEST SWAP4 POP PUSH1 0xE0 DUP12 ADD CALLDATALOAD SWAP2 POP DUP1 DUP3 GT ISZERO PUSH2 0x41AE JUMPI DUP3 DUP4 REVERT JUMPDEST POP PUSH2 0x41BB DUP12 DUP3 DUP13 ADD PUSH2 0x3E4C JUMP JUMPDEST SWAP2 POP POP SWAP3 SWAP6 SWAP9 POP SWAP3 SWAP6 SWAP9 SWAP1 SWAP4 SWAP7 POP JUMP JUMPDEST PUSH1 0x0 PUSH1 0x20 DUP3 DUP5 SUB SLT ISZERO PUSH2 0x41DC JUMPI DUP1 DUP2 REVERT JUMPDEST DUP2 MLOAD DUP1 ISZERO ISZERO DUP2 EQ PUSH2 0x3A86 JUMPI DUP2 DUP3 REVERT JUMPDEST PUSH1 0x0 PUSH1 0x20 DUP3 DUP5 SUB SLT ISZERO PUSH2 0x41FC JUMPI DUP1 DUP2 REVERT JUMPDEST POP CALLDATALOAD SWAP2 SWAP1 POP JUMP JUMPDEST PUSH1 0x0 PUSH1 0x20 DUP3 DUP5 SUB SLT ISZERO PUSH2 0x4214 JUMPI DUP1 DUP2 REVERT JUMPDEST POP MLOAD SWAP2 SWAP1 POP JUMP JUMPDEST PUSH1 0x0 DUP1 PUSH1 0x40 DUP4 DUP6 SUB SLT ISZERO PUSH2 0x422D JUMPI DUP2 DUP3 REVERT JUMPDEST POP POP DUP1 CALLDATALOAD SWAP3 PUSH1 0x20 SWAP1 SWAP2 ADD CALLDATALOAD SWAP2 POP JUMP JUMPDEST PUSH1 0x0 DUP2 MLOAD DUP1 DUP5 MSTORE PUSH2 0x4254 DUP2 PUSH1 0x20 DUP7 ADD PUSH1 0x20 DUP7 ADD PUSH2 0x4776 JUMP JUMPDEST PUSH1 0x1F ADD PUSH1 0x1F NOT AND SWAP3 SWAP1 SWAP3 ADD PUSH1 0x20 ADD SWAP3 SWAP2 POP POP JUMP JUMPDEST PUSH2 0x4271 DUP2 PUSH2 0x4839 JUMP JUMPDEST SWAP1 MSTORE JUMP JUMPDEST PUSH1 0x3 DUP2 LT PUSH2 0x4271 JUMPI PUSH2 0x4271 PUSH2 0x480D JUMP JUMPDEST PUSH2 0x4271 DUP2 PUSH2 0x484C JUMP JUMPDEST PUSH1 0x0 DUP3 MLOAD PUSH2 0x42A0 DUP2 DUP5 PUSH1 0x20 DUP8 ADD PUSH2 0x4776 JUMP JUMPDEST SWAP2 SWAP1 SWAP2 ADD SWAP3 SWAP2 POP POP JUMP JUMPDEST PUSH1 0x1 PUSH1 0x1 PUSH1 0xA0 SHL SUB DUP5 AND DUP2 MSTORE PUSH1 0x60 DUP2 ADD PUSH2 0x42C3 DUP5 PUSH2 0x484C JUMP JUMPDEST DUP4 PUSH1 0x20 DUP4 ADD MSTORE PUSH2 0x42D2 DUP4 PUSH2 0x484C JUMP JUMPDEST DUP3 PUSH1 0x40 DUP4 ADD MSTORE SWAP5 SWAP4 POP POP POP POP JUMP JUMPDEST PUSH1 0x1 PUSH1 0x1 PUSH1 0xA0 SHL SUB DUP10 DUP2 AND DUP3 MSTORE PUSH1 0x20 DUP3 ADD DUP10 SWAP1 MSTORE PUSH1 0x40 DUP3 ADD DUP9 SWAP1 MSTORE DUP7 AND PUSH1 0x60 DUP3 ADD MSTORE PUSH1 0x1 PUSH1 0x1 PUSH1 0xE0 SHL SUB NOT DUP6 AND PUSH1 0x80 DUP3 ADD MSTORE PUSH1 0xA0 DUP2 ADD DUP5 SWAP1 MSTORE PUSH1 0xC0 DUP2 ADD DUP4 SWAP1 MSTORE PUSH2 0x100 PUSH1 0xE0 DUP3 ADD DUP2 SWAP1 MSTORE PUSH1 0x0 SWAP1 PUSH2 0x4339 DUP4 DUP3 ADD DUP6 PUSH2 0x423C JUMP JUMPDEST SWAP12 SWAP11 POP POP POP POP POP POP POP POP POP POP POP JUMP JUMPDEST PUSH1 0x1 DUP1 PUSH1 0xA0 SHL SUB DUP5 AND DUP2 MSTORE DUP3 PUSH1 0x20 DUP3 ADD MSTORE PUSH1 0x60 PUSH1 0x40 DUP3 ADD MSTORE PUSH1 0x0 PUSH2 0x364D PUSH1 0x60 DUP4 ADD DUP5 PUSH2 0x423C JUMP JUMPDEST PUSH1 0xA0 DUP2 MSTORE PUSH1 0x0 PUSH2 0x4382 PUSH1 0xA0 DUP4 ADD DUP9 PUSH2 0x423C JUMP JUMPDEST PUSH2 0x438F PUSH1 0x20 DUP5 ADD DUP9 PUSH2 0x4275 JUMP JUMPDEST DUP3 DUP2 SUB PUSH1 0x40 DUP5 ADD MSTORE PUSH2 0x43A1 DUP2 DUP8 PUSH2 0x423C JUMP JUMPDEST SWAP1 POP DUP3 DUP2 SUB PUSH1 0x60 DUP5 ADD MSTORE PUSH2 0x43B5 DUP2 DUP7 PUSH2 0x423C JUMP JUMPDEST SWAP1 POP DUP3 DUP2 SUB PUSH1 0x80 DUP5 ADD MSTORE PUSH2 0x43C9 DUP2 DUP6 PUSH2 0x423C JUMP JUMPDEST SWAP9 SWAP8 POP POP POP POP POP POP POP POP JUMP JUMPDEST PUSH1 0x80 DUP2 MSTORE PUSH1 0x0 PUSH2 0x43E8 PUSH1 0x80 DUP4 ADD DUP8 PUSH2 0x423C JUMP JUMPDEST DUP3 DUP2 SUB PUSH1 0x20 DUP5 ADD MSTORE PUSH2 0x43FA DUP2 DUP8 PUSH2 0x423C JUMP JUMPDEST SWAP1 POP DUP3 DUP2 SUB PUSH1 0x40 DUP5 ADD MSTORE PUSH2 0x440E DUP2 DUP7 PUSH2 0x423C JUMP JUMPDEST SWAP1 POP DUP3 DUP2 SUB PUSH1 0x60 DUP5 ADD MSTORE PUSH2 0x4422 DUP2 DUP6 PUSH2 0x423C JUMP JUMPDEST SWAP8 SWAP7 POP POP POP POP POP POP POP JUMP JUMPDEST PUSH1 0x20 DUP1 DUP3 MSTORE PUSH1 0x16 SWAP1 DUP3 ADD MSTORE PUSH22 0x14185D1A595B9D08139BDD081C9959DA5CDD195C9959 PUSH1 0x52 SHL PUSH1 0x40 DUP3 ADD MSTORE PUSH1 0x60 ADD SWAP1 JUMP JUMPDEST DUP9 DUP2 MSTORE PUSH1 0x1 PUSH1 0x1 PUSH1 0xA0 SHL SUB DUP9 DUP2 AND PUSH1 0x20 DUP4 ADD MSTORE PUSH1 0x0 SWAP1 PUSH2 0x100 SWAP1 PUSH2 0x4480 DUP11 PUSH2 0x484C JUMP JUMPDEST DUP10 PUSH1 0x40 DUP6 ADD MSTORE DUP2 PUSH1 0x60 DUP6 ADD MSTORE PUSH2 0x4498 DUP3 DUP6 ADD DUP11 PUSH2 0x423C JUMP JUMPDEST SWAP3 POP PUSH2 0x44A3 DUP9 PUSH2 0x484C JUMP JUMPDEST DUP8 PUSH1 0x80 DUP6 ADD MSTORE PUSH2 0x44B6 PUSH1 0xA0 DUP6 ADD DUP9 PUSH2 0x4275 JUMP JUMPDEST DUP6 PUSH1 0xC0 DUP6 ADD MSTORE DUP1 DUP6 AND PUSH1 0xE0 DUP6 ADD MSTORE POP POP SWAP10 SWAP9 POP POP POP POP POP POP POP POP POP JUMP JUMPDEST DUP10 DUP2 MSTORE PUSH1 0x1 PUSH1 0x1 PUSH1 0xA0 SHL SUB DUP10 DUP2 AND PUSH1 0x20 DUP4 ADD MSTORE PUSH2 0x120 PUSH1 0x40 DUP4 ADD DUP2 SWAP1 MSTORE PUSH1 0x0 SWAP2 PUSH2 0x44FF DUP5 DUP4 ADD DUP13 PUSH2 0x423C JUMP JUMPDEST SWAP3 POP PUSH2 0x450A DUP11 PUSH2 0x4839 JUMP JUMPDEST DUP10 PUSH1 0x60 DUP6 ADD MSTORE DUP9 PUSH1 0x80 DUP6 ADD MSTORE DUP1 DUP9 AND PUSH1 0xA0 DUP6 ADD MSTORE POP POP PUSH2 0x4529 DUP6 PUSH2 0x4839 JUMP JUMPDEST DUP5 PUSH1 0xC0 DUP4 ADD MSTORE PUSH2 0x4538 DUP5 PUSH2 0x484C JUMP JUMPDEST DUP4 PUSH1 0xE0 DUP4 ADD MSTORE PUSH2 0x4547 DUP4 PUSH2 0x4839 JUMP JUMPDEST DUP3 PUSH2 0x100 DUP4 ADD MSTORE SWAP11 SWAP10 POP POP POP POP POP POP POP POP POP POP JUMP JUMPDEST PUSH1 0x0 PUSH2 0x1A0 DUP16 DUP4 MSTORE DUP15 PUSH1 0x20 DUP5 ADD MSTORE PUSH2 0x457F PUSH1 0x40 DUP5 ADD DUP16 PUSH1 0x1 PUSH1 0x1 PUSH1 0xA0 SHL SUB AND SWAP1 MSTORE JUMP JUMPDEST DUP1 PUSH1 0x60 DUP5 ADD MSTORE PUSH2 0x4591 DUP2 DUP5 ADD DUP15 PUSH2 0x423C JUMP JUMPDEST SWAP1 POP PUSH2 0x45A0 PUSH1 0x80 DUP5 ADD DUP14 PUSH2 0x4275 JUMP JUMPDEST DUP3 DUP2 SUB PUSH1 0xA0 DUP5 ADD MSTORE PUSH2 0x45B2 DUP2 DUP13 PUSH2 0x423C JUMP JUMPDEST SWAP1 POP DUP10 PUSH1 0xC0 DUP5 ADD MSTORE PUSH2 0x45CF PUSH1 0xE0 DUP5 ADD DUP11 PUSH1 0x1 PUSH1 0x1 PUSH1 0xA0 SHL SUB AND SWAP1 MSTORE JUMP JUMPDEST DUP3 DUP2 SUB PUSH2 0x100 DUP5 ADD MSTORE PUSH2 0x45E2 DUP2 DUP10 PUSH2 0x423C JUMP JUMPDEST SWAP1 POP DUP3 DUP2 SUB PUSH2 0x120 DUP5 ADD MSTORE PUSH2 0x45F7 DUP2 DUP9 PUSH2 0x423C JUMP JUMPDEST SWAP1 POP DUP3 DUP2 SUB PUSH2 0x140 DUP5 ADD MSTORE PUSH2 0x460C DUP2 DUP8 PUSH2 0x423C JUMP JUMPDEST SWAP2 POP POP PUSH2 0x461D PUSH2 0x160 DUP4 ADD DUP6 PUSH2 0x4285 JUMP JUMPDEST PUSH2 0x462B PUSH2 0x180 DUP4 ADD DUP5 PUSH2 0x4268 JUMP JUMPDEST SWAP15 SWAP14 POP POP POP POP POP POP POP POP POP POP POP POP POP POP JUMP JUMPDEST PUSH1 0x0 DUP3 NOT DUP3 GT ISZERO PUSH2 0x4650 JUMPI PUSH2 0x4650 PUSH2 0x47F7 JUMP JUMPDEST POP ADD SWAP1 JUMP JUMPDEST PUSH1 0x1 DUP2 DUP2 JUMPDEST DUP1 DUP6 GT ISZERO PUSH2 0x4690 JUMPI DUP2 PUSH1 0x0 NOT DIV DUP3 GT ISZERO PUSH2 0x4676 JUMPI PUSH2 0x4676 PUSH2 0x47F7 JUMP JUMPDEST DUP1 DUP6 AND ISZERO PUSH2 0x4683 JUMPI SWAP2 DUP2 MUL SWAP2 JUMPDEST SWAP4 DUP5 SHR SWAP4 SWAP1 DUP1 MUL SWAP1 PUSH2 0x465A JUMP JUMPDEST POP SWAP3 POP SWAP3 SWAP1 POP JUMP JUMPDEST PUSH1 0x0 PUSH2 0x3A86 DUP4 DUP4 PUSH1 0x0 DUP3 PUSH2 0x46AE JUMPI POP PUSH1 0x1 PUSH2 0x398B JUMP JUMPDEST DUP2 PUSH2 0x46BB JUMPI POP PUSH1 0x0 PUSH2 0x398B JUMP JUMPDEST DUP2 PUSH1 0x1 DUP2 EQ PUSH2 0x46D1 JUMPI PUSH1 0x2 DUP2 EQ PUSH2 0x46DB JUMPI PUSH2 0x46F7 JUMP JUMPDEST PUSH1 0x1 SWAP2 POP POP PUSH2 0x398B JUMP JUMPDEST PUSH1 0xFF DUP5 GT ISZERO PUSH2 0x46EC JUMPI PUSH2 0x46EC PUSH2 0x47F7 JUMP JUMPDEST POP POP PUSH1 0x1 DUP3 SHL PUSH2 0x398B JUMP JUMPDEST POP PUSH1 0x20 DUP4 LT PUSH2 0x133 DUP4 LT AND PUSH1 0x4E DUP5 LT PUSH1 0xB DUP5 LT AND OR ISZERO PUSH2 0x471A JUMPI POP DUP2 DUP2 EXP PUSH2 0x398B JUMP JUMPDEST PUSH2 0x4724 DUP4 DUP4 PUSH2 0x4655 JUMP JUMPDEST DUP1 PUSH1 0x0 NOT DIV DUP3 GT ISZERO PUSH2 0x4738 JUMPI PUSH2 0x4738 PUSH2 0x47F7 JUMP JUMPDEST MUL SWAP4 SWAP3 POP POP POP JUMP JUMPDEST PUSH1 0x0 DUP2 PUSH1 0x0 NOT DIV DUP4 GT DUP3 ISZERO ISZERO AND ISZERO PUSH2 0x475A JUMPI PUSH2 0x475A PUSH2 0x47F7 JUMP JUMPDEST POP MUL SWAP1 JUMP JUMPDEST PUSH1 0x0 DUP3 DUP3 LT ISZERO PUSH2 0x4771 JUMPI PUSH2 0x4771 PUSH2 0x47F7 JUMP JUMPDEST POP SUB SWAP1 JUMP JUMPDEST PUSH1 0x0 JUMPDEST DUP4 DUP2 LT ISZERO PUSH2 0x4791 JUMPI DUP2 DUP2 ADD MLOAD DUP4 DUP3 ADD MSTORE PUSH1 0x20 ADD PUSH2 0x4779 JUMP JUMPDEST DUP4 DUP2 GT ISZERO PUSH2 0x269C JUMPI POP POP PUSH1 0x0 SWAP2 ADD MSTORE JUMP JUMPDEST PUSH1 0x1 DUP2 DUP2 SHR SWAP1 DUP3 AND DUP1 PUSH2 0x47B6 JUMPI PUSH1 0x7F DUP3 AND SWAP2 POP JUMPDEST PUSH1 0x20 DUP3 LT DUP2 EQ ISZERO PUSH2 0xEEB JUMPI PUSH4 0x4E487B71 PUSH1 0xE0 SHL PUSH1 0x0 MSTORE PUSH1 0x22 PUSH1 0x4 MSTORE PUSH1 0x24 PUSH1 0x0 REVERT JUMPDEST PUSH1 0x0 DUP3 PUSH2 0x47F2 JUMPI PUSH4 0x4E487B71 PUSH1 0xE0 SHL DUP2 MSTORE PUSH1 0x12 PUSH1 0x4 MSTORE PUSH1 0x24 DUP2 REVERT JUMPDEST POP MOD SWAP1 JUMP JUMPDEST PUSH4 0x4E487B71 PUSH1 0xE0 SHL PUSH1 0x0 MSTORE PUSH1 0x11 PUSH1 0x4 MSTORE PUSH1 0x24 PUSH1 0x0 REVERT JUMPDEST PUSH4 0x4E487B71 PUSH1 0xE0 SHL PUSH1 0x0 MSTORE PUSH1 0x21 PUSH1 0x4 MSTORE PUSH1 0x24 PUSH1 0x0 REVERT JUMPDEST PUSH4 0x4E487B71 PUSH1 0xE0 SHL PUSH1 0x0 MSTORE PUSH1 0x41 PUSH1 0x4 MSTORE PUSH1 0x24 PUSH1 0x0 REVERT JUMPDEST PUSH1 0x4 DUP2 LT PUSH2 0x4849 JUMPI PUSH2 0x4849 PUSH2 0x480D JUMP JUMPDEST POP JUMP JUMPDEST PUSH1 0x5 DUP2 LT PUSH2 0x4849 JUMPI PUSH2 0x4849 PUSH2 0x480D JUMP JUMPDEST PUSH1 0x4 DUP2 LT PUSH2 0x4849 JUMPI PUSH1 0x0 DUP1 REVERT JUMPDEST PUSH1 0x5 DUP2 LT PUSH2 0x4849 JUMPI PUSH1 0x0 DUP1 REVERT INVALID LOG2 PUSH5 0x6970667358 0x22 SLT KECCAK256 PUSH7 0x8B94E4F4F13B1F CHAINID 0xB4 PUSH28 0x7F825C95E01197126AFBDC3AD173788928734E361264736F6C634300 ADDMOD DIV STOP CALLER "
        },
        "methodIdentifiers": {
          "InsuranceVerification(address,address)": "04f0a2b6",
          "ambEcuView(address)": "fa14396b",
          "deRegisterDoctor(address)": "40979b68",
          "doctors(uint256)": "6efb1b84",
          "doctorsRegistered(address)": "083cb02d",
          "documentLogRequestIds(bytes32)": "eb9560f5",
          "documentLogs(uint256)": "cf790146",
          "fulfillPermission(bytes32,uint256)": "a52c852a",
          "grantAccess(address)": "0ae5e739",
          "insertRecords(address,string,string,uint8,uint8,uint8)": "f3634797",
          "owner()": "8da5cb5b",
          "patientDetails(address)": "10c5f025",
          "patientRegistered(address)": "a888803e",
          "patientToRole(address,address)": "d01d7683",
          "patients(uint256)": "93119a83",
          "pharmacistView(address,address)": "c0807d6f",
          "records(uint256)": "34461067",
          "recordsDetails(address)": "c2a19d1d",
          "registerDoctor(address,string,uint8,uint8,uint8)": "6f273a3e",
          "registerPatients(address,string,string,string,uint8,uint8,string,string)": "4eec4e74",
          "requestToView(address,string,address,string)": "8a335d10",
          "revokeAccess(address)": "85e68531"
        }
      }
    }
  }
}