{
	"test.sol": {
		"EHR": {
			"abi": [
				{
					"inputs": [
						{
							"internalType": "address",
							"name": "_pli",
							"type": "address"
						}
					],
					"stateMutability": "nonpayable",
					"type": "constructor"
				},
				{
					"anonymous": false,
					"inputs": [
						{
							"indexed": true,
							"internalType": "bytes32",
							"name": "id",
							"type": "bytes32"
						}
					],
					"name": "PluginCancelled",
					"type": "event"
				},
				{
					"anonymous": false,
					"inputs": [
						{
							"indexed": true,
							"internalType": "bytes32",
							"name": "id",
							"type": "bytes32"
						}
					],
					"name": "PluginFulfilled",
					"type": "event"
				},
				{
					"anonymous": false,
					"inputs": [
						{
							"indexed": true,
							"internalType": "bytes32",
							"name": "id",
							"type": "bytes32"
						}
					],
					"name": "PluginRequested",
					"type": "event"
				},
				{
					"anonymous": false,
					"inputs": [
						{
							"indexed": false,
							"internalType": "string",
							"name": "comment",
							"type": "string"
						},
						{
							"indexed": false,
							"internalType": "uint256",
							"name": "patKey",
							"type": "uint256"
						},
						{
							"indexed": false,
							"internalType": "uint256",
							"name": "docKey",
							"type": "uint256"
						},
						{
							"indexed": false,
							"internalType": "uint256",
							"name": "registeredOn",
							"type": "uint256"
						}
					],
					"name": "RecordEvents",
					"type": "event"
				},
				{
					"anonymous": false,
					"inputs": [
						{
							"indexed": false,
							"internalType": "uint256",
							"name": "patientKey",
							"type": "uint256"
						},
						{
							"indexed": false,
							"internalType": "string",
							"name": "evenType",
							"type": "string"
						},
						{
							"indexed": false,
							"internalType": "uint256",
							"name": "registeredOn",
							"type": "uint256"
						}
					],
					"name": "patregistration",
					"type": "event"
				},
				{
					"inputs": [
						{
							"internalType": "uint256",
							"name": "_patKey",
							"type": "uint256"
						},
						{
							"internalType": "uint256",
							"name": "_docKey",
							"type": "uint256"
						},
						{
							"internalType": "enum GenericInterface.access",
							"name": "ac",
							"type": "uint8"
						}
					],
					"name": "accessControl",
					"outputs": [],
					"stateMutability": "nonpayable",
					"type": "function"
				},
				{
					"inputs": [
						{
							"internalType": "uint256",
							"name": "",
							"type": "uint256"
						},
						{
							"internalType": "uint256",
							"name": "",
							"type": "uint256"
						}
					],
					"name": "accessForDoctor",
					"outputs": [
						{
							"internalType": "bool",
							"name": "",
							"type": "bool"
						}
					],
					"stateMutability": "view",
					"type": "function"
				},
				{
					"inputs": [
						{
							"internalType": "uint256",
							"name": "",
							"type": "uint256"
						},
						{
							"internalType": "uint256",
							"name": "",
							"type": "uint256"
						}
					],
					"name": "careGiverData",
					"outputs": [
						{
							"internalType": "string",
							"name": "careName",
							"type": "string"
						},
						{
							"internalType": "string",
							"name": "careMobile",
							"type": "string"
						},
						{
							"internalType": "string",
							"name": "careRelation",
							"type": "string"
						},
						{
							"internalType": "bool",
							"name": "isExist",
							"type": "bool"
						}
					],
					"stateMutability": "view",
					"type": "function"
				},
				{
					"inputs": [
						{
							"internalType": "uint256",
							"name": "",
							"type": "uint256"
						}
					],
					"name": "doctorAccess",
					"outputs": [
						{
							"internalType": "string",
							"name": "doctorName",
							"type": "string"
						},
						{
							"internalType": "string",
							"name": "doctorEmail",
							"type": "string"
						},
						{
							"internalType": "string",
							"name": "doctorMobile",
							"type": "string"
						},
						{
							"internalType": "string",
							"name": "doctorPass",
							"type": "string"
						},
						{
							"internalType": "string",
							"name": "doctorCred",
							"type": "string"
						},
						{
							"internalType": "enum DoctorInterface.DoctorType",
							"name": "docType",
							"type": "uint8"
						},
						{
							"internalType": "enum GenericInterface.Sex",
							"name": "docSex",
							"type": "uint8"
						},
						{
							"internalType": "bool",
							"name": "isExist",
							"type": "bool"
						}
					],
					"stateMutability": "view",
					"type": "function"
				},
				{
					"inputs": [],
					"name": "owner",
					"outputs": [
						{
							"internalType": "address",
							"name": "",
							"type": "address"
						}
					],
					"stateMutability": "view",
					"type": "function"
				},
				{
					"inputs": [
						{
							"internalType": "uint256",
							"name": "",
							"type": "uint256"
						}
					],
					"name": "patientAccess",
					"outputs": [
						{
							"internalType": "string",
							"name": "patientName",
							"type": "string"
						},
						{
							"internalType": "string",
							"name": "patientEmail",
							"type": "string"
						},
						{
							"internalType": "string",
							"name": "patientMobile",
							"type": "string"
						},
						{
							"internalType": "string",
							"name": "patientPass",
							"type": "string"
						},
						{
							"internalType": "bool",
							"name": "isExist",
							"type": "bool"
						}
					],
					"stateMutability": "view",
					"type": "function"
				},
				{
					"inputs": [
						{
							"internalType": "uint256",
							"name": "",
							"type": "uint256"
						}
					],
					"name": "patientLocData",
					"outputs": [
						{
							"internalType": "string",
							"name": "city",
							"type": "string"
						},
						{
							"internalType": "string",
							"name": "state",
							"type": "string"
						},
						{
							"internalType": "string",
							"name": "country",
							"type": "string"
						},
						{
							"internalType": "string",
							"name": "landmark",
							"type": "string"
						},
						{
							"internalType": "uint256",
							"name": "pincode",
							"type": "uint256"
						}
					],
					"stateMutability": "view",
					"type": "function"
				},
				{
					"inputs": [
						{
							"internalType": "uint256",
							"name": "",
							"type": "uint256"
						}
					],
					"name": "patienthealthData",
					"outputs": [
						{
							"internalType": "string",
							"name": "allergies",
							"type": "string"
						},
						{
							"internalType": "string",
							"name": "lifesaver",
							"type": "string"
						},
						{
							"internalType": "uint256",
							"name": "height",
							"type": "uint256"
						},
						{
							"internalType": "uint256",
							"name": "weight",
							"type": "uint256"
						}
					],
					"stateMutability": "view",
					"type": "function"
				},
				{
					"inputs": [
						{
							"internalType": "uint256",
							"name": "",
							"type": "uint256"
						},
						{
							"internalType": "string",
							"name": "",
							"type": "string"
						}
					],
					"name": "patientrecordsData",
					"outputs": [
						{
							"internalType": "uint256",
							"name": "",
							"type": "uint256"
						}
					],
					"stateMutability": "view",
					"type": "function"
				},
				{
					"inputs": [
						{
							"internalType": "uint256",
							"name": "patKey",
							"type": "uint256"
						},
						{
							"internalType": "uint256",
							"name": "docKey",
							"type": "uint256"
						},
						{
							"internalType": "uint256",
							"name": "rt",
							"type": "uint256"
						},
						{
							"internalType": "uint256",
							"name": "recordHash",
							"type": "uint256"
						}
					],
					"name": "recordByDoctor",
					"outputs": [],
					"stateMutability": "nonpayable",
					"type": "function"
				},
				{
					"inputs": [
						{
							"internalType": "uint256",
							"name": "patKey",
							"type": "uint256"
						},
						{
							"internalType": "uint256",
							"name": "rt",
							"type": "uint256"
						},
						{
							"internalType": "uint256",
							"name": "recordHash",
							"type": "uint256"
						}
					],
					"name": "recordByPatient",
					"outputs": [],
					"stateMutability": "nonpayable",
					"type": "function"
				},
				{
					"inputs": [
						{
							"internalType": "uint256",
							"name": "patKey",
							"type": "uint256"
						},
						{
							"internalType": "uint256",
							"name": "position",
							"type": "uint256"
						},
						{
							"internalType": "string",
							"name": "careName",
							"type": "string"
						},
						{
							"internalType": "string",
							"name": "careMobile",
							"type": "string"
						},
						{
							"internalType": "string",
							"name": "careRelation",
							"type": "string"
						}
					],
					"name": "registerCareGiver",
					"outputs": [],
					"stateMutability": "nonpayable",
					"type": "function"
				},
				{
					"inputs": [
						{
							"internalType": "string",
							"name": "doctorName",
							"type": "string"
						},
						{
							"internalType": "string",
							"name": "doctorEmail",
							"type": "string"
						},
						{
							"internalType": "string",
							"name": "doctorMobile",
							"type": "string"
						},
						{
							"internalType": "string",
							"name": "doctorPass",
							"type": "string"
						},
						{
							"internalType": "string",
							"name": "doctorCred",
							"type": "string"
						},
						{
							"internalType": "enum DoctorInterface.DoctorType",
							"name": "_doctorType",
							"type": "uint8"
						},
						{
							"internalType": "enum GenericInterface.Sex",
							"name": "_gender",
							"type": "uint8"
						},
						{
							"internalType": "enum GenericInterface.stateChange",
							"name": "reup",
							"type": "uint8"
						}
					],
					"name": "registerDoctor",
					"outputs": [],
					"stateMutability": "nonpayable",
					"type": "function"
				},
				{
					"inputs": [
						{
							"internalType": "string",
							"name": "allergies",
							"type": "string"
						},
						{
							"internalType": "string",
							"name": "lifesaver",
							"type": "string"
						},
						{
							"internalType": "uint256",
							"name": "height",
							"type": "uint256"
						},
						{
							"internalType": "uint256",
							"name": "weight",
							"type": "uint256"
						},
						{
							"internalType": "uint256",
							"name": "patKey",
							"type": "uint256"
						}
					],
					"name": "registerPatientHealth",
					"outputs": [],
					"stateMutability": "nonpayable",
					"type": "function"
				},
				{
					"inputs": [
						{
							"internalType": "string",
							"name": "city",
							"type": "string"
						},
						{
							"internalType": "string",
							"name": "state",
							"type": "string"
						},
						{
							"internalType": "string",
							"name": "country",
							"type": "string"
						},
						{
							"internalType": "string",
							"name": "landmark",
							"type": "string"
						},
						{
							"internalType": "uint256",
							"name": "pincode",
							"type": "uint256"
						},
						{
							"internalType": "uint256",
							"name": "patKey",
							"type": "uint256"
						}
					],
					"name": "registerPatientLoc",
					"outputs": [],
					"stateMutability": "nonpayable",
					"type": "function"
				},
				{
					"inputs": [
						{
							"internalType": "string",
							"name": "patientName",
							"type": "string"
						},
						{
							"internalType": "string",
							"name": "patientEmail",
							"type": "string"
						},
						{
							"internalType": "string",
							"name": "patientMobile",
							"type": "string"
						},
						{
							"internalType": "string",
							"name": "patientPass",
							"type": "string"
						},
						{
							"internalType": "enum GenericInterface.stateChange",
							"name": "reup",
							"type": "uint8"
						}
					],
					"name": "registerPatients",
					"outputs": [],
					"stateMutability": "nonpayable",
					"type": "function"
				},
				{
					"inputs": [
						{
							"internalType": "uint256",
							"name": "patKey",
							"type": "uint256"
						},
						{
							"internalType": "uint256",
							"name": "position",
							"type": "uint256"
						},
						{
							"internalType": "string",
							"name": "careName",
							"type": "string"
						},
						{
							"internalType": "string",
							"name": "careMobile",
							"type": "string"
						},
						{
							"internalType": "string",
							"name": "careRelation",
							"type": "string"
						}
					],
					"name": "updateCareGiver",
					"outputs": [],
					"stateMutability": "nonpayable",
					"type": "function"
				}
			],
			"devdoc": {
				"kind": "dev",
				"methods": {},
				"version": 1
			},
			"evm": {
				"assembly": "    /* \"@goplugin/contracts/src/v0.8/PluginClient.sol\":1194:1195  1 */\n  0x01\n    /* \"@goplugin/contracts/src/v0.8/PluginClient.sol\":1163:1195  uint256 private requestCount = 1 */\n  0x04\n  sstore\n    /* \"test.sol\":1547:1629  string[] RecordType = ['MRI','BLOODTEST','COVIDTEST','COVIDCERTIFICATE','CHECKUP'] */\n  0x03\n  0x0120\n  swap1\n  dup2\n  mstore\n  mstore(0x0140, shl(0xe8, 0x4d5249))\n    /* \"test.sol\":198:9000  contract EHR is PluginClient, PatientInterface, DoctorInterface {... */\n  0x80\n    /* \"test.sol\":1547:1629  string[] RecordType = ['MRI','BLOODTEST','COVIDTEST','COVIDCERTIFICATE','CHECKUP'] */\n  swap1\n  dup2\n  mstore\n  0x09\n  0x0160\n  dup2\n  dup2\n  mstore\n  mstore(0x0180, shl(0xba, 0x109313d3d1151154d5))\n  0xa0\n  mstore\n  0x01a0\n  swap1\n  dup2\n  mstore\n  mstore(0x01c0, shl(0xba, 0x10d3d59251151154d5))\n  0xc0\n  mstore\n  0x10\n  0x01e0\n  swap1\n  dup2\n  mstore\n  mstore(0x0200, shl(0x80, 0x434f5649444345525449464943415445))\n  0xe0\n  mstore\n  0x0260\n    /* \"test.sol\":198:9000  contract EHR is PluginClient, PatientInterface, DoctorInterface {... */\n  0x40\n    /* \"test.sol\":1547:1629  string[] RecordType = ['MRI','BLOODTEST','COVIDTEST','COVIDCERTIFICATE','CHECKUP'] */\n  mstore\n  0x07\n  0x0220\n  swap1\n  dup2\n  mstore\n  mstore(0x0240, shl(0xcc, 0x0434845434b555))\n  0x0100\n  mstore\n  tag_1\n  swap1\n  0x0e\n  swap1\n  0x05\n  tag_2\n  jump\t// in\ntag_1:\n  pop\n    /* \"test.sol\":315:406  constructor(address _pli) {... */\n  callvalue\n  dup1\n  iszero\n  tag_3\n  jumpi\n  0x00\n  dup1\n  revert\ntag_3:\n  pop\n  mload(0x40)\n  sub(codesize, bytecodeSize)\n  dup1\n  bytecodeSize\n  dup4\n  codecopy\n  dup2\n  add\n  0x40\n  dup2\n  swap1\n  mstore\n  tag_4\n  swap2\n  tag_5\n  jump\t// in\ntag_4:\n    /* \"@goplugin/contracts/src/v0.8/PluginClient.sol\":7422:7425  pli */\n  0x02\n    /* \"@goplugin/contracts/src/v0.8/PluginClient.sol\":7422:7457  pli = PliTokenInterface(pliAddress) */\n  dup1\n  sload\n  not(sub(shl(0xa0, 0x01), 0x01))\n  and\n  sub(shl(0xa0, 0x01), 0x01)\n  dup4\n  and\n  or\n  swap1\n  sstore\n  pop\n    /* \"test.sol\":381:386  owner */\n  0x06\n    /* \"test.sol\":381:399  owner = msg.sender */\n  dup1\n  sload\n  not(sub(shl(0xa0, 0x01), 0x01))\n  and\n    /* \"test.sol\":389:399  msg.sender */\n  caller\n    /* \"test.sol\":381:399  owner = msg.sender */\n  or\n  swap1\n  sstore\n    /* \"test.sol\":198:9000  contract EHR is PluginClient, PatientInterface, DoctorInterface {... */\n  jump(tag_38)\ntag_2:\n  dup3\n  dup1\n  sload\n  dup3\n  dup3\n  sstore\n  swap1\n  0x00\n  mstore\n  keccak256(0x00, 0x20)\n  swap1\n  dup2\n  add\n  swap3\n  dup3\n  iszero\n  tag_14\n  jumpi\n  swap2\n  0x20\n  mul\n  dup3\n  add\ntag_13:\n  dup3\n  dup2\n  gt\n  iszero\n  tag_14\n  jumpi\n  dup3\n  mload\n  dup1\n  mload\n  tag_15\n  swap2\n  dup5\n  swap2\n  0x20\n  swap1\n  swap2\n  add\n  swap1\n  tag_16\n  jump\t// in\ntag_15:\n  pop\n  swap2\n  0x20\n  add\n  swap2\n  swap1\n  0x01\n  add\n  swap1\n  jump(tag_13)\ntag_14:\n  pop\n  tag_17\n  swap3\n  swap2\n  pop\n  tag_18\n  jump\t// in\ntag_17:\n  pop\n  swap1\n  jump\t// out\ntag_16:\n  dup3\n  dup1\n  sload\n  tag_19\n  swap1\n  tag_20\n  jump\t// in\ntag_19:\n  swap1\n  0x00\n  mstore\n  keccak256(0x00, 0x20)\n  swap1\n  0x1f\n  add\n  0x20\n  swap1\n  div\n  dup2\n  add\n  swap3\n  dup3\n  tag_22\n  jumpi\n  0x00\n  dup6\n  sstore\n  jump(tag_25)\ntag_22:\n  dup3\n  0x1f\n  lt\n  tag_23\n  jumpi\n  dup1\n  mload\n  not(0xff)\n  and\n  dup4\n  dup1\n  add\n  or\n  dup6\n  sstore\n  jump(tag_25)\ntag_23:\n  dup3\n  dup1\n  add\n  0x01\n  add\n  dup6\n  sstore\n  dup3\n  iszero\n  tag_25\n  jumpi\n  swap2\n  dup3\n  add\ntag_24:\n  dup3\n  dup2\n  gt\n  iszero\n  tag_25\n  jumpi\n  dup3\n  mload\n  dup3\n  sstore\n  swap2\n  0x20\n  add\n  swap2\n  swap1\n  0x01\n  add\n  swap1\n  jump(tag_24)\ntag_25:\n  pop\n  tag_17\n  swap3\n  swap2\n  pop\n  tag_27\n  jump\t// in\ntag_18:\n  dup1\n  dup3\n  gt\n  iszero\n  tag_17\n  jumpi\n  0x00\n  tag_30\n  dup3\n  dup3\n  tag_31\n  jump\t// in\ntag_30:\n  pop\n  0x01\n  add\n  jump(tag_18)\ntag_27:\ntag_32:\n  dup1\n  dup3\n  gt\n  iszero\n  tag_17\n  jumpi\n  0x00\n  dup2\n  sstore\n  0x01\n  add\n  jump(tag_32)\ntag_31:\n  pop\n  dup1\n  sload\n  tag_34\n  swap1\n  tag_20\n  jump\t// in\ntag_34:\n  0x00\n  dup3\n  sstore\n  dup1\n  0x1f\n  lt\n  tag_36\n  jumpi\n  pop\n  pop\n  jump\t// out\ntag_36:\n  0x1f\n  add\n  0x20\n  swap1\n  div\n  swap1\n  0x00\n  mstore\n  keccak256(0x00, 0x20)\n  swap1\n  dup2\n  add\n  swap1\n  tag_37\n  swap2\n  swap1\n  tag_27\n  jump\t// in\ntag_37:\n  pop\n  jump\t// out\n    /* \"#utility.yul\":14:324   */\ntag_5:\n    /* \"#utility.yul\":84:90   */\n  0x00\n    /* \"#utility.yul\":137:139   */\n  0x20\n    /* \"#utility.yul\":125:134   */\n  dup3\n    /* \"#utility.yul\":116:123   */\n  dup5\n    /* \"#utility.yul\":112:135   */\n  sub\n    /* \"#utility.yul\":108:140   */\n  slt\n    /* \"#utility.yul\":105:107   */\n  iszero\n  tag_40\n  jumpi\n    /* \"#utility.yul\":158:164   */\n  dup1\n    /* \"#utility.yul\":150:156   */\n  dup2\n    /* \"#utility.yul\":143:165   */\n  revert\n    /* \"#utility.yul\":105:107   */\ntag_40:\n    /* \"#utility.yul\":189:205   */\n  dup2\n  mload\n  sub(shl(0xa0, 0x01), 0x01)\n    /* \"#utility.yul\":234:265   */\n  dup2\n  and\n    /* \"#utility.yul\":224:266   */\n  dup2\n  eq\n    /* \"#utility.yul\":214:216   */\n  tag_41\n  jumpi\n    /* \"#utility.yul\":285:291   */\n  dup2\n    /* \"#utility.yul\":277:283   */\n  dup3\n    /* \"#utility.yul\":270:292   */\n  revert\n    /* \"#utility.yul\":214:216   */\ntag_41:\n    /* \"#utility.yul\":313:318   */\n  swap4\n    /* \"#utility.yul\":95:324   */\n  swap3\n  pop\n  pop\n  pop\n  jump\t// out\n    /* \"#utility.yul\":329:709   */\ntag_20:\n    /* \"#utility.yul\":408:409   */\n  0x01\n    /* \"#utility.yul\":404:416   */\n  dup2\n  dup2\n  shr\n  swap1\n    /* \"#utility.yul\":451:463   */\n  dup3\n  and\n  dup1\n    /* \"#utility.yul\":472:474   */\n  tag_43\n  jumpi\n    /* \"#utility.yul\":526:530   */\n  0x7f\n    /* \"#utility.yul\":518:524   */\n  dup3\n    /* \"#utility.yul\":514:531   */\n  and\n    /* \"#utility.yul\":504:531   */\n  swap2\n  pop\n    /* \"#utility.yul\":472:474   */\ntag_43:\n    /* \"#utility.yul\":579:581   */\n  0x20\n    /* \"#utility.yul\":571:577   */\n  dup3\n    /* \"#utility.yul\":568:582   */\n  lt\n    /* \"#utility.yul\":548:566   */\n  dup2\n    /* \"#utility.yul\":545:583   */\n  eq\n    /* \"#utility.yul\":542:544   */\n  iszero\n  tag_44\n  jumpi\n    /* \"#utility.yul\":625:635   */\n  0x4e487b71\n    /* \"#utility.yul\":620:623   */\n  0xe0\n    /* \"#utility.yul\":616:636   */\n  shl\n    /* \"#utility.yul\":613:614   */\n  0x00\n    /* \"#utility.yul\":606:637   */\n  mstore\n    /* \"#utility.yul\":660:664   */\n  0x22\n    /* \"#utility.yul\":657:658   */\n  0x04\n    /* \"#utility.yul\":650:665   */\n  mstore\n    /* \"#utility.yul\":688:692   */\n  0x24\n    /* \"#utility.yul\":685:686   */\n  0x00\n    /* \"#utility.yul\":678:693   */\n  revert\n    /* \"#utility.yul\":542:544   */\ntag_44:\n  pop\n    /* \"#utility.yul\":384:709   */\n  swap2\n  swap1\n  pop\n  jump\t// out\ntag_38:\n    /* \"test.sol\":198:9000  contract EHR is PluginClient, PatientInterface, DoctorInterface {... */\n  dataSize(sub_0)\n  dup1\n  dataOffset(sub_0)\n  0x00\n  codecopy\n  0x00\n  return\nstop\n\nsub_0: assembly {\n        /* \"test.sol\":198:9000  contract EHR is PluginClient, PatientInterface, DoctorInterface {... */\n      mstore(0x40, 0x80)\n      callvalue\n      dup1\n      iszero\n      tag_1\n      jumpi\n      0x00\n      dup1\n      revert\n    tag_1:\n      pop\n      jumpi(tag_2, lt(calldatasize, 0x04))\n      shr(0xe0, calldataload(0x00))\n      dup1\n      0xa269b418\n      gt\n      tag_20\n      jumpi\n      dup1\n      0xdb3e3976\n      gt\n      tag_21\n      jumpi\n      dup1\n      0xdb3e3976\n      eq\n      tag_15\n      jumpi\n      dup1\n      0xe078a1c6\n      eq\n      tag_16\n      jumpi\n      dup1\n      0xedef7049\n      eq\n      tag_17\n      jumpi\n      dup1\n      0xf6c6e3d0\n      eq\n      tag_18\n      jumpi\n      dup1\n      0xf75be4eb\n      eq\n      tag_19\n      jumpi\n      0x00\n      dup1\n      revert\n    tag_21:\n      dup1\n      0xa269b418\n      eq\n      tag_11\n      jumpi\n      dup1\n      0xc977baf3\n      eq\n      tag_12\n      jumpi\n      dup1\n      0xcbd46fa3\n      eq\n      tag_13\n      jumpi\n      dup1\n      0xd7349705\n      eq\n      tag_14\n      jumpi\n      0x00\n      dup1\n      revert\n    tag_20:\n      dup1\n      0x4fcd407a\n      gt\n      tag_22\n      jumpi\n      dup1\n      0x4fcd407a\n      eq\n      tag_7\n      jumpi\n      dup1\n      0x764b6b38\n      eq\n      tag_8\n      jumpi\n      dup1\n      0x8da5cb5b\n      eq\n      tag_9\n      jumpi\n      dup1\n      0x8f58f628\n      eq\n      tag_10\n      jumpi\n      0x00\n      dup1\n      revert\n    tag_22:\n      dup1\n      0x021bf487\n      eq\n      tag_3\n      jumpi\n      dup1\n      0x0a77f6b0\n      eq\n      tag_4\n      jumpi\n      dup1\n      0x14bb57fd\n      eq\n      tag_5\n      jumpi\n      dup1\n      0x2990bc6f\n      eq\n      tag_6\n      jumpi\n    tag_2:\n      0x00\n      dup1\n      revert\n        /* \"test.sol\":7220:7421  function recordByPatient(... */\n    tag_3:\n      tag_23\n      tag_24\n      calldatasize\n      0x04\n      tag_25\n      jump\t// in\n    tag_24:\n      tag_26\n      jump\t// in\n    tag_23:\n      stop\n        /* \"test.sol\":1191:1240  mapping(uint => doctorEnroll) public doctorAccess */\n    tag_4:\n      tag_27\n      tag_28\n      calldatasize\n      0x04\n      tag_29\n      jump\t// in\n    tag_28:\n      tag_30\n      jump\t// in\n    tag_27:\n      mload(0x40)\n      tag_31\n      swap9\n      swap8\n      swap7\n      swap6\n      swap5\n      swap4\n      swap3\n      swap2\n      swap1\n      tag_32\n      jump\t// in\n    tag_31:\n      mload(0x40)\n      dup1\n      swap2\n      sub\n      swap1\n      return\n        /* \"test.sol\":1350:1416  mapping(uint => mapping(string => uint)) public patientrecordsData */\n    tag_5:\n      tag_33\n      tag_34\n      calldatasize\n      0x04\n      tag_35\n      jump\t// in\n    tag_34:\n      0x0b\n      0x20\n      swap1\n      dup2\n      mstore\n      0x00\n      swap3\n      dup4\n      mstore\n      0x40\n      swap1\n      swap3\n      keccak256\n      dup2\n      mload\n      dup1\n      dup4\n      add\n      dup5\n      add\n      dup1\n      mload\n      swap3\n      dup2\n      mstore\n      swap1\n      dup5\n      add\n      swap3\n      swap1\n      swap4\n      add\n      swap2\n      swap1\n      swap2\n      keccak256\n      swap2\n      mstore\n      sload\n      dup2\n      jump\n    tag_33:\n      mload(0x40)\n        /* \"#utility.yul\":20303:20328   */\n      swap1\n      dup2\n      mstore\n        /* \"#utility.yul\":20291:20293   */\n      0x20\n        /* \"#utility.yul\":20276:20294   */\n      add\n        /* \"test.sol\":1350:1416  mapping(uint => mapping(string => uint)) public patientrecordsData */\n      tag_31\n        /* \"#utility.yul\":20258:20334   */\n      jump\n        /* \"test.sol\":1138:1189  mapping(uint => patientEnroll) public patientAccess */\n    tag_6:\n      tag_39\n      tag_40\n      calldatasize\n      0x04\n      tag_29\n      jump\t// in\n    tag_40:\n      tag_41\n      jump\t// in\n    tag_39:\n      mload(0x40)\n      tag_31\n      swap6\n      swap5\n      swap4\n      swap3\n      swap2\n      swap1\n      tag_43\n      jump\t// in\n        /* \"test.sol\":1484:1545  mapping(uint => mapping(uint => bool)) public accessForDoctor */\n    tag_7:\n      tag_44\n      tag_45\n      calldatasize\n      0x04\n      tag_46\n      jump\t// in\n    tag_45:\n      0x0d\n      0x20\n      swap1\n      dup2\n      mstore\n      0x00\n      swap3\n      dup4\n      mstore\n      0x40\n      dup1\n      dup5\n      keccak256\n      swap1\n      swap2\n      mstore\n      swap1\n      dup3\n      mstore\n      swap1\n      keccak256\n      sload\n      0xff\n      and\n      dup2\n      jump\n    tag_44:\n      mload(0x40)\n        /* \"#utility.yul\":11481:11495   */\n      swap1\n      iszero\n        /* \"#utility.yul\":11474:11496   */\n      iszero\n        /* \"#utility.yul\":11456:11497   */\n      dup2\n      mstore\n        /* \"#utility.yul\":11444:11446   */\n      0x20\n        /* \"#utility.yul\":11429:11447   */\n      add\n        /* \"test.sol\":1484:1545  mapping(uint => mapping(uint => bool)) public accessForDoctor */\n      tag_31\n        /* \"#utility.yul\":11411:11503   */\n      jump\n        /* \"test.sol\":7464:7779  function recordByDoctor(... */\n    tag_8:\n      tag_23\n      tag_51\n      calldatasize\n      0x04\n      tag_52\n      jump\t// in\n    tag_51:\n      tag_53\n      jump\t// in\n        /* \"test.sol\":288:308  address public owner */\n    tag_9:\n      sload(0x06)\n      tag_54\n      swap1\n      sub(shl(0xa0, 0x01), 0x01)\n      and\n      dup2\n      jump\n    tag_54:\n      mload(0x40)\n      sub(shl(0xa0, 0x01), 0x01)\n        /* \"#utility.yul\":11272:11304   */\n      swap1\n      swap2\n      and\n        /* \"#utility.yul\":11254:11305   */\n      dup2\n      mstore\n        /* \"#utility.yul\":11242:11244   */\n      0x20\n        /* \"#utility.yul\":11227:11245   */\n      add\n        /* \"test.sol\":288:308  address public owner */\n      tag_31\n        /* \"#utility.yul\":11209:11311   */\n      jump\n        /* \"test.sol\":5948:6577  function registerCareGiver(... */\n    tag_10:\n      tag_23\n      tag_59\n      calldatasize\n      0x04\n      tag_60\n      jump\t// in\n    tag_59:\n      tag_61\n      jump\t// in\n        /* \"test.sol\":7919:8782  function accessControl(... */\n    tag_11:\n      tag_23\n      tag_63\n      calldatasize\n      0x04\n      tag_64\n      jump\t// in\n    tag_63:\n      tag_65\n      jump\t// in\n        /* \"test.sol\":1293:1348  mapping(uint => patienthealth) public patienthealthData */\n    tag_12:\n      tag_66\n      tag_67\n      calldatasize\n      0x04\n      tag_29\n      jump\t// in\n    tag_67:\n      tag_68\n      jump\t// in\n    tag_66:\n      mload(0x40)\n      tag_31\n      swap5\n      swap4\n      swap3\n      swap2\n      swap1\n      tag_70\n      jump\t// in\n        /* \"test.sol\":1418:1482  mapping(uint => mapping(uint => careGiver)) public careGiverData */\n    tag_13:\n      tag_71\n      tag_72\n      calldatasize\n      0x04\n      tag_46\n      jump\t// in\n    tag_72:\n      tag_73\n      jump\t// in\n    tag_71:\n      mload(0x40)\n      tag_31\n      swap5\n      swap4\n      swap3\n      swap2\n      swap1\n      tag_75\n      jump\t// in\n        /* \"test.sol\":5493:5905  function registerPatientHealth(... */\n    tag_14:\n      tag_23\n      tag_77\n      calldatasize\n      0x04\n      tag_78\n      jump\t// in\n    tag_77:\n      tag_79\n      jump\t// in\n        /* \"test.sol\":3325:4957  function registerDoctor(... */\n    tag_15:\n      tag_23\n      tag_81\n      calldatasize\n      0x04\n      tag_82\n      jump\t// in\n    tag_81:\n      tag_83\n      jump\t// in\n        /* \"test.sol\":5005:5443  function registerPatientLoc(... */\n    tag_16:\n      tag_23\n      tag_85\n      calldatasize\n      0x04\n      tag_86\n      jump\t// in\n    tag_85:\n      tag_87\n      jump\t// in\n        /* \"test.sol\":1694:3281  function registerPatients(... */\n    tag_17:\n      tag_23\n      tag_89\n      calldatasize\n      0x04\n      tag_90\n      jump\t// in\n    tag_89:\n      tag_91\n      jump\t// in\n        /* \"test.sol\":6612:7177  function updateCareGiver(... */\n    tag_18:\n      tag_23\n      tag_93\n      calldatasize\n      0x04\n      tag_60\n      jump\t// in\n    tag_93:\n      tag_94\n      jump\t// in\n        /* \"test.sol\":1242:1291  mapping(uint => patientGeo) public patientLocData */\n    tag_19:\n      tag_95\n      tag_96\n      calldatasize\n      0x04\n      tag_29\n      jump\t// in\n    tag_96:\n      tag_97\n      jump\t// in\n    tag_95:\n      mload(0x40)\n      tag_31\n      swap6\n      swap5\n      swap4\n      swap3\n      swap2\n      swap1\n      tag_99\n      jump\t// in\n        /* \"test.sol\":7220:7421  function recordByPatient(... */\n    tag_26:\n        /* \"test.sol\":843:865  patientAccess[_patKey] */\n      0x00\n      dup4\n      dup2\n      mstore\n        /* \"test.sol\":843:856  patientAccess */\n      0x07\n        /* \"test.sol\":843:865  patientAccess[_patKey] */\n      0x20\n      mstore\n      0x40\n      swap1\n      keccak256\n        /* \"test.sol\":843:873  patientAccess[_patKey].isExist */\n      0x04\n      add\n      sload\n        /* \"test.sol\":7338:7344  patKey */\n      dup4\n      swap1\n        /* \"test.sol\":843:873  patientAccess[_patKey].isExist */\n      0xff\n      and\n        /* \"test.sol\":843:881  patientAccess[_patKey].isExist == true */\n      iszero\n      iszero\n        /* \"test.sol\":843:873  patientAccess[_patKey].isExist */\n      0x01\n        /* \"test.sol\":843:881  patientAccess[_patKey].isExist == true */\n      eq\n        /* \"test.sol\":835:929  require(patientAccess[_patKey].isExist == true, ... */\n      tag_101\n      jumpi\n      mload(0x40)\n      shl(0xe5, 0x461bcd)\n      dup2\n      mstore\n      0x04\n      add\n      tag_102\n      swap1\n      tag_103\n      jump\t// in\n    tag_102:\n      mload(0x40)\n      dup1\n      swap2\n      sub\n      swap1\n      revert\n    tag_101:\n        /* \"test.sol\":7404:7414  recordHash */\n      dup2\n        /* \"test.sol\":7359:7377  patientrecordsData */\n      0x0b\n        /* \"test.sol\":7359:7385  patientrecordsData[patKey] */\n      0x00\n        /* \"test.sol\":7378:7384  patKey */\n      dup7\n        /* \"test.sol\":7359:7385  patientrecordsData[patKey] */\n      dup2\n      mstore\n      0x20\n      add\n      swap1\n      dup2\n      mstore\n      0x20\n      add\n      0x00\n      keccak256\n        /* \"test.sol\":7386:7396  RecordType */\n      0x0e\n        /* \"test.sol\":7397:7399  rt */\n      dup6\n        /* \"test.sol\":7386:7400  RecordType[rt] */\n      dup2\n      sload\n      dup2\n      lt\n      tag_105\n      jumpi\n      mstore(0x00, shl(0xe0, 0x4e487b71))\n      mstore(0x04, 0x32)\n      revert(0x00, 0x24)\n    tag_105:\n      swap1\n      0x00\n      mstore\n      keccak256(0x00, 0x20)\n      add\n        /* \"test.sol\":7359:7401  patientrecordsData[patKey][RecordType[rt]] */\n      mload(0x40)\n      tag_107\n      swap2\n      swap1\n      tag_237\n      jump\t// in\n    tag_107:\n      swap1\n      dup2\n      mstore\n      mload(0x40)\n      swap1\n      dup2\n      swap1\n      sub\n      0x20\n      add\n      swap1\n      keccak256\n        /* \"test.sol\":7359:7414  patientrecordsData[patKey][RecordType[rt]] = recordHash */\n      sstore\n      pop\n      pop\n      pop\n      pop\n        /* \"test.sol\":7220:7421  function recordByPatient(... */\n      jump\t// out\n        /* \"test.sol\":1191:1240  mapping(uint => doctorEnroll) public doctorAccess */\n    tag_30:\n      mstore(0x20, 0x08)\n      0x00\n      swap1\n      dup2\n      mstore\n      0x40\n      swap1\n      keccak256\n      dup1\n      sload\n      dup2\n      swap1\n      tag_109\n      swap1\n      tag_110\n      jump\t// in\n    tag_109:\n      dup1\n      0x1f\n      add\n      0x20\n      dup1\n      swap2\n      div\n      mul\n      0x20\n      add\n      mload(0x40)\n      swap1\n      dup2\n      add\n      0x40\n      mstore\n      dup1\n      swap3\n      swap2\n      swap1\n      dup2\n      dup2\n      mstore\n      0x20\n      add\n      dup3\n      dup1\n      sload\n      tag_111\n      swap1\n      tag_110\n      jump\t// in\n    tag_111:\n      dup1\n      iszero\n      tag_112\n      jumpi\n      dup1\n      0x1f\n      lt\n      tag_113\n      jumpi\n      0x0100\n      dup1\n      dup4\n      sload\n      div\n      mul\n      dup4\n      mstore\n      swap2\n      0x20\n      add\n      swap2\n      jump(tag_112)\n    tag_113:\n      dup3\n      add\n      swap2\n      swap1\n      0x00\n      mstore\n      keccak256(0x00, 0x20)\n      swap1\n    tag_114:\n      dup2\n      sload\n      dup2\n      mstore\n      swap1\n      0x01\n      add\n      swap1\n      0x20\n      add\n      dup1\n      dup4\n      gt\n      tag_114\n      jumpi\n      dup3\n      swap1\n      sub\n      0x1f\n      and\n      dup3\n      add\n      swap2\n    tag_112:\n      pop\n      pop\n      pop\n      pop\n      pop\n      swap1\n      dup1\n      0x01\n      add\n      dup1\n      sload\n      tag_115\n      swap1\n      tag_110\n      jump\t// in\n    tag_115:\n      dup1\n      0x1f\n      add\n      0x20\n      dup1\n      swap2\n      div\n      mul\n      0x20\n      add\n      mload(0x40)\n      swap1\n      dup2\n      add\n      0x40\n      mstore\n      dup1\n      swap3\n      swap2\n      swap1\n      dup2\n      dup2\n      mstore\n      0x20\n      add\n      dup3\n      dup1\n      sload\n      tag_116\n      swap1\n      tag_110\n      jump\t// in\n    tag_116:\n      dup1\n      iszero\n      tag_117\n      jumpi\n      dup1\n      0x1f\n      lt\n      tag_118\n      jumpi\n      0x0100\n      dup1\n      dup4\n      sload\n      div\n      mul\n      dup4\n      mstore\n      swap2\n      0x20\n      add\n      swap2\n      jump(tag_117)\n    tag_118:\n      dup3\n      add\n      swap2\n      swap1\n      0x00\n      mstore\n      keccak256(0x00, 0x20)\n      swap1\n    tag_119:\n      dup2\n      sload\n      dup2\n      mstore\n      swap1\n      0x01\n      add\n      swap1\n      0x20\n      add\n      dup1\n      dup4\n      gt\n      tag_119\n      jumpi\n      dup3\n      swap1\n      sub\n      0x1f\n      and\n      dup3\n      add\n      swap2\n    tag_117:\n      pop\n      pop\n      pop\n      pop\n      pop\n      swap1\n      dup1\n      0x02\n      add\n      dup1\n      sload\n      tag_120\n      swap1\n      tag_110\n      jump\t// in\n    tag_120:\n      dup1\n      0x1f\n      add\n      0x20\n      dup1\n      swap2\n      div\n      mul\n      0x20\n      add\n      mload(0x40)\n      swap1\n      dup2\n      add\n      0x40\n      mstore\n      dup1\n      swap3\n      swap2\n      swap1\n      dup2\n      dup2\n      mstore\n      0x20\n      add\n      dup3\n      dup1\n      sload\n      tag_121\n      swap1\n      tag_110\n      jump\t// in\n    tag_121:\n      dup1\n      iszero\n      tag_122\n      jumpi\n      dup1\n      0x1f\n      lt\n      tag_123\n      jumpi\n      0x0100\n      dup1\n      dup4\n      sload\n      div\n      mul\n      dup4\n      mstore\n      swap2\n      0x20\n      add\n      swap2\n      jump(tag_122)\n    tag_123:\n      dup3\n      add\n      swap2\n      swap1\n      0x00\n      mstore\n      keccak256(0x00, 0x20)\n      swap1\n    tag_124:\n      dup2\n      sload\n      dup2\n      mstore\n      swap1\n      0x01\n      add\n      swap1\n      0x20\n      add\n      dup1\n      dup4\n      gt\n      tag_124\n      jumpi\n      dup3\n      swap1\n      sub\n      0x1f\n      and\n      dup3\n      add\n      swap2\n    tag_122:\n      pop\n      pop\n      pop\n      pop\n      pop\n      swap1\n      dup1\n      0x03\n      add\n      dup1\n      sload\n      tag_125\n      swap1\n      tag_110\n      jump\t// in\n    tag_125:\n      dup1\n      0x1f\n      add\n      0x20\n      dup1\n      swap2\n      div\n      mul\n      0x20\n      add\n      mload(0x40)\n      swap1\n      dup2\n      add\n      0x40\n      mstore\n      dup1\n      swap3\n      swap2\n      swap1\n      dup2\n      dup2\n      mstore\n      0x20\n      add\n      dup3\n      dup1\n      sload\n      tag_126\n      swap1\n      tag_110\n      jump\t// in\n    tag_126:\n      dup1\n      iszero\n      tag_127\n      jumpi\n      dup1\n      0x1f\n      lt\n      tag_128\n      jumpi\n      0x0100\n      dup1\n      dup4\n      sload\n      div\n      mul\n      dup4\n      mstore\n      swap2\n      0x20\n      add\n      swap2\n      jump(tag_127)\n    tag_128:\n      dup3\n      add\n      swap2\n      swap1\n      0x00\n      mstore\n      keccak256(0x00, 0x20)\n      swap1\n    tag_129:\n      dup2\n      sload\n      dup2\n      mstore\n      swap1\n      0x01\n      add\n      swap1\n      0x20\n      add\n      dup1\n      dup4\n      gt\n      tag_129\n      jumpi\n      dup3\n      swap1\n      sub\n      0x1f\n      and\n      dup3\n      add\n      swap2\n    tag_127:\n      pop\n      pop\n      pop\n      pop\n      pop\n      swap1\n      dup1\n      0x04\n      add\n      dup1\n      sload\n      tag_130\n      swap1\n      tag_110\n      jump\t// in\n    tag_130:\n      dup1\n      0x1f\n      add\n      0x20\n      dup1\n      swap2\n      div\n      mul\n      0x20\n      add\n      mload(0x40)\n      swap1\n      dup2\n      add\n      0x40\n      mstore\n      dup1\n      swap3\n      swap2\n      swap1\n      dup2\n      dup2\n      mstore\n      0x20\n      add\n      dup3\n      dup1\n      sload\n      tag_131\n      swap1\n      tag_110\n      jump\t// in\n    tag_131:\n      dup1\n      iszero\n      tag_132\n      jumpi\n      dup1\n      0x1f\n      lt\n      tag_133\n      jumpi\n      0x0100\n      dup1\n      dup4\n      sload\n      div\n      mul\n      dup4\n      mstore\n      swap2\n      0x20\n      add\n      swap2\n      jump(tag_132)\n    tag_133:\n      dup3\n      add\n      swap2\n      swap1\n      0x00\n      mstore\n      keccak256(0x00, 0x20)\n      swap1\n    tag_134:\n      dup2\n      sload\n      dup2\n      mstore\n      swap1\n      0x01\n      add\n      swap1\n      0x20\n      add\n      dup1\n      dup4\n      gt\n      tag_134\n      jumpi\n      dup3\n      swap1\n      sub\n      0x1f\n      and\n      dup3\n      add\n      swap2\n    tag_132:\n      pop\n      pop\n      pop\n      0x05\n      swap1\n      swap4\n      add\n      sload\n      swap2\n      swap3\n      pop\n      pop\n      0xff\n      dup1\n      dup3\n      and\n      swap2\n      0x0100\n      dup2\n      div\n      dup3\n      and\n      swap2\n      0x010000\n      swap1\n      swap2\n      div\n      and\n      dup9\n      jump\t// out\n        /* \"test.sol\":1138:1189  mapping(uint => patientEnroll) public patientAccess */\n    tag_41:\n      mstore(0x20, 0x07)\n      0x00\n      swap1\n      dup2\n      mstore\n      0x40\n      swap1\n      keccak256\n      dup1\n      sload\n      dup2\n      swap1\n      tag_135\n      swap1\n      tag_110\n      jump\t// in\n    tag_135:\n      dup1\n      0x1f\n      add\n      0x20\n      dup1\n      swap2\n      div\n      mul\n      0x20\n      add\n      mload(0x40)\n      swap1\n      dup2\n      add\n      0x40\n      mstore\n      dup1\n      swap3\n      swap2\n      swap1\n      dup2\n      dup2\n      mstore\n      0x20\n      add\n      dup3\n      dup1\n      sload\n      tag_136\n      swap1\n      tag_110\n      jump\t// in\n    tag_136:\n      dup1\n      iszero\n      tag_137\n      jumpi\n      dup1\n      0x1f\n      lt\n      tag_138\n      jumpi\n      0x0100\n      dup1\n      dup4\n      sload\n      div\n      mul\n      dup4\n      mstore\n      swap2\n      0x20\n      add\n      swap2\n      jump(tag_137)\n    tag_138:\n      dup3\n      add\n      swap2\n      swap1\n      0x00\n      mstore\n      keccak256(0x00, 0x20)\n      swap1\n    tag_139:\n      dup2\n      sload\n      dup2\n      mstore\n      swap1\n      0x01\n      add\n      swap1\n      0x20\n      add\n      dup1\n      dup4\n      gt\n      tag_139\n      jumpi\n      dup3\n      swap1\n      sub\n      0x1f\n      and\n      dup3\n      add\n      swap2\n    tag_137:\n      pop\n      pop\n      pop\n      pop\n      pop\n      swap1\n      dup1\n      0x01\n      add\n      dup1\n      sload\n      tag_140\n      swap1\n      tag_110\n      jump\t// in\n    tag_140:\n      dup1\n      0x1f\n      add\n      0x20\n      dup1\n      swap2\n      div\n      mul\n      0x20\n      add\n      mload(0x40)\n      swap1\n      dup2\n      add\n      0x40\n      mstore\n      dup1\n      swap3\n      swap2\n      swap1\n      dup2\n      dup2\n      mstore\n      0x20\n      add\n      dup3\n      dup1\n      sload\n      tag_141\n      swap1\n      tag_110\n      jump\t// in\n    tag_141:\n      dup1\n      iszero\n      tag_142\n      jumpi\n      dup1\n      0x1f\n      lt\n      tag_143\n      jumpi\n      0x0100\n      dup1\n      dup4\n      sload\n      div\n      mul\n      dup4\n      mstore\n      swap2\n      0x20\n      add\n      swap2\n      jump(tag_142)\n    tag_143:\n      dup3\n      add\n      swap2\n      swap1\n      0x00\n      mstore\n      keccak256(0x00, 0x20)\n      swap1\n    tag_144:\n      dup2\n      sload\n      dup2\n      mstore\n      swap1\n      0x01\n      add\n      swap1\n      0x20\n      add\n      dup1\n      dup4\n      gt\n      tag_144\n      jumpi\n      dup3\n      swap1\n      sub\n      0x1f\n      and\n      dup3\n      add\n      swap2\n    tag_142:\n      pop\n      pop\n      pop\n      pop\n      pop\n      swap1\n      dup1\n      0x02\n      add\n      dup1\n      sload\n      tag_145\n      swap1\n      tag_110\n      jump\t// in\n    tag_145:\n      dup1\n      0x1f\n      add\n      0x20\n      dup1\n      swap2\n      div\n      mul\n      0x20\n      add\n      mload(0x40)\n      swap1\n      dup2\n      add\n      0x40\n      mstore\n      dup1\n      swap3\n      swap2\n      swap1\n      dup2\n      dup2\n      mstore\n      0x20\n      add\n      dup3\n      dup1\n      sload\n      tag_146\n      swap1\n      tag_110\n      jump\t// in\n    tag_146:\n      dup1\n      iszero\n      tag_147\n      jumpi\n      dup1\n      0x1f\n      lt\n      tag_148\n      jumpi\n      0x0100\n      dup1\n      dup4\n      sload\n      div\n      mul\n      dup4\n      mstore\n      swap2\n      0x20\n      add\n      swap2\n      jump(tag_147)\n    tag_148:\n      dup3\n      add\n      swap2\n      swap1\n      0x00\n      mstore\n      keccak256(0x00, 0x20)\n      swap1\n    tag_149:\n      dup2\n      sload\n      dup2\n      mstore\n      swap1\n      0x01\n      add\n      swap1\n      0x20\n      add\n      dup1\n      dup4\n      gt\n      tag_149\n      jumpi\n      dup3\n      swap1\n      sub\n      0x1f\n      and\n      dup3\n      add\n      swap2\n    tag_147:\n      pop\n      pop\n      pop\n      pop\n      pop\n      swap1\n      dup1\n      0x03\n      add\n      dup1\n      sload\n      tag_150\n      swap1\n      tag_110\n      jump\t// in\n    tag_150:\n      dup1\n      0x1f\n      add\n      0x20\n      dup1\n      swap2\n      div\n      mul\n      0x20\n      add\n      mload(0x40)\n      swap1\n      dup2\n      add\n      0x40\n      mstore\n      dup1\n      swap3\n      swap2\n      swap1\n      dup2\n      dup2\n      mstore\n      0x20\n      add\n      dup3\n      dup1\n      sload\n      tag_151\n      swap1\n      tag_110\n      jump\t// in\n    tag_151:\n      dup1\n      iszero\n      tag_152\n      jumpi\n      dup1\n      0x1f\n      lt\n      tag_153\n      jumpi\n      0x0100\n      dup1\n      dup4\n      sload\n      div\n      mul\n      dup4\n      mstore\n      swap2\n      0x20\n      add\n      swap2\n      jump(tag_152)\n    tag_153:\n      dup3\n      add\n      swap2\n      swap1\n      0x00\n      mstore\n      keccak256(0x00, 0x20)\n      swap1\n    tag_154:\n      dup2\n      sload\n      dup2\n      mstore\n      swap1\n      0x01\n      add\n      swap1\n      0x20\n      add\n      dup1\n      dup4\n      gt\n      tag_154\n      jumpi\n      dup3\n      swap1\n      sub\n      0x1f\n      and\n      dup3\n      add\n      swap2\n    tag_152:\n      pop\n      pop\n      pop\n      0x04\n      swap1\n      swap4\n      add\n      sload\n      swap2\n      swap3\n      pop\n      pop\n      0xff\n      and\n      dup6\n      jump\t// out\n        /* \"test.sol\":7464:7779  function recordByDoctor(... */\n    tag_53:\n        /* \"test.sol\":843:865  patientAccess[_patKey] */\n      0x00\n      dup5\n      dup2\n      mstore\n        /* \"test.sol\":843:856  patientAccess */\n      0x07\n        /* \"test.sol\":843:865  patientAccess[_patKey] */\n      0x20\n      mstore\n      0x40\n      swap1\n      keccak256\n        /* \"test.sol\":843:873  patientAccess[_patKey].isExist */\n      0x04\n      add\n      sload\n        /* \"test.sol\":7602:7608  patKey */\n      dup5\n      swap1\n        /* \"test.sol\":843:873  patientAccess[_patKey].isExist */\n      0xff\n      and\n        /* \"test.sol\":843:881  patientAccess[_patKey].isExist == true */\n      iszero\n      iszero\n        /* \"test.sol\":843:873  patientAccess[_patKey].isExist */\n      0x01\n        /* \"test.sol\":843:881  patientAccess[_patKey].isExist == true */\n      eq\n        /* \"test.sol\":835:929  require(patientAccess[_patKey].isExist == true, ... */\n      tag_156\n      jumpi\n      mload(0x40)\n      shl(0xe5, 0x461bcd)\n      dup2\n      mstore\n      0x04\n      add\n      tag_102\n      swap1\n      tag_103\n      jump\t// in\n    tag_156:\n        /* \"test.sol\":7631:7654  accessForDoctor[patKey] */\n      0x00\n      dup6\n      dup2\n      mstore\n        /* \"test.sol\":7631:7646  accessForDoctor */\n      0x0d\n        /* \"test.sol\":7631:7654  accessForDoctor[patKey] */\n      0x20\n      swap1\n      dup2\n      mstore\n      0x40\n      dup1\n      dup4\n      keccak256\n        /* \"test.sol\":7631:7662  accessForDoctor[patKey][docKey] */\n      dup8\n      dup5\n      mstore\n      swap1\n      swap2\n      mstore\n      swap1\n      keccak256\n      sload\n      0xff\n      and\n        /* \"test.sol\":7631:7670  accessForDoctor[patKey][docKey] == true */\n      iszero\n      iszero\n        /* \"test.sol\":7631:7662  accessForDoctor[patKey][docKey] */\n      0x01\n        /* \"test.sol\":7631:7670  accessForDoctor[patKey][docKey] == true */\n      eq\n        /* \"test.sol\":7623:7703  require(accessForDoctor[patKey][docKey] == true,\"No access provided by patient\") */\n      tag_159\n      jumpi\n      mload(0x40)\n      shl(0xe5, 0x461bcd)\n      dup2\n      mstore\n        /* \"#utility.yul\":18833:18835   */\n      0x20\n        /* \"test.sol\":7623:7703  require(accessForDoctor[patKey][docKey] == true,\"No access provided by patient\") */\n      0x04\n      dup3\n      add\n        /* \"#utility.yul\":18815:18836   */\n      mstore\n        /* \"#utility.yul\":18872:18874   */\n      0x1d\n        /* \"#utility.yul\":18852:18870   */\n      0x24\n      dup3\n      add\n        /* \"#utility.yul\":18845:18875   */\n      mstore\n        /* \"#utility.yul\":18911:18942   */\n      0x4e6f206163636573732070726f76696465642062792070617469656e74000000\n        /* \"#utility.yul\":18891:18909   */\n      0x44\n      dup3\n      add\n        /* \"#utility.yul\":18884:18943   */\n      mstore\n        /* \"#utility.yul\":18960:18978   */\n      0x64\n      add\n        /* \"test.sol\":7623:7703  require(accessForDoctor[patKey][docKey] == true,\"No access provided by patient\") */\n      tag_102\n        /* \"#utility.yul\":18805:18984   */\n      jump\n        /* \"test.sol\":7623:7703  require(accessForDoctor[patKey][docKey] == true,\"No access provided by patient\") */\n    tag_159:\n        /* \"test.sol\":7762:7772  recordHash */\n      dup2\n        /* \"test.sol\":7717:7735  patientrecordsData */\n      0x0b\n        /* \"test.sol\":7717:7743  patientrecordsData[patKey] */\n      0x00\n        /* \"test.sol\":7736:7742  patKey */\n      dup8\n        /* \"test.sol\":7717:7743  patientrecordsData[patKey] */\n      dup2\n      mstore\n      0x20\n      add\n      swap1\n      dup2\n      mstore\n      0x20\n      add\n      0x00\n      keccak256\n        /* \"test.sol\":7744:7754  RecordType */\n      0x0e\n        /* \"test.sol\":7755:7757  rt */\n      dup6\n        /* \"test.sol\":7744:7758  RecordType[rt] */\n      dup2\n      sload\n      dup2\n      lt\n      tag_162\n      jumpi\n      mstore(0x00, shl(0xe0, 0x4e487b71))\n      mstore(0x04, 0x32)\n      revert(0x00, 0x24)\n    tag_162:\n      swap1\n      0x00\n      mstore\n      keccak256(0x00, 0x20)\n      add\n        /* \"test.sol\":7717:7759  patientrecordsData[patKey][RecordType[rt]] */\n      mload(0x40)\n      tag_164\n      swap2\n      swap1\n      tag_237\n      jump\t// in\n    tag_164:\n      swap1\n      dup2\n      mstore\n      mload(0x40)\n      swap1\n      dup2\n      swap1\n      sub\n      0x20\n      add\n      swap1\n      keccak256\n        /* \"test.sol\":7717:7772  patientrecordsData[patKey][RecordType[rt]] = recordHash */\n      sstore\n      pop\n      pop\n      pop\n      pop\n      pop\n        /* \"test.sol\":7464:7779  function recordByDoctor(... */\n      jump\t// out\n        /* \"test.sol\":5948:6577  function registerCareGiver(... */\n    tag_61:\n        /* \"test.sol\":843:865  patientAccess[_patKey] */\n      0x00\n      dup6\n      dup2\n      mstore\n        /* \"test.sol\":843:856  patientAccess */\n      0x07\n        /* \"test.sol\":843:865  patientAccess[_patKey] */\n      0x20\n      mstore\n      0x40\n      swap1\n      keccak256\n        /* \"test.sol\":843:873  patientAccess[_patKey].isExist */\n      0x04\n      add\n      sload\n        /* \"test.sol\":6193:6199  patKey */\n      dup6\n      swap1\n        /* \"test.sol\":843:873  patientAccess[_patKey].isExist */\n      0xff\n      and\n        /* \"test.sol\":843:881  patientAccess[_patKey].isExist == true */\n      iszero\n      iszero\n        /* \"test.sol\":843:873  patientAccess[_patKey].isExist */\n      0x01\n        /* \"test.sol\":843:881  patientAccess[_patKey].isExist == true */\n      eq\n        /* \"test.sol\":835:929  require(patientAccess[_patKey].isExist == true, ... */\n      tag_166\n      jumpi\n      mload(0x40)\n      shl(0xe5, 0x461bcd)\n      dup2\n      mstore\n      0x04\n      add\n      tag_102\n      swap1\n      tag_103\n      jump\t// in\n    tag_166:\n        /* \"test.sol\":6257:6278  careGiverData[patKey] */\n      0x00\n      dup7\n      dup2\n      mstore\n        /* \"test.sol\":6257:6270  careGiverData */\n      0x0c\n        /* \"test.sol\":6257:6278  careGiverData[patKey] */\n      0x20\n      swap1\n      dup2\n      mstore\n      0x40\n      dup1\n      dup4\n      keccak256\n        /* \"test.sol\":6257:6288  careGiverData[patKey][position] */\n      dup9\n      dup5\n      mstore\n      swap1\n      swap2\n      mstore\n      swap1\n      keccak256\n        /* \"test.sol\":6257:6296  careGiverData[patKey][position].isExist */\n      0x03\n      add\n      sload\n      0xff\n      and\n        /* \"test.sol\":6257:6305  careGiverData[patKey][position].isExist == false */\n      iszero\n        /* \"test.sol\":6249:6340  require(careGiverData[patKey][position].isExist == false, \"EHR-RCG-01: Already registered\") */\n      tag_169\n      jumpi\n      mload(0x40)\n      shl(0xe5, 0x461bcd)\n      dup2\n      mstore\n        /* \"#utility.yul\":19191:19193   */\n      0x20\n        /* \"test.sol\":6249:6340  require(careGiverData[patKey][position].isExist == false, \"EHR-RCG-01: Already registered\") */\n      0x04\n      dup3\n      add\n        /* \"#utility.yul\":19173:19194   */\n      mstore\n        /* \"#utility.yul\":19230:19232   */\n      0x1e\n        /* \"#utility.yul\":19210:19228   */\n      0x24\n      dup3\n      add\n        /* \"#utility.yul\":19203:19233   */\n      mstore\n        /* \"#utility.yul\":19269:19301   */\n      0x4548522d5243472d30313a20416c726561647920726567697374657265640000\n        /* \"#utility.yul\":19249:19267   */\n      0x44\n      dup3\n      add\n        /* \"#utility.yul\":19242:19302   */\n      mstore\n        /* \"#utility.yul\":19319:19337   */\n      0x64\n      add\n        /* \"test.sol\":6249:6340  require(careGiverData[patKey][position].isExist == false, \"EHR-RCG-01: Already registered\") */\n      tag_102\n        /* \"#utility.yul\":19163:19343   */\n      jump\n        /* \"test.sol\":6249:6340  require(careGiverData[patKey][position].isExist == false, \"EHR-RCG-01: Already registered\") */\n    tag_169:\n        /* \"test.sol\":6388:6436  careGiver(careName,careMobile,careRelation,true) */\n      0x40\n      dup1\n      mload\n      0x80\n      dup2\n      add\n      dup3\n      mstore\n      dup6\n      dup2\n      mstore\n      0x20\n      dup1\n      dup3\n      add\n      dup7\n      swap1\n      mstore\n      dup2\n      dup4\n      add\n      dup6\n      swap1\n      mstore\n        /* \"test.sol\":6431:6435  true */\n      0x01\n        /* \"test.sol\":6388:6436  careGiver(careName,careMobile,careRelation,true) */\n      0x60\n      dup4\n      add\n      mstore\n      0x00\n        /* \"test.sol\":6354:6375  careGiverData[patKey] */\n      dup10\n      dup2\n      mstore\n        /* \"test.sol\":6354:6367  careGiverData */\n      0x0c\n        /* \"test.sol\":6354:6375  careGiverData[patKey] */\n      dup3\n      mstore\n      dup4\n      dup2\n      keccak256\n        /* \"test.sol\":6354:6385  careGiverData[patKey][position] */\n      dup10\n      dup3\n      mstore\n      dup3\n      mstore\n      swap3\n      swap1\n      swap3\n      keccak256\n        /* \"test.sol\":6354:6436  careGiverData[patKey][position] = careGiver(careName,careMobile,careRelation,true) */\n      dup2\n      mload\n      dup1\n      mload\n        /* \"test.sol\":6388:6436  careGiver(careName,careMobile,careRelation,true) */\n      swap3\n      swap4\n        /* \"test.sol\":6354:6385  careGiverData[patKey][position] */\n      swap2\n      swap3\n        /* \"test.sol\":6354:6436  careGiverData[patKey][position] = careGiver(careName,careMobile,careRelation,true) */\n      tag_172\n      swap3\n        /* \"test.sol\":6354:6385  careGiverData[patKey][position] */\n      dup5\n      swap3\n        /* \"test.sol\":6354:6436  careGiverData[patKey][position] = careGiver(careName,careMobile,careRelation,true) */\n      add\n      swap1\n      tag_173\n      jump\t// in\n    tag_172:\n      pop\n      0x20\n      dup3\n      dup2\n      add\n      mload\n      dup1\n      mload\n      tag_174\n      swap3\n      0x01\n      dup6\n      add\n      swap3\n      add\n      swap1\n      tag_173\n      jump\t// in\n    tag_174:\n      pop\n      0x40\n      dup3\n      add\n      mload\n      dup1\n      mload\n      tag_175\n      swap2\n      0x02\n      dup5\n      add\n      swap2\n      0x20\n      swap1\n      swap2\n      add\n      swap1\n      tag_173\n      jump\t// in\n    tag_175:\n      pop\n      0x60\n      swap2\n      dup3\n      add\n      mload\n      0x03\n      swap1\n      swap2\n      add\n      dup1\n      sload\n      not(0xff)\n      and\n      swap2\n      iszero\n      iszero\n      swap2\n      swap1\n      swap2\n      or\n      swap1\n      sstore\n        /* \"test.sol\":6464:6570  patregistration(... */\n      0x40\n      dup1\n      mload\n        /* \"#utility.yul\":21448:21473   */\n      dup9\n      dup2\n      mstore\n        /* \"#utility.yul\":21504:21506   */\n      0x20\n        /* \"#utility.yul\":21489:21507   */\n      dup2\n      add\n        /* \"#utility.yul\":21482:21512   */\n      dup4\n      swap1\n      mstore\n        /* \"#utility.yul\":21548:21550   */\n      0x19\n        /* \"#utility.yul\":21528:21546   */\n      swap3\n      dup2\n      add\n        /* \"#utility.yul\":21521:21551   */\n      swap3\n      swap1\n      swap3\n      mstore\n        /* \"#utility.yul\":21588:21615   */\n      0x4361726567697665722044617461207265676973746572656400000000000000\n        /* \"#utility.yul\":21582:21585   */\n      0x80\n        /* \"#utility.yul\":21567:21586   */\n      dup4\n      add\n        /* \"#utility.yul\":21560:21616   */\n      mstore\n        /* \"test.sol\":6554:6569  block.timestamp */\n      timestamp\n        /* \"#utility.yul\":21668:21686   */\n      swap1\n      dup3\n      add\n        /* \"#utility.yul\":21661:21695   */\n      mstore\n      0x00\n      dup1\n      mload\n      0x20\n      data_f1783972c13bbde284b8765b8e27686842dfd940022613858bd0f693b0907129\n      dup4\n      codecopy\n      dup2\n      mload\n      swap2\n      mstore\n        /* \"test.sol\":6464:6570  patregistration(... */\n      swap1\n        /* \"#utility.yul\":21648:21651   */\n      0xa0\n        /* \"#utility.yul\":21633:21652   */\n      add\n        /* \"test.sol\":6464:6570  patregistration(... */\n    tag_176:\n      mload(0x40)\n      dup1\n      swap2\n      sub\n      swap1\n      log1\n        /* \"test.sol\":5948:6577  function registerCareGiver(... */\n      pop\n      pop\n      pop\n      pop\n      pop\n      pop\n      jump\t// out\n        /* \"test.sol\":7919:8782  function accessControl(... */\n    tag_65:\n        /* \"test.sol\":1017:1038  doctorAccess[_docKey] */\n      0x00\n      dup3\n      dup2\n      mstore\n        /* \"test.sol\":1017:1029  doctorAccess */\n      0x08\n        /* \"test.sol\":1017:1038  doctorAccess[_docKey] */\n      0x20\n      mstore\n      0x40\n      swap1\n      keccak256\n        /* \"test.sol\":1017:1046  doctorAccess[_docKey].isExist */\n      0x05\n      add\n      sload\n        /* \"test.sol\":1017:1038  doctorAccess[_docKey] */\n      dup3\n      swap1\n        /* \"test.sol\":1017:1046  doctorAccess[_docKey].isExist */\n      0x010000\n      swap1\n      div\n      0xff\n      and\n        /* \"test.sol\":1017:1054  doctorAccess[_docKey].isExist == true */\n      iszero\n      iszero\n        /* \"test.sol\":1050:1054  true */\n      0x01\n        /* \"test.sol\":1017:1054  doctorAccess[_docKey].isExist == true */\n      eq\n        /* \"test.sol\":1009:1101  require(doctorAccess[_docKey].isExist == true, ... */\n      tag_179\n      jumpi\n      mload(0x40)\n      shl(0xe5, 0x461bcd)\n      dup2\n      mstore\n        /* \"#utility.yul\":16968:16970   */\n      0x20\n        /* \"test.sol\":1009:1101  require(doctorAccess[_docKey].isExist == true, ... */\n      0x04\n      dup3\n      add\n        /* \"#utility.yul\":16950:16971   */\n      mstore\n        /* \"#utility.yul\":17007:17009   */\n      0x15\n        /* \"#utility.yul\":16987:17005   */\n      0x24\n      dup3\n      add\n        /* \"#utility.yul\":16980:17010   */\n      mstore\n      shl(0x5a, 0x111bd8dd1bdc88139bdd081c9959da5cdd195c9959)\n        /* \"#utility.yul\":17026:17044   */\n      0x44\n      dup3\n      add\n        /* \"#utility.yul\":17019:17070   */\n      mstore\n        /* \"#utility.yul\":17087:17105   */\n      0x64\n      add\n        /* \"test.sol\":1009:1101  require(doctorAccess[_docKey].isExist == true, ... */\n      tag_102\n        /* \"#utility.yul\":16940:17111   */\n      jump\n        /* \"test.sol\":1009:1101  require(doctorAccess[_docKey].isExist == true, ... */\n    tag_179:\n        /* \"test.sol\":8052:8079  string memory accessComment */\n      0x60\n        /* \"test.sol\":8098:8110  access.GRANT */\n      0x00\n        /* \"test.sol\":8092:8094  ac */\n      dup4\n        /* \"test.sol\":8092:8110  ac == access.GRANT */\n      0x01\n      dup2\n      gt\n      iszero\n      tag_184\n      jumpi\n      mstore(0x00, shl(0xe0, 0x4e487b71))\n      mstore(0x04, 0x21)\n      revert(0x00, 0x24)\n    tag_184:\n      eq\n        /* \"test.sol\":8089:8361  if(ac == access.GRANT){... */\n      iszero\n      tag_185\n      jumpi\n        /* \"test.sol\":8133:8157  accessForDoctor[_patKey] */\n      0x00\n      dup6\n      dup2\n      mstore\n        /* \"test.sol\":8133:8148  accessForDoctor */\n      0x0d\n        /* \"test.sol\":8133:8157  accessForDoctor[_patKey] */\n      0x20\n      swap1\n      dup2\n      mstore\n      0x40\n      dup1\n      dup4\n      keccak256\n        /* \"test.sol\":8133:8166  accessForDoctor[_patKey][_docKey] */\n      dup8\n      dup5\n      mstore\n      swap1\n      swap2\n      mstore\n      swap1\n      keccak256\n      sload\n      0xff\n      and\n        /* \"test.sol\":8133:8175  accessForDoctor[_patKey][_docKey] == false */\n      iszero\n        /* \"test.sol\":8125:8236  require(accessForDoctor[_patKey][_docKey] == false,... */\n      tag_186\n      jumpi\n      mload(0x40)\n      shl(0xe5, 0x461bcd)\n      dup2\n      mstore\n        /* \"#utility.yul\":16563:16565   */\n      0x20\n        /* \"test.sol\":8125:8236  require(accessForDoctor[_patKey][_docKey] == false,... */\n      0x04\n      dup3\n      add\n        /* \"#utility.yul\":16545:16566   */\n      mstore\n        /* \"#utility.yul\":16602:16604   */\n      0x24\n        /* \"#utility.yul\":16582:16600   */\n      dup1\n      dup3\n      add\n        /* \"#utility.yul\":16575:16605   */\n      mstore\n        /* \"#utility.yul\":16641:16675   */\n      0x4548522d41432d30313a2041636365737320686164206265656e2070726f7669\n        /* \"#utility.yul\":16621:16639   */\n      0x44\n      dup3\n      add\n        /* \"#utility.yul\":16614:16676   */\n      mstore\n      shl(0xe0, 0x64656421)\n        /* \"#utility.yul\":16692:16710   */\n      0x64\n      dup3\n      add\n        /* \"#utility.yul\":16685:16719   */\n      mstore\n        /* \"#utility.yul\":16736:16755   */\n      0x84\n      add\n        /* \"test.sol\":8125:8236  require(accessForDoctor[_patKey][_docKey] == false,... */\n      tag_102\n        /* \"#utility.yul\":16535:16761   */\n      jump\n        /* \"test.sol\":8125:8236  require(accessForDoctor[_patKey][_docKey] == false,... */\n    tag_186:\n      pop\n        /* \"test.sol\":8250:8274  accessForDoctor[_patKey] */\n      0x00\n      dup5\n      dup2\n      mstore\n        /* \"test.sol\":8250:8265  accessForDoctor */\n      0x0d\n        /* \"test.sol\":8250:8274  accessForDoctor[_patKey] */\n      0x20\n      swap1\n      dup2\n      mstore\n      0x40\n      dup1\n      dup4\n      keccak256\n        /* \"test.sol\":8250:8283  accessForDoctor[_patKey][_docKey] */\n      dup7\n      dup5\n      mstore\n      dup3\n      mstore\n      swap2\n      dup3\n      swap1\n      keccak256\n        /* \"test.sol\":8250:8290  accessForDoctor[_patKey][_docKey] = true */\n      dup1\n      sload\n      not(0xff)\n      and\n        /* \"test.sol\":8286:8290  true */\n      0x01\n        /* \"test.sol\":8250:8290  accessForDoctor[_patKey][_docKey] = true */\n      or\n      swap1\n      sstore\n        /* \"test.sol\":8304:8350  accessComment = \"Access is provided to doctor\" */\n      dup2\n      mload\n      dup1\n      dup4\n      add\n      swap1\n      swap3\n      mstore\n      0x1c\n      dup3\n      mstore\n      0x4163636573732069732070726f766964656420746f20646f63746f7200000000\n      swap1\n      dup3\n      add\n      mstore\n        /* \"test.sol\":8089:8361  if(ac == access.GRANT){... */\n    tag_185:\n        /* \"test.sol\":8379:8392  access.REVOKE */\n      0x01\n        /* \"test.sol\":8373:8375  ac */\n      dup4\n        /* \"test.sol\":8373:8392  ac == access.REVOKE */\n      0x01\n      dup2\n      gt\n      iszero\n      tag_190\n      jumpi\n      mstore(0x00, shl(0xe0, 0x4e487b71))\n      mstore(0x04, 0x21)\n      revert(0x00, 0x24)\n    tag_190:\n      eq\n        /* \"test.sol\":8370:8641  if(ac == access.REVOKE){... */\n      iszero\n      tag_191\n      jumpi\n        /* \"test.sol\":8415:8439  accessForDoctor[_patKey] */\n      0x00\n      dup6\n      dup2\n      mstore\n        /* \"test.sol\":8415:8430  accessForDoctor */\n      0x0d\n        /* \"test.sol\":8415:8439  accessForDoctor[_patKey] */\n      0x20\n      swap1\n      dup2\n      mstore\n      0x40\n      dup1\n      dup4\n      keccak256\n        /* \"test.sol\":8415:8448  accessForDoctor[_patKey][_docKey] */\n      dup8\n      dup5\n      mstore\n      swap1\n      swap2\n      mstore\n      swap1\n      keccak256\n      sload\n      0xff\n      and\n        /* \"test.sol\":8415:8456  accessForDoctor[_patKey][_docKey] == true */\n      iszero\n      iszero\n        /* \"test.sol\":8415:8448  accessForDoctor[_patKey][_docKey] */\n      0x01\n        /* \"test.sol\":8415:8456  accessForDoctor[_patKey][_docKey] == true */\n      eq\n        /* \"test.sol\":8407:8516  require(accessForDoctor[_patKey][_docKey] == true,... */\n      tag_192\n      jumpi\n      mload(0x40)\n      shl(0xe5, 0x461bcd)\n      dup2\n      mstore\n        /* \"#utility.yul\":17673:17675   */\n      0x20\n        /* \"test.sol\":8407:8516  require(accessForDoctor[_patKey][_docKey] == true,... */\n      0x04\n      dup3\n      add\n        /* \"#utility.yul\":17655:17676   */\n      mstore\n        /* \"#utility.yul\":17712:17714   */\n      0x23\n        /* \"#utility.yul\":17692:17710   */\n      0x24\n      dup3\n      add\n        /* \"#utility.yul\":17685:17715   */\n      mstore\n        /* \"#utility.yul\":17751:17785   */\n      0x4548522d41432d30323a2041636365737320776173206e6f742070726f766964\n        /* \"#utility.yul\":17731:17749   */\n      0x44\n      dup3\n      add\n        /* \"#utility.yul\":17724:17786   */\n      mstore\n      shl(0xe8, 0x656421)\n        /* \"#utility.yul\":17802:17820   */\n      0x64\n      dup3\n      add\n        /* \"#utility.yul\":17795:17828   */\n      mstore\n        /* \"#utility.yul\":17845:17864   */\n      0x84\n      add\n        /* \"test.sol\":8407:8516  require(accessForDoctor[_patKey][_docKey] == true,... */\n      tag_102\n        /* \"#utility.yul\":17645:17870   */\n      jump\n        /* \"test.sol\":8407:8516  require(accessForDoctor[_patKey][_docKey] == true,... */\n    tag_192:\n      pop\n        /* \"test.sol\":8566:8571  false */\n      0x00\n        /* \"test.sol\":8530:8554  accessForDoctor[_patKey] */\n      dup5\n      dup2\n      mstore\n        /* \"test.sol\":8530:8545  accessForDoctor */\n      0x0d\n        /* \"test.sol\":8530:8554  accessForDoctor[_patKey] */\n      0x20\n      swap1\n      dup2\n      mstore\n      0x40\n      dup1\n      dup4\n      keccak256\n        /* \"test.sol\":8530:8563  accessForDoctor[_patKey][_docKey] */\n      dup7\n      dup5\n      mstore\n      dup3\n      mstore\n      swap2\n      dup3\n      swap1\n      keccak256\n        /* \"test.sol\":8530:8571  accessForDoctor[_patKey][_docKey] = false */\n      dup1\n      sload\n      not(0xff)\n      and\n      swap1\n      sstore\n        /* \"test.sol\":8585:8630  accessComment = \"Access is revoked to doctor\" */\n      dup2\n      mload\n      dup1\n      dup4\n      add\n      swap1\n      swap3\n      mstore\n      0x1b\n      dup3\n      mstore\n      0x416363657373206973207265766f6b656420746f20646f63746f720000000000\n      swap1\n      dup3\n      add\n      mstore\n        /* \"test.sol\":8370:8641  if(ac == access.REVOKE){... */\n    tag_191:\n        /* \"test.sol\":8655:8775  RecordEvents(... */\n      0xf4702a3b8b6c43f2fa41588e64688a0c0bc61f411971bd5ec9c64b828d4bccb0\n        /* \"test.sol\":8681:8694  accessComment */\n      dup2\n        /* \"test.sol\":8708:8715  _patKey */\n      dup7\n        /* \"test.sol\":8729:8736  _docKey */\n      dup7\n        /* \"test.sol\":8750:8765  block.timestamp */\n      timestamp\n        /* \"test.sol\":8655:8775  RecordEvents(... */\n      mload(0x40)\n      tag_195\n      swap5\n      swap4\n      swap3\n      swap2\n      swap1\n      tag_196\n      jump\t// in\n    tag_195:\n      mload(0x40)\n      dup1\n      swap2\n      sub\n      swap1\n      log1\n        /* \"test.sol\":1115:1116  _ */\n      pop\n        /* \"test.sol\":7919:8782  function accessControl(... */\n      pop\n      pop\n      pop\n      pop\n      jump\t// out\n        /* \"test.sol\":1293:1348  mapping(uint => patienthealth) public patienthealthData */\n    tag_68:\n      mstore(0x20, 0x0a)\n      0x00\n      swap1\n      dup2\n      mstore\n      0x40\n      swap1\n      keccak256\n      dup1\n      sload\n      dup2\n      swap1\n      tag_197\n      swap1\n      tag_110\n      jump\t// in\n    tag_197:\n      dup1\n      0x1f\n      add\n      0x20\n      dup1\n      swap2\n      div\n      mul\n      0x20\n      add\n      mload(0x40)\n      swap1\n      dup2\n      add\n      0x40\n      mstore\n      dup1\n      swap3\n      swap2\n      swap1\n      dup2\n      dup2\n      mstore\n      0x20\n      add\n      dup3\n      dup1\n      sload\n      tag_198\n      swap1\n      tag_110\n      jump\t// in\n    tag_198:\n      dup1\n      iszero\n      tag_199\n      jumpi\n      dup1\n      0x1f\n      lt\n      tag_200\n      jumpi\n      0x0100\n      dup1\n      dup4\n      sload\n      div\n      mul\n      dup4\n      mstore\n      swap2\n      0x20\n      add\n      swap2\n      jump(tag_199)\n    tag_200:\n      dup3\n      add\n      swap2\n      swap1\n      0x00\n      mstore\n      keccak256(0x00, 0x20)\n      swap1\n    tag_201:\n      dup2\n      sload\n      dup2\n      mstore\n      swap1\n      0x01\n      add\n      swap1\n      0x20\n      add\n      dup1\n      dup4\n      gt\n      tag_201\n      jumpi\n      dup3\n      swap1\n      sub\n      0x1f\n      and\n      dup3\n      add\n      swap2\n    tag_199:\n      pop\n      pop\n      pop\n      pop\n      pop\n      swap1\n      dup1\n      0x01\n      add\n      dup1\n      sload\n      tag_202\n      swap1\n      tag_110\n      jump\t// in\n    tag_202:\n      dup1\n      0x1f\n      add\n      0x20\n      dup1\n      swap2\n      div\n      mul\n      0x20\n      add\n      mload(0x40)\n      swap1\n      dup2\n      add\n      0x40\n      mstore\n      dup1\n      swap3\n      swap2\n      swap1\n      dup2\n      dup2\n      mstore\n      0x20\n      add\n      dup3\n      dup1\n      sload\n      tag_203\n      swap1\n      tag_110\n      jump\t// in\n    tag_203:\n      dup1\n      iszero\n      tag_204\n      jumpi\n      dup1\n      0x1f\n      lt\n      tag_205\n      jumpi\n      0x0100\n      dup1\n      dup4\n      sload\n      div\n      mul\n      dup4\n      mstore\n      swap2\n      0x20\n      add\n      swap2\n      jump(tag_204)\n    tag_205:\n      dup3\n      add\n      swap2\n      swap1\n      0x00\n      mstore\n      keccak256(0x00, 0x20)\n      swap1\n    tag_206:\n      dup2\n      sload\n      dup2\n      mstore\n      swap1\n      0x01\n      add\n      swap1\n      0x20\n      add\n      dup1\n      dup4\n      gt\n      tag_206\n      jumpi\n      dup3\n      swap1\n      sub\n      0x1f\n      and\n      dup3\n      add\n      swap2\n    tag_204:\n      pop\n      pop\n      pop\n      pop\n      pop\n      swap1\n      dup1\n      0x02\n      add\n      sload\n      swap1\n      dup1\n      0x03\n      add\n      sload\n      swap1\n      pop\n      dup5\n      jump\t// out\n        /* \"test.sol\":1418:1482  mapping(uint => mapping(uint => careGiver)) public careGiverData */\n    tag_73:\n      0x0c\n      0x20\n      swap1\n      dup2\n      mstore\n      0x00\n      swap3\n      dup4\n      mstore\n      0x40\n      dup1\n      dup5\n      keccak256\n      swap1\n      swap2\n      mstore\n      swap1\n      dup3\n      mstore\n      swap1\n      keccak256\n      dup1\n      sload\n      dup2\n      swap1\n      tag_207\n      swap1\n      tag_110\n      jump\t// in\n    tag_207:\n      dup1\n      0x1f\n      add\n      0x20\n      dup1\n      swap2\n      div\n      mul\n      0x20\n      add\n      mload(0x40)\n      swap1\n      dup2\n      add\n      0x40\n      mstore\n      dup1\n      swap3\n      swap2\n      swap1\n      dup2\n      dup2\n      mstore\n      0x20\n      add\n      dup3\n      dup1\n      sload\n      tag_208\n      swap1\n      tag_110\n      jump\t// in\n    tag_208:\n      dup1\n      iszero\n      tag_209\n      jumpi\n      dup1\n      0x1f\n      lt\n      tag_210\n      jumpi\n      0x0100\n      dup1\n      dup4\n      sload\n      div\n      mul\n      dup4\n      mstore\n      swap2\n      0x20\n      add\n      swap2\n      jump(tag_209)\n    tag_210:\n      dup3\n      add\n      swap2\n      swap1\n      0x00\n      mstore\n      keccak256(0x00, 0x20)\n      swap1\n    tag_211:\n      dup2\n      sload\n      dup2\n      mstore\n      swap1\n      0x01\n      add\n      swap1\n      0x20\n      add\n      dup1\n      dup4\n      gt\n      tag_211\n      jumpi\n      dup3\n      swap1\n      sub\n      0x1f\n      and\n      dup3\n      add\n      swap2\n    tag_209:\n      pop\n      pop\n      pop\n      pop\n      pop\n      swap1\n      dup1\n      0x01\n      add\n      dup1\n      sload\n      tag_212\n      swap1\n      tag_110\n      jump\t// in\n    tag_212:\n      dup1\n      0x1f\n      add\n      0x20\n      dup1\n      swap2\n      div\n      mul\n      0x20\n      add\n      mload(0x40)\n      swap1\n      dup2\n      add\n      0x40\n      mstore\n      dup1\n      swap3\n      swap2\n      swap1\n      dup2\n      dup2\n      mstore\n      0x20\n      add\n      dup3\n      dup1\n      sload\n      tag_213\n      swap1\n      tag_110\n      jump\t// in\n    tag_213:\n      dup1\n      iszero\n      tag_214\n      jumpi\n      dup1\n      0x1f\n      lt\n      tag_215\n      jumpi\n      0x0100\n      dup1\n      dup4\n      sload\n      div\n      mul\n      dup4\n      mstore\n      swap2\n      0x20\n      add\n      swap2\n      jump(tag_214)\n    tag_215:\n      dup3\n      add\n      swap2\n      swap1\n      0x00\n      mstore\n      keccak256(0x00, 0x20)\n      swap1\n    tag_216:\n      dup2\n      sload\n      dup2\n      mstore\n      swap1\n      0x01\n      add\n      swap1\n      0x20\n      add\n      dup1\n      dup4\n      gt\n      tag_216\n      jumpi\n      dup3\n      swap1\n      sub\n      0x1f\n      and\n      dup3\n      add\n      swap2\n    tag_214:\n      pop\n      pop\n      pop\n      pop\n      pop\n      swap1\n      dup1\n      0x02\n      add\n      dup1\n      sload\n      tag_217\n      swap1\n      tag_110\n      jump\t// in\n    tag_217:\n      dup1\n      0x1f\n      add\n      0x20\n      dup1\n      swap2\n      div\n      mul\n      0x20\n      add\n      mload(0x40)\n      swap1\n      dup2\n      add\n      0x40\n      mstore\n      dup1\n      swap3\n      swap2\n      swap1\n      dup2\n      dup2\n      mstore\n      0x20\n      add\n      dup3\n      dup1\n      sload\n      tag_218\n      swap1\n      tag_110\n      jump\t// in\n    tag_218:\n      dup1\n      iszero\n      tag_219\n      jumpi\n      dup1\n      0x1f\n      lt\n      tag_220\n      jumpi\n      0x0100\n      dup1\n      dup4\n      sload\n      div\n      mul\n      dup4\n      mstore\n      swap2\n      0x20\n      add\n      swap2\n      jump(tag_219)\n    tag_220:\n      dup3\n      add\n      swap2\n      swap1\n      0x00\n      mstore\n      keccak256(0x00, 0x20)\n      swap1\n    tag_221:\n      dup2\n      sload\n      dup2\n      mstore\n      swap1\n      0x01\n      add\n      swap1\n      0x20\n      add\n      dup1\n      dup4\n      gt\n      tag_221\n      jumpi\n      dup3\n      swap1\n      sub\n      0x1f\n      and\n      dup3\n      add\n      swap2\n    tag_219:\n      pop\n      pop\n      pop\n      0x03\n      swap1\n      swap4\n      add\n      sload\n      swap2\n      swap3\n      pop\n      pop\n      0xff\n      and\n      dup5\n      jump\t// out\n        /* \"test.sol\":5493:5905  function registerPatientHealth(... */\n    tag_79:\n        /* \"test.sol\":843:865  patientAccess[_patKey] */\n      0x00\n      dup2\n      dup2\n      mstore\n        /* \"test.sol\":843:856  patientAccess */\n      0x07\n        /* \"test.sol\":843:865  patientAccess[_patKey] */\n      0x20\n      mstore\n      0x40\n      swap1\n      keccak256\n        /* \"test.sol\":843:873  patientAccess[_patKey].isExist */\n      0x04\n      add\n      sload\n        /* \"test.sol\":5679:5685  patKey */\n      dup2\n      swap1\n        /* \"test.sol\":843:873  patientAccess[_patKey].isExist */\n      0xff\n      and\n        /* \"test.sol\":843:881  patientAccess[_patKey].isExist == true */\n      iszero\n      iszero\n        /* \"test.sol\":843:873  patientAccess[_patKey].isExist */\n      0x01\n        /* \"test.sol\":843:881  patientAccess[_patKey].isExist == true */\n      eq\n        /* \"test.sol\":835:929  require(patientAccess[_patKey].isExist == true, ... */\n      tag_223\n      jumpi\n      mload(0x40)\n      shl(0xe5, 0x461bcd)\n      dup2\n      mstore\n      0x04\n      add\n      tag_102\n      swap1\n      tag_103\n      jump\t// in\n    tag_223:\n        /* \"test.sol\":5724:5772  patienthealth(allergies,lifesaver,height,weight) */\n      0x40\n      dup1\n      mload\n      0x80\n      dup2\n      add\n      dup3\n      mstore\n      dup8\n      dup2\n      mstore\n      0x20\n      dup1\n      dup3\n      add\n      dup9\n      swap1\n      mstore\n      dup2\n      dup4\n      add\n      dup8\n      swap1\n      mstore\n      0x60\n      dup3\n      add\n      dup7\n      swap1\n      mstore\n      0x00\n        /* \"test.sol\":5696:5721  patienthealthData[patKey] */\n      dup6\n      dup2\n      mstore\n        /* \"test.sol\":5696:5713  patienthealthData */\n      0x0a\n        /* \"test.sol\":5696:5721  patienthealthData[patKey] */\n      dup3\n      mstore\n      swap3\n      swap1\n      swap3\n      keccak256\n        /* \"test.sol\":5696:5772  patienthealthData[patKey] = patienthealth(allergies,lifesaver,height,weight) */\n      dup2\n      mload\n      dup1\n      mload\n        /* \"test.sol\":5724:5772  patienthealth(allergies,lifesaver,height,weight) */\n      swap3\n      swap4\n        /* \"test.sol\":5696:5721  patienthealthData[patKey] */\n      swap2\n      swap3\n        /* \"test.sol\":5696:5772  patienthealthData[patKey] = patienthealth(allergies,lifesaver,height,weight) */\n      tag_226\n      swap3\n        /* \"test.sol\":5696:5721  patienthealthData[patKey] */\n      dup5\n      swap3\n        /* \"test.sol\":5696:5772  patienthealthData[patKey] = patienthealth(allergies,lifesaver,height,weight) */\n      add\n      swap1\n      tag_173\n      jump\t// in\n    tag_226:\n      pop\n      0x20\n      dup3\n      dup2\n      add\n      mload\n      dup1\n      mload\n      tag_227\n      swap3\n      0x01\n      dup6\n      add\n      swap3\n      add\n      swap1\n      tag_173\n      jump\t// in\n    tag_227:\n      pop\n      0x40\n      dup3\n      add\n      mload\n      dup2\n      0x02\n      add\n      sstore\n      0x60\n      dup3\n      add\n      mload\n      dup2\n      0x03\n      add\n      sstore\n      swap1\n      pop\n      pop\n      0x00\n      dup1\n      mload\n      0x20\n      data_f1783972c13bbde284b8765b8e27686842dfd940022613858bd0f693b0907129\n      dup4\n      codecopy\n      dup2\n      mload\n      swap2\n      mstore\n        /* \"test.sol\":5816:5822  patKey */\n      dup3\n        /* \"test.sol\":5879:5894  block.timestamp */\n      timestamp\n        /* \"test.sol\":5787:5895  patregistration(... */\n      mload(0x40)\n      tag_176\n      swap3\n      swap2\n      swap1\n        /* \"#utility.yul\":21946:21971   */\n      swap2\n      dup3\n      mstore\n        /* \"#utility.yul\":22007:22009   */\n      0x60\n        /* \"#utility.yul\":22002:22004   */\n      0x20\n        /* \"#utility.yul\":21987:22005   */\n      dup4\n      add\n        /* \"#utility.yul\":21980:22010   */\n      dup2\n      swap1\n      mstore\n        /* \"#utility.yul\":22046:22048   */\n      0x1b\n        /* \"#utility.yul\":22026:22044   */\n      swap1\n      dup4\n      add\n        /* \"#utility.yul\":22019:22049   */\n      mstore\n        /* \"#utility.yul\":22086:22115   */\n      0x50617469656e74204865616c7468204461746120757064617465640000000000\n        /* \"#utility.yul\":22080:22083   */\n      0x80\n        /* \"#utility.yul\":22065:22084   */\n      dup4\n      add\n        /* \"#utility.yul\":22058:22116   */\n      mstore\n        /* \"#utility.yul\":22183:22185   */\n      0x40\n        /* \"#utility.yul\":22168:22186   */\n      dup3\n      add\n        /* \"#utility.yul\":22161:22195   */\n      mstore\n        /* \"#utility.yul\":22148:22151   */\n      0xa0\n        /* \"#utility.yul\":22133:22152   */\n      add\n      swap1\n        /* \"#utility.yul\":21936:22201   */\n      jump\n        /* \"test.sol\":3325:4957  function registerDoctor(... */\n    tag_83:\n        /* \"test.sol\":3624:3635  uint docKey */\n      0x00\n        /* \"test.sol\":3670:3682  doctorMobile */\n      dup7\n        /* \"test.sol\":3683:3694  doctorEmail */\n      dup9\n        /* \"test.sol\":3653:3695  abi.encodePacked(doctorMobile,doctorEmail) */\n      add(0x20, mload(0x40))\n      tag_231\n      swap3\n      swap2\n      swap1\n      tag_232\n      jump\t// in\n    tag_231:\n      0x40\n      dup1\n      mload\n      not(0x1f)\n      dup2\n      dup5\n      sub\n      add\n      dup2\n      mstore\n      swap2\n      swap1\n      mstore\n        /* \"test.sol\":3643:3696  keccak256(abi.encodePacked(doctorMobile,doctorEmail)) */\n      dup1\n      mload\n        /* \"test.sol\":3653:3695  abi.encodePacked(doctorMobile,doctorEmail) */\n      0x20\n        /* \"test.sol\":3643:3696  keccak256(abi.encodePacked(doctorMobile,doctorEmail)) */\n      swap1\n      swap2\n      add\n      keccak256\n      swap1\n      pop\n        /* \"test.sol\":3707:3729  string memory comments */\n      0x60\n        /* \"test.sol\":3638:3697  uint(keccak256(abi.encodePacked(doctorMobile,doctorEmail))) */\n      0x00\n        /* \"test.sol\":3742:3746  reup */\n      dup4\n        /* \"test.sol\":3742:3770  reup == stateChange.REGISTER */\n      0x01\n      dup2\n      gt\n      iszero\n      tag_234\n      jumpi\n      mstore(0x00, shl(0xe0, 0x4e487b71))\n      mstore(0x04, 0x21)\n      revert(0x00, 0x24)\n    tag_234:\n      eq\n        /* \"test.sol\":3739:4277  if(reup == stateChange.REGISTER){... */\n      iszero\n      tag_235\n      jumpi\n        /* \"test.sol\":3864:3875  doctorEmail */\n      dup9\n        /* \"test.sol\":3848:3877  keccak256(bytes(doctorEmail)) */\n      dup1\n      mload\n      swap1\n      0x20\n      add\n      keccak256\n        /* \"test.sol\":3810:3822  doctorAccess */\n      0x08\n        /* \"test.sol\":3810:3830  doctorAccess[docKey] */\n      0x00\n        /* \"test.sol\":3823:3829  docKey */\n      dup5\n        /* \"test.sol\":3810:3830  doctorAccess[docKey] */\n      dup2\n      mstore\n      0x20\n      add\n      swap1\n      dup2\n      mstore\n      0x20\n      add\n      0x00\n      keccak256\n        /* \"test.sol\":3810:3842  doctorAccess[docKey].doctorEmail */\n      0x01\n      add\n        /* \"test.sol\":3794:3844  keccak256(bytes(doctorAccess[docKey].doctorEmail)) */\n      mload(0x40)\n      tag_236\n      swap2\n      swap1\n      tag_237\n      jump\t// in\n    tag_236:\n      mload(0x40)\n      dup1\n      swap2\n      sub\n      swap1\n      keccak256\n        /* \"test.sol\":3794:3877  keccak256(bytes(doctorAccess[docKey].doctorEmail)) != keccak256(bytes(doctorEmail)) */\n      eq\n      iszero\n        /* \"test.sol\":3785:3917  require (keccak256(bytes(doctorAccess[docKey].doctorEmail)) != keccak256(bytes(doctorEmail)), \"EHR-RD-01: Doctor already Enrolled.\") */\n      tag_238\n      jumpi\n      mload(0x40)\n      shl(0xe5, 0x461bcd)\n      dup2\n      mstore\n      0x04\n      add\n      tag_102\n      swap1\n      tag_240\n      jump\t// in\n    tag_238:\n        /* \"test.sol\":4011:4023  doctorMobile */\n      dup8\n        /* \"test.sol\":3995:4025  keccak256(bytes(doctorMobile)) */\n      dup1\n      mload\n      swap1\n      0x20\n      add\n      keccak256\n        /* \"test.sol\":3956:3968  doctorAccess */\n      0x08\n        /* \"test.sol\":3956:3976  doctorAccess[docKey] */\n      0x00\n        /* \"test.sol\":3969:3975  docKey */\n      dup5\n        /* \"test.sol\":3956:3976  doctorAccess[docKey] */\n      dup2\n      mstore\n      0x20\n      add\n      swap1\n      dup2\n      mstore\n      0x20\n      add\n      0x00\n      keccak256\n        /* \"test.sol\":3956:3989  doctorAccess[docKey].doctorMobile */\n      0x02\n      add\n        /* \"test.sol\":3940:3991  keccak256(bytes(doctorAccess[docKey].doctorMobile)) */\n      mload(0x40)\n      tag_241\n      swap2\n      swap1\n      tag_237\n      jump\t// in\n    tag_241:\n      mload(0x40)\n      dup1\n      swap2\n      sub\n      swap1\n      keccak256\n        /* \"test.sol\":3940:4025  keccak256(bytes(doctorAccess[docKey].doctorMobile)) != keccak256(bytes(doctorMobile)) */\n      eq\n      iszero\n        /* \"test.sol\":3931:4065  require (keccak256(bytes(doctorAccess[docKey].doctorMobile)) != keccak256(bytes(doctorMobile)), \"EHR-RD-02: Doctor already Enrolled.\") */\n      tag_242\n      jumpi\n      mload(0x40)\n      shl(0xe5, 0x461bcd)\n      dup2\n      mstore\n      0x04\n      add\n      tag_102\n      swap1\n      tag_244\n      jump\t// in\n    tag_242:\n        /* \"test.sol\":4102:4215  doctorEnroll(doctorName,doctorEmail,doctorMobile,doctorPass,doctorCred,DoctorType(_doctorType),Sex(_gender),true) */\n      mload(0x40)\n      dup1\n      0x0100\n      add\n      0x40\n      mstore\n      dup1\n        /* \"test.sol\":4115:4125  doctorName */\n      dup12\n        /* \"test.sol\":4102:4215  doctorEnroll(doctorName,doctorEmail,doctorMobile,doctorPass,doctorCred,DoctorType(_doctorType),Sex(_gender),true) */\n      dup2\n      mstore\n      0x20\n      add\n        /* \"test.sol\":4126:4137  doctorEmail */\n      dup11\n        /* \"test.sol\":4102:4215  doctorEnroll(doctorName,doctorEmail,doctorMobile,doctorPass,doctorCred,DoctorType(_doctorType),Sex(_gender),true) */\n      dup2\n      mstore\n      0x20\n      add\n        /* \"test.sol\":4138:4150  doctorMobile */\n      dup10\n        /* \"test.sol\":4102:4215  doctorEnroll(doctorName,doctorEmail,doctorMobile,doctorPass,doctorCred,DoctorType(_doctorType),Sex(_gender),true) */\n      dup2\n      mstore\n      0x20\n      add\n        /* \"test.sol\":4151:4161  doctorPass */\n      dup9\n        /* \"test.sol\":4102:4215  doctorEnroll(doctorName,doctorEmail,doctorMobile,doctorPass,doctorCred,DoctorType(_doctorType),Sex(_gender),true) */\n      dup2\n      mstore\n      0x20\n      add\n        /* \"test.sol\":4162:4172  doctorCred */\n      dup8\n        /* \"test.sol\":4102:4215  doctorEnroll(doctorName,doctorEmail,doctorMobile,doctorPass,doctorCred,DoctorType(_doctorType),Sex(_gender),true) */\n      dup2\n      mstore\n      0x20\n      add\n        /* \"test.sol\":4184:4195  _doctorType */\n      dup7\n        /* \"test.sol\":4102:4215  doctorEnroll(doctorName,doctorEmail,doctorMobile,doctorPass,doctorCred,DoctorType(_doctorType),Sex(_gender),true) */\n      0x04\n      dup2\n      gt\n      iszero\n      tag_245\n      jumpi\n      mstore(0x00, shl(0xe0, 0x4e487b71))\n      mstore(0x04, 0x21)\n      revert(0x00, 0x24)\n    tag_245:\n      dup2\n      mstore\n      0x20\n      add\n        /* \"test.sol\":4201:4208  _gender */\n      dup6\n        /* \"test.sol\":4102:4215  doctorEnroll(doctorName,doctorEmail,doctorMobile,doctorPass,doctorCred,DoctorType(_doctorType),Sex(_gender),true) */\n      0x02\n      dup2\n      gt\n      iszero\n      tag_246\n      jumpi\n      mstore(0x00, shl(0xe0, 0x4e487b71))\n      mstore(0x04, 0x21)\n      revert(0x00, 0x24)\n    tag_246:\n      dup2\n      mstore\n        /* \"test.sol\":4210:4214  true */\n      0x01\n        /* \"test.sol\":4102:4215  doctorEnroll(doctorName,doctorEmail,doctorMobile,doctorPass,doctorCred,DoctorType(_doctorType),Sex(_gender),true) */\n      0x20\n      swap2\n      dup3\n      add\n      mstore\n      0x00\n        /* \"test.sol\":4079:4099  doctorAccess[docKey] */\n      dup5\n      dup2\n      mstore\n        /* \"test.sol\":4079:4091  doctorAccess */\n      0x08\n        /* \"test.sol\":4079:4099  doctorAccess[docKey] */\n      dup3\n      mstore\n      0x40\n      swap1\n      keccak256\n        /* \"test.sol\":4079:4215  doctorAccess[docKey] = doctorEnroll(doctorName,doctorEmail,doctorMobile,doctorPass,doctorCred,DoctorType(_doctorType),Sex(_gender),true) */\n      dup3\n      mload\n      dup1\n      mload\n        /* \"test.sol\":4079:4099  doctorAccess[docKey] */\n      swap2\n      swap3\n        /* \"test.sol\":4079:4215  doctorAccess[docKey] = doctorEnroll(doctorName,doctorEmail,doctorMobile,doctorPass,doctorCred,DoctorType(_doctorType),Sex(_gender),true) */\n      tag_247\n      swap3\n        /* \"test.sol\":4079:4099  doctorAccess[docKey] */\n      dup5\n      swap3\n        /* \"test.sol\":4079:4215  doctorAccess[docKey] = doctorEnroll(doctorName,doctorEmail,doctorMobile,doctorPass,doctorCred,DoctorType(_doctorType),Sex(_gender),true) */\n      swap1\n      swap2\n      add\n      swap1\n      tag_173\n      jump\t// in\n    tag_247:\n      pop\n      0x20\n      dup3\n      dup2\n      add\n      mload\n      dup1\n      mload\n      tag_248\n      swap3\n      0x01\n      dup6\n      add\n      swap3\n      add\n      swap1\n      tag_173\n      jump\t// in\n    tag_248:\n      pop\n      0x40\n      dup3\n      add\n      mload\n      dup1\n      mload\n      tag_249\n      swap2\n      0x02\n      dup5\n      add\n      swap2\n      0x20\n      swap1\n      swap2\n      add\n      swap1\n      tag_173\n      jump\t// in\n    tag_249:\n      pop\n      0x60\n      dup3\n      add\n      mload\n      dup1\n      mload\n      tag_250\n      swap2\n      0x03\n      dup5\n      add\n      swap2\n      0x20\n      swap1\n      swap2\n      add\n      swap1\n      tag_173\n      jump\t// in\n    tag_250:\n      pop\n      0x80\n      dup3\n      add\n      mload\n      dup1\n      mload\n      tag_251\n      swap2\n      0x04\n      dup5\n      add\n      swap2\n      0x20\n      swap1\n      swap2\n      add\n      swap1\n      tag_173\n      jump\t// in\n    tag_251:\n      pop\n      0xa0\n      dup3\n      add\n      mload\n      0x05\n      dup3\n      add\n      dup1\n      sload\n      not(0xff)\n      and\n      0x01\n      dup4\n      0x04\n      dup2\n      gt\n      iszero\n      tag_252\n      jumpi\n      mstore(0x00, shl(0xe0, 0x4e487b71))\n      mstore(0x04, 0x21)\n      revert(0x00, 0x24)\n    tag_252:\n      mul\n      or\n      swap1\n      sstore\n      pop\n      0xc0\n      dup3\n      add\n      mload\n      0x05\n      dup3\n      add\n      dup1\n      sload\n      not(0xff00)\n      and\n      0x0100\n      dup4\n      0x02\n      dup2\n      gt\n      iszero\n      tag_253\n      jumpi\n      mstore(0x00, shl(0xe0, 0x4e487b71))\n      mstore(0x04, 0x21)\n      revert(0x00, 0x24)\n    tag_253:\n      mul\n      or\n      swap1\n      sstore\n      pop\n      0xe0\n      swap2\n      swap1\n      swap2\n      add\n      mload\n      0x05\n      swap1\n      swap2\n      add\n      dup1\n      sload\n      swap2\n      iszero\n      iszero\n      0x010000\n      mul\n      not(0xff0000)\n      swap1\n      swap3\n      and\n      swap2\n      swap1\n      swap2\n      or\n      swap1\n      sstore\n      pop\n        /* \"test.sol\":4229:4266  comments = \"Doctor Registration Done\" */\n      0x40\n      dup1\n      mload\n      dup1\n      dup3\n      add\n      swap1\n      swap2\n      mstore\n      0x18\n      dup2\n      mstore\n      0x446f63746f7220526567697374726174696f6e20446f6e650000000000000000\n      0x20\n      dup3\n      add\n      mstore\n        /* \"test.sol\":3739:4277  if(reup == stateChange.REGISTER){... */\n    tag_235:\n        /* \"test.sol\":4297:4315  stateChange.UPDATE */\n      0x01\n        /* \"test.sol\":4289:4293  reup */\n      dup4\n        /* \"test.sol\":4289:4315  reup == stateChange.UPDATE */\n      0x01\n      dup2\n      gt\n      iszero\n      tag_255\n      jumpi\n      mstore(0x00, shl(0xe0, 0x4e487b71))\n      mstore(0x04, 0x21)\n      revert(0x00, 0x24)\n    tag_255:\n      eq\n        /* \"test.sol\":4286:4849  if(reup == stateChange.UPDATE){... */\n      iszero\n      tag_256\n      jumpi\n        /* \"test.sol\":4409:4420  doctorEmail */\n      dup9\n        /* \"test.sol\":4393:4422  keccak256(bytes(doctorEmail)) */\n      dup1\n      mload\n      swap1\n      0x20\n      add\n      keccak256\n        /* \"test.sol\":4355:4367  doctorAccess */\n      0x08\n        /* \"test.sol\":4355:4375  doctorAccess[docKey] */\n      0x00\n        /* \"test.sol\":4368:4374  docKey */\n      dup5\n        /* \"test.sol\":4355:4375  doctorAccess[docKey] */\n      dup2\n      mstore\n      0x20\n      add\n      swap1\n      dup2\n      mstore\n      0x20\n      add\n      0x00\n      keccak256\n        /* \"test.sol\":4355:4387  doctorAccess[docKey].doctorEmail */\n      0x01\n      add\n        /* \"test.sol\":4339:4389  keccak256(bytes(doctorAccess[docKey].doctorEmail)) */\n      mload(0x40)\n      tag_257\n      swap2\n      swap1\n      tag_237\n      jump\t// in\n    tag_257:\n      mload(0x40)\n      dup1\n      swap2\n      sub\n      swap1\n      keccak256\n        /* \"test.sol\":4339:4422  keccak256(bytes(doctorAccess[docKey].doctorEmail)) == keccak256(bytes(doctorEmail)) */\n      eq\n        /* \"test.sol\":4330:4462  require (keccak256(bytes(doctorAccess[docKey].doctorEmail)) == keccak256(bytes(doctorEmail)), \"EHR-RD-01: Doctor already Enrolled.\") */\n      tag_258\n      jumpi\n      mload(0x40)\n      shl(0xe5, 0x461bcd)\n      dup2\n      mstore\n      0x04\n      add\n      tag_102\n      swap1\n      tag_240\n      jump\t// in\n    tag_258:\n        /* \"test.sol\":4556:4568  doctorMobile */\n      dup8\n        /* \"test.sol\":4540:4570  keccak256(bytes(doctorMobile)) */\n      dup1\n      mload\n      swap1\n      0x20\n      add\n      keccak256\n        /* \"test.sol\":4501:4513  doctorAccess */\n      0x08\n        /* \"test.sol\":4501:4521  doctorAccess[docKey] */\n      0x00\n        /* \"test.sol\":4514:4520  docKey */\n      dup5\n        /* \"test.sol\":4501:4521  doctorAccess[docKey] */\n      dup2\n      mstore\n      0x20\n      add\n      swap1\n      dup2\n      mstore\n      0x20\n      add\n      0x00\n      keccak256\n        /* \"test.sol\":4501:4534  doctorAccess[docKey].doctorMobile */\n      0x02\n      add\n        /* \"test.sol\":4485:4536  keccak256(bytes(doctorAccess[docKey].doctorMobile)) */\n      mload(0x40)\n      tag_260\n      swap2\n      swap1\n      tag_237\n      jump\t// in\n    tag_260:\n      mload(0x40)\n      dup1\n      swap2\n      sub\n      swap1\n      keccak256\n        /* \"test.sol\":4485:4570  keccak256(bytes(doctorAccess[docKey].doctorMobile)) == keccak256(bytes(doctorMobile)) */\n      eq\n        /* \"test.sol\":4476:4610  require (keccak256(bytes(doctorAccess[docKey].doctorMobile)) == keccak256(bytes(doctorMobile)), \"EHR-RD-02: Doctor already Enrolled.\") */\n      tag_261\n      jumpi\n      mload(0x40)\n      shl(0xe5, 0x461bcd)\n      dup2\n      mstore\n      0x04\n      add\n      tag_102\n      swap1\n      tag_244\n      jump\t// in\n    tag_261:\n        /* \"test.sol\":4624:4644  doctorAccess[docKey] */\n      0x00\n      dup3\n      dup2\n      mstore\n        /* \"test.sol\":4624:4636  doctorAccess */\n      0x08\n        /* \"test.sol\":4624:4644  doctorAccess[docKey] */\n      0x20\n      swap1\n      dup2\n      mstore\n      0x40\n      swap1\n      swap2\n      keccak256\n        /* \"test.sol\":4624:4668  doctorAccess[docKey].doctorName = doctorName */\n      dup12\n      mload\n      tag_263\n      swap3\n      dup14\n      add\n      swap1\n      tag_173\n      jump\t// in\n    tag_263:\n      pop\n        /* \"test.sol\":4682:4702  doctorAccess[docKey] */\n      0x00\n      dup3\n      dup2\n      mstore\n        /* \"test.sol\":4682:4694  doctorAccess */\n      0x08\n        /* \"test.sol\":4682:4702  doctorAccess[docKey] */\n      0x20\n      swap1\n      dup2\n      mstore\n      0x40\n      swap1\n      swap2\n      keccak256\n        /* \"test.sol\":4682:4728  doctorAccess[docKey].doctorEmail = doctorEmail */\n      dup11\n      mload\n      tag_264\n      swap3\n        /* \"test.sol\":4682:4714  doctorAccess[docKey].doctorEmail */\n      0x01\n      swap1\n      swap3\n      add\n      swap2\n        /* \"test.sol\":4682:4728  doctorAccess[docKey].doctorEmail = doctorEmail */\n      dup13\n      add\n      swap1\n      tag_173\n      jump\t// in\n    tag_264:\n      pop\n        /* \"test.sol\":4742:4762  doctorAccess[docKey] */\n      0x00\n      dup3\n      dup2\n      mstore\n        /* \"test.sol\":4742:4754  doctorAccess */\n      0x08\n        /* \"test.sol\":4742:4762  doctorAccess[docKey] */\n      0x20\n      swap1\n      dup2\n      mstore\n      0x40\n      swap1\n      swap2\n      keccak256\n        /* \"test.sol\":4742:4790  doctorAccess[docKey].doctorMobile = doctorMobile */\n      dup10\n      mload\n      tag_265\n      swap3\n        /* \"test.sol\":4742:4775  doctorAccess[docKey].doctorMobile */\n      0x02\n      swap1\n      swap3\n      add\n      swap2\n        /* \"test.sol\":4742:4790  doctorAccess[docKey].doctorMobile = doctorMobile */\n      dup12\n      add\n      swap1\n      tag_173\n      jump\t// in\n    tag_265:\n      pop\n      pop\n        /* \"test.sol\":4804:4838  comments = \"Doctor Record Updated\" */\n      0x40\n      dup1\n      mload\n      dup1\n      dup3\n      add\n      swap1\n      swap2\n      mstore\n      0x15\n      dup2\n      mstore\n      shl(0x5a, 0x111bd8dd1bdc88149958dbdc9908155c19185d1959)\n      0x20\n      dup3\n      add\n      mstore\n        /* \"test.sol\":4286:4849  if(reup == stateChange.UPDATE){... */\n    tag_256:\n      0x00\n      dup1\n      mload\n      0x20\n      data_f1783972c13bbde284b8765b8e27686842dfd940022613858bd0f693b0907129\n      dup4\n      codecopy\n      dup2\n      mload\n      swap2\n      mstore\n        /* \"test.sol\":4892:4898  docKey */\n      dup3\n        /* \"test.sol\":4912:4920  comments */\n      dup3\n        /* \"test.sol\":4934:4949  block.timestamp */\n      timestamp\n        /* \"test.sol\":4863:4950  patregistration(... */\n      mload(0x40)\n      tag_266\n      swap4\n      swap3\n      swap2\n      swap1\n      tag_267\n      jump\t// in\n    tag_266:\n      mload(0x40)\n      dup1\n      swap2\n      sub\n      swap1\n      log1\n        /* \"test.sol\":3325:4957  function registerDoctor(... */\n      pop\n      pop\n      pop\n      pop\n      pop\n      pop\n      pop\n      pop\n      pop\n      pop\n      jump\t// out\n        /* \"test.sol\":5005:5443  function registerPatientLoc(... */\n    tag_87:\n        /* \"test.sol\":843:865  patientAccess[_patKey] */\n      0x00\n      dup2\n      dup2\n      mstore\n        /* \"test.sol\":843:856  patientAccess */\n      0x07\n        /* \"test.sol\":843:865  patientAccess[_patKey] */\n      0x20\n      mstore\n      0x40\n      swap1\n      keccak256\n        /* \"test.sol\":843:873  patientAccess[_patKey].isExist */\n      0x04\n      add\n      sload\n        /* \"test.sol\":5222:5228  patKey */\n      dup2\n      swap1\n        /* \"test.sol\":843:873  patientAccess[_patKey].isExist */\n      0xff\n      and\n        /* \"test.sol\":843:881  patientAccess[_patKey].isExist == true */\n      iszero\n      iszero\n        /* \"test.sol\":843:873  patientAccess[_patKey].isExist */\n      0x01\n        /* \"test.sol\":843:881  patientAccess[_patKey].isExist == true */\n      eq\n        /* \"test.sol\":835:929  require(patientAccess[_patKey].isExist == true, ... */\n      tag_269\n      jumpi\n      mload(0x40)\n      shl(0xe5, 0x461bcd)\n      dup2\n      mstore\n      0x04\n      add\n      tag_102\n      swap1\n      tag_103\n      jump\t// in\n    tag_269:\n        /* \"test.sol\":5264:5311  patientGeo(city,state,country,landmark,pincode) */\n      0x40\n      dup1\n      mload\n      0xa0\n      dup2\n      add\n      dup3\n      mstore\n      dup9\n      dup2\n      mstore\n      0x20\n      dup1\n      dup3\n      add\n      dup10\n      swap1\n      mstore\n      dup2\n      dup4\n      add\n      dup9\n      swap1\n      mstore\n      0x60\n      dup3\n      add\n      dup8\n      swap1\n      mstore\n      0x80\n      dup3\n      add\n      dup7\n      swap1\n      mstore\n      0x00\n        /* \"test.sol\":5239:5261  patientLocData[patKey] */\n      dup6\n      dup2\n      mstore\n        /* \"test.sol\":5239:5253  patientLocData */\n      0x09\n        /* \"test.sol\":5239:5261  patientLocData[patKey] */\n      dup3\n      mstore\n      swap3\n      swap1\n      swap3\n      keccak256\n        /* \"test.sol\":5239:5311  patientLocData[patKey] = patientGeo(city,state,country,landmark,pincode) */\n      dup2\n      mload\n      dup1\n      mload\n        /* \"test.sol\":5264:5311  patientGeo(city,state,country,landmark,pincode) */\n      swap3\n      swap4\n        /* \"test.sol\":5239:5261  patientLocData[patKey] */\n      swap2\n      swap3\n        /* \"test.sol\":5239:5311  patientLocData[patKey] = patientGeo(city,state,country,landmark,pincode) */\n      tag_272\n      swap3\n        /* \"test.sol\":5239:5261  patientLocData[patKey] */\n      dup5\n      swap3\n        /* \"test.sol\":5239:5311  patientLocData[patKey] = patientGeo(city,state,country,landmark,pincode) */\n      add\n      swap1\n      tag_173\n      jump\t// in\n    tag_272:\n      pop\n      0x20\n      dup3\n      dup2\n      add\n      mload\n      dup1\n      mload\n      tag_273\n      swap3\n      0x01\n      dup6\n      add\n      swap3\n      add\n      swap1\n      tag_173\n      jump\t// in\n    tag_273:\n      pop\n      0x40\n      dup3\n      add\n      mload\n      dup1\n      mload\n      tag_274\n      swap2\n      0x02\n      dup5\n      add\n      swap2\n      0x20\n      swap1\n      swap2\n      add\n      swap1\n      tag_173\n      jump\t// in\n    tag_274:\n      pop\n      0x60\n      dup3\n      add\n      mload\n      dup1\n      mload\n      tag_275\n      swap2\n      0x03\n      dup5\n      add\n      swap2\n      0x20\n      swap1\n      swap2\n      add\n      swap1\n      tag_173\n      jump\t// in\n    tag_275:\n      pop\n      0x80\n      swap2\n      dup3\n      add\n      mload\n      0x04\n      swap1\n      swap2\n      add\n      sstore\n        /* \"test.sol\":5326:5436  patregistration(... */\n      0x40\n      dup1\n      mload\n        /* \"#utility.yul\":20946:20971   */\n      dup5\n      dup2\n      mstore\n        /* \"#utility.yul\":21007:21009   */\n      0x60\n        /* \"#utility.yul\":21002:21004   */\n      0x20\n        /* \"#utility.yul\":20987:21005   */\n      dup3\n      add\n        /* \"#utility.yul\":20980:21010   */\n      dup2\n      swap1\n      mstore\n        /* \"#utility.yul\":21046:21048   */\n      0x1d\n        /* \"#utility.yul\":21026:21044   */\n      swap1\n      dup3\n      add\n        /* \"#utility.yul\":21019:21049   */\n      mstore\n        /* \"#utility.yul\":21086:21117   */\n      0x50617469656e74204c6f636174696f6e20446174612075706461746564000000\n        /* \"#utility.yul\":21065:21084   */\n      swap3\n      dup2\n      add\n        /* \"#utility.yul\":21058:21118   */\n      swap3\n      swap1\n      swap3\n      mstore\n        /* \"test.sol\":5420:5435  block.timestamp */\n      timestamp\n        /* \"#utility.yul\":21170:21188   */\n      swap1\n      dup3\n      add\n        /* \"#utility.yul\":21163:21197   */\n      mstore\n      0x00\n      dup1\n      mload\n      0x20\n      data_f1783972c13bbde284b8765b8e27686842dfd940022613858bd0f693b0907129\n      dup4\n      codecopy\n      dup2\n      mload\n      swap2\n      mstore\n        /* \"test.sol\":5326:5436  patregistration(... */\n      swap1\n        /* \"#utility.yul\":21150:21153   */\n      0xa0\n        /* \"#utility.yul\":21135:21154   */\n      add\n        /* \"test.sol\":5326:5436  patregistration(... */\n    tag_276:\n      mload(0x40)\n      dup1\n      swap2\n      sub\n      swap1\n      log1\n        /* \"test.sol\":5005:5443  function registerPatientLoc(... */\n      pop\n      pop\n      pop\n      pop\n      pop\n      pop\n      pop\n      jump\t// out\n        /* \"test.sol\":1694:3281  function registerPatients(... */\n    tag_91:\n        /* \"test.sol\":1912:1927  uint patientKey */\n      0x00\n        /* \"test.sol\":1962:1975  patientMobile */\n      dup4\n        /* \"test.sol\":1976:1988  patientEmail */\n      dup6\n        /* \"test.sol\":1945:1989  abi.encodePacked(patientMobile,patientEmail) */\n      add(0x20, mload(0x40))\n      tag_279\n      swap3\n      swap2\n      swap1\n      tag_232\n      jump\t// in\n    tag_279:\n      0x40\n      dup1\n      mload\n      not(0x1f)\n      dup2\n      dup5\n      sub\n      add\n      dup2\n      mstore\n      swap2\n      swap1\n      mstore\n        /* \"test.sol\":1935:1990  keccak256(abi.encodePacked(patientMobile,patientEmail)) */\n      dup1\n      mload\n        /* \"test.sol\":1945:1989  abi.encodePacked(patientMobile,patientEmail) */\n      0x20\n        /* \"test.sol\":1935:1990  keccak256(abi.encodePacked(patientMobile,patientEmail)) */\n      swap1\n      swap2\n      add\n      keccak256\n      swap1\n      pop\n        /* \"test.sol\":2001:2023  string memory comments */\n      0x60\n        /* \"test.sol\":1930:1991  uint(keccak256(abi.encodePacked(patientMobile,patientEmail))) */\n      0x00\n        /* \"test.sol\":2036:2040  reup */\n      dup4\n        /* \"test.sol\":2036:2064  reup == stateChange.REGISTER */\n      0x01\n      dup2\n      gt\n      iszero\n      tag_281\n      jumpi\n      mstore(0x00, shl(0xe0, 0x4e487b71))\n      mstore(0x04, 0x21)\n      revert(0x00, 0x24)\n    tag_281:\n      eq\n        /* \"test.sol\":2033:2550  if(reup == stateChange.REGISTER){... */\n      iszero\n      tag_282\n      jumpi\n        /* \"test.sol\":2164:2176  patientEmail */\n      dup6\n        /* \"test.sol\":2148:2178  keccak256(bytes(patientEmail)) */\n      dup1\n      mload\n      swap1\n      0x20\n      add\n      keccak256\n        /* \"test.sol\":2104:2117  patientAccess */\n      0x07\n        /* \"test.sol\":2104:2129  patientAccess[patientKey] */\n      0x00\n        /* \"test.sol\":2118:2128  patientKey */\n      dup5\n        /* \"test.sol\":2104:2129  patientAccess[patientKey] */\n      dup2\n      mstore\n      0x20\n      add\n      swap1\n      dup2\n      mstore\n      0x20\n      add\n      0x00\n      keccak256\n        /* \"test.sol\":2104:2142  patientAccess[patientKey].patientEmail */\n      0x01\n      add\n        /* \"test.sol\":2088:2144  keccak256(bytes(patientAccess[patientKey].patientEmail)) */\n      mload(0x40)\n      tag_283\n      swap2\n      swap1\n      tag_237\n      jump\t// in\n    tag_283:\n      mload(0x40)\n      dup1\n      swap2\n      sub\n      swap1\n      keccak256\n        /* \"test.sol\":2088:2178  keccak256(bytes(patientAccess[patientKey].patientEmail)) != keccak256(bytes(patientEmail)) */\n      eq\n      iszero\n        /* \"test.sol\":2079:2219  require (keccak256(bytes(patientAccess[patientKey].patientEmail)) != keccak256(bytes(patientEmail)), \"EHR-RP-01: Patient already Enrolled.\") */\n      tag_284\n      jumpi\n      mload(0x40)\n      shl(0xe5, 0x461bcd)\n      dup2\n      mstore\n      0x04\n      add\n      tag_102\n      swap1\n      tag_286\n      jump\t// in\n    tag_284:\n        /* \"test.sol\":2319:2332  patientMobile */\n      dup5\n        /* \"test.sol\":2303:2334  keccak256(bytes(patientMobile)) */\n      dup1\n      mload\n      swap1\n      0x20\n      add\n      keccak256\n        /* \"test.sol\":2258:2271  patientAccess */\n      0x07\n        /* \"test.sol\":2258:2283  patientAccess[patientKey] */\n      0x00\n        /* \"test.sol\":2272:2282  patientKey */\n      dup5\n        /* \"test.sol\":2258:2283  patientAccess[patientKey] */\n      dup2\n      mstore\n      0x20\n      add\n      swap1\n      dup2\n      mstore\n      0x20\n      add\n      0x00\n      keccak256\n        /* \"test.sol\":2258:2297  patientAccess[patientKey].patientMobile */\n      0x02\n      add\n        /* \"test.sol\":2242:2299  keccak256(bytes(patientAccess[patientKey].patientMobile)) */\n      mload(0x40)\n      tag_287\n      swap2\n      swap1\n      tag_237\n      jump\t// in\n    tag_287:\n      mload(0x40)\n      dup1\n      swap2\n      sub\n      swap1\n      keccak256\n        /* \"test.sol\":2242:2334  keccak256(bytes(patientAccess[patientKey].patientMobile)) != keccak256(bytes(patientMobile)) */\n      eq\n      iszero\n        /* \"test.sol\":2233:2375  require (keccak256(bytes(patientAccess[patientKey].patientMobile)) != keccak256(bytes(patientMobile)), \"EHR-RP-02: Patient already Enrolled.\") */\n      tag_288\n      jumpi\n      mload(0x40)\n      shl(0xe5, 0x461bcd)\n      dup2\n      mstore\n      0x04\n      add\n      tag_102\n      swap1\n      tag_290\n      jump\t// in\n    tag_288:\n        /* \"test.sol\":2417:2487  patientEnroll(patientName,patientEmail,patientMobile,patientPass,true) */\n      0x40\n      dup1\n      mload\n      0xa0\n      dup2\n      add\n      dup3\n      mstore\n      dup9\n      dup2\n      mstore\n      0x20\n      dup1\n      dup3\n      add\n      dup10\n      swap1\n      mstore\n      dup2\n      dup4\n      add\n      dup9\n      swap1\n      mstore\n      0x60\n      dup3\n      add\n      dup8\n      swap1\n      mstore\n        /* \"test.sol\":2482:2486  true */\n      0x01\n        /* \"test.sol\":2417:2487  patientEnroll(patientName,patientEmail,patientMobile,patientPass,true) */\n      0x80\n      dup4\n      add\n      mstore\n      0x00\n        /* \"test.sol\":2389:2414  patientAccess[patientKey] */\n      dup6\n      dup2\n      mstore\n        /* \"test.sol\":2389:2402  patientAccess */\n      0x07\n        /* \"test.sol\":2389:2414  patientAccess[patientKey] */\n      dup3\n      mstore\n      swap3\n      swap1\n      swap3\n      keccak256\n        /* \"test.sol\":2389:2487  patientAccess[patientKey] = patientEnroll(patientName,patientEmail,patientMobile,patientPass,true) */\n      dup2\n      mload\n      dup1\n      mload\n        /* \"test.sol\":2417:2487  patientEnroll(patientName,patientEmail,patientMobile,patientPass,true) */\n      swap3\n      swap4\n        /* \"test.sol\":2389:2414  patientAccess[patientKey] */\n      swap2\n      swap3\n        /* \"test.sol\":2389:2487  patientAccess[patientKey] = patientEnroll(patientName,patientEmail,patientMobile,patientPass,true) */\n      tag_291\n      swap3\n        /* \"test.sol\":2389:2414  patientAccess[patientKey] */\n      dup5\n      swap3\n        /* \"test.sol\":2389:2487  patientAccess[patientKey] = patientEnroll(patientName,patientEmail,patientMobile,patientPass,true) */\n      add\n      swap1\n      tag_173\n      jump\t// in\n    tag_291:\n      pop\n      0x20\n      dup3\n      dup2\n      add\n      mload\n      dup1\n      mload\n      tag_292\n      swap3\n      0x01\n      dup6\n      add\n      swap3\n      add\n      swap1\n      tag_173\n      jump\t// in\n    tag_292:\n      pop\n      0x40\n      dup3\n      add\n      mload\n      dup1\n      mload\n      tag_293\n      swap2\n      0x02\n      dup5\n      add\n      swap2\n      0x20\n      swap1\n      swap2\n      add\n      swap1\n      tag_173\n      jump\t// in\n    tag_293:\n      pop\n      0x60\n      dup3\n      add\n      mload\n      dup1\n      mload\n      tag_294\n      swap2\n      0x03\n      dup5\n      add\n      swap2\n      0x20\n      swap1\n      swap2\n      add\n      swap1\n      tag_173\n      jump\t// in\n    tag_294:\n      pop\n      0x80\n      swap2\n      swap1\n      swap2\n      add\n      mload\n      0x04\n      swap1\n      swap2\n      add\n      dup1\n      sload\n      not(0xff)\n      and\n      swap2\n      iszero\n      iszero\n      swap2\n      swap1\n      swap2\n      or\n      swap1\n      sstore\n      pop\n        /* \"test.sol\":2501:2539  comments = \"Patient Registration Done\" */\n      0x40\n      dup1\n      mload\n      dup1\n      dup3\n      add\n      swap1\n      swap2\n      mstore\n      0x19\n      dup2\n      mstore\n      0x50617469656e7420526567697374726174696f6e20446f6e6500000000000000\n      0x20\n      dup3\n      add\n      mstore\n        /* \"test.sol\":2033:2550  if(reup == stateChange.REGISTER){... */\n    tag_282:\n        /* \"test.sol\":2570:2588  stateChange.UPDATE */\n      0x01\n        /* \"test.sol\":2562:2566  reup */\n      dup4\n        /* \"test.sol\":2562:2588  reup == stateChange.UPDATE */\n      0x01\n      dup2\n      gt\n      iszero\n      tag_296\n      jumpi\n      mstore(0x00, shl(0xe0, 0x4e487b71))\n      mstore(0x04, 0x21)\n      revert(0x00, 0x24)\n    tag_296:\n      eq\n        /* \"test.sol\":2559:3160  if(reup == stateChange.UPDATE){... */\n      iszero\n      tag_297\n      jumpi\n        /* \"test.sol\":2688:2700  patientEmail */\n      dup6\n        /* \"test.sol\":2672:2702  keccak256(bytes(patientEmail)) */\n      dup1\n      mload\n      swap1\n      0x20\n      add\n      keccak256\n        /* \"test.sol\":2628:2641  patientAccess */\n      0x07\n        /* \"test.sol\":2628:2653  patientAccess[patientKey] */\n      0x00\n        /* \"test.sol\":2642:2652  patientKey */\n      dup5\n        /* \"test.sol\":2628:2653  patientAccess[patientKey] */\n      dup2\n      mstore\n      0x20\n      add\n      swap1\n      dup2\n      mstore\n      0x20\n      add\n      0x00\n      keccak256\n        /* \"test.sol\":2628:2666  patientAccess[patientKey].patientEmail */\n      0x01\n      add\n        /* \"test.sol\":2612:2668  keccak256(bytes(patientAccess[patientKey].patientEmail)) */\n      mload(0x40)\n      tag_298\n      swap2\n      swap1\n      tag_237\n      jump\t// in\n    tag_298:\n      mload(0x40)\n      dup1\n      swap2\n      sub\n      swap1\n      keccak256\n        /* \"test.sol\":2612:2702  keccak256(bytes(patientAccess[patientKey].patientEmail)) == keccak256(bytes(patientEmail)) */\n      eq\n        /* \"test.sol\":2603:2743  require (keccak256(bytes(patientAccess[patientKey].patientEmail)) == keccak256(bytes(patientEmail)), \"EHR-RP-01: Patient already Enrolled.\") */\n      tag_299\n      jumpi\n      mload(0x40)\n      shl(0xe5, 0x461bcd)\n      dup2\n      mstore\n      0x04\n      add\n      tag_102\n      swap1\n      tag_286\n      jump\t// in\n    tag_299:\n        /* \"test.sol\":2843:2856  patientMobile */\n      dup5\n        /* \"test.sol\":2827:2858  keccak256(bytes(patientMobile)) */\n      dup1\n      mload\n      swap1\n      0x20\n      add\n      keccak256\n        /* \"test.sol\":2782:2795  patientAccess */\n      0x07\n        /* \"test.sol\":2782:2807  patientAccess[patientKey] */\n      0x00\n        /* \"test.sol\":2796:2806  patientKey */\n      dup5\n        /* \"test.sol\":2782:2807  patientAccess[patientKey] */\n      dup2\n      mstore\n      0x20\n      add\n      swap1\n      dup2\n      mstore\n      0x20\n      add\n      0x00\n      keccak256\n        /* \"test.sol\":2782:2821  patientAccess[patientKey].patientMobile */\n      0x02\n      add\n        /* \"test.sol\":2766:2823  keccak256(bytes(patientAccess[patientKey].patientMobile)) */\n      mload(0x40)\n      tag_301\n      swap2\n      swap1\n      tag_237\n      jump\t// in\n    tag_301:\n      mload(0x40)\n      dup1\n      swap2\n      sub\n      swap1\n      keccak256\n        /* \"test.sol\":2766:2858  keccak256(bytes(patientAccess[patientKey].patientMobile)) == keccak256(bytes(patientMobile)) */\n      eq\n        /* \"test.sol\":2757:2899  require (keccak256(bytes(patientAccess[patientKey].patientMobile)) == keccak256(bytes(patientMobile)), \"EHR-RP-02: Patient already Enrolled.\") */\n      tag_302\n      jumpi\n      mload(0x40)\n      shl(0xe5, 0x461bcd)\n      dup2\n      mstore\n      0x04\n      add\n      tag_102\n      swap1\n      tag_290\n      jump\t// in\n    tag_302:\n        /* \"test.sol\":2913:2938  patientAccess[patientKey] */\n      0x00\n      dup3\n      dup2\n      mstore\n        /* \"test.sol\":2913:2926  patientAccess */\n      0x07\n        /* \"test.sol\":2913:2938  patientAccess[patientKey] */\n      0x20\n      swap1\n      dup2\n      mstore\n      0x40\n      swap1\n      swap2\n      keccak256\n        /* \"test.sol\":2913:2964  patientAccess[patientKey].patientName = patientName */\n      dup9\n      mload\n      tag_304\n      swap3\n      dup11\n      add\n      swap1\n      tag_173\n      jump\t// in\n    tag_304:\n      pop\n        /* \"test.sol\":2978:3003  patientAccess[patientKey] */\n      0x00\n      dup3\n      dup2\n      mstore\n        /* \"test.sol\":2978:2991  patientAccess */\n      0x07\n        /* \"test.sol\":2978:3003  patientAccess[patientKey] */\n      0x20\n      swap1\n      dup2\n      mstore\n      0x40\n      swap1\n      swap2\n      keccak256\n        /* \"test.sol\":2978:3031  patientAccess[patientKey].patientEmail = patientEmail */\n      dup8\n      mload\n      tag_305\n      swap3\n        /* \"test.sol\":2978:3016  patientAccess[patientKey].patientEmail */\n      0x01\n      swap1\n      swap3\n      add\n      swap2\n        /* \"test.sol\":2978:3031  patientAccess[patientKey].patientEmail = patientEmail */\n      dup10\n      add\n      swap1\n      tag_173\n      jump\t// in\n    tag_305:\n      pop\n        /* \"test.sol\":3045:3070  patientAccess[patientKey] */\n      0x00\n      dup3\n      dup2\n      mstore\n        /* \"test.sol\":3045:3058  patientAccess */\n      0x07\n        /* \"test.sol\":3045:3070  patientAccess[patientKey] */\n      0x20\n      swap1\n      dup2\n      mstore\n      0x40\n      swap1\n      swap2\n      keccak256\n        /* \"test.sol\":3045:3100  patientAccess[patientKey].patientMobile = patientMobile */\n      dup7\n      mload\n      tag_306\n      swap3\n        /* \"test.sol\":3045:3084  patientAccess[patientKey].patientMobile */\n      0x02\n      swap1\n      swap3\n      add\n      swap2\n        /* \"test.sol\":3045:3100  patientAccess[patientKey].patientMobile = patientMobile */\n      dup9\n      add\n      swap1\n      tag_173\n      jump\t// in\n    tag_306:\n      pop\n      pop\n        /* \"test.sol\":3114:3149  comments = \"Patient Record Updated\" */\n      0x40\n      dup1\n      mload\n      dup1\n      dup3\n      add\n      swap1\n      swap2\n      mstore\n      0x16\n      dup2\n      mstore\n      shl(0x52, 0x14185d1a595b9d08149958dbdc9908155c19185d1959)\n      0x20\n      dup3\n      add\n      mstore\n        /* \"test.sol\":2559:3160  if(reup == stateChange.UPDATE){... */\n    tag_297:\n      0x00\n      dup1\n      mload\n      0x20\n      data_f1783972c13bbde284b8765b8e27686842dfd940022613858bd0f693b0907129\n      dup4\n      codecopy\n      dup2\n      mload\n      swap2\n      mstore\n        /* \"test.sol\":3212:3222  patientKey */\n      dup3\n        /* \"test.sol\":3236:3244  comments */\n      dup3\n        /* \"test.sol\":3258:3273  block.timestamp */\n      timestamp\n        /* \"test.sol\":3183:3274  patregistration(... */\n      mload(0x40)\n      tag_276\n      swap4\n      swap3\n      swap2\n      swap1\n      tag_267\n      jump\t// in\n        /* \"test.sol\":6612:7177  function updateCareGiver(... */\n    tag_94:\n        /* \"test.sol\":843:865  patientAccess[_patKey] */\n      0x00\n      dup6\n      dup2\n      mstore\n        /* \"test.sol\":843:856  patientAccess */\n      0x07\n        /* \"test.sol\":843:865  patientAccess[_patKey] */\n      0x20\n      mstore\n      0x40\n      swap1\n      keccak256\n        /* \"test.sol\":843:873  patientAccess[_patKey].isExist */\n      0x04\n      add\n      sload\n        /* \"test.sol\":6855:6861  patKey */\n      dup6\n      swap1\n        /* \"test.sol\":843:873  patientAccess[_patKey].isExist */\n      0xff\n      and\n        /* \"test.sol\":843:881  patientAccess[_patKey].isExist == true */\n      iszero\n      iszero\n        /* \"test.sol\":843:873  patientAccess[_patKey].isExist */\n      0x01\n        /* \"test.sol\":843:881  patientAccess[_patKey].isExist == true */\n      eq\n        /* \"test.sol\":835:929  require(patientAccess[_patKey].isExist == true, ... */\n      tag_309\n      jumpi\n      mload(0x40)\n      shl(0xe5, 0x461bcd)\n      dup2\n      mstore\n      0x04\n      add\n      tag_102\n      swap1\n      tag_103\n      jump\t// in\n    tag_309:\n        /* \"test.sol\":6880:6901  careGiverData[patKey] */\n      0x00\n      dup7\n      dup2\n      mstore\n        /* \"test.sol\":6880:6893  careGiverData */\n      0x0c\n        /* \"test.sol\":6880:6901  careGiverData[patKey] */\n      0x20\n      swap1\n      dup2\n      mstore\n      0x40\n      dup1\n      dup4\n      keccak256\n        /* \"test.sol\":6880:6911  careGiverData[patKey][position] */\n      dup9\n      dup5\n      mstore\n      swap1\n      swap2\n      mstore\n      swap1\n      keccak256\n        /* \"test.sol\":6880:6919  careGiverData[patKey][position].isExist */\n      0x03\n      add\n      sload\n      0xff\n      and\n        /* \"test.sol\":6880:6927  careGiverData[patKey][position].isExist == true */\n      iszero\n      iszero\n        /* \"test.sol\":6880:6919  careGiverData[patKey][position].isExist */\n      0x01\n        /* \"test.sol\":6880:6927  careGiverData[patKey][position].isExist == true */\n      eq\n        /* \"test.sol\":6872:6958  require(careGiverData[patKey][position].isExist == true, \"EHR-RCG-02: Not registered\") */\n      tag_312\n      jumpi\n      mload(0x40)\n      shl(0xe5, 0x461bcd)\n      dup2\n      mstore\n        /* \"#utility.yul\":17318:17320   */\n      0x20\n        /* \"test.sol\":6872:6958  require(careGiverData[patKey][position].isExist == true, \"EHR-RCG-02: Not registered\") */\n      0x04\n      dup3\n      add\n        /* \"#utility.yul\":17300:17321   */\n      mstore\n        /* \"#utility.yul\":17357:17359   */\n      0x1a\n        /* \"#utility.yul\":17337:17355   */\n      0x24\n      dup3\n      add\n        /* \"#utility.yul\":17330:17360   */\n      mstore\n        /* \"#utility.yul\":17396:17424   */\n      0x4548522d5243472d30323a204e6f742072656769737465726564000000000000\n        /* \"#utility.yul\":17376:17394   */\n      0x44\n      dup3\n      add\n        /* \"#utility.yul\":17369:17425   */\n      mstore\n        /* \"#utility.yul\":17442:17460   */\n      0x64\n      add\n        /* \"test.sol\":6872:6958  require(careGiverData[patKey][position].isExist == true, \"EHR-RCG-02: Not registered\") */\n      tag_102\n        /* \"#utility.yul\":17290:17466   */\n      jump\n        /* \"test.sol\":6872:6958  require(careGiverData[patKey][position].isExist == true, \"EHR-RCG-02: Not registered\") */\n    tag_312:\n        /* \"test.sol\":7002:7050  careGiver(careName,careMobile,careRelation,true) */\n      0x40\n      dup1\n      mload\n      0x80\n      dup2\n      add\n      dup3\n      mstore\n      dup6\n      dup2\n      mstore\n      0x20\n      dup1\n      dup3\n      add\n      dup7\n      swap1\n      mstore\n      dup2\n      dup4\n      add\n      dup6\n      swap1\n      mstore\n        /* \"test.sol\":7045:7049  true */\n      0x01\n        /* \"test.sol\":7002:7050  careGiver(careName,careMobile,careRelation,true) */\n      0x60\n      dup4\n      add\n      mstore\n      0x00\n        /* \"test.sol\":6968:6989  careGiverData[patKey] */\n      dup10\n      dup2\n      mstore\n        /* \"test.sol\":6968:6981  careGiverData */\n      0x0c\n        /* \"test.sol\":6968:6989  careGiverData[patKey] */\n      dup3\n      mstore\n      dup4\n      dup2\n      keccak256\n        /* \"test.sol\":6968:6999  careGiverData[patKey][position] */\n      dup10\n      dup3\n      mstore\n      dup3\n      mstore\n      swap3\n      swap1\n      swap3\n      keccak256\n        /* \"test.sol\":6968:7050  careGiverData[patKey][position] = careGiver(careName,careMobile,careRelation,true) */\n      dup2\n      mload\n      dup1\n      mload\n        /* \"test.sol\":7002:7050  careGiver(careName,careMobile,careRelation,true) */\n      swap3\n      swap4\n        /* \"test.sol\":6968:6999  careGiverData[patKey][position] */\n      swap2\n      swap3\n        /* \"test.sol\":6968:7050  careGiverData[patKey][position] = careGiver(careName,careMobile,careRelation,true) */\n      tag_315\n      swap3\n        /* \"test.sol\":6968:6999  careGiverData[patKey][position] */\n      dup5\n      swap3\n        /* \"test.sol\":6968:7050  careGiverData[patKey][position] = careGiver(careName,careMobile,careRelation,true) */\n      add\n      swap1\n      tag_173\n      jump\t// in\n    tag_315:\n      pop\n      0x20\n      dup3\n      dup2\n      add\n      mload\n      dup1\n      mload\n      tag_316\n      swap3\n      0x01\n      dup6\n      add\n      swap3\n      add\n      swap1\n      tag_173\n      jump\t// in\n    tag_316:\n      pop\n      0x40\n      dup3\n      add\n      mload\n      dup1\n      mload\n      tag_317\n      swap2\n      0x02\n      dup5\n      add\n      swap2\n      0x20\n      swap1\n      swap2\n      add\n      swap1\n      tag_173\n      jump\t// in\n    tag_317:\n      pop\n      0x60\n      swap2\n      dup3\n      add\n      mload\n      0x03\n      swap1\n      swap2\n      add\n      dup1\n      sload\n      not(0xff)\n      and\n      swap2\n      iszero\n      iszero\n      swap2\n      swap1\n      swap2\n      or\n      swap1\n      sstore\n        /* \"test.sol\":7065:7169  patregistration(... */\n      0x40\n      dup1\n      mload\n        /* \"#utility.yul\":22446:22471   */\n      dup9\n      dup2\n      mstore\n        /* \"#utility.yul\":22502:22504   */\n      0x20\n        /* \"#utility.yul\":22487:22505   */\n      dup2\n      add\n        /* \"#utility.yul\":22480:22510   */\n      dup4\n      swap1\n      mstore\n        /* \"#utility.yul\":22546:22548   */\n      0x17\n        /* \"#utility.yul\":22526:22544   */\n      swap3\n      dup2\n      add\n        /* \"#utility.yul\":22519:22549   */\n      swap3\n      swap1\n      swap3\n      mstore\n        /* \"#utility.yul\":22586:22611   */\n      0x4361726567697665722044617461206d6f646966696564000000000000000000\n        /* \"#utility.yul\":22580:22583   */\n      0x80\n        /* \"#utility.yul\":22565:22584   */\n      dup4\n      add\n        /* \"#utility.yul\":22558:22612   */\n      mstore\n        /* \"test.sol\":7153:7168  block.timestamp */\n      timestamp\n        /* \"#utility.yul\":22664:22682   */\n      swap1\n      dup3\n      add\n        /* \"#utility.yul\":22657:22691   */\n      mstore\n      0x00\n      dup1\n      mload\n      0x20\n      data_f1783972c13bbde284b8765b8e27686842dfd940022613858bd0f693b0907129\n      dup4\n      codecopy\n      dup2\n      mload\n      swap2\n      mstore\n        /* \"test.sol\":7065:7169  patregistration(... */\n      swap1\n        /* \"#utility.yul\":22644:22647   */\n      0xa0\n        /* \"#utility.yul\":22629:22648   */\n      add\n        /* \"test.sol\":7065:7169  patregistration(... */\n      tag_176\n        /* \"#utility.yul\":22436:22697   */\n      jump\n        /* \"test.sol\":1242:1291  mapping(uint => patientGeo) public patientLocData */\n    tag_97:\n      mstore(0x20, 0x09)\n      0x00\n      swap1\n      dup2\n      mstore\n      0x40\n      swap1\n      keccak256\n      dup1\n      sload\n      dup2\n      swap1\n      tag_320\n      swap1\n      tag_110\n      jump\t// in\n    tag_320:\n      dup1\n      0x1f\n      add\n      0x20\n      dup1\n      swap2\n      div\n      mul\n      0x20\n      add\n      mload(0x40)\n      swap1\n      dup2\n      add\n      0x40\n      mstore\n      dup1\n      swap3\n      swap2\n      swap1\n      dup2\n      dup2\n      mstore\n      0x20\n      add\n      dup3\n      dup1\n      sload\n      tag_321\n      swap1\n      tag_110\n      jump\t// in\n    tag_321:\n      dup1\n      iszero\n      tag_322\n      jumpi\n      dup1\n      0x1f\n      lt\n      tag_323\n      jumpi\n      0x0100\n      dup1\n      dup4\n      sload\n      div\n      mul\n      dup4\n      mstore\n      swap2\n      0x20\n      add\n      swap2\n      jump(tag_322)\n    tag_323:\n      dup3\n      add\n      swap2\n      swap1\n      0x00\n      mstore\n      keccak256(0x00, 0x20)\n      swap1\n    tag_324:\n      dup2\n      sload\n      dup2\n      mstore\n      swap1\n      0x01\n      add\n      swap1\n      0x20\n      add\n      dup1\n      dup4\n      gt\n      tag_324\n      jumpi\n      dup3\n      swap1\n      sub\n      0x1f\n      and\n      dup3\n      add\n      swap2\n    tag_322:\n      pop\n      pop\n      pop\n      pop\n      pop\n      swap1\n      dup1\n      0x01\n      add\n      dup1\n      sload\n      tag_325\n      swap1\n      tag_110\n      jump\t// in\n    tag_325:\n      dup1\n      0x1f\n      add\n      0x20\n      dup1\n      swap2\n      div\n      mul\n      0x20\n      add\n      mload(0x40)\n      swap1\n      dup2\n      add\n      0x40\n      mstore\n      dup1\n      swap3\n      swap2\n      swap1\n      dup2\n      dup2\n      mstore\n      0x20\n      add\n      dup3\n      dup1\n      sload\n      tag_326\n      swap1\n      tag_110\n      jump\t// in\n    tag_326:\n      dup1\n      iszero\n      tag_327\n      jumpi\n      dup1\n      0x1f\n      lt\n      tag_328\n      jumpi\n      0x0100\n      dup1\n      dup4\n      sload\n      div\n      mul\n      dup4\n      mstore\n      swap2\n      0x20\n      add\n      swap2\n      jump(tag_327)\n    tag_328:\n      dup3\n      add\n      swap2\n      swap1\n      0x00\n      mstore\n      keccak256(0x00, 0x20)\n      swap1\n    tag_329:\n      dup2\n      sload\n      dup2\n      mstore\n      swap1\n      0x01\n      add\n      swap1\n      0x20\n      add\n      dup1\n      dup4\n      gt\n      tag_329\n      jumpi\n      dup3\n      swap1\n      sub\n      0x1f\n      and\n      dup3\n      add\n      swap2\n    tag_327:\n      pop\n      pop\n      pop\n      pop\n      pop\n      swap1\n      dup1\n      0x02\n      add\n      dup1\n      sload\n      tag_330\n      swap1\n      tag_110\n      jump\t// in\n    tag_330:\n      dup1\n      0x1f\n      add\n      0x20\n      dup1\n      swap2\n      div\n      mul\n      0x20\n      add\n      mload(0x40)\n      swap1\n      dup2\n      add\n      0x40\n      mstore\n      dup1\n      swap3\n      swap2\n      swap1\n      dup2\n      dup2\n      mstore\n      0x20\n      add\n      dup3\n      dup1\n      sload\n      tag_331\n      swap1\n      tag_110\n      jump\t// in\n    tag_331:\n      dup1\n      iszero\n      tag_332\n      jumpi\n      dup1\n      0x1f\n      lt\n      tag_333\n      jumpi\n      0x0100\n      dup1\n      dup4\n      sload\n      div\n      mul\n      dup4\n      mstore\n      swap2\n      0x20\n      add\n      swap2\n      jump(tag_332)\n    tag_333:\n      dup3\n      add\n      swap2\n      swap1\n      0x00\n      mstore\n      keccak256(0x00, 0x20)\n      swap1\n    tag_334:\n      dup2\n      sload\n      dup2\n      mstore\n      swap1\n      0x01\n      add\n      swap1\n      0x20\n      add\n      dup1\n      dup4\n      gt\n      tag_334\n      jumpi\n      dup3\n      swap1\n      sub\n      0x1f\n      and\n      dup3\n      add\n      swap2\n    tag_332:\n      pop\n      pop\n      pop\n      pop\n      pop\n      swap1\n      dup1\n      0x03\n      add\n      dup1\n      sload\n      tag_335\n      swap1\n      tag_110\n      jump\t// in\n    tag_335:\n      dup1\n      0x1f\n      add\n      0x20\n      dup1\n      swap2\n      div\n      mul\n      0x20\n      add\n      mload(0x40)\n      swap1\n      dup2\n      add\n      0x40\n      mstore\n      dup1\n      swap3\n      swap2\n      swap1\n      dup2\n      dup2\n      mstore\n      0x20\n      add\n      dup3\n      dup1\n      sload\n      tag_336\n      swap1\n      tag_110\n      jump\t// in\n    tag_336:\n      dup1\n      iszero\n      tag_337\n      jumpi\n      dup1\n      0x1f\n      lt\n      tag_338\n      jumpi\n      0x0100\n      dup1\n      dup4\n      sload\n      div\n      mul\n      dup4\n      mstore\n      swap2\n      0x20\n      add\n      swap2\n      jump(tag_337)\n    tag_338:\n      dup3\n      add\n      swap2\n      swap1\n      0x00\n      mstore\n      keccak256(0x00, 0x20)\n      swap1\n    tag_339:\n      dup2\n      sload\n      dup2\n      mstore\n      swap1\n      0x01\n      add\n      swap1\n      0x20\n      add\n      dup1\n      dup4\n      gt\n      tag_339\n      jumpi\n      dup3\n      swap1\n      sub\n      0x1f\n      and\n      dup3\n      add\n      swap2\n    tag_337:\n      pop\n      pop\n      pop\n      pop\n      pop\n      swap1\n      dup1\n      0x04\n      add\n      sload\n      swap1\n      pop\n      dup6\n      jump\t// out\n    tag_173:\n      dup3\n      dup1\n      sload\n      tag_340\n      swap1\n      tag_110\n      jump\t// in\n    tag_340:\n      swap1\n      0x00\n      mstore\n      keccak256(0x00, 0x20)\n      swap1\n      0x1f\n      add\n      0x20\n      swap1\n      div\n      dup2\n      add\n      swap3\n      dup3\n      tag_342\n      jumpi\n      0x00\n      dup6\n      sstore\n      jump(tag_345)\n    tag_342:\n      dup3\n      0x1f\n      lt\n      tag_343\n      jumpi\n      dup1\n      mload\n      not(0xff)\n      and\n      dup4\n      dup1\n      add\n      or\n      dup6\n      sstore\n      jump(tag_345)\n    tag_343:\n      dup3\n      dup1\n      add\n      0x01\n      add\n      dup6\n      sstore\n      dup3\n      iszero\n      tag_345\n      jumpi\n      swap2\n      dup3\n      add\n    tag_344:\n      dup3\n      dup2\n      gt\n      iszero\n      tag_345\n      jumpi\n      dup3\n      mload\n      dup3\n      sstore\n      swap2\n      0x20\n      add\n      swap2\n      swap1\n      0x01\n      add\n      swap1\n      jump(tag_344)\n    tag_345:\n      pop\n      tag_346\n      swap3\n      swap2\n      pop\n      tag_347\n      jump\t// in\n    tag_346:\n      pop\n      swap1\n      jump\t// out\n    tag_347:\n    tag_348:\n      dup1\n      dup3\n      gt\n      iszero\n      tag_346\n      jumpi\n      0x00\n      dup2\n      sstore\n      0x01\n      add\n      jump(tag_348)\n        /* \"#utility.yul\":14:165   */\n    tag_351:\n        /* \"#utility.yul\":90:110   */\n      dup1\n      calldataload\n        /* \"#utility.yul\":139:140   */\n      0x05\n        /* \"#utility.yul\":129:141   */\n      dup2\n      lt\n        /* \"#utility.yul\":119:121   */\n      tag_353\n      jumpi\n        /* \"#utility.yul\":155:156   */\n      0x00\n        /* \"#utility.yul\":152:153   */\n      dup1\n        /* \"#utility.yul\":145:157   */\n      revert\n        /* \"#utility.yul\":119:121   */\n    tag_353:\n        /* \"#utility.yul\":71:165   */\n      swap2\n      swap1\n      pop\n      jump\t// out\n        /* \"#utility.yul\":170:314   */\n    tag_354:\n        /* \"#utility.yul\":239:259   */\n      dup1\n      calldataload\n        /* \"#utility.yul\":288:289   */\n      0x03\n        /* \"#utility.yul\":278:290   */\n      dup2\n      lt\n        /* \"#utility.yul\":268:270   */\n      tag_353\n      jumpi\n        /* \"#utility.yul\":304:305   */\n      0x00\n        /* \"#utility.yul\":301:302   */\n      dup1\n        /* \"#utility.yul\":294:306   */\n      revert\n        /* \"#utility.yul\":319:461   */\n    tag_357:\n        /* \"#utility.yul\":391:411   */\n      dup1\n      calldataload\n        /* \"#utility.yul\":420:455   */\n      tag_353\n        /* \"#utility.yul\":391:411   */\n      dup2\n        /* \"#utility.yul\":420:455   */\n      tag_360\n      jump\t// in\n        /* \"#utility.yul\":466:1205   */\n    tag_361:\n        /* \"#utility.yul\":509:514   */\n      0x00\n        /* \"#utility.yul\":562:565   */\n      dup3\n        /* \"#utility.yul\":555:559   */\n      0x1f\n        /* \"#utility.yul\":547:553   */\n      dup4\n        /* \"#utility.yul\":543:560   */\n      add\n        /* \"#utility.yul\":539:566   */\n      slt\n        /* \"#utility.yul\":529:531   */\n      tag_363\n      jumpi\n        /* \"#utility.yul\":584:589   */\n      dup1\n        /* \"#utility.yul\":577:582   */\n      dup2\n        /* \"#utility.yul\":570:590   */\n      revert\n        /* \"#utility.yul\":529:531   */\n    tag_363:\n        /* \"#utility.yul\":624:630   */\n      dup2\n        /* \"#utility.yul\":611:631   */\n      calldataload\n        /* \"#utility.yul\":650:668   */\n      0xffffffffffffffff\n        /* \"#utility.yul\":687:689   */\n      dup1\n        /* \"#utility.yul\":683:685   */\n      dup3\n        /* \"#utility.yul\":680:690   */\n      gt\n        /* \"#utility.yul\":677:679   */\n      iszero\n      tag_365\n      jumpi\n        /* \"#utility.yul\":693:711   */\n      tag_365\n      tag_366\n      jump\t// in\n    tag_365:\n        /* \"#utility.yul\":768:770   */\n      0x40\n        /* \"#utility.yul\":762:771   */\n      mload\n        /* \"#utility.yul\":736:738   */\n      0x1f\n        /* \"#utility.yul\":822:835   */\n      dup4\n      add\n      not(0x1f)\n        /* \"#utility.yul\":818:840   */\n      swap1\n      dup2\n      and\n        /* \"#utility.yul\":842:844   */\n      0x3f\n        /* \"#utility.yul\":814:845   */\n      add\n        /* \"#utility.yul\":810:850   */\n      and\n        /* \"#utility.yul\":798:851   */\n      dup2\n      add\n      swap1\n        /* \"#utility.yul\":866:884   */\n      dup3\n      dup3\n      gt\n        /* \"#utility.yul\":886:908   */\n      dup2\n      dup4\n      lt\n        /* \"#utility.yul\":863:909   */\n      or\n        /* \"#utility.yul\":860:862   */\n      iszero\n      tag_368\n      jumpi\n        /* \"#utility.yul\":912:930   */\n      tag_368\n      tag_366\n      jump\t// in\n    tag_368:\n        /* \"#utility.yul\":952:962   */\n      dup2\n        /* \"#utility.yul\":948:950   */\n      0x40\n        /* \"#utility.yul\":941:963   */\n      mstore\n        /* \"#utility.yul\":987:989   */\n      dup4\n        /* \"#utility.yul\":979:985   */\n      dup2\n        /* \"#utility.yul\":972:990   */\n      mstore\n        /* \"#utility.yul\":1033:1036   */\n      dup7\n        /* \"#utility.yul\":1026:1030   */\n      0x20\n        /* \"#utility.yul\":1021:1023   */\n      dup6\n        /* \"#utility.yul\":1013:1019   */\n      dup9\n        /* \"#utility.yul\":1009:1024   */\n      add\n        /* \"#utility.yul\":1005:1031   */\n      add\n        /* \"#utility.yul\":1002:1037   */\n      gt\n        /* \"#utility.yul\":999:1001   */\n      iszero\n      tag_369\n      jumpi\n        /* \"#utility.yul\":1054:1059   */\n      dup5\n        /* \"#utility.yul\":1047:1052   */\n      dup6\n        /* \"#utility.yul\":1040:1060   */\n      revert\n        /* \"#utility.yul\":999:1001   */\n    tag_369:\n        /* \"#utility.yul\":1122:1124   */\n      dup4\n        /* \"#utility.yul\":1115:1119   */\n      0x20\n        /* \"#utility.yul\":1107:1113   */\n      dup8\n        /* \"#utility.yul\":1103:1120   */\n      add\n        /* \"#utility.yul\":1096:1100   */\n      0x20\n        /* \"#utility.yul\":1088:1094   */\n      dup4\n        /* \"#utility.yul\":1084:1101   */\n      add\n        /* \"#utility.yul\":1071:1125   */\n      calldatacopy\n        /* \"#utility.yul\":1145:1160   */\n      swap3\n      dup4\n      add\n        /* \"#utility.yul\":1162:1166   */\n      0x20\n        /* \"#utility.yul\":1141:1167   */\n      add\n        /* \"#utility.yul\":1134:1175   */\n      swap4\n      swap1\n      swap4\n      mstore\n      pop\n        /* \"#utility.yul\":1149:1155   */\n      swap4\n        /* \"#utility.yul\":519:1205   */\n      swap3\n      pop\n      pop\n      pop\n      jump\t// out\n        /* \"#utility.yul\":1210:2360   */\n    tag_90:\n        /* \"#utility.yul\":1361:1367   */\n      0x00\n        /* \"#utility.yul\":1369:1375   */\n      dup1\n        /* \"#utility.yul\":1377:1383   */\n      0x00\n        /* \"#utility.yul\":1385:1391   */\n      dup1\n        /* \"#utility.yul\":1393:1399   */\n      0x00\n        /* \"#utility.yul\":1446:1449   */\n      0xa0\n        /* \"#utility.yul\":1434:1443   */\n      dup7\n        /* \"#utility.yul\":1425:1432   */\n      dup9\n        /* \"#utility.yul\":1421:1444   */\n      sub\n        /* \"#utility.yul\":1417:1450   */\n      slt\n        /* \"#utility.yul\":1414:1416   */\n      iszero\n      tag_371\n      jumpi\n        /* \"#utility.yul\":1468:1474   */\n      dup1\n        /* \"#utility.yul\":1460:1466   */\n      dup2\n        /* \"#utility.yul\":1453:1475   */\n      revert\n        /* \"#utility.yul\":1414:1416   */\n    tag_371:\n        /* \"#utility.yul\":1513:1522   */\n      dup6\n        /* \"#utility.yul\":1500:1523   */\n      calldataload\n        /* \"#utility.yul\":1542:1560   */\n      0xffffffffffffffff\n        /* \"#utility.yul\":1583:1585   */\n      dup1\n        /* \"#utility.yul\":1575:1581   */\n      dup3\n        /* \"#utility.yul\":1572:1586   */\n      gt\n        /* \"#utility.yul\":1569:1571   */\n      iszero\n      tag_372\n      jumpi\n        /* \"#utility.yul\":1604:1610   */\n      dup3\n        /* \"#utility.yul\":1596:1602   */\n      dup4\n        /* \"#utility.yul\":1589:1611   */\n      revert\n        /* \"#utility.yul\":1569:1571   */\n    tag_372:\n        /* \"#utility.yul\":1632:1682   */\n      tag_373\n        /* \"#utility.yul\":1674:1681   */\n      dup10\n        /* \"#utility.yul\":1665:1671   */\n      dup4\n        /* \"#utility.yul\":1654:1663   */\n      dup11\n        /* \"#utility.yul\":1650:1672   */\n      add\n        /* \"#utility.yul\":1632:1682   */\n      tag_361\n      jump\t// in\n    tag_373:\n        /* \"#utility.yul\":1622:1682   */\n      swap7\n      pop\n        /* \"#utility.yul\":1735:1737   */\n      0x20\n        /* \"#utility.yul\":1724:1733   */\n      dup9\n        /* \"#utility.yul\":1720:1738   */\n      add\n        /* \"#utility.yul\":1707:1739   */\n      calldataload\n        /* \"#utility.yul\":1691:1739   */\n      swap2\n      pop\n        /* \"#utility.yul\":1764:1766   */\n      dup1\n        /* \"#utility.yul\":1754:1762   */\n      dup3\n        /* \"#utility.yul\":1751:1767   */\n      gt\n        /* \"#utility.yul\":1748:1750   */\n      iszero\n      tag_374\n      jumpi\n        /* \"#utility.yul\":1785:1791   */\n      dup3\n        /* \"#utility.yul\":1777:1783   */\n      dup4\n        /* \"#utility.yul\":1770:1792   */\n      revert\n        /* \"#utility.yul\":1748:1750   */\n    tag_374:\n        /* \"#utility.yul\":1813:1865   */\n      tag_375\n        /* \"#utility.yul\":1857:1864   */\n      dup10\n        /* \"#utility.yul\":1846:1854   */\n      dup4\n        /* \"#utility.yul\":1835:1844   */\n      dup11\n        /* \"#utility.yul\":1831:1855   */\n      add\n        /* \"#utility.yul\":1813:1865   */\n      tag_361\n      jump\t// in\n    tag_375:\n        /* \"#utility.yul\":1803:1865   */\n      swap6\n      pop\n        /* \"#utility.yul\":1918:1920   */\n      0x40\n        /* \"#utility.yul\":1907:1916   */\n      dup9\n        /* \"#utility.yul\":1903:1921   */\n      add\n        /* \"#utility.yul\":1890:1922   */\n      calldataload\n        /* \"#utility.yul\":1874:1922   */\n      swap2\n      pop\n        /* \"#utility.yul\":1947:1949   */\n      dup1\n        /* \"#utility.yul\":1937:1945   */\n      dup3\n        /* \"#utility.yul\":1934:1950   */\n      gt\n        /* \"#utility.yul\":1931:1933   */\n      iszero\n      tag_376\n      jumpi\n        /* \"#utility.yul\":1968:1974   */\n      dup3\n        /* \"#utility.yul\":1960:1966   */\n      dup4\n        /* \"#utility.yul\":1953:1975   */\n      revert\n        /* \"#utility.yul\":1931:1933   */\n    tag_376:\n        /* \"#utility.yul\":1996:2048   */\n      tag_377\n        /* \"#utility.yul\":2040:2047   */\n      dup10\n        /* \"#utility.yul\":2029:2037   */\n      dup4\n        /* \"#utility.yul\":2018:2027   */\n      dup11\n        /* \"#utility.yul\":2014:2038   */\n      add\n        /* \"#utility.yul\":1996:2048   */\n      tag_361\n      jump\t// in\n    tag_377:\n        /* \"#utility.yul\":1986:2048   */\n      swap5\n      pop\n        /* \"#utility.yul\":2101:2103   */\n      0x60\n        /* \"#utility.yul\":2090:2099   */\n      dup9\n        /* \"#utility.yul\":2086:2104   */\n      add\n        /* \"#utility.yul\":2073:2105   */\n      calldataload\n        /* \"#utility.yul\":2057:2105   */\n      swap2\n      pop\n        /* \"#utility.yul\":2130:2132   */\n      dup1\n        /* \"#utility.yul\":2120:2128   */\n      dup3\n        /* \"#utility.yul\":2117:2133   */\n      gt\n        /* \"#utility.yul\":2114:2116   */\n      iszero\n      tag_378\n      jumpi\n        /* \"#utility.yul\":2151:2157   */\n      dup3\n        /* \"#utility.yul\":2143:2149   */\n      dup4\n        /* \"#utility.yul\":2136:2158   */\n      revert\n        /* \"#utility.yul\":2114:2116   */\n    tag_378:\n      pop\n        /* \"#utility.yul\":2179:2231   */\n      tag_379\n        /* \"#utility.yul\":2223:2230   */\n      dup9\n        /* \"#utility.yul\":2212:2220   */\n      dup3\n        /* \"#utility.yul\":2201:2210   */\n      dup10\n        /* \"#utility.yul\":2197:2221   */\n      add\n        /* \"#utility.yul\":2179:2231   */\n      tag_361\n      jump\t// in\n    tag_379:\n        /* \"#utility.yul\":2169:2231   */\n      swap3\n      pop\n      pop\n        /* \"#utility.yul\":2281:2284   */\n      0x80\n        /* \"#utility.yul\":2270:2279   */\n      dup7\n        /* \"#utility.yul\":2266:2285   */\n      add\n        /* \"#utility.yul\":2253:2286   */\n      calldataload\n        /* \"#utility.yul\":2295:2330   */\n      tag_380\n        /* \"#utility.yul\":2324:2329   */\n      dup2\n        /* \"#utility.yul\":2295:2330   */\n      tag_360\n      jump\t// in\n    tag_380:\n        /* \"#utility.yul\":2349:2354   */\n      dup1\n        /* \"#utility.yul\":2339:2354   */\n      swap2\n      pop\n      pop\n        /* \"#utility.yul\":1404:2360   */\n      swap3\n      swap6\n      pop\n      swap3\n      swap6\n      swap1\n      swap4\n      pop\n      jump\t// out\n        /* \"#utility.yul\":2365:3847   */\n    tag_82:\n        /* \"#utility.yul\":2576:2582   */\n      0x00\n        /* \"#utility.yul\":2584:2590   */\n      dup1\n        /* \"#utility.yul\":2592:2598   */\n      0x00\n        /* \"#utility.yul\":2600:2606   */\n      dup1\n        /* \"#utility.yul\":2608:2614   */\n      0x00\n        /* \"#utility.yul\":2616:2622   */\n      dup1\n        /* \"#utility.yul\":2624:2630   */\n      0x00\n        /* \"#utility.yul\":2632:2638   */\n      dup1\n        /* \"#utility.yul\":2685:2688   */\n      0x0100\n        /* \"#utility.yul\":2673:2682   */\n      dup10\n        /* \"#utility.yul\":2664:2671   */\n      dup12\n        /* \"#utility.yul\":2660:2683   */\n      sub\n        /* \"#utility.yul\":2656:2689   */\n      slt\n        /* \"#utility.yul\":2653:2655   */\n      iszero\n      tag_382\n      jumpi\n        /* \"#utility.yul\":2707:2713   */\n      dup3\n        /* \"#utility.yul\":2699:2705   */\n      dup4\n        /* \"#utility.yul\":2692:2714   */\n      revert\n        /* \"#utility.yul\":2653:2655   */\n    tag_382:\n        /* \"#utility.yul\":2752:2761   */\n      dup9\n        /* \"#utility.yul\":2739:2762   */\n      calldataload\n        /* \"#utility.yul\":2781:2799   */\n      0xffffffffffffffff\n        /* \"#utility.yul\":2822:2824   */\n      dup1\n        /* \"#utility.yul\":2814:2820   */\n      dup3\n        /* \"#utility.yul\":2811:2825   */\n      gt\n        /* \"#utility.yul\":2808:2810   */\n      iszero\n      tag_383\n      jumpi\n        /* \"#utility.yul\":2843:2849   */\n      dup5\n        /* \"#utility.yul\":2835:2841   */\n      dup6\n        /* \"#utility.yul\":2828:2850   */\n      revert\n        /* \"#utility.yul\":2808:2810   */\n    tag_383:\n        /* \"#utility.yul\":2871:2921   */\n      tag_384\n        /* \"#utility.yul\":2913:2920   */\n      dup13\n        /* \"#utility.yul\":2904:2910   */\n      dup4\n        /* \"#utility.yul\":2893:2902   */\n      dup14\n        /* \"#utility.yul\":2889:2911   */\n      add\n        /* \"#utility.yul\":2871:2921   */\n      tag_361\n      jump\t// in\n    tag_384:\n        /* \"#utility.yul\":2861:2921   */\n      swap10\n      pop\n        /* \"#utility.yul\":2974:2976   */\n      0x20\n        /* \"#utility.yul\":2963:2972   */\n      dup12\n        /* \"#utility.yul\":2959:2977   */\n      add\n        /* \"#utility.yul\":2946:2978   */\n      calldataload\n        /* \"#utility.yul\":2930:2978   */\n      swap2\n      pop\n        /* \"#utility.yul\":3003:3005   */\n      dup1\n        /* \"#utility.yul\":2993:3001   */\n      dup3\n        /* \"#utility.yul\":2990:3006   */\n      gt\n        /* \"#utility.yul\":2987:2989   */\n      iszero\n      tag_385\n      jumpi\n        /* \"#utility.yul\":3024:3030   */\n      dup5\n        /* \"#utility.yul\":3016:3022   */\n      dup6\n        /* \"#utility.yul\":3009:3031   */\n      revert\n        /* \"#utility.yul\":2987:2989   */\n    tag_385:\n        /* \"#utility.yul\":3052:3104   */\n      tag_386\n        /* \"#utility.yul\":3096:3103   */\n      dup13\n        /* \"#utility.yul\":3085:3093   */\n      dup4\n        /* \"#utility.yul\":3074:3083   */\n      dup14\n        /* \"#utility.yul\":3070:3094   */\n      add\n        /* \"#utility.yul\":3052:3104   */\n      tag_361\n      jump\t// in\n    tag_386:\n        /* \"#utility.yul\":3042:3104   */\n      swap9\n      pop\n        /* \"#utility.yul\":3157:3159   */\n      0x40\n        /* \"#utility.yul\":3146:3155   */\n      dup12\n        /* \"#utility.yul\":3142:3160   */\n      add\n        /* \"#utility.yul\":3129:3161   */\n      calldataload\n        /* \"#utility.yul\":3113:3161   */\n      swap2\n      pop\n        /* \"#utility.yul\":3186:3188   */\n      dup1\n        /* \"#utility.yul\":3176:3184   */\n      dup3\n        /* \"#utility.yul\":3173:3189   */\n      gt\n        /* \"#utility.yul\":3170:3172   */\n      iszero\n      tag_387\n      jumpi\n        /* \"#utility.yul\":3207:3213   */\n      dup5\n        /* \"#utility.yul\":3199:3205   */\n      dup6\n        /* \"#utility.yul\":3192:3214   */\n      revert\n        /* \"#utility.yul\":3170:3172   */\n    tag_387:\n        /* \"#utility.yul\":3235:3287   */\n      tag_388\n        /* \"#utility.yul\":3279:3286   */\n      dup13\n        /* \"#utility.yul\":3268:3276   */\n      dup4\n        /* \"#utility.yul\":3257:3266   */\n      dup14\n        /* \"#utility.yul\":3253:3277   */\n      add\n        /* \"#utility.yul\":3235:3287   */\n      tag_361\n      jump\t// in\n    tag_388:\n        /* \"#utility.yul\":3225:3287   */\n      swap8\n      pop\n        /* \"#utility.yul\":3340:3342   */\n      0x60\n        /* \"#utility.yul\":3329:3338   */\n      dup12\n        /* \"#utility.yul\":3325:3343   */\n      add\n        /* \"#utility.yul\":3312:3344   */\n      calldataload\n        /* \"#utility.yul\":3296:3344   */\n      swap2\n      pop\n        /* \"#utility.yul\":3369:3371   */\n      dup1\n        /* \"#utility.yul\":3359:3367   */\n      dup3\n        /* \"#utility.yul\":3356:3372   */\n      gt\n        /* \"#utility.yul\":3353:3355   */\n      iszero\n      tag_389\n      jumpi\n        /* \"#utility.yul\":3390:3396   */\n      dup5\n        /* \"#utility.yul\":3382:3388   */\n      dup6\n        /* \"#utility.yul\":3375:3397   */\n      revert\n        /* \"#utility.yul\":3353:3355   */\n    tag_389:\n        /* \"#utility.yul\":3418:3470   */\n      tag_390\n        /* \"#utility.yul\":3462:3469   */\n      dup13\n        /* \"#utility.yul\":3451:3459   */\n      dup4\n        /* \"#utility.yul\":3440:3449   */\n      dup14\n        /* \"#utility.yul\":3436:3460   */\n      add\n        /* \"#utility.yul\":3418:3470   */\n      tag_361\n      jump\t// in\n    tag_390:\n        /* \"#utility.yul\":3408:3470   */\n      swap7\n      pop\n        /* \"#utility.yul\":3523:3526   */\n      0x80\n        /* \"#utility.yul\":3512:3521   */\n      dup12\n        /* \"#utility.yul\":3508:3527   */\n      add\n        /* \"#utility.yul\":3495:3528   */\n      calldataload\n        /* \"#utility.yul\":3479:3528   */\n      swap2\n      pop\n        /* \"#utility.yul\":3553:3555   */\n      dup1\n        /* \"#utility.yul\":3543:3551   */\n      dup3\n        /* \"#utility.yul\":3540:3556   */\n      gt\n        /* \"#utility.yul\":3537:3539   */\n      iszero\n      tag_391\n      jumpi\n        /* \"#utility.yul\":3574:3580   */\n      dup5\n        /* \"#utility.yul\":3566:3572   */\n      dup6\n        /* \"#utility.yul\":3559:3581   */\n      revert\n        /* \"#utility.yul\":3537:3539   */\n    tag_391:\n      pop\n        /* \"#utility.yul\":3602:3654   */\n      tag_392\n        /* \"#utility.yul\":3646:3653   */\n      dup12\n        /* \"#utility.yul\":3635:3643   */\n      dup3\n        /* \"#utility.yul\":3624:3633   */\n      dup13\n        /* \"#utility.yul\":3620:3644   */\n      add\n        /* \"#utility.yul\":3602:3654   */\n      tag_361\n      jump\t// in\n    tag_392:\n        /* \"#utility.yul\":3592:3654   */\n      swap5\n      pop\n      pop\n        /* \"#utility.yul\":3673:3720   */\n      tag_393\n        /* \"#utility.yul\":3715:3718   */\n      0xa0\n        /* \"#utility.yul\":3704:3713   */\n      dup11\n        /* \"#utility.yul\":3700:3719   */\n      add\n        /* \"#utility.yul\":3673:3720   */\n      tag_351\n      jump\t// in\n    tag_393:\n        /* \"#utility.yul\":3663:3720   */\n      swap3\n      pop\n        /* \"#utility.yul\":3739:3779   */\n      tag_394\n        /* \"#utility.yul\":3774:3777   */\n      0xc0\n        /* \"#utility.yul\":3763:3772   */\n      dup11\n        /* \"#utility.yul\":3759:3778   */\n      add\n        /* \"#utility.yul\":3739:3779   */\n      tag_354\n      jump\t// in\n    tag_394:\n        /* \"#utility.yul\":3729:3779   */\n      swap2\n      pop\n        /* \"#utility.yul\":3798:3841   */\n      tag_395\n        /* \"#utility.yul\":3836:3839   */\n      0xe0\n        /* \"#utility.yul\":3825:3834   */\n      dup11\n        /* \"#utility.yul\":3821:3840   */\n      add\n        /* \"#utility.yul\":3798:3841   */\n      tag_357\n      jump\t// in\n    tag_395:\n        /* \"#utility.yul\":3788:3841   */\n      swap1\n      pop\n        /* \"#utility.yul\":2643:3847   */\n      swap3\n      swap6\n      swap9\n      pop\n      swap3\n      swap6\n      swap9\n      swap1\n      swap4\n      swap7\n      pop\n      jump\t// out\n        /* \"#utility.yul\":3852:4984   */\n    tag_86:\n        /* \"#utility.yul\":3996:4002   */\n      0x00\n        /* \"#utility.yul\":4004:4010   */\n      dup1\n        /* \"#utility.yul\":4012:4018   */\n      0x00\n        /* \"#utility.yul\":4020:4026   */\n      dup1\n        /* \"#utility.yul\":4028:4034   */\n      0x00\n        /* \"#utility.yul\":4036:4042   */\n      dup1\n        /* \"#utility.yul\":4089:4092   */\n      0xc0\n        /* \"#utility.yul\":4077:4086   */\n      dup8\n        /* \"#utility.yul\":4068:4075   */\n      dup10\n        /* \"#utility.yul\":4064:4087   */\n      sub\n        /* \"#utility.yul\":4060:4093   */\n      slt\n        /* \"#utility.yul\":4057:4059   */\n      iszero\n      tag_397\n      jumpi\n        /* \"#utility.yul\":4111:4117   */\n      dup2\n        /* \"#utility.yul\":4103:4109   */\n      dup3\n        /* \"#utility.yul\":4096:4118   */\n      revert\n        /* \"#utility.yul\":4057:4059   */\n    tag_397:\n        /* \"#utility.yul\":4156:4165   */\n      dup7\n        /* \"#utility.yul\":4143:4166   */\n      calldataload\n        /* \"#utility.yul\":4185:4203   */\n      0xffffffffffffffff\n        /* \"#utility.yul\":4226:4228   */\n      dup1\n        /* \"#utility.yul\":4218:4224   */\n      dup3\n        /* \"#utility.yul\":4215:4229   */\n      gt\n        /* \"#utility.yul\":4212:4214   */\n      iszero\n      tag_398\n      jumpi\n        /* \"#utility.yul\":4247:4253   */\n      dup4\n        /* \"#utility.yul\":4239:4245   */\n      dup5\n        /* \"#utility.yul\":4232:4254   */\n      revert\n        /* \"#utility.yul\":4212:4214   */\n    tag_398:\n        /* \"#utility.yul\":4275:4325   */\n      tag_399\n        /* \"#utility.yul\":4317:4324   */\n      dup11\n        /* \"#utility.yul\":4308:4314   */\n      dup4\n        /* \"#utility.yul\":4297:4306   */\n      dup12\n        /* \"#utility.yul\":4293:4315   */\n      add\n        /* \"#utility.yul\":4275:4325   */\n      tag_361\n      jump\t// in\n    tag_399:\n        /* \"#utility.yul\":4265:4325   */\n      swap8\n      pop\n        /* \"#utility.yul\":4378:4380   */\n      0x20\n        /* \"#utility.yul\":4367:4376   */\n      dup10\n        /* \"#utility.yul\":4363:4381   */\n      add\n        /* \"#utility.yul\":4350:4382   */\n      calldataload\n        /* \"#utility.yul\":4334:4382   */\n      swap2\n      pop\n        /* \"#utility.yul\":4407:4409   */\n      dup1\n        /* \"#utility.yul\":4397:4405   */\n      dup3\n        /* \"#utility.yul\":4394:4410   */\n      gt\n        /* \"#utility.yul\":4391:4393   */\n      iszero\n      tag_400\n      jumpi\n        /* \"#utility.yul\":4428:4434   */\n      dup4\n        /* \"#utility.yul\":4420:4426   */\n      dup5\n        /* \"#utility.yul\":4413:4435   */\n      revert\n        /* \"#utility.yul\":4391:4393   */\n    tag_400:\n        /* \"#utility.yul\":4456:4508   */\n      tag_401\n        /* \"#utility.yul\":4500:4507   */\n      dup11\n        /* \"#utility.yul\":4489:4497   */\n      dup4\n        /* \"#utility.yul\":4478:4487   */\n      dup12\n        /* \"#utility.yul\":4474:4498   */\n      add\n        /* \"#utility.yul\":4456:4508   */\n      tag_361\n      jump\t// in\n    tag_401:\n        /* \"#utility.yul\":4446:4508   */\n      swap7\n      pop\n        /* \"#utility.yul\":4561:4563   */\n      0x40\n        /* \"#utility.yul\":4550:4559   */\n      dup10\n        /* \"#utility.yul\":4546:4564   */\n      add\n        /* \"#utility.yul\":4533:4565   */\n      calldataload\n        /* \"#utility.yul\":4517:4565   */\n      swap2\n      pop\n        /* \"#utility.yul\":4590:4592   */\n      dup1\n        /* \"#utility.yul\":4580:4588   */\n      dup3\n        /* \"#utility.yul\":4577:4593   */\n      gt\n        /* \"#utility.yul\":4574:4576   */\n      iszero\n      tag_402\n      jumpi\n        /* \"#utility.yul\":4611:4617   */\n      dup4\n        /* \"#utility.yul\":4603:4609   */\n      dup5\n        /* \"#utility.yul\":4596:4618   */\n      revert\n        /* \"#utility.yul\":4574:4576   */\n    tag_402:\n        /* \"#utility.yul\":4639:4691   */\n      tag_403\n        /* \"#utility.yul\":4683:4690   */\n      dup11\n        /* \"#utility.yul\":4672:4680   */\n      dup4\n        /* \"#utility.yul\":4661:4670   */\n      dup12\n        /* \"#utility.yul\":4657:4681   */\n      add\n        /* \"#utility.yul\":4639:4691   */\n      tag_361\n      jump\t// in\n    tag_403:\n        /* \"#utility.yul\":4629:4691   */\n      swap6\n      pop\n        /* \"#utility.yul\":4744:4746   */\n      0x60\n        /* \"#utility.yul\":4733:4742   */\n      dup10\n        /* \"#utility.yul\":4729:4747   */\n      add\n        /* \"#utility.yul\":4716:4748   */\n      calldataload\n        /* \"#utility.yul\":4700:4748   */\n      swap2\n      pop\n        /* \"#utility.yul\":4773:4775   */\n      dup1\n        /* \"#utility.yul\":4763:4771   */\n      dup3\n        /* \"#utility.yul\":4760:4776   */\n      gt\n        /* \"#utility.yul\":4757:4759   */\n      iszero\n      tag_404\n      jumpi\n        /* \"#utility.yul\":4794:4800   */\n      dup4\n        /* \"#utility.yul\":4786:4792   */\n      dup5\n        /* \"#utility.yul\":4779:4801   */\n      revert\n        /* \"#utility.yul\":4757:4759   */\n    tag_404:\n      pop\n        /* \"#utility.yul\":4822:4874   */\n      tag_405\n        /* \"#utility.yul\":4866:4873   */\n      dup10\n        /* \"#utility.yul\":4855:4863   */\n      dup3\n        /* \"#utility.yul\":4844:4853   */\n      dup11\n        /* \"#utility.yul\":4840:4864   */\n      add\n        /* \"#utility.yul\":4822:4874   */\n      tag_361\n      jump\t// in\n    tag_405:\n        /* \"#utility.yul\":4812:4874   */\n      swap4\n      pop\n      pop\n        /* \"#utility.yul\":4921:4924   */\n      0x80\n        /* \"#utility.yul\":4910:4919   */\n      dup8\n        /* \"#utility.yul\":4906:4925   */\n      add\n        /* \"#utility.yul\":4893:4926   */\n      calldataload\n        /* \"#utility.yul\":4883:4926   */\n      swap2\n      pop\n        /* \"#utility.yul\":4973:4976   */\n      0xa0\n        /* \"#utility.yul\":4962:4971   */\n      dup8\n        /* \"#utility.yul\":4958:4977   */\n      add\n        /* \"#utility.yul\":4945:4978   */\n      calldataload\n        /* \"#utility.yul\":4935:4978   */\n      swap1\n      pop\n        /* \"#utility.yul\":4047:4984   */\n      swap3\n      swap6\n      pop\n      swap3\n      swap6\n      pop\n      swap3\n      swap6\n      jump\t// out\n        /* \"#utility.yul\":4989:5768   */\n    tag_78:\n        /* \"#utility.yul\":5104:5110   */\n      0x00\n        /* \"#utility.yul\":5112:5118   */\n      dup1\n        /* \"#utility.yul\":5120:5126   */\n      0x00\n        /* \"#utility.yul\":5128:5134   */\n      dup1\n        /* \"#utility.yul\":5136:5142   */\n      0x00\n        /* \"#utility.yul\":5189:5192   */\n      0xa0\n        /* \"#utility.yul\":5177:5186   */\n      dup7\n        /* \"#utility.yul\":5168:5175   */\n      dup9\n        /* \"#utility.yul\":5164:5187   */\n      sub\n        /* \"#utility.yul\":5160:5193   */\n      slt\n        /* \"#utility.yul\":5157:5159   */\n      iszero\n      tag_407\n      jumpi\n        /* \"#utility.yul\":5211:5217   */\n      dup1\n        /* \"#utility.yul\":5203:5209   */\n      dup2\n        /* \"#utility.yul\":5196:5218   */\n      revert\n        /* \"#utility.yul\":5157:5159   */\n    tag_407:\n        /* \"#utility.yul\":5256:5265   */\n      dup6\n        /* \"#utility.yul\":5243:5266   */\n      calldataload\n        /* \"#utility.yul\":5285:5303   */\n      0xffffffffffffffff\n        /* \"#utility.yul\":5326:5328   */\n      dup1\n        /* \"#utility.yul\":5318:5324   */\n      dup3\n        /* \"#utility.yul\":5315:5329   */\n      gt\n        /* \"#utility.yul\":5312:5314   */\n      iszero\n      tag_408\n      jumpi\n        /* \"#utility.yul\":5347:5353   */\n      dup3\n        /* \"#utility.yul\":5339:5345   */\n      dup4\n        /* \"#utility.yul\":5332:5354   */\n      revert\n        /* \"#utility.yul\":5312:5314   */\n    tag_408:\n        /* \"#utility.yul\":5375:5425   */\n      tag_409\n        /* \"#utility.yul\":5417:5424   */\n      dup10\n        /* \"#utility.yul\":5408:5414   */\n      dup4\n        /* \"#utility.yul\":5397:5406   */\n      dup11\n        /* \"#utility.yul\":5393:5415   */\n      add\n        /* \"#utility.yul\":5375:5425   */\n      tag_361\n      jump\t// in\n    tag_409:\n        /* \"#utility.yul\":5365:5425   */\n      swap7\n      pop\n        /* \"#utility.yul\":5478:5480   */\n      0x20\n        /* \"#utility.yul\":5467:5476   */\n      dup9\n        /* \"#utility.yul\":5463:5481   */\n      add\n        /* \"#utility.yul\":5450:5482   */\n      calldataload\n        /* \"#utility.yul\":5434:5482   */\n      swap2\n      pop\n        /* \"#utility.yul\":5507:5509   */\n      dup1\n        /* \"#utility.yul\":5497:5505   */\n      dup3\n        /* \"#utility.yul\":5494:5510   */\n      gt\n        /* \"#utility.yul\":5491:5493   */\n      iszero\n      tag_410\n      jumpi\n        /* \"#utility.yul\":5528:5534   */\n      dup3\n        /* \"#utility.yul\":5520:5526   */\n      dup4\n        /* \"#utility.yul\":5513:5535   */\n      revert\n        /* \"#utility.yul\":5491:5493   */\n    tag_410:\n      pop\n        /* \"#utility.yul\":5556:5608   */\n      tag_411\n        /* \"#utility.yul\":5600:5607   */\n      dup9\n        /* \"#utility.yul\":5589:5597   */\n      dup3\n        /* \"#utility.yul\":5578:5587   */\n      dup10\n        /* \"#utility.yul\":5574:5598   */\n      add\n        /* \"#utility.yul\":5556:5608   */\n      tag_361\n      jump\t// in\n    tag_411:\n        /* \"#utility.yul\":5147:5768   */\n      swap6\n      swap9\n        /* \"#utility.yul\":5546:5608   */\n      swap6\n      swap8\n      pop\n      pop\n      pop\n      pop\n        /* \"#utility.yul\":5655:5657   */\n      0x40\n        /* \"#utility.yul\":5640:5658   */\n      dup5\n      add\n        /* \"#utility.yul\":5627:5659   */\n      calldataload\n      swap4\n        /* \"#utility.yul\":5706:5708   */\n      0x60\n        /* \"#utility.yul\":5691:5709   */\n      dup2\n      add\n        /* \"#utility.yul\":5678:5710   */\n      calldataload\n      swap4\n        /* \"#utility.yul\":5757:5760   */\n      0x80\n        /* \"#utility.yul\":5742:5761   */\n      swap1\n      swap2\n      add\n        /* \"#utility.yul\":5729:5762   */\n      calldataload\n      swap3\n      pop\n        /* \"#utility.yul\":5147:5768   */\n      swap1\n      pop\n      jump\t// out\n        /* \"#utility.yul\":5773:5963   */\n    tag_29:\n        /* \"#utility.yul\":5832:5838   */\n      0x00\n        /* \"#utility.yul\":5885:5887   */\n      0x20\n        /* \"#utility.yul\":5873:5882   */\n      dup3\n        /* \"#utility.yul\":5864:5871   */\n      dup5\n        /* \"#utility.yul\":5860:5883   */\n      sub\n        /* \"#utility.yul\":5856:5888   */\n      slt\n        /* \"#utility.yul\":5853:5855   */\n      iszero\n      tag_413\n      jumpi\n        /* \"#utility.yul\":5906:5912   */\n      dup1\n        /* \"#utility.yul\":5898:5904   */\n      dup2\n        /* \"#utility.yul\":5891:5913   */\n      revert\n        /* \"#utility.yul\":5853:5855   */\n    tag_413:\n      pop\n        /* \"#utility.yul\":5934:5957   */\n      calldataload\n      swap2\n        /* \"#utility.yul\":5843:5963   */\n      swap1\n      pop\n      jump\t// out\n        /* \"#utility.yul\":5968:6378   */\n    tag_35:\n        /* \"#utility.yul\":6046:6052   */\n      0x00\n        /* \"#utility.yul\":6054:6060   */\n      dup1\n        /* \"#utility.yul\":6107:6109   */\n      0x40\n        /* \"#utility.yul\":6095:6104   */\n      dup4\n        /* \"#utility.yul\":6086:6093   */\n      dup6\n        /* \"#utility.yul\":6082:6105   */\n      sub\n        /* \"#utility.yul\":6078:6110   */\n      slt\n        /* \"#utility.yul\":6075:6077   */\n      iszero\n      tag_415\n      jumpi\n        /* \"#utility.yul\":6128:6134   */\n      dup2\n        /* \"#utility.yul\":6120:6126   */\n      dup3\n        /* \"#utility.yul\":6113:6135   */\n      revert\n        /* \"#utility.yul\":6075:6077   */\n    tag_415:\n        /* \"#utility.yul\":6169:6178   */\n      dup3\n        /* \"#utility.yul\":6156:6179   */\n      calldataload\n        /* \"#utility.yul\":6146:6179   */\n      swap2\n      pop\n        /* \"#utility.yul\":6230:6232   */\n      0x20\n        /* \"#utility.yul\":6219:6228   */\n      dup4\n        /* \"#utility.yul\":6215:6233   */\n      add\n        /* \"#utility.yul\":6202:6234   */\n      calldataload\n        /* \"#utility.yul\":6257:6275   */\n      0xffffffffffffffff\n        /* \"#utility.yul\":6249:6255   */\n      dup2\n        /* \"#utility.yul\":6246:6276   */\n      gt\n        /* \"#utility.yul\":6243:6245   */\n      iszero\n      tag_416\n      jumpi\n        /* \"#utility.yul\":6294:6300   */\n      dup2\n        /* \"#utility.yul\":6286:6292   */\n      dup3\n        /* \"#utility.yul\":6279:6301   */\n      revert\n        /* \"#utility.yul\":6243:6245   */\n    tag_416:\n        /* \"#utility.yul\":6322:6372   */\n      tag_417\n        /* \"#utility.yul\":6364:6371   */\n      dup6\n        /* \"#utility.yul\":6355:6361   */\n      dup3\n        /* \"#utility.yul\":6344:6353   */\n      dup7\n        /* \"#utility.yul\":6340:6362   */\n      add\n        /* \"#utility.yul\":6322:6372   */\n      tag_361\n      jump\t// in\n    tag_417:\n        /* \"#utility.yul\":6312:6372   */\n      swap2\n      pop\n      pop\n        /* \"#utility.yul\":6065:6378   */\n      swap3\n      pop\n      swap3\n      swap1\n      pop\n      jump\t// out\n        /* \"#utility.yul\":6383:6641   */\n    tag_46:\n        /* \"#utility.yul\":6451:6457   */\n      0x00\n        /* \"#utility.yul\":6459:6465   */\n      dup1\n        /* \"#utility.yul\":6512:6514   */\n      0x40\n        /* \"#utility.yul\":6500:6509   */\n      dup4\n        /* \"#utility.yul\":6491:6498   */\n      dup6\n        /* \"#utility.yul\":6487:6510   */\n      sub\n        /* \"#utility.yul\":6483:6515   */\n      slt\n        /* \"#utility.yul\":6480:6482   */\n      iszero\n      tag_419\n      jumpi\n        /* \"#utility.yul\":6533:6539   */\n      dup2\n        /* \"#utility.yul\":6525:6531   */\n      dup3\n        /* \"#utility.yul\":6518:6540   */\n      revert\n        /* \"#utility.yul\":6480:6482   */\n    tag_419:\n      pop\n      pop\n        /* \"#utility.yul\":6561:6584   */\n      dup1\n      calldataload\n      swap3\n        /* \"#utility.yul\":6631:6633   */\n      0x20\n        /* \"#utility.yul\":6616:6634   */\n      swap1\n      swap2\n      add\n        /* \"#utility.yul\":6603:6635   */\n      calldataload\n      swap2\n      pop\n        /* \"#utility.yul\":6470:6641   */\n      jump\t// out\n        /* \"#utility.yul\":6646:7054   */\n    tag_64:\n        /* \"#utility.yul\":6734:6740   */\n      0x00\n        /* \"#utility.yul\":6742:6748   */\n      dup1\n        /* \"#utility.yul\":6750:6756   */\n      0x00\n        /* \"#utility.yul\":6803:6805   */\n      0x60\n        /* \"#utility.yul\":6791:6800   */\n      dup5\n        /* \"#utility.yul\":6782:6789   */\n      dup7\n        /* \"#utility.yul\":6778:6801   */\n      sub\n        /* \"#utility.yul\":6774:6806   */\n      slt\n        /* \"#utility.yul\":6771:6773   */\n      iszero\n      tag_421\n      jumpi\n        /* \"#utility.yul\":6824:6830   */\n      dup3\n        /* \"#utility.yul\":6816:6822   */\n      dup4\n        /* \"#utility.yul\":6809:6831   */\n      revert\n        /* \"#utility.yul\":6771:6773   */\n    tag_421:\n        /* \"#utility.yul\":6865:6874   */\n      dup4\n        /* \"#utility.yul\":6852:6875   */\n      calldataload\n        /* \"#utility.yul\":6842:6875   */\n      swap3\n      pop\n        /* \"#utility.yul\":6922:6924   */\n      0x20\n        /* \"#utility.yul\":6911:6920   */\n      dup5\n        /* \"#utility.yul\":6907:6925   */\n      add\n        /* \"#utility.yul\":6894:6926   */\n      calldataload\n        /* \"#utility.yul\":6884:6926   */\n      swap2\n      pop\n        /* \"#utility.yul\":6976:6978   */\n      0x40\n        /* \"#utility.yul\":6965:6974   */\n      dup5\n        /* \"#utility.yul\":6961:6979   */\n      add\n        /* \"#utility.yul\":6948:6980   */\n      calldataload\n        /* \"#utility.yul\":6989:7024   */\n      tag_422\n        /* \"#utility.yul\":7018:7023   */\n      dup2\n        /* \"#utility.yul\":6989:7024   */\n      tag_360\n      jump\t// in\n    tag_422:\n        /* \"#utility.yul\":7043:7048   */\n      dup1\n        /* \"#utility.yul\":7033:7048   */\n      swap2\n      pop\n      pop\n        /* \"#utility.yul\":6761:7054   */\n      swap3\n      pop\n      swap3\n      pop\n      swap3\n      jump\t// out\n        /* \"#utility.yul\":7059:7980   */\n    tag_60:\n        /* \"#utility.yul\":7184:7190   */\n      0x00\n        /* \"#utility.yul\":7192:7198   */\n      dup1\n        /* \"#utility.yul\":7200:7206   */\n      0x00\n        /* \"#utility.yul\":7208:7214   */\n      dup1\n        /* \"#utility.yul\":7216:7222   */\n      0x00\n        /* \"#utility.yul\":7269:7272   */\n      0xa0\n        /* \"#utility.yul\":7257:7266   */\n      dup7\n        /* \"#utility.yul\":7248:7255   */\n      dup9\n        /* \"#utility.yul\":7244:7267   */\n      sub\n        /* \"#utility.yul\":7240:7273   */\n      slt\n        /* \"#utility.yul\":7237:7239   */\n      iszero\n      tag_424\n      jumpi\n        /* \"#utility.yul\":7291:7297   */\n      dup1\n        /* \"#utility.yul\":7283:7289   */\n      dup2\n        /* \"#utility.yul\":7276:7298   */\n      revert\n        /* \"#utility.yul\":7237:7239   */\n    tag_424:\n        /* \"#utility.yul\":7332:7341   */\n      dup6\n        /* \"#utility.yul\":7319:7342   */\n      calldataload\n        /* \"#utility.yul\":7309:7342   */\n      swap5\n      pop\n        /* \"#utility.yul\":7389:7391   */\n      0x20\n        /* \"#utility.yul\":7378:7387   */\n      dup7\n        /* \"#utility.yul\":7374:7392   */\n      add\n        /* \"#utility.yul\":7361:7393   */\n      calldataload\n        /* \"#utility.yul\":7351:7393   */\n      swap4\n      pop\n        /* \"#utility.yul\":7444:7446   */\n      0x40\n        /* \"#utility.yul\":7433:7442   */\n      dup7\n        /* \"#utility.yul\":7429:7447   */\n      add\n        /* \"#utility.yul\":7416:7448   */\n      calldataload\n        /* \"#utility.yul\":7467:7485   */\n      0xffffffffffffffff\n        /* \"#utility.yul\":7508:7510   */\n      dup1\n        /* \"#utility.yul\":7500:7506   */\n      dup3\n        /* \"#utility.yul\":7497:7511   */\n      gt\n        /* \"#utility.yul\":7494:7496   */\n      iszero\n      tag_425\n      jumpi\n        /* \"#utility.yul\":7529:7535   */\n      dup3\n        /* \"#utility.yul\":7521:7527   */\n      dup4\n        /* \"#utility.yul\":7514:7536   */\n      revert\n        /* \"#utility.yul\":7494:7496   */\n    tag_425:\n        /* \"#utility.yul\":7557:7607   */\n      tag_426\n        /* \"#utility.yul\":7599:7606   */\n      dup10\n        /* \"#utility.yul\":7590:7596   */\n      dup4\n        /* \"#utility.yul\":7579:7588   */\n      dup11\n        /* \"#utility.yul\":7575:7597   */\n      add\n        /* \"#utility.yul\":7557:7607   */\n      tag_361\n      jump\t// in\n    tag_426:\n        /* \"#utility.yul\":7547:7607   */\n      swap5\n      pop\n        /* \"#utility.yul\":7660:7662   */\n      0x60\n        /* \"#utility.yul\":7649:7658   */\n      dup9\n        /* \"#utility.yul\":7645:7663   */\n      add\n        /* \"#utility.yul\":7632:7664   */\n      calldataload\n        /* \"#utility.yul\":7616:7664   */\n      swap2\n      pop\n        /* \"#utility.yul\":7689:7691   */\n      dup1\n        /* \"#utility.yul\":7679:7687   */\n      dup3\n        /* \"#utility.yul\":7676:7692   */\n      gt\n        /* \"#utility.yul\":7673:7675   */\n      iszero\n      tag_427\n      jumpi\n        /* \"#utility.yul\":7710:7716   */\n      dup3\n        /* \"#utility.yul\":7702:7708   */\n      dup4\n        /* \"#utility.yul\":7695:7717   */\n      revert\n        /* \"#utility.yul\":7673:7675   */\n    tag_427:\n        /* \"#utility.yul\":7738:7790   */\n      tag_428\n        /* \"#utility.yul\":7782:7789   */\n      dup10\n        /* \"#utility.yul\":7771:7779   */\n      dup4\n        /* \"#utility.yul\":7760:7769   */\n      dup11\n        /* \"#utility.yul\":7756:7780   */\n      add\n        /* \"#utility.yul\":7738:7790   */\n      tag_361\n      jump\t// in\n    tag_428:\n        /* \"#utility.yul\":7728:7790   */\n      swap4\n      pop\n        /* \"#utility.yul\":7843:7846   */\n      0x80\n        /* \"#utility.yul\":7832:7841   */\n      dup9\n        /* \"#utility.yul\":7828:7847   */\n      add\n        /* \"#utility.yul\":7815:7848   */\n      calldataload\n        /* \"#utility.yul\":7799:7848   */\n      swap2\n      pop\n        /* \"#utility.yul\":7873:7875   */\n      dup1\n        /* \"#utility.yul\":7863:7871   */\n      dup3\n        /* \"#utility.yul\":7860:7876   */\n      gt\n        /* \"#utility.yul\":7857:7859   */\n      iszero\n      tag_429\n      jumpi\n        /* \"#utility.yul\":7894:7900   */\n      dup3\n        /* \"#utility.yul\":7886:7892   */\n      dup4\n        /* \"#utility.yul\":7879:7901   */\n      revert\n        /* \"#utility.yul\":7857:7859   */\n    tag_429:\n      pop\n        /* \"#utility.yul\":7922:7974   */\n      tag_430\n        /* \"#utility.yul\":7966:7973   */\n      dup9\n        /* \"#utility.yul\":7955:7963   */\n      dup3\n        /* \"#utility.yul\":7944:7953   */\n      dup10\n        /* \"#utility.yul\":7940:7964   */\n      add\n        /* \"#utility.yul\":7922:7974   */\n      tag_361\n      jump\t// in\n    tag_430:\n        /* \"#utility.yul\":7912:7974   */\n      swap2\n      pop\n      pop\n        /* \"#utility.yul\":7227:7980   */\n      swap3\n      swap6\n      pop\n      swap3\n      swap6\n      swap1\n      swap4\n      pop\n      jump\t// out\n        /* \"#utility.yul\":7985:8311   */\n    tag_25:\n        /* \"#utility.yul\":8062:8068   */\n      0x00\n        /* \"#utility.yul\":8070:8076   */\n      dup1\n        /* \"#utility.yul\":8078:8084   */\n      0x00\n        /* \"#utility.yul\":8131:8133   */\n      0x60\n        /* \"#utility.yul\":8119:8128   */\n      dup5\n        /* \"#utility.yul\":8110:8117   */\n      dup7\n        /* \"#utility.yul\":8106:8129   */\n      sub\n        /* \"#utility.yul\":8102:8134   */\n      slt\n        /* \"#utility.yul\":8099:8101   */\n      iszero\n      tag_432\n      jumpi\n        /* \"#utility.yul\":8152:8158   */\n      dup1\n        /* \"#utility.yul\":8144:8150   */\n      dup2\n        /* \"#utility.yul\":8137:8159   */\n      revert\n        /* \"#utility.yul\":8099:8101   */\n    tag_432:\n      pop\n      pop\n        /* \"#utility.yul\":8180:8203   */\n      dup2\n      calldataload\n      swap4\n        /* \"#utility.yul\":8250:8252   */\n      0x20\n        /* \"#utility.yul\":8235:8253   */\n      dup4\n      add\n        /* \"#utility.yul\":8222:8254   */\n      calldataload\n      swap4\n      pop\n        /* \"#utility.yul\":8301:8303   */\n      0x40\n        /* \"#utility.yul\":8286:8304   */\n      swap1\n      swap3\n      add\n        /* \"#utility.yul\":8273:8305   */\n      calldataload\n      swap2\n        /* \"#utility.yul\":8089:8311   */\n      swap1\n      pop\n      jump\t// out\n        /* \"#utility.yul\":8316:8711   */\n    tag_52:\n        /* \"#utility.yul\":8402:8408   */\n      0x00\n        /* \"#utility.yul\":8410:8416   */\n      dup1\n        /* \"#utility.yul\":8418:8424   */\n      0x00\n        /* \"#utility.yul\":8426:8432   */\n      dup1\n        /* \"#utility.yul\":8479:8482   */\n      0x80\n        /* \"#utility.yul\":8467:8476   */\n      dup6\n        /* \"#utility.yul\":8458:8465   */\n      dup8\n        /* \"#utility.yul\":8454:8477   */\n      sub\n        /* \"#utility.yul\":8450:8483   */\n      slt\n        /* \"#utility.yul\":8447:8449   */\n      iszero\n      tag_434\n      jumpi\n        /* \"#utility.yul\":8501:8507   */\n      dup2\n        /* \"#utility.yul\":8493:8499   */\n      dup3\n        /* \"#utility.yul\":8486:8508   */\n      revert\n        /* \"#utility.yul\":8447:8449   */\n    tag_434:\n      pop\n      pop\n        /* \"#utility.yul\":8529:8552   */\n      dup3\n      calldataload\n      swap5\n        /* \"#utility.yul\":8599:8601   */\n      0x20\n        /* \"#utility.yul\":8584:8602   */\n      dup5\n      add\n        /* \"#utility.yul\":8571:8603   */\n      calldataload\n      swap5\n      pop\n        /* \"#utility.yul\":8650:8652   */\n      0x40\n        /* \"#utility.yul\":8635:8653   */\n      dup5\n      add\n        /* \"#utility.yul\":8622:8654   */\n      calldataload\n      swap4\n        /* \"#utility.yul\":8701:8703   */\n      0x60\n        /* \"#utility.yul\":8686:8704   */\n      add\n        /* \"#utility.yul\":8673:8705   */\n      calldataload\n      swap3\n      pop\n        /* \"#utility.yul\":8437:8711   */\n      swap1\n      pop\n      jump\t// out\n        /* \"#utility.yul\":8716:8974   */\n    tag_435:\n        /* \"#utility.yul\":8758:8761   */\n      0x00\n        /* \"#utility.yul\":8796:8801   */\n      dup2\n        /* \"#utility.yul\":8790:8802   */\n      mload\n        /* \"#utility.yul\":8823:8829   */\n      dup1\n        /* \"#utility.yul\":8818:8821   */\n      dup5\n        /* \"#utility.yul\":8811:8830   */\n      mstore\n        /* \"#utility.yul\":8839:8902   */\n      tag_437\n        /* \"#utility.yul\":8895:8901   */\n      dup2\n        /* \"#utility.yul\":8888:8892   */\n      0x20\n        /* \"#utility.yul\":8883:8886   */\n      dup7\n        /* \"#utility.yul\":8879:8893   */\n      add\n        /* \"#utility.yul\":8872:8876   */\n      0x20\n        /* \"#utility.yul\":8865:8870   */\n      dup7\n        /* \"#utility.yul\":8861:8877   */\n      add\n        /* \"#utility.yul\":8839:8902   */\n      tag_438\n      jump\t// in\n    tag_437:\n        /* \"#utility.yul\":8956:8958   */\n      0x1f\n        /* \"#utility.yul\":8935:8950   */\n      add\n      not(0x1f)\n        /* \"#utility.yul\":8931:8960   */\n      and\n        /* \"#utility.yul\":8922:8961   */\n      swap3\n      swap1\n      swap3\n      add\n        /* \"#utility.yul\":8963:8967   */\n      0x20\n        /* \"#utility.yul\":8918:8968   */\n      add\n      swap3\n        /* \"#utility.yul\":8766:8974   */\n      swap2\n      pop\n      pop\n      jump\t// out\n        /* \"#utility.yul\":8979:9802   */\n    tag_237:\n        /* \"#utility.yul\":9109:9112   */\n      0x00\n        /* \"#utility.yul\":9138:9141   */\n      dup1\n        /* \"#utility.yul\":9173:9179   */\n      dup4\n        /* \"#utility.yul\":9167:9180   */\n      sload\n        /* \"#utility.yul\":9203:9239   */\n      tag_440\n        /* \"#utility.yul\":9229:9238   */\n      dup2\n        /* \"#utility.yul\":9203:9239   */\n      tag_110\n      jump\t// in\n    tag_440:\n        /* \"#utility.yul\":9258:9259   */\n      0x01\n        /* \"#utility.yul\":9275:9293   */\n      dup3\n      dup2\n      and\n        /* \"#utility.yul\":9302:9406   */\n      dup1\n      iszero\n      tag_442\n      jumpi\n        /* \"#utility.yul\":9420:9421   */\n      0x01\n        /* \"#utility.yul\":9415:9777   */\n      dup2\n      eq\n      tag_443\n      jumpi\n        /* \"#utility.yul\":9268:9777   */\n      jump(tag_441)\n        /* \"#utility.yul\":9302:9406   */\n    tag_442:\n      not(0xff)\n        /* \"#utility.yul\":9335:9359   */\n      dup5\n      and\n        /* \"#utility.yul\":9323:9360   */\n      dup8\n      mstore\n        /* \"#utility.yul\":9380:9396   */\n      dup3\n      dup8\n      add\n      swap5\n      pop\n        /* \"#utility.yul\":9302:9406   */\n      jump(tag_441)\n        /* \"#utility.yul\":9415:9777   */\n    tag_443:\n        /* \"#utility.yul\":9448:9454   */\n      dup8\n        /* \"#utility.yul\":9443:9446   */\n      dup7\n        /* \"#utility.yul\":9436:9455   */\n      mstore\n        /* \"#utility.yul\":9478:9482   */\n      0x20\n        /* \"#utility.yul\":9525:9527   */\n      dup1\n        /* \"#utility.yul\":9520:9523   */\n      dup8\n        /* \"#utility.yul\":9510:9528   */\n      keccak256\n        /* \"#utility.yul\":9550:9553   */\n      dup8\n        /* \"#utility.yul\":9566:9731   */\n    tag_444:\n        /* \"#utility.yul\":9580:9586   */\n      dup6\n        /* \"#utility.yul\":9577:9578   */\n      dup2\n        /* \"#utility.yul\":9574:9587   */\n      lt\n        /* \"#utility.yul\":9566:9731   */\n      iszero\n      tag_446\n      jumpi\n        /* \"#utility.yul\":9658:9672   */\n      dup2\n      sload\n        /* \"#utility.yul\":9645:9656   */\n      dup11\n      dup3\n      add\n        /* \"#utility.yul\":9638:9673   */\n      mstore\n        /* \"#utility.yul\":9701:9717   */\n      swap1\n      dup5\n      add\n      swap1\n        /* \"#utility.yul\":9595:9605   */\n      dup3\n      add\n        /* \"#utility.yul\":9566:9731   */\n      jump(tag_444)\n    tag_446:\n        /* \"#utility.yul\":9570:9573   */\n      pop\n      pop\n      pop\n        /* \"#utility.yul\":9760:9766   */\n      dup3\n        /* \"#utility.yul\":9755:9758   */\n      dup8\n        /* \"#utility.yul\":9751:9767   */\n      add\n        /* \"#utility.yul\":9744:9767   */\n      swap5\n      pop\n        /* \"#utility.yul\":9268:9777   */\n    tag_441:\n      pop\n        /* \"#utility.yul\":9793:9796   */\n      swap3\n      swap7\n        /* \"#utility.yul\":9117:9802   */\n      swap6\n      pop\n      pop\n      pop\n      pop\n      pop\n      pop\n      jump\t// out\n        /* \"#utility.yul\":9807:10277   */\n    tag_232:\n        /* \"#utility.yul\":9986:9989   */\n      0x00\n        /* \"#utility.yul\":10024:10030   */\n      dup4\n        /* \"#utility.yul\":10018:10031   */\n      mload\n        /* \"#utility.yul\":10040:10093   */\n      tag_448\n        /* \"#utility.yul\":10086:10092   */\n      dup2\n        /* \"#utility.yul\":10081:10084   */\n      dup5\n        /* \"#utility.yul\":10074:10078   */\n      0x20\n        /* \"#utility.yul\":10066:10072   */\n      dup9\n        /* \"#utility.yul\":10062:10079   */\n      add\n        /* \"#utility.yul\":10040:10093   */\n      tag_438\n      jump\t// in\n    tag_448:\n        /* \"#utility.yul\":10156:10169   */\n      dup4\n      mload\n        /* \"#utility.yul\":10115:10131   */\n      swap1\n      dup4\n      add\n      swap1\n        /* \"#utility.yul\":10178:10235   */\n      tag_449\n        /* \"#utility.yul\":10156:10169   */\n      dup2\n        /* \"#utility.yul\":10115:10131   */\n      dup4\n        /* \"#utility.yul\":10212:10216   */\n      0x20\n        /* \"#utility.yul\":10200:10217   */\n      dup9\n      add\n        /* \"#utility.yul\":10178:10235   */\n      tag_438\n      jump\t// in\n    tag_449:\n        /* \"#utility.yul\":10251:10271   */\n      add\n      swap5\n        /* \"#utility.yul\":9994:10277   */\n      swap4\n      pop\n      pop\n      pop\n      pop\n      jump\t// out\n        /* \"#utility.yul\":11508:12137   */\n    tag_75:\n        /* \"#utility.yul\":11775:11778   */\n      0x80\n        /* \"#utility.yul\":11764:11773   */\n      dup2\n        /* \"#utility.yul\":11757:11779   */\n      mstore\n        /* \"#utility.yul\":11738:11742   */\n      0x00\n        /* \"#utility.yul\":11802:11848   */\n      tag_461\n        /* \"#utility.yul\":11843:11846   */\n      0x80\n        /* \"#utility.yul\":11832:11841   */\n      dup4\n        /* \"#utility.yul\":11828:11847   */\n      add\n        /* \"#utility.yul\":11820:11826   */\n      dup8\n        /* \"#utility.yul\":11802:11848   */\n      tag_435\n      jump\t// in\n    tag_461:\n        /* \"#utility.yul\":11896:11905   */\n      dup3\n        /* \"#utility.yul\":11888:11894   */\n      dup2\n        /* \"#utility.yul\":11884:11906   */\n      sub\n        /* \"#utility.yul\":11879:11881   */\n      0x20\n        /* \"#utility.yul\":11868:11877   */\n      dup5\n        /* \"#utility.yul\":11864:11882   */\n      add\n        /* \"#utility.yul\":11857:11907   */\n      mstore\n        /* \"#utility.yul\":11930:11963   */\n      tag_462\n        /* \"#utility.yul\":11956:11962   */\n      dup2\n        /* \"#utility.yul\":11948:11954   */\n      dup8\n        /* \"#utility.yul\":11930:11963   */\n      tag_435\n      jump\t// in\n    tag_462:\n        /* \"#utility.yul\":11916:11963   */\n      swap1\n      pop\n        /* \"#utility.yul\":12011:12020   */\n      dup3\n        /* \"#utility.yul\":12003:12009   */\n      dup2\n        /* \"#utility.yul\":11999:12021   */\n      sub\n        /* \"#utility.yul\":11994:11996   */\n      0x40\n        /* \"#utility.yul\":11983:11992   */\n      dup5\n        /* \"#utility.yul\":11979:11997   */\n      add\n        /* \"#utility.yul\":11972:12022   */\n      mstore\n        /* \"#utility.yul\":12039:12072   */\n      tag_463\n        /* \"#utility.yul\":12065:12071   */\n      dup2\n        /* \"#utility.yul\":12057:12063   */\n      dup7\n        /* \"#utility.yul\":12039:12072   */\n      tag_435\n      jump\t// in\n    tag_463:\n        /* \"#utility.yul\":12031:12072   */\n      swap2\n      pop\n      pop\n        /* \"#utility.yul\":12122:12128   */\n      dup3\n        /* \"#utility.yul\":12115:12129   */\n      iszero\n        /* \"#utility.yul\":12108:12130   */\n      iszero\n        /* \"#utility.yul\":12103:12105   */\n      0x60\n        /* \"#utility.yul\":12092:12101   */\n      dup4\n        /* \"#utility.yul\":12088:12106   */\n      add\n        /* \"#utility.yul\":12081:12131   */\n      mstore\n        /* \"#utility.yul\":11747:12137   */\n      swap6\n      swap5\n      pop\n      pop\n      pop\n      pop\n      pop\n      jump\t// out\n        /* \"#utility.yul\":12142:12935   */\n    tag_43:\n        /* \"#utility.yul\":12457:12460   */\n      0xa0\n        /* \"#utility.yul\":12446:12455   */\n      dup2\n        /* \"#utility.yul\":12439:12461   */\n      mstore\n        /* \"#utility.yul\":12420:12424   */\n      0x00\n        /* \"#utility.yul\":12484:12530   */\n      tag_465\n        /* \"#utility.yul\":12525:12528   */\n      0xa0\n        /* \"#utility.yul\":12514:12523   */\n      dup4\n        /* \"#utility.yul\":12510:12529   */\n      add\n        /* \"#utility.yul\":12502:12508   */\n      dup9\n        /* \"#utility.yul\":12484:12530   */\n      tag_435\n      jump\t// in\n    tag_465:\n        /* \"#utility.yul\":12578:12587   */\n      dup3\n        /* \"#utility.yul\":12570:12576   */\n      dup2\n        /* \"#utility.yul\":12566:12588   */\n      sub\n        /* \"#utility.yul\":12561:12563   */\n      0x20\n        /* \"#utility.yul\":12550:12559   */\n      dup5\n        /* \"#utility.yul\":12546:12564   */\n      add\n        /* \"#utility.yul\":12539:12589   */\n      mstore\n        /* \"#utility.yul\":12612:12645   */\n      tag_466\n        /* \"#utility.yul\":12638:12644   */\n      dup2\n        /* \"#utility.yul\":12630:12636   */\n      dup9\n        /* \"#utility.yul\":12612:12645   */\n      tag_435\n      jump\t// in\n    tag_466:\n        /* \"#utility.yul\":12598:12645   */\n      swap1\n      pop\n        /* \"#utility.yul\":12693:12702   */\n      dup3\n        /* \"#utility.yul\":12685:12691   */\n      dup2\n        /* \"#utility.yul\":12681:12703   */\n      sub\n        /* \"#utility.yul\":12676:12678   */\n      0x40\n        /* \"#utility.yul\":12665:12674   */\n      dup5\n        /* \"#utility.yul\":12661:12679   */\n      add\n        /* \"#utility.yul\":12654:12704   */\n      mstore\n        /* \"#utility.yul\":12727:12760   */\n      tag_467\n        /* \"#utility.yul\":12753:12759   */\n      dup2\n        /* \"#utility.yul\":12745:12751   */\n      dup8\n        /* \"#utility.yul\":12727:12760   */\n      tag_435\n      jump\t// in\n    tag_467:\n        /* \"#utility.yul\":12713:12760   */\n      swap1\n      pop\n        /* \"#utility.yul\":12808:12817   */\n      dup3\n        /* \"#utility.yul\":12800:12806   */\n      dup2\n        /* \"#utility.yul\":12796:12818   */\n      sub\n        /* \"#utility.yul\":12791:12793   */\n      0x60\n        /* \"#utility.yul\":12780:12789   */\n      dup5\n        /* \"#utility.yul\":12776:12794   */\n      add\n        /* \"#utility.yul\":12769:12819   */\n      mstore\n        /* \"#utility.yul\":12836:12869   */\n      tag_468\n        /* \"#utility.yul\":12862:12868   */\n      dup2\n        /* \"#utility.yul\":12854:12860   */\n      dup7\n        /* \"#utility.yul\":12836:12869   */\n      tag_435\n      jump\t// in\n    tag_468:\n        /* \"#utility.yul\":12828:12869   */\n      swap2\n      pop\n      pop\n        /* \"#utility.yul\":12920:12926   */\n      dup3\n        /* \"#utility.yul\":12913:12927   */\n      iszero\n        /* \"#utility.yul\":12906:12928   */\n      iszero\n        /* \"#utility.yul\":12900:12903   */\n      0x80\n        /* \"#utility.yul\":12889:12898   */\n      dup4\n        /* \"#utility.yul\":12885:12904   */\n      add\n        /* \"#utility.yul\":12878:12929   */\n      mstore\n        /* \"#utility.yul\":12429:12935   */\n      swap7\n      swap6\n      pop\n      pop\n      pop\n      pop\n      pop\n      pop\n      jump\t// out\n        /* \"#utility.yul\":12940:14192   */\n    tag_32:\n        /* \"#utility.yul\":13341:13345   */\n      0x00\n        /* \"#utility.yul\":13370:13373   */\n      0x0100\n        /* \"#utility.yul\":13400:13402   */\n      dup1\n        /* \"#utility.yul\":13389:13398   */\n      dup4\n        /* \"#utility.yul\":13382:13403   */\n      mstore\n        /* \"#utility.yul\":13426:13471   */\n      tag_470\n        /* \"#utility.yul\":13467:13469   */\n      dup2\n        /* \"#utility.yul\":13456:13465   */\n      dup5\n        /* \"#utility.yul\":13452:13470   */\n      add\n        /* \"#utility.yul\":13444:13450   */\n      dup13\n        /* \"#utility.yul\":13426:13471   */\n      tag_435\n      jump\t// in\n    tag_470:\n        /* \"#utility.yul\":13412:13471   */\n      swap1\n      pop\n        /* \"#utility.yul\":13519:13528   */\n      dup3\n        /* \"#utility.yul\":13511:13517   */\n      dup2\n        /* \"#utility.yul\":13507:13529   */\n      sub\n        /* \"#utility.yul\":13502:13504   */\n      0x20\n        /* \"#utility.yul\":13491:13500   */\n      dup5\n        /* \"#utility.yul\":13487:13505   */\n      add\n        /* \"#utility.yul\":13480:13530   */\n      mstore\n        /* \"#utility.yul\":13553:13586   */\n      tag_471\n        /* \"#utility.yul\":13579:13585   */\n      dup2\n        /* \"#utility.yul\":13571:13577   */\n      dup12\n        /* \"#utility.yul\":13553:13586   */\n      tag_435\n      jump\t// in\n    tag_471:\n        /* \"#utility.yul\":13539:13586   */\n      swap1\n      pop\n        /* \"#utility.yul\":13634:13643   */\n      dup3\n        /* \"#utility.yul\":13626:13632   */\n      dup2\n        /* \"#utility.yul\":13622:13644   */\n      sub\n        /* \"#utility.yul\":13617:13619   */\n      0x40\n        /* \"#utility.yul\":13606:13615   */\n      dup5\n        /* \"#utility.yul\":13602:13620   */\n      add\n        /* \"#utility.yul\":13595:13645   */\n      mstore\n        /* \"#utility.yul\":13668:13701   */\n      tag_472\n        /* \"#utility.yul\":13694:13700   */\n      dup2\n        /* \"#utility.yul\":13686:13692   */\n      dup11\n        /* \"#utility.yul\":13668:13701   */\n      tag_435\n      jump\t// in\n    tag_472:\n        /* \"#utility.yul\":13654:13701   */\n      swap1\n      pop\n        /* \"#utility.yul\":13749:13758   */\n      dup3\n        /* \"#utility.yul\":13741:13747   */\n      dup2\n        /* \"#utility.yul\":13737:13759   */\n      sub\n        /* \"#utility.yul\":13732:13734   */\n      0x60\n        /* \"#utility.yul\":13721:13730   */\n      dup5\n        /* \"#utility.yul\":13717:13735   */\n      add\n        /* \"#utility.yul\":13710:13760   */\n      mstore\n        /* \"#utility.yul\":13783:13816   */\n      tag_473\n        /* \"#utility.yul\":13809:13815   */\n      dup2\n        /* \"#utility.yul\":13801:13807   */\n      dup10\n        /* \"#utility.yul\":13783:13816   */\n      tag_435\n      jump\t// in\n    tag_473:\n        /* \"#utility.yul\":13769:13816   */\n      swap1\n      pop\n        /* \"#utility.yul\":13865:13874   */\n      dup3\n        /* \"#utility.yul\":13857:13863   */\n      dup2\n        /* \"#utility.yul\":13853:13875   */\n      sub\n        /* \"#utility.yul\":13847:13850   */\n      0x80\n        /* \"#utility.yul\":13836:13845   */\n      dup5\n        /* \"#utility.yul\":13832:13851   */\n      add\n        /* \"#utility.yul\":13825:13876   */\n      mstore\n        /* \"#utility.yul\":13893:13926   */\n      tag_474\n        /* \"#utility.yul\":13919:13925   */\n      dup2\n        /* \"#utility.yul\":13911:13917   */\n      dup9\n        /* \"#utility.yul\":13893:13926   */\n      tag_435\n      jump\t// in\n    tag_474:\n        /* \"#utility.yul\":13885:13926   */\n      swap2\n      pop\n      pop\n        /* \"#utility.yul\":13956:13957   */\n      0x05\n        /* \"#utility.yul\":13948:13954   */\n      dup6\n        /* \"#utility.yul\":13945:13958   */\n      lt\n        /* \"#utility.yul\":13935:13937   */\n      tag_476\n      jumpi\n        /* \"#utility.yul\":13962:13980   */\n      tag_476\n      tag_477\n      jump\t// in\n    tag_476:\n        /* \"#utility.yul\":14019:14025   */\n      dup5\n        /* \"#utility.yul\":14013:14016   */\n      0xa0\n        /* \"#utility.yul\":14002:14011   */\n      dup4\n        /* \"#utility.yul\":13998:14017   */\n      add\n        /* \"#utility.yul\":13991:14026   */\n      mstore\n        /* \"#utility.yul\":14056:14057   */\n      0x03\n        /* \"#utility.yul\":14048:14054   */\n      dup5\n        /* \"#utility.yul\":14045:14058   */\n      lt\n        /* \"#utility.yul\":14035:14037   */\n      tag_479\n      jumpi\n        /* \"#utility.yul\":14062:14080   */\n      tag_479\n      tag_477\n      jump\t// in\n    tag_479:\n        /* \"#utility.yul\":14119:14125   */\n      dup4\n        /* \"#utility.yul\":14113:14116   */\n      0xc0\n        /* \"#utility.yul\":14102:14111   */\n      dup4\n        /* \"#utility.yul\":14098:14117   */\n      add\n        /* \"#utility.yul\":14091:14126   */\n      mstore\n        /* \"#utility.yul\":14177:14183   */\n      dup3\n        /* \"#utility.yul\":14170:14184   */\n      iszero\n        /* \"#utility.yul\":14163:14185   */\n      iszero\n        /* \"#utility.yul\":14157:14160   */\n      0xe0\n        /* \"#utility.yul\":14146:14155   */\n      dup4\n        /* \"#utility.yul\":14142:14161   */\n      add\n        /* \"#utility.yul\":14135:14186   */\n      mstore\n        /* \"#utility.yul\":13350:14192   */\n      swap10\n      swap9\n      pop\n      pop\n      pop\n      pop\n      pop\n      pop\n      pop\n      pop\n      pop\n      jump\t// out\n        /* \"#utility.yul\":14197:14980   */\n    tag_99:\n        /* \"#utility.yul\":14518:14521   */\n      0xa0\n        /* \"#utility.yul\":14507:14516   */\n      dup2\n        /* \"#utility.yul\":14500:14522   */\n      mstore\n        /* \"#utility.yul\":14481:14485   */\n      0x00\n        /* \"#utility.yul\":14545:14591   */\n      tag_481\n        /* \"#utility.yul\":14586:14589   */\n      0xa0\n        /* \"#utility.yul\":14575:14584   */\n      dup4\n        /* \"#utility.yul\":14571:14590   */\n      add\n        /* \"#utility.yul\":14563:14569   */\n      dup9\n        /* \"#utility.yul\":14545:14591   */\n      tag_435\n      jump\t// in\n    tag_481:\n        /* \"#utility.yul\":14639:14648   */\n      dup3\n        /* \"#utility.yul\":14631:14637   */\n      dup2\n        /* \"#utility.yul\":14627:14649   */\n      sub\n        /* \"#utility.yul\":14622:14624   */\n      0x20\n        /* \"#utility.yul\":14611:14620   */\n      dup5\n        /* \"#utility.yul\":14607:14625   */\n      add\n        /* \"#utility.yul\":14600:14650   */\n      mstore\n        /* \"#utility.yul\":14673:14706   */\n      tag_482\n        /* \"#utility.yul\":14699:14705   */\n      dup2\n        /* \"#utility.yul\":14691:14697   */\n      dup9\n        /* \"#utility.yul\":14673:14706   */\n      tag_435\n      jump\t// in\n    tag_482:\n        /* \"#utility.yul\":14659:14706   */\n      swap1\n      pop\n        /* \"#utility.yul\":14754:14763   */\n      dup3\n        /* \"#utility.yul\":14746:14752   */\n      dup2\n        /* \"#utility.yul\":14742:14764   */\n      sub\n        /* \"#utility.yul\":14737:14739   */\n      0x40\n        /* \"#utility.yul\":14726:14735   */\n      dup5\n        /* \"#utility.yul\":14722:14740   */\n      add\n        /* \"#utility.yul\":14715:14765   */\n      mstore\n        /* \"#utility.yul\":14788:14821   */\n      tag_483\n        /* \"#utility.yul\":14814:14820   */\n      dup2\n        /* \"#utility.yul\":14806:14812   */\n      dup8\n        /* \"#utility.yul\":14788:14821   */\n      tag_435\n      jump\t// in\n    tag_483:\n        /* \"#utility.yul\":14774:14821   */\n      swap1\n      pop\n        /* \"#utility.yul\":14869:14878   */\n      dup3\n        /* \"#utility.yul\":14861:14867   */\n      dup2\n        /* \"#utility.yul\":14857:14879   */\n      sub\n        /* \"#utility.yul\":14852:14854   */\n      0x60\n        /* \"#utility.yul\":14841:14850   */\n      dup5\n        /* \"#utility.yul\":14837:14855   */\n      add\n        /* \"#utility.yul\":14830:14880   */\n      mstore\n        /* \"#utility.yul\":14897:14930   */\n      tag_484\n        /* \"#utility.yul\":14923:14929   */\n      dup2\n        /* \"#utility.yul\":14915:14921   */\n      dup7\n        /* \"#utility.yul\":14897:14930   */\n      tag_435\n      jump\t// in\n    tag_484:\n        /* \"#utility.yul\":14889:14930   */\n      swap2\n      pop\n      pop\n        /* \"#utility.yul\":14967:14973   */\n      dup3\n        /* \"#utility.yul\":14961:14964   */\n      0x80\n        /* \"#utility.yul\":14950:14959   */\n      dup4\n        /* \"#utility.yul\":14946:14965   */\n      add\n        /* \"#utility.yul\":14939:14974   */\n      mstore\n        /* \"#utility.yul\":14490:14980   */\n      swap7\n      swap6\n      pop\n      pop\n      pop\n      pop\n      pop\n      pop\n      jump\t// out\n        /* \"#utility.yul\":14985:15512   */\n    tag_70:\n        /* \"#utility.yul\":15238:15241   */\n      0x80\n        /* \"#utility.yul\":15227:15236   */\n      dup2\n        /* \"#utility.yul\":15220:15242   */\n      mstore\n        /* \"#utility.yul\":15201:15205   */\n      0x00\n        /* \"#utility.yul\":15265:15311   */\n      tag_486\n        /* \"#utility.yul\":15306:15309   */\n      0x80\n        /* \"#utility.yul\":15295:15304   */\n      dup4\n        /* \"#utility.yul\":15291:15310   */\n      add\n        /* \"#utility.yul\":15283:15289   */\n      dup8\n        /* \"#utility.yul\":15265:15311   */\n      tag_435\n      jump\t// in\n    tag_486:\n        /* \"#utility.yul\":15359:15368   */\n      dup3\n        /* \"#utility.yul\":15351:15357   */\n      dup2\n        /* \"#utility.yul\":15347:15369   */\n      sub\n        /* \"#utility.yul\":15342:15344   */\n      0x20\n        /* \"#utility.yul\":15331:15340   */\n      dup5\n        /* \"#utility.yul\":15327:15345   */\n      add\n        /* \"#utility.yul\":15320:15370   */\n      mstore\n        /* \"#utility.yul\":15387:15420   */\n      tag_487\n        /* \"#utility.yul\":15413:15419   */\n      dup2\n        /* \"#utility.yul\":15405:15411   */\n      dup8\n        /* \"#utility.yul\":15387:15420   */\n      tag_435\n      jump\t// in\n    tag_487:\n        /* \"#utility.yul\":15451:15453   */\n      0x40\n        /* \"#utility.yul\":15436:15454   */\n      dup5\n      add\n        /* \"#utility.yul\":15429:15463   */\n      swap6\n      swap1\n      swap6\n      mstore\n      pop\n      pop\n        /* \"#utility.yul\":15494:15496   */\n      0x60\n        /* \"#utility.yul\":15479:15497   */\n      add\n        /* \"#utility.yul\":15472:15506   */\n      mstore\n        /* \"#utility.yul\":15379:15420   */\n      swap3\n        /* \"#utility.yul\":15210:15512   */\n      swap2\n      pop\n      pop\n      jump\t// out\n        /* \"#utility.yul\":15517:15952   */\n    tag_196:\n        /* \"#utility.yul\":15750:15753   */\n      0x80\n        /* \"#utility.yul\":15739:15748   */\n      dup2\n        /* \"#utility.yul\":15732:15754   */\n      mstore\n        /* \"#utility.yul\":15713:15717   */\n      0x00\n        /* \"#utility.yul\":15771:15817   */\n      tag_489\n        /* \"#utility.yul\":15812:15815   */\n      0x80\n        /* \"#utility.yul\":15801:15810   */\n      dup4\n        /* \"#utility.yul\":15797:15816   */\n      add\n        /* \"#utility.yul\":15789:15795   */\n      dup8\n        /* \"#utility.yul\":15771:15817   */\n      tag_435\n      jump\t// in\n    tag_489:\n        /* \"#utility.yul\":15848:15850   */\n      0x20\n        /* \"#utility.yul\":15833:15851   */\n      dup4\n      add\n        /* \"#utility.yul\":15826:15860   */\n      swap6\n      swap1\n      swap6\n      mstore\n      pop\n        /* \"#utility.yul\":15891:15893   */\n      0x40\n        /* \"#utility.yul\":15876:15894   */\n      dup2\n      add\n        /* \"#utility.yul\":15869:15903   */\n      swap3\n      swap1\n      swap3\n      mstore\n        /* \"#utility.yul\":15934:15936   */\n      0x60\n        /* \"#utility.yul\":15919:15937   */\n      swap1\n      swap2\n      add\n        /* \"#utility.yul\":15912:15946   */\n      mstore\n        /* \"#utility.yul\":15763:15817   */\n      swap2\n        /* \"#utility.yul\":15722:15952   */\n      swap1\n      pop\n      jump\t// out\n        /* \"#utility.yul\":15957:16356   */\n    tag_240:\n        /* \"#utility.yul\":16159:16161   */\n      0x20\n        /* \"#utility.yul\":16141:16162   */\n      dup1\n      dup3\n      mstore\n        /* \"#utility.yul\":16198:16200   */\n      0x23\n        /* \"#utility.yul\":16178:16196   */\n      swap1\n      dup3\n      add\n        /* \"#utility.yul\":16171:16201   */\n      mstore\n        /* \"#utility.yul\":16237:16271   */\n      0x4548522d52442d30313a20446f63746f7220616c726561647920456e726f6c6c\n        /* \"#utility.yul\":16232:16234   */\n      0x40\n        /* \"#utility.yul\":16217:16235   */\n      dup3\n      add\n        /* \"#utility.yul\":16210:16272   */\n      mstore\n      shl(0xe9, 0x32b217)\n        /* \"#utility.yul\":16303:16305   */\n      0x60\n        /* \"#utility.yul\":16288:16306   */\n      dup3\n      add\n        /* \"#utility.yul\":16281:16314   */\n      mstore\n        /* \"#utility.yul\":16346:16349   */\n      0x80\n        /* \"#utility.yul\":16331:16350   */\n      add\n      swap1\n        /* \"#utility.yul\":16131:16356   */\n      jump\t// out\n        /* \"#utility.yul\":17875:18221   */\n    tag_103:\n        /* \"#utility.yul\":18077:18079   */\n      0x20\n        /* \"#utility.yul\":18059:18080   */\n      dup1\n      dup3\n      mstore\n        /* \"#utility.yul\":18116:18118   */\n      0x16\n        /* \"#utility.yul\":18096:18114   */\n      swap1\n      dup3\n      add\n        /* \"#utility.yul\":18089:18119   */\n      mstore\n      shl(0x52, 0x14185d1a595b9d08139bdd081c9959da5cdd195c9959)\n        /* \"#utility.yul\":18150:18152   */\n      0x40\n        /* \"#utility.yul\":18135:18153   */\n      dup3\n      add\n        /* \"#utility.yul\":18128:18180   */\n      mstore\n        /* \"#utility.yul\":18212:18214   */\n      0x60\n        /* \"#utility.yul\":18197:18215   */\n      add\n      swap1\n        /* \"#utility.yul\":18049:18221   */\n      jump\t// out\n        /* \"#utility.yul\":18226:18626   */\n    tag_290:\n        /* \"#utility.yul\":18428:18430   */\n      0x20\n        /* \"#utility.yul\":18410:18431   */\n      dup1\n      dup3\n      mstore\n        /* \"#utility.yul\":18467:18469   */\n      0x24\n        /* \"#utility.yul\":18447:18465   */\n      swap1\n      dup3\n      add\n        /* \"#utility.yul\":18440:18470   */\n      mstore\n        /* \"#utility.yul\":18506:18540   */\n      0x4548522d52502d30323a2050617469656e7420616c726561647920456e726f6c\n        /* \"#utility.yul\":18501:18503   */\n      0x40\n        /* \"#utility.yul\":18486:18504   */\n      dup3\n      add\n        /* \"#utility.yul\":18479:18541   */\n      mstore\n      shl(0xe1, 0x3632b217)\n        /* \"#utility.yul\":18572:18574   */\n      0x60\n        /* \"#utility.yul\":18557:18575   */\n      dup3\n      add\n        /* \"#utility.yul\":18550:18584   */\n      mstore\n        /* \"#utility.yul\":18616:18619   */\n      0x80\n        /* \"#utility.yul\":18601:18620   */\n      add\n      swap1\n        /* \"#utility.yul\":18400:18626   */\n      jump\t// out\n        /* \"#utility.yul\":19348:19747   */\n    tag_244:\n        /* \"#utility.yul\":19550:19552   */\n      0x20\n        /* \"#utility.yul\":19532:19553   */\n      dup1\n      dup3\n      mstore\n        /* \"#utility.yul\":19589:19591   */\n      0x23\n        /* \"#utility.yul\":19569:19587   */\n      swap1\n      dup3\n      add\n        /* \"#utility.yul\":19562:19592   */\n      mstore\n        /* \"#utility.yul\":19628:19662   */\n      0x4548522d52442d30323a20446f63746f7220616c726561647920456e726f6c6c\n        /* \"#utility.yul\":19623:19625   */\n      0x40\n        /* \"#utility.yul\":19608:19626   */\n      dup3\n      add\n        /* \"#utility.yul\":19601:19663   */\n      mstore\n      shl(0xe9, 0x32b217)\n        /* \"#utility.yul\":19694:19696   */\n      0x60\n        /* \"#utility.yul\":19679:19697   */\n      dup3\n      add\n        /* \"#utility.yul\":19672:19705   */\n      mstore\n        /* \"#utility.yul\":19737:19740   */\n      0x80\n        /* \"#utility.yul\":19722:19741   */\n      add\n      swap1\n        /* \"#utility.yul\":19522:19747   */\n      jump\t// out\n        /* \"#utility.yul\":19752:20152   */\n    tag_286:\n        /* \"#utility.yul\":19954:19956   */\n      0x20\n        /* \"#utility.yul\":19936:19957   */\n      dup1\n      dup3\n      mstore\n        /* \"#utility.yul\":19993:19995   */\n      0x24\n        /* \"#utility.yul\":19973:19991   */\n      swap1\n      dup3\n      add\n        /* \"#utility.yul\":19966:19996   */\n      mstore\n        /* \"#utility.yul\":20032:20066   */\n      0x4548522d52502d30313a2050617469656e7420616c726561647920456e726f6c\n        /* \"#utility.yul\":20027:20029   */\n      0x40\n        /* \"#utility.yul\":20012:20030   */\n      dup3\n      add\n        /* \"#utility.yul\":20005:20067   */\n      mstore\n      shl(0xe1, 0x3632b217)\n        /* \"#utility.yul\":20098:20100   */\n      0x60\n        /* \"#utility.yul\":20083:20101   */\n      dup3\n      add\n        /* \"#utility.yul\":20076:20110   */\n      mstore\n        /* \"#utility.yul\":20142:20145   */\n      0x80\n        /* \"#utility.yul\":20127:20146   */\n      add\n      swap1\n        /* \"#utility.yul\":19926:20152   */\n      jump\t// out\n        /* \"#utility.yul\":20339:20701   */\n    tag_267:\n        /* \"#utility.yul\":20544:20550   */\n      dup4\n        /* \"#utility.yul\":20533:20542   */\n      dup2\n        /* \"#utility.yul\":20526:20551   */\n      mstore\n        /* \"#utility.yul\":20587:20589   */\n      0x60\n        /* \"#utility.yul\":20582:20584   */\n      0x20\n        /* \"#utility.yul\":20571:20580   */\n      dup3\n        /* \"#utility.yul\":20567:20585   */\n      add\n        /* \"#utility.yul\":20560:20590   */\n      mstore\n        /* \"#utility.yul\":20507:20511   */\n      0x00\n        /* \"#utility.yul\":20607:20652   */\n      tag_503\n        /* \"#utility.yul\":20648:20650   */\n      0x60\n        /* \"#utility.yul\":20637:20646   */\n      dup4\n        /* \"#utility.yul\":20633:20651   */\n      add\n        /* \"#utility.yul\":20625:20631   */\n      dup6\n        /* \"#utility.yul\":20607:20652   */\n      tag_435\n      jump\t// in\n    tag_503:\n        /* \"#utility.yul\":20599:20652   */\n      swap1\n      pop\n        /* \"#utility.yul\":20688:20694   */\n      dup3\n        /* \"#utility.yul\":20683:20685   */\n      0x40\n        /* \"#utility.yul\":20672:20681   */\n      dup4\n        /* \"#utility.yul\":20668:20686   */\n      add\n        /* \"#utility.yul\":20661:20695   */\n      mstore\n        /* \"#utility.yul\":20516:20701   */\n      swap5\n      swap4\n      pop\n      pop\n      pop\n      pop\n      jump\t// out\n        /* \"#utility.yul\":22702:22960   */\n    tag_438:\n        /* \"#utility.yul\":22774:22775   */\n      0x00\n        /* \"#utility.yul\":22784:22897   */\n    tag_509:\n        /* \"#utility.yul\":22798:22804   */\n      dup4\n        /* \"#utility.yul\":22795:22796   */\n      dup2\n        /* \"#utility.yul\":22792:22805   */\n      lt\n        /* \"#utility.yul\":22784:22897   */\n      iszero\n      tag_511\n      jumpi\n        /* \"#utility.yul\":22874:22885   */\n      dup2\n      dup2\n      add\n        /* \"#utility.yul\":22868:22886   */\n      mload\n        /* \"#utility.yul\":22855:22866   */\n      dup4\n      dup3\n      add\n        /* \"#utility.yul\":22848:22887   */\n      mstore\n        /* \"#utility.yul\":22820:22822   */\n      0x20\n        /* \"#utility.yul\":22813:22823   */\n      add\n        /* \"#utility.yul\":22784:22897   */\n      jump(tag_509)\n    tag_511:\n        /* \"#utility.yul\":22915:22921   */\n      dup4\n        /* \"#utility.yul\":22912:22913   */\n      dup2\n        /* \"#utility.yul\":22909:22922   */\n      gt\n        /* \"#utility.yul\":22906:22908   */\n      iszero\n      tag_512\n      jumpi\n        /* \"#utility.yul\":22950:22951   */\n      0x00\n        /* \"#utility.yul\":22941:22947   */\n      dup5\n        /* \"#utility.yul\":22936:22939   */\n      dup5\n        /* \"#utility.yul\":22932:22948   */\n      add\n        /* \"#utility.yul\":22925:22952   */\n      mstore\n        /* \"#utility.yul\":22906:22908   */\n    tag_512:\n      pop\n        /* \"#utility.yul\":22755:22960   */\n      pop\n      pop\n      pop\n      jump\t// out\n        /* \"#utility.yul\":22965:23345   */\n    tag_110:\n        /* \"#utility.yul\":23044:23045   */\n      0x01\n        /* \"#utility.yul\":23040:23052   */\n      dup2\n      dup2\n      shr\n      swap1\n        /* \"#utility.yul\":23087:23099   */\n      dup3\n      and\n      dup1\n        /* \"#utility.yul\":23108:23110   */\n      tag_514\n      jumpi\n        /* \"#utility.yul\":23162:23166   */\n      0x7f\n        /* \"#utility.yul\":23154:23160   */\n      dup3\n        /* \"#utility.yul\":23150:23167   */\n      and\n        /* \"#utility.yul\":23140:23167   */\n      swap2\n      pop\n        /* \"#utility.yul\":23108:23110   */\n    tag_514:\n        /* \"#utility.yul\":23215:23217   */\n      0x20\n        /* \"#utility.yul\":23207:23213   */\n      dup3\n        /* \"#utility.yul\":23204:23218   */\n      lt\n        /* \"#utility.yul\":23184:23202   */\n      dup2\n        /* \"#utility.yul\":23181:23219   */\n      eq\n        /* \"#utility.yul\":23178:23180   */\n      iszero\n      tag_515\n      jumpi\n        /* \"#utility.yul\":23261:23271   */\n      0x4e487b71\n        /* \"#utility.yul\":23256:23259   */\n      0xe0\n        /* \"#utility.yul\":23252:23272   */\n      shl\n        /* \"#utility.yul\":23249:23250   */\n      0x00\n        /* \"#utility.yul\":23242:23273   */\n      mstore\n        /* \"#utility.yul\":23296:23300   */\n      0x22\n        /* \"#utility.yul\":23293:23294   */\n      0x04\n        /* \"#utility.yul\":23286:23301   */\n      mstore\n        /* \"#utility.yul\":23324:23328   */\n      0x24\n        /* \"#utility.yul\":23321:23322   */\n      0x00\n        /* \"#utility.yul\":23314:23329   */\n      revert\n        /* \"#utility.yul\":23178:23180   */\n    tag_515:\n      pop\n        /* \"#utility.yul\":23020:23345   */\n      swap2\n      swap1\n      pop\n      jump\t// out\n        /* \"#utility.yul\":23350:23477   */\n    tag_477:\n        /* \"#utility.yul\":23411:23421   */\n      0x4e487b71\n        /* \"#utility.yul\":23406:23409   */\n      0xe0\n        /* \"#utility.yul\":23402:23422   */\n      shl\n        /* \"#utility.yul\":23399:23400   */\n      0x00\n        /* \"#utility.yul\":23392:23423   */\n      mstore\n        /* \"#utility.yul\":23442:23446   */\n      0x21\n        /* \"#utility.yul\":23439:23440   */\n      0x04\n        /* \"#utility.yul\":23432:23447   */\n      mstore\n        /* \"#utility.yul\":23466:23470   */\n      0x24\n        /* \"#utility.yul\":23463:23464   */\n      0x00\n        /* \"#utility.yul\":23456:23471   */\n      revert\n        /* \"#utility.yul\":23482:23609   */\n    tag_366:\n        /* \"#utility.yul\":23543:23553   */\n      0x4e487b71\n        /* \"#utility.yul\":23538:23541   */\n      0xe0\n        /* \"#utility.yul\":23534:23554   */\n      shl\n        /* \"#utility.yul\":23531:23532   */\n      0x00\n        /* \"#utility.yul\":23524:23555   */\n      mstore\n        /* \"#utility.yul\":23574:23578   */\n      0x41\n        /* \"#utility.yul\":23571:23572   */\n      0x04\n        /* \"#utility.yul\":23564:23579   */\n      mstore\n        /* \"#utility.yul\":23598:23602   */\n      0x24\n        /* \"#utility.yul\":23595:23596   */\n      0x00\n        /* \"#utility.yul\":23588:23603   */\n      revert\n        /* \"#utility.yul\":23614:23719   */\n    tag_360:\n        /* \"#utility.yul\":23693:23694   */\n      0x02\n        /* \"#utility.yul\":23686:23691   */\n      dup2\n        /* \"#utility.yul\":23683:23695   */\n      lt\n        /* \"#utility.yul\":23673:23675   */\n      tag_519\n      jumpi\n        /* \"#utility.yul\":23709:23710   */\n      0x00\n        /* \"#utility.yul\":23706:23707   */\n      dup1\n        /* \"#utility.yul\":23699:23711   */\n      revert\n        /* \"#utility.yul\":23673:23675   */\n    tag_519:\n        /* \"#utility.yul\":23663:23719   */\n      pop\n      jump\t// out\n    stop\n    data_f1783972c13bbde284b8765b8e27686842dfd940022613858bd0f693b0907129 1041037d4b3ee5730fce647ebd981cd0fd8864f61cd34868ef88a3fa6af64721\n\n    auxdata: 0xa26469706673582212208377c83881bead3016ef034de9a80e015fabee66a10be7c1efdb360db4b3851a64736f6c63430008040033\n}\n",
				"bytecode": {
					"linkReferences": {},
					"object": "60016004556003610120908152624d524960e81b610140526080908152600961016081815268109313d3d1151154d560ba1b6101805260a0526101a09081526810d3d59251151154d560ba1b6101c05260c05260106101e09081526f434f564944434552544946494341544560801b6102005260e0526102606040526007610220908152660434845434b55560cc1b6102405261010052620000a690600e9060056200010b565b50348015620000b457600080fd5b5060405162002d9a38038062002d9a833981016040819052620000d79162000274565b600280546001600160a01b0319166001600160a01b03831617905550600680546001600160a01b03191633179055620002e1565b8280548282559060005260206000209081019282156200015d579160200282015b828111156200015d57825180516200014c9184916020909101906200016f565b50916020019190600101906200012c565b506200016b929150620001fa565b5090565b8280546200017d90620002a4565b90600052602060002090601f016020900481019282620001a15760008555620001ec565b82601f10620001bc57805160ff1916838001178555620001ec565b82800160010185558215620001ec579182015b82811115620001ec578251825591602001919060010190620001cf565b506200016b9291506200021b565b808211156200016b57600062000211828262000232565b50600101620001fa565b5b808211156200016b57600081556001016200021c565b5080546200024090620002a4565b6000825580601f1062000251575050565b601f0160209004906000526020600020908101906200027191906200021b565b50565b60006020828403121562000286578081fd5b81516001600160a01b03811681146200029d578182fd5b9392505050565b600181811c90821680620002b957607f821691505b60208210811415620002db57634e487b7160e01b600052602260045260246000fd5b50919050565b612aa980620002f16000396000f3fe608060405234801561001057600080fd5b506004361061010b5760003560e01c8063a269b418116100a2578063db3e397611610071578063db3e3976146102be578063e078a1c6146102d1578063edef7049146102e4578063f6c6e3d0146102f7578063f75be4eb1461030a57600080fd5b8063a269b41814610252578063c977baf314610265578063cbd46fa314610288578063d7349705146102ab57600080fd5b80634fcd407a116100de5780634fcd407a146101c3578063764b6b38146102015780638da5cb5b146102145780638f58f6281461023f57600080fd5b8063021bf487146101105780630a77f6b01461012557806314bb57fd146101555780632990bc6f1461019f575b600080fd5b61012361011e366004612500565b61032e565b005b6101386101333660046123b2565b6103d1565b60405161014c9897969594939291906126d5565b60405180910390f35b6101916101633660046123ca565b600b602090815260009283526040909220815180830184018051928152908401929093019190912091525481565b60405190815260200161014c565b6101b26101ad3660046123b2565b6106c3565b60405161014c959493929190612673565b6101f16101d136600461240f565b600d60209081526000928352604080842090915290825290205460ff1681565b604051901515815260200161014c565b61012361020f36600461252b565b610914565b600654610227906001600160a01b031681565b6040516001600160a01b03909116815260200161014c565b61012361024d366004612468565b610a1d565b610123610260366004612430565b610bc4565b6102786102733660046123b2565b610e5d565b60405161014c94939291906127dd565b61029b61029636600461240f565b610f95565b60405161014c9493929190612626565b6101236102b9366004612336565b611163565b6101236102cc36600461217e565b61126d565b6101236102df36600461227c565b6116d0565b6101236102f23660046120c1565b611819565b610123610305366004612468565b611b86565b61031d6103183660046123b2565b611d25565b60405161014c95949392919061277d565b600083815260076020526040902060040154839060ff16151560011461036f5760405162461bcd60e51b815260040161036690612888565b60405180910390fd5b81600b6000868152602001908152602001600020600e85815481106103a457634e487b7160e01b600052603260045260246000fd5b906000526020600020016040516103bb9190612588565b9081526040519081900360200190205550505050565b6008602052600090815260409020805481906103ec906129dc565b80601f0160208091040260200160405190810160405280929190818152602001828054610418906129dc565b80156104655780601f1061043a57610100808354040283529160200191610465565b820191906000526020600020905b81548152906001019060200180831161044857829003601f168201915b50505050509080600101805461047a906129dc565b80601f01602080910402602001604051908101604052809291908181526020018280546104a6906129dc565b80156104f35780601f106104c8576101008083540402835291602001916104f3565b820191906000526020600020905b8154815290600101906020018083116104d657829003601f168201915b505050505090806002018054610508906129dc565b80601f0160208091040260200160405190810160405280929190818152602001828054610534906129dc565b80156105815780601f1061055657610100808354040283529160200191610581565b820191906000526020600020905b81548152906001019060200180831161056457829003601f168201915b505050505090806003018054610596906129dc565b80601f01602080910402602001604051908101604052809291908181526020018280546105c2906129dc565b801561060f5780601f106105e45761010080835404028352916020019161060f565b820191906000526020600020905b8154815290600101906020018083116105f257829003601f168201915b505050505090806004018054610624906129dc565b80601f0160208091040260200160405190810160405280929190818152602001828054610650906129dc565b801561069d5780601f106106725761010080835404028352916020019161069d565b820191906000526020600020905b81548152906001019060200180831161068057829003601f168201915b5050506005909301549192505060ff808216916101008104821691620100009091041688565b6007602052600090815260409020805481906106de906129dc565b80601f016020809104026020016040519081016040528092919081815260200182805461070a906129dc565b80156107575780601f1061072c57610100808354040283529160200191610757565b820191906000526020600020905b81548152906001019060200180831161073a57829003601f168201915b50505050509080600101805461076c906129dc565b80601f0160208091040260200160405190810160405280929190818152602001828054610798906129dc565b80156107e55780601f106107ba576101008083540402835291602001916107e5565b820191906000526020600020905b8154815290600101906020018083116107c857829003601f168201915b5050505050908060020180546107fa906129dc565b80601f0160208091040260200160405190810160405280929190818152602001828054610826906129dc565b80156108735780601f1061084857610100808354040283529160200191610873565b820191906000526020600020905b81548152906001019060200180831161085657829003601f168201915b505050505090806003018054610888906129dc565b80601f01602080910402602001604051908101604052809291908181526020018280546108b4906129dc565b80156109015780601f106108d657610100808354040283529160200191610901565b820191906000526020600020905b8154815290600101906020018083116108e457829003601f168201915b5050506004909301549192505060ff1685565b600084815260076020526040902060040154849060ff16151560011461094c5760405162461bcd60e51b815260040161036690612888565b6000858152600d6020908152604080832087845290915290205460ff1615156001146109ba5760405162461bcd60e51b815260206004820152601d60248201527f4e6f206163636573732070726f76696465642062792070617469656e740000006044820152606401610366565b81600b6000878152602001908152602001600020600e85815481106109ef57634e487b7160e01b600052603260045260246000fd5b90600052602060002001604051610a069190612588565b908152604051908190036020019020555050505050565b600085815260076020526040902060040154859060ff161515600114610a555760405162461bcd60e51b815260040161036690612888565b6000868152600c6020908152604080832088845290915290206003015460ff1615610ac25760405162461bcd60e51b815260206004820152601e60248201527f4548522d5243472d30313a20416c7265616479207265676973746572656400006044820152606401610366565b604080516080810182528581526020808201869052818301859052600160608301526000898152600c82528381208982528252929092208151805192939192610b0e9284920190611f73565b506020828101518051610b279260018501920190611f73565b5060408201518051610b43916002840191602090910190611f73565b506060918201516003909101805460ff191691151591909117905560408051888152602081018390526019928101929092527f436172656769766572204461746120726567697374657265640000000000000060808301524290820152600080516020612a548339815191529060a0015b60405180910390a1505050505050565b600082815260086020526040902060050154829062010000900460ff161515600114610c2a5760405162461bcd60e51b8152602060048201526015602482015274111bd8dd1bdc88139bdd081c9959da5cdd195c9959605a1b6044820152606401610366565b60606000836001811115610c4e57634e487b7160e01b600052602160045260246000fd5b1415610d22576000858152600d6020908152604080832087845290915290205460ff1615610cca5760405162461bcd60e51b8152602060048201526024808201527f4548522d41432d30313a2041636365737320686164206265656e2070726f76696044820152636465642160e01b6064820152608401610366565b506000848152600d60209081526040808320868452825291829020805460ff191660011790558151808301909252601c82527f4163636573732069732070726f766964656420746f20646f63746f7200000000908201525b6001836001811115610d4457634e487b7160e01b600052602160045260246000fd5b1415610e19576000858152600d6020908152604080832087845290915290205460ff161515600114610dc45760405162461bcd60e51b815260206004820152602360248201527f4548522d41432d30323a2041636365737320776173206e6f742070726f76696460448201526265642160e81b6064820152608401610366565b506000848152600d60209081526040808320868452825291829020805460ff191690558151808301909252601b82527f416363657373206973207265766f6b656420746f20646f63746f720000000000908201525b7ff4702a3b8b6c43f2fa41588e64688a0c0bc61f411971bd5ec9c64b828d4bccb081868642604051610e4e9493929190612816565b60405180910390a15050505050565b600a60205260009081526040902080548190610e78906129dc565b80601f0160208091040260200160405190810160405280929190818152602001828054610ea4906129dc565b8015610ef15780601f10610ec657610100808354040283529160200191610ef1565b820191906000526020600020905b815481529060010190602001808311610ed457829003601f168201915b505050505090806001018054610f06906129dc565b80601f0160208091040260200160405190810160405280929190818152602001828054610f32906129dc565b8015610f7f5780601f10610f5457610100808354040283529160200191610f7f565b820191906000526020600020905b815481529060010190602001808311610f6257829003601f168201915b5050505050908060020154908060030154905084565b600c602090815260009283526040808420909152908252902080548190610fbb906129dc565b80601f0160208091040260200160405190810160405280929190818152602001828054610fe7906129dc565b80156110345780601f1061100957610100808354040283529160200191611034565b820191906000526020600020905b81548152906001019060200180831161101757829003601f168201915b505050505090806001018054611049906129dc565b80601f0160208091040260200160405190810160405280929190818152602001828054611075906129dc565b80156110c25780601f10611097576101008083540402835291602001916110c2565b820191906000526020600020905b8154815290600101906020018083116110a557829003601f168201915b5050505050908060020180546110d7906129dc565b80601f0160208091040260200160405190810160405280929190818152602001828054611103906129dc565b80156111505780601f1061112557610100808354040283529160200191611150565b820191906000526020600020905b81548152906001019060200180831161113357829003601f168201915b5050506003909301549192505060ff1684565b600081815260076020526040902060040154819060ff16151560011461119b5760405162461bcd60e51b815260040161036690612888565b604080516080810182528781526020808201889052818301879052606082018690526000858152600a82529290922081518051929391926111df9284920190611f73565b5060208281015180516111f89260018501920190611f73565b506040820151816002015560608201518160030155905050600080516020612a548339815191528242604051610bb4929190918252606060208301819052601b908301527f50617469656e74204865616c74682044617461207570646174656400000000006080830152604082015260a00190565b600086886040516020016112829291906125f7565b60408051601f1981840301815291905280516020909101209050606060008360018111156112c057634e487b7160e01b600052602160045260246000fd5b1415611539578880519060200120600860008481526020019081526020016000206001016040516112f19190612588565b604051809103902014156113175760405162461bcd60e51b815260040161036690612845565b8780519060200120600860008481526020019081526020016000206002016040516113429190612588565b604051809103902014156113685760405162461bcd60e51b8152600401610366906128fc565b6040518061010001604052808b81526020018a81526020018981526020018881526020018781526020018660048111156113b257634e487b7160e01b600052602160045260246000fd5b81526020018560028111156113d757634e487b7160e01b600052602160045260246000fd5b815260016020918201526000848152600882526040902082518051919261140392849290910190611f73565b50602082810151805161141c9260018501920190611f73565b5060408201518051611438916002840191602090910190611f73565b5060608201518051611454916003840191602090910190611f73565b5060808201518051611470916004840191602090910190611f73565b5060a082015160058201805460ff191660018360048111156114a257634e487b7160e01b600052602160045260246000fd5b021790555060c082015160058201805461ff0019166101008360028111156114da57634e487b7160e01b600052602160045260246000fd5b021790555060e0919091015160059091018054911515620100000262ff0000199092169190911790555060408051808201909152601881527f446f63746f7220526567697374726174696f6e20446f6e65000000000000000060208201525b600183600181111561155b57634e487b7160e01b600052602160045260246000fd5b141561169b5788805190602001206008600084815260200190815260200160002060010160405161158c9190612588565b6040518091039020146115b15760405162461bcd60e51b815260040161036690612845565b8780519060200120600860008481526020019081526020016000206002016040516115dc9190612588565b6040518091039020146116015760405162461bcd60e51b8152600401610366906128fc565b60008281526008602090815260409091208b51611620928d0190611f73565b5060008281526008602090815260409091208a51611646926001909201918c0190611f73565b506000828152600860209081526040909120895161166c926002909201918b0190611f73565b5050604080518082019091526015815274111bd8dd1bdc88149958dbdc9908155c19185d1959605a1b60208201525b600080516020612a548339815191528282426040516116bc93929190612983565b60405180910390a150505050505050505050565b600081815260076020526040902060040154819060ff1615156001146117085760405162461bcd60e51b815260040161036690612888565b6040805160a081018252888152602080820189905281830188905260608201879052608082018690526000858152600982529290922081518051929391926117539284920190611f73565b50602082810151805161176c9260018501920190611f73565b5060408201518051611788916002840191602090910190611f73565b50606082015180516117a4916003840191602090910190611f73565b5060809182015160049091015560408051848152606060208201819052601d908201527f50617469656e74204c6f636174696f6e20446174612075706461746564000000928101929092524290820152600080516020612a548339815191529060a0015b60405180910390a150505050505050565b6000838560405160200161182e9291906125f7565b60408051601f19818403018152919052805160209091012090506060600083600181111561186c57634e487b7160e01b600052602160045260246000fd5b1415611a025785805190602001206007600084815260200190815260200160002060010160405161189d9190612588565b604051809103902014156118c35760405162461bcd60e51b81526004016103669061293f565b8480519060200120600760008481526020019081526020016000206002016040516118ee9190612588565b604051809103902014156119145760405162461bcd60e51b8152600401610366906128b8565b6040805160a0810182528881526020808201899052818301889052606082018790526001608083015260008581526007825292909220815180519293919261195f9284920190611f73565b5060208281015180516119789260018501920190611f73565b5060408201518051611994916002840191602090910190611f73565b50606082015180516119b0916003840191602090910190611f73565b50608091909101516004909101805460ff19169115159190911790555060408051808201909152601981527f50617469656e7420526567697374726174696f6e20446f6e650000000000000060208201525b6001836001811115611a2457634e487b7160e01b600052602160045260246000fd5b1415611b6557858051906020012060076000848152602001908152602001600020600101604051611a559190612588565b604051809103902014611a7a5760405162461bcd60e51b81526004016103669061293f565b848051906020012060076000848152602001908152602001600020600201604051611aa59190612588565b604051809103902014611aca5760405162461bcd60e51b8152600401610366906128b8565b60008281526007602090815260409091208851611ae9928a0190611f73565b5060008281526007602090815260409091208751611b0f92600190920191890190611f73565b5060008281526007602090815260409091208651611b3592600290920191880190611f73565b505060408051808201909152601681527514185d1a595b9d08149958dbdc9908155c19185d195960521b60208201525b600080516020612a5483398151915282824260405161180893929190612983565b600085815260076020526040902060040154859060ff161515600114611bbe5760405162461bcd60e51b815260040161036690612888565b6000868152600c6020908152604080832088845290915290206003015460ff161515600114611c2f5760405162461bcd60e51b815260206004820152601a60248201527f4548522d5243472d30323a204e6f7420726567697374657265640000000000006044820152606401610366565b604080516080810182528581526020808201869052818301859052600160608301526000898152600c82528381208982528252929092208151805192939192611c7b9284920190611f73565b506020828101518051611c949260018501920190611f73565b5060408201518051611cb0916002840191602090910190611f73565b506060918201516003909101805460ff191691151591909117905560408051888152602081018390526017928101929092527f4361726567697665722044617461206d6f64696669656400000000000000000060808301524290820152600080516020612a548339815191529060a001610bb4565b600960205260009081526040902080548190611d40906129dc565b80601f0160208091040260200160405190810160405280929190818152602001828054611d6c906129dc565b8015611db95780601f10611d8e57610100808354040283529160200191611db9565b820191906000526020600020905b815481529060010190602001808311611d9c57829003601f168201915b505050505090806001018054611dce906129dc565b80601f0160208091040260200160405190810160405280929190818152602001828054611dfa906129dc565b8015611e475780601f10611e1c57610100808354040283529160200191611e47565b820191906000526020600020905b815481529060010190602001808311611e2a57829003601f168201915b505050505090806002018054611e5c906129dc565b80601f0160208091040260200160405190810160405280929190818152602001828054611e88906129dc565b8015611ed55780601f10611eaa57610100808354040283529160200191611ed5565b820191906000526020600020905b815481529060010190602001808311611eb857829003601f168201915b505050505090806003018054611eea906129dc565b80601f0160208091040260200160405190810160405280929190818152602001828054611f16906129dc565b8015611f635780601f10611f3857610100808354040283529160200191611f63565b820191906000526020600020905b815481529060010190602001808311611f4657829003601f168201915b5050505050908060040154905085565b828054611f7f906129dc565b90600052602060002090601f016020900481019282611fa15760008555611fe7565b82601f10611fba57805160ff1916838001178555611fe7565b82800160010185558215611fe7579182015b82811115611fe7578251825591602001919060010190611fcc565b50611ff3929150611ff7565b5090565b5b80821115611ff35760008155600101611ff8565b80356005811061201b57600080fd5b919050565b80356003811061201b57600080fd5b803561201b81612a43565b600082601f83011261204a578081fd5b813567ffffffffffffffff8082111561206557612065612a2d565b604051601f8301601f19908116603f0116810190828211818310171561208d5761208d612a2d565b816040528381528660208588010111156120a5578485fd5b8360208701602083013792830160200193909352509392505050565b600080600080600060a086880312156120d8578081fd5b853567ffffffffffffffff808211156120ef578283fd5b6120fb89838a0161203a565b96506020880135915080821115612110578283fd5b61211c89838a0161203a565b95506040880135915080821115612131578283fd5b61213d89838a0161203a565b94506060880135915080821115612152578283fd5b5061215f8882890161203a565b925050608086013561217081612a43565b809150509295509295909350565b600080600080600080600080610100898b03121561219a578283fd5b883567ffffffffffffffff808211156121b1578485fd5b6121bd8c838d0161203a565b995060208b01359150808211156121d2578485fd5b6121de8c838d0161203a565b985060408b01359150808211156121f3578485fd5b6121ff8c838d0161203a565b975060608b0135915080821115612214578485fd5b6122208c838d0161203a565b965060808b0135915080821115612235578485fd5b506122428b828c0161203a565b94505061225160a08a0161200c565b925061225f60c08a01612020565b915061226d60e08a0161202f565b90509295985092959890939650565b60008060008060008060c08789031215612294578182fd5b863567ffffffffffffffff808211156122ab578384fd5b6122b78a838b0161203a565b975060208901359150808211156122cc578384fd5b6122d88a838b0161203a565b965060408901359150808211156122ed578384fd5b6122f98a838b0161203a565b9550606089013591508082111561230e578384fd5b5061231b89828a0161203a565b9350506080870135915060a087013590509295509295509295565b600080600080600060a0868803121561234d578081fd5b853567ffffffffffffffff80821115612364578283fd5b61237089838a0161203a565b96506020880135915080821115612385578283fd5b506123928882890161203a565b959895975050505060408401359360608101359360809091013592509050565b6000602082840312156123c3578081fd5b5035919050565b600080604083850312156123dc578182fd5b82359150602083013567ffffffffffffffff8111156123f9578182fd5b6124058582860161203a565b9150509250929050565b60008060408385031215612421578182fd5b50508035926020909101359150565b600080600060608486031215612444578283fd5b8335925060208401359150604084013561245d81612a43565b809150509250925092565b600080600080600060a0868803121561247f578081fd5b8535945060208601359350604086013567ffffffffffffffff808211156124a4578283fd5b6124b089838a0161203a565b945060608801359150808211156124c5578283fd5b6124d189838a0161203a565b935060808801359150808211156124e6578283fd5b506124f38882890161203a565b9150509295509295909350565b600080600060608486031215612514578081fd5b505081359360208301359350604090920135919050565b60008060008060808587031215612540578182fd5b5050823594602084013594506040840135936060013592509050565b600081518084526125748160208601602086016129ac565b601f01601f19169290920160200192915050565b6000808354612596816129dc565b600182811680156125ae57600181146125bf576125eb565b60ff198416875282870194506125eb565b8786526020808720875b858110156125e25781548a8201529084019082016125c9565b50505082870194505b50929695505050505050565b600083516126098184602088016129ac565b83519083019061261d8183602088016129ac565b01949350505050565b608081526000612639608083018761255c565b828103602084015261264b818761255c565b9050828103604084015261265f818661255c565b915050821515606083015295945050505050565b60a08152600061268660a083018861255c565b8281036020840152612698818861255c565b905082810360408401526126ac818761255c565b905082810360608401526126c0818661255c565b91505082151560808301529695505050505050565b60006101008083526126e98184018c61255c565b905082810360208401526126fd818b61255c565b90508281036040840152612711818a61255c565b90508281036060840152612725818961255c565b90508281036080840152612739818861255c565b9150506005851061274c5761274c612a17565b8460a08301526003841061276257612762612a17565b8360c083015282151560e08301529998505050505050505050565b60a08152600061279060a083018861255c565b82810360208401526127a2818861255c565b905082810360408401526127b6818761255c565b905082810360608401526127ca818661255c565b9150508260808301529695505050505050565b6080815260006127f0608083018761255c565b8281036020840152612802818761255c565b604084019590955250506060015292915050565b608081526000612829608083018761255c565b6020830195909552506040810192909252606090910152919050565b60208082526023908201527f4548522d52442d30313a20446f63746f7220616c726561647920456e726f6c6c60408201526232b21760e91b606082015260800190565b60208082526016908201527514185d1a595b9d08139bdd081c9959da5cdd195c995960521b604082015260600190565b60208082526024908201527f4548522d52502d30323a2050617469656e7420616c726561647920456e726f6c6040820152633632b21760e11b606082015260800190565b60208082526023908201527f4548522d52442d30323a20446f63746f7220616c726561647920456e726f6c6c60408201526232b21760e91b606082015260800190565b60208082526024908201527f4548522d52502d30313a2050617469656e7420616c726561647920456e726f6c6040820152633632b21760e11b606082015260800190565b83815260606020820152600061299c606083018561255c565b9050826040830152949350505050565b60005b838110156129c75781810151838201526020016129af565b838111156129d6576000848401525b50505050565b600181811c908216806129f057607f821691505b60208210811415612a1157634e487b7160e01b600052602260045260246000fd5b50919050565b634e487b7160e01b600052602160045260246000fd5b634e487b7160e01b600052604160045260246000fd5b60028110612a5057600080fd5b5056fe1041037d4b3ee5730fce647ebd981cd0fd8864f61cd34868ef88a3fa6af64721a26469706673582212208377c83881bead3016ef034de9a80e015fabee66a10be7c1efdb360db4b3851a64736f6c63430008040033",
					"opcodes": "PUSH1 0x1 PUSH1 0x4 SSTORE PUSH1 0x3 PUSH2 0x120 SWAP1 DUP2 MSTORE PUSH3 0x4D5249 PUSH1 0xE8 SHL PUSH2 0x140 MSTORE PUSH1 0x80 SWAP1 DUP2 MSTORE PUSH1 0x9 PUSH2 0x160 DUP2 DUP2 MSTORE PUSH9 0x109313D3D1151154D5 PUSH1 0xBA SHL PUSH2 0x180 MSTORE PUSH1 0xA0 MSTORE PUSH2 0x1A0 SWAP1 DUP2 MSTORE PUSH9 0x10D3D59251151154D5 PUSH1 0xBA SHL PUSH2 0x1C0 MSTORE PUSH1 0xC0 MSTORE PUSH1 0x10 PUSH2 0x1E0 SWAP1 DUP2 MSTORE PUSH16 0x434F5649444345525449464943415445 PUSH1 0x80 SHL PUSH2 0x200 MSTORE PUSH1 0xE0 MSTORE PUSH2 0x260 PUSH1 0x40 MSTORE PUSH1 0x7 PUSH2 0x220 SWAP1 DUP2 MSTORE PUSH7 0x434845434B555 PUSH1 0xCC SHL PUSH2 0x240 MSTORE PUSH2 0x100 MSTORE PUSH3 0xA6 SWAP1 PUSH1 0xE SWAP1 PUSH1 0x5 PUSH3 0x10B JUMP JUMPDEST POP CALLVALUE DUP1 ISZERO PUSH3 0xB4 JUMPI PUSH1 0x0 DUP1 REVERT JUMPDEST POP PUSH1 0x40 MLOAD PUSH3 0x2D9A CODESIZE SUB DUP1 PUSH3 0x2D9A DUP4 CODECOPY DUP2 ADD PUSH1 0x40 DUP2 SWAP1 MSTORE PUSH3 0xD7 SWAP2 PUSH3 0x274 JUMP JUMPDEST PUSH1 0x2 DUP1 SLOAD PUSH1 0x1 PUSH1 0x1 PUSH1 0xA0 SHL SUB NOT AND PUSH1 0x1 PUSH1 0x1 PUSH1 0xA0 SHL SUB DUP4 AND OR SWAP1 SSTORE POP PUSH1 0x6 DUP1 SLOAD PUSH1 0x1 PUSH1 0x1 PUSH1 0xA0 SHL SUB NOT AND CALLER OR SWAP1 SSTORE PUSH3 0x2E1 JUMP JUMPDEST DUP3 DUP1 SLOAD DUP3 DUP3 SSTORE SWAP1 PUSH1 0x0 MSTORE PUSH1 0x20 PUSH1 0x0 KECCAK256 SWAP1 DUP2 ADD SWAP3 DUP3 ISZERO PUSH3 0x15D JUMPI SWAP2 PUSH1 0x20 MUL DUP3 ADD JUMPDEST DUP3 DUP2 GT ISZERO PUSH3 0x15D JUMPI DUP3 MLOAD DUP1 MLOAD PUSH3 0x14C SWAP2 DUP5 SWAP2 PUSH1 0x20 SWAP1 SWAP2 ADD SWAP1 PUSH3 0x16F JUMP JUMPDEST POP SWAP2 PUSH1 0x20 ADD SWAP2 SWAP1 PUSH1 0x1 ADD SWAP1 PUSH3 0x12C JUMP JUMPDEST POP PUSH3 0x16B SWAP3 SWAP2 POP PUSH3 0x1FA JUMP JUMPDEST POP SWAP1 JUMP JUMPDEST DUP3 DUP1 SLOAD PUSH3 0x17D SWAP1 PUSH3 0x2A4 JUMP JUMPDEST SWAP1 PUSH1 0x0 MSTORE PUSH1 0x20 PUSH1 0x0 KECCAK256 SWAP1 PUSH1 0x1F ADD PUSH1 0x20 SWAP1 DIV DUP2 ADD SWAP3 DUP3 PUSH3 0x1A1 JUMPI PUSH1 0x0 DUP6 SSTORE PUSH3 0x1EC JUMP JUMPDEST DUP3 PUSH1 0x1F LT PUSH3 0x1BC JUMPI DUP1 MLOAD PUSH1 0xFF NOT AND DUP4 DUP1 ADD OR DUP6 SSTORE PUSH3 0x1EC JUMP JUMPDEST DUP3 DUP1 ADD PUSH1 0x1 ADD DUP6 SSTORE DUP3 ISZERO PUSH3 0x1EC JUMPI SWAP2 DUP3 ADD JUMPDEST DUP3 DUP2 GT ISZERO PUSH3 0x1EC JUMPI DUP3 MLOAD DUP3 SSTORE SWAP2 PUSH1 0x20 ADD SWAP2 SWAP1 PUSH1 0x1 ADD SWAP1 PUSH3 0x1CF JUMP JUMPDEST POP PUSH3 0x16B SWAP3 SWAP2 POP PUSH3 0x21B JUMP JUMPDEST DUP1 DUP3 GT ISZERO PUSH3 0x16B JUMPI PUSH1 0x0 PUSH3 0x211 DUP3 DUP3 PUSH3 0x232 JUMP JUMPDEST POP PUSH1 0x1 ADD PUSH3 0x1FA JUMP JUMPDEST JUMPDEST DUP1 DUP3 GT ISZERO PUSH3 0x16B JUMPI PUSH1 0x0 DUP2 SSTORE PUSH1 0x1 ADD PUSH3 0x21C JUMP JUMPDEST POP DUP1 SLOAD PUSH3 0x240 SWAP1 PUSH3 0x2A4 JUMP JUMPDEST PUSH1 0x0 DUP3 SSTORE DUP1 PUSH1 0x1F LT PUSH3 0x251 JUMPI POP POP JUMP JUMPDEST PUSH1 0x1F ADD PUSH1 0x20 SWAP1 DIV SWAP1 PUSH1 0x0 MSTORE PUSH1 0x20 PUSH1 0x0 KECCAK256 SWAP1 DUP2 ADD SWAP1 PUSH3 0x271 SWAP2 SWAP1 PUSH3 0x21B JUMP JUMPDEST POP JUMP JUMPDEST PUSH1 0x0 PUSH1 0x20 DUP3 DUP5 SUB SLT ISZERO PUSH3 0x286 JUMPI DUP1 DUP2 REVERT JUMPDEST DUP2 MLOAD PUSH1 0x1 PUSH1 0x1 PUSH1 0xA0 SHL SUB DUP2 AND DUP2 EQ PUSH3 0x29D JUMPI DUP2 DUP3 REVERT JUMPDEST SWAP4 SWAP3 POP POP POP JUMP JUMPDEST PUSH1 0x1 DUP2 DUP2 SHR SWAP1 DUP3 AND DUP1 PUSH3 0x2B9 JUMPI PUSH1 0x7F DUP3 AND SWAP2 POP JUMPDEST PUSH1 0x20 DUP3 LT DUP2 EQ ISZERO PUSH3 0x2DB JUMPI PUSH4 0x4E487B71 PUSH1 0xE0 SHL PUSH1 0x0 MSTORE PUSH1 0x22 PUSH1 0x4 MSTORE PUSH1 0x24 PUSH1 0x0 REVERT JUMPDEST POP SWAP2 SWAP1 POP JUMP JUMPDEST PUSH2 0x2AA9 DUP1 PUSH3 0x2F1 PUSH1 0x0 CODECOPY PUSH1 0x0 RETURN INVALID PUSH1 0x80 PUSH1 0x40 MSTORE CALLVALUE DUP1 ISZERO PUSH2 0x10 JUMPI PUSH1 0x0 DUP1 REVERT JUMPDEST POP PUSH1 0x4 CALLDATASIZE LT PUSH2 0x10B JUMPI PUSH1 0x0 CALLDATALOAD PUSH1 0xE0 SHR DUP1 PUSH4 0xA269B418 GT PUSH2 0xA2 JUMPI DUP1 PUSH4 0xDB3E3976 GT PUSH2 0x71 JUMPI DUP1 PUSH4 0xDB3E3976 EQ PUSH2 0x2BE JUMPI DUP1 PUSH4 0xE078A1C6 EQ PUSH2 0x2D1 JUMPI DUP1 PUSH4 0xEDEF7049 EQ PUSH2 0x2E4 JUMPI DUP1 PUSH4 0xF6C6E3D0 EQ PUSH2 0x2F7 JUMPI DUP1 PUSH4 0xF75BE4EB EQ PUSH2 0x30A JUMPI PUSH1 0x0 DUP1 REVERT JUMPDEST DUP1 PUSH4 0xA269B418 EQ PUSH2 0x252 JUMPI DUP1 PUSH4 0xC977BAF3 EQ PUSH2 0x265 JUMPI DUP1 PUSH4 0xCBD46FA3 EQ PUSH2 0x288 JUMPI DUP1 PUSH4 0xD7349705 EQ PUSH2 0x2AB JUMPI PUSH1 0x0 DUP1 REVERT JUMPDEST DUP1 PUSH4 0x4FCD407A GT PUSH2 0xDE JUMPI DUP1 PUSH4 0x4FCD407A EQ PUSH2 0x1C3 JUMPI DUP1 PUSH4 0x764B6B38 EQ PUSH2 0x201 JUMPI DUP1 PUSH4 0x8DA5CB5B EQ PUSH2 0x214 JUMPI DUP1 PUSH4 0x8F58F628 EQ PUSH2 0x23F JUMPI PUSH1 0x0 DUP1 REVERT JUMPDEST DUP1 PUSH4 0x21BF487 EQ PUSH2 0x110 JUMPI DUP1 PUSH4 0xA77F6B0 EQ PUSH2 0x125 JUMPI DUP1 PUSH4 0x14BB57FD EQ PUSH2 0x155 JUMPI DUP1 PUSH4 0x2990BC6F EQ PUSH2 0x19F JUMPI JUMPDEST PUSH1 0x0 DUP1 REVERT JUMPDEST PUSH2 0x123 PUSH2 0x11E CALLDATASIZE PUSH1 0x4 PUSH2 0x2500 JUMP JUMPDEST PUSH2 0x32E JUMP JUMPDEST STOP JUMPDEST PUSH2 0x138 PUSH2 0x133 CALLDATASIZE PUSH1 0x4 PUSH2 0x23B2 JUMP JUMPDEST PUSH2 0x3D1 JUMP JUMPDEST PUSH1 0x40 MLOAD PUSH2 0x14C SWAP9 SWAP8 SWAP7 SWAP6 SWAP5 SWAP4 SWAP3 SWAP2 SWAP1 PUSH2 0x26D5 JUMP JUMPDEST PUSH1 0x40 MLOAD DUP1 SWAP2 SUB SWAP1 RETURN JUMPDEST PUSH2 0x191 PUSH2 0x163 CALLDATASIZE PUSH1 0x4 PUSH2 0x23CA JUMP JUMPDEST PUSH1 0xB PUSH1 0x20 SWAP1 DUP2 MSTORE PUSH1 0x0 SWAP3 DUP4 MSTORE PUSH1 0x40 SWAP1 SWAP3 KECCAK256 DUP2 MLOAD DUP1 DUP4 ADD DUP5 ADD DUP1 MLOAD SWAP3 DUP2 MSTORE SWAP1 DUP5 ADD SWAP3 SWAP1 SWAP4 ADD SWAP2 SWAP1 SWAP2 KECCAK256 SWAP2 MSTORE SLOAD DUP2 JUMP JUMPDEST PUSH1 0x40 MLOAD SWAP1 DUP2 MSTORE PUSH1 0x20 ADD PUSH2 0x14C JUMP JUMPDEST PUSH2 0x1B2 PUSH2 0x1AD CALLDATASIZE PUSH1 0x4 PUSH2 0x23B2 JUMP JUMPDEST PUSH2 0x6C3 JUMP JUMPDEST PUSH1 0x40 MLOAD PUSH2 0x14C SWAP6 SWAP5 SWAP4 SWAP3 SWAP2 SWAP1 PUSH2 0x2673 JUMP JUMPDEST PUSH2 0x1F1 PUSH2 0x1D1 CALLDATASIZE PUSH1 0x4 PUSH2 0x240F JUMP JUMPDEST PUSH1 0xD PUSH1 0x20 SWAP1 DUP2 MSTORE PUSH1 0x0 SWAP3 DUP4 MSTORE PUSH1 0x40 DUP1 DUP5 KECCAK256 SWAP1 SWAP2 MSTORE SWAP1 DUP3 MSTORE SWAP1 KECCAK256 SLOAD PUSH1 0xFF AND DUP2 JUMP JUMPDEST PUSH1 0x40 MLOAD SWAP1 ISZERO ISZERO DUP2 MSTORE PUSH1 0x20 ADD PUSH2 0x14C JUMP JUMPDEST PUSH2 0x123 PUSH2 0x20F CALLDATASIZE PUSH1 0x4 PUSH2 0x252B JUMP JUMPDEST PUSH2 0x914 JUMP JUMPDEST PUSH1 0x6 SLOAD PUSH2 0x227 SWAP1 PUSH1 0x1 PUSH1 0x1 PUSH1 0xA0 SHL SUB AND DUP2 JUMP JUMPDEST PUSH1 0x40 MLOAD PUSH1 0x1 PUSH1 0x1 PUSH1 0xA0 SHL SUB SWAP1 SWAP2 AND DUP2 MSTORE PUSH1 0x20 ADD PUSH2 0x14C JUMP JUMPDEST PUSH2 0x123 PUSH2 0x24D CALLDATASIZE PUSH1 0x4 PUSH2 0x2468 JUMP JUMPDEST PUSH2 0xA1D JUMP JUMPDEST PUSH2 0x123 PUSH2 0x260 CALLDATASIZE PUSH1 0x4 PUSH2 0x2430 JUMP JUMPDEST PUSH2 0xBC4 JUMP JUMPDEST PUSH2 0x278 PUSH2 0x273 CALLDATASIZE PUSH1 0x4 PUSH2 0x23B2 JUMP JUMPDEST PUSH2 0xE5D JUMP JUMPDEST PUSH1 0x40 MLOAD PUSH2 0x14C SWAP5 SWAP4 SWAP3 SWAP2 SWAP1 PUSH2 0x27DD JUMP JUMPDEST PUSH2 0x29B PUSH2 0x296 CALLDATASIZE PUSH1 0x4 PUSH2 0x240F JUMP JUMPDEST PUSH2 0xF95 JUMP JUMPDEST PUSH1 0x40 MLOAD PUSH2 0x14C SWAP5 SWAP4 SWAP3 SWAP2 SWAP1 PUSH2 0x2626 JUMP JUMPDEST PUSH2 0x123 PUSH2 0x2B9 CALLDATASIZE PUSH1 0x4 PUSH2 0x2336 JUMP JUMPDEST PUSH2 0x1163 JUMP JUMPDEST PUSH2 0x123 PUSH2 0x2CC CALLDATASIZE PUSH1 0x4 PUSH2 0x217E JUMP JUMPDEST PUSH2 0x126D JUMP JUMPDEST PUSH2 0x123 PUSH2 0x2DF CALLDATASIZE PUSH1 0x4 PUSH2 0x227C JUMP JUMPDEST PUSH2 0x16D0 JUMP JUMPDEST PUSH2 0x123 PUSH2 0x2F2 CALLDATASIZE PUSH1 0x4 PUSH2 0x20C1 JUMP JUMPDEST PUSH2 0x1819 JUMP JUMPDEST PUSH2 0x123 PUSH2 0x305 CALLDATASIZE PUSH1 0x4 PUSH2 0x2468 JUMP JUMPDEST PUSH2 0x1B86 JUMP JUMPDEST PUSH2 0x31D PUSH2 0x318 CALLDATASIZE PUSH1 0x4 PUSH2 0x23B2 JUMP JUMPDEST PUSH2 0x1D25 JUMP JUMPDEST PUSH1 0x40 MLOAD PUSH2 0x14C SWAP6 SWAP5 SWAP4 SWAP3 SWAP2 SWAP1 PUSH2 0x277D JUMP JUMPDEST PUSH1 0x0 DUP4 DUP2 MSTORE PUSH1 0x7 PUSH1 0x20 MSTORE PUSH1 0x40 SWAP1 KECCAK256 PUSH1 0x4 ADD SLOAD DUP4 SWAP1 PUSH1 0xFF AND ISZERO ISZERO PUSH1 0x1 EQ PUSH2 0x36F JUMPI PUSH1 0x40 MLOAD PUSH3 0x461BCD PUSH1 0xE5 SHL DUP2 MSTORE PUSH1 0x4 ADD PUSH2 0x366 SWAP1 PUSH2 0x2888 JUMP JUMPDEST PUSH1 0x40 MLOAD DUP1 SWAP2 SUB SWAP1 REVERT JUMPDEST DUP2 PUSH1 0xB PUSH1 0x0 DUP7 DUP2 MSTORE PUSH1 0x20 ADD SWAP1 DUP2 MSTORE PUSH1 0x20 ADD PUSH1 0x0 KECCAK256 PUSH1 0xE DUP6 DUP2 SLOAD DUP2 LT PUSH2 0x3A4 JUMPI PUSH4 0x4E487B71 PUSH1 0xE0 SHL PUSH1 0x0 MSTORE PUSH1 0x32 PUSH1 0x4 MSTORE PUSH1 0x24 PUSH1 0x0 REVERT JUMPDEST SWAP1 PUSH1 0x0 MSTORE PUSH1 0x20 PUSH1 0x0 KECCAK256 ADD PUSH1 0x40 MLOAD PUSH2 0x3BB SWAP2 SWAP1 PUSH2 0x2588 JUMP JUMPDEST SWAP1 DUP2 MSTORE PUSH1 0x40 MLOAD SWAP1 DUP2 SWAP1 SUB PUSH1 0x20 ADD SWAP1 KECCAK256 SSTORE POP POP POP POP JUMP JUMPDEST PUSH1 0x8 PUSH1 0x20 MSTORE PUSH1 0x0 SWAP1 DUP2 MSTORE PUSH1 0x40 SWAP1 KECCAK256 DUP1 SLOAD DUP2 SWAP1 PUSH2 0x3EC SWAP1 PUSH2 0x29DC JUMP JUMPDEST DUP1 PUSH1 0x1F ADD PUSH1 0x20 DUP1 SWAP2 DIV MUL PUSH1 0x20 ADD PUSH1 0x40 MLOAD SWAP1 DUP2 ADD PUSH1 0x40 MSTORE DUP1 SWAP3 SWAP2 SWAP1 DUP2 DUP2 MSTORE PUSH1 0x20 ADD DUP3 DUP1 SLOAD PUSH2 0x418 SWAP1 PUSH2 0x29DC JUMP JUMPDEST DUP1 ISZERO PUSH2 0x465 JUMPI DUP1 PUSH1 0x1F LT PUSH2 0x43A JUMPI PUSH2 0x100 DUP1 DUP4 SLOAD DIV MUL DUP4 MSTORE SWAP2 PUSH1 0x20 ADD SWAP2 PUSH2 0x465 JUMP JUMPDEST DUP3 ADD SWAP2 SWAP1 PUSH1 0x0 MSTORE PUSH1 0x20 PUSH1 0x0 KECCAK256 SWAP1 JUMPDEST DUP2 SLOAD DUP2 MSTORE SWAP1 PUSH1 0x1 ADD SWAP1 PUSH1 0x20 ADD DUP1 DUP4 GT PUSH2 0x448 JUMPI DUP3 SWAP1 SUB PUSH1 0x1F AND DUP3 ADD SWAP2 JUMPDEST POP POP POP POP POP SWAP1 DUP1 PUSH1 0x1 ADD DUP1 SLOAD PUSH2 0x47A SWAP1 PUSH2 0x29DC JUMP JUMPDEST DUP1 PUSH1 0x1F ADD PUSH1 0x20 DUP1 SWAP2 DIV MUL PUSH1 0x20 ADD PUSH1 0x40 MLOAD SWAP1 DUP2 ADD PUSH1 0x40 MSTORE DUP1 SWAP3 SWAP2 SWAP1 DUP2 DUP2 MSTORE PUSH1 0x20 ADD DUP3 DUP1 SLOAD PUSH2 0x4A6 SWAP1 PUSH2 0x29DC JUMP JUMPDEST DUP1 ISZERO PUSH2 0x4F3 JUMPI DUP1 PUSH1 0x1F LT PUSH2 0x4C8 JUMPI PUSH2 0x100 DUP1 DUP4 SLOAD DIV MUL DUP4 MSTORE SWAP2 PUSH1 0x20 ADD SWAP2 PUSH2 0x4F3 JUMP JUMPDEST DUP3 ADD SWAP2 SWAP1 PUSH1 0x0 MSTORE PUSH1 0x20 PUSH1 0x0 KECCAK256 SWAP1 JUMPDEST DUP2 SLOAD DUP2 MSTORE SWAP1 PUSH1 0x1 ADD SWAP1 PUSH1 0x20 ADD DUP1 DUP4 GT PUSH2 0x4D6 JUMPI DUP3 SWAP1 SUB PUSH1 0x1F AND DUP3 ADD SWAP2 JUMPDEST POP POP POP POP POP SWAP1 DUP1 PUSH1 0x2 ADD DUP1 SLOAD PUSH2 0x508 SWAP1 PUSH2 0x29DC JUMP JUMPDEST DUP1 PUSH1 0x1F ADD PUSH1 0x20 DUP1 SWAP2 DIV MUL PUSH1 0x20 ADD PUSH1 0x40 MLOAD SWAP1 DUP2 ADD PUSH1 0x40 MSTORE DUP1 SWAP3 SWAP2 SWAP1 DUP2 DUP2 MSTORE PUSH1 0x20 ADD DUP3 DUP1 SLOAD PUSH2 0x534 SWAP1 PUSH2 0x29DC JUMP JUMPDEST DUP1 ISZERO PUSH2 0x581 JUMPI DUP1 PUSH1 0x1F LT PUSH2 0x556 JUMPI PUSH2 0x100 DUP1 DUP4 SLOAD DIV MUL DUP4 MSTORE SWAP2 PUSH1 0x20 ADD SWAP2 PUSH2 0x581 JUMP JUMPDEST DUP3 ADD SWAP2 SWAP1 PUSH1 0x0 MSTORE PUSH1 0x20 PUSH1 0x0 KECCAK256 SWAP1 JUMPDEST DUP2 SLOAD DUP2 MSTORE SWAP1 PUSH1 0x1 ADD SWAP1 PUSH1 0x20 ADD DUP1 DUP4 GT PUSH2 0x564 JUMPI DUP3 SWAP1 SUB PUSH1 0x1F AND DUP3 ADD SWAP2 JUMPDEST POP POP POP POP POP SWAP1 DUP1 PUSH1 0x3 ADD DUP1 SLOAD PUSH2 0x596 SWAP1 PUSH2 0x29DC JUMP JUMPDEST DUP1 PUSH1 0x1F ADD PUSH1 0x20 DUP1 SWAP2 DIV MUL PUSH1 0x20 ADD PUSH1 0x40 MLOAD SWAP1 DUP2 ADD PUSH1 0x40 MSTORE DUP1 SWAP3 SWAP2 SWAP1 DUP2 DUP2 MSTORE PUSH1 0x20 ADD DUP3 DUP1 SLOAD PUSH2 0x5C2 SWAP1 PUSH2 0x29DC JUMP JUMPDEST DUP1 ISZERO PUSH2 0x60F JUMPI DUP1 PUSH1 0x1F LT PUSH2 0x5E4 JUMPI PUSH2 0x100 DUP1 DUP4 SLOAD DIV MUL DUP4 MSTORE SWAP2 PUSH1 0x20 ADD SWAP2 PUSH2 0x60F JUMP JUMPDEST DUP3 ADD SWAP2 SWAP1 PUSH1 0x0 MSTORE PUSH1 0x20 PUSH1 0x0 KECCAK256 SWAP1 JUMPDEST DUP2 SLOAD DUP2 MSTORE SWAP1 PUSH1 0x1 ADD SWAP1 PUSH1 0x20 ADD DUP1 DUP4 GT PUSH2 0x5F2 JUMPI DUP3 SWAP1 SUB PUSH1 0x1F AND DUP3 ADD SWAP2 JUMPDEST POP POP POP POP POP SWAP1 DUP1 PUSH1 0x4 ADD DUP1 SLOAD PUSH2 0x624 SWAP1 PUSH2 0x29DC JUMP JUMPDEST DUP1 PUSH1 0x1F ADD PUSH1 0x20 DUP1 SWAP2 DIV MUL PUSH1 0x20 ADD PUSH1 0x40 MLOAD SWAP1 DUP2 ADD PUSH1 0x40 MSTORE DUP1 SWAP3 SWAP2 SWAP1 DUP2 DUP2 MSTORE PUSH1 0x20 ADD DUP3 DUP1 SLOAD PUSH2 0x650 SWAP1 PUSH2 0x29DC JUMP JUMPDEST DUP1 ISZERO PUSH2 0x69D JUMPI DUP1 PUSH1 0x1F LT PUSH2 0x672 JUMPI PUSH2 0x100 DUP1 DUP4 SLOAD DIV MUL DUP4 MSTORE SWAP2 PUSH1 0x20 ADD SWAP2 PUSH2 0x69D JUMP JUMPDEST DUP3 ADD SWAP2 SWAP1 PUSH1 0x0 MSTORE PUSH1 0x20 PUSH1 0x0 KECCAK256 SWAP1 JUMPDEST DUP2 SLOAD DUP2 MSTORE SWAP1 PUSH1 0x1 ADD SWAP1 PUSH1 0x20 ADD DUP1 DUP4 GT PUSH2 0x680 JUMPI DUP3 SWAP1 SUB PUSH1 0x1F AND DUP3 ADD SWAP2 JUMPDEST POP POP POP PUSH1 0x5 SWAP1 SWAP4 ADD SLOAD SWAP2 SWAP3 POP POP PUSH1 0xFF DUP1 DUP3 AND SWAP2 PUSH2 0x100 DUP2 DIV DUP3 AND SWAP2 PUSH3 0x10000 SWAP1 SWAP2 DIV AND DUP9 JUMP JUMPDEST PUSH1 0x7 PUSH1 0x20 MSTORE PUSH1 0x0 SWAP1 DUP2 MSTORE PUSH1 0x40 SWAP1 KECCAK256 DUP1 SLOAD DUP2 SWAP1 PUSH2 0x6DE SWAP1 PUSH2 0x29DC JUMP JUMPDEST DUP1 PUSH1 0x1F ADD PUSH1 0x20 DUP1 SWAP2 DIV MUL PUSH1 0x20 ADD PUSH1 0x40 MLOAD SWAP1 DUP2 ADD PUSH1 0x40 MSTORE DUP1 SWAP3 SWAP2 SWAP1 DUP2 DUP2 MSTORE PUSH1 0x20 ADD DUP3 DUP1 SLOAD PUSH2 0x70A SWAP1 PUSH2 0x29DC JUMP JUMPDEST DUP1 ISZERO PUSH2 0x757 JUMPI DUP1 PUSH1 0x1F LT PUSH2 0x72C JUMPI PUSH2 0x100 DUP1 DUP4 SLOAD DIV MUL DUP4 MSTORE SWAP2 PUSH1 0x20 ADD SWAP2 PUSH2 0x757 JUMP JUMPDEST DUP3 ADD SWAP2 SWAP1 PUSH1 0x0 MSTORE PUSH1 0x20 PUSH1 0x0 KECCAK256 SWAP1 JUMPDEST DUP2 SLOAD DUP2 MSTORE SWAP1 PUSH1 0x1 ADD SWAP1 PUSH1 0x20 ADD DUP1 DUP4 GT PUSH2 0x73A JUMPI DUP3 SWAP1 SUB PUSH1 0x1F AND DUP3 ADD SWAP2 JUMPDEST POP POP POP POP POP SWAP1 DUP1 PUSH1 0x1 ADD DUP1 SLOAD PUSH2 0x76C SWAP1 PUSH2 0x29DC JUMP JUMPDEST DUP1 PUSH1 0x1F ADD PUSH1 0x20 DUP1 SWAP2 DIV MUL PUSH1 0x20 ADD PUSH1 0x40 MLOAD SWAP1 DUP2 ADD PUSH1 0x40 MSTORE DUP1 SWAP3 SWAP2 SWAP1 DUP2 DUP2 MSTORE PUSH1 0x20 ADD DUP3 DUP1 SLOAD PUSH2 0x798 SWAP1 PUSH2 0x29DC JUMP JUMPDEST DUP1 ISZERO PUSH2 0x7E5 JUMPI DUP1 PUSH1 0x1F LT PUSH2 0x7BA JUMPI PUSH2 0x100 DUP1 DUP4 SLOAD DIV MUL DUP4 MSTORE SWAP2 PUSH1 0x20 ADD SWAP2 PUSH2 0x7E5 JUMP JUMPDEST DUP3 ADD SWAP2 SWAP1 PUSH1 0x0 MSTORE PUSH1 0x20 PUSH1 0x0 KECCAK256 SWAP1 JUMPDEST DUP2 SLOAD DUP2 MSTORE SWAP1 PUSH1 0x1 ADD SWAP1 PUSH1 0x20 ADD DUP1 DUP4 GT PUSH2 0x7C8 JUMPI DUP3 SWAP1 SUB PUSH1 0x1F AND DUP3 ADD SWAP2 JUMPDEST POP POP POP POP POP SWAP1 DUP1 PUSH1 0x2 ADD DUP1 SLOAD PUSH2 0x7FA SWAP1 PUSH2 0x29DC JUMP JUMPDEST DUP1 PUSH1 0x1F ADD PUSH1 0x20 DUP1 SWAP2 DIV MUL PUSH1 0x20 ADD PUSH1 0x40 MLOAD SWAP1 DUP2 ADD PUSH1 0x40 MSTORE DUP1 SWAP3 SWAP2 SWAP1 DUP2 DUP2 MSTORE PUSH1 0x20 ADD DUP3 DUP1 SLOAD PUSH2 0x826 SWAP1 PUSH2 0x29DC JUMP JUMPDEST DUP1 ISZERO PUSH2 0x873 JUMPI DUP1 PUSH1 0x1F LT PUSH2 0x848 JUMPI PUSH2 0x100 DUP1 DUP4 SLOAD DIV MUL DUP4 MSTORE SWAP2 PUSH1 0x20 ADD SWAP2 PUSH2 0x873 JUMP JUMPDEST DUP3 ADD SWAP2 SWAP1 PUSH1 0x0 MSTORE PUSH1 0x20 PUSH1 0x0 KECCAK256 SWAP1 JUMPDEST DUP2 SLOAD DUP2 MSTORE SWAP1 PUSH1 0x1 ADD SWAP1 PUSH1 0x20 ADD DUP1 DUP4 GT PUSH2 0x856 JUMPI DUP3 SWAP1 SUB PUSH1 0x1F AND DUP3 ADD SWAP2 JUMPDEST POP POP POP POP POP SWAP1 DUP1 PUSH1 0x3 ADD DUP1 SLOAD PUSH2 0x888 SWAP1 PUSH2 0x29DC JUMP JUMPDEST DUP1 PUSH1 0x1F ADD PUSH1 0x20 DUP1 SWAP2 DIV MUL PUSH1 0x20 ADD PUSH1 0x40 MLOAD SWAP1 DUP2 ADD PUSH1 0x40 MSTORE DUP1 SWAP3 SWAP2 SWAP1 DUP2 DUP2 MSTORE PUSH1 0x20 ADD DUP3 DUP1 SLOAD PUSH2 0x8B4 SWAP1 PUSH2 0x29DC JUMP JUMPDEST DUP1 ISZERO PUSH2 0x901 JUMPI DUP1 PUSH1 0x1F LT PUSH2 0x8D6 JUMPI PUSH2 0x100 DUP1 DUP4 SLOAD DIV MUL DUP4 MSTORE SWAP2 PUSH1 0x20 ADD SWAP2 PUSH2 0x901 JUMP JUMPDEST DUP3 ADD SWAP2 SWAP1 PUSH1 0x0 MSTORE PUSH1 0x20 PUSH1 0x0 KECCAK256 SWAP1 JUMPDEST DUP2 SLOAD DUP2 MSTORE SWAP1 PUSH1 0x1 ADD SWAP1 PUSH1 0x20 ADD DUP1 DUP4 GT PUSH2 0x8E4 JUMPI DUP3 SWAP1 SUB PUSH1 0x1F AND DUP3 ADD SWAP2 JUMPDEST POP POP POP PUSH1 0x4 SWAP1 SWAP4 ADD SLOAD SWAP2 SWAP3 POP POP PUSH1 0xFF AND DUP6 JUMP JUMPDEST PUSH1 0x0 DUP5 DUP2 MSTORE PUSH1 0x7 PUSH1 0x20 MSTORE PUSH1 0x40 SWAP1 KECCAK256 PUSH1 0x4 ADD SLOAD DUP5 SWAP1 PUSH1 0xFF AND ISZERO ISZERO PUSH1 0x1 EQ PUSH2 0x94C JUMPI PUSH1 0x40 MLOAD PUSH3 0x461BCD PUSH1 0xE5 SHL DUP2 MSTORE PUSH1 0x4 ADD PUSH2 0x366 SWAP1 PUSH2 0x2888 JUMP JUMPDEST PUSH1 0x0 DUP6 DUP2 MSTORE PUSH1 0xD PUSH1 0x20 SWAP1 DUP2 MSTORE PUSH1 0x40 DUP1 DUP4 KECCAK256 DUP8 DUP5 MSTORE SWAP1 SWAP2 MSTORE SWAP1 KECCAK256 SLOAD PUSH1 0xFF AND ISZERO ISZERO PUSH1 0x1 EQ PUSH2 0x9BA JUMPI PUSH1 0x40 MLOAD PUSH3 0x461BCD PUSH1 0xE5 SHL DUP2 MSTORE PUSH1 0x20 PUSH1 0x4 DUP3 ADD MSTORE PUSH1 0x1D PUSH1 0x24 DUP3 ADD MSTORE PUSH32 0x4E6F206163636573732070726F76696465642062792070617469656E74000000 PUSH1 0x44 DUP3 ADD MSTORE PUSH1 0x64 ADD PUSH2 0x366 JUMP JUMPDEST DUP2 PUSH1 0xB PUSH1 0x0 DUP8 DUP2 MSTORE PUSH1 0x20 ADD SWAP1 DUP2 MSTORE PUSH1 0x20 ADD PUSH1 0x0 KECCAK256 PUSH1 0xE DUP6 DUP2 SLOAD DUP2 LT PUSH2 0x9EF JUMPI PUSH4 0x4E487B71 PUSH1 0xE0 SHL PUSH1 0x0 MSTORE PUSH1 0x32 PUSH1 0x4 MSTORE PUSH1 0x24 PUSH1 0x0 REVERT JUMPDEST SWAP1 PUSH1 0x0 MSTORE PUSH1 0x20 PUSH1 0x0 KECCAK256 ADD PUSH1 0x40 MLOAD PUSH2 0xA06 SWAP2 SWAP1 PUSH2 0x2588 JUMP JUMPDEST SWAP1 DUP2 MSTORE PUSH1 0x40 MLOAD SWAP1 DUP2 SWAP1 SUB PUSH1 0x20 ADD SWAP1 KECCAK256 SSTORE POP POP POP POP POP JUMP JUMPDEST PUSH1 0x0 DUP6 DUP2 MSTORE PUSH1 0x7 PUSH1 0x20 MSTORE PUSH1 0x40 SWAP1 KECCAK256 PUSH1 0x4 ADD SLOAD DUP6 SWAP1 PUSH1 0xFF AND ISZERO ISZERO PUSH1 0x1 EQ PUSH2 0xA55 JUMPI PUSH1 0x40 MLOAD PUSH3 0x461BCD PUSH1 0xE5 SHL DUP2 MSTORE PUSH1 0x4 ADD PUSH2 0x366 SWAP1 PUSH2 0x2888 JUMP JUMPDEST PUSH1 0x0 DUP7 DUP2 MSTORE PUSH1 0xC PUSH1 0x20 SWAP1 DUP2 MSTORE PUSH1 0x40 DUP1 DUP4 KECCAK256 DUP9 DUP5 MSTORE SWAP1 SWAP2 MSTORE SWAP1 KECCAK256 PUSH1 0x3 ADD SLOAD PUSH1 0xFF AND ISZERO PUSH2 0xAC2 JUMPI PUSH1 0x40 MLOAD PUSH3 0x461BCD PUSH1 0xE5 SHL DUP2 MSTORE PUSH1 0x20 PUSH1 0x4 DUP3 ADD MSTORE PUSH1 0x1E PUSH1 0x24 DUP3 ADD MSTORE PUSH32 0x4548522D5243472D30313A20416C726561647920726567697374657265640000 PUSH1 0x44 DUP3 ADD MSTORE PUSH1 0x64 ADD PUSH2 0x366 JUMP JUMPDEST PUSH1 0x40 DUP1 MLOAD PUSH1 0x80 DUP2 ADD DUP3 MSTORE DUP6 DUP2 MSTORE PUSH1 0x20 DUP1 DUP3 ADD DUP7 SWAP1 MSTORE DUP2 DUP4 ADD DUP6 SWAP1 MSTORE PUSH1 0x1 PUSH1 0x60 DUP4 ADD MSTORE PUSH1 0x0 DUP10 DUP2 MSTORE PUSH1 0xC DUP3 MSTORE DUP4 DUP2 KECCAK256 DUP10 DUP3 MSTORE DUP3 MSTORE SWAP3 SWAP1 SWAP3 KECCAK256 DUP2 MLOAD DUP1 MLOAD SWAP3 SWAP4 SWAP2 SWAP3 PUSH2 0xB0E SWAP3 DUP5 SWAP3 ADD SWAP1 PUSH2 0x1F73 JUMP JUMPDEST POP PUSH1 0x20 DUP3 DUP2 ADD MLOAD DUP1 MLOAD PUSH2 0xB27 SWAP3 PUSH1 0x1 DUP6 ADD SWAP3 ADD SWAP1 PUSH2 0x1F73 JUMP JUMPDEST POP PUSH1 0x40 DUP3 ADD MLOAD DUP1 MLOAD PUSH2 0xB43 SWAP2 PUSH1 0x2 DUP5 ADD SWAP2 PUSH1 0x20 SWAP1 SWAP2 ADD SWAP1 PUSH2 0x1F73 JUMP JUMPDEST POP PUSH1 0x60 SWAP2 DUP3 ADD MLOAD PUSH1 0x3 SWAP1 SWAP2 ADD DUP1 SLOAD PUSH1 0xFF NOT AND SWAP2 ISZERO ISZERO SWAP2 SWAP1 SWAP2 OR SWAP1 SSTORE PUSH1 0x40 DUP1 MLOAD DUP9 DUP2 MSTORE PUSH1 0x20 DUP2 ADD DUP4 SWAP1 MSTORE PUSH1 0x19 SWAP3 DUP2 ADD SWAP3 SWAP1 SWAP3 MSTORE PUSH32 0x4361726567697665722044617461207265676973746572656400000000000000 PUSH1 0x80 DUP4 ADD MSTORE TIMESTAMP SWAP1 DUP3 ADD MSTORE PUSH1 0x0 DUP1 MLOAD PUSH1 0x20 PUSH2 0x2A54 DUP4 CODECOPY DUP2 MLOAD SWAP2 MSTORE SWAP1 PUSH1 0xA0 ADD JUMPDEST PUSH1 0x40 MLOAD DUP1 SWAP2 SUB SWAP1 LOG1 POP POP POP POP POP POP JUMP JUMPDEST PUSH1 0x0 DUP3 DUP2 MSTORE PUSH1 0x8 PUSH1 0x20 MSTORE PUSH1 0x40 SWAP1 KECCAK256 PUSH1 0x5 ADD SLOAD DUP3 SWAP1 PUSH3 0x10000 SWAP1 DIV PUSH1 0xFF AND ISZERO ISZERO PUSH1 0x1 EQ PUSH2 0xC2A JUMPI PUSH1 0x40 MLOAD PUSH3 0x461BCD PUSH1 0xE5 SHL DUP2 MSTORE PUSH1 0x20 PUSH1 0x4 DUP3 ADD MSTORE PUSH1 0x15 PUSH1 0x24 DUP3 ADD MSTORE PUSH21 0x111BD8DD1BDC88139BDD081C9959DA5CDD195C9959 PUSH1 0x5A SHL PUSH1 0x44 DUP3 ADD MSTORE PUSH1 0x64 ADD PUSH2 0x366 JUMP JUMPDEST PUSH1 0x60 PUSH1 0x0 DUP4 PUSH1 0x1 DUP2 GT ISZERO PUSH2 0xC4E JUMPI PUSH4 0x4E487B71 PUSH1 0xE0 SHL PUSH1 0x0 MSTORE PUSH1 0x21 PUSH1 0x4 MSTORE PUSH1 0x24 PUSH1 0x0 REVERT JUMPDEST EQ ISZERO PUSH2 0xD22 JUMPI PUSH1 0x0 DUP6 DUP2 MSTORE PUSH1 0xD PUSH1 0x20 SWAP1 DUP2 MSTORE PUSH1 0x40 DUP1 DUP4 KECCAK256 DUP8 DUP5 MSTORE SWAP1 SWAP2 MSTORE SWAP1 KECCAK256 SLOAD PUSH1 0xFF AND ISZERO PUSH2 0xCCA JUMPI PUSH1 0x40 MLOAD PUSH3 0x461BCD PUSH1 0xE5 SHL DUP2 MSTORE PUSH1 0x20 PUSH1 0x4 DUP3 ADD MSTORE PUSH1 0x24 DUP1 DUP3 ADD MSTORE PUSH32 0x4548522D41432D30313A2041636365737320686164206265656E2070726F7669 PUSH1 0x44 DUP3 ADD MSTORE PUSH4 0x64656421 PUSH1 0xE0 SHL PUSH1 0x64 DUP3 ADD MSTORE PUSH1 0x84 ADD PUSH2 0x366 JUMP JUMPDEST POP PUSH1 0x0 DUP5 DUP2 MSTORE PUSH1 0xD PUSH1 0x20 SWAP1 DUP2 MSTORE PUSH1 0x40 DUP1 DUP4 KECCAK256 DUP7 DUP5 MSTORE DUP3 MSTORE SWAP2 DUP3 SWAP1 KECCAK256 DUP1 SLOAD PUSH1 0xFF NOT AND PUSH1 0x1 OR SWAP1 SSTORE DUP2 MLOAD DUP1 DUP4 ADD SWAP1 SWAP3 MSTORE PUSH1 0x1C DUP3 MSTORE PUSH32 0x4163636573732069732070726F766964656420746F20646F63746F7200000000 SWAP1 DUP3 ADD MSTORE JUMPDEST PUSH1 0x1 DUP4 PUSH1 0x1 DUP2 GT ISZERO PUSH2 0xD44 JUMPI PUSH4 0x4E487B71 PUSH1 0xE0 SHL PUSH1 0x0 MSTORE PUSH1 0x21 PUSH1 0x4 MSTORE PUSH1 0x24 PUSH1 0x0 REVERT JUMPDEST EQ ISZERO PUSH2 0xE19 JUMPI PUSH1 0x0 DUP6 DUP2 MSTORE PUSH1 0xD PUSH1 0x20 SWAP1 DUP2 MSTORE PUSH1 0x40 DUP1 DUP4 KECCAK256 DUP8 DUP5 MSTORE SWAP1 SWAP2 MSTORE SWAP1 KECCAK256 SLOAD PUSH1 0xFF AND ISZERO ISZERO PUSH1 0x1 EQ PUSH2 0xDC4 JUMPI PUSH1 0x40 MLOAD PUSH3 0x461BCD PUSH1 0xE5 SHL DUP2 MSTORE PUSH1 0x20 PUSH1 0x4 DUP3 ADD MSTORE PUSH1 0x23 PUSH1 0x24 DUP3 ADD MSTORE PUSH32 0x4548522D41432D30323A2041636365737320776173206E6F742070726F766964 PUSH1 0x44 DUP3 ADD MSTORE PUSH3 0x656421 PUSH1 0xE8 SHL PUSH1 0x64 DUP3 ADD MSTORE PUSH1 0x84 ADD PUSH2 0x366 JUMP JUMPDEST POP PUSH1 0x0 DUP5 DUP2 MSTORE PUSH1 0xD PUSH1 0x20 SWAP1 DUP2 MSTORE PUSH1 0x40 DUP1 DUP4 KECCAK256 DUP7 DUP5 MSTORE DUP3 MSTORE SWAP2 DUP3 SWAP1 KECCAK256 DUP1 SLOAD PUSH1 0xFF NOT AND SWAP1 SSTORE DUP2 MLOAD DUP1 DUP4 ADD SWAP1 SWAP3 MSTORE PUSH1 0x1B DUP3 MSTORE PUSH32 0x416363657373206973207265766F6B656420746F20646F63746F720000000000 SWAP1 DUP3 ADD MSTORE JUMPDEST PUSH32 0xF4702A3B8B6C43F2FA41588E64688A0C0BC61F411971BD5EC9C64B828D4BCCB0 DUP2 DUP7 DUP7 TIMESTAMP PUSH1 0x40 MLOAD PUSH2 0xE4E SWAP5 SWAP4 SWAP3 SWAP2 SWAP1 PUSH2 0x2816 JUMP JUMPDEST PUSH1 0x40 MLOAD DUP1 SWAP2 SUB SWAP1 LOG1 POP POP POP POP POP JUMP JUMPDEST PUSH1 0xA PUSH1 0x20 MSTORE PUSH1 0x0 SWAP1 DUP2 MSTORE PUSH1 0x40 SWAP1 KECCAK256 DUP1 SLOAD DUP2 SWAP1 PUSH2 0xE78 SWAP1 PUSH2 0x29DC JUMP JUMPDEST DUP1 PUSH1 0x1F ADD PUSH1 0x20 DUP1 SWAP2 DIV MUL PUSH1 0x20 ADD PUSH1 0x40 MLOAD SWAP1 DUP2 ADD PUSH1 0x40 MSTORE DUP1 SWAP3 SWAP2 SWAP1 DUP2 DUP2 MSTORE PUSH1 0x20 ADD DUP3 DUP1 SLOAD PUSH2 0xEA4 SWAP1 PUSH2 0x29DC JUMP JUMPDEST DUP1 ISZERO PUSH2 0xEF1 JUMPI DUP1 PUSH1 0x1F LT PUSH2 0xEC6 JUMPI PUSH2 0x100 DUP1 DUP4 SLOAD DIV MUL DUP4 MSTORE SWAP2 PUSH1 0x20 ADD SWAP2 PUSH2 0xEF1 JUMP JUMPDEST DUP3 ADD SWAP2 SWAP1 PUSH1 0x0 MSTORE PUSH1 0x20 PUSH1 0x0 KECCAK256 SWAP1 JUMPDEST DUP2 SLOAD DUP2 MSTORE SWAP1 PUSH1 0x1 ADD SWAP1 PUSH1 0x20 ADD DUP1 DUP4 GT PUSH2 0xED4 JUMPI DUP3 SWAP1 SUB PUSH1 0x1F AND DUP3 ADD SWAP2 JUMPDEST POP POP POP POP POP SWAP1 DUP1 PUSH1 0x1 ADD DUP1 SLOAD PUSH2 0xF06 SWAP1 PUSH2 0x29DC JUMP JUMPDEST DUP1 PUSH1 0x1F ADD PUSH1 0x20 DUP1 SWAP2 DIV MUL PUSH1 0x20 ADD PUSH1 0x40 MLOAD SWAP1 DUP2 ADD PUSH1 0x40 MSTORE DUP1 SWAP3 SWAP2 SWAP1 DUP2 DUP2 MSTORE PUSH1 0x20 ADD DUP3 DUP1 SLOAD PUSH2 0xF32 SWAP1 PUSH2 0x29DC JUMP JUMPDEST DUP1 ISZERO PUSH2 0xF7F JUMPI DUP1 PUSH1 0x1F LT PUSH2 0xF54 JUMPI PUSH2 0x100 DUP1 DUP4 SLOAD DIV MUL DUP4 MSTORE SWAP2 PUSH1 0x20 ADD SWAP2 PUSH2 0xF7F JUMP JUMPDEST DUP3 ADD SWAP2 SWAP1 PUSH1 0x0 MSTORE PUSH1 0x20 PUSH1 0x0 KECCAK256 SWAP1 JUMPDEST DUP2 SLOAD DUP2 MSTORE SWAP1 PUSH1 0x1 ADD SWAP1 PUSH1 0x20 ADD DUP1 DUP4 GT PUSH2 0xF62 JUMPI DUP3 SWAP1 SUB PUSH1 0x1F AND DUP3 ADD SWAP2 JUMPDEST POP POP POP POP POP SWAP1 DUP1 PUSH1 0x2 ADD SLOAD SWAP1 DUP1 PUSH1 0x3 ADD SLOAD SWAP1 POP DUP5 JUMP JUMPDEST PUSH1 0xC PUSH1 0x20 SWAP1 DUP2 MSTORE PUSH1 0x0 SWAP3 DUP4 MSTORE PUSH1 0x40 DUP1 DUP5 KECCAK256 SWAP1 SWAP2 MSTORE SWAP1 DUP3 MSTORE SWAP1 KECCAK256 DUP1 SLOAD DUP2 SWAP1 PUSH2 0xFBB SWAP1 PUSH2 0x29DC JUMP JUMPDEST DUP1 PUSH1 0x1F ADD PUSH1 0x20 DUP1 SWAP2 DIV MUL PUSH1 0x20 ADD PUSH1 0x40 MLOAD SWAP1 DUP2 ADD PUSH1 0x40 MSTORE DUP1 SWAP3 SWAP2 SWAP1 DUP2 DUP2 MSTORE PUSH1 0x20 ADD DUP3 DUP1 SLOAD PUSH2 0xFE7 SWAP1 PUSH2 0x29DC JUMP JUMPDEST DUP1 ISZERO PUSH2 0x1034 JUMPI DUP1 PUSH1 0x1F LT PUSH2 0x1009 JUMPI PUSH2 0x100 DUP1 DUP4 SLOAD DIV MUL DUP4 MSTORE SWAP2 PUSH1 0x20 ADD SWAP2 PUSH2 0x1034 JUMP JUMPDEST DUP3 ADD SWAP2 SWAP1 PUSH1 0x0 MSTORE PUSH1 0x20 PUSH1 0x0 KECCAK256 SWAP1 JUMPDEST DUP2 SLOAD DUP2 MSTORE SWAP1 PUSH1 0x1 ADD SWAP1 PUSH1 0x20 ADD DUP1 DUP4 GT PUSH2 0x1017 JUMPI DUP3 SWAP1 SUB PUSH1 0x1F AND DUP3 ADD SWAP2 JUMPDEST POP POP POP POP POP SWAP1 DUP1 PUSH1 0x1 ADD DUP1 SLOAD PUSH2 0x1049 SWAP1 PUSH2 0x29DC JUMP JUMPDEST DUP1 PUSH1 0x1F ADD PUSH1 0x20 DUP1 SWAP2 DIV MUL PUSH1 0x20 ADD PUSH1 0x40 MLOAD SWAP1 DUP2 ADD PUSH1 0x40 MSTORE DUP1 SWAP3 SWAP2 SWAP1 DUP2 DUP2 MSTORE PUSH1 0x20 ADD DUP3 DUP1 SLOAD PUSH2 0x1075 SWAP1 PUSH2 0x29DC JUMP JUMPDEST DUP1 ISZERO PUSH2 0x10C2 JUMPI DUP1 PUSH1 0x1F LT PUSH2 0x1097 JUMPI PUSH2 0x100 DUP1 DUP4 SLOAD DIV MUL DUP4 MSTORE SWAP2 PUSH1 0x20 ADD SWAP2 PUSH2 0x10C2 JUMP JUMPDEST DUP3 ADD SWAP2 SWAP1 PUSH1 0x0 MSTORE PUSH1 0x20 PUSH1 0x0 KECCAK256 SWAP1 JUMPDEST DUP2 SLOAD DUP2 MSTORE SWAP1 PUSH1 0x1 ADD SWAP1 PUSH1 0x20 ADD DUP1 DUP4 GT PUSH2 0x10A5 JUMPI DUP3 SWAP1 SUB PUSH1 0x1F AND DUP3 ADD SWAP2 JUMPDEST POP POP POP POP POP SWAP1 DUP1 PUSH1 0x2 ADD DUP1 SLOAD PUSH2 0x10D7 SWAP1 PUSH2 0x29DC JUMP JUMPDEST DUP1 PUSH1 0x1F ADD PUSH1 0x20 DUP1 SWAP2 DIV MUL PUSH1 0x20 ADD PUSH1 0x40 MLOAD SWAP1 DUP2 ADD PUSH1 0x40 MSTORE DUP1 SWAP3 SWAP2 SWAP1 DUP2 DUP2 MSTORE PUSH1 0x20 ADD DUP3 DUP1 SLOAD PUSH2 0x1103 SWAP1 PUSH2 0x29DC JUMP JUMPDEST DUP1 ISZERO PUSH2 0x1150 JUMPI DUP1 PUSH1 0x1F LT PUSH2 0x1125 JUMPI PUSH2 0x100 DUP1 DUP4 SLOAD DIV MUL DUP4 MSTORE SWAP2 PUSH1 0x20 ADD SWAP2 PUSH2 0x1150 JUMP JUMPDEST DUP3 ADD SWAP2 SWAP1 PUSH1 0x0 MSTORE PUSH1 0x20 PUSH1 0x0 KECCAK256 SWAP1 JUMPDEST DUP2 SLOAD DUP2 MSTORE SWAP1 PUSH1 0x1 ADD SWAP1 PUSH1 0x20 ADD DUP1 DUP4 GT PUSH2 0x1133 JUMPI DUP3 SWAP1 SUB PUSH1 0x1F AND DUP3 ADD SWAP2 JUMPDEST POP POP POP PUSH1 0x3 SWAP1 SWAP4 ADD SLOAD SWAP2 SWAP3 POP POP PUSH1 0xFF AND DUP5 JUMP JUMPDEST PUSH1 0x0 DUP2 DUP2 MSTORE PUSH1 0x7 PUSH1 0x20 MSTORE PUSH1 0x40 SWAP1 KECCAK256 PUSH1 0x4 ADD SLOAD DUP2 SWAP1 PUSH1 0xFF AND ISZERO ISZERO PUSH1 0x1 EQ PUSH2 0x119B JUMPI PUSH1 0x40 MLOAD PUSH3 0x461BCD PUSH1 0xE5 SHL DUP2 MSTORE PUSH1 0x4 ADD PUSH2 0x366 SWAP1 PUSH2 0x2888 JUMP JUMPDEST PUSH1 0x40 DUP1 MLOAD PUSH1 0x80 DUP2 ADD DUP3 MSTORE DUP8 DUP2 MSTORE PUSH1 0x20 DUP1 DUP3 ADD DUP9 SWAP1 MSTORE DUP2 DUP4 ADD DUP8 SWAP1 MSTORE PUSH1 0x60 DUP3 ADD DUP7 SWAP1 MSTORE PUSH1 0x0 DUP6 DUP2 MSTORE PUSH1 0xA DUP3 MSTORE SWAP3 SWAP1 SWAP3 KECCAK256 DUP2 MLOAD DUP1 MLOAD SWAP3 SWAP4 SWAP2 SWAP3 PUSH2 0x11DF SWAP3 DUP5 SWAP3 ADD SWAP1 PUSH2 0x1F73 JUMP JUMPDEST POP PUSH1 0x20 DUP3 DUP2 ADD MLOAD DUP1 MLOAD PUSH2 0x11F8 SWAP3 PUSH1 0x1 DUP6 ADD SWAP3 ADD SWAP1 PUSH2 0x1F73 JUMP JUMPDEST POP PUSH1 0x40 DUP3 ADD MLOAD DUP2 PUSH1 0x2 ADD SSTORE PUSH1 0x60 DUP3 ADD MLOAD DUP2 PUSH1 0x3 ADD SSTORE SWAP1 POP POP PUSH1 0x0 DUP1 MLOAD PUSH1 0x20 PUSH2 0x2A54 DUP4 CODECOPY DUP2 MLOAD SWAP2 MSTORE DUP3 TIMESTAMP PUSH1 0x40 MLOAD PUSH2 0xBB4 SWAP3 SWAP2 SWAP1 SWAP2 DUP3 MSTORE PUSH1 0x60 PUSH1 0x20 DUP4 ADD DUP2 SWAP1 MSTORE PUSH1 0x1B SWAP1 DUP4 ADD MSTORE PUSH32 0x50617469656E74204865616C7468204461746120757064617465640000000000 PUSH1 0x80 DUP4 ADD MSTORE PUSH1 0x40 DUP3 ADD MSTORE PUSH1 0xA0 ADD SWAP1 JUMP JUMPDEST PUSH1 0x0 DUP7 DUP9 PUSH1 0x40 MLOAD PUSH1 0x20 ADD PUSH2 0x1282 SWAP3 SWAP2 SWAP1 PUSH2 0x25F7 JUMP JUMPDEST PUSH1 0x40 DUP1 MLOAD PUSH1 0x1F NOT DUP2 DUP5 SUB ADD DUP2 MSTORE SWAP2 SWAP1 MSTORE DUP1 MLOAD PUSH1 0x20 SWAP1 SWAP2 ADD KECCAK256 SWAP1 POP PUSH1 0x60 PUSH1 0x0 DUP4 PUSH1 0x1 DUP2 GT ISZERO PUSH2 0x12C0 JUMPI PUSH4 0x4E487B71 PUSH1 0xE0 SHL PUSH1 0x0 MSTORE PUSH1 0x21 PUSH1 0x4 MSTORE PUSH1 0x24 PUSH1 0x0 REVERT JUMPDEST EQ ISZERO PUSH2 0x1539 JUMPI DUP9 DUP1 MLOAD SWAP1 PUSH1 0x20 ADD KECCAK256 PUSH1 0x8 PUSH1 0x0 DUP5 DUP2 MSTORE PUSH1 0x20 ADD SWAP1 DUP2 MSTORE PUSH1 0x20 ADD PUSH1 0x0 KECCAK256 PUSH1 0x1 ADD PUSH1 0x40 MLOAD PUSH2 0x12F1 SWAP2 SWAP1 PUSH2 0x2588 JUMP JUMPDEST PUSH1 0x40 MLOAD DUP1 SWAP2 SUB SWAP1 KECCAK256 EQ ISZERO PUSH2 0x1317 JUMPI PUSH1 0x40 MLOAD PUSH3 0x461BCD PUSH1 0xE5 SHL DUP2 MSTORE PUSH1 0x4 ADD PUSH2 0x366 SWAP1 PUSH2 0x2845 JUMP JUMPDEST DUP8 DUP1 MLOAD SWAP1 PUSH1 0x20 ADD KECCAK256 PUSH1 0x8 PUSH1 0x0 DUP5 DUP2 MSTORE PUSH1 0x20 ADD SWAP1 DUP2 MSTORE PUSH1 0x20 ADD PUSH1 0x0 KECCAK256 PUSH1 0x2 ADD PUSH1 0x40 MLOAD PUSH2 0x1342 SWAP2 SWAP1 PUSH2 0x2588 JUMP JUMPDEST PUSH1 0x40 MLOAD DUP1 SWAP2 SUB SWAP1 KECCAK256 EQ ISZERO PUSH2 0x1368 JUMPI PUSH1 0x40 MLOAD PUSH3 0x461BCD PUSH1 0xE5 SHL DUP2 MSTORE PUSH1 0x4 ADD PUSH2 0x366 SWAP1 PUSH2 0x28FC JUMP JUMPDEST PUSH1 0x40 MLOAD DUP1 PUSH2 0x100 ADD PUSH1 0x40 MSTORE DUP1 DUP12 DUP2 MSTORE PUSH1 0x20 ADD DUP11 DUP2 MSTORE PUSH1 0x20 ADD DUP10 DUP2 MSTORE PUSH1 0x20 ADD DUP9 DUP2 MSTORE PUSH1 0x20 ADD DUP8 DUP2 MSTORE PUSH1 0x20 ADD DUP7 PUSH1 0x4 DUP2 GT ISZERO PUSH2 0x13B2 JUMPI PUSH4 0x4E487B71 PUSH1 0xE0 SHL PUSH1 0x0 MSTORE PUSH1 0x21 PUSH1 0x4 MSTORE PUSH1 0x24 PUSH1 0x0 REVERT JUMPDEST DUP2 MSTORE PUSH1 0x20 ADD DUP6 PUSH1 0x2 DUP2 GT ISZERO PUSH2 0x13D7 JUMPI PUSH4 0x4E487B71 PUSH1 0xE0 SHL PUSH1 0x0 MSTORE PUSH1 0x21 PUSH1 0x4 MSTORE PUSH1 0x24 PUSH1 0x0 REVERT JUMPDEST DUP2 MSTORE PUSH1 0x1 PUSH1 0x20 SWAP2 DUP3 ADD MSTORE PUSH1 0x0 DUP5 DUP2 MSTORE PUSH1 0x8 DUP3 MSTORE PUSH1 0x40 SWAP1 KECCAK256 DUP3 MLOAD DUP1 MLOAD SWAP2 SWAP3 PUSH2 0x1403 SWAP3 DUP5 SWAP3 SWAP1 SWAP2 ADD SWAP1 PUSH2 0x1F73 JUMP JUMPDEST POP PUSH1 0x20 DUP3 DUP2 ADD MLOAD DUP1 MLOAD PUSH2 0x141C SWAP3 PUSH1 0x1 DUP6 ADD SWAP3 ADD SWAP1 PUSH2 0x1F73 JUMP JUMPDEST POP PUSH1 0x40 DUP3 ADD MLOAD DUP1 MLOAD PUSH2 0x1438 SWAP2 PUSH1 0x2 DUP5 ADD SWAP2 PUSH1 0x20 SWAP1 SWAP2 ADD SWAP1 PUSH2 0x1F73 JUMP JUMPDEST POP PUSH1 0x60 DUP3 ADD MLOAD DUP1 MLOAD PUSH2 0x1454 SWAP2 PUSH1 0x3 DUP5 ADD SWAP2 PUSH1 0x20 SWAP1 SWAP2 ADD SWAP1 PUSH2 0x1F73 JUMP JUMPDEST POP PUSH1 0x80 DUP3 ADD MLOAD DUP1 MLOAD PUSH2 0x1470 SWAP2 PUSH1 0x4 DUP5 ADD SWAP2 PUSH1 0x20 SWAP1 SWAP2 ADD SWAP1 PUSH2 0x1F73 JUMP JUMPDEST POP PUSH1 0xA0 DUP3 ADD MLOAD PUSH1 0x5 DUP3 ADD DUP1 SLOAD PUSH1 0xFF NOT AND PUSH1 0x1 DUP4 PUSH1 0x4 DUP2 GT ISZERO PUSH2 0x14A2 JUMPI PUSH4 0x4E487B71 PUSH1 0xE0 SHL PUSH1 0x0 MSTORE PUSH1 0x21 PUSH1 0x4 MSTORE PUSH1 0x24 PUSH1 0x0 REVERT JUMPDEST MUL OR SWAP1 SSTORE POP PUSH1 0xC0 DUP3 ADD MLOAD PUSH1 0x5 DUP3 ADD DUP1 SLOAD PUSH2 0xFF00 NOT AND PUSH2 0x100 DUP4 PUSH1 0x2 DUP2 GT ISZERO PUSH2 0x14DA JUMPI PUSH4 0x4E487B71 PUSH1 0xE0 SHL PUSH1 0x0 MSTORE PUSH1 0x21 PUSH1 0x4 MSTORE PUSH1 0x24 PUSH1 0x0 REVERT JUMPDEST MUL OR SWAP1 SSTORE POP PUSH1 0xE0 SWAP2 SWAP1 SWAP2 ADD MLOAD PUSH1 0x5 SWAP1 SWAP2 ADD DUP1 SLOAD SWAP2 ISZERO ISZERO PUSH3 0x10000 MUL PUSH3 0xFF0000 NOT SWAP1 SWAP3 AND SWAP2 SWAP1 SWAP2 OR SWAP1 SSTORE POP PUSH1 0x40 DUP1 MLOAD DUP1 DUP3 ADD SWAP1 SWAP2 MSTORE PUSH1 0x18 DUP2 MSTORE PUSH32 0x446F63746F7220526567697374726174696F6E20446F6E650000000000000000 PUSH1 0x20 DUP3 ADD MSTORE JUMPDEST PUSH1 0x1 DUP4 PUSH1 0x1 DUP2 GT ISZERO PUSH2 0x155B JUMPI PUSH4 0x4E487B71 PUSH1 0xE0 SHL PUSH1 0x0 MSTORE PUSH1 0x21 PUSH1 0x4 MSTORE PUSH1 0x24 PUSH1 0x0 REVERT JUMPDEST EQ ISZERO PUSH2 0x169B JUMPI DUP9 DUP1 MLOAD SWAP1 PUSH1 0x20 ADD KECCAK256 PUSH1 0x8 PUSH1 0x0 DUP5 DUP2 MSTORE PUSH1 0x20 ADD SWAP1 DUP2 MSTORE PUSH1 0x20 ADD PUSH1 0x0 KECCAK256 PUSH1 0x1 ADD PUSH1 0x40 MLOAD PUSH2 0x158C SWAP2 SWAP1 PUSH2 0x2588 JUMP JUMPDEST PUSH1 0x40 MLOAD DUP1 SWAP2 SUB SWAP1 KECCAK256 EQ PUSH2 0x15B1 JUMPI PUSH1 0x40 MLOAD PUSH3 0x461BCD PUSH1 0xE5 SHL DUP2 MSTORE PUSH1 0x4 ADD PUSH2 0x366 SWAP1 PUSH2 0x2845 JUMP JUMPDEST DUP8 DUP1 MLOAD SWAP1 PUSH1 0x20 ADD KECCAK256 PUSH1 0x8 PUSH1 0x0 DUP5 DUP2 MSTORE PUSH1 0x20 ADD SWAP1 DUP2 MSTORE PUSH1 0x20 ADD PUSH1 0x0 KECCAK256 PUSH1 0x2 ADD PUSH1 0x40 MLOAD PUSH2 0x15DC SWAP2 SWAP1 PUSH2 0x2588 JUMP JUMPDEST PUSH1 0x40 MLOAD DUP1 SWAP2 SUB SWAP1 KECCAK256 EQ PUSH2 0x1601 JUMPI PUSH1 0x40 MLOAD PUSH3 0x461BCD PUSH1 0xE5 SHL DUP2 MSTORE PUSH1 0x4 ADD PUSH2 0x366 SWAP1 PUSH2 0x28FC JUMP JUMPDEST PUSH1 0x0 DUP3 DUP2 MSTORE PUSH1 0x8 PUSH1 0x20 SWAP1 DUP2 MSTORE PUSH1 0x40 SWAP1 SWAP2 KECCAK256 DUP12 MLOAD PUSH2 0x1620 SWAP3 DUP14 ADD SWAP1 PUSH2 0x1F73 JUMP JUMPDEST POP PUSH1 0x0 DUP3 DUP2 MSTORE PUSH1 0x8 PUSH1 0x20 SWAP1 DUP2 MSTORE PUSH1 0x40 SWAP1 SWAP2 KECCAK256 DUP11 MLOAD PUSH2 0x1646 SWAP3 PUSH1 0x1 SWAP1 SWAP3 ADD SWAP2 DUP13 ADD SWAP1 PUSH2 0x1F73 JUMP JUMPDEST POP PUSH1 0x0 DUP3 DUP2 MSTORE PUSH1 0x8 PUSH1 0x20 SWAP1 DUP2 MSTORE PUSH1 0x40 SWAP1 SWAP2 KECCAK256 DUP10 MLOAD PUSH2 0x166C SWAP3 PUSH1 0x2 SWAP1 SWAP3 ADD SWAP2 DUP12 ADD SWAP1 PUSH2 0x1F73 JUMP JUMPDEST POP POP PUSH1 0x40 DUP1 MLOAD DUP1 DUP3 ADD SWAP1 SWAP2 MSTORE PUSH1 0x15 DUP2 MSTORE PUSH21 0x111BD8DD1BDC88149958DBDC9908155C19185D1959 PUSH1 0x5A SHL PUSH1 0x20 DUP3 ADD MSTORE JUMPDEST PUSH1 0x0 DUP1 MLOAD PUSH1 0x20 PUSH2 0x2A54 DUP4 CODECOPY DUP2 MLOAD SWAP2 MSTORE DUP3 DUP3 TIMESTAMP PUSH1 0x40 MLOAD PUSH2 0x16BC SWAP4 SWAP3 SWAP2 SWAP1 PUSH2 0x2983 JUMP JUMPDEST PUSH1 0x40 MLOAD DUP1 SWAP2 SUB SWAP1 LOG1 POP POP POP POP POP POP POP POP POP POP JUMP JUMPDEST PUSH1 0x0 DUP2 DUP2 MSTORE PUSH1 0x7 PUSH1 0x20 MSTORE PUSH1 0x40 SWAP1 KECCAK256 PUSH1 0x4 ADD SLOAD DUP2 SWAP1 PUSH1 0xFF AND ISZERO ISZERO PUSH1 0x1 EQ PUSH2 0x1708 JUMPI PUSH1 0x40 MLOAD PUSH3 0x461BCD PUSH1 0xE5 SHL DUP2 MSTORE PUSH1 0x4 ADD PUSH2 0x366 SWAP1 PUSH2 0x2888 JUMP JUMPDEST PUSH1 0x40 DUP1 MLOAD PUSH1 0xA0 DUP2 ADD DUP3 MSTORE DUP9 DUP2 MSTORE PUSH1 0x20 DUP1 DUP3 ADD DUP10 SWAP1 MSTORE DUP2 DUP4 ADD DUP9 SWAP1 MSTORE PUSH1 0x60 DUP3 ADD DUP8 SWAP1 MSTORE PUSH1 0x80 DUP3 ADD DUP7 SWAP1 MSTORE PUSH1 0x0 DUP6 DUP2 MSTORE PUSH1 0x9 DUP3 MSTORE SWAP3 SWAP1 SWAP3 KECCAK256 DUP2 MLOAD DUP1 MLOAD SWAP3 SWAP4 SWAP2 SWAP3 PUSH2 0x1753 SWAP3 DUP5 SWAP3 ADD SWAP1 PUSH2 0x1F73 JUMP JUMPDEST POP PUSH1 0x20 DUP3 DUP2 ADD MLOAD DUP1 MLOAD PUSH2 0x176C SWAP3 PUSH1 0x1 DUP6 ADD SWAP3 ADD SWAP1 PUSH2 0x1F73 JUMP JUMPDEST POP PUSH1 0x40 DUP3 ADD MLOAD DUP1 MLOAD PUSH2 0x1788 SWAP2 PUSH1 0x2 DUP5 ADD SWAP2 PUSH1 0x20 SWAP1 SWAP2 ADD SWAP1 PUSH2 0x1F73 JUMP JUMPDEST POP PUSH1 0x60 DUP3 ADD MLOAD DUP1 MLOAD PUSH2 0x17A4 SWAP2 PUSH1 0x3 DUP5 ADD SWAP2 PUSH1 0x20 SWAP1 SWAP2 ADD SWAP1 PUSH2 0x1F73 JUMP JUMPDEST POP PUSH1 0x80 SWAP2 DUP3 ADD MLOAD PUSH1 0x4 SWAP1 SWAP2 ADD SSTORE PUSH1 0x40 DUP1 MLOAD DUP5 DUP2 MSTORE PUSH1 0x60 PUSH1 0x20 DUP3 ADD DUP2 SWAP1 MSTORE PUSH1 0x1D SWAP1 DUP3 ADD MSTORE PUSH32 0x50617469656E74204C6F636174696F6E20446174612075706461746564000000 SWAP3 DUP2 ADD SWAP3 SWAP1 SWAP3 MSTORE TIMESTAMP SWAP1 DUP3 ADD MSTORE PUSH1 0x0 DUP1 MLOAD PUSH1 0x20 PUSH2 0x2A54 DUP4 CODECOPY DUP2 MLOAD SWAP2 MSTORE SWAP1 PUSH1 0xA0 ADD JUMPDEST PUSH1 0x40 MLOAD DUP1 SWAP2 SUB SWAP1 LOG1 POP POP POP POP POP POP POP JUMP JUMPDEST PUSH1 0x0 DUP4 DUP6 PUSH1 0x40 MLOAD PUSH1 0x20 ADD PUSH2 0x182E SWAP3 SWAP2 SWAP1 PUSH2 0x25F7 JUMP JUMPDEST PUSH1 0x40 DUP1 MLOAD PUSH1 0x1F NOT DUP2 DUP5 SUB ADD DUP2 MSTORE SWAP2 SWAP1 MSTORE DUP1 MLOAD PUSH1 0x20 SWAP1 SWAP2 ADD KECCAK256 SWAP1 POP PUSH1 0x60 PUSH1 0x0 DUP4 PUSH1 0x1 DUP2 GT ISZERO PUSH2 0x186C JUMPI PUSH4 0x4E487B71 PUSH1 0xE0 SHL PUSH1 0x0 MSTORE PUSH1 0x21 PUSH1 0x4 MSTORE PUSH1 0x24 PUSH1 0x0 REVERT JUMPDEST EQ ISZERO PUSH2 0x1A02 JUMPI DUP6 DUP1 MLOAD SWAP1 PUSH1 0x20 ADD KECCAK256 PUSH1 0x7 PUSH1 0x0 DUP5 DUP2 MSTORE PUSH1 0x20 ADD SWAP1 DUP2 MSTORE PUSH1 0x20 ADD PUSH1 0x0 KECCAK256 PUSH1 0x1 ADD PUSH1 0x40 MLOAD PUSH2 0x189D SWAP2 SWAP1 PUSH2 0x2588 JUMP JUMPDEST PUSH1 0x40 MLOAD DUP1 SWAP2 SUB SWAP1 KECCAK256 EQ ISZERO PUSH2 0x18C3 JUMPI PUSH1 0x40 MLOAD PUSH3 0x461BCD PUSH1 0xE5 SHL DUP2 MSTORE PUSH1 0x4 ADD PUSH2 0x366 SWAP1 PUSH2 0x293F JUMP JUMPDEST DUP5 DUP1 MLOAD SWAP1 PUSH1 0x20 ADD KECCAK256 PUSH1 0x7 PUSH1 0x0 DUP5 DUP2 MSTORE PUSH1 0x20 ADD SWAP1 DUP2 MSTORE PUSH1 0x20 ADD PUSH1 0x0 KECCAK256 PUSH1 0x2 ADD PUSH1 0x40 MLOAD PUSH2 0x18EE SWAP2 SWAP1 PUSH2 0x2588 JUMP JUMPDEST PUSH1 0x40 MLOAD DUP1 SWAP2 SUB SWAP1 KECCAK256 EQ ISZERO PUSH2 0x1914 JUMPI PUSH1 0x40 MLOAD PUSH3 0x461BCD PUSH1 0xE5 SHL DUP2 MSTORE PUSH1 0x4 ADD PUSH2 0x366 SWAP1 PUSH2 0x28B8 JUMP JUMPDEST PUSH1 0x40 DUP1 MLOAD PUSH1 0xA0 DUP2 ADD DUP3 MSTORE DUP9 DUP2 MSTORE PUSH1 0x20 DUP1 DUP3 ADD DUP10 SWAP1 MSTORE DUP2 DUP4 ADD DUP9 SWAP1 MSTORE PUSH1 0x60 DUP3 ADD DUP8 SWAP1 MSTORE PUSH1 0x1 PUSH1 0x80 DUP4 ADD MSTORE PUSH1 0x0 DUP6 DUP2 MSTORE PUSH1 0x7 DUP3 MSTORE SWAP3 SWAP1 SWAP3 KECCAK256 DUP2 MLOAD DUP1 MLOAD SWAP3 SWAP4 SWAP2 SWAP3 PUSH2 0x195F SWAP3 DUP5 SWAP3 ADD SWAP1 PUSH2 0x1F73 JUMP JUMPDEST POP PUSH1 0x20 DUP3 DUP2 ADD MLOAD DUP1 MLOAD PUSH2 0x1978 SWAP3 PUSH1 0x1 DUP6 ADD SWAP3 ADD SWAP1 PUSH2 0x1F73 JUMP JUMPDEST POP PUSH1 0x40 DUP3 ADD MLOAD DUP1 MLOAD PUSH2 0x1994 SWAP2 PUSH1 0x2 DUP5 ADD SWAP2 PUSH1 0x20 SWAP1 SWAP2 ADD SWAP1 PUSH2 0x1F73 JUMP JUMPDEST POP PUSH1 0x60 DUP3 ADD MLOAD DUP1 MLOAD PUSH2 0x19B0 SWAP2 PUSH1 0x3 DUP5 ADD SWAP2 PUSH1 0x20 SWAP1 SWAP2 ADD SWAP1 PUSH2 0x1F73 JUMP JUMPDEST POP PUSH1 0x80 SWAP2 SWAP1 SWAP2 ADD MLOAD PUSH1 0x4 SWAP1 SWAP2 ADD DUP1 SLOAD PUSH1 0xFF NOT AND SWAP2 ISZERO ISZERO SWAP2 SWAP1 SWAP2 OR SWAP1 SSTORE POP PUSH1 0x40 DUP1 MLOAD DUP1 DUP3 ADD SWAP1 SWAP2 MSTORE PUSH1 0x19 DUP2 MSTORE PUSH32 0x50617469656E7420526567697374726174696F6E20446F6E6500000000000000 PUSH1 0x20 DUP3 ADD MSTORE JUMPDEST PUSH1 0x1 DUP4 PUSH1 0x1 DUP2 GT ISZERO PUSH2 0x1A24 JUMPI PUSH4 0x4E487B71 PUSH1 0xE0 SHL PUSH1 0x0 MSTORE PUSH1 0x21 PUSH1 0x4 MSTORE PUSH1 0x24 PUSH1 0x0 REVERT JUMPDEST EQ ISZERO PUSH2 0x1B65 JUMPI DUP6 DUP1 MLOAD SWAP1 PUSH1 0x20 ADD KECCAK256 PUSH1 0x7 PUSH1 0x0 DUP5 DUP2 MSTORE PUSH1 0x20 ADD SWAP1 DUP2 MSTORE PUSH1 0x20 ADD PUSH1 0x0 KECCAK256 PUSH1 0x1 ADD PUSH1 0x40 MLOAD PUSH2 0x1A55 SWAP2 SWAP1 PUSH2 0x2588 JUMP JUMPDEST PUSH1 0x40 MLOAD DUP1 SWAP2 SUB SWAP1 KECCAK256 EQ PUSH2 0x1A7A JUMPI PUSH1 0x40 MLOAD PUSH3 0x461BCD PUSH1 0xE5 SHL DUP2 MSTORE PUSH1 0x4 ADD PUSH2 0x366 SWAP1 PUSH2 0x293F JUMP JUMPDEST DUP5 DUP1 MLOAD SWAP1 PUSH1 0x20 ADD KECCAK256 PUSH1 0x7 PUSH1 0x0 DUP5 DUP2 MSTORE PUSH1 0x20 ADD SWAP1 DUP2 MSTORE PUSH1 0x20 ADD PUSH1 0x0 KECCAK256 PUSH1 0x2 ADD PUSH1 0x40 MLOAD PUSH2 0x1AA5 SWAP2 SWAP1 PUSH2 0x2588 JUMP JUMPDEST PUSH1 0x40 MLOAD DUP1 SWAP2 SUB SWAP1 KECCAK256 EQ PUSH2 0x1ACA JUMPI PUSH1 0x40 MLOAD PUSH3 0x461BCD PUSH1 0xE5 SHL DUP2 MSTORE PUSH1 0x4 ADD PUSH2 0x366 SWAP1 PUSH2 0x28B8 JUMP JUMPDEST PUSH1 0x0 DUP3 DUP2 MSTORE PUSH1 0x7 PUSH1 0x20 SWAP1 DUP2 MSTORE PUSH1 0x40 SWAP1 SWAP2 KECCAK256 DUP9 MLOAD PUSH2 0x1AE9 SWAP3 DUP11 ADD SWAP1 PUSH2 0x1F73 JUMP JUMPDEST POP PUSH1 0x0 DUP3 DUP2 MSTORE PUSH1 0x7 PUSH1 0x20 SWAP1 DUP2 MSTORE PUSH1 0x40 SWAP1 SWAP2 KECCAK256 DUP8 MLOAD PUSH2 0x1B0F SWAP3 PUSH1 0x1 SWAP1 SWAP3 ADD SWAP2 DUP10 ADD SWAP1 PUSH2 0x1F73 JUMP JUMPDEST POP PUSH1 0x0 DUP3 DUP2 MSTORE PUSH1 0x7 PUSH1 0x20 SWAP1 DUP2 MSTORE PUSH1 0x40 SWAP1 SWAP2 KECCAK256 DUP7 MLOAD PUSH2 0x1B35 SWAP3 PUSH1 0x2 SWAP1 SWAP3 ADD SWAP2 DUP9 ADD SWAP1 PUSH2 0x1F73 JUMP JUMPDEST POP POP PUSH1 0x40 DUP1 MLOAD DUP1 DUP3 ADD SWAP1 SWAP2 MSTORE PUSH1 0x16 DUP2 MSTORE PUSH22 0x14185D1A595B9D08149958DBDC9908155C19185D1959 PUSH1 0x52 SHL PUSH1 0x20 DUP3 ADD MSTORE JUMPDEST PUSH1 0x0 DUP1 MLOAD PUSH1 0x20 PUSH2 0x2A54 DUP4 CODECOPY DUP2 MLOAD SWAP2 MSTORE DUP3 DUP3 TIMESTAMP PUSH1 0x40 MLOAD PUSH2 0x1808 SWAP4 SWAP3 SWAP2 SWAP1 PUSH2 0x2983 JUMP JUMPDEST PUSH1 0x0 DUP6 DUP2 MSTORE PUSH1 0x7 PUSH1 0x20 MSTORE PUSH1 0x40 SWAP1 KECCAK256 PUSH1 0x4 ADD SLOAD DUP6 SWAP1 PUSH1 0xFF AND ISZERO ISZERO PUSH1 0x1 EQ PUSH2 0x1BBE JUMPI PUSH1 0x40 MLOAD PUSH3 0x461BCD PUSH1 0xE5 SHL DUP2 MSTORE PUSH1 0x4 ADD PUSH2 0x366 SWAP1 PUSH2 0x2888 JUMP JUMPDEST PUSH1 0x0 DUP7 DUP2 MSTORE PUSH1 0xC PUSH1 0x20 SWAP1 DUP2 MSTORE PUSH1 0x40 DUP1 DUP4 KECCAK256 DUP9 DUP5 MSTORE SWAP1 SWAP2 MSTORE SWAP1 KECCAK256 PUSH1 0x3 ADD SLOAD PUSH1 0xFF AND ISZERO ISZERO PUSH1 0x1 EQ PUSH2 0x1C2F JUMPI PUSH1 0x40 MLOAD PUSH3 0x461BCD PUSH1 0xE5 SHL DUP2 MSTORE PUSH1 0x20 PUSH1 0x4 DUP3 ADD MSTORE PUSH1 0x1A PUSH1 0x24 DUP3 ADD MSTORE PUSH32 0x4548522D5243472D30323A204E6F742072656769737465726564000000000000 PUSH1 0x44 DUP3 ADD MSTORE PUSH1 0x64 ADD PUSH2 0x366 JUMP JUMPDEST PUSH1 0x40 DUP1 MLOAD PUSH1 0x80 DUP2 ADD DUP3 MSTORE DUP6 DUP2 MSTORE PUSH1 0x20 DUP1 DUP3 ADD DUP7 SWAP1 MSTORE DUP2 DUP4 ADD DUP6 SWAP1 MSTORE PUSH1 0x1 PUSH1 0x60 DUP4 ADD MSTORE PUSH1 0x0 DUP10 DUP2 MSTORE PUSH1 0xC DUP3 MSTORE DUP4 DUP2 KECCAK256 DUP10 DUP3 MSTORE DUP3 MSTORE SWAP3 SWAP1 SWAP3 KECCAK256 DUP2 MLOAD DUP1 MLOAD SWAP3 SWAP4 SWAP2 SWAP3 PUSH2 0x1C7B SWAP3 DUP5 SWAP3 ADD SWAP1 PUSH2 0x1F73 JUMP JUMPDEST POP PUSH1 0x20 DUP3 DUP2 ADD MLOAD DUP1 MLOAD PUSH2 0x1C94 SWAP3 PUSH1 0x1 DUP6 ADD SWAP3 ADD SWAP1 PUSH2 0x1F73 JUMP JUMPDEST POP PUSH1 0x40 DUP3 ADD MLOAD DUP1 MLOAD PUSH2 0x1CB0 SWAP2 PUSH1 0x2 DUP5 ADD SWAP2 PUSH1 0x20 SWAP1 SWAP2 ADD SWAP1 PUSH2 0x1F73 JUMP JUMPDEST POP PUSH1 0x60 SWAP2 DUP3 ADD MLOAD PUSH1 0x3 SWAP1 SWAP2 ADD DUP1 SLOAD PUSH1 0xFF NOT AND SWAP2 ISZERO ISZERO SWAP2 SWAP1 SWAP2 OR SWAP1 SSTORE PUSH1 0x40 DUP1 MLOAD DUP9 DUP2 MSTORE PUSH1 0x20 DUP2 ADD DUP4 SWAP1 MSTORE PUSH1 0x17 SWAP3 DUP2 ADD SWAP3 SWAP1 SWAP3 MSTORE PUSH32 0x4361726567697665722044617461206D6F646966696564000000000000000000 PUSH1 0x80 DUP4 ADD MSTORE TIMESTAMP SWAP1 DUP3 ADD MSTORE PUSH1 0x0 DUP1 MLOAD PUSH1 0x20 PUSH2 0x2A54 DUP4 CODECOPY DUP2 MLOAD SWAP2 MSTORE SWAP1 PUSH1 0xA0 ADD PUSH2 0xBB4 JUMP JUMPDEST PUSH1 0x9 PUSH1 0x20 MSTORE PUSH1 0x0 SWAP1 DUP2 MSTORE PUSH1 0x40 SWAP1 KECCAK256 DUP1 SLOAD DUP2 SWAP1 PUSH2 0x1D40 SWAP1 PUSH2 0x29DC JUMP JUMPDEST DUP1 PUSH1 0x1F ADD PUSH1 0x20 DUP1 SWAP2 DIV MUL PUSH1 0x20 ADD PUSH1 0x40 MLOAD SWAP1 DUP2 ADD PUSH1 0x40 MSTORE DUP1 SWAP3 SWAP2 SWAP1 DUP2 DUP2 MSTORE PUSH1 0x20 ADD DUP3 DUP1 SLOAD PUSH2 0x1D6C SWAP1 PUSH2 0x29DC JUMP JUMPDEST DUP1 ISZERO PUSH2 0x1DB9 JUMPI DUP1 PUSH1 0x1F LT PUSH2 0x1D8E JUMPI PUSH2 0x100 DUP1 DUP4 SLOAD DIV MUL DUP4 MSTORE SWAP2 PUSH1 0x20 ADD SWAP2 PUSH2 0x1DB9 JUMP JUMPDEST DUP3 ADD SWAP2 SWAP1 PUSH1 0x0 MSTORE PUSH1 0x20 PUSH1 0x0 KECCAK256 SWAP1 JUMPDEST DUP2 SLOAD DUP2 MSTORE SWAP1 PUSH1 0x1 ADD SWAP1 PUSH1 0x20 ADD DUP1 DUP4 GT PUSH2 0x1D9C JUMPI DUP3 SWAP1 SUB PUSH1 0x1F AND DUP3 ADD SWAP2 JUMPDEST POP POP POP POP POP SWAP1 DUP1 PUSH1 0x1 ADD DUP1 SLOAD PUSH2 0x1DCE SWAP1 PUSH2 0x29DC JUMP JUMPDEST DUP1 PUSH1 0x1F ADD PUSH1 0x20 DUP1 SWAP2 DIV MUL PUSH1 0x20 ADD PUSH1 0x40 MLOAD SWAP1 DUP2 ADD PUSH1 0x40 MSTORE DUP1 SWAP3 SWAP2 SWAP1 DUP2 DUP2 MSTORE PUSH1 0x20 ADD DUP3 DUP1 SLOAD PUSH2 0x1DFA SWAP1 PUSH2 0x29DC JUMP JUMPDEST DUP1 ISZERO PUSH2 0x1E47 JUMPI DUP1 PUSH1 0x1F LT PUSH2 0x1E1C JUMPI PUSH2 0x100 DUP1 DUP4 SLOAD DIV MUL DUP4 MSTORE SWAP2 PUSH1 0x20 ADD SWAP2 PUSH2 0x1E47 JUMP JUMPDEST DUP3 ADD SWAP2 SWAP1 PUSH1 0x0 MSTORE PUSH1 0x20 PUSH1 0x0 KECCAK256 SWAP1 JUMPDEST DUP2 SLOAD DUP2 MSTORE SWAP1 PUSH1 0x1 ADD SWAP1 PUSH1 0x20 ADD DUP1 DUP4 GT PUSH2 0x1E2A JUMPI DUP3 SWAP1 SUB PUSH1 0x1F AND DUP3 ADD SWAP2 JUMPDEST POP POP POP POP POP SWAP1 DUP1 PUSH1 0x2 ADD DUP1 SLOAD PUSH2 0x1E5C SWAP1 PUSH2 0x29DC JUMP JUMPDEST DUP1 PUSH1 0x1F ADD PUSH1 0x20 DUP1 SWAP2 DIV MUL PUSH1 0x20 ADD PUSH1 0x40 MLOAD SWAP1 DUP2 ADD PUSH1 0x40 MSTORE DUP1 SWAP3 SWAP2 SWAP1 DUP2 DUP2 MSTORE PUSH1 0x20 ADD DUP3 DUP1 SLOAD PUSH2 0x1E88 SWAP1 PUSH2 0x29DC JUMP JUMPDEST DUP1 ISZERO PUSH2 0x1ED5 JUMPI DUP1 PUSH1 0x1F LT PUSH2 0x1EAA JUMPI PUSH2 0x100 DUP1 DUP4 SLOAD DIV MUL DUP4 MSTORE SWAP2 PUSH1 0x20 ADD SWAP2 PUSH2 0x1ED5 JUMP JUMPDEST DUP3 ADD SWAP2 SWAP1 PUSH1 0x0 MSTORE PUSH1 0x20 PUSH1 0x0 KECCAK256 SWAP1 JUMPDEST DUP2 SLOAD DUP2 MSTORE SWAP1 PUSH1 0x1 ADD SWAP1 PUSH1 0x20 ADD DUP1 DUP4 GT PUSH2 0x1EB8 JUMPI DUP3 SWAP1 SUB PUSH1 0x1F AND DUP3 ADD SWAP2 JUMPDEST POP POP POP POP POP SWAP1 DUP1 PUSH1 0x3 ADD DUP1 SLOAD PUSH2 0x1EEA SWAP1 PUSH2 0x29DC JUMP JUMPDEST DUP1 PUSH1 0x1F ADD PUSH1 0x20 DUP1 SWAP2 DIV MUL PUSH1 0x20 ADD PUSH1 0x40 MLOAD SWAP1 DUP2 ADD PUSH1 0x40 MSTORE DUP1 SWAP3 SWAP2 SWAP1 DUP2 DUP2 MSTORE PUSH1 0x20 ADD DUP3 DUP1 SLOAD PUSH2 0x1F16 SWAP1 PUSH2 0x29DC JUMP JUMPDEST DUP1 ISZERO PUSH2 0x1F63 JUMPI DUP1 PUSH1 0x1F LT PUSH2 0x1F38 JUMPI PUSH2 0x100 DUP1 DUP4 SLOAD DIV MUL DUP4 MSTORE SWAP2 PUSH1 0x20 ADD SWAP2 PUSH2 0x1F63 JUMP JUMPDEST DUP3 ADD SWAP2 SWAP1 PUSH1 0x0 MSTORE PUSH1 0x20 PUSH1 0x0 KECCAK256 SWAP1 JUMPDEST DUP2 SLOAD DUP2 MSTORE SWAP1 PUSH1 0x1 ADD SWAP1 PUSH1 0x20 ADD DUP1 DUP4 GT PUSH2 0x1F46 JUMPI DUP3 SWAP1 SUB PUSH1 0x1F AND DUP3 ADD SWAP2 JUMPDEST POP POP POP POP POP SWAP1 DUP1 PUSH1 0x4 ADD SLOAD SWAP1 POP DUP6 JUMP JUMPDEST DUP3 DUP1 SLOAD PUSH2 0x1F7F SWAP1 PUSH2 0x29DC JUMP JUMPDEST SWAP1 PUSH1 0x0 MSTORE PUSH1 0x20 PUSH1 0x0 KECCAK256 SWAP1 PUSH1 0x1F ADD PUSH1 0x20 SWAP1 DIV DUP2 ADD SWAP3 DUP3 PUSH2 0x1FA1 JUMPI PUSH1 0x0 DUP6 SSTORE PUSH2 0x1FE7 JUMP JUMPDEST DUP3 PUSH1 0x1F LT PUSH2 0x1FBA JUMPI DUP1 MLOAD PUSH1 0xFF NOT AND DUP4 DUP1 ADD OR DUP6 SSTORE PUSH2 0x1FE7 JUMP JUMPDEST DUP3 DUP1 ADD PUSH1 0x1 ADD DUP6 SSTORE DUP3 ISZERO PUSH2 0x1FE7 JUMPI SWAP2 DUP3 ADD JUMPDEST DUP3 DUP2 GT ISZERO PUSH2 0x1FE7 JUMPI DUP3 MLOAD DUP3 SSTORE SWAP2 PUSH1 0x20 ADD SWAP2 SWAP1 PUSH1 0x1 ADD SWAP1 PUSH2 0x1FCC JUMP JUMPDEST POP PUSH2 0x1FF3 SWAP3 SWAP2 POP PUSH2 0x1FF7 JUMP JUMPDEST POP SWAP1 JUMP JUMPDEST JUMPDEST DUP1 DUP3 GT ISZERO PUSH2 0x1FF3 JUMPI PUSH1 0x0 DUP2 SSTORE PUSH1 0x1 ADD PUSH2 0x1FF8 JUMP JUMPDEST DUP1 CALLDATALOAD PUSH1 0x5 DUP2 LT PUSH2 0x201B JUMPI PUSH1 0x0 DUP1 REVERT JUMPDEST SWAP2 SWAP1 POP JUMP JUMPDEST DUP1 CALLDATALOAD PUSH1 0x3 DUP2 LT PUSH2 0x201B JUMPI PUSH1 0x0 DUP1 REVERT JUMPDEST DUP1 CALLDATALOAD PUSH2 0x201B DUP2 PUSH2 0x2A43 JUMP JUMPDEST PUSH1 0x0 DUP3 PUSH1 0x1F DUP4 ADD SLT PUSH2 0x204A JUMPI DUP1 DUP2 REVERT JUMPDEST DUP2 CALLDATALOAD PUSH8 0xFFFFFFFFFFFFFFFF DUP1 DUP3 GT ISZERO PUSH2 0x2065 JUMPI PUSH2 0x2065 PUSH2 0x2A2D JUMP JUMPDEST PUSH1 0x40 MLOAD PUSH1 0x1F DUP4 ADD PUSH1 0x1F NOT SWAP1 DUP2 AND PUSH1 0x3F ADD AND DUP2 ADD SWAP1 DUP3 DUP3 GT DUP2 DUP4 LT OR ISZERO PUSH2 0x208D JUMPI PUSH2 0x208D PUSH2 0x2A2D JUMP JUMPDEST DUP2 PUSH1 0x40 MSTORE DUP4 DUP2 MSTORE DUP7 PUSH1 0x20 DUP6 DUP9 ADD ADD GT ISZERO PUSH2 0x20A5 JUMPI DUP5 DUP6 REVERT JUMPDEST DUP4 PUSH1 0x20 DUP8 ADD PUSH1 0x20 DUP4 ADD CALLDATACOPY SWAP3 DUP4 ADD PUSH1 0x20 ADD SWAP4 SWAP1 SWAP4 MSTORE POP SWAP4 SWAP3 POP POP POP JUMP JUMPDEST PUSH1 0x0 DUP1 PUSH1 0x0 DUP1 PUSH1 0x0 PUSH1 0xA0 DUP7 DUP9 SUB SLT ISZERO PUSH2 0x20D8 JUMPI DUP1 DUP2 REVERT JUMPDEST DUP6 CALLDATALOAD PUSH8 0xFFFFFFFFFFFFFFFF DUP1 DUP3 GT ISZERO PUSH2 0x20EF JUMPI DUP3 DUP4 REVERT JUMPDEST PUSH2 0x20FB DUP10 DUP4 DUP11 ADD PUSH2 0x203A JUMP JUMPDEST SWAP7 POP PUSH1 0x20 DUP9 ADD CALLDATALOAD SWAP2 POP DUP1 DUP3 GT ISZERO PUSH2 0x2110 JUMPI DUP3 DUP4 REVERT JUMPDEST PUSH2 0x211C DUP10 DUP4 DUP11 ADD PUSH2 0x203A JUMP JUMPDEST SWAP6 POP PUSH1 0x40 DUP9 ADD CALLDATALOAD SWAP2 POP DUP1 DUP3 GT ISZERO PUSH2 0x2131 JUMPI DUP3 DUP4 REVERT JUMPDEST PUSH2 0x213D DUP10 DUP4 DUP11 ADD PUSH2 0x203A JUMP JUMPDEST SWAP5 POP PUSH1 0x60 DUP9 ADD CALLDATALOAD SWAP2 POP DUP1 DUP3 GT ISZERO PUSH2 0x2152 JUMPI DUP3 DUP4 REVERT JUMPDEST POP PUSH2 0x215F DUP9 DUP3 DUP10 ADD PUSH2 0x203A JUMP JUMPDEST SWAP3 POP POP PUSH1 0x80 DUP7 ADD CALLDATALOAD PUSH2 0x2170 DUP2 PUSH2 0x2A43 JUMP JUMPDEST DUP1 SWAP2 POP POP SWAP3 SWAP6 POP SWAP3 SWAP6 SWAP1 SWAP4 POP JUMP JUMPDEST PUSH1 0x0 DUP1 PUSH1 0x0 DUP1 PUSH1 0x0 DUP1 PUSH1 0x0 DUP1 PUSH2 0x100 DUP10 DUP12 SUB SLT ISZERO PUSH2 0x219A JUMPI DUP3 DUP4 REVERT JUMPDEST DUP9 CALLDATALOAD PUSH8 0xFFFFFFFFFFFFFFFF DUP1 DUP3 GT ISZERO PUSH2 0x21B1 JUMPI DUP5 DUP6 REVERT JUMPDEST PUSH2 0x21BD DUP13 DUP4 DUP14 ADD PUSH2 0x203A JUMP JUMPDEST SWAP10 POP PUSH1 0x20 DUP12 ADD CALLDATALOAD SWAP2 POP DUP1 DUP3 GT ISZERO PUSH2 0x21D2 JUMPI DUP5 DUP6 REVERT JUMPDEST PUSH2 0x21DE DUP13 DUP4 DUP14 ADD PUSH2 0x203A JUMP JUMPDEST SWAP9 POP PUSH1 0x40 DUP12 ADD CALLDATALOAD SWAP2 POP DUP1 DUP3 GT ISZERO PUSH2 0x21F3 JUMPI DUP5 DUP6 REVERT JUMPDEST PUSH2 0x21FF DUP13 DUP4 DUP14 ADD PUSH2 0x203A JUMP JUMPDEST SWAP8 POP PUSH1 0x60 DUP12 ADD CALLDATALOAD SWAP2 POP DUP1 DUP3 GT ISZERO PUSH2 0x2214 JUMPI DUP5 DUP6 REVERT JUMPDEST PUSH2 0x2220 DUP13 DUP4 DUP14 ADD PUSH2 0x203A JUMP JUMPDEST SWAP7 POP PUSH1 0x80 DUP12 ADD CALLDATALOAD SWAP2 POP DUP1 DUP3 GT ISZERO PUSH2 0x2235 JUMPI DUP5 DUP6 REVERT JUMPDEST POP PUSH2 0x2242 DUP12 DUP3 DUP13 ADD PUSH2 0x203A JUMP JUMPDEST SWAP5 POP POP PUSH2 0x2251 PUSH1 0xA0 DUP11 ADD PUSH2 0x200C JUMP JUMPDEST SWAP3 POP PUSH2 0x225F PUSH1 0xC0 DUP11 ADD PUSH2 0x2020 JUMP JUMPDEST SWAP2 POP PUSH2 0x226D PUSH1 0xE0 DUP11 ADD PUSH2 0x202F JUMP JUMPDEST SWAP1 POP SWAP3 SWAP6 SWAP9 POP SWAP3 SWAP6 SWAP9 SWAP1 SWAP4 SWAP7 POP JUMP JUMPDEST PUSH1 0x0 DUP1 PUSH1 0x0 DUP1 PUSH1 0x0 DUP1 PUSH1 0xC0 DUP8 DUP10 SUB SLT ISZERO PUSH2 0x2294 JUMPI DUP2 DUP3 REVERT JUMPDEST DUP7 CALLDATALOAD PUSH8 0xFFFFFFFFFFFFFFFF DUP1 DUP3 GT ISZERO PUSH2 0x22AB JUMPI DUP4 DUP5 REVERT JUMPDEST PUSH2 0x22B7 DUP11 DUP4 DUP12 ADD PUSH2 0x203A JUMP JUMPDEST SWAP8 POP PUSH1 0x20 DUP10 ADD CALLDATALOAD SWAP2 POP DUP1 DUP3 GT ISZERO PUSH2 0x22CC JUMPI DUP4 DUP5 REVERT JUMPDEST PUSH2 0x22D8 DUP11 DUP4 DUP12 ADD PUSH2 0x203A JUMP JUMPDEST SWAP7 POP PUSH1 0x40 DUP10 ADD CALLDATALOAD SWAP2 POP DUP1 DUP3 GT ISZERO PUSH2 0x22ED JUMPI DUP4 DUP5 REVERT JUMPDEST PUSH2 0x22F9 DUP11 DUP4 DUP12 ADD PUSH2 0x203A JUMP JUMPDEST SWAP6 POP PUSH1 0x60 DUP10 ADD CALLDATALOAD SWAP2 POP DUP1 DUP3 GT ISZERO PUSH2 0x230E JUMPI DUP4 DUP5 REVERT JUMPDEST POP PUSH2 0x231B DUP10 DUP3 DUP11 ADD PUSH2 0x203A JUMP JUMPDEST SWAP4 POP POP PUSH1 0x80 DUP8 ADD CALLDATALOAD SWAP2 POP PUSH1 0xA0 DUP8 ADD CALLDATALOAD SWAP1 POP SWAP3 SWAP6 POP SWAP3 SWAP6 POP SWAP3 SWAP6 JUMP JUMPDEST PUSH1 0x0 DUP1 PUSH1 0x0 DUP1 PUSH1 0x0 PUSH1 0xA0 DUP7 DUP9 SUB SLT ISZERO PUSH2 0x234D JUMPI DUP1 DUP2 REVERT JUMPDEST DUP6 CALLDATALOAD PUSH8 0xFFFFFFFFFFFFFFFF DUP1 DUP3 GT ISZERO PUSH2 0x2364 JUMPI DUP3 DUP4 REVERT JUMPDEST PUSH2 0x2370 DUP10 DUP4 DUP11 ADD PUSH2 0x203A JUMP JUMPDEST SWAP7 POP PUSH1 0x20 DUP9 ADD CALLDATALOAD SWAP2 POP DUP1 DUP3 GT ISZERO PUSH2 0x2385 JUMPI DUP3 DUP4 REVERT JUMPDEST POP PUSH2 0x2392 DUP9 DUP3 DUP10 ADD PUSH2 0x203A JUMP JUMPDEST SWAP6 SWAP9 SWAP6 SWAP8 POP POP POP POP PUSH1 0x40 DUP5 ADD CALLDATALOAD SWAP4 PUSH1 0x60 DUP2 ADD CALLDATALOAD SWAP4 PUSH1 0x80 SWAP1 SWAP2 ADD CALLDATALOAD SWAP3 POP SWAP1 POP JUMP JUMPDEST PUSH1 0x0 PUSH1 0x20 DUP3 DUP5 SUB SLT ISZERO PUSH2 0x23C3 JUMPI DUP1 DUP2 REVERT JUMPDEST POP CALLDATALOAD SWAP2 SWAP1 POP JUMP JUMPDEST PUSH1 0x0 DUP1 PUSH1 0x40 DUP4 DUP6 SUB SLT ISZERO PUSH2 0x23DC JUMPI DUP2 DUP3 REVERT JUMPDEST DUP3 CALLDATALOAD SWAP2 POP PUSH1 0x20 DUP4 ADD CALLDATALOAD PUSH8 0xFFFFFFFFFFFFFFFF DUP2 GT ISZERO PUSH2 0x23F9 JUMPI DUP2 DUP3 REVERT JUMPDEST PUSH2 0x2405 DUP6 DUP3 DUP7 ADD PUSH2 0x203A JUMP JUMPDEST SWAP2 POP POP SWAP3 POP SWAP3 SWAP1 POP JUMP JUMPDEST PUSH1 0x0 DUP1 PUSH1 0x40 DUP4 DUP6 SUB SLT ISZERO PUSH2 0x2421 JUMPI DUP2 DUP3 REVERT JUMPDEST POP POP DUP1 CALLDATALOAD SWAP3 PUSH1 0x20 SWAP1 SWAP2 ADD CALLDATALOAD SWAP2 POP JUMP JUMPDEST PUSH1 0x0 DUP1 PUSH1 0x0 PUSH1 0x60 DUP5 DUP7 SUB SLT ISZERO PUSH2 0x2444 JUMPI DUP3 DUP4 REVERT JUMPDEST DUP4 CALLDATALOAD SWAP3 POP PUSH1 0x20 DUP5 ADD CALLDATALOAD SWAP2 POP PUSH1 0x40 DUP5 ADD CALLDATALOAD PUSH2 0x245D DUP2 PUSH2 0x2A43 JUMP JUMPDEST DUP1 SWAP2 POP POP SWAP3 POP SWAP3 POP SWAP3 JUMP JUMPDEST PUSH1 0x0 DUP1 PUSH1 0x0 DUP1 PUSH1 0x0 PUSH1 0xA0 DUP7 DUP9 SUB SLT ISZERO PUSH2 0x247F JUMPI DUP1 DUP2 REVERT JUMPDEST DUP6 CALLDATALOAD SWAP5 POP PUSH1 0x20 DUP7 ADD CALLDATALOAD SWAP4 POP PUSH1 0x40 DUP7 ADD CALLDATALOAD PUSH8 0xFFFFFFFFFFFFFFFF DUP1 DUP3 GT ISZERO PUSH2 0x24A4 JUMPI DUP3 DUP4 REVERT JUMPDEST PUSH2 0x24B0 DUP10 DUP4 DUP11 ADD PUSH2 0x203A JUMP JUMPDEST SWAP5 POP PUSH1 0x60 DUP9 ADD CALLDATALOAD SWAP2 POP DUP1 DUP3 GT ISZERO PUSH2 0x24C5 JUMPI DUP3 DUP4 REVERT JUMPDEST PUSH2 0x24D1 DUP10 DUP4 DUP11 ADD PUSH2 0x203A JUMP JUMPDEST SWAP4 POP PUSH1 0x80 DUP9 ADD CALLDATALOAD SWAP2 POP DUP1 DUP3 GT ISZERO PUSH2 0x24E6 JUMPI DUP3 DUP4 REVERT JUMPDEST POP PUSH2 0x24F3 DUP9 DUP3 DUP10 ADD PUSH2 0x203A JUMP JUMPDEST SWAP2 POP POP SWAP3 SWAP6 POP SWAP3 SWAP6 SWAP1 SWAP4 POP JUMP JUMPDEST PUSH1 0x0 DUP1 PUSH1 0x0 PUSH1 0x60 DUP5 DUP7 SUB SLT ISZERO PUSH2 0x2514 JUMPI DUP1 DUP2 REVERT JUMPDEST POP POP DUP2 CALLDATALOAD SWAP4 PUSH1 0x20 DUP4 ADD CALLDATALOAD SWAP4 POP PUSH1 0x40 SWAP1 SWAP3 ADD CALLDATALOAD SWAP2 SWAP1 POP JUMP JUMPDEST PUSH1 0x0 DUP1 PUSH1 0x0 DUP1 PUSH1 0x80 DUP6 DUP8 SUB SLT ISZERO PUSH2 0x2540 JUMPI DUP2 DUP3 REVERT JUMPDEST POP POP DUP3 CALLDATALOAD SWAP5 PUSH1 0x20 DUP5 ADD CALLDATALOAD SWAP5 POP PUSH1 0x40 DUP5 ADD CALLDATALOAD SWAP4 PUSH1 0x60 ADD CALLDATALOAD SWAP3 POP SWAP1 POP JUMP JUMPDEST PUSH1 0x0 DUP2 MLOAD DUP1 DUP5 MSTORE PUSH2 0x2574 DUP2 PUSH1 0x20 DUP7 ADD PUSH1 0x20 DUP7 ADD PUSH2 0x29AC JUMP JUMPDEST PUSH1 0x1F ADD PUSH1 0x1F NOT AND SWAP3 SWAP1 SWAP3 ADD PUSH1 0x20 ADD SWAP3 SWAP2 POP POP JUMP JUMPDEST PUSH1 0x0 DUP1 DUP4 SLOAD PUSH2 0x2596 DUP2 PUSH2 0x29DC JUMP JUMPDEST PUSH1 0x1 DUP3 DUP2 AND DUP1 ISZERO PUSH2 0x25AE JUMPI PUSH1 0x1 DUP2 EQ PUSH2 0x25BF JUMPI PUSH2 0x25EB JUMP JUMPDEST PUSH1 0xFF NOT DUP5 AND DUP8 MSTORE DUP3 DUP8 ADD SWAP5 POP PUSH2 0x25EB JUMP JUMPDEST DUP8 DUP7 MSTORE PUSH1 0x20 DUP1 DUP8 KECCAK256 DUP8 JUMPDEST DUP6 DUP2 LT ISZERO PUSH2 0x25E2 JUMPI DUP2 SLOAD DUP11 DUP3 ADD MSTORE SWAP1 DUP5 ADD SWAP1 DUP3 ADD PUSH2 0x25C9 JUMP JUMPDEST POP POP POP DUP3 DUP8 ADD SWAP5 POP JUMPDEST POP SWAP3 SWAP7 SWAP6 POP POP POP POP POP POP JUMP JUMPDEST PUSH1 0x0 DUP4 MLOAD PUSH2 0x2609 DUP2 DUP5 PUSH1 0x20 DUP9 ADD PUSH2 0x29AC JUMP JUMPDEST DUP4 MLOAD SWAP1 DUP4 ADD SWAP1 PUSH2 0x261D DUP2 DUP4 PUSH1 0x20 DUP9 ADD PUSH2 0x29AC JUMP JUMPDEST ADD SWAP5 SWAP4 POP POP POP POP JUMP JUMPDEST PUSH1 0x80 DUP2 MSTORE PUSH1 0x0 PUSH2 0x2639 PUSH1 0x80 DUP4 ADD DUP8 PUSH2 0x255C JUMP JUMPDEST DUP3 DUP2 SUB PUSH1 0x20 DUP5 ADD MSTORE PUSH2 0x264B DUP2 DUP8 PUSH2 0x255C JUMP JUMPDEST SWAP1 POP DUP3 DUP2 SUB PUSH1 0x40 DUP5 ADD MSTORE PUSH2 0x265F DUP2 DUP7 PUSH2 0x255C JUMP JUMPDEST SWAP2 POP POP DUP3 ISZERO ISZERO PUSH1 0x60 DUP4 ADD MSTORE SWAP6 SWAP5 POP POP POP POP POP JUMP JUMPDEST PUSH1 0xA0 DUP2 MSTORE PUSH1 0x0 PUSH2 0x2686 PUSH1 0xA0 DUP4 ADD DUP9 PUSH2 0x255C JUMP JUMPDEST DUP3 DUP2 SUB PUSH1 0x20 DUP5 ADD MSTORE PUSH2 0x2698 DUP2 DUP9 PUSH2 0x255C JUMP JUMPDEST SWAP1 POP DUP3 DUP2 SUB PUSH1 0x40 DUP5 ADD MSTORE PUSH2 0x26AC DUP2 DUP8 PUSH2 0x255C JUMP JUMPDEST SWAP1 POP DUP3 DUP2 SUB PUSH1 0x60 DUP5 ADD MSTORE PUSH2 0x26C0 DUP2 DUP7 PUSH2 0x255C JUMP JUMPDEST SWAP2 POP POP DUP3 ISZERO ISZERO PUSH1 0x80 DUP4 ADD MSTORE SWAP7 SWAP6 POP POP POP POP POP POP JUMP JUMPDEST PUSH1 0x0 PUSH2 0x100 DUP1 DUP4 MSTORE PUSH2 0x26E9 DUP2 DUP5 ADD DUP13 PUSH2 0x255C JUMP JUMPDEST SWAP1 POP DUP3 DUP2 SUB PUSH1 0x20 DUP5 ADD MSTORE PUSH2 0x26FD DUP2 DUP12 PUSH2 0x255C JUMP JUMPDEST SWAP1 POP DUP3 DUP2 SUB PUSH1 0x40 DUP5 ADD MSTORE PUSH2 0x2711 DUP2 DUP11 PUSH2 0x255C JUMP JUMPDEST SWAP1 POP DUP3 DUP2 SUB PUSH1 0x60 DUP5 ADD MSTORE PUSH2 0x2725 DUP2 DUP10 PUSH2 0x255C JUMP JUMPDEST SWAP1 POP DUP3 DUP2 SUB PUSH1 0x80 DUP5 ADD MSTORE PUSH2 0x2739 DUP2 DUP9 PUSH2 0x255C JUMP JUMPDEST SWAP2 POP POP PUSH1 0x5 DUP6 LT PUSH2 0x274C JUMPI PUSH2 0x274C PUSH2 0x2A17 JUMP JUMPDEST DUP5 PUSH1 0xA0 DUP4 ADD MSTORE PUSH1 0x3 DUP5 LT PUSH2 0x2762 JUMPI PUSH2 0x2762 PUSH2 0x2A17 JUMP JUMPDEST DUP4 PUSH1 0xC0 DUP4 ADD MSTORE DUP3 ISZERO ISZERO PUSH1 0xE0 DUP4 ADD MSTORE SWAP10 SWAP9 POP POP POP POP POP POP POP POP POP JUMP JUMPDEST PUSH1 0xA0 DUP2 MSTORE PUSH1 0x0 PUSH2 0x2790 PUSH1 0xA0 DUP4 ADD DUP9 PUSH2 0x255C JUMP JUMPDEST DUP3 DUP2 SUB PUSH1 0x20 DUP5 ADD MSTORE PUSH2 0x27A2 DUP2 DUP9 PUSH2 0x255C JUMP JUMPDEST SWAP1 POP DUP3 DUP2 SUB PUSH1 0x40 DUP5 ADD MSTORE PUSH2 0x27B6 DUP2 DUP8 PUSH2 0x255C JUMP JUMPDEST SWAP1 POP DUP3 DUP2 SUB PUSH1 0x60 DUP5 ADD MSTORE PUSH2 0x27CA DUP2 DUP7 PUSH2 0x255C JUMP JUMPDEST SWAP2 POP POP DUP3 PUSH1 0x80 DUP4 ADD MSTORE SWAP7 SWAP6 POP POP POP POP POP POP JUMP JUMPDEST PUSH1 0x80 DUP2 MSTORE PUSH1 0x0 PUSH2 0x27F0 PUSH1 0x80 DUP4 ADD DUP8 PUSH2 0x255C JUMP JUMPDEST DUP3 DUP2 SUB PUSH1 0x20 DUP5 ADD MSTORE PUSH2 0x2802 DUP2 DUP8 PUSH2 0x255C JUMP JUMPDEST PUSH1 0x40 DUP5 ADD SWAP6 SWAP1 SWAP6 MSTORE POP POP PUSH1 0x60 ADD MSTORE SWAP3 SWAP2 POP POP JUMP JUMPDEST PUSH1 0x80 DUP2 MSTORE PUSH1 0x0 PUSH2 0x2829 PUSH1 0x80 DUP4 ADD DUP8 PUSH2 0x255C JUMP JUMPDEST PUSH1 0x20 DUP4 ADD SWAP6 SWAP1 SWAP6 MSTORE POP PUSH1 0x40 DUP2 ADD SWAP3 SWAP1 SWAP3 MSTORE PUSH1 0x60 SWAP1 SWAP2 ADD MSTORE SWAP2 SWAP1 POP JUMP JUMPDEST PUSH1 0x20 DUP1 DUP3 MSTORE PUSH1 0x23 SWAP1 DUP3 ADD MSTORE PUSH32 0x4548522D52442D30313A20446F63746F7220616C726561647920456E726F6C6C PUSH1 0x40 DUP3 ADD MSTORE PUSH3 0x32B217 PUSH1 0xE9 SHL PUSH1 0x60 DUP3 ADD MSTORE PUSH1 0x80 ADD SWAP1 JUMP JUMPDEST PUSH1 0x20 DUP1 DUP3 MSTORE PUSH1 0x16 SWAP1 DUP3 ADD MSTORE PUSH22 0x14185D1A595B9D08139BDD081C9959DA5CDD195C9959 PUSH1 0x52 SHL PUSH1 0x40 DUP3 ADD MSTORE PUSH1 0x60 ADD SWAP1 JUMP JUMPDEST PUSH1 0x20 DUP1 DUP3 MSTORE PUSH1 0x24 SWAP1 DUP3 ADD MSTORE PUSH32 0x4548522D52502D30323A2050617469656E7420616C726561647920456E726F6C PUSH1 0x40 DUP3 ADD MSTORE PUSH4 0x3632B217 PUSH1 0xE1 SHL PUSH1 0x60 DUP3 ADD MSTORE PUSH1 0x80 ADD SWAP1 JUMP JUMPDEST PUSH1 0x20 DUP1 DUP3 MSTORE PUSH1 0x23 SWAP1 DUP3 ADD MSTORE PUSH32 0x4548522D52442D30323A20446F63746F7220616C726561647920456E726F6C6C PUSH1 0x40 DUP3 ADD MSTORE PUSH3 0x32B217 PUSH1 0xE9 SHL PUSH1 0x60 DUP3 ADD MSTORE PUSH1 0x80 ADD SWAP1 JUMP JUMPDEST PUSH1 0x20 DUP1 DUP3 MSTORE PUSH1 0x24 SWAP1 DUP3 ADD MSTORE PUSH32 0x4548522D52502D30313A2050617469656E7420616C726561647920456E726F6C PUSH1 0x40 DUP3 ADD MSTORE PUSH4 0x3632B217 PUSH1 0xE1 SHL PUSH1 0x60 DUP3 ADD MSTORE PUSH1 0x80 ADD SWAP1 JUMP JUMPDEST DUP4 DUP2 MSTORE PUSH1 0x60 PUSH1 0x20 DUP3 ADD MSTORE PUSH1 0x0 PUSH2 0x299C PUSH1 0x60 DUP4 ADD DUP6 PUSH2 0x255C JUMP JUMPDEST SWAP1 POP DUP3 PUSH1 0x40 DUP4 ADD MSTORE SWAP5 SWAP4 POP POP POP POP JUMP JUMPDEST PUSH1 0x0 JUMPDEST DUP4 DUP2 LT ISZERO PUSH2 0x29C7 JUMPI DUP2 DUP2 ADD MLOAD DUP4 DUP3 ADD MSTORE PUSH1 0x20 ADD PUSH2 0x29AF JUMP JUMPDEST DUP4 DUP2 GT ISZERO PUSH2 0x29D6 JUMPI PUSH1 0x0 DUP5 DUP5 ADD MSTORE JUMPDEST POP POP POP POP JUMP JUMPDEST PUSH1 0x1 DUP2 DUP2 SHR SWAP1 DUP3 AND DUP1 PUSH2 0x29F0 JUMPI PUSH1 0x7F DUP3 AND SWAP2 POP JUMPDEST PUSH1 0x20 DUP3 LT DUP2 EQ ISZERO PUSH2 0x2A11 JUMPI PUSH4 0x4E487B71 PUSH1 0xE0 SHL PUSH1 0x0 MSTORE PUSH1 0x22 PUSH1 0x4 MSTORE PUSH1 0x24 PUSH1 0x0 REVERT JUMPDEST POP SWAP2 SWAP1 POP JUMP JUMPDEST PUSH4 0x4E487B71 PUSH1 0xE0 SHL PUSH1 0x0 MSTORE PUSH1 0x21 PUSH1 0x4 MSTORE PUSH1 0x24 PUSH1 0x0 REVERT JUMPDEST PUSH4 0x4E487B71 PUSH1 0xE0 SHL PUSH1 0x0 MSTORE PUSH1 0x41 PUSH1 0x4 MSTORE PUSH1 0x24 PUSH1 0x0 REVERT JUMPDEST PUSH1 0x2 DUP2 LT PUSH2 0x2A50 JUMPI PUSH1 0x0 DUP1 REVERT JUMPDEST POP JUMP INVALID LT COINBASE SUB PUSH30 0x4B3EE5730FCE647EBD981CD0FD8864F61CD34868EF88A3FA6AF64721A264 PUSH10 0x706673582212208377C8 CODESIZE DUP2 0xBE 0xAD ADDRESS AND 0xEF SUB 0x4D 0xE9 0xA8 0xE ADD 0x5F 0xAB 0xEE PUSH7 0xA10BE7C1EFDB36 0xD 0xB4 0xB3 DUP6 BYTE PUSH5 0x736F6C6343 STOP ADDMOD DIV STOP CALLER "
				},
				"gasEstimates": {
					"creation": {
						"codeDepositCost": "2184200",
						"executionCost": "infinite",
						"totalCost": "infinite"
					},
					"external": {
						"accessControl(uint256,uint256,uint8)": "infinite",
						"accessForDoctor(uint256,uint256)": "1268",
						"careGiverData(uint256,uint256)": "infinite",
						"doctorAccess(uint256)": "infinite",
						"owner()": "1104",
						"patientAccess(uint256)": "infinite",
						"patientLocData(uint256)": "infinite",
						"patienthealthData(uint256)": "infinite",
						"patientrecordsData(uint256,string)": "infinite",
						"recordByDoctor(uint256,uint256,uint256,uint256)": "infinite",
						"recordByPatient(uint256,uint256,uint256)": "infinite",
						"registerCareGiver(uint256,uint256,string,string,string)": "infinite",
						"registerDoctor(string,string,string,string,string,uint8,uint8,uint8)": "infinite",
						"registerPatientHealth(string,string,uint256,uint256,uint256)": "infinite",
						"registerPatientLoc(string,string,string,string,uint256,uint256)": "infinite",
						"registerPatients(string,string,string,string,uint8)": "infinite",
						"updateCareGiver(uint256,uint256,string,string,string)": "infinite"
					}
				},
				"methodIdentifiers": {
					"accessControl(uint256,uint256,uint8)": "a269b418",
					"accessForDoctor(uint256,uint256)": "4fcd407a",
					"careGiverData(uint256,uint256)": "cbd46fa3",
					"doctorAccess(uint256)": "0a77f6b0",
					"owner()": "8da5cb5b",
					"patientAccess(uint256)": "2990bc6f",
					"patientLocData(uint256)": "f75be4eb",
					"patienthealthData(uint256)": "c977baf3",
					"patientrecordsData(uint256,string)": "14bb57fd",
					"recordByDoctor(uint256,uint256,uint256,uint256)": "764b6b38",
					"recordByPatient(uint256,uint256,uint256)": "021bf487",
					"registerCareGiver(uint256,uint256,string,string,string)": "8f58f628",
					"registerDoctor(string,string,string,string,string,uint8,uint8,uint8)": "db3e3976",
					"registerPatientHealth(string,string,uint256,uint256,uint256)": "d7349705",
					"registerPatientLoc(string,string,string,string,uint256,uint256)": "e078a1c6",
					"registerPatients(string,string,string,string,uint8)": "edef7049",
					"updateCareGiver(uint256,uint256,string,string,string)": "f6c6e3d0"
				}
			},
			"storageLayout": {
				"storage": [
					{
						"astId": 318,
						"contract": "test.sol:EHR",
						"label": "ens",
						"offset": 0,
						"slot": "0",
						"type": "t_contract(ENSInterface)879"
					},
					{
						"astId": 320,
						"contract": "test.sol:EHR",
						"label": "ensNode",
						"offset": 0,
						"slot": "1",
						"type": "t_bytes32"
					},
					{
						"astId": 323,
						"contract": "test.sol:EHR",
						"label": "pli",
						"offset": 0,
						"slot": "2",
						"type": "t_contract(PliTokenInterface)1095"
					},
					{
						"astId": 326,
						"contract": "test.sol:EHR",
						"label": "oracle",
						"offset": 0,
						"slot": "3",
						"type": "t_contract(OperatorInterface)961"
					},
					{
						"astId": 329,
						"contract": "test.sol:EHR",
						"label": "requestCount",
						"offset": 0,
						"slot": "4",
						"type": "t_uint256"
					},
					{
						"astId": 333,
						"contract": "test.sol:EHR",
						"label": "pendingRequests",
						"offset": 0,
						"slot": "5",
						"type": "t_mapping(t_bytes32,t_address)"
					},
					{
						"astId": 2196,
						"contract": "test.sol:EHR",
						"label": "owner",
						"offset": 0,
						"slot": "6",
						"type": "t_address"
					},
					{
						"astId": 2275,
						"contract": "test.sol:EHR",
						"label": "patientAccess",
						"offset": 0,
						"slot": "7",
						"type": "t_mapping(t_uint256,t_struct(patientEnroll)2153_storage)"
					},
					{
						"astId": 2280,
						"contract": "test.sol:EHR",
						"label": "doctorAccess",
						"offset": 0,
						"slot": "8",
						"type": "t_mapping(t_uint256,t_struct(doctorEnroll)2123_storage)"
					},
					{
						"astId": 2285,
						"contract": "test.sol:EHR",
						"label": "patientLocData",
						"offset": 0,
						"slot": "9",
						"type": "t_mapping(t_uint256,t_struct(patientGeo)2164_storage)"
					},
					{
						"astId": 2290,
						"contract": "test.sol:EHR",
						"label": "patienthealthData",
						"offset": 0,
						"slot": "10",
						"type": "t_mapping(t_uint256,t_struct(patienthealth)2173_storage)"
					},
					{
						"astId": 2296,
						"contract": "test.sol:EHR",
						"label": "patientrecordsData",
						"offset": 0,
						"slot": "11",
						"type": "t_mapping(t_uint256,t_mapping(t_string_memory_ptr,t_uint256))"
					},
					{
						"astId": 2303,
						"contract": "test.sol:EHR",
						"label": "careGiverData",
						"offset": 0,
						"slot": "12",
						"type": "t_mapping(t_uint256,t_mapping(t_uint256,t_struct(careGiver)2220_storage))"
					},
					{
						"astId": 2309,
						"contract": "test.sol:EHR",
						"label": "accessForDoctor",
						"offset": 0,
						"slot": "13",
						"type": "t_mapping(t_uint256,t_mapping(t_uint256,t_bool))"
					},
					{
						"astId": 2318,
						"contract": "test.sol:EHR",
						"label": "RecordType",
						"offset": 0,
						"slot": "14",
						"type": "t_array(t_string_storage)dyn_storage"
					},
					{
						"astId": 2321,
						"contract": "test.sol:EHR",
						"label": "index",
						"offset": 0,
						"slot": "15",
						"type": "t_array(t_uint256)dyn_storage"
					}
				],
				"types": {
					"t_address": {
						"encoding": "inplace",
						"label": "address",
						"numberOfBytes": "20"
					},
					"t_array(t_string_storage)dyn_storage": {
						"base": "t_string_storage",
						"encoding": "dynamic_array",
						"label": "string[]",
						"numberOfBytes": "32"
					},
					"t_array(t_uint256)dyn_storage": {
						"base": "t_uint256",
						"encoding": "dynamic_array",
						"label": "uint256[]",
						"numberOfBytes": "32"
					},
					"t_bool": {
						"encoding": "inplace",
						"label": "bool",
						"numberOfBytes": "1"
					},
					"t_bytes32": {
						"encoding": "inplace",
						"label": "bytes32",
						"numberOfBytes": "32"
					},
					"t_contract(ENSInterface)879": {
						"encoding": "inplace",
						"label": "contract ENSInterface",
						"numberOfBytes": "20"
					},
					"t_contract(OperatorInterface)961": {
						"encoding": "inplace",
						"label": "contract OperatorInterface",
						"numberOfBytes": "20"
					},
					"t_contract(PliTokenInterface)1095": {
						"encoding": "inplace",
						"label": "contract PliTokenInterface",
						"numberOfBytes": "20"
					},
					"t_enum(DoctorType)2104": {
						"encoding": "inplace",
						"label": "enum DoctorInterface.DoctorType",
						"numberOfBytes": "1"
					},
					"t_enum(Sex)2133": {
						"encoding": "inplace",
						"label": "enum GenericInterface.Sex",
						"numberOfBytes": "1"
					},
					"t_mapping(t_bytes32,t_address)": {
						"encoding": "mapping",
						"key": "t_bytes32",
						"label": "mapping(bytes32 => address)",
						"numberOfBytes": "32",
						"value": "t_address"
					},
					"t_mapping(t_string_memory_ptr,t_uint256)": {
						"encoding": "mapping",
						"key": "t_string_memory_ptr",
						"label": "mapping(string => uint256)",
						"numberOfBytes": "32",
						"value": "t_uint256"
					},
					"t_mapping(t_uint256,t_bool)": {
						"encoding": "mapping",
						"key": "t_uint256",
						"label": "mapping(uint256 => bool)",
						"numberOfBytes": "32",
						"value": "t_bool"
					},
					"t_mapping(t_uint256,t_mapping(t_string_memory_ptr,t_uint256))": {
						"encoding": "mapping",
						"key": "t_uint256",
						"label": "mapping(uint256 => mapping(string => uint256))",
						"numberOfBytes": "32",
						"value": "t_mapping(t_string_memory_ptr,t_uint256)"
					},
					"t_mapping(t_uint256,t_mapping(t_uint256,t_bool))": {
						"encoding": "mapping",
						"key": "t_uint256",
						"label": "mapping(uint256 => mapping(uint256 => bool))",
						"numberOfBytes": "32",
						"value": "t_mapping(t_uint256,t_bool)"
					},
					"t_mapping(t_uint256,t_mapping(t_uint256,t_struct(careGiver)2220_storage))": {
						"encoding": "mapping",
						"key": "t_uint256",
						"label": "mapping(uint256 => mapping(uint256 => struct EHR.careGiver))",
						"numberOfBytes": "32",
						"value": "t_mapping(t_uint256,t_struct(careGiver)2220_storage)"
					},
					"t_mapping(t_uint256,t_struct(careGiver)2220_storage)": {
						"encoding": "mapping",
						"key": "t_uint256",
						"label": "mapping(uint256 => struct EHR.careGiver)",
						"numberOfBytes": "32",
						"value": "t_struct(careGiver)2220_storage"
					},
					"t_mapping(t_uint256,t_struct(doctorEnroll)2123_storage)": {
						"encoding": "mapping",
						"key": "t_uint256",
						"label": "mapping(uint256 => struct DoctorInterface.doctorEnroll)",
						"numberOfBytes": "32",
						"value": "t_struct(doctorEnroll)2123_storage"
					},
					"t_mapping(t_uint256,t_struct(patientEnroll)2153_storage)": {
						"encoding": "mapping",
						"key": "t_uint256",
						"label": "mapping(uint256 => struct PatientInterface.patientEnroll)",
						"numberOfBytes": "32",
						"value": "t_struct(patientEnroll)2153_storage"
					},
					"t_mapping(t_uint256,t_struct(patientGeo)2164_storage)": {
						"encoding": "mapping",
						"key": "t_uint256",
						"label": "mapping(uint256 => struct PatientInterface.patientGeo)",
						"numberOfBytes": "32",
						"value": "t_struct(patientGeo)2164_storage"
					},
					"t_mapping(t_uint256,t_struct(patienthealth)2173_storage)": {
						"encoding": "mapping",
						"key": "t_uint256",
						"label": "mapping(uint256 => struct PatientInterface.patienthealth)",
						"numberOfBytes": "32",
						"value": "t_struct(patienthealth)2173_storage"
					},
					"t_string_memory_ptr": {
						"encoding": "bytes",
						"label": "string",
						"numberOfBytes": "32"
					},
					"t_string_storage": {
						"encoding": "bytes",
						"label": "string",
						"numberOfBytes": "32"
					},
					"t_struct(careGiver)2220_storage": {
						"encoding": "inplace",
						"label": "struct EHR.careGiver",
						"members": [
							{
								"astId": 2213,
								"contract": "test.sol:EHR",
								"label": "careName",
								"offset": 0,
								"slot": "0",
								"type": "t_string_storage"
							},
							{
								"astId": 2215,
								"contract": "test.sol:EHR",
								"label": "careMobile",
								"offset": 0,
								"slot": "1",
								"type": "t_string_storage"
							},
							{
								"astId": 2217,
								"contract": "test.sol:EHR",
								"label": "careRelation",
								"offset": 0,
								"slot": "2",
								"type": "t_string_storage"
							},
							{
								"astId": 2219,
								"contract": "test.sol:EHR",
								"label": "isExist",
								"offset": 0,
								"slot": "3",
								"type": "t_bool"
							}
						],
						"numberOfBytes": "128"
					},
					"t_struct(doctorEnroll)2123_storage": {
						"encoding": "inplace",
						"label": "struct DoctorInterface.doctorEnroll",
						"members": [
							{
								"astId": 2106,
								"contract": "test.sol:EHR",
								"label": "doctorName",
								"offset": 0,
								"slot": "0",
								"type": "t_string_storage"
							},
							{
								"astId": 2108,
								"contract": "test.sol:EHR",
								"label": "doctorEmail",
								"offset": 0,
								"slot": "1",
								"type": "t_string_storage"
							},
							{
								"astId": 2110,
								"contract": "test.sol:EHR",
								"label": "doctorMobile",
								"offset": 0,
								"slot": "2",
								"type": "t_string_storage"
							},
							{
								"astId": 2112,
								"contract": "test.sol:EHR",
								"label": "doctorPass",
								"offset": 0,
								"slot": "3",
								"type": "t_string_storage"
							},
							{
								"astId": 2114,
								"contract": "test.sol:EHR",
								"label": "doctorCred",
								"offset": 0,
								"slot": "4",
								"type": "t_string_storage"
							},
							{
								"astId": 2117,
								"contract": "test.sol:EHR",
								"label": "docType",
								"offset": 0,
								"slot": "5",
								"type": "t_enum(DoctorType)2104"
							},
							{
								"astId": 2120,
								"contract": "test.sol:EHR",
								"label": "docSex",
								"offset": 1,
								"slot": "5",
								"type": "t_enum(Sex)2133"
							},
							{
								"astId": 2122,
								"contract": "test.sol:EHR",
								"label": "isExist",
								"offset": 2,
								"slot": "5",
								"type": "t_bool"
							}
						],
						"numberOfBytes": "192"
					},
					"t_struct(patientEnroll)2153_storage": {
						"encoding": "inplace",
						"label": "struct PatientInterface.patientEnroll",
						"members": [
							{
								"astId": 2144,
								"contract": "test.sol:EHR",
								"label": "patientName",
								"offset": 0,
								"slot": "0",
								"type": "t_string_storage"
							},
							{
								"astId": 2146,
								"contract": "test.sol:EHR",
								"label": "patientEmail",
								"offset": 0,
								"slot": "1",
								"type": "t_string_storage"
							},
							{
								"astId": 2148,
								"contract": "test.sol:EHR",
								"label": "patientMobile",
								"offset": 0,
								"slot": "2",
								"type": "t_string_storage"
							},
							{
								"astId": 2150,
								"contract": "test.sol:EHR",
								"label": "patientPass",
								"offset": 0,
								"slot": "3",
								"type": "t_string_storage"
							},
							{
								"astId": 2152,
								"contract": "test.sol:EHR",
								"label": "isExist",
								"offset": 0,
								"slot": "4",
								"type": "t_bool"
							}
						],
						"numberOfBytes": "160"
					},
					"t_struct(patientGeo)2164_storage": {
						"encoding": "inplace",
						"label": "struct PatientInterface.patientGeo",
						"members": [
							{
								"astId": 2155,
								"contract": "test.sol:EHR",
								"label": "city",
								"offset": 0,
								"slot": "0",
								"type": "t_string_storage"
							},
							{
								"astId": 2157,
								"contract": "test.sol:EHR",
								"label": "state",
								"offset": 0,
								"slot": "1",
								"type": "t_string_storage"
							},
							{
								"astId": 2159,
								"contract": "test.sol:EHR",
								"label": "country",
								"offset": 0,
								"slot": "2",
								"type": "t_string_storage"
							},
							{
								"astId": 2161,
								"contract": "test.sol:EHR",
								"label": "landmark",
								"offset": 0,
								"slot": "3",
								"type": "t_string_storage"
							},
							{
								"astId": 2163,
								"contract": "test.sol:EHR",
								"label": "pincode",
								"offset": 0,
								"slot": "4",
								"type": "t_uint256"
							}
						],
						"numberOfBytes": "160"
					},
					"t_struct(patienthealth)2173_storage": {
						"encoding": "inplace",
						"label": "struct PatientInterface.patienthealth",
						"members": [
							{
								"astId": 2166,
								"contract": "test.sol:EHR",
								"label": "allergies",
								"offset": 0,
								"slot": "0",
								"type": "t_string_storage"
							},
							{
								"astId": 2168,
								"contract": "test.sol:EHR",
								"label": "lifesaver",
								"offset": 0,
								"slot": "1",
								"type": "t_string_storage"
							},
							{
								"astId": 2170,
								"contract": "test.sol:EHR",
								"label": "height",
								"offset": 0,
								"slot": "2",
								"type": "t_uint256"
							},
							{
								"astId": 2172,
								"contract": "test.sol:EHR",
								"label": "weight",
								"offset": 0,
								"slot": "3",
								"type": "t_uint256"
							}
						],
						"numberOfBytes": "128"
					},
					"t_uint256": {
						"encoding": "inplace",
						"label": "uint256",
						"numberOfBytes": "32"
					}
				}
			},
			"userdoc": {
				"kind": "user",
				"methods": {},
				"version": 1
			}
		}
	}
}