{
	"test.sol": {
		"test": {
			"abi": [
				{
					"anonymous": false,
					"inputs": [
						{
							"indexed": false,
							"internalType": "string",
							"name": "comment",
							"type": "string"
						},
						{
							"indexed": false,
							"internalType": "uint256",
							"name": "patKey",
							"type": "uint256"
						},
						{
							"indexed": false,
							"internalType": "uint256",
							"name": "docKey",
							"type": "uint256"
						},
						{
							"indexed": false,
							"internalType": "uint256",
							"name": "registeredOn",
							"type": "uint256"
						}
					],
					"name": "RecordEvents",
					"type": "event"
				},
				{
					"anonymous": false,
					"inputs": [
						{
							"indexed": false,
							"internalType": "uint256",
							"name": "patientKey",
							"type": "uint256"
						},
						{
							"indexed": false,
							"internalType": "string",
							"name": "evenType",
							"type": "string"
						},
						{
							"indexed": false,
							"internalType": "uint256",
							"name": "registeredOn",
							"type": "uint256"
						}
					],
					"name": "patregistration",
					"type": "event"
				},
				{
					"inputs": [
						{
							"internalType": "uint256",
							"name": "_patKey",
							"type": "uint256"
						},
						{
							"internalType": "uint256",
							"name": "_docKey",
							"type": "uint256"
						},
						{
							"internalType": "enum test.access",
							"name": "ac",
							"type": "uint8"
						}
					],
					"name": "accessControl",
					"outputs": [],
					"stateMutability": "nonpayable",
					"type": "function"
				},
				{
					"inputs": [
						{
							"internalType": "uint256",
							"name": "",
							"type": "uint256"
						},
						{
							"internalType": "uint256",
							"name": "",
							"type": "uint256"
						}
					],
					"name": "accessForDoctor",
					"outputs": [
						{
							"internalType": "bool",
							"name": "",
							"type": "bool"
						}
					],
					"stateMutability": "view",
					"type": "function"
				},
				{
					"inputs": [
						{
							"internalType": "uint256",
							"name": "",
							"type": "uint256"
						},
						{
							"internalType": "uint256",
							"name": "",
							"type": "uint256"
						}
					],
					"name": "careGiverData",
					"outputs": [
						{
							"internalType": "string",
							"name": "careName",
							"type": "string"
						},
						{
							"internalType": "string",
							"name": "careMobile",
							"type": "string"
						},
						{
							"internalType": "string",
							"name": "careRelation",
							"type": "string"
						},
						{
							"internalType": "bool",
							"name": "isExist",
							"type": "bool"
						}
					],
					"stateMutability": "view",
					"type": "function"
				},
				{
					"inputs": [
						{
							"internalType": "uint256",
							"name": "",
							"type": "uint256"
						}
					],
					"name": "doctorAccess",
					"outputs": [
						{
							"internalType": "string",
							"name": "doctorName",
							"type": "string"
						},
						{
							"internalType": "string",
							"name": "doctorEmail",
							"type": "string"
						},
						{
							"internalType": "string",
							"name": "doctorMobile",
							"type": "string"
						},
						{
							"internalType": "string",
							"name": "doctorPass",
							"type": "string"
						},
						{
							"internalType": "string",
							"name": "doctorCred",
							"type": "string"
						},
						{
							"internalType": "enum test.DoctorType",
							"name": "docType",
							"type": "uint8"
						},
						{
							"internalType": "enum test.Sex",
							"name": "docSex",
							"type": "uint8"
						},
						{
							"internalType": "bool",
							"name": "isExist",
							"type": "bool"
						}
					],
					"stateMutability": "view",
					"type": "function"
				},
				{
					"inputs": [
						{
							"internalType": "uint256",
							"name": "",
							"type": "uint256"
						}
					],
					"name": "patientAccess",
					"outputs": [
						{
							"internalType": "string",
							"name": "patientName",
							"type": "string"
						},
						{
							"internalType": "string",
							"name": "patientEmail",
							"type": "string"
						},
						{
							"internalType": "string",
							"name": "patientMobile",
							"type": "string"
						},
						{
							"internalType": "string",
							"name": "patientPass",
							"type": "string"
						},
						{
							"internalType": "bool",
							"name": "isExist",
							"type": "bool"
						}
					],
					"stateMutability": "view",
					"type": "function"
				},
				{
					"inputs": [
						{
							"internalType": "uint256",
							"name": "",
							"type": "uint256"
						}
					],
					"name": "patientLocData",
					"outputs": [
						{
							"internalType": "string",
							"name": "city",
							"type": "string"
						},
						{
							"internalType": "string",
							"name": "state",
							"type": "string"
						},
						{
							"internalType": "string",
							"name": "country",
							"type": "string"
						},
						{
							"internalType": "string",
							"name": "landmark",
							"type": "string"
						},
						{
							"internalType": "uint256",
							"name": "pincode",
							"type": "uint256"
						}
					],
					"stateMutability": "view",
					"type": "function"
				},
				{
					"inputs": [
						{
							"internalType": "uint256",
							"name": "",
							"type": "uint256"
						}
					],
					"name": "patienthealthData",
					"outputs": [
						{
							"internalType": "string",
							"name": "allergies",
							"type": "string"
						},
						{
							"internalType": "string",
							"name": "lifesaver",
							"type": "string"
						},
						{
							"internalType": "uint256",
							"name": "height",
							"type": "uint256"
						},
						{
							"internalType": "uint256",
							"name": "weight",
							"type": "uint256"
						}
					],
					"stateMutability": "view",
					"type": "function"
				},
				{
					"inputs": [
						{
							"internalType": "uint256",
							"name": "",
							"type": "uint256"
						},
						{
							"internalType": "uint256",
							"name": "",
							"type": "uint256"
						}
					],
					"name": "patientrecordsData",
					"outputs": [
						{
							"internalType": "uint256",
							"name": "",
							"type": "uint256"
						}
					],
					"stateMutability": "view",
					"type": "function"
				},
				{
					"inputs": [
						{
							"internalType": "uint256",
							"name": "patKey",
							"type": "uint256"
						},
						{
							"internalType": "uint256",
							"name": "docKey",
							"type": "uint256"
						},
						{
							"internalType": "uint256",
							"name": "rt",
							"type": "uint256"
						},
						{
							"internalType": "uint256",
							"name": "recordHash",
							"type": "uint256"
						}
					],
					"name": "recordByDoctor",
					"outputs": [],
					"stateMutability": "nonpayable",
					"type": "function"
				},
				{
					"inputs": [
						{
							"internalType": "uint256",
							"name": "patKey",
							"type": "uint256"
						},
						{
							"internalType": "uint256",
							"name": "rt",
							"type": "uint256"
						},
						{
							"internalType": "uint256",
							"name": "recordHash",
							"type": "uint256"
						}
					],
					"name": "recordByPatient",
					"outputs": [],
					"stateMutability": "nonpayable",
					"type": "function"
				},
				{
					"inputs": [
						{
							"internalType": "uint256",
							"name": "patKey",
							"type": "uint256"
						},
						{
							"internalType": "uint256",
							"name": "position",
							"type": "uint256"
						},
						{
							"internalType": "string",
							"name": "careName",
							"type": "string"
						},
						{
							"internalType": "string",
							"name": "careMobile",
							"type": "string"
						},
						{
							"internalType": "string",
							"name": "careRelation",
							"type": "string"
						}
					],
					"name": "registerCareGiver",
					"outputs": [],
					"stateMutability": "nonpayable",
					"type": "function"
				},
				{
					"inputs": [
						{
							"internalType": "string",
							"name": "doctorName",
							"type": "string"
						},
						{
							"internalType": "string",
							"name": "doctorEmail",
							"type": "string"
						},
						{
							"internalType": "string",
							"name": "doctorMobile",
							"type": "string"
						},
						{
							"internalType": "string",
							"name": "doctorPass",
							"type": "string"
						},
						{
							"internalType": "string",
							"name": "doctorCred",
							"type": "string"
						},
						{
							"internalType": "enum test.DoctorType",
							"name": "_doctorType",
							"type": "uint8"
						},
						{
							"internalType": "enum test.Sex",
							"name": "_gender",
							"type": "uint8"
						},
						{
							"internalType": "enum test.stateChange",
							"name": "reup",
							"type": "uint8"
						}
					],
					"name": "registerDoctor",
					"outputs": [],
					"stateMutability": "nonpayable",
					"type": "function"
				},
				{
					"inputs": [
						{
							"internalType": "string",
							"name": "allergies",
							"type": "string"
						},
						{
							"internalType": "string",
							"name": "lifesaver",
							"type": "string"
						},
						{
							"internalType": "uint256",
							"name": "height",
							"type": "uint256"
						},
						{
							"internalType": "uint256",
							"name": "weight",
							"type": "uint256"
						},
						{
							"internalType": "uint256",
							"name": "patKey",
							"type": "uint256"
						}
					],
					"name": "registerPatientHealth",
					"outputs": [],
					"stateMutability": "nonpayable",
					"type": "function"
				},
				{
					"inputs": [
						{
							"internalType": "string",
							"name": "city",
							"type": "string"
						},
						{
							"internalType": "string",
							"name": "state",
							"type": "string"
						},
						{
							"internalType": "string",
							"name": "country",
							"type": "string"
						},
						{
							"internalType": "string",
							"name": "landmark",
							"type": "string"
						},
						{
							"internalType": "uint256",
							"name": "pincode",
							"type": "uint256"
						},
						{
							"internalType": "uint256",
							"name": "patKey",
							"type": "uint256"
						}
					],
					"name": "registerPatientLoc",
					"outputs": [],
					"stateMutability": "nonpayable",
					"type": "function"
				},
				{
					"inputs": [
						{
							"internalType": "string",
							"name": "patientName",
							"type": "string"
						},
						{
							"internalType": "string",
							"name": "patientEmail",
							"type": "string"
						},
						{
							"internalType": "string",
							"name": "patientMobile",
							"type": "string"
						},
						{
							"internalType": "string",
							"name": "patientPass",
							"type": "string"
						},
						{
							"internalType": "enum test.stateChange",
							"name": "reup",
							"type": "uint8"
						}
					],
					"name": "registerPatients",
					"outputs": [],
					"stateMutability": "nonpayable",
					"type": "function"
				},
				{
					"inputs": [
						{
							"internalType": "uint256",
							"name": "patKey",
							"type": "uint256"
						},
						{
							"internalType": "string",
							"name": "careName",
							"type": "string"
						},
						{
							"internalType": "string",
							"name": "careMobile",
							"type": "string"
						},
						{
							"internalType": "string",
							"name": "careRelation",
							"type": "string"
						}
					],
					"name": "updateCareGiver",
					"outputs": [],
					"stateMutability": "nonpayable",
					"type": "function"
				}
			],
			"devdoc": {
				"kind": "dev",
				"methods": {},
				"version": 1
			},
			"evm": {
				"assembly": "    /* \"test.sol\":6454:6476  uint[] index = [1,2,3] */\n  0xe0\n    /* \"test.sol\":114:9325  contract test{... */\n  0x40\n    /* \"test.sol\":6454:6476  uint[] index = [1,2,3] */\n  mstore\n    /* \"test.sol\":6470:6471  1 */\n  0x01\n    /* \"test.sol\":114:9325  contract test{... */\n  0x80\n    /* \"test.sol\":6454:6476  uint[] index = [1,2,3] */\n  swap1\n  dup2\n  mstore\n    /* \"test.sol\":6472:6473  2 */\n  0x02\n    /* \"test.sol\":6454:6476  uint[] index = [1,2,3] */\n  0xa0\n  mstore\n    /* \"test.sol\":6474:6475  3 */\n  0x03\n    /* \"test.sol\":6454:6476  uint[] index = [1,2,3] */\n  0xc0\n  dup2\n  swap1\n  mstore\n  tag_1\n  swap2\n  0x07\n  swap2\n  tag_2\n  jump\t// in\ntag_1:\n  pop\n    /* \"test.sol\":114:9325  contract test{... */\n  callvalue\n  dup1\n  iszero\n  tag_3\n  jumpi\n  0x00\n  dup1\n  revert\ntag_3:\n  pop\n  jump(tag_4)\ntag_2:\n  dup3\n  dup1\n  sload\n  dup3\n  dup3\n  sstore\n  swap1\n  0x00\n  mstore\n  keccak256(0x00, 0x20)\n  swap1\n  dup2\n  add\n  swap3\n  dup3\n  iszero\n  tag_7\n  jumpi\n  swap2\n  0x20\n  mul\n  dup3\n  add\ntag_6:\n  dup3\n  dup2\n  gt\n  iszero\n  tag_7\n  jumpi\n  dup3\n  mload\n  dup3\n  swap1\n  0xff\n  and\n  swap1\n  sstore\n  swap2\n  0x20\n  add\n  swap2\n  swap1\n  0x01\n  add\n  swap1\n  jump(tag_6)\ntag_7:\n  pop\n  tag_8\n  swap3\n  swap2\n  pop\n  tag_9\n  jump\t// in\ntag_8:\n  pop\n  swap1\n  jump\t// out\ntag_9:\ntag_10:\n  dup1\n  dup3\n  gt\n  iszero\n  tag_8\n  jumpi\n  0x00\n  dup2\n  sstore\n  0x01\n  add\n  jump(tag_10)\ntag_4:\n  dataSize(sub_0)\n  dup1\n  dataOffset(sub_0)\n  0x00\n  codecopy\n  0x00\n  return\nstop\n\nsub_0: assembly {\n        /* \"test.sol\":114:9325  contract test{... */\n      mstore(0x40, 0x80)\n      callvalue\n      dup1\n      iszero\n      tag_1\n      jumpi\n      0x00\n      dup1\n      revert\n    tag_1:\n      pop\n      jumpi(tag_2, lt(calldatasize, 0x04))\n      shr(0xe0, calldataload(0x00))\n      dup1\n      0xc977baf3\n      gt\n      tag_19\n      jumpi\n      dup1\n      0xe078a1c6\n      gt\n      tag_20\n      jumpi\n      dup1\n      0xe078a1c6\n      eq\n      tag_15\n      jumpi\n      dup1\n      0xedef7049\n      eq\n      tag_16\n      jumpi\n      dup1\n      0xf60b48cb\n      eq\n      tag_17\n      jumpi\n      dup1\n      0xf75be4eb\n      eq\n      tag_18\n      jumpi\n      0x00\n      dup1\n      revert\n    tag_20:\n      dup1\n      0xc977baf3\n      eq\n      tag_11\n      jumpi\n      dup1\n      0xcbd46fa3\n      eq\n      tag_12\n      jumpi\n      dup1\n      0xd7349705\n      eq\n      tag_13\n      jumpi\n      dup1\n      0xdb3e3976\n      eq\n      tag_14\n      jumpi\n      0x00\n      dup1\n      revert\n    tag_19:\n      dup1\n      0x4fcd407a\n      gt\n      tag_21\n      jumpi\n      dup1\n      0x4fcd407a\n      eq\n      tag_7\n      jumpi\n      dup1\n      0x764b6b38\n      eq\n      tag_8\n      jumpi\n      dup1\n      0x8f58f628\n      eq\n      tag_9\n      jumpi\n      dup1\n      0xa269b418\n      eq\n      tag_10\n      jumpi\n      0x00\n      dup1\n      revert\n    tag_21:\n      dup1\n      0x021bf487\n      eq\n      tag_3\n      jumpi\n      dup1\n      0x0a77f6b0\n      eq\n      tag_4\n      jumpi\n      dup1\n      0x2990bc6f\n      eq\n      tag_5\n      jumpi\n      dup1\n      0x2ee8e639\n      eq\n      tag_6\n      jumpi\n    tag_2:\n      0x00\n      dup1\n      revert\n        /* \"test.sol\":7640:7829  function recordByPatient(... */\n    tag_3:\n      tag_22\n      tag_23\n      calldatasize\n      0x04\n      tag_24\n      jump\t// in\n    tag_23:\n      tag_25\n      jump\t// in\n    tag_22:\n      stop\n        /* \"test.sol\":1907:1956  mapping(uint => doctorEnroll) public doctorAccess */\n    tag_4:\n      tag_26\n      tag_27\n      calldatasize\n      0x04\n      tag_28\n      jump\t// in\n    tag_27:\n      tag_29\n      jump\t// in\n    tag_26:\n      mload(0x40)\n      tag_30\n      swap9\n      swap8\n      swap7\n      swap6\n      swap5\n      swap4\n      swap3\n      swap2\n      swap1\n      tag_31\n      jump\t// in\n    tag_30:\n      mload(0x40)\n      dup1\n      swap2\n      sub\n      swap1\n      return\n        /* \"test.sol\":1854:1905  mapping(uint => patientEnroll) public patientAccess */\n    tag_5:\n      tag_32\n      tag_33\n      calldatasize\n      0x04\n      tag_28\n      jump\t// in\n    tag_33:\n      tag_34\n      jump\t// in\n    tag_32:\n      mload(0x40)\n      tag_30\n      swap6\n      swap5\n      swap4\n      swap3\n      swap2\n      swap1\n      tag_36\n      jump\t// in\n        /* \"test.sol\":7078:7634  function updateCareGiver(... */\n    tag_6:\n      tag_22\n      tag_38\n      calldatasize\n      0x04\n      tag_39\n      jump\t// in\n    tag_38:\n      tag_40\n      jump\t// in\n        /* \"test.sol\":2198:2259  mapping(uint => mapping(uint => bool)) public accessForDoctor */\n    tag_7:\n      tag_41\n      tag_42\n      calldatasize\n      0x04\n      tag_43\n      jump\t// in\n    tag_42:\n      0x06\n      0x20\n      swap1\n      dup2\n      mstore\n      0x00\n      swap3\n      dup4\n      mstore\n      0x40\n      dup1\n      dup5\n      keccak256\n      swap1\n      swap2\n      mstore\n      swap1\n      dup3\n      mstore\n      swap1\n      keccak256\n      sload\n      0xff\n      and\n      dup2\n      jump\n    tag_41:\n      mload(0x40)\n        /* \"#utility.yul\":11162:11176   */\n      swap1\n      iszero\n        /* \"#utility.yul\":11155:11177   */\n      iszero\n        /* \"#utility.yul\":11137:11178   */\n      dup2\n      mstore\n        /* \"#utility.yul\":11125:11127   */\n      0x20\n        /* \"#utility.yul\":11110:11128   */\n      add\n        /* \"test.sol\":2198:2259  mapping(uint => mapping(uint => bool)) public accessForDoctor */\n      tag_30\n        /* \"#utility.yul\":11092:11184   */\n      jump\n        /* \"test.sol\":7835:8138  function recordByDoctor(... */\n    tag_8:\n      tag_22\n      tag_48\n      calldatasize\n      0x04\n      tag_49\n      jump\t// in\n    tag_48:\n      tag_50\n      jump\t// in\n        /* \"test.sol\":6483:7072  function registerCareGiver(... */\n    tag_9:\n      tag_22\n      tag_52\n      calldatasize\n      0x04\n      tag_53\n      jump\t// in\n    tag_52:\n      tag_54\n      jump\t// in\n        /* \"test.sol\":8244:9107  function accessControl(... */\n    tag_10:\n      tag_22\n      tag_56\n      calldatasize\n      0x04\n      tag_57\n      jump\t// in\n    tag_56:\n      tag_58\n      jump\t// in\n        /* \"test.sol\":2009:2064  mapping(uint => patienthealth) public patienthealthData */\n    tag_11:\n      tag_59\n      tag_60\n      calldatasize\n      0x04\n      tag_28\n      jump\t// in\n    tag_60:\n      tag_61\n      jump\t// in\n    tag_59:\n      mload(0x40)\n      tag_30\n      swap5\n      swap4\n      swap3\n      swap2\n      swap1\n      tag_63\n      jump\t// in\n        /* \"test.sol\":2132:2196  mapping(uint => mapping(uint => careGiver)) public careGiverData */\n    tag_12:\n      tag_64\n      tag_65\n      calldatasize\n      0x04\n      tag_43\n      jump\t// in\n    tag_65:\n      tag_66\n      jump\t// in\n    tag_64:\n      mload(0x40)\n      tag_30\n      swap5\n      swap4\n      swap3\n      swap2\n      swap1\n      tag_68\n      jump\t// in\n        /* \"test.sol\":6037:6449  function registerPatientHealth(... */\n    tag_13:\n      tag_22\n      tag_70\n      calldatasize\n      0x04\n      tag_71\n      jump\t// in\n    tag_70:\n      tag_72\n      jump\t// in\n        /* \"test.sol\":3920:5552  function registerDoctor(... */\n    tag_14:\n      tag_22\n      tag_74\n      calldatasize\n      0x04\n      tag_75\n      jump\t// in\n    tag_74:\n      tag_76\n      jump\t// in\n        /* \"test.sol\":5593:6031  function registerPatientLoc(... */\n    tag_15:\n      tag_22\n      tag_78\n      calldatasize\n      0x04\n      tag_79\n      jump\t// in\n    tag_78:\n      tag_80\n      jump\t// in\n        /* \"test.sol\":2295:3891  function registerPatients(... */\n    tag_16:\n      tag_22\n      tag_82\n      calldatasize\n      0x04\n      tag_83\n      jump\t// in\n    tag_82:\n      tag_84\n      jump\t// in\n        /* \"test.sol\":2066:2130  mapping(uint => mapping(uint => uint)) public patientrecordsData */\n    tag_17:\n      tag_85\n      tag_86\n      calldatasize\n      0x04\n      tag_43\n      jump\t// in\n    tag_86:\n      0x04\n      0x20\n      swap1\n      dup2\n      mstore\n      0x00\n      swap3\n      dup4\n      mstore\n      0x40\n      dup1\n      dup5\n      keccak256\n      swap1\n      swap2\n      mstore\n      swap1\n      dup3\n      mstore\n      swap1\n      keccak256\n      sload\n      dup2\n      jump\n    tag_85:\n      mload(0x40)\n        /* \"#utility.yul\":19266:19291   */\n      swap1\n      dup2\n      mstore\n        /* \"#utility.yul\":19254:19256   */\n      0x20\n        /* \"#utility.yul\":19239:19257   */\n      add\n        /* \"test.sol\":2066:2130  mapping(uint => mapping(uint => uint)) public patientrecordsData */\n      tag_30\n        /* \"#utility.yul\":19221:19297   */\n      jump\n        /* \"test.sol\":1958:2007  mapping(uint => patientGeo) public patientLocData */\n    tag_18:\n      tag_90\n      tag_91\n      calldatasize\n      0x04\n      tag_28\n      jump\t// in\n    tag_91:\n      tag_92\n      jump\t// in\n    tag_90:\n      mload(0x40)\n      tag_30\n      swap6\n      swap5\n      swap4\n      swap3\n      swap2\n      swap1\n      tag_94\n      jump\t// in\n        /* \"test.sol\":7640:7829  function recordByPatient(... */\n    tag_25:\n        /* \"test.sol\":1600:1613  patientAccess */\n      0x00\n        /* \"test.sol\":1600:1622  patientAccess[_patKey] */\n      dup4\n      dup2\n      mstore\n      0x20\n      dup2\n      swap1\n      mstore\n      0x40\n      swap1\n      keccak256\n        /* \"test.sol\":1600:1630  patientAccess[_patKey].isExist */\n      0x04\n      add\n      sload\n        /* \"test.sol\":7758:7764  patKey */\n      dup4\n      swap1\n        /* \"test.sol\":1600:1630  patientAccess[_patKey].isExist */\n      0xff\n      and\n        /* \"test.sol\":1600:1638  patientAccess[_patKey].isExist == true */\n      iszero\n      iszero\n        /* \"test.sol\":1600:1630  patientAccess[_patKey].isExist */\n      0x01\n        /* \"test.sol\":1600:1638  patientAccess[_patKey].isExist == true */\n      eq\n        /* \"test.sol\":1592:1682  require(patientAccess[_patKey].isExist == true, ... */\n      tag_96\n      jumpi\n      mload(0x40)\n      shl(0xe5, 0x461bcd)\n      dup2\n      mstore\n      0x04\n      add\n      tag_97\n      swap1\n      tag_98\n      jump\t// in\n    tag_97:\n      mload(0x40)\n      dup1\n      swap2\n      sub\n      swap1\n      revert\n    tag_96:\n      pop\n        /* \"test.sol\":7779:7805  patientrecordsData[patKey] */\n      0x00\n      swap3\n      dup4\n      mstore\n        /* \"test.sol\":7779:7797  patientrecordsData */\n      0x04\n        /* \"test.sol\":7779:7805  patientrecordsData[patKey] */\n      0x20\n      swap1\n      dup2\n      mstore\n      0x40\n      dup1\n      dup6\n      keccak256\n        /* \"test.sol\":7779:7809  patientrecordsData[patKey][rt] */\n      swap4\n      dup6\n      mstore\n      swap3\n      swap1\n      mstore\n      swap2\n      keccak256\n        /* \"test.sol\":7779:7822  patientrecordsData[patKey][rt] = recordHash */\n      sstore\n        /* \"test.sol\":7640:7829  function recordByPatient(... */\n      jump\t// out\n        /* \"test.sol\":1907:1956  mapping(uint => doctorEnroll) public doctorAccess */\n    tag_29:\n      mstore(0x20, 0x01)\n      0x00\n      swap1\n      dup2\n      mstore\n      0x40\n      swap1\n      keccak256\n      dup1\n      sload\n      dup2\n      swap1\n      tag_100\n      swap1\n      tag_101\n      jump\t// in\n    tag_100:\n      dup1\n      0x1f\n      add\n      0x20\n      dup1\n      swap2\n      div\n      mul\n      0x20\n      add\n      mload(0x40)\n      swap1\n      dup2\n      add\n      0x40\n      mstore\n      dup1\n      swap3\n      swap2\n      swap1\n      dup2\n      dup2\n      mstore\n      0x20\n      add\n      dup3\n      dup1\n      sload\n      tag_102\n      swap1\n      tag_101\n      jump\t// in\n    tag_102:\n      dup1\n      iszero\n      tag_103\n      jumpi\n      dup1\n      0x1f\n      lt\n      tag_104\n      jumpi\n      0x0100\n      dup1\n      dup4\n      sload\n      div\n      mul\n      dup4\n      mstore\n      swap2\n      0x20\n      add\n      swap2\n      jump(tag_103)\n    tag_104:\n      dup3\n      add\n      swap2\n      swap1\n      0x00\n      mstore\n      keccak256(0x00, 0x20)\n      swap1\n    tag_105:\n      dup2\n      sload\n      dup2\n      mstore\n      swap1\n      0x01\n      add\n      swap1\n      0x20\n      add\n      dup1\n      dup4\n      gt\n      tag_105\n      jumpi\n      dup3\n      swap1\n      sub\n      0x1f\n      and\n      dup3\n      add\n      swap2\n    tag_103:\n      pop\n      pop\n      pop\n      pop\n      pop\n      swap1\n      dup1\n      0x01\n      add\n      dup1\n      sload\n      tag_106\n      swap1\n      tag_101\n      jump\t// in\n    tag_106:\n      dup1\n      0x1f\n      add\n      0x20\n      dup1\n      swap2\n      div\n      mul\n      0x20\n      add\n      mload(0x40)\n      swap1\n      dup2\n      add\n      0x40\n      mstore\n      dup1\n      swap3\n      swap2\n      swap1\n      dup2\n      dup2\n      mstore\n      0x20\n      add\n      dup3\n      dup1\n      sload\n      tag_107\n      swap1\n      tag_101\n      jump\t// in\n    tag_107:\n      dup1\n      iszero\n      tag_108\n      jumpi\n      dup1\n      0x1f\n      lt\n      tag_109\n      jumpi\n      0x0100\n      dup1\n      dup4\n      sload\n      div\n      mul\n      dup4\n      mstore\n      swap2\n      0x20\n      add\n      swap2\n      jump(tag_108)\n    tag_109:\n      dup3\n      add\n      swap2\n      swap1\n      0x00\n      mstore\n      keccak256(0x00, 0x20)\n      swap1\n    tag_110:\n      dup2\n      sload\n      dup2\n      mstore\n      swap1\n      0x01\n      add\n      swap1\n      0x20\n      add\n      dup1\n      dup4\n      gt\n      tag_110\n      jumpi\n      dup3\n      swap1\n      sub\n      0x1f\n      and\n      dup3\n      add\n      swap2\n    tag_108:\n      pop\n      pop\n      pop\n      pop\n      pop\n      swap1\n      dup1\n      0x02\n      add\n      dup1\n      sload\n      tag_111\n      swap1\n      tag_101\n      jump\t// in\n    tag_111:\n      dup1\n      0x1f\n      add\n      0x20\n      dup1\n      swap2\n      div\n      mul\n      0x20\n      add\n      mload(0x40)\n      swap1\n      dup2\n      add\n      0x40\n      mstore\n      dup1\n      swap3\n      swap2\n      swap1\n      dup2\n      dup2\n      mstore\n      0x20\n      add\n      dup3\n      dup1\n      sload\n      tag_112\n      swap1\n      tag_101\n      jump\t// in\n    tag_112:\n      dup1\n      iszero\n      tag_113\n      jumpi\n      dup1\n      0x1f\n      lt\n      tag_114\n      jumpi\n      0x0100\n      dup1\n      dup4\n      sload\n      div\n      mul\n      dup4\n      mstore\n      swap2\n      0x20\n      add\n      swap2\n      jump(tag_113)\n    tag_114:\n      dup3\n      add\n      swap2\n      swap1\n      0x00\n      mstore\n      keccak256(0x00, 0x20)\n      swap1\n    tag_115:\n      dup2\n      sload\n      dup2\n      mstore\n      swap1\n      0x01\n      add\n      swap1\n      0x20\n      add\n      dup1\n      dup4\n      gt\n      tag_115\n      jumpi\n      dup3\n      swap1\n      sub\n      0x1f\n      and\n      dup3\n      add\n      swap2\n    tag_113:\n      pop\n      pop\n      pop\n      pop\n      pop\n      swap1\n      dup1\n      0x03\n      add\n      dup1\n      sload\n      tag_116\n      swap1\n      tag_101\n      jump\t// in\n    tag_116:\n      dup1\n      0x1f\n      add\n      0x20\n      dup1\n      swap2\n      div\n      mul\n      0x20\n      add\n      mload(0x40)\n      swap1\n      dup2\n      add\n      0x40\n      mstore\n      dup1\n      swap3\n      swap2\n      swap1\n      dup2\n      dup2\n      mstore\n      0x20\n      add\n      dup3\n      dup1\n      sload\n      tag_117\n      swap1\n      tag_101\n      jump\t// in\n    tag_117:\n      dup1\n      iszero\n      tag_118\n      jumpi\n      dup1\n      0x1f\n      lt\n      tag_119\n      jumpi\n      0x0100\n      dup1\n      dup4\n      sload\n      div\n      mul\n      dup4\n      mstore\n      swap2\n      0x20\n      add\n      swap2\n      jump(tag_118)\n    tag_119:\n      dup3\n      add\n      swap2\n      swap1\n      0x00\n      mstore\n      keccak256(0x00, 0x20)\n      swap1\n    tag_120:\n      dup2\n      sload\n      dup2\n      mstore\n      swap1\n      0x01\n      add\n      swap1\n      0x20\n      add\n      dup1\n      dup4\n      gt\n      tag_120\n      jumpi\n      dup3\n      swap1\n      sub\n      0x1f\n      and\n      dup3\n      add\n      swap2\n    tag_118:\n      pop\n      pop\n      pop\n      pop\n      pop\n      swap1\n      dup1\n      0x04\n      add\n      dup1\n      sload\n      tag_121\n      swap1\n      tag_101\n      jump\t// in\n    tag_121:\n      dup1\n      0x1f\n      add\n      0x20\n      dup1\n      swap2\n      div\n      mul\n      0x20\n      add\n      mload(0x40)\n      swap1\n      dup2\n      add\n      0x40\n      mstore\n      dup1\n      swap3\n      swap2\n      swap1\n      dup2\n      dup2\n      mstore\n      0x20\n      add\n      dup3\n      dup1\n      sload\n      tag_122\n      swap1\n      tag_101\n      jump\t// in\n    tag_122:\n      dup1\n      iszero\n      tag_123\n      jumpi\n      dup1\n      0x1f\n      lt\n      tag_124\n      jumpi\n      0x0100\n      dup1\n      dup4\n      sload\n      div\n      mul\n      dup4\n      mstore\n      swap2\n      0x20\n      add\n      swap2\n      jump(tag_123)\n    tag_124:\n      dup3\n      add\n      swap2\n      swap1\n      0x00\n      mstore\n      keccak256(0x00, 0x20)\n      swap1\n    tag_125:\n      dup2\n      sload\n      dup2\n      mstore\n      swap1\n      0x01\n      add\n      swap1\n      0x20\n      add\n      dup1\n      dup4\n      gt\n      tag_125\n      jumpi\n      dup3\n      swap1\n      sub\n      0x1f\n      and\n      dup3\n      add\n      swap2\n    tag_123:\n      pop\n      pop\n      pop\n      0x05\n      swap1\n      swap4\n      add\n      sload\n      swap2\n      swap3\n      pop\n      pop\n      0xff\n      dup1\n      dup3\n      and\n      swap2\n      0x0100\n      dup2\n      div\n      dup3\n      and\n      swap2\n      0x010000\n      swap1\n      swap2\n      div\n      and\n      dup9\n      jump\t// out\n        /* \"test.sol\":1854:1905  mapping(uint => patientEnroll) public patientAccess */\n    tag_34:\n      0x00\n      0x20\n      dup2\n      swap1\n      mstore\n      swap1\n      dup2\n      mstore\n      0x40\n      swap1\n      keccak256\n      dup1\n      sload\n      dup2\n      swap1\n      tag_126\n      swap1\n      tag_101\n      jump\t// in\n    tag_126:\n      dup1\n      0x1f\n      add\n      0x20\n      dup1\n      swap2\n      div\n      mul\n      0x20\n      add\n      mload(0x40)\n      swap1\n      dup2\n      add\n      0x40\n      mstore\n      dup1\n      swap3\n      swap2\n      swap1\n      dup2\n      dup2\n      mstore\n      0x20\n      add\n      dup3\n      dup1\n      sload\n      tag_127\n      swap1\n      tag_101\n      jump\t// in\n    tag_127:\n      dup1\n      iszero\n      tag_128\n      jumpi\n      dup1\n      0x1f\n      lt\n      tag_129\n      jumpi\n      0x0100\n      dup1\n      dup4\n      sload\n      div\n      mul\n      dup4\n      mstore\n      swap2\n      0x20\n      add\n      swap2\n      jump(tag_128)\n    tag_129:\n      dup3\n      add\n      swap2\n      swap1\n      0x00\n      mstore\n      keccak256(0x00, 0x20)\n      swap1\n    tag_130:\n      dup2\n      sload\n      dup2\n      mstore\n      swap1\n      0x01\n      add\n      swap1\n      0x20\n      add\n      dup1\n      dup4\n      gt\n      tag_130\n      jumpi\n      dup3\n      swap1\n      sub\n      0x1f\n      and\n      dup3\n      add\n      swap2\n    tag_128:\n      pop\n      pop\n      pop\n      pop\n      pop\n      swap1\n      dup1\n      0x01\n      add\n      dup1\n      sload\n      tag_131\n      swap1\n      tag_101\n      jump\t// in\n    tag_131:\n      dup1\n      0x1f\n      add\n      0x20\n      dup1\n      swap2\n      div\n      mul\n      0x20\n      add\n      mload(0x40)\n      swap1\n      dup2\n      add\n      0x40\n      mstore\n      dup1\n      swap3\n      swap2\n      swap1\n      dup2\n      dup2\n      mstore\n      0x20\n      add\n      dup3\n      dup1\n      sload\n      tag_132\n      swap1\n      tag_101\n      jump\t// in\n    tag_132:\n      dup1\n      iszero\n      tag_133\n      jumpi\n      dup1\n      0x1f\n      lt\n      tag_134\n      jumpi\n      0x0100\n      dup1\n      dup4\n      sload\n      div\n      mul\n      dup4\n      mstore\n      swap2\n      0x20\n      add\n      swap2\n      jump(tag_133)\n    tag_134:\n      dup3\n      add\n      swap2\n      swap1\n      0x00\n      mstore\n      keccak256(0x00, 0x20)\n      swap1\n    tag_135:\n      dup2\n      sload\n      dup2\n      mstore\n      swap1\n      0x01\n      add\n      swap1\n      0x20\n      add\n      dup1\n      dup4\n      gt\n      tag_135\n      jumpi\n      dup3\n      swap1\n      sub\n      0x1f\n      and\n      dup3\n      add\n      swap2\n    tag_133:\n      pop\n      pop\n      pop\n      pop\n      pop\n      swap1\n      dup1\n      0x02\n      add\n      dup1\n      sload\n      tag_136\n      swap1\n      tag_101\n      jump\t// in\n    tag_136:\n      dup1\n      0x1f\n      add\n      0x20\n      dup1\n      swap2\n      div\n      mul\n      0x20\n      add\n      mload(0x40)\n      swap1\n      dup2\n      add\n      0x40\n      mstore\n      dup1\n      swap3\n      swap2\n      swap1\n      dup2\n      dup2\n      mstore\n      0x20\n      add\n      dup3\n      dup1\n      sload\n      tag_137\n      swap1\n      tag_101\n      jump\t// in\n    tag_137:\n      dup1\n      iszero\n      tag_138\n      jumpi\n      dup1\n      0x1f\n      lt\n      tag_139\n      jumpi\n      0x0100\n      dup1\n      dup4\n      sload\n      div\n      mul\n      dup4\n      mstore\n      swap2\n      0x20\n      add\n      swap2\n      jump(tag_138)\n    tag_139:\n      dup3\n      add\n      swap2\n      swap1\n      0x00\n      mstore\n      keccak256(0x00, 0x20)\n      swap1\n    tag_140:\n      dup2\n      sload\n      dup2\n      mstore\n      swap1\n      0x01\n      add\n      swap1\n      0x20\n      add\n      dup1\n      dup4\n      gt\n      tag_140\n      jumpi\n      dup3\n      swap1\n      sub\n      0x1f\n      and\n      dup3\n      add\n      swap2\n    tag_138:\n      pop\n      pop\n      pop\n      pop\n      pop\n      swap1\n      dup1\n      0x03\n      add\n      dup1\n      sload\n      tag_141\n      swap1\n      tag_101\n      jump\t// in\n    tag_141:\n      dup1\n      0x1f\n      add\n      0x20\n      dup1\n      swap2\n      div\n      mul\n      0x20\n      add\n      mload(0x40)\n      swap1\n      dup2\n      add\n      0x40\n      mstore\n      dup1\n      swap3\n      swap2\n      swap1\n      dup2\n      dup2\n      mstore\n      0x20\n      add\n      dup3\n      dup1\n      sload\n      tag_142\n      swap1\n      tag_101\n      jump\t// in\n    tag_142:\n      dup1\n      iszero\n      tag_143\n      jumpi\n      dup1\n      0x1f\n      lt\n      tag_144\n      jumpi\n      0x0100\n      dup1\n      dup4\n      sload\n      div\n      mul\n      dup4\n      mstore\n      swap2\n      0x20\n      add\n      swap2\n      jump(tag_143)\n    tag_144:\n      dup3\n      add\n      swap2\n      swap1\n      0x00\n      mstore\n      keccak256(0x00, 0x20)\n      swap1\n    tag_145:\n      dup2\n      sload\n      dup2\n      mstore\n      swap1\n      0x01\n      add\n      swap1\n      0x20\n      add\n      dup1\n      dup4\n      gt\n      tag_145\n      jumpi\n      dup3\n      swap1\n      sub\n      0x1f\n      and\n      dup3\n      add\n      swap2\n    tag_143:\n      pop\n      pop\n      pop\n      0x04\n      swap1\n      swap4\n      add\n      sload\n      swap2\n      swap3\n      pop\n      pop\n      0xff\n      and\n      dup6\n      jump\t// out\n        /* \"test.sol\":7078:7634  function updateCareGiver(... */\n    tag_40:\n        /* \"test.sol\":1600:1613  patientAccess */\n      0x00\n        /* \"test.sol\":1600:1622  patientAccess[_patKey] */\n      dup5\n      dup2\n      mstore\n      0x20\n      dup2\n      swap1\n      mstore\n      0x40\n      swap1\n      keccak256\n        /* \"test.sol\":1600:1630  patientAccess[_patKey].isExist */\n      0x04\n      add\n      sload\n        /* \"test.sol\":7252:7258  patKey */\n      dup5\n      swap1\n        /* \"test.sol\":1600:1630  patientAccess[_patKey].isExist */\n      0xff\n      and\n        /* \"test.sol\":1600:1638  patientAccess[_patKey].isExist == true */\n      iszero\n      iszero\n        /* \"test.sol\":1600:1630  patientAccess[_patKey].isExist */\n      0x01\n        /* \"test.sol\":1600:1638  patientAccess[_patKey].isExist == true */\n      eq\n        /* \"test.sol\":1592:1682  require(patientAccess[_patKey].isExist == true, ... */\n      tag_147\n      jumpi\n      mload(0x40)\n      shl(0xe5, 0x461bcd)\n      dup2\n      mstore\n      0x04\n      add\n      tag_97\n      swap1\n      tag_98\n      jump\t// in\n    tag_147:\n        /* \"test.sol\":7273:7279  uint i */\n      0x00\n        /* \"test.sol\":7269:7508  for(uint i=0;i<=2;i++){... */\n    tag_150:\n        /* \"test.sol\":7285:7286  2 */\n      0x02\n        /* \"test.sol\":7282:7283  i */\n      dup2\n        /* \"test.sol\":7282:7286  i<=2 */\n      gt\n        /* \"test.sol\":7269:7508  for(uint i=0;i<=2;i++){... */\n      tag_151\n      jumpi\n        /* \"test.sol\":7363:7389  keccak256(bytes(careName)) */\n      dup5\n      mload\n      0x20\n      dup1\n      dup8\n      add\n      swap2\n      swap1\n      swap2\n      keccak256\n        /* \"test.sol\":7324:7345  careGiverData[patKey] */\n      0x00\n      dup9\n      dup2\n      mstore\n        /* \"test.sol\":7324:7337  careGiverData */\n      0x05\n        /* \"test.sol\":7324:7345  careGiverData[patKey] */\n      dup4\n      mstore\n      0x40\n      dup1\n      dup3\n      keccak256\n        /* \"test.sol\":7324:7348  careGiverData[patKey][i] */\n      dup6\n      dup4\n      mstore\n      swap1\n      swap4\n      mstore\n      dup3\n      swap1\n      keccak256\n        /* \"test.sol\":7308:7359  keccak256(bytes(careGiverData[patKey][i].careName)) */\n      swap2\n      mload\n        /* \"test.sol\":7363:7389  keccak256(bytes(careName)) */\n      swap1\n      swap2\n        /* \"test.sol\":7308:7359  keccak256(bytes(careGiverData[patKey][i].careName)) */\n      tag_153\n      swap2\n      tag_154\n      jump\t// in\n    tag_153:\n      mload(0x40)\n      dup1\n      swap2\n      sub\n      swap1\n      keccak256\n        /* \"test.sol\":7308:7389  keccak256(bytes(careGiverData[patKey][i].careName)) == keccak256(bytes(careName)) */\n      eq\n        /* \"test.sol\":7305:7498  if(keccak256(bytes(careGiverData[patKey][i].careName)) == keccak256(bytes(careName))){... */\n      iszero\n      tag_155\n      jumpi\n        /* \"test.sol\":7435:7483  careGiver(careName,careMobile,careRelation,true) */\n      0x40\n      dup1\n      mload\n      0x80\n      dup2\n      add\n      dup3\n      mstore\n      dup7\n      dup2\n      mstore\n      0x20\n      dup1\n      dup3\n      add\n      dup8\n      swap1\n      mstore\n      dup2\n      dup4\n      add\n      dup7\n      swap1\n      mstore\n        /* \"test.sol\":7478:7482  true */\n      0x01\n        /* \"test.sol\":7435:7483  careGiver(careName,careMobile,careRelation,true) */\n      0x60\n      dup4\n      add\n      mstore\n      0x00\n        /* \"test.sol\":7408:7429  careGiverData[patKey] */\n      dup10\n      dup2\n      mstore\n        /* \"test.sol\":7408:7421  careGiverData */\n      0x05\n        /* \"test.sol\":7408:7429  careGiverData[patKey] */\n      dup3\n      mstore\n      dup4\n      dup2\n      keccak256\n        /* \"test.sol\":7408:7432  careGiverData[patKey][i] */\n      dup6\n      dup3\n      mstore\n      dup3\n      mstore\n      swap3\n      swap1\n      swap3\n      keccak256\n        /* \"test.sol\":7408:7483  careGiverData[patKey][i] = careGiver(careName,careMobile,careRelation,true) */\n      dup2\n      mload\n      dup1\n      mload\n        /* \"test.sol\":7435:7483  careGiver(careName,careMobile,careRelation,true) */\n      swap3\n      swap4\n        /* \"test.sol\":7408:7432  careGiverData[patKey][i] */\n      swap2\n      swap3\n        /* \"test.sol\":7408:7483  careGiverData[patKey][i] = careGiver(careName,careMobile,careRelation,true) */\n      tag_156\n      swap3\n        /* \"test.sol\":7408:7432  careGiverData[patKey][i] */\n      dup5\n      swap3\n        /* \"test.sol\":7408:7483  careGiverData[patKey][i] = careGiver(careName,careMobile,careRelation,true) */\n      add\n      swap1\n      tag_157\n      jump\t// in\n    tag_156:\n      pop\n      0x20\n      dup3\n      dup2\n      add\n      mload\n      dup1\n      mload\n      tag_158\n      swap3\n      0x01\n      dup6\n      add\n      swap3\n      add\n      swap1\n      tag_157\n      jump\t// in\n    tag_158:\n      pop\n      0x40\n      dup3\n      add\n      mload\n      dup1\n      mload\n      tag_159\n      swap2\n      0x02\n      dup5\n      add\n      swap2\n      0x20\n      swap1\n      swap2\n      add\n      swap1\n      tag_157\n      jump\t// in\n    tag_159:\n      pop\n      0x60\n      swap2\n      swap1\n      swap2\n      add\n      mload\n      0x03\n      swap1\n      swap2\n      add\n      dup1\n      sload\n      not(0xff)\n      and\n      swap2\n      iszero\n      iszero\n      swap2\n      swap1\n      swap2\n      or\n      swap1\n      sstore\n        /* \"test.sol\":7305:7498  if(keccak256(bytes(careGiverData[patKey][i].careName)) == keccak256(bytes(careName))){... */\n    tag_155:\n        /* \"test.sol\":7287:7290  i++ */\n      dup1\n      tag_160\n      dup2\n      tag_161\n      jump\t// in\n    tag_160:\n      swap2\n      pop\n      pop\n        /* \"test.sol\":7269:7508  for(uint i=0;i<=2;i++){... */\n      jump(tag_150)\n    tag_151:\n      pop\n      0x00\n      dup1\n      mload\n      0x20\n      data_f1783972c13bbde284b8765b8e27686842dfd940022613858bd0f693b0907129\n      dup4\n      codecopy\n      dup2\n      mload\n      swap2\n      mstore\n        /* \"test.sol\":7551:7557  patKey */\n      dup6\n        /* \"test.sol\":7610:7625  block.timestamp */\n      timestamp\n        /* \"test.sol\":7522:7626  patregistration(... */\n      mload(0x40)\n      tag_162\n      swap3\n      swap2\n      swap1\n        /* \"#utility.yul\":21409:21434   */\n      swap2\n      dup3\n      mstore\n        /* \"#utility.yul\":21470:21472   */\n      0x60\n        /* \"#utility.yul\":21465:21467   */\n      0x20\n        /* \"#utility.yul\":21450:21468   */\n      dup4\n      add\n        /* \"#utility.yul\":21443:21473   */\n      dup2\n      swap1\n      mstore\n        /* \"#utility.yul\":21509:21511   */\n      0x17\n        /* \"#utility.yul\":21489:21507   */\n      swap1\n      dup4\n      add\n        /* \"#utility.yul\":21482:21512   */\n      mstore\n        /* \"#utility.yul\":21549:21574   */\n      0x4361726567697665722044617461206d6f646966696564000000000000000000\n        /* \"#utility.yul\":21543:21546   */\n      0x80\n        /* \"#utility.yul\":21528:21547   */\n      dup4\n      add\n        /* \"#utility.yul\":21521:21575   */\n      mstore\n        /* \"#utility.yul\":21642:21644   */\n      0x40\n        /* \"#utility.yul\":21627:21645   */\n      dup3\n      add\n        /* \"#utility.yul\":21620:21654   */\n      mstore\n        /* \"#utility.yul\":21607:21610   */\n      0xa0\n        /* \"#utility.yul\":21592:21611   */\n      add\n      swap1\n        /* \"#utility.yul\":21399:21660   */\n      jump\n        /* \"test.sol\":7522:7626  patregistration(... */\n    tag_162:\n      mload(0x40)\n      dup1\n      swap2\n      sub\n      swap1\n      log1\n        /* \"test.sol\":7078:7634  function updateCareGiver(... */\n      pop\n      pop\n      pop\n      pop\n      pop\n      jump\t// out\n        /* \"test.sol\":7835:8138  function recordByDoctor(... */\n    tag_50:\n        /* \"test.sol\":1600:1613  patientAccess */\n      0x00\n        /* \"test.sol\":1600:1622  patientAccess[_patKey] */\n      dup5\n      dup2\n      mstore\n      0x20\n      dup2\n      swap1\n      mstore\n      0x40\n      swap1\n      keccak256\n        /* \"test.sol\":1600:1630  patientAccess[_patKey].isExist */\n      0x04\n      add\n      sload\n        /* \"test.sol\":7973:7979  patKey */\n      dup5\n      swap1\n        /* \"test.sol\":1600:1630  patientAccess[_patKey].isExist */\n      0xff\n      and\n        /* \"test.sol\":1600:1638  patientAccess[_patKey].isExist == true */\n      iszero\n      iszero\n        /* \"test.sol\":1600:1630  patientAccess[_patKey].isExist */\n      0x01\n        /* \"test.sol\":1600:1638  patientAccess[_patKey].isExist == true */\n      eq\n        /* \"test.sol\":1592:1682  require(patientAccess[_patKey].isExist == true, ... */\n      tag_165\n      jumpi\n      mload(0x40)\n      shl(0xe5, 0x461bcd)\n      dup2\n      mstore\n      0x04\n      add\n      tag_97\n      swap1\n      tag_98\n      jump\t// in\n    tag_165:\n        /* \"test.sol\":8002:8025  accessForDoctor[patKey] */\n      0x00\n      dup6\n      dup2\n      mstore\n        /* \"test.sol\":8002:8017  accessForDoctor */\n      0x06\n        /* \"test.sol\":8002:8025  accessForDoctor[patKey] */\n      0x20\n      swap1\n      dup2\n      mstore\n      0x40\n      dup1\n      dup4\n      keccak256\n        /* \"test.sol\":8002:8033  accessForDoctor[patKey][docKey] */\n      dup8\n      dup5\n      mstore\n      swap1\n      swap2\n      mstore\n      swap1\n      keccak256\n      sload\n      0xff\n      and\n        /* \"test.sol\":8002:8041  accessForDoctor[patKey][docKey] == true */\n      iszero\n      iszero\n        /* \"test.sol\":8002:8033  accessForDoctor[patKey][docKey] */\n      0x01\n        /* \"test.sol\":8002:8041  accessForDoctor[patKey][docKey] == true */\n      eq\n        /* \"test.sol\":7994:8074  require(accessForDoctor[patKey][docKey] == true,\"No access provided by patient\") */\n      tag_168\n      jumpi\n      mload(0x40)\n      shl(0xe5, 0x461bcd)\n      dup2\n      mstore\n        /* \"#utility.yul\":18155:18157   */\n      0x20\n        /* \"test.sol\":7994:8074  require(accessForDoctor[patKey][docKey] == true,\"No access provided by patient\") */\n      0x04\n      dup3\n      add\n        /* \"#utility.yul\":18137:18158   */\n      mstore\n        /* \"#utility.yul\":18194:18196   */\n      0x1d\n        /* \"#utility.yul\":18174:18192   */\n      0x24\n      dup3\n      add\n        /* \"#utility.yul\":18167:18197   */\n      mstore\n        /* \"#utility.yul\":18233:18264   */\n      0x4e6f206163636573732070726f76696465642062792070617469656e74000000\n        /* \"#utility.yul\":18213:18231   */\n      0x44\n      dup3\n      add\n        /* \"#utility.yul\":18206:18265   */\n      mstore\n        /* \"#utility.yul\":18282:18300   */\n      0x64\n      add\n        /* \"test.sol\":7994:8074  require(accessForDoctor[patKey][docKey] == true,\"No access provided by patient\") */\n      tag_97\n        /* \"#utility.yul\":18127:18306   */\n      jump\n        /* \"test.sol\":7994:8074  require(accessForDoctor[patKey][docKey] == true,\"No access provided by patient\") */\n    tag_168:\n      pop\n        /* \"test.sol\":8088:8114  patientrecordsData[patKey] */\n      0x00\n      swap4\n      dup5\n      mstore\n        /* \"test.sol\":8088:8106  patientrecordsData */\n      0x04\n        /* \"test.sol\":8088:8114  patientrecordsData[patKey] */\n      0x20\n      swap1\n      dup2\n      mstore\n      0x40\n      dup1\n      dup7\n      keccak256\n        /* \"test.sol\":8088:8118  patientrecordsData[patKey][rt] */\n      swap4\n      dup7\n      mstore\n      swap3\n      swap1\n      mstore\n      swap3\n      keccak256\n        /* \"test.sol\":8088:8131  patientrecordsData[patKey][rt] = recordHash */\n      swap2\n      swap1\n      swap2\n      sstore\n      pop\n        /* \"test.sol\":7835:8138  function recordByDoctor(... */\n      jump\t// out\n        /* \"test.sol\":6483:7072  function registerCareGiver(... */\n    tag_54:\n        /* \"test.sol\":1600:1613  patientAccess */\n      0x00\n        /* \"test.sol\":1600:1622  patientAccess[_patKey] */\n      dup6\n      dup2\n      mstore\n      0x20\n      dup2\n      swap1\n      mstore\n      0x40\n      swap1\n      keccak256\n        /* \"test.sol\":1600:1630  patientAccess[_patKey].isExist */\n      0x04\n      add\n      sload\n        /* \"test.sol\":6682:6688  patKey */\n      dup6\n      swap1\n        /* \"test.sol\":1600:1630  patientAccess[_patKey].isExist */\n      0xff\n      and\n        /* \"test.sol\":1600:1638  patientAccess[_patKey].isExist == true */\n      iszero\n      iszero\n        /* \"test.sol\":1600:1630  patientAccess[_patKey].isExist */\n      0x01\n        /* \"test.sol\":1600:1638  patientAccess[_patKey].isExist == true */\n      eq\n        /* \"test.sol\":1592:1682  require(patientAccess[_patKey].isExist == true, ... */\n      tag_172\n      jumpi\n      mload(0x40)\n      shl(0xe5, 0x461bcd)\n      dup2\n      mstore\n      0x04\n      add\n      tag_97\n      swap1\n      tag_98\n      jump\t// in\n    tag_172:\n        /* \"test.sol\":6754:6775  careGiverData[patKey] */\n      0x00\n      dup7\n      dup2\n      mstore\n        /* \"test.sol\":6754:6767  careGiverData */\n      0x05\n        /* \"test.sol\":6754:6775  careGiverData[patKey] */\n      0x20\n      mstore\n      0x40\n      dup2\n      keccak256\n        /* \"test.sol\":6776:6781  index */\n      0x07\n        /* \"test.sol\":6776:6791  index[position] */\n      dup1\n      sload\n        /* \"test.sol\":6754:6775  careGiverData[patKey] */\n      swap2\n      swap3\n      swap2\n        /* \"test.sol\":6782:6790  position */\n      dup9\n      swap1\n        /* \"test.sol\":6776:6791  index[position] */\n      dup2\n      lt\n      tag_175\n      jumpi\n      mstore(0x00, shl(0xe0, 0x4e487b71))\n      mstore(0x04, 0x32)\n      revert(0x00, 0x24)\n    tag_175:\n      0x00\n      swap2\n      dup3\n      mstore\n      0x20\n      dup1\n      dup4\n      keccak256\n      swap1\n      swap2\n      add\n      sload\n        /* \"test.sol\":6754:6792  careGiverData[patKey][index[position]] */\n      dup4\n      mstore\n      dup3\n      add\n      swap3\n      swap1\n      swap3\n      mstore\n      0x40\n      add\n      swap1\n      keccak256\n        /* \"test.sol\":6754:6800  careGiverData[patKey][index[position]].isExist */\n      0x03\n      add\n      sload\n      0xff\n      and\n        /* \"test.sol\":6751:6932  if(careGiverData[patKey][index[position]].isExist == false){... */\n      tag_177\n      jumpi\n        /* \"test.sol\":6869:6917  careGiver(careName,careMobile,careRelation,true) */\n      mload(0x40)\n      dup1\n      0x80\n      add\n      0x40\n      mstore\n      dup1\n        /* \"test.sol\":6879:6887  careName */\n      dup6\n        /* \"test.sol\":6869:6917  careGiver(careName,careMobile,careRelation,true) */\n      dup2\n      mstore\n      0x20\n      add\n        /* \"test.sol\":6888:6898  careMobile */\n      dup5\n        /* \"test.sol\":6869:6917  careGiver(careName,careMobile,careRelation,true) */\n      dup2\n      mstore\n      0x20\n      add\n        /* \"test.sol\":6899:6911  careRelation */\n      dup4\n        /* \"test.sol\":6869:6917  careGiver(careName,careMobile,careRelation,true) */\n      dup2\n      mstore\n      0x20\n      add\n        /* \"test.sol\":6912:6916  true */\n      0x01\n        /* \"test.sol\":6869:6917  careGiver(careName,careMobile,careRelation,true) */\n      iszero\n      iszero\n      dup2\n      mstore\n      pop\n        /* \"test.sol\":6828:6841  careGiverData */\n      0x05\n        /* \"test.sol\":6828:6849  careGiverData[patKey] */\n      0x00\n        /* \"test.sol\":6842:6848  patKey */\n      dup9\n        /* \"test.sol\":6828:6849  careGiverData[patKey] */\n      dup2\n      mstore\n      0x20\n      add\n      swap1\n      dup2\n      mstore\n      0x20\n      add\n      0x00\n      keccak256\n        /* \"test.sol\":6828:6866  careGiverData[patKey][index[position]] */\n      0x00\n        /* \"test.sol\":6850:6855  index */\n      0x07\n        /* \"test.sol\":6856:6864  position */\n      dup9\n        /* \"test.sol\":6850:6865  index[position] */\n      dup2\n      sload\n      dup2\n      lt\n      tag_178\n      jumpi\n      mstore(0x00, shl(0xe0, 0x4e487b71))\n      mstore(0x04, 0x32)\n      revert(0x00, 0x24)\n    tag_178:\n      swap1\n      0x00\n      mstore\n      keccak256(0x00, 0x20)\n      add\n      sload\n        /* \"test.sol\":6828:6866  careGiverData[patKey][index[position]] */\n      dup2\n      mstore\n      0x20\n      add\n      swap1\n      dup2\n      mstore\n      0x20\n      add\n      0x00\n      keccak256\n        /* \"test.sol\":6828:6917  careGiverData[patKey][index[position]] = careGiver(careName,careMobile,careRelation,true) */\n      0x00\n      dup3\n      add\n      mload\n      dup2\n      0x00\n      add\n      swap1\n      dup1\n      mload\n      swap1\n      0x20\n      add\n      swap1\n      tag_180\n      swap3\n      swap2\n      swap1\n      tag_157\n      jump\t// in\n    tag_180:\n      pop\n      0x20\n      dup3\n      dup2\n      add\n      mload\n      dup1\n      mload\n      tag_181\n      swap3\n      0x01\n      dup6\n      add\n      swap3\n      add\n      swap1\n      tag_157\n      jump\t// in\n    tag_181:\n      pop\n      0x40\n      dup3\n      add\n      mload\n      dup1\n      mload\n      tag_182\n      swap2\n      0x02\n      dup5\n      add\n      swap2\n      0x20\n      swap1\n      swap2\n      add\n      swap1\n      tag_157\n      jump\t// in\n    tag_182:\n      pop\n      0x60\n      swap2\n      swap1\n      swap2\n      add\n      mload\n      0x03\n      swap1\n      swap2\n      add\n      dup1\n      sload\n      not(0xff)\n      and\n      swap2\n      iszero\n      iszero\n      swap2\n      swap1\n      swap2\n      or\n      swap1\n      sstore\n        /* \"test.sol\":6751:6932  if(careGiverData[patKey][index[position]].isExist == false){... */\n    tag_177:\n      0x00\n      dup1\n      mload\n      0x20\n      data_f1783972c13bbde284b8765b8e27686842dfd940022613858bd0f693b0907129\n      dup4\n      codecopy\n      dup2\n      mload\n      swap2\n      mstore\n        /* \"test.sol\":6988:6994  patKey */\n      dup7\n        /* \"test.sol\":7049:7064  block.timestamp */\n      timestamp\n        /* \"test.sol\":6959:7065  patregistration(... */\n      mload(0x40)\n      tag_183\n      swap3\n      swap2\n      swap1\n        /* \"#utility.yul\":20411:20436   */\n      swap2\n      dup3\n      mstore\n        /* \"#utility.yul\":20472:20474   */\n      0x60\n        /* \"#utility.yul\":20467:20469   */\n      0x20\n        /* \"#utility.yul\":20452:20470   */\n      dup4\n      add\n        /* \"#utility.yul\":20445:20475   */\n      dup2\n      swap1\n      mstore\n        /* \"#utility.yul\":20511:20513   */\n      0x19\n        /* \"#utility.yul\":20491:20509   */\n      swap1\n      dup4\n      add\n        /* \"#utility.yul\":20484:20514   */\n      mstore\n        /* \"#utility.yul\":20551:20578   */\n      0x4361726567697665722044617461207265676973746572656400000000000000\n        /* \"#utility.yul\":20545:20548   */\n      0x80\n        /* \"#utility.yul\":20530:20549   */\n      dup4\n      add\n        /* \"#utility.yul\":20523:20579   */\n      mstore\n        /* \"#utility.yul\":20646:20648   */\n      0x40\n        /* \"#utility.yul\":20631:20649   */\n      dup3\n      add\n        /* \"#utility.yul\":20624:20658   */\n      mstore\n        /* \"#utility.yul\":20611:20614   */\n      0xa0\n        /* \"#utility.yul\":20596:20615   */\n      add\n      swap1\n        /* \"#utility.yul\":20401:20664   */\n      jump\n        /* \"test.sol\":6959:7065  patregistration(... */\n    tag_183:\n      mload(0x40)\n      dup1\n      swap2\n      sub\n      swap1\n      log1\n        /* \"test.sol\":6483:7072  function registerCareGiver(... */\n      pop\n      pop\n      pop\n      pop\n      pop\n      pop\n      jump\t// out\n        /* \"test.sol\":8244:9107  function accessControl(... */\n    tag_58:\n        /* \"test.sol\":1754:1775  doctorAccess[_docKey] */\n      0x00\n      dup3\n      dup2\n      mstore\n        /* \"test.sol\":1754:1766  doctorAccess */\n      0x01\n        /* \"test.sol\":1754:1775  doctorAccess[_docKey] */\n      0x20\n      dup2\n      swap1\n      mstore\n      0x40\n      swap1\n      swap2\n      keccak256\n        /* \"test.sol\":1754:1783  doctorAccess[_docKey].isExist */\n      0x05\n      add\n      sload\n        /* \"test.sol\":1754:1775  doctorAccess[_docKey] */\n      dup4\n      swap2\n        /* \"test.sol\":1754:1783  doctorAccess[_docKey].isExist */\n      0x010000\n      swap1\n      swap2\n      div\n      0xff\n      and\n        /* \"test.sol\":1754:1791  doctorAccess[_docKey].isExist == true */\n      iszero\n      iszero\n      eq\n        /* \"test.sol\":1746:1834  require(doctorAccess[_docKey].isExist == true, ... */\n      tag_186\n      jumpi\n      mload(0x40)\n      shl(0xe5, 0x461bcd)\n      dup2\n      mstore\n        /* \"#utility.yul\":16645:16647   */\n      0x20\n        /* \"test.sol\":1746:1834  require(doctorAccess[_docKey].isExist == true, ... */\n      0x04\n      dup3\n      add\n        /* \"#utility.yul\":16627:16648   */\n      mstore\n        /* \"#utility.yul\":16684:16686   */\n      0x15\n        /* \"#utility.yul\":16664:16682   */\n      0x24\n      dup3\n      add\n        /* \"#utility.yul\":16657:16687   */\n      mstore\n      shl(0x5a, 0x111bd8dd1bdc88139bdd081c9959da5cdd195c9959)\n        /* \"#utility.yul\":16703:16721   */\n      0x44\n      dup3\n      add\n        /* \"#utility.yul\":16696:16747   */\n      mstore\n        /* \"#utility.yul\":16764:16782   */\n      0x64\n      add\n        /* \"test.sol\":1746:1834  require(doctorAccess[_docKey].isExist == true, ... */\n      tag_97\n        /* \"#utility.yul\":16617:16788   */\n      jump\n        /* \"test.sol\":1746:1834  require(doctorAccess[_docKey].isExist == true, ... */\n    tag_186:\n        /* \"test.sol\":8377:8404  string memory accessComment */\n      0x60\n        /* \"test.sol\":8423:8435  access.GRANT */\n      0x00\n        /* \"test.sol\":8417:8419  ac */\n      dup4\n        /* \"test.sol\":8417:8435  ac == access.GRANT */\n      0x01\n      dup2\n      gt\n      iszero\n      tag_191\n      jumpi\n      mstore(0x00, shl(0xe0, 0x4e487b71))\n      mstore(0x04, 0x21)\n      revert(0x00, 0x24)\n    tag_191:\n      eq\n        /* \"test.sol\":8414:8686  if(ac == access.GRANT){... */\n      iszero\n      tag_192\n      jumpi\n        /* \"test.sol\":8458:8482  accessForDoctor[_patKey] */\n      0x00\n      dup6\n      dup2\n      mstore\n        /* \"test.sol\":8458:8473  accessForDoctor */\n      0x06\n        /* \"test.sol\":8458:8482  accessForDoctor[_patKey] */\n      0x20\n      swap1\n      dup2\n      mstore\n      0x40\n      dup1\n      dup4\n      keccak256\n        /* \"test.sol\":8458:8491  accessForDoctor[_patKey][_docKey] */\n      dup8\n      dup5\n      mstore\n      swap1\n      swap2\n      mstore\n      swap1\n      keccak256\n      sload\n      0xff\n      and\n        /* \"test.sol\":8458:8500  accessForDoctor[_patKey][_docKey] == false */\n      iszero\n        /* \"test.sol\":8450:8561  require(accessForDoctor[_patKey][_docKey] == false,... */\n      tag_193\n      jumpi\n      mload(0x40)\n      shl(0xe5, 0x461bcd)\n      dup2\n      mstore\n        /* \"#utility.yul\":16240:16242   */\n      0x20\n        /* \"test.sol\":8450:8561  require(accessForDoctor[_patKey][_docKey] == false,... */\n      0x04\n      dup3\n      add\n        /* \"#utility.yul\":16222:16243   */\n      mstore\n        /* \"#utility.yul\":16279:16281   */\n      0x24\n        /* \"#utility.yul\":16259:16277   */\n      dup1\n      dup3\n      add\n        /* \"#utility.yul\":16252:16282   */\n      mstore\n        /* \"#utility.yul\":16318:16352   */\n      0x4548522d41432d30313a2041636365737320686164206265656e2070726f7669\n        /* \"#utility.yul\":16298:16316   */\n      0x44\n      dup3\n      add\n        /* \"#utility.yul\":16291:16353   */\n      mstore\n      shl(0xe0, 0x64656421)\n        /* \"#utility.yul\":16369:16387   */\n      0x64\n      dup3\n      add\n        /* \"#utility.yul\":16362:16396   */\n      mstore\n        /* \"#utility.yul\":16413:16432   */\n      0x84\n      add\n        /* \"test.sol\":8450:8561  require(accessForDoctor[_patKey][_docKey] == false,... */\n      tag_97\n        /* \"#utility.yul\":16212:16438   */\n      jump\n        /* \"test.sol\":8450:8561  require(accessForDoctor[_patKey][_docKey] == false,... */\n    tag_193:\n      pop\n        /* \"test.sol\":8575:8599  accessForDoctor[_patKey] */\n      0x00\n      dup5\n      dup2\n      mstore\n        /* \"test.sol\":8575:8590  accessForDoctor */\n      0x06\n        /* \"test.sol\":8575:8599  accessForDoctor[_patKey] */\n      0x20\n      swap1\n      dup2\n      mstore\n      0x40\n      dup1\n      dup4\n      keccak256\n        /* \"test.sol\":8575:8608  accessForDoctor[_patKey][_docKey] */\n      dup7\n      dup5\n      mstore\n      dup3\n      mstore\n      swap2\n      dup3\n      swap1\n      keccak256\n        /* \"test.sol\":8575:8615  accessForDoctor[_patKey][_docKey] = true */\n      dup1\n      sload\n      not(0xff)\n      and\n        /* \"test.sol\":8611:8615  true */\n      0x01\n        /* \"test.sol\":8575:8615  accessForDoctor[_patKey][_docKey] = true */\n      or\n      swap1\n      sstore\n        /* \"test.sol\":8629:8675  accessComment = \"Access is provided to doctor\" */\n      dup2\n      mload\n      dup1\n      dup4\n      add\n      swap1\n      swap3\n      mstore\n      0x1c\n      dup3\n      mstore\n      0x4163636573732069732070726f766964656420746f20646f63746f7200000000\n      swap1\n      dup3\n      add\n      mstore\n        /* \"test.sol\":8414:8686  if(ac == access.GRANT){... */\n    tag_192:\n        /* \"test.sol\":8704:8717  access.REVOKE */\n      0x01\n        /* \"test.sol\":8698:8700  ac */\n      dup4\n        /* \"test.sol\":8698:8717  ac == access.REVOKE */\n      0x01\n      dup2\n      gt\n      iszero\n      tag_197\n      jumpi\n      mstore(0x00, shl(0xe0, 0x4e487b71))\n      mstore(0x04, 0x21)\n      revert(0x00, 0x24)\n    tag_197:\n      eq\n        /* \"test.sol\":8695:8966  if(ac == access.REVOKE){... */\n      iszero\n      tag_198\n      jumpi\n        /* \"test.sol\":8740:8764  accessForDoctor[_patKey] */\n      0x00\n      dup6\n      dup2\n      mstore\n        /* \"test.sol\":8740:8755  accessForDoctor */\n      0x06\n        /* \"test.sol\":8740:8764  accessForDoctor[_patKey] */\n      0x20\n      swap1\n      dup2\n      mstore\n      0x40\n      dup1\n      dup4\n      keccak256\n        /* \"test.sol\":8740:8773  accessForDoctor[_patKey][_docKey] */\n      dup8\n      dup5\n      mstore\n      swap1\n      swap2\n      mstore\n      swap1\n      keccak256\n      sload\n      0xff\n      and\n        /* \"test.sol\":8740:8781  accessForDoctor[_patKey][_docKey] == true */\n      iszero\n      iszero\n        /* \"test.sol\":8740:8773  accessForDoctor[_patKey][_docKey] */\n      0x01\n        /* \"test.sol\":8740:8781  accessForDoctor[_patKey][_docKey] == true */\n      eq\n        /* \"test.sol\":8732:8841  require(accessForDoctor[_patKey][_docKey] == true,... */\n      tag_199\n      jumpi\n      mload(0x40)\n      shl(0xe5, 0x461bcd)\n      dup2\n      mstore\n        /* \"#utility.yul\":16995:16997   */\n      0x20\n        /* \"test.sol\":8732:8841  require(accessForDoctor[_patKey][_docKey] == true,... */\n      0x04\n      dup3\n      add\n        /* \"#utility.yul\":16977:16998   */\n      mstore\n        /* \"#utility.yul\":17034:17036   */\n      0x23\n        /* \"#utility.yul\":17014:17032   */\n      0x24\n      dup3\n      add\n        /* \"#utility.yul\":17007:17037   */\n      mstore\n        /* \"#utility.yul\":17073:17107   */\n      0x4548522d41432d30323a2041636365737320776173206e6f742070726f766964\n        /* \"#utility.yul\":17053:17071   */\n      0x44\n      dup3\n      add\n        /* \"#utility.yul\":17046:17108   */\n      mstore\n      shl(0xe8, 0x656421)\n        /* \"#utility.yul\":17124:17142   */\n      0x64\n      dup3\n      add\n        /* \"#utility.yul\":17117:17150   */\n      mstore\n        /* \"#utility.yul\":17167:17186   */\n      0x84\n      add\n        /* \"test.sol\":8732:8841  require(accessForDoctor[_patKey][_docKey] == true,... */\n      tag_97\n        /* \"#utility.yul\":16967:17192   */\n      jump\n        /* \"test.sol\":8732:8841  require(accessForDoctor[_patKey][_docKey] == true,... */\n    tag_199:\n      pop\n        /* \"test.sol\":8891:8896  false */\n      0x00\n        /* \"test.sol\":8855:8879  accessForDoctor[_patKey] */\n      dup5\n      dup2\n      mstore\n        /* \"test.sol\":8855:8870  accessForDoctor */\n      0x06\n        /* \"test.sol\":8855:8879  accessForDoctor[_patKey] */\n      0x20\n      swap1\n      dup2\n      mstore\n      0x40\n      dup1\n      dup4\n      keccak256\n        /* \"test.sol\":8855:8888  accessForDoctor[_patKey][_docKey] */\n      dup7\n      dup5\n      mstore\n      dup3\n      mstore\n      swap2\n      dup3\n      swap1\n      keccak256\n        /* \"test.sol\":8855:8896  accessForDoctor[_patKey][_docKey] = false */\n      dup1\n      sload\n      not(0xff)\n      and\n      swap1\n      sstore\n        /* \"test.sol\":8910:8955  accessComment = \"Access is revoked to doctor\" */\n      dup2\n      mload\n      dup1\n      dup4\n      add\n      swap1\n      swap3\n      mstore\n      0x1b\n      dup3\n      mstore\n      0x416363657373206973207265766f6b656420746f20646f63746f720000000000\n      swap1\n      dup3\n      add\n      mstore\n        /* \"test.sol\":8695:8966  if(ac == access.REVOKE){... */\n    tag_198:\n        /* \"test.sol\":8980:9100  RecordEvents(... */\n      0xf4702a3b8b6c43f2fa41588e64688a0c0bc61f411971bd5ec9c64b828d4bccb0\n        /* \"test.sol\":9006:9019  accessComment */\n      dup2\n        /* \"test.sol\":9033:9040  _patKey */\n      dup7\n        /* \"test.sol\":9054:9061  _docKey */\n      dup7\n        /* \"test.sol\":9075:9090  block.timestamp */\n      timestamp\n        /* \"test.sol\":8980:9100  RecordEvents(... */\n      mload(0x40)\n      tag_162\n      swap5\n      swap4\n      swap3\n      swap2\n      swap1\n      tag_203\n      jump\t// in\n        /* \"test.sol\":2009:2064  mapping(uint => patienthealth) public patienthealthData */\n    tag_61:\n      mstore(0x20, 0x03)\n      0x00\n      swap1\n      dup2\n      mstore\n      0x40\n      swap1\n      keccak256\n      dup1\n      sload\n      dup2\n      swap1\n      tag_204\n      swap1\n      tag_101\n      jump\t// in\n    tag_204:\n      dup1\n      0x1f\n      add\n      0x20\n      dup1\n      swap2\n      div\n      mul\n      0x20\n      add\n      mload(0x40)\n      swap1\n      dup2\n      add\n      0x40\n      mstore\n      dup1\n      swap3\n      swap2\n      swap1\n      dup2\n      dup2\n      mstore\n      0x20\n      add\n      dup3\n      dup1\n      sload\n      tag_205\n      swap1\n      tag_101\n      jump\t// in\n    tag_205:\n      dup1\n      iszero\n      tag_206\n      jumpi\n      dup1\n      0x1f\n      lt\n      tag_207\n      jumpi\n      0x0100\n      dup1\n      dup4\n      sload\n      div\n      mul\n      dup4\n      mstore\n      swap2\n      0x20\n      add\n      swap2\n      jump(tag_206)\n    tag_207:\n      dup3\n      add\n      swap2\n      swap1\n      0x00\n      mstore\n      keccak256(0x00, 0x20)\n      swap1\n    tag_208:\n      dup2\n      sload\n      dup2\n      mstore\n      swap1\n      0x01\n      add\n      swap1\n      0x20\n      add\n      dup1\n      dup4\n      gt\n      tag_208\n      jumpi\n      dup3\n      swap1\n      sub\n      0x1f\n      and\n      dup3\n      add\n      swap2\n    tag_206:\n      pop\n      pop\n      pop\n      pop\n      pop\n      swap1\n      dup1\n      0x01\n      add\n      dup1\n      sload\n      tag_209\n      swap1\n      tag_101\n      jump\t// in\n    tag_209:\n      dup1\n      0x1f\n      add\n      0x20\n      dup1\n      swap2\n      div\n      mul\n      0x20\n      add\n      mload(0x40)\n      swap1\n      dup2\n      add\n      0x40\n      mstore\n      dup1\n      swap3\n      swap2\n      swap1\n      dup2\n      dup2\n      mstore\n      0x20\n      add\n      dup3\n      dup1\n      sload\n      tag_210\n      swap1\n      tag_101\n      jump\t// in\n    tag_210:\n      dup1\n      iszero\n      tag_211\n      jumpi\n      dup1\n      0x1f\n      lt\n      tag_212\n      jumpi\n      0x0100\n      dup1\n      dup4\n      sload\n      div\n      mul\n      dup4\n      mstore\n      swap2\n      0x20\n      add\n      swap2\n      jump(tag_211)\n    tag_212:\n      dup3\n      add\n      swap2\n      swap1\n      0x00\n      mstore\n      keccak256(0x00, 0x20)\n      swap1\n    tag_213:\n      dup2\n      sload\n      dup2\n      mstore\n      swap1\n      0x01\n      add\n      swap1\n      0x20\n      add\n      dup1\n      dup4\n      gt\n      tag_213\n      jumpi\n      dup3\n      swap1\n      sub\n      0x1f\n      and\n      dup3\n      add\n      swap2\n    tag_211:\n      pop\n      pop\n      pop\n      pop\n      pop\n      swap1\n      dup1\n      0x02\n      add\n      sload\n      swap1\n      dup1\n      0x03\n      add\n      sload\n      swap1\n      pop\n      dup5\n      jump\t// out\n        /* \"test.sol\":2132:2196  mapping(uint => mapping(uint => careGiver)) public careGiverData */\n    tag_66:\n      0x05\n      0x20\n      swap1\n      dup2\n      mstore\n      0x00\n      swap3\n      dup4\n      mstore\n      0x40\n      dup1\n      dup5\n      keccak256\n      swap1\n      swap2\n      mstore\n      swap1\n      dup3\n      mstore\n      swap1\n      keccak256\n      dup1\n      sload\n      dup2\n      swap1\n      tag_214\n      swap1\n      tag_101\n      jump\t// in\n    tag_214:\n      dup1\n      0x1f\n      add\n      0x20\n      dup1\n      swap2\n      div\n      mul\n      0x20\n      add\n      mload(0x40)\n      swap1\n      dup2\n      add\n      0x40\n      mstore\n      dup1\n      swap3\n      swap2\n      swap1\n      dup2\n      dup2\n      mstore\n      0x20\n      add\n      dup3\n      dup1\n      sload\n      tag_215\n      swap1\n      tag_101\n      jump\t// in\n    tag_215:\n      dup1\n      iszero\n      tag_216\n      jumpi\n      dup1\n      0x1f\n      lt\n      tag_217\n      jumpi\n      0x0100\n      dup1\n      dup4\n      sload\n      div\n      mul\n      dup4\n      mstore\n      swap2\n      0x20\n      add\n      swap2\n      jump(tag_216)\n    tag_217:\n      dup3\n      add\n      swap2\n      swap1\n      0x00\n      mstore\n      keccak256(0x00, 0x20)\n      swap1\n    tag_218:\n      dup2\n      sload\n      dup2\n      mstore\n      swap1\n      0x01\n      add\n      swap1\n      0x20\n      add\n      dup1\n      dup4\n      gt\n      tag_218\n      jumpi\n      dup3\n      swap1\n      sub\n      0x1f\n      and\n      dup3\n      add\n      swap2\n    tag_216:\n      pop\n      pop\n      pop\n      pop\n      pop\n      swap1\n      dup1\n      0x01\n      add\n      dup1\n      sload\n      tag_219\n      swap1\n      tag_101\n      jump\t// in\n    tag_219:\n      dup1\n      0x1f\n      add\n      0x20\n      dup1\n      swap2\n      div\n      mul\n      0x20\n      add\n      mload(0x40)\n      swap1\n      dup2\n      add\n      0x40\n      mstore\n      dup1\n      swap3\n      swap2\n      swap1\n      dup2\n      dup2\n      mstore\n      0x20\n      add\n      dup3\n      dup1\n      sload\n      tag_220\n      swap1\n      tag_101\n      jump\t// in\n    tag_220:\n      dup1\n      iszero\n      tag_221\n      jumpi\n      dup1\n      0x1f\n      lt\n      tag_222\n      jumpi\n      0x0100\n      dup1\n      dup4\n      sload\n      div\n      mul\n      dup4\n      mstore\n      swap2\n      0x20\n      add\n      swap2\n      jump(tag_221)\n    tag_222:\n      dup3\n      add\n      swap2\n      swap1\n      0x00\n      mstore\n      keccak256(0x00, 0x20)\n      swap1\n    tag_223:\n      dup2\n      sload\n      dup2\n      mstore\n      swap1\n      0x01\n      add\n      swap1\n      0x20\n      add\n      dup1\n      dup4\n      gt\n      tag_223\n      jumpi\n      dup3\n      swap1\n      sub\n      0x1f\n      and\n      dup3\n      add\n      swap2\n    tag_221:\n      pop\n      pop\n      pop\n      pop\n      pop\n      swap1\n      dup1\n      0x02\n      add\n      dup1\n      sload\n      tag_224\n      swap1\n      tag_101\n      jump\t// in\n    tag_224:\n      dup1\n      0x1f\n      add\n      0x20\n      dup1\n      swap2\n      div\n      mul\n      0x20\n      add\n      mload(0x40)\n      swap1\n      dup2\n      add\n      0x40\n      mstore\n      dup1\n      swap3\n      swap2\n      swap1\n      dup2\n      dup2\n      mstore\n      0x20\n      add\n      dup3\n      dup1\n      sload\n      tag_225\n      swap1\n      tag_101\n      jump\t// in\n    tag_225:\n      dup1\n      iszero\n      tag_226\n      jumpi\n      dup1\n      0x1f\n      lt\n      tag_227\n      jumpi\n      0x0100\n      dup1\n      dup4\n      sload\n      div\n      mul\n      dup4\n      mstore\n      swap2\n      0x20\n      add\n      swap2\n      jump(tag_226)\n    tag_227:\n      dup3\n      add\n      swap2\n      swap1\n      0x00\n      mstore\n      keccak256(0x00, 0x20)\n      swap1\n    tag_228:\n      dup2\n      sload\n      dup2\n      mstore\n      swap1\n      0x01\n      add\n      swap1\n      0x20\n      add\n      dup1\n      dup4\n      gt\n      tag_228\n      jumpi\n      dup3\n      swap1\n      sub\n      0x1f\n      and\n      dup3\n      add\n      swap2\n    tag_226:\n      pop\n      pop\n      pop\n      0x03\n      swap1\n      swap4\n      add\n      sload\n      swap2\n      swap3\n      pop\n      pop\n      0xff\n      and\n      dup5\n      jump\t// out\n        /* \"test.sol\":6037:6449  function registerPatientHealth(... */\n    tag_72:\n        /* \"test.sol\":1600:1613  patientAccess */\n      0x00\n        /* \"test.sol\":1600:1622  patientAccess[_patKey] */\n      dup2\n      dup2\n      mstore\n      0x20\n      dup2\n      swap1\n      mstore\n      0x40\n      swap1\n      keccak256\n        /* \"test.sol\":1600:1630  patientAccess[_patKey].isExist */\n      0x04\n      add\n      sload\n        /* \"test.sol\":6223:6229  patKey */\n      dup2\n      swap1\n        /* \"test.sol\":1600:1630  patientAccess[_patKey].isExist */\n      0xff\n      and\n        /* \"test.sol\":1600:1638  patientAccess[_patKey].isExist == true */\n      iszero\n      iszero\n        /* \"test.sol\":1600:1630  patientAccess[_patKey].isExist */\n      0x01\n        /* \"test.sol\":1600:1638  patientAccess[_patKey].isExist == true */\n      eq\n        /* \"test.sol\":1592:1682  require(patientAccess[_patKey].isExist == true, ... */\n      tag_230\n      jumpi\n      mload(0x40)\n      shl(0xe5, 0x461bcd)\n      dup2\n      mstore\n      0x04\n      add\n      tag_97\n      swap1\n      tag_98\n      jump\t// in\n    tag_230:\n        /* \"test.sol\":6268:6316  patienthealth(allergies,lifesaver,height,weight) */\n      0x40\n      dup1\n      mload\n      0x80\n      dup2\n      add\n      dup3\n      mstore\n      dup8\n      dup2\n      mstore\n      0x20\n      dup1\n      dup3\n      add\n      dup9\n      swap1\n      mstore\n      dup2\n      dup4\n      add\n      dup8\n      swap1\n      mstore\n      0x60\n      dup3\n      add\n      dup7\n      swap1\n      mstore\n      0x00\n        /* \"test.sol\":6240:6265  patienthealthData[patKey] */\n      dup6\n      dup2\n      mstore\n        /* \"test.sol\":6240:6257  patienthealthData */\n      0x03\n        /* \"test.sol\":6240:6265  patienthealthData[patKey] */\n      dup3\n      mstore\n      swap3\n      swap1\n      swap3\n      keccak256\n        /* \"test.sol\":6240:6316  patienthealthData[patKey] = patienthealth(allergies,lifesaver,height,weight) */\n      dup2\n      mload\n      dup1\n      mload\n        /* \"test.sol\":6268:6316  patienthealth(allergies,lifesaver,height,weight) */\n      swap3\n      swap4\n        /* \"test.sol\":6240:6265  patienthealthData[patKey] */\n      swap2\n      swap3\n        /* \"test.sol\":6240:6316  patienthealthData[patKey] = patienthealth(allergies,lifesaver,height,weight) */\n      tag_233\n      swap3\n        /* \"test.sol\":6240:6265  patienthealthData[patKey] */\n      dup5\n      swap3\n        /* \"test.sol\":6240:6316  patienthealthData[patKey] = patienthealth(allergies,lifesaver,height,weight) */\n      add\n      swap1\n      tag_157\n      jump\t// in\n    tag_233:\n      pop\n      0x20\n      dup3\n      dup2\n      add\n      mload\n      dup1\n      mload\n      tag_234\n      swap3\n      0x01\n      dup6\n      add\n      swap3\n      add\n      swap1\n      tag_157\n      jump\t// in\n    tag_234:\n      pop\n      0x40\n      dup3\n      add\n      mload\n      dup2\n      0x02\n      add\n      sstore\n      0x60\n      dup3\n      add\n      mload\n      dup2\n      0x03\n      add\n      sstore\n      swap1\n      pop\n      pop\n      0x00\n      dup1\n      mload\n      0x20\n      data_f1783972c13bbde284b8765b8e27686842dfd940022613858bd0f693b0907129\n      dup4\n      codecopy\n      dup2\n      mload\n      swap2\n      mstore\n        /* \"test.sol\":6360:6366  patKey */\n      dup3\n        /* \"test.sol\":6423:6438  block.timestamp */\n      timestamp\n        /* \"test.sol\":6331:6439  patregistration(... */\n      mload(0x40)\n      tag_183\n      swap3\n      swap2\n      swap1\n        /* \"#utility.yul\":20909:20934   */\n      swap2\n      dup3\n      mstore\n        /* \"#utility.yul\":20970:20972   */\n      0x60\n        /* \"#utility.yul\":20965:20967   */\n      0x20\n        /* \"#utility.yul\":20950:20968   */\n      dup4\n      add\n        /* \"#utility.yul\":20943:20973   */\n      dup2\n      swap1\n      mstore\n        /* \"#utility.yul\":21009:21011   */\n      0x1b\n        /* \"#utility.yul\":20989:21007   */\n      swap1\n      dup4\n      add\n        /* \"#utility.yul\":20982:21012   */\n      mstore\n        /* \"#utility.yul\":21049:21078   */\n      0x50617469656e74204865616c7468204461746120757064617465640000000000\n        /* \"#utility.yul\":21043:21046   */\n      0x80\n        /* \"#utility.yul\":21028:21047   */\n      dup4\n      add\n        /* \"#utility.yul\":21021:21079   */\n      mstore\n        /* \"#utility.yul\":21146:21148   */\n      0x40\n        /* \"#utility.yul\":21131:21149   */\n      dup3\n      add\n        /* \"#utility.yul\":21124:21158   */\n      mstore\n        /* \"#utility.yul\":21111:21114   */\n      0xa0\n        /* \"#utility.yul\":21096:21115   */\n      add\n      swap1\n        /* \"#utility.yul\":20899:21164   */\n      jump\n        /* \"test.sol\":3920:5552  function registerDoctor(... */\n    tag_76:\n        /* \"test.sol\":4219:4230  uint docKey */\n      0x00\n        /* \"test.sol\":4265:4277  doctorMobile */\n      dup7\n        /* \"test.sol\":4278:4289  doctorEmail */\n      dup9\n        /* \"test.sol\":4248:4290  abi.encodePacked(doctorMobile,doctorEmail) */\n      add(0x20, mload(0x40))\n      tag_238\n      swap3\n      swap2\n      swap1\n      tag_239\n      jump\t// in\n    tag_238:\n      0x40\n      dup1\n      mload\n      not(0x1f)\n      dup2\n      dup5\n      sub\n      add\n      dup2\n      mstore\n      swap2\n      swap1\n      mstore\n        /* \"test.sol\":4238:4291  keccak256(abi.encodePacked(doctorMobile,doctorEmail)) */\n      dup1\n      mload\n        /* \"test.sol\":4248:4290  abi.encodePacked(doctorMobile,doctorEmail) */\n      0x20\n        /* \"test.sol\":4238:4291  keccak256(abi.encodePacked(doctorMobile,doctorEmail)) */\n      swap1\n      swap2\n      add\n      keccak256\n      swap1\n      pop\n        /* \"test.sol\":4302:4324  string memory comments */\n      0x60\n        /* \"test.sol\":4233:4292  uint(keccak256(abi.encodePacked(doctorMobile,doctorEmail))) */\n      0x00\n        /* \"test.sol\":4337:4341  reup */\n      dup4\n        /* \"test.sol\":4337:4365  reup == stateChange.REGISTER */\n      0x01\n      dup2\n      gt\n      iszero\n      tag_241\n      jumpi\n      mstore(0x00, shl(0xe0, 0x4e487b71))\n      mstore(0x04, 0x21)\n      revert(0x00, 0x24)\n    tag_241:\n      eq\n        /* \"test.sol\":4334:4872  if(reup == stateChange.REGISTER){... */\n      iszero\n      tag_242\n      jumpi\n        /* \"test.sol\":4459:4470  doctorEmail */\n      dup9\n        /* \"test.sol\":4443:4472  keccak256(bytes(doctorEmail)) */\n      dup1\n      mload\n      swap1\n      0x20\n      add\n      keccak256\n        /* \"test.sol\":4405:4417  doctorAccess */\n      0x01\n        /* \"test.sol\":4405:4425  doctorAccess[docKey] */\n      0x00\n        /* \"test.sol\":4418:4424  docKey */\n      dup5\n        /* \"test.sol\":4405:4425  doctorAccess[docKey] */\n      dup2\n      mstore\n      0x20\n      add\n      swap1\n      dup2\n      mstore\n      0x20\n      add\n      0x00\n      keccak256\n        /* \"test.sol\":4405:4437  doctorAccess[docKey].doctorEmail */\n      0x01\n      add\n        /* \"test.sol\":4389:4439  keccak256(bytes(doctorAccess[docKey].doctorEmail)) */\n      mload(0x40)\n      tag_243\n      swap2\n      swap1\n      tag_154\n      jump\t// in\n    tag_243:\n      mload(0x40)\n      dup1\n      swap2\n      sub\n      swap1\n      keccak256\n        /* \"test.sol\":4389:4472  keccak256(bytes(doctorAccess[docKey].doctorEmail)) != keccak256(bytes(doctorEmail)) */\n      eq\n      iszero\n        /* \"test.sol\":4380:4512  require (keccak256(bytes(doctorAccess[docKey].doctorEmail)) != keccak256(bytes(doctorEmail)), \"EHR-RD-01: Doctor already Enrolled.\") */\n      tag_244\n      jumpi\n      mload(0x40)\n      shl(0xe5, 0x461bcd)\n      dup2\n      mstore\n      0x04\n      add\n      tag_97\n      swap1\n      tag_246\n      jump\t// in\n    tag_244:\n        /* \"test.sol\":4606:4618  doctorMobile */\n      dup8\n        /* \"test.sol\":4590:4620  keccak256(bytes(doctorMobile)) */\n      dup1\n      mload\n      swap1\n      0x20\n      add\n      keccak256\n        /* \"test.sol\":4551:4563  doctorAccess */\n      0x01\n        /* \"test.sol\":4551:4571  doctorAccess[docKey] */\n      0x00\n        /* \"test.sol\":4564:4570  docKey */\n      dup5\n        /* \"test.sol\":4551:4571  doctorAccess[docKey] */\n      dup2\n      mstore\n      0x20\n      add\n      swap1\n      dup2\n      mstore\n      0x20\n      add\n      0x00\n      keccak256\n        /* \"test.sol\":4551:4584  doctorAccess[docKey].doctorMobile */\n      0x02\n      add\n        /* \"test.sol\":4535:4586  keccak256(bytes(doctorAccess[docKey].doctorMobile)) */\n      mload(0x40)\n      tag_247\n      swap2\n      swap1\n      tag_154\n      jump\t// in\n    tag_247:\n      mload(0x40)\n      dup1\n      swap2\n      sub\n      swap1\n      keccak256\n        /* \"test.sol\":4535:4620  keccak256(bytes(doctorAccess[docKey].doctorMobile)) != keccak256(bytes(doctorMobile)) */\n      eq\n      iszero\n        /* \"test.sol\":4526:4660  require (keccak256(bytes(doctorAccess[docKey].doctorMobile)) != keccak256(bytes(doctorMobile)), \"EHR-RD-02: Doctor already Enrolled.\") */\n      tag_248\n      jumpi\n      mload(0x40)\n      shl(0xe5, 0x461bcd)\n      dup2\n      mstore\n      0x04\n      add\n      tag_97\n      swap1\n      tag_250\n      jump\t// in\n    tag_248:\n        /* \"test.sol\":4697:4810  doctorEnroll(doctorName,doctorEmail,doctorMobile,doctorPass,doctorCred,DoctorType(_doctorType),Sex(_gender),true) */\n      mload(0x40)\n      dup1\n      0x0100\n      add\n      0x40\n      mstore\n      dup1\n        /* \"test.sol\":4710:4720  doctorName */\n      dup12\n        /* \"test.sol\":4697:4810  doctorEnroll(doctorName,doctorEmail,doctorMobile,doctorPass,doctorCred,DoctorType(_doctorType),Sex(_gender),true) */\n      dup2\n      mstore\n      0x20\n      add\n        /* \"test.sol\":4721:4732  doctorEmail */\n      dup11\n        /* \"test.sol\":4697:4810  doctorEnroll(doctorName,doctorEmail,doctorMobile,doctorPass,doctorCred,DoctorType(_doctorType),Sex(_gender),true) */\n      dup2\n      mstore\n      0x20\n      add\n        /* \"test.sol\":4733:4745  doctorMobile */\n      dup10\n        /* \"test.sol\":4697:4810  doctorEnroll(doctorName,doctorEmail,doctorMobile,doctorPass,doctorCred,DoctorType(_doctorType),Sex(_gender),true) */\n      dup2\n      mstore\n      0x20\n      add\n        /* \"test.sol\":4746:4756  doctorPass */\n      dup9\n        /* \"test.sol\":4697:4810  doctorEnroll(doctorName,doctorEmail,doctorMobile,doctorPass,doctorCred,DoctorType(_doctorType),Sex(_gender),true) */\n      dup2\n      mstore\n      0x20\n      add\n        /* \"test.sol\":4757:4767  doctorCred */\n      dup8\n        /* \"test.sol\":4697:4810  doctorEnroll(doctorName,doctorEmail,doctorMobile,doctorPass,doctorCred,DoctorType(_doctorType),Sex(_gender),true) */\n      dup2\n      mstore\n      0x20\n      add\n        /* \"test.sol\":4779:4790  _doctorType */\n      dup7\n        /* \"test.sol\":4697:4810  doctorEnroll(doctorName,doctorEmail,doctorMobile,doctorPass,doctorCred,DoctorType(_doctorType),Sex(_gender),true) */\n      0x04\n      dup2\n      gt\n      iszero\n      tag_251\n      jumpi\n      mstore(0x00, shl(0xe0, 0x4e487b71))\n      mstore(0x04, 0x21)\n      revert(0x00, 0x24)\n    tag_251:\n      dup2\n      mstore\n      0x20\n      add\n        /* \"test.sol\":4796:4803  _gender */\n      dup6\n        /* \"test.sol\":4697:4810  doctorEnroll(doctorName,doctorEmail,doctorMobile,doctorPass,doctorCred,DoctorType(_doctorType),Sex(_gender),true) */\n      0x02\n      dup2\n      gt\n      iszero\n      tag_252\n      jumpi\n      mstore(0x00, shl(0xe0, 0x4e487b71))\n      mstore(0x04, 0x21)\n      revert(0x00, 0x24)\n    tag_252:\n      dup2\n      mstore\n        /* \"test.sol\":4805:4809  true */\n      0x01\n        /* \"test.sol\":4697:4810  doctorEnroll(doctorName,doctorEmail,doctorMobile,doctorPass,doctorCred,DoctorType(_doctorType),Sex(_gender),true) */\n      0x20\n      swap2\n      dup3\n      add\n      dup2\n      swap1\n      mstore\n      0x00\n        /* \"test.sol\":4674:4694  doctorAccess[docKey] */\n      dup6\n      dup2\n      mstore\n      swap1\n      dup3\n      mstore\n      0x40\n      swap1\n      keccak256\n        /* \"test.sol\":4674:4810  doctorAccess[docKey] = doctorEnroll(doctorName,doctorEmail,doctorMobile,doctorPass,doctorCred,DoctorType(_doctorType),Sex(_gender),true) */\n      dup3\n      mload\n      dup1\n      mload\n        /* \"test.sol\":4674:4694  doctorAccess[docKey] */\n      swap2\n      swap3\n        /* \"test.sol\":4674:4810  doctorAccess[docKey] = doctorEnroll(doctorName,doctorEmail,doctorMobile,doctorPass,doctorCred,DoctorType(_doctorType),Sex(_gender),true) */\n      tag_253\n      swap3\n        /* \"test.sol\":4674:4694  doctorAccess[docKey] */\n      dup5\n      swap3\n        /* \"test.sol\":4674:4810  doctorAccess[docKey] = doctorEnroll(doctorName,doctorEmail,doctorMobile,doctorPass,doctorCred,DoctorType(_doctorType),Sex(_gender),true) */\n      swap1\n      swap2\n      add\n      swap1\n      tag_157\n      jump\t// in\n    tag_253:\n      pop\n      0x20\n      dup3\n      dup2\n      add\n      mload\n      dup1\n      mload\n      tag_254\n      swap3\n      0x01\n      dup6\n      add\n      swap3\n      add\n      swap1\n      tag_157\n      jump\t// in\n    tag_254:\n      pop\n      0x40\n      dup3\n      add\n      mload\n      dup1\n      mload\n      tag_255\n      swap2\n      0x02\n      dup5\n      add\n      swap2\n      0x20\n      swap1\n      swap2\n      add\n      swap1\n      tag_157\n      jump\t// in\n    tag_255:\n      pop\n      0x60\n      dup3\n      add\n      mload\n      dup1\n      mload\n      tag_256\n      swap2\n      0x03\n      dup5\n      add\n      swap2\n      0x20\n      swap1\n      swap2\n      add\n      swap1\n      tag_157\n      jump\t// in\n    tag_256:\n      pop\n      0x80\n      dup3\n      add\n      mload\n      dup1\n      mload\n      tag_257\n      swap2\n      0x04\n      dup5\n      add\n      swap2\n      0x20\n      swap1\n      swap2\n      add\n      swap1\n      tag_157\n      jump\t// in\n    tag_257:\n      pop\n      0xa0\n      dup3\n      add\n      mload\n      0x05\n      dup3\n      add\n      dup1\n      sload\n      not(0xff)\n      and\n      0x01\n      dup4\n      0x04\n      dup2\n      gt\n      iszero\n      tag_258\n      jumpi\n      mstore(0x00, shl(0xe0, 0x4e487b71))\n      mstore(0x04, 0x21)\n      revert(0x00, 0x24)\n    tag_258:\n      mul\n      or\n      swap1\n      sstore\n      pop\n      0xc0\n      dup3\n      add\n      mload\n      0x05\n      dup3\n      add\n      dup1\n      sload\n      not(0xff00)\n      and\n      0x0100\n      dup4\n      0x02\n      dup2\n      gt\n      iszero\n      tag_259\n      jumpi\n      mstore(0x00, shl(0xe0, 0x4e487b71))\n      mstore(0x04, 0x21)\n      revert(0x00, 0x24)\n    tag_259:\n      mul\n      or\n      swap1\n      sstore\n      pop\n      0xe0\n      swap2\n      swap1\n      swap2\n      add\n      mload\n      0x05\n      swap1\n      swap2\n      add\n      dup1\n      sload\n      swap2\n      iszero\n      iszero\n      0x010000\n      mul\n      not(0xff0000)\n      swap1\n      swap3\n      and\n      swap2\n      swap1\n      swap2\n      or\n      swap1\n      sstore\n      pop\n        /* \"test.sol\":4824:4861  comments = \"Doctor Registration Done\" */\n      0x40\n      dup1\n      mload\n      dup1\n      dup3\n      add\n      swap1\n      swap2\n      mstore\n      0x18\n      dup2\n      mstore\n      0x446f63746f7220526567697374726174696f6e20446f6e650000000000000000\n      0x20\n      dup3\n      add\n      mstore\n        /* \"test.sol\":4334:4872  if(reup == stateChange.REGISTER){... */\n    tag_242:\n        /* \"test.sol\":4892:4910  stateChange.UPDATE */\n      0x01\n        /* \"test.sol\":4884:4888  reup */\n      dup4\n        /* \"test.sol\":4884:4910  reup == stateChange.UPDATE */\n      0x01\n      dup2\n      gt\n      iszero\n      tag_261\n      jumpi\n      mstore(0x00, shl(0xe0, 0x4e487b71))\n      mstore(0x04, 0x21)\n      revert(0x00, 0x24)\n    tag_261:\n      eq\n        /* \"test.sol\":4881:5444  if(reup == stateChange.UPDATE){... */\n      iszero\n      tag_262\n      jumpi\n        /* \"test.sol\":5004:5015  doctorEmail */\n      dup9\n        /* \"test.sol\":4988:5017  keccak256(bytes(doctorEmail)) */\n      dup1\n      mload\n      swap1\n      0x20\n      add\n      keccak256\n        /* \"test.sol\":4950:4962  doctorAccess */\n      0x01\n        /* \"test.sol\":4950:4970  doctorAccess[docKey] */\n      0x00\n        /* \"test.sol\":4963:4969  docKey */\n      dup5\n        /* \"test.sol\":4950:4970  doctorAccess[docKey] */\n      dup2\n      mstore\n      0x20\n      add\n      swap1\n      dup2\n      mstore\n      0x20\n      add\n      0x00\n      keccak256\n        /* \"test.sol\":4950:4982  doctorAccess[docKey].doctorEmail */\n      0x01\n      add\n        /* \"test.sol\":4934:4984  keccak256(bytes(doctorAccess[docKey].doctorEmail)) */\n      mload(0x40)\n      tag_263\n      swap2\n      swap1\n      tag_154\n      jump\t// in\n    tag_263:\n      mload(0x40)\n      dup1\n      swap2\n      sub\n      swap1\n      keccak256\n        /* \"test.sol\":4934:5017  keccak256(bytes(doctorAccess[docKey].doctorEmail)) == keccak256(bytes(doctorEmail)) */\n      eq\n        /* \"test.sol\":4925:5057  require (keccak256(bytes(doctorAccess[docKey].doctorEmail)) == keccak256(bytes(doctorEmail)), \"EHR-RD-01: Doctor already Enrolled.\") */\n      tag_264\n      jumpi\n      mload(0x40)\n      shl(0xe5, 0x461bcd)\n      dup2\n      mstore\n      0x04\n      add\n      tag_97\n      swap1\n      tag_246\n      jump\t// in\n    tag_264:\n        /* \"test.sol\":5151:5163  doctorMobile */\n      dup8\n        /* \"test.sol\":5135:5165  keccak256(bytes(doctorMobile)) */\n      dup1\n      mload\n      swap1\n      0x20\n      add\n      keccak256\n        /* \"test.sol\":5096:5108  doctorAccess */\n      0x01\n        /* \"test.sol\":5096:5116  doctorAccess[docKey] */\n      0x00\n        /* \"test.sol\":5109:5115  docKey */\n      dup5\n        /* \"test.sol\":5096:5116  doctorAccess[docKey] */\n      dup2\n      mstore\n      0x20\n      add\n      swap1\n      dup2\n      mstore\n      0x20\n      add\n      0x00\n      keccak256\n        /* \"test.sol\":5096:5129  doctorAccess[docKey].doctorMobile */\n      0x02\n      add\n        /* \"test.sol\":5080:5131  keccak256(bytes(doctorAccess[docKey].doctorMobile)) */\n      mload(0x40)\n      tag_266\n      swap2\n      swap1\n      tag_154\n      jump\t// in\n    tag_266:\n      mload(0x40)\n      dup1\n      swap2\n      sub\n      swap1\n      keccak256\n        /* \"test.sol\":5080:5165  keccak256(bytes(doctorAccess[docKey].doctorMobile)) == keccak256(bytes(doctorMobile)) */\n      eq\n        /* \"test.sol\":5071:5205  require (keccak256(bytes(doctorAccess[docKey].doctorMobile)) == keccak256(bytes(doctorMobile)), \"EHR-RD-02: Doctor already Enrolled.\") */\n      tag_267\n      jumpi\n      mload(0x40)\n      shl(0xe5, 0x461bcd)\n      dup2\n      mstore\n      0x04\n      add\n      tag_97\n      swap1\n      tag_250\n      jump\t// in\n    tag_267:\n        /* \"test.sol\":5219:5239  doctorAccess[docKey] */\n      0x00\n      dup3\n      dup2\n      mstore\n        /* \"test.sol\":5219:5231  doctorAccess */\n      0x01\n        /* \"test.sol\":5219:5239  doctorAccess[docKey] */\n      0x20\n      swap1\n      dup2\n      mstore\n      0x40\n      swap1\n      swap2\n      keccak256\n        /* \"test.sol\":5219:5263  doctorAccess[docKey].doctorName = doctorName */\n      dup12\n      mload\n      tag_269\n      swap3\n      dup14\n      add\n      swap1\n      tag_157\n      jump\t// in\n    tag_269:\n      pop\n        /* \"test.sol\":5277:5297  doctorAccess[docKey] */\n      0x00\n      dup3\n      dup2\n      mstore\n        /* \"test.sol\":5277:5289  doctorAccess */\n      0x01\n        /* \"test.sol\":5277:5297  doctorAccess[docKey] */\n      0x20\n      dup2\n      dup2\n      mstore\n      0x40\n      swap1\n      swap3\n      keccak256\n        /* \"test.sol\":5277:5323  doctorAccess[docKey].doctorEmail = doctorEmail */\n      dup12\n      mload\n      tag_270\n      swap4\n        /* \"test.sol\":5277:5309  doctorAccess[docKey].doctorEmail */\n      swap2\n      swap1\n      swap3\n      add\n      swap2\n        /* \"test.sol\":5277:5323  doctorAccess[docKey].doctorEmail = doctorEmail */\n      swap1\n      dup13\n      add\n      swap1\n      tag_157\n      jump\t// in\n    tag_270:\n      pop\n        /* \"test.sol\":5337:5357  doctorAccess[docKey] */\n      0x00\n      dup3\n      dup2\n      mstore\n        /* \"test.sol\":5337:5349  doctorAccess */\n      0x01\n        /* \"test.sol\":5337:5357  doctorAccess[docKey] */\n      0x20\n      swap1\n      dup2\n      mstore\n      0x40\n      swap1\n      swap2\n      keccak256\n        /* \"test.sol\":5337:5385  doctorAccess[docKey].doctorMobile = doctorMobile */\n      dup10\n      mload\n      tag_271\n      swap3\n        /* \"test.sol\":5337:5370  doctorAccess[docKey].doctorMobile */\n      0x02\n      swap1\n      swap3\n      add\n      swap2\n        /* \"test.sol\":5337:5385  doctorAccess[docKey].doctorMobile = doctorMobile */\n      dup12\n      add\n      swap1\n      tag_157\n      jump\t// in\n    tag_271:\n      pop\n      pop\n        /* \"test.sol\":5399:5433  comments = \"Doctor Record Updated\" */\n      0x40\n      dup1\n      mload\n      dup1\n      dup3\n      add\n      swap1\n      swap2\n      mstore\n      0x15\n      dup2\n      mstore\n      shl(0x5a, 0x111bd8dd1bdc88149958dbdc9908155c19185d1959)\n      0x20\n      dup3\n      add\n      mstore\n        /* \"test.sol\":4881:5444  if(reup == stateChange.UPDATE){... */\n    tag_262:\n      0x00\n      dup1\n      mload\n      0x20\n      data_f1783972c13bbde284b8765b8e27686842dfd940022613858bd0f693b0907129\n      dup4\n      codecopy\n      dup2\n      mload\n      swap2\n      mstore\n        /* \"test.sol\":5487:5493  docKey */\n      dup3\n        /* \"test.sol\":5507:5515  comments */\n      dup3\n        /* \"test.sol\":5529:5544  block.timestamp */\n      timestamp\n        /* \"test.sol\":5458:5545  patregistration(... */\n      mload(0x40)\n      tag_272\n      swap4\n      swap3\n      swap2\n      swap1\n      tag_273\n      jump\t// in\n    tag_272:\n      mload(0x40)\n      dup1\n      swap2\n      sub\n      swap1\n      log1\n        /* \"test.sol\":3920:5552  function registerDoctor(... */\n      pop\n      pop\n      pop\n      pop\n      pop\n      pop\n      pop\n      pop\n      pop\n      pop\n      jump\t// out\n        /* \"test.sol\":5593:6031  function registerPatientLoc(... */\n    tag_80:\n        /* \"test.sol\":1600:1613  patientAccess */\n      0x00\n        /* \"test.sol\":1600:1622  patientAccess[_patKey] */\n      dup2\n      dup2\n      mstore\n      0x20\n      dup2\n      swap1\n      mstore\n      0x40\n      swap1\n      keccak256\n        /* \"test.sol\":1600:1630  patientAccess[_patKey].isExist */\n      0x04\n      add\n      sload\n        /* \"test.sol\":5810:5816  patKey */\n      dup2\n      swap1\n        /* \"test.sol\":1600:1630  patientAccess[_patKey].isExist */\n      0xff\n      and\n        /* \"test.sol\":1600:1638  patientAccess[_patKey].isExist == true */\n      iszero\n      iszero\n        /* \"test.sol\":1600:1630  patientAccess[_patKey].isExist */\n      0x01\n        /* \"test.sol\":1600:1638  patientAccess[_patKey].isExist == true */\n      eq\n        /* \"test.sol\":1592:1682  require(patientAccess[_patKey].isExist == true, ... */\n      tag_275\n      jumpi\n      mload(0x40)\n      shl(0xe5, 0x461bcd)\n      dup2\n      mstore\n      0x04\n      add\n      tag_97\n      swap1\n      tag_98\n      jump\t// in\n    tag_275:\n        /* \"test.sol\":5852:5899  patientGeo(city,state,country,landmark,pincode) */\n      0x40\n      dup1\n      mload\n      0xa0\n      dup2\n      add\n      dup3\n      mstore\n      dup9\n      dup2\n      mstore\n      0x20\n      dup1\n      dup3\n      add\n      dup10\n      swap1\n      mstore\n      dup2\n      dup4\n      add\n      dup9\n      swap1\n      mstore\n      0x60\n      dup3\n      add\n      dup8\n      swap1\n      mstore\n      0x80\n      dup3\n      add\n      dup7\n      swap1\n      mstore\n      0x00\n        /* \"test.sol\":5827:5849  patientLocData[patKey] */\n      dup6\n      dup2\n      mstore\n        /* \"test.sol\":5827:5841  patientLocData */\n      0x02\n        /* \"test.sol\":5827:5849  patientLocData[patKey] */\n      dup3\n      mstore\n      swap3\n      swap1\n      swap3\n      keccak256\n        /* \"test.sol\":5827:5899  patientLocData[patKey] = patientGeo(city,state,country,landmark,pincode) */\n      dup2\n      mload\n      dup1\n      mload\n        /* \"test.sol\":5852:5899  patientGeo(city,state,country,landmark,pincode) */\n      swap3\n      swap4\n        /* \"test.sol\":5827:5849  patientLocData[patKey] */\n      swap2\n      swap3\n        /* \"test.sol\":5827:5899  patientLocData[patKey] = patientGeo(city,state,country,landmark,pincode) */\n      tag_278\n      swap3\n        /* \"test.sol\":5827:5849  patientLocData[patKey] */\n      dup5\n      swap3\n        /* \"test.sol\":5827:5899  patientLocData[patKey] = patientGeo(city,state,country,landmark,pincode) */\n      add\n      swap1\n      tag_157\n      jump\t// in\n    tag_278:\n      pop\n      0x20\n      dup3\n      dup2\n      add\n      mload\n      dup1\n      mload\n      tag_279\n      swap3\n      0x01\n      dup6\n      add\n      swap3\n      add\n      swap1\n      tag_157\n      jump\t// in\n    tag_279:\n      pop\n      0x40\n      dup3\n      add\n      mload\n      dup1\n      mload\n      tag_280\n      swap2\n      0x02\n      dup5\n      add\n      swap2\n      0x20\n      swap1\n      swap2\n      add\n      swap1\n      tag_157\n      jump\t// in\n    tag_280:\n      pop\n      0x60\n      dup3\n      add\n      mload\n      dup1\n      mload\n      tag_281\n      swap2\n      0x03\n      dup5\n      add\n      swap2\n      0x20\n      swap1\n      swap2\n      add\n      swap1\n      tag_157\n      jump\t// in\n    tag_281:\n      pop\n      0x80\n      swap2\n      dup3\n      add\n      mload\n      0x04\n      swap1\n      swap2\n      add\n      sstore\n        /* \"test.sol\":5914:6024  patregistration(... */\n      0x40\n      dup1\n      mload\n        /* \"#utility.yul\":19909:19934   */\n      dup5\n      dup2\n      mstore\n        /* \"#utility.yul\":19970:19972   */\n      0x60\n        /* \"#utility.yul\":19965:19967   */\n      0x20\n        /* \"#utility.yul\":19950:19968   */\n      dup3\n      add\n        /* \"#utility.yul\":19943:19973   */\n      dup2\n      swap1\n      mstore\n        /* \"#utility.yul\":20009:20011   */\n      0x1d\n        /* \"#utility.yul\":19989:20007   */\n      swap1\n      dup3\n      add\n        /* \"#utility.yul\":19982:20012   */\n      mstore\n        /* \"#utility.yul\":20049:20080   */\n      0x50617469656e74204c6f636174696f6e20446174612075706461746564000000\n        /* \"#utility.yul\":20028:20047   */\n      swap3\n      dup2\n      add\n        /* \"#utility.yul\":20021:20081   */\n      swap3\n      swap1\n      swap3\n      mstore\n        /* \"test.sol\":6008:6023  block.timestamp */\n      timestamp\n        /* \"#utility.yul\":20133:20151   */\n      swap1\n      dup3\n      add\n        /* \"#utility.yul\":20126:20160   */\n      mstore\n      0x00\n      dup1\n      mload\n      0x20\n      data_f1783972c13bbde284b8765b8e27686842dfd940022613858bd0f693b0907129\n      dup4\n      codecopy\n      dup2\n      mload\n      swap2\n      mstore\n        /* \"test.sol\":5914:6024  patregistration(... */\n      swap1\n        /* \"#utility.yul\":20113:20116   */\n      0xa0\n        /* \"#utility.yul\":20098:20117   */\n      add\n        /* \"test.sol\":5914:6024  patregistration(... */\n    tag_282:\n      mload(0x40)\n      dup1\n      swap2\n      sub\n      swap1\n      log1\n        /* \"test.sol\":5593:6031  function registerPatientLoc(... */\n      pop\n      pop\n      pop\n      pop\n      pop\n      pop\n      pop\n      jump\t// out\n        /* \"test.sol\":2295:3891  function registerPatients(... */\n    tag_84:\n        /* \"test.sol\":2513:2528  uint patientKey */\n      0x00\n        /* \"test.sol\":2563:2576  patientMobile */\n      dup4\n        /* \"test.sol\":2577:2589  patientEmail */\n      dup6\n        /* \"test.sol\":2546:2590  abi.encodePacked(patientMobile,patientEmail) */\n      add(0x20, mload(0x40))\n      tag_285\n      swap3\n      swap2\n      swap1\n      tag_239\n      jump\t// in\n    tag_285:\n      0x40\n      dup1\n      mload\n      not(0x1f)\n      dup2\n      dup5\n      sub\n      add\n      dup2\n      mstore\n      swap2\n      swap1\n      mstore\n        /* \"test.sol\":2536:2591  keccak256(abi.encodePacked(patientMobile,patientEmail)) */\n      dup1\n      mload\n        /* \"test.sol\":2546:2590  abi.encodePacked(patientMobile,patientEmail) */\n      0x20\n        /* \"test.sol\":2536:2591  keccak256(abi.encodePacked(patientMobile,patientEmail)) */\n      swap1\n      swap2\n      add\n      keccak256\n      swap1\n      pop\n        /* \"test.sol\":2602:2624  string memory comments */\n      0x60\n        /* \"test.sol\":2531:2592  uint(keccak256(abi.encodePacked(patientMobile,patientEmail))) */\n      0x00\n        /* \"test.sol\":2637:2641  reup */\n      dup4\n        /* \"test.sol\":2637:2665  reup == stateChange.REGISTER */\n      0x01\n      dup2\n      gt\n      iszero\n      tag_287\n      jumpi\n      mstore(0x00, shl(0xe0, 0x4e487b71))\n      mstore(0x04, 0x21)\n      revert(0x00, 0x24)\n    tag_287:\n      eq\n        /* \"test.sol\":2634:3151  if(reup == stateChange.REGISTER){... */\n      iszero\n      tag_288\n      jumpi\n        /* \"test.sol\":2765:2777  patientEmail */\n      dup6\n        /* \"test.sol\":2749:2779  keccak256(bytes(patientEmail)) */\n      dup1\n      mload\n      swap1\n      0x20\n      add\n      keccak256\n        /* \"test.sol\":2705:2718  patientAccess */\n      0x00\n        /* \"test.sol\":2705:2730  patientAccess[patientKey] */\n      dup1\n        /* \"test.sol\":2719:2729  patientKey */\n      dup5\n        /* \"test.sol\":2705:2730  patientAccess[patientKey] */\n      dup2\n      mstore\n      0x20\n      add\n      swap1\n      dup2\n      mstore\n      0x20\n      add\n      0x00\n      keccak256\n        /* \"test.sol\":2705:2743  patientAccess[patientKey].patientEmail */\n      0x01\n      add\n        /* \"test.sol\":2689:2745  keccak256(bytes(patientAccess[patientKey].patientEmail)) */\n      mload(0x40)\n      tag_289\n      swap2\n      swap1\n      tag_154\n      jump\t// in\n    tag_289:\n      mload(0x40)\n      dup1\n      swap2\n      sub\n      swap1\n      keccak256\n        /* \"test.sol\":2689:2779  keccak256(bytes(patientAccess[patientKey].patientEmail)) != keccak256(bytes(patientEmail)) */\n      eq\n      iszero\n        /* \"test.sol\":2680:2820  require (keccak256(bytes(patientAccess[patientKey].patientEmail)) != keccak256(bytes(patientEmail)), \"EHR-RP-01: Patient already Enrolled.\") */\n      tag_290\n      jumpi\n      mload(0x40)\n      shl(0xe5, 0x461bcd)\n      dup2\n      mstore\n      0x04\n      add\n      tag_97\n      swap1\n      tag_292\n      jump\t// in\n    tag_290:\n        /* \"test.sol\":2920:2933  patientMobile */\n      dup5\n        /* \"test.sol\":2904:2935  keccak256(bytes(patientMobile)) */\n      dup1\n      mload\n      swap1\n      0x20\n      add\n      keccak256\n        /* \"test.sol\":2859:2872  patientAccess */\n      0x00\n        /* \"test.sol\":2859:2884  patientAccess[patientKey] */\n      dup1\n        /* \"test.sol\":2873:2883  patientKey */\n      dup5\n        /* \"test.sol\":2859:2884  patientAccess[patientKey] */\n      dup2\n      mstore\n      0x20\n      add\n      swap1\n      dup2\n      mstore\n      0x20\n      add\n      0x00\n      keccak256\n        /* \"test.sol\":2859:2898  patientAccess[patientKey].patientMobile */\n      0x02\n      add\n        /* \"test.sol\":2843:2900  keccak256(bytes(patientAccess[patientKey].patientMobile)) */\n      mload(0x40)\n      tag_293\n      swap2\n      swap1\n      tag_154\n      jump\t// in\n    tag_293:\n      mload(0x40)\n      dup1\n      swap2\n      sub\n      swap1\n      keccak256\n        /* \"test.sol\":2843:2935  keccak256(bytes(patientAccess[patientKey].patientMobile)) != keccak256(bytes(patientMobile)) */\n      eq\n      iszero\n        /* \"test.sol\":2834:2976  require (keccak256(bytes(patientAccess[patientKey].patientMobile)) != keccak256(bytes(patientMobile)), \"EHR-RP-02: Patient already Enrolled.\") */\n      tag_294\n      jumpi\n      mload(0x40)\n      shl(0xe5, 0x461bcd)\n      dup2\n      mstore\n      0x04\n      add\n      tag_97\n      swap1\n      tag_296\n      jump\t// in\n    tag_294:\n        /* \"test.sol\":3018:3088  patientEnroll(patientName,patientEmail,patientMobile,patientPass,true) */\n      0x40\n      dup1\n      mload\n      0xa0\n      dup2\n      add\n      dup3\n      mstore\n      dup9\n      dup2\n      mstore\n      0x20\n      dup1\n      dup3\n      add\n      dup10\n      swap1\n      mstore\n      dup2\n      dup4\n      add\n      dup9\n      swap1\n      mstore\n      0x60\n      dup3\n      add\n      dup8\n      swap1\n      mstore\n        /* \"test.sol\":3083:3087  true */\n      0x01\n        /* \"test.sol\":3018:3088  patientEnroll(patientName,patientEmail,patientMobile,patientPass,true) */\n      0x80\n      dup4\n      add\n      mstore\n      0x00\n        /* \"test.sol\":2990:3015  patientAccess[patientKey] */\n      dup6\n      dup2\n      mstore\n      dup1\n      dup3\n      mstore\n      swap3\n      swap1\n      swap3\n      keccak256\n        /* \"test.sol\":2990:3088  patientAccess[patientKey] = patientEnroll(patientName,patientEmail,patientMobile,patientPass,true) */\n      dup2\n      mload\n      dup1\n      mload\n        /* \"test.sol\":3018:3088  patientEnroll(patientName,patientEmail,patientMobile,patientPass,true) */\n      swap3\n      swap4\n        /* \"test.sol\":2990:3015  patientAccess[patientKey] */\n      swap2\n      swap3\n        /* \"test.sol\":2990:3088  patientAccess[patientKey] = patientEnroll(patientName,patientEmail,patientMobile,patientPass,true) */\n      tag_297\n      swap3\n        /* \"test.sol\":2990:3015  patientAccess[patientKey] */\n      dup5\n      swap3\n        /* \"test.sol\":2990:3088  patientAccess[patientKey] = patientEnroll(patientName,patientEmail,patientMobile,patientPass,true) */\n      add\n      swap1\n      tag_157\n      jump\t// in\n    tag_297:\n      pop\n      0x20\n      dup3\n      dup2\n      add\n      mload\n      dup1\n      mload\n      tag_298\n      swap3\n      0x01\n      dup6\n      add\n      swap3\n      add\n      swap1\n      tag_157\n      jump\t// in\n    tag_298:\n      pop\n      0x40\n      dup3\n      add\n      mload\n      dup1\n      mload\n      tag_299\n      swap2\n      0x02\n      dup5\n      add\n      swap2\n      0x20\n      swap1\n      swap2\n      add\n      swap1\n      tag_157\n      jump\t// in\n    tag_299:\n      pop\n      0x60\n      dup3\n      add\n      mload\n      dup1\n      mload\n      tag_300\n      swap2\n      0x03\n      dup5\n      add\n      swap2\n      0x20\n      swap1\n      swap2\n      add\n      swap1\n      tag_157\n      jump\t// in\n    tag_300:\n      pop\n      0x80\n      swap2\n      swap1\n      swap2\n      add\n      mload\n      0x04\n      swap1\n      swap2\n      add\n      dup1\n      sload\n      not(0xff)\n      and\n      swap2\n      iszero\n      iszero\n      swap2\n      swap1\n      swap2\n      or\n      swap1\n      sstore\n      pop\n        /* \"test.sol\":3102:3140  comments = \"Patient Registration Done\" */\n      0x40\n      dup1\n      mload\n      dup1\n      dup3\n      add\n      swap1\n      swap2\n      mstore\n      0x19\n      dup2\n      mstore\n      0x50617469656e7420526567697374726174696f6e20446f6e6500000000000000\n      0x20\n      dup3\n      add\n      mstore\n        /* \"test.sol\":2634:3151  if(reup == stateChange.REGISTER){... */\n    tag_288:\n        /* \"test.sol\":3171:3189  stateChange.UPDATE */\n      0x01\n        /* \"test.sol\":3163:3167  reup */\n      dup4\n        /* \"test.sol\":3163:3189  reup == stateChange.UPDATE */\n      0x01\n      dup2\n      gt\n      iszero\n      tag_302\n      jumpi\n      mstore(0x00, shl(0xe0, 0x4e487b71))\n      mstore(0x04, 0x21)\n      revert(0x00, 0x24)\n    tag_302:\n      eq\n        /* \"test.sol\":3160:3761  if(reup == stateChange.UPDATE){... */\n      iszero\n      tag_303\n      jumpi\n        /* \"test.sol\":3289:3301  patientEmail */\n      dup6\n        /* \"test.sol\":3273:3303  keccak256(bytes(patientEmail)) */\n      dup1\n      mload\n      swap1\n      0x20\n      add\n      keccak256\n        /* \"test.sol\":3229:3242  patientAccess */\n      0x00\n        /* \"test.sol\":3229:3254  patientAccess[patientKey] */\n      dup1\n        /* \"test.sol\":3243:3253  patientKey */\n      dup5\n        /* \"test.sol\":3229:3254  patientAccess[patientKey] */\n      dup2\n      mstore\n      0x20\n      add\n      swap1\n      dup2\n      mstore\n      0x20\n      add\n      0x00\n      keccak256\n        /* \"test.sol\":3229:3267  patientAccess[patientKey].patientEmail */\n      0x01\n      add\n        /* \"test.sol\":3213:3269  keccak256(bytes(patientAccess[patientKey].patientEmail)) */\n      mload(0x40)\n      tag_304\n      swap2\n      swap1\n      tag_154\n      jump\t// in\n    tag_304:\n      mload(0x40)\n      dup1\n      swap2\n      sub\n      swap1\n      keccak256\n        /* \"test.sol\":3213:3303  keccak256(bytes(patientAccess[patientKey].patientEmail)) == keccak256(bytes(patientEmail)) */\n      eq\n        /* \"test.sol\":3204:3344  require (keccak256(bytes(patientAccess[patientKey].patientEmail)) == keccak256(bytes(patientEmail)), \"EHR-RP-01: Patient already Enrolled.\") */\n      tag_305\n      jumpi\n      mload(0x40)\n      shl(0xe5, 0x461bcd)\n      dup2\n      mstore\n      0x04\n      add\n      tag_97\n      swap1\n      tag_292\n      jump\t// in\n    tag_305:\n        /* \"test.sol\":3444:3457  patientMobile */\n      dup5\n        /* \"test.sol\":3428:3459  keccak256(bytes(patientMobile)) */\n      dup1\n      mload\n      swap1\n      0x20\n      add\n      keccak256\n        /* \"test.sol\":3383:3396  patientAccess */\n      0x00\n        /* \"test.sol\":3383:3408  patientAccess[patientKey] */\n      dup1\n        /* \"test.sol\":3397:3407  patientKey */\n      dup5\n        /* \"test.sol\":3383:3408  patientAccess[patientKey] */\n      dup2\n      mstore\n      0x20\n      add\n      swap1\n      dup2\n      mstore\n      0x20\n      add\n      0x00\n      keccak256\n        /* \"test.sol\":3383:3422  patientAccess[patientKey].patientMobile */\n      0x02\n      add\n        /* \"test.sol\":3367:3424  keccak256(bytes(patientAccess[patientKey].patientMobile)) */\n      mload(0x40)\n      tag_307\n      swap2\n      swap1\n      tag_154\n      jump\t// in\n    tag_307:\n      mload(0x40)\n      dup1\n      swap2\n      sub\n      swap1\n      keccak256\n        /* \"test.sol\":3367:3459  keccak256(bytes(patientAccess[patientKey].patientMobile)) == keccak256(bytes(patientMobile)) */\n      eq\n        /* \"test.sol\":3358:3500  require (keccak256(bytes(patientAccess[patientKey].patientMobile)) == keccak256(bytes(patientMobile)), \"EHR-RP-02: Patient already Enrolled.\") */\n      tag_308\n      jumpi\n      mload(0x40)\n      shl(0xe5, 0x461bcd)\n      dup2\n      mstore\n      0x04\n      add\n      tag_97\n      swap1\n      tag_296\n      jump\t// in\n    tag_308:\n        /* \"test.sol\":3514:3527  patientAccess */\n      0x00\n        /* \"test.sol\":3514:3539  patientAccess[patientKey] */\n      dup3\n      dup2\n      mstore\n      0x20\n      dup2\n      dup2\n      mstore\n      0x40\n      swap1\n      swap2\n      keccak256\n        /* \"test.sol\":3514:3565  patientAccess[patientKey].patientName = patientName */\n      dup9\n      mload\n      tag_310\n      swap3\n      dup11\n      add\n      swap1\n      tag_157\n      jump\t// in\n    tag_310:\n      pop\n        /* \"test.sol\":3579:3592  patientAccess */\n      0x00\n        /* \"test.sol\":3579:3604  patientAccess[patientKey] */\n      dup3\n      dup2\n      mstore\n      0x20\n      dup2\n      dup2\n      mstore\n      0x40\n      swap1\n      swap2\n      keccak256\n        /* \"test.sol\":3579:3632  patientAccess[patientKey].patientEmail = patientEmail */\n      dup8\n      mload\n      tag_311\n      swap3\n        /* \"test.sol\":3579:3617  patientAccess[patientKey].patientEmail */\n      0x01\n      swap1\n      swap3\n      add\n      swap2\n        /* \"test.sol\":3579:3632  patientAccess[patientKey].patientEmail = patientEmail */\n      dup10\n      add\n      swap1\n      tag_157\n      jump\t// in\n    tag_311:\n      pop\n        /* \"test.sol\":3646:3659  patientAccess */\n      0x00\n        /* \"test.sol\":3646:3671  patientAccess[patientKey] */\n      dup3\n      dup2\n      mstore\n      0x20\n      dup2\n      dup2\n      mstore\n      0x40\n      swap1\n      swap2\n      keccak256\n        /* \"test.sol\":3646:3701  patientAccess[patientKey].patientMobile = patientMobile */\n      dup7\n      mload\n      tag_312\n      swap3\n        /* \"test.sol\":3646:3685  patientAccess[patientKey].patientMobile */\n      0x02\n      swap1\n      swap3\n      add\n      swap2\n        /* \"test.sol\":3646:3701  patientAccess[patientKey].patientMobile = patientMobile */\n      dup9\n      add\n      swap1\n      tag_157\n      jump\t// in\n    tag_312:\n      pop\n      pop\n        /* \"test.sol\":3715:3750  comments = \"Patient Record Updated\" */\n      0x40\n      dup1\n      mload\n      dup1\n      dup3\n      add\n      swap1\n      swap2\n      mstore\n      0x16\n      dup2\n      mstore\n      shl(0x52, 0x14185d1a595b9d08149958dbdc9908155c19185d1959)\n      0x20\n      dup3\n      add\n      mstore\n        /* \"test.sol\":3160:3761  if(reup == stateChange.UPDATE){... */\n    tag_303:\n      0x00\n      dup1\n      mload\n      0x20\n      data_f1783972c13bbde284b8765b8e27686842dfd940022613858bd0f693b0907129\n      dup4\n      codecopy\n      dup2\n      mload\n      swap2\n      mstore\n        /* \"test.sol\":3822:3832  patientKey */\n      dup3\n        /* \"test.sol\":3846:3854  comments */\n      dup3\n        /* \"test.sol\":3868:3883  block.timestamp */\n      timestamp\n        /* \"test.sol\":3793:3884  patregistration(... */\n      mload(0x40)\n      tag_282\n      swap4\n      swap3\n      swap2\n      swap1\n      tag_273\n      jump\t// in\n        /* \"test.sol\":1958:2007  mapping(uint => patientGeo) public patientLocData */\n    tag_92:\n      mstore(0x20, 0x02)\n      0x00\n      swap1\n      dup2\n      mstore\n      0x40\n      swap1\n      keccak256\n      dup1\n      sload\n      dup2\n      swap1\n      tag_314\n      swap1\n      tag_101\n      jump\t// in\n    tag_314:\n      dup1\n      0x1f\n      add\n      0x20\n      dup1\n      swap2\n      div\n      mul\n      0x20\n      add\n      mload(0x40)\n      swap1\n      dup2\n      add\n      0x40\n      mstore\n      dup1\n      swap3\n      swap2\n      swap1\n      dup2\n      dup2\n      mstore\n      0x20\n      add\n      dup3\n      dup1\n      sload\n      tag_315\n      swap1\n      tag_101\n      jump\t// in\n    tag_315:\n      dup1\n      iszero\n      tag_316\n      jumpi\n      dup1\n      0x1f\n      lt\n      tag_317\n      jumpi\n      0x0100\n      dup1\n      dup4\n      sload\n      div\n      mul\n      dup4\n      mstore\n      swap2\n      0x20\n      add\n      swap2\n      jump(tag_316)\n    tag_317:\n      dup3\n      add\n      swap2\n      swap1\n      0x00\n      mstore\n      keccak256(0x00, 0x20)\n      swap1\n    tag_318:\n      dup2\n      sload\n      dup2\n      mstore\n      swap1\n      0x01\n      add\n      swap1\n      0x20\n      add\n      dup1\n      dup4\n      gt\n      tag_318\n      jumpi\n      dup3\n      swap1\n      sub\n      0x1f\n      and\n      dup3\n      add\n      swap2\n    tag_316:\n      pop\n      pop\n      pop\n      pop\n      pop\n      swap1\n      dup1\n      0x01\n      add\n      dup1\n      sload\n      tag_319\n      swap1\n      tag_101\n      jump\t// in\n    tag_319:\n      dup1\n      0x1f\n      add\n      0x20\n      dup1\n      swap2\n      div\n      mul\n      0x20\n      add\n      mload(0x40)\n      swap1\n      dup2\n      add\n      0x40\n      mstore\n      dup1\n      swap3\n      swap2\n      swap1\n      dup2\n      dup2\n      mstore\n      0x20\n      add\n      dup3\n      dup1\n      sload\n      tag_320\n      swap1\n      tag_101\n      jump\t// in\n    tag_320:\n      dup1\n      iszero\n      tag_321\n      jumpi\n      dup1\n      0x1f\n      lt\n      tag_322\n      jumpi\n      0x0100\n      dup1\n      dup4\n      sload\n      div\n      mul\n      dup4\n      mstore\n      swap2\n      0x20\n      add\n      swap2\n      jump(tag_321)\n    tag_322:\n      dup3\n      add\n      swap2\n      swap1\n      0x00\n      mstore\n      keccak256(0x00, 0x20)\n      swap1\n    tag_323:\n      dup2\n      sload\n      dup2\n      mstore\n      swap1\n      0x01\n      add\n      swap1\n      0x20\n      add\n      dup1\n      dup4\n      gt\n      tag_323\n      jumpi\n      dup3\n      swap1\n      sub\n      0x1f\n      and\n      dup3\n      add\n      swap2\n    tag_321:\n      pop\n      pop\n      pop\n      pop\n      pop\n      swap1\n      dup1\n      0x02\n      add\n      dup1\n      sload\n      tag_324\n      swap1\n      tag_101\n      jump\t// in\n    tag_324:\n      dup1\n      0x1f\n      add\n      0x20\n      dup1\n      swap2\n      div\n      mul\n      0x20\n      add\n      mload(0x40)\n      swap1\n      dup2\n      add\n      0x40\n      mstore\n      dup1\n      swap3\n      swap2\n      swap1\n      dup2\n      dup2\n      mstore\n      0x20\n      add\n      dup3\n      dup1\n      sload\n      tag_325\n      swap1\n      tag_101\n      jump\t// in\n    tag_325:\n      dup1\n      iszero\n      tag_326\n      jumpi\n      dup1\n      0x1f\n      lt\n      tag_327\n      jumpi\n      0x0100\n      dup1\n      dup4\n      sload\n      div\n      mul\n      dup4\n      mstore\n      swap2\n      0x20\n      add\n      swap2\n      jump(tag_326)\n    tag_327:\n      dup3\n      add\n      swap2\n      swap1\n      0x00\n      mstore\n      keccak256(0x00, 0x20)\n      swap1\n    tag_328:\n      dup2\n      sload\n      dup2\n      mstore\n      swap1\n      0x01\n      add\n      swap1\n      0x20\n      add\n      dup1\n      dup4\n      gt\n      tag_328\n      jumpi\n      dup3\n      swap1\n      sub\n      0x1f\n      and\n      dup3\n      add\n      swap2\n    tag_326:\n      pop\n      pop\n      pop\n      pop\n      pop\n      swap1\n      dup1\n      0x03\n      add\n      dup1\n      sload\n      tag_329\n      swap1\n      tag_101\n      jump\t// in\n    tag_329:\n      dup1\n      0x1f\n      add\n      0x20\n      dup1\n      swap2\n      div\n      mul\n      0x20\n      add\n      mload(0x40)\n      swap1\n      dup2\n      add\n      0x40\n      mstore\n      dup1\n      swap3\n      swap2\n      swap1\n      dup2\n      dup2\n      mstore\n      0x20\n      add\n      dup3\n      dup1\n      sload\n      tag_330\n      swap1\n      tag_101\n      jump\t// in\n    tag_330:\n      dup1\n      iszero\n      tag_331\n      jumpi\n      dup1\n      0x1f\n      lt\n      tag_332\n      jumpi\n      0x0100\n      dup1\n      dup4\n      sload\n      div\n      mul\n      dup4\n      mstore\n      swap2\n      0x20\n      add\n      swap2\n      jump(tag_331)\n    tag_332:\n      dup3\n      add\n      swap2\n      swap1\n      0x00\n      mstore\n      keccak256(0x00, 0x20)\n      swap1\n    tag_333:\n      dup2\n      sload\n      dup2\n      mstore\n      swap1\n      0x01\n      add\n      swap1\n      0x20\n      add\n      dup1\n      dup4\n      gt\n      tag_333\n      jumpi\n      dup3\n      swap1\n      sub\n      0x1f\n      and\n      dup3\n      add\n      swap2\n    tag_331:\n      pop\n      pop\n      pop\n      pop\n      pop\n      swap1\n      dup1\n      0x04\n      add\n      sload\n      swap1\n      pop\n      dup6\n      jump\t// out\n    tag_157:\n      dup3\n      dup1\n      sload\n      tag_334\n      swap1\n      tag_101\n      jump\t// in\n    tag_334:\n      swap1\n      0x00\n      mstore\n      keccak256(0x00, 0x20)\n      swap1\n      0x1f\n      add\n      0x20\n      swap1\n      div\n      dup2\n      add\n      swap3\n      dup3\n      tag_336\n      jumpi\n      0x00\n      dup6\n      sstore\n      jump(tag_339)\n    tag_336:\n      dup3\n      0x1f\n      lt\n      tag_337\n      jumpi\n      dup1\n      mload\n      not(0xff)\n      and\n      dup4\n      dup1\n      add\n      or\n      dup6\n      sstore\n      jump(tag_339)\n    tag_337:\n      dup3\n      dup1\n      add\n      0x01\n      add\n      dup6\n      sstore\n      dup3\n      iszero\n      tag_339\n      jumpi\n      swap2\n      dup3\n      add\n    tag_338:\n      dup3\n      dup2\n      gt\n      iszero\n      tag_339\n      jumpi\n      dup3\n      mload\n      dup3\n      sstore\n      swap2\n      0x20\n      add\n      swap2\n      swap1\n      0x01\n      add\n      swap1\n      jump(tag_338)\n    tag_339:\n      pop\n      tag_340\n      swap3\n      swap2\n      pop\n      tag_341\n      jump\t// in\n    tag_340:\n      pop\n      swap1\n      jump\t// out\n    tag_341:\n    tag_342:\n      dup1\n      dup3\n      gt\n      iszero\n      tag_340\n      jumpi\n      0x00\n      dup2\n      sstore\n      0x01\n      add\n      jump(tag_342)\n        /* \"#utility.yul\":14:165   */\n    tag_345:\n        /* \"#utility.yul\":90:110   */\n      dup1\n      calldataload\n        /* \"#utility.yul\":139:140   */\n      0x05\n        /* \"#utility.yul\":129:141   */\n      dup2\n      lt\n        /* \"#utility.yul\":119:121   */\n      tag_347\n      jumpi\n        /* \"#utility.yul\":155:156   */\n      0x00\n        /* \"#utility.yul\":152:153   */\n      dup1\n        /* \"#utility.yul\":145:157   */\n      revert\n        /* \"#utility.yul\":119:121   */\n    tag_347:\n        /* \"#utility.yul\":71:165   */\n      swap2\n      swap1\n      pop\n      jump\t// out\n        /* \"#utility.yul\":170:314   */\n    tag_348:\n        /* \"#utility.yul\":239:259   */\n      dup1\n      calldataload\n        /* \"#utility.yul\":288:289   */\n      0x03\n        /* \"#utility.yul\":278:290   */\n      dup2\n      lt\n        /* \"#utility.yul\":268:270   */\n      tag_347\n      jumpi\n        /* \"#utility.yul\":304:305   */\n      0x00\n        /* \"#utility.yul\":301:302   */\n      dup1\n        /* \"#utility.yul\":294:306   */\n      revert\n        /* \"#utility.yul\":319:461   */\n    tag_351:\n        /* \"#utility.yul\":391:411   */\n      dup1\n      calldataload\n        /* \"#utility.yul\":420:455   */\n      tag_347\n        /* \"#utility.yul\":391:411   */\n      dup2\n        /* \"#utility.yul\":420:455   */\n      tag_354\n      jump\t// in\n        /* \"#utility.yul\":466:1205   */\n    tag_355:\n        /* \"#utility.yul\":509:514   */\n      0x00\n        /* \"#utility.yul\":562:565   */\n      dup3\n        /* \"#utility.yul\":555:559   */\n      0x1f\n        /* \"#utility.yul\":547:553   */\n      dup4\n        /* \"#utility.yul\":543:560   */\n      add\n        /* \"#utility.yul\":539:566   */\n      slt\n        /* \"#utility.yul\":529:531   */\n      tag_357\n      jumpi\n        /* \"#utility.yul\":584:589   */\n      dup1\n        /* \"#utility.yul\":577:582   */\n      dup2\n        /* \"#utility.yul\":570:590   */\n      revert\n        /* \"#utility.yul\":529:531   */\n    tag_357:\n        /* \"#utility.yul\":624:630   */\n      dup2\n        /* \"#utility.yul\":611:631   */\n      calldataload\n        /* \"#utility.yul\":650:668   */\n      0xffffffffffffffff\n        /* \"#utility.yul\":687:689   */\n      dup1\n        /* \"#utility.yul\":683:685   */\n      dup3\n        /* \"#utility.yul\":680:690   */\n      gt\n        /* \"#utility.yul\":677:679   */\n      iszero\n      tag_359\n      jumpi\n        /* \"#utility.yul\":693:711   */\n      tag_359\n      tag_360\n      jump\t// in\n    tag_359:\n        /* \"#utility.yul\":768:770   */\n      0x40\n        /* \"#utility.yul\":762:771   */\n      mload\n        /* \"#utility.yul\":736:738   */\n      0x1f\n        /* \"#utility.yul\":822:835   */\n      dup4\n      add\n      not(0x1f)\n        /* \"#utility.yul\":818:840   */\n      swap1\n      dup2\n      and\n        /* \"#utility.yul\":842:844   */\n      0x3f\n        /* \"#utility.yul\":814:845   */\n      add\n        /* \"#utility.yul\":810:850   */\n      and\n        /* \"#utility.yul\":798:851   */\n      dup2\n      add\n      swap1\n        /* \"#utility.yul\":866:884   */\n      dup3\n      dup3\n      gt\n        /* \"#utility.yul\":886:908   */\n      dup2\n      dup4\n      lt\n        /* \"#utility.yul\":863:909   */\n      or\n        /* \"#utility.yul\":860:862   */\n      iszero\n      tag_362\n      jumpi\n        /* \"#utility.yul\":912:930   */\n      tag_362\n      tag_360\n      jump\t// in\n    tag_362:\n        /* \"#utility.yul\":952:962   */\n      dup2\n        /* \"#utility.yul\":948:950   */\n      0x40\n        /* \"#utility.yul\":941:963   */\n      mstore\n        /* \"#utility.yul\":987:989   */\n      dup4\n        /* \"#utility.yul\":979:985   */\n      dup2\n        /* \"#utility.yul\":972:990   */\n      mstore\n        /* \"#utility.yul\":1033:1036   */\n      dup7\n        /* \"#utility.yul\":1026:1030   */\n      0x20\n        /* \"#utility.yul\":1021:1023   */\n      dup6\n        /* \"#utility.yul\":1013:1019   */\n      dup9\n        /* \"#utility.yul\":1009:1024   */\n      add\n        /* \"#utility.yul\":1005:1031   */\n      add\n        /* \"#utility.yul\":1002:1037   */\n      gt\n        /* \"#utility.yul\":999:1001   */\n      iszero\n      tag_363\n      jumpi\n        /* \"#utility.yul\":1054:1059   */\n      dup5\n        /* \"#utility.yul\":1047:1052   */\n      dup6\n        /* \"#utility.yul\":1040:1060   */\n      revert\n        /* \"#utility.yul\":999:1001   */\n    tag_363:\n        /* \"#utility.yul\":1122:1124   */\n      dup4\n        /* \"#utility.yul\":1115:1119   */\n      0x20\n        /* \"#utility.yul\":1107:1113   */\n      dup8\n        /* \"#utility.yul\":1103:1120   */\n      add\n        /* \"#utility.yul\":1096:1100   */\n      0x20\n        /* \"#utility.yul\":1088:1094   */\n      dup4\n        /* \"#utility.yul\":1084:1101   */\n      add\n        /* \"#utility.yul\":1071:1125   */\n      calldatacopy\n        /* \"#utility.yul\":1145:1160   */\n      swap3\n      dup4\n      add\n        /* \"#utility.yul\":1162:1166   */\n      0x20\n        /* \"#utility.yul\":1141:1167   */\n      add\n        /* \"#utility.yul\":1134:1175   */\n      swap4\n      swap1\n      swap4\n      mstore\n      pop\n        /* \"#utility.yul\":1149:1155   */\n      swap4\n        /* \"#utility.yul\":519:1205   */\n      swap3\n      pop\n      pop\n      pop\n      jump\t// out\n        /* \"#utility.yul\":1210:2357   */\n    tag_83:\n        /* \"#utility.yul\":1358:1364   */\n      0x00\n        /* \"#utility.yul\":1366:1372   */\n      dup1\n        /* \"#utility.yul\":1374:1380   */\n      0x00\n        /* \"#utility.yul\":1382:1388   */\n      dup1\n        /* \"#utility.yul\":1390:1396   */\n      0x00\n        /* \"#utility.yul\":1443:1446   */\n      0xa0\n        /* \"#utility.yul\":1431:1440   */\n      dup7\n        /* \"#utility.yul\":1422:1429   */\n      dup9\n        /* \"#utility.yul\":1418:1441   */\n      sub\n        /* \"#utility.yul\":1414:1447   */\n      slt\n        /* \"#utility.yul\":1411:1413   */\n      iszero\n      tag_365\n      jumpi\n        /* \"#utility.yul\":1465:1471   */\n      dup1\n        /* \"#utility.yul\":1457:1463   */\n      dup2\n        /* \"#utility.yul\":1450:1472   */\n      revert\n        /* \"#utility.yul\":1411:1413   */\n    tag_365:\n        /* \"#utility.yul\":1510:1519   */\n      dup6\n        /* \"#utility.yul\":1497:1520   */\n      calldataload\n        /* \"#utility.yul\":1539:1557   */\n      0xffffffffffffffff\n        /* \"#utility.yul\":1580:1582   */\n      dup1\n        /* \"#utility.yul\":1572:1578   */\n      dup3\n        /* \"#utility.yul\":1569:1583   */\n      gt\n        /* \"#utility.yul\":1566:1568   */\n      iszero\n      tag_366\n      jumpi\n        /* \"#utility.yul\":1601:1607   */\n      dup3\n        /* \"#utility.yul\":1593:1599   */\n      dup4\n        /* \"#utility.yul\":1586:1608   */\n      revert\n        /* \"#utility.yul\":1566:1568   */\n    tag_366:\n        /* \"#utility.yul\":1629:1679   */\n      tag_367\n        /* \"#utility.yul\":1671:1678   */\n      dup10\n        /* \"#utility.yul\":1662:1668   */\n      dup4\n        /* \"#utility.yul\":1651:1660   */\n      dup11\n        /* \"#utility.yul\":1647:1669   */\n      add\n        /* \"#utility.yul\":1629:1679   */\n      tag_355\n      jump\t// in\n    tag_367:\n        /* \"#utility.yul\":1619:1679   */\n      swap7\n      pop\n        /* \"#utility.yul\":1732:1734   */\n      0x20\n        /* \"#utility.yul\":1721:1730   */\n      dup9\n        /* \"#utility.yul\":1717:1735   */\n      add\n        /* \"#utility.yul\":1704:1736   */\n      calldataload\n        /* \"#utility.yul\":1688:1736   */\n      swap2\n      pop\n        /* \"#utility.yul\":1761:1763   */\n      dup1\n        /* \"#utility.yul\":1751:1759   */\n      dup3\n        /* \"#utility.yul\":1748:1764   */\n      gt\n        /* \"#utility.yul\":1745:1747   */\n      iszero\n      tag_368\n      jumpi\n        /* \"#utility.yul\":1782:1788   */\n      dup3\n        /* \"#utility.yul\":1774:1780   */\n      dup4\n        /* \"#utility.yul\":1767:1789   */\n      revert\n        /* \"#utility.yul\":1745:1747   */\n    tag_368:\n        /* \"#utility.yul\":1810:1862   */\n      tag_369\n        /* \"#utility.yul\":1854:1861   */\n      dup10\n        /* \"#utility.yul\":1843:1851   */\n      dup4\n        /* \"#utility.yul\":1832:1841   */\n      dup11\n        /* \"#utility.yul\":1828:1852   */\n      add\n        /* \"#utility.yul\":1810:1862   */\n      tag_355\n      jump\t// in\n    tag_369:\n        /* \"#utility.yul\":1800:1862   */\n      swap6\n      pop\n        /* \"#utility.yul\":1915:1917   */\n      0x40\n        /* \"#utility.yul\":1904:1913   */\n      dup9\n        /* \"#utility.yul\":1900:1918   */\n      add\n        /* \"#utility.yul\":1887:1919   */\n      calldataload\n        /* \"#utility.yul\":1871:1919   */\n      swap2\n      pop\n        /* \"#utility.yul\":1944:1946   */\n      dup1\n        /* \"#utility.yul\":1934:1942   */\n      dup3\n        /* \"#utility.yul\":1931:1947   */\n      gt\n        /* \"#utility.yul\":1928:1930   */\n      iszero\n      tag_370\n      jumpi\n        /* \"#utility.yul\":1965:1971   */\n      dup3\n        /* \"#utility.yul\":1957:1963   */\n      dup4\n        /* \"#utility.yul\":1950:1972   */\n      revert\n        /* \"#utility.yul\":1928:1930   */\n    tag_370:\n        /* \"#utility.yul\":1993:2045   */\n      tag_371\n        /* \"#utility.yul\":2037:2044   */\n      dup10\n        /* \"#utility.yul\":2026:2034   */\n      dup4\n        /* \"#utility.yul\":2015:2024   */\n      dup11\n        /* \"#utility.yul\":2011:2035   */\n      add\n        /* \"#utility.yul\":1993:2045   */\n      tag_355\n      jump\t// in\n    tag_371:\n        /* \"#utility.yul\":1983:2045   */\n      swap5\n      pop\n        /* \"#utility.yul\":2098:2100   */\n      0x60\n        /* \"#utility.yul\":2087:2096   */\n      dup9\n        /* \"#utility.yul\":2083:2101   */\n      add\n        /* \"#utility.yul\":2070:2102   */\n      calldataload\n        /* \"#utility.yul\":2054:2102   */\n      swap2\n      pop\n        /* \"#utility.yul\":2127:2129   */\n      dup1\n        /* \"#utility.yul\":2117:2125   */\n      dup3\n        /* \"#utility.yul\":2114:2130   */\n      gt\n        /* \"#utility.yul\":2111:2113   */\n      iszero\n      tag_372\n      jumpi\n        /* \"#utility.yul\":2148:2154   */\n      dup3\n        /* \"#utility.yul\":2140:2146   */\n      dup4\n        /* \"#utility.yul\":2133:2155   */\n      revert\n        /* \"#utility.yul\":2111:2113   */\n    tag_372:\n      pop\n        /* \"#utility.yul\":2176:2228   */\n      tag_373\n        /* \"#utility.yul\":2220:2227   */\n      dup9\n        /* \"#utility.yul\":2209:2217   */\n      dup3\n        /* \"#utility.yul\":2198:2207   */\n      dup10\n        /* \"#utility.yul\":2194:2218   */\n      add\n        /* \"#utility.yul\":2176:2228   */\n      tag_355\n      jump\t// in\n    tag_373:\n        /* \"#utility.yul\":2166:2228   */\n      swap3\n      pop\n      pop\n        /* \"#utility.yul\":2278:2281   */\n      0x80\n        /* \"#utility.yul\":2267:2276   */\n      dup7\n        /* \"#utility.yul\":2263:2282   */\n      add\n        /* \"#utility.yul\":2250:2283   */\n      calldataload\n        /* \"#utility.yul\":2292:2327   */\n      tag_374\n        /* \"#utility.yul\":2321:2326   */\n      dup2\n        /* \"#utility.yul\":2292:2327   */\n      tag_354\n      jump\t// in\n    tag_374:\n        /* \"#utility.yul\":2346:2351   */\n      dup1\n        /* \"#utility.yul\":2336:2351   */\n      swap2\n      pop\n      pop\n        /* \"#utility.yul\":1401:2357   */\n      swap3\n      swap6\n      pop\n      swap3\n      swap6\n      swap1\n      swap4\n      pop\n      jump\t// out\n        /* \"#utility.yul\":2362:3837   */\n    tag_75:\n        /* \"#utility.yul\":2566:2572   */\n      0x00\n        /* \"#utility.yul\":2574:2580   */\n      dup1\n        /* \"#utility.yul\":2582:2588   */\n      0x00\n        /* \"#utility.yul\":2590:2596   */\n      dup1\n        /* \"#utility.yul\":2598:2604   */\n      0x00\n        /* \"#utility.yul\":2606:2612   */\n      dup1\n        /* \"#utility.yul\":2614:2620   */\n      0x00\n        /* \"#utility.yul\":2622:2628   */\n      dup1\n        /* \"#utility.yul\":2675:2678   */\n      0x0100\n        /* \"#utility.yul\":2663:2672   */\n      dup10\n        /* \"#utility.yul\":2654:2661   */\n      dup12\n        /* \"#utility.yul\":2650:2673   */\n      sub\n        /* \"#utility.yul\":2646:2679   */\n      slt\n        /* \"#utility.yul\":2643:2645   */\n      iszero\n      tag_376\n      jumpi\n        /* \"#utility.yul\":2697:2703   */\n      dup3\n        /* \"#utility.yul\":2689:2695   */\n      dup4\n        /* \"#utility.yul\":2682:2704   */\n      revert\n        /* \"#utility.yul\":2643:2645   */\n    tag_376:\n        /* \"#utility.yul\":2742:2751   */\n      dup9\n        /* \"#utility.yul\":2729:2752   */\n      calldataload\n        /* \"#utility.yul\":2771:2789   */\n      0xffffffffffffffff\n        /* \"#utility.yul\":2812:2814   */\n      dup1\n        /* \"#utility.yul\":2804:2810   */\n      dup3\n        /* \"#utility.yul\":2801:2815   */\n      gt\n        /* \"#utility.yul\":2798:2800   */\n      iszero\n      tag_377\n      jumpi\n        /* \"#utility.yul\":2833:2839   */\n      dup5\n        /* \"#utility.yul\":2825:2831   */\n      dup6\n        /* \"#utility.yul\":2818:2840   */\n      revert\n        /* \"#utility.yul\":2798:2800   */\n    tag_377:\n        /* \"#utility.yul\":2861:2911   */\n      tag_378\n        /* \"#utility.yul\":2903:2910   */\n      dup13\n        /* \"#utility.yul\":2894:2900   */\n      dup4\n        /* \"#utility.yul\":2883:2892   */\n      dup14\n        /* \"#utility.yul\":2879:2901   */\n      add\n        /* \"#utility.yul\":2861:2911   */\n      tag_355\n      jump\t// in\n    tag_378:\n        /* \"#utility.yul\":2851:2911   */\n      swap10\n      pop\n        /* \"#utility.yul\":2964:2966   */\n      0x20\n        /* \"#utility.yul\":2953:2962   */\n      dup12\n        /* \"#utility.yul\":2949:2967   */\n      add\n        /* \"#utility.yul\":2936:2968   */\n      calldataload\n        /* \"#utility.yul\":2920:2968   */\n      swap2\n      pop\n        /* \"#utility.yul\":2993:2995   */\n      dup1\n        /* \"#utility.yul\":2983:2991   */\n      dup3\n        /* \"#utility.yul\":2980:2996   */\n      gt\n        /* \"#utility.yul\":2977:2979   */\n      iszero\n      tag_379\n      jumpi\n        /* \"#utility.yul\":3014:3020   */\n      dup5\n        /* \"#utility.yul\":3006:3012   */\n      dup6\n        /* \"#utility.yul\":2999:3021   */\n      revert\n        /* \"#utility.yul\":2977:2979   */\n    tag_379:\n        /* \"#utility.yul\":3042:3094   */\n      tag_380\n        /* \"#utility.yul\":3086:3093   */\n      dup13\n        /* \"#utility.yul\":3075:3083   */\n      dup4\n        /* \"#utility.yul\":3064:3073   */\n      dup14\n        /* \"#utility.yul\":3060:3084   */\n      add\n        /* \"#utility.yul\":3042:3094   */\n      tag_355\n      jump\t// in\n    tag_380:\n        /* \"#utility.yul\":3032:3094   */\n      swap9\n      pop\n        /* \"#utility.yul\":3147:3149   */\n      0x40\n        /* \"#utility.yul\":3136:3145   */\n      dup12\n        /* \"#utility.yul\":3132:3150   */\n      add\n        /* \"#utility.yul\":3119:3151   */\n      calldataload\n        /* \"#utility.yul\":3103:3151   */\n      swap2\n      pop\n        /* \"#utility.yul\":3176:3178   */\n      dup1\n        /* \"#utility.yul\":3166:3174   */\n      dup3\n        /* \"#utility.yul\":3163:3179   */\n      gt\n        /* \"#utility.yul\":3160:3162   */\n      iszero\n      tag_381\n      jumpi\n        /* \"#utility.yul\":3197:3203   */\n      dup5\n        /* \"#utility.yul\":3189:3195   */\n      dup6\n        /* \"#utility.yul\":3182:3204   */\n      revert\n        /* \"#utility.yul\":3160:3162   */\n    tag_381:\n        /* \"#utility.yul\":3225:3277   */\n      tag_382\n        /* \"#utility.yul\":3269:3276   */\n      dup13\n        /* \"#utility.yul\":3258:3266   */\n      dup4\n        /* \"#utility.yul\":3247:3256   */\n      dup14\n        /* \"#utility.yul\":3243:3267   */\n      add\n        /* \"#utility.yul\":3225:3277   */\n      tag_355\n      jump\t// in\n    tag_382:\n        /* \"#utility.yul\":3215:3277   */\n      swap8\n      pop\n        /* \"#utility.yul\":3330:3332   */\n      0x60\n        /* \"#utility.yul\":3319:3328   */\n      dup12\n        /* \"#utility.yul\":3315:3333   */\n      add\n        /* \"#utility.yul\":3302:3334   */\n      calldataload\n        /* \"#utility.yul\":3286:3334   */\n      swap2\n      pop\n        /* \"#utility.yul\":3359:3361   */\n      dup1\n        /* \"#utility.yul\":3349:3357   */\n      dup3\n        /* \"#utility.yul\":3346:3362   */\n      gt\n        /* \"#utility.yul\":3343:3345   */\n      iszero\n      tag_383\n      jumpi\n        /* \"#utility.yul\":3380:3386   */\n      dup5\n        /* \"#utility.yul\":3372:3378   */\n      dup6\n        /* \"#utility.yul\":3365:3387   */\n      revert\n        /* \"#utility.yul\":3343:3345   */\n    tag_383:\n        /* \"#utility.yul\":3408:3460   */\n      tag_384\n        /* \"#utility.yul\":3452:3459   */\n      dup13\n        /* \"#utility.yul\":3441:3449   */\n      dup4\n        /* \"#utility.yul\":3430:3439   */\n      dup14\n        /* \"#utility.yul\":3426:3450   */\n      add\n        /* \"#utility.yul\":3408:3460   */\n      tag_355\n      jump\t// in\n    tag_384:\n        /* \"#utility.yul\":3398:3460   */\n      swap7\n      pop\n        /* \"#utility.yul\":3513:3516   */\n      0x80\n        /* \"#utility.yul\":3502:3511   */\n      dup12\n        /* \"#utility.yul\":3498:3517   */\n      add\n        /* \"#utility.yul\":3485:3518   */\n      calldataload\n        /* \"#utility.yul\":3469:3518   */\n      swap2\n      pop\n        /* \"#utility.yul\":3543:3545   */\n      dup1\n        /* \"#utility.yul\":3533:3541   */\n      dup3\n        /* \"#utility.yul\":3530:3546   */\n      gt\n        /* \"#utility.yul\":3527:3529   */\n      iszero\n      tag_385\n      jumpi\n        /* \"#utility.yul\":3564:3570   */\n      dup5\n        /* \"#utility.yul\":3556:3562   */\n      dup6\n        /* \"#utility.yul\":3549:3571   */\n      revert\n        /* \"#utility.yul\":3527:3529   */\n    tag_385:\n      pop\n        /* \"#utility.yul\":3592:3644   */\n      tag_386\n        /* \"#utility.yul\":3636:3643   */\n      dup12\n        /* \"#utility.yul\":3625:3633   */\n      dup3\n        /* \"#utility.yul\":3614:3623   */\n      dup13\n        /* \"#utility.yul\":3610:3634   */\n      add\n        /* \"#utility.yul\":3592:3644   */\n      tag_355\n      jump\t// in\n    tag_386:\n        /* \"#utility.yul\":3582:3644   */\n      swap5\n      pop\n      pop\n        /* \"#utility.yul\":3663:3710   */\n      tag_387\n        /* \"#utility.yul\":3705:3708   */\n      0xa0\n        /* \"#utility.yul\":3694:3703   */\n      dup11\n        /* \"#utility.yul\":3690:3709   */\n      add\n        /* \"#utility.yul\":3663:3710   */\n      tag_345\n      jump\t// in\n    tag_387:\n        /* \"#utility.yul\":3653:3710   */\n      swap3\n      pop\n        /* \"#utility.yul\":3729:3769   */\n      tag_388\n        /* \"#utility.yul\":3764:3767   */\n      0xc0\n        /* \"#utility.yul\":3753:3762   */\n      dup11\n        /* \"#utility.yul\":3749:3768   */\n      add\n        /* \"#utility.yul\":3729:3769   */\n      tag_348\n      jump\t// in\n    tag_388:\n        /* \"#utility.yul\":3719:3769   */\n      swap2\n      pop\n        /* \"#utility.yul\":3788:3831   */\n      tag_389\n        /* \"#utility.yul\":3826:3829   */\n      0xe0\n        /* \"#utility.yul\":3815:3824   */\n      dup11\n        /* \"#utility.yul\":3811:3830   */\n      add\n        /* \"#utility.yul\":3788:3831   */\n      tag_351\n      jump\t// in\n    tag_389:\n        /* \"#utility.yul\":3778:3831   */\n      swap1\n      pop\n        /* \"#utility.yul\":2633:3837   */\n      swap3\n      swap6\n      swap9\n      pop\n      swap3\n      swap6\n      swap9\n      swap1\n      swap4\n      swap7\n      pop\n      jump\t// out\n        /* \"#utility.yul\":3842:4974   */\n    tag_79:\n        /* \"#utility.yul\":3986:3992   */\n      0x00\n        /* \"#utility.yul\":3994:4000   */\n      dup1\n        /* \"#utility.yul\":4002:4008   */\n      0x00\n        /* \"#utility.yul\":4010:4016   */\n      dup1\n        /* \"#utility.yul\":4018:4024   */\n      0x00\n        /* \"#utility.yul\":4026:4032   */\n      dup1\n        /* \"#utility.yul\":4079:4082   */\n      0xc0\n        /* \"#utility.yul\":4067:4076   */\n      dup8\n        /* \"#utility.yul\":4058:4065   */\n      dup10\n        /* \"#utility.yul\":4054:4077   */\n      sub\n        /* \"#utility.yul\":4050:4083   */\n      slt\n        /* \"#utility.yul\":4047:4049   */\n      iszero\n      tag_391\n      jumpi\n        /* \"#utility.yul\":4101:4107   */\n      dup2\n        /* \"#utility.yul\":4093:4099   */\n      dup3\n        /* \"#utility.yul\":4086:4108   */\n      revert\n        /* \"#utility.yul\":4047:4049   */\n    tag_391:\n        /* \"#utility.yul\":4146:4155   */\n      dup7\n        /* \"#utility.yul\":4133:4156   */\n      calldataload\n        /* \"#utility.yul\":4175:4193   */\n      0xffffffffffffffff\n        /* \"#utility.yul\":4216:4218   */\n      dup1\n        /* \"#utility.yul\":4208:4214   */\n      dup3\n        /* \"#utility.yul\":4205:4219   */\n      gt\n        /* \"#utility.yul\":4202:4204   */\n      iszero\n      tag_392\n      jumpi\n        /* \"#utility.yul\":4237:4243   */\n      dup4\n        /* \"#utility.yul\":4229:4235   */\n      dup5\n        /* \"#utility.yul\":4222:4244   */\n      revert\n        /* \"#utility.yul\":4202:4204   */\n    tag_392:\n        /* \"#utility.yul\":4265:4315   */\n      tag_393\n        /* \"#utility.yul\":4307:4314   */\n      dup11\n        /* \"#utility.yul\":4298:4304   */\n      dup4\n        /* \"#utility.yul\":4287:4296   */\n      dup12\n        /* \"#utility.yul\":4283:4305   */\n      add\n        /* \"#utility.yul\":4265:4315   */\n      tag_355\n      jump\t// in\n    tag_393:\n        /* \"#utility.yul\":4255:4315   */\n      swap8\n      pop\n        /* \"#utility.yul\":4368:4370   */\n      0x20\n        /* \"#utility.yul\":4357:4366   */\n      dup10\n        /* \"#utility.yul\":4353:4371   */\n      add\n        /* \"#utility.yul\":4340:4372   */\n      calldataload\n        /* \"#utility.yul\":4324:4372   */\n      swap2\n      pop\n        /* \"#utility.yul\":4397:4399   */\n      dup1\n        /* \"#utility.yul\":4387:4395   */\n      dup3\n        /* \"#utility.yul\":4384:4400   */\n      gt\n        /* \"#utility.yul\":4381:4383   */\n      iszero\n      tag_394\n      jumpi\n        /* \"#utility.yul\":4418:4424   */\n      dup4\n        /* \"#utility.yul\":4410:4416   */\n      dup5\n        /* \"#utility.yul\":4403:4425   */\n      revert\n        /* \"#utility.yul\":4381:4383   */\n    tag_394:\n        /* \"#utility.yul\":4446:4498   */\n      tag_395\n        /* \"#utility.yul\":4490:4497   */\n      dup11\n        /* \"#utility.yul\":4479:4487   */\n      dup4\n        /* \"#utility.yul\":4468:4477   */\n      dup12\n        /* \"#utility.yul\":4464:4488   */\n      add\n        /* \"#utility.yul\":4446:4498   */\n      tag_355\n      jump\t// in\n    tag_395:\n        /* \"#utility.yul\":4436:4498   */\n      swap7\n      pop\n        /* \"#utility.yul\":4551:4553   */\n      0x40\n        /* \"#utility.yul\":4540:4549   */\n      dup10\n        /* \"#utility.yul\":4536:4554   */\n      add\n        /* \"#utility.yul\":4523:4555   */\n      calldataload\n        /* \"#utility.yul\":4507:4555   */\n      swap2\n      pop\n        /* \"#utility.yul\":4580:4582   */\n      dup1\n        /* \"#utility.yul\":4570:4578   */\n      dup3\n        /* \"#utility.yul\":4567:4583   */\n      gt\n        /* \"#utility.yul\":4564:4566   */\n      iszero\n      tag_396\n      jumpi\n        /* \"#utility.yul\":4601:4607   */\n      dup4\n        /* \"#utility.yul\":4593:4599   */\n      dup5\n        /* \"#utility.yul\":4586:4608   */\n      revert\n        /* \"#utility.yul\":4564:4566   */\n    tag_396:\n        /* \"#utility.yul\":4629:4681   */\n      tag_397\n        /* \"#utility.yul\":4673:4680   */\n      dup11\n        /* \"#utility.yul\":4662:4670   */\n      dup4\n        /* \"#utility.yul\":4651:4660   */\n      dup12\n        /* \"#utility.yul\":4647:4671   */\n      add\n        /* \"#utility.yul\":4629:4681   */\n      tag_355\n      jump\t// in\n    tag_397:\n        /* \"#utility.yul\":4619:4681   */\n      swap6\n      pop\n        /* \"#utility.yul\":4734:4736   */\n      0x60\n        /* \"#utility.yul\":4723:4732   */\n      dup10\n        /* \"#utility.yul\":4719:4737   */\n      add\n        /* \"#utility.yul\":4706:4738   */\n      calldataload\n        /* \"#utility.yul\":4690:4738   */\n      swap2\n      pop\n        /* \"#utility.yul\":4763:4765   */\n      dup1\n        /* \"#utility.yul\":4753:4761   */\n      dup3\n        /* \"#utility.yul\":4750:4766   */\n      gt\n        /* \"#utility.yul\":4747:4749   */\n      iszero\n      tag_398\n      jumpi\n        /* \"#utility.yul\":4784:4790   */\n      dup4\n        /* \"#utility.yul\":4776:4782   */\n      dup5\n        /* \"#utility.yul\":4769:4791   */\n      revert\n        /* \"#utility.yul\":4747:4749   */\n    tag_398:\n      pop\n        /* \"#utility.yul\":4812:4864   */\n      tag_399\n        /* \"#utility.yul\":4856:4863   */\n      dup10\n        /* \"#utility.yul\":4845:4853   */\n      dup3\n        /* \"#utility.yul\":4834:4843   */\n      dup11\n        /* \"#utility.yul\":4830:4854   */\n      add\n        /* \"#utility.yul\":4812:4864   */\n      tag_355\n      jump\t// in\n    tag_399:\n        /* \"#utility.yul\":4802:4864   */\n      swap4\n      pop\n      pop\n        /* \"#utility.yul\":4911:4914   */\n      0x80\n        /* \"#utility.yul\":4900:4909   */\n      dup8\n        /* \"#utility.yul\":4896:4915   */\n      add\n        /* \"#utility.yul\":4883:4916   */\n      calldataload\n        /* \"#utility.yul\":4873:4916   */\n      swap2\n      pop\n        /* \"#utility.yul\":4963:4966   */\n      0xa0\n        /* \"#utility.yul\":4952:4961   */\n      dup8\n        /* \"#utility.yul\":4948:4967   */\n      add\n        /* \"#utility.yul\":4935:4968   */\n      calldataload\n        /* \"#utility.yul\":4925:4968   */\n      swap1\n      pop\n        /* \"#utility.yul\":4037:4974   */\n      swap3\n      swap6\n      pop\n      swap3\n      swap6\n      pop\n      swap3\n      swap6\n      jump\t// out\n        /* \"#utility.yul\":4979:5758   */\n    tag_71:\n        /* \"#utility.yul\":5094:5100   */\n      0x00\n        /* \"#utility.yul\":5102:5108   */\n      dup1\n        /* \"#utility.yul\":5110:5116   */\n      0x00\n        /* \"#utility.yul\":5118:5124   */\n      dup1\n        /* \"#utility.yul\":5126:5132   */\n      0x00\n        /* \"#utility.yul\":5179:5182   */\n      0xa0\n        /* \"#utility.yul\":5167:5176   */\n      dup7\n        /* \"#utility.yul\":5158:5165   */\n      dup9\n        /* \"#utility.yul\":5154:5177   */\n      sub\n        /* \"#utility.yul\":5150:5183   */\n      slt\n        /* \"#utility.yul\":5147:5149   */\n      iszero\n      tag_401\n      jumpi\n        /* \"#utility.yul\":5201:5207   */\n      dup1\n        /* \"#utility.yul\":5193:5199   */\n      dup2\n        /* \"#utility.yul\":5186:5208   */\n      revert\n        /* \"#utility.yul\":5147:5149   */\n    tag_401:\n        /* \"#utility.yul\":5246:5255   */\n      dup6\n        /* \"#utility.yul\":5233:5256   */\n      calldataload\n        /* \"#utility.yul\":5275:5293   */\n      0xffffffffffffffff\n        /* \"#utility.yul\":5316:5318   */\n      dup1\n        /* \"#utility.yul\":5308:5314   */\n      dup3\n        /* \"#utility.yul\":5305:5319   */\n      gt\n        /* \"#utility.yul\":5302:5304   */\n      iszero\n      tag_402\n      jumpi\n        /* \"#utility.yul\":5337:5343   */\n      dup3\n        /* \"#utility.yul\":5329:5335   */\n      dup4\n        /* \"#utility.yul\":5322:5344   */\n      revert\n        /* \"#utility.yul\":5302:5304   */\n    tag_402:\n        /* \"#utility.yul\":5365:5415   */\n      tag_403\n        /* \"#utility.yul\":5407:5414   */\n      dup10\n        /* \"#utility.yul\":5398:5404   */\n      dup4\n        /* \"#utility.yul\":5387:5396   */\n      dup11\n        /* \"#utility.yul\":5383:5405   */\n      add\n        /* \"#utility.yul\":5365:5415   */\n      tag_355\n      jump\t// in\n    tag_403:\n        /* \"#utility.yul\":5355:5415   */\n      swap7\n      pop\n        /* \"#utility.yul\":5468:5470   */\n      0x20\n        /* \"#utility.yul\":5457:5466   */\n      dup9\n        /* \"#utility.yul\":5453:5471   */\n      add\n        /* \"#utility.yul\":5440:5472   */\n      calldataload\n        /* \"#utility.yul\":5424:5472   */\n      swap2\n      pop\n        /* \"#utility.yul\":5497:5499   */\n      dup1\n        /* \"#utility.yul\":5487:5495   */\n      dup3\n        /* \"#utility.yul\":5484:5500   */\n      gt\n        /* \"#utility.yul\":5481:5483   */\n      iszero\n      tag_404\n      jumpi\n        /* \"#utility.yul\":5518:5524   */\n      dup3\n        /* \"#utility.yul\":5510:5516   */\n      dup4\n        /* \"#utility.yul\":5503:5525   */\n      revert\n        /* \"#utility.yul\":5481:5483   */\n    tag_404:\n      pop\n        /* \"#utility.yul\":5546:5598   */\n      tag_405\n        /* \"#utility.yul\":5590:5597   */\n      dup9\n        /* \"#utility.yul\":5579:5587   */\n      dup3\n        /* \"#utility.yul\":5568:5577   */\n      dup10\n        /* \"#utility.yul\":5564:5588   */\n      add\n        /* \"#utility.yul\":5546:5598   */\n      tag_355\n      jump\t// in\n    tag_405:\n        /* \"#utility.yul\":5137:5758   */\n      swap6\n      swap9\n        /* \"#utility.yul\":5536:5598   */\n      swap6\n      swap8\n      pop\n      pop\n      pop\n      pop\n        /* \"#utility.yul\":5645:5647   */\n      0x40\n        /* \"#utility.yul\":5630:5648   */\n      dup5\n      add\n        /* \"#utility.yul\":5617:5649   */\n      calldataload\n      swap4\n        /* \"#utility.yul\":5696:5698   */\n      0x60\n        /* \"#utility.yul\":5681:5699   */\n      dup2\n      add\n        /* \"#utility.yul\":5668:5700   */\n      calldataload\n      swap4\n        /* \"#utility.yul\":5747:5750   */\n      0x80\n        /* \"#utility.yul\":5732:5751   */\n      swap1\n      swap2\n      add\n        /* \"#utility.yul\":5719:5752   */\n      calldataload\n      swap3\n      pop\n        /* \"#utility.yul\":5137:5758   */\n      swap1\n      pop\n      jump\t// out\n        /* \"#utility.yul\":5763:5953   */\n    tag_28:\n        /* \"#utility.yul\":5822:5828   */\n      0x00\n        /* \"#utility.yul\":5875:5877   */\n      0x20\n        /* \"#utility.yul\":5863:5872   */\n      dup3\n        /* \"#utility.yul\":5854:5861   */\n      dup5\n        /* \"#utility.yul\":5850:5873   */\n      sub\n        /* \"#utility.yul\":5846:5878   */\n      slt\n        /* \"#utility.yul\":5843:5845   */\n      iszero\n      tag_407\n      jumpi\n        /* \"#utility.yul\":5896:5902   */\n      dup1\n        /* \"#utility.yul\":5888:5894   */\n      dup2\n        /* \"#utility.yul\":5881:5903   */\n      revert\n        /* \"#utility.yul\":5843:5845   */\n    tag_407:\n      pop\n        /* \"#utility.yul\":5924:5947   */\n      calldataload\n      swap2\n        /* \"#utility.yul\":5833:5953   */\n      swap1\n      pop\n      jump\t// out\n        /* \"#utility.yul\":5958:6810   */\n    tag_39:\n        /* \"#utility.yul\":6074:6080   */\n      0x00\n        /* \"#utility.yul\":6082:6088   */\n      dup1\n        /* \"#utility.yul\":6090:6096   */\n      0x00\n        /* \"#utility.yul\":6098:6104   */\n      dup1\n        /* \"#utility.yul\":6151:6154   */\n      0x80\n        /* \"#utility.yul\":6139:6148   */\n      dup6\n        /* \"#utility.yul\":6130:6137   */\n      dup8\n        /* \"#utility.yul\":6126:6149   */\n      sub\n        /* \"#utility.yul\":6122:6155   */\n      slt\n        /* \"#utility.yul\":6119:6121   */\n      iszero\n      tag_409\n      jumpi\n        /* \"#utility.yul\":6173:6179   */\n      dup4\n        /* \"#utility.yul\":6165:6171   */\n      dup5\n        /* \"#utility.yul\":6158:6180   */\n      revert\n        /* \"#utility.yul\":6119:6121   */\n    tag_409:\n        /* \"#utility.yul\":6214:6223   */\n      dup5\n        /* \"#utility.yul\":6201:6224   */\n      calldataload\n        /* \"#utility.yul\":6191:6224   */\n      swap4\n      pop\n        /* \"#utility.yul\":6275:6277   */\n      0x20\n        /* \"#utility.yul\":6264:6273   */\n      dup6\n        /* \"#utility.yul\":6260:6278   */\n      add\n        /* \"#utility.yul\":6247:6279   */\n      calldataload\n        /* \"#utility.yul\":6298:6316   */\n      0xffffffffffffffff\n        /* \"#utility.yul\":6339:6341   */\n      dup1\n        /* \"#utility.yul\":6331:6337   */\n      dup3\n        /* \"#utility.yul\":6328:6342   */\n      gt\n        /* \"#utility.yul\":6325:6327   */\n      iszero\n      tag_410\n      jumpi\n        /* \"#utility.yul\":6360:6366   */\n      dup5\n        /* \"#utility.yul\":6352:6358   */\n      dup6\n        /* \"#utility.yul\":6345:6367   */\n      revert\n        /* \"#utility.yul\":6325:6327   */\n    tag_410:\n        /* \"#utility.yul\":6388:6438   */\n      tag_411\n        /* \"#utility.yul\":6430:6437   */\n      dup9\n        /* \"#utility.yul\":6421:6427   */\n      dup4\n        /* \"#utility.yul\":6410:6419   */\n      dup10\n        /* \"#utility.yul\":6406:6428   */\n      add\n        /* \"#utility.yul\":6388:6438   */\n      tag_355\n      jump\t// in\n    tag_411:\n        /* \"#utility.yul\":6378:6438   */\n      swap5\n      pop\n        /* \"#utility.yul\":6491:6493   */\n      0x40\n        /* \"#utility.yul\":6480:6489   */\n      dup8\n        /* \"#utility.yul\":6476:6494   */\n      add\n        /* \"#utility.yul\":6463:6495   */\n      calldataload\n        /* \"#utility.yul\":6447:6495   */\n      swap2\n      pop\n        /* \"#utility.yul\":6520:6522   */\n      dup1\n        /* \"#utility.yul\":6510:6518   */\n      dup3\n        /* \"#utility.yul\":6507:6523   */\n      gt\n        /* \"#utility.yul\":6504:6506   */\n      iszero\n      tag_412\n      jumpi\n        /* \"#utility.yul\":6541:6547   */\n      dup4\n        /* \"#utility.yul\":6533:6539   */\n      dup5\n        /* \"#utility.yul\":6526:6548   */\n      revert\n        /* \"#utility.yul\":6504:6506   */\n    tag_412:\n        /* \"#utility.yul\":6569:6621   */\n      tag_413\n        /* \"#utility.yul\":6613:6620   */\n      dup9\n        /* \"#utility.yul\":6602:6610   */\n      dup4\n        /* \"#utility.yul\":6591:6600   */\n      dup10\n        /* \"#utility.yul\":6587:6611   */\n      add\n        /* \"#utility.yul\":6569:6621   */\n      tag_355\n      jump\t// in\n    tag_413:\n        /* \"#utility.yul\":6559:6621   */\n      swap4\n      pop\n        /* \"#utility.yul\":6674:6676   */\n      0x60\n        /* \"#utility.yul\":6663:6672   */\n      dup8\n        /* \"#utility.yul\":6659:6677   */\n      add\n        /* \"#utility.yul\":6646:6678   */\n      calldataload\n        /* \"#utility.yul\":6630:6678   */\n      swap2\n      pop\n        /* \"#utility.yul\":6703:6705   */\n      dup1\n        /* \"#utility.yul\":6693:6701   */\n      dup3\n        /* \"#utility.yul\":6690:6706   */\n      gt\n        /* \"#utility.yul\":6687:6689   */\n      iszero\n      tag_414\n      jumpi\n        /* \"#utility.yul\":6724:6730   */\n      dup3\n        /* \"#utility.yul\":6716:6722   */\n      dup4\n        /* \"#utility.yul\":6709:6731   */\n      revert\n        /* \"#utility.yul\":6687:6689   */\n    tag_414:\n      pop\n        /* \"#utility.yul\":6752:6804   */\n      tag_415\n        /* \"#utility.yul\":6796:6803   */\n      dup8\n        /* \"#utility.yul\":6785:6793   */\n      dup3\n        /* \"#utility.yul\":6774:6783   */\n      dup9\n        /* \"#utility.yul\":6770:6794   */\n      add\n        /* \"#utility.yul\":6752:6804   */\n      tag_355\n      jump\t// in\n    tag_415:\n        /* \"#utility.yul\":6742:6804   */\n      swap2\n      pop\n      pop\n        /* \"#utility.yul\":6109:6810   */\n      swap3\n      swap6\n      swap2\n      swap5\n      pop\n      swap3\n      pop\n      jump\t// out\n        /* \"#utility.yul\":6815:7073   */\n    tag_43:\n        /* \"#utility.yul\":6883:6889   */\n      0x00\n        /* \"#utility.yul\":6891:6897   */\n      dup1\n        /* \"#utility.yul\":6944:6946   */\n      0x40\n        /* \"#utility.yul\":6932:6941   */\n      dup4\n        /* \"#utility.yul\":6923:6930   */\n      dup6\n        /* \"#utility.yul\":6919:6942   */\n      sub\n        /* \"#utility.yul\":6915:6947   */\n      slt\n        /* \"#utility.yul\":6912:6914   */\n      iszero\n      tag_417\n      jumpi\n        /* \"#utility.yul\":6965:6971   */\n      dup2\n        /* \"#utility.yul\":6957:6963   */\n      dup3\n        /* \"#utility.yul\":6950:6972   */\n      revert\n        /* \"#utility.yul\":6912:6914   */\n    tag_417:\n      pop\n      pop\n        /* \"#utility.yul\":6993:7016   */\n      dup1\n      calldataload\n      swap3\n        /* \"#utility.yul\":7063:7065   */\n      0x20\n        /* \"#utility.yul\":7048:7066   */\n      swap1\n      swap2\n      add\n        /* \"#utility.yul\":7035:7067   */\n      calldataload\n      swap2\n      pop\n        /* \"#utility.yul\":6902:7073   */\n      jump\t// out\n        /* \"#utility.yul\":7078:7484   */\n    tag_57:\n        /* \"#utility.yul\":7164:7170   */\n      0x00\n        /* \"#utility.yul\":7172:7178   */\n      dup1\n        /* \"#utility.yul\":7180:7186   */\n      0x00\n        /* \"#utility.yul\":7233:7235   */\n      0x60\n        /* \"#utility.yul\":7221:7230   */\n      dup5\n        /* \"#utility.yul\":7212:7219   */\n      dup7\n        /* \"#utility.yul\":7208:7231   */\n      sub\n        /* \"#utility.yul\":7204:7236   */\n      slt\n        /* \"#utility.yul\":7201:7203   */\n      iszero\n      tag_419\n      jumpi\n        /* \"#utility.yul\":7254:7260   */\n      dup3\n        /* \"#utility.yul\":7246:7252   */\n      dup4\n        /* \"#utility.yul\":7239:7261   */\n      revert\n        /* \"#utility.yul\":7201:7203   */\n    tag_419:\n        /* \"#utility.yul\":7295:7304   */\n      dup4\n        /* \"#utility.yul\":7282:7305   */\n      calldataload\n        /* \"#utility.yul\":7272:7305   */\n      swap3\n      pop\n        /* \"#utility.yul\":7352:7354   */\n      0x20\n        /* \"#utility.yul\":7341:7350   */\n      dup5\n        /* \"#utility.yul\":7337:7355   */\n      add\n        /* \"#utility.yul\":7324:7356   */\n      calldataload\n        /* \"#utility.yul\":7314:7356   */\n      swap2\n      pop\n        /* \"#utility.yul\":7406:7408   */\n      0x40\n        /* \"#utility.yul\":7395:7404   */\n      dup5\n        /* \"#utility.yul\":7391:7409   */\n      add\n        /* \"#utility.yul\":7378:7410   */\n      calldataload\n        /* \"#utility.yul\":7419:7454   */\n      tag_420\n        /* \"#utility.yul\":7448:7453   */\n      dup2\n        /* \"#utility.yul\":7419:7454   */\n      tag_354\n      jump\t// in\n    tag_420:\n        /* \"#utility.yul\":7473:7478   */\n      dup1\n        /* \"#utility.yul\":7463:7478   */\n      swap2\n      pop\n      pop\n        /* \"#utility.yul\":7191:7484   */\n      swap3\n      pop\n      swap3\n      pop\n      swap3\n      jump\t// out\n        /* \"#utility.yul\":7489:8410   */\n    tag_53:\n        /* \"#utility.yul\":7614:7620   */\n      0x00\n        /* \"#utility.yul\":7622:7628   */\n      dup1\n        /* \"#utility.yul\":7630:7636   */\n      0x00\n        /* \"#utility.yul\":7638:7644   */\n      dup1\n        /* \"#utility.yul\":7646:7652   */\n      0x00\n        /* \"#utility.yul\":7699:7702   */\n      0xa0\n        /* \"#utility.yul\":7687:7696   */\n      dup7\n        /* \"#utility.yul\":7678:7685   */\n      dup9\n        /* \"#utility.yul\":7674:7697   */\n      sub\n        /* \"#utility.yul\":7670:7703   */\n      slt\n        /* \"#utility.yul\":7667:7669   */\n      iszero\n      tag_422\n      jumpi\n        /* \"#utility.yul\":7721:7727   */\n      dup1\n        /* \"#utility.yul\":7713:7719   */\n      dup2\n        /* \"#utility.yul\":7706:7728   */\n      revert\n        /* \"#utility.yul\":7667:7669   */\n    tag_422:\n        /* \"#utility.yul\":7762:7771   */\n      dup6\n        /* \"#utility.yul\":7749:7772   */\n      calldataload\n        /* \"#utility.yul\":7739:7772   */\n      swap5\n      pop\n        /* \"#utility.yul\":7819:7821   */\n      0x20\n        /* \"#utility.yul\":7808:7817   */\n      dup7\n        /* \"#utility.yul\":7804:7822   */\n      add\n        /* \"#utility.yul\":7791:7823   */\n      calldataload\n        /* \"#utility.yul\":7781:7823   */\n      swap4\n      pop\n        /* \"#utility.yul\":7874:7876   */\n      0x40\n        /* \"#utility.yul\":7863:7872   */\n      dup7\n        /* \"#utility.yul\":7859:7877   */\n      add\n        /* \"#utility.yul\":7846:7878   */\n      calldataload\n        /* \"#utility.yul\":7897:7915   */\n      0xffffffffffffffff\n        /* \"#utility.yul\":7938:7940   */\n      dup1\n        /* \"#utility.yul\":7930:7936   */\n      dup3\n        /* \"#utility.yul\":7927:7941   */\n      gt\n        /* \"#utility.yul\":7924:7926   */\n      iszero\n      tag_423\n      jumpi\n        /* \"#utility.yul\":7959:7965   */\n      dup3\n        /* \"#utility.yul\":7951:7957   */\n      dup4\n        /* \"#utility.yul\":7944:7966   */\n      revert\n        /* \"#utility.yul\":7924:7926   */\n    tag_423:\n        /* \"#utility.yul\":7987:8037   */\n      tag_424\n        /* \"#utility.yul\":8029:8036   */\n      dup10\n        /* \"#utility.yul\":8020:8026   */\n      dup4\n        /* \"#utility.yul\":8009:8018   */\n      dup11\n        /* \"#utility.yul\":8005:8027   */\n      add\n        /* \"#utility.yul\":7987:8037   */\n      tag_355\n      jump\t// in\n    tag_424:\n        /* \"#utility.yul\":7977:8037   */\n      swap5\n      pop\n        /* \"#utility.yul\":8090:8092   */\n      0x60\n        /* \"#utility.yul\":8079:8088   */\n      dup9\n        /* \"#utility.yul\":8075:8093   */\n      add\n        /* \"#utility.yul\":8062:8094   */\n      calldataload\n        /* \"#utility.yul\":8046:8094   */\n      swap2\n      pop\n        /* \"#utility.yul\":8119:8121   */\n      dup1\n        /* \"#utility.yul\":8109:8117   */\n      dup3\n        /* \"#utility.yul\":8106:8122   */\n      gt\n        /* \"#utility.yul\":8103:8105   */\n      iszero\n      tag_425\n      jumpi\n        /* \"#utility.yul\":8140:8146   */\n      dup3\n        /* \"#utility.yul\":8132:8138   */\n      dup4\n        /* \"#utility.yul\":8125:8147   */\n      revert\n        /* \"#utility.yul\":8103:8105   */\n    tag_425:\n        /* \"#utility.yul\":8168:8220   */\n      tag_426\n        /* \"#utility.yul\":8212:8219   */\n      dup10\n        /* \"#utility.yul\":8201:8209   */\n      dup4\n        /* \"#utility.yul\":8190:8199   */\n      dup11\n        /* \"#utility.yul\":8186:8210   */\n      add\n        /* \"#utility.yul\":8168:8220   */\n      tag_355\n      jump\t// in\n    tag_426:\n        /* \"#utility.yul\":8158:8220   */\n      swap4\n      pop\n        /* \"#utility.yul\":8273:8276   */\n      0x80\n        /* \"#utility.yul\":8262:8271   */\n      dup9\n        /* \"#utility.yul\":8258:8277   */\n      add\n        /* \"#utility.yul\":8245:8278   */\n      calldataload\n        /* \"#utility.yul\":8229:8278   */\n      swap2\n      pop\n        /* \"#utility.yul\":8303:8305   */\n      dup1\n        /* \"#utility.yul\":8293:8301   */\n      dup3\n        /* \"#utility.yul\":8290:8306   */\n      gt\n        /* \"#utility.yul\":8287:8289   */\n      iszero\n      tag_427\n      jumpi\n        /* \"#utility.yul\":8324:8330   */\n      dup3\n        /* \"#utility.yul\":8316:8322   */\n      dup4\n        /* \"#utility.yul\":8309:8331   */\n      revert\n        /* \"#utility.yul\":8287:8289   */\n    tag_427:\n      pop\n        /* \"#utility.yul\":8352:8404   */\n      tag_428\n        /* \"#utility.yul\":8396:8403   */\n      dup9\n        /* \"#utility.yul\":8385:8393   */\n      dup3\n        /* \"#utility.yul\":8374:8383   */\n      dup10\n        /* \"#utility.yul\":8370:8394   */\n      add\n        /* \"#utility.yul\":8352:8404   */\n      tag_355\n      jump\t// in\n    tag_428:\n        /* \"#utility.yul\":8342:8404   */\n      swap2\n      pop\n      pop\n        /* \"#utility.yul\":7657:8410   */\n      swap3\n      swap6\n      pop\n      swap3\n      swap6\n      swap1\n      swap4\n      pop\n      jump\t// out\n        /* \"#utility.yul\":8415:8741   */\n    tag_24:\n        /* \"#utility.yul\":8492:8498   */\n      0x00\n        /* \"#utility.yul\":8500:8506   */\n      dup1\n        /* \"#utility.yul\":8508:8514   */\n      0x00\n        /* \"#utility.yul\":8561:8563   */\n      0x60\n        /* \"#utility.yul\":8549:8558   */\n      dup5\n        /* \"#utility.yul\":8540:8547   */\n      dup7\n        /* \"#utility.yul\":8536:8559   */\n      sub\n        /* \"#utility.yul\":8532:8564   */\n      slt\n        /* \"#utility.yul\":8529:8531   */\n      iszero\n      tag_430\n      jumpi\n        /* \"#utility.yul\":8582:8588   */\n      dup1\n        /* \"#utility.yul\":8574:8580   */\n      dup2\n        /* \"#utility.yul\":8567:8589   */\n      revert\n        /* \"#utility.yul\":8529:8531   */\n    tag_430:\n      pop\n      pop\n        /* \"#utility.yul\":8610:8633   */\n      dup2\n      calldataload\n      swap4\n        /* \"#utility.yul\":8680:8682   */\n      0x20\n        /* \"#utility.yul\":8665:8683   */\n      dup4\n      add\n        /* \"#utility.yul\":8652:8684   */\n      calldataload\n      swap4\n      pop\n        /* \"#utility.yul\":8731:8733   */\n      0x40\n        /* \"#utility.yul\":8716:8734   */\n      swap1\n      swap3\n      add\n        /* \"#utility.yul\":8703:8735   */\n      calldataload\n      swap2\n        /* \"#utility.yul\":8519:8741   */\n      swap1\n      pop\n      jump\t// out\n        /* \"#utility.yul\":8746:9141   */\n    tag_49:\n        /* \"#utility.yul\":8832:8838   */\n      0x00\n        /* \"#utility.yul\":8840:8846   */\n      dup1\n        /* \"#utility.yul\":8848:8854   */\n      0x00\n        /* \"#utility.yul\":8856:8862   */\n      dup1\n        /* \"#utility.yul\":8909:8912   */\n      0x80\n        /* \"#utility.yul\":8897:8906   */\n      dup6\n        /* \"#utility.yul\":8888:8895   */\n      dup8\n        /* \"#utility.yul\":8884:8907   */\n      sub\n        /* \"#utility.yul\":8880:8913   */\n      slt\n        /* \"#utility.yul\":8877:8879   */\n      iszero\n      tag_432\n      jumpi\n        /* \"#utility.yul\":8931:8937   */\n      dup2\n        /* \"#utility.yul\":8923:8929   */\n      dup3\n        /* \"#utility.yul\":8916:8938   */\n      revert\n        /* \"#utility.yul\":8877:8879   */\n    tag_432:\n      pop\n      pop\n        /* \"#utility.yul\":8959:8982   */\n      dup3\n      calldataload\n      swap5\n        /* \"#utility.yul\":9029:9031   */\n      0x20\n        /* \"#utility.yul\":9014:9032   */\n      dup5\n      add\n        /* \"#utility.yul\":9001:9033   */\n      calldataload\n      swap5\n      pop\n        /* \"#utility.yul\":9080:9082   */\n      0x40\n        /* \"#utility.yul\":9065:9083   */\n      dup5\n      add\n        /* \"#utility.yul\":9052:9084   */\n      calldataload\n      swap4\n        /* \"#utility.yul\":9131:9133   */\n      0x60\n        /* \"#utility.yul\":9116:9134   */\n      add\n        /* \"#utility.yul\":9103:9135   */\n      calldataload\n      swap3\n      pop\n        /* \"#utility.yul\":8867:9141   */\n      swap1\n      pop\n      jump\t// out\n        /* \"#utility.yul\":9146:9404   */\n    tag_433:\n        /* \"#utility.yul\":9188:9191   */\n      0x00\n        /* \"#utility.yul\":9226:9231   */\n      dup2\n        /* \"#utility.yul\":9220:9232   */\n      mload\n        /* \"#utility.yul\":9253:9259   */\n      dup1\n        /* \"#utility.yul\":9248:9251   */\n      dup5\n        /* \"#utility.yul\":9241:9260   */\n      mstore\n        /* \"#utility.yul\":9269:9332   */\n      tag_435\n        /* \"#utility.yul\":9325:9331   */\n      dup2\n        /* \"#utility.yul\":9318:9322   */\n      0x20\n        /* \"#utility.yul\":9313:9316   */\n      dup7\n        /* \"#utility.yul\":9309:9323   */\n      add\n        /* \"#utility.yul\":9302:9306   */\n      0x20\n        /* \"#utility.yul\":9295:9300   */\n      dup7\n        /* \"#utility.yul\":9291:9307   */\n      add\n        /* \"#utility.yul\":9269:9332   */\n      tag_436\n      jump\t// in\n    tag_435:\n        /* \"#utility.yul\":9386:9388   */\n      0x1f\n        /* \"#utility.yul\":9365:9380   */\n      add\n      not(0x1f)\n        /* \"#utility.yul\":9361:9390   */\n      and\n        /* \"#utility.yul\":9352:9391   */\n      swap3\n      swap1\n      swap3\n      add\n        /* \"#utility.yul\":9393:9397   */\n      0x20\n        /* \"#utility.yul\":9348:9398   */\n      add\n      swap3\n        /* \"#utility.yul\":9196:9404   */\n      swap2\n      pop\n      pop\n      jump\t// out\n        /* \"#utility.yul\":9409:10517   */\n    tag_154:\n        /* \"#utility.yul\":9539:9542   */\n      0x00\n        /* \"#utility.yul\":9568:9571   */\n      dup1\n        /* \"#utility.yul\":9603:9609   */\n      dup4\n        /* \"#utility.yul\":9597:9610   */\n      sload\n        /* \"#utility.yul\":9633:9636   */\n      dup3\n        /* \"#utility.yul\":9655:9656   */\n      0x01\n        /* \"#utility.yul\":9683:9692   */\n      dup3\n        /* \"#utility.yul\":9679:9681   */\n      dup2\n        /* \"#utility.yul\":9675:9693   */\n      shr\n        /* \"#utility.yul\":9665:9693   */\n      swap2\n      pop\n        /* \"#utility.yul\":9743:9745   */\n      dup1\n        /* \"#utility.yul\":9732:9741   */\n      dup4\n        /* \"#utility.yul\":9728:9746   */\n      and\n        /* \"#utility.yul\":9765:9783   */\n      dup1\n        /* \"#utility.yul\":9755:9757   */\n      tag_438\n      jumpi\n        /* \"#utility.yul\":9809:9813   */\n      0x7f\n        /* \"#utility.yul\":9801:9807   */\n      dup4\n        /* \"#utility.yul\":9797:9814   */\n      and\n        /* \"#utility.yul\":9787:9814   */\n      swap3\n      pop\n        /* \"#utility.yul\":9755:9757   */\n    tag_438:\n        /* \"#utility.yul\":9835:9837   */\n      0x20\n        /* \"#utility.yul\":9883:9885   */\n      dup1\n        /* \"#utility.yul\":9875:9881   */\n      dup5\n        /* \"#utility.yul\":9872:9886   */\n      lt\n        /* \"#utility.yul\":9852:9870   */\n      dup3\n        /* \"#utility.yul\":9849:9887   */\n      eq\n        /* \"#utility.yul\":9846:9848   */\n      iszero\n      tag_439\n      jumpi\n      shl(0xe0, 0x4e487b71)\n        /* \"#utility.yul\":9910:9943   */\n      dup8\n      mstore\n        /* \"#utility.yul\":9966:9970   */\n      0x22\n        /* \"#utility.yul\":9963:9964   */\n      0x04\n        /* \"#utility.yul\":9956:9971   */\n      mstore\n        /* \"#utility.yul\":9996:10000   */\n      0x24\n        /* \"#utility.yul\":9917:9920   */\n      dup8\n        /* \"#utility.yul\":9984:10001   */\n      revert\n        /* \"#utility.yul\":9846:9848   */\n    tag_439:\n        /* \"#utility.yul\":10027:10045   */\n      dup2\n        /* \"#utility.yul\":10054:10158   */\n      dup1\n      iszero\n      tag_441\n      jumpi\n        /* \"#utility.yul\":10172:10173   */\n      0x01\n        /* \"#utility.yul\":10167:10492   */\n      dup2\n      eq\n      tag_442\n      jumpi\n        /* \"#utility.yul\":10020:10492   */\n      jump(tag_440)\n        /* \"#utility.yul\":10054:10158   */\n    tag_441:\n      not(0xff)\n        /* \"#utility.yul\":10087:10111   */\n      dup7\n      and\n        /* \"#utility.yul\":10075:10112   */\n      dup10\n      mstore\n        /* \"#utility.yul\":10132:10148   */\n      dup5\n      dup10\n      add\n      swap7\n      pop\n        /* \"#utility.yul\":10054:10158   */\n      jump(tag_440)\n        /* \"#utility.yul\":10167:10492   */\n    tag_442:\n        /* \"#utility.yul\":21715:21719   */\n      0x00\n        /* \"#utility.yul\":21734:21751   */\n      dup11\n      dup2\n      mstore\n        /* \"#utility.yul\":21784:21788   */\n      0x20\n        /* \"#utility.yul\":21768:21789   */\n      swap1\n      keccak256\n        /* \"#utility.yul\":10265:10268   */\n      dup9\n        /* \"#utility.yul\":10281:10446   */\n    tag_445:\n        /* \"#utility.yul\":10295:10301   */\n      dup7\n        /* \"#utility.yul\":10292:10293   */\n      dup2\n        /* \"#utility.yul\":10289:10302   */\n      lt\n        /* \"#utility.yul\":10281:10446   */\n      iszero\n      tag_447\n      jumpi\n        /* \"#utility.yul\":10373:10387   */\n      dup2\n      sload\n        /* \"#utility.yul\":10360:10371   */\n      dup12\n      dup3\n      add\n        /* \"#utility.yul\":10353:10388   */\n      mstore\n        /* \"#utility.yul\":10416:10432   */\n      swap1\n      dup6\n      add\n      swap1\n        /* \"#utility.yul\":10310:10320   */\n      dup4\n      add\n        /* \"#utility.yul\":10281:10446   */\n      jump(tag_445)\n    tag_447:\n        /* \"#utility.yul\":10285:10288   */\n      pop\n      pop\n        /* \"#utility.yul\":10475:10481   */\n      dup5\n        /* \"#utility.yul\":10470:10473   */\n      dup10\n        /* \"#utility.yul\":10466:10482   */\n      add\n        /* \"#utility.yul\":10459:10482   */\n      swap7\n      pop\n        /* \"#utility.yul\":10020:10492   */\n    tag_440:\n      pop\n        /* \"#utility.yul\":10508:10511   */\n      swap5\n      swap9\n        /* \"#utility.yul\":9547:10517   */\n      swap8\n      pop\n      pop\n      pop\n      pop\n      pop\n      pop\n      pop\n      pop\n      jump\t// out\n        /* \"#utility.yul\":10522:10992   */\n    tag_239:\n        /* \"#utility.yul\":10701:10704   */\n      0x00\n        /* \"#utility.yul\":10739:10745   */\n      dup4\n        /* \"#utility.yul\":10733:10746   */\n      mload\n        /* \"#utility.yul\":10755:10808   */\n      tag_449\n        /* \"#utility.yul\":10801:10807   */\n      dup2\n        /* \"#utility.yul\":10796:10799   */\n      dup5\n        /* \"#utility.yul\":10789:10793   */\n      0x20\n        /* \"#utility.yul\":10781:10787   */\n      dup9\n        /* \"#utility.yul\":10777:10794   */\n      add\n        /* \"#utility.yul\":10755:10808   */\n      tag_436\n      jump\t// in\n    tag_449:\n        /* \"#utility.yul\":10871:10884   */\n      dup4\n      mload\n        /* \"#utility.yul\":10830:10846   */\n      swap1\n      dup4\n      add\n      swap1\n        /* \"#utility.yul\":10893:10950   */\n      tag_450\n        /* \"#utility.yul\":10871:10884   */\n      dup2\n        /* \"#utility.yul\":10830:10846   */\n      dup4\n        /* \"#utility.yul\":10927:10931   */\n      0x20\n        /* \"#utility.yul\":10915:10932   */\n      dup9\n      add\n        /* \"#utility.yul\":10893:10950   */\n      tag_436\n      jump\t// in\n    tag_450:\n        /* \"#utility.yul\":10966:10986   */\n      add\n      swap5\n        /* \"#utility.yul\":10709:10992   */\n      swap4\n      pop\n      pop\n      pop\n      pop\n      jump\t// out\n        /* \"#utility.yul\":11189:11818   */\n    tag_68:\n        /* \"#utility.yul\":11456:11459   */\n      0x80\n        /* \"#utility.yul\":11445:11454   */\n      dup2\n        /* \"#utility.yul\":11438:11460   */\n      mstore\n        /* \"#utility.yul\":11419:11423   */\n      0x00\n        /* \"#utility.yul\":11483:11529   */\n      tag_453\n        /* \"#utility.yul\":11524:11527   */\n      0x80\n        /* \"#utility.yul\":11513:11522   */\n      dup4\n        /* \"#utility.yul\":11509:11528   */\n      add\n        /* \"#utility.yul\":11501:11507   */\n      dup8\n        /* \"#utility.yul\":11483:11529   */\n      tag_433\n      jump\t// in\n    tag_453:\n        /* \"#utility.yul\":11577:11586   */\n      dup3\n        /* \"#utility.yul\":11569:11575   */\n      dup2\n        /* \"#utility.yul\":11565:11587   */\n      sub\n        /* \"#utility.yul\":11560:11562   */\n      0x20\n        /* \"#utility.yul\":11549:11558   */\n      dup5\n        /* \"#utility.yul\":11545:11563   */\n      add\n        /* \"#utility.yul\":11538:11588   */\n      mstore\n        /* \"#utility.yul\":11611:11644   */\n      tag_454\n        /* \"#utility.yul\":11637:11643   */\n      dup2\n        /* \"#utility.yul\":11629:11635   */\n      dup8\n        /* \"#utility.yul\":11611:11644   */\n      tag_433\n      jump\t// in\n    tag_454:\n        /* \"#utility.yul\":11597:11644   */\n      swap1\n      pop\n        /* \"#utility.yul\":11692:11701   */\n      dup3\n        /* \"#utility.yul\":11684:11690   */\n      dup2\n        /* \"#utility.yul\":11680:11702   */\n      sub\n        /* \"#utility.yul\":11675:11677   */\n      0x40\n        /* \"#utility.yul\":11664:11673   */\n      dup5\n        /* \"#utility.yul\":11660:11678   */\n      add\n        /* \"#utility.yul\":11653:11703   */\n      mstore\n        /* \"#utility.yul\":11720:11753   */\n      tag_455\n        /* \"#utility.yul\":11746:11752   */\n      dup2\n        /* \"#utility.yul\":11738:11744   */\n      dup7\n        /* \"#utility.yul\":11720:11753   */\n      tag_433\n      jump\t// in\n    tag_455:\n        /* \"#utility.yul\":11712:11753   */\n      swap2\n      pop\n      pop\n        /* \"#utility.yul\":11803:11809   */\n      dup3\n        /* \"#utility.yul\":11796:11810   */\n      iszero\n        /* \"#utility.yul\":11789:11811   */\n      iszero\n        /* \"#utility.yul\":11784:11786   */\n      0x60\n        /* \"#utility.yul\":11773:11782   */\n      dup4\n        /* \"#utility.yul\":11769:11787   */\n      add\n        /* \"#utility.yul\":11762:11812   */\n      mstore\n        /* \"#utility.yul\":11428:11818   */\n      swap6\n      swap5\n      pop\n      pop\n      pop\n      pop\n      pop\n      jump\t// out\n        /* \"#utility.yul\":11823:12616   */\n    tag_36:\n        /* \"#utility.yul\":12138:12141   */\n      0xa0\n        /* \"#utility.yul\":12127:12136   */\n      dup2\n        /* \"#utility.yul\":12120:12142   */\n      mstore\n        /* \"#utility.yul\":12101:12105   */\n      0x00\n        /* \"#utility.yul\":12165:12211   */\n      tag_457\n        /* \"#utility.yul\":12206:12209   */\n      0xa0\n        /* \"#utility.yul\":12195:12204   */\n      dup4\n        /* \"#utility.yul\":12191:12210   */\n      add\n        /* \"#utility.yul\":12183:12189   */\n      dup9\n        /* \"#utility.yul\":12165:12211   */\n      tag_433\n      jump\t// in\n    tag_457:\n        /* \"#utility.yul\":12259:12268   */\n      dup3\n        /* \"#utility.yul\":12251:12257   */\n      dup2\n        /* \"#utility.yul\":12247:12269   */\n      sub\n        /* \"#utility.yul\":12242:12244   */\n      0x20\n        /* \"#utility.yul\":12231:12240   */\n      dup5\n        /* \"#utility.yul\":12227:12245   */\n      add\n        /* \"#utility.yul\":12220:12270   */\n      mstore\n        /* \"#utility.yul\":12293:12326   */\n      tag_458\n        /* \"#utility.yul\":12319:12325   */\n      dup2\n        /* \"#utility.yul\":12311:12317   */\n      dup9\n        /* \"#utility.yul\":12293:12326   */\n      tag_433\n      jump\t// in\n    tag_458:\n        /* \"#utility.yul\":12279:12326   */\n      swap1\n      pop\n        /* \"#utility.yul\":12374:12383   */\n      dup3\n        /* \"#utility.yul\":12366:12372   */\n      dup2\n        /* \"#utility.yul\":12362:12384   */\n      sub\n        /* \"#utility.yul\":12357:12359   */\n      0x40\n        /* \"#utility.yul\":12346:12355   */\n      dup5\n        /* \"#utility.yul\":12342:12360   */\n      add\n        /* \"#utility.yul\":12335:12385   */\n      mstore\n        /* \"#utility.yul\":12408:12441   */\n      tag_459\n        /* \"#utility.yul\":12434:12440   */\n      dup2\n        /* \"#utility.yul\":12426:12432   */\n      dup8\n        /* \"#utility.yul\":12408:12441   */\n      tag_433\n      jump\t// in\n    tag_459:\n        /* \"#utility.yul\":12394:12441   */\n      swap1\n      pop\n        /* \"#utility.yul\":12489:12498   */\n      dup3\n        /* \"#utility.yul\":12481:12487   */\n      dup2\n        /* \"#utility.yul\":12477:12499   */\n      sub\n        /* \"#utility.yul\":12472:12474   */\n      0x60\n        /* \"#utility.yul\":12461:12470   */\n      dup5\n        /* \"#utility.yul\":12457:12475   */\n      add\n        /* \"#utility.yul\":12450:12500   */\n      mstore\n        /* \"#utility.yul\":12517:12550   */\n      tag_460\n        /* \"#utility.yul\":12543:12549   */\n      dup2\n        /* \"#utility.yul\":12535:12541   */\n      dup7\n        /* \"#utility.yul\":12517:12550   */\n      tag_433\n      jump\t// in\n    tag_460:\n        /* \"#utility.yul\":12509:12550   */\n      swap2\n      pop\n      pop\n        /* \"#utility.yul\":12601:12607   */\n      dup3\n        /* \"#utility.yul\":12594:12608   */\n      iszero\n        /* \"#utility.yul\":12587:12609   */\n      iszero\n        /* \"#utility.yul\":12581:12584   */\n      0x80\n        /* \"#utility.yul\":12570:12579   */\n      dup4\n        /* \"#utility.yul\":12566:12585   */\n      add\n        /* \"#utility.yul\":12559:12610   */\n      mstore\n        /* \"#utility.yul\":12110:12616   */\n      swap7\n      swap6\n      pop\n      pop\n      pop\n      pop\n      pop\n      pop\n      jump\t// out\n        /* \"#utility.yul\":12621:13869   */\n    tag_31:\n        /* \"#utility.yul\":13018:13022   */\n      0x00\n        /* \"#utility.yul\":13047:13050   */\n      0x0100\n        /* \"#utility.yul\":13077:13079   */\n      dup1\n        /* \"#utility.yul\":13066:13075   */\n      dup4\n        /* \"#utility.yul\":13059:13080   */\n      mstore\n        /* \"#utility.yul\":13103:13148   */\n      tag_462\n        /* \"#utility.yul\":13144:13146   */\n      dup2\n        /* \"#utility.yul\":13133:13142   */\n      dup5\n        /* \"#utility.yul\":13129:13147   */\n      add\n        /* \"#utility.yul\":13121:13127   */\n      dup13\n        /* \"#utility.yul\":13103:13148   */\n      tag_433\n      jump\t// in\n    tag_462:\n        /* \"#utility.yul\":13089:13148   */\n      swap1\n      pop\n        /* \"#utility.yul\":13196:13205   */\n      dup3\n        /* \"#utility.yul\":13188:13194   */\n      dup2\n        /* \"#utility.yul\":13184:13206   */\n      sub\n        /* \"#utility.yul\":13179:13181   */\n      0x20\n        /* \"#utility.yul\":13168:13177   */\n      dup5\n        /* \"#utility.yul\":13164:13182   */\n      add\n        /* \"#utility.yul\":13157:13207   */\n      mstore\n        /* \"#utility.yul\":13230:13263   */\n      tag_463\n        /* \"#utility.yul\":13256:13262   */\n      dup2\n        /* \"#utility.yul\":13248:13254   */\n      dup12\n        /* \"#utility.yul\":13230:13263   */\n      tag_433\n      jump\t// in\n    tag_463:\n        /* \"#utility.yul\":13216:13263   */\n      swap1\n      pop\n        /* \"#utility.yul\":13311:13320   */\n      dup3\n        /* \"#utility.yul\":13303:13309   */\n      dup2\n        /* \"#utility.yul\":13299:13321   */\n      sub\n        /* \"#utility.yul\":13294:13296   */\n      0x40\n        /* \"#utility.yul\":13283:13292   */\n      dup5\n        /* \"#utility.yul\":13279:13297   */\n      add\n        /* \"#utility.yul\":13272:13322   */\n      mstore\n        /* \"#utility.yul\":13345:13378   */\n      tag_464\n        /* \"#utility.yul\":13371:13377   */\n      dup2\n        /* \"#utility.yul\":13363:13369   */\n      dup11\n        /* \"#utility.yul\":13345:13378   */\n      tag_433\n      jump\t// in\n    tag_464:\n        /* \"#utility.yul\":13331:13378   */\n      swap1\n      pop\n        /* \"#utility.yul\":13426:13435   */\n      dup3\n        /* \"#utility.yul\":13418:13424   */\n      dup2\n        /* \"#utility.yul\":13414:13436   */\n      sub\n        /* \"#utility.yul\":13409:13411   */\n      0x60\n        /* \"#utility.yul\":13398:13407   */\n      dup5\n        /* \"#utility.yul\":13394:13412   */\n      add\n        /* \"#utility.yul\":13387:13437   */\n      mstore\n        /* \"#utility.yul\":13460:13493   */\n      tag_465\n        /* \"#utility.yul\":13486:13492   */\n      dup2\n        /* \"#utility.yul\":13478:13484   */\n      dup10\n        /* \"#utility.yul\":13460:13493   */\n      tag_433\n      jump\t// in\n    tag_465:\n        /* \"#utility.yul\":13446:13493   */\n      swap1\n      pop\n        /* \"#utility.yul\":13542:13551   */\n      dup3\n        /* \"#utility.yul\":13534:13540   */\n      dup2\n        /* \"#utility.yul\":13530:13552   */\n      sub\n        /* \"#utility.yul\":13524:13527   */\n      0x80\n        /* \"#utility.yul\":13513:13522   */\n      dup5\n        /* \"#utility.yul\":13509:13528   */\n      add\n        /* \"#utility.yul\":13502:13553   */\n      mstore\n        /* \"#utility.yul\":13570:13603   */\n      tag_466\n        /* \"#utility.yul\":13596:13602   */\n      dup2\n        /* \"#utility.yul\":13588:13594   */\n      dup9\n        /* \"#utility.yul\":13570:13603   */\n      tag_433\n      jump\t// in\n    tag_466:\n        /* \"#utility.yul\":13562:13603   */\n      swap2\n      pop\n      pop\n        /* \"#utility.yul\":13633:13634   */\n      0x05\n        /* \"#utility.yul\":13625:13631   */\n      dup6\n        /* \"#utility.yul\":13622:13635   */\n      lt\n        /* \"#utility.yul\":13612:13614   */\n      tag_468\n      jumpi\n        /* \"#utility.yul\":13639:13657   */\n      tag_468\n      tag_469\n      jump\t// in\n    tag_468:\n        /* \"#utility.yul\":13696:13702   */\n      dup5\n        /* \"#utility.yul\":13690:13693   */\n      0xa0\n        /* \"#utility.yul\":13679:13688   */\n      dup4\n        /* \"#utility.yul\":13675:13694   */\n      add\n        /* \"#utility.yul\":13668:13703   */\n      mstore\n        /* \"#utility.yul\":13733:13734   */\n      0x03\n        /* \"#utility.yul\":13725:13731   */\n      dup5\n        /* \"#utility.yul\":13722:13735   */\n      lt\n        /* \"#utility.yul\":13712:13714   */\n      tag_471\n      jumpi\n        /* \"#utility.yul\":13739:13757   */\n      tag_471\n      tag_469\n      jump\t// in\n    tag_471:\n        /* \"#utility.yul\":13796:13802   */\n      dup4\n        /* \"#utility.yul\":13790:13793   */\n      0xc0\n        /* \"#utility.yul\":13779:13788   */\n      dup4\n        /* \"#utility.yul\":13775:13794   */\n      add\n        /* \"#utility.yul\":13768:13803   */\n      mstore\n        /* \"#utility.yul\":13854:13860   */\n      dup3\n        /* \"#utility.yul\":13847:13861   */\n      iszero\n        /* \"#utility.yul\":13840:13862   */\n      iszero\n        /* \"#utility.yul\":13834:13837   */\n      0xe0\n        /* \"#utility.yul\":13823:13832   */\n      dup4\n        /* \"#utility.yul\":13819:13838   */\n      add\n        /* \"#utility.yul\":13812:13863   */\n      mstore\n        /* \"#utility.yul\":13027:13869   */\n      swap10\n      swap9\n      pop\n      pop\n      pop\n      pop\n      pop\n      pop\n      pop\n      pop\n      pop\n      jump\t// out\n        /* \"#utility.yul\":13874:14657   */\n    tag_94:\n        /* \"#utility.yul\":14195:14198   */\n      0xa0\n        /* \"#utility.yul\":14184:14193   */\n      dup2\n        /* \"#utility.yul\":14177:14199   */\n      mstore\n        /* \"#utility.yul\":14158:14162   */\n      0x00\n        /* \"#utility.yul\":14222:14268   */\n      tag_473\n        /* \"#utility.yul\":14263:14266   */\n      0xa0\n        /* \"#utility.yul\":14252:14261   */\n      dup4\n        /* \"#utility.yul\":14248:14267   */\n      add\n        /* \"#utility.yul\":14240:14246   */\n      dup9\n        /* \"#utility.yul\":14222:14268   */\n      tag_433\n      jump\t// in\n    tag_473:\n        /* \"#utility.yul\":14316:14325   */\n      dup3\n        /* \"#utility.yul\":14308:14314   */\n      dup2\n        /* \"#utility.yul\":14304:14326   */\n      sub\n        /* \"#utility.yul\":14299:14301   */\n      0x20\n        /* \"#utility.yul\":14288:14297   */\n      dup5\n        /* \"#utility.yul\":14284:14302   */\n      add\n        /* \"#utility.yul\":14277:14327   */\n      mstore\n        /* \"#utility.yul\":14350:14383   */\n      tag_474\n        /* \"#utility.yul\":14376:14382   */\n      dup2\n        /* \"#utility.yul\":14368:14374   */\n      dup9\n        /* \"#utility.yul\":14350:14383   */\n      tag_433\n      jump\t// in\n    tag_474:\n        /* \"#utility.yul\":14336:14383   */\n      swap1\n      pop\n        /* \"#utility.yul\":14431:14440   */\n      dup3\n        /* \"#utility.yul\":14423:14429   */\n      dup2\n        /* \"#utility.yul\":14419:14441   */\n      sub\n        /* \"#utility.yul\":14414:14416   */\n      0x40\n        /* \"#utility.yul\":14403:14412   */\n      dup5\n        /* \"#utility.yul\":14399:14417   */\n      add\n        /* \"#utility.yul\":14392:14442   */\n      mstore\n        /* \"#utility.yul\":14465:14498   */\n      tag_475\n        /* \"#utility.yul\":14491:14497   */\n      dup2\n        /* \"#utility.yul\":14483:14489   */\n      dup8\n        /* \"#utility.yul\":14465:14498   */\n      tag_433\n      jump\t// in\n    tag_475:\n        /* \"#utility.yul\":14451:14498   */\n      swap1\n      pop\n        /* \"#utility.yul\":14546:14555   */\n      dup3\n        /* \"#utility.yul\":14538:14544   */\n      dup2\n        /* \"#utility.yul\":14534:14556   */\n      sub\n        /* \"#utility.yul\":14529:14531   */\n      0x60\n        /* \"#utility.yul\":14518:14527   */\n      dup5\n        /* \"#utility.yul\":14514:14532   */\n      add\n        /* \"#utility.yul\":14507:14557   */\n      mstore\n        /* \"#utility.yul\":14574:14607   */\n      tag_476\n        /* \"#utility.yul\":14600:14606   */\n      dup2\n        /* \"#utility.yul\":14592:14598   */\n      dup7\n        /* \"#utility.yul\":14574:14607   */\n      tag_433\n      jump\t// in\n    tag_476:\n        /* \"#utility.yul\":14566:14607   */\n      swap2\n      pop\n      pop\n        /* \"#utility.yul\":14644:14650   */\n      dup3\n        /* \"#utility.yul\":14638:14641   */\n      0x80\n        /* \"#utility.yul\":14627:14636   */\n      dup4\n        /* \"#utility.yul\":14623:14642   */\n      add\n        /* \"#utility.yul\":14616:14651   */\n      mstore\n        /* \"#utility.yul\":14167:14657   */\n      swap7\n      swap6\n      pop\n      pop\n      pop\n      pop\n      pop\n      pop\n      jump\t// out\n        /* \"#utility.yul\":14662:15189   */\n    tag_63:\n        /* \"#utility.yul\":14915:14918   */\n      0x80\n        /* \"#utility.yul\":14904:14913   */\n      dup2\n        /* \"#utility.yul\":14897:14919   */\n      mstore\n        /* \"#utility.yul\":14878:14882   */\n      0x00\n        /* \"#utility.yul\":14942:14988   */\n      tag_478\n        /* \"#utility.yul\":14983:14986   */\n      0x80\n        /* \"#utility.yul\":14972:14981   */\n      dup4\n        /* \"#utility.yul\":14968:14987   */\n      add\n        /* \"#utility.yul\":14960:14966   */\n      dup8\n        /* \"#utility.yul\":14942:14988   */\n      tag_433\n      jump\t// in\n    tag_478:\n        /* \"#utility.yul\":15036:15045   */\n      dup3\n        /* \"#utility.yul\":15028:15034   */\n      dup2\n        /* \"#utility.yul\":15024:15046   */\n      sub\n        /* \"#utility.yul\":15019:15021   */\n      0x20\n        /* \"#utility.yul\":15008:15017   */\n      dup5\n        /* \"#utility.yul\":15004:15022   */\n      add\n        /* \"#utility.yul\":14997:15047   */\n      mstore\n        /* \"#utility.yul\":15064:15097   */\n      tag_479\n        /* \"#utility.yul\":15090:15096   */\n      dup2\n        /* \"#utility.yul\":15082:15088   */\n      dup8\n        /* \"#utility.yul\":15064:15097   */\n      tag_433\n      jump\t// in\n    tag_479:\n        /* \"#utility.yul\":15128:15130   */\n      0x40\n        /* \"#utility.yul\":15113:15131   */\n      dup5\n      add\n        /* \"#utility.yul\":15106:15140   */\n      swap6\n      swap1\n      swap6\n      mstore\n      pop\n      pop\n        /* \"#utility.yul\":15171:15173   */\n      0x60\n        /* \"#utility.yul\":15156:15174   */\n      add\n        /* \"#utility.yul\":15149:15183   */\n      mstore\n        /* \"#utility.yul\":15056:15097   */\n      swap3\n        /* \"#utility.yul\":14887:15189   */\n      swap2\n      pop\n      pop\n      jump\t// out\n        /* \"#utility.yul\":15194:15629   */\n    tag_203:\n        /* \"#utility.yul\":15427:15430   */\n      0x80\n        /* \"#utility.yul\":15416:15425   */\n      dup2\n        /* \"#utility.yul\":15409:15431   */\n      mstore\n        /* \"#utility.yul\":15390:15394   */\n      0x00\n        /* \"#utility.yul\":15448:15494   */\n      tag_481\n        /* \"#utility.yul\":15489:15492   */\n      0x80\n        /* \"#utility.yul\":15478:15487   */\n      dup4\n        /* \"#utility.yul\":15474:15493   */\n      add\n        /* \"#utility.yul\":15466:15472   */\n      dup8\n        /* \"#utility.yul\":15448:15494   */\n      tag_433\n      jump\t// in\n    tag_481:\n        /* \"#utility.yul\":15525:15527   */\n      0x20\n        /* \"#utility.yul\":15510:15528   */\n      dup4\n      add\n        /* \"#utility.yul\":15503:15537   */\n      swap6\n      swap1\n      swap6\n      mstore\n      pop\n        /* \"#utility.yul\":15568:15570   */\n      0x40\n        /* \"#utility.yul\":15553:15571   */\n      dup2\n      add\n        /* \"#utility.yul\":15546:15580   */\n      swap3\n      swap1\n      swap3\n      mstore\n        /* \"#utility.yul\":15611:15613   */\n      0x60\n        /* \"#utility.yul\":15596:15614   */\n      swap1\n      swap2\n      add\n        /* \"#utility.yul\":15589:15623   */\n      mstore\n        /* \"#utility.yul\":15440:15494   */\n      swap2\n        /* \"#utility.yul\":15399:15629   */\n      swap1\n      pop\n      jump\t// out\n        /* \"#utility.yul\":15634:16033   */\n    tag_246:\n        /* \"#utility.yul\":15836:15838   */\n      0x20\n        /* \"#utility.yul\":15818:15839   */\n      dup1\n      dup3\n      mstore\n        /* \"#utility.yul\":15875:15877   */\n      0x23\n        /* \"#utility.yul\":15855:15873   */\n      swap1\n      dup3\n      add\n        /* \"#utility.yul\":15848:15878   */\n      mstore\n        /* \"#utility.yul\":15914:15948   */\n      0x4548522d52442d30313a20446f63746f7220616c726561647920456e726f6c6c\n        /* \"#utility.yul\":15909:15911   */\n      0x40\n        /* \"#utility.yul\":15894:15912   */\n      dup3\n      add\n        /* \"#utility.yul\":15887:15949   */\n      mstore\n      shl(0xe9, 0x32b217)\n        /* \"#utility.yul\":15980:15982   */\n      0x60\n        /* \"#utility.yul\":15965:15983   */\n      dup3\n      add\n        /* \"#utility.yul\":15958:15991   */\n      mstore\n        /* \"#utility.yul\":16023:16026   */\n      0x80\n        /* \"#utility.yul\":16008:16027   */\n      add\n      swap1\n        /* \"#utility.yul\":15808:16033   */\n      jump\t// out\n        /* \"#utility.yul\":17197:17543   */\n    tag_98:\n        /* \"#utility.yul\":17399:17401   */\n      0x20\n        /* \"#utility.yul\":17381:17402   */\n      dup1\n      dup3\n      mstore\n        /* \"#utility.yul\":17438:17440   */\n      0x16\n        /* \"#utility.yul\":17418:17436   */\n      swap1\n      dup3\n      add\n        /* \"#utility.yul\":17411:17441   */\n      mstore\n      shl(0x52, 0x14185d1a595b9d08139bdd081c9959da5cdd195c9959)\n        /* \"#utility.yul\":17472:17474   */\n      0x40\n        /* \"#utility.yul\":17457:17475   */\n      dup3\n      add\n        /* \"#utility.yul\":17450:17502   */\n      mstore\n        /* \"#utility.yul\":17534:17536   */\n      0x60\n        /* \"#utility.yul\":17519:17537   */\n      add\n      swap1\n        /* \"#utility.yul\":17371:17543   */\n      jump\t// out\n        /* \"#utility.yul\":17548:17948   */\n    tag_296:\n        /* \"#utility.yul\":17750:17752   */\n      0x20\n        /* \"#utility.yul\":17732:17753   */\n      dup1\n      dup3\n      mstore\n        /* \"#utility.yul\":17789:17791   */\n      0x24\n        /* \"#utility.yul\":17769:17787   */\n      swap1\n      dup3\n      add\n        /* \"#utility.yul\":17762:17792   */\n      mstore\n        /* \"#utility.yul\":17828:17862   */\n      0x4548522d52502d30323a2050617469656e7420616c726561647920456e726f6c\n        /* \"#utility.yul\":17823:17825   */\n      0x40\n        /* \"#utility.yul\":17808:17826   */\n      dup3\n      add\n        /* \"#utility.yul\":17801:17863   */\n      mstore\n      shl(0xe1, 0x3632b217)\n        /* \"#utility.yul\":17894:17896   */\n      0x60\n        /* \"#utility.yul\":17879:17897   */\n      dup3\n      add\n        /* \"#utility.yul\":17872:17906   */\n      mstore\n        /* \"#utility.yul\":17938:17941   */\n      0x80\n        /* \"#utility.yul\":17923:17942   */\n      add\n      swap1\n        /* \"#utility.yul\":17722:17948   */\n      jump\t// out\n        /* \"#utility.yul\":18311:18710   */\n    tag_250:\n        /* \"#utility.yul\":18513:18515   */\n      0x20\n        /* \"#utility.yul\":18495:18516   */\n      dup1\n      dup3\n      mstore\n        /* \"#utility.yul\":18552:18554   */\n      0x23\n        /* \"#utility.yul\":18532:18550   */\n      swap1\n      dup3\n      add\n        /* \"#utility.yul\":18525:18555   */\n      mstore\n        /* \"#utility.yul\":18591:18625   */\n      0x4548522d52442d30323a20446f63746f7220616c726561647920456e726f6c6c\n        /* \"#utility.yul\":18586:18588   */\n      0x40\n        /* \"#utility.yul\":18571:18589   */\n      dup3\n      add\n        /* \"#utility.yul\":18564:18626   */\n      mstore\n      shl(0xe9, 0x32b217)\n        /* \"#utility.yul\":18657:18659   */\n      0x60\n        /* \"#utility.yul\":18642:18660   */\n      dup3\n      add\n        /* \"#utility.yul\":18635:18668   */\n      mstore\n        /* \"#utility.yul\":18700:18703   */\n      0x80\n        /* \"#utility.yul\":18685:18704   */\n      add\n      swap1\n        /* \"#utility.yul\":18485:18710   */\n      jump\t// out\n        /* \"#utility.yul\":18715:19115   */\n    tag_292:\n        /* \"#utility.yul\":18917:18919   */\n      0x20\n        /* \"#utility.yul\":18899:18920   */\n      dup1\n      dup3\n      mstore\n        /* \"#utility.yul\":18956:18958   */\n      0x24\n        /* \"#utility.yul\":18936:18954   */\n      swap1\n      dup3\n      add\n        /* \"#utility.yul\":18929:18959   */\n      mstore\n        /* \"#utility.yul\":18995:19029   */\n      0x4548522d52502d30313a2050617469656e7420616c726561647920456e726f6c\n        /* \"#utility.yul\":18990:18992   */\n      0x40\n        /* \"#utility.yul\":18975:18993   */\n      dup3\n      add\n        /* \"#utility.yul\":18968:19030   */\n      mstore\n      shl(0xe1, 0x3632b217)\n        /* \"#utility.yul\":19061:19063   */\n      0x60\n        /* \"#utility.yul\":19046:19064   */\n      dup3\n      add\n        /* \"#utility.yul\":19039:19073   */\n      mstore\n        /* \"#utility.yul\":19105:19108   */\n      0x80\n        /* \"#utility.yul\":19090:19109   */\n      add\n      swap1\n        /* \"#utility.yul\":18889:19115   */\n      jump\t// out\n        /* \"#utility.yul\":19302:19664   */\n    tag_273:\n        /* \"#utility.yul\":19507:19513   */\n      dup4\n        /* \"#utility.yul\":19496:19505   */\n      dup2\n        /* \"#utility.yul\":19489:19514   */\n      mstore\n        /* \"#utility.yul\":19550:19552   */\n      0x60\n        /* \"#utility.yul\":19545:19547   */\n      0x20\n        /* \"#utility.yul\":19534:19543   */\n      dup3\n        /* \"#utility.yul\":19530:19548   */\n      add\n        /* \"#utility.yul\":19523:19553   */\n      mstore\n        /* \"#utility.yul\":19470:19474   */\n      0x00\n        /* \"#utility.yul\":19570:19615   */\n      tag_493\n        /* \"#utility.yul\":19611:19613   */\n      0x60\n        /* \"#utility.yul\":19600:19609   */\n      dup4\n        /* \"#utility.yul\":19596:19614   */\n      add\n        /* \"#utility.yul\":19588:19594   */\n      dup6\n        /* \"#utility.yul\":19570:19615   */\n      tag_433\n      jump\t// in\n    tag_493:\n        /* \"#utility.yul\":19562:19615   */\n      swap1\n      pop\n        /* \"#utility.yul\":19651:19657   */\n      dup3\n        /* \"#utility.yul\":19646:19648   */\n      0x40\n        /* \"#utility.yul\":19635:19644   */\n      dup4\n        /* \"#utility.yul\":19631:19649   */\n      add\n        /* \"#utility.yul\":19624:19658   */\n      mstore\n        /* \"#utility.yul\":19479:19664   */\n      swap5\n      swap4\n      pop\n      pop\n      pop\n      pop\n      jump\t// out\n        /* \"#utility.yul\":21800:22058   */\n    tag_436:\n        /* \"#utility.yul\":21872:21873   */\n      0x00\n        /* \"#utility.yul\":21882:21995   */\n    tag_500:\n        /* \"#utility.yul\":21896:21902   */\n      dup4\n        /* \"#utility.yul\":21893:21894   */\n      dup2\n        /* \"#utility.yul\":21890:21903   */\n      lt\n        /* \"#utility.yul\":21882:21995   */\n      iszero\n      tag_502\n      jumpi\n        /* \"#utility.yul\":21972:21983   */\n      dup2\n      dup2\n      add\n        /* \"#utility.yul\":21966:21984   */\n      mload\n        /* \"#utility.yul\":21953:21964   */\n      dup4\n      dup3\n      add\n        /* \"#utility.yul\":21946:21985   */\n      mstore\n        /* \"#utility.yul\":21918:21920   */\n      0x20\n        /* \"#utility.yul\":21911:21921   */\n      add\n        /* \"#utility.yul\":21882:21995   */\n      jump(tag_500)\n    tag_502:\n        /* \"#utility.yul\":22013:22019   */\n      dup4\n        /* \"#utility.yul\":22010:22011   */\n      dup2\n        /* \"#utility.yul\":22007:22020   */\n      gt\n        /* \"#utility.yul\":22004:22006   */\n      iszero\n      tag_503\n      jumpi\n        /* \"#utility.yul\":22048:22049   */\n      0x00\n        /* \"#utility.yul\":22039:22045   */\n      dup5\n        /* \"#utility.yul\":22034:22037   */\n      dup5\n        /* \"#utility.yul\":22030:22046   */\n      add\n        /* \"#utility.yul\":22023:22050   */\n      mstore\n        /* \"#utility.yul\":22004:22006   */\n    tag_503:\n      pop\n        /* \"#utility.yul\":21853:22058   */\n      pop\n      pop\n      pop\n      jump\t// out\n        /* \"#utility.yul\":22063:22443   */\n    tag_101:\n        /* \"#utility.yul\":22142:22143   */\n      0x01\n        /* \"#utility.yul\":22138:22150   */\n      dup2\n      dup2\n      shr\n      swap1\n        /* \"#utility.yul\":22185:22197   */\n      dup3\n      and\n      dup1\n        /* \"#utility.yul\":22206:22208   */\n      tag_505\n      jumpi\n        /* \"#utility.yul\":22260:22264   */\n      0x7f\n        /* \"#utility.yul\":22252:22258   */\n      dup3\n        /* \"#utility.yul\":22248:22265   */\n      and\n        /* \"#utility.yul\":22238:22265   */\n      swap2\n      pop\n        /* \"#utility.yul\":22206:22208   */\n    tag_505:\n        /* \"#utility.yul\":22313:22315   */\n      0x20\n        /* \"#utility.yul\":22305:22311   */\n      dup3\n        /* \"#utility.yul\":22302:22316   */\n      lt\n        /* \"#utility.yul\":22282:22300   */\n      dup2\n        /* \"#utility.yul\":22279:22317   */\n      eq\n        /* \"#utility.yul\":22276:22278   */\n      iszero\n      tag_506\n      jumpi\n        /* \"#utility.yul\":22359:22369   */\n      0x4e487b71\n        /* \"#utility.yul\":22354:22357   */\n      0xe0\n        /* \"#utility.yul\":22350:22370   */\n      shl\n        /* \"#utility.yul\":22347:22348   */\n      0x00\n        /* \"#utility.yul\":22340:22371   */\n      mstore\n        /* \"#utility.yul\":22394:22398   */\n      0x22\n        /* \"#utility.yul\":22391:22392   */\n      0x04\n        /* \"#utility.yul\":22384:22399   */\n      mstore\n        /* \"#utility.yul\":22422:22426   */\n      0x24\n        /* \"#utility.yul\":22419:22420   */\n      0x00\n        /* \"#utility.yul\":22412:22427   */\n      revert\n        /* \"#utility.yul\":22276:22278   */\n    tag_506:\n      pop\n        /* \"#utility.yul\":22118:22443   */\n      swap2\n      swap1\n      pop\n      jump\t// out\n        /* \"#utility.yul\":22448:22684   */\n    tag_161:\n        /* \"#utility.yul\":22487:22490   */\n      0x00\n      not(0x00)\n        /* \"#utility.yul\":22508:22525   */\n      dup3\n      eq\n        /* \"#utility.yul\":22505:22507   */\n      iszero\n      tag_508\n      jumpi\n      shl(0xe0, 0x4e487b71)\n        /* \"#utility.yul\":22548:22581   */\n      dup2\n      mstore\n        /* \"#utility.yul\":22604:22608   */\n      0x11\n        /* \"#utility.yul\":22601:22602   */\n      0x04\n        /* \"#utility.yul\":22594:22609   */\n      mstore\n        /* \"#utility.yul\":22634:22638   */\n      0x24\n        /* \"#utility.yul\":22555:22558   */\n      dup2\n        /* \"#utility.yul\":22622:22639   */\n      revert\n        /* \"#utility.yul\":22505:22507   */\n    tag_508:\n      pop\n        /* \"#utility.yul\":22676:22677   */\n      0x01\n        /* \"#utility.yul\":22665:22678   */\n      add\n      swap1\n        /* \"#utility.yul\":22495:22684   */\n      jump\t// out\n        /* \"#utility.yul\":22689:22816   */\n    tag_469:\n        /* \"#utility.yul\":22750:22760   */\n      0x4e487b71\n        /* \"#utility.yul\":22745:22748   */\n      0xe0\n        /* \"#utility.yul\":22741:22761   */\n      shl\n        /* \"#utility.yul\":22738:22739   */\n      0x00\n        /* \"#utility.yul\":22731:22762   */\n      mstore\n        /* \"#utility.yul\":22781:22785   */\n      0x21\n        /* \"#utility.yul\":22778:22779   */\n      0x04\n        /* \"#utility.yul\":22771:22786   */\n      mstore\n        /* \"#utility.yul\":22805:22809   */\n      0x24\n        /* \"#utility.yul\":22802:22803   */\n      0x00\n        /* \"#utility.yul\":22795:22810   */\n      revert\n        /* \"#utility.yul\":22821:22948   */\n    tag_360:\n        /* \"#utility.yul\":22882:22892   */\n      0x4e487b71\n        /* \"#utility.yul\":22877:22880   */\n      0xe0\n        /* \"#utility.yul\":22873:22893   */\n      shl\n        /* \"#utility.yul\":22870:22871   */\n      0x00\n        /* \"#utility.yul\":22863:22894   */\n      mstore\n        /* \"#utility.yul\":22913:22917   */\n      0x41\n        /* \"#utility.yul\":22910:22911   */\n      0x04\n        /* \"#utility.yul\":22903:22918   */\n      mstore\n        /* \"#utility.yul\":22937:22941   */\n      0x24\n        /* \"#utility.yul\":22934:22935   */\n      0x00\n        /* \"#utility.yul\":22927:22942   */\n      revert\n        /* \"#utility.yul\":22953:23058   */\n    tag_354:\n        /* \"#utility.yul\":23032:23033   */\n      0x02\n        /* \"#utility.yul\":23025:23030   */\n      dup2\n        /* \"#utility.yul\":23022:23034   */\n      lt\n        /* \"#utility.yul\":23012:23014   */\n      tag_512\n      jumpi\n        /* \"#utility.yul\":23048:23049   */\n      0x00\n        /* \"#utility.yul\":23045:23046   */\n      dup1\n        /* \"#utility.yul\":23038:23050   */\n      revert\n        /* \"#utility.yul\":23012:23014   */\n    tag_512:\n        /* \"#utility.yul\":23002:23058   */\n      pop\n      jump\t// out\n    stop\n    data_f1783972c13bbde284b8765b8e27686842dfd940022613858bd0f693b0907129 1041037d4b3ee5730fce647ebd981cd0fd8864f61cd34868ef88a3fa6af64721\n\n    auxdata: 0xa2646970667358221220eb184fce575f4b561d37402c73fa3da2a6727c2862aff9059d5aa0f049272e1064736f6c63430008040033\n}\n",
				"bytecode": {
					"linkReferences": {},
					"object": "60e060405260016080908152600260a052600360c081905262000025916007916200003a565b503480156200003357600080fd5b50620000a6565b8280548282559060005260206000209081019282156200007d579160200282015b828111156200007d578251829060ff169055916020019190600101906200005b565b506200008b9291506200008f565b5090565b5b808211156200008b576000815560010162000090565b612a9680620000b66000396000f3fe608060405234801561001057600080fd5b50600436106101005760003560e01c8063c977baf311610097578063e078a1c611610066578063e078a1c614610264578063edef704914610277578063f60b48cb1461028a578063f75be4eb146102c357600080fd5b8063c977baf3146101f8578063cbd46fa31461021b578063d73497051461023e578063db3e39761461025157600080fd5b80634fcd407a116100d35780634fcd407a14610181578063764b6b38146101bf5780638f58f628146101d2578063a269b418146101e557600080fd5b8063021bf487146101055780630a77f6b01461011a5780632990bc6f1461014a5780632ee8e6391461016e575b600080fd5b61011861011336600461249a565b6102e7565b005b61012d610128366004612303565b610345565b60405161014198979695949392919061269b565b60405180910390f35b61015d610158366004612303565b610637565b604051610141959493929190612639565b61011861017c36600461231b565b610888565b6101af61018f3660046123a9565b600660209081526000928352604080842090915290825290205460ff1681565b6040519015158152602001610141565b6101186101cd3660046124c5565b610a25565b6101186101e0366004612402565b610aec565b6101186101f33660046123ca565b610ccb565b61020b610206366004612303565b610f57565b60405161014194939291906127a3565b61022e6102293660046123a9565b61108f565b60405161014194939291906125ec565b61011861024c366004612287565b61125d565b61011861025f3660046120cf565b611367565b6101186102723660046121cd565b6117cb565b610118610285366004612012565b611914565b6102b56102983660046123a9565b600460209081526000928352604080842090915290825290205481565b604051908152602001610141565b6102d66102d1366004612303565b611c76565b604051610141959493929190612743565b600083815260208190526040902060040154839060ff1615156001146103285760405162461bcd60e51b815260040161031f9061284e565b60405180910390fd5b506000928352600460209081526040808520938552929052912055565b600160205260009081526040902080548190610360906129a2565b80601f016020809104026020016040519081016040528092919081815260200182805461038c906129a2565b80156103d95780601f106103ae576101008083540402835291602001916103d9565b820191906000526020600020905b8154815290600101906020018083116103bc57829003601f168201915b5050505050908060010180546103ee906129a2565b80601f016020809104026020016040519081016040528092919081815260200182805461041a906129a2565b80156104675780601f1061043c57610100808354040283529160200191610467565b820191906000526020600020905b81548152906001019060200180831161044a57829003601f168201915b50505050509080600201805461047c906129a2565b80601f01602080910402602001604051908101604052809291908181526020018280546104a8906129a2565b80156104f55780601f106104ca576101008083540402835291602001916104f5565b820191906000526020600020905b8154815290600101906020018083116104d857829003601f168201915b50505050509080600301805461050a906129a2565b80601f0160208091040260200160405190810160405280929190818152602001828054610536906129a2565b80156105835780601f1061055857610100808354040283529160200191610583565b820191906000526020600020905b81548152906001019060200180831161056657829003601f168201915b505050505090806004018054610598906129a2565b80601f01602080910402602001604051908101604052809291908181526020018280546105c4906129a2565b80156106115780601f106105e657610100808354040283529160200191610611565b820191906000526020600020905b8154815290600101906020018083116105f457829003601f168201915b5050506005909301549192505060ff808216916101008104821691620100009091041688565b600060208190529081526040902080548190610652906129a2565b80601f016020809104026020016040519081016040528092919081815260200182805461067e906129a2565b80156106cb5780601f106106a0576101008083540402835291602001916106cb565b820191906000526020600020905b8154815290600101906020018083116106ae57829003601f168201915b5050505050908060010180546106e0906129a2565b80601f016020809104026020016040519081016040528092919081815260200182805461070c906129a2565b80156107595780601f1061072e57610100808354040283529160200191610759565b820191906000526020600020905b81548152906001019060200180831161073c57829003601f168201915b50505050509080600201805461076e906129a2565b80601f016020809104026020016040519081016040528092919081815260200182805461079a906129a2565b80156107e75780601f106107bc576101008083540402835291602001916107e7565b820191906000526020600020905b8154815290600101906020018083116107ca57829003601f168201915b5050505050908060030180546107fc906129a2565b80601f0160208091040260200160405190810160405280929190818152602001828054610828906129a2565b80156108755780601f1061084a57610100808354040283529160200191610875565b820191906000526020600020905b81548152906001019060200180831161085857829003601f168201915b5050506004909301549192505060ff1685565b600084815260208190526040902060040154849060ff1615156001146108c05760405162461bcd60e51b815260040161031f9061284e565b60005b600281116109b85784516020808701919091206000888152600583526040808220858352909352829020915190916108fa91612522565b604051809103902014156109a6576040805160808101825286815260208082018790528183018690526001606083015260008981526005825283812085825282529290922081518051929391926109549284920190611ec4565b50602082810151805161096d9260018501920190611ec4565b5060408201518051610989916002840191602090910190611ec4565b50606091909101516003909101805460ff19169115159190911790555b806109b0816129dd565b9150506108c3565b50600080516020612a418339815191528542604051610a169291909182526060602083018190526017908301527f4361726567697665722044617461206d6f6469666965640000000000000000006080830152604082015260a00190565b60405180910390a15050505050565b600084815260208190526040902060040154849060ff161515600114610a5d5760405162461bcd60e51b815260040161031f9061284e565b600085815260066020908152604080832087845290915290205460ff161515600114610acb5760405162461bcd60e51b815260206004820152601d60248201527f4e6f206163636573732070726f76696465642062792070617469656e74000000604482015260640161031f565b50600093845260046020908152604080862093865292905292209190915550565b600085815260208190526040902060040154859060ff161515600114610b245760405162461bcd60e51b815260040161031f9061284e565b60008681526005602052604081206007805491929188908110610b5757634e487b7160e01b600052603260045260246000fd5b6000918252602080832090910154835282019290925260400190206003015460ff16610c5e5760405180608001604052808581526020018481526020018381526020016001151581525060056000888152602001908152602001600020600060078881548110610bd757634e487b7160e01b600052603260045260246000fd5b906000526020600020015481526020019081526020016000206000820151816000019080519060200190610c0c929190611ec4565b506020828101518051610c259260018501920190611ec4565b5060408201518051610c41916002840191602090910190611ec4565b50606091909101516003909101805460ff19169115159190911790555b600080516020612a418339815191528642604051610cbb9291909182526060602083018190526019908301527f43617265676976657220446174612072656769737465726564000000000000006080830152604082015260a00190565b60405180910390a1505050505050565b60008281526001602081905260409091206005015483916201000090910460ff16151514610d335760405162461bcd60e51b8152602060048201526015602482015274111bd8dd1bdc88139bdd081c9959da5cdd195c9959605a1b604482015260640161031f565b60606000836001811115610d5757634e487b7160e01b600052602160045260246000fd5b1415610e2b57600085815260066020908152604080832087845290915290205460ff1615610dd35760405162461bcd60e51b8152602060048201526024808201527f4548522d41432d30313a2041636365737320686164206265656e2070726f76696044820152636465642160e01b606482015260840161031f565b506000848152600660209081526040808320868452825291829020805460ff191660011790558151808301909252601c82527f4163636573732069732070726f766964656420746f20646f63746f7200000000908201525b6001836001811115610e4d57634e487b7160e01b600052602160045260246000fd5b1415610f2257600085815260066020908152604080832087845290915290205460ff161515600114610ecd5760405162461bcd60e51b815260206004820152602360248201527f4548522d41432d30323a2041636365737320776173206e6f742070726f76696460448201526265642160e81b606482015260840161031f565b506000848152600660209081526040808320868452825291829020805460ff191690558151808301909252601b82527f416363657373206973207265766f6b656420746f20646f63746f720000000000908201525b7ff4702a3b8b6c43f2fa41588e64688a0c0bc61f411971bd5ec9c64b828d4bccb081868642604051610a1694939291906127dc565b600360205260009081526040902080548190610f72906129a2565b80601f0160208091040260200160405190810160405280929190818152602001828054610f9e906129a2565b8015610feb5780601f10610fc057610100808354040283529160200191610feb565b820191906000526020600020905b815481529060010190602001808311610fce57829003601f168201915b505050505090806001018054611000906129a2565b80601f016020809104026020016040519081016040528092919081815260200182805461102c906129a2565b80156110795780601f1061104e57610100808354040283529160200191611079565b820191906000526020600020905b81548152906001019060200180831161105c57829003601f168201915b5050505050908060020154908060030154905084565b60056020908152600092835260408084209091529082529020805481906110b5906129a2565b80601f01602080910402602001604051908101604052809291908181526020018280546110e1906129a2565b801561112e5780601f106111035761010080835404028352916020019161112e565b820191906000526020600020905b81548152906001019060200180831161111157829003601f168201915b505050505090806001018054611143906129a2565b80601f016020809104026020016040519081016040528092919081815260200182805461116f906129a2565b80156111bc5780601f10611191576101008083540402835291602001916111bc565b820191906000526020600020905b81548152906001019060200180831161119f57829003601f168201915b5050505050908060020180546111d1906129a2565b80601f01602080910402602001604051908101604052809291908181526020018280546111fd906129a2565b801561124a5780601f1061121f5761010080835404028352916020019161124a565b820191906000526020600020905b81548152906001019060200180831161122d57829003601f168201915b5050506003909301549192505060ff1684565b600081815260208190526040902060040154819060ff1615156001146112955760405162461bcd60e51b815260040161031f9061284e565b604080516080810182528781526020808201889052818301879052606082018690526000858152600382529290922081518051929391926112d99284920190611ec4565b5060208281015180516112f29260018501920190611ec4565b506040820151816002015560608201518160030155905050600080516020612a418339815191528242604051610cbb929190918252606060208301819052601b908301527f50617469656e74204865616c74682044617461207570646174656400000000006080830152604082015260a00190565b6000868860405160200161137c9291906125bd565b60408051601f1981840301815291905280516020909101209050606060008360018111156113ba57634e487b7160e01b600052602160045260246000fd5b1415611634578880519060200120600160008481526020019081526020016000206001016040516113eb9190612522565b604051809103902014156114115760405162461bcd60e51b815260040161031f9061280b565b87805190602001206001600084815260200190815260200160002060020160405161143c9190612522565b604051809103902014156114625760405162461bcd60e51b815260040161031f906128c2565b6040518061010001604052808b81526020018a81526020018981526020018881526020018781526020018660048111156114ac57634e487b7160e01b600052602160045260246000fd5b81526020018560028111156114d157634e487b7160e01b600052602160045260246000fd5b8152600160209182018190526000858152908252604090208251805191926114fe92849290910190611ec4565b5060208281015180516115179260018501920190611ec4565b5060408201518051611533916002840191602090910190611ec4565b506060820151805161154f916003840191602090910190611ec4565b506080820151805161156b916004840191602090910190611ec4565b5060a082015160058201805460ff1916600183600481111561159d57634e487b7160e01b600052602160045260246000fd5b021790555060c082015160058201805461ff0019166101008360028111156115d557634e487b7160e01b600052602160045260246000fd5b021790555060e0919091015160059091018054911515620100000262ff0000199092169190911790555060408051808201909152601881527f446f63746f7220526567697374726174696f6e20446f6e65000000000000000060208201525b600183600181111561165657634e487b7160e01b600052602160045260246000fd5b1415611796578880519060200120600160008481526020019081526020016000206001016040516116879190612522565b6040518091039020146116ac5760405162461bcd60e51b815260040161031f9061280b565b8780519060200120600160008481526020019081526020016000206002016040516116d79190612522565b6040518091039020146116fc5760405162461bcd60e51b815260040161031f906128c2565b60008281526001602090815260409091208b5161171b928d0190611ec4565b5060008281526001602081815260409092208b51611741939190920191908c0190611ec4565b5060008281526001602090815260409091208951611767926002909201918b0190611ec4565b5050604080518082019091526015815274111bd8dd1bdc88149958dbdc9908155c19185d1959605a1b60208201525b600080516020612a418339815191528282426040516117b793929190612949565b60405180910390a150505050505050505050565b600081815260208190526040902060040154819060ff1615156001146118035760405162461bcd60e51b815260040161031f9061284e565b6040805160a0810182528881526020808201899052818301889052606082018790526080820186905260008581526002825292909220815180519293919261184e9284920190611ec4565b5060208281015180516118679260018501920190611ec4565b5060408201518051611883916002840191602090910190611ec4565b506060820151805161189f916003840191602090910190611ec4565b5060809182015160049091015560408051848152606060208201819052601d908201527f50617469656e74204c6f636174696f6e20446174612075706461746564000000928101929092524290820152600080516020612a418339815191529060a0015b60405180910390a150505050505050565b600083856040516020016119299291906125bd565b60408051601f19818403018152919052805160209091012090506060600083600181111561196757634e487b7160e01b600052602160045260246000fd5b1415611afa5785805190602001206000808481526020019081526020016000206001016040516119979190612522565b604051809103902014156119bd5760405162461bcd60e51b815260040161031f90612905565b84805190602001206000808481526020019081526020016000206002016040516119e79190612522565b60405180910390201415611a0d5760405162461bcd60e51b815260040161031f9061287e565b6040805160a081018252888152602080820189905281830188905260608201879052600160808301526000858152808252929092208151805192939192611a579284920190611ec4565b506020828101518051611a709260018501920190611ec4565b5060408201518051611a8c916002840191602090910190611ec4565b5060608201518051611aa8916003840191602090910190611ec4565b50608091909101516004909101805460ff19169115159190911790555060408051808201909152601981527f50617469656e7420526567697374726174696f6e20446f6e650000000000000060208201525b6001836001811115611b1c57634e487b7160e01b600052602160045260246000fd5b1415611c55578580519060200120600080848152602001908152602001600020600101604051611b4c9190612522565b604051809103902014611b715760405162461bcd60e51b815260040161031f90612905565b8480519060200120600080848152602001908152602001600020600201604051611b9b9190612522565b604051809103902014611bc05760405162461bcd60e51b815260040161031f9061287e565b6000828152602081815260409091208851611bdd928a0190611ec4565b506000828152602081815260409091208751611c0192600190920191890190611ec4565b506000828152602081815260409091208651611c2592600290920191880190611ec4565b505060408051808201909152601681527514185d1a595b9d08149958dbdc9908155c19185d195960521b60208201525b600080516020612a4183398151915282824260405161190393929190612949565b600260205260009081526040902080548190611c91906129a2565b80601f0160208091040260200160405190810160405280929190818152602001828054611cbd906129a2565b8015611d0a5780601f10611cdf57610100808354040283529160200191611d0a565b820191906000526020600020905b815481529060010190602001808311611ced57829003601f168201915b505050505090806001018054611d1f906129a2565b80601f0160208091040260200160405190810160405280929190818152602001828054611d4b906129a2565b8015611d985780601f10611d6d57610100808354040283529160200191611d98565b820191906000526020600020905b815481529060010190602001808311611d7b57829003601f168201915b505050505090806002018054611dad906129a2565b80601f0160208091040260200160405190810160405280929190818152602001828054611dd9906129a2565b8015611e265780601f10611dfb57610100808354040283529160200191611e26565b820191906000526020600020905b815481529060010190602001808311611e0957829003601f168201915b505050505090806003018054611e3b906129a2565b80601f0160208091040260200160405190810160405280929190818152602001828054611e67906129a2565b8015611eb45780601f10611e8957610100808354040283529160200191611eb4565b820191906000526020600020905b815481529060010190602001808311611e9757829003601f168201915b5050505050908060040154905085565b828054611ed0906129a2565b90600052602060002090601f016020900481019282611ef25760008555611f38565b82601f10611f0b57805160ff1916838001178555611f38565b82800160010185558215611f38579182015b82811115611f38578251825591602001919060010190611f1d565b50611f44929150611f48565b5090565b5b80821115611f445760008155600101611f49565b803560058110611f6c57600080fd5b919050565b803560038110611f6c57600080fd5b8035611f6c81612a30565b600082601f830112611f9b578081fd5b813567ffffffffffffffff80821115611fb657611fb6612a1a565b604051601f8301601f19908116603f01168101908282118183101715611fde57611fde612a1a565b81604052838152866020858801011115611ff6578485fd5b8360208701602083013792830160200193909352509392505050565b600080600080600060a08688031215612029578081fd5b853567ffffffffffffffff80821115612040578283fd5b61204c89838a01611f8b565b96506020880135915080821115612061578283fd5b61206d89838a01611f8b565b95506040880135915080821115612082578283fd5b61208e89838a01611f8b565b945060608801359150808211156120a3578283fd5b506120b088828901611f8b565b92505060808601356120c181612a30565b809150509295509295909350565b600080600080600080600080610100898b0312156120eb578283fd5b883567ffffffffffffffff80821115612102578485fd5b61210e8c838d01611f8b565b995060208b0135915080821115612123578485fd5b61212f8c838d01611f8b565b985060408b0135915080821115612144578485fd5b6121508c838d01611f8b565b975060608b0135915080821115612165578485fd5b6121718c838d01611f8b565b965060808b0135915080821115612186578485fd5b506121938b828c01611f8b565b9450506121a260a08a01611f5d565b92506121b060c08a01611f71565b91506121be60e08a01611f80565b90509295985092959890939650565b60008060008060008060c087890312156121e5578182fd5b863567ffffffffffffffff808211156121fc578384fd5b6122088a838b01611f8b565b9750602089013591508082111561221d578384fd5b6122298a838b01611f8b565b9650604089013591508082111561223e578384fd5b61224a8a838b01611f8b565b9550606089013591508082111561225f578384fd5b5061226c89828a01611f8b565b9350506080870135915060a087013590509295509295509295565b600080600080600060a0868803121561229e578081fd5b853567ffffffffffffffff808211156122b5578283fd5b6122c189838a01611f8b565b965060208801359150808211156122d6578283fd5b506122e388828901611f8b565b959895975050505060408401359360608101359360809091013592509050565b600060208284031215612314578081fd5b5035919050565b60008060008060808587031215612330578384fd5b84359350602085013567ffffffffffffffff8082111561234e578485fd5b61235a88838901611f8b565b9450604087013591508082111561236f578384fd5b61237b88838901611f8b565b93506060870135915080821115612390578283fd5b5061239d87828801611f8b565b91505092959194509250565b600080604083850312156123bb578182fd5b50508035926020909101359150565b6000806000606084860312156123de578283fd5b833592506020840135915060408401356123f781612a30565b809150509250925092565b600080600080600060a08688031215612419578081fd5b8535945060208601359350604086013567ffffffffffffffff8082111561243e578283fd5b61244a89838a01611f8b565b9450606088013591508082111561245f578283fd5b61246b89838a01611f8b565b93506080880135915080821115612480578283fd5b5061248d88828901611f8b565b9150509295509295909350565b6000806000606084860312156124ae578081fd5b505081359360208301359350604090920135919050565b600080600080608085870312156124da578182fd5b5050823594602084013594506040840135936060013592509050565b6000815180845261250e816020860160208601612972565b601f01601f19169290920160200192915050565b600080835482600182811c91508083168061253e57607f831692505b602080841082141561255e57634e487b7160e01b87526022600452602487fd5b8180156125725760018114612583576125af565b60ff198616895284890196506125af565b60008a815260209020885b868110156125a75781548b82015290850190830161258e565b505084890196505b509498975050505050505050565b600083516125cf818460208801612972565b8351908301906125e3818360208801612972565b01949350505050565b6080815260006125ff60808301876124f6565b828103602084015261261181876124f6565b9050828103604084015261262581866124f6565b915050821515606083015295945050505050565b60a08152600061264c60a08301886124f6565b828103602084015261265e81886124f6565b9050828103604084015261267281876124f6565b9050828103606084015261268681866124f6565b91505082151560808301529695505050505050565b60006101008083526126af8184018c6124f6565b905082810360208401526126c3818b6124f6565b905082810360408401526126d7818a6124f6565b905082810360608401526126eb81896124f6565b905082810360808401526126ff81886124f6565b9150506005851061271257612712612a04565b8460a08301526003841061272857612728612a04565b8360c083015282151560e08301529998505050505050505050565b60a08152600061275660a08301886124f6565b828103602084015261276881886124f6565b9050828103604084015261277c81876124f6565b9050828103606084015261279081866124f6565b9150508260808301529695505050505050565b6080815260006127b660808301876124f6565b82810360208401526127c881876124f6565b604084019590955250506060015292915050565b6080815260006127ef60808301876124f6565b6020830195909552506040810192909252606090910152919050565b60208082526023908201527f4548522d52442d30313a20446f63746f7220616c726561647920456e726f6c6c60408201526232b21760e91b606082015260800190565b60208082526016908201527514185d1a595b9d08139bdd081c9959da5cdd195c995960521b604082015260600190565b60208082526024908201527f4548522d52502d30323a2050617469656e7420616c726561647920456e726f6c6040820152633632b21760e11b606082015260800190565b60208082526023908201527f4548522d52442d30323a20446f63746f7220616c726561647920456e726f6c6c60408201526232b21760e91b606082015260800190565b60208082526024908201527f4548522d52502d30313a2050617469656e7420616c726561647920456e726f6c6040820152633632b21760e11b606082015260800190565b83815260606020820152600061296260608301856124f6565b9050826040830152949350505050565b60005b8381101561298d578181015183820152602001612975565b8381111561299c576000848401525b50505050565b600181811c908216806129b657607f821691505b602082108114156129d757634e487b7160e01b600052602260045260246000fd5b50919050565b60006000198214156129fd57634e487b7160e01b81526011600452602481fd5b5060010190565b634e487b7160e01b600052602160045260246000fd5b634e487b7160e01b600052604160045260246000fd5b60028110612a3d57600080fd5b5056fe1041037d4b3ee5730fce647ebd981cd0fd8864f61cd34868ef88a3fa6af64721a2646970667358221220eb184fce575f4b561d37402c73fa3da2a6727c2862aff9059d5aa0f049272e1064736f6c63430008040033",
					"opcodes": "PUSH1 0xE0 PUSH1 0x40 MSTORE PUSH1 0x1 PUSH1 0x80 SWAP1 DUP2 MSTORE PUSH1 0x2 PUSH1 0xA0 MSTORE PUSH1 0x3 PUSH1 0xC0 DUP2 SWAP1 MSTORE PUSH3 0x25 SWAP2 PUSH1 0x7 SWAP2 PUSH3 0x3A JUMP JUMPDEST POP CALLVALUE DUP1 ISZERO PUSH3 0x33 JUMPI PUSH1 0x0 DUP1 REVERT JUMPDEST POP PUSH3 0xA6 JUMP JUMPDEST DUP3 DUP1 SLOAD DUP3 DUP3 SSTORE SWAP1 PUSH1 0x0 MSTORE PUSH1 0x20 PUSH1 0x0 KECCAK256 SWAP1 DUP2 ADD SWAP3 DUP3 ISZERO PUSH3 0x7D JUMPI SWAP2 PUSH1 0x20 MUL DUP3 ADD JUMPDEST DUP3 DUP2 GT ISZERO PUSH3 0x7D JUMPI DUP3 MLOAD DUP3 SWAP1 PUSH1 0xFF AND SWAP1 SSTORE SWAP2 PUSH1 0x20 ADD SWAP2 SWAP1 PUSH1 0x1 ADD SWAP1 PUSH3 0x5B JUMP JUMPDEST POP PUSH3 0x8B SWAP3 SWAP2 POP PUSH3 0x8F JUMP JUMPDEST POP SWAP1 JUMP JUMPDEST JUMPDEST DUP1 DUP3 GT ISZERO PUSH3 0x8B JUMPI PUSH1 0x0 DUP2 SSTORE PUSH1 0x1 ADD PUSH3 0x90 JUMP JUMPDEST PUSH2 0x2A96 DUP1 PUSH3 0xB6 PUSH1 0x0 CODECOPY PUSH1 0x0 RETURN INVALID PUSH1 0x80 PUSH1 0x40 MSTORE CALLVALUE DUP1 ISZERO PUSH2 0x10 JUMPI PUSH1 0x0 DUP1 REVERT JUMPDEST POP PUSH1 0x4 CALLDATASIZE LT PUSH2 0x100 JUMPI PUSH1 0x0 CALLDATALOAD PUSH1 0xE0 SHR DUP1 PUSH4 0xC977BAF3 GT PUSH2 0x97 JUMPI DUP1 PUSH4 0xE078A1C6 GT PUSH2 0x66 JUMPI DUP1 PUSH4 0xE078A1C6 EQ PUSH2 0x264 JUMPI DUP1 PUSH4 0xEDEF7049 EQ PUSH2 0x277 JUMPI DUP1 PUSH4 0xF60B48CB EQ PUSH2 0x28A JUMPI DUP1 PUSH4 0xF75BE4EB EQ PUSH2 0x2C3 JUMPI PUSH1 0x0 DUP1 REVERT JUMPDEST DUP1 PUSH4 0xC977BAF3 EQ PUSH2 0x1F8 JUMPI DUP1 PUSH4 0xCBD46FA3 EQ PUSH2 0x21B JUMPI DUP1 PUSH4 0xD7349705 EQ PUSH2 0x23E JUMPI DUP1 PUSH4 0xDB3E3976 EQ PUSH2 0x251 JUMPI PUSH1 0x0 DUP1 REVERT JUMPDEST DUP1 PUSH4 0x4FCD407A GT PUSH2 0xD3 JUMPI DUP1 PUSH4 0x4FCD407A EQ PUSH2 0x181 JUMPI DUP1 PUSH4 0x764B6B38 EQ PUSH2 0x1BF JUMPI DUP1 PUSH4 0x8F58F628 EQ PUSH2 0x1D2 JUMPI DUP1 PUSH4 0xA269B418 EQ PUSH2 0x1E5 JUMPI PUSH1 0x0 DUP1 REVERT JUMPDEST DUP1 PUSH4 0x21BF487 EQ PUSH2 0x105 JUMPI DUP1 PUSH4 0xA77F6B0 EQ PUSH2 0x11A JUMPI DUP1 PUSH4 0x2990BC6F EQ PUSH2 0x14A JUMPI DUP1 PUSH4 0x2EE8E639 EQ PUSH2 0x16E JUMPI JUMPDEST PUSH1 0x0 DUP1 REVERT JUMPDEST PUSH2 0x118 PUSH2 0x113 CALLDATASIZE PUSH1 0x4 PUSH2 0x249A JUMP JUMPDEST PUSH2 0x2E7 JUMP JUMPDEST STOP JUMPDEST PUSH2 0x12D PUSH2 0x128 CALLDATASIZE PUSH1 0x4 PUSH2 0x2303 JUMP JUMPDEST PUSH2 0x345 JUMP JUMPDEST PUSH1 0x40 MLOAD PUSH2 0x141 SWAP9 SWAP8 SWAP7 SWAP6 SWAP5 SWAP4 SWAP3 SWAP2 SWAP1 PUSH2 0x269B JUMP JUMPDEST PUSH1 0x40 MLOAD DUP1 SWAP2 SUB SWAP1 RETURN JUMPDEST PUSH2 0x15D PUSH2 0x158 CALLDATASIZE PUSH1 0x4 PUSH2 0x2303 JUMP JUMPDEST PUSH2 0x637 JUMP JUMPDEST PUSH1 0x40 MLOAD PUSH2 0x141 SWAP6 SWAP5 SWAP4 SWAP3 SWAP2 SWAP1 PUSH2 0x2639 JUMP JUMPDEST PUSH2 0x118 PUSH2 0x17C CALLDATASIZE PUSH1 0x4 PUSH2 0x231B JUMP JUMPDEST PUSH2 0x888 JUMP JUMPDEST PUSH2 0x1AF PUSH2 0x18F CALLDATASIZE PUSH1 0x4 PUSH2 0x23A9 JUMP JUMPDEST PUSH1 0x6 PUSH1 0x20 SWAP1 DUP2 MSTORE PUSH1 0x0 SWAP3 DUP4 MSTORE PUSH1 0x40 DUP1 DUP5 KECCAK256 SWAP1 SWAP2 MSTORE SWAP1 DUP3 MSTORE SWAP1 KECCAK256 SLOAD PUSH1 0xFF AND DUP2 JUMP JUMPDEST PUSH1 0x40 MLOAD SWAP1 ISZERO ISZERO DUP2 MSTORE PUSH1 0x20 ADD PUSH2 0x141 JUMP JUMPDEST PUSH2 0x118 PUSH2 0x1CD CALLDATASIZE PUSH1 0x4 PUSH2 0x24C5 JUMP JUMPDEST PUSH2 0xA25 JUMP JUMPDEST PUSH2 0x118 PUSH2 0x1E0 CALLDATASIZE PUSH1 0x4 PUSH2 0x2402 JUMP JUMPDEST PUSH2 0xAEC JUMP JUMPDEST PUSH2 0x118 PUSH2 0x1F3 CALLDATASIZE PUSH1 0x4 PUSH2 0x23CA JUMP JUMPDEST PUSH2 0xCCB JUMP JUMPDEST PUSH2 0x20B PUSH2 0x206 CALLDATASIZE PUSH1 0x4 PUSH2 0x2303 JUMP JUMPDEST PUSH2 0xF57 JUMP JUMPDEST PUSH1 0x40 MLOAD PUSH2 0x141 SWAP5 SWAP4 SWAP3 SWAP2 SWAP1 PUSH2 0x27A3 JUMP JUMPDEST PUSH2 0x22E PUSH2 0x229 CALLDATASIZE PUSH1 0x4 PUSH2 0x23A9 JUMP JUMPDEST PUSH2 0x108F JUMP JUMPDEST PUSH1 0x40 MLOAD PUSH2 0x141 SWAP5 SWAP4 SWAP3 SWAP2 SWAP1 PUSH2 0x25EC JUMP JUMPDEST PUSH2 0x118 PUSH2 0x24C CALLDATASIZE PUSH1 0x4 PUSH2 0x2287 JUMP JUMPDEST PUSH2 0x125D JUMP JUMPDEST PUSH2 0x118 PUSH2 0x25F CALLDATASIZE PUSH1 0x4 PUSH2 0x20CF JUMP JUMPDEST PUSH2 0x1367 JUMP JUMPDEST PUSH2 0x118 PUSH2 0x272 CALLDATASIZE PUSH1 0x4 PUSH2 0x21CD JUMP JUMPDEST PUSH2 0x17CB JUMP JUMPDEST PUSH2 0x118 PUSH2 0x285 CALLDATASIZE PUSH1 0x4 PUSH2 0x2012 JUMP JUMPDEST PUSH2 0x1914 JUMP JUMPDEST PUSH2 0x2B5 PUSH2 0x298 CALLDATASIZE PUSH1 0x4 PUSH2 0x23A9 JUMP JUMPDEST PUSH1 0x4 PUSH1 0x20 SWAP1 DUP2 MSTORE PUSH1 0x0 SWAP3 DUP4 MSTORE PUSH1 0x40 DUP1 DUP5 KECCAK256 SWAP1 SWAP2 MSTORE SWAP1 DUP3 MSTORE SWAP1 KECCAK256 SLOAD DUP2 JUMP JUMPDEST PUSH1 0x40 MLOAD SWAP1 DUP2 MSTORE PUSH1 0x20 ADD PUSH2 0x141 JUMP JUMPDEST PUSH2 0x2D6 PUSH2 0x2D1 CALLDATASIZE PUSH1 0x4 PUSH2 0x2303 JUMP JUMPDEST PUSH2 0x1C76 JUMP JUMPDEST PUSH1 0x40 MLOAD PUSH2 0x141 SWAP6 SWAP5 SWAP4 SWAP3 SWAP2 SWAP1 PUSH2 0x2743 JUMP JUMPDEST PUSH1 0x0 DUP4 DUP2 MSTORE PUSH1 0x20 DUP2 SWAP1 MSTORE PUSH1 0x40 SWAP1 KECCAK256 PUSH1 0x4 ADD SLOAD DUP4 SWAP1 PUSH1 0xFF AND ISZERO ISZERO PUSH1 0x1 EQ PUSH2 0x328 JUMPI PUSH1 0x40 MLOAD PUSH3 0x461BCD PUSH1 0xE5 SHL DUP2 MSTORE PUSH1 0x4 ADD PUSH2 0x31F SWAP1 PUSH2 0x284E JUMP JUMPDEST PUSH1 0x40 MLOAD DUP1 SWAP2 SUB SWAP1 REVERT JUMPDEST POP PUSH1 0x0 SWAP3 DUP4 MSTORE PUSH1 0x4 PUSH1 0x20 SWAP1 DUP2 MSTORE PUSH1 0x40 DUP1 DUP6 KECCAK256 SWAP4 DUP6 MSTORE SWAP3 SWAP1 MSTORE SWAP2 KECCAK256 SSTORE JUMP JUMPDEST PUSH1 0x1 PUSH1 0x20 MSTORE PUSH1 0x0 SWAP1 DUP2 MSTORE PUSH1 0x40 SWAP1 KECCAK256 DUP1 SLOAD DUP2 SWAP1 PUSH2 0x360 SWAP1 PUSH2 0x29A2 JUMP JUMPDEST DUP1 PUSH1 0x1F ADD PUSH1 0x20 DUP1 SWAP2 DIV MUL PUSH1 0x20 ADD PUSH1 0x40 MLOAD SWAP1 DUP2 ADD PUSH1 0x40 MSTORE DUP1 SWAP3 SWAP2 SWAP1 DUP2 DUP2 MSTORE PUSH1 0x20 ADD DUP3 DUP1 SLOAD PUSH2 0x38C SWAP1 PUSH2 0x29A2 JUMP JUMPDEST DUP1 ISZERO PUSH2 0x3D9 JUMPI DUP1 PUSH1 0x1F LT PUSH2 0x3AE JUMPI PUSH2 0x100 DUP1 DUP4 SLOAD DIV MUL DUP4 MSTORE SWAP2 PUSH1 0x20 ADD SWAP2 PUSH2 0x3D9 JUMP JUMPDEST DUP3 ADD SWAP2 SWAP1 PUSH1 0x0 MSTORE PUSH1 0x20 PUSH1 0x0 KECCAK256 SWAP1 JUMPDEST DUP2 SLOAD DUP2 MSTORE SWAP1 PUSH1 0x1 ADD SWAP1 PUSH1 0x20 ADD DUP1 DUP4 GT PUSH2 0x3BC JUMPI DUP3 SWAP1 SUB PUSH1 0x1F AND DUP3 ADD SWAP2 JUMPDEST POP POP POP POP POP SWAP1 DUP1 PUSH1 0x1 ADD DUP1 SLOAD PUSH2 0x3EE SWAP1 PUSH2 0x29A2 JUMP JUMPDEST DUP1 PUSH1 0x1F ADD PUSH1 0x20 DUP1 SWAP2 DIV MUL PUSH1 0x20 ADD PUSH1 0x40 MLOAD SWAP1 DUP2 ADD PUSH1 0x40 MSTORE DUP1 SWAP3 SWAP2 SWAP1 DUP2 DUP2 MSTORE PUSH1 0x20 ADD DUP3 DUP1 SLOAD PUSH2 0x41A SWAP1 PUSH2 0x29A2 JUMP JUMPDEST DUP1 ISZERO PUSH2 0x467 JUMPI DUP1 PUSH1 0x1F LT PUSH2 0x43C JUMPI PUSH2 0x100 DUP1 DUP4 SLOAD DIV MUL DUP4 MSTORE SWAP2 PUSH1 0x20 ADD SWAP2 PUSH2 0x467 JUMP JUMPDEST DUP3 ADD SWAP2 SWAP1 PUSH1 0x0 MSTORE PUSH1 0x20 PUSH1 0x0 KECCAK256 SWAP1 JUMPDEST DUP2 SLOAD DUP2 MSTORE SWAP1 PUSH1 0x1 ADD SWAP1 PUSH1 0x20 ADD DUP1 DUP4 GT PUSH2 0x44A JUMPI DUP3 SWAP1 SUB PUSH1 0x1F AND DUP3 ADD SWAP2 JUMPDEST POP POP POP POP POP SWAP1 DUP1 PUSH1 0x2 ADD DUP1 SLOAD PUSH2 0x47C SWAP1 PUSH2 0x29A2 JUMP JUMPDEST DUP1 PUSH1 0x1F ADD PUSH1 0x20 DUP1 SWAP2 DIV MUL PUSH1 0x20 ADD PUSH1 0x40 MLOAD SWAP1 DUP2 ADD PUSH1 0x40 MSTORE DUP1 SWAP3 SWAP2 SWAP1 DUP2 DUP2 MSTORE PUSH1 0x20 ADD DUP3 DUP1 SLOAD PUSH2 0x4A8 SWAP1 PUSH2 0x29A2 JUMP JUMPDEST DUP1 ISZERO PUSH2 0x4F5 JUMPI DUP1 PUSH1 0x1F LT PUSH2 0x4CA JUMPI PUSH2 0x100 DUP1 DUP4 SLOAD DIV MUL DUP4 MSTORE SWAP2 PUSH1 0x20 ADD SWAP2 PUSH2 0x4F5 JUMP JUMPDEST DUP3 ADD SWAP2 SWAP1 PUSH1 0x0 MSTORE PUSH1 0x20 PUSH1 0x0 KECCAK256 SWAP1 JUMPDEST DUP2 SLOAD DUP2 MSTORE SWAP1 PUSH1 0x1 ADD SWAP1 PUSH1 0x20 ADD DUP1 DUP4 GT PUSH2 0x4D8 JUMPI DUP3 SWAP1 SUB PUSH1 0x1F AND DUP3 ADD SWAP2 JUMPDEST POP POP POP POP POP SWAP1 DUP1 PUSH1 0x3 ADD DUP1 SLOAD PUSH2 0x50A SWAP1 PUSH2 0x29A2 JUMP JUMPDEST DUP1 PUSH1 0x1F ADD PUSH1 0x20 DUP1 SWAP2 DIV MUL PUSH1 0x20 ADD PUSH1 0x40 MLOAD SWAP1 DUP2 ADD PUSH1 0x40 MSTORE DUP1 SWAP3 SWAP2 SWAP1 DUP2 DUP2 MSTORE PUSH1 0x20 ADD DUP3 DUP1 SLOAD PUSH2 0x536 SWAP1 PUSH2 0x29A2 JUMP JUMPDEST DUP1 ISZERO PUSH2 0x583 JUMPI DUP1 PUSH1 0x1F LT PUSH2 0x558 JUMPI PUSH2 0x100 DUP1 DUP4 SLOAD DIV MUL DUP4 MSTORE SWAP2 PUSH1 0x20 ADD SWAP2 PUSH2 0x583 JUMP JUMPDEST DUP3 ADD SWAP2 SWAP1 PUSH1 0x0 MSTORE PUSH1 0x20 PUSH1 0x0 KECCAK256 SWAP1 JUMPDEST DUP2 SLOAD DUP2 MSTORE SWAP1 PUSH1 0x1 ADD SWAP1 PUSH1 0x20 ADD DUP1 DUP4 GT PUSH2 0x566 JUMPI DUP3 SWAP1 SUB PUSH1 0x1F AND DUP3 ADD SWAP2 JUMPDEST POP POP POP POP POP SWAP1 DUP1 PUSH1 0x4 ADD DUP1 SLOAD PUSH2 0x598 SWAP1 PUSH2 0x29A2 JUMP JUMPDEST DUP1 PUSH1 0x1F ADD PUSH1 0x20 DUP1 SWAP2 DIV MUL PUSH1 0x20 ADD PUSH1 0x40 MLOAD SWAP1 DUP2 ADD PUSH1 0x40 MSTORE DUP1 SWAP3 SWAP2 SWAP1 DUP2 DUP2 MSTORE PUSH1 0x20 ADD DUP3 DUP1 SLOAD PUSH2 0x5C4 SWAP1 PUSH2 0x29A2 JUMP JUMPDEST DUP1 ISZERO PUSH2 0x611 JUMPI DUP1 PUSH1 0x1F LT PUSH2 0x5E6 JUMPI PUSH2 0x100 DUP1 DUP4 SLOAD DIV MUL DUP4 MSTORE SWAP2 PUSH1 0x20 ADD SWAP2 PUSH2 0x611 JUMP JUMPDEST DUP3 ADD SWAP2 SWAP1 PUSH1 0x0 MSTORE PUSH1 0x20 PUSH1 0x0 KECCAK256 SWAP1 JUMPDEST DUP2 SLOAD DUP2 MSTORE SWAP1 PUSH1 0x1 ADD SWAP1 PUSH1 0x20 ADD DUP1 DUP4 GT PUSH2 0x5F4 JUMPI DUP3 SWAP1 SUB PUSH1 0x1F AND DUP3 ADD SWAP2 JUMPDEST POP POP POP PUSH1 0x5 SWAP1 SWAP4 ADD SLOAD SWAP2 SWAP3 POP POP PUSH1 0xFF DUP1 DUP3 AND SWAP2 PUSH2 0x100 DUP2 DIV DUP3 AND SWAP2 PUSH3 0x10000 SWAP1 SWAP2 DIV AND DUP9 JUMP JUMPDEST PUSH1 0x0 PUSH1 0x20 DUP2 SWAP1 MSTORE SWAP1 DUP2 MSTORE PUSH1 0x40 SWAP1 KECCAK256 DUP1 SLOAD DUP2 SWAP1 PUSH2 0x652 SWAP1 PUSH2 0x29A2 JUMP JUMPDEST DUP1 PUSH1 0x1F ADD PUSH1 0x20 DUP1 SWAP2 DIV MUL PUSH1 0x20 ADD PUSH1 0x40 MLOAD SWAP1 DUP2 ADD PUSH1 0x40 MSTORE DUP1 SWAP3 SWAP2 SWAP1 DUP2 DUP2 MSTORE PUSH1 0x20 ADD DUP3 DUP1 SLOAD PUSH2 0x67E SWAP1 PUSH2 0x29A2 JUMP JUMPDEST DUP1 ISZERO PUSH2 0x6CB JUMPI DUP1 PUSH1 0x1F LT PUSH2 0x6A0 JUMPI PUSH2 0x100 DUP1 DUP4 SLOAD DIV MUL DUP4 MSTORE SWAP2 PUSH1 0x20 ADD SWAP2 PUSH2 0x6CB JUMP JUMPDEST DUP3 ADD SWAP2 SWAP1 PUSH1 0x0 MSTORE PUSH1 0x20 PUSH1 0x0 KECCAK256 SWAP1 JUMPDEST DUP2 SLOAD DUP2 MSTORE SWAP1 PUSH1 0x1 ADD SWAP1 PUSH1 0x20 ADD DUP1 DUP4 GT PUSH2 0x6AE JUMPI DUP3 SWAP1 SUB PUSH1 0x1F AND DUP3 ADD SWAP2 JUMPDEST POP POP POP POP POP SWAP1 DUP1 PUSH1 0x1 ADD DUP1 SLOAD PUSH2 0x6E0 SWAP1 PUSH2 0x29A2 JUMP JUMPDEST DUP1 PUSH1 0x1F ADD PUSH1 0x20 DUP1 SWAP2 DIV MUL PUSH1 0x20 ADD PUSH1 0x40 MLOAD SWAP1 DUP2 ADD PUSH1 0x40 MSTORE DUP1 SWAP3 SWAP2 SWAP1 DUP2 DUP2 MSTORE PUSH1 0x20 ADD DUP3 DUP1 SLOAD PUSH2 0x70C SWAP1 PUSH2 0x29A2 JUMP JUMPDEST DUP1 ISZERO PUSH2 0x759 JUMPI DUP1 PUSH1 0x1F LT PUSH2 0x72E JUMPI PUSH2 0x100 DUP1 DUP4 SLOAD DIV MUL DUP4 MSTORE SWAP2 PUSH1 0x20 ADD SWAP2 PUSH2 0x759 JUMP JUMPDEST DUP3 ADD SWAP2 SWAP1 PUSH1 0x0 MSTORE PUSH1 0x20 PUSH1 0x0 KECCAK256 SWAP1 JUMPDEST DUP2 SLOAD DUP2 MSTORE SWAP1 PUSH1 0x1 ADD SWAP1 PUSH1 0x20 ADD DUP1 DUP4 GT PUSH2 0x73C JUMPI DUP3 SWAP1 SUB PUSH1 0x1F AND DUP3 ADD SWAP2 JUMPDEST POP POP POP POP POP SWAP1 DUP1 PUSH1 0x2 ADD DUP1 SLOAD PUSH2 0x76E SWAP1 PUSH2 0x29A2 JUMP JUMPDEST DUP1 PUSH1 0x1F ADD PUSH1 0x20 DUP1 SWAP2 DIV MUL PUSH1 0x20 ADD PUSH1 0x40 MLOAD SWAP1 DUP2 ADD PUSH1 0x40 MSTORE DUP1 SWAP3 SWAP2 SWAP1 DUP2 DUP2 MSTORE PUSH1 0x20 ADD DUP3 DUP1 SLOAD PUSH2 0x79A SWAP1 PUSH2 0x29A2 JUMP JUMPDEST DUP1 ISZERO PUSH2 0x7E7 JUMPI DUP1 PUSH1 0x1F LT PUSH2 0x7BC JUMPI PUSH2 0x100 DUP1 DUP4 SLOAD DIV MUL DUP4 MSTORE SWAP2 PUSH1 0x20 ADD SWAP2 PUSH2 0x7E7 JUMP JUMPDEST DUP3 ADD SWAP2 SWAP1 PUSH1 0x0 MSTORE PUSH1 0x20 PUSH1 0x0 KECCAK256 SWAP1 JUMPDEST DUP2 SLOAD DUP2 MSTORE SWAP1 PUSH1 0x1 ADD SWAP1 PUSH1 0x20 ADD DUP1 DUP4 GT PUSH2 0x7CA JUMPI DUP3 SWAP1 SUB PUSH1 0x1F AND DUP3 ADD SWAP2 JUMPDEST POP POP POP POP POP SWAP1 DUP1 PUSH1 0x3 ADD DUP1 SLOAD PUSH2 0x7FC SWAP1 PUSH2 0x29A2 JUMP JUMPDEST DUP1 PUSH1 0x1F ADD PUSH1 0x20 DUP1 SWAP2 DIV MUL PUSH1 0x20 ADD PUSH1 0x40 MLOAD SWAP1 DUP2 ADD PUSH1 0x40 MSTORE DUP1 SWAP3 SWAP2 SWAP1 DUP2 DUP2 MSTORE PUSH1 0x20 ADD DUP3 DUP1 SLOAD PUSH2 0x828 SWAP1 PUSH2 0x29A2 JUMP JUMPDEST DUP1 ISZERO PUSH2 0x875 JUMPI DUP1 PUSH1 0x1F LT PUSH2 0x84A JUMPI PUSH2 0x100 DUP1 DUP4 SLOAD DIV MUL DUP4 MSTORE SWAP2 PUSH1 0x20 ADD SWAP2 PUSH2 0x875 JUMP JUMPDEST DUP3 ADD SWAP2 SWAP1 PUSH1 0x0 MSTORE PUSH1 0x20 PUSH1 0x0 KECCAK256 SWAP1 JUMPDEST DUP2 SLOAD DUP2 MSTORE SWAP1 PUSH1 0x1 ADD SWAP1 PUSH1 0x20 ADD DUP1 DUP4 GT PUSH2 0x858 JUMPI DUP3 SWAP1 SUB PUSH1 0x1F AND DUP3 ADD SWAP2 JUMPDEST POP POP POP PUSH1 0x4 SWAP1 SWAP4 ADD SLOAD SWAP2 SWAP3 POP POP PUSH1 0xFF AND DUP6 JUMP JUMPDEST PUSH1 0x0 DUP5 DUP2 MSTORE PUSH1 0x20 DUP2 SWAP1 MSTORE PUSH1 0x40 SWAP1 KECCAK256 PUSH1 0x4 ADD SLOAD DUP5 SWAP1 PUSH1 0xFF AND ISZERO ISZERO PUSH1 0x1 EQ PUSH2 0x8C0 JUMPI PUSH1 0x40 MLOAD PUSH3 0x461BCD PUSH1 0xE5 SHL DUP2 MSTORE PUSH1 0x4 ADD PUSH2 0x31F SWAP1 PUSH2 0x284E JUMP JUMPDEST PUSH1 0x0 JUMPDEST PUSH1 0x2 DUP2 GT PUSH2 0x9B8 JUMPI DUP5 MLOAD PUSH1 0x20 DUP1 DUP8 ADD SWAP2 SWAP1 SWAP2 KECCAK256 PUSH1 0x0 DUP9 DUP2 MSTORE PUSH1 0x5 DUP4 MSTORE PUSH1 0x40 DUP1 DUP3 KECCAK256 DUP6 DUP4 MSTORE SWAP1 SWAP4 MSTORE DUP3 SWAP1 KECCAK256 SWAP2 MLOAD SWAP1 SWAP2 PUSH2 0x8FA SWAP2 PUSH2 0x2522 JUMP JUMPDEST PUSH1 0x40 MLOAD DUP1 SWAP2 SUB SWAP1 KECCAK256 EQ ISZERO PUSH2 0x9A6 JUMPI PUSH1 0x40 DUP1 MLOAD PUSH1 0x80 DUP2 ADD DUP3 MSTORE DUP7 DUP2 MSTORE PUSH1 0x20 DUP1 DUP3 ADD DUP8 SWAP1 MSTORE DUP2 DUP4 ADD DUP7 SWAP1 MSTORE PUSH1 0x1 PUSH1 0x60 DUP4 ADD MSTORE PUSH1 0x0 DUP10 DUP2 MSTORE PUSH1 0x5 DUP3 MSTORE DUP4 DUP2 KECCAK256 DUP6 DUP3 MSTORE DUP3 MSTORE SWAP3 SWAP1 SWAP3 KECCAK256 DUP2 MLOAD DUP1 MLOAD SWAP3 SWAP4 SWAP2 SWAP3 PUSH2 0x954 SWAP3 DUP5 SWAP3 ADD SWAP1 PUSH2 0x1EC4 JUMP JUMPDEST POP PUSH1 0x20 DUP3 DUP2 ADD MLOAD DUP1 MLOAD PUSH2 0x96D SWAP3 PUSH1 0x1 DUP6 ADD SWAP3 ADD SWAP1 PUSH2 0x1EC4 JUMP JUMPDEST POP PUSH1 0x40 DUP3 ADD MLOAD DUP1 MLOAD PUSH2 0x989 SWAP2 PUSH1 0x2 DUP5 ADD SWAP2 PUSH1 0x20 SWAP1 SWAP2 ADD SWAP1 PUSH2 0x1EC4 JUMP JUMPDEST POP PUSH1 0x60 SWAP2 SWAP1 SWAP2 ADD MLOAD PUSH1 0x3 SWAP1 SWAP2 ADD DUP1 SLOAD PUSH1 0xFF NOT AND SWAP2 ISZERO ISZERO SWAP2 SWAP1 SWAP2 OR SWAP1 SSTORE JUMPDEST DUP1 PUSH2 0x9B0 DUP2 PUSH2 0x29DD JUMP JUMPDEST SWAP2 POP POP PUSH2 0x8C3 JUMP JUMPDEST POP PUSH1 0x0 DUP1 MLOAD PUSH1 0x20 PUSH2 0x2A41 DUP4 CODECOPY DUP2 MLOAD SWAP2 MSTORE DUP6 TIMESTAMP PUSH1 0x40 MLOAD PUSH2 0xA16 SWAP3 SWAP2 SWAP1 SWAP2 DUP3 MSTORE PUSH1 0x60 PUSH1 0x20 DUP4 ADD DUP2 SWAP1 MSTORE PUSH1 0x17 SWAP1 DUP4 ADD MSTORE PUSH32 0x4361726567697665722044617461206D6F646966696564000000000000000000 PUSH1 0x80 DUP4 ADD MSTORE PUSH1 0x40 DUP3 ADD MSTORE PUSH1 0xA0 ADD SWAP1 JUMP JUMPDEST PUSH1 0x40 MLOAD DUP1 SWAP2 SUB SWAP1 LOG1 POP POP POP POP POP JUMP JUMPDEST PUSH1 0x0 DUP5 DUP2 MSTORE PUSH1 0x20 DUP2 SWAP1 MSTORE PUSH1 0x40 SWAP1 KECCAK256 PUSH1 0x4 ADD SLOAD DUP5 SWAP1 PUSH1 0xFF AND ISZERO ISZERO PUSH1 0x1 EQ PUSH2 0xA5D JUMPI PUSH1 0x40 MLOAD PUSH3 0x461BCD PUSH1 0xE5 SHL DUP2 MSTORE PUSH1 0x4 ADD PUSH2 0x31F SWAP1 PUSH2 0x284E JUMP JUMPDEST PUSH1 0x0 DUP6 DUP2 MSTORE PUSH1 0x6 PUSH1 0x20 SWAP1 DUP2 MSTORE PUSH1 0x40 DUP1 DUP4 KECCAK256 DUP8 DUP5 MSTORE SWAP1 SWAP2 MSTORE SWAP1 KECCAK256 SLOAD PUSH1 0xFF AND ISZERO ISZERO PUSH1 0x1 EQ PUSH2 0xACB JUMPI PUSH1 0x40 MLOAD PUSH3 0x461BCD PUSH1 0xE5 SHL DUP2 MSTORE PUSH1 0x20 PUSH1 0x4 DUP3 ADD MSTORE PUSH1 0x1D PUSH1 0x24 DUP3 ADD MSTORE PUSH32 0x4E6F206163636573732070726F76696465642062792070617469656E74000000 PUSH1 0x44 DUP3 ADD MSTORE PUSH1 0x64 ADD PUSH2 0x31F JUMP JUMPDEST POP PUSH1 0x0 SWAP4 DUP5 MSTORE PUSH1 0x4 PUSH1 0x20 SWAP1 DUP2 MSTORE PUSH1 0x40 DUP1 DUP7 KECCAK256 SWAP4 DUP7 MSTORE SWAP3 SWAP1 MSTORE SWAP3 KECCAK256 SWAP2 SWAP1 SWAP2 SSTORE POP JUMP JUMPDEST PUSH1 0x0 DUP6 DUP2 MSTORE PUSH1 0x20 DUP2 SWAP1 MSTORE PUSH1 0x40 SWAP1 KECCAK256 PUSH1 0x4 ADD SLOAD DUP6 SWAP1 PUSH1 0xFF AND ISZERO ISZERO PUSH1 0x1 EQ PUSH2 0xB24 JUMPI PUSH1 0x40 MLOAD PUSH3 0x461BCD PUSH1 0xE5 SHL DUP2 MSTORE PUSH1 0x4 ADD PUSH2 0x31F SWAP1 PUSH2 0x284E JUMP JUMPDEST PUSH1 0x0 DUP7 DUP2 MSTORE PUSH1 0x5 PUSH1 0x20 MSTORE PUSH1 0x40 DUP2 KECCAK256 PUSH1 0x7 DUP1 SLOAD SWAP2 SWAP3 SWAP2 DUP9 SWAP1 DUP2 LT PUSH2 0xB57 JUMPI PUSH4 0x4E487B71 PUSH1 0xE0 SHL PUSH1 0x0 MSTORE PUSH1 0x32 PUSH1 0x4 MSTORE PUSH1 0x24 PUSH1 0x0 REVERT JUMPDEST PUSH1 0x0 SWAP2 DUP3 MSTORE PUSH1 0x20 DUP1 DUP4 KECCAK256 SWAP1 SWAP2 ADD SLOAD DUP4 MSTORE DUP3 ADD SWAP3 SWAP1 SWAP3 MSTORE PUSH1 0x40 ADD SWAP1 KECCAK256 PUSH1 0x3 ADD SLOAD PUSH1 0xFF AND PUSH2 0xC5E JUMPI PUSH1 0x40 MLOAD DUP1 PUSH1 0x80 ADD PUSH1 0x40 MSTORE DUP1 DUP6 DUP2 MSTORE PUSH1 0x20 ADD DUP5 DUP2 MSTORE PUSH1 0x20 ADD DUP4 DUP2 MSTORE PUSH1 0x20 ADD PUSH1 0x1 ISZERO ISZERO DUP2 MSTORE POP PUSH1 0x5 PUSH1 0x0 DUP9 DUP2 MSTORE PUSH1 0x20 ADD SWAP1 DUP2 MSTORE PUSH1 0x20 ADD PUSH1 0x0 KECCAK256 PUSH1 0x0 PUSH1 0x7 DUP9 DUP2 SLOAD DUP2 LT PUSH2 0xBD7 JUMPI PUSH4 0x4E487B71 PUSH1 0xE0 SHL PUSH1 0x0 MSTORE PUSH1 0x32 PUSH1 0x4 MSTORE PUSH1 0x24 PUSH1 0x0 REVERT JUMPDEST SWAP1 PUSH1 0x0 MSTORE PUSH1 0x20 PUSH1 0x0 KECCAK256 ADD SLOAD DUP2 MSTORE PUSH1 0x20 ADD SWAP1 DUP2 MSTORE PUSH1 0x20 ADD PUSH1 0x0 KECCAK256 PUSH1 0x0 DUP3 ADD MLOAD DUP2 PUSH1 0x0 ADD SWAP1 DUP1 MLOAD SWAP1 PUSH1 0x20 ADD SWAP1 PUSH2 0xC0C SWAP3 SWAP2 SWAP1 PUSH2 0x1EC4 JUMP JUMPDEST POP PUSH1 0x20 DUP3 DUP2 ADD MLOAD DUP1 MLOAD PUSH2 0xC25 SWAP3 PUSH1 0x1 DUP6 ADD SWAP3 ADD SWAP1 PUSH2 0x1EC4 JUMP JUMPDEST POP PUSH1 0x40 DUP3 ADD MLOAD DUP1 MLOAD PUSH2 0xC41 SWAP2 PUSH1 0x2 DUP5 ADD SWAP2 PUSH1 0x20 SWAP1 SWAP2 ADD SWAP1 PUSH2 0x1EC4 JUMP JUMPDEST POP PUSH1 0x60 SWAP2 SWAP1 SWAP2 ADD MLOAD PUSH1 0x3 SWAP1 SWAP2 ADD DUP1 SLOAD PUSH1 0xFF NOT AND SWAP2 ISZERO ISZERO SWAP2 SWAP1 SWAP2 OR SWAP1 SSTORE JUMPDEST PUSH1 0x0 DUP1 MLOAD PUSH1 0x20 PUSH2 0x2A41 DUP4 CODECOPY DUP2 MLOAD SWAP2 MSTORE DUP7 TIMESTAMP PUSH1 0x40 MLOAD PUSH2 0xCBB SWAP3 SWAP2 SWAP1 SWAP2 DUP3 MSTORE PUSH1 0x60 PUSH1 0x20 DUP4 ADD DUP2 SWAP1 MSTORE PUSH1 0x19 SWAP1 DUP4 ADD MSTORE PUSH32 0x4361726567697665722044617461207265676973746572656400000000000000 PUSH1 0x80 DUP4 ADD MSTORE PUSH1 0x40 DUP3 ADD MSTORE PUSH1 0xA0 ADD SWAP1 JUMP JUMPDEST PUSH1 0x40 MLOAD DUP1 SWAP2 SUB SWAP1 LOG1 POP POP POP POP POP POP JUMP JUMPDEST PUSH1 0x0 DUP3 DUP2 MSTORE PUSH1 0x1 PUSH1 0x20 DUP2 SWAP1 MSTORE PUSH1 0x40 SWAP1 SWAP2 KECCAK256 PUSH1 0x5 ADD SLOAD DUP4 SWAP2 PUSH3 0x10000 SWAP1 SWAP2 DIV PUSH1 0xFF AND ISZERO ISZERO EQ PUSH2 0xD33 JUMPI PUSH1 0x40 MLOAD PUSH3 0x461BCD PUSH1 0xE5 SHL DUP2 MSTORE PUSH1 0x20 PUSH1 0x4 DUP3 ADD MSTORE PUSH1 0x15 PUSH1 0x24 DUP3 ADD MSTORE PUSH21 0x111BD8DD1BDC88139BDD081C9959DA5CDD195C9959 PUSH1 0x5A SHL PUSH1 0x44 DUP3 ADD MSTORE PUSH1 0x64 ADD PUSH2 0x31F JUMP JUMPDEST PUSH1 0x60 PUSH1 0x0 DUP4 PUSH1 0x1 DUP2 GT ISZERO PUSH2 0xD57 JUMPI PUSH4 0x4E487B71 PUSH1 0xE0 SHL PUSH1 0x0 MSTORE PUSH1 0x21 PUSH1 0x4 MSTORE PUSH1 0x24 PUSH1 0x0 REVERT JUMPDEST EQ ISZERO PUSH2 0xE2B JUMPI PUSH1 0x0 DUP6 DUP2 MSTORE PUSH1 0x6 PUSH1 0x20 SWAP1 DUP2 MSTORE PUSH1 0x40 DUP1 DUP4 KECCAK256 DUP8 DUP5 MSTORE SWAP1 SWAP2 MSTORE SWAP1 KECCAK256 SLOAD PUSH1 0xFF AND ISZERO PUSH2 0xDD3 JUMPI PUSH1 0x40 MLOAD PUSH3 0x461BCD PUSH1 0xE5 SHL DUP2 MSTORE PUSH1 0x20 PUSH1 0x4 DUP3 ADD MSTORE PUSH1 0x24 DUP1 DUP3 ADD MSTORE PUSH32 0x4548522D41432D30313A2041636365737320686164206265656E2070726F7669 PUSH1 0x44 DUP3 ADD MSTORE PUSH4 0x64656421 PUSH1 0xE0 SHL PUSH1 0x64 DUP3 ADD MSTORE PUSH1 0x84 ADD PUSH2 0x31F JUMP JUMPDEST POP PUSH1 0x0 DUP5 DUP2 MSTORE PUSH1 0x6 PUSH1 0x20 SWAP1 DUP2 MSTORE PUSH1 0x40 DUP1 DUP4 KECCAK256 DUP7 DUP5 MSTORE DUP3 MSTORE SWAP2 DUP3 SWAP1 KECCAK256 DUP1 SLOAD PUSH1 0xFF NOT AND PUSH1 0x1 OR SWAP1 SSTORE DUP2 MLOAD DUP1 DUP4 ADD SWAP1 SWAP3 MSTORE PUSH1 0x1C DUP3 MSTORE PUSH32 0x4163636573732069732070726F766964656420746F20646F63746F7200000000 SWAP1 DUP3 ADD MSTORE JUMPDEST PUSH1 0x1 DUP4 PUSH1 0x1 DUP2 GT ISZERO PUSH2 0xE4D JUMPI PUSH4 0x4E487B71 PUSH1 0xE0 SHL PUSH1 0x0 MSTORE PUSH1 0x21 PUSH1 0x4 MSTORE PUSH1 0x24 PUSH1 0x0 REVERT JUMPDEST EQ ISZERO PUSH2 0xF22 JUMPI PUSH1 0x0 DUP6 DUP2 MSTORE PUSH1 0x6 PUSH1 0x20 SWAP1 DUP2 MSTORE PUSH1 0x40 DUP1 DUP4 KECCAK256 DUP8 DUP5 MSTORE SWAP1 SWAP2 MSTORE SWAP1 KECCAK256 SLOAD PUSH1 0xFF AND ISZERO ISZERO PUSH1 0x1 EQ PUSH2 0xECD JUMPI PUSH1 0x40 MLOAD PUSH3 0x461BCD PUSH1 0xE5 SHL DUP2 MSTORE PUSH1 0x20 PUSH1 0x4 DUP3 ADD MSTORE PUSH1 0x23 PUSH1 0x24 DUP3 ADD MSTORE PUSH32 0x4548522D41432D30323A2041636365737320776173206E6F742070726F766964 PUSH1 0x44 DUP3 ADD MSTORE PUSH3 0x656421 PUSH1 0xE8 SHL PUSH1 0x64 DUP3 ADD MSTORE PUSH1 0x84 ADD PUSH2 0x31F JUMP JUMPDEST POP PUSH1 0x0 DUP5 DUP2 MSTORE PUSH1 0x6 PUSH1 0x20 SWAP1 DUP2 MSTORE PUSH1 0x40 DUP1 DUP4 KECCAK256 DUP7 DUP5 MSTORE DUP3 MSTORE SWAP2 DUP3 SWAP1 KECCAK256 DUP1 SLOAD PUSH1 0xFF NOT AND SWAP1 SSTORE DUP2 MLOAD DUP1 DUP4 ADD SWAP1 SWAP3 MSTORE PUSH1 0x1B DUP3 MSTORE PUSH32 0x416363657373206973207265766F6B656420746F20646F63746F720000000000 SWAP1 DUP3 ADD MSTORE JUMPDEST PUSH32 0xF4702A3B8B6C43F2FA41588E64688A0C0BC61F411971BD5EC9C64B828D4BCCB0 DUP2 DUP7 DUP7 TIMESTAMP PUSH1 0x40 MLOAD PUSH2 0xA16 SWAP5 SWAP4 SWAP3 SWAP2 SWAP1 PUSH2 0x27DC JUMP JUMPDEST PUSH1 0x3 PUSH1 0x20 MSTORE PUSH1 0x0 SWAP1 DUP2 MSTORE PUSH1 0x40 SWAP1 KECCAK256 DUP1 SLOAD DUP2 SWAP1 PUSH2 0xF72 SWAP1 PUSH2 0x29A2 JUMP JUMPDEST DUP1 PUSH1 0x1F ADD PUSH1 0x20 DUP1 SWAP2 DIV MUL PUSH1 0x20 ADD PUSH1 0x40 MLOAD SWAP1 DUP2 ADD PUSH1 0x40 MSTORE DUP1 SWAP3 SWAP2 SWAP1 DUP2 DUP2 MSTORE PUSH1 0x20 ADD DUP3 DUP1 SLOAD PUSH2 0xF9E SWAP1 PUSH2 0x29A2 JUMP JUMPDEST DUP1 ISZERO PUSH2 0xFEB JUMPI DUP1 PUSH1 0x1F LT PUSH2 0xFC0 JUMPI PUSH2 0x100 DUP1 DUP4 SLOAD DIV MUL DUP4 MSTORE SWAP2 PUSH1 0x20 ADD SWAP2 PUSH2 0xFEB JUMP JUMPDEST DUP3 ADD SWAP2 SWAP1 PUSH1 0x0 MSTORE PUSH1 0x20 PUSH1 0x0 KECCAK256 SWAP1 JUMPDEST DUP2 SLOAD DUP2 MSTORE SWAP1 PUSH1 0x1 ADD SWAP1 PUSH1 0x20 ADD DUP1 DUP4 GT PUSH2 0xFCE JUMPI DUP3 SWAP1 SUB PUSH1 0x1F AND DUP3 ADD SWAP2 JUMPDEST POP POP POP POP POP SWAP1 DUP1 PUSH1 0x1 ADD DUP1 SLOAD PUSH2 0x1000 SWAP1 PUSH2 0x29A2 JUMP JUMPDEST DUP1 PUSH1 0x1F ADD PUSH1 0x20 DUP1 SWAP2 DIV MUL PUSH1 0x20 ADD PUSH1 0x40 MLOAD SWAP1 DUP2 ADD PUSH1 0x40 MSTORE DUP1 SWAP3 SWAP2 SWAP1 DUP2 DUP2 MSTORE PUSH1 0x20 ADD DUP3 DUP1 SLOAD PUSH2 0x102C SWAP1 PUSH2 0x29A2 JUMP JUMPDEST DUP1 ISZERO PUSH2 0x1079 JUMPI DUP1 PUSH1 0x1F LT PUSH2 0x104E JUMPI PUSH2 0x100 DUP1 DUP4 SLOAD DIV MUL DUP4 MSTORE SWAP2 PUSH1 0x20 ADD SWAP2 PUSH2 0x1079 JUMP JUMPDEST DUP3 ADD SWAP2 SWAP1 PUSH1 0x0 MSTORE PUSH1 0x20 PUSH1 0x0 KECCAK256 SWAP1 JUMPDEST DUP2 SLOAD DUP2 MSTORE SWAP1 PUSH1 0x1 ADD SWAP1 PUSH1 0x20 ADD DUP1 DUP4 GT PUSH2 0x105C JUMPI DUP3 SWAP1 SUB PUSH1 0x1F AND DUP3 ADD SWAP2 JUMPDEST POP POP POP POP POP SWAP1 DUP1 PUSH1 0x2 ADD SLOAD SWAP1 DUP1 PUSH1 0x3 ADD SLOAD SWAP1 POP DUP5 JUMP JUMPDEST PUSH1 0x5 PUSH1 0x20 SWAP1 DUP2 MSTORE PUSH1 0x0 SWAP3 DUP4 MSTORE PUSH1 0x40 DUP1 DUP5 KECCAK256 SWAP1 SWAP2 MSTORE SWAP1 DUP3 MSTORE SWAP1 KECCAK256 DUP1 SLOAD DUP2 SWAP1 PUSH2 0x10B5 SWAP1 PUSH2 0x29A2 JUMP JUMPDEST DUP1 PUSH1 0x1F ADD PUSH1 0x20 DUP1 SWAP2 DIV MUL PUSH1 0x20 ADD PUSH1 0x40 MLOAD SWAP1 DUP2 ADD PUSH1 0x40 MSTORE DUP1 SWAP3 SWAP2 SWAP1 DUP2 DUP2 MSTORE PUSH1 0x20 ADD DUP3 DUP1 SLOAD PUSH2 0x10E1 SWAP1 PUSH2 0x29A2 JUMP JUMPDEST DUP1 ISZERO PUSH2 0x112E JUMPI DUP1 PUSH1 0x1F LT PUSH2 0x1103 JUMPI PUSH2 0x100 DUP1 DUP4 SLOAD DIV MUL DUP4 MSTORE SWAP2 PUSH1 0x20 ADD SWAP2 PUSH2 0x112E JUMP JUMPDEST DUP3 ADD SWAP2 SWAP1 PUSH1 0x0 MSTORE PUSH1 0x20 PUSH1 0x0 KECCAK256 SWAP1 JUMPDEST DUP2 SLOAD DUP2 MSTORE SWAP1 PUSH1 0x1 ADD SWAP1 PUSH1 0x20 ADD DUP1 DUP4 GT PUSH2 0x1111 JUMPI DUP3 SWAP1 SUB PUSH1 0x1F AND DUP3 ADD SWAP2 JUMPDEST POP POP POP POP POP SWAP1 DUP1 PUSH1 0x1 ADD DUP1 SLOAD PUSH2 0x1143 SWAP1 PUSH2 0x29A2 JUMP JUMPDEST DUP1 PUSH1 0x1F ADD PUSH1 0x20 DUP1 SWAP2 DIV MUL PUSH1 0x20 ADD PUSH1 0x40 MLOAD SWAP1 DUP2 ADD PUSH1 0x40 MSTORE DUP1 SWAP3 SWAP2 SWAP1 DUP2 DUP2 MSTORE PUSH1 0x20 ADD DUP3 DUP1 SLOAD PUSH2 0x116F SWAP1 PUSH2 0x29A2 JUMP JUMPDEST DUP1 ISZERO PUSH2 0x11BC JUMPI DUP1 PUSH1 0x1F LT PUSH2 0x1191 JUMPI PUSH2 0x100 DUP1 DUP4 SLOAD DIV MUL DUP4 MSTORE SWAP2 PUSH1 0x20 ADD SWAP2 PUSH2 0x11BC JUMP JUMPDEST DUP3 ADD SWAP2 SWAP1 PUSH1 0x0 MSTORE PUSH1 0x20 PUSH1 0x0 KECCAK256 SWAP1 JUMPDEST DUP2 SLOAD DUP2 MSTORE SWAP1 PUSH1 0x1 ADD SWAP1 PUSH1 0x20 ADD DUP1 DUP4 GT PUSH2 0x119F JUMPI DUP3 SWAP1 SUB PUSH1 0x1F AND DUP3 ADD SWAP2 JUMPDEST POP POP POP POP POP SWAP1 DUP1 PUSH1 0x2 ADD DUP1 SLOAD PUSH2 0x11D1 SWAP1 PUSH2 0x29A2 JUMP JUMPDEST DUP1 PUSH1 0x1F ADD PUSH1 0x20 DUP1 SWAP2 DIV MUL PUSH1 0x20 ADD PUSH1 0x40 MLOAD SWAP1 DUP2 ADD PUSH1 0x40 MSTORE DUP1 SWAP3 SWAP2 SWAP1 DUP2 DUP2 MSTORE PUSH1 0x20 ADD DUP3 DUP1 SLOAD PUSH2 0x11FD SWAP1 PUSH2 0x29A2 JUMP JUMPDEST DUP1 ISZERO PUSH2 0x124A JUMPI DUP1 PUSH1 0x1F LT PUSH2 0x121F JUMPI PUSH2 0x100 DUP1 DUP4 SLOAD DIV MUL DUP4 MSTORE SWAP2 PUSH1 0x20 ADD SWAP2 PUSH2 0x124A JUMP JUMPDEST DUP3 ADD SWAP2 SWAP1 PUSH1 0x0 MSTORE PUSH1 0x20 PUSH1 0x0 KECCAK256 SWAP1 JUMPDEST DUP2 SLOAD DUP2 MSTORE SWAP1 PUSH1 0x1 ADD SWAP1 PUSH1 0x20 ADD DUP1 DUP4 GT PUSH2 0x122D JUMPI DUP3 SWAP1 SUB PUSH1 0x1F AND DUP3 ADD SWAP2 JUMPDEST POP POP POP PUSH1 0x3 SWAP1 SWAP4 ADD SLOAD SWAP2 SWAP3 POP POP PUSH1 0xFF AND DUP5 JUMP JUMPDEST PUSH1 0x0 DUP2 DUP2 MSTORE PUSH1 0x20 DUP2 SWAP1 MSTORE PUSH1 0x40 SWAP1 KECCAK256 PUSH1 0x4 ADD SLOAD DUP2 SWAP1 PUSH1 0xFF AND ISZERO ISZERO PUSH1 0x1 EQ PUSH2 0x1295 JUMPI PUSH1 0x40 MLOAD PUSH3 0x461BCD PUSH1 0xE5 SHL DUP2 MSTORE PUSH1 0x4 ADD PUSH2 0x31F SWAP1 PUSH2 0x284E JUMP JUMPDEST PUSH1 0x40 DUP1 MLOAD PUSH1 0x80 DUP2 ADD DUP3 MSTORE DUP8 DUP2 MSTORE PUSH1 0x20 DUP1 DUP3 ADD DUP9 SWAP1 MSTORE DUP2 DUP4 ADD DUP8 SWAP1 MSTORE PUSH1 0x60 DUP3 ADD DUP7 SWAP1 MSTORE PUSH1 0x0 DUP6 DUP2 MSTORE PUSH1 0x3 DUP3 MSTORE SWAP3 SWAP1 SWAP3 KECCAK256 DUP2 MLOAD DUP1 MLOAD SWAP3 SWAP4 SWAP2 SWAP3 PUSH2 0x12D9 SWAP3 DUP5 SWAP3 ADD SWAP1 PUSH2 0x1EC4 JUMP JUMPDEST POP PUSH1 0x20 DUP3 DUP2 ADD MLOAD DUP1 MLOAD PUSH2 0x12F2 SWAP3 PUSH1 0x1 DUP6 ADD SWAP3 ADD SWAP1 PUSH2 0x1EC4 JUMP JUMPDEST POP PUSH1 0x40 DUP3 ADD MLOAD DUP2 PUSH1 0x2 ADD SSTORE PUSH1 0x60 DUP3 ADD MLOAD DUP2 PUSH1 0x3 ADD SSTORE SWAP1 POP POP PUSH1 0x0 DUP1 MLOAD PUSH1 0x20 PUSH2 0x2A41 DUP4 CODECOPY DUP2 MLOAD SWAP2 MSTORE DUP3 TIMESTAMP PUSH1 0x40 MLOAD PUSH2 0xCBB SWAP3 SWAP2 SWAP1 SWAP2 DUP3 MSTORE PUSH1 0x60 PUSH1 0x20 DUP4 ADD DUP2 SWAP1 MSTORE PUSH1 0x1B SWAP1 DUP4 ADD MSTORE PUSH32 0x50617469656E74204865616C7468204461746120757064617465640000000000 PUSH1 0x80 DUP4 ADD MSTORE PUSH1 0x40 DUP3 ADD MSTORE PUSH1 0xA0 ADD SWAP1 JUMP JUMPDEST PUSH1 0x0 DUP7 DUP9 PUSH1 0x40 MLOAD PUSH1 0x20 ADD PUSH2 0x137C SWAP3 SWAP2 SWAP1 PUSH2 0x25BD JUMP JUMPDEST PUSH1 0x40 DUP1 MLOAD PUSH1 0x1F NOT DUP2 DUP5 SUB ADD DUP2 MSTORE SWAP2 SWAP1 MSTORE DUP1 MLOAD PUSH1 0x20 SWAP1 SWAP2 ADD KECCAK256 SWAP1 POP PUSH1 0x60 PUSH1 0x0 DUP4 PUSH1 0x1 DUP2 GT ISZERO PUSH2 0x13BA JUMPI PUSH4 0x4E487B71 PUSH1 0xE0 SHL PUSH1 0x0 MSTORE PUSH1 0x21 PUSH1 0x4 MSTORE PUSH1 0x24 PUSH1 0x0 REVERT JUMPDEST EQ ISZERO PUSH2 0x1634 JUMPI DUP9 DUP1 MLOAD SWAP1 PUSH1 0x20 ADD KECCAK256 PUSH1 0x1 PUSH1 0x0 DUP5 DUP2 MSTORE PUSH1 0x20 ADD SWAP1 DUP2 MSTORE PUSH1 0x20 ADD PUSH1 0x0 KECCAK256 PUSH1 0x1 ADD PUSH1 0x40 MLOAD PUSH2 0x13EB SWAP2 SWAP1 PUSH2 0x2522 JUMP JUMPDEST PUSH1 0x40 MLOAD DUP1 SWAP2 SUB SWAP1 KECCAK256 EQ ISZERO PUSH2 0x1411 JUMPI PUSH1 0x40 MLOAD PUSH3 0x461BCD PUSH1 0xE5 SHL DUP2 MSTORE PUSH1 0x4 ADD PUSH2 0x31F SWAP1 PUSH2 0x280B JUMP JUMPDEST DUP8 DUP1 MLOAD SWAP1 PUSH1 0x20 ADD KECCAK256 PUSH1 0x1 PUSH1 0x0 DUP5 DUP2 MSTORE PUSH1 0x20 ADD SWAP1 DUP2 MSTORE PUSH1 0x20 ADD PUSH1 0x0 KECCAK256 PUSH1 0x2 ADD PUSH1 0x40 MLOAD PUSH2 0x143C SWAP2 SWAP1 PUSH2 0x2522 JUMP JUMPDEST PUSH1 0x40 MLOAD DUP1 SWAP2 SUB SWAP1 KECCAK256 EQ ISZERO PUSH2 0x1462 JUMPI PUSH1 0x40 MLOAD PUSH3 0x461BCD PUSH1 0xE5 SHL DUP2 MSTORE PUSH1 0x4 ADD PUSH2 0x31F SWAP1 PUSH2 0x28C2 JUMP JUMPDEST PUSH1 0x40 MLOAD DUP1 PUSH2 0x100 ADD PUSH1 0x40 MSTORE DUP1 DUP12 DUP2 MSTORE PUSH1 0x20 ADD DUP11 DUP2 MSTORE PUSH1 0x20 ADD DUP10 DUP2 MSTORE PUSH1 0x20 ADD DUP9 DUP2 MSTORE PUSH1 0x20 ADD DUP8 DUP2 MSTORE PUSH1 0x20 ADD DUP7 PUSH1 0x4 DUP2 GT ISZERO PUSH2 0x14AC JUMPI PUSH4 0x4E487B71 PUSH1 0xE0 SHL PUSH1 0x0 MSTORE PUSH1 0x21 PUSH1 0x4 MSTORE PUSH1 0x24 PUSH1 0x0 REVERT JUMPDEST DUP2 MSTORE PUSH1 0x20 ADD DUP6 PUSH1 0x2 DUP2 GT ISZERO PUSH2 0x14D1 JUMPI PUSH4 0x4E487B71 PUSH1 0xE0 SHL PUSH1 0x0 MSTORE PUSH1 0x21 PUSH1 0x4 MSTORE PUSH1 0x24 PUSH1 0x0 REVERT JUMPDEST DUP2 MSTORE PUSH1 0x1 PUSH1 0x20 SWAP2 DUP3 ADD DUP2 SWAP1 MSTORE PUSH1 0x0 DUP6 DUP2 MSTORE SWAP1 DUP3 MSTORE PUSH1 0x40 SWAP1 KECCAK256 DUP3 MLOAD DUP1 MLOAD SWAP2 SWAP3 PUSH2 0x14FE SWAP3 DUP5 SWAP3 SWAP1 SWAP2 ADD SWAP1 PUSH2 0x1EC4 JUMP JUMPDEST POP PUSH1 0x20 DUP3 DUP2 ADD MLOAD DUP1 MLOAD PUSH2 0x1517 SWAP3 PUSH1 0x1 DUP6 ADD SWAP3 ADD SWAP1 PUSH2 0x1EC4 JUMP JUMPDEST POP PUSH1 0x40 DUP3 ADD MLOAD DUP1 MLOAD PUSH2 0x1533 SWAP2 PUSH1 0x2 DUP5 ADD SWAP2 PUSH1 0x20 SWAP1 SWAP2 ADD SWAP1 PUSH2 0x1EC4 JUMP JUMPDEST POP PUSH1 0x60 DUP3 ADD MLOAD DUP1 MLOAD PUSH2 0x154F SWAP2 PUSH1 0x3 DUP5 ADD SWAP2 PUSH1 0x20 SWAP1 SWAP2 ADD SWAP1 PUSH2 0x1EC4 JUMP JUMPDEST POP PUSH1 0x80 DUP3 ADD MLOAD DUP1 MLOAD PUSH2 0x156B SWAP2 PUSH1 0x4 DUP5 ADD SWAP2 PUSH1 0x20 SWAP1 SWAP2 ADD SWAP1 PUSH2 0x1EC4 JUMP JUMPDEST POP PUSH1 0xA0 DUP3 ADD MLOAD PUSH1 0x5 DUP3 ADD DUP1 SLOAD PUSH1 0xFF NOT AND PUSH1 0x1 DUP4 PUSH1 0x4 DUP2 GT ISZERO PUSH2 0x159D JUMPI PUSH4 0x4E487B71 PUSH1 0xE0 SHL PUSH1 0x0 MSTORE PUSH1 0x21 PUSH1 0x4 MSTORE PUSH1 0x24 PUSH1 0x0 REVERT JUMPDEST MUL OR SWAP1 SSTORE POP PUSH1 0xC0 DUP3 ADD MLOAD PUSH1 0x5 DUP3 ADD DUP1 SLOAD PUSH2 0xFF00 NOT AND PUSH2 0x100 DUP4 PUSH1 0x2 DUP2 GT ISZERO PUSH2 0x15D5 JUMPI PUSH4 0x4E487B71 PUSH1 0xE0 SHL PUSH1 0x0 MSTORE PUSH1 0x21 PUSH1 0x4 MSTORE PUSH1 0x24 PUSH1 0x0 REVERT JUMPDEST MUL OR SWAP1 SSTORE POP PUSH1 0xE0 SWAP2 SWAP1 SWAP2 ADD MLOAD PUSH1 0x5 SWAP1 SWAP2 ADD DUP1 SLOAD SWAP2 ISZERO ISZERO PUSH3 0x10000 MUL PUSH3 0xFF0000 NOT SWAP1 SWAP3 AND SWAP2 SWAP1 SWAP2 OR SWAP1 SSTORE POP PUSH1 0x40 DUP1 MLOAD DUP1 DUP3 ADD SWAP1 SWAP2 MSTORE PUSH1 0x18 DUP2 MSTORE PUSH32 0x446F63746F7220526567697374726174696F6E20446F6E650000000000000000 PUSH1 0x20 DUP3 ADD MSTORE JUMPDEST PUSH1 0x1 DUP4 PUSH1 0x1 DUP2 GT ISZERO PUSH2 0x1656 JUMPI PUSH4 0x4E487B71 PUSH1 0xE0 SHL PUSH1 0x0 MSTORE PUSH1 0x21 PUSH1 0x4 MSTORE PUSH1 0x24 PUSH1 0x0 REVERT JUMPDEST EQ ISZERO PUSH2 0x1796 JUMPI DUP9 DUP1 MLOAD SWAP1 PUSH1 0x20 ADD KECCAK256 PUSH1 0x1 PUSH1 0x0 DUP5 DUP2 MSTORE PUSH1 0x20 ADD SWAP1 DUP2 MSTORE PUSH1 0x20 ADD PUSH1 0x0 KECCAK256 PUSH1 0x1 ADD PUSH1 0x40 MLOAD PUSH2 0x1687 SWAP2 SWAP1 PUSH2 0x2522 JUMP JUMPDEST PUSH1 0x40 MLOAD DUP1 SWAP2 SUB SWAP1 KECCAK256 EQ PUSH2 0x16AC JUMPI PUSH1 0x40 MLOAD PUSH3 0x461BCD PUSH1 0xE5 SHL DUP2 MSTORE PUSH1 0x4 ADD PUSH2 0x31F SWAP1 PUSH2 0x280B JUMP JUMPDEST DUP8 DUP1 MLOAD SWAP1 PUSH1 0x20 ADD KECCAK256 PUSH1 0x1 PUSH1 0x0 DUP5 DUP2 MSTORE PUSH1 0x20 ADD SWAP1 DUP2 MSTORE PUSH1 0x20 ADD PUSH1 0x0 KECCAK256 PUSH1 0x2 ADD PUSH1 0x40 MLOAD PUSH2 0x16D7 SWAP2 SWAP1 PUSH2 0x2522 JUMP JUMPDEST PUSH1 0x40 MLOAD DUP1 SWAP2 SUB SWAP1 KECCAK256 EQ PUSH2 0x16FC JUMPI PUSH1 0x40 MLOAD PUSH3 0x461BCD PUSH1 0xE5 SHL DUP2 MSTORE PUSH1 0x4 ADD PUSH2 0x31F SWAP1 PUSH2 0x28C2 JUMP JUMPDEST PUSH1 0x0 DUP3 DUP2 MSTORE PUSH1 0x1 PUSH1 0x20 SWAP1 DUP2 MSTORE PUSH1 0x40 SWAP1 SWAP2 KECCAK256 DUP12 MLOAD PUSH2 0x171B SWAP3 DUP14 ADD SWAP1 PUSH2 0x1EC4 JUMP JUMPDEST POP PUSH1 0x0 DUP3 DUP2 MSTORE PUSH1 0x1 PUSH1 0x20 DUP2 DUP2 MSTORE PUSH1 0x40 SWAP1 SWAP3 KECCAK256 DUP12 MLOAD PUSH2 0x1741 SWAP4 SWAP2 SWAP1 SWAP3 ADD SWAP2 SWAP1 DUP13 ADD SWAP1 PUSH2 0x1EC4 JUMP JUMPDEST POP PUSH1 0x0 DUP3 DUP2 MSTORE PUSH1 0x1 PUSH1 0x20 SWAP1 DUP2 MSTORE PUSH1 0x40 SWAP1 SWAP2 KECCAK256 DUP10 MLOAD PUSH2 0x1767 SWAP3 PUSH1 0x2 SWAP1 SWAP3 ADD SWAP2 DUP12 ADD SWAP1 PUSH2 0x1EC4 JUMP JUMPDEST POP POP PUSH1 0x40 DUP1 MLOAD DUP1 DUP3 ADD SWAP1 SWAP2 MSTORE PUSH1 0x15 DUP2 MSTORE PUSH21 0x111BD8DD1BDC88149958DBDC9908155C19185D1959 PUSH1 0x5A SHL PUSH1 0x20 DUP3 ADD MSTORE JUMPDEST PUSH1 0x0 DUP1 MLOAD PUSH1 0x20 PUSH2 0x2A41 DUP4 CODECOPY DUP2 MLOAD SWAP2 MSTORE DUP3 DUP3 TIMESTAMP PUSH1 0x40 MLOAD PUSH2 0x17B7 SWAP4 SWAP3 SWAP2 SWAP1 PUSH2 0x2949 JUMP JUMPDEST PUSH1 0x40 MLOAD DUP1 SWAP2 SUB SWAP1 LOG1 POP POP POP POP POP POP POP POP POP POP JUMP JUMPDEST PUSH1 0x0 DUP2 DUP2 MSTORE PUSH1 0x20 DUP2 SWAP1 MSTORE PUSH1 0x40 SWAP1 KECCAK256 PUSH1 0x4 ADD SLOAD DUP2 SWAP1 PUSH1 0xFF AND ISZERO ISZERO PUSH1 0x1 EQ PUSH2 0x1803 JUMPI PUSH1 0x40 MLOAD PUSH3 0x461BCD PUSH1 0xE5 SHL DUP2 MSTORE PUSH1 0x4 ADD PUSH2 0x31F SWAP1 PUSH2 0x284E JUMP JUMPDEST PUSH1 0x40 DUP1 MLOAD PUSH1 0xA0 DUP2 ADD DUP3 MSTORE DUP9 DUP2 MSTORE PUSH1 0x20 DUP1 DUP3 ADD DUP10 SWAP1 MSTORE DUP2 DUP4 ADD DUP9 SWAP1 MSTORE PUSH1 0x60 DUP3 ADD DUP8 SWAP1 MSTORE PUSH1 0x80 DUP3 ADD DUP7 SWAP1 MSTORE PUSH1 0x0 DUP6 DUP2 MSTORE PUSH1 0x2 DUP3 MSTORE SWAP3 SWAP1 SWAP3 KECCAK256 DUP2 MLOAD DUP1 MLOAD SWAP3 SWAP4 SWAP2 SWAP3 PUSH2 0x184E SWAP3 DUP5 SWAP3 ADD SWAP1 PUSH2 0x1EC4 JUMP JUMPDEST POP PUSH1 0x20 DUP3 DUP2 ADD MLOAD DUP1 MLOAD PUSH2 0x1867 SWAP3 PUSH1 0x1 DUP6 ADD SWAP3 ADD SWAP1 PUSH2 0x1EC4 JUMP JUMPDEST POP PUSH1 0x40 DUP3 ADD MLOAD DUP1 MLOAD PUSH2 0x1883 SWAP2 PUSH1 0x2 DUP5 ADD SWAP2 PUSH1 0x20 SWAP1 SWAP2 ADD SWAP1 PUSH2 0x1EC4 JUMP JUMPDEST POP PUSH1 0x60 DUP3 ADD MLOAD DUP1 MLOAD PUSH2 0x189F SWAP2 PUSH1 0x3 DUP5 ADD SWAP2 PUSH1 0x20 SWAP1 SWAP2 ADD SWAP1 PUSH2 0x1EC4 JUMP JUMPDEST POP PUSH1 0x80 SWAP2 DUP3 ADD MLOAD PUSH1 0x4 SWAP1 SWAP2 ADD SSTORE PUSH1 0x40 DUP1 MLOAD DUP5 DUP2 MSTORE PUSH1 0x60 PUSH1 0x20 DUP3 ADD DUP2 SWAP1 MSTORE PUSH1 0x1D SWAP1 DUP3 ADD MSTORE PUSH32 0x50617469656E74204C6F636174696F6E20446174612075706461746564000000 SWAP3 DUP2 ADD SWAP3 SWAP1 SWAP3 MSTORE TIMESTAMP SWAP1 DUP3 ADD MSTORE PUSH1 0x0 DUP1 MLOAD PUSH1 0x20 PUSH2 0x2A41 DUP4 CODECOPY DUP2 MLOAD SWAP2 MSTORE SWAP1 PUSH1 0xA0 ADD JUMPDEST PUSH1 0x40 MLOAD DUP1 SWAP2 SUB SWAP1 LOG1 POP POP POP POP POP POP POP JUMP JUMPDEST PUSH1 0x0 DUP4 DUP6 PUSH1 0x40 MLOAD PUSH1 0x20 ADD PUSH2 0x1929 SWAP3 SWAP2 SWAP1 PUSH2 0x25BD JUMP JUMPDEST PUSH1 0x40 DUP1 MLOAD PUSH1 0x1F NOT DUP2 DUP5 SUB ADD DUP2 MSTORE SWAP2 SWAP1 MSTORE DUP1 MLOAD PUSH1 0x20 SWAP1 SWAP2 ADD KECCAK256 SWAP1 POP PUSH1 0x60 PUSH1 0x0 DUP4 PUSH1 0x1 DUP2 GT ISZERO PUSH2 0x1967 JUMPI PUSH4 0x4E487B71 PUSH1 0xE0 SHL PUSH1 0x0 MSTORE PUSH1 0x21 PUSH1 0x4 MSTORE PUSH1 0x24 PUSH1 0x0 REVERT JUMPDEST EQ ISZERO PUSH2 0x1AFA JUMPI DUP6 DUP1 MLOAD SWAP1 PUSH1 0x20 ADD KECCAK256 PUSH1 0x0 DUP1 DUP5 DUP2 MSTORE PUSH1 0x20 ADD SWAP1 DUP2 MSTORE PUSH1 0x20 ADD PUSH1 0x0 KECCAK256 PUSH1 0x1 ADD PUSH1 0x40 MLOAD PUSH2 0x1997 SWAP2 SWAP1 PUSH2 0x2522 JUMP JUMPDEST PUSH1 0x40 MLOAD DUP1 SWAP2 SUB SWAP1 KECCAK256 EQ ISZERO PUSH2 0x19BD JUMPI PUSH1 0x40 MLOAD PUSH3 0x461BCD PUSH1 0xE5 SHL DUP2 MSTORE PUSH1 0x4 ADD PUSH2 0x31F SWAP1 PUSH2 0x2905 JUMP JUMPDEST DUP5 DUP1 MLOAD SWAP1 PUSH1 0x20 ADD KECCAK256 PUSH1 0x0 DUP1 DUP5 DUP2 MSTORE PUSH1 0x20 ADD SWAP1 DUP2 MSTORE PUSH1 0x20 ADD PUSH1 0x0 KECCAK256 PUSH1 0x2 ADD PUSH1 0x40 MLOAD PUSH2 0x19E7 SWAP2 SWAP1 PUSH2 0x2522 JUMP JUMPDEST PUSH1 0x40 MLOAD DUP1 SWAP2 SUB SWAP1 KECCAK256 EQ ISZERO PUSH2 0x1A0D JUMPI PUSH1 0x40 MLOAD PUSH3 0x461BCD PUSH1 0xE5 SHL DUP2 MSTORE PUSH1 0x4 ADD PUSH2 0x31F SWAP1 PUSH2 0x287E JUMP JUMPDEST PUSH1 0x40 DUP1 MLOAD PUSH1 0xA0 DUP2 ADD DUP3 MSTORE DUP9 DUP2 MSTORE PUSH1 0x20 DUP1 DUP3 ADD DUP10 SWAP1 MSTORE DUP2 DUP4 ADD DUP9 SWAP1 MSTORE PUSH1 0x60 DUP3 ADD DUP8 SWAP1 MSTORE PUSH1 0x1 PUSH1 0x80 DUP4 ADD MSTORE PUSH1 0x0 DUP6 DUP2 MSTORE DUP1 DUP3 MSTORE SWAP3 SWAP1 SWAP3 KECCAK256 DUP2 MLOAD DUP1 MLOAD SWAP3 SWAP4 SWAP2 SWAP3 PUSH2 0x1A57 SWAP3 DUP5 SWAP3 ADD SWAP1 PUSH2 0x1EC4 JUMP JUMPDEST POP PUSH1 0x20 DUP3 DUP2 ADD MLOAD DUP1 MLOAD PUSH2 0x1A70 SWAP3 PUSH1 0x1 DUP6 ADD SWAP3 ADD SWAP1 PUSH2 0x1EC4 JUMP JUMPDEST POP PUSH1 0x40 DUP3 ADD MLOAD DUP1 MLOAD PUSH2 0x1A8C SWAP2 PUSH1 0x2 DUP5 ADD SWAP2 PUSH1 0x20 SWAP1 SWAP2 ADD SWAP1 PUSH2 0x1EC4 JUMP JUMPDEST POP PUSH1 0x60 DUP3 ADD MLOAD DUP1 MLOAD PUSH2 0x1AA8 SWAP2 PUSH1 0x3 DUP5 ADD SWAP2 PUSH1 0x20 SWAP1 SWAP2 ADD SWAP1 PUSH2 0x1EC4 JUMP JUMPDEST POP PUSH1 0x80 SWAP2 SWAP1 SWAP2 ADD MLOAD PUSH1 0x4 SWAP1 SWAP2 ADD DUP1 SLOAD PUSH1 0xFF NOT AND SWAP2 ISZERO ISZERO SWAP2 SWAP1 SWAP2 OR SWAP1 SSTORE POP PUSH1 0x40 DUP1 MLOAD DUP1 DUP3 ADD SWAP1 SWAP2 MSTORE PUSH1 0x19 DUP2 MSTORE PUSH32 0x50617469656E7420526567697374726174696F6E20446F6E6500000000000000 PUSH1 0x20 DUP3 ADD MSTORE JUMPDEST PUSH1 0x1 DUP4 PUSH1 0x1 DUP2 GT ISZERO PUSH2 0x1B1C JUMPI PUSH4 0x4E487B71 PUSH1 0xE0 SHL PUSH1 0x0 MSTORE PUSH1 0x21 PUSH1 0x4 MSTORE PUSH1 0x24 PUSH1 0x0 REVERT JUMPDEST EQ ISZERO PUSH2 0x1C55 JUMPI DUP6 DUP1 MLOAD SWAP1 PUSH1 0x20 ADD KECCAK256 PUSH1 0x0 DUP1 DUP5 DUP2 MSTORE PUSH1 0x20 ADD SWAP1 DUP2 MSTORE PUSH1 0x20 ADD PUSH1 0x0 KECCAK256 PUSH1 0x1 ADD PUSH1 0x40 MLOAD PUSH2 0x1B4C SWAP2 SWAP1 PUSH2 0x2522 JUMP JUMPDEST PUSH1 0x40 MLOAD DUP1 SWAP2 SUB SWAP1 KECCAK256 EQ PUSH2 0x1B71 JUMPI PUSH1 0x40 MLOAD PUSH3 0x461BCD PUSH1 0xE5 SHL DUP2 MSTORE PUSH1 0x4 ADD PUSH2 0x31F SWAP1 PUSH2 0x2905 JUMP JUMPDEST DUP5 DUP1 MLOAD SWAP1 PUSH1 0x20 ADD KECCAK256 PUSH1 0x0 DUP1 DUP5 DUP2 MSTORE PUSH1 0x20 ADD SWAP1 DUP2 MSTORE PUSH1 0x20 ADD PUSH1 0x0 KECCAK256 PUSH1 0x2 ADD PUSH1 0x40 MLOAD PUSH2 0x1B9B SWAP2 SWAP1 PUSH2 0x2522 JUMP JUMPDEST PUSH1 0x40 MLOAD DUP1 SWAP2 SUB SWAP1 KECCAK256 EQ PUSH2 0x1BC0 JUMPI PUSH1 0x40 MLOAD PUSH3 0x461BCD PUSH1 0xE5 SHL DUP2 MSTORE PUSH1 0x4 ADD PUSH2 0x31F SWAP1 PUSH2 0x287E JUMP JUMPDEST PUSH1 0x0 DUP3 DUP2 MSTORE PUSH1 0x20 DUP2 DUP2 MSTORE PUSH1 0x40 SWAP1 SWAP2 KECCAK256 DUP9 MLOAD PUSH2 0x1BDD SWAP3 DUP11 ADD SWAP1 PUSH2 0x1EC4 JUMP JUMPDEST POP PUSH1 0x0 DUP3 DUP2 MSTORE PUSH1 0x20 DUP2 DUP2 MSTORE PUSH1 0x40 SWAP1 SWAP2 KECCAK256 DUP8 MLOAD PUSH2 0x1C01 SWAP3 PUSH1 0x1 SWAP1 SWAP3 ADD SWAP2 DUP10 ADD SWAP1 PUSH2 0x1EC4 JUMP JUMPDEST POP PUSH1 0x0 DUP3 DUP2 MSTORE PUSH1 0x20 DUP2 DUP2 MSTORE PUSH1 0x40 SWAP1 SWAP2 KECCAK256 DUP7 MLOAD PUSH2 0x1C25 SWAP3 PUSH1 0x2 SWAP1 SWAP3 ADD SWAP2 DUP9 ADD SWAP1 PUSH2 0x1EC4 JUMP JUMPDEST POP POP PUSH1 0x40 DUP1 MLOAD DUP1 DUP3 ADD SWAP1 SWAP2 MSTORE PUSH1 0x16 DUP2 MSTORE PUSH22 0x14185D1A595B9D08149958DBDC9908155C19185D1959 PUSH1 0x52 SHL PUSH1 0x20 DUP3 ADD MSTORE JUMPDEST PUSH1 0x0 DUP1 MLOAD PUSH1 0x20 PUSH2 0x2A41 DUP4 CODECOPY DUP2 MLOAD SWAP2 MSTORE DUP3 DUP3 TIMESTAMP PUSH1 0x40 MLOAD PUSH2 0x1903 SWAP4 SWAP3 SWAP2 SWAP1 PUSH2 0x2949 JUMP JUMPDEST PUSH1 0x2 PUSH1 0x20 MSTORE PUSH1 0x0 SWAP1 DUP2 MSTORE PUSH1 0x40 SWAP1 KECCAK256 DUP1 SLOAD DUP2 SWAP1 PUSH2 0x1C91 SWAP1 PUSH2 0x29A2 JUMP JUMPDEST DUP1 PUSH1 0x1F ADD PUSH1 0x20 DUP1 SWAP2 DIV MUL PUSH1 0x20 ADD PUSH1 0x40 MLOAD SWAP1 DUP2 ADD PUSH1 0x40 MSTORE DUP1 SWAP3 SWAP2 SWAP1 DUP2 DUP2 MSTORE PUSH1 0x20 ADD DUP3 DUP1 SLOAD PUSH2 0x1CBD SWAP1 PUSH2 0x29A2 JUMP JUMPDEST DUP1 ISZERO PUSH2 0x1D0A JUMPI DUP1 PUSH1 0x1F LT PUSH2 0x1CDF JUMPI PUSH2 0x100 DUP1 DUP4 SLOAD DIV MUL DUP4 MSTORE SWAP2 PUSH1 0x20 ADD SWAP2 PUSH2 0x1D0A JUMP JUMPDEST DUP3 ADD SWAP2 SWAP1 PUSH1 0x0 MSTORE PUSH1 0x20 PUSH1 0x0 KECCAK256 SWAP1 JUMPDEST DUP2 SLOAD DUP2 MSTORE SWAP1 PUSH1 0x1 ADD SWAP1 PUSH1 0x20 ADD DUP1 DUP4 GT PUSH2 0x1CED JUMPI DUP3 SWAP1 SUB PUSH1 0x1F AND DUP3 ADD SWAP2 JUMPDEST POP POP POP POP POP SWAP1 DUP1 PUSH1 0x1 ADD DUP1 SLOAD PUSH2 0x1D1F SWAP1 PUSH2 0x29A2 JUMP JUMPDEST DUP1 PUSH1 0x1F ADD PUSH1 0x20 DUP1 SWAP2 DIV MUL PUSH1 0x20 ADD PUSH1 0x40 MLOAD SWAP1 DUP2 ADD PUSH1 0x40 MSTORE DUP1 SWAP3 SWAP2 SWAP1 DUP2 DUP2 MSTORE PUSH1 0x20 ADD DUP3 DUP1 SLOAD PUSH2 0x1D4B SWAP1 PUSH2 0x29A2 JUMP JUMPDEST DUP1 ISZERO PUSH2 0x1D98 JUMPI DUP1 PUSH1 0x1F LT PUSH2 0x1D6D JUMPI PUSH2 0x100 DUP1 DUP4 SLOAD DIV MUL DUP4 MSTORE SWAP2 PUSH1 0x20 ADD SWAP2 PUSH2 0x1D98 JUMP JUMPDEST DUP3 ADD SWAP2 SWAP1 PUSH1 0x0 MSTORE PUSH1 0x20 PUSH1 0x0 KECCAK256 SWAP1 JUMPDEST DUP2 SLOAD DUP2 MSTORE SWAP1 PUSH1 0x1 ADD SWAP1 PUSH1 0x20 ADD DUP1 DUP4 GT PUSH2 0x1D7B JUMPI DUP3 SWAP1 SUB PUSH1 0x1F AND DUP3 ADD SWAP2 JUMPDEST POP POP POP POP POP SWAP1 DUP1 PUSH1 0x2 ADD DUP1 SLOAD PUSH2 0x1DAD SWAP1 PUSH2 0x29A2 JUMP JUMPDEST DUP1 PUSH1 0x1F ADD PUSH1 0x20 DUP1 SWAP2 DIV MUL PUSH1 0x20 ADD PUSH1 0x40 MLOAD SWAP1 DUP2 ADD PUSH1 0x40 MSTORE DUP1 SWAP3 SWAP2 SWAP1 DUP2 DUP2 MSTORE PUSH1 0x20 ADD DUP3 DUP1 SLOAD PUSH2 0x1DD9 SWAP1 PUSH2 0x29A2 JUMP JUMPDEST DUP1 ISZERO PUSH2 0x1E26 JUMPI DUP1 PUSH1 0x1F LT PUSH2 0x1DFB JUMPI PUSH2 0x100 DUP1 DUP4 SLOAD DIV MUL DUP4 MSTORE SWAP2 PUSH1 0x20 ADD SWAP2 PUSH2 0x1E26 JUMP JUMPDEST DUP3 ADD SWAP2 SWAP1 PUSH1 0x0 MSTORE PUSH1 0x20 PUSH1 0x0 KECCAK256 SWAP1 JUMPDEST DUP2 SLOAD DUP2 MSTORE SWAP1 PUSH1 0x1 ADD SWAP1 PUSH1 0x20 ADD DUP1 DUP4 GT PUSH2 0x1E09 JUMPI DUP3 SWAP1 SUB PUSH1 0x1F AND DUP3 ADD SWAP2 JUMPDEST POP POP POP POP POP SWAP1 DUP1 PUSH1 0x3 ADD DUP1 SLOAD PUSH2 0x1E3B SWAP1 PUSH2 0x29A2 JUMP JUMPDEST DUP1 PUSH1 0x1F ADD PUSH1 0x20 DUP1 SWAP2 DIV MUL PUSH1 0x20 ADD PUSH1 0x40 MLOAD SWAP1 DUP2 ADD PUSH1 0x40 MSTORE DUP1 SWAP3 SWAP2 SWAP1 DUP2 DUP2 MSTORE PUSH1 0x20 ADD DUP3 DUP1 SLOAD PUSH2 0x1E67 SWAP1 PUSH2 0x29A2 JUMP JUMPDEST DUP1 ISZERO PUSH2 0x1EB4 JUMPI DUP1 PUSH1 0x1F LT PUSH2 0x1E89 JUMPI PUSH2 0x100 DUP1 DUP4 SLOAD DIV MUL DUP4 MSTORE SWAP2 PUSH1 0x20 ADD SWAP2 PUSH2 0x1EB4 JUMP JUMPDEST DUP3 ADD SWAP2 SWAP1 PUSH1 0x0 MSTORE PUSH1 0x20 PUSH1 0x0 KECCAK256 SWAP1 JUMPDEST DUP2 SLOAD DUP2 MSTORE SWAP1 PUSH1 0x1 ADD SWAP1 PUSH1 0x20 ADD DUP1 DUP4 GT PUSH2 0x1E97 JUMPI DUP3 SWAP1 SUB PUSH1 0x1F AND DUP3 ADD SWAP2 JUMPDEST POP POP POP POP POP SWAP1 DUP1 PUSH1 0x4 ADD SLOAD SWAP1 POP DUP6 JUMP JUMPDEST DUP3 DUP1 SLOAD PUSH2 0x1ED0 SWAP1 PUSH2 0x29A2 JUMP JUMPDEST SWAP1 PUSH1 0x0 MSTORE PUSH1 0x20 PUSH1 0x0 KECCAK256 SWAP1 PUSH1 0x1F ADD PUSH1 0x20 SWAP1 DIV DUP2 ADD SWAP3 DUP3 PUSH2 0x1EF2 JUMPI PUSH1 0x0 DUP6 SSTORE PUSH2 0x1F38 JUMP JUMPDEST DUP3 PUSH1 0x1F LT PUSH2 0x1F0B JUMPI DUP1 MLOAD PUSH1 0xFF NOT AND DUP4 DUP1 ADD OR DUP6 SSTORE PUSH2 0x1F38 JUMP JUMPDEST DUP3 DUP1 ADD PUSH1 0x1 ADD DUP6 SSTORE DUP3 ISZERO PUSH2 0x1F38 JUMPI SWAP2 DUP3 ADD JUMPDEST DUP3 DUP2 GT ISZERO PUSH2 0x1F38 JUMPI DUP3 MLOAD DUP3 SSTORE SWAP2 PUSH1 0x20 ADD SWAP2 SWAP1 PUSH1 0x1 ADD SWAP1 PUSH2 0x1F1D JUMP JUMPDEST POP PUSH2 0x1F44 SWAP3 SWAP2 POP PUSH2 0x1F48 JUMP JUMPDEST POP SWAP1 JUMP JUMPDEST JUMPDEST DUP1 DUP3 GT ISZERO PUSH2 0x1F44 JUMPI PUSH1 0x0 DUP2 SSTORE PUSH1 0x1 ADD PUSH2 0x1F49 JUMP JUMPDEST DUP1 CALLDATALOAD PUSH1 0x5 DUP2 LT PUSH2 0x1F6C JUMPI PUSH1 0x0 DUP1 REVERT JUMPDEST SWAP2 SWAP1 POP JUMP JUMPDEST DUP1 CALLDATALOAD PUSH1 0x3 DUP2 LT PUSH2 0x1F6C JUMPI PUSH1 0x0 DUP1 REVERT JUMPDEST DUP1 CALLDATALOAD PUSH2 0x1F6C DUP2 PUSH2 0x2A30 JUMP JUMPDEST PUSH1 0x0 DUP3 PUSH1 0x1F DUP4 ADD SLT PUSH2 0x1F9B JUMPI DUP1 DUP2 REVERT JUMPDEST DUP2 CALLDATALOAD PUSH8 0xFFFFFFFFFFFFFFFF DUP1 DUP3 GT ISZERO PUSH2 0x1FB6 JUMPI PUSH2 0x1FB6 PUSH2 0x2A1A JUMP JUMPDEST PUSH1 0x40 MLOAD PUSH1 0x1F DUP4 ADD PUSH1 0x1F NOT SWAP1 DUP2 AND PUSH1 0x3F ADD AND DUP2 ADD SWAP1 DUP3 DUP3 GT DUP2 DUP4 LT OR ISZERO PUSH2 0x1FDE JUMPI PUSH2 0x1FDE PUSH2 0x2A1A JUMP JUMPDEST DUP2 PUSH1 0x40 MSTORE DUP4 DUP2 MSTORE DUP7 PUSH1 0x20 DUP6 DUP9 ADD ADD GT ISZERO PUSH2 0x1FF6 JUMPI DUP5 DUP6 REVERT JUMPDEST DUP4 PUSH1 0x20 DUP8 ADD PUSH1 0x20 DUP4 ADD CALLDATACOPY SWAP3 DUP4 ADD PUSH1 0x20 ADD SWAP4 SWAP1 SWAP4 MSTORE POP SWAP4 SWAP3 POP POP POP JUMP JUMPDEST PUSH1 0x0 DUP1 PUSH1 0x0 DUP1 PUSH1 0x0 PUSH1 0xA0 DUP7 DUP9 SUB SLT ISZERO PUSH2 0x2029 JUMPI DUP1 DUP2 REVERT JUMPDEST DUP6 CALLDATALOAD PUSH8 0xFFFFFFFFFFFFFFFF DUP1 DUP3 GT ISZERO PUSH2 0x2040 JUMPI DUP3 DUP4 REVERT JUMPDEST PUSH2 0x204C DUP10 DUP4 DUP11 ADD PUSH2 0x1F8B JUMP JUMPDEST SWAP7 POP PUSH1 0x20 DUP9 ADD CALLDATALOAD SWAP2 POP DUP1 DUP3 GT ISZERO PUSH2 0x2061 JUMPI DUP3 DUP4 REVERT JUMPDEST PUSH2 0x206D DUP10 DUP4 DUP11 ADD PUSH2 0x1F8B JUMP JUMPDEST SWAP6 POP PUSH1 0x40 DUP9 ADD CALLDATALOAD SWAP2 POP DUP1 DUP3 GT ISZERO PUSH2 0x2082 JUMPI DUP3 DUP4 REVERT JUMPDEST PUSH2 0x208E DUP10 DUP4 DUP11 ADD PUSH2 0x1F8B JUMP JUMPDEST SWAP5 POP PUSH1 0x60 DUP9 ADD CALLDATALOAD SWAP2 POP DUP1 DUP3 GT ISZERO PUSH2 0x20A3 JUMPI DUP3 DUP4 REVERT JUMPDEST POP PUSH2 0x20B0 DUP9 DUP3 DUP10 ADD PUSH2 0x1F8B JUMP JUMPDEST SWAP3 POP POP PUSH1 0x80 DUP7 ADD CALLDATALOAD PUSH2 0x20C1 DUP2 PUSH2 0x2A30 JUMP JUMPDEST DUP1 SWAP2 POP POP SWAP3 SWAP6 POP SWAP3 SWAP6 SWAP1 SWAP4 POP JUMP JUMPDEST PUSH1 0x0 DUP1 PUSH1 0x0 DUP1 PUSH1 0x0 DUP1 PUSH1 0x0 DUP1 PUSH2 0x100 DUP10 DUP12 SUB SLT ISZERO PUSH2 0x20EB JUMPI DUP3 DUP4 REVERT JUMPDEST DUP9 CALLDATALOAD PUSH8 0xFFFFFFFFFFFFFFFF DUP1 DUP3 GT ISZERO PUSH2 0x2102 JUMPI DUP5 DUP6 REVERT JUMPDEST PUSH2 0x210E DUP13 DUP4 DUP14 ADD PUSH2 0x1F8B JUMP JUMPDEST SWAP10 POP PUSH1 0x20 DUP12 ADD CALLDATALOAD SWAP2 POP DUP1 DUP3 GT ISZERO PUSH2 0x2123 JUMPI DUP5 DUP6 REVERT JUMPDEST PUSH2 0x212F DUP13 DUP4 DUP14 ADD PUSH2 0x1F8B JUMP JUMPDEST SWAP9 POP PUSH1 0x40 DUP12 ADD CALLDATALOAD SWAP2 POP DUP1 DUP3 GT ISZERO PUSH2 0x2144 JUMPI DUP5 DUP6 REVERT JUMPDEST PUSH2 0x2150 DUP13 DUP4 DUP14 ADD PUSH2 0x1F8B JUMP JUMPDEST SWAP8 POP PUSH1 0x60 DUP12 ADD CALLDATALOAD SWAP2 POP DUP1 DUP3 GT ISZERO PUSH2 0x2165 JUMPI DUP5 DUP6 REVERT JUMPDEST PUSH2 0x2171 DUP13 DUP4 DUP14 ADD PUSH2 0x1F8B JUMP JUMPDEST SWAP7 POP PUSH1 0x80 DUP12 ADD CALLDATALOAD SWAP2 POP DUP1 DUP3 GT ISZERO PUSH2 0x2186 JUMPI DUP5 DUP6 REVERT JUMPDEST POP PUSH2 0x2193 DUP12 DUP3 DUP13 ADD PUSH2 0x1F8B JUMP JUMPDEST SWAP5 POP POP PUSH2 0x21A2 PUSH1 0xA0 DUP11 ADD PUSH2 0x1F5D JUMP JUMPDEST SWAP3 POP PUSH2 0x21B0 PUSH1 0xC0 DUP11 ADD PUSH2 0x1F71 JUMP JUMPDEST SWAP2 POP PUSH2 0x21BE PUSH1 0xE0 DUP11 ADD PUSH2 0x1F80 JUMP JUMPDEST SWAP1 POP SWAP3 SWAP6 SWAP9 POP SWAP3 SWAP6 SWAP9 SWAP1 SWAP4 SWAP7 POP JUMP JUMPDEST PUSH1 0x0 DUP1 PUSH1 0x0 DUP1 PUSH1 0x0 DUP1 PUSH1 0xC0 DUP8 DUP10 SUB SLT ISZERO PUSH2 0x21E5 JUMPI DUP2 DUP3 REVERT JUMPDEST DUP7 CALLDATALOAD PUSH8 0xFFFFFFFFFFFFFFFF DUP1 DUP3 GT ISZERO PUSH2 0x21FC JUMPI DUP4 DUP5 REVERT JUMPDEST PUSH2 0x2208 DUP11 DUP4 DUP12 ADD PUSH2 0x1F8B JUMP JUMPDEST SWAP8 POP PUSH1 0x20 DUP10 ADD CALLDATALOAD SWAP2 POP DUP1 DUP3 GT ISZERO PUSH2 0x221D JUMPI DUP4 DUP5 REVERT JUMPDEST PUSH2 0x2229 DUP11 DUP4 DUP12 ADD PUSH2 0x1F8B JUMP JUMPDEST SWAP7 POP PUSH1 0x40 DUP10 ADD CALLDATALOAD SWAP2 POP DUP1 DUP3 GT ISZERO PUSH2 0x223E JUMPI DUP4 DUP5 REVERT JUMPDEST PUSH2 0x224A DUP11 DUP4 DUP12 ADD PUSH2 0x1F8B JUMP JUMPDEST SWAP6 POP PUSH1 0x60 DUP10 ADD CALLDATALOAD SWAP2 POP DUP1 DUP3 GT ISZERO PUSH2 0x225F JUMPI DUP4 DUP5 REVERT JUMPDEST POP PUSH2 0x226C DUP10 DUP3 DUP11 ADD PUSH2 0x1F8B JUMP JUMPDEST SWAP4 POP POP PUSH1 0x80 DUP8 ADD CALLDATALOAD SWAP2 POP PUSH1 0xA0 DUP8 ADD CALLDATALOAD SWAP1 POP SWAP3 SWAP6 POP SWAP3 SWAP6 POP SWAP3 SWAP6 JUMP JUMPDEST PUSH1 0x0 DUP1 PUSH1 0x0 DUP1 PUSH1 0x0 PUSH1 0xA0 DUP7 DUP9 SUB SLT ISZERO PUSH2 0x229E JUMPI DUP1 DUP2 REVERT JUMPDEST DUP6 CALLDATALOAD PUSH8 0xFFFFFFFFFFFFFFFF DUP1 DUP3 GT ISZERO PUSH2 0x22B5 JUMPI DUP3 DUP4 REVERT JUMPDEST PUSH2 0x22C1 DUP10 DUP4 DUP11 ADD PUSH2 0x1F8B JUMP JUMPDEST SWAP7 POP PUSH1 0x20 DUP9 ADD CALLDATALOAD SWAP2 POP DUP1 DUP3 GT ISZERO PUSH2 0x22D6 JUMPI DUP3 DUP4 REVERT JUMPDEST POP PUSH2 0x22E3 DUP9 DUP3 DUP10 ADD PUSH2 0x1F8B JUMP JUMPDEST SWAP6 SWAP9 SWAP6 SWAP8 POP POP POP POP PUSH1 0x40 DUP5 ADD CALLDATALOAD SWAP4 PUSH1 0x60 DUP2 ADD CALLDATALOAD SWAP4 PUSH1 0x80 SWAP1 SWAP2 ADD CALLDATALOAD SWAP3 POP SWAP1 POP JUMP JUMPDEST PUSH1 0x0 PUSH1 0x20 DUP3 DUP5 SUB SLT ISZERO PUSH2 0x2314 JUMPI DUP1 DUP2 REVERT JUMPDEST POP CALLDATALOAD SWAP2 SWAP1 POP JUMP JUMPDEST PUSH1 0x0 DUP1 PUSH1 0x0 DUP1 PUSH1 0x80 DUP6 DUP8 SUB SLT ISZERO PUSH2 0x2330 JUMPI DUP4 DUP5 REVERT JUMPDEST DUP5 CALLDATALOAD SWAP4 POP PUSH1 0x20 DUP6 ADD CALLDATALOAD PUSH8 0xFFFFFFFFFFFFFFFF DUP1 DUP3 GT ISZERO PUSH2 0x234E JUMPI DUP5 DUP6 REVERT JUMPDEST PUSH2 0x235A DUP9 DUP4 DUP10 ADD PUSH2 0x1F8B JUMP JUMPDEST SWAP5 POP PUSH1 0x40 DUP8 ADD CALLDATALOAD SWAP2 POP DUP1 DUP3 GT ISZERO PUSH2 0x236F JUMPI DUP4 DUP5 REVERT JUMPDEST PUSH2 0x237B DUP9 DUP4 DUP10 ADD PUSH2 0x1F8B JUMP JUMPDEST SWAP4 POP PUSH1 0x60 DUP8 ADD CALLDATALOAD SWAP2 POP DUP1 DUP3 GT ISZERO PUSH2 0x2390 JUMPI DUP3 DUP4 REVERT JUMPDEST POP PUSH2 0x239D DUP8 DUP3 DUP9 ADD PUSH2 0x1F8B JUMP JUMPDEST SWAP2 POP POP SWAP3 SWAP6 SWAP2 SWAP5 POP SWAP3 POP JUMP JUMPDEST PUSH1 0x0 DUP1 PUSH1 0x40 DUP4 DUP6 SUB SLT ISZERO PUSH2 0x23BB JUMPI DUP2 DUP3 REVERT JUMPDEST POP POP DUP1 CALLDATALOAD SWAP3 PUSH1 0x20 SWAP1 SWAP2 ADD CALLDATALOAD SWAP2 POP JUMP JUMPDEST PUSH1 0x0 DUP1 PUSH1 0x0 PUSH1 0x60 DUP5 DUP7 SUB SLT ISZERO PUSH2 0x23DE JUMPI DUP3 DUP4 REVERT JUMPDEST DUP4 CALLDATALOAD SWAP3 POP PUSH1 0x20 DUP5 ADD CALLDATALOAD SWAP2 POP PUSH1 0x40 DUP5 ADD CALLDATALOAD PUSH2 0x23F7 DUP2 PUSH2 0x2A30 JUMP JUMPDEST DUP1 SWAP2 POP POP SWAP3 POP SWAP3 POP SWAP3 JUMP JUMPDEST PUSH1 0x0 DUP1 PUSH1 0x0 DUP1 PUSH1 0x0 PUSH1 0xA0 DUP7 DUP9 SUB SLT ISZERO PUSH2 0x2419 JUMPI DUP1 DUP2 REVERT JUMPDEST DUP6 CALLDATALOAD SWAP5 POP PUSH1 0x20 DUP7 ADD CALLDATALOAD SWAP4 POP PUSH1 0x40 DUP7 ADD CALLDATALOAD PUSH8 0xFFFFFFFFFFFFFFFF DUP1 DUP3 GT ISZERO PUSH2 0x243E JUMPI DUP3 DUP4 REVERT JUMPDEST PUSH2 0x244A DUP10 DUP4 DUP11 ADD PUSH2 0x1F8B JUMP JUMPDEST SWAP5 POP PUSH1 0x60 DUP9 ADD CALLDATALOAD SWAP2 POP DUP1 DUP3 GT ISZERO PUSH2 0x245F JUMPI DUP3 DUP4 REVERT JUMPDEST PUSH2 0x246B DUP10 DUP4 DUP11 ADD PUSH2 0x1F8B JUMP JUMPDEST SWAP4 POP PUSH1 0x80 DUP9 ADD CALLDATALOAD SWAP2 POP DUP1 DUP3 GT ISZERO PUSH2 0x2480 JUMPI DUP3 DUP4 REVERT JUMPDEST POP PUSH2 0x248D DUP9 DUP3 DUP10 ADD PUSH2 0x1F8B JUMP JUMPDEST SWAP2 POP POP SWAP3 SWAP6 POP SWAP3 SWAP6 SWAP1 SWAP4 POP JUMP JUMPDEST PUSH1 0x0 DUP1 PUSH1 0x0 PUSH1 0x60 DUP5 DUP7 SUB SLT ISZERO PUSH2 0x24AE JUMPI DUP1 DUP2 REVERT JUMPDEST POP POP DUP2 CALLDATALOAD SWAP4 PUSH1 0x20 DUP4 ADD CALLDATALOAD SWAP4 POP PUSH1 0x40 SWAP1 SWAP3 ADD CALLDATALOAD SWAP2 SWAP1 POP JUMP JUMPDEST PUSH1 0x0 DUP1 PUSH1 0x0 DUP1 PUSH1 0x80 DUP6 DUP8 SUB SLT ISZERO PUSH2 0x24DA JUMPI DUP2 DUP3 REVERT JUMPDEST POP POP DUP3 CALLDATALOAD SWAP5 PUSH1 0x20 DUP5 ADD CALLDATALOAD SWAP5 POP PUSH1 0x40 DUP5 ADD CALLDATALOAD SWAP4 PUSH1 0x60 ADD CALLDATALOAD SWAP3 POP SWAP1 POP JUMP JUMPDEST PUSH1 0x0 DUP2 MLOAD DUP1 DUP5 MSTORE PUSH2 0x250E DUP2 PUSH1 0x20 DUP7 ADD PUSH1 0x20 DUP7 ADD PUSH2 0x2972 JUMP JUMPDEST PUSH1 0x1F ADD PUSH1 0x1F NOT AND SWAP3 SWAP1 SWAP3 ADD PUSH1 0x20 ADD SWAP3 SWAP2 POP POP JUMP JUMPDEST PUSH1 0x0 DUP1 DUP4 SLOAD DUP3 PUSH1 0x1 DUP3 DUP2 SHR SWAP2 POP DUP1 DUP4 AND DUP1 PUSH2 0x253E JUMPI PUSH1 0x7F DUP4 AND SWAP3 POP JUMPDEST PUSH1 0x20 DUP1 DUP5 LT DUP3 EQ ISZERO PUSH2 0x255E JUMPI PUSH4 0x4E487B71 PUSH1 0xE0 SHL DUP8 MSTORE PUSH1 0x22 PUSH1 0x4 MSTORE PUSH1 0x24 DUP8 REVERT JUMPDEST DUP2 DUP1 ISZERO PUSH2 0x2572 JUMPI PUSH1 0x1 DUP2 EQ PUSH2 0x2583 JUMPI PUSH2 0x25AF JUMP JUMPDEST PUSH1 0xFF NOT DUP7 AND DUP10 MSTORE DUP5 DUP10 ADD SWAP7 POP PUSH2 0x25AF JUMP JUMPDEST PUSH1 0x0 DUP11 DUP2 MSTORE PUSH1 0x20 SWAP1 KECCAK256 DUP9 JUMPDEST DUP7 DUP2 LT ISZERO PUSH2 0x25A7 JUMPI DUP2 SLOAD DUP12 DUP3 ADD MSTORE SWAP1 DUP6 ADD SWAP1 DUP4 ADD PUSH2 0x258E JUMP JUMPDEST POP POP DUP5 DUP10 ADD SWAP7 POP JUMPDEST POP SWAP5 SWAP9 SWAP8 POP POP POP POP POP POP POP POP JUMP JUMPDEST PUSH1 0x0 DUP4 MLOAD PUSH2 0x25CF DUP2 DUP5 PUSH1 0x20 DUP9 ADD PUSH2 0x2972 JUMP JUMPDEST DUP4 MLOAD SWAP1 DUP4 ADD SWAP1 PUSH2 0x25E3 DUP2 DUP4 PUSH1 0x20 DUP9 ADD PUSH2 0x2972 JUMP JUMPDEST ADD SWAP5 SWAP4 POP POP POP POP JUMP JUMPDEST PUSH1 0x80 DUP2 MSTORE PUSH1 0x0 PUSH2 0x25FF PUSH1 0x80 DUP4 ADD DUP8 PUSH2 0x24F6 JUMP JUMPDEST DUP3 DUP2 SUB PUSH1 0x20 DUP5 ADD MSTORE PUSH2 0x2611 DUP2 DUP8 PUSH2 0x24F6 JUMP JUMPDEST SWAP1 POP DUP3 DUP2 SUB PUSH1 0x40 DUP5 ADD MSTORE PUSH2 0x2625 DUP2 DUP7 PUSH2 0x24F6 JUMP JUMPDEST SWAP2 POP POP DUP3 ISZERO ISZERO PUSH1 0x60 DUP4 ADD MSTORE SWAP6 SWAP5 POP POP POP POP POP JUMP JUMPDEST PUSH1 0xA0 DUP2 MSTORE PUSH1 0x0 PUSH2 0x264C PUSH1 0xA0 DUP4 ADD DUP9 PUSH2 0x24F6 JUMP JUMPDEST DUP3 DUP2 SUB PUSH1 0x20 DUP5 ADD MSTORE PUSH2 0x265E DUP2 DUP9 PUSH2 0x24F6 JUMP JUMPDEST SWAP1 POP DUP3 DUP2 SUB PUSH1 0x40 DUP5 ADD MSTORE PUSH2 0x2672 DUP2 DUP8 PUSH2 0x24F6 JUMP JUMPDEST SWAP1 POP DUP3 DUP2 SUB PUSH1 0x60 DUP5 ADD MSTORE PUSH2 0x2686 DUP2 DUP7 PUSH2 0x24F6 JUMP JUMPDEST SWAP2 POP POP DUP3 ISZERO ISZERO PUSH1 0x80 DUP4 ADD MSTORE SWAP7 SWAP6 POP POP POP POP POP POP JUMP JUMPDEST PUSH1 0x0 PUSH2 0x100 DUP1 DUP4 MSTORE PUSH2 0x26AF DUP2 DUP5 ADD DUP13 PUSH2 0x24F6 JUMP JUMPDEST SWAP1 POP DUP3 DUP2 SUB PUSH1 0x20 DUP5 ADD MSTORE PUSH2 0x26C3 DUP2 DUP12 PUSH2 0x24F6 JUMP JUMPDEST SWAP1 POP DUP3 DUP2 SUB PUSH1 0x40 DUP5 ADD MSTORE PUSH2 0x26D7 DUP2 DUP11 PUSH2 0x24F6 JUMP JUMPDEST SWAP1 POP DUP3 DUP2 SUB PUSH1 0x60 DUP5 ADD MSTORE PUSH2 0x26EB DUP2 DUP10 PUSH2 0x24F6 JUMP JUMPDEST SWAP1 POP DUP3 DUP2 SUB PUSH1 0x80 DUP5 ADD MSTORE PUSH2 0x26FF DUP2 DUP9 PUSH2 0x24F6 JUMP JUMPDEST SWAP2 POP POP PUSH1 0x5 DUP6 LT PUSH2 0x2712 JUMPI PUSH2 0x2712 PUSH2 0x2A04 JUMP JUMPDEST DUP5 PUSH1 0xA0 DUP4 ADD MSTORE PUSH1 0x3 DUP5 LT PUSH2 0x2728 JUMPI PUSH2 0x2728 PUSH2 0x2A04 JUMP JUMPDEST DUP4 PUSH1 0xC0 DUP4 ADD MSTORE DUP3 ISZERO ISZERO PUSH1 0xE0 DUP4 ADD MSTORE SWAP10 SWAP9 POP POP POP POP POP POP POP POP POP JUMP JUMPDEST PUSH1 0xA0 DUP2 MSTORE PUSH1 0x0 PUSH2 0x2756 PUSH1 0xA0 DUP4 ADD DUP9 PUSH2 0x24F6 JUMP JUMPDEST DUP3 DUP2 SUB PUSH1 0x20 DUP5 ADD MSTORE PUSH2 0x2768 DUP2 DUP9 PUSH2 0x24F6 JUMP JUMPDEST SWAP1 POP DUP3 DUP2 SUB PUSH1 0x40 DUP5 ADD MSTORE PUSH2 0x277C DUP2 DUP8 PUSH2 0x24F6 JUMP JUMPDEST SWAP1 POP DUP3 DUP2 SUB PUSH1 0x60 DUP5 ADD MSTORE PUSH2 0x2790 DUP2 DUP7 PUSH2 0x24F6 JUMP JUMPDEST SWAP2 POP POP DUP3 PUSH1 0x80 DUP4 ADD MSTORE SWAP7 SWAP6 POP POP POP POP POP POP JUMP JUMPDEST PUSH1 0x80 DUP2 MSTORE PUSH1 0x0 PUSH2 0x27B6 PUSH1 0x80 DUP4 ADD DUP8 PUSH2 0x24F6 JUMP JUMPDEST DUP3 DUP2 SUB PUSH1 0x20 DUP5 ADD MSTORE PUSH2 0x27C8 DUP2 DUP8 PUSH2 0x24F6 JUMP JUMPDEST PUSH1 0x40 DUP5 ADD SWAP6 SWAP1 SWAP6 MSTORE POP POP PUSH1 0x60 ADD MSTORE SWAP3 SWAP2 POP POP JUMP JUMPDEST PUSH1 0x80 DUP2 MSTORE PUSH1 0x0 PUSH2 0x27EF PUSH1 0x80 DUP4 ADD DUP8 PUSH2 0x24F6 JUMP JUMPDEST PUSH1 0x20 DUP4 ADD SWAP6 SWAP1 SWAP6 MSTORE POP PUSH1 0x40 DUP2 ADD SWAP3 SWAP1 SWAP3 MSTORE PUSH1 0x60 SWAP1 SWAP2 ADD MSTORE SWAP2 SWAP1 POP JUMP JUMPDEST PUSH1 0x20 DUP1 DUP3 MSTORE PUSH1 0x23 SWAP1 DUP3 ADD MSTORE PUSH32 0x4548522D52442D30313A20446F63746F7220616C726561647920456E726F6C6C PUSH1 0x40 DUP3 ADD MSTORE PUSH3 0x32B217 PUSH1 0xE9 SHL PUSH1 0x60 DUP3 ADD MSTORE PUSH1 0x80 ADD SWAP1 JUMP JUMPDEST PUSH1 0x20 DUP1 DUP3 MSTORE PUSH1 0x16 SWAP1 DUP3 ADD MSTORE PUSH22 0x14185D1A595B9D08139BDD081C9959DA5CDD195C9959 PUSH1 0x52 SHL PUSH1 0x40 DUP3 ADD MSTORE PUSH1 0x60 ADD SWAP1 JUMP JUMPDEST PUSH1 0x20 DUP1 DUP3 MSTORE PUSH1 0x24 SWAP1 DUP3 ADD MSTORE PUSH32 0x4548522D52502D30323A2050617469656E7420616C726561647920456E726F6C PUSH1 0x40 DUP3 ADD MSTORE PUSH4 0x3632B217 PUSH1 0xE1 SHL PUSH1 0x60 DUP3 ADD MSTORE PUSH1 0x80 ADD SWAP1 JUMP JUMPDEST PUSH1 0x20 DUP1 DUP3 MSTORE PUSH1 0x23 SWAP1 DUP3 ADD MSTORE PUSH32 0x4548522D52442D30323A20446F63746F7220616C726561647920456E726F6C6C PUSH1 0x40 DUP3 ADD MSTORE PUSH3 0x32B217 PUSH1 0xE9 SHL PUSH1 0x60 DUP3 ADD MSTORE PUSH1 0x80 ADD SWAP1 JUMP JUMPDEST PUSH1 0x20 DUP1 DUP3 MSTORE PUSH1 0x24 SWAP1 DUP3 ADD MSTORE PUSH32 0x4548522D52502D30313A2050617469656E7420616C726561647920456E726F6C PUSH1 0x40 DUP3 ADD MSTORE PUSH4 0x3632B217 PUSH1 0xE1 SHL PUSH1 0x60 DUP3 ADD MSTORE PUSH1 0x80 ADD SWAP1 JUMP JUMPDEST DUP4 DUP2 MSTORE PUSH1 0x60 PUSH1 0x20 DUP3 ADD MSTORE PUSH1 0x0 PUSH2 0x2962 PUSH1 0x60 DUP4 ADD DUP6 PUSH2 0x24F6 JUMP JUMPDEST SWAP1 POP DUP3 PUSH1 0x40 DUP4 ADD MSTORE SWAP5 SWAP4 POP POP POP POP JUMP JUMPDEST PUSH1 0x0 JUMPDEST DUP4 DUP2 LT ISZERO PUSH2 0x298D JUMPI DUP2 DUP2 ADD MLOAD DUP4 DUP3 ADD MSTORE PUSH1 0x20 ADD PUSH2 0x2975 JUMP JUMPDEST DUP4 DUP2 GT ISZERO PUSH2 0x299C JUMPI PUSH1 0x0 DUP5 DUP5 ADD MSTORE JUMPDEST POP POP POP POP JUMP JUMPDEST PUSH1 0x1 DUP2 DUP2 SHR SWAP1 DUP3 AND DUP1 PUSH2 0x29B6 JUMPI PUSH1 0x7F DUP3 AND SWAP2 POP JUMPDEST PUSH1 0x20 DUP3 LT DUP2 EQ ISZERO PUSH2 0x29D7 JUMPI PUSH4 0x4E487B71 PUSH1 0xE0 SHL PUSH1 0x0 MSTORE PUSH1 0x22 PUSH1 0x4 MSTORE PUSH1 0x24 PUSH1 0x0 REVERT JUMPDEST POP SWAP2 SWAP1 POP JUMP JUMPDEST PUSH1 0x0 PUSH1 0x0 NOT DUP3 EQ ISZERO PUSH2 0x29FD JUMPI PUSH4 0x4E487B71 PUSH1 0xE0 SHL DUP2 MSTORE PUSH1 0x11 PUSH1 0x4 MSTORE PUSH1 0x24 DUP2 REVERT JUMPDEST POP PUSH1 0x1 ADD SWAP1 JUMP JUMPDEST PUSH4 0x4E487B71 PUSH1 0xE0 SHL PUSH1 0x0 MSTORE PUSH1 0x21 PUSH1 0x4 MSTORE PUSH1 0x24 PUSH1 0x0 REVERT JUMPDEST PUSH4 0x4E487B71 PUSH1 0xE0 SHL PUSH1 0x0 MSTORE PUSH1 0x41 PUSH1 0x4 MSTORE PUSH1 0x24 PUSH1 0x0 REVERT JUMPDEST PUSH1 0x2 DUP2 LT PUSH2 0x2A3D JUMPI PUSH1 0x0 DUP1 REVERT JUMPDEST POP JUMP INVALID LT COINBASE SUB PUSH30 0x4B3EE5730FCE647EBD981CD0FD8864F61CD34868EF88A3FA6AF64721A264 PUSH10 0x70667358221220EB184F 0xCE JUMPI 0x5F 0x4B JUMP SAR CALLDATACOPY BLOCKHASH 0x2C PUSH20 0xFA3DA2A6727C2862AFF9059D5AA0F049272E1064 PUSH20 0x6F6C634300080400330000000000000000000000 "
				},
				"gasEstimates": {
					"creation": {
						"codeDepositCost": "2180400",
						"executionCost": "infinite",
						"totalCost": "infinite"
					},
					"external": {
						"accessControl(uint256,uint256,uint8)": "infinite",
						"accessForDoctor(uint256,uint256)": "1268",
						"careGiverData(uint256,uint256)": "infinite",
						"doctorAccess(uint256)": "infinite",
						"patientAccess(uint256)": "infinite",
						"patientLocData(uint256)": "infinite",
						"patienthealthData(uint256)": "infinite",
						"patientrecordsData(uint256,uint256)": "1299",
						"recordByDoctor(uint256,uint256,uint256,uint256)": "22369",
						"recordByPatient(uint256,uint256,uint256)": "21350",
						"registerCareGiver(uint256,uint256,string,string,string)": "infinite",
						"registerDoctor(string,string,string,string,string,uint8,uint8,uint8)": "infinite",
						"registerPatientHealth(string,string,uint256,uint256,uint256)": "infinite",
						"registerPatientLoc(string,string,string,string,uint256,uint256)": "infinite",
						"registerPatients(string,string,string,string,uint8)": "infinite",
						"updateCareGiver(uint256,string,string,string)": "infinite"
					}
				},
				"methodIdentifiers": {
					"accessControl(uint256,uint256,uint8)": "a269b418",
					"accessForDoctor(uint256,uint256)": "4fcd407a",
					"careGiverData(uint256,uint256)": "cbd46fa3",
					"doctorAccess(uint256)": "0a77f6b0",
					"patientAccess(uint256)": "2990bc6f",
					"patientLocData(uint256)": "f75be4eb",
					"patienthealthData(uint256)": "c977baf3",
					"patientrecordsData(uint256,uint256)": "f60b48cb",
					"recordByDoctor(uint256,uint256,uint256,uint256)": "764b6b38",
					"recordByPatient(uint256,uint256,uint256)": "021bf487",
					"registerCareGiver(uint256,uint256,string,string,string)": "8f58f628",
					"registerDoctor(string,string,string,string,string,uint8,uint8,uint8)": "db3e3976",
					"registerPatientHealth(string,string,uint256,uint256,uint256)": "d7349705",
					"registerPatientLoc(string,string,string,string,uint256,uint256)": "e078a1c6",
					"registerPatients(string,string,string,string,uint8)": "edef7049",
					"updateCareGiver(uint256,string,string,string)": "2ee8e639"
				}
			},
			"storageLayout": {
				"storage": [
					{
						"astId": 147,
						"contract": "test.sol:test",
						"label": "patientAccess",
						"offset": 0,
						"slot": "0",
						"type": "t_mapping(t_uint256,t_struct(patientEnroll)53_storage)"
					},
					{
						"astId": 152,
						"contract": "test.sol:test",
						"label": "doctorAccess",
						"offset": 0,
						"slot": "1",
						"type": "t_mapping(t_uint256,t_struct(doctorEnroll)42_storage)"
					},
					{
						"astId": 157,
						"contract": "test.sol:test",
						"label": "patientLocData",
						"offset": 0,
						"slot": "2",
						"type": "t_mapping(t_uint256,t_struct(patientGeo)64_storage)"
					},
					{
						"astId": 162,
						"contract": "test.sol:test",
						"label": "patienthealthData",
						"offset": 0,
						"slot": "3",
						"type": "t_mapping(t_uint256,t_struct(patienthealth)82_storage)"
					},
					{
						"astId": 168,
						"contract": "test.sol:test",
						"label": "patientrecordsData",
						"offset": 0,
						"slot": "4",
						"type": "t_mapping(t_uint256,t_mapping(t_uint256,t_uint256))"
					},
					{
						"astId": 175,
						"contract": "test.sol:test",
						"label": "careGiverData",
						"offset": 0,
						"slot": "5",
						"type": "t_mapping(t_uint256,t_mapping(t_uint256,t_struct(careGiver)73_storage))"
					},
					{
						"astId": 181,
						"contract": "test.sol:test",
						"label": "accessForDoctor",
						"offset": 0,
						"slot": "6",
						"type": "t_mapping(t_uint256,t_mapping(t_uint256,t_bool))"
					},
					{
						"astId": 618,
						"contract": "test.sol:test",
						"label": "index",
						"offset": 0,
						"slot": "7",
						"type": "t_array(t_uint256)dyn_storage"
					}
				],
				"types": {
					"t_array(t_uint256)dyn_storage": {
						"base": "t_uint256",
						"encoding": "dynamic_array",
						"label": "uint256[]",
						"numberOfBytes": "32"
					},
					"t_bool": {
						"encoding": "inplace",
						"label": "bool",
						"numberOfBytes": "1"
					},
					"t_enum(DoctorType)10": {
						"encoding": "inplace",
						"label": "enum test.DoctorType",
						"numberOfBytes": "1"
					},
					"t_enum(Sex)14": {
						"encoding": "inplace",
						"label": "enum test.Sex",
						"numberOfBytes": "1"
					},
					"t_mapping(t_uint256,t_bool)": {
						"encoding": "mapping",
						"key": "t_uint256",
						"label": "mapping(uint256 => bool)",
						"numberOfBytes": "32",
						"value": "t_bool"
					},
					"t_mapping(t_uint256,t_mapping(t_uint256,t_bool))": {
						"encoding": "mapping",
						"key": "t_uint256",
						"label": "mapping(uint256 => mapping(uint256 => bool))",
						"numberOfBytes": "32",
						"value": "t_mapping(t_uint256,t_bool)"
					},
					"t_mapping(t_uint256,t_mapping(t_uint256,t_struct(careGiver)73_storage))": {
						"encoding": "mapping",
						"key": "t_uint256",
						"label": "mapping(uint256 => mapping(uint256 => struct test.careGiver))",
						"numberOfBytes": "32",
						"value": "t_mapping(t_uint256,t_struct(careGiver)73_storage)"
					},
					"t_mapping(t_uint256,t_mapping(t_uint256,t_uint256))": {
						"encoding": "mapping",
						"key": "t_uint256",
						"label": "mapping(uint256 => mapping(uint256 => uint256))",
						"numberOfBytes": "32",
						"value": "t_mapping(t_uint256,t_uint256)"
					},
					"t_mapping(t_uint256,t_struct(careGiver)73_storage)": {
						"encoding": "mapping",
						"key": "t_uint256",
						"label": "mapping(uint256 => struct test.careGiver)",
						"numberOfBytes": "32",
						"value": "t_struct(careGiver)73_storage"
					},
					"t_mapping(t_uint256,t_struct(doctorEnroll)42_storage)": {
						"encoding": "mapping",
						"key": "t_uint256",
						"label": "mapping(uint256 => struct test.doctorEnroll)",
						"numberOfBytes": "32",
						"value": "t_struct(doctorEnroll)42_storage"
					},
					"t_mapping(t_uint256,t_struct(patientEnroll)53_storage)": {
						"encoding": "mapping",
						"key": "t_uint256",
						"label": "mapping(uint256 => struct test.patientEnroll)",
						"numberOfBytes": "32",
						"value": "t_struct(patientEnroll)53_storage"
					},
					"t_mapping(t_uint256,t_struct(patientGeo)64_storage)": {
						"encoding": "mapping",
						"key": "t_uint256",
						"label": "mapping(uint256 => struct test.patientGeo)",
						"numberOfBytes": "32",
						"value": "t_struct(patientGeo)64_storage"
					},
					"t_mapping(t_uint256,t_struct(patienthealth)82_storage)": {
						"encoding": "mapping",
						"key": "t_uint256",
						"label": "mapping(uint256 => struct test.patienthealth)",
						"numberOfBytes": "32",
						"value": "t_struct(patienthealth)82_storage"
					},
					"t_mapping(t_uint256,t_uint256)": {
						"encoding": "mapping",
						"key": "t_uint256",
						"label": "mapping(uint256 => uint256)",
						"numberOfBytes": "32",
						"value": "t_uint256"
					},
					"t_string_storage": {
						"encoding": "bytes",
						"label": "string",
						"numberOfBytes": "32"
					},
					"t_struct(careGiver)73_storage": {
						"encoding": "inplace",
						"label": "struct test.careGiver",
						"members": [
							{
								"astId": 66,
								"contract": "test.sol:test",
								"label": "careName",
								"offset": 0,
								"slot": "0",
								"type": "t_string_storage"
							},
							{
								"astId": 68,
								"contract": "test.sol:test",
								"label": "careMobile",
								"offset": 0,
								"slot": "1",
								"type": "t_string_storage"
							},
							{
								"astId": 70,
								"contract": "test.sol:test",
								"label": "careRelation",
								"offset": 0,
								"slot": "2",
								"type": "t_string_storage"
							},
							{
								"astId": 72,
								"contract": "test.sol:test",
								"label": "isExist",
								"offset": 0,
								"slot": "3",
								"type": "t_bool"
							}
						],
						"numberOfBytes": "128"
					},
					"t_struct(doctorEnroll)42_storage": {
						"encoding": "inplace",
						"label": "struct test.doctorEnroll",
						"members": [
							{
								"astId": 25,
								"contract": "test.sol:test",
								"label": "doctorName",
								"offset": 0,
								"slot": "0",
								"type": "t_string_storage"
							},
							{
								"astId": 27,
								"contract": "test.sol:test",
								"label": "doctorEmail",
								"offset": 0,
								"slot": "1",
								"type": "t_string_storage"
							},
							{
								"astId": 29,
								"contract": "test.sol:test",
								"label": "doctorMobile",
								"offset": 0,
								"slot": "2",
								"type": "t_string_storage"
							},
							{
								"astId": 31,
								"contract": "test.sol:test",
								"label": "doctorPass",
								"offset": 0,
								"slot": "3",
								"type": "t_string_storage"
							},
							{
								"astId": 33,
								"contract": "test.sol:test",
								"label": "doctorCred",
								"offset": 0,
								"slot": "4",
								"type": "t_string_storage"
							},
							{
								"astId": 36,
								"contract": "test.sol:test",
								"label": "docType",
								"offset": 0,
								"slot": "5",
								"type": "t_enum(DoctorType)10"
							},
							{
								"astId": 39,
								"contract": "test.sol:test",
								"label": "docSex",
								"offset": 1,
								"slot": "5",
								"type": "t_enum(Sex)14"
							},
							{
								"astId": 41,
								"contract": "test.sol:test",
								"label": "isExist",
								"offset": 2,
								"slot": "5",
								"type": "t_bool"
							}
						],
						"numberOfBytes": "192"
					},
					"t_struct(patientEnroll)53_storage": {
						"encoding": "inplace",
						"label": "struct test.patientEnroll",
						"members": [
							{
								"astId": 44,
								"contract": "test.sol:test",
								"label": "patientName",
								"offset": 0,
								"slot": "0",
								"type": "t_string_storage"
							},
							{
								"astId": 46,
								"contract": "test.sol:test",
								"label": "patientEmail",
								"offset": 0,
								"slot": "1",
								"type": "t_string_storage"
							},
							{
								"astId": 48,
								"contract": "test.sol:test",
								"label": "patientMobile",
								"offset": 0,
								"slot": "2",
								"type": "t_string_storage"
							},
							{
								"astId": 50,
								"contract": "test.sol:test",
								"label": "patientPass",
								"offset": 0,
								"slot": "3",
								"type": "t_string_storage"
							},
							{
								"astId": 52,
								"contract": "test.sol:test",
								"label": "isExist",
								"offset": 0,
								"slot": "4",
								"type": "t_bool"
							}
						],
						"numberOfBytes": "160"
					},
					"t_struct(patientGeo)64_storage": {
						"encoding": "inplace",
						"label": "struct test.patientGeo",
						"members": [
							{
								"astId": 55,
								"contract": "test.sol:test",
								"label": "city",
								"offset": 0,
								"slot": "0",
								"type": "t_string_storage"
							},
							{
								"astId": 57,
								"contract": "test.sol:test",
								"label": "state",
								"offset": 0,
								"slot": "1",
								"type": "t_string_storage"
							},
							{
								"astId": 59,
								"contract": "test.sol:test",
								"label": "country",
								"offset": 0,
								"slot": "2",
								"type": "t_string_storage"
							},
							{
								"astId": 61,
								"contract": "test.sol:test",
								"label": "landmark",
								"offset": 0,
								"slot": "3",
								"type": "t_string_storage"
							},
							{
								"astId": 63,
								"contract": "test.sol:test",
								"label": "pincode",
								"offset": 0,
								"slot": "4",
								"type": "t_uint256"
							}
						],
						"numberOfBytes": "160"
					},
					"t_struct(patienthealth)82_storage": {
						"encoding": "inplace",
						"label": "struct test.patienthealth",
						"members": [
							{
								"astId": 75,
								"contract": "test.sol:test",
								"label": "allergies",
								"offset": 0,
								"slot": "0",
								"type": "t_string_storage"
							},
							{
								"astId": 77,
								"contract": "test.sol:test",
								"label": "lifesaver",
								"offset": 0,
								"slot": "1",
								"type": "t_string_storage"
							},
							{
								"astId": 79,
								"contract": "test.sol:test",
								"label": "height",
								"offset": 0,
								"slot": "2",
								"type": "t_uint256"
							},
							{
								"astId": 81,
								"contract": "test.sol:test",
								"label": "weight",
								"offset": 0,
								"slot": "3",
								"type": "t_uint256"
							}
						],
						"numberOfBytes": "128"
					},
					"t_uint256": {
						"encoding": "inplace",
						"label": "uint256",
						"numberOfBytes": "32"
					}
				}
			},
			"userdoc": {
				"kind": "user",
				"methods": {},
				"version": 1
			}
		}
	}
}