{
	"test.sol": {
		"test": {
			"abi": [
				{
					"anonymous": false,
					"inputs": [
						{
							"indexed": false,
							"internalType": "string",
							"name": "comment",
							"type": "string"
						},
						{
							"indexed": false,
							"internalType": "uint256",
							"name": "patKey",
							"type": "uint256"
						},
						{
							"indexed": false,
							"internalType": "uint256",
							"name": "docKey",
							"type": "uint256"
						},
						{
							"indexed": false,
							"internalType": "uint256",
							"name": "registeredOn",
							"type": "uint256"
						}
					],
					"name": "RecordEvents",
					"type": "event"
				},
				{
					"anonymous": false,
					"inputs": [
						{
							"indexed": false,
							"internalType": "uint256",
							"name": "patientKey",
							"type": "uint256"
						},
						{
							"indexed": false,
							"internalType": "string",
							"name": "evenType",
							"type": "string"
						},
						{
							"indexed": false,
							"internalType": "uint256",
							"name": "registeredOn",
							"type": "uint256"
						}
					],
					"name": "patregistration",
					"type": "event"
				},
				{
					"inputs": [
						{
							"internalType": "uint256",
							"name": "_patKey",
							"type": "uint256"
						},
						{
							"internalType": "uint256",
							"name": "_docKey",
							"type": "uint256"
						},
						{
							"internalType": "enum test.access",
							"name": "ac",
							"type": "uint8"
						}
					],
					"name": "accessControl",
					"outputs": [],
					"stateMutability": "nonpayable",
					"type": "function"
				},
				{
					"inputs": [
						{
							"internalType": "uint256",
							"name": "",
							"type": "uint256"
						},
						{
							"internalType": "uint256",
							"name": "",
							"type": "uint256"
						}
					],
					"name": "accessForDoctor",
					"outputs": [
						{
							"internalType": "bool",
							"name": "",
							"type": "bool"
						}
					],
					"stateMutability": "view",
					"type": "function"
				},
				{
					"inputs": [
						{
							"internalType": "uint256",
							"name": "",
							"type": "uint256"
						},
						{
							"internalType": "uint256",
							"name": "",
							"type": "uint256"
						}
					],
					"name": "careGiverData",
					"outputs": [
						{
							"internalType": "string",
							"name": "careName",
							"type": "string"
						},
						{
							"internalType": "string",
							"name": "careMobile",
							"type": "string"
						},
						{
							"internalType": "string",
							"name": "careRelation",
							"type": "string"
						},
						{
							"internalType": "bool",
							"name": "isExist",
							"type": "bool"
						}
					],
					"stateMutability": "view",
					"type": "function"
				},
				{
					"inputs": [
						{
							"internalType": "uint256",
							"name": "",
							"type": "uint256"
						}
					],
					"name": "doctorAccess",
					"outputs": [
						{
							"internalType": "string",
							"name": "doctorName",
							"type": "string"
						},
						{
							"internalType": "string",
							"name": "doctorEmail",
							"type": "string"
						},
						{
							"internalType": "string",
							"name": "doctorMobile",
							"type": "string"
						},
						{
							"internalType": "string",
							"name": "doctorPass",
							"type": "string"
						},
						{
							"internalType": "string",
							"name": "doctorCred",
							"type": "string"
						},
						{
							"internalType": "enum test.DoctorType",
							"name": "docType",
							"type": "uint8"
						},
						{
							"internalType": "enum test.Sex",
							"name": "docSex",
							"type": "uint8"
						},
						{
							"internalType": "bool",
							"name": "isExist",
							"type": "bool"
						}
					],
					"stateMutability": "view",
					"type": "function"
				},
				{
					"inputs": [
						{
							"internalType": "uint256",
							"name": "",
							"type": "uint256"
						}
					],
					"name": "patientAccess",
					"outputs": [
						{
							"internalType": "string",
							"name": "patientName",
							"type": "string"
						},
						{
							"internalType": "string",
							"name": "patientEmail",
							"type": "string"
						},
						{
							"internalType": "string",
							"name": "patientMobile",
							"type": "string"
						},
						{
							"internalType": "string",
							"name": "patientPass",
							"type": "string"
						},
						{
							"internalType": "bool",
							"name": "isExist",
							"type": "bool"
						}
					],
					"stateMutability": "view",
					"type": "function"
				},
				{
					"inputs": [
						{
							"internalType": "uint256",
							"name": "",
							"type": "uint256"
						}
					],
					"name": "patientLocData",
					"outputs": [
						{
							"internalType": "string",
							"name": "city",
							"type": "string"
						},
						{
							"internalType": "string",
							"name": "state",
							"type": "string"
						},
						{
							"internalType": "string",
							"name": "country",
							"type": "string"
						},
						{
							"internalType": "string",
							"name": "landmark",
							"type": "string"
						},
						{
							"internalType": "uint256",
							"name": "pincode",
							"type": "uint256"
						}
					],
					"stateMutability": "view",
					"type": "function"
				},
				{
					"inputs": [
						{
							"internalType": "uint256",
							"name": "",
							"type": "uint256"
						}
					],
					"name": "patienthealthData",
					"outputs": [
						{
							"internalType": "string",
							"name": "allergies",
							"type": "string"
						},
						{
							"internalType": "string",
							"name": "lifesaver",
							"type": "string"
						},
						{
							"internalType": "uint256",
							"name": "height",
							"type": "uint256"
						},
						{
							"internalType": "uint256",
							"name": "weight",
							"type": "uint256"
						}
					],
					"stateMutability": "view",
					"type": "function"
				},
				{
					"inputs": [
						{
							"internalType": "uint256",
							"name": "",
							"type": "uint256"
						},
						{
							"internalType": "uint256",
							"name": "",
							"type": "uint256"
						}
					],
					"name": "patientrecordsData",
					"outputs": [
						{
							"internalType": "uint256",
							"name": "",
							"type": "uint256"
						}
					],
					"stateMutability": "view",
					"type": "function"
				},
				{
					"inputs": [
						{
							"internalType": "uint256",
							"name": "patKey",
							"type": "uint256"
						},
						{
							"internalType": "uint256",
							"name": "docKey",
							"type": "uint256"
						},
						{
							"internalType": "uint256",
							"name": "rt",
							"type": "uint256"
						},
						{
							"internalType": "uint256",
							"name": "recordHash",
							"type": "uint256"
						}
					],
					"name": "recordByDoctor",
					"outputs": [],
					"stateMutability": "nonpayable",
					"type": "function"
				},
				{
					"inputs": [
						{
							"internalType": "uint256",
							"name": "patKey",
							"type": "uint256"
						},
						{
							"internalType": "uint256",
							"name": "rt",
							"type": "uint256"
						},
						{
							"internalType": "uint256",
							"name": "recordHash",
							"type": "uint256"
						}
					],
					"name": "recordByPatient",
					"outputs": [],
					"stateMutability": "nonpayable",
					"type": "function"
				},
				{
					"inputs": [
						{
							"internalType": "uint256",
							"name": "patKey",
							"type": "uint256"
						},
						{
							"internalType": "uint256",
							"name": "position",
							"type": "uint256"
						},
						{
							"internalType": "string",
							"name": "careName",
							"type": "string"
						},
						{
							"internalType": "string",
							"name": "careMobile",
							"type": "string"
						},
						{
							"internalType": "string",
							"name": "careRelation",
							"type": "string"
						}
					],
					"name": "registerCareGiver",
					"outputs": [],
					"stateMutability": "nonpayable",
					"type": "function"
				},
				{
					"inputs": [
						{
							"internalType": "string",
							"name": "doctorName",
							"type": "string"
						},
						{
							"internalType": "string",
							"name": "doctorEmail",
							"type": "string"
						},
						{
							"internalType": "string",
							"name": "doctorMobile",
							"type": "string"
						},
						{
							"internalType": "string",
							"name": "doctorPass",
							"type": "string"
						},
						{
							"internalType": "string",
							"name": "doctorCred",
							"type": "string"
						},
						{
							"internalType": "enum test.DoctorType",
							"name": "_doctorType",
							"type": "uint8"
						},
						{
							"internalType": "enum test.Sex",
							"name": "_gender",
							"type": "uint8"
						},
						{
							"internalType": "enum test.stateChange",
							"name": "reup",
							"type": "uint8"
						}
					],
					"name": "registerDoctor",
					"outputs": [],
					"stateMutability": "nonpayable",
					"type": "function"
				},
				{
					"inputs": [
						{
							"internalType": "string",
							"name": "allergies",
							"type": "string"
						},
						{
							"internalType": "string",
							"name": "lifesaver",
							"type": "string"
						},
						{
							"internalType": "uint256",
							"name": "height",
							"type": "uint256"
						},
						{
							"internalType": "uint256",
							"name": "weight",
							"type": "uint256"
						},
						{
							"internalType": "uint256",
							"name": "patKey",
							"type": "uint256"
						}
					],
					"name": "registerPatientHealth",
					"outputs": [],
					"stateMutability": "nonpayable",
					"type": "function"
				},
				{
					"inputs": [
						{
							"internalType": "string",
							"name": "city",
							"type": "string"
						},
						{
							"internalType": "string",
							"name": "state",
							"type": "string"
						},
						{
							"internalType": "string",
							"name": "country",
							"type": "string"
						},
						{
							"internalType": "string",
							"name": "landmark",
							"type": "string"
						},
						{
							"internalType": "uint256",
							"name": "pincode",
							"type": "uint256"
						},
						{
							"internalType": "uint256",
							"name": "patKey",
							"type": "uint256"
						}
					],
					"name": "registerPatientLoc",
					"outputs": [],
					"stateMutability": "nonpayable",
					"type": "function"
				},
				{
					"inputs": [
						{
							"internalType": "string",
							"name": "patientName",
							"type": "string"
						},
						{
							"internalType": "string",
							"name": "patientEmail",
							"type": "string"
						},
						{
							"internalType": "string",
							"name": "patientMobile",
							"type": "string"
						},
						{
							"internalType": "string",
							"name": "patientPass",
							"type": "string"
						},
						{
							"internalType": "enum test.stateChange",
							"name": "reup",
							"type": "uint8"
						}
					],
					"name": "registerPatients",
					"outputs": [],
					"stateMutability": "nonpayable",
					"type": "function"
				},
				{
					"inputs": [
						{
							"internalType": "uint256",
							"name": "patKey",
							"type": "uint256"
						},
						{
							"internalType": "uint256",
							"name": "position",
							"type": "uint256"
						},
						{
							"internalType": "string",
							"name": "careName",
							"type": "string"
						},
						{
							"internalType": "string",
							"name": "careMobile",
							"type": "string"
						},
						{
							"internalType": "string",
							"name": "careRelation",
							"type": "string"
						}
					],
					"name": "updateCareGiver",
					"outputs": [],
					"stateMutability": "nonpayable",
					"type": "function"
				}
			],
			"devdoc": {
				"kind": "dev",
				"methods": {},
				"version": 1
			},
			"evm": {
				"assembly": "    /* \"test.sol\":114:9620  contract test{... */\n  mstore(0x40, 0x80)\n  callvalue\n  dup1\n  iszero\n  tag_1\n  jumpi\n  0x00\n  dup1\n  revert\ntag_1:\n  pop\n  dataSize(sub_0)\n  dup1\n  dataOffset(sub_0)\n  0x00\n  codecopy\n  0x00\n  return\nstop\n\nsub_0: assembly {\n        /* \"test.sol\":114:9620  contract test{... */\n      mstore(0x40, 0x80)\n      callvalue\n      dup1\n      iszero\n      tag_1\n      jumpi\n      0x00\n      dup1\n      revert\n    tag_1:\n      pop\n      jumpi(tag_2, lt(calldatasize, 0x04))\n      shr(0xe0, calldataload(0x00))\n      dup1\n      0xcbd46fa3\n      gt\n      tag_19\n      jumpi\n      dup1\n      0xedef7049\n      gt\n      tag_20\n      jumpi\n      dup1\n      0xedef7049\n      eq\n      tag_15\n      jumpi\n      dup1\n      0xf60b48cb\n      eq\n      tag_16\n      jumpi\n      dup1\n      0xf6c6e3d0\n      eq\n      tag_17\n      jumpi\n      dup1\n      0xf75be4eb\n      eq\n      tag_18\n      jumpi\n      0x00\n      dup1\n      revert\n    tag_20:\n      dup1\n      0xcbd46fa3\n      eq\n      tag_11\n      jumpi\n      dup1\n      0xd7349705\n      eq\n      tag_12\n      jumpi\n      dup1\n      0xdb3e3976\n      eq\n      tag_13\n      jumpi\n      dup1\n      0xe078a1c6\n      eq\n      tag_14\n      jumpi\n      0x00\n      dup1\n      revert\n    tag_19:\n      dup1\n      0x764b6b38\n      gt\n      tag_21\n      jumpi\n      dup1\n      0x764b6b38\n      eq\n      tag_7\n      jumpi\n      dup1\n      0x8f58f628\n      eq\n      tag_8\n      jumpi\n      dup1\n      0xa269b418\n      eq\n      tag_9\n      jumpi\n      dup1\n      0xc977baf3\n      eq\n      tag_10\n      jumpi\n      0x00\n      dup1\n      revert\n    tag_21:\n      dup1\n      0x021bf487\n      eq\n      tag_3\n      jumpi\n      dup1\n      0x0a77f6b0\n      eq\n      tag_4\n      jumpi\n      dup1\n      0x2990bc6f\n      eq\n      tag_5\n      jumpi\n      dup1\n      0x4fcd407a\n      eq\n      tag_6\n      jumpi\n    tag_2:\n      0x00\n      dup1\n      revert\n        /* \"test.sol\":7935:8124  function recordByPatient(... */\n    tag_3:\n      tag_22\n      tag_23\n      calldatasize\n      0x04\n      tag_24\n      jump\t// in\n    tag_23:\n      tag_25\n      jump\t// in\n    tag_22:\n      stop\n        /* \"test.sol\":1907:1956  mapping(uint => doctorEnroll) public doctorAccess */\n    tag_4:\n      tag_26\n      tag_27\n      calldatasize\n      0x04\n      tag_28\n      jump\t// in\n    tag_27:\n      tag_29\n      jump\t// in\n    tag_26:\n      mload(0x40)\n      tag_30\n      swap9\n      swap8\n      swap7\n      swap6\n      swap5\n      swap4\n      swap3\n      swap2\n      swap1\n      tag_31\n      jump\t// in\n    tag_30:\n      mload(0x40)\n      dup1\n      swap2\n      sub\n      swap1\n      return\n        /* \"test.sol\":1854:1905  mapping(uint => patientEnroll) public patientAccess */\n    tag_5:\n      tag_32\n      tag_33\n      calldatasize\n      0x04\n      tag_28\n      jump\t// in\n    tag_33:\n      tag_34\n      jump\t// in\n    tag_32:\n      mload(0x40)\n      tag_30\n      swap6\n      swap5\n      swap4\n      swap3\n      swap2\n      swap1\n      tag_36\n      jump\t// in\n        /* \"test.sol\":2198:2259  mapping(uint => mapping(uint => bool)) public accessForDoctor */\n    tag_6:\n      tag_37\n      tag_38\n      calldatasize\n      0x04\n      tag_39\n      jump\t// in\n    tag_38:\n      0x06\n      0x20\n      swap1\n      dup2\n      mstore\n      0x00\n      swap3\n      dup4\n      mstore\n      0x40\n      dup1\n      dup5\n      keccak256\n      swap1\n      swap2\n      mstore\n      swap1\n      dup3\n      mstore\n      swap1\n      keccak256\n      sload\n      0xff\n      and\n      dup2\n      jump\n    tag_37:\n      mload(0x40)\n        /* \"#utility.yul\":10305:10319   */\n      swap1\n      iszero\n        /* \"#utility.yul\":10298:10320   */\n      iszero\n        /* \"#utility.yul\":10280:10321   */\n      dup2\n      mstore\n        /* \"#utility.yul\":10268:10270   */\n      0x20\n        /* \"#utility.yul\":10253:10271   */\n      add\n        /* \"test.sol\":2198:2259  mapping(uint => mapping(uint => bool)) public accessForDoctor */\n      tag_30\n        /* \"#utility.yul\":10235:10327   */\n      jump\n        /* \"test.sol\":8130:8433  function recordByDoctor(... */\n    tag_7:\n      tag_22\n      tag_44\n      calldatasize\n      0x04\n      tag_45\n      jump\t// in\n    tag_44:\n      tag_46\n      jump\t// in\n        /* \"test.sol\":6473:7102  function registerCareGiver(... */\n    tag_8:\n      tag_22\n      tag_48\n      calldatasize\n      0x04\n      tag_49\n      jump\t// in\n    tag_48:\n      tag_50\n      jump\t// in\n        /* \"test.sol\":8539:9402  function accessControl(... */\n    tag_9:\n      tag_22\n      tag_52\n      calldatasize\n      0x04\n      tag_53\n      jump\t// in\n    tag_52:\n      tag_54\n      jump\t// in\n        /* \"test.sol\":2009:2064  mapping(uint => patienthealth) public patienthealthData */\n    tag_10:\n      tag_55\n      tag_56\n      calldatasize\n      0x04\n      tag_28\n      jump\t// in\n    tag_56:\n      tag_57\n      jump\t// in\n    tag_55:\n      mload(0x40)\n      tag_30\n      swap5\n      swap4\n      swap3\n      swap2\n      swap1\n      tag_59\n      jump\t// in\n        /* \"test.sol\":2132:2196  mapping(uint => mapping(uint => careGiver)) public careGiverData */\n    tag_11:\n      tag_60\n      tag_61\n      calldatasize\n      0x04\n      tag_39\n      jump\t// in\n    tag_61:\n      tag_62\n      jump\t// in\n    tag_60:\n      mload(0x40)\n      tag_30\n      swap5\n      swap4\n      swap3\n      swap2\n      swap1\n      tag_64\n      jump\t// in\n        /* \"test.sol\":6037:6449  function registerPatientHealth(... */\n    tag_12:\n      tag_22\n      tag_66\n      calldatasize\n      0x04\n      tag_67\n      jump\t// in\n    tag_66:\n      tag_68\n      jump\t// in\n        /* \"test.sol\":3920:5552  function registerDoctor(... */\n    tag_13:\n      tag_22\n      tag_70\n      calldatasize\n      0x04\n      tag_71\n      jump\t// in\n    tag_70:\n      tag_72\n      jump\t// in\n        /* \"test.sol\":5593:6031  function registerPatientLoc(... */\n    tag_14:\n      tag_22\n      tag_74\n      calldatasize\n      0x04\n      tag_75\n      jump\t// in\n    tag_74:\n      tag_76\n      jump\t// in\n        /* \"test.sol\":2295:3891  function registerPatients(... */\n    tag_15:\n      tag_22\n      tag_78\n      calldatasize\n      0x04\n      tag_79\n      jump\t// in\n    tag_78:\n      tag_80\n      jump\t// in\n        /* \"test.sol\":2066:2130  mapping(uint => mapping(uint => uint)) public patientrecordsData */\n    tag_16:\n      tag_81\n      tag_82\n      calldatasize\n      0x04\n      tag_39\n      jump\t// in\n    tag_82:\n      0x04\n      0x20\n      swap1\n      dup2\n      mstore\n      0x00\n      swap3\n      dup4\n      mstore\n      0x40\n      dup1\n      dup5\n      keccak256\n      swap1\n      swap2\n      mstore\n      swap1\n      dup3\n      mstore\n      swap1\n      keccak256\n      sload\n      dup2\n      jump\n    tag_81:\n      mload(0x40)\n        /* \"#utility.yul\":18768:18793   */\n      swap1\n      dup2\n      mstore\n        /* \"#utility.yul\":18756:18758   */\n      0x20\n        /* \"#utility.yul\":18741:18759   */\n      add\n        /* \"test.sol\":2066:2130  mapping(uint => mapping(uint => uint)) public patientrecordsData */\n      tag_30\n        /* \"#utility.yul\":18723:18799   */\n      jump\n        /* \"test.sol\":7108:7929  function updateCareGiver(... */\n    tag_17:\n      tag_22\n      tag_87\n      calldatasize\n      0x04\n      tag_49\n      jump\t// in\n    tag_87:\n      tag_88\n      jump\t// in\n        /* \"test.sol\":1958:2007  mapping(uint => patientGeo) public patientLocData */\n    tag_18:\n      tag_89\n      tag_90\n      calldatasize\n      0x04\n      tag_28\n      jump\t// in\n    tag_90:\n      tag_91\n      jump\t// in\n    tag_89:\n      mload(0x40)\n      tag_30\n      swap6\n      swap5\n      swap4\n      swap3\n      swap2\n      swap1\n      tag_93\n      jump\t// in\n        /* \"test.sol\":7935:8124  function recordByPatient(... */\n    tag_25:\n        /* \"test.sol\":1600:1613  patientAccess */\n      0x00\n        /* \"test.sol\":1600:1622  patientAccess[_patKey] */\n      dup4\n      dup2\n      mstore\n      0x20\n      dup2\n      swap1\n      mstore\n      0x40\n      swap1\n      keccak256\n        /* \"test.sol\":1600:1630  patientAccess[_patKey].isExist */\n      0x04\n      add\n      sload\n        /* \"test.sol\":8053:8059  patKey */\n      dup4\n      swap1\n        /* \"test.sol\":1600:1630  patientAccess[_patKey].isExist */\n      0xff\n      and\n        /* \"test.sol\":1600:1638  patientAccess[_patKey].isExist == true */\n      iszero\n      iszero\n        /* \"test.sol\":1600:1630  patientAccess[_patKey].isExist */\n      0x01\n        /* \"test.sol\":1600:1638  patientAccess[_patKey].isExist == true */\n      eq\n        /* \"test.sol\":1592:1682  require(patientAccess[_patKey].isExist == true, ... */\n      tag_95\n      jumpi\n      mload(0x40)\n      shl(0xe5, 0x461bcd)\n      dup2\n      mstore\n      0x04\n      add\n      tag_96\n      swap1\n      tag_97\n      jump\t// in\n    tag_96:\n      mload(0x40)\n      dup1\n      swap2\n      sub\n      swap1\n      revert\n    tag_95:\n      pop\n        /* \"test.sol\":8074:8100  patientrecordsData[patKey] */\n      0x00\n      swap3\n      dup4\n      mstore\n        /* \"test.sol\":8074:8092  patientrecordsData */\n      0x04\n        /* \"test.sol\":8074:8100  patientrecordsData[patKey] */\n      0x20\n      swap1\n      dup2\n      mstore\n      0x40\n      dup1\n      dup6\n      keccak256\n        /* \"test.sol\":8074:8104  patientrecordsData[patKey][rt] */\n      swap4\n      dup6\n      mstore\n      swap3\n      swap1\n      mstore\n      swap2\n      keccak256\n        /* \"test.sol\":8074:8117  patientrecordsData[patKey][rt] = recordHash */\n      sstore\n        /* \"test.sol\":7935:8124  function recordByPatient(... */\n      jump\t// out\n        /* \"test.sol\":1907:1956  mapping(uint => doctorEnroll) public doctorAccess */\n    tag_29:\n      mstore(0x20, 0x01)\n      0x00\n      swap1\n      dup2\n      mstore\n      0x40\n      swap1\n      keccak256\n      dup1\n      sload\n      dup2\n      swap1\n      tag_99\n      swap1\n      tag_100\n      jump\t// in\n    tag_99:\n      dup1\n      0x1f\n      add\n      0x20\n      dup1\n      swap2\n      div\n      mul\n      0x20\n      add\n      mload(0x40)\n      swap1\n      dup2\n      add\n      0x40\n      mstore\n      dup1\n      swap3\n      swap2\n      swap1\n      dup2\n      dup2\n      mstore\n      0x20\n      add\n      dup3\n      dup1\n      sload\n      tag_101\n      swap1\n      tag_100\n      jump\t// in\n    tag_101:\n      dup1\n      iszero\n      tag_102\n      jumpi\n      dup1\n      0x1f\n      lt\n      tag_103\n      jumpi\n      0x0100\n      dup1\n      dup4\n      sload\n      div\n      mul\n      dup4\n      mstore\n      swap2\n      0x20\n      add\n      swap2\n      jump(tag_102)\n    tag_103:\n      dup3\n      add\n      swap2\n      swap1\n      0x00\n      mstore\n      keccak256(0x00, 0x20)\n      swap1\n    tag_104:\n      dup2\n      sload\n      dup2\n      mstore\n      swap1\n      0x01\n      add\n      swap1\n      0x20\n      add\n      dup1\n      dup4\n      gt\n      tag_104\n      jumpi\n      dup3\n      swap1\n      sub\n      0x1f\n      and\n      dup3\n      add\n      swap2\n    tag_102:\n      pop\n      pop\n      pop\n      pop\n      pop\n      swap1\n      dup1\n      0x01\n      add\n      dup1\n      sload\n      tag_105\n      swap1\n      tag_100\n      jump\t// in\n    tag_105:\n      dup1\n      0x1f\n      add\n      0x20\n      dup1\n      swap2\n      div\n      mul\n      0x20\n      add\n      mload(0x40)\n      swap1\n      dup2\n      add\n      0x40\n      mstore\n      dup1\n      swap3\n      swap2\n      swap1\n      dup2\n      dup2\n      mstore\n      0x20\n      add\n      dup3\n      dup1\n      sload\n      tag_106\n      swap1\n      tag_100\n      jump\t// in\n    tag_106:\n      dup1\n      iszero\n      tag_107\n      jumpi\n      dup1\n      0x1f\n      lt\n      tag_108\n      jumpi\n      0x0100\n      dup1\n      dup4\n      sload\n      div\n      mul\n      dup4\n      mstore\n      swap2\n      0x20\n      add\n      swap2\n      jump(tag_107)\n    tag_108:\n      dup3\n      add\n      swap2\n      swap1\n      0x00\n      mstore\n      keccak256(0x00, 0x20)\n      swap1\n    tag_109:\n      dup2\n      sload\n      dup2\n      mstore\n      swap1\n      0x01\n      add\n      swap1\n      0x20\n      add\n      dup1\n      dup4\n      gt\n      tag_109\n      jumpi\n      dup3\n      swap1\n      sub\n      0x1f\n      and\n      dup3\n      add\n      swap2\n    tag_107:\n      pop\n      pop\n      pop\n      pop\n      pop\n      swap1\n      dup1\n      0x02\n      add\n      dup1\n      sload\n      tag_110\n      swap1\n      tag_100\n      jump\t// in\n    tag_110:\n      dup1\n      0x1f\n      add\n      0x20\n      dup1\n      swap2\n      div\n      mul\n      0x20\n      add\n      mload(0x40)\n      swap1\n      dup2\n      add\n      0x40\n      mstore\n      dup1\n      swap3\n      swap2\n      swap1\n      dup2\n      dup2\n      mstore\n      0x20\n      add\n      dup3\n      dup1\n      sload\n      tag_111\n      swap1\n      tag_100\n      jump\t// in\n    tag_111:\n      dup1\n      iszero\n      tag_112\n      jumpi\n      dup1\n      0x1f\n      lt\n      tag_113\n      jumpi\n      0x0100\n      dup1\n      dup4\n      sload\n      div\n      mul\n      dup4\n      mstore\n      swap2\n      0x20\n      add\n      swap2\n      jump(tag_112)\n    tag_113:\n      dup3\n      add\n      swap2\n      swap1\n      0x00\n      mstore\n      keccak256(0x00, 0x20)\n      swap1\n    tag_114:\n      dup2\n      sload\n      dup2\n      mstore\n      swap1\n      0x01\n      add\n      swap1\n      0x20\n      add\n      dup1\n      dup4\n      gt\n      tag_114\n      jumpi\n      dup3\n      swap1\n      sub\n      0x1f\n      and\n      dup3\n      add\n      swap2\n    tag_112:\n      pop\n      pop\n      pop\n      pop\n      pop\n      swap1\n      dup1\n      0x03\n      add\n      dup1\n      sload\n      tag_115\n      swap1\n      tag_100\n      jump\t// in\n    tag_115:\n      dup1\n      0x1f\n      add\n      0x20\n      dup1\n      swap2\n      div\n      mul\n      0x20\n      add\n      mload(0x40)\n      swap1\n      dup2\n      add\n      0x40\n      mstore\n      dup1\n      swap3\n      swap2\n      swap1\n      dup2\n      dup2\n      mstore\n      0x20\n      add\n      dup3\n      dup1\n      sload\n      tag_116\n      swap1\n      tag_100\n      jump\t// in\n    tag_116:\n      dup1\n      iszero\n      tag_117\n      jumpi\n      dup1\n      0x1f\n      lt\n      tag_118\n      jumpi\n      0x0100\n      dup1\n      dup4\n      sload\n      div\n      mul\n      dup4\n      mstore\n      swap2\n      0x20\n      add\n      swap2\n      jump(tag_117)\n    tag_118:\n      dup3\n      add\n      swap2\n      swap1\n      0x00\n      mstore\n      keccak256(0x00, 0x20)\n      swap1\n    tag_119:\n      dup2\n      sload\n      dup2\n      mstore\n      swap1\n      0x01\n      add\n      swap1\n      0x20\n      add\n      dup1\n      dup4\n      gt\n      tag_119\n      jumpi\n      dup3\n      swap1\n      sub\n      0x1f\n      and\n      dup3\n      add\n      swap2\n    tag_117:\n      pop\n      pop\n      pop\n      pop\n      pop\n      swap1\n      dup1\n      0x04\n      add\n      dup1\n      sload\n      tag_120\n      swap1\n      tag_100\n      jump\t// in\n    tag_120:\n      dup1\n      0x1f\n      add\n      0x20\n      dup1\n      swap2\n      div\n      mul\n      0x20\n      add\n      mload(0x40)\n      swap1\n      dup2\n      add\n      0x40\n      mstore\n      dup1\n      swap3\n      swap2\n      swap1\n      dup2\n      dup2\n      mstore\n      0x20\n      add\n      dup3\n      dup1\n      sload\n      tag_121\n      swap1\n      tag_100\n      jump\t// in\n    tag_121:\n      dup1\n      iszero\n      tag_122\n      jumpi\n      dup1\n      0x1f\n      lt\n      tag_123\n      jumpi\n      0x0100\n      dup1\n      dup4\n      sload\n      div\n      mul\n      dup4\n      mstore\n      swap2\n      0x20\n      add\n      swap2\n      jump(tag_122)\n    tag_123:\n      dup3\n      add\n      swap2\n      swap1\n      0x00\n      mstore\n      keccak256(0x00, 0x20)\n      swap1\n    tag_124:\n      dup2\n      sload\n      dup2\n      mstore\n      swap1\n      0x01\n      add\n      swap1\n      0x20\n      add\n      dup1\n      dup4\n      gt\n      tag_124\n      jumpi\n      dup3\n      swap1\n      sub\n      0x1f\n      and\n      dup3\n      add\n      swap2\n    tag_122:\n      pop\n      pop\n      pop\n      0x05\n      swap1\n      swap4\n      add\n      sload\n      swap2\n      swap3\n      pop\n      pop\n      0xff\n      dup1\n      dup3\n      and\n      swap2\n      0x0100\n      dup2\n      div\n      dup3\n      and\n      swap2\n      0x010000\n      swap1\n      swap2\n      div\n      and\n      dup9\n      jump\t// out\n        /* \"test.sol\":1854:1905  mapping(uint => patientEnroll) public patientAccess */\n    tag_34:\n      0x00\n      0x20\n      dup2\n      swap1\n      mstore\n      swap1\n      dup2\n      mstore\n      0x40\n      swap1\n      keccak256\n      dup1\n      sload\n      dup2\n      swap1\n      tag_125\n      swap1\n      tag_100\n      jump\t// in\n    tag_125:\n      dup1\n      0x1f\n      add\n      0x20\n      dup1\n      swap2\n      div\n      mul\n      0x20\n      add\n      mload(0x40)\n      swap1\n      dup2\n      add\n      0x40\n      mstore\n      dup1\n      swap3\n      swap2\n      swap1\n      dup2\n      dup2\n      mstore\n      0x20\n      add\n      dup3\n      dup1\n      sload\n      tag_126\n      swap1\n      tag_100\n      jump\t// in\n    tag_126:\n      dup1\n      iszero\n      tag_127\n      jumpi\n      dup1\n      0x1f\n      lt\n      tag_128\n      jumpi\n      0x0100\n      dup1\n      dup4\n      sload\n      div\n      mul\n      dup4\n      mstore\n      swap2\n      0x20\n      add\n      swap2\n      jump(tag_127)\n    tag_128:\n      dup3\n      add\n      swap2\n      swap1\n      0x00\n      mstore\n      keccak256(0x00, 0x20)\n      swap1\n    tag_129:\n      dup2\n      sload\n      dup2\n      mstore\n      swap1\n      0x01\n      add\n      swap1\n      0x20\n      add\n      dup1\n      dup4\n      gt\n      tag_129\n      jumpi\n      dup3\n      swap1\n      sub\n      0x1f\n      and\n      dup3\n      add\n      swap2\n    tag_127:\n      pop\n      pop\n      pop\n      pop\n      pop\n      swap1\n      dup1\n      0x01\n      add\n      dup1\n      sload\n      tag_130\n      swap1\n      tag_100\n      jump\t// in\n    tag_130:\n      dup1\n      0x1f\n      add\n      0x20\n      dup1\n      swap2\n      div\n      mul\n      0x20\n      add\n      mload(0x40)\n      swap1\n      dup2\n      add\n      0x40\n      mstore\n      dup1\n      swap3\n      swap2\n      swap1\n      dup2\n      dup2\n      mstore\n      0x20\n      add\n      dup3\n      dup1\n      sload\n      tag_131\n      swap1\n      tag_100\n      jump\t// in\n    tag_131:\n      dup1\n      iszero\n      tag_132\n      jumpi\n      dup1\n      0x1f\n      lt\n      tag_133\n      jumpi\n      0x0100\n      dup1\n      dup4\n      sload\n      div\n      mul\n      dup4\n      mstore\n      swap2\n      0x20\n      add\n      swap2\n      jump(tag_132)\n    tag_133:\n      dup3\n      add\n      swap2\n      swap1\n      0x00\n      mstore\n      keccak256(0x00, 0x20)\n      swap1\n    tag_134:\n      dup2\n      sload\n      dup2\n      mstore\n      swap1\n      0x01\n      add\n      swap1\n      0x20\n      add\n      dup1\n      dup4\n      gt\n      tag_134\n      jumpi\n      dup3\n      swap1\n      sub\n      0x1f\n      and\n      dup3\n      add\n      swap2\n    tag_132:\n      pop\n      pop\n      pop\n      pop\n      pop\n      swap1\n      dup1\n      0x02\n      add\n      dup1\n      sload\n      tag_135\n      swap1\n      tag_100\n      jump\t// in\n    tag_135:\n      dup1\n      0x1f\n      add\n      0x20\n      dup1\n      swap2\n      div\n      mul\n      0x20\n      add\n      mload(0x40)\n      swap1\n      dup2\n      add\n      0x40\n      mstore\n      dup1\n      swap3\n      swap2\n      swap1\n      dup2\n      dup2\n      mstore\n      0x20\n      add\n      dup3\n      dup1\n      sload\n      tag_136\n      swap1\n      tag_100\n      jump\t// in\n    tag_136:\n      dup1\n      iszero\n      tag_137\n      jumpi\n      dup1\n      0x1f\n      lt\n      tag_138\n      jumpi\n      0x0100\n      dup1\n      dup4\n      sload\n      div\n      mul\n      dup4\n      mstore\n      swap2\n      0x20\n      add\n      swap2\n      jump(tag_137)\n    tag_138:\n      dup3\n      add\n      swap2\n      swap1\n      0x00\n      mstore\n      keccak256(0x00, 0x20)\n      swap1\n    tag_139:\n      dup2\n      sload\n      dup2\n      mstore\n      swap1\n      0x01\n      add\n      swap1\n      0x20\n      add\n      dup1\n      dup4\n      gt\n      tag_139\n      jumpi\n      dup3\n      swap1\n      sub\n      0x1f\n      and\n      dup3\n      add\n      swap2\n    tag_137:\n      pop\n      pop\n      pop\n      pop\n      pop\n      swap1\n      dup1\n      0x03\n      add\n      dup1\n      sload\n      tag_140\n      swap1\n      tag_100\n      jump\t// in\n    tag_140:\n      dup1\n      0x1f\n      add\n      0x20\n      dup1\n      swap2\n      div\n      mul\n      0x20\n      add\n      mload(0x40)\n      swap1\n      dup2\n      add\n      0x40\n      mstore\n      dup1\n      swap3\n      swap2\n      swap1\n      dup2\n      dup2\n      mstore\n      0x20\n      add\n      dup3\n      dup1\n      sload\n      tag_141\n      swap1\n      tag_100\n      jump\t// in\n    tag_141:\n      dup1\n      iszero\n      tag_142\n      jumpi\n      dup1\n      0x1f\n      lt\n      tag_143\n      jumpi\n      0x0100\n      dup1\n      dup4\n      sload\n      div\n      mul\n      dup4\n      mstore\n      swap2\n      0x20\n      add\n      swap2\n      jump(tag_142)\n    tag_143:\n      dup3\n      add\n      swap2\n      swap1\n      0x00\n      mstore\n      keccak256(0x00, 0x20)\n      swap1\n    tag_144:\n      dup2\n      sload\n      dup2\n      mstore\n      swap1\n      0x01\n      add\n      swap1\n      0x20\n      add\n      dup1\n      dup4\n      gt\n      tag_144\n      jumpi\n      dup3\n      swap1\n      sub\n      0x1f\n      and\n      dup3\n      add\n      swap2\n    tag_142:\n      pop\n      pop\n      pop\n      0x04\n      swap1\n      swap4\n      add\n      sload\n      swap2\n      swap3\n      pop\n      pop\n      0xff\n      and\n      dup6\n      jump\t// out\n        /* \"test.sol\":8130:8433  function recordByDoctor(... */\n    tag_46:\n        /* \"test.sol\":1600:1613  patientAccess */\n      0x00\n        /* \"test.sol\":1600:1622  patientAccess[_patKey] */\n      dup5\n      dup2\n      mstore\n      0x20\n      dup2\n      swap1\n      mstore\n      0x40\n      swap1\n      keccak256\n        /* \"test.sol\":1600:1630  patientAccess[_patKey].isExist */\n      0x04\n      add\n      sload\n        /* \"test.sol\":8268:8274  patKey */\n      dup5\n      swap1\n        /* \"test.sol\":1600:1630  patientAccess[_patKey].isExist */\n      0xff\n      and\n        /* \"test.sol\":1600:1638  patientAccess[_patKey].isExist == true */\n      iszero\n      iszero\n        /* \"test.sol\":1600:1630  patientAccess[_patKey].isExist */\n      0x01\n        /* \"test.sol\":1600:1638  patientAccess[_patKey].isExist == true */\n      eq\n        /* \"test.sol\":1592:1682  require(patientAccess[_patKey].isExist == true, ... */\n      tag_146\n      jumpi\n      mload(0x40)\n      shl(0xe5, 0x461bcd)\n      dup2\n      mstore\n      0x04\n      add\n      tag_96\n      swap1\n      tag_97\n      jump\t// in\n    tag_146:\n        /* \"test.sol\":8297:8320  accessForDoctor[patKey] */\n      0x00\n      dup6\n      dup2\n      mstore\n        /* \"test.sol\":8297:8312  accessForDoctor */\n      0x06\n        /* \"test.sol\":8297:8320  accessForDoctor[patKey] */\n      0x20\n      swap1\n      dup2\n      mstore\n      0x40\n      dup1\n      dup4\n      keccak256\n        /* \"test.sol\":8297:8328  accessForDoctor[patKey][docKey] */\n      dup8\n      dup5\n      mstore\n      swap1\n      swap2\n      mstore\n      swap1\n      keccak256\n      sload\n      0xff\n      and\n        /* \"test.sol\":8297:8336  accessForDoctor[patKey][docKey] == true */\n      iszero\n      iszero\n        /* \"test.sol\":8297:8328  accessForDoctor[patKey][docKey] */\n      0x01\n        /* \"test.sol\":8297:8336  accessForDoctor[patKey][docKey] == true */\n      eq\n        /* \"test.sol\":8289:8369  require(accessForDoctor[patKey][docKey] == true,\"No access provided by patient\") */\n      tag_149\n      jumpi\n      mload(0x40)\n      shl(0xe5, 0x461bcd)\n      dup2\n      mstore\n        /* \"#utility.yul\":17298:17300   */\n      0x20\n        /* \"test.sol\":8289:8369  require(accessForDoctor[patKey][docKey] == true,\"No access provided by patient\") */\n      0x04\n      dup3\n      add\n        /* \"#utility.yul\":17280:17301   */\n      mstore\n        /* \"#utility.yul\":17337:17339   */\n      0x1d\n        /* \"#utility.yul\":17317:17335   */\n      0x24\n      dup3\n      add\n        /* \"#utility.yul\":17310:17340   */\n      mstore\n        /* \"#utility.yul\":17376:17407   */\n      0x4e6f206163636573732070726f76696465642062792070617469656e74000000\n        /* \"#utility.yul\":17356:17374   */\n      0x44\n      dup3\n      add\n        /* \"#utility.yul\":17349:17408   */\n      mstore\n        /* \"#utility.yul\":17425:17443   */\n      0x64\n      add\n        /* \"test.sol\":8289:8369  require(accessForDoctor[patKey][docKey] == true,\"No access provided by patient\") */\n      tag_96\n        /* \"#utility.yul\":17270:17449   */\n      jump\n        /* \"test.sol\":8289:8369  require(accessForDoctor[patKey][docKey] == true,\"No access provided by patient\") */\n    tag_149:\n      pop\n        /* \"test.sol\":8383:8409  patientrecordsData[patKey] */\n      0x00\n      swap4\n      dup5\n      mstore\n        /* \"test.sol\":8383:8401  patientrecordsData */\n      0x04\n        /* \"test.sol\":8383:8409  patientrecordsData[patKey] */\n      0x20\n      swap1\n      dup2\n      mstore\n      0x40\n      dup1\n      dup7\n      keccak256\n        /* \"test.sol\":8383:8413  patientrecordsData[patKey][rt] */\n      swap4\n      dup7\n      mstore\n      swap3\n      swap1\n      mstore\n      swap3\n      keccak256\n        /* \"test.sol\":8383:8426  patientrecordsData[patKey][rt] = recordHash */\n      swap2\n      swap1\n      swap2\n      sstore\n      pop\n        /* \"test.sol\":8130:8433  function recordByDoctor(... */\n      jump\t// out\n        /* \"test.sol\":6473:7102  function registerCareGiver(... */\n    tag_50:\n        /* \"test.sol\":1600:1613  patientAccess */\n      0x00\n        /* \"test.sol\":1600:1622  patientAccess[_patKey] */\n      dup6\n      dup2\n      mstore\n      0x20\n      dup2\n      swap1\n      mstore\n      0x40\n      swap1\n      keccak256\n        /* \"test.sol\":1600:1630  patientAccess[_patKey].isExist */\n      0x04\n      add\n      sload\n        /* \"test.sol\":6718:6724  patKey */\n      dup6\n      swap1\n        /* \"test.sol\":1600:1630  patientAccess[_patKey].isExist */\n      0xff\n      and\n        /* \"test.sol\":1600:1638  patientAccess[_patKey].isExist == true */\n      iszero\n      iszero\n        /* \"test.sol\":1600:1630  patientAccess[_patKey].isExist */\n      0x01\n        /* \"test.sol\":1600:1638  patientAccess[_patKey].isExist == true */\n      eq\n        /* \"test.sol\":1592:1682  require(patientAccess[_patKey].isExist == true, ... */\n      tag_153\n      jumpi\n      mload(0x40)\n      shl(0xe5, 0x461bcd)\n      dup2\n      mstore\n      0x04\n      add\n      tag_96\n      swap1\n      tag_97\n      jump\t// in\n    tag_153:\n        /* \"test.sol\":6782:6803  careGiverData[patKey] */\n      0x00\n      dup7\n      dup2\n      mstore\n        /* \"test.sol\":6782:6795  careGiverData */\n      0x05\n        /* \"test.sol\":6782:6803  careGiverData[patKey] */\n      0x20\n      swap1\n      dup2\n      mstore\n      0x40\n      dup1\n      dup4\n      keccak256\n        /* \"test.sol\":6782:6813  careGiverData[patKey][position] */\n      dup9\n      dup5\n      mstore\n      swap1\n      swap2\n      mstore\n      swap1\n      keccak256\n        /* \"test.sol\":6782:6821  careGiverData[patKey][position].isExist */\n      0x03\n      add\n      sload\n      0xff\n      and\n        /* \"test.sol\":6782:6830  careGiverData[patKey][position].isExist == false */\n      iszero\n        /* \"test.sol\":6774:6865  require(careGiverData[patKey][position].isExist == false, \"EHR-RCG-01: Already registered\") */\n      tag_156\n      jumpi\n      mload(0x40)\n      shl(0xe5, 0x461bcd)\n      dup2\n      mstore\n        /* \"#utility.yul\":17656:17658   */\n      0x20\n        /* \"test.sol\":6774:6865  require(careGiverData[patKey][position].isExist == false, \"EHR-RCG-01: Already registered\") */\n      0x04\n      dup3\n      add\n        /* \"#utility.yul\":17638:17659   */\n      mstore\n        /* \"#utility.yul\":17695:17697   */\n      0x1e\n        /* \"#utility.yul\":17675:17693   */\n      0x24\n      dup3\n      add\n        /* \"#utility.yul\":17668:17698   */\n      mstore\n        /* \"#utility.yul\":17734:17766   */\n      0x4548522d5243472d30313a20416c726561647920726567697374657265640000\n        /* \"#utility.yul\":17714:17732   */\n      0x44\n      dup3\n      add\n        /* \"#utility.yul\":17707:17767   */\n      mstore\n        /* \"#utility.yul\":17784:17802   */\n      0x64\n      add\n        /* \"test.sol\":6774:6865  require(careGiverData[patKey][position].isExist == false, \"EHR-RCG-01: Already registered\") */\n      tag_96\n        /* \"#utility.yul\":17628:17808   */\n      jump\n        /* \"test.sol\":6774:6865  require(careGiverData[patKey][position].isExist == false, \"EHR-RCG-01: Already registered\") */\n    tag_156:\n        /* \"test.sol\":6913:6961  careGiver(careName,careMobile,careRelation,true) */\n      0x40\n      dup1\n      mload\n      0x80\n      dup2\n      add\n      dup3\n      mstore\n      dup6\n      dup2\n      mstore\n      0x20\n      dup1\n      dup3\n      add\n      dup7\n      swap1\n      mstore\n      dup2\n      dup4\n      add\n      dup6\n      swap1\n      mstore\n        /* \"test.sol\":6956:6960  true */\n      0x01\n        /* \"test.sol\":6913:6961  careGiver(careName,careMobile,careRelation,true) */\n      0x60\n      dup4\n      add\n      mstore\n      0x00\n        /* \"test.sol\":6879:6900  careGiverData[patKey] */\n      dup10\n      dup2\n      mstore\n        /* \"test.sol\":6879:6892  careGiverData */\n      0x05\n        /* \"test.sol\":6879:6900  careGiverData[patKey] */\n      dup3\n      mstore\n      dup4\n      dup2\n      keccak256\n        /* \"test.sol\":6879:6910  careGiverData[patKey][position] */\n      dup10\n      dup3\n      mstore\n      dup3\n      mstore\n      swap3\n      swap1\n      swap3\n      keccak256\n        /* \"test.sol\":6879:6961  careGiverData[patKey][position] = careGiver(careName,careMobile,careRelation,true) */\n      dup2\n      mload\n      dup1\n      mload\n        /* \"test.sol\":6913:6961  careGiver(careName,careMobile,careRelation,true) */\n      swap3\n      swap4\n        /* \"test.sol\":6879:6910  careGiverData[patKey][position] */\n      swap2\n      swap3\n        /* \"test.sol\":6879:6961  careGiverData[patKey][position] = careGiver(careName,careMobile,careRelation,true) */\n      tag_159\n      swap3\n        /* \"test.sol\":6879:6910  careGiverData[patKey][position] */\n      dup5\n      swap3\n        /* \"test.sol\":6879:6961  careGiverData[patKey][position] = careGiver(careName,careMobile,careRelation,true) */\n      add\n      swap1\n      tag_160\n      jump\t// in\n    tag_159:\n      pop\n      0x20\n      dup3\n      dup2\n      add\n      mload\n      dup1\n      mload\n      tag_161\n      swap3\n      0x01\n      dup6\n      add\n      swap3\n      add\n      swap1\n      tag_160\n      jump\t// in\n    tag_161:\n      pop\n      0x40\n      dup3\n      add\n      mload\n      dup1\n      mload\n      tag_162\n      swap2\n      0x02\n      dup5\n      add\n      swap2\n      0x20\n      swap1\n      swap2\n      add\n      swap1\n      tag_160\n      jump\t// in\n    tag_162:\n      pop\n      0x60\n      swap2\n      dup3\n      add\n      mload\n      0x03\n      swap1\n      swap2\n      add\n      dup1\n      sload\n      not(0xff)\n      and\n      swap2\n      iszero\n      iszero\n      swap2\n      swap1\n      swap2\n      or\n      swap1\n      sstore\n        /* \"test.sol\":6989:7095  patregistration(... */\n      0x40\n      dup1\n      mload\n        /* \"#utility.yul\":19913:19938   */\n      dup9\n      dup2\n      mstore\n        /* \"#utility.yul\":19969:19971   */\n      0x20\n        /* \"#utility.yul\":19954:19972   */\n      dup2\n      add\n        /* \"#utility.yul\":19947:19977   */\n      dup4\n      swap1\n      mstore\n        /* \"#utility.yul\":20013:20015   */\n      0x19\n        /* \"#utility.yul\":19993:20011   */\n      swap3\n      dup2\n      add\n        /* \"#utility.yul\":19986:20016   */\n      swap3\n      swap1\n      swap3\n      mstore\n        /* \"#utility.yul\":20053:20080   */\n      0x4361726567697665722044617461207265676973746572656400000000000000\n        /* \"#utility.yul\":20047:20050   */\n      0x80\n        /* \"#utility.yul\":20032:20051   */\n      dup4\n      add\n        /* \"#utility.yul\":20025:20081   */\n      mstore\n        /* \"test.sol\":7079:7094  block.timestamp */\n      timestamp\n        /* \"#utility.yul\":20133:20151   */\n      swap1\n      dup3\n      add\n        /* \"#utility.yul\":20126:20160   */\n      mstore\n      0x00\n      dup1\n      mload\n      0x20\n      data_f1783972c13bbde284b8765b8e27686842dfd940022613858bd0f693b0907129\n      dup4\n      codecopy\n      dup2\n      mload\n      swap2\n      mstore\n        /* \"test.sol\":6989:7095  patregistration(... */\n      swap1\n        /* \"#utility.yul\":20113:20116   */\n      0xa0\n        /* \"#utility.yul\":20098:20117   */\n      add\n        /* \"test.sol\":6989:7095  patregistration(... */\n    tag_163:\n      mload(0x40)\n      dup1\n      swap2\n      sub\n      swap1\n      log1\n        /* \"test.sol\":6473:7102  function registerCareGiver(... */\n      pop\n      pop\n      pop\n      pop\n      pop\n      pop\n      jump\t// out\n        /* \"test.sol\":8539:9402  function accessControl(... */\n    tag_54:\n        /* \"test.sol\":1754:1775  doctorAccess[_docKey] */\n      0x00\n      dup3\n      dup2\n      mstore\n        /* \"test.sol\":1754:1766  doctorAccess */\n      0x01\n        /* \"test.sol\":1754:1775  doctorAccess[_docKey] */\n      0x20\n      dup2\n      swap1\n      mstore\n      0x40\n      swap1\n      swap2\n      keccak256\n        /* \"test.sol\":1754:1783  doctorAccess[_docKey].isExist */\n      0x05\n      add\n      sload\n        /* \"test.sol\":1754:1775  doctorAccess[_docKey] */\n      dup4\n      swap2\n        /* \"test.sol\":1754:1783  doctorAccess[_docKey].isExist */\n      0x010000\n      swap1\n      swap2\n      div\n      0xff\n      and\n        /* \"test.sol\":1754:1791  doctorAccess[_docKey].isExist == true */\n      iszero\n      iszero\n      eq\n        /* \"test.sol\":1746:1834  require(doctorAccess[_docKey].isExist == true, ... */\n      tag_166\n      jumpi\n      mload(0x40)\n      shl(0xe5, 0x461bcd)\n      dup2\n      mstore\n        /* \"#utility.yul\":15788:15790   */\n      0x20\n        /* \"test.sol\":1746:1834  require(doctorAccess[_docKey].isExist == true, ... */\n      0x04\n      dup3\n      add\n        /* \"#utility.yul\":15770:15791   */\n      mstore\n        /* \"#utility.yul\":15827:15829   */\n      0x15\n        /* \"#utility.yul\":15807:15825   */\n      0x24\n      dup3\n      add\n        /* \"#utility.yul\":15800:15830   */\n      mstore\n      shl(0x5a, 0x111bd8dd1bdc88139bdd081c9959da5cdd195c9959)\n        /* \"#utility.yul\":15846:15864   */\n      0x44\n      dup3\n      add\n        /* \"#utility.yul\":15839:15890   */\n      mstore\n        /* \"#utility.yul\":15907:15925   */\n      0x64\n      add\n        /* \"test.sol\":1746:1834  require(doctorAccess[_docKey].isExist == true, ... */\n      tag_96\n        /* \"#utility.yul\":15760:15931   */\n      jump\n        /* \"test.sol\":1746:1834  require(doctorAccess[_docKey].isExist == true, ... */\n    tag_166:\n        /* \"test.sol\":8672:8699  string memory accessComment */\n      0x60\n        /* \"test.sol\":8718:8730  access.GRANT */\n      0x00\n        /* \"test.sol\":8712:8714  ac */\n      dup4\n        /* \"test.sol\":8712:8730  ac == access.GRANT */\n      0x01\n      dup2\n      gt\n      iszero\n      tag_171\n      jumpi\n      mstore(0x00, shl(0xe0, 0x4e487b71))\n      mstore(0x04, 0x21)\n      revert(0x00, 0x24)\n    tag_171:\n      eq\n        /* \"test.sol\":8709:8981  if(ac == access.GRANT){... */\n      iszero\n      tag_172\n      jumpi\n        /* \"test.sol\":8753:8777  accessForDoctor[_patKey] */\n      0x00\n      dup6\n      dup2\n      mstore\n        /* \"test.sol\":8753:8768  accessForDoctor */\n      0x06\n        /* \"test.sol\":8753:8777  accessForDoctor[_patKey] */\n      0x20\n      swap1\n      dup2\n      mstore\n      0x40\n      dup1\n      dup4\n      keccak256\n        /* \"test.sol\":8753:8786  accessForDoctor[_patKey][_docKey] */\n      dup8\n      dup5\n      mstore\n      swap1\n      swap2\n      mstore\n      swap1\n      keccak256\n      sload\n      0xff\n      and\n        /* \"test.sol\":8753:8795  accessForDoctor[_patKey][_docKey] == false */\n      iszero\n        /* \"test.sol\":8745:8856  require(accessForDoctor[_patKey][_docKey] == false,... */\n      tag_173\n      jumpi\n      mload(0x40)\n      shl(0xe5, 0x461bcd)\n      dup2\n      mstore\n        /* \"#utility.yul\":15383:15385   */\n      0x20\n        /* \"test.sol\":8745:8856  require(accessForDoctor[_patKey][_docKey] == false,... */\n      0x04\n      dup3\n      add\n        /* \"#utility.yul\":15365:15386   */\n      mstore\n        /* \"#utility.yul\":15422:15424   */\n      0x24\n        /* \"#utility.yul\":15402:15420   */\n      dup1\n      dup3\n      add\n        /* \"#utility.yul\":15395:15425   */\n      mstore\n        /* \"#utility.yul\":15461:15495   */\n      0x4548522d41432d30313a2041636365737320686164206265656e2070726f7669\n        /* \"#utility.yul\":15441:15459   */\n      0x44\n      dup3\n      add\n        /* \"#utility.yul\":15434:15496   */\n      mstore\n      shl(0xe0, 0x64656421)\n        /* \"#utility.yul\":15512:15530   */\n      0x64\n      dup3\n      add\n        /* \"#utility.yul\":15505:15539   */\n      mstore\n        /* \"#utility.yul\":15556:15575   */\n      0x84\n      add\n        /* \"test.sol\":8745:8856  require(accessForDoctor[_patKey][_docKey] == false,... */\n      tag_96\n        /* \"#utility.yul\":15355:15581   */\n      jump\n        /* \"test.sol\":8745:8856  require(accessForDoctor[_patKey][_docKey] == false,... */\n    tag_173:\n      pop\n        /* \"test.sol\":8870:8894  accessForDoctor[_patKey] */\n      0x00\n      dup5\n      dup2\n      mstore\n        /* \"test.sol\":8870:8885  accessForDoctor */\n      0x06\n        /* \"test.sol\":8870:8894  accessForDoctor[_patKey] */\n      0x20\n      swap1\n      dup2\n      mstore\n      0x40\n      dup1\n      dup4\n      keccak256\n        /* \"test.sol\":8870:8903  accessForDoctor[_patKey][_docKey] */\n      dup7\n      dup5\n      mstore\n      dup3\n      mstore\n      swap2\n      dup3\n      swap1\n      keccak256\n        /* \"test.sol\":8870:8910  accessForDoctor[_patKey][_docKey] = true */\n      dup1\n      sload\n      not(0xff)\n      and\n        /* \"test.sol\":8906:8910  true */\n      0x01\n        /* \"test.sol\":8870:8910  accessForDoctor[_patKey][_docKey] = true */\n      or\n      swap1\n      sstore\n        /* \"test.sol\":8924:8970  accessComment = \"Access is provided to doctor\" */\n      dup2\n      mload\n      dup1\n      dup4\n      add\n      swap1\n      swap3\n      mstore\n      0x1c\n      dup3\n      mstore\n      0x4163636573732069732070726f766964656420746f20646f63746f7200000000\n      swap1\n      dup3\n      add\n      mstore\n        /* \"test.sol\":8709:8981  if(ac == access.GRANT){... */\n    tag_172:\n        /* \"test.sol\":8999:9012  access.REVOKE */\n      0x01\n        /* \"test.sol\":8993:8995  ac */\n      dup4\n        /* \"test.sol\":8993:9012  ac == access.REVOKE */\n      0x01\n      dup2\n      gt\n      iszero\n      tag_177\n      jumpi\n      mstore(0x00, shl(0xe0, 0x4e487b71))\n      mstore(0x04, 0x21)\n      revert(0x00, 0x24)\n    tag_177:\n      eq\n        /* \"test.sol\":8990:9261  if(ac == access.REVOKE){... */\n      iszero\n      tag_178\n      jumpi\n        /* \"test.sol\":9035:9059  accessForDoctor[_patKey] */\n      0x00\n      dup6\n      dup2\n      mstore\n        /* \"test.sol\":9035:9050  accessForDoctor */\n      0x06\n        /* \"test.sol\":9035:9059  accessForDoctor[_patKey] */\n      0x20\n      swap1\n      dup2\n      mstore\n      0x40\n      dup1\n      dup4\n      keccak256\n        /* \"test.sol\":9035:9068  accessForDoctor[_patKey][_docKey] */\n      dup8\n      dup5\n      mstore\n      swap1\n      swap2\n      mstore\n      swap1\n      keccak256\n      sload\n      0xff\n      and\n        /* \"test.sol\":9035:9076  accessForDoctor[_patKey][_docKey] == true */\n      iszero\n      iszero\n        /* \"test.sol\":9035:9068  accessForDoctor[_patKey][_docKey] */\n      0x01\n        /* \"test.sol\":9035:9076  accessForDoctor[_patKey][_docKey] == true */\n      eq\n        /* \"test.sol\":9027:9136  require(accessForDoctor[_patKey][_docKey] == true,... */\n      tag_179\n      jumpi\n      mload(0x40)\n      shl(0xe5, 0x461bcd)\n      dup2\n      mstore\n        /* \"#utility.yul\":16138:16140   */\n      0x20\n        /* \"test.sol\":9027:9136  require(accessForDoctor[_patKey][_docKey] == true,... */\n      0x04\n      dup3\n      add\n        /* \"#utility.yul\":16120:16141   */\n      mstore\n        /* \"#utility.yul\":16177:16179   */\n      0x23\n        /* \"#utility.yul\":16157:16175   */\n      0x24\n      dup3\n      add\n        /* \"#utility.yul\":16150:16180   */\n      mstore\n        /* \"#utility.yul\":16216:16250   */\n      0x4548522d41432d30323a2041636365737320776173206e6f742070726f766964\n        /* \"#utility.yul\":16196:16214   */\n      0x44\n      dup3\n      add\n        /* \"#utility.yul\":16189:16251   */\n      mstore\n      shl(0xe8, 0x656421)\n        /* \"#utility.yul\":16267:16285   */\n      0x64\n      dup3\n      add\n        /* \"#utility.yul\":16260:16293   */\n      mstore\n        /* \"#utility.yul\":16310:16329   */\n      0x84\n      add\n        /* \"test.sol\":9027:9136  require(accessForDoctor[_patKey][_docKey] == true,... */\n      tag_96\n        /* \"#utility.yul\":16110:16335   */\n      jump\n        /* \"test.sol\":9027:9136  require(accessForDoctor[_patKey][_docKey] == true,... */\n    tag_179:\n      pop\n        /* \"test.sol\":9186:9191  false */\n      0x00\n        /* \"test.sol\":9150:9174  accessForDoctor[_patKey] */\n      dup5\n      dup2\n      mstore\n        /* \"test.sol\":9150:9165  accessForDoctor */\n      0x06\n        /* \"test.sol\":9150:9174  accessForDoctor[_patKey] */\n      0x20\n      swap1\n      dup2\n      mstore\n      0x40\n      dup1\n      dup4\n      keccak256\n        /* \"test.sol\":9150:9183  accessForDoctor[_patKey][_docKey] */\n      dup7\n      dup5\n      mstore\n      dup3\n      mstore\n      swap2\n      dup3\n      swap1\n      keccak256\n        /* \"test.sol\":9150:9191  accessForDoctor[_patKey][_docKey] = false */\n      dup1\n      sload\n      not(0xff)\n      and\n      swap1\n      sstore\n        /* \"test.sol\":9205:9250  accessComment = \"Access is revoked to doctor\" */\n      dup2\n      mload\n      dup1\n      dup4\n      add\n      swap1\n      swap3\n      mstore\n      0x1b\n      dup3\n      mstore\n      0x416363657373206973207265766f6b656420746f20646f63746f720000000000\n      swap1\n      dup3\n      add\n      mstore\n        /* \"test.sol\":8990:9261  if(ac == access.REVOKE){... */\n    tag_178:\n        /* \"test.sol\":9275:9395  RecordEvents(... */\n      0xf4702a3b8b6c43f2fa41588e64688a0c0bc61f411971bd5ec9c64b828d4bccb0\n        /* \"test.sol\":9301:9314  accessComment */\n      dup2\n        /* \"test.sol\":9328:9335  _patKey */\n      dup7\n        /* \"test.sol\":9349:9356  _docKey */\n      dup7\n        /* \"test.sol\":9370:9385  block.timestamp */\n      timestamp\n        /* \"test.sol\":9275:9395  RecordEvents(... */\n      mload(0x40)\n      tag_182\n      swap5\n      swap4\n      swap3\n      swap2\n      swap1\n      tag_183\n      jump\t// in\n    tag_182:\n      mload(0x40)\n      dup1\n      swap2\n      sub\n      swap1\n      log1\n        /* \"test.sol\":1844:1845  _ */\n      pop\n        /* \"test.sol\":8539:9402  function accessControl(... */\n      pop\n      pop\n      pop\n      pop\n      jump\t// out\n        /* \"test.sol\":2009:2064  mapping(uint => patienthealth) public patienthealthData */\n    tag_57:\n      mstore(0x20, 0x03)\n      0x00\n      swap1\n      dup2\n      mstore\n      0x40\n      swap1\n      keccak256\n      dup1\n      sload\n      dup2\n      swap1\n      tag_184\n      swap1\n      tag_100\n      jump\t// in\n    tag_184:\n      dup1\n      0x1f\n      add\n      0x20\n      dup1\n      swap2\n      div\n      mul\n      0x20\n      add\n      mload(0x40)\n      swap1\n      dup2\n      add\n      0x40\n      mstore\n      dup1\n      swap3\n      swap2\n      swap1\n      dup2\n      dup2\n      mstore\n      0x20\n      add\n      dup3\n      dup1\n      sload\n      tag_185\n      swap1\n      tag_100\n      jump\t// in\n    tag_185:\n      dup1\n      iszero\n      tag_186\n      jumpi\n      dup1\n      0x1f\n      lt\n      tag_187\n      jumpi\n      0x0100\n      dup1\n      dup4\n      sload\n      div\n      mul\n      dup4\n      mstore\n      swap2\n      0x20\n      add\n      swap2\n      jump(tag_186)\n    tag_187:\n      dup3\n      add\n      swap2\n      swap1\n      0x00\n      mstore\n      keccak256(0x00, 0x20)\n      swap1\n    tag_188:\n      dup2\n      sload\n      dup2\n      mstore\n      swap1\n      0x01\n      add\n      swap1\n      0x20\n      add\n      dup1\n      dup4\n      gt\n      tag_188\n      jumpi\n      dup3\n      swap1\n      sub\n      0x1f\n      and\n      dup3\n      add\n      swap2\n    tag_186:\n      pop\n      pop\n      pop\n      pop\n      pop\n      swap1\n      dup1\n      0x01\n      add\n      dup1\n      sload\n      tag_189\n      swap1\n      tag_100\n      jump\t// in\n    tag_189:\n      dup1\n      0x1f\n      add\n      0x20\n      dup1\n      swap2\n      div\n      mul\n      0x20\n      add\n      mload(0x40)\n      swap1\n      dup2\n      add\n      0x40\n      mstore\n      dup1\n      swap3\n      swap2\n      swap1\n      dup2\n      dup2\n      mstore\n      0x20\n      add\n      dup3\n      dup1\n      sload\n      tag_190\n      swap1\n      tag_100\n      jump\t// in\n    tag_190:\n      dup1\n      iszero\n      tag_191\n      jumpi\n      dup1\n      0x1f\n      lt\n      tag_192\n      jumpi\n      0x0100\n      dup1\n      dup4\n      sload\n      div\n      mul\n      dup4\n      mstore\n      swap2\n      0x20\n      add\n      swap2\n      jump(tag_191)\n    tag_192:\n      dup3\n      add\n      swap2\n      swap1\n      0x00\n      mstore\n      keccak256(0x00, 0x20)\n      swap1\n    tag_193:\n      dup2\n      sload\n      dup2\n      mstore\n      swap1\n      0x01\n      add\n      swap1\n      0x20\n      add\n      dup1\n      dup4\n      gt\n      tag_193\n      jumpi\n      dup3\n      swap1\n      sub\n      0x1f\n      and\n      dup3\n      add\n      swap2\n    tag_191:\n      pop\n      pop\n      pop\n      pop\n      pop\n      swap1\n      dup1\n      0x02\n      add\n      sload\n      swap1\n      dup1\n      0x03\n      add\n      sload\n      swap1\n      pop\n      dup5\n      jump\t// out\n        /* \"test.sol\":2132:2196  mapping(uint => mapping(uint => careGiver)) public careGiverData */\n    tag_62:\n      0x05\n      0x20\n      swap1\n      dup2\n      mstore\n      0x00\n      swap3\n      dup4\n      mstore\n      0x40\n      dup1\n      dup5\n      keccak256\n      swap1\n      swap2\n      mstore\n      swap1\n      dup3\n      mstore\n      swap1\n      keccak256\n      dup1\n      sload\n      dup2\n      swap1\n      tag_194\n      swap1\n      tag_100\n      jump\t// in\n    tag_194:\n      dup1\n      0x1f\n      add\n      0x20\n      dup1\n      swap2\n      div\n      mul\n      0x20\n      add\n      mload(0x40)\n      swap1\n      dup2\n      add\n      0x40\n      mstore\n      dup1\n      swap3\n      swap2\n      swap1\n      dup2\n      dup2\n      mstore\n      0x20\n      add\n      dup3\n      dup1\n      sload\n      tag_195\n      swap1\n      tag_100\n      jump\t// in\n    tag_195:\n      dup1\n      iszero\n      tag_196\n      jumpi\n      dup1\n      0x1f\n      lt\n      tag_197\n      jumpi\n      0x0100\n      dup1\n      dup4\n      sload\n      div\n      mul\n      dup4\n      mstore\n      swap2\n      0x20\n      add\n      swap2\n      jump(tag_196)\n    tag_197:\n      dup3\n      add\n      swap2\n      swap1\n      0x00\n      mstore\n      keccak256(0x00, 0x20)\n      swap1\n    tag_198:\n      dup2\n      sload\n      dup2\n      mstore\n      swap1\n      0x01\n      add\n      swap1\n      0x20\n      add\n      dup1\n      dup4\n      gt\n      tag_198\n      jumpi\n      dup3\n      swap1\n      sub\n      0x1f\n      and\n      dup3\n      add\n      swap2\n    tag_196:\n      pop\n      pop\n      pop\n      pop\n      pop\n      swap1\n      dup1\n      0x01\n      add\n      dup1\n      sload\n      tag_199\n      swap1\n      tag_100\n      jump\t// in\n    tag_199:\n      dup1\n      0x1f\n      add\n      0x20\n      dup1\n      swap2\n      div\n      mul\n      0x20\n      add\n      mload(0x40)\n      swap1\n      dup2\n      add\n      0x40\n      mstore\n      dup1\n      swap3\n      swap2\n      swap1\n      dup2\n      dup2\n      mstore\n      0x20\n      add\n      dup3\n      dup1\n      sload\n      tag_200\n      swap1\n      tag_100\n      jump\t// in\n    tag_200:\n      dup1\n      iszero\n      tag_201\n      jumpi\n      dup1\n      0x1f\n      lt\n      tag_202\n      jumpi\n      0x0100\n      dup1\n      dup4\n      sload\n      div\n      mul\n      dup4\n      mstore\n      swap2\n      0x20\n      add\n      swap2\n      jump(tag_201)\n    tag_202:\n      dup3\n      add\n      swap2\n      swap1\n      0x00\n      mstore\n      keccak256(0x00, 0x20)\n      swap1\n    tag_203:\n      dup2\n      sload\n      dup2\n      mstore\n      swap1\n      0x01\n      add\n      swap1\n      0x20\n      add\n      dup1\n      dup4\n      gt\n      tag_203\n      jumpi\n      dup3\n      swap1\n      sub\n      0x1f\n      and\n      dup3\n      add\n      swap2\n    tag_201:\n      pop\n      pop\n      pop\n      pop\n      pop\n      swap1\n      dup1\n      0x02\n      add\n      dup1\n      sload\n      tag_204\n      swap1\n      tag_100\n      jump\t// in\n    tag_204:\n      dup1\n      0x1f\n      add\n      0x20\n      dup1\n      swap2\n      div\n      mul\n      0x20\n      add\n      mload(0x40)\n      swap1\n      dup2\n      add\n      0x40\n      mstore\n      dup1\n      swap3\n      swap2\n      swap1\n      dup2\n      dup2\n      mstore\n      0x20\n      add\n      dup3\n      dup1\n      sload\n      tag_205\n      swap1\n      tag_100\n      jump\t// in\n    tag_205:\n      dup1\n      iszero\n      tag_206\n      jumpi\n      dup1\n      0x1f\n      lt\n      tag_207\n      jumpi\n      0x0100\n      dup1\n      dup4\n      sload\n      div\n      mul\n      dup4\n      mstore\n      swap2\n      0x20\n      add\n      swap2\n      jump(tag_206)\n    tag_207:\n      dup3\n      add\n      swap2\n      swap1\n      0x00\n      mstore\n      keccak256(0x00, 0x20)\n      swap1\n    tag_208:\n      dup2\n      sload\n      dup2\n      mstore\n      swap1\n      0x01\n      add\n      swap1\n      0x20\n      add\n      dup1\n      dup4\n      gt\n      tag_208\n      jumpi\n      dup3\n      swap1\n      sub\n      0x1f\n      and\n      dup3\n      add\n      swap2\n    tag_206:\n      pop\n      pop\n      pop\n      0x03\n      swap1\n      swap4\n      add\n      sload\n      swap2\n      swap3\n      pop\n      pop\n      0xff\n      and\n      dup5\n      jump\t// out\n        /* \"test.sol\":6037:6449  function registerPatientHealth(... */\n    tag_68:\n        /* \"test.sol\":1600:1613  patientAccess */\n      0x00\n        /* \"test.sol\":1600:1622  patientAccess[_patKey] */\n      dup2\n      dup2\n      mstore\n      0x20\n      dup2\n      swap1\n      mstore\n      0x40\n      swap1\n      keccak256\n        /* \"test.sol\":1600:1630  patientAccess[_patKey].isExist */\n      0x04\n      add\n      sload\n        /* \"test.sol\":6223:6229  patKey */\n      dup2\n      swap1\n        /* \"test.sol\":1600:1630  patientAccess[_patKey].isExist */\n      0xff\n      and\n        /* \"test.sol\":1600:1638  patientAccess[_patKey].isExist == true */\n      iszero\n      iszero\n        /* \"test.sol\":1600:1630  patientAccess[_patKey].isExist */\n      0x01\n        /* \"test.sol\":1600:1638  patientAccess[_patKey].isExist == true */\n      eq\n        /* \"test.sol\":1592:1682  require(patientAccess[_patKey].isExist == true, ... */\n      tag_210\n      jumpi\n      mload(0x40)\n      shl(0xe5, 0x461bcd)\n      dup2\n      mstore\n      0x04\n      add\n      tag_96\n      swap1\n      tag_97\n      jump\t// in\n    tag_210:\n        /* \"test.sol\":6268:6316  patienthealth(allergies,lifesaver,height,weight) */\n      0x40\n      dup1\n      mload\n      0x80\n      dup2\n      add\n      dup3\n      mstore\n      dup8\n      dup2\n      mstore\n      0x20\n      dup1\n      dup3\n      add\n      dup9\n      swap1\n      mstore\n      dup2\n      dup4\n      add\n      dup8\n      swap1\n      mstore\n      0x60\n      dup3\n      add\n      dup7\n      swap1\n      mstore\n      0x00\n        /* \"test.sol\":6240:6265  patienthealthData[patKey] */\n      dup6\n      dup2\n      mstore\n        /* \"test.sol\":6240:6257  patienthealthData */\n      0x03\n        /* \"test.sol\":6240:6265  patienthealthData[patKey] */\n      dup3\n      mstore\n      swap3\n      swap1\n      swap3\n      keccak256\n        /* \"test.sol\":6240:6316  patienthealthData[patKey] = patienthealth(allergies,lifesaver,height,weight) */\n      dup2\n      mload\n      dup1\n      mload\n        /* \"test.sol\":6268:6316  patienthealth(allergies,lifesaver,height,weight) */\n      swap3\n      swap4\n        /* \"test.sol\":6240:6265  patienthealthData[patKey] */\n      swap2\n      swap3\n        /* \"test.sol\":6240:6316  patienthealthData[patKey] = patienthealth(allergies,lifesaver,height,weight) */\n      tag_213\n      swap3\n        /* \"test.sol\":6240:6265  patienthealthData[patKey] */\n      dup5\n      swap3\n        /* \"test.sol\":6240:6316  patienthealthData[patKey] = patienthealth(allergies,lifesaver,height,weight) */\n      add\n      swap1\n      tag_160\n      jump\t// in\n    tag_213:\n      pop\n      0x20\n      dup3\n      dup2\n      add\n      mload\n      dup1\n      mload\n      tag_214\n      swap3\n      0x01\n      dup6\n      add\n      swap3\n      add\n      swap1\n      tag_160\n      jump\t// in\n    tag_214:\n      pop\n      0x40\n      dup3\n      add\n      mload\n      dup2\n      0x02\n      add\n      sstore\n      0x60\n      dup3\n      add\n      mload\n      dup2\n      0x03\n      add\n      sstore\n      swap1\n      pop\n      pop\n      0x00\n      dup1\n      mload\n      0x20\n      data_f1783972c13bbde284b8765b8e27686842dfd940022613858bd0f693b0907129\n      dup4\n      codecopy\n      dup2\n      mload\n      swap2\n      mstore\n        /* \"test.sol\":6360:6366  patKey */\n      dup3\n        /* \"test.sol\":6423:6438  block.timestamp */\n      timestamp\n        /* \"test.sol\":6331:6439  patregistration(... */\n      mload(0x40)\n      tag_163\n      swap3\n      swap2\n      swap1\n        /* \"#utility.yul\":20411:20436   */\n      swap2\n      dup3\n      mstore\n        /* \"#utility.yul\":20472:20474   */\n      0x60\n        /* \"#utility.yul\":20467:20469   */\n      0x20\n        /* \"#utility.yul\":20452:20470   */\n      dup4\n      add\n        /* \"#utility.yul\":20445:20475   */\n      dup2\n      swap1\n      mstore\n        /* \"#utility.yul\":20511:20513   */\n      0x1b\n        /* \"#utility.yul\":20491:20509   */\n      swap1\n      dup4\n      add\n        /* \"#utility.yul\":20484:20514   */\n      mstore\n        /* \"#utility.yul\":20551:20580   */\n      0x50617469656e74204865616c7468204461746120757064617465640000000000\n        /* \"#utility.yul\":20545:20548   */\n      0x80\n        /* \"#utility.yul\":20530:20549   */\n      dup4\n      add\n        /* \"#utility.yul\":20523:20581   */\n      mstore\n        /* \"#utility.yul\":20648:20650   */\n      0x40\n        /* \"#utility.yul\":20633:20651   */\n      dup3\n      add\n        /* \"#utility.yul\":20626:20660   */\n      mstore\n        /* \"#utility.yul\":20613:20616   */\n      0xa0\n        /* \"#utility.yul\":20598:20617   */\n      add\n      swap1\n        /* \"#utility.yul\":20401:20666   */\n      jump\n        /* \"test.sol\":3920:5552  function registerDoctor(... */\n    tag_72:\n        /* \"test.sol\":4219:4230  uint docKey */\n      0x00\n        /* \"test.sol\":4265:4277  doctorMobile */\n      dup7\n        /* \"test.sol\":4278:4289  doctorEmail */\n      dup9\n        /* \"test.sol\":4248:4290  abi.encodePacked(doctorMobile,doctorEmail) */\n      add(0x20, mload(0x40))\n      tag_218\n      swap3\n      swap2\n      swap1\n      tag_219\n      jump\t// in\n    tag_218:\n      0x40\n      dup1\n      mload\n      not(0x1f)\n      dup2\n      dup5\n      sub\n      add\n      dup2\n      mstore\n      swap2\n      swap1\n      mstore\n        /* \"test.sol\":4238:4291  keccak256(abi.encodePacked(doctorMobile,doctorEmail)) */\n      dup1\n      mload\n        /* \"test.sol\":4248:4290  abi.encodePacked(doctorMobile,doctorEmail) */\n      0x20\n        /* \"test.sol\":4238:4291  keccak256(abi.encodePacked(doctorMobile,doctorEmail)) */\n      swap1\n      swap2\n      add\n      keccak256\n      swap1\n      pop\n        /* \"test.sol\":4302:4324  string memory comments */\n      0x60\n        /* \"test.sol\":4233:4292  uint(keccak256(abi.encodePacked(doctorMobile,doctorEmail))) */\n      0x00\n        /* \"test.sol\":4337:4341  reup */\n      dup4\n        /* \"test.sol\":4337:4365  reup == stateChange.REGISTER */\n      0x01\n      dup2\n      gt\n      iszero\n      tag_221\n      jumpi\n      mstore(0x00, shl(0xe0, 0x4e487b71))\n      mstore(0x04, 0x21)\n      revert(0x00, 0x24)\n    tag_221:\n      eq\n        /* \"test.sol\":4334:4872  if(reup == stateChange.REGISTER){... */\n      iszero\n      tag_222\n      jumpi\n        /* \"test.sol\":4459:4470  doctorEmail */\n      dup9\n        /* \"test.sol\":4443:4472  keccak256(bytes(doctorEmail)) */\n      dup1\n      mload\n      swap1\n      0x20\n      add\n      keccak256\n        /* \"test.sol\":4405:4417  doctorAccess */\n      0x01\n        /* \"test.sol\":4405:4425  doctorAccess[docKey] */\n      0x00\n        /* \"test.sol\":4418:4424  docKey */\n      dup5\n        /* \"test.sol\":4405:4425  doctorAccess[docKey] */\n      dup2\n      mstore\n      0x20\n      add\n      swap1\n      dup2\n      mstore\n      0x20\n      add\n      0x00\n      keccak256\n        /* \"test.sol\":4405:4437  doctorAccess[docKey].doctorEmail */\n      0x01\n      add\n        /* \"test.sol\":4389:4439  keccak256(bytes(doctorAccess[docKey].doctorEmail)) */\n      mload(0x40)\n      tag_223\n      swap2\n      swap1\n      tag_224\n      jump\t// in\n    tag_223:\n      mload(0x40)\n      dup1\n      swap2\n      sub\n      swap1\n      keccak256\n        /* \"test.sol\":4389:4472  keccak256(bytes(doctorAccess[docKey].doctorEmail)) != keccak256(bytes(doctorEmail)) */\n      eq\n      iszero\n        /* \"test.sol\":4380:4512  require (keccak256(bytes(doctorAccess[docKey].doctorEmail)) != keccak256(bytes(doctorEmail)), \"EHR-RD-01: Doctor already Enrolled.\") */\n      tag_225\n      jumpi\n      mload(0x40)\n      shl(0xe5, 0x461bcd)\n      dup2\n      mstore\n      0x04\n      add\n      tag_96\n      swap1\n      tag_227\n      jump\t// in\n    tag_225:\n        /* \"test.sol\":4606:4618  doctorMobile */\n      dup8\n        /* \"test.sol\":4590:4620  keccak256(bytes(doctorMobile)) */\n      dup1\n      mload\n      swap1\n      0x20\n      add\n      keccak256\n        /* \"test.sol\":4551:4563  doctorAccess */\n      0x01\n        /* \"test.sol\":4551:4571  doctorAccess[docKey] */\n      0x00\n        /* \"test.sol\":4564:4570  docKey */\n      dup5\n        /* \"test.sol\":4551:4571  doctorAccess[docKey] */\n      dup2\n      mstore\n      0x20\n      add\n      swap1\n      dup2\n      mstore\n      0x20\n      add\n      0x00\n      keccak256\n        /* \"test.sol\":4551:4584  doctorAccess[docKey].doctorMobile */\n      0x02\n      add\n        /* \"test.sol\":4535:4586  keccak256(bytes(doctorAccess[docKey].doctorMobile)) */\n      mload(0x40)\n      tag_228\n      swap2\n      swap1\n      tag_224\n      jump\t// in\n    tag_228:\n      mload(0x40)\n      dup1\n      swap2\n      sub\n      swap1\n      keccak256\n        /* \"test.sol\":4535:4620  keccak256(bytes(doctorAccess[docKey].doctorMobile)) != keccak256(bytes(doctorMobile)) */\n      eq\n      iszero\n        /* \"test.sol\":4526:4660  require (keccak256(bytes(doctorAccess[docKey].doctorMobile)) != keccak256(bytes(doctorMobile)), \"EHR-RD-02: Doctor already Enrolled.\") */\n      tag_229\n      jumpi\n      mload(0x40)\n      shl(0xe5, 0x461bcd)\n      dup2\n      mstore\n      0x04\n      add\n      tag_96\n      swap1\n      tag_231\n      jump\t// in\n    tag_229:\n        /* \"test.sol\":4697:4810  doctorEnroll(doctorName,doctorEmail,doctorMobile,doctorPass,doctorCred,DoctorType(_doctorType),Sex(_gender),true) */\n      mload(0x40)\n      dup1\n      0x0100\n      add\n      0x40\n      mstore\n      dup1\n        /* \"test.sol\":4710:4720  doctorName */\n      dup12\n        /* \"test.sol\":4697:4810  doctorEnroll(doctorName,doctorEmail,doctorMobile,doctorPass,doctorCred,DoctorType(_doctorType),Sex(_gender),true) */\n      dup2\n      mstore\n      0x20\n      add\n        /* \"test.sol\":4721:4732  doctorEmail */\n      dup11\n        /* \"test.sol\":4697:4810  doctorEnroll(doctorName,doctorEmail,doctorMobile,doctorPass,doctorCred,DoctorType(_doctorType),Sex(_gender),true) */\n      dup2\n      mstore\n      0x20\n      add\n        /* \"test.sol\":4733:4745  doctorMobile */\n      dup10\n        /* \"test.sol\":4697:4810  doctorEnroll(doctorName,doctorEmail,doctorMobile,doctorPass,doctorCred,DoctorType(_doctorType),Sex(_gender),true) */\n      dup2\n      mstore\n      0x20\n      add\n        /* \"test.sol\":4746:4756  doctorPass */\n      dup9\n        /* \"test.sol\":4697:4810  doctorEnroll(doctorName,doctorEmail,doctorMobile,doctorPass,doctorCred,DoctorType(_doctorType),Sex(_gender),true) */\n      dup2\n      mstore\n      0x20\n      add\n        /* \"test.sol\":4757:4767  doctorCred */\n      dup8\n        /* \"test.sol\":4697:4810  doctorEnroll(doctorName,doctorEmail,doctorMobile,doctorPass,doctorCred,DoctorType(_doctorType),Sex(_gender),true) */\n      dup2\n      mstore\n      0x20\n      add\n        /* \"test.sol\":4779:4790  _doctorType */\n      dup7\n        /* \"test.sol\":4697:4810  doctorEnroll(doctorName,doctorEmail,doctorMobile,doctorPass,doctorCred,DoctorType(_doctorType),Sex(_gender),true) */\n      0x04\n      dup2\n      gt\n      iszero\n      tag_232\n      jumpi\n      mstore(0x00, shl(0xe0, 0x4e487b71))\n      mstore(0x04, 0x21)\n      revert(0x00, 0x24)\n    tag_232:\n      dup2\n      mstore\n      0x20\n      add\n        /* \"test.sol\":4796:4803  _gender */\n      dup6\n        /* \"test.sol\":4697:4810  doctorEnroll(doctorName,doctorEmail,doctorMobile,doctorPass,doctorCred,DoctorType(_doctorType),Sex(_gender),true) */\n      0x02\n      dup2\n      gt\n      iszero\n      tag_233\n      jumpi\n      mstore(0x00, shl(0xe0, 0x4e487b71))\n      mstore(0x04, 0x21)\n      revert(0x00, 0x24)\n    tag_233:\n      dup2\n      mstore\n        /* \"test.sol\":4805:4809  true */\n      0x01\n        /* \"test.sol\":4697:4810  doctorEnroll(doctorName,doctorEmail,doctorMobile,doctorPass,doctorCred,DoctorType(_doctorType),Sex(_gender),true) */\n      0x20\n      swap2\n      dup3\n      add\n      dup2\n      swap1\n      mstore\n      0x00\n        /* \"test.sol\":4674:4694  doctorAccess[docKey] */\n      dup6\n      dup2\n      mstore\n      swap1\n      dup3\n      mstore\n      0x40\n      swap1\n      keccak256\n        /* \"test.sol\":4674:4810  doctorAccess[docKey] = doctorEnroll(doctorName,doctorEmail,doctorMobile,doctorPass,doctorCred,DoctorType(_doctorType),Sex(_gender),true) */\n      dup3\n      mload\n      dup1\n      mload\n        /* \"test.sol\":4674:4694  doctorAccess[docKey] */\n      swap2\n      swap3\n        /* \"test.sol\":4674:4810  doctorAccess[docKey] = doctorEnroll(doctorName,doctorEmail,doctorMobile,doctorPass,doctorCred,DoctorType(_doctorType),Sex(_gender),true) */\n      tag_234\n      swap3\n        /* \"test.sol\":4674:4694  doctorAccess[docKey] */\n      dup5\n      swap3\n        /* \"test.sol\":4674:4810  doctorAccess[docKey] = doctorEnroll(doctorName,doctorEmail,doctorMobile,doctorPass,doctorCred,DoctorType(_doctorType),Sex(_gender),true) */\n      swap1\n      swap2\n      add\n      swap1\n      tag_160\n      jump\t// in\n    tag_234:\n      pop\n      0x20\n      dup3\n      dup2\n      add\n      mload\n      dup1\n      mload\n      tag_235\n      swap3\n      0x01\n      dup6\n      add\n      swap3\n      add\n      swap1\n      tag_160\n      jump\t// in\n    tag_235:\n      pop\n      0x40\n      dup3\n      add\n      mload\n      dup1\n      mload\n      tag_236\n      swap2\n      0x02\n      dup5\n      add\n      swap2\n      0x20\n      swap1\n      swap2\n      add\n      swap1\n      tag_160\n      jump\t// in\n    tag_236:\n      pop\n      0x60\n      dup3\n      add\n      mload\n      dup1\n      mload\n      tag_237\n      swap2\n      0x03\n      dup5\n      add\n      swap2\n      0x20\n      swap1\n      swap2\n      add\n      swap1\n      tag_160\n      jump\t// in\n    tag_237:\n      pop\n      0x80\n      dup3\n      add\n      mload\n      dup1\n      mload\n      tag_238\n      swap2\n      0x04\n      dup5\n      add\n      swap2\n      0x20\n      swap1\n      swap2\n      add\n      swap1\n      tag_160\n      jump\t// in\n    tag_238:\n      pop\n      0xa0\n      dup3\n      add\n      mload\n      0x05\n      dup3\n      add\n      dup1\n      sload\n      not(0xff)\n      and\n      0x01\n      dup4\n      0x04\n      dup2\n      gt\n      iszero\n      tag_239\n      jumpi\n      mstore(0x00, shl(0xe0, 0x4e487b71))\n      mstore(0x04, 0x21)\n      revert(0x00, 0x24)\n    tag_239:\n      mul\n      or\n      swap1\n      sstore\n      pop\n      0xc0\n      dup3\n      add\n      mload\n      0x05\n      dup3\n      add\n      dup1\n      sload\n      not(0xff00)\n      and\n      0x0100\n      dup4\n      0x02\n      dup2\n      gt\n      iszero\n      tag_240\n      jumpi\n      mstore(0x00, shl(0xe0, 0x4e487b71))\n      mstore(0x04, 0x21)\n      revert(0x00, 0x24)\n    tag_240:\n      mul\n      or\n      swap1\n      sstore\n      pop\n      0xe0\n      swap2\n      swap1\n      swap2\n      add\n      mload\n      0x05\n      swap1\n      swap2\n      add\n      dup1\n      sload\n      swap2\n      iszero\n      iszero\n      0x010000\n      mul\n      not(0xff0000)\n      swap1\n      swap3\n      and\n      swap2\n      swap1\n      swap2\n      or\n      swap1\n      sstore\n      pop\n        /* \"test.sol\":4824:4861  comments = \"Doctor Registration Done\" */\n      0x40\n      dup1\n      mload\n      dup1\n      dup3\n      add\n      swap1\n      swap2\n      mstore\n      0x18\n      dup2\n      mstore\n      0x446f63746f7220526567697374726174696f6e20446f6e650000000000000000\n      0x20\n      dup3\n      add\n      mstore\n        /* \"test.sol\":4334:4872  if(reup == stateChange.REGISTER){... */\n    tag_222:\n        /* \"test.sol\":4892:4910  stateChange.UPDATE */\n      0x01\n        /* \"test.sol\":4884:4888  reup */\n      dup4\n        /* \"test.sol\":4884:4910  reup == stateChange.UPDATE */\n      0x01\n      dup2\n      gt\n      iszero\n      tag_242\n      jumpi\n      mstore(0x00, shl(0xe0, 0x4e487b71))\n      mstore(0x04, 0x21)\n      revert(0x00, 0x24)\n    tag_242:\n      eq\n        /* \"test.sol\":4881:5444  if(reup == stateChange.UPDATE){... */\n      iszero\n      tag_243\n      jumpi\n        /* \"test.sol\":5004:5015  doctorEmail */\n      dup9\n        /* \"test.sol\":4988:5017  keccak256(bytes(doctorEmail)) */\n      dup1\n      mload\n      swap1\n      0x20\n      add\n      keccak256\n        /* \"test.sol\":4950:4962  doctorAccess */\n      0x01\n        /* \"test.sol\":4950:4970  doctorAccess[docKey] */\n      0x00\n        /* \"test.sol\":4963:4969  docKey */\n      dup5\n        /* \"test.sol\":4950:4970  doctorAccess[docKey] */\n      dup2\n      mstore\n      0x20\n      add\n      swap1\n      dup2\n      mstore\n      0x20\n      add\n      0x00\n      keccak256\n        /* \"test.sol\":4950:4982  doctorAccess[docKey].doctorEmail */\n      0x01\n      add\n        /* \"test.sol\":4934:4984  keccak256(bytes(doctorAccess[docKey].doctorEmail)) */\n      mload(0x40)\n      tag_244\n      swap2\n      swap1\n      tag_224\n      jump\t// in\n    tag_244:\n      mload(0x40)\n      dup1\n      swap2\n      sub\n      swap1\n      keccak256\n        /* \"test.sol\":4934:5017  keccak256(bytes(doctorAccess[docKey].doctorEmail)) == keccak256(bytes(doctorEmail)) */\n      eq\n        /* \"test.sol\":4925:5057  require (keccak256(bytes(doctorAccess[docKey].doctorEmail)) == keccak256(bytes(doctorEmail)), \"EHR-RD-01: Doctor already Enrolled.\") */\n      tag_245\n      jumpi\n      mload(0x40)\n      shl(0xe5, 0x461bcd)\n      dup2\n      mstore\n      0x04\n      add\n      tag_96\n      swap1\n      tag_227\n      jump\t// in\n    tag_245:\n        /* \"test.sol\":5151:5163  doctorMobile */\n      dup8\n        /* \"test.sol\":5135:5165  keccak256(bytes(doctorMobile)) */\n      dup1\n      mload\n      swap1\n      0x20\n      add\n      keccak256\n        /* \"test.sol\":5096:5108  doctorAccess */\n      0x01\n        /* \"test.sol\":5096:5116  doctorAccess[docKey] */\n      0x00\n        /* \"test.sol\":5109:5115  docKey */\n      dup5\n        /* \"test.sol\":5096:5116  doctorAccess[docKey] */\n      dup2\n      mstore\n      0x20\n      add\n      swap1\n      dup2\n      mstore\n      0x20\n      add\n      0x00\n      keccak256\n        /* \"test.sol\":5096:5129  doctorAccess[docKey].doctorMobile */\n      0x02\n      add\n        /* \"test.sol\":5080:5131  keccak256(bytes(doctorAccess[docKey].doctorMobile)) */\n      mload(0x40)\n      tag_247\n      swap2\n      swap1\n      tag_224\n      jump\t// in\n    tag_247:\n      mload(0x40)\n      dup1\n      swap2\n      sub\n      swap1\n      keccak256\n        /* \"test.sol\":5080:5165  keccak256(bytes(doctorAccess[docKey].doctorMobile)) == keccak256(bytes(doctorMobile)) */\n      eq\n        /* \"test.sol\":5071:5205  require (keccak256(bytes(doctorAccess[docKey].doctorMobile)) == keccak256(bytes(doctorMobile)), \"EHR-RD-02: Doctor already Enrolled.\") */\n      tag_248\n      jumpi\n      mload(0x40)\n      shl(0xe5, 0x461bcd)\n      dup2\n      mstore\n      0x04\n      add\n      tag_96\n      swap1\n      tag_231\n      jump\t// in\n    tag_248:\n        /* \"test.sol\":5219:5239  doctorAccess[docKey] */\n      0x00\n      dup3\n      dup2\n      mstore\n        /* \"test.sol\":5219:5231  doctorAccess */\n      0x01\n        /* \"test.sol\":5219:5239  doctorAccess[docKey] */\n      0x20\n      swap1\n      dup2\n      mstore\n      0x40\n      swap1\n      swap2\n      keccak256\n        /* \"test.sol\":5219:5263  doctorAccess[docKey].doctorName = doctorName */\n      dup12\n      mload\n      tag_250\n      swap3\n      dup14\n      add\n      swap1\n      tag_160\n      jump\t// in\n    tag_250:\n      pop\n        /* \"test.sol\":5277:5297  doctorAccess[docKey] */\n      0x00\n      dup3\n      dup2\n      mstore\n        /* \"test.sol\":5277:5289  doctorAccess */\n      0x01\n        /* \"test.sol\":5277:5297  doctorAccess[docKey] */\n      0x20\n      dup2\n      dup2\n      mstore\n      0x40\n      swap1\n      swap3\n      keccak256\n        /* \"test.sol\":5277:5323  doctorAccess[docKey].doctorEmail = doctorEmail */\n      dup12\n      mload\n      tag_251\n      swap4\n        /* \"test.sol\":5277:5309  doctorAccess[docKey].doctorEmail */\n      swap2\n      swap1\n      swap3\n      add\n      swap2\n        /* \"test.sol\":5277:5323  doctorAccess[docKey].doctorEmail = doctorEmail */\n      swap1\n      dup13\n      add\n      swap1\n      tag_160\n      jump\t// in\n    tag_251:\n      pop\n        /* \"test.sol\":5337:5357  doctorAccess[docKey] */\n      0x00\n      dup3\n      dup2\n      mstore\n        /* \"test.sol\":5337:5349  doctorAccess */\n      0x01\n        /* \"test.sol\":5337:5357  doctorAccess[docKey] */\n      0x20\n      swap1\n      dup2\n      mstore\n      0x40\n      swap1\n      swap2\n      keccak256\n        /* \"test.sol\":5337:5385  doctorAccess[docKey].doctorMobile = doctorMobile */\n      dup10\n      mload\n      tag_252\n      swap3\n        /* \"test.sol\":5337:5370  doctorAccess[docKey].doctorMobile */\n      0x02\n      swap1\n      swap3\n      add\n      swap2\n        /* \"test.sol\":5337:5385  doctorAccess[docKey].doctorMobile = doctorMobile */\n      dup12\n      add\n      swap1\n      tag_160\n      jump\t// in\n    tag_252:\n      pop\n      pop\n        /* \"test.sol\":5399:5433  comments = \"Doctor Record Updated\" */\n      0x40\n      dup1\n      mload\n      dup1\n      dup3\n      add\n      swap1\n      swap2\n      mstore\n      0x15\n      dup2\n      mstore\n      shl(0x5a, 0x111bd8dd1bdc88149958dbdc9908155c19185d1959)\n      0x20\n      dup3\n      add\n      mstore\n        /* \"test.sol\":4881:5444  if(reup == stateChange.UPDATE){... */\n    tag_243:\n      0x00\n      dup1\n      mload\n      0x20\n      data_f1783972c13bbde284b8765b8e27686842dfd940022613858bd0f693b0907129\n      dup4\n      codecopy\n      dup2\n      mload\n      swap2\n      mstore\n        /* \"test.sol\":5487:5493  docKey */\n      dup3\n        /* \"test.sol\":5507:5515  comments */\n      dup3\n        /* \"test.sol\":5529:5544  block.timestamp */\n      timestamp\n        /* \"test.sol\":5458:5545  patregistration(... */\n      mload(0x40)\n      tag_253\n      swap4\n      swap3\n      swap2\n      swap1\n      tag_254\n      jump\t// in\n    tag_253:\n      mload(0x40)\n      dup1\n      swap2\n      sub\n      swap1\n      log1\n        /* \"test.sol\":3920:5552  function registerDoctor(... */\n      pop\n      pop\n      pop\n      pop\n      pop\n      pop\n      pop\n      pop\n      pop\n      pop\n      jump\t// out\n        /* \"test.sol\":5593:6031  function registerPatientLoc(... */\n    tag_76:\n        /* \"test.sol\":1600:1613  patientAccess */\n      0x00\n        /* \"test.sol\":1600:1622  patientAccess[_patKey] */\n      dup2\n      dup2\n      mstore\n      0x20\n      dup2\n      swap1\n      mstore\n      0x40\n      swap1\n      keccak256\n        /* \"test.sol\":1600:1630  patientAccess[_patKey].isExist */\n      0x04\n      add\n      sload\n        /* \"test.sol\":5810:5816  patKey */\n      dup2\n      swap1\n        /* \"test.sol\":1600:1630  patientAccess[_patKey].isExist */\n      0xff\n      and\n        /* \"test.sol\":1600:1638  patientAccess[_patKey].isExist == true */\n      iszero\n      iszero\n        /* \"test.sol\":1600:1630  patientAccess[_patKey].isExist */\n      0x01\n        /* \"test.sol\":1600:1638  patientAccess[_patKey].isExist == true */\n      eq\n        /* \"test.sol\":1592:1682  require(patientAccess[_patKey].isExist == true, ... */\n      tag_256\n      jumpi\n      mload(0x40)\n      shl(0xe5, 0x461bcd)\n      dup2\n      mstore\n      0x04\n      add\n      tag_96\n      swap1\n      tag_97\n      jump\t// in\n    tag_256:\n        /* \"test.sol\":5852:5899  patientGeo(city,state,country,landmark,pincode) */\n      0x40\n      dup1\n      mload\n      0xa0\n      dup2\n      add\n      dup3\n      mstore\n      dup9\n      dup2\n      mstore\n      0x20\n      dup1\n      dup3\n      add\n      dup10\n      swap1\n      mstore\n      dup2\n      dup4\n      add\n      dup9\n      swap1\n      mstore\n      0x60\n      dup3\n      add\n      dup8\n      swap1\n      mstore\n      0x80\n      dup3\n      add\n      dup7\n      swap1\n      mstore\n      0x00\n        /* \"test.sol\":5827:5849  patientLocData[patKey] */\n      dup6\n      dup2\n      mstore\n        /* \"test.sol\":5827:5841  patientLocData */\n      0x02\n        /* \"test.sol\":5827:5849  patientLocData[patKey] */\n      dup3\n      mstore\n      swap3\n      swap1\n      swap3\n      keccak256\n        /* \"test.sol\":5827:5899  patientLocData[patKey] = patientGeo(city,state,country,landmark,pincode) */\n      dup2\n      mload\n      dup1\n      mload\n        /* \"test.sol\":5852:5899  patientGeo(city,state,country,landmark,pincode) */\n      swap3\n      swap4\n        /* \"test.sol\":5827:5849  patientLocData[patKey] */\n      swap2\n      swap3\n        /* \"test.sol\":5827:5899  patientLocData[patKey] = patientGeo(city,state,country,landmark,pincode) */\n      tag_259\n      swap3\n        /* \"test.sol\":5827:5849  patientLocData[patKey] */\n      dup5\n      swap3\n        /* \"test.sol\":5827:5899  patientLocData[patKey] = patientGeo(city,state,country,landmark,pincode) */\n      add\n      swap1\n      tag_160\n      jump\t// in\n    tag_259:\n      pop\n      0x20\n      dup3\n      dup2\n      add\n      mload\n      dup1\n      mload\n      tag_260\n      swap3\n      0x01\n      dup6\n      add\n      swap3\n      add\n      swap1\n      tag_160\n      jump\t// in\n    tag_260:\n      pop\n      0x40\n      dup3\n      add\n      mload\n      dup1\n      mload\n      tag_261\n      swap2\n      0x02\n      dup5\n      add\n      swap2\n      0x20\n      swap1\n      swap2\n      add\n      swap1\n      tag_160\n      jump\t// in\n    tag_261:\n      pop\n      0x60\n      dup3\n      add\n      mload\n      dup1\n      mload\n      tag_262\n      swap2\n      0x03\n      dup5\n      add\n      swap2\n      0x20\n      swap1\n      swap2\n      add\n      swap1\n      tag_160\n      jump\t// in\n    tag_262:\n      pop\n      0x80\n      swap2\n      dup3\n      add\n      mload\n      0x04\n      swap1\n      swap2\n      add\n      sstore\n        /* \"test.sol\":5914:6024  patregistration(... */\n      0x40\n      dup1\n      mload\n        /* \"#utility.yul\":19411:19436   */\n      dup5\n      dup2\n      mstore\n        /* \"#utility.yul\":19472:19474   */\n      0x60\n        /* \"#utility.yul\":19467:19469   */\n      0x20\n        /* \"#utility.yul\":19452:19470   */\n      dup3\n      add\n        /* \"#utility.yul\":19445:19475   */\n      dup2\n      swap1\n      mstore\n        /* \"#utility.yul\":19511:19513   */\n      0x1d\n        /* \"#utility.yul\":19491:19509   */\n      swap1\n      dup3\n      add\n        /* \"#utility.yul\":19484:19514   */\n      mstore\n        /* \"#utility.yul\":19551:19582   */\n      0x50617469656e74204c6f636174696f6e20446174612075706461746564000000\n        /* \"#utility.yul\":19530:19549   */\n      swap3\n      dup2\n      add\n        /* \"#utility.yul\":19523:19583   */\n      swap3\n      swap1\n      swap3\n      mstore\n        /* \"test.sol\":6008:6023  block.timestamp */\n      timestamp\n        /* \"#utility.yul\":19635:19653   */\n      swap1\n      dup3\n      add\n        /* \"#utility.yul\":19628:19662   */\n      mstore\n      0x00\n      dup1\n      mload\n      0x20\n      data_f1783972c13bbde284b8765b8e27686842dfd940022613858bd0f693b0907129\n      dup4\n      codecopy\n      dup2\n      mload\n      swap2\n      mstore\n        /* \"test.sol\":5914:6024  patregistration(... */\n      swap1\n        /* \"#utility.yul\":19615:19618   */\n      0xa0\n        /* \"#utility.yul\":19600:19619   */\n      add\n        /* \"test.sol\":5914:6024  patregistration(... */\n    tag_263:\n      mload(0x40)\n      dup1\n      swap2\n      sub\n      swap1\n      log1\n        /* \"test.sol\":5593:6031  function registerPatientLoc(... */\n      pop\n      pop\n      pop\n      pop\n      pop\n      pop\n      pop\n      jump\t// out\n        /* \"test.sol\":2295:3891  function registerPatients(... */\n    tag_80:\n        /* \"test.sol\":2513:2528  uint patientKey */\n      0x00\n        /* \"test.sol\":2563:2576  patientMobile */\n      dup4\n        /* \"test.sol\":2577:2589  patientEmail */\n      dup6\n        /* \"test.sol\":2546:2590  abi.encodePacked(patientMobile,patientEmail) */\n      add(0x20, mload(0x40))\n      tag_266\n      swap3\n      swap2\n      swap1\n      tag_219\n      jump\t// in\n    tag_266:\n      0x40\n      dup1\n      mload\n      not(0x1f)\n      dup2\n      dup5\n      sub\n      add\n      dup2\n      mstore\n      swap2\n      swap1\n      mstore\n        /* \"test.sol\":2536:2591  keccak256(abi.encodePacked(patientMobile,patientEmail)) */\n      dup1\n      mload\n        /* \"test.sol\":2546:2590  abi.encodePacked(patientMobile,patientEmail) */\n      0x20\n        /* \"test.sol\":2536:2591  keccak256(abi.encodePacked(patientMobile,patientEmail)) */\n      swap1\n      swap2\n      add\n      keccak256\n      swap1\n      pop\n        /* \"test.sol\":2602:2624  string memory comments */\n      0x60\n        /* \"test.sol\":2531:2592  uint(keccak256(abi.encodePacked(patientMobile,patientEmail))) */\n      0x00\n        /* \"test.sol\":2637:2641  reup */\n      dup4\n        /* \"test.sol\":2637:2665  reup == stateChange.REGISTER */\n      0x01\n      dup2\n      gt\n      iszero\n      tag_268\n      jumpi\n      mstore(0x00, shl(0xe0, 0x4e487b71))\n      mstore(0x04, 0x21)\n      revert(0x00, 0x24)\n    tag_268:\n      eq\n        /* \"test.sol\":2634:3151  if(reup == stateChange.REGISTER){... */\n      iszero\n      tag_269\n      jumpi\n        /* \"test.sol\":2765:2777  patientEmail */\n      dup6\n        /* \"test.sol\":2749:2779  keccak256(bytes(patientEmail)) */\n      dup1\n      mload\n      swap1\n      0x20\n      add\n      keccak256\n        /* \"test.sol\":2705:2718  patientAccess */\n      0x00\n        /* \"test.sol\":2705:2730  patientAccess[patientKey] */\n      dup1\n        /* \"test.sol\":2719:2729  patientKey */\n      dup5\n        /* \"test.sol\":2705:2730  patientAccess[patientKey] */\n      dup2\n      mstore\n      0x20\n      add\n      swap1\n      dup2\n      mstore\n      0x20\n      add\n      0x00\n      keccak256\n        /* \"test.sol\":2705:2743  patientAccess[patientKey].patientEmail */\n      0x01\n      add\n        /* \"test.sol\":2689:2745  keccak256(bytes(patientAccess[patientKey].patientEmail)) */\n      mload(0x40)\n      tag_270\n      swap2\n      swap1\n      tag_224\n      jump\t// in\n    tag_270:\n      mload(0x40)\n      dup1\n      swap2\n      sub\n      swap1\n      keccak256\n        /* \"test.sol\":2689:2779  keccak256(bytes(patientAccess[patientKey].patientEmail)) != keccak256(bytes(patientEmail)) */\n      eq\n      iszero\n        /* \"test.sol\":2680:2820  require (keccak256(bytes(patientAccess[patientKey].patientEmail)) != keccak256(bytes(patientEmail)), \"EHR-RP-01: Patient already Enrolled.\") */\n      tag_271\n      jumpi\n      mload(0x40)\n      shl(0xe5, 0x461bcd)\n      dup2\n      mstore\n      0x04\n      add\n      tag_96\n      swap1\n      tag_273\n      jump\t// in\n    tag_271:\n        /* \"test.sol\":2920:2933  patientMobile */\n      dup5\n        /* \"test.sol\":2904:2935  keccak256(bytes(patientMobile)) */\n      dup1\n      mload\n      swap1\n      0x20\n      add\n      keccak256\n        /* \"test.sol\":2859:2872  patientAccess */\n      0x00\n        /* \"test.sol\":2859:2884  patientAccess[patientKey] */\n      dup1\n        /* \"test.sol\":2873:2883  patientKey */\n      dup5\n        /* \"test.sol\":2859:2884  patientAccess[patientKey] */\n      dup2\n      mstore\n      0x20\n      add\n      swap1\n      dup2\n      mstore\n      0x20\n      add\n      0x00\n      keccak256\n        /* \"test.sol\":2859:2898  patientAccess[patientKey].patientMobile */\n      0x02\n      add\n        /* \"test.sol\":2843:2900  keccak256(bytes(patientAccess[patientKey].patientMobile)) */\n      mload(0x40)\n      tag_274\n      swap2\n      swap1\n      tag_224\n      jump\t// in\n    tag_274:\n      mload(0x40)\n      dup1\n      swap2\n      sub\n      swap1\n      keccak256\n        /* \"test.sol\":2843:2935  keccak256(bytes(patientAccess[patientKey].patientMobile)) != keccak256(bytes(patientMobile)) */\n      eq\n      iszero\n        /* \"test.sol\":2834:2976  require (keccak256(bytes(patientAccess[patientKey].patientMobile)) != keccak256(bytes(patientMobile)), \"EHR-RP-02: Patient already Enrolled.\") */\n      tag_275\n      jumpi\n      mload(0x40)\n      shl(0xe5, 0x461bcd)\n      dup2\n      mstore\n      0x04\n      add\n      tag_96\n      swap1\n      tag_277\n      jump\t// in\n    tag_275:\n        /* \"test.sol\":3018:3088  patientEnroll(patientName,patientEmail,patientMobile,patientPass,true) */\n      0x40\n      dup1\n      mload\n      0xa0\n      dup2\n      add\n      dup3\n      mstore\n      dup9\n      dup2\n      mstore\n      0x20\n      dup1\n      dup3\n      add\n      dup10\n      swap1\n      mstore\n      dup2\n      dup4\n      add\n      dup9\n      swap1\n      mstore\n      0x60\n      dup3\n      add\n      dup8\n      swap1\n      mstore\n        /* \"test.sol\":3083:3087  true */\n      0x01\n        /* \"test.sol\":3018:3088  patientEnroll(patientName,patientEmail,patientMobile,patientPass,true) */\n      0x80\n      dup4\n      add\n      mstore\n      0x00\n        /* \"test.sol\":2990:3015  patientAccess[patientKey] */\n      dup6\n      dup2\n      mstore\n      dup1\n      dup3\n      mstore\n      swap3\n      swap1\n      swap3\n      keccak256\n        /* \"test.sol\":2990:3088  patientAccess[patientKey] = patientEnroll(patientName,patientEmail,patientMobile,patientPass,true) */\n      dup2\n      mload\n      dup1\n      mload\n        /* \"test.sol\":3018:3088  patientEnroll(patientName,patientEmail,patientMobile,patientPass,true) */\n      swap3\n      swap4\n        /* \"test.sol\":2990:3015  patientAccess[patientKey] */\n      swap2\n      swap3\n        /* \"test.sol\":2990:3088  patientAccess[patientKey] = patientEnroll(patientName,patientEmail,patientMobile,patientPass,true) */\n      tag_278\n      swap3\n        /* \"test.sol\":2990:3015  patientAccess[patientKey] */\n      dup5\n      swap3\n        /* \"test.sol\":2990:3088  patientAccess[patientKey] = patientEnroll(patientName,patientEmail,patientMobile,patientPass,true) */\n      add\n      swap1\n      tag_160\n      jump\t// in\n    tag_278:\n      pop\n      0x20\n      dup3\n      dup2\n      add\n      mload\n      dup1\n      mload\n      tag_279\n      swap3\n      0x01\n      dup6\n      add\n      swap3\n      add\n      swap1\n      tag_160\n      jump\t// in\n    tag_279:\n      pop\n      0x40\n      dup3\n      add\n      mload\n      dup1\n      mload\n      tag_280\n      swap2\n      0x02\n      dup5\n      add\n      swap2\n      0x20\n      swap1\n      swap2\n      add\n      swap1\n      tag_160\n      jump\t// in\n    tag_280:\n      pop\n      0x60\n      dup3\n      add\n      mload\n      dup1\n      mload\n      tag_281\n      swap2\n      0x03\n      dup5\n      add\n      swap2\n      0x20\n      swap1\n      swap2\n      add\n      swap1\n      tag_160\n      jump\t// in\n    tag_281:\n      pop\n      0x80\n      swap2\n      swap1\n      swap2\n      add\n      mload\n      0x04\n      swap1\n      swap2\n      add\n      dup1\n      sload\n      not(0xff)\n      and\n      swap2\n      iszero\n      iszero\n      swap2\n      swap1\n      swap2\n      or\n      swap1\n      sstore\n      pop\n        /* \"test.sol\":3102:3140  comments = \"Patient Registration Done\" */\n      0x40\n      dup1\n      mload\n      dup1\n      dup3\n      add\n      swap1\n      swap2\n      mstore\n      0x19\n      dup2\n      mstore\n      0x50617469656e7420526567697374726174696f6e20446f6e6500000000000000\n      0x20\n      dup3\n      add\n      mstore\n        /* \"test.sol\":2634:3151  if(reup == stateChange.REGISTER){... */\n    tag_269:\n        /* \"test.sol\":3171:3189  stateChange.UPDATE */\n      0x01\n        /* \"test.sol\":3163:3167  reup */\n      dup4\n        /* \"test.sol\":3163:3189  reup == stateChange.UPDATE */\n      0x01\n      dup2\n      gt\n      iszero\n      tag_283\n      jumpi\n      mstore(0x00, shl(0xe0, 0x4e487b71))\n      mstore(0x04, 0x21)\n      revert(0x00, 0x24)\n    tag_283:\n      eq\n        /* \"test.sol\":3160:3761  if(reup == stateChange.UPDATE){... */\n      iszero\n      tag_284\n      jumpi\n        /* \"test.sol\":3289:3301  patientEmail */\n      dup6\n        /* \"test.sol\":3273:3303  keccak256(bytes(patientEmail)) */\n      dup1\n      mload\n      swap1\n      0x20\n      add\n      keccak256\n        /* \"test.sol\":3229:3242  patientAccess */\n      0x00\n        /* \"test.sol\":3229:3254  patientAccess[patientKey] */\n      dup1\n        /* \"test.sol\":3243:3253  patientKey */\n      dup5\n        /* \"test.sol\":3229:3254  patientAccess[patientKey] */\n      dup2\n      mstore\n      0x20\n      add\n      swap1\n      dup2\n      mstore\n      0x20\n      add\n      0x00\n      keccak256\n        /* \"test.sol\":3229:3267  patientAccess[patientKey].patientEmail */\n      0x01\n      add\n        /* \"test.sol\":3213:3269  keccak256(bytes(patientAccess[patientKey].patientEmail)) */\n      mload(0x40)\n      tag_285\n      swap2\n      swap1\n      tag_224\n      jump\t// in\n    tag_285:\n      mload(0x40)\n      dup1\n      swap2\n      sub\n      swap1\n      keccak256\n        /* \"test.sol\":3213:3303  keccak256(bytes(patientAccess[patientKey].patientEmail)) == keccak256(bytes(patientEmail)) */\n      eq\n        /* \"test.sol\":3204:3344  require (keccak256(bytes(patientAccess[patientKey].patientEmail)) == keccak256(bytes(patientEmail)), \"EHR-RP-01: Patient already Enrolled.\") */\n      tag_286\n      jumpi\n      mload(0x40)\n      shl(0xe5, 0x461bcd)\n      dup2\n      mstore\n      0x04\n      add\n      tag_96\n      swap1\n      tag_273\n      jump\t// in\n    tag_286:\n        /* \"test.sol\":3444:3457  patientMobile */\n      dup5\n        /* \"test.sol\":3428:3459  keccak256(bytes(patientMobile)) */\n      dup1\n      mload\n      swap1\n      0x20\n      add\n      keccak256\n        /* \"test.sol\":3383:3396  patientAccess */\n      0x00\n        /* \"test.sol\":3383:3408  patientAccess[patientKey] */\n      dup1\n        /* \"test.sol\":3397:3407  patientKey */\n      dup5\n        /* \"test.sol\":3383:3408  patientAccess[patientKey] */\n      dup2\n      mstore\n      0x20\n      add\n      swap1\n      dup2\n      mstore\n      0x20\n      add\n      0x00\n      keccak256\n        /* \"test.sol\":3383:3422  patientAccess[patientKey].patientMobile */\n      0x02\n      add\n        /* \"test.sol\":3367:3424  keccak256(bytes(patientAccess[patientKey].patientMobile)) */\n      mload(0x40)\n      tag_288\n      swap2\n      swap1\n      tag_224\n      jump\t// in\n    tag_288:\n      mload(0x40)\n      dup1\n      swap2\n      sub\n      swap1\n      keccak256\n        /* \"test.sol\":3367:3459  keccak256(bytes(patientAccess[patientKey].patientMobile)) == keccak256(bytes(patientMobile)) */\n      eq\n        /* \"test.sol\":3358:3500  require (keccak256(bytes(patientAccess[patientKey].patientMobile)) == keccak256(bytes(patientMobile)), \"EHR-RP-02: Patient already Enrolled.\") */\n      tag_289\n      jumpi\n      mload(0x40)\n      shl(0xe5, 0x461bcd)\n      dup2\n      mstore\n      0x04\n      add\n      tag_96\n      swap1\n      tag_277\n      jump\t// in\n    tag_289:\n        /* \"test.sol\":3514:3527  patientAccess */\n      0x00\n        /* \"test.sol\":3514:3539  patientAccess[patientKey] */\n      dup3\n      dup2\n      mstore\n      0x20\n      dup2\n      dup2\n      mstore\n      0x40\n      swap1\n      swap2\n      keccak256\n        /* \"test.sol\":3514:3565  patientAccess[patientKey].patientName = patientName */\n      dup9\n      mload\n      tag_291\n      swap3\n      dup11\n      add\n      swap1\n      tag_160\n      jump\t// in\n    tag_291:\n      pop\n        /* \"test.sol\":3579:3592  patientAccess */\n      0x00\n        /* \"test.sol\":3579:3604  patientAccess[patientKey] */\n      dup3\n      dup2\n      mstore\n      0x20\n      dup2\n      dup2\n      mstore\n      0x40\n      swap1\n      swap2\n      keccak256\n        /* \"test.sol\":3579:3632  patientAccess[patientKey].patientEmail = patientEmail */\n      dup8\n      mload\n      tag_292\n      swap3\n        /* \"test.sol\":3579:3617  patientAccess[patientKey].patientEmail */\n      0x01\n      swap1\n      swap3\n      add\n      swap2\n        /* \"test.sol\":3579:3632  patientAccess[patientKey].patientEmail = patientEmail */\n      dup10\n      add\n      swap1\n      tag_160\n      jump\t// in\n    tag_292:\n      pop\n        /* \"test.sol\":3646:3659  patientAccess */\n      0x00\n        /* \"test.sol\":3646:3671  patientAccess[patientKey] */\n      dup3\n      dup2\n      mstore\n      0x20\n      dup2\n      dup2\n      mstore\n      0x40\n      swap1\n      swap2\n      keccak256\n        /* \"test.sol\":3646:3701  patientAccess[patientKey].patientMobile = patientMobile */\n      dup7\n      mload\n      tag_293\n      swap3\n        /* \"test.sol\":3646:3685  patientAccess[patientKey].patientMobile */\n      0x02\n      swap1\n      swap3\n      add\n      swap2\n        /* \"test.sol\":3646:3701  patientAccess[patientKey].patientMobile = patientMobile */\n      dup9\n      add\n      swap1\n      tag_160\n      jump\t// in\n    tag_293:\n      pop\n      pop\n        /* \"test.sol\":3715:3750  comments = \"Patient Record Updated\" */\n      0x40\n      dup1\n      mload\n      dup1\n      dup3\n      add\n      swap1\n      swap2\n      mstore\n      0x16\n      dup2\n      mstore\n      shl(0x52, 0x14185d1a595b9d08149958dbdc9908155c19185d1959)\n      0x20\n      dup3\n      add\n      mstore\n        /* \"test.sol\":3160:3761  if(reup == stateChange.UPDATE){... */\n    tag_284:\n      0x00\n      dup1\n      mload\n      0x20\n      data_f1783972c13bbde284b8765b8e27686842dfd940022613858bd0f693b0907129\n      dup4\n      codecopy\n      dup2\n      mload\n      swap2\n      mstore\n        /* \"test.sol\":3822:3832  patientKey */\n      dup3\n        /* \"test.sol\":3846:3854  comments */\n      dup3\n        /* \"test.sol\":3868:3883  block.timestamp */\n      timestamp\n        /* \"test.sol\":3793:3884  patregistration(... */\n      mload(0x40)\n      tag_263\n      swap4\n      swap3\n      swap2\n      swap1\n      tag_254\n      jump\t// in\n        /* \"test.sol\":7108:7929  function updateCareGiver(... */\n    tag_88:\n        /* \"test.sol\":1600:1613  patientAccess */\n      0x00\n        /* \"test.sol\":1600:1622  patientAccess[_patKey] */\n      dup6\n      dup2\n      mstore\n      0x20\n      dup2\n      swap1\n      mstore\n      0x40\n      swap1\n      keccak256\n        /* \"test.sol\":1600:1630  patientAccess[_patKey].isExist */\n      0x04\n      add\n      sload\n        /* \"test.sol\":7351:7357  patKey */\n      dup6\n      swap1\n        /* \"test.sol\":1600:1630  patientAccess[_patKey].isExist */\n      0xff\n      and\n        /* \"test.sol\":1600:1638  patientAccess[_patKey].isExist == true */\n      iszero\n      iszero\n        /* \"test.sol\":1600:1630  patientAccess[_patKey].isExist */\n      0x01\n        /* \"test.sol\":1600:1638  patientAccess[_patKey].isExist == true */\n      eq\n        /* \"test.sol\":1592:1682  require(patientAccess[_patKey].isExist == true, ... */\n      tag_296\n      jumpi\n      mload(0x40)\n      shl(0xe5, 0x461bcd)\n      dup2\n      mstore\n      0x04\n      add\n      tag_96\n      swap1\n      tag_97\n      jump\t// in\n    tag_296:\n        /* \"test.sol\":7376:7397  careGiverData[patKey] */\n      0x00\n      dup7\n      dup2\n      mstore\n        /* \"test.sol\":7376:7389  careGiverData */\n      0x05\n        /* \"test.sol\":7376:7397  careGiverData[patKey] */\n      0x20\n      swap1\n      dup2\n      mstore\n      0x40\n      dup1\n      dup4\n      keccak256\n        /* \"test.sol\":7376:7407  careGiverData[patKey][position] */\n      dup9\n      dup5\n      mstore\n      swap1\n      swap2\n      mstore\n      swap1\n      keccak256\n        /* \"test.sol\":7376:7415  careGiverData[patKey][position].isExist */\n      0x03\n      add\n      sload\n      0xff\n      and\n        /* \"test.sol\":7376:7423  careGiverData[patKey][position].isExist == true */\n      iszero\n      iszero\n        /* \"test.sol\":7376:7415  careGiverData[patKey][position].isExist */\n      0x01\n        /* \"test.sol\":7376:7423  careGiverData[patKey][position].isExist == true */\n      eq\n        /* \"test.sol\":7368:7458  require(careGiverData[patKey][position].isExist == true, \"EHR-RCG-01: Already registered\") */\n      tag_299\n      jumpi\n      mload(0x40)\n      shl(0xe5, 0x461bcd)\n      dup2\n      mstore\n        /* \"#utility.yul\":17656:17658   */\n      0x20\n        /* \"test.sol\":7368:7458  require(careGiverData[patKey][position].isExist == true, \"EHR-RCG-01: Already registered\") */\n      0x04\n      dup3\n      add\n        /* \"#utility.yul\":17638:17659   */\n      mstore\n        /* \"#utility.yul\":17695:17697   */\n      0x1e\n        /* \"#utility.yul\":17675:17693   */\n      0x24\n      dup3\n      add\n        /* \"#utility.yul\":17668:17698   */\n      mstore\n        /* \"#utility.yul\":17734:17766   */\n      0x4548522d5243472d30313a20416c726561647920726567697374657265640000\n        /* \"#utility.yul\":17714:17732   */\n      0x44\n      dup3\n      add\n        /* \"#utility.yul\":17707:17767   */\n      mstore\n        /* \"#utility.yul\":17784:17802   */\n      0x64\n      add\n        /* \"test.sol\":7368:7458  require(careGiverData[patKey][position].isExist == true, \"EHR-RCG-01: Already registered\") */\n      tag_96\n        /* \"#utility.yul\":17628:17808   */\n      jump\n        /* \"test.sol\":7368:7458  require(careGiverData[patKey][position].isExist == true, \"EHR-RCG-01: Already registered\") */\n    tag_299:\n        /* \"test.sol\":7506:7554  careGiver(careName,careMobile,careRelation,true) */\n      0x40\n      dup1\n      mload\n      0x80\n      dup2\n      add\n      dup3\n      mstore\n      dup6\n      dup2\n      mstore\n      0x20\n      dup1\n      dup3\n      add\n      dup7\n      swap1\n      mstore\n      dup2\n      dup4\n      add\n      dup6\n      swap1\n      mstore\n        /* \"test.sol\":7549:7553  true */\n      0x01\n        /* \"test.sol\":7506:7554  careGiver(careName,careMobile,careRelation,true) */\n      0x60\n      dup4\n      add\n      mstore\n      0x00\n        /* \"test.sol\":7472:7493  careGiverData[patKey] */\n      dup10\n      dup2\n      mstore\n        /* \"test.sol\":7472:7485  careGiverData */\n      0x05\n        /* \"test.sol\":7472:7493  careGiverData[patKey] */\n      dup3\n      mstore\n      dup4\n      dup2\n      keccak256\n        /* \"test.sol\":7472:7503  careGiverData[patKey][position] */\n      dup10\n      dup3\n      mstore\n      dup3\n      mstore\n      swap3\n      swap1\n      swap3\n      keccak256\n        /* \"test.sol\":7472:7554  careGiverData[patKey][position] = careGiver(careName,careMobile,careRelation,true) */\n      dup2\n      mload\n      dup1\n      mload\n        /* \"test.sol\":7506:7554  careGiver(careName,careMobile,careRelation,true) */\n      swap3\n      swap4\n        /* \"test.sol\":7472:7503  careGiverData[patKey][position] */\n      swap2\n      swap3\n        /* \"test.sol\":7472:7554  careGiverData[patKey][position] = careGiver(careName,careMobile,careRelation,true) */\n      tag_301\n      swap3\n        /* \"test.sol\":7472:7503  careGiverData[patKey][position] */\n      dup5\n      swap3\n        /* \"test.sol\":7472:7554  careGiverData[patKey][position] = careGiver(careName,careMobile,careRelation,true) */\n      add\n      swap1\n      tag_160\n      jump\t// in\n    tag_301:\n      pop\n      0x20\n      dup3\n      dup2\n      add\n      mload\n      dup1\n      mload\n      tag_302\n      swap3\n      0x01\n      dup6\n      add\n      swap3\n      add\n      swap1\n      tag_160\n      jump\t// in\n    tag_302:\n      pop\n      0x40\n      dup3\n      add\n      mload\n      dup1\n      mload\n      tag_303\n      swap2\n      0x02\n      dup5\n      add\n      swap2\n      0x20\n      swap1\n      swap2\n      add\n      swap1\n      tag_160\n      jump\t// in\n    tag_303:\n      pop\n      0x60\n      swap2\n      swap1\n      swap2\n      add\n      mload\n      0x03\n      swap1\n      swap2\n      add\n      dup1\n      sload\n      not(0xff)\n      and\n      swap2\n      iszero\n      iszero\n      swap2\n      swap1\n      swap2\n      or\n      swap1\n      sstore\n      0x00\n        /* \"test.sol\":7564:7803  for(uint i=0;i<=2;i++){... */\n    tag_304:\n        /* \"test.sol\":7580:7581  2 */\n      0x02\n        /* \"test.sol\":7577:7578  i */\n      dup2\n        /* \"test.sol\":7577:7581  i<=2 */\n      gt\n        /* \"test.sol\":7564:7803  for(uint i=0;i<=2;i++){... */\n      tag_305\n      jumpi\n        /* \"test.sol\":7658:7684  keccak256(bytes(careName)) */\n      dup5\n      mload\n      0x20\n      dup1\n      dup8\n      add\n      swap2\n      swap1\n      swap2\n      keccak256\n        /* \"test.sol\":7619:7640  careGiverData[patKey] */\n      0x00\n      dup10\n      dup2\n      mstore\n        /* \"test.sol\":7619:7632  careGiverData */\n      0x05\n        /* \"test.sol\":7619:7640  careGiverData[patKey] */\n      dup4\n      mstore\n      0x40\n      dup1\n      dup3\n      keccak256\n        /* \"test.sol\":7619:7643  careGiverData[patKey][i] */\n      dup6\n      dup4\n      mstore\n      swap1\n      swap4\n      mstore\n      dup3\n      swap1\n      keccak256\n        /* \"test.sol\":7603:7654  keccak256(bytes(careGiverData[patKey][i].careName)) */\n      swap2\n      mload\n        /* \"test.sol\":7658:7684  keccak256(bytes(careName)) */\n      swap1\n      swap2\n        /* \"test.sol\":7603:7654  keccak256(bytes(careGiverData[patKey][i].careName)) */\n      tag_307\n      swap2\n      tag_224\n      jump\t// in\n    tag_307:\n      mload(0x40)\n      dup1\n      swap2\n      sub\n      swap1\n      keccak256\n        /* \"test.sol\":7603:7684  keccak256(bytes(careGiverData[patKey][i].careName)) == keccak256(bytes(careName)) */\n      eq\n        /* \"test.sol\":7600:7793  if(keccak256(bytes(careGiverData[patKey][i].careName)) == keccak256(bytes(careName))){... */\n      iszero\n      tag_308\n      jumpi\n        /* \"test.sol\":7730:7778  careGiver(careName,careMobile,careRelation,true) */\n      0x40\n      dup1\n      mload\n      0x80\n      dup2\n      add\n      dup3\n      mstore\n      dup7\n      dup2\n      mstore\n      0x20\n      dup1\n      dup3\n      add\n      dup8\n      swap1\n      mstore\n      dup2\n      dup4\n      add\n      dup7\n      swap1\n      mstore\n        /* \"test.sol\":7773:7777  true */\n      0x01\n        /* \"test.sol\":7730:7778  careGiver(careName,careMobile,careRelation,true) */\n      0x60\n      dup4\n      add\n      mstore\n      0x00\n        /* \"test.sol\":7703:7724  careGiverData[patKey] */\n      dup11\n      dup2\n      mstore\n        /* \"test.sol\":7703:7716  careGiverData */\n      0x05\n        /* \"test.sol\":7703:7724  careGiverData[patKey] */\n      dup3\n      mstore\n      dup4\n      dup2\n      keccak256\n        /* \"test.sol\":7703:7727  careGiverData[patKey][i] */\n      dup6\n      dup3\n      mstore\n      dup3\n      mstore\n      swap3\n      swap1\n      swap3\n      keccak256\n        /* \"test.sol\":7703:7778  careGiverData[patKey][i] = careGiver(careName,careMobile,careRelation,true) */\n      dup2\n      mload\n      dup1\n      mload\n        /* \"test.sol\":7730:7778  careGiver(careName,careMobile,careRelation,true) */\n      swap3\n      swap4\n        /* \"test.sol\":7703:7727  careGiverData[patKey][i] */\n      swap2\n      swap3\n        /* \"test.sol\":7703:7778  careGiverData[patKey][i] = careGiver(careName,careMobile,careRelation,true) */\n      tag_309\n      swap3\n        /* \"test.sol\":7703:7727  careGiverData[patKey][i] */\n      dup5\n      swap3\n        /* \"test.sol\":7703:7778  careGiverData[patKey][i] = careGiver(careName,careMobile,careRelation,true) */\n      add\n      swap1\n      tag_160\n      jump\t// in\n    tag_309:\n      pop\n      0x20\n      dup3\n      dup2\n      add\n      mload\n      dup1\n      mload\n      tag_310\n      swap3\n      0x01\n      dup6\n      add\n      swap3\n      add\n      swap1\n      tag_160\n      jump\t// in\n    tag_310:\n      pop\n      0x40\n      dup3\n      add\n      mload\n      dup1\n      mload\n      tag_311\n      swap2\n      0x02\n      dup5\n      add\n      swap2\n      0x20\n      swap1\n      swap2\n      add\n      swap1\n      tag_160\n      jump\t// in\n    tag_311:\n      pop\n      0x60\n      swap2\n      swap1\n      swap2\n      add\n      mload\n      0x03\n      swap1\n      swap2\n      add\n      dup1\n      sload\n      not(0xff)\n      and\n      swap2\n      iszero\n      iszero\n      swap2\n      swap1\n      swap2\n      or\n      swap1\n      sstore\n        /* \"test.sol\":7600:7793  if(keccak256(bytes(careGiverData[patKey][i].careName)) == keccak256(bytes(careName))){... */\n    tag_308:\n        /* \"test.sol\":7582:7585  i++ */\n      dup1\n      tag_312\n      dup2\n      tag_313\n      jump\t// in\n    tag_312:\n      swap2\n      pop\n      pop\n        /* \"test.sol\":7564:7803  for(uint i=0;i<=2;i++){... */\n      jump(tag_304)\n    tag_305:\n      pop\n      0x00\n      dup1\n      mload\n      0x20\n      data_f1783972c13bbde284b8765b8e27686842dfd940022613858bd0f693b0907129\n      dup4\n      codecopy\n      dup2\n      mload\n      swap2\n      mstore\n        /* \"test.sol\":7846:7852  patKey */\n      dup7\n        /* \"test.sol\":7905:7920  block.timestamp */\n      timestamp\n        /* \"test.sol\":7817:7921  patregistration(... */\n      mload(0x40)\n      tag_163\n      swap3\n      swap2\n      swap1\n        /* \"#utility.yul\":20911:20936   */\n      swap2\n      dup3\n      mstore\n        /* \"#utility.yul\":20972:20974   */\n      0x60\n        /* \"#utility.yul\":20967:20969   */\n      0x20\n        /* \"#utility.yul\":20952:20970   */\n      dup4\n      add\n        /* \"#utility.yul\":20945:20975   */\n      dup2\n      swap1\n      mstore\n        /* \"#utility.yul\":21011:21013   */\n      0x17\n        /* \"#utility.yul\":20991:21009   */\n      swap1\n      dup4\n      add\n        /* \"#utility.yul\":20984:21014   */\n      mstore\n        /* \"#utility.yul\":21051:21076   */\n      0x4361726567697665722044617461206d6f646966696564000000000000000000\n        /* \"#utility.yul\":21045:21048   */\n      0x80\n        /* \"#utility.yul\":21030:21049   */\n      dup4\n      add\n        /* \"#utility.yul\":21023:21077   */\n      mstore\n        /* \"#utility.yul\":21144:21146   */\n      0x40\n        /* \"#utility.yul\":21129:21147   */\n      dup3\n      add\n        /* \"#utility.yul\":21122:21156   */\n      mstore\n        /* \"#utility.yul\":21109:21112   */\n      0xa0\n        /* \"#utility.yul\":21094:21113   */\n      add\n      swap1\n        /* \"#utility.yul\":20901:21162   */\n      jump\n        /* \"test.sol\":1958:2007  mapping(uint => patientGeo) public patientLocData */\n    tag_91:\n      mstore(0x20, 0x02)\n      0x00\n      swap1\n      dup2\n      mstore\n      0x40\n      swap1\n      keccak256\n      dup1\n      sload\n      dup2\n      swap1\n      tag_316\n      swap1\n      tag_100\n      jump\t// in\n    tag_316:\n      dup1\n      0x1f\n      add\n      0x20\n      dup1\n      swap2\n      div\n      mul\n      0x20\n      add\n      mload(0x40)\n      swap1\n      dup2\n      add\n      0x40\n      mstore\n      dup1\n      swap3\n      swap2\n      swap1\n      dup2\n      dup2\n      mstore\n      0x20\n      add\n      dup3\n      dup1\n      sload\n      tag_317\n      swap1\n      tag_100\n      jump\t// in\n    tag_317:\n      dup1\n      iszero\n      tag_318\n      jumpi\n      dup1\n      0x1f\n      lt\n      tag_319\n      jumpi\n      0x0100\n      dup1\n      dup4\n      sload\n      div\n      mul\n      dup4\n      mstore\n      swap2\n      0x20\n      add\n      swap2\n      jump(tag_318)\n    tag_319:\n      dup3\n      add\n      swap2\n      swap1\n      0x00\n      mstore\n      keccak256(0x00, 0x20)\n      swap1\n    tag_320:\n      dup2\n      sload\n      dup2\n      mstore\n      swap1\n      0x01\n      add\n      swap1\n      0x20\n      add\n      dup1\n      dup4\n      gt\n      tag_320\n      jumpi\n      dup3\n      swap1\n      sub\n      0x1f\n      and\n      dup3\n      add\n      swap2\n    tag_318:\n      pop\n      pop\n      pop\n      pop\n      pop\n      swap1\n      dup1\n      0x01\n      add\n      dup1\n      sload\n      tag_321\n      swap1\n      tag_100\n      jump\t// in\n    tag_321:\n      dup1\n      0x1f\n      add\n      0x20\n      dup1\n      swap2\n      div\n      mul\n      0x20\n      add\n      mload(0x40)\n      swap1\n      dup2\n      add\n      0x40\n      mstore\n      dup1\n      swap3\n      swap2\n      swap1\n      dup2\n      dup2\n      mstore\n      0x20\n      add\n      dup3\n      dup1\n      sload\n      tag_322\n      swap1\n      tag_100\n      jump\t// in\n    tag_322:\n      dup1\n      iszero\n      tag_323\n      jumpi\n      dup1\n      0x1f\n      lt\n      tag_324\n      jumpi\n      0x0100\n      dup1\n      dup4\n      sload\n      div\n      mul\n      dup4\n      mstore\n      swap2\n      0x20\n      add\n      swap2\n      jump(tag_323)\n    tag_324:\n      dup3\n      add\n      swap2\n      swap1\n      0x00\n      mstore\n      keccak256(0x00, 0x20)\n      swap1\n    tag_325:\n      dup2\n      sload\n      dup2\n      mstore\n      swap1\n      0x01\n      add\n      swap1\n      0x20\n      add\n      dup1\n      dup4\n      gt\n      tag_325\n      jumpi\n      dup3\n      swap1\n      sub\n      0x1f\n      and\n      dup3\n      add\n      swap2\n    tag_323:\n      pop\n      pop\n      pop\n      pop\n      pop\n      swap1\n      dup1\n      0x02\n      add\n      dup1\n      sload\n      tag_326\n      swap1\n      tag_100\n      jump\t// in\n    tag_326:\n      dup1\n      0x1f\n      add\n      0x20\n      dup1\n      swap2\n      div\n      mul\n      0x20\n      add\n      mload(0x40)\n      swap1\n      dup2\n      add\n      0x40\n      mstore\n      dup1\n      swap3\n      swap2\n      swap1\n      dup2\n      dup2\n      mstore\n      0x20\n      add\n      dup3\n      dup1\n      sload\n      tag_327\n      swap1\n      tag_100\n      jump\t// in\n    tag_327:\n      dup1\n      iszero\n      tag_328\n      jumpi\n      dup1\n      0x1f\n      lt\n      tag_329\n      jumpi\n      0x0100\n      dup1\n      dup4\n      sload\n      div\n      mul\n      dup4\n      mstore\n      swap2\n      0x20\n      add\n      swap2\n      jump(tag_328)\n    tag_329:\n      dup3\n      add\n      swap2\n      swap1\n      0x00\n      mstore\n      keccak256(0x00, 0x20)\n      swap1\n    tag_330:\n      dup2\n      sload\n      dup2\n      mstore\n      swap1\n      0x01\n      add\n      swap1\n      0x20\n      add\n      dup1\n      dup4\n      gt\n      tag_330\n      jumpi\n      dup3\n      swap1\n      sub\n      0x1f\n      and\n      dup3\n      add\n      swap2\n    tag_328:\n      pop\n      pop\n      pop\n      pop\n      pop\n      swap1\n      dup1\n      0x03\n      add\n      dup1\n      sload\n      tag_331\n      swap1\n      tag_100\n      jump\t// in\n    tag_331:\n      dup1\n      0x1f\n      add\n      0x20\n      dup1\n      swap2\n      div\n      mul\n      0x20\n      add\n      mload(0x40)\n      swap1\n      dup2\n      add\n      0x40\n      mstore\n      dup1\n      swap3\n      swap2\n      swap1\n      dup2\n      dup2\n      mstore\n      0x20\n      add\n      dup3\n      dup1\n      sload\n      tag_332\n      swap1\n      tag_100\n      jump\t// in\n    tag_332:\n      dup1\n      iszero\n      tag_333\n      jumpi\n      dup1\n      0x1f\n      lt\n      tag_334\n      jumpi\n      0x0100\n      dup1\n      dup4\n      sload\n      div\n      mul\n      dup4\n      mstore\n      swap2\n      0x20\n      add\n      swap2\n      jump(tag_333)\n    tag_334:\n      dup3\n      add\n      swap2\n      swap1\n      0x00\n      mstore\n      keccak256(0x00, 0x20)\n      swap1\n    tag_335:\n      dup2\n      sload\n      dup2\n      mstore\n      swap1\n      0x01\n      add\n      swap1\n      0x20\n      add\n      dup1\n      dup4\n      gt\n      tag_335\n      jumpi\n      dup3\n      swap1\n      sub\n      0x1f\n      and\n      dup3\n      add\n      swap2\n    tag_333:\n      pop\n      pop\n      pop\n      pop\n      pop\n      swap1\n      dup1\n      0x04\n      add\n      sload\n      swap1\n      pop\n      dup6\n      jump\t// out\n    tag_160:\n      dup3\n      dup1\n      sload\n      tag_336\n      swap1\n      tag_100\n      jump\t// in\n    tag_336:\n      swap1\n      0x00\n      mstore\n      keccak256(0x00, 0x20)\n      swap1\n      0x1f\n      add\n      0x20\n      swap1\n      div\n      dup2\n      add\n      swap3\n      dup3\n      tag_338\n      jumpi\n      0x00\n      dup6\n      sstore\n      jump(tag_341)\n    tag_338:\n      dup3\n      0x1f\n      lt\n      tag_339\n      jumpi\n      dup1\n      mload\n      not(0xff)\n      and\n      dup4\n      dup1\n      add\n      or\n      dup6\n      sstore\n      jump(tag_341)\n    tag_339:\n      dup3\n      dup1\n      add\n      0x01\n      add\n      dup6\n      sstore\n      dup3\n      iszero\n      tag_341\n      jumpi\n      swap2\n      dup3\n      add\n    tag_340:\n      dup3\n      dup2\n      gt\n      iszero\n      tag_341\n      jumpi\n      dup3\n      mload\n      dup3\n      sstore\n      swap2\n      0x20\n      add\n      swap2\n      swap1\n      0x01\n      add\n      swap1\n      jump(tag_340)\n    tag_341:\n      pop\n      tag_342\n      swap3\n      swap2\n      pop\n      tag_343\n      jump\t// in\n    tag_342:\n      pop\n      swap1\n      jump\t// out\n    tag_343:\n    tag_344:\n      dup1\n      dup3\n      gt\n      iszero\n      tag_342\n      jumpi\n      0x00\n      dup2\n      sstore\n      0x01\n      add\n      jump(tag_344)\n        /* \"#utility.yul\":14:165   */\n    tag_347:\n        /* \"#utility.yul\":90:110   */\n      dup1\n      calldataload\n        /* \"#utility.yul\":139:140   */\n      0x05\n        /* \"#utility.yul\":129:141   */\n      dup2\n      lt\n        /* \"#utility.yul\":119:121   */\n      tag_349\n      jumpi\n        /* \"#utility.yul\":155:156   */\n      0x00\n        /* \"#utility.yul\":152:153   */\n      dup1\n        /* \"#utility.yul\":145:157   */\n      revert\n        /* \"#utility.yul\":119:121   */\n    tag_349:\n        /* \"#utility.yul\":71:165   */\n      swap2\n      swap1\n      pop\n      jump\t// out\n        /* \"#utility.yul\":170:314   */\n    tag_350:\n        /* \"#utility.yul\":239:259   */\n      dup1\n      calldataload\n        /* \"#utility.yul\":288:289   */\n      0x03\n        /* \"#utility.yul\":278:290   */\n      dup2\n      lt\n        /* \"#utility.yul\":268:270   */\n      tag_349\n      jumpi\n        /* \"#utility.yul\":304:305   */\n      0x00\n        /* \"#utility.yul\":301:302   */\n      dup1\n        /* \"#utility.yul\":294:306   */\n      revert\n        /* \"#utility.yul\":319:461   */\n    tag_353:\n        /* \"#utility.yul\":391:411   */\n      dup1\n      calldataload\n        /* \"#utility.yul\":420:455   */\n      tag_349\n        /* \"#utility.yul\":391:411   */\n      dup2\n        /* \"#utility.yul\":420:455   */\n      tag_356\n      jump\t// in\n        /* \"#utility.yul\":466:1205   */\n    tag_357:\n        /* \"#utility.yul\":509:514   */\n      0x00\n        /* \"#utility.yul\":562:565   */\n      dup3\n        /* \"#utility.yul\":555:559   */\n      0x1f\n        /* \"#utility.yul\":547:553   */\n      dup4\n        /* \"#utility.yul\":543:560   */\n      add\n        /* \"#utility.yul\":539:566   */\n      slt\n        /* \"#utility.yul\":529:531   */\n      tag_359\n      jumpi\n        /* \"#utility.yul\":584:589   */\n      dup1\n        /* \"#utility.yul\":577:582   */\n      dup2\n        /* \"#utility.yul\":570:590   */\n      revert\n        /* \"#utility.yul\":529:531   */\n    tag_359:\n        /* \"#utility.yul\":624:630   */\n      dup2\n        /* \"#utility.yul\":611:631   */\n      calldataload\n        /* \"#utility.yul\":650:668   */\n      0xffffffffffffffff\n        /* \"#utility.yul\":687:689   */\n      dup1\n        /* \"#utility.yul\":683:685   */\n      dup3\n        /* \"#utility.yul\":680:690   */\n      gt\n        /* \"#utility.yul\":677:679   */\n      iszero\n      tag_361\n      jumpi\n        /* \"#utility.yul\":693:711   */\n      tag_361\n      tag_362\n      jump\t// in\n    tag_361:\n        /* \"#utility.yul\":768:770   */\n      0x40\n        /* \"#utility.yul\":762:771   */\n      mload\n        /* \"#utility.yul\":736:738   */\n      0x1f\n        /* \"#utility.yul\":822:835   */\n      dup4\n      add\n      not(0x1f)\n        /* \"#utility.yul\":818:840   */\n      swap1\n      dup2\n      and\n        /* \"#utility.yul\":842:844   */\n      0x3f\n        /* \"#utility.yul\":814:845   */\n      add\n        /* \"#utility.yul\":810:850   */\n      and\n        /* \"#utility.yul\":798:851   */\n      dup2\n      add\n      swap1\n        /* \"#utility.yul\":866:884   */\n      dup3\n      dup3\n      gt\n        /* \"#utility.yul\":886:908   */\n      dup2\n      dup4\n      lt\n        /* \"#utility.yul\":863:909   */\n      or\n        /* \"#utility.yul\":860:862   */\n      iszero\n      tag_364\n      jumpi\n        /* \"#utility.yul\":912:930   */\n      tag_364\n      tag_362\n      jump\t// in\n    tag_364:\n        /* \"#utility.yul\":952:962   */\n      dup2\n        /* \"#utility.yul\":948:950   */\n      0x40\n        /* \"#utility.yul\":941:963   */\n      mstore\n        /* \"#utility.yul\":987:989   */\n      dup4\n        /* \"#utility.yul\":979:985   */\n      dup2\n        /* \"#utility.yul\":972:990   */\n      mstore\n        /* \"#utility.yul\":1033:1036   */\n      dup7\n        /* \"#utility.yul\":1026:1030   */\n      0x20\n        /* \"#utility.yul\":1021:1023   */\n      dup6\n        /* \"#utility.yul\":1013:1019   */\n      dup9\n        /* \"#utility.yul\":1009:1024   */\n      add\n        /* \"#utility.yul\":1005:1031   */\n      add\n        /* \"#utility.yul\":1002:1037   */\n      gt\n        /* \"#utility.yul\":999:1001   */\n      iszero\n      tag_365\n      jumpi\n        /* \"#utility.yul\":1054:1059   */\n      dup5\n        /* \"#utility.yul\":1047:1052   */\n      dup6\n        /* \"#utility.yul\":1040:1060   */\n      revert\n        /* \"#utility.yul\":999:1001   */\n    tag_365:\n        /* \"#utility.yul\":1122:1124   */\n      dup4\n        /* \"#utility.yul\":1115:1119   */\n      0x20\n        /* \"#utility.yul\":1107:1113   */\n      dup8\n        /* \"#utility.yul\":1103:1120   */\n      add\n        /* \"#utility.yul\":1096:1100   */\n      0x20\n        /* \"#utility.yul\":1088:1094   */\n      dup4\n        /* \"#utility.yul\":1084:1101   */\n      add\n        /* \"#utility.yul\":1071:1125   */\n      calldatacopy\n        /* \"#utility.yul\":1145:1160   */\n      swap3\n      dup4\n      add\n        /* \"#utility.yul\":1162:1166   */\n      0x20\n        /* \"#utility.yul\":1141:1167   */\n      add\n        /* \"#utility.yul\":1134:1175   */\n      swap4\n      swap1\n      swap4\n      mstore\n      pop\n        /* \"#utility.yul\":1149:1155   */\n      swap4\n        /* \"#utility.yul\":519:1205   */\n      swap3\n      pop\n      pop\n      pop\n      jump\t// out\n        /* \"#utility.yul\":1210:2357   */\n    tag_79:\n        /* \"#utility.yul\":1358:1364   */\n      0x00\n        /* \"#utility.yul\":1366:1372   */\n      dup1\n        /* \"#utility.yul\":1374:1380   */\n      0x00\n        /* \"#utility.yul\":1382:1388   */\n      dup1\n        /* \"#utility.yul\":1390:1396   */\n      0x00\n        /* \"#utility.yul\":1443:1446   */\n      0xa0\n        /* \"#utility.yul\":1431:1440   */\n      dup7\n        /* \"#utility.yul\":1422:1429   */\n      dup9\n        /* \"#utility.yul\":1418:1441   */\n      sub\n        /* \"#utility.yul\":1414:1447   */\n      slt\n        /* \"#utility.yul\":1411:1413   */\n      iszero\n      tag_367\n      jumpi\n        /* \"#utility.yul\":1465:1471   */\n      dup1\n        /* \"#utility.yul\":1457:1463   */\n      dup2\n        /* \"#utility.yul\":1450:1472   */\n      revert\n        /* \"#utility.yul\":1411:1413   */\n    tag_367:\n        /* \"#utility.yul\":1510:1519   */\n      dup6\n        /* \"#utility.yul\":1497:1520   */\n      calldataload\n        /* \"#utility.yul\":1539:1557   */\n      0xffffffffffffffff\n        /* \"#utility.yul\":1580:1582   */\n      dup1\n        /* \"#utility.yul\":1572:1578   */\n      dup3\n        /* \"#utility.yul\":1569:1583   */\n      gt\n        /* \"#utility.yul\":1566:1568   */\n      iszero\n      tag_368\n      jumpi\n        /* \"#utility.yul\":1601:1607   */\n      dup3\n        /* \"#utility.yul\":1593:1599   */\n      dup4\n        /* \"#utility.yul\":1586:1608   */\n      revert\n        /* \"#utility.yul\":1566:1568   */\n    tag_368:\n        /* \"#utility.yul\":1629:1679   */\n      tag_369\n        /* \"#utility.yul\":1671:1678   */\n      dup10\n        /* \"#utility.yul\":1662:1668   */\n      dup4\n        /* \"#utility.yul\":1651:1660   */\n      dup11\n        /* \"#utility.yul\":1647:1669   */\n      add\n        /* \"#utility.yul\":1629:1679   */\n      tag_357\n      jump\t// in\n    tag_369:\n        /* \"#utility.yul\":1619:1679   */\n      swap7\n      pop\n        /* \"#utility.yul\":1732:1734   */\n      0x20\n        /* \"#utility.yul\":1721:1730   */\n      dup9\n        /* \"#utility.yul\":1717:1735   */\n      add\n        /* \"#utility.yul\":1704:1736   */\n      calldataload\n        /* \"#utility.yul\":1688:1736   */\n      swap2\n      pop\n        /* \"#utility.yul\":1761:1763   */\n      dup1\n        /* \"#utility.yul\":1751:1759   */\n      dup3\n        /* \"#utility.yul\":1748:1764   */\n      gt\n        /* \"#utility.yul\":1745:1747   */\n      iszero\n      tag_370\n      jumpi\n        /* \"#utility.yul\":1782:1788   */\n      dup3\n        /* \"#utility.yul\":1774:1780   */\n      dup4\n        /* \"#utility.yul\":1767:1789   */\n      revert\n        /* \"#utility.yul\":1745:1747   */\n    tag_370:\n        /* \"#utility.yul\":1810:1862   */\n      tag_371\n        /* \"#utility.yul\":1854:1861   */\n      dup10\n        /* \"#utility.yul\":1843:1851   */\n      dup4\n        /* \"#utility.yul\":1832:1841   */\n      dup11\n        /* \"#utility.yul\":1828:1852   */\n      add\n        /* \"#utility.yul\":1810:1862   */\n      tag_357\n      jump\t// in\n    tag_371:\n        /* \"#utility.yul\":1800:1862   */\n      swap6\n      pop\n        /* \"#utility.yul\":1915:1917   */\n      0x40\n        /* \"#utility.yul\":1904:1913   */\n      dup9\n        /* \"#utility.yul\":1900:1918   */\n      add\n        /* \"#utility.yul\":1887:1919   */\n      calldataload\n        /* \"#utility.yul\":1871:1919   */\n      swap2\n      pop\n        /* \"#utility.yul\":1944:1946   */\n      dup1\n        /* \"#utility.yul\":1934:1942   */\n      dup3\n        /* \"#utility.yul\":1931:1947   */\n      gt\n        /* \"#utility.yul\":1928:1930   */\n      iszero\n      tag_372\n      jumpi\n        /* \"#utility.yul\":1965:1971   */\n      dup3\n        /* \"#utility.yul\":1957:1963   */\n      dup4\n        /* \"#utility.yul\":1950:1972   */\n      revert\n        /* \"#utility.yul\":1928:1930   */\n    tag_372:\n        /* \"#utility.yul\":1993:2045   */\n      tag_373\n        /* \"#utility.yul\":2037:2044   */\n      dup10\n        /* \"#utility.yul\":2026:2034   */\n      dup4\n        /* \"#utility.yul\":2015:2024   */\n      dup11\n        /* \"#utility.yul\":2011:2035   */\n      add\n        /* \"#utility.yul\":1993:2045   */\n      tag_357\n      jump\t// in\n    tag_373:\n        /* \"#utility.yul\":1983:2045   */\n      swap5\n      pop\n        /* \"#utility.yul\":2098:2100   */\n      0x60\n        /* \"#utility.yul\":2087:2096   */\n      dup9\n        /* \"#utility.yul\":2083:2101   */\n      add\n        /* \"#utility.yul\":2070:2102   */\n      calldataload\n        /* \"#utility.yul\":2054:2102   */\n      swap2\n      pop\n        /* \"#utility.yul\":2127:2129   */\n      dup1\n        /* \"#utility.yul\":2117:2125   */\n      dup3\n        /* \"#utility.yul\":2114:2130   */\n      gt\n        /* \"#utility.yul\":2111:2113   */\n      iszero\n      tag_374\n      jumpi\n        /* \"#utility.yul\":2148:2154   */\n      dup3\n        /* \"#utility.yul\":2140:2146   */\n      dup4\n        /* \"#utility.yul\":2133:2155   */\n      revert\n        /* \"#utility.yul\":2111:2113   */\n    tag_374:\n      pop\n        /* \"#utility.yul\":2176:2228   */\n      tag_375\n        /* \"#utility.yul\":2220:2227   */\n      dup9\n        /* \"#utility.yul\":2209:2217   */\n      dup3\n        /* \"#utility.yul\":2198:2207   */\n      dup10\n        /* \"#utility.yul\":2194:2218   */\n      add\n        /* \"#utility.yul\":2176:2228   */\n      tag_357\n      jump\t// in\n    tag_375:\n        /* \"#utility.yul\":2166:2228   */\n      swap3\n      pop\n      pop\n        /* \"#utility.yul\":2278:2281   */\n      0x80\n        /* \"#utility.yul\":2267:2276   */\n      dup7\n        /* \"#utility.yul\":2263:2282   */\n      add\n        /* \"#utility.yul\":2250:2283   */\n      calldataload\n        /* \"#utility.yul\":2292:2327   */\n      tag_376\n        /* \"#utility.yul\":2321:2326   */\n      dup2\n        /* \"#utility.yul\":2292:2327   */\n      tag_356\n      jump\t// in\n    tag_376:\n        /* \"#utility.yul\":2346:2351   */\n      dup1\n        /* \"#utility.yul\":2336:2351   */\n      swap2\n      pop\n      pop\n        /* \"#utility.yul\":1401:2357   */\n      swap3\n      swap6\n      pop\n      swap3\n      swap6\n      swap1\n      swap4\n      pop\n      jump\t// out\n        /* \"#utility.yul\":2362:3837   */\n    tag_71:\n        /* \"#utility.yul\":2566:2572   */\n      0x00\n        /* \"#utility.yul\":2574:2580   */\n      dup1\n        /* \"#utility.yul\":2582:2588   */\n      0x00\n        /* \"#utility.yul\":2590:2596   */\n      dup1\n        /* \"#utility.yul\":2598:2604   */\n      0x00\n        /* \"#utility.yul\":2606:2612   */\n      dup1\n        /* \"#utility.yul\":2614:2620   */\n      0x00\n        /* \"#utility.yul\":2622:2628   */\n      dup1\n        /* \"#utility.yul\":2675:2678   */\n      0x0100\n        /* \"#utility.yul\":2663:2672   */\n      dup10\n        /* \"#utility.yul\":2654:2661   */\n      dup12\n        /* \"#utility.yul\":2650:2673   */\n      sub\n        /* \"#utility.yul\":2646:2679   */\n      slt\n        /* \"#utility.yul\":2643:2645   */\n      iszero\n      tag_378\n      jumpi\n        /* \"#utility.yul\":2697:2703   */\n      dup3\n        /* \"#utility.yul\":2689:2695   */\n      dup4\n        /* \"#utility.yul\":2682:2704   */\n      revert\n        /* \"#utility.yul\":2643:2645   */\n    tag_378:\n        /* \"#utility.yul\":2742:2751   */\n      dup9\n        /* \"#utility.yul\":2729:2752   */\n      calldataload\n        /* \"#utility.yul\":2771:2789   */\n      0xffffffffffffffff\n        /* \"#utility.yul\":2812:2814   */\n      dup1\n        /* \"#utility.yul\":2804:2810   */\n      dup3\n        /* \"#utility.yul\":2801:2815   */\n      gt\n        /* \"#utility.yul\":2798:2800   */\n      iszero\n      tag_379\n      jumpi\n        /* \"#utility.yul\":2833:2839   */\n      dup5\n        /* \"#utility.yul\":2825:2831   */\n      dup6\n        /* \"#utility.yul\":2818:2840   */\n      revert\n        /* \"#utility.yul\":2798:2800   */\n    tag_379:\n        /* \"#utility.yul\":2861:2911   */\n      tag_380\n        /* \"#utility.yul\":2903:2910   */\n      dup13\n        /* \"#utility.yul\":2894:2900   */\n      dup4\n        /* \"#utility.yul\":2883:2892   */\n      dup14\n        /* \"#utility.yul\":2879:2901   */\n      add\n        /* \"#utility.yul\":2861:2911   */\n      tag_357\n      jump\t// in\n    tag_380:\n        /* \"#utility.yul\":2851:2911   */\n      swap10\n      pop\n        /* \"#utility.yul\":2964:2966   */\n      0x20\n        /* \"#utility.yul\":2953:2962   */\n      dup12\n        /* \"#utility.yul\":2949:2967   */\n      add\n        /* \"#utility.yul\":2936:2968   */\n      calldataload\n        /* \"#utility.yul\":2920:2968   */\n      swap2\n      pop\n        /* \"#utility.yul\":2993:2995   */\n      dup1\n        /* \"#utility.yul\":2983:2991   */\n      dup3\n        /* \"#utility.yul\":2980:2996   */\n      gt\n        /* \"#utility.yul\":2977:2979   */\n      iszero\n      tag_381\n      jumpi\n        /* \"#utility.yul\":3014:3020   */\n      dup5\n        /* \"#utility.yul\":3006:3012   */\n      dup6\n        /* \"#utility.yul\":2999:3021   */\n      revert\n        /* \"#utility.yul\":2977:2979   */\n    tag_381:\n        /* \"#utility.yul\":3042:3094   */\n      tag_382\n        /* \"#utility.yul\":3086:3093   */\n      dup13\n        /* \"#utility.yul\":3075:3083   */\n      dup4\n        /* \"#utility.yul\":3064:3073   */\n      dup14\n        /* \"#utility.yul\":3060:3084   */\n      add\n        /* \"#utility.yul\":3042:3094   */\n      tag_357\n      jump\t// in\n    tag_382:\n        /* \"#utility.yul\":3032:3094   */\n      swap9\n      pop\n        /* \"#utility.yul\":3147:3149   */\n      0x40\n        /* \"#utility.yul\":3136:3145   */\n      dup12\n        /* \"#utility.yul\":3132:3150   */\n      add\n        /* \"#utility.yul\":3119:3151   */\n      calldataload\n        /* \"#utility.yul\":3103:3151   */\n      swap2\n      pop\n        /* \"#utility.yul\":3176:3178   */\n      dup1\n        /* \"#utility.yul\":3166:3174   */\n      dup3\n        /* \"#utility.yul\":3163:3179   */\n      gt\n        /* \"#utility.yul\":3160:3162   */\n      iszero\n      tag_383\n      jumpi\n        /* \"#utility.yul\":3197:3203   */\n      dup5\n        /* \"#utility.yul\":3189:3195   */\n      dup6\n        /* \"#utility.yul\":3182:3204   */\n      revert\n        /* \"#utility.yul\":3160:3162   */\n    tag_383:\n        /* \"#utility.yul\":3225:3277   */\n      tag_384\n        /* \"#utility.yul\":3269:3276   */\n      dup13\n        /* \"#utility.yul\":3258:3266   */\n      dup4\n        /* \"#utility.yul\":3247:3256   */\n      dup14\n        /* \"#utility.yul\":3243:3267   */\n      add\n        /* \"#utility.yul\":3225:3277   */\n      tag_357\n      jump\t// in\n    tag_384:\n        /* \"#utility.yul\":3215:3277   */\n      swap8\n      pop\n        /* \"#utility.yul\":3330:3332   */\n      0x60\n        /* \"#utility.yul\":3319:3328   */\n      dup12\n        /* \"#utility.yul\":3315:3333   */\n      add\n        /* \"#utility.yul\":3302:3334   */\n      calldataload\n        /* \"#utility.yul\":3286:3334   */\n      swap2\n      pop\n        /* \"#utility.yul\":3359:3361   */\n      dup1\n        /* \"#utility.yul\":3349:3357   */\n      dup3\n        /* \"#utility.yul\":3346:3362   */\n      gt\n        /* \"#utility.yul\":3343:3345   */\n      iszero\n      tag_385\n      jumpi\n        /* \"#utility.yul\":3380:3386   */\n      dup5\n        /* \"#utility.yul\":3372:3378   */\n      dup6\n        /* \"#utility.yul\":3365:3387   */\n      revert\n        /* \"#utility.yul\":3343:3345   */\n    tag_385:\n        /* \"#utility.yul\":3408:3460   */\n      tag_386\n        /* \"#utility.yul\":3452:3459   */\n      dup13\n        /* \"#utility.yul\":3441:3449   */\n      dup4\n        /* \"#utility.yul\":3430:3439   */\n      dup14\n        /* \"#utility.yul\":3426:3450   */\n      add\n        /* \"#utility.yul\":3408:3460   */\n      tag_357\n      jump\t// in\n    tag_386:\n        /* \"#utility.yul\":3398:3460   */\n      swap7\n      pop\n        /* \"#utility.yul\":3513:3516   */\n      0x80\n        /* \"#utility.yul\":3502:3511   */\n      dup12\n        /* \"#utility.yul\":3498:3517   */\n      add\n        /* \"#utility.yul\":3485:3518   */\n      calldataload\n        /* \"#utility.yul\":3469:3518   */\n      swap2\n      pop\n        /* \"#utility.yul\":3543:3545   */\n      dup1\n        /* \"#utility.yul\":3533:3541   */\n      dup3\n        /* \"#utility.yul\":3530:3546   */\n      gt\n        /* \"#utility.yul\":3527:3529   */\n      iszero\n      tag_387\n      jumpi\n        /* \"#utility.yul\":3564:3570   */\n      dup5\n        /* \"#utility.yul\":3556:3562   */\n      dup6\n        /* \"#utility.yul\":3549:3571   */\n      revert\n        /* \"#utility.yul\":3527:3529   */\n    tag_387:\n      pop\n        /* \"#utility.yul\":3592:3644   */\n      tag_388\n        /* \"#utility.yul\":3636:3643   */\n      dup12\n        /* \"#utility.yul\":3625:3633   */\n      dup3\n        /* \"#utility.yul\":3614:3623   */\n      dup13\n        /* \"#utility.yul\":3610:3634   */\n      add\n        /* \"#utility.yul\":3592:3644   */\n      tag_357\n      jump\t// in\n    tag_388:\n        /* \"#utility.yul\":3582:3644   */\n      swap5\n      pop\n      pop\n        /* \"#utility.yul\":3663:3710   */\n      tag_389\n        /* \"#utility.yul\":3705:3708   */\n      0xa0\n        /* \"#utility.yul\":3694:3703   */\n      dup11\n        /* \"#utility.yul\":3690:3709   */\n      add\n        /* \"#utility.yul\":3663:3710   */\n      tag_347\n      jump\t// in\n    tag_389:\n        /* \"#utility.yul\":3653:3710   */\n      swap3\n      pop\n        /* \"#utility.yul\":3729:3769   */\n      tag_390\n        /* \"#utility.yul\":3764:3767   */\n      0xc0\n        /* \"#utility.yul\":3753:3762   */\n      dup11\n        /* \"#utility.yul\":3749:3768   */\n      add\n        /* \"#utility.yul\":3729:3769   */\n      tag_350\n      jump\t// in\n    tag_390:\n        /* \"#utility.yul\":3719:3769   */\n      swap2\n      pop\n        /* \"#utility.yul\":3788:3831   */\n      tag_391\n        /* \"#utility.yul\":3826:3829   */\n      0xe0\n        /* \"#utility.yul\":3815:3824   */\n      dup11\n        /* \"#utility.yul\":3811:3830   */\n      add\n        /* \"#utility.yul\":3788:3831   */\n      tag_353\n      jump\t// in\n    tag_391:\n        /* \"#utility.yul\":3778:3831   */\n      swap1\n      pop\n        /* \"#utility.yul\":2633:3837   */\n      swap3\n      swap6\n      swap9\n      pop\n      swap3\n      swap6\n      swap9\n      swap1\n      swap4\n      swap7\n      pop\n      jump\t// out\n        /* \"#utility.yul\":3842:4974   */\n    tag_75:\n        /* \"#utility.yul\":3986:3992   */\n      0x00\n        /* \"#utility.yul\":3994:4000   */\n      dup1\n        /* \"#utility.yul\":4002:4008   */\n      0x00\n        /* \"#utility.yul\":4010:4016   */\n      dup1\n        /* \"#utility.yul\":4018:4024   */\n      0x00\n        /* \"#utility.yul\":4026:4032   */\n      dup1\n        /* \"#utility.yul\":4079:4082   */\n      0xc0\n        /* \"#utility.yul\":4067:4076   */\n      dup8\n        /* \"#utility.yul\":4058:4065   */\n      dup10\n        /* \"#utility.yul\":4054:4077   */\n      sub\n        /* \"#utility.yul\":4050:4083   */\n      slt\n        /* \"#utility.yul\":4047:4049   */\n      iszero\n      tag_393\n      jumpi\n        /* \"#utility.yul\":4101:4107   */\n      dup2\n        /* \"#utility.yul\":4093:4099   */\n      dup3\n        /* \"#utility.yul\":4086:4108   */\n      revert\n        /* \"#utility.yul\":4047:4049   */\n    tag_393:\n        /* \"#utility.yul\":4146:4155   */\n      dup7\n        /* \"#utility.yul\":4133:4156   */\n      calldataload\n        /* \"#utility.yul\":4175:4193   */\n      0xffffffffffffffff\n        /* \"#utility.yul\":4216:4218   */\n      dup1\n        /* \"#utility.yul\":4208:4214   */\n      dup3\n        /* \"#utility.yul\":4205:4219   */\n      gt\n        /* \"#utility.yul\":4202:4204   */\n      iszero\n      tag_394\n      jumpi\n        /* \"#utility.yul\":4237:4243   */\n      dup4\n        /* \"#utility.yul\":4229:4235   */\n      dup5\n        /* \"#utility.yul\":4222:4244   */\n      revert\n        /* \"#utility.yul\":4202:4204   */\n    tag_394:\n        /* \"#utility.yul\":4265:4315   */\n      tag_395\n        /* \"#utility.yul\":4307:4314   */\n      dup11\n        /* \"#utility.yul\":4298:4304   */\n      dup4\n        /* \"#utility.yul\":4287:4296   */\n      dup12\n        /* \"#utility.yul\":4283:4305   */\n      add\n        /* \"#utility.yul\":4265:4315   */\n      tag_357\n      jump\t// in\n    tag_395:\n        /* \"#utility.yul\":4255:4315   */\n      swap8\n      pop\n        /* \"#utility.yul\":4368:4370   */\n      0x20\n        /* \"#utility.yul\":4357:4366   */\n      dup10\n        /* \"#utility.yul\":4353:4371   */\n      add\n        /* \"#utility.yul\":4340:4372   */\n      calldataload\n        /* \"#utility.yul\":4324:4372   */\n      swap2\n      pop\n        /* \"#utility.yul\":4397:4399   */\n      dup1\n        /* \"#utility.yul\":4387:4395   */\n      dup3\n        /* \"#utility.yul\":4384:4400   */\n      gt\n        /* \"#utility.yul\":4381:4383   */\n      iszero\n      tag_396\n      jumpi\n        /* \"#utility.yul\":4418:4424   */\n      dup4\n        /* \"#utility.yul\":4410:4416   */\n      dup5\n        /* \"#utility.yul\":4403:4425   */\n      revert\n        /* \"#utility.yul\":4381:4383   */\n    tag_396:\n        /* \"#utility.yul\":4446:4498   */\n      tag_397\n        /* \"#utility.yul\":4490:4497   */\n      dup11\n        /* \"#utility.yul\":4479:4487   */\n      dup4\n        /* \"#utility.yul\":4468:4477   */\n      dup12\n        /* \"#utility.yul\":4464:4488   */\n      add\n        /* \"#utility.yul\":4446:4498   */\n      tag_357\n      jump\t// in\n    tag_397:\n        /* \"#utility.yul\":4436:4498   */\n      swap7\n      pop\n        /* \"#utility.yul\":4551:4553   */\n      0x40\n        /* \"#utility.yul\":4540:4549   */\n      dup10\n        /* \"#utility.yul\":4536:4554   */\n      add\n        /* \"#utility.yul\":4523:4555   */\n      calldataload\n        /* \"#utility.yul\":4507:4555   */\n      swap2\n      pop\n        /* \"#utility.yul\":4580:4582   */\n      dup1\n        /* \"#utility.yul\":4570:4578   */\n      dup3\n        /* \"#utility.yul\":4567:4583   */\n      gt\n        /* \"#utility.yul\":4564:4566   */\n      iszero\n      tag_398\n      jumpi\n        /* \"#utility.yul\":4601:4607   */\n      dup4\n        /* \"#utility.yul\":4593:4599   */\n      dup5\n        /* \"#utility.yul\":4586:4608   */\n      revert\n        /* \"#utility.yul\":4564:4566   */\n    tag_398:\n        /* \"#utility.yul\":4629:4681   */\n      tag_399\n        /* \"#utility.yul\":4673:4680   */\n      dup11\n        /* \"#utility.yul\":4662:4670   */\n      dup4\n        /* \"#utility.yul\":4651:4660   */\n      dup12\n        /* \"#utility.yul\":4647:4671   */\n      add\n        /* \"#utility.yul\":4629:4681   */\n      tag_357\n      jump\t// in\n    tag_399:\n        /* \"#utility.yul\":4619:4681   */\n      swap6\n      pop\n        /* \"#utility.yul\":4734:4736   */\n      0x60\n        /* \"#utility.yul\":4723:4732   */\n      dup10\n        /* \"#utility.yul\":4719:4737   */\n      add\n        /* \"#utility.yul\":4706:4738   */\n      calldataload\n        /* \"#utility.yul\":4690:4738   */\n      swap2\n      pop\n        /* \"#utility.yul\":4763:4765   */\n      dup1\n        /* \"#utility.yul\":4753:4761   */\n      dup3\n        /* \"#utility.yul\":4750:4766   */\n      gt\n        /* \"#utility.yul\":4747:4749   */\n      iszero\n      tag_400\n      jumpi\n        /* \"#utility.yul\":4784:4790   */\n      dup4\n        /* \"#utility.yul\":4776:4782   */\n      dup5\n        /* \"#utility.yul\":4769:4791   */\n      revert\n        /* \"#utility.yul\":4747:4749   */\n    tag_400:\n      pop\n        /* \"#utility.yul\":4812:4864   */\n      tag_401\n        /* \"#utility.yul\":4856:4863   */\n      dup10\n        /* \"#utility.yul\":4845:4853   */\n      dup3\n        /* \"#utility.yul\":4834:4843   */\n      dup11\n        /* \"#utility.yul\":4830:4854   */\n      add\n        /* \"#utility.yul\":4812:4864   */\n      tag_357\n      jump\t// in\n    tag_401:\n        /* \"#utility.yul\":4802:4864   */\n      swap4\n      pop\n      pop\n        /* \"#utility.yul\":4911:4914   */\n      0x80\n        /* \"#utility.yul\":4900:4909   */\n      dup8\n        /* \"#utility.yul\":4896:4915   */\n      add\n        /* \"#utility.yul\":4883:4916   */\n      calldataload\n        /* \"#utility.yul\":4873:4916   */\n      swap2\n      pop\n        /* \"#utility.yul\":4963:4966   */\n      0xa0\n        /* \"#utility.yul\":4952:4961   */\n      dup8\n        /* \"#utility.yul\":4948:4967   */\n      add\n        /* \"#utility.yul\":4935:4968   */\n      calldataload\n        /* \"#utility.yul\":4925:4968   */\n      swap1\n      pop\n        /* \"#utility.yul\":4037:4974   */\n      swap3\n      swap6\n      pop\n      swap3\n      swap6\n      pop\n      swap3\n      swap6\n      jump\t// out\n        /* \"#utility.yul\":4979:5758   */\n    tag_67:\n        /* \"#utility.yul\":5094:5100   */\n      0x00\n        /* \"#utility.yul\":5102:5108   */\n      dup1\n        /* \"#utility.yul\":5110:5116   */\n      0x00\n        /* \"#utility.yul\":5118:5124   */\n      dup1\n        /* \"#utility.yul\":5126:5132   */\n      0x00\n        /* \"#utility.yul\":5179:5182   */\n      0xa0\n        /* \"#utility.yul\":5167:5176   */\n      dup7\n        /* \"#utility.yul\":5158:5165   */\n      dup9\n        /* \"#utility.yul\":5154:5177   */\n      sub\n        /* \"#utility.yul\":5150:5183   */\n      slt\n        /* \"#utility.yul\":5147:5149   */\n      iszero\n      tag_403\n      jumpi\n        /* \"#utility.yul\":5201:5207   */\n      dup1\n        /* \"#utility.yul\":5193:5199   */\n      dup2\n        /* \"#utility.yul\":5186:5208   */\n      revert\n        /* \"#utility.yul\":5147:5149   */\n    tag_403:\n        /* \"#utility.yul\":5246:5255   */\n      dup6\n        /* \"#utility.yul\":5233:5256   */\n      calldataload\n        /* \"#utility.yul\":5275:5293   */\n      0xffffffffffffffff\n        /* \"#utility.yul\":5316:5318   */\n      dup1\n        /* \"#utility.yul\":5308:5314   */\n      dup3\n        /* \"#utility.yul\":5305:5319   */\n      gt\n        /* \"#utility.yul\":5302:5304   */\n      iszero\n      tag_404\n      jumpi\n        /* \"#utility.yul\":5337:5343   */\n      dup3\n        /* \"#utility.yul\":5329:5335   */\n      dup4\n        /* \"#utility.yul\":5322:5344   */\n      revert\n        /* \"#utility.yul\":5302:5304   */\n    tag_404:\n        /* \"#utility.yul\":5365:5415   */\n      tag_405\n        /* \"#utility.yul\":5407:5414   */\n      dup10\n        /* \"#utility.yul\":5398:5404   */\n      dup4\n        /* \"#utility.yul\":5387:5396   */\n      dup11\n        /* \"#utility.yul\":5383:5405   */\n      add\n        /* \"#utility.yul\":5365:5415   */\n      tag_357\n      jump\t// in\n    tag_405:\n        /* \"#utility.yul\":5355:5415   */\n      swap7\n      pop\n        /* \"#utility.yul\":5468:5470   */\n      0x20\n        /* \"#utility.yul\":5457:5466   */\n      dup9\n        /* \"#utility.yul\":5453:5471   */\n      add\n        /* \"#utility.yul\":5440:5472   */\n      calldataload\n        /* \"#utility.yul\":5424:5472   */\n      swap2\n      pop\n        /* \"#utility.yul\":5497:5499   */\n      dup1\n        /* \"#utility.yul\":5487:5495   */\n      dup3\n        /* \"#utility.yul\":5484:5500   */\n      gt\n        /* \"#utility.yul\":5481:5483   */\n      iszero\n      tag_406\n      jumpi\n        /* \"#utility.yul\":5518:5524   */\n      dup3\n        /* \"#utility.yul\":5510:5516   */\n      dup4\n        /* \"#utility.yul\":5503:5525   */\n      revert\n        /* \"#utility.yul\":5481:5483   */\n    tag_406:\n      pop\n        /* \"#utility.yul\":5546:5598   */\n      tag_407\n        /* \"#utility.yul\":5590:5597   */\n      dup9\n        /* \"#utility.yul\":5579:5587   */\n      dup3\n        /* \"#utility.yul\":5568:5577   */\n      dup10\n        /* \"#utility.yul\":5564:5588   */\n      add\n        /* \"#utility.yul\":5546:5598   */\n      tag_357\n      jump\t// in\n    tag_407:\n        /* \"#utility.yul\":5137:5758   */\n      swap6\n      swap9\n        /* \"#utility.yul\":5536:5598   */\n      swap6\n      swap8\n      pop\n      pop\n      pop\n      pop\n        /* \"#utility.yul\":5645:5647   */\n      0x40\n        /* \"#utility.yul\":5630:5648   */\n      dup5\n      add\n        /* \"#utility.yul\":5617:5649   */\n      calldataload\n      swap4\n        /* \"#utility.yul\":5696:5698   */\n      0x60\n        /* \"#utility.yul\":5681:5699   */\n      dup2\n      add\n        /* \"#utility.yul\":5668:5700   */\n      calldataload\n      swap4\n        /* \"#utility.yul\":5747:5750   */\n      0x80\n        /* \"#utility.yul\":5732:5751   */\n      swap1\n      swap2\n      add\n        /* \"#utility.yul\":5719:5752   */\n      calldataload\n      swap3\n      pop\n        /* \"#utility.yul\":5137:5758   */\n      swap1\n      pop\n      jump\t// out\n        /* \"#utility.yul\":5763:5953   */\n    tag_28:\n        /* \"#utility.yul\":5822:5828   */\n      0x00\n        /* \"#utility.yul\":5875:5877   */\n      0x20\n        /* \"#utility.yul\":5863:5872   */\n      dup3\n        /* \"#utility.yul\":5854:5861   */\n      dup5\n        /* \"#utility.yul\":5850:5873   */\n      sub\n        /* \"#utility.yul\":5846:5878   */\n      slt\n        /* \"#utility.yul\":5843:5845   */\n      iszero\n      tag_409\n      jumpi\n        /* \"#utility.yul\":5896:5902   */\n      dup1\n        /* \"#utility.yul\":5888:5894   */\n      dup2\n        /* \"#utility.yul\":5881:5903   */\n      revert\n        /* \"#utility.yul\":5843:5845   */\n    tag_409:\n      pop\n        /* \"#utility.yul\":5924:5947   */\n      calldataload\n      swap2\n        /* \"#utility.yul\":5833:5953   */\n      swap1\n      pop\n      jump\t// out\n        /* \"#utility.yul\":5958:6216   */\n    tag_39:\n        /* \"#utility.yul\":6026:6032   */\n      0x00\n        /* \"#utility.yul\":6034:6040   */\n      dup1\n        /* \"#utility.yul\":6087:6089   */\n      0x40\n        /* \"#utility.yul\":6075:6084   */\n      dup4\n        /* \"#utility.yul\":6066:6073   */\n      dup6\n        /* \"#utility.yul\":6062:6085   */\n      sub\n        /* \"#utility.yul\":6058:6090   */\n      slt\n        /* \"#utility.yul\":6055:6057   */\n      iszero\n      tag_411\n      jumpi\n        /* \"#utility.yul\":6108:6114   */\n      dup2\n        /* \"#utility.yul\":6100:6106   */\n      dup3\n        /* \"#utility.yul\":6093:6115   */\n      revert\n        /* \"#utility.yul\":6055:6057   */\n    tag_411:\n      pop\n      pop\n        /* \"#utility.yul\":6136:6159   */\n      dup1\n      calldataload\n      swap3\n        /* \"#utility.yul\":6206:6208   */\n      0x20\n        /* \"#utility.yul\":6191:6209   */\n      swap1\n      swap2\n      add\n        /* \"#utility.yul\":6178:6210   */\n      calldataload\n      swap2\n      pop\n        /* \"#utility.yul\":6045:6216   */\n      jump\t// out\n        /* \"#utility.yul\":6221:6627   */\n    tag_53:\n        /* \"#utility.yul\":6307:6313   */\n      0x00\n        /* \"#utility.yul\":6315:6321   */\n      dup1\n        /* \"#utility.yul\":6323:6329   */\n      0x00\n        /* \"#utility.yul\":6376:6378   */\n      0x60\n        /* \"#utility.yul\":6364:6373   */\n      dup5\n        /* \"#utility.yul\":6355:6362   */\n      dup7\n        /* \"#utility.yul\":6351:6374   */\n      sub\n        /* \"#utility.yul\":6347:6379   */\n      slt\n        /* \"#utility.yul\":6344:6346   */\n      iszero\n      tag_413\n      jumpi\n        /* \"#utility.yul\":6397:6403   */\n      dup3\n        /* \"#utility.yul\":6389:6395   */\n      dup4\n        /* \"#utility.yul\":6382:6404   */\n      revert\n        /* \"#utility.yul\":6344:6346   */\n    tag_413:\n        /* \"#utility.yul\":6438:6447   */\n      dup4\n        /* \"#utility.yul\":6425:6448   */\n      calldataload\n        /* \"#utility.yul\":6415:6448   */\n      swap3\n      pop\n        /* \"#utility.yul\":6495:6497   */\n      0x20\n        /* \"#utility.yul\":6484:6493   */\n      dup5\n        /* \"#utility.yul\":6480:6498   */\n      add\n        /* \"#utility.yul\":6467:6499   */\n      calldataload\n        /* \"#utility.yul\":6457:6499   */\n      swap2\n      pop\n        /* \"#utility.yul\":6549:6551   */\n      0x40\n        /* \"#utility.yul\":6538:6547   */\n      dup5\n        /* \"#utility.yul\":6534:6552   */\n      add\n        /* \"#utility.yul\":6521:6553   */\n      calldataload\n        /* \"#utility.yul\":6562:6597   */\n      tag_414\n        /* \"#utility.yul\":6591:6596   */\n      dup2\n        /* \"#utility.yul\":6562:6597   */\n      tag_356\n      jump\t// in\n    tag_414:\n        /* \"#utility.yul\":6616:6621   */\n      dup1\n        /* \"#utility.yul\":6606:6621   */\n      swap2\n      pop\n      pop\n        /* \"#utility.yul\":6334:6627   */\n      swap3\n      pop\n      swap3\n      pop\n      swap3\n      jump\t// out\n        /* \"#utility.yul\":6632:7553   */\n    tag_49:\n        /* \"#utility.yul\":6757:6763   */\n      0x00\n        /* \"#utility.yul\":6765:6771   */\n      dup1\n        /* \"#utility.yul\":6773:6779   */\n      0x00\n        /* \"#utility.yul\":6781:6787   */\n      dup1\n        /* \"#utility.yul\":6789:6795   */\n      0x00\n        /* \"#utility.yul\":6842:6845   */\n      0xa0\n        /* \"#utility.yul\":6830:6839   */\n      dup7\n        /* \"#utility.yul\":6821:6828   */\n      dup9\n        /* \"#utility.yul\":6817:6840   */\n      sub\n        /* \"#utility.yul\":6813:6846   */\n      slt\n        /* \"#utility.yul\":6810:6812   */\n      iszero\n      tag_416\n      jumpi\n        /* \"#utility.yul\":6864:6870   */\n      dup1\n        /* \"#utility.yul\":6856:6862   */\n      dup2\n        /* \"#utility.yul\":6849:6871   */\n      revert\n        /* \"#utility.yul\":6810:6812   */\n    tag_416:\n        /* \"#utility.yul\":6905:6914   */\n      dup6\n        /* \"#utility.yul\":6892:6915   */\n      calldataload\n        /* \"#utility.yul\":6882:6915   */\n      swap5\n      pop\n        /* \"#utility.yul\":6962:6964   */\n      0x20\n        /* \"#utility.yul\":6951:6960   */\n      dup7\n        /* \"#utility.yul\":6947:6965   */\n      add\n        /* \"#utility.yul\":6934:6966   */\n      calldataload\n        /* \"#utility.yul\":6924:6966   */\n      swap4\n      pop\n        /* \"#utility.yul\":7017:7019   */\n      0x40\n        /* \"#utility.yul\":7006:7015   */\n      dup7\n        /* \"#utility.yul\":7002:7020   */\n      add\n        /* \"#utility.yul\":6989:7021   */\n      calldataload\n        /* \"#utility.yul\":7040:7058   */\n      0xffffffffffffffff\n        /* \"#utility.yul\":7081:7083   */\n      dup1\n        /* \"#utility.yul\":7073:7079   */\n      dup3\n        /* \"#utility.yul\":7070:7084   */\n      gt\n        /* \"#utility.yul\":7067:7069   */\n      iszero\n      tag_417\n      jumpi\n        /* \"#utility.yul\":7102:7108   */\n      dup3\n        /* \"#utility.yul\":7094:7100   */\n      dup4\n        /* \"#utility.yul\":7087:7109   */\n      revert\n        /* \"#utility.yul\":7067:7069   */\n    tag_417:\n        /* \"#utility.yul\":7130:7180   */\n      tag_418\n        /* \"#utility.yul\":7172:7179   */\n      dup10\n        /* \"#utility.yul\":7163:7169   */\n      dup4\n        /* \"#utility.yul\":7152:7161   */\n      dup11\n        /* \"#utility.yul\":7148:7170   */\n      add\n        /* \"#utility.yul\":7130:7180   */\n      tag_357\n      jump\t// in\n    tag_418:\n        /* \"#utility.yul\":7120:7180   */\n      swap5\n      pop\n        /* \"#utility.yul\":7233:7235   */\n      0x60\n        /* \"#utility.yul\":7222:7231   */\n      dup9\n        /* \"#utility.yul\":7218:7236   */\n      add\n        /* \"#utility.yul\":7205:7237   */\n      calldataload\n        /* \"#utility.yul\":7189:7237   */\n      swap2\n      pop\n        /* \"#utility.yul\":7262:7264   */\n      dup1\n        /* \"#utility.yul\":7252:7260   */\n      dup3\n        /* \"#utility.yul\":7249:7265   */\n      gt\n        /* \"#utility.yul\":7246:7248   */\n      iszero\n      tag_419\n      jumpi\n        /* \"#utility.yul\":7283:7289   */\n      dup3\n        /* \"#utility.yul\":7275:7281   */\n      dup4\n        /* \"#utility.yul\":7268:7290   */\n      revert\n        /* \"#utility.yul\":7246:7248   */\n    tag_419:\n        /* \"#utility.yul\":7311:7363   */\n      tag_420\n        /* \"#utility.yul\":7355:7362   */\n      dup10\n        /* \"#utility.yul\":7344:7352   */\n      dup4\n        /* \"#utility.yul\":7333:7342   */\n      dup11\n        /* \"#utility.yul\":7329:7353   */\n      add\n        /* \"#utility.yul\":7311:7363   */\n      tag_357\n      jump\t// in\n    tag_420:\n        /* \"#utility.yul\":7301:7363   */\n      swap4\n      pop\n        /* \"#utility.yul\":7416:7419   */\n      0x80\n        /* \"#utility.yul\":7405:7414   */\n      dup9\n        /* \"#utility.yul\":7401:7420   */\n      add\n        /* \"#utility.yul\":7388:7421   */\n      calldataload\n        /* \"#utility.yul\":7372:7421   */\n      swap2\n      pop\n        /* \"#utility.yul\":7446:7448   */\n      dup1\n        /* \"#utility.yul\":7436:7444   */\n      dup3\n        /* \"#utility.yul\":7433:7449   */\n      gt\n        /* \"#utility.yul\":7430:7432   */\n      iszero\n      tag_421\n      jumpi\n        /* \"#utility.yul\":7467:7473   */\n      dup3\n        /* \"#utility.yul\":7459:7465   */\n      dup4\n        /* \"#utility.yul\":7452:7474   */\n      revert\n        /* \"#utility.yul\":7430:7432   */\n    tag_421:\n      pop\n        /* \"#utility.yul\":7495:7547   */\n      tag_422\n        /* \"#utility.yul\":7539:7546   */\n      dup9\n        /* \"#utility.yul\":7528:7536   */\n      dup3\n        /* \"#utility.yul\":7517:7526   */\n      dup10\n        /* \"#utility.yul\":7513:7537   */\n      add\n        /* \"#utility.yul\":7495:7547   */\n      tag_357\n      jump\t// in\n    tag_422:\n        /* \"#utility.yul\":7485:7547   */\n      swap2\n      pop\n      pop\n        /* \"#utility.yul\":6800:7553   */\n      swap3\n      swap6\n      pop\n      swap3\n      swap6\n      swap1\n      swap4\n      pop\n      jump\t// out\n        /* \"#utility.yul\":7558:7884   */\n    tag_24:\n        /* \"#utility.yul\":7635:7641   */\n      0x00\n        /* \"#utility.yul\":7643:7649   */\n      dup1\n        /* \"#utility.yul\":7651:7657   */\n      0x00\n        /* \"#utility.yul\":7704:7706   */\n      0x60\n        /* \"#utility.yul\":7692:7701   */\n      dup5\n        /* \"#utility.yul\":7683:7690   */\n      dup7\n        /* \"#utility.yul\":7679:7702   */\n      sub\n        /* \"#utility.yul\":7675:7707   */\n      slt\n        /* \"#utility.yul\":7672:7674   */\n      iszero\n      tag_424\n      jumpi\n        /* \"#utility.yul\":7725:7731   */\n      dup3\n        /* \"#utility.yul\":7717:7723   */\n      dup4\n        /* \"#utility.yul\":7710:7732   */\n      revert\n        /* \"#utility.yul\":7672:7674   */\n    tag_424:\n      pop\n      pop\n        /* \"#utility.yul\":7753:7776   */\n      dup2\n      calldataload\n      swap4\n        /* \"#utility.yul\":7823:7825   */\n      0x20\n        /* \"#utility.yul\":7808:7826   */\n      dup4\n      add\n        /* \"#utility.yul\":7795:7827   */\n      calldataload\n      swap4\n      pop\n        /* \"#utility.yul\":7874:7876   */\n      0x40\n        /* \"#utility.yul\":7859:7877   */\n      swap1\n      swap3\n      add\n        /* \"#utility.yul\":7846:7878   */\n      calldataload\n      swap2\n        /* \"#utility.yul\":7662:7884   */\n      swap1\n      pop\n      jump\t// out\n        /* \"#utility.yul\":7889:8284   */\n    tag_45:\n        /* \"#utility.yul\":7975:7981   */\n      0x00\n        /* \"#utility.yul\":7983:7989   */\n      dup1\n        /* \"#utility.yul\":7991:7997   */\n      0x00\n        /* \"#utility.yul\":7999:8005   */\n      dup1\n        /* \"#utility.yul\":8052:8055   */\n      0x80\n        /* \"#utility.yul\":8040:8049   */\n      dup6\n        /* \"#utility.yul\":8031:8038   */\n      dup8\n        /* \"#utility.yul\":8027:8050   */\n      sub\n        /* \"#utility.yul\":8023:8056   */\n      slt\n        /* \"#utility.yul\":8020:8022   */\n      iszero\n      tag_426\n      jumpi\n        /* \"#utility.yul\":8074:8080   */\n      dup2\n        /* \"#utility.yul\":8066:8072   */\n      dup3\n        /* \"#utility.yul\":8059:8081   */\n      revert\n        /* \"#utility.yul\":8020:8022   */\n    tag_426:\n      pop\n      pop\n        /* \"#utility.yul\":8102:8125   */\n      dup3\n      calldataload\n      swap5\n        /* \"#utility.yul\":8172:8174   */\n      0x20\n        /* \"#utility.yul\":8157:8175   */\n      dup5\n      add\n        /* \"#utility.yul\":8144:8176   */\n      calldataload\n      swap5\n      pop\n        /* \"#utility.yul\":8223:8225   */\n      0x40\n        /* \"#utility.yul\":8208:8226   */\n      dup5\n      add\n        /* \"#utility.yul\":8195:8227   */\n      calldataload\n      swap4\n        /* \"#utility.yul\":8274:8276   */\n      0x60\n        /* \"#utility.yul\":8259:8277   */\n      add\n        /* \"#utility.yul\":8246:8278   */\n      calldataload\n      swap3\n      pop\n        /* \"#utility.yul\":8010:8284   */\n      swap1\n      pop\n      jump\t// out\n        /* \"#utility.yul\":8289:8547   */\n    tag_427:\n        /* \"#utility.yul\":8331:8334   */\n      0x00\n        /* \"#utility.yul\":8369:8374   */\n      dup2\n        /* \"#utility.yul\":8363:8375   */\n      mload\n        /* \"#utility.yul\":8396:8402   */\n      dup1\n        /* \"#utility.yul\":8391:8394   */\n      dup5\n        /* \"#utility.yul\":8384:8403   */\n      mstore\n        /* \"#utility.yul\":8412:8475   */\n      tag_429\n        /* \"#utility.yul\":8468:8474   */\n      dup2\n        /* \"#utility.yul\":8461:8465   */\n      0x20\n        /* \"#utility.yul\":8456:8459   */\n      dup7\n        /* \"#utility.yul\":8452:8466   */\n      add\n        /* \"#utility.yul\":8445:8449   */\n      0x20\n        /* \"#utility.yul\":8438:8443   */\n      dup7\n        /* \"#utility.yul\":8434:8450   */\n      add\n        /* \"#utility.yul\":8412:8475   */\n      tag_430\n      jump\t// in\n    tag_429:\n        /* \"#utility.yul\":8529:8531   */\n      0x1f\n        /* \"#utility.yul\":8508:8523   */\n      add\n      not(0x1f)\n        /* \"#utility.yul\":8504:8533   */\n      and\n        /* \"#utility.yul\":8495:8534   */\n      swap3\n      swap1\n      swap3\n      add\n        /* \"#utility.yul\":8536:8540   */\n      0x20\n        /* \"#utility.yul\":8491:8541   */\n      add\n      swap3\n        /* \"#utility.yul\":8339:8547   */\n      swap2\n      pop\n      pop\n      jump\t// out\n        /* \"#utility.yul\":8552:9660   */\n    tag_224:\n        /* \"#utility.yul\":8682:8685   */\n      0x00\n        /* \"#utility.yul\":8711:8714   */\n      dup1\n        /* \"#utility.yul\":8746:8752   */\n      dup4\n        /* \"#utility.yul\":8740:8753   */\n      sload\n        /* \"#utility.yul\":8776:8779   */\n      dup3\n        /* \"#utility.yul\":8798:8799   */\n      0x01\n        /* \"#utility.yul\":8826:8835   */\n      dup3\n        /* \"#utility.yul\":8822:8824   */\n      dup2\n        /* \"#utility.yul\":8818:8836   */\n      shr\n        /* \"#utility.yul\":8808:8836   */\n      swap2\n      pop\n        /* \"#utility.yul\":8886:8888   */\n      dup1\n        /* \"#utility.yul\":8875:8884   */\n      dup4\n        /* \"#utility.yul\":8871:8889   */\n      and\n        /* \"#utility.yul\":8908:8926   */\n      dup1\n        /* \"#utility.yul\":8898:8900   */\n      tag_432\n      jumpi\n        /* \"#utility.yul\":8952:8956   */\n      0x7f\n        /* \"#utility.yul\":8944:8950   */\n      dup4\n        /* \"#utility.yul\":8940:8957   */\n      and\n        /* \"#utility.yul\":8930:8957   */\n      swap3\n      pop\n        /* \"#utility.yul\":8898:8900   */\n    tag_432:\n        /* \"#utility.yul\":8978:8980   */\n      0x20\n        /* \"#utility.yul\":9026:9028   */\n      dup1\n        /* \"#utility.yul\":9018:9024   */\n      dup5\n        /* \"#utility.yul\":9015:9029   */\n      lt\n        /* \"#utility.yul\":8995:9013   */\n      dup3\n        /* \"#utility.yul\":8992:9030   */\n      eq\n        /* \"#utility.yul\":8989:8991   */\n      iszero\n      tag_433\n      jumpi\n      shl(0xe0, 0x4e487b71)\n        /* \"#utility.yul\":9053:9086   */\n      dup8\n      mstore\n        /* \"#utility.yul\":9109:9113   */\n      0x22\n        /* \"#utility.yul\":9106:9107   */\n      0x04\n        /* \"#utility.yul\":9099:9114   */\n      mstore\n        /* \"#utility.yul\":9139:9143   */\n      0x24\n        /* \"#utility.yul\":9060:9063   */\n      dup8\n        /* \"#utility.yul\":9127:9144   */\n      revert\n        /* \"#utility.yul\":8989:8991   */\n    tag_433:\n        /* \"#utility.yul\":9170:9188   */\n      dup2\n        /* \"#utility.yul\":9197:9301   */\n      dup1\n      iszero\n      tag_435\n      jumpi\n        /* \"#utility.yul\":9315:9316   */\n      0x01\n        /* \"#utility.yul\":9310:9635   */\n      dup2\n      eq\n      tag_436\n      jumpi\n        /* \"#utility.yul\":9163:9635   */\n      jump(tag_434)\n        /* \"#utility.yul\":9197:9301   */\n    tag_435:\n      not(0xff)\n        /* \"#utility.yul\":9230:9254   */\n      dup7\n      and\n        /* \"#utility.yul\":9218:9255   */\n      dup10\n      mstore\n        /* \"#utility.yul\":9275:9291   */\n      dup5\n      dup10\n      add\n      swap7\n      pop\n        /* \"#utility.yul\":9197:9301   */\n      jump(tag_434)\n        /* \"#utility.yul\":9310:9635   */\n    tag_436:\n        /* \"#utility.yul\":21217:21221   */\n      0x00\n        /* \"#utility.yul\":21236:21253   */\n      dup11\n      dup2\n      mstore\n        /* \"#utility.yul\":21286:21290   */\n      0x20\n        /* \"#utility.yul\":21270:21291   */\n      swap1\n      keccak256\n        /* \"#utility.yul\":9408:9411   */\n      dup9\n        /* \"#utility.yul\":9424:9589   */\n    tag_439:\n        /* \"#utility.yul\":9438:9444   */\n      dup7\n        /* \"#utility.yul\":9435:9436   */\n      dup2\n        /* \"#utility.yul\":9432:9445   */\n      lt\n        /* \"#utility.yul\":9424:9589   */\n      iszero\n      tag_441\n      jumpi\n        /* \"#utility.yul\":9516:9530   */\n      dup2\n      sload\n        /* \"#utility.yul\":9503:9514   */\n      dup12\n      dup3\n      add\n        /* \"#utility.yul\":9496:9531   */\n      mstore\n        /* \"#utility.yul\":9559:9575   */\n      swap1\n      dup6\n      add\n      swap1\n        /* \"#utility.yul\":9453:9463   */\n      dup4\n      add\n        /* \"#utility.yul\":9424:9589   */\n      jump(tag_439)\n    tag_441:\n        /* \"#utility.yul\":9428:9431   */\n      pop\n      pop\n        /* \"#utility.yul\":9618:9624   */\n      dup5\n        /* \"#utility.yul\":9613:9616   */\n      dup10\n        /* \"#utility.yul\":9609:9625   */\n      add\n        /* \"#utility.yul\":9602:9625   */\n      swap7\n      pop\n        /* \"#utility.yul\":9163:9635   */\n    tag_434:\n      pop\n        /* \"#utility.yul\":9651:9654   */\n      swap5\n      swap9\n        /* \"#utility.yul\":8690:9660   */\n      swap8\n      pop\n      pop\n      pop\n      pop\n      pop\n      pop\n      pop\n      pop\n      jump\t// out\n        /* \"#utility.yul\":9665:10135   */\n    tag_219:\n        /* \"#utility.yul\":9844:9847   */\n      0x00\n        /* \"#utility.yul\":9882:9888   */\n      dup4\n        /* \"#utility.yul\":9876:9889   */\n      mload\n        /* \"#utility.yul\":9898:9951   */\n      tag_443\n        /* \"#utility.yul\":9944:9950   */\n      dup2\n        /* \"#utility.yul\":9939:9942   */\n      dup5\n        /* \"#utility.yul\":9932:9936   */\n      0x20\n        /* \"#utility.yul\":9924:9930   */\n      dup9\n        /* \"#utility.yul\":9920:9937   */\n      add\n        /* \"#utility.yul\":9898:9951   */\n      tag_430\n      jump\t// in\n    tag_443:\n        /* \"#utility.yul\":10014:10027   */\n      dup4\n      mload\n        /* \"#utility.yul\":9973:9989   */\n      swap1\n      dup4\n      add\n      swap1\n        /* \"#utility.yul\":10036:10093   */\n      tag_444\n        /* \"#utility.yul\":10014:10027   */\n      dup2\n        /* \"#utility.yul\":9973:9989   */\n      dup4\n        /* \"#utility.yul\":10070:10074   */\n      0x20\n        /* \"#utility.yul\":10058:10075   */\n      dup9\n      add\n        /* \"#utility.yul\":10036:10093   */\n      tag_430\n      jump\t// in\n    tag_444:\n        /* \"#utility.yul\":10109:10129   */\n      add\n      swap5\n        /* \"#utility.yul\":9852:10135   */\n      swap4\n      pop\n      pop\n      pop\n      pop\n      jump\t// out\n        /* \"#utility.yul\":10332:10961   */\n    tag_64:\n        /* \"#utility.yul\":10599:10602   */\n      0x80\n        /* \"#utility.yul\":10588:10597   */\n      dup2\n        /* \"#utility.yul\":10581:10603   */\n      mstore\n        /* \"#utility.yul\":10562:10566   */\n      0x00\n        /* \"#utility.yul\":10626:10672   */\n      tag_447\n        /* \"#utility.yul\":10667:10670   */\n      0x80\n        /* \"#utility.yul\":10656:10665   */\n      dup4\n        /* \"#utility.yul\":10652:10671   */\n      add\n        /* \"#utility.yul\":10644:10650   */\n      dup8\n        /* \"#utility.yul\":10626:10672   */\n      tag_427\n      jump\t// in\n    tag_447:\n        /* \"#utility.yul\":10720:10729   */\n      dup3\n        /* \"#utility.yul\":10712:10718   */\n      dup2\n        /* \"#utility.yul\":10708:10730   */\n      sub\n        /* \"#utility.yul\":10703:10705   */\n      0x20\n        /* \"#utility.yul\":10692:10701   */\n      dup5\n        /* \"#utility.yul\":10688:10706   */\n      add\n        /* \"#utility.yul\":10681:10731   */\n      mstore\n        /* \"#utility.yul\":10754:10787   */\n      tag_448\n        /* \"#utility.yul\":10780:10786   */\n      dup2\n        /* \"#utility.yul\":10772:10778   */\n      dup8\n        /* \"#utility.yul\":10754:10787   */\n      tag_427\n      jump\t// in\n    tag_448:\n        /* \"#utility.yul\":10740:10787   */\n      swap1\n      pop\n        /* \"#utility.yul\":10835:10844   */\n      dup3\n        /* \"#utility.yul\":10827:10833   */\n      dup2\n        /* \"#utility.yul\":10823:10845   */\n      sub\n        /* \"#utility.yul\":10818:10820   */\n      0x40\n        /* \"#utility.yul\":10807:10816   */\n      dup5\n        /* \"#utility.yul\":10803:10821   */\n      add\n        /* \"#utility.yul\":10796:10846   */\n      mstore\n        /* \"#utility.yul\":10863:10896   */\n      tag_449\n        /* \"#utility.yul\":10889:10895   */\n      dup2\n        /* \"#utility.yul\":10881:10887   */\n      dup7\n        /* \"#utility.yul\":10863:10896   */\n      tag_427\n      jump\t// in\n    tag_449:\n        /* \"#utility.yul\":10855:10896   */\n      swap2\n      pop\n      pop\n        /* \"#utility.yul\":10946:10952   */\n      dup3\n        /* \"#utility.yul\":10939:10953   */\n      iszero\n        /* \"#utility.yul\":10932:10954   */\n      iszero\n        /* \"#utility.yul\":10927:10929   */\n      0x60\n        /* \"#utility.yul\":10916:10925   */\n      dup4\n        /* \"#utility.yul\":10912:10930   */\n      add\n        /* \"#utility.yul\":10905:10955   */\n      mstore\n        /* \"#utility.yul\":10571:10961   */\n      swap6\n      swap5\n      pop\n      pop\n      pop\n      pop\n      pop\n      jump\t// out\n        /* \"#utility.yul\":10966:11759   */\n    tag_36:\n        /* \"#utility.yul\":11281:11284   */\n      0xa0\n        /* \"#utility.yul\":11270:11279   */\n      dup2\n        /* \"#utility.yul\":11263:11285   */\n      mstore\n        /* \"#utility.yul\":11244:11248   */\n      0x00\n        /* \"#utility.yul\":11308:11354   */\n      tag_451\n        /* \"#utility.yul\":11349:11352   */\n      0xa0\n        /* \"#utility.yul\":11338:11347   */\n      dup4\n        /* \"#utility.yul\":11334:11353   */\n      add\n        /* \"#utility.yul\":11326:11332   */\n      dup9\n        /* \"#utility.yul\":11308:11354   */\n      tag_427\n      jump\t// in\n    tag_451:\n        /* \"#utility.yul\":11402:11411   */\n      dup3\n        /* \"#utility.yul\":11394:11400   */\n      dup2\n        /* \"#utility.yul\":11390:11412   */\n      sub\n        /* \"#utility.yul\":11385:11387   */\n      0x20\n        /* \"#utility.yul\":11374:11383   */\n      dup5\n        /* \"#utility.yul\":11370:11388   */\n      add\n        /* \"#utility.yul\":11363:11413   */\n      mstore\n        /* \"#utility.yul\":11436:11469   */\n      tag_452\n        /* \"#utility.yul\":11462:11468   */\n      dup2\n        /* \"#utility.yul\":11454:11460   */\n      dup9\n        /* \"#utility.yul\":11436:11469   */\n      tag_427\n      jump\t// in\n    tag_452:\n        /* \"#utility.yul\":11422:11469   */\n      swap1\n      pop\n        /* \"#utility.yul\":11517:11526   */\n      dup3\n        /* \"#utility.yul\":11509:11515   */\n      dup2\n        /* \"#utility.yul\":11505:11527   */\n      sub\n        /* \"#utility.yul\":11500:11502   */\n      0x40\n        /* \"#utility.yul\":11489:11498   */\n      dup5\n        /* \"#utility.yul\":11485:11503   */\n      add\n        /* \"#utility.yul\":11478:11528   */\n      mstore\n        /* \"#utility.yul\":11551:11584   */\n      tag_453\n        /* \"#utility.yul\":11577:11583   */\n      dup2\n        /* \"#utility.yul\":11569:11575   */\n      dup8\n        /* \"#utility.yul\":11551:11584   */\n      tag_427\n      jump\t// in\n    tag_453:\n        /* \"#utility.yul\":11537:11584   */\n      swap1\n      pop\n        /* \"#utility.yul\":11632:11641   */\n      dup3\n        /* \"#utility.yul\":11624:11630   */\n      dup2\n        /* \"#utility.yul\":11620:11642   */\n      sub\n        /* \"#utility.yul\":11615:11617   */\n      0x60\n        /* \"#utility.yul\":11604:11613   */\n      dup5\n        /* \"#utility.yul\":11600:11618   */\n      add\n        /* \"#utility.yul\":11593:11643   */\n      mstore\n        /* \"#utility.yul\":11660:11693   */\n      tag_454\n        /* \"#utility.yul\":11686:11692   */\n      dup2\n        /* \"#utility.yul\":11678:11684   */\n      dup7\n        /* \"#utility.yul\":11660:11693   */\n      tag_427\n      jump\t// in\n    tag_454:\n        /* \"#utility.yul\":11652:11693   */\n      swap2\n      pop\n      pop\n        /* \"#utility.yul\":11744:11750   */\n      dup3\n        /* \"#utility.yul\":11737:11751   */\n      iszero\n        /* \"#utility.yul\":11730:11752   */\n      iszero\n        /* \"#utility.yul\":11724:11727   */\n      0x80\n        /* \"#utility.yul\":11713:11722   */\n      dup4\n        /* \"#utility.yul\":11709:11728   */\n      add\n        /* \"#utility.yul\":11702:11753   */\n      mstore\n        /* \"#utility.yul\":11253:11759   */\n      swap7\n      swap6\n      pop\n      pop\n      pop\n      pop\n      pop\n      pop\n      jump\t// out\n        /* \"#utility.yul\":11764:13012   */\n    tag_31:\n        /* \"#utility.yul\":12161:12165   */\n      0x00\n        /* \"#utility.yul\":12190:12193   */\n      0x0100\n        /* \"#utility.yul\":12220:12222   */\n      dup1\n        /* \"#utility.yul\":12209:12218   */\n      dup4\n        /* \"#utility.yul\":12202:12223   */\n      mstore\n        /* \"#utility.yul\":12246:12291   */\n      tag_456\n        /* \"#utility.yul\":12287:12289   */\n      dup2\n        /* \"#utility.yul\":12276:12285   */\n      dup5\n        /* \"#utility.yul\":12272:12290   */\n      add\n        /* \"#utility.yul\":12264:12270   */\n      dup13\n        /* \"#utility.yul\":12246:12291   */\n      tag_427\n      jump\t// in\n    tag_456:\n        /* \"#utility.yul\":12232:12291   */\n      swap1\n      pop\n        /* \"#utility.yul\":12339:12348   */\n      dup3\n        /* \"#utility.yul\":12331:12337   */\n      dup2\n        /* \"#utility.yul\":12327:12349   */\n      sub\n        /* \"#utility.yul\":12322:12324   */\n      0x20\n        /* \"#utility.yul\":12311:12320   */\n      dup5\n        /* \"#utility.yul\":12307:12325   */\n      add\n        /* \"#utility.yul\":12300:12350   */\n      mstore\n        /* \"#utility.yul\":12373:12406   */\n      tag_457\n        /* \"#utility.yul\":12399:12405   */\n      dup2\n        /* \"#utility.yul\":12391:12397   */\n      dup12\n        /* \"#utility.yul\":12373:12406   */\n      tag_427\n      jump\t// in\n    tag_457:\n        /* \"#utility.yul\":12359:12406   */\n      swap1\n      pop\n        /* \"#utility.yul\":12454:12463   */\n      dup3\n        /* \"#utility.yul\":12446:12452   */\n      dup2\n        /* \"#utility.yul\":12442:12464   */\n      sub\n        /* \"#utility.yul\":12437:12439   */\n      0x40\n        /* \"#utility.yul\":12426:12435   */\n      dup5\n        /* \"#utility.yul\":12422:12440   */\n      add\n        /* \"#utility.yul\":12415:12465   */\n      mstore\n        /* \"#utility.yul\":12488:12521   */\n      tag_458\n        /* \"#utility.yul\":12514:12520   */\n      dup2\n        /* \"#utility.yul\":12506:12512   */\n      dup11\n        /* \"#utility.yul\":12488:12521   */\n      tag_427\n      jump\t// in\n    tag_458:\n        /* \"#utility.yul\":12474:12521   */\n      swap1\n      pop\n        /* \"#utility.yul\":12569:12578   */\n      dup3\n        /* \"#utility.yul\":12561:12567   */\n      dup2\n        /* \"#utility.yul\":12557:12579   */\n      sub\n        /* \"#utility.yul\":12552:12554   */\n      0x60\n        /* \"#utility.yul\":12541:12550   */\n      dup5\n        /* \"#utility.yul\":12537:12555   */\n      add\n        /* \"#utility.yul\":12530:12580   */\n      mstore\n        /* \"#utility.yul\":12603:12636   */\n      tag_459\n        /* \"#utility.yul\":12629:12635   */\n      dup2\n        /* \"#utility.yul\":12621:12627   */\n      dup10\n        /* \"#utility.yul\":12603:12636   */\n      tag_427\n      jump\t// in\n    tag_459:\n        /* \"#utility.yul\":12589:12636   */\n      swap1\n      pop\n        /* \"#utility.yul\":12685:12694   */\n      dup3\n        /* \"#utility.yul\":12677:12683   */\n      dup2\n        /* \"#utility.yul\":12673:12695   */\n      sub\n        /* \"#utility.yul\":12667:12670   */\n      0x80\n        /* \"#utility.yul\":12656:12665   */\n      dup5\n        /* \"#utility.yul\":12652:12671   */\n      add\n        /* \"#utility.yul\":12645:12696   */\n      mstore\n        /* \"#utility.yul\":12713:12746   */\n      tag_460\n        /* \"#utility.yul\":12739:12745   */\n      dup2\n        /* \"#utility.yul\":12731:12737   */\n      dup9\n        /* \"#utility.yul\":12713:12746   */\n      tag_427\n      jump\t// in\n    tag_460:\n        /* \"#utility.yul\":12705:12746   */\n      swap2\n      pop\n      pop\n        /* \"#utility.yul\":12776:12777   */\n      0x05\n        /* \"#utility.yul\":12768:12774   */\n      dup6\n        /* \"#utility.yul\":12765:12778   */\n      lt\n        /* \"#utility.yul\":12755:12757   */\n      tag_462\n      jumpi\n        /* \"#utility.yul\":12782:12800   */\n      tag_462\n      tag_463\n      jump\t// in\n    tag_462:\n        /* \"#utility.yul\":12839:12845   */\n      dup5\n        /* \"#utility.yul\":12833:12836   */\n      0xa0\n        /* \"#utility.yul\":12822:12831   */\n      dup4\n        /* \"#utility.yul\":12818:12837   */\n      add\n        /* \"#utility.yul\":12811:12846   */\n      mstore\n        /* \"#utility.yul\":12876:12877   */\n      0x03\n        /* \"#utility.yul\":12868:12874   */\n      dup5\n        /* \"#utility.yul\":12865:12878   */\n      lt\n        /* \"#utility.yul\":12855:12857   */\n      tag_465\n      jumpi\n        /* \"#utility.yul\":12882:12900   */\n      tag_465\n      tag_463\n      jump\t// in\n    tag_465:\n        /* \"#utility.yul\":12939:12945   */\n      dup4\n        /* \"#utility.yul\":12933:12936   */\n      0xc0\n        /* \"#utility.yul\":12922:12931   */\n      dup4\n        /* \"#utility.yul\":12918:12937   */\n      add\n        /* \"#utility.yul\":12911:12946   */\n      mstore\n        /* \"#utility.yul\":12997:13003   */\n      dup3\n        /* \"#utility.yul\":12990:13004   */\n      iszero\n        /* \"#utility.yul\":12983:13005   */\n      iszero\n        /* \"#utility.yul\":12977:12980   */\n      0xe0\n        /* \"#utility.yul\":12966:12975   */\n      dup4\n        /* \"#utility.yul\":12962:12981   */\n      add\n        /* \"#utility.yul\":12955:13006   */\n      mstore\n        /* \"#utility.yul\":12170:13012   */\n      swap10\n      swap9\n      pop\n      pop\n      pop\n      pop\n      pop\n      pop\n      pop\n      pop\n      pop\n      jump\t// out\n        /* \"#utility.yul\":13017:13800   */\n    tag_93:\n        /* \"#utility.yul\":13338:13341   */\n      0xa0\n        /* \"#utility.yul\":13327:13336   */\n      dup2\n        /* \"#utility.yul\":13320:13342   */\n      mstore\n        /* \"#utility.yul\":13301:13305   */\n      0x00\n        /* \"#utility.yul\":13365:13411   */\n      tag_467\n        /* \"#utility.yul\":13406:13409   */\n      0xa0\n        /* \"#utility.yul\":13395:13404   */\n      dup4\n        /* \"#utility.yul\":13391:13410   */\n      add\n        /* \"#utility.yul\":13383:13389   */\n      dup9\n        /* \"#utility.yul\":13365:13411   */\n      tag_427\n      jump\t// in\n    tag_467:\n        /* \"#utility.yul\":13459:13468   */\n      dup3\n        /* \"#utility.yul\":13451:13457   */\n      dup2\n        /* \"#utility.yul\":13447:13469   */\n      sub\n        /* \"#utility.yul\":13442:13444   */\n      0x20\n        /* \"#utility.yul\":13431:13440   */\n      dup5\n        /* \"#utility.yul\":13427:13445   */\n      add\n        /* \"#utility.yul\":13420:13470   */\n      mstore\n        /* \"#utility.yul\":13493:13526   */\n      tag_468\n        /* \"#utility.yul\":13519:13525   */\n      dup2\n        /* \"#utility.yul\":13511:13517   */\n      dup9\n        /* \"#utility.yul\":13493:13526   */\n      tag_427\n      jump\t// in\n    tag_468:\n        /* \"#utility.yul\":13479:13526   */\n      swap1\n      pop\n        /* \"#utility.yul\":13574:13583   */\n      dup3\n        /* \"#utility.yul\":13566:13572   */\n      dup2\n        /* \"#utility.yul\":13562:13584   */\n      sub\n        /* \"#utility.yul\":13557:13559   */\n      0x40\n        /* \"#utility.yul\":13546:13555   */\n      dup5\n        /* \"#utility.yul\":13542:13560   */\n      add\n        /* \"#utility.yul\":13535:13585   */\n      mstore\n        /* \"#utility.yul\":13608:13641   */\n      tag_469\n        /* \"#utility.yul\":13634:13640   */\n      dup2\n        /* \"#utility.yul\":13626:13632   */\n      dup8\n        /* \"#utility.yul\":13608:13641   */\n      tag_427\n      jump\t// in\n    tag_469:\n        /* \"#utility.yul\":13594:13641   */\n      swap1\n      pop\n        /* \"#utility.yul\":13689:13698   */\n      dup3\n        /* \"#utility.yul\":13681:13687   */\n      dup2\n        /* \"#utility.yul\":13677:13699   */\n      sub\n        /* \"#utility.yul\":13672:13674   */\n      0x60\n        /* \"#utility.yul\":13661:13670   */\n      dup5\n        /* \"#utility.yul\":13657:13675   */\n      add\n        /* \"#utility.yul\":13650:13700   */\n      mstore\n        /* \"#utility.yul\":13717:13750   */\n      tag_470\n        /* \"#utility.yul\":13743:13749   */\n      dup2\n        /* \"#utility.yul\":13735:13741   */\n      dup7\n        /* \"#utility.yul\":13717:13750   */\n      tag_427\n      jump\t// in\n    tag_470:\n        /* \"#utility.yul\":13709:13750   */\n      swap2\n      pop\n      pop\n        /* \"#utility.yul\":13787:13793   */\n      dup3\n        /* \"#utility.yul\":13781:13784   */\n      0x80\n        /* \"#utility.yul\":13770:13779   */\n      dup4\n        /* \"#utility.yul\":13766:13785   */\n      add\n        /* \"#utility.yul\":13759:13794   */\n      mstore\n        /* \"#utility.yul\":13310:13800   */\n      swap7\n      swap6\n      pop\n      pop\n      pop\n      pop\n      pop\n      pop\n      jump\t// out\n        /* \"#utility.yul\":13805:14332   */\n    tag_59:\n        /* \"#utility.yul\":14058:14061   */\n      0x80\n        /* \"#utility.yul\":14047:14056   */\n      dup2\n        /* \"#utility.yul\":14040:14062   */\n      mstore\n        /* \"#utility.yul\":14021:14025   */\n      0x00\n        /* \"#utility.yul\":14085:14131   */\n      tag_472\n        /* \"#utility.yul\":14126:14129   */\n      0x80\n        /* \"#utility.yul\":14115:14124   */\n      dup4\n        /* \"#utility.yul\":14111:14130   */\n      add\n        /* \"#utility.yul\":14103:14109   */\n      dup8\n        /* \"#utility.yul\":14085:14131   */\n      tag_427\n      jump\t// in\n    tag_472:\n        /* \"#utility.yul\":14179:14188   */\n      dup3\n        /* \"#utility.yul\":14171:14177   */\n      dup2\n        /* \"#utility.yul\":14167:14189   */\n      sub\n        /* \"#utility.yul\":14162:14164   */\n      0x20\n        /* \"#utility.yul\":14151:14160   */\n      dup5\n        /* \"#utility.yul\":14147:14165   */\n      add\n        /* \"#utility.yul\":14140:14190   */\n      mstore\n        /* \"#utility.yul\":14207:14240   */\n      tag_473\n        /* \"#utility.yul\":14233:14239   */\n      dup2\n        /* \"#utility.yul\":14225:14231   */\n      dup8\n        /* \"#utility.yul\":14207:14240   */\n      tag_427\n      jump\t// in\n    tag_473:\n        /* \"#utility.yul\":14271:14273   */\n      0x40\n        /* \"#utility.yul\":14256:14274   */\n      dup5\n      add\n        /* \"#utility.yul\":14249:14283   */\n      swap6\n      swap1\n      swap6\n      mstore\n      pop\n      pop\n        /* \"#utility.yul\":14314:14316   */\n      0x60\n        /* \"#utility.yul\":14299:14317   */\n      add\n        /* \"#utility.yul\":14292:14326   */\n      mstore\n        /* \"#utility.yul\":14199:14240   */\n      swap3\n        /* \"#utility.yul\":14030:14332   */\n      swap2\n      pop\n      pop\n      jump\t// out\n        /* \"#utility.yul\":14337:14772   */\n    tag_183:\n        /* \"#utility.yul\":14570:14573   */\n      0x80\n        /* \"#utility.yul\":14559:14568   */\n      dup2\n        /* \"#utility.yul\":14552:14574   */\n      mstore\n        /* \"#utility.yul\":14533:14537   */\n      0x00\n        /* \"#utility.yul\":14591:14637   */\n      tag_475\n        /* \"#utility.yul\":14632:14635   */\n      0x80\n        /* \"#utility.yul\":14621:14630   */\n      dup4\n        /* \"#utility.yul\":14617:14636   */\n      add\n        /* \"#utility.yul\":14609:14615   */\n      dup8\n        /* \"#utility.yul\":14591:14637   */\n      tag_427\n      jump\t// in\n    tag_475:\n        /* \"#utility.yul\":14668:14670   */\n      0x20\n        /* \"#utility.yul\":14653:14671   */\n      dup4\n      add\n        /* \"#utility.yul\":14646:14680   */\n      swap6\n      swap1\n      swap6\n      mstore\n      pop\n        /* \"#utility.yul\":14711:14713   */\n      0x40\n        /* \"#utility.yul\":14696:14714   */\n      dup2\n      add\n        /* \"#utility.yul\":14689:14723   */\n      swap3\n      swap1\n      swap3\n      mstore\n        /* \"#utility.yul\":14754:14756   */\n      0x60\n        /* \"#utility.yul\":14739:14757   */\n      swap1\n      swap2\n      add\n        /* \"#utility.yul\":14732:14766   */\n      mstore\n        /* \"#utility.yul\":14583:14637   */\n      swap2\n        /* \"#utility.yul\":14542:14772   */\n      swap1\n      pop\n      jump\t// out\n        /* \"#utility.yul\":14777:15176   */\n    tag_227:\n        /* \"#utility.yul\":14979:14981   */\n      0x20\n        /* \"#utility.yul\":14961:14982   */\n      dup1\n      dup3\n      mstore\n        /* \"#utility.yul\":15018:15020   */\n      0x23\n        /* \"#utility.yul\":14998:15016   */\n      swap1\n      dup3\n      add\n        /* \"#utility.yul\":14991:15021   */\n      mstore\n        /* \"#utility.yul\":15057:15091   */\n      0x4548522d52442d30313a20446f63746f7220616c726561647920456e726f6c6c\n        /* \"#utility.yul\":15052:15054   */\n      0x40\n        /* \"#utility.yul\":15037:15055   */\n      dup3\n      add\n        /* \"#utility.yul\":15030:15092   */\n      mstore\n      shl(0xe9, 0x32b217)\n        /* \"#utility.yul\":15123:15125   */\n      0x60\n        /* \"#utility.yul\":15108:15126   */\n      dup3\n      add\n        /* \"#utility.yul\":15101:15134   */\n      mstore\n        /* \"#utility.yul\":15166:15169   */\n      0x80\n        /* \"#utility.yul\":15151:15170   */\n      add\n      swap1\n        /* \"#utility.yul\":14951:15176   */\n      jump\t// out\n        /* \"#utility.yul\":16340:16686   */\n    tag_97:\n        /* \"#utility.yul\":16542:16544   */\n      0x20\n        /* \"#utility.yul\":16524:16545   */\n      dup1\n      dup3\n      mstore\n        /* \"#utility.yul\":16581:16583   */\n      0x16\n        /* \"#utility.yul\":16561:16579   */\n      swap1\n      dup3\n      add\n        /* \"#utility.yul\":16554:16584   */\n      mstore\n      shl(0x52, 0x14185d1a595b9d08139bdd081c9959da5cdd195c9959)\n        /* \"#utility.yul\":16615:16617   */\n      0x40\n        /* \"#utility.yul\":16600:16618   */\n      dup3\n      add\n        /* \"#utility.yul\":16593:16645   */\n      mstore\n        /* \"#utility.yul\":16677:16679   */\n      0x60\n        /* \"#utility.yul\":16662:16680   */\n      add\n      swap1\n        /* \"#utility.yul\":16514:16686   */\n      jump\t// out\n        /* \"#utility.yul\":16691:17091   */\n    tag_277:\n        /* \"#utility.yul\":16893:16895   */\n      0x20\n        /* \"#utility.yul\":16875:16896   */\n      dup1\n      dup3\n      mstore\n        /* \"#utility.yul\":16932:16934   */\n      0x24\n        /* \"#utility.yul\":16912:16930   */\n      swap1\n      dup3\n      add\n        /* \"#utility.yul\":16905:16935   */\n      mstore\n        /* \"#utility.yul\":16971:17005   */\n      0x4548522d52502d30323a2050617469656e7420616c726561647920456e726f6c\n        /* \"#utility.yul\":16966:16968   */\n      0x40\n        /* \"#utility.yul\":16951:16969   */\n      dup3\n      add\n        /* \"#utility.yul\":16944:17006   */\n      mstore\n      shl(0xe1, 0x3632b217)\n        /* \"#utility.yul\":17037:17039   */\n      0x60\n        /* \"#utility.yul\":17022:17040   */\n      dup3\n      add\n        /* \"#utility.yul\":17015:17049   */\n      mstore\n        /* \"#utility.yul\":17081:17084   */\n      0x80\n        /* \"#utility.yul\":17066:17085   */\n      add\n      swap1\n        /* \"#utility.yul\":16865:17091   */\n      jump\t// out\n        /* \"#utility.yul\":17813:18212   */\n    tag_231:\n        /* \"#utility.yul\":18015:18017   */\n      0x20\n        /* \"#utility.yul\":17997:18018   */\n      dup1\n      dup3\n      mstore\n        /* \"#utility.yul\":18054:18056   */\n      0x23\n        /* \"#utility.yul\":18034:18052   */\n      swap1\n      dup3\n      add\n        /* \"#utility.yul\":18027:18057   */\n      mstore\n        /* \"#utility.yul\":18093:18127   */\n      0x4548522d52442d30323a20446f63746f7220616c726561647920456e726f6c6c\n        /* \"#utility.yul\":18088:18090   */\n      0x40\n        /* \"#utility.yul\":18073:18091   */\n      dup3\n      add\n        /* \"#utility.yul\":18066:18128   */\n      mstore\n      shl(0xe9, 0x32b217)\n        /* \"#utility.yul\":18159:18161   */\n      0x60\n        /* \"#utility.yul\":18144:18162   */\n      dup3\n      add\n        /* \"#utility.yul\":18137:18170   */\n      mstore\n        /* \"#utility.yul\":18202:18205   */\n      0x80\n        /* \"#utility.yul\":18187:18206   */\n      add\n      swap1\n        /* \"#utility.yul\":17987:18212   */\n      jump\t// out\n        /* \"#utility.yul\":18217:18617   */\n    tag_273:\n        /* \"#utility.yul\":18419:18421   */\n      0x20\n        /* \"#utility.yul\":18401:18422   */\n      dup1\n      dup3\n      mstore\n        /* \"#utility.yul\":18458:18460   */\n      0x24\n        /* \"#utility.yul\":18438:18456   */\n      swap1\n      dup3\n      add\n        /* \"#utility.yul\":18431:18461   */\n      mstore\n        /* \"#utility.yul\":18497:18531   */\n      0x4548522d52502d30313a2050617469656e7420616c726561647920456e726f6c\n        /* \"#utility.yul\":18492:18494   */\n      0x40\n        /* \"#utility.yul\":18477:18495   */\n      dup3\n      add\n        /* \"#utility.yul\":18470:18532   */\n      mstore\n      shl(0xe1, 0x3632b217)\n        /* \"#utility.yul\":18563:18565   */\n      0x60\n        /* \"#utility.yul\":18548:18566   */\n      dup3\n      add\n        /* \"#utility.yul\":18541:18575   */\n      mstore\n        /* \"#utility.yul\":18607:18610   */\n      0x80\n        /* \"#utility.yul\":18592:18611   */\n      add\n      swap1\n        /* \"#utility.yul\":18391:18617   */\n      jump\t// out\n        /* \"#utility.yul\":18804:19166   */\n    tag_254:\n        /* \"#utility.yul\":19009:19015   */\n      dup4\n        /* \"#utility.yul\":18998:19007   */\n      dup2\n        /* \"#utility.yul\":18991:19016   */\n      mstore\n        /* \"#utility.yul\":19052:19054   */\n      0x60\n        /* \"#utility.yul\":19047:19049   */\n      0x20\n        /* \"#utility.yul\":19036:19045   */\n      dup3\n        /* \"#utility.yul\":19032:19050   */\n      add\n        /* \"#utility.yul\":19025:19055   */\n      mstore\n        /* \"#utility.yul\":18972:18976   */\n      0x00\n        /* \"#utility.yul\":19072:19117   */\n      tag_488\n        /* \"#utility.yul\":19113:19115   */\n      0x60\n        /* \"#utility.yul\":19102:19111   */\n      dup4\n        /* \"#utility.yul\":19098:19116   */\n      add\n        /* \"#utility.yul\":19090:19096   */\n      dup6\n        /* \"#utility.yul\":19072:19117   */\n      tag_427\n      jump\t// in\n    tag_488:\n        /* \"#utility.yul\":19064:19117   */\n      swap1\n      pop\n        /* \"#utility.yul\":19153:19159   */\n      dup3\n        /* \"#utility.yul\":19148:19150   */\n      0x40\n        /* \"#utility.yul\":19137:19146   */\n      dup4\n        /* \"#utility.yul\":19133:19151   */\n      add\n        /* \"#utility.yul\":19126:19160   */\n      mstore\n        /* \"#utility.yul\":18981:19166   */\n      swap5\n      swap4\n      pop\n      pop\n      pop\n      pop\n      jump\t// out\n        /* \"#utility.yul\":21302:21560   */\n    tag_430:\n        /* \"#utility.yul\":21374:21375   */\n      0x00\n        /* \"#utility.yul\":21384:21497   */\n    tag_495:\n        /* \"#utility.yul\":21398:21404   */\n      dup4\n        /* \"#utility.yul\":21395:21396   */\n      dup2\n        /* \"#utility.yul\":21392:21405   */\n      lt\n        /* \"#utility.yul\":21384:21497   */\n      iszero\n      tag_497\n      jumpi\n        /* \"#utility.yul\":21474:21485   */\n      dup2\n      dup2\n      add\n        /* \"#utility.yul\":21468:21486   */\n      mload\n        /* \"#utility.yul\":21455:21466   */\n      dup4\n      dup3\n      add\n        /* \"#utility.yul\":21448:21487   */\n      mstore\n        /* \"#utility.yul\":21420:21422   */\n      0x20\n        /* \"#utility.yul\":21413:21423   */\n      add\n        /* \"#utility.yul\":21384:21497   */\n      jump(tag_495)\n    tag_497:\n        /* \"#utility.yul\":21515:21521   */\n      dup4\n        /* \"#utility.yul\":21512:21513   */\n      dup2\n        /* \"#utility.yul\":21509:21522   */\n      gt\n        /* \"#utility.yul\":21506:21508   */\n      iszero\n      tag_498\n      jumpi\n        /* \"#utility.yul\":21550:21551   */\n      0x00\n        /* \"#utility.yul\":21541:21547   */\n      dup5\n        /* \"#utility.yul\":21536:21539   */\n      dup5\n        /* \"#utility.yul\":21532:21548   */\n      add\n        /* \"#utility.yul\":21525:21552   */\n      mstore\n        /* \"#utility.yul\":21506:21508   */\n    tag_498:\n      pop\n        /* \"#utility.yul\":21355:21560   */\n      pop\n      pop\n      pop\n      jump\t// out\n        /* \"#utility.yul\":21565:21945   */\n    tag_100:\n        /* \"#utility.yul\":21644:21645   */\n      0x01\n        /* \"#utility.yul\":21640:21652   */\n      dup2\n      dup2\n      shr\n      swap1\n        /* \"#utility.yul\":21687:21699   */\n      dup3\n      and\n      dup1\n        /* \"#utility.yul\":21708:21710   */\n      tag_500\n      jumpi\n        /* \"#utility.yul\":21762:21766   */\n      0x7f\n        /* \"#utility.yul\":21754:21760   */\n      dup3\n        /* \"#utility.yul\":21750:21767   */\n      and\n        /* \"#utility.yul\":21740:21767   */\n      swap2\n      pop\n        /* \"#utility.yul\":21708:21710   */\n    tag_500:\n        /* \"#utility.yul\":21815:21817   */\n      0x20\n        /* \"#utility.yul\":21807:21813   */\n      dup3\n        /* \"#utility.yul\":21804:21818   */\n      lt\n        /* \"#utility.yul\":21784:21802   */\n      dup2\n        /* \"#utility.yul\":21781:21819   */\n      eq\n        /* \"#utility.yul\":21778:21780   */\n      iszero\n      tag_501\n      jumpi\n        /* \"#utility.yul\":21861:21871   */\n      0x4e487b71\n        /* \"#utility.yul\":21856:21859   */\n      0xe0\n        /* \"#utility.yul\":21852:21872   */\n      shl\n        /* \"#utility.yul\":21849:21850   */\n      0x00\n        /* \"#utility.yul\":21842:21873   */\n      mstore\n        /* \"#utility.yul\":21896:21900   */\n      0x22\n        /* \"#utility.yul\":21893:21894   */\n      0x04\n        /* \"#utility.yul\":21886:21901   */\n      mstore\n        /* \"#utility.yul\":21924:21928   */\n      0x24\n        /* \"#utility.yul\":21921:21922   */\n      0x00\n        /* \"#utility.yul\":21914:21929   */\n      revert\n        /* \"#utility.yul\":21778:21780   */\n    tag_501:\n      pop\n        /* \"#utility.yul\":21620:21945   */\n      swap2\n      swap1\n      pop\n      jump\t// out\n        /* \"#utility.yul\":21950:22186   */\n    tag_313:\n        /* \"#utility.yul\":21989:21992   */\n      0x00\n      not(0x00)\n        /* \"#utility.yul\":22010:22027   */\n      dup3\n      eq\n        /* \"#utility.yul\":22007:22009   */\n      iszero\n      tag_503\n      jumpi\n      shl(0xe0, 0x4e487b71)\n        /* \"#utility.yul\":22050:22083   */\n      dup2\n      mstore\n        /* \"#utility.yul\":22106:22110   */\n      0x11\n        /* \"#utility.yul\":22103:22104   */\n      0x04\n        /* \"#utility.yul\":22096:22111   */\n      mstore\n        /* \"#utility.yul\":22136:22140   */\n      0x24\n        /* \"#utility.yul\":22057:22060   */\n      dup2\n        /* \"#utility.yul\":22124:22141   */\n      revert\n        /* \"#utility.yul\":22007:22009   */\n    tag_503:\n      pop\n        /* \"#utility.yul\":22178:22179   */\n      0x01\n        /* \"#utility.yul\":22167:22180   */\n      add\n      swap1\n        /* \"#utility.yul\":21997:22186   */\n      jump\t// out\n        /* \"#utility.yul\":22191:22318   */\n    tag_463:\n        /* \"#utility.yul\":22252:22262   */\n      0x4e487b71\n        /* \"#utility.yul\":22247:22250   */\n      0xe0\n        /* \"#utility.yul\":22243:22263   */\n      shl\n        /* \"#utility.yul\":22240:22241   */\n      0x00\n        /* \"#utility.yul\":22233:22264   */\n      mstore\n        /* \"#utility.yul\":22283:22287   */\n      0x21\n        /* \"#utility.yul\":22280:22281   */\n      0x04\n        /* \"#utility.yul\":22273:22288   */\n      mstore\n        /* \"#utility.yul\":22307:22311   */\n      0x24\n        /* \"#utility.yul\":22304:22305   */\n      0x00\n        /* \"#utility.yul\":22297:22312   */\n      revert\n        /* \"#utility.yul\":22323:22450   */\n    tag_362:\n        /* \"#utility.yul\":22384:22394   */\n      0x4e487b71\n        /* \"#utility.yul\":22379:22382   */\n      0xe0\n        /* \"#utility.yul\":22375:22395   */\n      shl\n        /* \"#utility.yul\":22372:22373   */\n      0x00\n        /* \"#utility.yul\":22365:22396   */\n      mstore\n        /* \"#utility.yul\":22415:22419   */\n      0x41\n        /* \"#utility.yul\":22412:22413   */\n      0x04\n        /* \"#utility.yul\":22405:22420   */\n      mstore\n        /* \"#utility.yul\":22439:22443   */\n      0x24\n        /* \"#utility.yul\":22436:22437   */\n      0x00\n        /* \"#utility.yul\":22429:22444   */\n      revert\n        /* \"#utility.yul\":22455:22560   */\n    tag_356:\n        /* \"#utility.yul\":22534:22535   */\n      0x02\n        /* \"#utility.yul\":22527:22532   */\n      dup2\n        /* \"#utility.yul\":22524:22536   */\n      lt\n        /* \"#utility.yul\":22514:22516   */\n      tag_507\n      jumpi\n        /* \"#utility.yul\":22550:22551   */\n      0x00\n        /* \"#utility.yul\":22547:22548   */\n      dup1\n        /* \"#utility.yul\":22540:22552   */\n      revert\n        /* \"#utility.yul\":22514:22516   */\n    tag_507:\n        /* \"#utility.yul\":22504:22560   */\n      pop\n      jump\t// out\n    stop\n    data_f1783972c13bbde284b8765b8e27686842dfd940022613858bd0f693b0907129 1041037d4b3ee5730fce647ebd981cd0fd8864f61cd34868ef88a3fa6af64721\n\n    auxdata: 0xa264697066735822122094158dd276a342e53566029a73ffd1a1e434c8aa62b81d89d663cf459bd2580164736f6c63430008040033\n}\n",
				"bytecode": {
					"linkReferences": {},
					"object": "608060405234801561001057600080fd5b50612ade806100206000396000f3fe608060405234801561001057600080fd5b50600436106101005760003560e01c8063cbd46fa311610097578063edef704911610066578063edef704914610264578063f60b48cb14610277578063f6c6e3d0146102b0578063f75be4eb146102c357600080fd5b8063cbd46fa314610208578063d73497051461022b578063db3e39761461023e578063e078a1c61461025157600080fd5b8063764b6b38116100d3578063764b6b38146101ac5780638f58f628146101bf578063a269b418146101d2578063c977baf3146101e557600080fd5b8063021bf487146101055780630a77f6b01461011a5780632990bc6f1461014a5780634fcd407a1461016e575b600080fd5b6101186101133660046124e2565b6102e7565b005b61012d6101283660046123d9565b610345565b6040516101419897969594939291906126e3565b60405180910390f35b61015d6101583660046123d9565b610637565b604051610141959493929190612681565b61019c61017c3660046123f1565b600660209081526000928352604080842090915290825290205460ff1681565b6040519015158152602001610141565b6101186101ba36600461250d565b610888565b6101186101cd36600461244a565b61094f565b6101186101e0366004612412565b610af6565b6101f86101f33660046123d9565b610d91565b60405161014194939291906127eb565b61021b6102163660046123f1565b610ec9565b6040516101419493929190612634565b61011861023936600461235d565b611097565b61011861024c3660046121a5565b6111a1565b61011861025f3660046122a3565b611605565b6101186102723660046120e8565b61174e565b6102a26102853660046123f1565b600460209081526000928352604080842090915290825290205481565b604051908152602001610141565b6101186102be36600461244a565b611ab0565b6102d66102d13660046123d9565b611d4c565b60405161014195949392919061278b565b600083815260208190526040902060040154839060ff1615156001146103285760405162461bcd60e51b815260040161031f90612896565b60405180910390fd5b506000928352600460209081526040808520938552929052912055565b600160205260009081526040902080548190610360906129ea565b80601f016020809104026020016040519081016040528092919081815260200182805461038c906129ea565b80156103d95780601f106103ae576101008083540402835291602001916103d9565b820191906000526020600020905b8154815290600101906020018083116103bc57829003601f168201915b5050505050908060010180546103ee906129ea565b80601f016020809104026020016040519081016040528092919081815260200182805461041a906129ea565b80156104675780601f1061043c57610100808354040283529160200191610467565b820191906000526020600020905b81548152906001019060200180831161044a57829003601f168201915b50505050509080600201805461047c906129ea565b80601f01602080910402602001604051908101604052809291908181526020018280546104a8906129ea565b80156104f55780601f106104ca576101008083540402835291602001916104f5565b820191906000526020600020905b8154815290600101906020018083116104d857829003601f168201915b50505050509080600301805461050a906129ea565b80601f0160208091040260200160405190810160405280929190818152602001828054610536906129ea565b80156105835780601f1061055857610100808354040283529160200191610583565b820191906000526020600020905b81548152906001019060200180831161056657829003601f168201915b505050505090806004018054610598906129ea565b80601f01602080910402602001604051908101604052809291908181526020018280546105c4906129ea565b80156106115780601f106105e657610100808354040283529160200191610611565b820191906000526020600020905b8154815290600101906020018083116105f457829003601f168201915b5050506005909301549192505060ff808216916101008104821691620100009091041688565b600060208190529081526040902080548190610652906129ea565b80601f016020809104026020016040519081016040528092919081815260200182805461067e906129ea565b80156106cb5780601f106106a0576101008083540402835291602001916106cb565b820191906000526020600020905b8154815290600101906020018083116106ae57829003601f168201915b5050505050908060010180546106e0906129ea565b80601f016020809104026020016040519081016040528092919081815260200182805461070c906129ea565b80156107595780601f1061072e57610100808354040283529160200191610759565b820191906000526020600020905b81548152906001019060200180831161073c57829003601f168201915b50505050509080600201805461076e906129ea565b80601f016020809104026020016040519081016040528092919081815260200182805461079a906129ea565b80156107e75780601f106107bc576101008083540402835291602001916107e7565b820191906000526020600020905b8154815290600101906020018083116107ca57829003601f168201915b5050505050908060030180546107fc906129ea565b80601f0160208091040260200160405190810160405280929190818152602001828054610828906129ea565b80156108755780601f1061084a57610100808354040283529160200191610875565b820191906000526020600020905b81548152906001019060200180831161085857829003601f168201915b5050506004909301549192505060ff1685565b600084815260208190526040902060040154849060ff1615156001146108c05760405162461bcd60e51b815260040161031f90612896565b600085815260066020908152604080832087845290915290205460ff16151560011461092e5760405162461bcd60e51b815260206004820152601d60248201527f4e6f206163636573732070726f76696465642062792070617469656e74000000604482015260640161031f565b50600093845260046020908152604080862093865292905292209190915550565b600085815260208190526040902060040154859060ff1615156001146109875760405162461bcd60e51b815260040161031f90612896565b600086815260056020908152604080832088845290915290206003015460ff16156109f45760405162461bcd60e51b815260206004820152601e60248201527f4548522d5243472d30313a20416c726561647920726567697374657265640000604482015260640161031f565b604080516080810182528581526020808201869052818301859052600160608301526000898152600582528381208982528252929092208151805192939192610a409284920190611f9a565b506020828101518051610a599260018501920190611f9a565b5060408201518051610a75916002840191602090910190611f9a565b506060918201516003909101805460ff191691151591909117905560408051888152602081018390526019928101929092527f436172656769766572204461746120726567697374657265640000000000000060808301524290820152600080516020612a898339815191529060a0015b60405180910390a1505050505050565b60008281526001602081905260409091206005015483916201000090910460ff16151514610b5e5760405162461bcd60e51b8152602060048201526015602482015274111bd8dd1bdc88139bdd081c9959da5cdd195c9959605a1b604482015260640161031f565b60606000836001811115610b8257634e487b7160e01b600052602160045260246000fd5b1415610c5657600085815260066020908152604080832087845290915290205460ff1615610bfe5760405162461bcd60e51b8152602060048201526024808201527f4548522d41432d30313a2041636365737320686164206265656e2070726f76696044820152636465642160e01b606482015260840161031f565b506000848152600660209081526040808320868452825291829020805460ff191660011790558151808301909252601c82527f4163636573732069732070726f766964656420746f20646f63746f7200000000908201525b6001836001811115610c7857634e487b7160e01b600052602160045260246000fd5b1415610d4d57600085815260066020908152604080832087845290915290205460ff161515600114610cf85760405162461bcd60e51b815260206004820152602360248201527f4548522d41432d30323a2041636365737320776173206e6f742070726f76696460448201526265642160e81b606482015260840161031f565b506000848152600660209081526040808320868452825291829020805460ff191690558151808301909252601b82527f416363657373206973207265766f6b656420746f20646f63746f720000000000908201525b7ff4702a3b8b6c43f2fa41588e64688a0c0bc61f411971bd5ec9c64b828d4bccb081868642604051610d829493929190612824565b60405180910390a15050505050565b600360205260009081526040902080548190610dac906129ea565b80601f0160208091040260200160405190810160405280929190818152602001828054610dd8906129ea565b8015610e255780601f10610dfa57610100808354040283529160200191610e25565b820191906000526020600020905b815481529060010190602001808311610e0857829003601f168201915b505050505090806001018054610e3a906129ea565b80601f0160208091040260200160405190810160405280929190818152602001828054610e66906129ea565b8015610eb35780601f10610e8857610100808354040283529160200191610eb3565b820191906000526020600020905b815481529060010190602001808311610e9657829003601f168201915b5050505050908060020154908060030154905084565b6005602090815260009283526040808420909152908252902080548190610eef906129ea565b80601f0160208091040260200160405190810160405280929190818152602001828054610f1b906129ea565b8015610f685780601f10610f3d57610100808354040283529160200191610f68565b820191906000526020600020905b815481529060010190602001808311610f4b57829003601f168201915b505050505090806001018054610f7d906129ea565b80601f0160208091040260200160405190810160405280929190818152602001828054610fa9906129ea565b8015610ff65780601f10610fcb57610100808354040283529160200191610ff6565b820191906000526020600020905b815481529060010190602001808311610fd957829003601f168201915b50505050509080600201805461100b906129ea565b80601f0160208091040260200160405190810160405280929190818152602001828054611037906129ea565b80156110845780601f1061105957610100808354040283529160200191611084565b820191906000526020600020905b81548152906001019060200180831161106757829003601f168201915b5050506003909301549192505060ff1684565b600081815260208190526040902060040154819060ff1615156001146110cf5760405162461bcd60e51b815260040161031f90612896565b604080516080810182528781526020808201889052818301879052606082018690526000858152600382529290922081518051929391926111139284920190611f9a565b50602082810151805161112c9260018501920190611f9a565b506040820151816002015560608201518160030155905050600080516020612a898339815191528242604051610ae6929190918252606060208301819052601b908301527f50617469656e74204865616c74682044617461207570646174656400000000006080830152604082015260a00190565b600086886040516020016111b6929190612605565b60408051601f1981840301815291905280516020909101209050606060008360018111156111f457634e487b7160e01b600052602160045260246000fd5b141561146e57888051906020012060016000848152602001908152602001600020600101604051611225919061256a565b6040518091039020141561124b5760405162461bcd60e51b815260040161031f90612853565b878051906020012060016000848152602001908152602001600020600201604051611276919061256a565b6040518091039020141561129c5760405162461bcd60e51b815260040161031f9061290a565b6040518061010001604052808b81526020018a81526020018981526020018881526020018781526020018660048111156112e657634e487b7160e01b600052602160045260246000fd5b815260200185600281111561130b57634e487b7160e01b600052602160045260246000fd5b81526001602091820181905260008581529082526040902082518051919261133892849290910190611f9a565b5060208281015180516113519260018501920190611f9a565b506040820151805161136d916002840191602090910190611f9a565b5060608201518051611389916003840191602090910190611f9a565b50608082015180516113a5916004840191602090910190611f9a565b5060a082015160058201805460ff191660018360048111156113d757634e487b7160e01b600052602160045260246000fd5b021790555060c082015160058201805461ff00191661010083600281111561140f57634e487b7160e01b600052602160045260246000fd5b021790555060e0919091015160059091018054911515620100000262ff0000199092169190911790555060408051808201909152601881527f446f63746f7220526567697374726174696f6e20446f6e65000000000000000060208201525b600183600181111561149057634e487b7160e01b600052602160045260246000fd5b14156115d0578880519060200120600160008481526020019081526020016000206001016040516114c1919061256a565b6040518091039020146114e65760405162461bcd60e51b815260040161031f90612853565b878051906020012060016000848152602001908152602001600020600201604051611511919061256a565b6040518091039020146115365760405162461bcd60e51b815260040161031f9061290a565b60008281526001602090815260409091208b51611555928d0190611f9a565b5060008281526001602081815260409092208b5161157b939190920191908c0190611f9a565b50600082815260016020908152604090912089516115a1926002909201918b0190611f9a565b5050604080518082019091526015815274111bd8dd1bdc88149958dbdc9908155c19185d1959605a1b60208201525b600080516020612a898339815191528282426040516115f193929190612991565b60405180910390a150505050505050505050565b600081815260208190526040902060040154819060ff16151560011461163d5760405162461bcd60e51b815260040161031f90612896565b6040805160a081018252888152602080820189905281830188905260608201879052608082018690526000858152600282529290922081518051929391926116889284920190611f9a565b5060208281015180516116a19260018501920190611f9a565b50604082015180516116bd916002840191602090910190611f9a565b50606082015180516116d9916003840191602090910190611f9a565b5060809182015160049091015560408051848152606060208201819052601d908201527f50617469656e74204c6f636174696f6e20446174612075706461746564000000928101929092524290820152600080516020612a898339815191529060a0015b60405180910390a150505050505050565b60008385604051602001611763929190612605565b60408051601f1981840301815291905280516020909101209050606060008360018111156117a157634e487b7160e01b600052602160045260246000fd5b14156119345785805190602001206000808481526020019081526020016000206001016040516117d1919061256a565b604051809103902014156117f75760405162461bcd60e51b815260040161031f9061294d565b8480519060200120600080848152602001908152602001600020600201604051611821919061256a565b604051809103902014156118475760405162461bcd60e51b815260040161031f906128c6565b6040805160a0810182528881526020808201899052818301889052606082018790526001608083015260008581528082529290922081518051929391926118919284920190611f9a565b5060208281015180516118aa9260018501920190611f9a565b50604082015180516118c6916002840191602090910190611f9a565b50606082015180516118e2916003840191602090910190611f9a565b50608091909101516004909101805460ff19169115159190911790555060408051808201909152601981527f50617469656e7420526567697374726174696f6e20446f6e650000000000000060208201525b600183600181111561195657634e487b7160e01b600052602160045260246000fd5b1415611a8f578580519060200120600080848152602001908152602001600020600101604051611986919061256a565b6040518091039020146119ab5760405162461bcd60e51b815260040161031f9061294d565b84805190602001206000808481526020019081526020016000206002016040516119d5919061256a565b6040518091039020146119fa5760405162461bcd60e51b815260040161031f906128c6565b6000828152602081815260409091208851611a17928a0190611f9a565b506000828152602081815260409091208751611a3b92600190920191890190611f9a565b506000828152602081815260409091208651611a5f92600290920191880190611f9a565b505060408051808201909152601681527514185d1a595b9d08149958dbdc9908155c19185d195960521b60208201525b600080516020612a8983398151915282824260405161173d93929190612991565b600085815260208190526040902060040154859060ff161515600114611ae85760405162461bcd60e51b815260040161031f90612896565b600086815260056020908152604080832088845290915290206003015460ff161515600114611b595760405162461bcd60e51b815260206004820152601e60248201527f4548522d5243472d30313a20416c726561647920726567697374657265640000604482015260640161031f565b604080516080810182528581526020808201869052818301859052600160608301526000898152600582528381208982528252929092208151805192939192611ba59284920190611f9a565b506020828101518051611bbe9260018501920190611f9a565b5060408201518051611bda916002840191602090910190611f9a565b50606091909101516003909101805460ff191691151591909117905560005b60028111611cee578451602080870191909120600089815260058352604080822085835290935282902091519091611c309161256a565b60405180910390201415611cdc576040805160808101825286815260208082018790528183018690526001606083015260008a8152600582528381208582528252929092208151805192939192611c8a9284920190611f9a565b506020828101518051611ca39260018501920190611f9a565b5060408201518051611cbf916002840191602090910190611f9a565b50606091909101516003909101805460ff19169115159190911790555b80611ce681612a25565b915050611bf9565b50600080516020612a898339815191528642604051610ae69291909182526060602083018190526017908301527f4361726567697665722044617461206d6f6469666965640000000000000000006080830152604082015260a00190565b600260205260009081526040902080548190611d67906129ea565b80601f0160208091040260200160405190810160405280929190818152602001828054611d93906129ea565b8015611de05780601f10611db557610100808354040283529160200191611de0565b820191906000526020600020905b815481529060010190602001808311611dc357829003601f168201915b505050505090806001018054611df5906129ea565b80601f0160208091040260200160405190810160405280929190818152602001828054611e21906129ea565b8015611e6e5780601f10611e4357610100808354040283529160200191611e6e565b820191906000526020600020905b815481529060010190602001808311611e5157829003601f168201915b505050505090806002018054611e83906129ea565b80601f0160208091040260200160405190810160405280929190818152602001828054611eaf906129ea565b8015611efc5780601f10611ed157610100808354040283529160200191611efc565b820191906000526020600020905b815481529060010190602001808311611edf57829003601f168201915b505050505090806003018054611f11906129ea565b80601f0160208091040260200160405190810160405280929190818152602001828054611f3d906129ea565b8015611f8a5780601f10611f5f57610100808354040283529160200191611f8a565b820191906000526020600020905b815481529060010190602001808311611f6d57829003601f168201915b5050505050908060040154905085565b828054611fa6906129ea565b90600052602060002090601f016020900481019282611fc8576000855561200e565b82601f10611fe157805160ff191683800117855561200e565b8280016001018555821561200e579182015b8281111561200e578251825591602001919060010190611ff3565b5061201a92915061201e565b5090565b5b8082111561201a576000815560010161201f565b80356005811061204257600080fd5b919050565b80356003811061204257600080fd5b803561204281612a78565b600082601f830112612071578081fd5b813567ffffffffffffffff8082111561208c5761208c612a62565b604051601f8301601f19908116603f011681019082821181831017156120b4576120b4612a62565b816040528381528660208588010111156120cc578485fd5b8360208701602083013792830160200193909352509392505050565b600080600080600060a086880312156120ff578081fd5b853567ffffffffffffffff80821115612116578283fd5b61212289838a01612061565b96506020880135915080821115612137578283fd5b61214389838a01612061565b95506040880135915080821115612158578283fd5b61216489838a01612061565b94506060880135915080821115612179578283fd5b5061218688828901612061565b925050608086013561219781612a78565b809150509295509295909350565b600080600080600080600080610100898b0312156121c1578283fd5b883567ffffffffffffffff808211156121d8578485fd5b6121e48c838d01612061565b995060208b01359150808211156121f9578485fd5b6122058c838d01612061565b985060408b013591508082111561221a578485fd5b6122268c838d01612061565b975060608b013591508082111561223b578485fd5b6122478c838d01612061565b965060808b013591508082111561225c578485fd5b506122698b828c01612061565b94505061227860a08a01612033565b925061228660c08a01612047565b915061229460e08a01612056565b90509295985092959890939650565b60008060008060008060c087890312156122bb578182fd5b863567ffffffffffffffff808211156122d2578384fd5b6122de8a838b01612061565b975060208901359150808211156122f3578384fd5b6122ff8a838b01612061565b96506040890135915080821115612314578384fd5b6123208a838b01612061565b95506060890135915080821115612335578384fd5b5061234289828a01612061565b9350506080870135915060a087013590509295509295509295565b600080600080600060a08688031215612374578081fd5b853567ffffffffffffffff8082111561238b578283fd5b61239789838a01612061565b965060208801359150808211156123ac578283fd5b506123b988828901612061565b959895975050505060408401359360608101359360809091013592509050565b6000602082840312156123ea578081fd5b5035919050565b60008060408385031215612403578182fd5b50508035926020909101359150565b600080600060608486031215612426578283fd5b8335925060208401359150604084013561243f81612a78565b809150509250925092565b600080600080600060a08688031215612461578081fd5b8535945060208601359350604086013567ffffffffffffffff80821115612486578283fd5b61249289838a01612061565b945060608801359150808211156124a7578283fd5b6124b389838a01612061565b935060808801359150808211156124c8578283fd5b506124d588828901612061565b9150509295509295909350565b6000806000606084860312156124f6578283fd5b505081359360208301359350604090920135919050565b60008060008060808587031215612522578182fd5b5050823594602084013594506040840135936060013592509050565b600081518084526125568160208601602086016129ba565b601f01601f19169290920160200192915050565b600080835482600182811c91508083168061258657607f831692505b60208084108214156125a657634e487b7160e01b87526022600452602487fd5b8180156125ba57600181146125cb576125f7565b60ff198616895284890196506125f7565b60008a815260209020885b868110156125ef5781548b8201529085019083016125d6565b505084890196505b509498975050505050505050565b600083516126178184602088016129ba565b83519083019061262b8183602088016129ba565b01949350505050565b608081526000612647608083018761253e565b8281036020840152612659818761253e565b9050828103604084015261266d818661253e565b915050821515606083015295945050505050565b60a08152600061269460a083018861253e565b82810360208401526126a6818861253e565b905082810360408401526126ba818761253e565b905082810360608401526126ce818661253e565b91505082151560808301529695505050505050565b60006101008083526126f78184018c61253e565b9050828103602084015261270b818b61253e565b9050828103604084015261271f818a61253e565b90508281036060840152612733818961253e565b90508281036080840152612747818861253e565b9150506005851061275a5761275a612a4c565b8460a08301526003841061277057612770612a4c565b8360c083015282151560e08301529998505050505050505050565b60a08152600061279e60a083018861253e565b82810360208401526127b0818861253e565b905082810360408401526127c4818761253e565b905082810360608401526127d8818661253e565b9150508260808301529695505050505050565b6080815260006127fe608083018761253e565b8281036020840152612810818761253e565b604084019590955250506060015292915050565b608081526000612837608083018761253e565b6020830195909552506040810192909252606090910152919050565b60208082526023908201527f4548522d52442d30313a20446f63746f7220616c726561647920456e726f6c6c60408201526232b21760e91b606082015260800190565b60208082526016908201527514185d1a595b9d08139bdd081c9959da5cdd195c995960521b604082015260600190565b60208082526024908201527f4548522d52502d30323a2050617469656e7420616c726561647920456e726f6c6040820152633632b21760e11b606082015260800190565b60208082526023908201527f4548522d52442d30323a20446f63746f7220616c726561647920456e726f6c6c60408201526232b21760e91b606082015260800190565b60208082526024908201527f4548522d52502d30313a2050617469656e7420616c726561647920456e726f6c6040820152633632b21760e11b606082015260800190565b8381526060602082015260006129aa606083018561253e565b9050826040830152949350505050565b60005b838110156129d55781810151838201526020016129bd565b838111156129e4576000848401525b50505050565b600181811c908216806129fe57607f821691505b60208210811415612a1f57634e487b7160e01b600052602260045260246000fd5b50919050565b6000600019821415612a4557634e487b7160e01b81526011600452602481fd5b5060010190565b634e487b7160e01b600052602160045260246000fd5b634e487b7160e01b600052604160045260246000fd5b60028110612a8557600080fd5b5056fe1041037d4b3ee5730fce647ebd981cd0fd8864f61cd34868ef88a3fa6af64721a264697066735822122094158dd276a342e53566029a73ffd1a1e434c8aa62b81d89d663cf459bd2580164736f6c63430008040033",
					"opcodes": "PUSH1 0x80 PUSH1 0x40 MSTORE CALLVALUE DUP1 ISZERO PUSH2 0x10 JUMPI PUSH1 0x0 DUP1 REVERT JUMPDEST POP PUSH2 0x2ADE DUP1 PUSH2 0x20 PUSH1 0x0 CODECOPY PUSH1 0x0 RETURN INVALID PUSH1 0x80 PUSH1 0x40 MSTORE CALLVALUE DUP1 ISZERO PUSH2 0x10 JUMPI PUSH1 0x0 DUP1 REVERT JUMPDEST POP PUSH1 0x4 CALLDATASIZE LT PUSH2 0x100 JUMPI PUSH1 0x0 CALLDATALOAD PUSH1 0xE0 SHR DUP1 PUSH4 0xCBD46FA3 GT PUSH2 0x97 JUMPI DUP1 PUSH4 0xEDEF7049 GT PUSH2 0x66 JUMPI DUP1 PUSH4 0xEDEF7049 EQ PUSH2 0x264 JUMPI DUP1 PUSH4 0xF60B48CB EQ PUSH2 0x277 JUMPI DUP1 PUSH4 0xF6C6E3D0 EQ PUSH2 0x2B0 JUMPI DUP1 PUSH4 0xF75BE4EB EQ PUSH2 0x2C3 JUMPI PUSH1 0x0 DUP1 REVERT JUMPDEST DUP1 PUSH4 0xCBD46FA3 EQ PUSH2 0x208 JUMPI DUP1 PUSH4 0xD7349705 EQ PUSH2 0x22B JUMPI DUP1 PUSH4 0xDB3E3976 EQ PUSH2 0x23E JUMPI DUP1 PUSH4 0xE078A1C6 EQ PUSH2 0x251 JUMPI PUSH1 0x0 DUP1 REVERT JUMPDEST DUP1 PUSH4 0x764B6B38 GT PUSH2 0xD3 JUMPI DUP1 PUSH4 0x764B6B38 EQ PUSH2 0x1AC JUMPI DUP1 PUSH4 0x8F58F628 EQ PUSH2 0x1BF JUMPI DUP1 PUSH4 0xA269B418 EQ PUSH2 0x1D2 JUMPI DUP1 PUSH4 0xC977BAF3 EQ PUSH2 0x1E5 JUMPI PUSH1 0x0 DUP1 REVERT JUMPDEST DUP1 PUSH4 0x21BF487 EQ PUSH2 0x105 JUMPI DUP1 PUSH4 0xA77F6B0 EQ PUSH2 0x11A JUMPI DUP1 PUSH4 0x2990BC6F EQ PUSH2 0x14A JUMPI DUP1 PUSH4 0x4FCD407A EQ PUSH2 0x16E JUMPI JUMPDEST PUSH1 0x0 DUP1 REVERT JUMPDEST PUSH2 0x118 PUSH2 0x113 CALLDATASIZE PUSH1 0x4 PUSH2 0x24E2 JUMP JUMPDEST PUSH2 0x2E7 JUMP JUMPDEST STOP JUMPDEST PUSH2 0x12D PUSH2 0x128 CALLDATASIZE PUSH1 0x4 PUSH2 0x23D9 JUMP JUMPDEST PUSH2 0x345 JUMP JUMPDEST PUSH1 0x40 MLOAD PUSH2 0x141 SWAP9 SWAP8 SWAP7 SWAP6 SWAP5 SWAP4 SWAP3 SWAP2 SWAP1 PUSH2 0x26E3 JUMP JUMPDEST PUSH1 0x40 MLOAD DUP1 SWAP2 SUB SWAP1 RETURN JUMPDEST PUSH2 0x15D PUSH2 0x158 CALLDATASIZE PUSH1 0x4 PUSH2 0x23D9 JUMP JUMPDEST PUSH2 0x637 JUMP JUMPDEST PUSH1 0x40 MLOAD PUSH2 0x141 SWAP6 SWAP5 SWAP4 SWAP3 SWAP2 SWAP1 PUSH2 0x2681 JUMP JUMPDEST PUSH2 0x19C PUSH2 0x17C CALLDATASIZE PUSH1 0x4 PUSH2 0x23F1 JUMP JUMPDEST PUSH1 0x6 PUSH1 0x20 SWAP1 DUP2 MSTORE PUSH1 0x0 SWAP3 DUP4 MSTORE PUSH1 0x40 DUP1 DUP5 KECCAK256 SWAP1 SWAP2 MSTORE SWAP1 DUP3 MSTORE SWAP1 KECCAK256 SLOAD PUSH1 0xFF AND DUP2 JUMP JUMPDEST PUSH1 0x40 MLOAD SWAP1 ISZERO ISZERO DUP2 MSTORE PUSH1 0x20 ADD PUSH2 0x141 JUMP JUMPDEST PUSH2 0x118 PUSH2 0x1BA CALLDATASIZE PUSH1 0x4 PUSH2 0x250D JUMP JUMPDEST PUSH2 0x888 JUMP JUMPDEST PUSH2 0x118 PUSH2 0x1CD CALLDATASIZE PUSH1 0x4 PUSH2 0x244A JUMP JUMPDEST PUSH2 0x94F JUMP JUMPDEST PUSH2 0x118 PUSH2 0x1E0 CALLDATASIZE PUSH1 0x4 PUSH2 0x2412 JUMP JUMPDEST PUSH2 0xAF6 JUMP JUMPDEST PUSH2 0x1F8 PUSH2 0x1F3 CALLDATASIZE PUSH1 0x4 PUSH2 0x23D9 JUMP JUMPDEST PUSH2 0xD91 JUMP JUMPDEST PUSH1 0x40 MLOAD PUSH2 0x141 SWAP5 SWAP4 SWAP3 SWAP2 SWAP1 PUSH2 0x27EB JUMP JUMPDEST PUSH2 0x21B PUSH2 0x216 CALLDATASIZE PUSH1 0x4 PUSH2 0x23F1 JUMP JUMPDEST PUSH2 0xEC9 JUMP JUMPDEST PUSH1 0x40 MLOAD PUSH2 0x141 SWAP5 SWAP4 SWAP3 SWAP2 SWAP1 PUSH2 0x2634 JUMP JUMPDEST PUSH2 0x118 PUSH2 0x239 CALLDATASIZE PUSH1 0x4 PUSH2 0x235D JUMP JUMPDEST PUSH2 0x1097 JUMP JUMPDEST PUSH2 0x118 PUSH2 0x24C CALLDATASIZE PUSH1 0x4 PUSH2 0x21A5 JUMP JUMPDEST PUSH2 0x11A1 JUMP JUMPDEST PUSH2 0x118 PUSH2 0x25F CALLDATASIZE PUSH1 0x4 PUSH2 0x22A3 JUMP JUMPDEST PUSH2 0x1605 JUMP JUMPDEST PUSH2 0x118 PUSH2 0x272 CALLDATASIZE PUSH1 0x4 PUSH2 0x20E8 JUMP JUMPDEST PUSH2 0x174E JUMP JUMPDEST PUSH2 0x2A2 PUSH2 0x285 CALLDATASIZE PUSH1 0x4 PUSH2 0x23F1 JUMP JUMPDEST PUSH1 0x4 PUSH1 0x20 SWAP1 DUP2 MSTORE PUSH1 0x0 SWAP3 DUP4 MSTORE PUSH1 0x40 DUP1 DUP5 KECCAK256 SWAP1 SWAP2 MSTORE SWAP1 DUP3 MSTORE SWAP1 KECCAK256 SLOAD DUP2 JUMP JUMPDEST PUSH1 0x40 MLOAD SWAP1 DUP2 MSTORE PUSH1 0x20 ADD PUSH2 0x141 JUMP JUMPDEST PUSH2 0x118 PUSH2 0x2BE CALLDATASIZE PUSH1 0x4 PUSH2 0x244A JUMP JUMPDEST PUSH2 0x1AB0 JUMP JUMPDEST PUSH2 0x2D6 PUSH2 0x2D1 CALLDATASIZE PUSH1 0x4 PUSH2 0x23D9 JUMP JUMPDEST PUSH2 0x1D4C JUMP JUMPDEST PUSH1 0x40 MLOAD PUSH2 0x141 SWAP6 SWAP5 SWAP4 SWAP3 SWAP2 SWAP1 PUSH2 0x278B JUMP JUMPDEST PUSH1 0x0 DUP4 DUP2 MSTORE PUSH1 0x20 DUP2 SWAP1 MSTORE PUSH1 0x40 SWAP1 KECCAK256 PUSH1 0x4 ADD SLOAD DUP4 SWAP1 PUSH1 0xFF AND ISZERO ISZERO PUSH1 0x1 EQ PUSH2 0x328 JUMPI PUSH1 0x40 MLOAD PUSH3 0x461BCD PUSH1 0xE5 SHL DUP2 MSTORE PUSH1 0x4 ADD PUSH2 0x31F SWAP1 PUSH2 0x2896 JUMP JUMPDEST PUSH1 0x40 MLOAD DUP1 SWAP2 SUB SWAP1 REVERT JUMPDEST POP PUSH1 0x0 SWAP3 DUP4 MSTORE PUSH1 0x4 PUSH1 0x20 SWAP1 DUP2 MSTORE PUSH1 0x40 DUP1 DUP6 KECCAK256 SWAP4 DUP6 MSTORE SWAP3 SWAP1 MSTORE SWAP2 KECCAK256 SSTORE JUMP JUMPDEST PUSH1 0x1 PUSH1 0x20 MSTORE PUSH1 0x0 SWAP1 DUP2 MSTORE PUSH1 0x40 SWAP1 KECCAK256 DUP1 SLOAD DUP2 SWAP1 PUSH2 0x360 SWAP1 PUSH2 0x29EA JUMP JUMPDEST DUP1 PUSH1 0x1F ADD PUSH1 0x20 DUP1 SWAP2 DIV MUL PUSH1 0x20 ADD PUSH1 0x40 MLOAD SWAP1 DUP2 ADD PUSH1 0x40 MSTORE DUP1 SWAP3 SWAP2 SWAP1 DUP2 DUP2 MSTORE PUSH1 0x20 ADD DUP3 DUP1 SLOAD PUSH2 0x38C SWAP1 PUSH2 0x29EA JUMP JUMPDEST DUP1 ISZERO PUSH2 0x3D9 JUMPI DUP1 PUSH1 0x1F LT PUSH2 0x3AE JUMPI PUSH2 0x100 DUP1 DUP4 SLOAD DIV MUL DUP4 MSTORE SWAP2 PUSH1 0x20 ADD SWAP2 PUSH2 0x3D9 JUMP JUMPDEST DUP3 ADD SWAP2 SWAP1 PUSH1 0x0 MSTORE PUSH1 0x20 PUSH1 0x0 KECCAK256 SWAP1 JUMPDEST DUP2 SLOAD DUP2 MSTORE SWAP1 PUSH1 0x1 ADD SWAP1 PUSH1 0x20 ADD DUP1 DUP4 GT PUSH2 0x3BC JUMPI DUP3 SWAP1 SUB PUSH1 0x1F AND DUP3 ADD SWAP2 JUMPDEST POP POP POP POP POP SWAP1 DUP1 PUSH1 0x1 ADD DUP1 SLOAD PUSH2 0x3EE SWAP1 PUSH2 0x29EA JUMP JUMPDEST DUP1 PUSH1 0x1F ADD PUSH1 0x20 DUP1 SWAP2 DIV MUL PUSH1 0x20 ADD PUSH1 0x40 MLOAD SWAP1 DUP2 ADD PUSH1 0x40 MSTORE DUP1 SWAP3 SWAP2 SWAP1 DUP2 DUP2 MSTORE PUSH1 0x20 ADD DUP3 DUP1 SLOAD PUSH2 0x41A SWAP1 PUSH2 0x29EA JUMP JUMPDEST DUP1 ISZERO PUSH2 0x467 JUMPI DUP1 PUSH1 0x1F LT PUSH2 0x43C JUMPI PUSH2 0x100 DUP1 DUP4 SLOAD DIV MUL DUP4 MSTORE SWAP2 PUSH1 0x20 ADD SWAP2 PUSH2 0x467 JUMP JUMPDEST DUP3 ADD SWAP2 SWAP1 PUSH1 0x0 MSTORE PUSH1 0x20 PUSH1 0x0 KECCAK256 SWAP1 JUMPDEST DUP2 SLOAD DUP2 MSTORE SWAP1 PUSH1 0x1 ADD SWAP1 PUSH1 0x20 ADD DUP1 DUP4 GT PUSH2 0x44A JUMPI DUP3 SWAP1 SUB PUSH1 0x1F AND DUP3 ADD SWAP2 JUMPDEST POP POP POP POP POP SWAP1 DUP1 PUSH1 0x2 ADD DUP1 SLOAD PUSH2 0x47C SWAP1 PUSH2 0x29EA JUMP JUMPDEST DUP1 PUSH1 0x1F ADD PUSH1 0x20 DUP1 SWAP2 DIV MUL PUSH1 0x20 ADD PUSH1 0x40 MLOAD SWAP1 DUP2 ADD PUSH1 0x40 MSTORE DUP1 SWAP3 SWAP2 SWAP1 DUP2 DUP2 MSTORE PUSH1 0x20 ADD DUP3 DUP1 SLOAD PUSH2 0x4A8 SWAP1 PUSH2 0x29EA JUMP JUMPDEST DUP1 ISZERO PUSH2 0x4F5 JUMPI DUP1 PUSH1 0x1F LT PUSH2 0x4CA JUMPI PUSH2 0x100 DUP1 DUP4 SLOAD DIV MUL DUP4 MSTORE SWAP2 PUSH1 0x20 ADD SWAP2 PUSH2 0x4F5 JUMP JUMPDEST DUP3 ADD SWAP2 SWAP1 PUSH1 0x0 MSTORE PUSH1 0x20 PUSH1 0x0 KECCAK256 SWAP1 JUMPDEST DUP2 SLOAD DUP2 MSTORE SWAP1 PUSH1 0x1 ADD SWAP1 PUSH1 0x20 ADD DUP1 DUP4 GT PUSH2 0x4D8 JUMPI DUP3 SWAP1 SUB PUSH1 0x1F AND DUP3 ADD SWAP2 JUMPDEST POP POP POP POP POP SWAP1 DUP1 PUSH1 0x3 ADD DUP1 SLOAD PUSH2 0x50A SWAP1 PUSH2 0x29EA JUMP JUMPDEST DUP1 PUSH1 0x1F ADD PUSH1 0x20 DUP1 SWAP2 DIV MUL PUSH1 0x20 ADD PUSH1 0x40 MLOAD SWAP1 DUP2 ADD PUSH1 0x40 MSTORE DUP1 SWAP3 SWAP2 SWAP1 DUP2 DUP2 MSTORE PUSH1 0x20 ADD DUP3 DUP1 SLOAD PUSH2 0x536 SWAP1 PUSH2 0x29EA JUMP JUMPDEST DUP1 ISZERO PUSH2 0x583 JUMPI DUP1 PUSH1 0x1F LT PUSH2 0x558 JUMPI PUSH2 0x100 DUP1 DUP4 SLOAD DIV MUL DUP4 MSTORE SWAP2 PUSH1 0x20 ADD SWAP2 PUSH2 0x583 JUMP JUMPDEST DUP3 ADD SWAP2 SWAP1 PUSH1 0x0 MSTORE PUSH1 0x20 PUSH1 0x0 KECCAK256 SWAP1 JUMPDEST DUP2 SLOAD DUP2 MSTORE SWAP1 PUSH1 0x1 ADD SWAP1 PUSH1 0x20 ADD DUP1 DUP4 GT PUSH2 0x566 JUMPI DUP3 SWAP1 SUB PUSH1 0x1F AND DUP3 ADD SWAP2 JUMPDEST POP POP POP POP POP SWAP1 DUP1 PUSH1 0x4 ADD DUP1 SLOAD PUSH2 0x598 SWAP1 PUSH2 0x29EA JUMP JUMPDEST DUP1 PUSH1 0x1F ADD PUSH1 0x20 DUP1 SWAP2 DIV MUL PUSH1 0x20 ADD PUSH1 0x40 MLOAD SWAP1 DUP2 ADD PUSH1 0x40 MSTORE DUP1 SWAP3 SWAP2 SWAP1 DUP2 DUP2 MSTORE PUSH1 0x20 ADD DUP3 DUP1 SLOAD PUSH2 0x5C4 SWAP1 PUSH2 0x29EA JUMP JUMPDEST DUP1 ISZERO PUSH2 0x611 JUMPI DUP1 PUSH1 0x1F LT PUSH2 0x5E6 JUMPI PUSH2 0x100 DUP1 DUP4 SLOAD DIV MUL DUP4 MSTORE SWAP2 PUSH1 0x20 ADD SWAP2 PUSH2 0x611 JUMP JUMPDEST DUP3 ADD SWAP2 SWAP1 PUSH1 0x0 MSTORE PUSH1 0x20 PUSH1 0x0 KECCAK256 SWAP1 JUMPDEST DUP2 SLOAD DUP2 MSTORE SWAP1 PUSH1 0x1 ADD SWAP1 PUSH1 0x20 ADD DUP1 DUP4 GT PUSH2 0x5F4 JUMPI DUP3 SWAP1 SUB PUSH1 0x1F AND DUP3 ADD SWAP2 JUMPDEST POP POP POP PUSH1 0x5 SWAP1 SWAP4 ADD SLOAD SWAP2 SWAP3 POP POP PUSH1 0xFF DUP1 DUP3 AND SWAP2 PUSH2 0x100 DUP2 DIV DUP3 AND SWAP2 PUSH3 0x10000 SWAP1 SWAP2 DIV AND DUP9 JUMP JUMPDEST PUSH1 0x0 PUSH1 0x20 DUP2 SWAP1 MSTORE SWAP1 DUP2 MSTORE PUSH1 0x40 SWAP1 KECCAK256 DUP1 SLOAD DUP2 SWAP1 PUSH2 0x652 SWAP1 PUSH2 0x29EA JUMP JUMPDEST DUP1 PUSH1 0x1F ADD PUSH1 0x20 DUP1 SWAP2 DIV MUL PUSH1 0x20 ADD PUSH1 0x40 MLOAD SWAP1 DUP2 ADD PUSH1 0x40 MSTORE DUP1 SWAP3 SWAP2 SWAP1 DUP2 DUP2 MSTORE PUSH1 0x20 ADD DUP3 DUP1 SLOAD PUSH2 0x67E SWAP1 PUSH2 0x29EA JUMP JUMPDEST DUP1 ISZERO PUSH2 0x6CB JUMPI DUP1 PUSH1 0x1F LT PUSH2 0x6A0 JUMPI PUSH2 0x100 DUP1 DUP4 SLOAD DIV MUL DUP4 MSTORE SWAP2 PUSH1 0x20 ADD SWAP2 PUSH2 0x6CB JUMP JUMPDEST DUP3 ADD SWAP2 SWAP1 PUSH1 0x0 MSTORE PUSH1 0x20 PUSH1 0x0 KECCAK256 SWAP1 JUMPDEST DUP2 SLOAD DUP2 MSTORE SWAP1 PUSH1 0x1 ADD SWAP1 PUSH1 0x20 ADD DUP1 DUP4 GT PUSH2 0x6AE JUMPI DUP3 SWAP1 SUB PUSH1 0x1F AND DUP3 ADD SWAP2 JUMPDEST POP POP POP POP POP SWAP1 DUP1 PUSH1 0x1 ADD DUP1 SLOAD PUSH2 0x6E0 SWAP1 PUSH2 0x29EA JUMP JUMPDEST DUP1 PUSH1 0x1F ADD PUSH1 0x20 DUP1 SWAP2 DIV MUL PUSH1 0x20 ADD PUSH1 0x40 MLOAD SWAP1 DUP2 ADD PUSH1 0x40 MSTORE DUP1 SWAP3 SWAP2 SWAP1 DUP2 DUP2 MSTORE PUSH1 0x20 ADD DUP3 DUP1 SLOAD PUSH2 0x70C SWAP1 PUSH2 0x29EA JUMP JUMPDEST DUP1 ISZERO PUSH2 0x759 JUMPI DUP1 PUSH1 0x1F LT PUSH2 0x72E JUMPI PUSH2 0x100 DUP1 DUP4 SLOAD DIV MUL DUP4 MSTORE SWAP2 PUSH1 0x20 ADD SWAP2 PUSH2 0x759 JUMP JUMPDEST DUP3 ADD SWAP2 SWAP1 PUSH1 0x0 MSTORE PUSH1 0x20 PUSH1 0x0 KECCAK256 SWAP1 JUMPDEST DUP2 SLOAD DUP2 MSTORE SWAP1 PUSH1 0x1 ADD SWAP1 PUSH1 0x20 ADD DUP1 DUP4 GT PUSH2 0x73C JUMPI DUP3 SWAP1 SUB PUSH1 0x1F AND DUP3 ADD SWAP2 JUMPDEST POP POP POP POP POP SWAP1 DUP1 PUSH1 0x2 ADD DUP1 SLOAD PUSH2 0x76E SWAP1 PUSH2 0x29EA JUMP JUMPDEST DUP1 PUSH1 0x1F ADD PUSH1 0x20 DUP1 SWAP2 DIV MUL PUSH1 0x20 ADD PUSH1 0x40 MLOAD SWAP1 DUP2 ADD PUSH1 0x40 MSTORE DUP1 SWAP3 SWAP2 SWAP1 DUP2 DUP2 MSTORE PUSH1 0x20 ADD DUP3 DUP1 SLOAD PUSH2 0x79A SWAP1 PUSH2 0x29EA JUMP JUMPDEST DUP1 ISZERO PUSH2 0x7E7 JUMPI DUP1 PUSH1 0x1F LT PUSH2 0x7BC JUMPI PUSH2 0x100 DUP1 DUP4 SLOAD DIV MUL DUP4 MSTORE SWAP2 PUSH1 0x20 ADD SWAP2 PUSH2 0x7E7 JUMP JUMPDEST DUP3 ADD SWAP2 SWAP1 PUSH1 0x0 MSTORE PUSH1 0x20 PUSH1 0x0 KECCAK256 SWAP1 JUMPDEST DUP2 SLOAD DUP2 MSTORE SWAP1 PUSH1 0x1 ADD SWAP1 PUSH1 0x20 ADD DUP1 DUP4 GT PUSH2 0x7CA JUMPI DUP3 SWAP1 SUB PUSH1 0x1F AND DUP3 ADD SWAP2 JUMPDEST POP POP POP POP POP SWAP1 DUP1 PUSH1 0x3 ADD DUP1 SLOAD PUSH2 0x7FC SWAP1 PUSH2 0x29EA JUMP JUMPDEST DUP1 PUSH1 0x1F ADD PUSH1 0x20 DUP1 SWAP2 DIV MUL PUSH1 0x20 ADD PUSH1 0x40 MLOAD SWAP1 DUP2 ADD PUSH1 0x40 MSTORE DUP1 SWAP3 SWAP2 SWAP1 DUP2 DUP2 MSTORE PUSH1 0x20 ADD DUP3 DUP1 SLOAD PUSH2 0x828 SWAP1 PUSH2 0x29EA JUMP JUMPDEST DUP1 ISZERO PUSH2 0x875 JUMPI DUP1 PUSH1 0x1F LT PUSH2 0x84A JUMPI PUSH2 0x100 DUP1 DUP4 SLOAD DIV MUL DUP4 MSTORE SWAP2 PUSH1 0x20 ADD SWAP2 PUSH2 0x875 JUMP JUMPDEST DUP3 ADD SWAP2 SWAP1 PUSH1 0x0 MSTORE PUSH1 0x20 PUSH1 0x0 KECCAK256 SWAP1 JUMPDEST DUP2 SLOAD DUP2 MSTORE SWAP1 PUSH1 0x1 ADD SWAP1 PUSH1 0x20 ADD DUP1 DUP4 GT PUSH2 0x858 JUMPI DUP3 SWAP1 SUB PUSH1 0x1F AND DUP3 ADD SWAP2 JUMPDEST POP POP POP PUSH1 0x4 SWAP1 SWAP4 ADD SLOAD SWAP2 SWAP3 POP POP PUSH1 0xFF AND DUP6 JUMP JUMPDEST PUSH1 0x0 DUP5 DUP2 MSTORE PUSH1 0x20 DUP2 SWAP1 MSTORE PUSH1 0x40 SWAP1 KECCAK256 PUSH1 0x4 ADD SLOAD DUP5 SWAP1 PUSH1 0xFF AND ISZERO ISZERO PUSH1 0x1 EQ PUSH2 0x8C0 JUMPI PUSH1 0x40 MLOAD PUSH3 0x461BCD PUSH1 0xE5 SHL DUP2 MSTORE PUSH1 0x4 ADD PUSH2 0x31F SWAP1 PUSH2 0x2896 JUMP JUMPDEST PUSH1 0x0 DUP6 DUP2 MSTORE PUSH1 0x6 PUSH1 0x20 SWAP1 DUP2 MSTORE PUSH1 0x40 DUP1 DUP4 KECCAK256 DUP8 DUP5 MSTORE SWAP1 SWAP2 MSTORE SWAP1 KECCAK256 SLOAD PUSH1 0xFF AND ISZERO ISZERO PUSH1 0x1 EQ PUSH2 0x92E JUMPI PUSH1 0x40 MLOAD PUSH3 0x461BCD PUSH1 0xE5 SHL DUP2 MSTORE PUSH1 0x20 PUSH1 0x4 DUP3 ADD MSTORE PUSH1 0x1D PUSH1 0x24 DUP3 ADD MSTORE PUSH32 0x4E6F206163636573732070726F76696465642062792070617469656E74000000 PUSH1 0x44 DUP3 ADD MSTORE PUSH1 0x64 ADD PUSH2 0x31F JUMP JUMPDEST POP PUSH1 0x0 SWAP4 DUP5 MSTORE PUSH1 0x4 PUSH1 0x20 SWAP1 DUP2 MSTORE PUSH1 0x40 DUP1 DUP7 KECCAK256 SWAP4 DUP7 MSTORE SWAP3 SWAP1 MSTORE SWAP3 KECCAK256 SWAP2 SWAP1 SWAP2 SSTORE POP JUMP JUMPDEST PUSH1 0x0 DUP6 DUP2 MSTORE PUSH1 0x20 DUP2 SWAP1 MSTORE PUSH1 0x40 SWAP1 KECCAK256 PUSH1 0x4 ADD SLOAD DUP6 SWAP1 PUSH1 0xFF AND ISZERO ISZERO PUSH1 0x1 EQ PUSH2 0x987 JUMPI PUSH1 0x40 MLOAD PUSH3 0x461BCD PUSH1 0xE5 SHL DUP2 MSTORE PUSH1 0x4 ADD PUSH2 0x31F SWAP1 PUSH2 0x2896 JUMP JUMPDEST PUSH1 0x0 DUP7 DUP2 MSTORE PUSH1 0x5 PUSH1 0x20 SWAP1 DUP2 MSTORE PUSH1 0x40 DUP1 DUP4 KECCAK256 DUP9 DUP5 MSTORE SWAP1 SWAP2 MSTORE SWAP1 KECCAK256 PUSH1 0x3 ADD SLOAD PUSH1 0xFF AND ISZERO PUSH2 0x9F4 JUMPI PUSH1 0x40 MLOAD PUSH3 0x461BCD PUSH1 0xE5 SHL DUP2 MSTORE PUSH1 0x20 PUSH1 0x4 DUP3 ADD MSTORE PUSH1 0x1E PUSH1 0x24 DUP3 ADD MSTORE PUSH32 0x4548522D5243472D30313A20416C726561647920726567697374657265640000 PUSH1 0x44 DUP3 ADD MSTORE PUSH1 0x64 ADD PUSH2 0x31F JUMP JUMPDEST PUSH1 0x40 DUP1 MLOAD PUSH1 0x80 DUP2 ADD DUP3 MSTORE DUP6 DUP2 MSTORE PUSH1 0x20 DUP1 DUP3 ADD DUP7 SWAP1 MSTORE DUP2 DUP4 ADD DUP6 SWAP1 MSTORE PUSH1 0x1 PUSH1 0x60 DUP4 ADD MSTORE PUSH1 0x0 DUP10 DUP2 MSTORE PUSH1 0x5 DUP3 MSTORE DUP4 DUP2 KECCAK256 DUP10 DUP3 MSTORE DUP3 MSTORE SWAP3 SWAP1 SWAP3 KECCAK256 DUP2 MLOAD DUP1 MLOAD SWAP3 SWAP4 SWAP2 SWAP3 PUSH2 0xA40 SWAP3 DUP5 SWAP3 ADD SWAP1 PUSH2 0x1F9A JUMP JUMPDEST POP PUSH1 0x20 DUP3 DUP2 ADD MLOAD DUP1 MLOAD PUSH2 0xA59 SWAP3 PUSH1 0x1 DUP6 ADD SWAP3 ADD SWAP1 PUSH2 0x1F9A JUMP JUMPDEST POP PUSH1 0x40 DUP3 ADD MLOAD DUP1 MLOAD PUSH2 0xA75 SWAP2 PUSH1 0x2 DUP5 ADD SWAP2 PUSH1 0x20 SWAP1 SWAP2 ADD SWAP1 PUSH2 0x1F9A JUMP JUMPDEST POP PUSH1 0x60 SWAP2 DUP3 ADD MLOAD PUSH1 0x3 SWAP1 SWAP2 ADD DUP1 SLOAD PUSH1 0xFF NOT AND SWAP2 ISZERO ISZERO SWAP2 SWAP1 SWAP2 OR SWAP1 SSTORE PUSH1 0x40 DUP1 MLOAD DUP9 DUP2 MSTORE PUSH1 0x20 DUP2 ADD DUP4 SWAP1 MSTORE PUSH1 0x19 SWAP3 DUP2 ADD SWAP3 SWAP1 SWAP3 MSTORE PUSH32 0x4361726567697665722044617461207265676973746572656400000000000000 PUSH1 0x80 DUP4 ADD MSTORE TIMESTAMP SWAP1 DUP3 ADD MSTORE PUSH1 0x0 DUP1 MLOAD PUSH1 0x20 PUSH2 0x2A89 DUP4 CODECOPY DUP2 MLOAD SWAP2 MSTORE SWAP1 PUSH1 0xA0 ADD JUMPDEST PUSH1 0x40 MLOAD DUP1 SWAP2 SUB SWAP1 LOG1 POP POP POP POP POP POP JUMP JUMPDEST PUSH1 0x0 DUP3 DUP2 MSTORE PUSH1 0x1 PUSH1 0x20 DUP2 SWAP1 MSTORE PUSH1 0x40 SWAP1 SWAP2 KECCAK256 PUSH1 0x5 ADD SLOAD DUP4 SWAP2 PUSH3 0x10000 SWAP1 SWAP2 DIV PUSH1 0xFF AND ISZERO ISZERO EQ PUSH2 0xB5E JUMPI PUSH1 0x40 MLOAD PUSH3 0x461BCD PUSH1 0xE5 SHL DUP2 MSTORE PUSH1 0x20 PUSH1 0x4 DUP3 ADD MSTORE PUSH1 0x15 PUSH1 0x24 DUP3 ADD MSTORE PUSH21 0x111BD8DD1BDC88139BDD081C9959DA5CDD195C9959 PUSH1 0x5A SHL PUSH1 0x44 DUP3 ADD MSTORE PUSH1 0x64 ADD PUSH2 0x31F JUMP JUMPDEST PUSH1 0x60 PUSH1 0x0 DUP4 PUSH1 0x1 DUP2 GT ISZERO PUSH2 0xB82 JUMPI PUSH4 0x4E487B71 PUSH1 0xE0 SHL PUSH1 0x0 MSTORE PUSH1 0x21 PUSH1 0x4 MSTORE PUSH1 0x24 PUSH1 0x0 REVERT JUMPDEST EQ ISZERO PUSH2 0xC56 JUMPI PUSH1 0x0 DUP6 DUP2 MSTORE PUSH1 0x6 PUSH1 0x20 SWAP1 DUP2 MSTORE PUSH1 0x40 DUP1 DUP4 KECCAK256 DUP8 DUP5 MSTORE SWAP1 SWAP2 MSTORE SWAP1 KECCAK256 SLOAD PUSH1 0xFF AND ISZERO PUSH2 0xBFE JUMPI PUSH1 0x40 MLOAD PUSH3 0x461BCD PUSH1 0xE5 SHL DUP2 MSTORE PUSH1 0x20 PUSH1 0x4 DUP3 ADD MSTORE PUSH1 0x24 DUP1 DUP3 ADD MSTORE PUSH32 0x4548522D41432D30313A2041636365737320686164206265656E2070726F7669 PUSH1 0x44 DUP3 ADD MSTORE PUSH4 0x64656421 PUSH1 0xE0 SHL PUSH1 0x64 DUP3 ADD MSTORE PUSH1 0x84 ADD PUSH2 0x31F JUMP JUMPDEST POP PUSH1 0x0 DUP5 DUP2 MSTORE PUSH1 0x6 PUSH1 0x20 SWAP1 DUP2 MSTORE PUSH1 0x40 DUP1 DUP4 KECCAK256 DUP7 DUP5 MSTORE DUP3 MSTORE SWAP2 DUP3 SWAP1 KECCAK256 DUP1 SLOAD PUSH1 0xFF NOT AND PUSH1 0x1 OR SWAP1 SSTORE DUP2 MLOAD DUP1 DUP4 ADD SWAP1 SWAP3 MSTORE PUSH1 0x1C DUP3 MSTORE PUSH32 0x4163636573732069732070726F766964656420746F20646F63746F7200000000 SWAP1 DUP3 ADD MSTORE JUMPDEST PUSH1 0x1 DUP4 PUSH1 0x1 DUP2 GT ISZERO PUSH2 0xC78 JUMPI PUSH4 0x4E487B71 PUSH1 0xE0 SHL PUSH1 0x0 MSTORE PUSH1 0x21 PUSH1 0x4 MSTORE PUSH1 0x24 PUSH1 0x0 REVERT JUMPDEST EQ ISZERO PUSH2 0xD4D JUMPI PUSH1 0x0 DUP6 DUP2 MSTORE PUSH1 0x6 PUSH1 0x20 SWAP1 DUP2 MSTORE PUSH1 0x40 DUP1 DUP4 KECCAK256 DUP8 DUP5 MSTORE SWAP1 SWAP2 MSTORE SWAP1 KECCAK256 SLOAD PUSH1 0xFF AND ISZERO ISZERO PUSH1 0x1 EQ PUSH2 0xCF8 JUMPI PUSH1 0x40 MLOAD PUSH3 0x461BCD PUSH1 0xE5 SHL DUP2 MSTORE PUSH1 0x20 PUSH1 0x4 DUP3 ADD MSTORE PUSH1 0x23 PUSH1 0x24 DUP3 ADD MSTORE PUSH32 0x4548522D41432D30323A2041636365737320776173206E6F742070726F766964 PUSH1 0x44 DUP3 ADD MSTORE PUSH3 0x656421 PUSH1 0xE8 SHL PUSH1 0x64 DUP3 ADD MSTORE PUSH1 0x84 ADD PUSH2 0x31F JUMP JUMPDEST POP PUSH1 0x0 DUP5 DUP2 MSTORE PUSH1 0x6 PUSH1 0x20 SWAP1 DUP2 MSTORE PUSH1 0x40 DUP1 DUP4 KECCAK256 DUP7 DUP5 MSTORE DUP3 MSTORE SWAP2 DUP3 SWAP1 KECCAK256 DUP1 SLOAD PUSH1 0xFF NOT AND SWAP1 SSTORE DUP2 MLOAD DUP1 DUP4 ADD SWAP1 SWAP3 MSTORE PUSH1 0x1B DUP3 MSTORE PUSH32 0x416363657373206973207265766F6B656420746F20646F63746F720000000000 SWAP1 DUP3 ADD MSTORE JUMPDEST PUSH32 0xF4702A3B8B6C43F2FA41588E64688A0C0BC61F411971BD5EC9C64B828D4BCCB0 DUP2 DUP7 DUP7 TIMESTAMP PUSH1 0x40 MLOAD PUSH2 0xD82 SWAP5 SWAP4 SWAP3 SWAP2 SWAP1 PUSH2 0x2824 JUMP JUMPDEST PUSH1 0x40 MLOAD DUP1 SWAP2 SUB SWAP1 LOG1 POP POP POP POP POP JUMP JUMPDEST PUSH1 0x3 PUSH1 0x20 MSTORE PUSH1 0x0 SWAP1 DUP2 MSTORE PUSH1 0x40 SWAP1 KECCAK256 DUP1 SLOAD DUP2 SWAP1 PUSH2 0xDAC SWAP1 PUSH2 0x29EA JUMP JUMPDEST DUP1 PUSH1 0x1F ADD PUSH1 0x20 DUP1 SWAP2 DIV MUL PUSH1 0x20 ADD PUSH1 0x40 MLOAD SWAP1 DUP2 ADD PUSH1 0x40 MSTORE DUP1 SWAP3 SWAP2 SWAP1 DUP2 DUP2 MSTORE PUSH1 0x20 ADD DUP3 DUP1 SLOAD PUSH2 0xDD8 SWAP1 PUSH2 0x29EA JUMP JUMPDEST DUP1 ISZERO PUSH2 0xE25 JUMPI DUP1 PUSH1 0x1F LT PUSH2 0xDFA JUMPI PUSH2 0x100 DUP1 DUP4 SLOAD DIV MUL DUP4 MSTORE SWAP2 PUSH1 0x20 ADD SWAP2 PUSH2 0xE25 JUMP JUMPDEST DUP3 ADD SWAP2 SWAP1 PUSH1 0x0 MSTORE PUSH1 0x20 PUSH1 0x0 KECCAK256 SWAP1 JUMPDEST DUP2 SLOAD DUP2 MSTORE SWAP1 PUSH1 0x1 ADD SWAP1 PUSH1 0x20 ADD DUP1 DUP4 GT PUSH2 0xE08 JUMPI DUP3 SWAP1 SUB PUSH1 0x1F AND DUP3 ADD SWAP2 JUMPDEST POP POP POP POP POP SWAP1 DUP1 PUSH1 0x1 ADD DUP1 SLOAD PUSH2 0xE3A SWAP1 PUSH2 0x29EA JUMP JUMPDEST DUP1 PUSH1 0x1F ADD PUSH1 0x20 DUP1 SWAP2 DIV MUL PUSH1 0x20 ADD PUSH1 0x40 MLOAD SWAP1 DUP2 ADD PUSH1 0x40 MSTORE DUP1 SWAP3 SWAP2 SWAP1 DUP2 DUP2 MSTORE PUSH1 0x20 ADD DUP3 DUP1 SLOAD PUSH2 0xE66 SWAP1 PUSH2 0x29EA JUMP JUMPDEST DUP1 ISZERO PUSH2 0xEB3 JUMPI DUP1 PUSH1 0x1F LT PUSH2 0xE88 JUMPI PUSH2 0x100 DUP1 DUP4 SLOAD DIV MUL DUP4 MSTORE SWAP2 PUSH1 0x20 ADD SWAP2 PUSH2 0xEB3 JUMP JUMPDEST DUP3 ADD SWAP2 SWAP1 PUSH1 0x0 MSTORE PUSH1 0x20 PUSH1 0x0 KECCAK256 SWAP1 JUMPDEST DUP2 SLOAD DUP2 MSTORE SWAP1 PUSH1 0x1 ADD SWAP1 PUSH1 0x20 ADD DUP1 DUP4 GT PUSH2 0xE96 JUMPI DUP3 SWAP1 SUB PUSH1 0x1F AND DUP3 ADD SWAP2 JUMPDEST POP POP POP POP POP SWAP1 DUP1 PUSH1 0x2 ADD SLOAD SWAP1 DUP1 PUSH1 0x3 ADD SLOAD SWAP1 POP DUP5 JUMP JUMPDEST PUSH1 0x5 PUSH1 0x20 SWAP1 DUP2 MSTORE PUSH1 0x0 SWAP3 DUP4 MSTORE PUSH1 0x40 DUP1 DUP5 KECCAK256 SWAP1 SWAP2 MSTORE SWAP1 DUP3 MSTORE SWAP1 KECCAK256 DUP1 SLOAD DUP2 SWAP1 PUSH2 0xEEF SWAP1 PUSH2 0x29EA JUMP JUMPDEST DUP1 PUSH1 0x1F ADD PUSH1 0x20 DUP1 SWAP2 DIV MUL PUSH1 0x20 ADD PUSH1 0x40 MLOAD SWAP1 DUP2 ADD PUSH1 0x40 MSTORE DUP1 SWAP3 SWAP2 SWAP1 DUP2 DUP2 MSTORE PUSH1 0x20 ADD DUP3 DUP1 SLOAD PUSH2 0xF1B SWAP1 PUSH2 0x29EA JUMP JUMPDEST DUP1 ISZERO PUSH2 0xF68 JUMPI DUP1 PUSH1 0x1F LT PUSH2 0xF3D JUMPI PUSH2 0x100 DUP1 DUP4 SLOAD DIV MUL DUP4 MSTORE SWAP2 PUSH1 0x20 ADD SWAP2 PUSH2 0xF68 JUMP JUMPDEST DUP3 ADD SWAP2 SWAP1 PUSH1 0x0 MSTORE PUSH1 0x20 PUSH1 0x0 KECCAK256 SWAP1 JUMPDEST DUP2 SLOAD DUP2 MSTORE SWAP1 PUSH1 0x1 ADD SWAP1 PUSH1 0x20 ADD DUP1 DUP4 GT PUSH2 0xF4B JUMPI DUP3 SWAP1 SUB PUSH1 0x1F AND DUP3 ADD SWAP2 JUMPDEST POP POP POP POP POP SWAP1 DUP1 PUSH1 0x1 ADD DUP1 SLOAD PUSH2 0xF7D SWAP1 PUSH2 0x29EA JUMP JUMPDEST DUP1 PUSH1 0x1F ADD PUSH1 0x20 DUP1 SWAP2 DIV MUL PUSH1 0x20 ADD PUSH1 0x40 MLOAD SWAP1 DUP2 ADD PUSH1 0x40 MSTORE DUP1 SWAP3 SWAP2 SWAP1 DUP2 DUP2 MSTORE PUSH1 0x20 ADD DUP3 DUP1 SLOAD PUSH2 0xFA9 SWAP1 PUSH2 0x29EA JUMP JUMPDEST DUP1 ISZERO PUSH2 0xFF6 JUMPI DUP1 PUSH1 0x1F LT PUSH2 0xFCB JUMPI PUSH2 0x100 DUP1 DUP4 SLOAD DIV MUL DUP4 MSTORE SWAP2 PUSH1 0x20 ADD SWAP2 PUSH2 0xFF6 JUMP JUMPDEST DUP3 ADD SWAP2 SWAP1 PUSH1 0x0 MSTORE PUSH1 0x20 PUSH1 0x0 KECCAK256 SWAP1 JUMPDEST DUP2 SLOAD DUP2 MSTORE SWAP1 PUSH1 0x1 ADD SWAP1 PUSH1 0x20 ADD DUP1 DUP4 GT PUSH2 0xFD9 JUMPI DUP3 SWAP1 SUB PUSH1 0x1F AND DUP3 ADD SWAP2 JUMPDEST POP POP POP POP POP SWAP1 DUP1 PUSH1 0x2 ADD DUP1 SLOAD PUSH2 0x100B SWAP1 PUSH2 0x29EA JUMP JUMPDEST DUP1 PUSH1 0x1F ADD PUSH1 0x20 DUP1 SWAP2 DIV MUL PUSH1 0x20 ADD PUSH1 0x40 MLOAD SWAP1 DUP2 ADD PUSH1 0x40 MSTORE DUP1 SWAP3 SWAP2 SWAP1 DUP2 DUP2 MSTORE PUSH1 0x20 ADD DUP3 DUP1 SLOAD PUSH2 0x1037 SWAP1 PUSH2 0x29EA JUMP JUMPDEST DUP1 ISZERO PUSH2 0x1084 JUMPI DUP1 PUSH1 0x1F LT PUSH2 0x1059 JUMPI PUSH2 0x100 DUP1 DUP4 SLOAD DIV MUL DUP4 MSTORE SWAP2 PUSH1 0x20 ADD SWAP2 PUSH2 0x1084 JUMP JUMPDEST DUP3 ADD SWAP2 SWAP1 PUSH1 0x0 MSTORE PUSH1 0x20 PUSH1 0x0 KECCAK256 SWAP1 JUMPDEST DUP2 SLOAD DUP2 MSTORE SWAP1 PUSH1 0x1 ADD SWAP1 PUSH1 0x20 ADD DUP1 DUP4 GT PUSH2 0x1067 JUMPI DUP3 SWAP1 SUB PUSH1 0x1F AND DUP3 ADD SWAP2 JUMPDEST POP POP POP PUSH1 0x3 SWAP1 SWAP4 ADD SLOAD SWAP2 SWAP3 POP POP PUSH1 0xFF AND DUP5 JUMP JUMPDEST PUSH1 0x0 DUP2 DUP2 MSTORE PUSH1 0x20 DUP2 SWAP1 MSTORE PUSH1 0x40 SWAP1 KECCAK256 PUSH1 0x4 ADD SLOAD DUP2 SWAP1 PUSH1 0xFF AND ISZERO ISZERO PUSH1 0x1 EQ PUSH2 0x10CF JUMPI PUSH1 0x40 MLOAD PUSH3 0x461BCD PUSH1 0xE5 SHL DUP2 MSTORE PUSH1 0x4 ADD PUSH2 0x31F SWAP1 PUSH2 0x2896 JUMP JUMPDEST PUSH1 0x40 DUP1 MLOAD PUSH1 0x80 DUP2 ADD DUP3 MSTORE DUP8 DUP2 MSTORE PUSH1 0x20 DUP1 DUP3 ADD DUP9 SWAP1 MSTORE DUP2 DUP4 ADD DUP8 SWAP1 MSTORE PUSH1 0x60 DUP3 ADD DUP7 SWAP1 MSTORE PUSH1 0x0 DUP6 DUP2 MSTORE PUSH1 0x3 DUP3 MSTORE SWAP3 SWAP1 SWAP3 KECCAK256 DUP2 MLOAD DUP1 MLOAD SWAP3 SWAP4 SWAP2 SWAP3 PUSH2 0x1113 SWAP3 DUP5 SWAP3 ADD SWAP1 PUSH2 0x1F9A JUMP JUMPDEST POP PUSH1 0x20 DUP3 DUP2 ADD MLOAD DUP1 MLOAD PUSH2 0x112C SWAP3 PUSH1 0x1 DUP6 ADD SWAP3 ADD SWAP1 PUSH2 0x1F9A JUMP JUMPDEST POP PUSH1 0x40 DUP3 ADD MLOAD DUP2 PUSH1 0x2 ADD SSTORE PUSH1 0x60 DUP3 ADD MLOAD DUP2 PUSH1 0x3 ADD SSTORE SWAP1 POP POP PUSH1 0x0 DUP1 MLOAD PUSH1 0x20 PUSH2 0x2A89 DUP4 CODECOPY DUP2 MLOAD SWAP2 MSTORE DUP3 TIMESTAMP PUSH1 0x40 MLOAD PUSH2 0xAE6 SWAP3 SWAP2 SWAP1 SWAP2 DUP3 MSTORE PUSH1 0x60 PUSH1 0x20 DUP4 ADD DUP2 SWAP1 MSTORE PUSH1 0x1B SWAP1 DUP4 ADD MSTORE PUSH32 0x50617469656E74204865616C7468204461746120757064617465640000000000 PUSH1 0x80 DUP4 ADD MSTORE PUSH1 0x40 DUP3 ADD MSTORE PUSH1 0xA0 ADD SWAP1 JUMP JUMPDEST PUSH1 0x0 DUP7 DUP9 PUSH1 0x40 MLOAD PUSH1 0x20 ADD PUSH2 0x11B6 SWAP3 SWAP2 SWAP1 PUSH2 0x2605 JUMP JUMPDEST PUSH1 0x40 DUP1 MLOAD PUSH1 0x1F NOT DUP2 DUP5 SUB ADD DUP2 MSTORE SWAP2 SWAP1 MSTORE DUP1 MLOAD PUSH1 0x20 SWAP1 SWAP2 ADD KECCAK256 SWAP1 POP PUSH1 0x60 PUSH1 0x0 DUP4 PUSH1 0x1 DUP2 GT ISZERO PUSH2 0x11F4 JUMPI PUSH4 0x4E487B71 PUSH1 0xE0 SHL PUSH1 0x0 MSTORE PUSH1 0x21 PUSH1 0x4 MSTORE PUSH1 0x24 PUSH1 0x0 REVERT JUMPDEST EQ ISZERO PUSH2 0x146E JUMPI DUP9 DUP1 MLOAD SWAP1 PUSH1 0x20 ADD KECCAK256 PUSH1 0x1 PUSH1 0x0 DUP5 DUP2 MSTORE PUSH1 0x20 ADD SWAP1 DUP2 MSTORE PUSH1 0x20 ADD PUSH1 0x0 KECCAK256 PUSH1 0x1 ADD PUSH1 0x40 MLOAD PUSH2 0x1225 SWAP2 SWAP1 PUSH2 0x256A JUMP JUMPDEST PUSH1 0x40 MLOAD DUP1 SWAP2 SUB SWAP1 KECCAK256 EQ ISZERO PUSH2 0x124B JUMPI PUSH1 0x40 MLOAD PUSH3 0x461BCD PUSH1 0xE5 SHL DUP2 MSTORE PUSH1 0x4 ADD PUSH2 0x31F SWAP1 PUSH2 0x2853 JUMP JUMPDEST DUP8 DUP1 MLOAD SWAP1 PUSH1 0x20 ADD KECCAK256 PUSH1 0x1 PUSH1 0x0 DUP5 DUP2 MSTORE PUSH1 0x20 ADD SWAP1 DUP2 MSTORE PUSH1 0x20 ADD PUSH1 0x0 KECCAK256 PUSH1 0x2 ADD PUSH1 0x40 MLOAD PUSH2 0x1276 SWAP2 SWAP1 PUSH2 0x256A JUMP JUMPDEST PUSH1 0x40 MLOAD DUP1 SWAP2 SUB SWAP1 KECCAK256 EQ ISZERO PUSH2 0x129C JUMPI PUSH1 0x40 MLOAD PUSH3 0x461BCD PUSH1 0xE5 SHL DUP2 MSTORE PUSH1 0x4 ADD PUSH2 0x31F SWAP1 PUSH2 0x290A JUMP JUMPDEST PUSH1 0x40 MLOAD DUP1 PUSH2 0x100 ADD PUSH1 0x40 MSTORE DUP1 DUP12 DUP2 MSTORE PUSH1 0x20 ADD DUP11 DUP2 MSTORE PUSH1 0x20 ADD DUP10 DUP2 MSTORE PUSH1 0x20 ADD DUP9 DUP2 MSTORE PUSH1 0x20 ADD DUP8 DUP2 MSTORE PUSH1 0x20 ADD DUP7 PUSH1 0x4 DUP2 GT ISZERO PUSH2 0x12E6 JUMPI PUSH4 0x4E487B71 PUSH1 0xE0 SHL PUSH1 0x0 MSTORE PUSH1 0x21 PUSH1 0x4 MSTORE PUSH1 0x24 PUSH1 0x0 REVERT JUMPDEST DUP2 MSTORE PUSH1 0x20 ADD DUP6 PUSH1 0x2 DUP2 GT ISZERO PUSH2 0x130B JUMPI PUSH4 0x4E487B71 PUSH1 0xE0 SHL PUSH1 0x0 MSTORE PUSH1 0x21 PUSH1 0x4 MSTORE PUSH1 0x24 PUSH1 0x0 REVERT JUMPDEST DUP2 MSTORE PUSH1 0x1 PUSH1 0x20 SWAP2 DUP3 ADD DUP2 SWAP1 MSTORE PUSH1 0x0 DUP6 DUP2 MSTORE SWAP1 DUP3 MSTORE PUSH1 0x40 SWAP1 KECCAK256 DUP3 MLOAD DUP1 MLOAD SWAP2 SWAP3 PUSH2 0x1338 SWAP3 DUP5 SWAP3 SWAP1 SWAP2 ADD SWAP1 PUSH2 0x1F9A JUMP JUMPDEST POP PUSH1 0x20 DUP3 DUP2 ADD MLOAD DUP1 MLOAD PUSH2 0x1351 SWAP3 PUSH1 0x1 DUP6 ADD SWAP3 ADD SWAP1 PUSH2 0x1F9A JUMP JUMPDEST POP PUSH1 0x40 DUP3 ADD MLOAD DUP1 MLOAD PUSH2 0x136D SWAP2 PUSH1 0x2 DUP5 ADD SWAP2 PUSH1 0x20 SWAP1 SWAP2 ADD SWAP1 PUSH2 0x1F9A JUMP JUMPDEST POP PUSH1 0x60 DUP3 ADD MLOAD DUP1 MLOAD PUSH2 0x1389 SWAP2 PUSH1 0x3 DUP5 ADD SWAP2 PUSH1 0x20 SWAP1 SWAP2 ADD SWAP1 PUSH2 0x1F9A JUMP JUMPDEST POP PUSH1 0x80 DUP3 ADD MLOAD DUP1 MLOAD PUSH2 0x13A5 SWAP2 PUSH1 0x4 DUP5 ADD SWAP2 PUSH1 0x20 SWAP1 SWAP2 ADD SWAP1 PUSH2 0x1F9A JUMP JUMPDEST POP PUSH1 0xA0 DUP3 ADD MLOAD PUSH1 0x5 DUP3 ADD DUP1 SLOAD PUSH1 0xFF NOT AND PUSH1 0x1 DUP4 PUSH1 0x4 DUP2 GT ISZERO PUSH2 0x13D7 JUMPI PUSH4 0x4E487B71 PUSH1 0xE0 SHL PUSH1 0x0 MSTORE PUSH1 0x21 PUSH1 0x4 MSTORE PUSH1 0x24 PUSH1 0x0 REVERT JUMPDEST MUL OR SWAP1 SSTORE POP PUSH1 0xC0 DUP3 ADD MLOAD PUSH1 0x5 DUP3 ADD DUP1 SLOAD PUSH2 0xFF00 NOT AND PUSH2 0x100 DUP4 PUSH1 0x2 DUP2 GT ISZERO PUSH2 0x140F JUMPI PUSH4 0x4E487B71 PUSH1 0xE0 SHL PUSH1 0x0 MSTORE PUSH1 0x21 PUSH1 0x4 MSTORE PUSH1 0x24 PUSH1 0x0 REVERT JUMPDEST MUL OR SWAP1 SSTORE POP PUSH1 0xE0 SWAP2 SWAP1 SWAP2 ADD MLOAD PUSH1 0x5 SWAP1 SWAP2 ADD DUP1 SLOAD SWAP2 ISZERO ISZERO PUSH3 0x10000 MUL PUSH3 0xFF0000 NOT SWAP1 SWAP3 AND SWAP2 SWAP1 SWAP2 OR SWAP1 SSTORE POP PUSH1 0x40 DUP1 MLOAD DUP1 DUP3 ADD SWAP1 SWAP2 MSTORE PUSH1 0x18 DUP2 MSTORE PUSH32 0x446F63746F7220526567697374726174696F6E20446F6E650000000000000000 PUSH1 0x20 DUP3 ADD MSTORE JUMPDEST PUSH1 0x1 DUP4 PUSH1 0x1 DUP2 GT ISZERO PUSH2 0x1490 JUMPI PUSH4 0x4E487B71 PUSH1 0xE0 SHL PUSH1 0x0 MSTORE PUSH1 0x21 PUSH1 0x4 MSTORE PUSH1 0x24 PUSH1 0x0 REVERT JUMPDEST EQ ISZERO PUSH2 0x15D0 JUMPI DUP9 DUP1 MLOAD SWAP1 PUSH1 0x20 ADD KECCAK256 PUSH1 0x1 PUSH1 0x0 DUP5 DUP2 MSTORE PUSH1 0x20 ADD SWAP1 DUP2 MSTORE PUSH1 0x20 ADD PUSH1 0x0 KECCAK256 PUSH1 0x1 ADD PUSH1 0x40 MLOAD PUSH2 0x14C1 SWAP2 SWAP1 PUSH2 0x256A JUMP JUMPDEST PUSH1 0x40 MLOAD DUP1 SWAP2 SUB SWAP1 KECCAK256 EQ PUSH2 0x14E6 JUMPI PUSH1 0x40 MLOAD PUSH3 0x461BCD PUSH1 0xE5 SHL DUP2 MSTORE PUSH1 0x4 ADD PUSH2 0x31F SWAP1 PUSH2 0x2853 JUMP JUMPDEST DUP8 DUP1 MLOAD SWAP1 PUSH1 0x20 ADD KECCAK256 PUSH1 0x1 PUSH1 0x0 DUP5 DUP2 MSTORE PUSH1 0x20 ADD SWAP1 DUP2 MSTORE PUSH1 0x20 ADD PUSH1 0x0 KECCAK256 PUSH1 0x2 ADD PUSH1 0x40 MLOAD PUSH2 0x1511 SWAP2 SWAP1 PUSH2 0x256A JUMP JUMPDEST PUSH1 0x40 MLOAD DUP1 SWAP2 SUB SWAP1 KECCAK256 EQ PUSH2 0x1536 JUMPI PUSH1 0x40 MLOAD PUSH3 0x461BCD PUSH1 0xE5 SHL DUP2 MSTORE PUSH1 0x4 ADD PUSH2 0x31F SWAP1 PUSH2 0x290A JUMP JUMPDEST PUSH1 0x0 DUP3 DUP2 MSTORE PUSH1 0x1 PUSH1 0x20 SWAP1 DUP2 MSTORE PUSH1 0x40 SWAP1 SWAP2 KECCAK256 DUP12 MLOAD PUSH2 0x1555 SWAP3 DUP14 ADD SWAP1 PUSH2 0x1F9A JUMP JUMPDEST POP PUSH1 0x0 DUP3 DUP2 MSTORE PUSH1 0x1 PUSH1 0x20 DUP2 DUP2 MSTORE PUSH1 0x40 SWAP1 SWAP3 KECCAK256 DUP12 MLOAD PUSH2 0x157B SWAP4 SWAP2 SWAP1 SWAP3 ADD SWAP2 SWAP1 DUP13 ADD SWAP1 PUSH2 0x1F9A JUMP JUMPDEST POP PUSH1 0x0 DUP3 DUP2 MSTORE PUSH1 0x1 PUSH1 0x20 SWAP1 DUP2 MSTORE PUSH1 0x40 SWAP1 SWAP2 KECCAK256 DUP10 MLOAD PUSH2 0x15A1 SWAP3 PUSH1 0x2 SWAP1 SWAP3 ADD SWAP2 DUP12 ADD SWAP1 PUSH2 0x1F9A JUMP JUMPDEST POP POP PUSH1 0x40 DUP1 MLOAD DUP1 DUP3 ADD SWAP1 SWAP2 MSTORE PUSH1 0x15 DUP2 MSTORE PUSH21 0x111BD8DD1BDC88149958DBDC9908155C19185D1959 PUSH1 0x5A SHL PUSH1 0x20 DUP3 ADD MSTORE JUMPDEST PUSH1 0x0 DUP1 MLOAD PUSH1 0x20 PUSH2 0x2A89 DUP4 CODECOPY DUP2 MLOAD SWAP2 MSTORE DUP3 DUP3 TIMESTAMP PUSH1 0x40 MLOAD PUSH2 0x15F1 SWAP4 SWAP3 SWAP2 SWAP1 PUSH2 0x2991 JUMP JUMPDEST PUSH1 0x40 MLOAD DUP1 SWAP2 SUB SWAP1 LOG1 POP POP POP POP POP POP POP POP POP POP JUMP JUMPDEST PUSH1 0x0 DUP2 DUP2 MSTORE PUSH1 0x20 DUP2 SWAP1 MSTORE PUSH1 0x40 SWAP1 KECCAK256 PUSH1 0x4 ADD SLOAD DUP2 SWAP1 PUSH1 0xFF AND ISZERO ISZERO PUSH1 0x1 EQ PUSH2 0x163D JUMPI PUSH1 0x40 MLOAD PUSH3 0x461BCD PUSH1 0xE5 SHL DUP2 MSTORE PUSH1 0x4 ADD PUSH2 0x31F SWAP1 PUSH2 0x2896 JUMP JUMPDEST PUSH1 0x40 DUP1 MLOAD PUSH1 0xA0 DUP2 ADD DUP3 MSTORE DUP9 DUP2 MSTORE PUSH1 0x20 DUP1 DUP3 ADD DUP10 SWAP1 MSTORE DUP2 DUP4 ADD DUP9 SWAP1 MSTORE PUSH1 0x60 DUP3 ADD DUP8 SWAP1 MSTORE PUSH1 0x80 DUP3 ADD DUP7 SWAP1 MSTORE PUSH1 0x0 DUP6 DUP2 MSTORE PUSH1 0x2 DUP3 MSTORE SWAP3 SWAP1 SWAP3 KECCAK256 DUP2 MLOAD DUP1 MLOAD SWAP3 SWAP4 SWAP2 SWAP3 PUSH2 0x1688 SWAP3 DUP5 SWAP3 ADD SWAP1 PUSH2 0x1F9A JUMP JUMPDEST POP PUSH1 0x20 DUP3 DUP2 ADD MLOAD DUP1 MLOAD PUSH2 0x16A1 SWAP3 PUSH1 0x1 DUP6 ADD SWAP3 ADD SWAP1 PUSH2 0x1F9A JUMP JUMPDEST POP PUSH1 0x40 DUP3 ADD MLOAD DUP1 MLOAD PUSH2 0x16BD SWAP2 PUSH1 0x2 DUP5 ADD SWAP2 PUSH1 0x20 SWAP1 SWAP2 ADD SWAP1 PUSH2 0x1F9A JUMP JUMPDEST POP PUSH1 0x60 DUP3 ADD MLOAD DUP1 MLOAD PUSH2 0x16D9 SWAP2 PUSH1 0x3 DUP5 ADD SWAP2 PUSH1 0x20 SWAP1 SWAP2 ADD SWAP1 PUSH2 0x1F9A JUMP JUMPDEST POP PUSH1 0x80 SWAP2 DUP3 ADD MLOAD PUSH1 0x4 SWAP1 SWAP2 ADD SSTORE PUSH1 0x40 DUP1 MLOAD DUP5 DUP2 MSTORE PUSH1 0x60 PUSH1 0x20 DUP3 ADD DUP2 SWAP1 MSTORE PUSH1 0x1D SWAP1 DUP3 ADD MSTORE PUSH32 0x50617469656E74204C6F636174696F6E20446174612075706461746564000000 SWAP3 DUP2 ADD SWAP3 SWAP1 SWAP3 MSTORE TIMESTAMP SWAP1 DUP3 ADD MSTORE PUSH1 0x0 DUP1 MLOAD PUSH1 0x20 PUSH2 0x2A89 DUP4 CODECOPY DUP2 MLOAD SWAP2 MSTORE SWAP1 PUSH1 0xA0 ADD JUMPDEST PUSH1 0x40 MLOAD DUP1 SWAP2 SUB SWAP1 LOG1 POP POP POP POP POP POP POP JUMP JUMPDEST PUSH1 0x0 DUP4 DUP6 PUSH1 0x40 MLOAD PUSH1 0x20 ADD PUSH2 0x1763 SWAP3 SWAP2 SWAP1 PUSH2 0x2605 JUMP JUMPDEST PUSH1 0x40 DUP1 MLOAD PUSH1 0x1F NOT DUP2 DUP5 SUB ADD DUP2 MSTORE SWAP2 SWAP1 MSTORE DUP1 MLOAD PUSH1 0x20 SWAP1 SWAP2 ADD KECCAK256 SWAP1 POP PUSH1 0x60 PUSH1 0x0 DUP4 PUSH1 0x1 DUP2 GT ISZERO PUSH2 0x17A1 JUMPI PUSH4 0x4E487B71 PUSH1 0xE0 SHL PUSH1 0x0 MSTORE PUSH1 0x21 PUSH1 0x4 MSTORE PUSH1 0x24 PUSH1 0x0 REVERT JUMPDEST EQ ISZERO PUSH2 0x1934 JUMPI DUP6 DUP1 MLOAD SWAP1 PUSH1 0x20 ADD KECCAK256 PUSH1 0x0 DUP1 DUP5 DUP2 MSTORE PUSH1 0x20 ADD SWAP1 DUP2 MSTORE PUSH1 0x20 ADD PUSH1 0x0 KECCAK256 PUSH1 0x1 ADD PUSH1 0x40 MLOAD PUSH2 0x17D1 SWAP2 SWAP1 PUSH2 0x256A JUMP JUMPDEST PUSH1 0x40 MLOAD DUP1 SWAP2 SUB SWAP1 KECCAK256 EQ ISZERO PUSH2 0x17F7 JUMPI PUSH1 0x40 MLOAD PUSH3 0x461BCD PUSH1 0xE5 SHL DUP2 MSTORE PUSH1 0x4 ADD PUSH2 0x31F SWAP1 PUSH2 0x294D JUMP JUMPDEST DUP5 DUP1 MLOAD SWAP1 PUSH1 0x20 ADD KECCAK256 PUSH1 0x0 DUP1 DUP5 DUP2 MSTORE PUSH1 0x20 ADD SWAP1 DUP2 MSTORE PUSH1 0x20 ADD PUSH1 0x0 KECCAK256 PUSH1 0x2 ADD PUSH1 0x40 MLOAD PUSH2 0x1821 SWAP2 SWAP1 PUSH2 0x256A JUMP JUMPDEST PUSH1 0x40 MLOAD DUP1 SWAP2 SUB SWAP1 KECCAK256 EQ ISZERO PUSH2 0x1847 JUMPI PUSH1 0x40 MLOAD PUSH3 0x461BCD PUSH1 0xE5 SHL DUP2 MSTORE PUSH1 0x4 ADD PUSH2 0x31F SWAP1 PUSH2 0x28C6 JUMP JUMPDEST PUSH1 0x40 DUP1 MLOAD PUSH1 0xA0 DUP2 ADD DUP3 MSTORE DUP9 DUP2 MSTORE PUSH1 0x20 DUP1 DUP3 ADD DUP10 SWAP1 MSTORE DUP2 DUP4 ADD DUP9 SWAP1 MSTORE PUSH1 0x60 DUP3 ADD DUP8 SWAP1 MSTORE PUSH1 0x1 PUSH1 0x80 DUP4 ADD MSTORE PUSH1 0x0 DUP6 DUP2 MSTORE DUP1 DUP3 MSTORE SWAP3 SWAP1 SWAP3 KECCAK256 DUP2 MLOAD DUP1 MLOAD SWAP3 SWAP4 SWAP2 SWAP3 PUSH2 0x1891 SWAP3 DUP5 SWAP3 ADD SWAP1 PUSH2 0x1F9A JUMP JUMPDEST POP PUSH1 0x20 DUP3 DUP2 ADD MLOAD DUP1 MLOAD PUSH2 0x18AA SWAP3 PUSH1 0x1 DUP6 ADD SWAP3 ADD SWAP1 PUSH2 0x1F9A JUMP JUMPDEST POP PUSH1 0x40 DUP3 ADD MLOAD DUP1 MLOAD PUSH2 0x18C6 SWAP2 PUSH1 0x2 DUP5 ADD SWAP2 PUSH1 0x20 SWAP1 SWAP2 ADD SWAP1 PUSH2 0x1F9A JUMP JUMPDEST POP PUSH1 0x60 DUP3 ADD MLOAD DUP1 MLOAD PUSH2 0x18E2 SWAP2 PUSH1 0x3 DUP5 ADD SWAP2 PUSH1 0x20 SWAP1 SWAP2 ADD SWAP1 PUSH2 0x1F9A JUMP JUMPDEST POP PUSH1 0x80 SWAP2 SWAP1 SWAP2 ADD MLOAD PUSH1 0x4 SWAP1 SWAP2 ADD DUP1 SLOAD PUSH1 0xFF NOT AND SWAP2 ISZERO ISZERO SWAP2 SWAP1 SWAP2 OR SWAP1 SSTORE POP PUSH1 0x40 DUP1 MLOAD DUP1 DUP3 ADD SWAP1 SWAP2 MSTORE PUSH1 0x19 DUP2 MSTORE PUSH32 0x50617469656E7420526567697374726174696F6E20446F6E6500000000000000 PUSH1 0x20 DUP3 ADD MSTORE JUMPDEST PUSH1 0x1 DUP4 PUSH1 0x1 DUP2 GT ISZERO PUSH2 0x1956 JUMPI PUSH4 0x4E487B71 PUSH1 0xE0 SHL PUSH1 0x0 MSTORE PUSH1 0x21 PUSH1 0x4 MSTORE PUSH1 0x24 PUSH1 0x0 REVERT JUMPDEST EQ ISZERO PUSH2 0x1A8F JUMPI DUP6 DUP1 MLOAD SWAP1 PUSH1 0x20 ADD KECCAK256 PUSH1 0x0 DUP1 DUP5 DUP2 MSTORE PUSH1 0x20 ADD SWAP1 DUP2 MSTORE PUSH1 0x20 ADD PUSH1 0x0 KECCAK256 PUSH1 0x1 ADD PUSH1 0x40 MLOAD PUSH2 0x1986 SWAP2 SWAP1 PUSH2 0x256A JUMP JUMPDEST PUSH1 0x40 MLOAD DUP1 SWAP2 SUB SWAP1 KECCAK256 EQ PUSH2 0x19AB JUMPI PUSH1 0x40 MLOAD PUSH3 0x461BCD PUSH1 0xE5 SHL DUP2 MSTORE PUSH1 0x4 ADD PUSH2 0x31F SWAP1 PUSH2 0x294D JUMP JUMPDEST DUP5 DUP1 MLOAD SWAP1 PUSH1 0x20 ADD KECCAK256 PUSH1 0x0 DUP1 DUP5 DUP2 MSTORE PUSH1 0x20 ADD SWAP1 DUP2 MSTORE PUSH1 0x20 ADD PUSH1 0x0 KECCAK256 PUSH1 0x2 ADD PUSH1 0x40 MLOAD PUSH2 0x19D5 SWAP2 SWAP1 PUSH2 0x256A JUMP JUMPDEST PUSH1 0x40 MLOAD DUP1 SWAP2 SUB SWAP1 KECCAK256 EQ PUSH2 0x19FA JUMPI PUSH1 0x40 MLOAD PUSH3 0x461BCD PUSH1 0xE5 SHL DUP2 MSTORE PUSH1 0x4 ADD PUSH2 0x31F SWAP1 PUSH2 0x28C6 JUMP JUMPDEST PUSH1 0x0 DUP3 DUP2 MSTORE PUSH1 0x20 DUP2 DUP2 MSTORE PUSH1 0x40 SWAP1 SWAP2 KECCAK256 DUP9 MLOAD PUSH2 0x1A17 SWAP3 DUP11 ADD SWAP1 PUSH2 0x1F9A JUMP JUMPDEST POP PUSH1 0x0 DUP3 DUP2 MSTORE PUSH1 0x20 DUP2 DUP2 MSTORE PUSH1 0x40 SWAP1 SWAP2 KECCAK256 DUP8 MLOAD PUSH2 0x1A3B SWAP3 PUSH1 0x1 SWAP1 SWAP3 ADD SWAP2 DUP10 ADD SWAP1 PUSH2 0x1F9A JUMP JUMPDEST POP PUSH1 0x0 DUP3 DUP2 MSTORE PUSH1 0x20 DUP2 DUP2 MSTORE PUSH1 0x40 SWAP1 SWAP2 KECCAK256 DUP7 MLOAD PUSH2 0x1A5F SWAP3 PUSH1 0x2 SWAP1 SWAP3 ADD SWAP2 DUP9 ADD SWAP1 PUSH2 0x1F9A JUMP JUMPDEST POP POP PUSH1 0x40 DUP1 MLOAD DUP1 DUP3 ADD SWAP1 SWAP2 MSTORE PUSH1 0x16 DUP2 MSTORE PUSH22 0x14185D1A595B9D08149958DBDC9908155C19185D1959 PUSH1 0x52 SHL PUSH1 0x20 DUP3 ADD MSTORE JUMPDEST PUSH1 0x0 DUP1 MLOAD PUSH1 0x20 PUSH2 0x2A89 DUP4 CODECOPY DUP2 MLOAD SWAP2 MSTORE DUP3 DUP3 TIMESTAMP PUSH1 0x40 MLOAD PUSH2 0x173D SWAP4 SWAP3 SWAP2 SWAP1 PUSH2 0x2991 JUMP JUMPDEST PUSH1 0x0 DUP6 DUP2 MSTORE PUSH1 0x20 DUP2 SWAP1 MSTORE PUSH1 0x40 SWAP1 KECCAK256 PUSH1 0x4 ADD SLOAD DUP6 SWAP1 PUSH1 0xFF AND ISZERO ISZERO PUSH1 0x1 EQ PUSH2 0x1AE8 JUMPI PUSH1 0x40 MLOAD PUSH3 0x461BCD PUSH1 0xE5 SHL DUP2 MSTORE PUSH1 0x4 ADD PUSH2 0x31F SWAP1 PUSH2 0x2896 JUMP JUMPDEST PUSH1 0x0 DUP7 DUP2 MSTORE PUSH1 0x5 PUSH1 0x20 SWAP1 DUP2 MSTORE PUSH1 0x40 DUP1 DUP4 KECCAK256 DUP9 DUP5 MSTORE SWAP1 SWAP2 MSTORE SWAP1 KECCAK256 PUSH1 0x3 ADD SLOAD PUSH1 0xFF AND ISZERO ISZERO PUSH1 0x1 EQ PUSH2 0x1B59 JUMPI PUSH1 0x40 MLOAD PUSH3 0x461BCD PUSH1 0xE5 SHL DUP2 MSTORE PUSH1 0x20 PUSH1 0x4 DUP3 ADD MSTORE PUSH1 0x1E PUSH1 0x24 DUP3 ADD MSTORE PUSH32 0x4548522D5243472D30313A20416C726561647920726567697374657265640000 PUSH1 0x44 DUP3 ADD MSTORE PUSH1 0x64 ADD PUSH2 0x31F JUMP JUMPDEST PUSH1 0x40 DUP1 MLOAD PUSH1 0x80 DUP2 ADD DUP3 MSTORE DUP6 DUP2 MSTORE PUSH1 0x20 DUP1 DUP3 ADD DUP7 SWAP1 MSTORE DUP2 DUP4 ADD DUP6 SWAP1 MSTORE PUSH1 0x1 PUSH1 0x60 DUP4 ADD MSTORE PUSH1 0x0 DUP10 DUP2 MSTORE PUSH1 0x5 DUP3 MSTORE DUP4 DUP2 KECCAK256 DUP10 DUP3 MSTORE DUP3 MSTORE SWAP3 SWAP1 SWAP3 KECCAK256 DUP2 MLOAD DUP1 MLOAD SWAP3 SWAP4 SWAP2 SWAP3 PUSH2 0x1BA5 SWAP3 DUP5 SWAP3 ADD SWAP1 PUSH2 0x1F9A JUMP JUMPDEST POP PUSH1 0x20 DUP3 DUP2 ADD MLOAD DUP1 MLOAD PUSH2 0x1BBE SWAP3 PUSH1 0x1 DUP6 ADD SWAP3 ADD SWAP1 PUSH2 0x1F9A JUMP JUMPDEST POP PUSH1 0x40 DUP3 ADD MLOAD DUP1 MLOAD PUSH2 0x1BDA SWAP2 PUSH1 0x2 DUP5 ADD SWAP2 PUSH1 0x20 SWAP1 SWAP2 ADD SWAP1 PUSH2 0x1F9A JUMP JUMPDEST POP PUSH1 0x60 SWAP2 SWAP1 SWAP2 ADD MLOAD PUSH1 0x3 SWAP1 SWAP2 ADD DUP1 SLOAD PUSH1 0xFF NOT AND SWAP2 ISZERO ISZERO SWAP2 SWAP1 SWAP2 OR SWAP1 SSTORE PUSH1 0x0 JUMPDEST PUSH1 0x2 DUP2 GT PUSH2 0x1CEE JUMPI DUP5 MLOAD PUSH1 0x20 DUP1 DUP8 ADD SWAP2 SWAP1 SWAP2 KECCAK256 PUSH1 0x0 DUP10 DUP2 MSTORE PUSH1 0x5 DUP4 MSTORE PUSH1 0x40 DUP1 DUP3 KECCAK256 DUP6 DUP4 MSTORE SWAP1 SWAP4 MSTORE DUP3 SWAP1 KECCAK256 SWAP2 MLOAD SWAP1 SWAP2 PUSH2 0x1C30 SWAP2 PUSH2 0x256A JUMP JUMPDEST PUSH1 0x40 MLOAD DUP1 SWAP2 SUB SWAP1 KECCAK256 EQ ISZERO PUSH2 0x1CDC JUMPI PUSH1 0x40 DUP1 MLOAD PUSH1 0x80 DUP2 ADD DUP3 MSTORE DUP7 DUP2 MSTORE PUSH1 0x20 DUP1 DUP3 ADD DUP8 SWAP1 MSTORE DUP2 DUP4 ADD DUP7 SWAP1 MSTORE PUSH1 0x1 PUSH1 0x60 DUP4 ADD MSTORE PUSH1 0x0 DUP11 DUP2 MSTORE PUSH1 0x5 DUP3 MSTORE DUP4 DUP2 KECCAK256 DUP6 DUP3 MSTORE DUP3 MSTORE SWAP3 SWAP1 SWAP3 KECCAK256 DUP2 MLOAD DUP1 MLOAD SWAP3 SWAP4 SWAP2 SWAP3 PUSH2 0x1C8A SWAP3 DUP5 SWAP3 ADD SWAP1 PUSH2 0x1F9A JUMP JUMPDEST POP PUSH1 0x20 DUP3 DUP2 ADD MLOAD DUP1 MLOAD PUSH2 0x1CA3 SWAP3 PUSH1 0x1 DUP6 ADD SWAP3 ADD SWAP1 PUSH2 0x1F9A JUMP JUMPDEST POP PUSH1 0x40 DUP3 ADD MLOAD DUP1 MLOAD PUSH2 0x1CBF SWAP2 PUSH1 0x2 DUP5 ADD SWAP2 PUSH1 0x20 SWAP1 SWAP2 ADD SWAP1 PUSH2 0x1F9A JUMP JUMPDEST POP PUSH1 0x60 SWAP2 SWAP1 SWAP2 ADD MLOAD PUSH1 0x3 SWAP1 SWAP2 ADD DUP1 SLOAD PUSH1 0xFF NOT AND SWAP2 ISZERO ISZERO SWAP2 SWAP1 SWAP2 OR SWAP1 SSTORE JUMPDEST DUP1 PUSH2 0x1CE6 DUP2 PUSH2 0x2A25 JUMP JUMPDEST SWAP2 POP POP PUSH2 0x1BF9 JUMP JUMPDEST POP PUSH1 0x0 DUP1 MLOAD PUSH1 0x20 PUSH2 0x2A89 DUP4 CODECOPY DUP2 MLOAD SWAP2 MSTORE DUP7 TIMESTAMP PUSH1 0x40 MLOAD PUSH2 0xAE6 SWAP3 SWAP2 SWAP1 SWAP2 DUP3 MSTORE PUSH1 0x60 PUSH1 0x20 DUP4 ADD DUP2 SWAP1 MSTORE PUSH1 0x17 SWAP1 DUP4 ADD MSTORE PUSH32 0x4361726567697665722044617461206D6F646966696564000000000000000000 PUSH1 0x80 DUP4 ADD MSTORE PUSH1 0x40 DUP3 ADD MSTORE PUSH1 0xA0 ADD SWAP1 JUMP JUMPDEST PUSH1 0x2 PUSH1 0x20 MSTORE PUSH1 0x0 SWAP1 DUP2 MSTORE PUSH1 0x40 SWAP1 KECCAK256 DUP1 SLOAD DUP2 SWAP1 PUSH2 0x1D67 SWAP1 PUSH2 0x29EA JUMP JUMPDEST DUP1 PUSH1 0x1F ADD PUSH1 0x20 DUP1 SWAP2 DIV MUL PUSH1 0x20 ADD PUSH1 0x40 MLOAD SWAP1 DUP2 ADD PUSH1 0x40 MSTORE DUP1 SWAP3 SWAP2 SWAP1 DUP2 DUP2 MSTORE PUSH1 0x20 ADD DUP3 DUP1 SLOAD PUSH2 0x1D93 SWAP1 PUSH2 0x29EA JUMP JUMPDEST DUP1 ISZERO PUSH2 0x1DE0 JUMPI DUP1 PUSH1 0x1F LT PUSH2 0x1DB5 JUMPI PUSH2 0x100 DUP1 DUP4 SLOAD DIV MUL DUP4 MSTORE SWAP2 PUSH1 0x20 ADD SWAP2 PUSH2 0x1DE0 JUMP JUMPDEST DUP3 ADD SWAP2 SWAP1 PUSH1 0x0 MSTORE PUSH1 0x20 PUSH1 0x0 KECCAK256 SWAP1 JUMPDEST DUP2 SLOAD DUP2 MSTORE SWAP1 PUSH1 0x1 ADD SWAP1 PUSH1 0x20 ADD DUP1 DUP4 GT PUSH2 0x1DC3 JUMPI DUP3 SWAP1 SUB PUSH1 0x1F AND DUP3 ADD SWAP2 JUMPDEST POP POP POP POP POP SWAP1 DUP1 PUSH1 0x1 ADD DUP1 SLOAD PUSH2 0x1DF5 SWAP1 PUSH2 0x29EA JUMP JUMPDEST DUP1 PUSH1 0x1F ADD PUSH1 0x20 DUP1 SWAP2 DIV MUL PUSH1 0x20 ADD PUSH1 0x40 MLOAD SWAP1 DUP2 ADD PUSH1 0x40 MSTORE DUP1 SWAP3 SWAP2 SWAP1 DUP2 DUP2 MSTORE PUSH1 0x20 ADD DUP3 DUP1 SLOAD PUSH2 0x1E21 SWAP1 PUSH2 0x29EA JUMP JUMPDEST DUP1 ISZERO PUSH2 0x1E6E JUMPI DUP1 PUSH1 0x1F LT PUSH2 0x1E43 JUMPI PUSH2 0x100 DUP1 DUP4 SLOAD DIV MUL DUP4 MSTORE SWAP2 PUSH1 0x20 ADD SWAP2 PUSH2 0x1E6E JUMP JUMPDEST DUP3 ADD SWAP2 SWAP1 PUSH1 0x0 MSTORE PUSH1 0x20 PUSH1 0x0 KECCAK256 SWAP1 JUMPDEST DUP2 SLOAD DUP2 MSTORE SWAP1 PUSH1 0x1 ADD SWAP1 PUSH1 0x20 ADD DUP1 DUP4 GT PUSH2 0x1E51 JUMPI DUP3 SWAP1 SUB PUSH1 0x1F AND DUP3 ADD SWAP2 JUMPDEST POP POP POP POP POP SWAP1 DUP1 PUSH1 0x2 ADD DUP1 SLOAD PUSH2 0x1E83 SWAP1 PUSH2 0x29EA JUMP JUMPDEST DUP1 PUSH1 0x1F ADD PUSH1 0x20 DUP1 SWAP2 DIV MUL PUSH1 0x20 ADD PUSH1 0x40 MLOAD SWAP1 DUP2 ADD PUSH1 0x40 MSTORE DUP1 SWAP3 SWAP2 SWAP1 DUP2 DUP2 MSTORE PUSH1 0x20 ADD DUP3 DUP1 SLOAD PUSH2 0x1EAF SWAP1 PUSH2 0x29EA JUMP JUMPDEST DUP1 ISZERO PUSH2 0x1EFC JUMPI DUP1 PUSH1 0x1F LT PUSH2 0x1ED1 JUMPI PUSH2 0x100 DUP1 DUP4 SLOAD DIV MUL DUP4 MSTORE SWAP2 PUSH1 0x20 ADD SWAP2 PUSH2 0x1EFC JUMP JUMPDEST DUP3 ADD SWAP2 SWAP1 PUSH1 0x0 MSTORE PUSH1 0x20 PUSH1 0x0 KECCAK256 SWAP1 JUMPDEST DUP2 SLOAD DUP2 MSTORE SWAP1 PUSH1 0x1 ADD SWAP1 PUSH1 0x20 ADD DUP1 DUP4 GT PUSH2 0x1EDF JUMPI DUP3 SWAP1 SUB PUSH1 0x1F AND DUP3 ADD SWAP2 JUMPDEST POP POP POP POP POP SWAP1 DUP1 PUSH1 0x3 ADD DUP1 SLOAD PUSH2 0x1F11 SWAP1 PUSH2 0x29EA JUMP JUMPDEST DUP1 PUSH1 0x1F ADD PUSH1 0x20 DUP1 SWAP2 DIV MUL PUSH1 0x20 ADD PUSH1 0x40 MLOAD SWAP1 DUP2 ADD PUSH1 0x40 MSTORE DUP1 SWAP3 SWAP2 SWAP1 DUP2 DUP2 MSTORE PUSH1 0x20 ADD DUP3 DUP1 SLOAD PUSH2 0x1F3D SWAP1 PUSH2 0x29EA JUMP JUMPDEST DUP1 ISZERO PUSH2 0x1F8A JUMPI DUP1 PUSH1 0x1F LT PUSH2 0x1F5F JUMPI PUSH2 0x100 DUP1 DUP4 SLOAD DIV MUL DUP4 MSTORE SWAP2 PUSH1 0x20 ADD SWAP2 PUSH2 0x1F8A JUMP JUMPDEST DUP3 ADD SWAP2 SWAP1 PUSH1 0x0 MSTORE PUSH1 0x20 PUSH1 0x0 KECCAK256 SWAP1 JUMPDEST DUP2 SLOAD DUP2 MSTORE SWAP1 PUSH1 0x1 ADD SWAP1 PUSH1 0x20 ADD DUP1 DUP4 GT PUSH2 0x1F6D JUMPI DUP3 SWAP1 SUB PUSH1 0x1F AND DUP3 ADD SWAP2 JUMPDEST POP POP POP POP POP SWAP1 DUP1 PUSH1 0x4 ADD SLOAD SWAP1 POP DUP6 JUMP JUMPDEST DUP3 DUP1 SLOAD PUSH2 0x1FA6 SWAP1 PUSH2 0x29EA JUMP JUMPDEST SWAP1 PUSH1 0x0 MSTORE PUSH1 0x20 PUSH1 0x0 KECCAK256 SWAP1 PUSH1 0x1F ADD PUSH1 0x20 SWAP1 DIV DUP2 ADD SWAP3 DUP3 PUSH2 0x1FC8 JUMPI PUSH1 0x0 DUP6 SSTORE PUSH2 0x200E JUMP JUMPDEST DUP3 PUSH1 0x1F LT PUSH2 0x1FE1 JUMPI DUP1 MLOAD PUSH1 0xFF NOT AND DUP4 DUP1 ADD OR DUP6 SSTORE PUSH2 0x200E JUMP JUMPDEST DUP3 DUP1 ADD PUSH1 0x1 ADD DUP6 SSTORE DUP3 ISZERO PUSH2 0x200E JUMPI SWAP2 DUP3 ADD JUMPDEST DUP3 DUP2 GT ISZERO PUSH2 0x200E JUMPI DUP3 MLOAD DUP3 SSTORE SWAP2 PUSH1 0x20 ADD SWAP2 SWAP1 PUSH1 0x1 ADD SWAP1 PUSH2 0x1FF3 JUMP JUMPDEST POP PUSH2 0x201A SWAP3 SWAP2 POP PUSH2 0x201E JUMP JUMPDEST POP SWAP1 JUMP JUMPDEST JUMPDEST DUP1 DUP3 GT ISZERO PUSH2 0x201A JUMPI PUSH1 0x0 DUP2 SSTORE PUSH1 0x1 ADD PUSH2 0x201F JUMP JUMPDEST DUP1 CALLDATALOAD PUSH1 0x5 DUP2 LT PUSH2 0x2042 JUMPI PUSH1 0x0 DUP1 REVERT JUMPDEST SWAP2 SWAP1 POP JUMP JUMPDEST DUP1 CALLDATALOAD PUSH1 0x3 DUP2 LT PUSH2 0x2042 JUMPI PUSH1 0x0 DUP1 REVERT JUMPDEST DUP1 CALLDATALOAD PUSH2 0x2042 DUP2 PUSH2 0x2A78 JUMP JUMPDEST PUSH1 0x0 DUP3 PUSH1 0x1F DUP4 ADD SLT PUSH2 0x2071 JUMPI DUP1 DUP2 REVERT JUMPDEST DUP2 CALLDATALOAD PUSH8 0xFFFFFFFFFFFFFFFF DUP1 DUP3 GT ISZERO PUSH2 0x208C JUMPI PUSH2 0x208C PUSH2 0x2A62 JUMP JUMPDEST PUSH1 0x40 MLOAD PUSH1 0x1F DUP4 ADD PUSH1 0x1F NOT SWAP1 DUP2 AND PUSH1 0x3F ADD AND DUP2 ADD SWAP1 DUP3 DUP3 GT DUP2 DUP4 LT OR ISZERO PUSH2 0x20B4 JUMPI PUSH2 0x20B4 PUSH2 0x2A62 JUMP JUMPDEST DUP2 PUSH1 0x40 MSTORE DUP4 DUP2 MSTORE DUP7 PUSH1 0x20 DUP6 DUP9 ADD ADD GT ISZERO PUSH2 0x20CC JUMPI DUP5 DUP6 REVERT JUMPDEST DUP4 PUSH1 0x20 DUP8 ADD PUSH1 0x20 DUP4 ADD CALLDATACOPY SWAP3 DUP4 ADD PUSH1 0x20 ADD SWAP4 SWAP1 SWAP4 MSTORE POP SWAP4 SWAP3 POP POP POP JUMP JUMPDEST PUSH1 0x0 DUP1 PUSH1 0x0 DUP1 PUSH1 0x0 PUSH1 0xA0 DUP7 DUP9 SUB SLT ISZERO PUSH2 0x20FF JUMPI DUP1 DUP2 REVERT JUMPDEST DUP6 CALLDATALOAD PUSH8 0xFFFFFFFFFFFFFFFF DUP1 DUP3 GT ISZERO PUSH2 0x2116 JUMPI DUP3 DUP4 REVERT JUMPDEST PUSH2 0x2122 DUP10 DUP4 DUP11 ADD PUSH2 0x2061 JUMP JUMPDEST SWAP7 POP PUSH1 0x20 DUP9 ADD CALLDATALOAD SWAP2 POP DUP1 DUP3 GT ISZERO PUSH2 0x2137 JUMPI DUP3 DUP4 REVERT JUMPDEST PUSH2 0x2143 DUP10 DUP4 DUP11 ADD PUSH2 0x2061 JUMP JUMPDEST SWAP6 POP PUSH1 0x40 DUP9 ADD CALLDATALOAD SWAP2 POP DUP1 DUP3 GT ISZERO PUSH2 0x2158 JUMPI DUP3 DUP4 REVERT JUMPDEST PUSH2 0x2164 DUP10 DUP4 DUP11 ADD PUSH2 0x2061 JUMP JUMPDEST SWAP5 POP PUSH1 0x60 DUP9 ADD CALLDATALOAD SWAP2 POP DUP1 DUP3 GT ISZERO PUSH2 0x2179 JUMPI DUP3 DUP4 REVERT JUMPDEST POP PUSH2 0x2186 DUP9 DUP3 DUP10 ADD PUSH2 0x2061 JUMP JUMPDEST SWAP3 POP POP PUSH1 0x80 DUP7 ADD CALLDATALOAD PUSH2 0x2197 DUP2 PUSH2 0x2A78 JUMP JUMPDEST DUP1 SWAP2 POP POP SWAP3 SWAP6 POP SWAP3 SWAP6 SWAP1 SWAP4 POP JUMP JUMPDEST PUSH1 0x0 DUP1 PUSH1 0x0 DUP1 PUSH1 0x0 DUP1 PUSH1 0x0 DUP1 PUSH2 0x100 DUP10 DUP12 SUB SLT ISZERO PUSH2 0x21C1 JUMPI DUP3 DUP4 REVERT JUMPDEST DUP9 CALLDATALOAD PUSH8 0xFFFFFFFFFFFFFFFF DUP1 DUP3 GT ISZERO PUSH2 0x21D8 JUMPI DUP5 DUP6 REVERT JUMPDEST PUSH2 0x21E4 DUP13 DUP4 DUP14 ADD PUSH2 0x2061 JUMP JUMPDEST SWAP10 POP PUSH1 0x20 DUP12 ADD CALLDATALOAD SWAP2 POP DUP1 DUP3 GT ISZERO PUSH2 0x21F9 JUMPI DUP5 DUP6 REVERT JUMPDEST PUSH2 0x2205 DUP13 DUP4 DUP14 ADD PUSH2 0x2061 JUMP JUMPDEST SWAP9 POP PUSH1 0x40 DUP12 ADD CALLDATALOAD SWAP2 POP DUP1 DUP3 GT ISZERO PUSH2 0x221A JUMPI DUP5 DUP6 REVERT JUMPDEST PUSH2 0x2226 DUP13 DUP4 DUP14 ADD PUSH2 0x2061 JUMP JUMPDEST SWAP8 POP PUSH1 0x60 DUP12 ADD CALLDATALOAD SWAP2 POP DUP1 DUP3 GT ISZERO PUSH2 0x223B JUMPI DUP5 DUP6 REVERT JUMPDEST PUSH2 0x2247 DUP13 DUP4 DUP14 ADD PUSH2 0x2061 JUMP JUMPDEST SWAP7 POP PUSH1 0x80 DUP12 ADD CALLDATALOAD SWAP2 POP DUP1 DUP3 GT ISZERO PUSH2 0x225C JUMPI DUP5 DUP6 REVERT JUMPDEST POP PUSH2 0x2269 DUP12 DUP3 DUP13 ADD PUSH2 0x2061 JUMP JUMPDEST SWAP5 POP POP PUSH2 0x2278 PUSH1 0xA0 DUP11 ADD PUSH2 0x2033 JUMP JUMPDEST SWAP3 POP PUSH2 0x2286 PUSH1 0xC0 DUP11 ADD PUSH2 0x2047 JUMP JUMPDEST SWAP2 POP PUSH2 0x2294 PUSH1 0xE0 DUP11 ADD PUSH2 0x2056 JUMP JUMPDEST SWAP1 POP SWAP3 SWAP6 SWAP9 POP SWAP3 SWAP6 SWAP9 SWAP1 SWAP4 SWAP7 POP JUMP JUMPDEST PUSH1 0x0 DUP1 PUSH1 0x0 DUP1 PUSH1 0x0 DUP1 PUSH1 0xC0 DUP8 DUP10 SUB SLT ISZERO PUSH2 0x22BB JUMPI DUP2 DUP3 REVERT JUMPDEST DUP7 CALLDATALOAD PUSH8 0xFFFFFFFFFFFFFFFF DUP1 DUP3 GT ISZERO PUSH2 0x22D2 JUMPI DUP4 DUP5 REVERT JUMPDEST PUSH2 0x22DE DUP11 DUP4 DUP12 ADD PUSH2 0x2061 JUMP JUMPDEST SWAP8 POP PUSH1 0x20 DUP10 ADD CALLDATALOAD SWAP2 POP DUP1 DUP3 GT ISZERO PUSH2 0x22F3 JUMPI DUP4 DUP5 REVERT JUMPDEST PUSH2 0x22FF DUP11 DUP4 DUP12 ADD PUSH2 0x2061 JUMP JUMPDEST SWAP7 POP PUSH1 0x40 DUP10 ADD CALLDATALOAD SWAP2 POP DUP1 DUP3 GT ISZERO PUSH2 0x2314 JUMPI DUP4 DUP5 REVERT JUMPDEST PUSH2 0x2320 DUP11 DUP4 DUP12 ADD PUSH2 0x2061 JUMP JUMPDEST SWAP6 POP PUSH1 0x60 DUP10 ADD CALLDATALOAD SWAP2 POP DUP1 DUP3 GT ISZERO PUSH2 0x2335 JUMPI DUP4 DUP5 REVERT JUMPDEST POP PUSH2 0x2342 DUP10 DUP3 DUP11 ADD PUSH2 0x2061 JUMP JUMPDEST SWAP4 POP POP PUSH1 0x80 DUP8 ADD CALLDATALOAD SWAP2 POP PUSH1 0xA0 DUP8 ADD CALLDATALOAD SWAP1 POP SWAP3 SWAP6 POP SWAP3 SWAP6 POP SWAP3 SWAP6 JUMP JUMPDEST PUSH1 0x0 DUP1 PUSH1 0x0 DUP1 PUSH1 0x0 PUSH1 0xA0 DUP7 DUP9 SUB SLT ISZERO PUSH2 0x2374 JUMPI DUP1 DUP2 REVERT JUMPDEST DUP6 CALLDATALOAD PUSH8 0xFFFFFFFFFFFFFFFF DUP1 DUP3 GT ISZERO PUSH2 0x238B JUMPI DUP3 DUP4 REVERT JUMPDEST PUSH2 0x2397 DUP10 DUP4 DUP11 ADD PUSH2 0x2061 JUMP JUMPDEST SWAP7 POP PUSH1 0x20 DUP9 ADD CALLDATALOAD SWAP2 POP DUP1 DUP3 GT ISZERO PUSH2 0x23AC JUMPI DUP3 DUP4 REVERT JUMPDEST POP PUSH2 0x23B9 DUP9 DUP3 DUP10 ADD PUSH2 0x2061 JUMP JUMPDEST SWAP6 SWAP9 SWAP6 SWAP8 POP POP POP POP PUSH1 0x40 DUP5 ADD CALLDATALOAD SWAP4 PUSH1 0x60 DUP2 ADD CALLDATALOAD SWAP4 PUSH1 0x80 SWAP1 SWAP2 ADD CALLDATALOAD SWAP3 POP SWAP1 POP JUMP JUMPDEST PUSH1 0x0 PUSH1 0x20 DUP3 DUP5 SUB SLT ISZERO PUSH2 0x23EA JUMPI DUP1 DUP2 REVERT JUMPDEST POP CALLDATALOAD SWAP2 SWAP1 POP JUMP JUMPDEST PUSH1 0x0 DUP1 PUSH1 0x40 DUP4 DUP6 SUB SLT ISZERO PUSH2 0x2403 JUMPI DUP2 DUP3 REVERT JUMPDEST POP POP DUP1 CALLDATALOAD SWAP3 PUSH1 0x20 SWAP1 SWAP2 ADD CALLDATALOAD SWAP2 POP JUMP JUMPDEST PUSH1 0x0 DUP1 PUSH1 0x0 PUSH1 0x60 DUP5 DUP7 SUB SLT ISZERO PUSH2 0x2426 JUMPI DUP3 DUP4 REVERT JUMPDEST DUP4 CALLDATALOAD SWAP3 POP PUSH1 0x20 DUP5 ADD CALLDATALOAD SWAP2 POP PUSH1 0x40 DUP5 ADD CALLDATALOAD PUSH2 0x243F DUP2 PUSH2 0x2A78 JUMP JUMPDEST DUP1 SWAP2 POP POP SWAP3 POP SWAP3 POP SWAP3 JUMP JUMPDEST PUSH1 0x0 DUP1 PUSH1 0x0 DUP1 PUSH1 0x0 PUSH1 0xA0 DUP7 DUP9 SUB SLT ISZERO PUSH2 0x2461 JUMPI DUP1 DUP2 REVERT JUMPDEST DUP6 CALLDATALOAD SWAP5 POP PUSH1 0x20 DUP7 ADD CALLDATALOAD SWAP4 POP PUSH1 0x40 DUP7 ADD CALLDATALOAD PUSH8 0xFFFFFFFFFFFFFFFF DUP1 DUP3 GT ISZERO PUSH2 0x2486 JUMPI DUP3 DUP4 REVERT JUMPDEST PUSH2 0x2492 DUP10 DUP4 DUP11 ADD PUSH2 0x2061 JUMP JUMPDEST SWAP5 POP PUSH1 0x60 DUP9 ADD CALLDATALOAD SWAP2 POP DUP1 DUP3 GT ISZERO PUSH2 0x24A7 JUMPI DUP3 DUP4 REVERT JUMPDEST PUSH2 0x24B3 DUP10 DUP4 DUP11 ADD PUSH2 0x2061 JUMP JUMPDEST SWAP4 POP PUSH1 0x80 DUP9 ADD CALLDATALOAD SWAP2 POP DUP1 DUP3 GT ISZERO PUSH2 0x24C8 JUMPI DUP3 DUP4 REVERT JUMPDEST POP PUSH2 0x24D5 DUP9 DUP3 DUP10 ADD PUSH2 0x2061 JUMP JUMPDEST SWAP2 POP POP SWAP3 SWAP6 POP SWAP3 SWAP6 SWAP1 SWAP4 POP JUMP JUMPDEST PUSH1 0x0 DUP1 PUSH1 0x0 PUSH1 0x60 DUP5 DUP7 SUB SLT ISZERO PUSH2 0x24F6 JUMPI DUP3 DUP4 REVERT JUMPDEST POP POP DUP2 CALLDATALOAD SWAP4 PUSH1 0x20 DUP4 ADD CALLDATALOAD SWAP4 POP PUSH1 0x40 SWAP1 SWAP3 ADD CALLDATALOAD SWAP2 SWAP1 POP JUMP JUMPDEST PUSH1 0x0 DUP1 PUSH1 0x0 DUP1 PUSH1 0x80 DUP6 DUP8 SUB SLT ISZERO PUSH2 0x2522 JUMPI DUP2 DUP3 REVERT JUMPDEST POP POP DUP3 CALLDATALOAD SWAP5 PUSH1 0x20 DUP5 ADD CALLDATALOAD SWAP5 POP PUSH1 0x40 DUP5 ADD CALLDATALOAD SWAP4 PUSH1 0x60 ADD CALLDATALOAD SWAP3 POP SWAP1 POP JUMP JUMPDEST PUSH1 0x0 DUP2 MLOAD DUP1 DUP5 MSTORE PUSH2 0x2556 DUP2 PUSH1 0x20 DUP7 ADD PUSH1 0x20 DUP7 ADD PUSH2 0x29BA JUMP JUMPDEST PUSH1 0x1F ADD PUSH1 0x1F NOT AND SWAP3 SWAP1 SWAP3 ADD PUSH1 0x20 ADD SWAP3 SWAP2 POP POP JUMP JUMPDEST PUSH1 0x0 DUP1 DUP4 SLOAD DUP3 PUSH1 0x1 DUP3 DUP2 SHR SWAP2 POP DUP1 DUP4 AND DUP1 PUSH2 0x2586 JUMPI PUSH1 0x7F DUP4 AND SWAP3 POP JUMPDEST PUSH1 0x20 DUP1 DUP5 LT DUP3 EQ ISZERO PUSH2 0x25A6 JUMPI PUSH4 0x4E487B71 PUSH1 0xE0 SHL DUP8 MSTORE PUSH1 0x22 PUSH1 0x4 MSTORE PUSH1 0x24 DUP8 REVERT JUMPDEST DUP2 DUP1 ISZERO PUSH2 0x25BA JUMPI PUSH1 0x1 DUP2 EQ PUSH2 0x25CB JUMPI PUSH2 0x25F7 JUMP JUMPDEST PUSH1 0xFF NOT DUP7 AND DUP10 MSTORE DUP5 DUP10 ADD SWAP7 POP PUSH2 0x25F7 JUMP JUMPDEST PUSH1 0x0 DUP11 DUP2 MSTORE PUSH1 0x20 SWAP1 KECCAK256 DUP9 JUMPDEST DUP7 DUP2 LT ISZERO PUSH2 0x25EF JUMPI DUP2 SLOAD DUP12 DUP3 ADD MSTORE SWAP1 DUP6 ADD SWAP1 DUP4 ADD PUSH2 0x25D6 JUMP JUMPDEST POP POP DUP5 DUP10 ADD SWAP7 POP JUMPDEST POP SWAP5 SWAP9 SWAP8 POP POP POP POP POP POP POP POP JUMP JUMPDEST PUSH1 0x0 DUP4 MLOAD PUSH2 0x2617 DUP2 DUP5 PUSH1 0x20 DUP9 ADD PUSH2 0x29BA JUMP JUMPDEST DUP4 MLOAD SWAP1 DUP4 ADD SWAP1 PUSH2 0x262B DUP2 DUP4 PUSH1 0x20 DUP9 ADD PUSH2 0x29BA JUMP JUMPDEST ADD SWAP5 SWAP4 POP POP POP POP JUMP JUMPDEST PUSH1 0x80 DUP2 MSTORE PUSH1 0x0 PUSH2 0x2647 PUSH1 0x80 DUP4 ADD DUP8 PUSH2 0x253E JUMP JUMPDEST DUP3 DUP2 SUB PUSH1 0x20 DUP5 ADD MSTORE PUSH2 0x2659 DUP2 DUP8 PUSH2 0x253E JUMP JUMPDEST SWAP1 POP DUP3 DUP2 SUB PUSH1 0x40 DUP5 ADD MSTORE PUSH2 0x266D DUP2 DUP7 PUSH2 0x253E JUMP JUMPDEST SWAP2 POP POP DUP3 ISZERO ISZERO PUSH1 0x60 DUP4 ADD MSTORE SWAP6 SWAP5 POP POP POP POP POP JUMP JUMPDEST PUSH1 0xA0 DUP2 MSTORE PUSH1 0x0 PUSH2 0x2694 PUSH1 0xA0 DUP4 ADD DUP9 PUSH2 0x253E JUMP JUMPDEST DUP3 DUP2 SUB PUSH1 0x20 DUP5 ADD MSTORE PUSH2 0x26A6 DUP2 DUP9 PUSH2 0x253E JUMP JUMPDEST SWAP1 POP DUP3 DUP2 SUB PUSH1 0x40 DUP5 ADD MSTORE PUSH2 0x26BA DUP2 DUP8 PUSH2 0x253E JUMP JUMPDEST SWAP1 POP DUP3 DUP2 SUB PUSH1 0x60 DUP5 ADD MSTORE PUSH2 0x26CE DUP2 DUP7 PUSH2 0x253E JUMP JUMPDEST SWAP2 POP POP DUP3 ISZERO ISZERO PUSH1 0x80 DUP4 ADD MSTORE SWAP7 SWAP6 POP POP POP POP POP POP JUMP JUMPDEST PUSH1 0x0 PUSH2 0x100 DUP1 DUP4 MSTORE PUSH2 0x26F7 DUP2 DUP5 ADD DUP13 PUSH2 0x253E JUMP JUMPDEST SWAP1 POP DUP3 DUP2 SUB PUSH1 0x20 DUP5 ADD MSTORE PUSH2 0x270B DUP2 DUP12 PUSH2 0x253E JUMP JUMPDEST SWAP1 POP DUP3 DUP2 SUB PUSH1 0x40 DUP5 ADD MSTORE PUSH2 0x271F DUP2 DUP11 PUSH2 0x253E JUMP JUMPDEST SWAP1 POP DUP3 DUP2 SUB PUSH1 0x60 DUP5 ADD MSTORE PUSH2 0x2733 DUP2 DUP10 PUSH2 0x253E JUMP JUMPDEST SWAP1 POP DUP3 DUP2 SUB PUSH1 0x80 DUP5 ADD MSTORE PUSH2 0x2747 DUP2 DUP9 PUSH2 0x253E JUMP JUMPDEST SWAP2 POP POP PUSH1 0x5 DUP6 LT PUSH2 0x275A JUMPI PUSH2 0x275A PUSH2 0x2A4C JUMP JUMPDEST DUP5 PUSH1 0xA0 DUP4 ADD MSTORE PUSH1 0x3 DUP5 LT PUSH2 0x2770 JUMPI PUSH2 0x2770 PUSH2 0x2A4C JUMP JUMPDEST DUP4 PUSH1 0xC0 DUP4 ADD MSTORE DUP3 ISZERO ISZERO PUSH1 0xE0 DUP4 ADD MSTORE SWAP10 SWAP9 POP POP POP POP POP POP POP POP POP JUMP JUMPDEST PUSH1 0xA0 DUP2 MSTORE PUSH1 0x0 PUSH2 0x279E PUSH1 0xA0 DUP4 ADD DUP9 PUSH2 0x253E JUMP JUMPDEST DUP3 DUP2 SUB PUSH1 0x20 DUP5 ADD MSTORE PUSH2 0x27B0 DUP2 DUP9 PUSH2 0x253E JUMP JUMPDEST SWAP1 POP DUP3 DUP2 SUB PUSH1 0x40 DUP5 ADD MSTORE PUSH2 0x27C4 DUP2 DUP8 PUSH2 0x253E JUMP JUMPDEST SWAP1 POP DUP3 DUP2 SUB PUSH1 0x60 DUP5 ADD MSTORE PUSH2 0x27D8 DUP2 DUP7 PUSH2 0x253E JUMP JUMPDEST SWAP2 POP POP DUP3 PUSH1 0x80 DUP4 ADD MSTORE SWAP7 SWAP6 POP POP POP POP POP POP JUMP JUMPDEST PUSH1 0x80 DUP2 MSTORE PUSH1 0x0 PUSH2 0x27FE PUSH1 0x80 DUP4 ADD DUP8 PUSH2 0x253E JUMP JUMPDEST DUP3 DUP2 SUB PUSH1 0x20 DUP5 ADD MSTORE PUSH2 0x2810 DUP2 DUP8 PUSH2 0x253E JUMP JUMPDEST PUSH1 0x40 DUP5 ADD SWAP6 SWAP1 SWAP6 MSTORE POP POP PUSH1 0x60 ADD MSTORE SWAP3 SWAP2 POP POP JUMP JUMPDEST PUSH1 0x80 DUP2 MSTORE PUSH1 0x0 PUSH2 0x2837 PUSH1 0x80 DUP4 ADD DUP8 PUSH2 0x253E JUMP JUMPDEST PUSH1 0x20 DUP4 ADD SWAP6 SWAP1 SWAP6 MSTORE POP PUSH1 0x40 DUP2 ADD SWAP3 SWAP1 SWAP3 MSTORE PUSH1 0x60 SWAP1 SWAP2 ADD MSTORE SWAP2 SWAP1 POP JUMP JUMPDEST PUSH1 0x20 DUP1 DUP3 MSTORE PUSH1 0x23 SWAP1 DUP3 ADD MSTORE PUSH32 0x4548522D52442D30313A20446F63746F7220616C726561647920456E726F6C6C PUSH1 0x40 DUP3 ADD MSTORE PUSH3 0x32B217 PUSH1 0xE9 SHL PUSH1 0x60 DUP3 ADD MSTORE PUSH1 0x80 ADD SWAP1 JUMP JUMPDEST PUSH1 0x20 DUP1 DUP3 MSTORE PUSH1 0x16 SWAP1 DUP3 ADD MSTORE PUSH22 0x14185D1A595B9D08139BDD081C9959DA5CDD195C9959 PUSH1 0x52 SHL PUSH1 0x40 DUP3 ADD MSTORE PUSH1 0x60 ADD SWAP1 JUMP JUMPDEST PUSH1 0x20 DUP1 DUP3 MSTORE PUSH1 0x24 SWAP1 DUP3 ADD MSTORE PUSH32 0x4548522D52502D30323A2050617469656E7420616C726561647920456E726F6C PUSH1 0x40 DUP3 ADD MSTORE PUSH4 0x3632B217 PUSH1 0xE1 SHL PUSH1 0x60 DUP3 ADD MSTORE PUSH1 0x80 ADD SWAP1 JUMP JUMPDEST PUSH1 0x20 DUP1 DUP3 MSTORE PUSH1 0x23 SWAP1 DUP3 ADD MSTORE PUSH32 0x4548522D52442D30323A20446F63746F7220616C726561647920456E726F6C6C PUSH1 0x40 DUP3 ADD MSTORE PUSH3 0x32B217 PUSH1 0xE9 SHL PUSH1 0x60 DUP3 ADD MSTORE PUSH1 0x80 ADD SWAP1 JUMP JUMPDEST PUSH1 0x20 DUP1 DUP3 MSTORE PUSH1 0x24 SWAP1 DUP3 ADD MSTORE PUSH32 0x4548522D52502D30313A2050617469656E7420616C726561647920456E726F6C PUSH1 0x40 DUP3 ADD MSTORE PUSH4 0x3632B217 PUSH1 0xE1 SHL PUSH1 0x60 DUP3 ADD MSTORE PUSH1 0x80 ADD SWAP1 JUMP JUMPDEST DUP4 DUP2 MSTORE PUSH1 0x60 PUSH1 0x20 DUP3 ADD MSTORE PUSH1 0x0 PUSH2 0x29AA PUSH1 0x60 DUP4 ADD DUP6 PUSH2 0x253E JUMP JUMPDEST SWAP1 POP DUP3 PUSH1 0x40 DUP4 ADD MSTORE SWAP5 SWAP4 POP POP POP POP JUMP JUMPDEST PUSH1 0x0 JUMPDEST DUP4 DUP2 LT ISZERO PUSH2 0x29D5 JUMPI DUP2 DUP2 ADD MLOAD DUP4 DUP3 ADD MSTORE PUSH1 0x20 ADD PUSH2 0x29BD JUMP JUMPDEST DUP4 DUP2 GT ISZERO PUSH2 0x29E4 JUMPI PUSH1 0x0 DUP5 DUP5 ADD MSTORE JUMPDEST POP POP POP POP JUMP JUMPDEST PUSH1 0x1 DUP2 DUP2 SHR SWAP1 DUP3 AND DUP1 PUSH2 0x29FE JUMPI PUSH1 0x7F DUP3 AND SWAP2 POP JUMPDEST PUSH1 0x20 DUP3 LT DUP2 EQ ISZERO PUSH2 0x2A1F JUMPI PUSH4 0x4E487B71 PUSH1 0xE0 SHL PUSH1 0x0 MSTORE PUSH1 0x22 PUSH1 0x4 MSTORE PUSH1 0x24 PUSH1 0x0 REVERT JUMPDEST POP SWAP2 SWAP1 POP JUMP JUMPDEST PUSH1 0x0 PUSH1 0x0 NOT DUP3 EQ ISZERO PUSH2 0x2A45 JUMPI PUSH4 0x4E487B71 PUSH1 0xE0 SHL DUP2 MSTORE PUSH1 0x11 PUSH1 0x4 MSTORE PUSH1 0x24 DUP2 REVERT JUMPDEST POP PUSH1 0x1 ADD SWAP1 JUMP JUMPDEST PUSH4 0x4E487B71 PUSH1 0xE0 SHL PUSH1 0x0 MSTORE PUSH1 0x21 PUSH1 0x4 MSTORE PUSH1 0x24 PUSH1 0x0 REVERT JUMPDEST PUSH4 0x4E487B71 PUSH1 0xE0 SHL PUSH1 0x0 MSTORE PUSH1 0x41 PUSH1 0x4 MSTORE PUSH1 0x24 PUSH1 0x0 REVERT JUMPDEST PUSH1 0x2 DUP2 LT PUSH2 0x2A85 JUMPI PUSH1 0x0 DUP1 REVERT JUMPDEST POP JUMP INVALID LT COINBASE SUB PUSH30 0x4B3EE5730FCE647EBD981CD0FD8864F61CD34868EF88A3FA6AF64721A264 PUSH10 0x7066735822122094158D 0xD2 PUSH23 0xA342E53566029A73FFD1A1E434C8AA62B81D89D663CF45 SWAP12 0xD2 PC ADD PUSH5 0x736F6C6343 STOP ADDMOD DIV STOP CALLER "
				},
				"gasEstimates": {
					"creation": {
						"codeDepositCost": "2194800",
						"executionCost": "2338",
						"totalCost": "2197138"
					},
					"external": {
						"accessControl(uint256,uint256,uint8)": "infinite",
						"accessForDoctor(uint256,uint256)": "1335",
						"careGiverData(uint256,uint256)": "infinite",
						"doctorAccess(uint256)": "infinite",
						"patientAccess(uint256)": "infinite",
						"patientLocData(uint256)": "infinite",
						"patienthealthData(uint256)": "infinite",
						"patientrecordsData(uint256,uint256)": "1277",
						"recordByDoctor(uint256,uint256,uint256,uint256)": "22347",
						"recordByPatient(uint256,uint256,uint256)": "21350",
						"registerCareGiver(uint256,uint256,string,string,string)": "infinite",
						"registerDoctor(string,string,string,string,string,uint8,uint8,uint8)": "infinite",
						"registerPatientHealth(string,string,uint256,uint256,uint256)": "infinite",
						"registerPatientLoc(string,string,string,string,uint256,uint256)": "infinite",
						"registerPatients(string,string,string,string,uint8)": "infinite",
						"updateCareGiver(uint256,uint256,string,string,string)": "infinite"
					}
				},
				"methodIdentifiers": {
					"accessControl(uint256,uint256,uint8)": "a269b418",
					"accessForDoctor(uint256,uint256)": "4fcd407a",
					"careGiverData(uint256,uint256)": "cbd46fa3",
					"doctorAccess(uint256)": "0a77f6b0",
					"patientAccess(uint256)": "2990bc6f",
					"patientLocData(uint256)": "f75be4eb",
					"patienthealthData(uint256)": "c977baf3",
					"patientrecordsData(uint256,uint256)": "f60b48cb",
					"recordByDoctor(uint256,uint256,uint256,uint256)": "764b6b38",
					"recordByPatient(uint256,uint256,uint256)": "021bf487",
					"registerCareGiver(uint256,uint256,string,string,string)": "8f58f628",
					"registerDoctor(string,string,string,string,string,uint8,uint8,uint8)": "db3e3976",
					"registerPatientHealth(string,string,uint256,uint256,uint256)": "d7349705",
					"registerPatientLoc(string,string,string,string,uint256,uint256)": "e078a1c6",
					"registerPatients(string,string,string,string,uint8)": "edef7049",
					"updateCareGiver(uint256,uint256,string,string,string)": "f6c6e3d0"
				}
			},
			"storageLayout": {
				"storage": [
					{
						"astId": 147,
						"contract": "test.sol:test",
						"label": "patientAccess",
						"offset": 0,
						"slot": "0",
						"type": "t_mapping(t_uint256,t_struct(patientEnroll)53_storage)"
					},
					{
						"astId": 152,
						"contract": "test.sol:test",
						"label": "doctorAccess",
						"offset": 0,
						"slot": "1",
						"type": "t_mapping(t_uint256,t_struct(doctorEnroll)42_storage)"
					},
					{
						"astId": 157,
						"contract": "test.sol:test",
						"label": "patientLocData",
						"offset": 0,
						"slot": "2",
						"type": "t_mapping(t_uint256,t_struct(patientGeo)64_storage)"
					},
					{
						"astId": 162,
						"contract": "test.sol:test",
						"label": "patienthealthData",
						"offset": 0,
						"slot": "3",
						"type": "t_mapping(t_uint256,t_struct(patienthealth)82_storage)"
					},
					{
						"astId": 168,
						"contract": "test.sol:test",
						"label": "patientrecordsData",
						"offset": 0,
						"slot": "4",
						"type": "t_mapping(t_uint256,t_mapping(t_uint256,t_uint256))"
					},
					{
						"astId": 175,
						"contract": "test.sol:test",
						"label": "careGiverData",
						"offset": 0,
						"slot": "5",
						"type": "t_mapping(t_uint256,t_mapping(t_uint256,t_struct(careGiver)73_storage))"
					},
					{
						"astId": 181,
						"contract": "test.sol:test",
						"label": "accessForDoctor",
						"offset": 0,
						"slot": "6",
						"type": "t_mapping(t_uint256,t_mapping(t_uint256,t_bool))"
					},
					{
						"astId": 614,
						"contract": "test.sol:test",
						"label": "index",
						"offset": 0,
						"slot": "7",
						"type": "t_array(t_uint256)dyn_storage"
					}
				],
				"types": {
					"t_array(t_uint256)dyn_storage": {
						"base": "t_uint256",
						"encoding": "dynamic_array",
						"label": "uint256[]",
						"numberOfBytes": "32"
					},
					"t_bool": {
						"encoding": "inplace",
						"label": "bool",
						"numberOfBytes": "1"
					},
					"t_enum(DoctorType)10": {
						"encoding": "inplace",
						"label": "enum test.DoctorType",
						"numberOfBytes": "1"
					},
					"t_enum(Sex)14": {
						"encoding": "inplace",
						"label": "enum test.Sex",
						"numberOfBytes": "1"
					},
					"t_mapping(t_uint256,t_bool)": {
						"encoding": "mapping",
						"key": "t_uint256",
						"label": "mapping(uint256 => bool)",
						"numberOfBytes": "32",
						"value": "t_bool"
					},
					"t_mapping(t_uint256,t_mapping(t_uint256,t_bool))": {
						"encoding": "mapping",
						"key": "t_uint256",
						"label": "mapping(uint256 => mapping(uint256 => bool))",
						"numberOfBytes": "32",
						"value": "t_mapping(t_uint256,t_bool)"
					},
					"t_mapping(t_uint256,t_mapping(t_uint256,t_struct(careGiver)73_storage))": {
						"encoding": "mapping",
						"key": "t_uint256",
						"label": "mapping(uint256 => mapping(uint256 => struct test.careGiver))",
						"numberOfBytes": "32",
						"value": "t_mapping(t_uint256,t_struct(careGiver)73_storage)"
					},
					"t_mapping(t_uint256,t_mapping(t_uint256,t_uint256))": {
						"encoding": "mapping",
						"key": "t_uint256",
						"label": "mapping(uint256 => mapping(uint256 => uint256))",
						"numberOfBytes": "32",
						"value": "t_mapping(t_uint256,t_uint256)"
					},
					"t_mapping(t_uint256,t_struct(careGiver)73_storage)": {
						"encoding": "mapping",
						"key": "t_uint256",
						"label": "mapping(uint256 => struct test.careGiver)",
						"numberOfBytes": "32",
						"value": "t_struct(careGiver)73_storage"
					},
					"t_mapping(t_uint256,t_struct(doctorEnroll)42_storage)": {
						"encoding": "mapping",
						"key": "t_uint256",
						"label": "mapping(uint256 => struct test.doctorEnroll)",
						"numberOfBytes": "32",
						"value": "t_struct(doctorEnroll)42_storage"
					},
					"t_mapping(t_uint256,t_struct(patientEnroll)53_storage)": {
						"encoding": "mapping",
						"key": "t_uint256",
						"label": "mapping(uint256 => struct test.patientEnroll)",
						"numberOfBytes": "32",
						"value": "t_struct(patientEnroll)53_storage"
					},
					"t_mapping(t_uint256,t_struct(patientGeo)64_storage)": {
						"encoding": "mapping",
						"key": "t_uint256",
						"label": "mapping(uint256 => struct test.patientGeo)",
						"numberOfBytes": "32",
						"value": "t_struct(patientGeo)64_storage"
					},
					"t_mapping(t_uint256,t_struct(patienthealth)82_storage)": {
						"encoding": "mapping",
						"key": "t_uint256",
						"label": "mapping(uint256 => struct test.patienthealth)",
						"numberOfBytes": "32",
						"value": "t_struct(patienthealth)82_storage"
					},
					"t_mapping(t_uint256,t_uint256)": {
						"encoding": "mapping",
						"key": "t_uint256",
						"label": "mapping(uint256 => uint256)",
						"numberOfBytes": "32",
						"value": "t_uint256"
					},
					"t_string_storage": {
						"encoding": "bytes",
						"label": "string",
						"numberOfBytes": "32"
					},
					"t_struct(careGiver)73_storage": {
						"encoding": "inplace",
						"label": "struct test.careGiver",
						"members": [
							{
								"astId": 66,
								"contract": "test.sol:test",
								"label": "careName",
								"offset": 0,
								"slot": "0",
								"type": "t_string_storage"
							},
							{
								"astId": 68,
								"contract": "test.sol:test",
								"label": "careMobile",
								"offset": 0,
								"slot": "1",
								"type": "t_string_storage"
							},
							{
								"astId": 70,
								"contract": "test.sol:test",
								"label": "careRelation",
								"offset": 0,
								"slot": "2",
								"type": "t_string_storage"
							},
							{
								"astId": 72,
								"contract": "test.sol:test",
								"label": "isExist",
								"offset": 0,
								"slot": "3",
								"type": "t_bool"
							}
						],
						"numberOfBytes": "128"
					},
					"t_struct(doctorEnroll)42_storage": {
						"encoding": "inplace",
						"label": "struct test.doctorEnroll",
						"members": [
							{
								"astId": 25,
								"contract": "test.sol:test",
								"label": "doctorName",
								"offset": 0,
								"slot": "0",
								"type": "t_string_storage"
							},
							{
								"astId": 27,
								"contract": "test.sol:test",
								"label": "doctorEmail",
								"offset": 0,
								"slot": "1",
								"type": "t_string_storage"
							},
							{
								"astId": 29,
								"contract": "test.sol:test",
								"label": "doctorMobile",
								"offset": 0,
								"slot": "2",
								"type": "t_string_storage"
							},
							{
								"astId": 31,
								"contract": "test.sol:test",
								"label": "doctorPass",
								"offset": 0,
								"slot": "3",
								"type": "t_string_storage"
							},
							{
								"astId": 33,
								"contract": "test.sol:test",
								"label": "doctorCred",
								"offset": 0,
								"slot": "4",
								"type": "t_string_storage"
							},
							{
								"astId": 36,
								"contract": "test.sol:test",
								"label": "docType",
								"offset": 0,
								"slot": "5",
								"type": "t_enum(DoctorType)10"
							},
							{
								"astId": 39,
								"contract": "test.sol:test",
								"label": "docSex",
								"offset": 1,
								"slot": "5",
								"type": "t_enum(Sex)14"
							},
							{
								"astId": 41,
								"contract": "test.sol:test",
								"label": "isExist",
								"offset": 2,
								"slot": "5",
								"type": "t_bool"
							}
						],
						"numberOfBytes": "192"
					},
					"t_struct(patientEnroll)53_storage": {
						"encoding": "inplace",
						"label": "struct test.patientEnroll",
						"members": [
							{
								"astId": 44,
								"contract": "test.sol:test",
								"label": "patientName",
								"offset": 0,
								"slot": "0",
								"type": "t_string_storage"
							},
							{
								"astId": 46,
								"contract": "test.sol:test",
								"label": "patientEmail",
								"offset": 0,
								"slot": "1",
								"type": "t_string_storage"
							},
							{
								"astId": 48,
								"contract": "test.sol:test",
								"label": "patientMobile",
								"offset": 0,
								"slot": "2",
								"type": "t_string_storage"
							},
							{
								"astId": 50,
								"contract": "test.sol:test",
								"label": "patientPass",
								"offset": 0,
								"slot": "3",
								"type": "t_string_storage"
							},
							{
								"astId": 52,
								"contract": "test.sol:test",
								"label": "isExist",
								"offset": 0,
								"slot": "4",
								"type": "t_bool"
							}
						],
						"numberOfBytes": "160"
					},
					"t_struct(patientGeo)64_storage": {
						"encoding": "inplace",
						"label": "struct test.patientGeo",
						"members": [
							{
								"astId": 55,
								"contract": "test.sol:test",
								"label": "city",
								"offset": 0,
								"slot": "0",
								"type": "t_string_storage"
							},
							{
								"astId": 57,
								"contract": "test.sol:test",
								"label": "state",
								"offset": 0,
								"slot": "1",
								"type": "t_string_storage"
							},
							{
								"astId": 59,
								"contract": "test.sol:test",
								"label": "country",
								"offset": 0,
								"slot": "2",
								"type": "t_string_storage"
							},
							{
								"astId": 61,
								"contract": "test.sol:test",
								"label": "landmark",
								"offset": 0,
								"slot": "3",
								"type": "t_string_storage"
							},
							{
								"astId": 63,
								"contract": "test.sol:test",
								"label": "pincode",
								"offset": 0,
								"slot": "4",
								"type": "t_uint256"
							}
						],
						"numberOfBytes": "160"
					},
					"t_struct(patienthealth)82_storage": {
						"encoding": "inplace",
						"label": "struct test.patienthealth",
						"members": [
							{
								"astId": 75,
								"contract": "test.sol:test",
								"label": "allergies",
								"offset": 0,
								"slot": "0",
								"type": "t_string_storage"
							},
							{
								"astId": 77,
								"contract": "test.sol:test",
								"label": "lifesaver",
								"offset": 0,
								"slot": "1",
								"type": "t_string_storage"
							},
							{
								"astId": 79,
								"contract": "test.sol:test",
								"label": "height",
								"offset": 0,
								"slot": "2",
								"type": "t_uint256"
							},
							{
								"astId": 81,
								"contract": "test.sol:test",
								"label": "weight",
								"offset": 0,
								"slot": "3",
								"type": "t_uint256"
							}
						],
						"numberOfBytes": "128"
					},
					"t_uint256": {
						"encoding": "inplace",
						"label": "uint256",
						"numberOfBytes": "32"
					}
				}
			},
			"userdoc": {
				"kind": "user",
				"methods": {},
				"version": 1
			}
		}
	}
}