{
	"contracts/InternalContract.sol": {
		"InternalContract": {
			"abi": [
				{
					"constant": false,
					"inputs": [],
					"name": "testMyFunc",
					"outputs": [
						{
							"name": "requestId",
							"type": "bytes32"
						}
					],
					"payable": false,
					"stateMutability": "nonpayable",
					"type": "function"
				},
				{
					"constant": false,
					"inputs": [],
					"name": "withdrawPli",
					"outputs": [],
					"payable": false,
					"stateMutability": "nonpayable",
					"type": "function"
				},
				{
					"constant": false,
					"inputs": [
						{
							"name": "_requestId",
							"type": "bytes32"
						},
						{
							"name": "_currentval",
							"type": "uint256"
						}
					],
					"name": "fulfill",
					"outputs": [],
					"payable": false,
					"stateMutability": "nonpayable",
					"type": "function"
				},
				{
					"constant": true,
					"inputs": [],
					"name": "currentValue",
					"outputs": [
						{
							"name": "",
							"type": "uint256"
						}
					],
					"payable": false,
					"stateMutability": "view",
					"type": "function"
				},
				{
					"constant": false,
					"inputs": [],
					"name": "renounceOwnership",
					"outputs": [],
					"payable": false,
					"stateMutability": "nonpayable",
					"type": "function"
				},
				{
					"constant": true,
					"inputs": [],
					"name": "oracle",
					"outputs": [
						{
							"name": "",
							"type": "address"
						}
					],
					"payable": false,
					"stateMutability": "view",
					"type": "function"
				},
				{
					"constant": true,
					"inputs": [],
					"name": "latestTimestamp",
					"outputs": [
						{
							"name": "",
							"type": "uint256"
						}
					],
					"payable": false,
					"stateMutability": "view",
					"type": "function"
				},
				{
					"constant": true,
					"inputs": [],
					"name": "owner",
					"outputs": [
						{
							"name": "",
							"type": "address"
						}
					],
					"payable": false,
					"stateMutability": "view",
					"type": "function"
				},
				{
					"constant": true,
					"inputs": [],
					"name": "showPrice",
					"outputs": [
						{
							"name": "",
							"type": "uint256"
						}
					],
					"payable": false,
					"stateMutability": "view",
					"type": "function"
				},
				{
					"constant": false,
					"inputs": [
						{
							"name": "_caller",
							"type": "address"
						}
					],
					"name": "requestData",
					"outputs": [
						{
							"name": "requestId",
							"type": "bytes32"
						}
					],
					"payable": false,
					"stateMutability": "nonpayable",
					"type": "function"
				},
				{
					"constant": true,
					"inputs": [
						{
							"name": "",
							"type": "address"
						}
					],
					"name": "plidbs",
					"outputs": [
						{
							"name": "depositor",
							"type": "address"
						},
						{
							"name": "totalcredits",
							"type": "uint256"
						}
					],
					"payable": false,
					"stateMutability": "view",
					"type": "function"
				},
				{
					"constant": true,
					"inputs": [],
					"name": "getPluginToken",
					"outputs": [
						{
							"name": "",
							"type": "address"
						}
					],
					"payable": false,
					"stateMutability": "view",
					"type": "function"
				},
				{
					"constant": true,
					"inputs": [],
					"name": "jobId",
					"outputs": [
						{
							"name": "",
							"type": "string"
						}
					],
					"payable": false,
					"stateMutability": "view",
					"type": "function"
				},
				{
					"constant": false,
					"inputs": [
						{
							"name": "_value",
							"type": "uint256"
						}
					],
					"name": "depositPLI",
					"outputs": [
						{
							"name": "",
							"type": "bool"
						}
					],
					"payable": false,
					"stateMutability": "nonpayable",
					"type": "function"
				},
				{
					"constant": false,
					"inputs": [
						{
							"name": "_requestId",
							"type": "bytes32"
						},
						{
							"name": "_payment",
							"type": "uint256"
						},
						{
							"name": "_callbackFunctionId",
							"type": "bytes4"
						},
						{
							"name": "_expiration",
							"type": "uint256"
						}
					],
					"name": "cancelRequest",
					"outputs": [],
					"payable": false,
					"stateMutability": "nonpayable",
					"type": "function"
				},
				{
					"constant": false,
					"inputs": [
						{
							"name": "_newOwner",
							"type": "address"
						}
					],
					"name": "transferOwnership",
					"outputs": [],
					"payable": false,
					"stateMutability": "nonpayable",
					"type": "function"
				},
				{
					"inputs": [
						{
							"name": "_pli",
							"type": "address"
						},
						{
							"name": "_oracle",
							"type": "address"
						},
						{
							"name": "_jobid",
							"type": "string"
						}
					],
					"payable": false,
					"stateMutability": "nonpayable",
					"type": "constructor"
				},
				{
					"anonymous": false,
					"inputs": [
						{
							"indexed": true,
							"name": "requestId",
							"type": "bytes32"
						},
						{
							"indexed": true,
							"name": "currentVal",
							"type": "uint256"
						}
					],
					"name": "RequestFulfilled",
					"type": "event"
				},
				{
					"anonymous": false,
					"inputs": [
						{
							"indexed": true,
							"name": "requester",
							"type": "address"
						},
						{
							"indexed": true,
							"name": "jobId",
							"type": "bytes32"
						},
						{
							"indexed": true,
							"name": "requestId",
							"type": "bytes32"
						}
					],
					"name": "requestCreated",
					"type": "event"
				},
				{
					"anonymous": false,
					"inputs": [
						{
							"indexed": true,
							"name": "jobId",
							"type": "bytes32"
						},
						{
							"indexed": true,
							"name": "requestId",
							"type": "bytes32"
						}
					],
					"name": "requestCreatedTest",
					"type": "event"
				},
				{
					"anonymous": false,
					"inputs": [
						{
							"indexed": true,
							"name": "previousOwner",
							"type": "address"
						}
					],
					"name": "OwnershipRenounced",
					"type": "event"
				},
				{
					"anonymous": false,
					"inputs": [
						{
							"indexed": true,
							"name": "previousOwner",
							"type": "address"
						},
						{
							"indexed": true,
							"name": "newOwner",
							"type": "address"
						}
					],
					"name": "OwnershipTransferred",
					"type": "event"
				},
				{
					"anonymous": false,
					"inputs": [
						{
							"indexed": true,
							"name": "id",
							"type": "bytes32"
						}
					],
					"name": "PluginRequested",
					"type": "event"
				},
				{
					"anonymous": false,
					"inputs": [
						{
							"indexed": true,
							"name": "id",
							"type": "bytes32"
						}
					],
					"name": "PluginFulfilled",
					"type": "event"
				},
				{
					"anonymous": false,
					"inputs": [
						{
							"indexed": true,
							"name": "id",
							"type": "bytes32"
						}
					],
					"name": "PluginCancelled",
					"type": "event"
				}
			],
			"devdoc": {
				"methods": {
					"renounceOwnership()": {
						"details": "Allows the current owner to relinquish control of the contract."
					},
					"transferOwnership(address)": {
						"details": "Allows the current owner to transfer control of the contract to a newOwner.",
						"params": {
							"_newOwner": "The address to transfer ownership to."
						}
					}
				}
			},
			"evm": {
				"assembly": "    /* \"contracts/InternalContract.sol\":140:4706  contract InternalContract is PluginClient, Ownable {... */\n  mstore(0x40, 0x80)\n    /* \"@goplugin/contracts/src/v0.4/PluginClient.sol\":1088:1089  1 */\n  0x1\n    /* \"@goplugin/contracts/src/v0.4/PluginClient.sol\":1061:1089  uint256 private requests = 1 */\n  0x4\n  sstore\n    /* \"contracts/InternalContract.sol\":1078:1240  constructor(address _pli,address _oracle,string memory _jobid) public Ownable() {... */\n  callvalue\n    /* \"--CODEGEN--\":8:17   */\n  dup1\n    /* \"--CODEGEN--\":5:7   */\n  iszero\n  tag_1\n  jumpi\n    /* \"--CODEGEN--\":30:31   */\n  0x0\n    /* \"--CODEGEN--\":27:28   */\n  dup1\n    /* \"--CODEGEN--\":20:32   */\n  revert\n    /* \"--CODEGEN--\":5:7   */\ntag_1:\n    /* \"contracts/InternalContract.sol\":1078:1240  constructor(address _pli,address _oracle,string memory _jobid) public Ownable() {... */\n  pop\n  mload(0x40)\n  sub(codesize, bytecodeSize)\n  dup1\n  bytecodeSize\n  dup4\n  codecopy\n  dup2\n  add\n  0x40\n  swap1\n  dup2\n  mstore\n  dup2\n  mload\n  0x20\n  dup4\n  add\n  mload\n  swap2\n  dup4\n  add\n  mload\n    /* \"@goplugin/contracts/src/v0.4/vendor/Ownable.sol\":567:572  owner */\n  0x6\n    /* \"@goplugin/contracts/src/v0.4/vendor/Ownable.sol\":567:585  owner = msg.sender */\n  dup1\n  sload\n  not(sub(exp(0x2, 0xa0), 0x1))\n  and\n    /* \"@goplugin/contracts/src/v0.4/vendor/Ownable.sol\":575:585  msg.sender */\n  caller\n    /* \"@goplugin/contracts/src/v0.4/vendor/Ownable.sol\":567:585  owner = msg.sender */\n  or\n  swap1\n  sstore\n    /* \"contracts/InternalContract.sol\":1078:1240  constructor(address _pli,address _oracle,string memory _jobid) public Ownable() {... */\n  swap1\n  swap3\n  add\n    /* \"contracts/InternalContract.sol\":1164:1184  setPluginToken(_pli) */\n  tag_6\n    /* \"contracts/InternalContract.sol\":1078:1240  constructor(address _pli,address _oracle,string memory _jobid) public Ownable() {... */\n  dup4\n    /* \"contracts/InternalContract.sol\":1164:1178  setPluginToken */\n  0x100000000\n  tag_7\n  dup2\n  mul\n    /* \"contracts/InternalContract.sol\":1164:1184  setPluginToken(_pli) */\n  div\n  jump\t// in\ntag_6:\n    /* \"contracts/InternalContract.sol\":1190:1196  oracle */\n  0x7\n    /* \"contracts/InternalContract.sol\":1190:1215  oracle = address(_oracle) */\n  dup1\n  sload\n  not(sub(exp(0x2, 0xa0), 0x1))\n  and\n  sub(exp(0x2, 0xa0), 0x1)\n  dup5\n  and\n  or\n  swap1\n  sstore\n    /* \"contracts/InternalContract.sol\":1221:1235  jobId = _jobid */\n  dup1\n  mload\n  tag_8\n  swap1\n    /* \"contracts/InternalContract.sol\":1221:1226  jobId */\n  0x8\n  swap1\n    /* \"contracts/InternalContract.sol\":1221:1235  jobId = _jobid */\n  0x20\n  dup5\n  add\n  swap1\n  jump\t// in(tag_9)\ntag_8:\n  pop\n    /* \"contracts/InternalContract.sol\":1078:1240  constructor(address _pli,address _oracle,string memory _jobid) public Ownable() {... */\n  pop\n  pop\n  pop\n    /* \"contracts/InternalContract.sol\":140:4706  contract InternalContract is PluginClient, Ownable {... */\n  jump(tag_10)\n    /* \"@goplugin/contracts/src/v0.4/PluginClient.sol\":4632:4719  function setPluginToken(address _pli) internal {... */\ntag_7:\n    /* \"@goplugin/contracts/src/v0.4/PluginClient.sol\":4685:4688  pli */\n  0x2\n    /* \"@goplugin/contracts/src/v0.4/PluginClient.sol\":4685:4714  pli = PliTokenInterface(_pli) */\n  dup1\n  sload\n  not(sub(exp(0x2, 0xa0), 0x1))\n  and\n  sub(exp(0x2, 0xa0), 0x1)\n  swap3\n  swap1\n  swap3\n  and\n  swap2\n  swap1\n  swap2\n  or\n  swap1\n  sstore\n    /* \"@goplugin/contracts/src/v0.4/PluginClient.sol\":4632:4719  function setPluginToken(address _pli) internal {... */\n  jump\t// out\n    /* \"contracts/InternalContract.sol\":140:4706  contract InternalContract is PluginClient, Ownable {... */\ntag_9:\n  dup3\n  dup1\n  sload\n  0x1\n  dup2\n  0x1\n  and\n  iszero\n  0x100\n  mul\n  sub\n  and\n  0x2\n  swap1\n  div\n  swap1\n  0x0\n  mstore\n  keccak256(0x0, 0x20)\n  swap1\n  0x1f\n  add\n  0x20\n  swap1\n  div\n  dup2\n  add\n  swap3\n  dup3\n  0x1f\n  lt\n  tag_13\n  jumpi\n  dup1\n  mload\n  not(0xff)\n  and\n  dup4\n  dup1\n  add\n  or\n  dup6\n  sstore\n  jump(tag_15)\ntag_13:\n  dup3\n  dup1\n  add\n  0x1\n  add\n  dup6\n  sstore\n  dup3\n  iszero\n  tag_15\n  jumpi\n  swap2\n  dup3\n  add\ntag_14:\n  dup3\n  dup2\n  gt\n  iszero\n  tag_15\n  jumpi\n  dup3\n  mload\n  dup3\n  sstore\n  swap2\n  0x20\n  add\n  swap2\n  swap1\n  0x1\n  add\n  swap1\n  jump(tag_14)\ntag_15:\n  pop\n  tag_16\n  swap3\n  swap2\n  pop\n  jump\t// in(tag_17)\ntag_16:\n  pop\n  swap1\n  jump\t// out\ntag_17:\n  tag_18\n  swap2\n  swap1\ntag_19:\n  dup1\n  dup3\n  gt\n  iszero\n  tag_16\n  jumpi\n  0x0\n  dup2\n  sstore\n  0x1\n  add\n  jump(tag_19)\ntag_18:\n  swap1\n  jump\t// out\ntag_10:\n  dataSize(sub_0)\n  dup1\n  dataOffset(sub_0)\n  0x0\n  codecopy\n  0x0\n  return\nstop\n\nsub_0: assembly {\n        /* \"contracts/InternalContract.sol\":140:4706  contract InternalContract is PluginClient, Ownable {... */\n      mstore(0x40, 0x80)\n      jumpi(tag_1, lt(calldatasize, 0x4))\n      and(div(calldataload(0x0), exp(0x2, 0xe0)), 0xffffffff)\n      0x2d8c762c\n      dup2\n      eq\n      tag_2\n      jumpi\n      dup1\n      0x37fccd30\n      eq\n      tag_3\n      jumpi\n      dup1\n      0x4357855e\n      eq\n      tag_4\n      jumpi\n      dup1\n      0x698996f8\n      eq\n      tag_5\n      jumpi\n      dup1\n      0x715018a6\n      eq\n      tag_6\n      jumpi\n      dup1\n      0x7dc0d1d0\n      eq\n      tag_7\n      jumpi\n      dup1\n      0x8205bf6a\n      eq\n      tag_8\n      jumpi\n      dup1\n      0x8da5cb5b\n      eq\n      tag_9\n      jumpi\n      dup1\n      0x8e0e0abb\n      eq\n      tag_10\n      jumpi\n      dup1\n      0x9dd4cc5d\n      eq\n      tag_11\n      jumpi\n      dup1\n      0xa2e36c5f\n      eq\n      tag_12\n      jumpi\n      dup1\n      0xa4b6f67e\n      eq\n      tag_13\n      jumpi\n      dup1\n      0xc2939d97\n      eq\n      tag_14\n      jumpi\n      dup1\n      0xd378d5eb\n      eq\n      tag_15\n      jumpi\n      dup1\n      0xec65d0f8\n      eq\n      tag_16\n      jumpi\n      dup1\n      0xf2fde38b\n      eq\n      tag_17\n      jumpi\n    tag_1:\n      0x0\n      dup1\n      revert\n        /* \"contracts/InternalContract.sol\":2949:3447  function testMyFunc()... */\n    tag_2:\n      callvalue\n        /* \"--CODEGEN--\":8:17   */\n      dup1\n        /* \"--CODEGEN--\":5:7   */\n      iszero\n      tag_18\n      jumpi\n        /* \"--CODEGEN--\":30:31   */\n      0x0\n        /* \"--CODEGEN--\":27:28   */\n      dup1\n        /* \"--CODEGEN--\":20:32   */\n      revert\n        /* \"--CODEGEN--\":5:7   */\n    tag_18:\n        /* \"contracts/InternalContract.sol\":2949:3447  function testMyFunc()... */\n      pop\n      tag_19\n      jump(tag_20)\n    tag_19:\n      0x40\n      dup1\n      mload\n      swap2\n      dup3\n      mstore\n      mload\n      swap1\n      dup2\n      swap1\n      sub\n      0x20\n      add\n      swap1\n      return\n        /* \"contracts/InternalContract.sol\":3894:4099  function withdrawPli() public onlyOwner {... */\n    tag_3:\n      callvalue\n        /* \"--CODEGEN--\":8:17   */\n      dup1\n        /* \"--CODEGEN--\":5:7   */\n      iszero\n      tag_21\n      jumpi\n        /* \"--CODEGEN--\":30:31   */\n      0x0\n        /* \"--CODEGEN--\":27:28   */\n      dup1\n        /* \"--CODEGEN--\":20:32   */\n      revert\n        /* \"--CODEGEN--\":5:7   */\n    tag_21:\n        /* \"contracts/InternalContract.sol\":3894:4099  function withdrawPli() public onlyOwner {... */\n      pop\n      tag_22\n      jump(tag_23)\n    tag_22:\n      stop\n        /* \"contracts/InternalContract.sol\":3474:3745  function fulfill(bytes32 _requestId, uint256 _currentval)... */\n    tag_4:\n      callvalue\n        /* \"--CODEGEN--\":8:17   */\n      dup1\n        /* \"--CODEGEN--\":5:7   */\n      iszero\n      tag_24\n      jumpi\n        /* \"--CODEGEN--\":30:31   */\n      0x0\n        /* \"--CODEGEN--\":27:28   */\n      dup1\n        /* \"--CODEGEN--\":20:32   */\n      revert\n        /* \"--CODEGEN--\":5:7   */\n    tag_24:\n      pop\n        /* \"contracts/InternalContract.sol\":3474:3745  function fulfill(bytes32 _requestId, uint256 _currentval)... */\n      tag_22\n      calldataload(0x4)\n      calldataload(0x24)\n      jump(tag_26)\n        /* \"contracts/InternalContract.sol\":432:459  uint256 public currentValue */\n    tag_5:\n      callvalue\n        /* \"--CODEGEN--\":8:17   */\n      dup1\n        /* \"--CODEGEN--\":5:7   */\n      iszero\n      tag_27\n      jumpi\n        /* \"--CODEGEN--\":30:31   */\n      0x0\n        /* \"--CODEGEN--\":27:28   */\n      dup1\n        /* \"--CODEGEN--\":20:32   */\n      revert\n        /* \"--CODEGEN--\":5:7   */\n    tag_27:\n        /* \"contracts/InternalContract.sol\":432:459  uint256 public currentValue */\n      pop\n      tag_19\n      jump(tag_29)\n        /* \"@goplugin/contracts/src/v0.4/vendor/Ownable.sol\":1001:1112  function renounceOwnership() public onlyOwner {... */\n    tag_6:\n      callvalue\n        /* \"--CODEGEN--\":8:17   */\n      dup1\n        /* \"--CODEGEN--\":5:7   */\n      iszero\n      tag_30\n      jumpi\n        /* \"--CODEGEN--\":30:31   */\n      0x0\n        /* \"--CODEGEN--\":27:28   */\n      dup1\n        /* \"--CODEGEN--\":20:32   */\n      revert\n        /* \"--CODEGEN--\":5:7   */\n    tag_30:\n        /* \"@goplugin/contracts/src/v0.4/vendor/Ownable.sol\":1001:1112  function renounceOwnership() public onlyOwner {... */\n      pop\n      tag_22\n      jump(tag_32)\n        /* \"contracts/InternalContract.sol\":294:315  address public oracle */\n    tag_7:\n      callvalue\n        /* \"--CODEGEN--\":8:17   */\n      dup1\n        /* \"--CODEGEN--\":5:7   */\n      iszero\n      tag_33\n      jumpi\n        /* \"--CODEGEN--\":30:31   */\n      0x0\n        /* \"--CODEGEN--\":27:28   */\n      dup1\n        /* \"--CODEGEN--\":20:32   */\n      revert\n        /* \"--CODEGEN--\":5:7   */\n    tag_33:\n        /* \"contracts/InternalContract.sol\":294:315  address public oracle */\n      pop\n      tag_34\n      jump(tag_35)\n    tag_34:\n      0x40\n      dup1\n      mload\n      sub(exp(0x2, 0xa0), 0x1)\n      swap1\n      swap3\n      and\n      dup3\n      mstore\n      mload\n      swap1\n      dup2\n      swap1\n      sub\n      0x20\n      add\n      swap1\n      return\n        /* \"contracts/InternalContract.sol\":463:493  uint256 public latestTimestamp */\n    tag_8:\n      callvalue\n        /* \"--CODEGEN--\":8:17   */\n      dup1\n        /* \"--CODEGEN--\":5:7   */\n      iszero\n      tag_36\n      jumpi\n        /* \"--CODEGEN--\":30:31   */\n      0x0\n        /* \"--CODEGEN--\":27:28   */\n      dup1\n        /* \"--CODEGEN--\":20:32   */\n      revert\n        /* \"--CODEGEN--\":5:7   */\n    tag_36:\n        /* \"contracts/InternalContract.sol\":463:493  uint256 public latestTimestamp */\n      pop\n      tag_19\n      jump(tag_38)\n        /* \"@goplugin/contracts/src/v0.4/vendor/Ownable.sol\":238:258  address public owner */\n    tag_9:\n      callvalue\n        /* \"--CODEGEN--\":8:17   */\n      dup1\n        /* \"--CODEGEN--\":5:7   */\n      iszero\n      tag_39\n      jumpi\n        /* \"--CODEGEN--\":30:31   */\n      0x0\n        /* \"--CODEGEN--\":27:28   */\n      dup1\n        /* \"--CODEGEN--\":20:32   */\n      revert\n        /* \"--CODEGEN--\":5:7   */\n    tag_39:\n        /* \"@goplugin/contracts/src/v0.4/vendor/Ownable.sol\":238:258  address public owner */\n      pop\n      tag_34\n      jump(tag_41)\n        /* \"contracts/InternalContract.sol\":1803:1882  function showPrice() public view returns(uint256){... */\n    tag_10:\n      callvalue\n        /* \"--CODEGEN--\":8:17   */\n      dup1\n        /* \"--CODEGEN--\":5:7   */\n      iszero\n      tag_42\n      jumpi\n        /* \"--CODEGEN--\":30:31   */\n      0x0\n        /* \"--CODEGEN--\":27:28   */\n      dup1\n        /* \"--CODEGEN--\":20:32   */\n      revert\n        /* \"--CODEGEN--\":5:7   */\n    tag_42:\n        /* \"contracts/InternalContract.sol\":1803:1882  function showPrice() public view returns(uint256){... */\n      pop\n      tag_19\n      jump(tag_44)\n        /* \"contracts/InternalContract.sol\":2162:2946  function requestData(address _caller)... */\n    tag_11:\n      callvalue\n        /* \"--CODEGEN--\":8:17   */\n      dup1\n        /* \"--CODEGEN--\":5:7   */\n      iszero\n      tag_45\n      jumpi\n        /* \"--CODEGEN--\":30:31   */\n      0x0\n        /* \"--CODEGEN--\":27:28   */\n      dup1\n        /* \"--CODEGEN--\":20:32   */\n      revert\n        /* \"--CODEGEN--\":5:7   */\n    tag_45:\n      pop\n        /* \"contracts/InternalContract.sol\":2162:2946  function requestData(address _caller)... */\n      tag_19\n      and(calldataload(0x4), sub(exp(0x2, 0xa0), 0x1))\n      jump(tag_47)\n        /* \"contracts/InternalContract.sol\":615:660  mapping(address => PLIDatabase) public plidbs */\n    tag_12:\n      callvalue\n        /* \"--CODEGEN--\":8:17   */\n      dup1\n        /* \"--CODEGEN--\":5:7   */\n      iszero\n      tag_48\n      jumpi\n        /* \"--CODEGEN--\":30:31   */\n      0x0\n        /* \"--CODEGEN--\":27:28   */\n      dup1\n        /* \"--CODEGEN--\":20:32   */\n      revert\n        /* \"--CODEGEN--\":5:7   */\n    tag_48:\n      pop\n        /* \"contracts/InternalContract.sol\":615:660  mapping(address => PLIDatabase) public plidbs */\n      tag_49\n      and(calldataload(0x4), sub(exp(0x2, 0xa0), 0x1))\n      jump(tag_50)\n    tag_49:\n      0x40\n      dup1\n      mload\n      sub(exp(0x2, 0xa0), 0x1)\n      swap1\n      swap4\n      and\n      dup4\n      mstore\n      0x20\n      dup4\n      add\n      swap2\n      swap1\n      swap2\n      mstore\n      dup1\n      mload\n      swap2\n      dup3\n      swap1\n      sub\n      add\n      swap1\n      return\n        /* \"contracts/InternalContract.sol\":3749:3843  function getPluginToken() public view returns (address) {... */\n    tag_13:\n      callvalue\n        /* \"--CODEGEN--\":8:17   */\n      dup1\n        /* \"--CODEGEN--\":5:7   */\n      iszero\n      tag_51\n      jumpi\n        /* \"--CODEGEN--\":30:31   */\n      0x0\n        /* \"--CODEGEN--\":27:28   */\n      dup1\n        /* \"--CODEGEN--\":20:32   */\n      revert\n        /* \"--CODEGEN--\":5:7   */\n    tag_51:\n        /* \"contracts/InternalContract.sol\":3749:3843  function getPluginToken() public view returns (address) {... */\n      pop\n      tag_34\n      jump(tag_53)\n        /* \"contracts/InternalContract.sol\":368:388  string  public jobId */\n    tag_14:\n      callvalue\n        /* \"--CODEGEN--\":8:17   */\n      dup1\n        /* \"--CODEGEN--\":5:7   */\n      iszero\n      tag_54\n      jumpi\n        /* \"--CODEGEN--\":30:31   */\n      0x0\n        /* \"--CODEGEN--\":27:28   */\n      dup1\n        /* \"--CODEGEN--\":20:32   */\n      revert\n        /* \"--CODEGEN--\":5:7   */\n    tag_54:\n        /* \"contracts/InternalContract.sol\":368:388  string  public jobId */\n      pop\n      tag_55\n      jump(tag_56)\n    tag_55:\n      0x40\n      dup1\n      mload\n      0x20\n      dup1\n      dup3\n      mstore\n      dup4\n      mload\n      dup2\n      dup4\n      add\n      mstore\n      dup4\n      mload\n      swap2\n      swap3\n      dup4\n      swap3\n      swap1\n      dup4\n      add\n      swap2\n      dup6\n      add\n      swap1\n      dup1\n      dup4\n      dup4\n      0x0\n        /* \"--CODEGEN--\":8:108   */\n    tag_57:\n        /* \"--CODEGEN--\":33:36   */\n      dup4\n        /* \"--CODEGEN--\":30:31   */\n      dup2\n        /* \"--CODEGEN--\":27:37   */\n      lt\n        /* \"--CODEGEN--\":8:108   */\n      iszero\n      tag_58\n      jumpi\n        /* \"--CODEGEN--\":90:101   */\n      dup2\n      dup2\n      add\n        /* \"--CODEGEN--\":84:102   */\n      mload\n        /* \"--CODEGEN--\":71:82   */\n      dup4\n      dup3\n      add\n        /* \"--CODEGEN--\":64:103   */\n      mstore\n        /* \"--CODEGEN--\":52:54   */\n      0x20\n        /* \"--CODEGEN--\":45:55   */\n      add\n        /* \"--CODEGEN--\":8:108   */\n      jump(tag_57)\n    tag_58:\n        /* \"--CODEGEN--\":12:26   */\n      pop\n        /* \"contracts/InternalContract.sol\":368:388  string  public jobId */\n      pop\n      pop\n      pop\n      swap1\n      pop\n      swap1\n      dup2\n      add\n      swap1\n      0x1f\n      and\n      dup1\n      iszero\n      tag_60\n      jumpi\n      dup1\n      dup3\n      sub\n      dup1\n      mload\n      0x1\n      dup4\n      0x20\n      sub\n      0x100\n      exp\n      sub\n      not\n      and\n      dup2\n      mstore\n      0x20\n      add\n      swap2\n      pop\n    tag_60:\n      pop\n      swap3\n      pop\n      pop\n      pop\n      mload(0x40)\n      dup1\n      swap2\n      sub\n      swap1\n      return\n        /* \"contracts/InternalContract.sol\":1244:1799  function depositPLI(uint256 _value) public returns(bool) {... */\n    tag_15:\n      callvalue\n        /* \"--CODEGEN--\":8:17   */\n      dup1\n        /* \"--CODEGEN--\":5:7   */\n      iszero\n      tag_61\n      jumpi\n        /* \"--CODEGEN--\":30:31   */\n      0x0\n        /* \"--CODEGEN--\":27:28   */\n      dup1\n        /* \"--CODEGEN--\":20:32   */\n      revert\n        /* \"--CODEGEN--\":5:7   */\n    tag_61:\n      pop\n        /* \"contracts/InternalContract.sol\":1244:1799  function depositPLI(uint256 _value) public returns(bool) {... */\n      tag_62\n      calldataload(0x4)\n      jump(tag_63)\n    tag_62:\n      0x40\n      dup1\n      mload\n      swap2\n      iszero\n      iszero\n      dup3\n      mstore\n      mload\n      swap1\n      dup2\n      swap1\n      sub\n      0x20\n      add\n      swap1\n      return\n        /* \"contracts/InternalContract.sol\":4135:4378  function cancelRequest(... */\n    tag_16:\n      callvalue\n        /* \"--CODEGEN--\":8:17   */\n      dup1\n        /* \"--CODEGEN--\":5:7   */\n      iszero\n      tag_64\n      jumpi\n        /* \"--CODEGEN--\":30:31   */\n      0x0\n        /* \"--CODEGEN--\":27:28   */\n      dup1\n        /* \"--CODEGEN--\":20:32   */\n      revert\n        /* \"--CODEGEN--\":5:7   */\n    tag_64:\n      pop\n        /* \"contracts/InternalContract.sol\":4135:4378  function cancelRequest(... */\n      tag_22\n      calldataload(0x4)\n      calldataload(0x24)\n      and(calldataload(0x44), not(sub(exp(0x2, 0xe0), 0x1)))\n      calldataload(0x64)\n      jump(tag_66)\n        /* \"@goplugin/contracts/src/v0.4/vendor/Ownable.sol\":1274:1377  function transferOwnership(address _newOwner) public onlyOwner {... */\n    tag_17:\n      callvalue\n        /* \"--CODEGEN--\":8:17   */\n      dup1\n        /* \"--CODEGEN--\":5:7   */\n      iszero\n      tag_67\n      jumpi\n        /* \"--CODEGEN--\":30:31   */\n      0x0\n        /* \"--CODEGEN--\":27:28   */\n      dup1\n        /* \"--CODEGEN--\":20:32   */\n      revert\n        /* \"--CODEGEN--\":5:7   */\n    tag_67:\n      pop\n        /* \"@goplugin/contracts/src/v0.4/vendor/Ownable.sol\":1274:1377  function transferOwnership(address _newOwner) public onlyOwner {... */\n      tag_22\n      and(calldataload(0x4), sub(exp(0x2, 0xa0), 0x1))\n      jump(tag_69)\n        /* \"contracts/InternalContract.sol\":2949:3447  function testMyFunc()... */\n    tag_20:\n        /* \"contracts/InternalContract.sol\":3009:3026  bytes32 requestId */\n      0x0\n        /* \"contracts/InternalContract.sol\":3095:3120  Plugin.Request memory req */\n      tag_70\n      jump\t// in(tag_71)\n    tag_70:\n        /* \"@goplugin/contracts/src/v0.4/vendor/Ownable.sol\":719:724  owner */\n      and(sub(exp(0x2, 0xa0), 0x1), sload(0x6))\n        /* \"@goplugin/contracts/src/v0.4/vendor/Ownable.sol\":705:715  msg.sender */\n      caller\n        /* \"@goplugin/contracts/src/v0.4/vendor/Ownable.sol\":705:724  msg.sender == owner */\n      eq\n        /* \"@goplugin/contracts/src/v0.4/vendor/Ownable.sol\":697:725  require(msg.sender == owner) */\n      tag_73\n      jumpi\n      0x0\n      dup1\n      revert\n    tag_73:\n        /* \"contracts/InternalContract.sol\":3158:3163  jobId */\n      0x8\n        /* \"contracts/InternalContract.sol\":3142:3164  stringToBytes32(jobId) */\n      dup1\n      sload\n      0x40\n      dup1\n      mload\n      0x20\n      0x2\n      0x1\n      dup6\n      and\n      iszero\n      0x100\n      mul\n      not(0x0)\n      add\n      swap1\n      swap5\n      and\n      swap4\n      swap1\n      swap4\n      div\n      0x1f\n      dup2\n      add\n      dup5\n      swap1\n      div\n      dup5\n      mul\n      dup3\n      add\n      dup5\n      add\n      swap1\n      swap3\n      mstore\n      dup2\n      dup2\n      mstore\n        /* \"contracts/InternalContract.sol\":3123:3194  buildPluginRequest(stringToBytes32(jobId), this, this.fulfill.selector) */\n      tag_75\n      swap4\n        /* \"contracts/InternalContract.sol\":3142:3164  stringToBytes32(jobId) */\n      tag_76\n      swap4\n      swap2\n      swap3\n        /* \"contracts/InternalContract.sol\":3158:3163  jobId */\n      swap1\n      swap2\n        /* \"contracts/InternalContract.sol\":3142:3164  stringToBytes32(jobId) */\n      dup4\n      add\n        /* \"contracts/InternalContract.sol\":3158:3163  jobId */\n      dup3\n        /* \"contracts/InternalContract.sol\":3142:3164  stringToBytes32(jobId) */\n      dup3\n      dup1\n      iszero\n      tag_77\n      jumpi\n      dup1\n      0x1f\n      lt\n      tag_78\n      jumpi\n      0x100\n      dup1\n      dup4\n      sload\n      div\n      mul\n      dup4\n      mstore\n      swap2\n      0x20\n      add\n      swap2\n      jump(tag_77)\n    tag_78:\n      dup3\n      add\n      swap2\n      swap1\n      0x0\n      mstore\n      keccak256(0x0, 0x20)\n      swap1\n    tag_79:\n      dup2\n      sload\n      dup2\n      mstore\n      swap1\n      0x1\n      add\n      swap1\n      0x20\n      add\n      dup1\n      dup4\n      gt\n      tag_79\n      jumpi\n      dup3\n      swap1\n      sub\n      0x1f\n      and\n      dup3\n      add\n      swap2\n    tag_77:\n      pop\n      pop\n      pop\n      pop\n      pop\n        /* \"contracts/InternalContract.sol\":3142:3157  stringToBytes32 */\n      tag_80\n        /* \"contracts/InternalContract.sol\":3142:3164  stringToBytes32(jobId) */\n      jump\t// in\n    tag_76:\n        /* \"contracts/InternalContract.sol\":3166:3170  this */\n      address\n        /* \"contracts/InternalContract.sol\":3172:3193  this.fulfill.selector */\n      0x4357855e00000000000000000000000000000000000000000000000000000000\n        /* \"contracts/InternalContract.sol\":3123:3141  buildPluginRequest */\n      tag_81\n        /* \"contracts/InternalContract.sol\":3123:3194  buildPluginRequest(stringToBytes32(jobId), this, this.fulfill.selector) */\n      jump\t// in\n    tag_75:\n        /* \"contracts/InternalContract.sol\":3200:3223  req.add(\"_fsyms\",\"XDC\") */\n      0x40\n      dup1\n      mload\n      dup1\n      dup3\n      add\n      dup3\n      mstore\n      0x6\n      dup2\n      mstore\n      0x5f6673796d730000000000000000000000000000000000000000000000000000\n      0x20\n      dup1\n      dup4\n      add\n      swap2\n      swap1\n      swap2\n      mstore\n      dup3\n      mload\n      dup1\n      dup5\n      add\n      swap1\n      swap4\n      mstore\n      0x3\n      dup4\n      mstore\n      0x5844430000000000000000000000000000000000000000000000000000000000\n      swap1\n      dup4\n      add\n      mstore\n        /* \"contracts/InternalContract.sol\":3095:3194  Plugin.Request memory req = buildPluginRequest(stringToBytes32(jobId), this, this.fulfill.selector) */\n      swap2\n      swap3\n      pop\n        /* \"contracts/InternalContract.sol\":3200:3223  req.add(\"_fsyms\",\"XDC\") */\n      tag_82\n      swap2\n        /* \"contracts/InternalContract.sol\":3095:3194  Plugin.Request memory req = buildPluginRequest(stringToBytes32(jobId), this, this.fulfill.selector) */\n      dup4\n      swap2\n        /* \"contracts/InternalContract.sol\":3200:3223  req.add(\"_fsyms\",\"XDC\") */\n      0xffffffff\n        /* \"contracts/InternalContract.sol\":3200:3207  req.add */\n      tag_83\n        /* \"contracts/InternalContract.sol\":3200:3223  req.add(\"_fsyms\",\"XDC\") */\n      and\n      jump\t// in\n    tag_82:\n        /* \"contracts/InternalContract.sol\":3229:3253  req.add(\"_tsyms\",\"USDT\") */\n      0x40\n      dup1\n      mload\n      dup1\n      dup3\n      add\n      dup3\n      mstore\n      0x6\n      dup2\n      mstore\n      0x5f7473796d730000000000000000000000000000000000000000000000000000\n      0x20\n      dup1\n      dup4\n      add\n      swap2\n      swap1\n      swap2\n      mstore\n      dup3\n      mload\n      dup1\n      dup5\n      add\n      swap1\n      swap4\n      mstore\n      0x4\n      dup4\n      mstore\n      0x5553445400000000000000000000000000000000000000000000000000000000\n      swap1\n      dup4\n      add\n      mstore\n      tag_84\n      swap2\n        /* \"contracts/InternalContract.sol\":3229:3232  req */\n      dup4\n      swap2\n        /* \"contracts/InternalContract.sol\":3229:3253  req.add(\"_tsyms\",\"USDT\") */\n      swap1\n      0xffffffff\n        /* \"contracts/InternalContract.sol\":3229:3236  req.add */\n      tag_83\n        /* \"contracts/InternalContract.sol\":3229:3253  req.add(\"_tsyms\",\"USDT\") */\n      and\n      jump\t// in\n    tag_84:\n        /* \"contracts/InternalContract.sol\":3259:3285  req.addInt(\"times\", 10000) */\n      0x40\n      dup1\n      mload\n      dup1\n      dup3\n      add\n      swap1\n      swap2\n      mstore\n      0x5\n      dup2\n      mstore\n      0x74696d6573000000000000000000000000000000000000000000000000000000\n      0x20\n      dup3\n      add\n      mstore\n      tag_85\n      swap1\n        /* \"contracts/InternalContract.sol\":3259:3262  req */\n      dup3\n      swap1\n        /* \"contracts/InternalContract.sol\":3279:3284  10000 */\n      0x2710\n        /* \"contracts/InternalContract.sol\":3259:3285  req.addInt(\"times\", 10000) */\n      0xffffffff\n        /* \"contracts/InternalContract.sol\":3259:3269  req.addInt */\n      tag_86\n        /* \"contracts/InternalContract.sol\":3259:3285  req.addInt(\"times\", 10000) */\n      and\n      jump\t// in\n    tag_85:\n        /* \"contracts/InternalContract.sol\":3309:3312  now */\n      timestamp\n        /* \"contracts/InternalContract.sol\":3291:3306  latestTimestamp */\n      0xa\n        /* \"contracts/InternalContract.sol\":3291:3312  latestTimestamp = now */\n      sstore\n        /* \"contracts/InternalContract.sol\":3350:3356  oracle */\n      sload(0x7)\n        /* \"contracts/InternalContract.sol\":3330:3378  sendPluginRequestTo(oracle, req, ORACLE_PAYMENT) */\n      tag_87\n      swap1\n      sub(exp(0x2, 0xa0), 0x1)\n        /* \"contracts/InternalContract.sol\":3350:3356  oracle */\n      and\n        /* \"contracts/InternalContract.sol\":3358:3361  req */\n      dup3\n        /* \"contracts/InternalContract.sol\":277:290  0.01 * 10**18 */\n      0x2386f26fc10000\n        /* \"contracts/InternalContract.sol\":3330:3349  sendPluginRequestTo */\n      tag_88\n        /* \"contracts/InternalContract.sol\":3330:3378  sendPluginRequestTo(oracle, req, ORACLE_PAYMENT) */\n      jump\t// in\n    tag_87:\n        /* \"contracts/InternalContract.sol\":3424:3429  jobId */\n      0x8\n        /* \"contracts/InternalContract.sol\":3408:3430  stringToBytes32(jobId) */\n      dup1\n      sload\n      0x40\n      dup1\n      mload\n      0x20\n      0x1f\n      0x2\n      0x100\n      0x1\n      dup8\n      and\n      iszero\n      mul\n      not(0x0)\n      add\n      swap1\n      swap6\n      and\n      swap5\n      swap1\n      swap5\n      div\n      swap4\n      dup5\n      add\n      dup2\n      swap1\n      div\n      dup2\n      mul\n      dup3\n      add\n      dup2\n      add\n      swap1\n      swap3\n      mstore\n      dup3\n      dup2\n      mstore\n        /* \"contracts/InternalContract.sol\":3318:3378  requestId = sendPluginRequestTo(oracle, req, ORACLE_PAYMENT) */\n      swap4\n      swap6\n      pop\n      dup6\n      swap4\n        /* \"contracts/InternalContract.sol\":3408:3430  stringToBytes32(jobId) */\n      tag_89\n      swap4\n      swap1\n      swap3\n        /* \"contracts/InternalContract.sol\":3424:3429  jobId */\n      swap1\n      swap2\n        /* \"contracts/InternalContract.sol\":3408:3430  stringToBytes32(jobId) */\n      dup4\n      add\n        /* \"contracts/InternalContract.sol\":3424:3429  jobId */\n      dup3\n        /* \"contracts/InternalContract.sol\":3408:3430  stringToBytes32(jobId) */\n      dup3\n      dup1\n      iszero\n      tag_77\n      jumpi\n      dup1\n      0x1f\n      lt\n      tag_78\n      jumpi\n      0x100\n      dup1\n      dup4\n      sload\n      div\n      mul\n      dup4\n      mstore\n      swap2\n      0x20\n      add\n      swap2\n      jump(tag_77)\n    tag_89:\n        /* \"contracts/InternalContract.sol\":3389:3442  requestCreatedTest(stringToBytes32(jobId), requestId) */\n      mload(0x40)\n      0xeafd6b8e34637ca199864ee18f22fc46cbc730739912f5b54501a2a9e57e8070\n      swap1\n      0x0\n      swap1\n      log3\n        /* \"contracts/InternalContract.sol\":2949:3447  function testMyFunc()... */\n      pop\n      swap1\n      jump\t// out\n        /* \"contracts/InternalContract.sol\":3894:4099  function withdrawPli() public onlyOwner {... */\n    tag_23:\n        /* \"@goplugin/contracts/src/v0.4/vendor/Ownable.sol\":719:724  owner */\n      sload(0x6)\n        /* \"contracts/InternalContract.sol\":3940:3961  PliTokenInterface pli */\n      0x0\n      swap1\n      sub(exp(0x2, 0xa0), 0x1)\n        /* \"@goplugin/contracts/src/v0.4/vendor/Ownable.sol\":719:724  owner */\n      and\n        /* \"@goplugin/contracts/src/v0.4/vendor/Ownable.sol\":705:715  msg.sender */\n      caller\n        /* \"@goplugin/contracts/src/v0.4/vendor/Ownable.sol\":705:724  msg.sender == owner */\n      eq\n        /* \"@goplugin/contracts/src/v0.4/vendor/Ownable.sol\":697:725  require(msg.sender == owner) */\n      tag_94\n      jumpi\n      0x0\n      dup1\n      revert\n    tag_94:\n        /* \"contracts/InternalContract.sol\":3982:4002  pluginTokenAddress() */\n      tag_96\n        /* \"contracts/InternalContract.sol\":3982:4000  pluginTokenAddress */\n      tag_97\n        /* \"contracts/InternalContract.sol\":3982:4002  pluginTokenAddress() */\n      jump\t// in\n    tag_96:\n        /* \"contracts/InternalContract.sol\":4042:4070  pli.balanceOf(address(this)) */\n      0x40\n      dup1\n      mload\n      0x70a0823100000000000000000000000000000000000000000000000000000000\n      dup2\n      mstore\n        /* \"contracts/InternalContract.sol\":4064:4068  this */\n      address\n        /* \"contracts/InternalContract.sol\":4042:4070  pli.balanceOf(address(this)) */\n      0x4\n      dup3\n      add\n      mstore\n      swap1\n      mload\n        /* \"contracts/InternalContract.sol\":3940:4003  PliTokenInterface pli = PliTokenInterface(pluginTokenAddress()) */\n      swap2\n      swap3\n      pop\n      sub(exp(0x2, 0xa0), 0x1)\n        /* \"contracts/InternalContract.sol\":4017:4029  pli.transfer */\n      dup4\n      and\n      swap2\n      0xa9059cbb\n      swap2\n        /* \"contracts/InternalContract.sol\":4030:4040  msg.sender */\n      caller\n      swap2\n        /* \"contracts/InternalContract.sol\":4017:4029  pli.transfer */\n      dup5\n      swap2\n        /* \"contracts/InternalContract.sol\":4042:4055  pli.balanceOf */\n      0x70a08231\n      swap2\n        /* \"contracts/InternalContract.sol\":4042:4070  pli.balanceOf(address(this)) */\n      0x24\n      dup1\n      dup4\n      add\n      swap3\n      0x20\n      swap3\n      swap2\n      swap1\n      dup3\n      swap1\n      sub\n      add\n      dup2\n      0x0\n        /* \"contracts/InternalContract.sol\":4017:4029  pli.transfer */\n      dup8\n        /* \"contracts/InternalContract.sol\":4042:4070  pli.balanceOf(address(this)) */\n      dup1\n      extcodesize\n      iszero\n        /* \"--CODEGEN--\":5:7   */\n      dup1\n      iszero\n      tag_98\n      jumpi\n        /* \"--CODEGEN--\":30:31   */\n      0x0\n        /* \"--CODEGEN--\":27:28   */\n      dup1\n        /* \"--CODEGEN--\":20:32   */\n      revert\n        /* \"--CODEGEN--\":5:7   */\n    tag_98:\n        /* \"contracts/InternalContract.sol\":4042:4070  pli.balanceOf(address(this)) */\n      pop\n      gas\n      call\n      iszero\n        /* \"--CODEGEN--\":8:17   */\n      dup1\n        /* \"--CODEGEN--\":5:7   */\n      iszero\n      tag_99\n      jumpi\n        /* \"--CODEGEN--\":45:61   */\n      returndatasize\n        /* \"--CODEGEN--\":42:43   */\n      0x0\n        /* \"--CODEGEN--\":39:40   */\n      dup1\n        /* \"--CODEGEN--\":24:62   */\n      returndatacopy\n        /* \"--CODEGEN--\":77:93   */\n      returndatasize\n        /* \"--CODEGEN--\":74:75   */\n      0x0\n        /* \"--CODEGEN--\":67:94   */\n      revert\n        /* \"--CODEGEN--\":5:7   */\n    tag_99:\n        /* \"contracts/InternalContract.sol\":4042:4070  pli.balanceOf(address(this)) */\n      pop\n      pop\n      pop\n      pop\n      mload(0x40)\n      returndatasize\n        /* \"--CODEGEN--\":13:15   */\n      0x20\n        /* \"--CODEGEN--\":8:11   */\n      dup2\n        /* \"--CODEGEN--\":5:16   */\n      lt\n        /* \"--CODEGEN--\":2:4   */\n      iszero\n      tag_100\n      jumpi\n        /* \"--CODEGEN--\":29:30   */\n      0x0\n        /* \"--CODEGEN--\":26:27   */\n      dup1\n        /* \"--CODEGEN--\":19:31   */\n      revert\n        /* \"--CODEGEN--\":2:4   */\n    tag_100:\n      pop\n        /* \"contracts/InternalContract.sol\":4042:4070  pli.balanceOf(address(this)) */\n      mload\n        /* \"contracts/InternalContract.sol\":4017:4071  pli.transfer(msg.sender, pli.balanceOf(address(this))) */\n      0x40\n      dup1\n      mload\n      exp(0x2, 0xe0)\n      0xffffffff\n      dup7\n      and\n      mul\n      dup2\n      mstore\n      sub(exp(0x2, 0xa0), 0x1)\n      swap1\n      swap4\n      and\n      0x4\n      dup5\n      add\n      mstore\n      0x24\n      dup4\n      add\n      swap2\n      swap1\n      swap2\n      mstore\n      mload\n      0x44\n      dup1\n      dup4\n      add\n      swap3\n        /* \"contracts/InternalContract.sol\":4042:4070  pli.balanceOf(address(this)) */\n      0x20\n      swap3\n        /* \"contracts/InternalContract.sol\":4017:4071  pli.transfer(msg.sender, pli.balanceOf(address(this))) */\n      swap2\n      swap1\n      dup3\n      swap1\n      sub\n      add\n      dup2\n      0x0\n      dup8\n      dup1\n      extcodesize\n      iszero\n        /* \"--CODEGEN--\":5:7   */\n      dup1\n      iszero\n      tag_101\n      jumpi\n        /* \"--CODEGEN--\":30:31   */\n      0x0\n        /* \"--CODEGEN--\":27:28   */\n      dup1\n        /* \"--CODEGEN--\":20:32   */\n      revert\n        /* \"--CODEGEN--\":5:7   */\n    tag_101:\n        /* \"contracts/InternalContract.sol\":4017:4071  pli.transfer(msg.sender, pli.balanceOf(address(this))) */\n      pop\n      gas\n      call\n      iszero\n        /* \"--CODEGEN--\":8:17   */\n      dup1\n        /* \"--CODEGEN--\":5:7   */\n      iszero\n      tag_102\n      jumpi\n        /* \"--CODEGEN--\":45:61   */\n      returndatasize\n        /* \"--CODEGEN--\":42:43   */\n      0x0\n        /* \"--CODEGEN--\":39:40   */\n      dup1\n        /* \"--CODEGEN--\":24:62   */\n      returndatacopy\n        /* \"--CODEGEN--\":77:93   */\n      returndatasize\n        /* \"--CODEGEN--\":74:75   */\n      0x0\n        /* \"--CODEGEN--\":67:94   */\n      revert\n        /* \"--CODEGEN--\":5:7   */\n    tag_102:\n        /* \"contracts/InternalContract.sol\":4017:4071  pli.transfer(msg.sender, pli.balanceOf(address(this))) */\n      pop\n      pop\n      pop\n      pop\n      mload(0x40)\n      returndatasize\n        /* \"--CODEGEN--\":13:15   */\n      0x20\n        /* \"--CODEGEN--\":8:11   */\n      dup2\n        /* \"--CODEGEN--\":5:16   */\n      lt\n        /* \"--CODEGEN--\":2:4   */\n      iszero\n      tag_103\n      jumpi\n        /* \"--CODEGEN--\":29:30   */\n      0x0\n        /* \"--CODEGEN--\":26:27   */\n      dup1\n        /* \"--CODEGEN--\":19:31   */\n      revert\n        /* \"--CODEGEN--\":2:4   */\n    tag_103:\n      pop\n        /* \"contracts/InternalContract.sol\":4017:4071  pli.transfer(msg.sender, pli.balanceOf(address(this))) */\n      mload\n        /* \"contracts/InternalContract.sol\":4009:4094  require(pli.transfer(msg.sender, pli.balanceOf(address(this))), \"Unable to transfer\") */\n      iszero\n      iszero\n      tag_104\n      jumpi\n      0x40\n      dup1\n      mload\n      mul(0x461bcd, exp(0x2, 0xe5))\n      dup2\n      mstore\n      0x20\n      0x4\n      dup3\n      add\n      mstore\n      0x12\n      0x24\n      dup3\n      add\n      mstore\n      0x556e61626c6520746f207472616e736665720000000000000000000000000000\n      0x44\n      dup3\n      add\n      mstore\n      swap1\n      mload\n      swap1\n      dup2\n      swap1\n      sub\n      0x64\n      add\n      swap1\n      revert\n    tag_104:\n        /* \"contracts/InternalContract.sol\":3894:4099  function withdrawPli() public onlyOwner {... */\n      pop\n      jump\t// out\n        /* \"contracts/InternalContract.sol\":3474:3745  function fulfill(bytes32 _requestId, uint256 _currentval)... */\n    tag_26:\n        /* \"@goplugin/contracts/src/v0.4/PluginClient.sol\":8456:8483  pendingRequests[_requestId] */\n      0x0\n      dup3\n      dup2\n      mstore\n        /* \"@goplugin/contracts/src/v0.4/PluginClient.sol\":8456:8471  pendingRequests */\n      0x5\n        /* \"@goplugin/contracts/src/v0.4/PluginClient.sol\":8456:8483  pendingRequests[_requestId] */\n      0x20\n      mstore\n      0x40\n      swap1\n      keccak256\n      sload\n      dup3\n      swap1\n      sub(exp(0x2, 0xa0), 0x1)\n      and\n        /* \"@goplugin/contracts/src/v0.4/PluginClient.sol\":8442:8452  msg.sender */\n      caller\n        /* \"@goplugin/contracts/src/v0.4/PluginClient.sol\":8442:8483  msg.sender == pendingRequests[_requestId] */\n      eq\n        /* \"@goplugin/contracts/src/v0.4/PluginClient.sol\":8434:8528  require(msg.sender == pendingRequests[_requestId], \"Source must be the oracle of the request\") */\n      tag_106\n      jumpi\n      0x40\n      dup1\n      mload\n      mul(0x461bcd, exp(0x2, 0xe5))\n      dup2\n      mstore\n      0x20\n      0x4\n      dup3\n      add\n      mstore\n      0x28\n      0x24\n      dup3\n      add\n      mstore\n      0x536f75726365206d75737420626520746865206f7261636c65206f6620746865\n      0x44\n      dup3\n      add\n      mstore\n      0x2072657175657374000000000000000000000000000000000000000000000000\n      0x64\n      dup3\n      add\n      mstore\n      swap1\n      mload\n      swap1\n      dup2\n      swap1\n      sub\n      0x84\n      add\n      swap1\n      revert\n    tag_106:\n        /* \"@goplugin/contracts/src/v0.4/PluginClient.sol\":8541:8568  pendingRequests[_requestId] */\n      0x0\n      dup2\n      dup2\n      mstore\n        /* \"@goplugin/contracts/src/v0.4/PluginClient.sol\":8541:8556  pendingRequests */\n      0x5\n        /* \"@goplugin/contracts/src/v0.4/PluginClient.sol\":8541:8568  pendingRequests[_requestId] */\n      0x20\n      mstore\n      0x40\n      dup1\n      dup3\n      keccak256\n        /* \"@goplugin/contracts/src/v0.4/PluginClient.sol\":8534:8568  delete pendingRequests[_requestId] */\n      dup1\n      sload\n      not(0xffffffffffffffffffffffffffffffffffffffff)\n      and\n      swap1\n      sstore\n        /* \"@goplugin/contracts/src/v0.4/PluginClient.sol\":8579:8606  PluginFulfilled(_requestId) */\n      mload\n        /* \"@goplugin/contracts/src/v0.4/PluginClient.sol\":8557:8567  _requestId */\n      dup3\n      swap2\n        /* \"@goplugin/contracts/src/v0.4/PluginClient.sol\":8579:8606  PluginFulfilled(_requestId) */\n      0xa40ad10b942505047c532a7399bf5eac2768b11b7155b40ec80309aea567f998\n      swap2\n      log2\n        /* \"contracts/InternalContract.sol\":3667:3708  RequestFulfilled(_requestId, _currentval) */\n      mload(0x40)\n        /* \"contracts/InternalContract.sol\":3696:3707  _currentval */\n      dup3\n      swap1\n        /* \"contracts/InternalContract.sol\":3684:3694  _requestId */\n      dup5\n      swap1\n        /* \"contracts/InternalContract.sol\":3667:3708  RequestFulfilled(_requestId, _currentval) */\n      0x1ca8663227a7fe9919713a01d344afbb434e234f35a3e540a6ad924f88771f38\n      swap1\n      0x0\n      swap1\n      log3\n      pop\n        /* \"contracts/InternalContract.sol\":3714:3726  currentValue */\n      0x9\n        /* \"contracts/InternalContract.sol\":3714:3740  currentValue = _currentval */\n      sstore\n      pop\n        /* \"contracts/InternalContract.sol\":3474:3745  function fulfill(bytes32 _requestId, uint256 _currentval)... */\n      jump\t// out\n        /* \"contracts/InternalContract.sol\":432:459  uint256 public currentValue */\n    tag_29:\n      sload(0x9)\n      dup2\n      jump\t// out\n        /* \"@goplugin/contracts/src/v0.4/vendor/Ownable.sol\":1001:1112  function renounceOwnership() public onlyOwner {... */\n    tag_32:\n        /* \"@goplugin/contracts/src/v0.4/vendor/Ownable.sol\":719:724  owner */\n      and(sub(exp(0x2, 0xa0), 0x1), sload(0x6))\n        /* \"@goplugin/contracts/src/v0.4/vendor/Ownable.sol\":705:715  msg.sender */\n      caller\n        /* \"@goplugin/contracts/src/v0.4/vendor/Ownable.sol\":705:724  msg.sender == owner */\n      eq\n        /* \"@goplugin/contracts/src/v0.4/vendor/Ownable.sol\":697:725  require(msg.sender == owner) */\n      tag_109\n      jumpi\n      0x0\n      dup1\n      revert\n    tag_109:\n        /* \"@goplugin/contracts/src/v0.4/vendor/Ownable.sol\":1077:1082  owner */\n      sload(0x6)\n        /* \"@goplugin/contracts/src/v0.4/vendor/Ownable.sol\":1058:1083  OwnershipRenounced(owner) */\n      mload(0x40)\n      sub(exp(0x2, 0xa0), 0x1)\n        /* \"@goplugin/contracts/src/v0.4/vendor/Ownable.sol\":1077:1082  owner */\n      swap1\n      swap2\n      and\n      swap1\n        /* \"@goplugin/contracts/src/v0.4/vendor/Ownable.sol\":1058:1083  OwnershipRenounced(owner) */\n      0xf8df31144d9c2f0f6b59d69b8b98abd5459d07f2742c4df920b25aae33c64820\n      swap1\n        /* \"@goplugin/contracts/src/v0.4/vendor/Ownable.sol\":1077:1082  owner */\n      0x0\n      swap1\n        /* \"@goplugin/contracts/src/v0.4/vendor/Ownable.sol\":1058:1083  OwnershipRenounced(owner) */\n      log2\n        /* \"@goplugin/contracts/src/v0.4/vendor/Ownable.sol\":1089:1094  owner */\n      0x6\n        /* \"@goplugin/contracts/src/v0.4/vendor/Ownable.sol\":1089:1107  owner = address(0) */\n      dup1\n      sload\n      not(0xffffffffffffffffffffffffffffffffffffffff)\n      and\n      swap1\n      sstore\n        /* \"@goplugin/contracts/src/v0.4/vendor/Ownable.sol\":1001:1112  function renounceOwnership() public onlyOwner {... */\n      jump\t// out\n        /* \"contracts/InternalContract.sol\":294:315  address public oracle */\n    tag_35:\n      and(sub(exp(0x2, 0xa0), 0x1), sload(0x7))\n      dup2\n      jump\t// out\n        /* \"contracts/InternalContract.sol\":463:493  uint256 public latestTimestamp */\n    tag_38:\n      sload(0xa)\n      dup2\n      jump\t// out\n        /* \"@goplugin/contracts/src/v0.4/vendor/Ownable.sol\":238:258  address public owner */\n    tag_41:\n      and(sub(exp(0x2, 0xa0), 0x1), sload(0x6))\n      dup2\n      jump\t// out\n        /* \"contracts/InternalContract.sol\":1803:1882  function showPrice() public view returns(uint256){... */\n    tag_44:\n        /* \"contracts/InternalContract.sol\":1865:1877  currentValue */\n      sload(0x9)\n        /* \"contracts/InternalContract.sol\":1803:1882  function showPrice() public view returns(uint256){... */\n      swap1\n      jump\t// out\n        /* \"contracts/InternalContract.sol\":2162:2946  function requestData(address _caller)... */\n    tag_47:\n        /* \"contracts/InternalContract.sol\":2224:2241  bytes32 requestId */\n      0x0\n        /* \"contracts/InternalContract.sol\":2331:2354  uint256 _a_totalCredits */\n      dup1\n        /* \"contracts/InternalContract.sol\":2589:2614  Plugin.Request memory req */\n      tag_112\n      jump\t// in(tag_71)\n    tag_112:\n      sub(exp(0x2, 0xa0), 0x1)\n        /* \"contracts/InternalContract.sol\":2357:2372  plidbs[_caller] */\n      dup5\n      and\n      0x0\n      swap1\n      dup2\n      mstore\n        /* \"contracts/InternalContract.sol\":2357:2363  plidbs */\n      0xb\n        /* \"contracts/InternalContract.sol\":2357:2372  plidbs[_caller] */\n      0x20\n      mstore\n      0x40\n      swap1\n      keccak256\n        /* \"contracts/InternalContract.sol\":2357:2385  plidbs[_caller].totalcredits */\n      0x1\n      add\n      sload\n      swap2\n      pop\n        /* \"contracts/InternalContract.sol\":277:290  0.01 * 10**18 */\n      0x2386f26fc10000\n        /* \"contracts/InternalContract.sol\":2399:2429  _a_totalCredits>ORACLE_PAYMENT */\n      dup3\n      gt\n        /* \"contracts/InternalContract.sol\":2391:2454  require(_a_totalCredits>ORACLE_PAYMENT,\"NO_SUFFICIENT_CREDITS\") */\n      tag_114\n      jumpi\n      0x40\n      dup1\n      mload\n      mul(0x461bcd, exp(0x2, 0xe5))\n      dup2\n      mstore\n      0x20\n      0x4\n      dup3\n      add\n      mstore\n      0x15\n      0x24\n      dup3\n      add\n      mstore\n      0x4e4f5f53554646494349454e545f435245444954530000000000000000000000\n      0x44\n      dup3\n      add\n      mstore\n      swap1\n      mload\n      swap1\n      dup2\n      swap1\n      sub\n      0x64\n      add\n      swap1\n      revert\n    tag_114:\n      sub(exp(0x2, 0xa0), 0x1)\n        /* \"contracts/InternalContract.sol\":2460:2475  plidbs[_caller] */\n      dup5\n      and\n      0x0\n      swap1\n      dup2\n      mstore\n        /* \"contracts/InternalContract.sol\":2460:2466  plidbs */\n      0xb\n        /* \"contracts/InternalContract.sol\":2460:2475  plidbs[_caller] */\n      0x20\n      swap1\n      dup2\n      mstore\n      0x40\n      swap2\n      dup3\n      swap1\n      keccak256\n      not(0x2386f26fc0ffff)\n        /* \"contracts/InternalContract.sol\":2491:2523  _a_totalCredits - ORACLE_PAYMENT */\n      dup6\n      add\n        /* \"contracts/InternalContract.sol\":2460:2488  plidbs[_caller].totalcredits */\n      0x1\n      swap2\n      dup3\n      add\n        /* \"contracts/InternalContract.sol\":2460:2523  plidbs[_caller].totalcredits = _a_totalCredits - ORACLE_PAYMENT */\n      sstore\n        /* \"contracts/InternalContract.sol\":2652:2657  jobId */\n      0x8\n        /* \"contracts/InternalContract.sol\":2636:2658  stringToBytes32(jobId) */\n      dup1\n      sload\n      dup5\n      mload\n      0x2\n      swap4\n      dup3\n      and\n      iszero\n      0x100\n      mul\n      not(0x0)\n      add\n      swap1\n      swap2\n      and\n      swap3\n      swap1\n      swap3\n      div\n      0x1f\n      dup2\n      add\n      dup5\n      swap1\n      div\n      dup5\n      mul\n      dup4\n      add\n      dup5\n      add\n      swap1\n      swap5\n      mstore\n      dup4\n      dup3\n      mstore\n        /* \"contracts/InternalContract.sol\":2617:2688  buildPluginRequest(stringToBytes32(jobId), this, this.fulfill.selector) */\n      tag_115\n      swap4\n        /* \"contracts/InternalContract.sol\":2636:2658  stringToBytes32(jobId) */\n      tag_76\n      swap4\n      dup4\n      add\n        /* \"contracts/InternalContract.sol\":2652:2657  jobId */\n      dup3\n        /* \"contracts/InternalContract.sol\":2636:2658  stringToBytes32(jobId) */\n      dup3\n      dup1\n      iszero\n      tag_77\n      jumpi\n      dup1\n      0x1f\n      lt\n      tag_78\n      jumpi\n      0x100\n      dup1\n      dup4\n      sload\n      div\n      mul\n      dup4\n      mstore\n      swap2\n      0x20\n      add\n      swap2\n      jump(tag_77)\n        /* \"contracts/InternalContract.sol\":2617:2688  buildPluginRequest(stringToBytes32(jobId), this, this.fulfill.selector) */\n    tag_115:\n        /* \"contracts/InternalContract.sol\":2694:2717  req.add(\"_fsyms\",\"XDC\") */\n      0x40\n      dup1\n      mload\n      dup1\n      dup3\n      add\n      dup3\n      mstore\n      0x6\n      dup2\n      mstore\n      0x5f6673796d730000000000000000000000000000000000000000000000000000\n      0x20\n      dup1\n      dup4\n      add\n      swap2\n      swap1\n      swap2\n      mstore\n      dup3\n      mload\n      dup1\n      dup5\n      add\n      swap1\n      swap4\n      mstore\n      0x3\n      dup4\n      mstore\n      0x5844430000000000000000000000000000000000000000000000000000000000\n      swap1\n      dup4\n      add\n      mstore\n        /* \"contracts/InternalContract.sol\":2589:2688  Plugin.Request memory req = buildPluginRequest(stringToBytes32(jobId), this, this.fulfill.selector) */\n      swap2\n      swap3\n      pop\n        /* \"contracts/InternalContract.sol\":2694:2717  req.add(\"_fsyms\",\"XDC\") */\n      tag_120\n      swap2\n        /* \"contracts/InternalContract.sol\":2589:2688  Plugin.Request memory req = buildPluginRequest(stringToBytes32(jobId), this, this.fulfill.selector) */\n      dup4\n      swap2\n        /* \"contracts/InternalContract.sol\":2694:2717  req.add(\"_fsyms\",\"XDC\") */\n      0xffffffff\n        /* \"contracts/InternalContract.sol\":2694:2701  req.add */\n      tag_83\n        /* \"contracts/InternalContract.sol\":2694:2717  req.add(\"_fsyms\",\"XDC\") */\n      and\n      jump\t// in\n    tag_120:\n        /* \"contracts/InternalContract.sol\":2723:2747  req.add(\"_tsyms\",\"USDT\") */\n      0x40\n      dup1\n      mload\n      dup1\n      dup3\n      add\n      dup3\n      mstore\n      0x6\n      dup2\n      mstore\n      0x5f7473796d730000000000000000000000000000000000000000000000000000\n      0x20\n      dup1\n      dup4\n      add\n      swap2\n      swap1\n      swap2\n      mstore\n      dup3\n      mload\n      dup1\n      dup5\n      add\n      swap1\n      swap4\n      mstore\n      0x4\n      dup4\n      mstore\n      0x5553445400000000000000000000000000000000000000000000000000000000\n      swap1\n      dup4\n      add\n      mstore\n      tag_121\n      swap2\n        /* \"contracts/InternalContract.sol\":2723:2726  req */\n      dup4\n      swap2\n        /* \"contracts/InternalContract.sol\":2723:2747  req.add(\"_tsyms\",\"USDT\") */\n      swap1\n      0xffffffff\n        /* \"contracts/InternalContract.sol\":2723:2730  req.add */\n      tag_83\n        /* \"contracts/InternalContract.sol\":2723:2747  req.add(\"_tsyms\",\"USDT\") */\n      and\n      jump\t// in\n    tag_121:\n        /* \"contracts/InternalContract.sol\":2753:2779  req.addInt(\"times\", 10000) */\n      0x40\n      dup1\n      mload\n      dup1\n      dup3\n      add\n      swap1\n      swap2\n      mstore\n      0x5\n      dup2\n      mstore\n      0x74696d6573000000000000000000000000000000000000000000000000000000\n      0x20\n      dup3\n      add\n      mstore\n      tag_122\n      swap1\n        /* \"contracts/InternalContract.sol\":2753:2756  req */\n      dup3\n      swap1\n        /* \"contracts/InternalContract.sol\":2773:2778  10000 */\n      0x2710\n        /* \"contracts/InternalContract.sol\":2753:2779  req.addInt(\"times\", 10000) */\n      0xffffffff\n        /* \"contracts/InternalContract.sol\":2753:2763  req.addInt */\n      tag_86\n        /* \"contracts/InternalContract.sol\":2753:2779  req.addInt(\"times\", 10000) */\n      and\n      jump\t// in\n    tag_122:\n        /* \"contracts/InternalContract.sol\":2817:2823  oracle */\n      sload(0x7)\n        /* \"contracts/InternalContract.sol\":2797:2845  sendPluginRequestTo(oracle, req, ORACLE_PAYMENT) */\n      tag_123\n      swap1\n      sub(exp(0x2, 0xa0), 0x1)\n        /* \"contracts/InternalContract.sol\":2817:2823  oracle */\n      and\n        /* \"contracts/InternalContract.sol\":2825:2828  req */\n      dup3\n        /* \"contracts/InternalContract.sol\":277:290  0.01 * 10**18 */\n      0x2386f26fc10000\n        /* \"contracts/InternalContract.sol\":2797:2816  sendPluginRequestTo */\n      tag_88\n        /* \"contracts/InternalContract.sol\":2797:2845  sendPluginRequestTo(oracle, req, ORACLE_PAYMENT) */\n      jump\t// in\n    tag_123:\n        /* \"contracts/InternalContract.sol\":2869:2872  now */\n      timestamp\n        /* \"contracts/InternalContract.sol\":2851:2866  latestTimestamp */\n      0xa\n        /* \"contracts/InternalContract.sol\":2851:2872  latestTimestamp = now */\n      sstore\n        /* \"contracts/InternalContract.sol\":2923:2928  jobId */\n      0x8\n        /* \"contracts/InternalContract.sol\":2907:2929  stringToBytes32(jobId) */\n      dup1\n      sload\n      0x40\n      dup1\n      mload\n      0x20\n      0x1f\n      0x2\n      0x100\n      0x1\n      dup8\n      and\n      iszero\n      mul\n      not(0x0)\n      add\n      swap1\n      swap6\n      and\n      swap5\n      swap1\n      swap5\n      div\n      swap4\n      dup5\n      add\n      dup2\n      swap1\n      div\n      dup2\n      mul\n      dup3\n      add\n      dup2\n      add\n      swap1\n      swap3\n      mstore\n      dup3\n      dup2\n      mstore\n        /* \"contracts/InternalContract.sol\":2785:2845  requestId = sendPluginRequestTo(oracle, req, ORACLE_PAYMENT) */\n      swap4\n      swap7\n      pop\n      dup7\n      swap4\n        /* \"contracts/InternalContract.sol\":2907:2929  stringToBytes32(jobId) */\n      tag_124\n      swap4\n      swap1\n      swap3\n        /* \"contracts/InternalContract.sol\":2923:2928  jobId */\n      swap1\n      swap2\n        /* \"contracts/InternalContract.sol\":2907:2929  stringToBytes32(jobId) */\n      dup4\n      add\n        /* \"contracts/InternalContract.sol\":2923:2928  jobId */\n      dup3\n        /* \"contracts/InternalContract.sol\":2907:2929  stringToBytes32(jobId) */\n      dup3\n      dup1\n      iszero\n      tag_77\n      jumpi\n      dup1\n      0x1f\n      lt\n      tag_78\n      jumpi\n      0x100\n      dup1\n      dup4\n      sload\n      div\n      mul\n      dup4\n      mstore\n      swap2\n      0x20\n      add\n      swap2\n      jump(tag_77)\n    tag_124:\n        /* \"contracts/InternalContract.sol\":2883:2941  requestCreated(_caller, stringToBytes32(jobId), requestId) */\n      mload(0x40)\n      sub(exp(0x2, 0xa0), 0x1)\n      dup8\n      and\n      swap1\n      0x7f3df4038a13e7b83557e5a0ebf67fec07391a522319ab42e81255e88de18ffb\n      swap1\n      0x0\n      swap1\n      log4\n        /* \"contracts/InternalContract.sol\":2162:2946  function requestData(address _caller)... */\n      pop\n      pop\n      swap2\n      swap1\n      pop\n      jump\t// out\n        /* \"contracts/InternalContract.sol\":615:660  mapping(address => PLIDatabase) public plidbs */\n    tag_50:\n      mstore(0x20, 0xb)\n      0x0\n      swap1\n      dup2\n      mstore\n      0x40\n      swap1\n      keccak256\n      dup1\n      sload\n      0x1\n      swap1\n      swap2\n      add\n      sload\n      sub(exp(0x2, 0xa0), 0x1)\n      swap1\n      swap2\n      and\n      swap1\n      dup3\n      jump\t// out\n        /* \"contracts/InternalContract.sol\":3749:3843  function getPluginToken() public view returns (address) {... */\n    tag_53:\n        /* \"contracts/InternalContract.sol\":3796:3803  address */\n      0x0\n        /* \"contracts/InternalContract.sol\":3818:3838  pluginTokenAddress() */\n      tag_129\n        /* \"contracts/InternalContract.sol\":3818:3836  pluginTokenAddress */\n      tag_97\n        /* \"contracts/InternalContract.sol\":3818:3838  pluginTokenAddress() */\n      jump\t// in\n    tag_129:\n        /* \"contracts/InternalContract.sol\":3811:3838  return pluginTokenAddress() */\n      swap1\n      pop\n        /* \"contracts/InternalContract.sol\":3749:3843  function getPluginToken() public view returns (address) {... */\n      swap1\n      jump\t// out\n        /* \"contracts/InternalContract.sol\":368:388  string  public jobId */\n    tag_56:\n      0x8\n      dup1\n      sload\n      0x40\n      dup1\n      mload\n      0x20\n      0x2\n      0x1\n      dup6\n      and\n      iszero\n      0x100\n      mul\n      not(0x0)\n      add\n      swap1\n      swap5\n      and\n      swap4\n      swap1\n      swap4\n      div\n      0x1f\n      dup2\n      add\n      dup5\n      swap1\n      div\n      dup5\n      mul\n      dup3\n      add\n      dup5\n      add\n      swap1\n      swap3\n      mstore\n      dup2\n      dup2\n      mstore\n      swap3\n      swap2\n      dup4\n      add\n      dup3\n      dup3\n      dup1\n      iszero\n      tag_130\n      jumpi\n      dup1\n      0x1f\n      lt\n      tag_131\n      jumpi\n      0x100\n      dup1\n      dup4\n      sload\n      div\n      mul\n      dup4\n      mstore\n      swap2\n      0x20\n      add\n      swap2\n      jump(tag_130)\n    tag_131:\n      dup3\n      add\n      swap2\n      swap1\n      0x0\n      mstore\n      keccak256(0x0, 0x20)\n      swap1\n    tag_132:\n      dup2\n      sload\n      dup2\n      mstore\n      swap1\n      0x1\n      add\n      swap1\n      0x20\n      add\n      dup1\n      dup4\n      gt\n      tag_132\n      jumpi\n      dup3\n      swap1\n      sub\n      0x1f\n      and\n      dup3\n      add\n      swap2\n    tag_130:\n      pop\n      pop\n      pop\n      pop\n      pop\n      dup2\n      jump\t// out\n        /* \"contracts/InternalContract.sol\":1244:1799  function depositPLI(uint256 _value) public returns(bool) {... */\n    tag_63:\n        /* \"contracts/InternalContract.sol\":1295:1299  bool */\n      0x0\n        /* \"contracts/InternalContract.sol\":1405:1426  PliTokenInterface pli */\n      dup1\n        /* \"contracts/InternalContract.sol\":1578:1603  PLIDatabase memory _plidb */\n      tag_133\n      jump\t// in(tag_134)\n    tag_133:\n        /* \"contracts/InternalContract.sol\":1632:1653  uint256 _totalCredits */\n      0x0\n        /* \"contracts/InternalContract.sol\":1325:1335  100*10**18 */\n      0x56bc75e2d63100000\n        /* \"contracts/InternalContract.sol\":1317:1335  _value<=100*10**18 */\n      dup6\n      gt\n      iszero\n        /* \"contracts/InternalContract.sol\":1309:1364  require(_value<=100*10**18,\"NOT_MORE_THAN_100_ALLOWED\") */\n      tag_136\n      jumpi\n      0x40\n      dup1\n      mload\n      mul(0x461bcd, exp(0x2, 0xe5))\n      dup2\n      mstore\n      0x20\n      0x4\n      dup3\n      add\n      mstore\n      0x19\n      0x24\n      dup3\n      add\n      mstore\n      0x4e4f545f4d4f52455f5448414e5f3130305f414c4c4f57454400000000000000\n      0x44\n      dup3\n      add\n      mstore\n      swap1\n      mload\n      swap1\n      dup2\n      swap1\n      sub\n      0x64\n      add\n      swap1\n      revert\n    tag_136:\n        /* \"contracts/InternalContract.sol\":1447:1467  pluginTokenAddress() */\n      tag_137\n        /* \"contracts/InternalContract.sol\":1447:1465  pluginTokenAddress */\n      tag_97\n        /* \"contracts/InternalContract.sol\":1447:1467  pluginTokenAddress() */\n      jump\t// in\n    tag_137:\n        /* \"contracts/InternalContract.sol\":1476:1525  pli.transferFrom(msg.sender,address(this),_value) */\n      0x40\n      dup1\n      mload\n      0x23b872dd00000000000000000000000000000000000000000000000000000000\n      dup2\n      mstore\n        /* \"contracts/InternalContract.sol\":1493:1503  msg.sender */\n      caller\n        /* \"contracts/InternalContract.sol\":1476:1525  pli.transferFrom(msg.sender,address(this),_value) */\n      0x4\n      dup3\n      add\n      mstore\n        /* \"contracts/InternalContract.sol\":1512:1516  this */\n      address\n        /* \"contracts/InternalContract.sol\":1476:1525  pli.transferFrom(msg.sender,address(this),_value) */\n      0x24\n      dup3\n      add\n      mstore\n      0x44\n      dup2\n      add\n      dup9\n      swap1\n      mstore\n      swap1\n      mload\n        /* \"contracts/InternalContract.sol\":1405:1468  PliTokenInterface pli = PliTokenInterface(pluginTokenAddress()) */\n      swap2\n      swap5\n      pop\n      sub(exp(0x2, 0xa0), 0x1)\n        /* \"contracts/InternalContract.sol\":1476:1492  pli.transferFrom */\n      dup6\n      and\n      swap2\n      0x23b872dd\n      swap2\n        /* \"contracts/InternalContract.sol\":1476:1525  pli.transferFrom(msg.sender,address(this),_value) */\n      0x64\n      dup1\n      dup3\n      add\n      swap3\n      0x20\n      swap3\n      swap1\n      swap2\n      swap1\n      dup3\n      swap1\n      sub\n      add\n      dup2\n      0x0\n        /* \"contracts/InternalContract.sol\":1476:1492  pli.transferFrom */\n      dup8\n        /* \"contracts/InternalContract.sol\":1476:1525  pli.transferFrom(msg.sender,address(this),_value) */\n      dup1\n      extcodesize\n      iszero\n        /* \"--CODEGEN--\":5:7   */\n      dup1\n      iszero\n      tag_138\n      jumpi\n        /* \"--CODEGEN--\":30:31   */\n      0x0\n        /* \"--CODEGEN--\":27:28   */\n      dup1\n        /* \"--CODEGEN--\":20:32   */\n      revert\n        /* \"--CODEGEN--\":5:7   */\n    tag_138:\n        /* \"contracts/InternalContract.sol\":1476:1525  pli.transferFrom(msg.sender,address(this),_value) */\n      pop\n      gas\n      call\n      iszero\n        /* \"--CODEGEN--\":8:17   */\n      dup1\n        /* \"--CODEGEN--\":5:7   */\n      iszero\n      tag_139\n      jumpi\n        /* \"--CODEGEN--\":45:61   */\n      returndatasize\n        /* \"--CODEGEN--\":42:43   */\n      0x0\n        /* \"--CODEGEN--\":39:40   */\n      dup1\n        /* \"--CODEGEN--\":24:62   */\n      returndatacopy\n        /* \"--CODEGEN--\":77:93   */\n      returndatasize\n        /* \"--CODEGEN--\":74:75   */\n      0x0\n        /* \"--CODEGEN--\":67:94   */\n      revert\n        /* \"--CODEGEN--\":5:7   */\n    tag_139:\n        /* \"contracts/InternalContract.sol\":1476:1525  pli.transferFrom(msg.sender,address(this),_value) */\n      pop\n      pop\n      pop\n      pop\n      mload(0x40)\n      returndatasize\n        /* \"--CODEGEN--\":13:15   */\n      0x20\n        /* \"--CODEGEN--\":8:11   */\n      dup2\n        /* \"--CODEGEN--\":5:16   */\n      lt\n        /* \"--CODEGEN--\":2:4   */\n      iszero\n      tag_140\n      jumpi\n        /* \"--CODEGEN--\":29:30   */\n      0x0\n        /* \"--CODEGEN--\":26:27   */\n      dup1\n        /* \"--CODEGEN--\":19:31   */\n      revert\n        /* \"--CODEGEN--\":2:4   */\n    tag_140:\n      pop\n      pop\n        /* \"contracts/InternalContract.sol\":1613:1623  msg.sender */\n      caller\n        /* \"contracts/InternalContract.sol\":1606:1624  plidbs[msg.sender] */\n      0x0\n      dup2\n      dup2\n      mstore\n        /* \"contracts/InternalContract.sol\":1606:1612  plidbs */\n      0xb\n        /* \"contracts/InternalContract.sol\":1476:1525  pli.transferFrom(msg.sender,address(this),_value) */\n      0x20\n        /* \"contracts/InternalContract.sol\":1606:1624  plidbs[msg.sender] */\n      dup2\n      dup2\n      mstore\n      0x40\n      dup1\n      dup5\n      keccak256\n        /* \"contracts/InternalContract.sol\":1578:1624  PLIDatabase memory _plidb = plidbs[msg.sender] */\n      dup2\n      mload\n      dup1\n      dup4\n      add\n      dup4\n      mstore\n      dup2\n      sload\n      sub(exp(0x2, 0xa0), 0x1)\n      dup2\n      dup2\n      and\n      dup4\n      mstore\n      0x1\n      dup1\n      dup6\n      add\n      dup1\n      sload\n      swap5\n      dup9\n      add\n      dup6\n      swap1\n      mstore\n        /* \"contracts/InternalContract.sol\":1713:1775  PLIDatabase(... */\n      dup7\n      mload\n      dup1\n      dup9\n      add\n      swap1\n      swap8\n      mstore\n      dup11\n      dup8\n      mstore\n        /* \"contracts/InternalContract.sol\":1656:1684  _plidb.totalcredits + _value */\n      swap15\n      swap1\n      swap4\n      add\n        /* \"contracts/InternalContract.sol\":1713:1775  PLIDatabase(... */\n      dup6\n      dup8\n      add\n      swap1\n      dup2\n      mstore\n        /* \"contracts/InternalContract.sol\":1692:1710  plidbs[msg.sender] */\n      swap9\n      swap1\n      swap8\n      mstore\n      swap5\n      swap1\n      swap4\n      mstore\n        /* \"contracts/InternalContract.sol\":1692:1775  plidbs[msg.sender] = PLIDatabase(... */\n      swap1\n      mload\n      swap1\n      swap4\n      and\n      not(0xffffffffffffffffffffffffffffffffffffffff)\n      swap1\n      swap3\n      and\n      swap2\n      swap1\n      swap2\n      or\n      swap1\n      swap2\n      sstore\n      swap1\n      mload\n      swap1\n      swap6\n      sstore\n      pop\n        /* \"contracts/InternalContract.sol\":1578:1624  PLIDatabase memory _plidb = plidbs[msg.sender] */\n      swap3\n      swap4\n        /* \"contracts/InternalContract.sol\":1244:1799  function depositPLI(uint256 _value) public returns(bool) {... */\n      swap3\n      pop\n      pop\n      pop\n      jump\t// out\n        /* \"contracts/InternalContract.sol\":4135:4378  function cancelRequest(... */\n    tag_66:\n        /* \"@goplugin/contracts/src/v0.4/vendor/Ownable.sol\":719:724  owner */\n      and(sub(exp(0x2, 0xa0), 0x1), sload(0x6))\n        /* \"@goplugin/contracts/src/v0.4/vendor/Ownable.sol\":705:715  msg.sender */\n      caller\n        /* \"@goplugin/contracts/src/v0.4/vendor/Ownable.sol\":705:724  msg.sender == owner */\n      eq\n        /* \"@goplugin/contracts/src/v0.4/vendor/Ownable.sol\":697:725  require(msg.sender == owner) */\n      tag_142\n      jumpi\n      0x0\n      dup1\n      revert\n    tag_142:\n        /* \"contracts/InternalContract.sol\":4298:4373  cancelPluginRequest(_requestId, _payment, _callbackFunctionId, _expiration) */\n      tag_144\n        /* \"contracts/InternalContract.sol\":4318:4328  _requestId */\n      dup5\n        /* \"contracts/InternalContract.sol\":4330:4338  _payment */\n      dup5\n        /* \"contracts/InternalContract.sol\":4340:4359  _callbackFunctionId */\n      dup5\n        /* \"contracts/InternalContract.sol\":4361:4372  _expiration */\n      dup5\n        /* \"contracts/InternalContract.sol\":4298:4317  cancelPluginRequest */\n      tag_145\n        /* \"contracts/InternalContract.sol\":4298:4373  cancelPluginRequest(_requestId, _payment, _callbackFunctionId, _expiration) */\n      jump\t// in\n    tag_144:\n        /* \"contracts/InternalContract.sol\":4135:4378  function cancelRequest(... */\n      pop\n      pop\n      pop\n      pop\n      jump\t// out\n        /* \"@goplugin/contracts/src/v0.4/vendor/Ownable.sol\":1274:1377  function transferOwnership(address _newOwner) public onlyOwner {... */\n    tag_69:\n        /* \"@goplugin/contracts/src/v0.4/vendor/Ownable.sol\":719:724  owner */\n      and(sub(exp(0x2, 0xa0), 0x1), sload(0x6))\n        /* \"@goplugin/contracts/src/v0.4/vendor/Ownable.sol\":705:715  msg.sender */\n      caller\n        /* \"@goplugin/contracts/src/v0.4/vendor/Ownable.sol\":705:724  msg.sender == owner */\n      eq\n        /* \"@goplugin/contracts/src/v0.4/vendor/Ownable.sol\":697:725  require(msg.sender == owner) */\n      tag_147\n      jumpi\n      0x0\n      dup1\n      revert\n    tag_147:\n        /* \"@goplugin/contracts/src/v0.4/vendor/Ownable.sol\":1343:1372  _transferOwnership(_newOwner) */\n      tag_104\n        /* \"@goplugin/contracts/src/v0.4/vendor/Ownable.sol\":1362:1371  _newOwner */\n      dup2\n        /* \"@goplugin/contracts/src/v0.4/vendor/Ownable.sol\":1343:1361  _transferOwnership */\n      tag_150\n        /* \"@goplugin/contracts/src/v0.4/vendor/Ownable.sol\":1343:1372  _transferOwnership(_newOwner) */\n      jump\t// in\n        /* \"contracts/InternalContract.sol\":4431:4703  function stringToBytes32(string memory source) private pure returns (bytes32 result) {... */\n    tag_80:\n        /* \"contracts/InternalContract.sol\":4580:4606  tempEmptyStringTest.length */\n      dup1\n      mload\n        /* \"contracts/InternalContract.sol\":4500:4514  bytes32 result */\n      0x0\n      swap1\n        /* \"contracts/InternalContract.sol\":4563:4569  source */\n      dup3\n      swap1\n        /* \"contracts/InternalContract.sol\":4580:4611  tempEmptyStringTest.length == 0 */\n      iszero\n        /* \"contracts/InternalContract.sol\":4576:4638  if (tempEmptyStringTest.length == 0) {... */\n      iszero\n      tag_152\n      jumpi\n        /* \"contracts/InternalContract.sol\":4628:4631  0x0 */\n      0x0\n      swap2\n      pop\n        /* \"contracts/InternalContract.sol\":4621:4631  return 0x0 */\n      jump(tag_151)\n        /* \"contracts/InternalContract.sol\":4576:4638  if (tempEmptyStringTest.length == 0) {... */\n    tag_152:\n        /* \"contracts/InternalContract.sol\":4689:4691  32 */\n      0x20\n        /* \"contracts/InternalContract.sol\":4681:4687  source */\n      dup4\n        /* \"contracts/InternalContract.sol\":4677:4692  add(source, 32) */\n      add\n        /* \"contracts/InternalContract.sol\":4671:4693  mload(add(source, 32)) */\n      mload\n        /* \"contracts/InternalContract.sol\":4661:4693  result := mload(add(source, 32)) */\n      swap2\n      pop\n        /* \"contracts/InternalContract.sol\":4652:4699  { ... */\n    tag_151:\n      pop\n      swap2\n      swap1\n      pop\n      jump\t// out\n        /* \"@goplugin/contracts/src/v0.4/PluginClient.sol\":1680:1966  function buildPluginRequest(... */\n    tag_81:\n        /* \"@goplugin/contracts/src/v0.4/PluginClient.sol\":1825:1839  Plugin.Request */\n      tag_153\n      jump\t// in(tag_71)\n    tag_153:\n        /* \"@goplugin/contracts/src/v0.4/PluginClient.sol\":1854:1879  Plugin.Request memory req */\n      tag_154\n      jump\t// in(tag_71)\n    tag_154:\n        /* \"@goplugin/contracts/src/v0.4/PluginClient.sol\":1892:1961  req.initialize(_specId, _callbackAddress, _callbackFunctionSignature) */\n      tag_156\n        /* \"@goplugin/contracts/src/v0.4/PluginClient.sol\":1892:1895  req */\n      dup2\n        /* \"@goplugin/contracts/src/v0.4/PluginClient.sol\":1907:1914  _specId */\n      dup7\n        /* \"@goplugin/contracts/src/v0.4/PluginClient.sol\":1916:1932  _callbackAddress */\n      dup7\n        /* \"@goplugin/contracts/src/v0.4/PluginClient.sol\":1934:1960  _callbackFunctionSignature */\n      dup7\n        /* \"@goplugin/contracts/src/v0.4/PluginClient.sol\":1892:1961  req.initialize(_specId, _callbackAddress, _callbackFunctionSignature) */\n      0xffffffff\n        /* \"@goplugin/contracts/src/v0.4/PluginClient.sol\":1892:1906  req.initialize */\n      tag_157\n        /* \"@goplugin/contracts/src/v0.4/PluginClient.sol\":1892:1961  req.initialize(_specId, _callbackAddress, _callbackFunctionSignature) */\n      and\n      jump\t// in\n    tag_156:\n        /* \"@goplugin/contracts/src/v0.4/PluginClient.sol\":1885:1961  return req.initialize(_specId, _callbackAddress, _callbackFunctionSignature) */\n      swap6\n        /* \"@goplugin/contracts/src/v0.4/PluginClient.sol\":1680:1966  function buildPluginRequest(... */\n      swap5\n      pop\n      pop\n      pop\n      pop\n      pop\n      jump\t// out\n        /* \"@goplugin/contracts/src/v0.4/Plugin.sol\":1922:2077  function add(Request memory self, string _key, string _value)... */\n    tag_83:\n        /* \"@goplugin/contracts/src/v0.4/Plugin.sol\":2010:2018  self.buf */\n      0x80\n      dup4\n      add\n      mload\n        /* \"@goplugin/contracts/src/v0.4/Plugin.sol\":2010:2037  self.buf.encodeString(_key) */\n      tag_159\n      swap1\n        /* \"@goplugin/contracts/src/v0.4/Plugin.sol\":2032:2036  _key */\n      dup4\n        /* \"@goplugin/contracts/src/v0.4/Plugin.sol\":2010:2037  self.buf.encodeString(_key) */\n      0xffffffff\n        /* \"@goplugin/contracts/src/v0.4/Plugin.sol\":2010:2031  self.buf.encodeString */\n      tag_160\n        /* \"@goplugin/contracts/src/v0.4/Plugin.sol\":2010:2037  self.buf.encodeString(_key) */\n      and\n      jump\t// in\n    tag_159:\n        /* \"@goplugin/contracts/src/v0.4/Plugin.sol\":2043:2051  self.buf */\n      0x80\n      dup4\n      add\n      mload\n        /* \"@goplugin/contracts/src/v0.4/Plugin.sol\":2043:2072  self.buf.encodeString(_value) */\n      tag_161\n      swap1\n        /* \"@goplugin/contracts/src/v0.4/Plugin.sol\":2065:2071  _value */\n      dup3\n        /* \"@goplugin/contracts/src/v0.4/Plugin.sol\":2043:2072  self.buf.encodeString(_value) */\n      0xffffffff\n        /* \"@goplugin/contracts/src/v0.4/Plugin.sol\":2043:2064  self.buf.encodeString */\n      tag_160\n        /* \"@goplugin/contracts/src/v0.4/Plugin.sol\":2043:2072  self.buf.encodeString(_value) */\n      and\n      jump\t// in\n    tag_161:\n        /* \"@goplugin/contracts/src/v0.4/Plugin.sol\":1922:2077  function add(Request memory self, string _key, string _value)... */\n      pop\n      pop\n      pop\n      jump\t// out\n        /* \"@goplugin/contracts/src/v0.4/Plugin.sol\":2647:2802  function addInt(Request memory self, string _key, int256 _value)... */\n    tag_86:\n        /* \"@goplugin/contracts/src/v0.4/Plugin.sol\":2738:2746  self.buf */\n      0x80\n      dup4\n      add\n      mload\n        /* \"@goplugin/contracts/src/v0.4/Plugin.sol\":2738:2765  self.buf.encodeString(_key) */\n      tag_163\n      swap1\n        /* \"@goplugin/contracts/src/v0.4/Plugin.sol\":2760:2764  _key */\n      dup4\n        /* \"@goplugin/contracts/src/v0.4/Plugin.sol\":2738:2765  self.buf.encodeString(_key) */\n      0xffffffff\n        /* \"@goplugin/contracts/src/v0.4/Plugin.sol\":2738:2759  self.buf.encodeString */\n      tag_160\n        /* \"@goplugin/contracts/src/v0.4/Plugin.sol\":2738:2765  self.buf.encodeString(_key) */\n      and\n      jump\t// in\n    tag_163:\n        /* \"@goplugin/contracts/src/v0.4/Plugin.sol\":2771:2779  self.buf */\n      0x80\n      dup4\n      add\n      mload\n        /* \"@goplugin/contracts/src/v0.4/Plugin.sol\":2771:2797  self.buf.encodeInt(_value) */\n      tag_161\n      swap1\n        /* \"@goplugin/contracts/src/v0.4/Plugin.sol\":2790:2796  _value */\n      dup3\n        /* \"@goplugin/contracts/src/v0.4/Plugin.sol\":2771:2797  self.buf.encodeInt(_value) */\n      0xffffffff\n        /* \"@goplugin/contracts/src/v0.4/Plugin.sol\":2771:2789  self.buf.encodeInt */\n      tag_165\n        /* \"@goplugin/contracts/src/v0.4/Plugin.sol\":2771:2797  self.buf.encodeInt(_value) */\n      and\n      jump\t// in\n        /* \"@goplugin/contracts/src/v0.4/PluginClient.sol\":2917:3383  function sendPluginRequestTo(address _oracle, Plugin.Request memory _req, uint256 _payment)... */\n    tag_88:\n        /* \"@goplugin/contracts/src/v0.4/PluginClient.sol\":3035:3052  bytes32 requestId */\n      0x0\n        /* \"@goplugin/contracts/src/v0.4/PluginClient.sol\":3101:3105  this */\n      address\n        /* \"@goplugin/contracts/src/v0.4/PluginClient.sol\":3107:3115  requests */\n      sload(0x4)\n        /* \"@goplugin/contracts/src/v0.4/PluginClient.sol\":3084:3116  abi.encodePacked(this, requests) */\n      add(0x20, mload(0x40))\n      dup1\n      dup4\n      sub(exp(0x2, 0xa0), 0x1)\n      and\n      sub(exp(0x2, 0xa0), 0x1)\n      and\n      0x1000000000000000000000000\n      mul\n      dup2\n      mstore\n      0x14\n      add\n      dup3\n      dup2\n      mstore\n      0x20\n      add\n      swap3\n      pop\n      pop\n      pop\n      mload(0x40)\n        /* \"--CODEGEN--\":49:53   */\n      0x20\n        /* \"--CODEGEN--\":39:46   */\n      dup2\n        /* \"--CODEGEN--\":30:37   */\n      dup4\n        /* \"--CODEGEN--\":26:47   */\n      sub\n        /* \"--CODEGEN--\":22:54   */\n      sub\n        /* \"--CODEGEN--\":13:20   */\n      dup2\n        /* \"--CODEGEN--\":6:55   */\n      mstore\n        /* \"@goplugin/contracts/src/v0.4/PluginClient.sol\":3084:3116  abi.encodePacked(this, requests) */\n      swap1\n      0x40\n      mstore\n        /* \"@goplugin/contracts/src/v0.4/PluginClient.sol\":3074:3117  keccak256(abi.encodePacked(this, requests)) */\n      mload(0x40)\n      dup1\n      dup3\n      dup1\n      mload\n      swap1\n      0x20\n      add\n      swap1\n      dup1\n      dup4\n      dup4\n        /* \"--CODEGEN--\":36:189   */\n    tag_167:\n        /* \"--CODEGEN--\":66:68   */\n      0x20\n        /* \"--CODEGEN--\":58:69   */\n      dup4\n      lt\n        /* \"--CODEGEN--\":36:189   */\n      tag_168\n      jumpi\n        /* \"--CODEGEN--\":176:186   */\n      dup1\n      mload\n        /* \"--CODEGEN--\":164:187   */\n      dup3\n      mstore\n      not(0x1f)\n        /* \"--CODEGEN--\":139:151   */\n      swap1\n      swap3\n      add\n      swap2\n        /* \"--CODEGEN--\":98:100   */\n      0x20\n        /* \"--CODEGEN--\":89:101   */\n      swap2\n      dup3\n      add\n      swap2\n        /* \"--CODEGEN--\":114:126   */\n      add\n        /* \"--CODEGEN--\":36:189   */\n      jump(tag_167)\n    tag_168:\n        /* \"--CODEGEN--\":299:309   */\n      mload\n        /* \"--CODEGEN--\":344:354   */\n      dup2\n      mload\n        /* \"--CODEGEN--\":263:265   */\n      0x20\n        /* \"--CODEGEN--\":259:271   */\n      swap4\n      dup5\n      sub\n        /* \"--CODEGEN--\":254:257   */\n      0x100\n        /* \"--CODEGEN--\":250:272   */\n      exp\n      not(0x0)\n        /* \"--CODEGEN--\":246:276   */\n      add\n        /* \"--CODEGEN--\":311:320   */\n      dup1\n      not\n        /* \"--CODEGEN--\":295:321   */\n      swap1\n      swap3\n      and\n        /* \"--CODEGEN--\":340:361   */\n      swap2\n      and\n        /* \"--CODEGEN--\":377:397   */\n      or\n        /* \"--CODEGEN--\":365:398   */\n      swap1\n      mstore\n        /* \"@goplugin/contracts/src/v0.4/PluginClient.sol\":3074:3117  keccak256(abi.encodePacked(this, requests)) */\n      0x40\n      dup1\n      mload\n      swap3\n      swap1\n      swap5\n      add\n      dup3\n      swap1\n      sub\n      swap1\n      swap2\n      keccak256\n        /* \"@goplugin/contracts/src/v0.4/PluginClient.sol\":3136:3144  requests */\n      sload(0x4)\n        /* \"@goplugin/contracts/src/v0.4/PluginClient.sol\":3123:3133  _req.nonce */\n      0x60\n      dup11\n      add\n        /* \"@goplugin/contracts/src/v0.4/PluginClient.sol\":3123:3144  _req.nonce = requests */\n      mstore\n      0x0\n        /* \"@goplugin/contracts/src/v0.4/PluginClient.sol\":3150:3176  pendingRequests[requestId] */\n      dup2\n      dup2\n      mstore\n        /* \"@goplugin/contracts/src/v0.4/PluginClient.sol\":3150:3165  pendingRequests */\n      0x5\n        /* \"@goplugin/contracts/src/v0.4/PluginClient.sol\":3150:3176  pendingRequests[requestId] */\n      swap1\n      swap3\n      mstore\n      dup4\n      dup3\n      keccak256\n        /* \"@goplugin/contracts/src/v0.4/PluginClient.sol\":3150:3186  pendingRequests[requestId] = _oracle */\n      dup1\n      sload\n      not(0xffffffffffffffffffffffffffffffffffffffff)\n      and\n      sub(exp(0x2, 0xa0), 0x1)\n      dup13\n      and\n      or\n      swap1\n      sstore\n        /* \"@goplugin/contracts/src/v0.4/PluginClient.sol\":3197:3223  PluginRequested(requestId) */\n      swap3\n      mload\n        /* \"@goplugin/contracts/src/v0.4/PluginClient.sol\":3074:3117  keccak256(abi.encodePacked(this, requests)) */\n      swap3\n      swap6\n      pop\n      dup6\n      swap5\n      pop\n        /* \"@goplugin/contracts/src/v0.4/PluginClient.sol\":3197:3223  PluginRequested(requestId) */\n      0xa6745906207afb96a5801b8e5711fd7b74c5780ce893a973806e179d675bbe24\n      swap4\n      pop\n      swap2\n      swap1\n      pop\n      log2\n        /* \"@goplugin/contracts/src/v0.4/PluginClient.sol\":3237:3240  pli */\n      and(sub(exp(0x2, 0xa0), 0x1), sload(0x2))\n        /* \"@goplugin/contracts/src/v0.4/PluginClient.sol\":3237:3256  pli.transferAndCall */\n      0x4000aea0\n        /* \"@goplugin/contracts/src/v0.4/PluginClient.sol\":3257:3264  _oracle */\n      dup6\n        /* \"@goplugin/contracts/src/v0.4/PluginClient.sol\":3266:3274  _payment */\n      dup5\n        /* \"@goplugin/contracts/src/v0.4/PluginClient.sol\":3276:3295  encodeRequest(_req) */\n      tag_170\n        /* \"@goplugin/contracts/src/v0.4/PluginClient.sol\":3290:3294  _req */\n      dup8\n        /* \"@goplugin/contracts/src/v0.4/PluginClient.sol\":3276:3289  encodeRequest */\n      tag_171\n        /* \"@goplugin/contracts/src/v0.4/PluginClient.sol\":3276:3295  encodeRequest(_req) */\n      jump\t// in\n    tag_170:\n        /* \"@goplugin/contracts/src/v0.4/PluginClient.sol\":3237:3296  pli.transferAndCall(_oracle, _payment, encodeRequest(_req)) */\n      mload(0x40)\n      dup5\n      0xffffffff\n      and\n      exp(0x2, 0xe0)\n      mul\n      dup2\n      mstore\n      0x4\n      add\n      dup1\n      dup5\n      sub(exp(0x2, 0xa0), 0x1)\n      and\n      sub(exp(0x2, 0xa0), 0x1)\n      and\n      dup2\n      mstore\n      0x20\n      add\n      dup4\n      dup2\n      mstore\n      0x20\n      add\n      dup1\n      0x20\n      add\n      dup3\n      dup2\n      sub\n      dup3\n      mstore\n      dup4\n      dup2\n      dup2\n      mload\n      dup2\n      mstore\n      0x20\n      add\n      swap2\n      pop\n      dup1\n      mload\n      swap1\n      0x20\n      add\n      swap1\n      dup1\n      dup4\n      dup4\n        /* \"--CODEGEN--\":23:24   */\n      0x0\n        /* \"--CODEGEN--\":8:108   */\n    tag_172:\n        /* \"--CODEGEN--\":33:36   */\n      dup4\n        /* \"--CODEGEN--\":30:31   */\n      dup2\n        /* \"--CODEGEN--\":27:37   */\n      lt\n        /* \"--CODEGEN--\":8:108   */\n      iszero\n      tag_173\n      jumpi\n        /* \"--CODEGEN--\":90:101   */\n      dup2\n      dup2\n      add\n        /* \"--CODEGEN--\":84:102   */\n      mload\n        /* \"--CODEGEN--\":71:82   */\n      dup4\n      dup3\n      add\n        /* \"--CODEGEN--\":64:103   */\n      mstore\n        /* \"--CODEGEN--\":52:54   */\n      0x20\n        /* \"--CODEGEN--\":45:55   */\n      add\n        /* \"--CODEGEN--\":8:108   */\n      jump(tag_172)\n    tag_173:\n        /* \"--CODEGEN--\":12:26   */\n      pop\n        /* \"@goplugin/contracts/src/v0.4/PluginClient.sol\":3237:3296  pli.transferAndCall(_oracle, _payment, encodeRequest(_req)) */\n      pop\n      pop\n      pop\n      swap1\n      pop\n      swap1\n      dup2\n      add\n      swap1\n      0x1f\n      and\n      dup1\n      iszero\n      tag_175\n      jumpi\n      dup1\n      dup3\n      sub\n      dup1\n      mload\n      0x1\n      dup4\n      0x20\n      sub\n      0x100\n      exp\n      sub\n      not\n      and\n      dup2\n      mstore\n      0x20\n      add\n      swap2\n      pop\n    tag_175:\n      pop\n      swap5\n      pop\n      pop\n      pop\n      pop\n      pop\n      0x20\n      mload(0x40)\n      dup1\n      dup4\n      sub\n      dup2\n      0x0\n      dup8\n      dup1\n      extcodesize\n      iszero\n        /* \"--CODEGEN--\":8:17   */\n      dup1\n        /* \"--CODEGEN--\":5:7   */\n      iszero\n      tag_176\n      jumpi\n        /* \"--CODEGEN--\":30:31   */\n      0x0\n        /* \"--CODEGEN--\":27:28   */\n      dup1\n        /* \"--CODEGEN--\":20:32   */\n      revert\n        /* \"--CODEGEN--\":5:7   */\n    tag_176:\n        /* \"@goplugin/contracts/src/v0.4/PluginClient.sol\":3237:3296  pli.transferAndCall(_oracle, _payment, encodeRequest(_req)) */\n      pop\n      gas\n      call\n      iszero\n        /* \"--CODEGEN--\":8:17   */\n      dup1\n        /* \"--CODEGEN--\":5:7   */\n      iszero\n      tag_177\n      jumpi\n        /* \"--CODEGEN--\":45:61   */\n      returndatasize\n        /* \"--CODEGEN--\":42:43   */\n      0x0\n        /* \"--CODEGEN--\":39:40   */\n      dup1\n        /* \"--CODEGEN--\":24:62   */\n      returndatacopy\n        /* \"--CODEGEN--\":77:93   */\n      returndatasize\n        /* \"--CODEGEN--\":74:75   */\n      0x0\n        /* \"--CODEGEN--\":67:94   */\n      revert\n        /* \"--CODEGEN--\":5:7   */\n    tag_177:\n        /* \"@goplugin/contracts/src/v0.4/PluginClient.sol\":3237:3296  pli.transferAndCall(_oracle, _payment, encodeRequest(_req)) */\n      pop\n      pop\n      pop\n      pop\n      mload(0x40)\n      returndatasize\n        /* \"--CODEGEN--\":13:15   */\n      0x20\n        /* \"--CODEGEN--\":8:11   */\n      dup2\n        /* \"--CODEGEN--\":5:16   */\n      lt\n        /* \"--CODEGEN--\":2:4   */\n      iszero\n      tag_178\n      jumpi\n        /* \"--CODEGEN--\":29:30   */\n      0x0\n        /* \"--CODEGEN--\":26:27   */\n      dup1\n        /* \"--CODEGEN--\":19:31   */\n      revert\n        /* \"--CODEGEN--\":2:4   */\n    tag_178:\n      pop\n        /* \"@goplugin/contracts/src/v0.4/PluginClient.sol\":3237:3296  pli.transferAndCall(_oracle, _payment, encodeRequest(_req)) */\n      mload\n        /* \"@goplugin/contracts/src/v0.4/PluginClient.sol\":3229:3336  require(pli.transferAndCall(_oracle, _payment, encodeRequest(_req)), \"unable to transferAndCall to oracle\") */\n      iszero\n      iszero\n      tag_179\n      jumpi\n      0x40\n      dup1\n      mload\n      mul(0x461bcd, exp(0x2, 0xe5))\n      dup2\n      mstore\n      0x20\n      0x4\n      dup3\n      add\n      mstore\n      0x23\n      0x24\n      dup3\n      add\n      mstore\n      0x756e61626c6520746f207472616e73666572416e6443616c6c20746f206f7261\n      0x44\n      dup3\n      add\n      mstore\n      0x636c650000000000000000000000000000000000000000000000000000000000\n      0x64\n      dup3\n      add\n      mstore\n      swap1\n      mload\n      swap1\n      dup2\n      swap1\n      sub\n      0x84\n      add\n      swap1\n      revert\n    tag_179:\n        /* \"@goplugin/contracts/src/v0.4/PluginClient.sol\":3342:3350  requests */\n      0x4\n        /* \"@goplugin/contracts/src/v0.4/PluginClient.sol\":3342:3355  requests += 1 */\n      dup1\n      sload\n        /* \"@goplugin/contracts/src/v0.4/PluginClient.sol\":3354:3355  1 */\n      0x1\n        /* \"@goplugin/contracts/src/v0.4/PluginClient.sol\":3342:3355  requests += 1 */\n      add\n      swap1\n      sstore\n        /* \"@goplugin/contracts/src/v0.4/PluginClient.sol\":2917:3383  function sendPluginRequestTo(address _oracle, Plugin.Request memory _req, uint256 _payment)... */\n      swap4\n      swap3\n      pop\n      pop\n      pop\n      jump\t// out\n        /* \"@goplugin/contracts/src/v0.4/PluginClient.sol\":5072:5178  function pluginTokenAddress()... */\n    tag_97:\n        /* \"@goplugin/contracts/src/v0.4/PluginClient.sol\":5169:5172  pli */\n      and(sub(exp(0x2, 0xa0), 0x1), sload(0x2))\n        /* \"@goplugin/contracts/src/v0.4/PluginClient.sol\":5072:5178  function pluginTokenAddress()... */\n      swap1\n      jump\t// out\n        /* \"@goplugin/contracts/src/v0.4/PluginClient.sol\":3899:4304  function cancelPluginRequest(... */\n    tag_145:\n        /* \"@goplugin/contracts/src/v0.4/PluginClient.sol\":4050:4082  PluginRequestInterface requested */\n      0x0\n        /* \"@goplugin/contracts/src/v0.4/PluginClient.sol\":4108:4135  pendingRequests[_requestId] */\n      dup5\n      dup2\n      mstore\n        /* \"@goplugin/contracts/src/v0.4/PluginClient.sol\":4108:4123  pendingRequests */\n      0x5\n        /* \"@goplugin/contracts/src/v0.4/PluginClient.sol\":4108:4135  pendingRequests[_requestId] */\n      0x20\n      mstore\n      0x40\n      dup1\n      dup3\n      keccak256\n      dup1\n      sload\n      not(0xffffffffffffffffffffffffffffffffffffffff)\n        /* \"@goplugin/contracts/src/v0.4/PluginClient.sol\":4142:4176  delete pendingRequests[_requestId] */\n      dup2\n      and\n      swap1\n      swap2\n      sstore\n        /* \"@goplugin/contracts/src/v0.4/PluginClient.sol\":4187:4214  PluginCancelled(_requestId) */\n      swap1\n      mload\n      sub(exp(0x2, 0xa0), 0x1)\n        /* \"@goplugin/contracts/src/v0.4/PluginClient.sol\":4108:4135  pendingRequests[_requestId] */\n      swap1\n      swap2\n      and\n      swap2\n        /* \"@goplugin/contracts/src/v0.4/PluginClient.sol\":4124:4134  _requestId */\n      dup7\n      swap2\n        /* \"@goplugin/contracts/src/v0.4/PluginClient.sol\":4187:4214  PluginCancelled(_requestId) */\n      0x715822738dad692e521ebc0193d189bf23153eb1d4420173d6b30cd8add9f9a6\n      swap2\n        /* \"@goplugin/contracts/src/v0.4/PluginClient.sol\":4050:4082  PluginRequestInterface requested */\n      swap1\n        /* \"@goplugin/contracts/src/v0.4/PluginClient.sol\":4187:4214  PluginCancelled(_requestId) */\n      log2\n        /* \"@goplugin/contracts/src/v0.4/PluginClient.sol\":4220:4299  requested.cancelOracleRequest(_requestId, _payment, _callbackFunc, _expiration) */\n      0x40\n      dup1\n      mload\n      0x6ee4d55300000000000000000000000000000000000000000000000000000000\n      dup2\n      mstore\n      0x4\n      dup2\n      add\n      dup8\n      swap1\n      mstore\n      0x24\n      dup2\n      add\n      dup7\n      swap1\n      mstore\n      not(sub(exp(0x2, 0xe0), 0x1))\n      dup6\n      and\n      0x44\n      dup3\n      add\n      mstore\n      0x64\n      dup2\n      add\n      dup5\n      swap1\n      mstore\n      swap1\n      mload\n      sub(exp(0x2, 0xa0), 0x1)\n        /* \"@goplugin/contracts/src/v0.4/PluginClient.sol\":4220:4249  requested.cancelOracleRequest */\n      dup4\n      and\n      swap2\n      0x6ee4d553\n      swap2\n        /* \"@goplugin/contracts/src/v0.4/PluginClient.sol\":4220:4299  requested.cancelOracleRequest(_requestId, _payment, _callbackFunc, _expiration) */\n      0x84\n      dup1\n      dup4\n      add\n      swap3\n      0x0\n      swap3\n      swap2\n      swap1\n      dup3\n      swap1\n      sub\n      add\n      dup2\n      dup4\n        /* \"@goplugin/contracts/src/v0.4/PluginClient.sol\":4220:4249  requested.cancelOracleRequest */\n      dup8\n        /* \"@goplugin/contracts/src/v0.4/PluginClient.sol\":4220:4299  requested.cancelOracleRequest(_requestId, _payment, _callbackFunc, _expiration) */\n      dup1\n      extcodesize\n      iszero\n        /* \"--CODEGEN--\":5:7   */\n      dup1\n      iszero\n      tag_182\n      jumpi\n        /* \"--CODEGEN--\":30:31   */\n      0x0\n        /* \"--CODEGEN--\":27:28   */\n      dup1\n        /* \"--CODEGEN--\":20:32   */\n      revert\n        /* \"--CODEGEN--\":5:7   */\n    tag_182:\n        /* \"@goplugin/contracts/src/v0.4/PluginClient.sol\":4220:4299  requested.cancelOracleRequest(_requestId, _payment, _callbackFunc, _expiration) */\n      pop\n      gas\n      call\n      iszero\n        /* \"--CODEGEN--\":8:17   */\n      dup1\n        /* \"--CODEGEN--\":5:7   */\n      iszero\n      tag_183\n      jumpi\n        /* \"--CODEGEN--\":45:61   */\n      returndatasize\n        /* \"--CODEGEN--\":42:43   */\n      0x0\n        /* \"--CODEGEN--\":39:40   */\n      dup1\n        /* \"--CODEGEN--\":24:62   */\n      returndatacopy\n        /* \"--CODEGEN--\":77:93   */\n      returndatasize\n        /* \"--CODEGEN--\":74:75   */\n      0x0\n        /* \"--CODEGEN--\":67:94   */\n      revert\n        /* \"--CODEGEN--\":5:7   */\n    tag_183:\n        /* \"@goplugin/contracts/src/v0.4/PluginClient.sol\":4220:4299  requested.cancelOracleRequest(_requestId, _payment, _callbackFunc, _expiration) */\n      pop\n      pop\n      pop\n      pop\n        /* \"@goplugin/contracts/src/v0.4/PluginClient.sol\":3899:4304  function cancelPluginRequest(... */\n      pop\n      pop\n      pop\n      pop\n      pop\n      jump\t// out\n        /* \"@goplugin/contracts/src/v0.4/vendor/Ownable.sol\":1512:1683  function _transferOwnership(address _newOwner) internal {... */\n    tag_150:\n      sub(exp(0x2, 0xa0), 0x1)\n        /* \"@goplugin/contracts/src/v0.4/vendor/Ownable.sol\":1582:1605  _newOwner != address(0) */\n      dup2\n      and\n      iszero\n      iszero\n        /* \"@goplugin/contracts/src/v0.4/vendor/Ownable.sol\":1574:1606  require(_newOwner != address(0)) */\n      tag_185\n      jumpi\n      0x0\n      dup1\n      revert\n    tag_185:\n        /* \"@goplugin/contracts/src/v0.4/vendor/Ownable.sol\":1638:1643  owner */\n      sload(0x6)\n        /* \"@goplugin/contracts/src/v0.4/vendor/Ownable.sol\":1617:1655  OwnershipTransferred(owner, _newOwner) */\n      mload(0x40)\n      sub(exp(0x2, 0xa0), 0x1)\n      dup1\n      dup5\n      and\n      swap3\n        /* \"@goplugin/contracts/src/v0.4/vendor/Ownable.sol\":1638:1643  owner */\n      and\n      swap1\n        /* \"@goplugin/contracts/src/v0.4/vendor/Ownable.sol\":1617:1655  OwnershipTransferred(owner, _newOwner) */\n      0x8be0079c531659141344cd1fd0a4f28419497f9722a3daafe3b4186f6b6457e0\n      swap1\n        /* \"@goplugin/contracts/src/v0.4/vendor/Ownable.sol\":1638:1643  owner */\n      0x0\n      swap1\n        /* \"@goplugin/contracts/src/v0.4/vendor/Ownable.sol\":1617:1655  OwnershipTransferred(owner, _newOwner) */\n      log3\n        /* \"@goplugin/contracts/src/v0.4/vendor/Ownable.sol\":1661:1666  owner */\n      0x6\n        /* \"@goplugin/contracts/src/v0.4/vendor/Ownable.sol\":1661:1678  owner = _newOwner */\n      dup1\n      sload\n      not(0xffffffffffffffffffffffffffffffffffffffff)\n      and\n      sub(exp(0x2, 0xa0), 0x1)\n      swap3\n      swap1\n      swap3\n      and\n      swap2\n      swap1\n      swap2\n      or\n      swap1\n      sstore\n        /* \"@goplugin/contracts/src/v0.4/vendor/Ownable.sol\":1512:1683  function _transferOwnership(address _newOwner) internal {... */\n      jump\t// out\n        /* \"@goplugin/contracts/src/v0.4/Plugin.sol\":948:1308  function initialize(... */\n    tag_157:\n        /* \"@goplugin/contracts/src/v0.4/Plugin.sol\":1097:1111  Plugin.Request */\n      tag_186\n      jump\t// in(tag_71)\n    tag_186:\n        /* \"@goplugin/contracts/src/v0.4/Plugin.sol\":1126:1173  Buffer_Plugin.init(self.buf, defaultBufferSize) */\n      tag_188\n        /* \"@goplugin/contracts/src/v0.4/Plugin.sol\":1145:1149  self */\n      dup6\n        /* \"@goplugin/contracts/src/v0.4/Plugin.sol\":1145:1153  self.buf */\n      0x80\n      add\n      mload\n        /* \"@goplugin/contracts/src/v0.4/Plugin.sol\":324:327  256 */\n      0x100\n        /* \"@goplugin/contracts/src/v0.4/Plugin.sol\":1126:1144  Buffer_Plugin.init */\n      tag_189\n        /* \"@goplugin/contracts/src/v0.4/Plugin.sol\":1126:1173  Buffer_Plugin.init(self.buf, defaultBufferSize) */\n      jump\t// in\n    tag_188:\n      pop\n      pop\n        /* \"@goplugin/contracts/src/v0.4/Plugin.sol\":1179:1192  self.id = _id */\n      swap2\n      dup4\n      mstore\n      sub(exp(0x2, 0xa0), 0x1)\n        /* \"@goplugin/contracts/src/v0.4/Plugin.sol\":1198:1237  self.callbackAddress = _callbackAddress */\n      and\n        /* \"@goplugin/contracts/src/v0.4/Plugin.sol\":1198:1218  self.callbackAddress */\n      0x20\n      dup4\n      add\n        /* \"@goplugin/contracts/src/v0.4/Plugin.sol\":1198:1237  self.callbackAddress = _callbackAddress */\n      mstore\n      not(sub(exp(0x2, 0xe0), 0x1))\n        /* \"@goplugin/contracts/src/v0.4/Plugin.sol\":1243:1286  self.callbackFunctionId = _callbackFunction */\n      and\n        /* \"@goplugin/contracts/src/v0.4/Plugin.sol\":1243:1266  self.callbackFunctionId */\n      0x40\n      dup3\n      add\n        /* \"@goplugin/contracts/src/v0.4/Plugin.sol\":1243:1286  self.callbackFunctionId = _callbackFunction */\n      mstore\n        /* \"@goplugin/contracts/src/v0.4/Plugin.sol\":1179:1192  self.id = _id */\n      swap1\n        /* \"@goplugin/contracts/src/v0.4/Plugin.sol\":948:1308  function initialize(... */\n      jump\t// out\n        /* \"@goplugin/contracts/src/v0.4/vendor/CBOR.sol\":2803:2998  function encodeString(BufferPlugin.buffer memory buf, string memory value) internal pure {... */\n    tag_160:\n        /* \"@goplugin/contracts/src/v0.4/vendor/CBOR.sol\":2902:2957  encodeType(buf, MAJOR_TYPE_STRING, bytes(value).length) */\n      tag_191\n        /* \"@goplugin/contracts/src/v0.4/vendor/CBOR.sol\":2913:2916  buf */\n      dup3\n        /* \"@goplugin/contracts/src/v0.4/vendor/CBOR.sol\":387:388  3 */\n      0x3\n        /* \"@goplugin/contracts/src/v0.4/vendor/CBOR.sol\":2943:2948  value */\n      dup4\n        /* \"@goplugin/contracts/src/v0.4/vendor/CBOR.sol\":2937:2956  bytes(value).length */\n      mload\n        /* \"@goplugin/contracts/src/v0.4/vendor/CBOR.sol\":2902:2912  encodeType */\n      tag_192\n        /* \"@goplugin/contracts/src/v0.4/vendor/CBOR.sol\":2902:2957  encodeType(buf, MAJOR_TYPE_STRING, bytes(value).length) */\n      jump\t// in\n    tag_191:\n        /* \"@goplugin/contracts/src/v0.4/vendor/CBOR.sol\":2967:2991  buf.append(bytes(value)) */\n      tag_161\n        /* \"@goplugin/contracts/src/v0.4/vendor/CBOR.sol\":2967:2970  buf */\n      dup3\n        /* \"@goplugin/contracts/src/v0.4/vendor/CBOR.sol\":2984:2989  value */\n      dup3\n        /* \"@goplugin/contracts/src/v0.4/vendor/CBOR.sol\":2967:2991  buf.append(bytes(value)) */\n      0xffffffff\n        /* \"@goplugin/contracts/src/v0.4/vendor/CBOR.sol\":2967:2977  buf.append */\n      tag_194\n        /* \"@goplugin/contracts/src/v0.4/vendor/CBOR.sol\":2967:2991  buf.append(bytes(value)) */\n      and\n      jump\t// in\n        /* \"@goplugin/contracts/src/v0.4/vendor/CBOR.sol\":1724:2169  function encodeInt(BufferPlugin.buffer memory buf, int value) internal pure {... */\n    tag_165:\n      not(0xffffffffffffffff)\n        /* \"@goplugin/contracts/src/v0.4/vendor/CBOR.sol\":1813:1818  value */\n      dup2\n        /* \"@goplugin/contracts/src/v0.4/vendor/CBOR.sol\":1813:1841  value < -0x10000000000000000 */\n      slt\n        /* \"@goplugin/contracts/src/v0.4/vendor/CBOR.sol\":1810:2163  if(value < -0x10000000000000000) {... */\n      iszero\n      tag_196\n      jumpi\n        /* \"@goplugin/contracts/src/v0.4/vendor/CBOR.sol\":1857:1887  encodeSignedBigNum(buf, value) */\n      tag_197\n        /* \"@goplugin/contracts/src/v0.4/vendor/CBOR.sol\":1876:1879  buf */\n      dup3\n        /* \"@goplugin/contracts/src/v0.4/vendor/CBOR.sol\":1881:1886  value */\n      dup3\n        /* \"@goplugin/contracts/src/v0.4/vendor/CBOR.sol\":1857:1875  encodeSignedBigNum */\n      tag_198\n        /* \"@goplugin/contracts/src/v0.4/vendor/CBOR.sol\":1857:1887  encodeSignedBigNum(buf, value) */\n      jump\t// in\n    tag_197:\n        /* \"@goplugin/contracts/src/v0.4/vendor/CBOR.sol\":1810:2163  if(value < -0x10000000000000000) {... */\n      jump(tag_207)\n    tag_196:\n        /* \"@goplugin/contracts/src/v0.4/vendor/CBOR.sol\":1915:1933  0xFFFFFFFFFFFFFFFF */\n      0xffffffffffffffff\n        /* \"@goplugin/contracts/src/v0.4/vendor/CBOR.sol\":1907:1912  value */\n      dup2\n        /* \"@goplugin/contracts/src/v0.4/vendor/CBOR.sol\":1907:1933  value > 0xFFFFFFFFFFFFFFFF */\n      sgt\n        /* \"@goplugin/contracts/src/v0.4/vendor/CBOR.sol\":1904:2163  if(value > 0xFFFFFFFFFFFFFFFF) {... */\n      iszero\n      tag_200\n      jumpi\n        /* \"@goplugin/contracts/src/v0.4/vendor/CBOR.sol\":1949:1973  encodeBigNum(buf, value) */\n      tag_197\n        /* \"@goplugin/contracts/src/v0.4/vendor/CBOR.sol\":1962:1965  buf */\n      dup3\n        /* \"@goplugin/contracts/src/v0.4/vendor/CBOR.sol\":1967:1972  value */\n      dup3\n        /* \"@goplugin/contracts/src/v0.4/vendor/CBOR.sol\":1949:1961  encodeBigNum */\n      tag_202\n        /* \"@goplugin/contracts/src/v0.4/vendor/CBOR.sol\":1949:1973  encodeBigNum(buf, value) */\n      jump\t// in\n        /* \"@goplugin/contracts/src/v0.4/vendor/CBOR.sol\":1904:2163  if(value > 0xFFFFFFFFFFFFFFFF) {... */\n    tag_200:\n        /* \"@goplugin/contracts/src/v0.4/vendor/CBOR.sol\":2002:2003  0 */\n      0x0\n        /* \"@goplugin/contracts/src/v0.4/vendor/CBOR.sol\":1993:2003  value >= 0 */\n      dup2\n      slt\n        /* \"@goplugin/contracts/src/v0.4/vendor/CBOR.sol\":1990:2163  if(value >= 0) {... */\n      tag_204\n      jumpi\n        /* \"@goplugin/contracts/src/v0.4/vendor/CBOR.sol\":2019:2063  encodeType(buf, MAJOR_TYPE_INT, uint(value)) */\n      tag_197\n        /* \"@goplugin/contracts/src/v0.4/vendor/CBOR.sol\":2030:2033  buf */\n      dup3\n        /* \"@goplugin/contracts/src/v0.4/vendor/CBOR.sol\":232:233  0 */\n      0x0\n        /* \"@goplugin/contracts/src/v0.4/vendor/CBOR.sol\":2056:2061  value */\n      dup4\n        /* \"@goplugin/contracts/src/v0.4/vendor/CBOR.sol\":2019:2029  encodeType */\n      tag_192\n        /* \"@goplugin/contracts/src/v0.4/vendor/CBOR.sol\":2019:2063  encodeType(buf, MAJOR_TYPE_INT, uint(value)) */\n      jump\t// in\n        /* \"@goplugin/contracts/src/v0.4/vendor/CBOR.sol\":1990:2163  if(value >= 0) {... */\n    tag_204:\n        /* \"@goplugin/contracts/src/v0.4/vendor/CBOR.sol\":2094:2152  encodeType(buf, MAJOR_TYPE_NEGATIVE_INT, uint(-1 - value)) */\n      tag_207\n        /* \"@goplugin/contracts/src/v0.4/vendor/CBOR.sol\":2105:2108  buf */\n      dup3\n        /* \"@goplugin/contracts/src/v0.4/vendor/CBOR.sol\":288:289  1 */\n      0x1\n        /* \"@goplugin/contracts/src/v0.4/vendor/CBOR.sol\":2145:2150  value */\n      dup4\n      not(0x0)\n        /* \"@goplugin/contracts/src/v0.4/vendor/CBOR.sol\":2140:2150  -1 - value */\n      sub\n        /* \"@goplugin/contracts/src/v0.4/vendor/CBOR.sol\":2094:2104  encodeType */\n      tag_192\n        /* \"@goplugin/contracts/src/v0.4/vendor/CBOR.sol\":2094:2152  encodeType(buf, MAJOR_TYPE_NEGATIVE_INT, uint(-1 - value)) */\n      jump\t// in\n    tag_207:\n        /* \"@goplugin/contracts/src/v0.4/vendor/CBOR.sol\":1724:2169  function encodeInt(BufferPlugin.buffer memory buf, int value) internal pure {... */\n      pop\n      pop\n      jump\t// out\n        /* \"@goplugin/contracts/src/v0.4/PluginClient.sol\":7293:7816  function encodeRequest(Plugin.Request memory _req)... */\n    tag_171:\n        /* \"@goplugin/contracts/src/v0.4/PluginClient.sol\":7686:7693  _req.id */\n      dup1\n      mload\n        /* \"@goplugin/contracts/src/v0.4/PluginClient.sol\":7701:7721  _req.callbackAddress */\n      0x20\n      dup1\n      dup4\n      add\n      mload\n        /* \"@goplugin/contracts/src/v0.4/PluginClient.sol\":7729:7752  _req.callbackFunctionId */\n      0x40\n      dup1\n      dup6\n      add\n      mload\n        /* \"@goplugin/contracts/src/v0.4/PluginClient.sol\":7378:7383  bytes */\n      0x60\n        /* \"@goplugin/contracts/src/v0.4/PluginClient.sol\":7760:7770  _req.nonce */\n      dup7\n      dup2\n      add\n      mload\n        /* \"@goplugin/contracts/src/v0.4/PluginClient.sol\":7798:7806  _req.buf */\n      0x80\n      dup9\n      add\n      mload\n        /* \"@goplugin/contracts/src/v0.4/PluginClient.sol\":7798:7810  _req.buf.buf */\n      mload\n        /* \"@goplugin/contracts/src/v0.4/PluginClient.sol\":7407:7811  abi.encodeWithSelector(... */\n      swap4\n      mload\n        /* \"@goplugin/contracts/src/v0.4/PluginClient.sol\":7437:7443  oracle */\n      0x0\n        /* \"@goplugin/contracts/src/v0.4/PluginClient.sol\":7407:7811  abi.encodeWithSelector(... */\n      0x24\n      dup3\n      add\n      dup2\n      dup2\n      mstore\n      0x44\n      dup4\n      add\n      dup3\n      swap1\n      mstore\n      0x64\n      dup4\n      add\n      dup11\n      swap1\n      mstore\n      sub(exp(0x2, 0xa0), 0x1)\n      dup9\n      and\n      0x84\n      dup5\n      add\n      mstore\n      not(sub(exp(0x2, 0xe0), 0x1))\n      dup7\n      and\n      0xa4\n      dup5\n      add\n      mstore\n      0xc4\n      dup4\n      add\n      dup5\n      swap1\n      mstore\n        /* \"@goplugin/contracts/src/v0.4/PluginClient.sol\":7437:7443  oracle */\n      0x1\n        /* \"@goplugin/contracts/src/v0.4/PluginClient.sol\":7407:7811  abi.encodeWithSelector(... */\n      0xe4\n      dup5\n      add\n      dup2\n      swap1\n      mstore\n        /* \"@goplugin/contracts/src/v0.4/PluginClient.sol\":7437:7443  oracle */\n      0x100\n        /* \"@goplugin/contracts/src/v0.4/PluginClient.sol\":7407:7811  abi.encodeWithSelector(... */\n      0x104\n      dup6\n      add\n      swap1\n      dup2\n      mstore\n      dup9\n      mload\n      0x124\n      dup7\n      add\n      mstore\n      dup9\n      mload\n        /* \"@goplugin/contracts/src/v0.4/PluginClient.sol\":7378:7383  bytes */\n      swap7\n      swap12\n        /* \"@goplugin/contracts/src/v0.4/PluginClient.sol\":7437:7466  oracle.oracleRequest.selector */\n      0x4042994600000000000000000000000000000000000000000000000000000000\n      swap12\n        /* \"@goplugin/contracts/src/v0.4/PluginClient.sol\":7437:7443  oracle */\n      swap5\n      swap11\n      dup12\n      swap11\n        /* \"@goplugin/contracts/src/v0.4/PluginClient.sol\":7686:7693  _req.id */\n      swap2\n      swap10\n        /* \"@goplugin/contracts/src/v0.4/PluginClient.sol\":7701:7721  _req.callbackAddress */\n      swap1\n      swap9\n        /* \"@goplugin/contracts/src/v0.4/PluginClient.sol\":7729:7752  _req.callbackFunctionId */\n      swap1\n      swap8\n        /* \"@goplugin/contracts/src/v0.4/PluginClient.sol\":7760:7770  _req.nonce */\n      swap7\n        /* \"@goplugin/contracts/src/v0.4/PluginClient.sol\":7437:7443  oracle */\n      swap4\n      swap6\n        /* \"@goplugin/contracts/src/v0.4/PluginClient.sol\":7798:7810  _req.buf.buf */\n      swap2\n      swap5\n        /* \"@goplugin/contracts/src/v0.4/PluginClient.sol\":7407:7811  abi.encodeWithSelector(... */\n      swap4\n      0x144\n      add\n      swap2\n      dup6\n      add\n      swap1\n      dup1\n      dup4\n      dup4\n        /* \"@goplugin/contracts/src/v0.4/PluginClient.sol\":7437:7443  oracle */\n      dup15\n        /* \"--CODEGEN--\":8:108   */\n    tag_209:\n        /* \"--CODEGEN--\":33:36   */\n      dup4\n        /* \"--CODEGEN--\":30:31   */\n      dup2\n        /* \"--CODEGEN--\":27:37   */\n      lt\n        /* \"--CODEGEN--\":8:108   */\n      iszero\n      tag_210\n      jumpi\n        /* \"--CODEGEN--\":90:101   */\n      dup2\n      dup2\n      add\n        /* \"--CODEGEN--\":84:102   */\n      mload\n        /* \"--CODEGEN--\":71:82   */\n      dup4\n      dup3\n      add\n        /* \"--CODEGEN--\":64:103   */\n      mstore\n        /* \"--CODEGEN--\":52:54   */\n      0x20\n        /* \"--CODEGEN--\":45:55   */\n      add\n        /* \"--CODEGEN--\":8:108   */\n      jump(tag_209)\n    tag_210:\n        /* \"--CODEGEN--\":12:26   */\n      pop\n        /* \"@goplugin/contracts/src/v0.4/PluginClient.sol\":7407:7811  abi.encodeWithSelector(... */\n      pop\n      pop\n      pop\n      swap1\n      pop\n      swap1\n      dup2\n      add\n      swap1\n      0x1f\n      and\n      dup1\n      iszero\n      tag_212\n      jumpi\n      dup1\n      dup3\n      sub\n      dup1\n      mload\n      0x1\n      dup4\n      0x20\n      sub\n      0x100\n      exp\n      sub\n      not\n      and\n      dup2\n      mstore\n      0x20\n      add\n      swap2\n      pop\n    tag_212:\n      pop\n      0x40\n      dup1\n      mload\n      not(0x1f)\n        /* \"--CODEGEN--\":26:47   */\n      dup2\n      dup5\n      sub\n        /* \"--CODEGEN--\":22:54   */\n      add\n        /* \"--CODEGEN--\":6:55   */\n      dup2\n      mstore\n        /* \"@goplugin/contracts/src/v0.4/PluginClient.sol\":7407:7811  abi.encodeWithSelector(... */\n      swap2\n      swap1\n      mstore\n        /* \"--CODEGEN--\":49:53   */\n      0x20\n        /* \"--CODEGEN--\":25:43   */\n      dup2\n      add\n        /* \"--CODEGEN--\":61:78   */\n      dup1\n      mload\n        /* \"@goplugin/contracts/src/v0.4/PluginClient.sol\":7407:7811  abi.encodeWithSelector(... */\n      0xffffffffffffffffffffffffffffffffffffffffffffffffffffffff\n        /* \"--CODEGEN--\":182:197   */\n      and\n      not(sub(exp(0x2, 0xe0), 0x1))\n        /* \"@goplugin/contracts/src/v0.4/PluginClient.sol\":7407:7811  abi.encodeWithSelector(... */\n      swap1\n      swap14\n      and\n        /* \"--CODEGEN--\":179:208   */\n      swap13\n      swap1\n      swap13\n      or\n        /* \"--CODEGEN--\":160:209   */\n      swap1\n      swap12\n      mstore\n      pop\n        /* \"@goplugin/contracts/src/v0.4/PluginClient.sol\":7407:7811  abi.encodeWithSelector(... */\n      swap9\n      swap10\n      pop\n      pop\n      pop\n      pop\n      pop\n      pop\n      pop\n      pop\n      pop\n      pop\n        /* \"@goplugin/contracts/src/v0.4/PluginClient.sol\":7293:7816  function encodeRequest(Plugin.Request memory _req)... */\n      swap2\n      swap1\n      pop\n      jump\t// out\n        /* \"@goplugin/contracts/src/v0.4/vendor/Buffer.sol\":942:1337  function init(buffer memory buf, uint capacity) internal pure returns(buffer memory) {... */\n    tag_189:\n        /* \"@goplugin/contracts/src/v0.4/vendor/Buffer.sol\":1012:1018  buffer */\n      tag_213\n      jump\t// in(tag_214)\n    tag_213:\n        /* \"@goplugin/contracts/src/v0.4/vendor/Buffer.sol\":1048:1050  32 */\n      0x20\n        /* \"@goplugin/contracts/src/v0.4/vendor/Buffer.sol\":1037:1045  capacity */\n      dup3\n        /* \"@goplugin/contracts/src/v0.4/vendor/Buffer.sol\":1037:1050  capacity % 32 */\n      mod\n        /* \"@goplugin/contracts/src/v0.4/vendor/Buffer.sol\":1037:1055  capacity % 32 != 0 */\n      iszero\n        /* \"@goplugin/contracts/src/v0.4/vendor/Buffer.sol\":1033:1104  if (capacity % 32 != 0) {... */\n      tag_217\n      jumpi\n        /* \"@goplugin/contracts/src/v0.4/vendor/Buffer.sol\":1094:1096  32 */\n      0x20\n        /* \"@goplugin/contracts/src/v0.4/vendor/Buffer.sol\":1083:1091  capacity */\n      dup3\n        /* \"@goplugin/contracts/src/v0.4/vendor/Buffer.sol\":1083:1096  capacity % 32 */\n      mod\n        /* \"@goplugin/contracts/src/v0.4/vendor/Buffer.sol\":1077:1079  32 */\n      0x20\n        /* \"@goplugin/contracts/src/v0.4/vendor/Buffer.sol\":1077:1097  32 - (capacity % 32) */\n      sub\n        /* \"@goplugin/contracts/src/v0.4/vendor/Buffer.sol\":1065:1097  capacity += 32 - (capacity % 32) */\n      dup3\n      add\n      swap2\n      pop\n        /* \"@goplugin/contracts/src/v0.4/vendor/Buffer.sol\":1033:1104  if (capacity % 32 != 0) {... */\n    tag_217:\n      pop\n        /* \"@goplugin/contracts/src/v0.4/vendor/Buffer.sol\":1151:1163  buf.capacity */\n      0x20\n      dup1\n      dup4\n      add\n        /* \"@goplugin/contracts/src/v0.4/vendor/Buffer.sol\":1151:1174  buf.capacity = capacity */\n      dup3\n      swap1\n      mstore\n        /* \"@goplugin/contracts/src/v0.4/vendor/Buffer.sol\":1214:1218  0x40 */\n      0x40\n        /* \"@goplugin/contracts/src/v0.4/vendor/Buffer.sol\":1208:1219  mload(0x40) */\n      dup1\n      mload\n        /* \"@goplugin/contracts/src/v0.4/vendor/Buffer.sol\":1226:1242  mstore(buf, ptr) */\n      dup1\n      dup6\n      mstore\n      0x0\n        /* \"@goplugin/contracts/src/v0.4/vendor/Buffer.sol\":1249:1263  mstore(ptr, 0) */\n      dup2\n      mstore\n        /* \"@goplugin/contracts/src/v0.4/vendor/Buffer.sol\":1291:1309  add(ptr, capacity) */\n      dup4\n      add\n        /* \"@goplugin/contracts/src/v0.4/vendor/Buffer.sol\":1283:1310  add(32, add(ptr, capacity)) */\n      swap1\n      swap2\n      add\n        /* \"@goplugin/contracts/src/v0.4/vendor/Buffer.sol\":1270:1311  mstore(0x40, add(32, add(ptr, capacity))) */\n      swap1\n      mstore\n        /* \"@goplugin/contracts/src/v0.4/vendor/Buffer.sol\":1151:1154  buf */\n      dup2\n        /* \"@goplugin/contracts/src/v0.4/vendor/Buffer.sol\":942:1337  function init(buffer memory buf, uint capacity) internal pure returns(buffer memory) {... */\n    tag_215:\n      swap3\n      swap2\n      pop\n      pop\n      jump\t// out\n        /* \"@goplugin/contracts/src/v0.4/vendor/CBOR.sol\":700:1421  function encodeType(BufferPlugin.buffer memory buf, uint8 major, uint value) private pure {... */\n    tag_192:\n        /* \"@goplugin/contracts/src/v0.4/vendor/CBOR.sol\":812:814  23 */\n      0x17\n        /* \"@goplugin/contracts/src/v0.4/vendor/CBOR.sol\":803:814  value <= 23 */\n      dup2\n      gt\n        /* \"@goplugin/contracts/src/v0.4/vendor/CBOR.sol\":800:1415  if(value <= 23) {... */\n      tag_220\n      jumpi\n        /* \"@goplugin/contracts/src/v0.4/vendor/CBOR.sol\":830:874  buf.appendUint8(uint8((major << 5) | value)) */\n      tag_221\n        /* \"@goplugin/contracts/src/v0.4/vendor/CBOR.sol\":830:833  buf */\n      dup4\n        /* \"@goplugin/contracts/src/v0.4/vendor/CBOR.sol\":853:863  major << 5 */\n      0xff\n      dup5\n      dup2\n      and\n      0x20\n      mul\n        /* \"@goplugin/contracts/src/v0.4/vendor/CBOR.sol\":852:872  (major << 5) | value */\n      and\n      dup4\n      or\n        /* \"@goplugin/contracts/src/v0.4/vendor/CBOR.sol\":830:845  buf.appendUint8 */\n      tag_222\n        /* \"@goplugin/contracts/src/v0.4/vendor/CBOR.sol\":830:874  buf.appendUint8(uint8((major << 5) | value)) */\n      jump\t// in\n    tag_221:\n      pop\n        /* \"@goplugin/contracts/src/v0.4/vendor/CBOR.sol\":800:1415  if(value <= 23) {... */\n      jump(tag_161)\n    tag_220:\n        /* \"@goplugin/contracts/src/v0.4/vendor/CBOR.sol\":903:907  0xFF */\n      0xff\n        /* \"@goplugin/contracts/src/v0.4/vendor/CBOR.sol\":894:907  value <= 0xFF */\n      dup2\n      gt\n        /* \"@goplugin/contracts/src/v0.4/vendor/CBOR.sol\":891:1415  if(value <= 0xFF) {... */\n      tag_224\n      jumpi\n        /* \"@goplugin/contracts/src/v0.4/vendor/CBOR.sol\":923:964  buf.appendUint8(uint8((major << 5) | 24)) */\n      tag_225\n        /* \"@goplugin/contracts/src/v0.4/vendor/CBOR.sol\":923:926  buf */\n      dup4\n        /* \"@goplugin/contracts/src/v0.4/vendor/CBOR.sol\":960:962  24 */\n      0x18\n        /* \"@goplugin/contracts/src/v0.4/vendor/CBOR.sol\":946:956  major << 5 */\n      0x20\n      0xff\n      dup7\n      and\n      mul\n        /* \"@goplugin/contracts/src/v0.4/vendor/CBOR.sol\":945:962  (major << 5) | 24 */\n      or\n        /* \"@goplugin/contracts/src/v0.4/vendor/CBOR.sol\":923:964  buf.appendUint8(uint8((major << 5) | 24)) */\n      0xffffffff\n        /* \"@goplugin/contracts/src/v0.4/vendor/CBOR.sol\":923:938  buf.appendUint8 */\n      tag_222\n        /* \"@goplugin/contracts/src/v0.4/vendor/CBOR.sol\":923:964  buf.appendUint8(uint8((major << 5) | 24)) */\n      and\n      jump\t// in\n    tag_225:\n      pop\n        /* \"@goplugin/contracts/src/v0.4/vendor/CBOR.sol\":978:1001  buf.appendInt(value, 1) */\n      tag_221\n        /* \"@goplugin/contracts/src/v0.4/vendor/CBOR.sol\":978:981  buf */\n      dup4\n        /* \"@goplugin/contracts/src/v0.4/vendor/CBOR.sol\":992:997  value */\n      dup3\n        /* \"@goplugin/contracts/src/v0.4/vendor/CBOR.sol\":999:1000  1 */\n      0x1\n        /* \"@goplugin/contracts/src/v0.4/vendor/CBOR.sol\":978:1001  buf.appendInt(value, 1) */\n      0xffffffff\n        /* \"@goplugin/contracts/src/v0.4/vendor/CBOR.sol\":978:991  buf.appendInt */\n      tag_227\n        /* \"@goplugin/contracts/src/v0.4/vendor/CBOR.sol\":978:1001  buf.appendInt(value, 1) */\n      and\n      jump\t// in\n        /* \"@goplugin/contracts/src/v0.4/vendor/CBOR.sol\":891:1415  if(value <= 0xFF) {... */\n    tag_224:\n        /* \"@goplugin/contracts/src/v0.4/vendor/CBOR.sol\":1030:1036  0xFFFF */\n      0xffff\n        /* \"@goplugin/contracts/src/v0.4/vendor/CBOR.sol\":1021:1036  value <= 0xFFFF */\n      dup2\n      gt\n        /* \"@goplugin/contracts/src/v0.4/vendor/CBOR.sol\":1018:1415  if(value <= 0xFFFF) {... */\n      tag_229\n      jumpi\n        /* \"@goplugin/contracts/src/v0.4/vendor/CBOR.sol\":1052:1093  buf.appendUint8(uint8((major << 5) | 25)) */\n      tag_230\n        /* \"@goplugin/contracts/src/v0.4/vendor/CBOR.sol\":1052:1055  buf */\n      dup4\n        /* \"@goplugin/contracts/src/v0.4/vendor/CBOR.sol\":1089:1091  25 */\n      0x19\n        /* \"@goplugin/contracts/src/v0.4/vendor/CBOR.sol\":1075:1085  major << 5 */\n      0x20\n      0xff\n      dup7\n      and\n      mul\n        /* \"@goplugin/contracts/src/v0.4/vendor/CBOR.sol\":1074:1091  (major << 5) | 25 */\n      or\n        /* \"@goplugin/contracts/src/v0.4/vendor/CBOR.sol\":1052:1093  buf.appendUint8(uint8((major << 5) | 25)) */\n      0xffffffff\n        /* \"@goplugin/contracts/src/v0.4/vendor/CBOR.sol\":1052:1067  buf.appendUint8 */\n      tag_222\n        /* \"@goplugin/contracts/src/v0.4/vendor/CBOR.sol\":1052:1093  buf.appendUint8(uint8((major << 5) | 25)) */\n      and\n      jump\t// in\n    tag_230:\n      pop\n        /* \"@goplugin/contracts/src/v0.4/vendor/CBOR.sol\":1107:1130  buf.appendInt(value, 2) */\n      tag_221\n        /* \"@goplugin/contracts/src/v0.4/vendor/CBOR.sol\":1107:1110  buf */\n      dup4\n        /* \"@goplugin/contracts/src/v0.4/vendor/CBOR.sol\":1121:1126  value */\n      dup3\n        /* \"@goplugin/contracts/src/v0.4/vendor/CBOR.sol\":1128:1129  2 */\n      0x2\n        /* \"@goplugin/contracts/src/v0.4/vendor/CBOR.sol\":1107:1130  buf.appendInt(value, 2) */\n      0xffffffff\n        /* \"@goplugin/contracts/src/v0.4/vendor/CBOR.sol\":1107:1120  buf.appendInt */\n      tag_227\n        /* \"@goplugin/contracts/src/v0.4/vendor/CBOR.sol\":1107:1130  buf.appendInt(value, 2) */\n      and\n      jump\t// in\n        /* \"@goplugin/contracts/src/v0.4/vendor/CBOR.sol\":1018:1415  if(value <= 0xFFFF) {... */\n    tag_229:\n        /* \"@goplugin/contracts/src/v0.4/vendor/CBOR.sol\":1159:1169  0xFFFFFFFF */\n      0xffffffff\n        /* \"@goplugin/contracts/src/v0.4/vendor/CBOR.sol\":1150:1169  value <= 0xFFFFFFFF */\n      dup2\n      gt\n        /* \"@goplugin/contracts/src/v0.4/vendor/CBOR.sol\":1147:1415  if(value <= 0xFFFFFFFF) {... */\n      tag_233\n      jumpi\n        /* \"@goplugin/contracts/src/v0.4/vendor/CBOR.sol\":1185:1226  buf.appendUint8(uint8((major << 5) | 26)) */\n      tag_234\n        /* \"@goplugin/contracts/src/v0.4/vendor/CBOR.sol\":1185:1188  buf */\n      dup4\n        /* \"@goplugin/contracts/src/v0.4/vendor/CBOR.sol\":1222:1224  26 */\n      0x1a\n        /* \"@goplugin/contracts/src/v0.4/vendor/CBOR.sol\":1208:1218  major << 5 */\n      0x20\n      0xff\n      dup7\n      and\n      mul\n        /* \"@goplugin/contracts/src/v0.4/vendor/CBOR.sol\":1207:1224  (major << 5) | 26 */\n      or\n        /* \"@goplugin/contracts/src/v0.4/vendor/CBOR.sol\":1185:1226  buf.appendUint8(uint8((major << 5) | 26)) */\n      0xffffffff\n        /* \"@goplugin/contracts/src/v0.4/vendor/CBOR.sol\":1185:1200  buf.appendUint8 */\n      tag_222\n        /* \"@goplugin/contracts/src/v0.4/vendor/CBOR.sol\":1185:1226  buf.appendUint8(uint8((major << 5) | 26)) */\n      and\n      jump\t// in\n    tag_234:\n      pop\n        /* \"@goplugin/contracts/src/v0.4/vendor/CBOR.sol\":1240:1263  buf.appendInt(value, 4) */\n      tag_221\n        /* \"@goplugin/contracts/src/v0.4/vendor/CBOR.sol\":1240:1243  buf */\n      dup4\n        /* \"@goplugin/contracts/src/v0.4/vendor/CBOR.sol\":1254:1259  value */\n      dup3\n        /* \"@goplugin/contracts/src/v0.4/vendor/CBOR.sol\":1261:1262  4 */\n      0x4\n        /* \"@goplugin/contracts/src/v0.4/vendor/CBOR.sol\":1240:1263  buf.appendInt(value, 4) */\n      0xffffffff\n        /* \"@goplugin/contracts/src/v0.4/vendor/CBOR.sol\":1240:1253  buf.appendInt */\n      tag_227\n        /* \"@goplugin/contracts/src/v0.4/vendor/CBOR.sol\":1240:1263  buf.appendInt(value, 4) */\n      and\n      jump\t// in\n        /* \"@goplugin/contracts/src/v0.4/vendor/CBOR.sol\":1147:1415  if(value <= 0xFFFFFFFF) {... */\n    tag_233:\n        /* \"@goplugin/contracts/src/v0.4/vendor/CBOR.sol\":1292:1310  0xFFFFFFFFFFFFFFFF */\n      0xffffffffffffffff\n        /* \"@goplugin/contracts/src/v0.4/vendor/CBOR.sol\":1283:1310  value <= 0xFFFFFFFFFFFFFFFF */\n      dup2\n      gt\n        /* \"@goplugin/contracts/src/v0.4/vendor/CBOR.sol\":1280:1415  if(value <= 0xFFFFFFFFFFFFFFFF) {... */\n      tag_161\n      jumpi\n        /* \"@goplugin/contracts/src/v0.4/vendor/CBOR.sol\":1326:1367  buf.appendUint8(uint8((major << 5) | 27)) */\n      tag_238\n        /* \"@goplugin/contracts/src/v0.4/vendor/CBOR.sol\":1326:1329  buf */\n      dup4\n        /* \"@goplugin/contracts/src/v0.4/vendor/CBOR.sol\":1363:1365  27 */\n      0x1b\n        /* \"@goplugin/contracts/src/v0.4/vendor/CBOR.sol\":1349:1359  major << 5 */\n      0x20\n      0xff\n      dup7\n      and\n      mul\n        /* \"@goplugin/contracts/src/v0.4/vendor/CBOR.sol\":1348:1365  (major << 5) | 27 */\n      or\n        /* \"@goplugin/contracts/src/v0.4/vendor/CBOR.sol\":1326:1367  buf.appendUint8(uint8((major << 5) | 27)) */\n      0xffffffff\n        /* \"@goplugin/contracts/src/v0.4/vendor/CBOR.sol\":1326:1341  buf.appendUint8 */\n      tag_222\n        /* \"@goplugin/contracts/src/v0.4/vendor/CBOR.sol\":1326:1367  buf.appendUint8(uint8((major << 5) | 27)) */\n      and\n      jump\t// in\n    tag_238:\n      pop\n        /* \"@goplugin/contracts/src/v0.4/vendor/CBOR.sol\":1381:1404  buf.appendInt(value, 8) */\n      tag_144\n        /* \"@goplugin/contracts/src/v0.4/vendor/CBOR.sol\":1381:1384  buf */\n      dup4\n        /* \"@goplugin/contracts/src/v0.4/vendor/CBOR.sol\":1395:1400  value */\n      dup3\n        /* \"@goplugin/contracts/src/v0.4/vendor/CBOR.sol\":1402:1403  8 */\n      0x8\n        /* \"@goplugin/contracts/src/v0.4/vendor/CBOR.sol\":1381:1404  buf.appendInt(value, 8) */\n      0xffffffff\n        /* \"@goplugin/contracts/src/v0.4/vendor/CBOR.sol\":1381:1394  buf.appendInt */\n      tag_227\n        /* \"@goplugin/contracts/src/v0.4/vendor/CBOR.sol\":1381:1404  buf.appendInt(value, 8) */\n      and\n      jump\t// in\n        /* \"@goplugin/contracts/src/v0.4/vendor/Buffer.sol\":4496:4651  function append(buffer memory buf, bytes memory data) internal pure returns (buffer memory) {... */\n    tag_194:\n        /* \"@goplugin/contracts/src/v0.4/vendor/Buffer.sol\":4573:4579  buffer */\n      tag_240\n      jump\t// in(tag_214)\n    tag_240:\n        /* \"@goplugin/contracts/src/v0.4/vendor/Buffer.sol\":4601:4646  write(buf, buf.buf.length, data, data.length) */\n      tag_242\n        /* \"@goplugin/contracts/src/v0.4/vendor/Buffer.sol\":4607:4610  buf */\n      dup4\n        /* \"@goplugin/contracts/src/v0.4/vendor/Buffer.sol\":4612:4615  buf */\n      dup5\n        /* \"@goplugin/contracts/src/v0.4/vendor/Buffer.sol\":4612:4619  buf.buf */\n      0x0\n      add\n      mload\n        /* \"@goplugin/contracts/src/v0.4/vendor/Buffer.sol\":4612:4626  buf.buf.length */\n      mload\n        /* \"@goplugin/contracts/src/v0.4/vendor/Buffer.sol\":4628:4632  data */\n      dup5\n        /* \"@goplugin/contracts/src/v0.4/vendor/Buffer.sol\":4634:4638  data */\n      dup6\n        /* \"@goplugin/contracts/src/v0.4/vendor/Buffer.sol\":4634:4645  data.length */\n      mload\n        /* \"@goplugin/contracts/src/v0.4/vendor/Buffer.sol\":4601:4606  write */\n      tag_243\n        /* \"@goplugin/contracts/src/v0.4/vendor/Buffer.sol\":4601:4646  write(buf, buf.buf.length, data, data.length) */\n      jump\t// in\n    tag_242:\n        /* \"@goplugin/contracts/src/v0.4/vendor/Buffer.sol\":4594:4646  return write(buf, buf.buf.length, data, data.length) */\n      swap4\n        /* \"@goplugin/contracts/src/v0.4/vendor/Buffer.sol\":4496:4651  function append(buffer memory buf, bytes memory data) internal pure returns (buffer memory) {... */\n      swap3\n      pop\n      pop\n      pop\n      jump\t// out\n        /* \"@goplugin/contracts/src/v0.4/vendor/CBOR.sol\":2571:2797  function encodeSignedBigNum(BufferPlugin.buffer memory buf, int input) internal pure {... */\n    tag_198:\n        /* \"@goplugin/contracts/src/v0.4/vendor/CBOR.sol\":2664:2736  buf.appendUint8(uint8((MAJOR_TYPE_TAG << 5) | TAG_TYPE_NEGATIVE_BIGNUM)) */\n      tag_245\n        /* \"@goplugin/contracts/src/v0.4/vendor/CBOR.sol\":2664:2667  buf */\n      dup3\n        /* \"@goplugin/contracts/src/v0.4/vendor/CBOR.sol\":2686:2734  (MAJOR_TYPE_TAG << 5) | TAG_TYPE_NEGATIVE_BIGNUM */\n      0xc3\n        /* \"@goplugin/contracts/src/v0.4/vendor/CBOR.sol\":2664:2736  buf.appendUint8(uint8((MAJOR_TYPE_TAG << 5) | TAG_TYPE_NEGATIVE_BIGNUM)) */\n      0xffffffff\n        /* \"@goplugin/contracts/src/v0.4/vendor/CBOR.sol\":2664:2679  buf.appendUint8 */\n      tag_222\n        /* \"@goplugin/contracts/src/v0.4/vendor/CBOR.sol\":2664:2736  buf.appendUint8(uint8((MAJOR_TYPE_TAG << 5) | TAG_TYPE_NEGATIVE_BIGNUM)) */\n      and\n      jump\t// in\n    tag_245:\n      pop\n        /* \"@goplugin/contracts/src/v0.4/vendor/CBOR.sol\":2744:2790  encodeBytes(buf, abi.encode(uint(-1 - input))) */\n      tag_207\n        /* \"@goplugin/contracts/src/v0.4/vendor/CBOR.sol\":2756:2759  buf */\n      dup3\n        /* \"@goplugin/contracts/src/v0.4/vendor/CBOR.sol\":2782:2787  input */\n      dup3\n      not(0x0)\n        /* \"@goplugin/contracts/src/v0.4/vendor/CBOR.sol\":2777:2787  -1 - input */\n      sub\n        /* \"@goplugin/contracts/src/v0.4/vendor/CBOR.sol\":2761:2789  abi.encode(uint(-1 - input)) */\n      add(0x20, mload(0x40))\n      dup1\n      dup3\n      dup2\n      mstore\n      0x20\n      add\n      swap2\n      pop\n      pop\n      mload(0x40)\n        /* \"--CODEGEN--\":49:53   */\n      0x20\n        /* \"--CODEGEN--\":39:46   */\n      dup2\n        /* \"--CODEGEN--\":30:37   */\n      dup4\n        /* \"--CODEGEN--\":26:47   */\n      sub\n        /* \"--CODEGEN--\":22:54   */\n      sub\n        /* \"--CODEGEN--\":13:20   */\n      dup2\n        /* \"--CODEGEN--\":6:55   */\n      mstore\n        /* \"@goplugin/contracts/src/v0.4/vendor/CBOR.sol\":2761:2789  abi.encode(uint(-1 - input)) */\n      swap1\n      0x40\n      mstore\n        /* \"@goplugin/contracts/src/v0.4/vendor/CBOR.sol\":2744:2755  encodeBytes */\n      tag_247\n        /* \"@goplugin/contracts/src/v0.4/vendor/CBOR.sol\":2744:2790  encodeBytes(buf, abi.encode(uint(-1 - input))) */\n      jump\t// in\n        /* \"@goplugin/contracts/src/v0.4/vendor/CBOR.sol\":2359:2565  function encodeBigNum(BufferPlugin.buffer memory buf, int value) internal pure {... */\n    tag_202:\n        /* \"@goplugin/contracts/src/v0.4/vendor/CBOR.sol\":2446:2509  buf.appendUint8(uint8((MAJOR_TYPE_TAG << 5) | TAG_TYPE_BIGNUM)) */\n      tag_249\n        /* \"@goplugin/contracts/src/v0.4/vendor/CBOR.sol\":2446:2449  buf */\n      dup3\n        /* \"@goplugin/contracts/src/v0.4/vendor/CBOR.sol\":2468:2507  (MAJOR_TYPE_TAG << 5) | TAG_TYPE_BIGNUM */\n      0xc2\n        /* \"@goplugin/contracts/src/v0.4/vendor/CBOR.sol\":2446:2509  buf.appendUint8(uint8((MAJOR_TYPE_TAG << 5) | TAG_TYPE_BIGNUM)) */\n      0xffffffff\n        /* \"@goplugin/contracts/src/v0.4/vendor/CBOR.sol\":2446:2461  buf.appendUint8 */\n      tag_222\n        /* \"@goplugin/contracts/src/v0.4/vendor/CBOR.sol\":2446:2509  buf.appendUint8(uint8((MAJOR_TYPE_TAG << 5) | TAG_TYPE_BIGNUM)) */\n      and\n      jump\t// in\n    tag_249:\n      pop\n        /* \"@goplugin/contracts/src/v0.4/vendor/CBOR.sol\":2517:2558  encodeBytes(buf, abi.encode(uint(value))) */\n      tag_207\n        /* \"@goplugin/contracts/src/v0.4/vendor/CBOR.sol\":2529:2532  buf */\n      dup3\n        /* \"@goplugin/contracts/src/v0.4/vendor/CBOR.sol\":2550:2555  value */\n      dup3\n        /* \"@goplugin/contracts/src/v0.4/vendor/CBOR.sol\":2534:2557  abi.encode(uint(value)) */\n      add(0x20, mload(0x40))\n      dup1\n      dup3\n      dup2\n      mstore\n      0x20\n      add\n      swap2\n      pop\n      pop\n      mload(0x40)\n        /* \"--CODEGEN--\":49:53   */\n      0x20\n        /* \"--CODEGEN--\":39:46   */\n      dup2\n        /* \"--CODEGEN--\":30:37   */\n      dup4\n        /* \"--CODEGEN--\":26:47   */\n      sub\n        /* \"--CODEGEN--\":22:54   */\n      sub\n        /* \"--CODEGEN--\":13:20   */\n      dup2\n        /* \"--CODEGEN--\":6:55   */\n      mstore\n        /* \"@goplugin/contracts/src/v0.4/vendor/CBOR.sol\":2534:2557  abi.encode(uint(value)) */\n      swap1\n      0x40\n      mstore\n        /* \"@goplugin/contracts/src/v0.4/vendor/CBOR.sol\":2517:2528  encodeBytes */\n      tag_247\n        /* \"@goplugin/contracts/src/v0.4/vendor/CBOR.sol\":2517:2558  encodeBytes(buf, abi.encode(uint(value))) */\n      jump\t// in\n        /* \"@goplugin/contracts/src/v0.4/vendor/Buffer.sol\":5811:5955  function appendUint8(buffer memory buf, uint8 data) internal pure returns(buffer memory) {... */\n    tag_222:\n        /* \"@goplugin/contracts/src/v0.4/vendor/Buffer.sol\":5885:5891  buffer */\n      tag_251\n      jump\t// in(tag_214)\n    tag_251:\n        /* \"@goplugin/contracts/src/v0.4/vendor/Buffer.sol\":5913:5950  writeUint8(buf, buf.buf.length, data) */\n      tag_242\n        /* \"@goplugin/contracts/src/v0.4/vendor/Buffer.sol\":5924:5927  buf */\n      dup4\n        /* \"@goplugin/contracts/src/v0.4/vendor/Buffer.sol\":5929:5932  buf */\n      dup5\n        /* \"@goplugin/contracts/src/v0.4/vendor/Buffer.sol\":5929:5936  buf.buf */\n      0x0\n      add\n      mload\n        /* \"@goplugin/contracts/src/v0.4/vendor/Buffer.sol\":5929:5943  buf.buf.length */\n      mload\n        /* \"@goplugin/contracts/src/v0.4/vendor/Buffer.sol\":5945:5949  data */\n      dup5\n        /* \"@goplugin/contracts/src/v0.4/vendor/Buffer.sol\":5913:5923  writeUint8 */\n      tag_254\n        /* \"@goplugin/contracts/src/v0.4/vendor/Buffer.sol\":5913:5950  writeUint8(buf, buf.buf.length, data) */\n      jump\t// in\n        /* \"@goplugin/contracts/src/v0.4/vendor/Buffer.sol\":9497:9651  function appendInt(buffer memory buf, uint data, uint len) internal pure returns(buffer memory) {... */\n    tag_227:\n        /* \"@goplugin/contracts/src/v0.4/vendor/Buffer.sol\":9578:9584  buffer */\n      tag_255\n      jump\t// in(tag_214)\n    tag_255:\n        /* \"@goplugin/contracts/src/v0.4/vendor/Buffer.sol\":9606:9646  writeInt(buf, buf.buf.length, data, len) */\n      tag_257\n        /* \"@goplugin/contracts/src/v0.4/vendor/Buffer.sol\":9615:9618  buf */\n      dup5\n        /* \"@goplugin/contracts/src/v0.4/vendor/Buffer.sol\":9620:9623  buf */\n      dup6\n        /* \"@goplugin/contracts/src/v0.4/vendor/Buffer.sol\":9620:9627  buf.buf */\n      0x0\n      add\n      mload\n        /* \"@goplugin/contracts/src/v0.4/vendor/Buffer.sol\":9620:9634  buf.buf.length */\n      mload\n        /* \"@goplugin/contracts/src/v0.4/vendor/Buffer.sol\":9636:9640  data */\n      dup6\n        /* \"@goplugin/contracts/src/v0.4/vendor/Buffer.sol\":9642:9645  len */\n      dup6\n        /* \"@goplugin/contracts/src/v0.4/vendor/Buffer.sol\":9606:9614  writeInt */\n      tag_258\n        /* \"@goplugin/contracts/src/v0.4/vendor/Buffer.sol\":9606:9646  writeInt(buf, buf.buf.length, data, len) */\n      jump\t// in\n    tag_257:\n        /* \"@goplugin/contracts/src/v0.4/vendor/Buffer.sol\":9599:9646  return writeInt(buf, buf.buf.length, data, len) */\n      swap5\n        /* \"@goplugin/contracts/src/v0.4/vendor/Buffer.sol\":9497:9651  function appendInt(buffer memory buf, uint data, uint len) internal pure returns(buffer memory) {... */\n      swap4\n      pop\n      pop\n      pop\n      pop\n      jump\t// out\n        /* \"@goplugin/contracts/src/v0.4/vendor/Buffer.sol\":2651:3791  function write(buffer memory buf, uint off, bytes memory data, uint len) internal pure returns(buffer memory) {... */\n    tag_243:\n        /* \"@goplugin/contracts/src/v0.4/vendor/Buffer.sol\":2746:2752  buffer */\n      tag_259\n      jump\t// in(tag_214)\n    tag_259:\n        /* \"@goplugin/contracts/src/v0.4/vendor/Buffer.sol\":2897:2906  uint dest */\n      0x0\n        /* \"@goplugin/contracts/src/v0.4/vendor/Buffer.sol\":2912:2920  uint src */\n      dup1\n        /* \"@goplugin/contracts/src/v0.4/vendor/Buffer.sol\":3580:3589  uint mask */\n      0x0\n        /* \"@goplugin/contracts/src/v0.4/vendor/Buffer.sol\":2782:2786  data */\n      dup6\n        /* \"@goplugin/contracts/src/v0.4/vendor/Buffer.sol\":2782:2793  data.length */\n      mload\n        /* \"@goplugin/contracts/src/v0.4/vendor/Buffer.sol\":2775:2778  len */\n      dup6\n        /* \"@goplugin/contracts/src/v0.4/vendor/Buffer.sol\":2775:2793  len <= data.length */\n      gt\n      iszero\n        /* \"@goplugin/contracts/src/v0.4/vendor/Buffer.sol\":2767:2794  require(len <= data.length) */\n      iszero\n      iszero\n      tag_261\n      jumpi\n      0x0\n      dup1\n      revert\n    tag_261:\n        /* \"@goplugin/contracts/src/v0.4/vendor/Buffer.sol\":2817:2820  buf */\n      dup8\n        /* \"@goplugin/contracts/src/v0.4/vendor/Buffer.sol\":2817:2829  buf.capacity */\n      0x20\n      add\n      mload\n        /* \"@goplugin/contracts/src/v0.4/vendor/Buffer.sol\":2811:2814  len */\n      dup6\n        /* \"@goplugin/contracts/src/v0.4/vendor/Buffer.sol\":2805:2808  off */\n      dup9\n        /* \"@goplugin/contracts/src/v0.4/vendor/Buffer.sol\":2805:2814  off + len */\n      add\n        /* \"@goplugin/contracts/src/v0.4/vendor/Buffer.sol\":2805:2829  off + len > buf.capacity */\n      gt\n        /* \"@goplugin/contracts/src/v0.4/vendor/Buffer.sol\":2801:2891  if (off + len > buf.capacity) {... */\n      iszero\n      tag_263\n      jumpi\n        /* \"@goplugin/contracts/src/v0.4/vendor/Buffer.sol\":2839:2884  resize(buf, max(buf.capacity, len + off) * 2) */\n      tag_263\n        /* \"@goplugin/contracts/src/v0.4/vendor/Buffer.sol\":2846:2849  buf */\n      dup9\n        /* \"@goplugin/contracts/src/v0.4/vendor/Buffer.sol\":2851:2879  max(buf.capacity, len + off) */\n      tag_264\n        /* \"@goplugin/contracts/src/v0.4/vendor/Buffer.sol\":2855:2858  buf */\n      dup11\n        /* \"@goplugin/contracts/src/v0.4/vendor/Buffer.sol\":2855:2867  buf.capacity */\n      0x20\n      add\n      mload\n        /* \"@goplugin/contracts/src/v0.4/vendor/Buffer.sol\":2875:2878  off */\n      dup11\n        /* \"@goplugin/contracts/src/v0.4/vendor/Buffer.sol\":2869:2872  len */\n      dup10\n        /* \"@goplugin/contracts/src/v0.4/vendor/Buffer.sol\":2869:2878  len + off */\n      add\n        /* \"@goplugin/contracts/src/v0.4/vendor/Buffer.sol\":2851:2854  max */\n      tag_265\n        /* \"@goplugin/contracts/src/v0.4/vendor/Buffer.sol\":2851:2879  max(buf.capacity, len + off) */\n      jump\t// in\n    tag_264:\n        /* \"@goplugin/contracts/src/v0.4/vendor/Buffer.sol\":2882:2883  2 */\n      0x2\n        /* \"@goplugin/contracts/src/v0.4/vendor/Buffer.sol\":2851:2883  max(buf.capacity, len + off) * 2 */\n      mul\n        /* \"@goplugin/contracts/src/v0.4/vendor/Buffer.sol\":2839:2845  resize */\n      tag_266\n        /* \"@goplugin/contracts/src/v0.4/vendor/Buffer.sol\":2839:2884  resize(buf, max(buf.capacity, len + off) * 2) */\n      jump\t// in\n    tag_263:\n        /* \"@goplugin/contracts/src/v0.4/vendor/Buffer.sol\":3006:3009  buf */\n      dup8\n        /* \"@goplugin/contracts/src/v0.4/vendor/Buffer.sol\":3000:3010  mload(buf) */\n      mload\n        /* \"@goplugin/contracts/src/v0.4/vendor/Buffer.sol\":3077:3083  bufptr */\n      dup1\n        /* \"@goplugin/contracts/src/v0.4/vendor/Buffer.sol\":3071:3084  mload(bufptr) */\n      mload\n        /* \"@goplugin/contracts/src/v0.4/vendor/Buffer.sol\":3193:3196  off */\n      dup9\n        /* \"@goplugin/contracts/src/v0.4/vendor/Buffer.sol\":3188:3190  32 */\n      0x20\n        /* \"@goplugin/contracts/src/v0.4/vendor/Buffer.sol\":3180:3186  bufptr */\n      dup4\n        /* \"@goplugin/contracts/src/v0.4/vendor/Buffer.sol\":3176:3191  add(bufptr, 32) */\n      add\n        /* \"@goplugin/contracts/src/v0.4/vendor/Buffer.sol\":3172:3197  add(add(bufptr, 32), off) */\n      add\n        /* \"@goplugin/contracts/src/v0.4/vendor/Buffer.sol\":3164:3197  dest := add(add(bufptr, 32), off) */\n      swap5\n      pop\n        /* \"@goplugin/contracts/src/v0.4/vendor/Buffer.sol\":3277:3283  buflen */\n      dup1\n        /* \"@goplugin/contracts/src/v0.4/vendor/Buffer.sol\":3271:3274  off */\n      dup10\n        /* \"@goplugin/contracts/src/v0.4/vendor/Buffer.sol\":3266:3269  len */\n      dup9\n        /* \"@goplugin/contracts/src/v0.4/vendor/Buffer.sol\":3262:3275  add(len, off) */\n      add\n        /* \"@goplugin/contracts/src/v0.4/vendor/Buffer.sol\":3259:3284  gt(add(len, off), buflen) */\n      gt\n        /* \"@goplugin/contracts/src/v0.4/vendor/Buffer.sol\":3256:3258  if */\n      iszero\n      tag_267\n      jumpi\n        /* \"@goplugin/contracts/src/v0.4/vendor/Buffer.sol\":3319:3322  off */\n      dup9\n        /* \"@goplugin/contracts/src/v0.4/vendor/Buffer.sol\":3314:3317  len */\n      dup8\n        /* \"@goplugin/contracts/src/v0.4/vendor/Buffer.sol\":3310:3323  add(len, off) */\n      add\n        /* \"@goplugin/contracts/src/v0.4/vendor/Buffer.sol\":3302:3308  bufptr */\n      dup3\n        /* \"@goplugin/contracts/src/v0.4/vendor/Buffer.sol\":3295:3324  mstore(bufptr, add(len, off)) */\n      mstore\n        /* \"@goplugin/contracts/src/v0.4/vendor/Buffer.sol\":3256:3258  if */\n    tag_267:\n        /* \"@goplugin/contracts/src/v0.4/vendor/Buffer.sol\":3356:3358  32 */\n      0x20\n        /* \"@goplugin/contracts/src/v0.4/vendor/Buffer.sol\":3350:3354  data */\n      dup9\n        /* \"@goplugin/contracts/src/v0.4/vendor/Buffer.sol\":3346:3359  add(data, 32) */\n      add\n        /* \"@goplugin/contracts/src/v0.4/vendor/Buffer.sol\":3339:3359  src := add(data, 32) */\n      swap4\n      pop\n        /* \"@goplugin/contracts/src/v0.4/vendor/Buffer.sol\":2935:3365  {... */\n      pop\n      pop\n        /* \"@goplugin/contracts/src/v0.4/vendor/Buffer.sol\":3417:3546  for (; len >= 32; len -= 32) {... */\n    tag_268:\n        /* \"@goplugin/contracts/src/v0.4/vendor/Buffer.sol\":3431:3433  32 */\n      0x20\n        /* \"@goplugin/contracts/src/v0.4/vendor/Buffer.sol\":3424:3433  len >= 32 */\n      dup6\n      lt\n        /* \"@goplugin/contracts/src/v0.4/vendor/Buffer.sol\":3417:3546  for (; len >= 32; len -= 32) {... */\n      tag_269\n      jumpi\n        /* \"@goplugin/contracts/src/v0.4/vendor/Buffer.sol\":3486:3496  mload(src) */\n      dup2\n      mload\n        /* \"@goplugin/contracts/src/v0.4/vendor/Buffer.sol\":3473:3497  mstore(dest, mload(src)) */\n      dup4\n      mstore\n      not(0x1f)\n        /* \"@goplugin/contracts/src/v0.4/vendor/Buffer.sol\":3435:3444  len -= 32 */\n      swap1\n      swap5\n      add\n      swap4\n        /* \"@goplugin/contracts/src/v0.4/vendor/Buffer.sol\":3520:3522  32 */\n      0x20\n        /* \"@goplugin/contracts/src/v0.4/vendor/Buffer.sol\":3512:3522  dest += 32 */\n      swap3\n      dup4\n      add\n      swap3\n        /* \"@goplugin/contracts/src/v0.4/vendor/Buffer.sol\":3530:3539  src += 32 */\n      swap1\n      swap2\n      add\n      swap1\n        /* \"@goplugin/contracts/src/v0.4/vendor/Buffer.sol\":3417:3546  for (; len >= 32; len -= 32) {... */\n      jump(tag_268)\n    tag_269:\n      pop\n        /* \"@goplugin/contracts/src/v0.4/vendor/Buffer.sol\":3655:3665  mload(src) */\n      mload\n        /* \"@goplugin/contracts/src/v0.4/vendor/Buffer.sol\":3704:3715  mload(dest) */\n      dup2\n      mload\n        /* \"@goplugin/contracts/src/v0.4/vendor/Buffer.sol\":3600:3602  32 */\n      0x20\n        /* \"@goplugin/contracts/src/v0.4/vendor/Buffer.sol\":3600:3608  32 - len */\n      swap5\n      swap1\n      swap5\n      sub\n        /* \"@goplugin/contracts/src/v0.4/vendor/Buffer.sol\":3592:3595  256 */\n      0x100\n        /* \"@goplugin/contracts/src/v0.4/vendor/Buffer.sol\":3592:3609  256 ** (32 - len) */\n      exp\n      not(0x0)\n        /* \"@goplugin/contracts/src/v0.4/vendor/Buffer.sol\":3592:3613  256 ** (32 - len) - 1 */\n      add\n        /* \"@goplugin/contracts/src/v0.4/vendor/Buffer.sol\":3667:3676  not(mask) */\n      dup1\n      not\n        /* \"@goplugin/contracts/src/v0.4/vendor/Buffer.sol\":3651:3677  and(mload(src), not(mask)) */\n      swap1\n      swap2\n      and\n        /* \"@goplugin/contracts/src/v0.4/vendor/Buffer.sol\":3700:3722  and(mload(dest), mask) */\n      swap4\n      and\n        /* \"@goplugin/contracts/src/v0.4/vendor/Buffer.sol\":3742:3763  or(destpart, srcpart) */\n      swap3\n      swap1\n      swap3\n      or\n        /* \"@goplugin/contracts/src/v0.4/vendor/Buffer.sol\":3729:3764  mstore(dest, or(destpart, srcpart)) */\n      swap1\n      swap2\n      mstore\n      pop\n        /* \"@goplugin/contracts/src/v0.4/vendor/Buffer.sol\":3783:3786  buf */\n      swap2\n      swap3\n      swap2\n      pop\n      pop\n        /* \"@goplugin/contracts/src/v0.4/vendor/Buffer.sol\":2651:3791  function write(buffer memory buf, uint off, bytes memory data, uint len) internal pure returns(buffer memory) {... */\n      jump\t// out\n        /* \"@goplugin/contracts/src/v0.4/vendor/CBOR.sol\":2175:2353  function encodeBytes(BufferPlugin.buffer memory buf, bytes memory value) internal pure {... */\n    tag_247:\n        /* \"@goplugin/contracts/src/v0.4/vendor/CBOR.sol\":2272:2319  encodeType(buf, MAJOR_TYPE_BYTES, value.length) */\n      tag_191\n        /* \"@goplugin/contracts/src/v0.4/vendor/CBOR.sol\":2283:2286  buf */\n      dup3\n        /* \"@goplugin/contracts/src/v0.4/vendor/CBOR.sol\":337:338  2 */\n      0x2\n        /* \"@goplugin/contracts/src/v0.4/vendor/CBOR.sol\":2306:2311  value */\n      dup4\n        /* \"@goplugin/contracts/src/v0.4/vendor/CBOR.sol\":2306:2318  value.length */\n      mload\n        /* \"@goplugin/contracts/src/v0.4/vendor/CBOR.sol\":2272:2282  encodeType */\n      tag_192\n        /* \"@goplugin/contracts/src/v0.4/vendor/CBOR.sol\":2272:2319  encodeType(buf, MAJOR_TYPE_BYTES, value.length) */\n      jump\t// in\n        /* \"@goplugin/contracts/src/v0.4/vendor/Buffer.sol\":4945:5564  function writeUint8(buffer memory buf, uint off, uint8 data) internal pure returns(buffer memory) {... */\n    tag_254:\n        /* \"@goplugin/contracts/src/v0.4/vendor/Buffer.sol\":5028:5034  buffer */\n      tag_274\n      jump\t// in(tag_214)\n    tag_274:\n        /* \"@goplugin/contracts/src/v0.4/vendor/Buffer.sol\":5060:5072  buf.capacity */\n      0x20\n      dup5\n      add\n      mload\n        /* \"@goplugin/contracts/src/v0.4/vendor/Buffer.sol\":5053:5072  off >= buf.capacity */\n      dup4\n      lt\n        /* \"@goplugin/contracts/src/v0.4/vendor/Buffer.sol\":5049:5118  if (off >= buf.capacity) {... */\n      tag_277\n      jumpi\n        /* \"@goplugin/contracts/src/v0.4/vendor/Buffer.sol\":5082:5111  resize(buf, buf.capacity * 2) */\n      tag_277\n        /* \"@goplugin/contracts/src/v0.4/vendor/Buffer.sol\":5089:5092  buf */\n      dup5\n        /* \"@goplugin/contracts/src/v0.4/vendor/Buffer.sol\":5094:5097  buf */\n      dup6\n        /* \"@goplugin/contracts/src/v0.4/vendor/Buffer.sol\":5094:5106  buf.capacity */\n      0x20\n      add\n      mload\n        /* \"@goplugin/contracts/src/v0.4/vendor/Buffer.sol\":5109:5110  2 */\n      0x2\n        /* \"@goplugin/contracts/src/v0.4/vendor/Buffer.sol\":5094:5110  buf.capacity * 2 */\n      mul\n        /* \"@goplugin/contracts/src/v0.4/vendor/Buffer.sol\":5082:5088  resize */\n      tag_266\n        /* \"@goplugin/contracts/src/v0.4/vendor/Buffer.sol\":5082:5111  resize(buf, buf.capacity * 2) */\n      jump\t// in\n    tag_277:\n        /* \"@goplugin/contracts/src/v0.4/vendor/Buffer.sol\":5204:5207  buf */\n      dup4\n        /* \"@goplugin/contracts/src/v0.4/vendor/Buffer.sol\":5198:5208  mload(buf) */\n      mload\n        /* \"@goplugin/contracts/src/v0.4/vendor/Buffer.sol\":5275:5281  bufptr */\n      dup1\n        /* \"@goplugin/contracts/src/v0.4/vendor/Buffer.sol\":5269:5282  mload(bufptr) */\n      mload\n        /* \"@goplugin/contracts/src/v0.4/vendor/Buffer.sol\":5387:5389  32 */\n      0x20\n        /* \"@goplugin/contracts/src/v0.4/vendor/Buffer.sol\":5381:5384  off */\n      dup6\n        /* \"@goplugin/contracts/src/v0.4/vendor/Buffer.sol\":5373:5379  bufptr */\n      dup4\n        /* \"@goplugin/contracts/src/v0.4/vendor/Buffer.sol\":5369:5385  add(bufptr, off) */\n      add\n        /* \"@goplugin/contracts/src/v0.4/vendor/Buffer.sol\":5365:5390  add(add(bufptr, off), 32) */\n      add\n        /* \"@goplugin/contracts/src/v0.4/vendor/Buffer.sol\":5411:5415  data */\n      dup5\n        /* \"@goplugin/contracts/src/v0.4/vendor/Buffer.sol\":5405:5409  dest */\n      dup2\n        /* \"@goplugin/contracts/src/v0.4/vendor/Buffer.sol\":5397:5416  mstore8(dest, data) */\n      mstore8\n        /* \"@goplugin/contracts/src/v0.4/vendor/Buffer.sol\":5482:5488  buflen */\n      dup2\n        /* \"@goplugin/contracts/src/v0.4/vendor/Buffer.sol\":5477:5480  off */\n      dup7\n        /* \"@goplugin/contracts/src/v0.4/vendor/Buffer.sol\":5474:5489  eq(off, buflen) */\n      eq\n        /* \"@goplugin/contracts/src/v0.4/vendor/Buffer.sol\":5471:5473  if */\n      iszero\n      tag_278\n      jumpi\n        /* \"@goplugin/contracts/src/v0.4/vendor/Buffer.sol\":5527:5528  1 */\n      0x1\n        /* \"@goplugin/contracts/src/v0.4/vendor/Buffer.sol\":5519:5525  buflen */\n      dup3\n        /* \"@goplugin/contracts/src/v0.4/vendor/Buffer.sol\":5515:5529  add(buflen, 1) */\n      add\n        /* \"@goplugin/contracts/src/v0.4/vendor/Buffer.sol\":5507:5513  bufptr */\n      dup4\n        /* \"@goplugin/contracts/src/v0.4/vendor/Buffer.sol\":5500:5530  mstore(bufptr, add(buflen, 1)) */\n      mstore\n        /* \"@goplugin/contracts/src/v0.4/vendor/Buffer.sol\":5471:5473  if */\n    tag_278:\n      pop\n        /* \"@goplugin/contracts/src/v0.4/vendor/Buffer.sol\":5556:5559  buf */\n      swap5\n      swap6\n        /* \"@goplugin/contracts/src/v0.4/vendor/Buffer.sol\":4945:5564  function writeUint8(buffer memory buf, uint off, uint8 data) internal pure returns(buffer memory) {... */\n      swap5\n      pop\n      pop\n      pop\n      pop\n      pop\n      jump\t// out\n        /* \"@goplugin/contracts/src/v0.4/vendor/Buffer.sol\":8610:9252  function writeInt(buffer memory buf, uint off, uint data, uint len) private pure returns(buffer memory) {... */\n    tag_258:\n        /* \"@goplugin/contracts/src/v0.4/vendor/Buffer.sol\":8699:8705  buffer */\n      tag_279\n      jump\t// in(tag_214)\n    tag_279:\n        /* \"@goplugin/contracts/src/v0.4/vendor/Buffer.sol\":8799:8808  uint mask */\n      0x0\n        /* \"@goplugin/contracts/src/v0.4/vendor/Buffer.sol\":8736:8739  buf */\n      dup6\n        /* \"@goplugin/contracts/src/v0.4/vendor/Buffer.sol\":8736:8748  buf.capacity */\n      0x20\n      add\n      mload\n        /* \"@goplugin/contracts/src/v0.4/vendor/Buffer.sol\":8730:8733  off */\n      dup6\n        /* \"@goplugin/contracts/src/v0.4/vendor/Buffer.sol\":8724:8727  len */\n      dup5\n        /* \"@goplugin/contracts/src/v0.4/vendor/Buffer.sol\":8724:8733  len + off */\n      add\n        /* \"@goplugin/contracts/src/v0.4/vendor/Buffer.sol\":8724:8748  len + off > buf.capacity */\n      gt\n        /* \"@goplugin/contracts/src/v0.4/vendor/Buffer.sol\":8720:8793  if (len + off > buf.capacity) {... */\n      iszero\n      tag_282\n      jumpi\n        /* \"@goplugin/contracts/src/v0.4/vendor/Buffer.sol\":8758:8786  resize(buf, (len + off) * 2) */\n      tag_282\n        /* \"@goplugin/contracts/src/v0.4/vendor/Buffer.sol\":8765:8768  buf */\n      dup7\n        /* \"@goplugin/contracts/src/v0.4/vendor/Buffer.sol\":8777:8780  off */\n      dup7\n        /* \"@goplugin/contracts/src/v0.4/vendor/Buffer.sol\":8771:8774  len */\n      dup6\n        /* \"@goplugin/contracts/src/v0.4/vendor/Buffer.sol\":8771:8780  len + off */\n      add\n        /* \"@goplugin/contracts/src/v0.4/vendor/Buffer.sol\":8784:8785  2 */\n      0x2\n        /* \"@goplugin/contracts/src/v0.4/vendor/Buffer.sol\":8770:8785  (len + off) * 2 */\n      mul\n        /* \"@goplugin/contracts/src/v0.4/vendor/Buffer.sol\":8758:8764  resize */\n      tag_266\n        /* \"@goplugin/contracts/src/v0.4/vendor/Buffer.sol\":8758:8786  resize(buf, (len + off) * 2) */\n      jump\t// in\n    tag_282:\n        /* \"@goplugin/contracts/src/v0.4/vendor/Buffer.sol\":8824:8825  1 */\n      0x1\n        /* \"@goplugin/contracts/src/v0.4/vendor/Buffer.sol\":8818:8821  len */\n      dup4\n        /* \"@goplugin/contracts/src/v0.4/vendor/Buffer.sol\":8811:8814  256 */\n      0x100\n        /* \"@goplugin/contracts/src/v0.4/vendor/Buffer.sol\":8811:8821  256 ** len */\n      exp\n        /* \"@goplugin/contracts/src/v0.4/vendor/Buffer.sol\":8811:8825  256 ** len - 1 */\n      sub\n        /* \"@goplugin/contracts/src/v0.4/vendor/Buffer.sol\":8799:8825  uint mask = 256 ** len - 1 */\n      swap1\n      pop\n        /* \"@goplugin/contracts/src/v0.4/vendor/Buffer.sol\":8911:8914  buf */\n      dup6\n        /* \"@goplugin/contracts/src/v0.4/vendor/Buffer.sol\":8905:8915  mload(buf) */\n      mload\n        /* \"@goplugin/contracts/src/v0.4/vendor/Buffer.sol\":9026:9029  len */\n      dup4\n        /* \"@goplugin/contracts/src/v0.4/vendor/Buffer.sol\":9020:9023  off */\n      dup7\n        /* \"@goplugin/contracts/src/v0.4/vendor/Buffer.sol\":9012:9018  bufptr */\n      dup3\n        /* \"@goplugin/contracts/src/v0.4/vendor/Buffer.sol\":9008:9024  add(bufptr, off) */\n      add\n        /* \"@goplugin/contracts/src/v0.4/vendor/Buffer.sol\":9004:9030  add(add(bufptr, off), len) */\n      add\n        /* \"@goplugin/contracts/src/v0.4/vendor/Buffer.sol\":9082:9086  data */\n      dup6\n        /* \"@goplugin/contracts/src/v0.4/vendor/Buffer.sol\":9074:9078  mask */\n      dup4\n        /* \"@goplugin/contracts/src/v0.4/vendor/Buffer.sol\":9070:9079  not(mask) */\n      not\n        /* \"@goplugin/contracts/src/v0.4/vendor/Buffer.sol\":9063:9067  dest */\n      dup3\n        /* \"@goplugin/contracts/src/v0.4/vendor/Buffer.sol\":9057:9068  mload(dest) */\n      mload\n        /* \"@goplugin/contracts/src/v0.4/vendor/Buffer.sol\":9053:9080  and(mload(dest), not(mask)) */\n      and\n        /* \"@goplugin/contracts/src/v0.4/vendor/Buffer.sol\":9050:9087  or(and(mload(dest), not(mask)), data) */\n      or\n        /* \"@goplugin/contracts/src/v0.4/vendor/Buffer.sol\":9044:9048  dest */\n      dup2\n        /* \"@goplugin/contracts/src/v0.4/vendor/Buffer.sol\":9037:9088  mstore(dest, or(and(mload(dest), not(mask)), data)) */\n      mstore\n        /* \"@goplugin/contracts/src/v0.4/vendor/Buffer.sol\":9170:9176  bufptr */\n      dup2\n        /* \"@goplugin/contracts/src/v0.4/vendor/Buffer.sol\":9164:9177  mload(bufptr) */\n      mload\n        /* \"@goplugin/contracts/src/v0.4/vendor/Buffer.sol\":9158:9161  len */\n      dup6\n        /* \"@goplugin/contracts/src/v0.4/vendor/Buffer.sol\":9153:9156  off */\n      dup9\n        /* \"@goplugin/contracts/src/v0.4/vendor/Buffer.sol\":9149:9162  add(off, len) */\n      add\n        /* \"@goplugin/contracts/src/v0.4/vendor/Buffer.sol\":9146:9178  gt(add(off, len), mload(bufptr)) */\n      gt\n        /* \"@goplugin/contracts/src/v0.4/vendor/Buffer.sol\":9143:9145  if */\n      iszero\n      tag_283\n      jumpi\n        /* \"@goplugin/contracts/src/v0.4/vendor/Buffer.sol\":9213:9216  len */\n      dup5\n        /* \"@goplugin/contracts/src/v0.4/vendor/Buffer.sol\":9208:9211  off */\n      dup8\n        /* \"@goplugin/contracts/src/v0.4/vendor/Buffer.sol\":9204:9217  add(off, len) */\n      add\n        /* \"@goplugin/contracts/src/v0.4/vendor/Buffer.sol\":9196:9202  bufptr */\n      dup3\n        /* \"@goplugin/contracts/src/v0.4/vendor/Buffer.sol\":9189:9218  mstore(bufptr, add(off, len)) */\n      mstore\n        /* \"@goplugin/contracts/src/v0.4/vendor/Buffer.sol\":9143:9145  if */\n    tag_283:\n      pop\n        /* \"@goplugin/contracts/src/v0.4/vendor/Buffer.sol\":9244:9247  buf */\n      swap6\n      swap7\n        /* \"@goplugin/contracts/src/v0.4/vendor/Buffer.sol\":8610:9252  function writeInt(buffer memory buf, uint off, uint data, uint len) private pure returns(buffer memory) {... */\n      swap6\n      pop\n      pop\n      pop\n      pop\n      pop\n      pop\n      jump\t// out\n        /* \"@goplugin/contracts/src/v0.4/vendor/Buffer.sol\":1889:2003  function max(uint a, uint b) private pure returns(uint) {... */\n    tag_265:\n        /* \"@goplugin/contracts/src/v0.4/vendor/Buffer.sol\":1939:1943  uint */\n      0x0\n        /* \"@goplugin/contracts/src/v0.4/vendor/Buffer.sol\":1959:1960  b */\n      dup2\n        /* \"@goplugin/contracts/src/v0.4/vendor/Buffer.sol\":1955:1956  a */\n      dup4\n        /* \"@goplugin/contracts/src/v0.4/vendor/Buffer.sol\":1955:1960  a > b */\n      gt\n        /* \"@goplugin/contracts/src/v0.4/vendor/Buffer.sol\":1951:1985  if (a > b) {... */\n      iszero\n      tag_151\n      jumpi\n      pop\n        /* \"@goplugin/contracts/src/v0.4/vendor/Buffer.sol\":1977:1978  a */\n      dup2\n        /* \"@goplugin/contracts/src/v0.4/vendor/Buffer.sol\":1970:1978  return a */\n      jump(tag_215)\n        /* \"@goplugin/contracts/src/v0.4/vendor/Buffer.sol\":1732:1885  function resize(buffer memory buf, uint capacity) private pure {... */\n    tag_266:\n        /* \"@goplugin/contracts/src/v0.4/vendor/Buffer.sol\":1823:1830  buf.buf */\n      dup2\n      mload\n        /* \"@goplugin/contracts/src/v0.4/vendor/Buffer.sol\":1836:1855  init(buf, capacity) */\n      tag_287\n        /* \"@goplugin/contracts/src/v0.4/vendor/Buffer.sol\":1823:1826  buf */\n      dup4\n        /* \"@goplugin/contracts/src/v0.4/vendor/Buffer.sol\":1846:1854  capacity */\n      dup4\n        /* \"@goplugin/contracts/src/v0.4/vendor/Buffer.sol\":1836:1840  init */\n      tag_189\n        /* \"@goplugin/contracts/src/v0.4/vendor/Buffer.sol\":1836:1855  init(buf, capacity) */\n      jump\t// in\n    tag_287:\n      pop\n        /* \"@goplugin/contracts/src/v0.4/vendor/Buffer.sol\":1861:1880  append(buf, oldbuf) */\n      tag_144\n        /* \"@goplugin/contracts/src/v0.4/vendor/Buffer.sol\":1868:1871  buf */\n      dup4\n        /* \"@goplugin/contracts/src/v0.4/vendor/Buffer.sol\":1873:1879  oldbuf */\n      dup3\n        /* \"@goplugin/contracts/src/v0.4/vendor/Buffer.sol\":1861:1867  append */\n      tag_194\n        /* \"@goplugin/contracts/src/v0.4/vendor/Buffer.sol\":1861:1880  append(buf, oldbuf) */\n      jump\t// in\n        /* \"contracts/InternalContract.sol\":140:4706  contract InternalContract is PluginClient, Ownable {... */\n    tag_71:\n      0x40\n      dup1\n      mload\n      0xc0\n      dup2\n      add\n      dup3\n      mstore\n      0x0\n      dup1\n      dup3\n      mstore\n      0x20\n      dup3\n      add\n      dup2\n      swap1\n      mstore\n      swap2\n      dup2\n      add\n      dup3\n      swap1\n      mstore\n      0x60\n      dup2\n      add\n      swap2\n      swap1\n      swap2\n      mstore\n      0x80\n      dup2\n      add\n      tag_289\n      jump\t// in(tag_214)\n    tag_289:\n      swap1\n      mstore\n      swap1\n      jump\t// out\n    tag_134:\n      0x40\n      dup1\n      mload\n      dup1\n      dup3\n      add\n      swap1\n      swap2\n      mstore\n      0x0\n      dup1\n      dup3\n      mstore\n      0x20\n      dup3\n      add\n      mstore\n      swap1\n      jump\t// out\n    tag_214:\n      0x40\n      dup1\n      mload\n      dup1\n      dup3\n      add\n      swap1\n      swap2\n      mstore\n      0x60\n      dup2\n      mstore\n      0x0\n      0x20\n      dup3\n      add\n      mstore\n      swap1\n      jump\t// out\n\n    auxdata: 0xa165627a7a72305820b7b85266636901284703ed908b0a706eb34aa426c6416fed9eaa7768feb050ff0029\n}\n",
				"bytecode": {
					"linkReferences": {},
					"object": "608060405260016004553480156200001657600080fd5b5060405162001b9d38038062001b9d833981016040908152815160208301519183015160068054600160a060020a0319163317905590920162000062836401000000006200009c810204565b60078054600160a060020a031916600160a060020a038416179055805162000092906008906020840190620000be565b5050505062000163565b60028054600160a060020a031916600160a060020a0392909216919091179055565b828054600181600116156101000203166002900490600052602060002090601f016020900481019282601f106200010157805160ff191683800117855562000131565b8280016001018555821562000131579182015b828111156200013157825182559160200191906001019062000114565b506200013f92915062000143565b5090565b6200016091905b808211156200013f57600081556001016200014a565b90565b611a2a80620001736000396000f3006080604052600436106100cc5763ffffffff60e060020a6000350416632d8c762c81146100d157806337fccd30146100f85780634357855e1461010f578063698996f81461012a578063715018a61461013f5780637dc0d1d0146101545780638205bf6a146101855780638da5cb5b1461019a5780638e0e0abb146101af5780639dd4cc5d146101c4578063a2e36c5f146101e5578063a4b6f67e14610229578063c2939d971461023e578063d378d5eb146102c8578063ec65d0f8146102f4578063f2fde38b1461031f575b600080fd5b3480156100dd57600080fd5b506100e6610340565b60408051918252519081900360200190f35b34801561010457600080fd5b5061010d610616565b005b34801561011b57600080fd5b5061010d6004356024356107a4565b34801561013657600080fd5b506100e66108be565b34801561014b57600080fd5b5061010d6108c4565b34801561016057600080fd5b50610169610932565b60408051600160a060020a039092168252519081900360200190f35b34801561019157600080fd5b506100e6610941565b3480156101a657600080fd5b50610169610947565b3480156101bb57600080fd5b506100e6610956565b3480156101d057600080fd5b506100e6600160a060020a036004351661095c565b3480156101f157600080fd5b50610206600160a060020a0360043516610c6e565b60408051600160a060020a03909316835260208301919091528051918290030190f35b34801561023557600080fd5b50610169610c93565b34801561024a57600080fd5b50610253610ca2565b6040805160208082528351818301528351919283929083019185019080838360005b8381101561028d578181015183820152602001610275565b50505050905090810190601f1680156102ba5780820380516001836020036101000a031916815260200191505b509250505060405180910390f35b3480156102d457600080fd5b506102e0600435610d30565b604080519115158252519081900360200190f35b34801561030057600080fd5b5061010d600435602435600160e060020a031960443516606435610ec9565b34801561032b57600080fd5b5061010d600160a060020a0360043516610ef2565b600061034a61199a565b600654600160a060020a0316331461036157600080fd5b6008805460408051602060026001851615610100026000190190941693909304601f8101849004840282018401909252818152610422936103fb93919290918301828280156103f15780601f106103c6576101008083540402835291602001916103f1565b820191906000526020600020905b8154815290600101906020018083116103d457829003601f168201915b5050505050610f12565b307f4357855e00000000000000000000000000000000000000000000000000000000610f36565b604080518082018252600681527f5f6673796d7300000000000000000000000000000000000000000000000000006020808301919091528251808401909352600383527f58444300000000000000000000000000000000000000000000000000000000009083015291925061049e91839163ffffffff610f6116565b604080518082018252600681527f5f7473796d7300000000000000000000000000000000000000000000000000006020808301919091528251808401909352600483527f5553445400000000000000000000000000000000000000000000000000000000908301526105189183919063ffffffff610f6116565b60408051808201909152600581527f74696d6573000000000000000000000000000000000000000000000000000000602082015261056090829061271063ffffffff610f9016565b42600a5560075461058290600160a060020a031682662386f26fc10000610fba565b60088054604080516020601f6002610100600187161502600019019095169490940493840181900481028201810190925282815293955085936105e993909290918301828280156103f15780601f106103c6576101008083540402835291602001916103f1565b6040517feafd6b8e34637ca199864ee18f22fc46cbc730739912f5b54501a2a9e57e807090600090a35090565b600654600090600160a060020a0316331461063057600080fd5b610638611257565b604080517f70a082310000000000000000000000000000000000000000000000000000000081523060048201529051919250600160a060020a0383169163a9059cbb91339184916370a082319160248083019260209291908290030181600087803b1580156106a657600080fd5b505af11580156106ba573d6000803e3d6000fd5b505050506040513d60208110156106d057600080fd5b50516040805160e060020a63ffffffff8616028152600160a060020a03909316600484015260248301919091525160448083019260209291908290030181600087803b15801561071f57600080fd5b505af1158015610733573d6000803e3d6000fd5b505050506040513d602081101561074957600080fd5b505115156107a1576040805160e560020a62461bcd02815260206004820152601260248201527f556e61626c6520746f207472616e736665720000000000000000000000000000604482015290519081900360640190fd5b50565b6000828152600560205260409020548290600160a060020a0316331461083a576040805160e560020a62461bcd02815260206004820152602860248201527f536f75726365206d75737420626520746865206f7261636c65206f662074686560448201527f2072657175657374000000000000000000000000000000000000000000000000606482015290519081900360840190fd5b600081815260056020526040808220805473ffffffffffffffffffffffffffffffffffffffff191690555182917fa40ad10b942505047c532a7399bf5eac2768b11b7155b40ec80309aea567f99891a2604051829084907f1ca8663227a7fe9919713a01d344afbb434e234f35a3e540a6ad924f88771f3890600090a35060095550565b60095481565b600654600160a060020a031633146108db57600080fd5b600654604051600160a060020a03909116907ff8df31144d9c2f0f6b59d69b8b98abd5459d07f2742c4df920b25aae33c6482090600090a26006805473ffffffffffffffffffffffffffffffffffffffff19169055565b600754600160a060020a031681565b600a5481565b600654600160a060020a031681565b60095490565b60008061096761199a565b600160a060020a0384166000908152600b60205260409020600101549150662386f26fc1000082116109e3576040805160e560020a62461bcd02815260206004820152601560248201527f4e4f5f53554646494349454e545f435245444954530000000000000000000000604482015290519081900360640190fd5b600160a060020a0384166000908152600b6020908152604091829020662386f26fc0ffff198501600191820155600880548451600293821615610100026000190190911692909204601f8101849004840283018401909452838252610a6c936103fb938301828280156103f15780601f106103c6576101008083540402835291602001916103f1565b604080518082018252600681527f5f6673796d7300000000000000000000000000000000000000000000000000006020808301919091528251808401909352600383527f584443000000000000000000000000000000000000000000000000000000000090830152919250610ae891839163ffffffff610f6116565b604080518082018252600681527f5f7473796d7300000000000000000000000000000000000000000000000000006020808301919091528251808401909352600483527f555344540000000000000000000000000000000000000000000000000000000090830152610b629183919063ffffffff610f6116565b60408051808201909152600581527f74696d65730000000000000000000000000000000000000000000000000000006020820152610baa90829061271063ffffffff610f9016565b600754610bc890600160a060020a031682662386f26fc10000610fba565b42600a5560088054604080516020601f600261010060018716150260001901909516949094049384018190048102820181019092528281529396508693610c3393909290918301828280156103f15780601f106103c6576101008083540402835291602001916103f1565b604051600160a060020a038716907f7f3df4038a13e7b83557e5a0ebf67fec07391a522319ab42e81255e88de18ffb90600090a45050919050565b600b6020526000908152604090208054600190910154600160a060020a039091169082565b6000610c9d611257565b905090565b6008805460408051602060026001851615610100026000190190941693909304601f81018490048402820184019092528181529291830182828015610d285780601f10610cfd57610100808354040283529160200191610d28565b820191906000526020600020905b815481529060010190602001808311610d0b57829003601f168201915b505050505081565b600080610d3b6119cf565b600068056bc75e2d63100000851115610d9e576040805160e560020a62461bcd02815260206004820152601960248201527f4e4f545f4d4f52455f5448414e5f3130305f414c4c4f57454400000000000000604482015290519081900360640190fd5b610da6611257565b604080517f23b872dd000000000000000000000000000000000000000000000000000000008152336004820152306024820152604481018890529051919450600160a060020a038516916323b872dd916064808201926020929091908290030181600087803b158015610e1857600080fd5b505af1158015610e2c573d6000803e3d6000fd5b505050506040513d6020811015610e4257600080fd5b5050336000818152600b60208181526040808420815180830183528154600160a060020a0381811683526001808501805494880185905286518088019097528a87529e9093018587019081529890975294909352905190931673ffffffffffffffffffffffffffffffffffffffff1990921691909117909155905190955550929392505050565b600654600160a060020a03163314610ee057600080fd5b610eec84848484611266565b50505050565b600654600160a060020a03163314610f0957600080fd5b6107a181611364565b805160009082901515610f285760009150610f30565b602083015191505b50919050565b610f3e61199a565b610f4661199a565b610f588186868663ffffffff6113e216565b95945050505050565b6080830151610f76908363ffffffff61141f16565b6080830151610f8b908263ffffffff61141f16565b505050565b6080830151610fa5908363ffffffff61141f16565b6080830151610f8b908263ffffffff61143c16565b6000306004546040516020018083600160a060020a0316600160a060020a03166c01000000000000000000000000028152601401828152602001925050506040516020818303038152906040526040518082805190602001908083835b602083106110365780518252601f199092019160209182019101611017565b51815160209384036101000a6000190180199092169116179052604080519290940182900390912060045460608a015260008181526005909252838220805473ffffffffffffffffffffffffffffffffffffffff1916600160a060020a038c1617905592519295508594507fa6745906207afb96a5801b8e5711fd7b74c5780ce893a973806e179d675bbe249350919050a2600254600160a060020a0316634000aea085846110e48761149e565b6040518463ffffffff1660e060020a0281526004018084600160a060020a0316600160a060020a0316815260200183815260200180602001828103825283818151815260200191508051906020019080838360005b83811015611151578181015183820152602001611139565b50505050905090810190601f16801561117e5780820380516001836020036101000a031916815260200191505b50945050505050602060405180830381600087803b15801561119f57600080fd5b505af11580156111b3573d6000803e3d6000fd5b505050506040513d60208110156111c957600080fd5b50511515611247576040805160e560020a62461bcd02815260206004820152602360248201527f756e61626c6520746f207472616e73666572416e6443616c6c20746f206f726160448201527f636c650000000000000000000000000000000000000000000000000000000000606482015290519081900360840190fd5b6004805460010190559392505050565b600254600160a060020a031690565b600084815260056020526040808220805473ffffffffffffffffffffffffffffffffffffffff1981169091559051600160a060020a039091169186917f715822738dad692e521ebc0193d189bf23153eb1d4420173d6b30cd8add9f9a69190a2604080517f6ee4d5530000000000000000000000000000000000000000000000000000000081526004810187905260248101869052600160e060020a031985166044820152606481018490529051600160a060020a03831691636ee4d55391608480830192600092919082900301818387803b15801561134557600080fd5b505af1158015611359573d6000803e3d6000fd5b505050505050505050565b600160a060020a038116151561137957600080fd5b600654604051600160a060020a038084169216907f8be0079c531659141344cd1fd0a4f28419497f9722a3daafe3b4186f6b6457e090600090a36006805473ffffffffffffffffffffffffffffffffffffffff1916600160a060020a0392909216919091179055565b6113ea61199a565b6113fa85608001516101006115f5565b5050918352600160a060020a03166020830152600160e060020a031916604082015290565b61142c8260038351611635565b610f8b828263ffffffff61173216565b67ffffffffffffffff1981121561145c576114578282611753565b61149a565b67ffffffffffffffff811315611476576114578282611792565b6000811261148a5761145782600083611635565b61149a8260018360001903611635565b5050565b8051602080830151604080850151606086810151608088015151935160006024820181815260448301829052606483018a9052600160a060020a0388166084840152600160e060020a0319861660a484015260c48301849052600160e48401819052610100610104850190815288516101248601528851969b7f40429946000000000000000000000000000000000000000000000000000000009b949a8b9a91999098909796939591949361014401918501908083838e5b8381101561156e578181015183820152602001611556565b50505050905090810190601f16801561159b5780820380516001836020036101000a031916815260200191505b5060408051601f198184030181529190526020810180517bffffffffffffffffffffffffffffffffffffffffffffffffffffffff16600160e060020a0319909d169c909c17909b5250989950505050505050505050919050565b6115fd6119e6565b60208206156116125760208206602003820191505b506020808301829052604080518085526000815283019091019052815b92915050565b60178111611657576116518360ff8481166020021683176117cd565b50610f8b565b60ff811161168b57611678836018602060ff8616021763ffffffff6117cd16565b506116518382600163ffffffff6117e516565b61ffff81116116c0576116ad836019602060ff8616021763ffffffff6117cd16565b506116518382600263ffffffff6117e516565b63ffffffff81116116f7576116e483601a602060ff8616021763ffffffff6117cd16565b506116518382600463ffffffff6117e516565b67ffffffffffffffff8111610f8b5761171f83601b602060ff8616021763ffffffff6117cd16565b50610eec8382600863ffffffff6117e516565b61173a6119e6565b61174c83846000015151848551611806565b9392505050565b6117648260c363ffffffff6117cd16565b5061149a828260001903604051602001808281526020019150506040516020818303038152906040526118bc565b6117a38260c263ffffffff6117cd16565b5061149a8282604051602001808281526020019150506040516020818303038152906040526118bc565b6117d56119e6565b61174c83846000015151846118c9565b6117ed6119e6565b6117fe848560000151518585611914565b949350505050565b61180e6119e6565b60008060008551851115151561182357600080fd5b8760200151858801111561184d5761184d886118458a602001518a8901611972565b600202611983565b8751805188602083010194508089880111156118695788870182525b60208801935050505b602085106118945781518352601f199094019360209283019290910190611872565b505181516020949094036101000a600019018019909116931692909217909152509192915050565b61142c8260028351611635565b6118d16119e6565b602084015183106118ed576118ed848560200151600202611983565b8351805160208583010184815381861415611909576001820183525b509495945050505050565b61191c6119e6565b60008560200151858401111561193b5761193b86868501600202611983565b6001836101000a03905085518386820101858319825116178152815185880111156119665784870182525b50959695505050505050565b600081831115610f3057508161162f565b815161198f83836115f5565b50610eec8382611732565b6040805160c0810182526000808252602082018190529181018290526060810191909152608081016119ca6119e6565b905290565b604080518082019091526000808252602082015290565b604080518082019091526060815260006020820152905600a165627a7a72305820b7b85266636901284703ed908b0a706eb34aa426c6416fed9eaa7768feb050ff0029",
					"opcodes": "PUSH1 0x80 PUSH1 0x40 MSTORE PUSH1 0x1 PUSH1 0x4 SSTORE CALLVALUE DUP1 ISZERO PUSH3 0x16 JUMPI PUSH1 0x0 DUP1 REVERT JUMPDEST POP PUSH1 0x40 MLOAD PUSH3 0x1B9D CODESIZE SUB DUP1 PUSH3 0x1B9D DUP4 CODECOPY DUP2 ADD PUSH1 0x40 SWAP1 DUP2 MSTORE DUP2 MLOAD PUSH1 0x20 DUP4 ADD MLOAD SWAP2 DUP4 ADD MLOAD PUSH1 0x6 DUP1 SLOAD PUSH1 0x1 PUSH1 0xA0 PUSH1 0x2 EXP SUB NOT AND CALLER OR SWAP1 SSTORE SWAP1 SWAP3 ADD PUSH3 0x62 DUP4 PUSH5 0x100000000 PUSH3 0x9C DUP2 MUL DIV JUMP JUMPDEST PUSH1 0x7 DUP1 SLOAD PUSH1 0x1 PUSH1 0xA0 PUSH1 0x2 EXP SUB NOT AND PUSH1 0x1 PUSH1 0xA0 PUSH1 0x2 EXP SUB DUP5 AND OR SWAP1 SSTORE DUP1 MLOAD PUSH3 0x92 SWAP1 PUSH1 0x8 SWAP1 PUSH1 0x20 DUP5 ADD SWAP1 PUSH3 0xBE JUMP JUMPDEST POP POP POP POP PUSH3 0x163 JUMP JUMPDEST PUSH1 0x2 DUP1 SLOAD PUSH1 0x1 PUSH1 0xA0 PUSH1 0x2 EXP SUB NOT AND PUSH1 0x1 PUSH1 0xA0 PUSH1 0x2 EXP SUB SWAP3 SWAP1 SWAP3 AND SWAP2 SWAP1 SWAP2 OR SWAP1 SSTORE JUMP JUMPDEST DUP3 DUP1 SLOAD PUSH1 0x1 DUP2 PUSH1 0x1 AND ISZERO PUSH2 0x100 MUL SUB AND PUSH1 0x2 SWAP1 DIV SWAP1 PUSH1 0x0 MSTORE PUSH1 0x20 PUSH1 0x0 KECCAK256 SWAP1 PUSH1 0x1F ADD PUSH1 0x20 SWAP1 DIV DUP2 ADD SWAP3 DUP3 PUSH1 0x1F LT PUSH3 0x101 JUMPI DUP1 MLOAD PUSH1 0xFF NOT AND DUP4 DUP1 ADD OR DUP6 SSTORE PUSH3 0x131 JUMP JUMPDEST DUP3 DUP1 ADD PUSH1 0x1 ADD DUP6 SSTORE DUP3 ISZERO PUSH3 0x131 JUMPI SWAP2 DUP3 ADD JUMPDEST DUP3 DUP2 GT ISZERO PUSH3 0x131 JUMPI DUP3 MLOAD DUP3 SSTORE SWAP2 PUSH1 0x20 ADD SWAP2 SWAP1 PUSH1 0x1 ADD SWAP1 PUSH3 0x114 JUMP JUMPDEST POP PUSH3 0x13F SWAP3 SWAP2 POP PUSH3 0x143 JUMP JUMPDEST POP SWAP1 JUMP JUMPDEST PUSH3 0x160 SWAP2 SWAP1 JUMPDEST DUP1 DUP3 GT ISZERO PUSH3 0x13F JUMPI PUSH1 0x0 DUP2 SSTORE PUSH1 0x1 ADD PUSH3 0x14A JUMP JUMPDEST SWAP1 JUMP JUMPDEST PUSH2 0x1A2A DUP1 PUSH3 0x173 PUSH1 0x0 CODECOPY PUSH1 0x0 RETURN STOP PUSH1 0x80 PUSH1 0x40 MSTORE PUSH1 0x4 CALLDATASIZE LT PUSH2 0xCC JUMPI PUSH4 0xFFFFFFFF PUSH1 0xE0 PUSH1 0x2 EXP PUSH1 0x0 CALLDATALOAD DIV AND PUSH4 0x2D8C762C DUP2 EQ PUSH2 0xD1 JUMPI DUP1 PUSH4 0x37FCCD30 EQ PUSH2 0xF8 JUMPI DUP1 PUSH4 0x4357855E EQ PUSH2 0x10F JUMPI DUP1 PUSH4 0x698996F8 EQ PUSH2 0x12A JUMPI DUP1 PUSH4 0x715018A6 EQ PUSH2 0x13F JUMPI DUP1 PUSH4 0x7DC0D1D0 EQ PUSH2 0x154 JUMPI DUP1 PUSH4 0x8205BF6A EQ PUSH2 0x185 JUMPI DUP1 PUSH4 0x8DA5CB5B EQ PUSH2 0x19A JUMPI DUP1 PUSH4 0x8E0E0ABB EQ PUSH2 0x1AF JUMPI DUP1 PUSH4 0x9DD4CC5D EQ PUSH2 0x1C4 JUMPI DUP1 PUSH4 0xA2E36C5F EQ PUSH2 0x1E5 JUMPI DUP1 PUSH4 0xA4B6F67E EQ PUSH2 0x229 JUMPI DUP1 PUSH4 0xC2939D97 EQ PUSH2 0x23E JUMPI DUP1 PUSH4 0xD378D5EB EQ PUSH2 0x2C8 JUMPI DUP1 PUSH4 0xEC65D0F8 EQ PUSH2 0x2F4 JUMPI DUP1 PUSH4 0xF2FDE38B EQ PUSH2 0x31F JUMPI JUMPDEST PUSH1 0x0 DUP1 REVERT JUMPDEST CALLVALUE DUP1 ISZERO PUSH2 0xDD JUMPI PUSH1 0x0 DUP1 REVERT JUMPDEST POP PUSH2 0xE6 PUSH2 0x340 JUMP JUMPDEST PUSH1 0x40 DUP1 MLOAD SWAP2 DUP3 MSTORE MLOAD SWAP1 DUP2 SWAP1 SUB PUSH1 0x20 ADD SWAP1 RETURN JUMPDEST CALLVALUE DUP1 ISZERO PUSH2 0x104 JUMPI PUSH1 0x0 DUP1 REVERT JUMPDEST POP PUSH2 0x10D PUSH2 0x616 JUMP JUMPDEST STOP JUMPDEST CALLVALUE DUP1 ISZERO PUSH2 0x11B JUMPI PUSH1 0x0 DUP1 REVERT JUMPDEST POP PUSH2 0x10D PUSH1 0x4 CALLDATALOAD PUSH1 0x24 CALLDATALOAD PUSH2 0x7A4 JUMP JUMPDEST CALLVALUE DUP1 ISZERO PUSH2 0x136 JUMPI PUSH1 0x0 DUP1 REVERT JUMPDEST POP PUSH2 0xE6 PUSH2 0x8BE JUMP JUMPDEST CALLVALUE DUP1 ISZERO PUSH2 0x14B JUMPI PUSH1 0x0 DUP1 REVERT JUMPDEST POP PUSH2 0x10D PUSH2 0x8C4 JUMP JUMPDEST CALLVALUE DUP1 ISZERO PUSH2 0x160 JUMPI PUSH1 0x0 DUP1 REVERT JUMPDEST POP PUSH2 0x169 PUSH2 0x932 JUMP JUMPDEST PUSH1 0x40 DUP1 MLOAD PUSH1 0x1 PUSH1 0xA0 PUSH1 0x2 EXP SUB SWAP1 SWAP3 AND DUP3 MSTORE MLOAD SWAP1 DUP2 SWAP1 SUB PUSH1 0x20 ADD SWAP1 RETURN JUMPDEST CALLVALUE DUP1 ISZERO PUSH2 0x191 JUMPI PUSH1 0x0 DUP1 REVERT JUMPDEST POP PUSH2 0xE6 PUSH2 0x941 JUMP JUMPDEST CALLVALUE DUP1 ISZERO PUSH2 0x1A6 JUMPI PUSH1 0x0 DUP1 REVERT JUMPDEST POP PUSH2 0x169 PUSH2 0x947 JUMP JUMPDEST CALLVALUE DUP1 ISZERO PUSH2 0x1BB JUMPI PUSH1 0x0 DUP1 REVERT JUMPDEST POP PUSH2 0xE6 PUSH2 0x956 JUMP JUMPDEST CALLVALUE DUP1 ISZERO PUSH2 0x1D0 JUMPI PUSH1 0x0 DUP1 REVERT JUMPDEST POP PUSH2 0xE6 PUSH1 0x1 PUSH1 0xA0 PUSH1 0x2 EXP SUB PUSH1 0x4 CALLDATALOAD AND PUSH2 0x95C JUMP JUMPDEST CALLVALUE DUP1 ISZERO PUSH2 0x1F1 JUMPI PUSH1 0x0 DUP1 REVERT JUMPDEST POP PUSH2 0x206 PUSH1 0x1 PUSH1 0xA0 PUSH1 0x2 EXP SUB PUSH1 0x4 CALLDATALOAD AND PUSH2 0xC6E JUMP JUMPDEST PUSH1 0x40 DUP1 MLOAD PUSH1 0x1 PUSH1 0xA0 PUSH1 0x2 EXP SUB SWAP1 SWAP4 AND DUP4 MSTORE PUSH1 0x20 DUP4 ADD SWAP2 SWAP1 SWAP2 MSTORE DUP1 MLOAD SWAP2 DUP3 SWAP1 SUB ADD SWAP1 RETURN JUMPDEST CALLVALUE DUP1 ISZERO PUSH2 0x235 JUMPI PUSH1 0x0 DUP1 REVERT JUMPDEST POP PUSH2 0x169 PUSH2 0xC93 JUMP JUMPDEST CALLVALUE DUP1 ISZERO PUSH2 0x24A JUMPI PUSH1 0x0 DUP1 REVERT JUMPDEST POP PUSH2 0x253 PUSH2 0xCA2 JUMP JUMPDEST PUSH1 0x40 DUP1 MLOAD PUSH1 0x20 DUP1 DUP3 MSTORE DUP4 MLOAD DUP2 DUP4 ADD MSTORE DUP4 MLOAD SWAP2 SWAP3 DUP4 SWAP3 SWAP1 DUP4 ADD SWAP2 DUP6 ADD SWAP1 DUP1 DUP4 DUP4 PUSH1 0x0 JUMPDEST DUP4 DUP2 LT ISZERO PUSH2 0x28D JUMPI DUP2 DUP2 ADD MLOAD DUP4 DUP3 ADD MSTORE PUSH1 0x20 ADD PUSH2 0x275 JUMP JUMPDEST POP POP POP POP SWAP1 POP SWAP1 DUP2 ADD SWAP1 PUSH1 0x1F AND DUP1 ISZERO PUSH2 0x2BA JUMPI DUP1 DUP3 SUB DUP1 MLOAD PUSH1 0x1 DUP4 PUSH1 0x20 SUB PUSH2 0x100 EXP SUB NOT AND DUP2 MSTORE PUSH1 0x20 ADD SWAP2 POP JUMPDEST POP SWAP3 POP POP POP PUSH1 0x40 MLOAD DUP1 SWAP2 SUB SWAP1 RETURN JUMPDEST CALLVALUE DUP1 ISZERO PUSH2 0x2D4 JUMPI PUSH1 0x0 DUP1 REVERT JUMPDEST POP PUSH2 0x2E0 PUSH1 0x4 CALLDATALOAD PUSH2 0xD30 JUMP JUMPDEST PUSH1 0x40 DUP1 MLOAD SWAP2 ISZERO ISZERO DUP3 MSTORE MLOAD SWAP1 DUP2 SWAP1 SUB PUSH1 0x20 ADD SWAP1 RETURN JUMPDEST CALLVALUE DUP1 ISZERO PUSH2 0x300 JUMPI PUSH1 0x0 DUP1 REVERT JUMPDEST POP PUSH2 0x10D PUSH1 0x4 CALLDATALOAD PUSH1 0x24 CALLDATALOAD PUSH1 0x1 PUSH1 0xE0 PUSH1 0x2 EXP SUB NOT PUSH1 0x44 CALLDATALOAD AND PUSH1 0x64 CALLDATALOAD PUSH2 0xEC9 JUMP JUMPDEST CALLVALUE DUP1 ISZERO PUSH2 0x32B JUMPI PUSH1 0x0 DUP1 REVERT JUMPDEST POP PUSH2 0x10D PUSH1 0x1 PUSH1 0xA0 PUSH1 0x2 EXP SUB PUSH1 0x4 CALLDATALOAD AND PUSH2 0xEF2 JUMP JUMPDEST PUSH1 0x0 PUSH2 0x34A PUSH2 0x199A JUMP JUMPDEST PUSH1 0x6 SLOAD PUSH1 0x1 PUSH1 0xA0 PUSH1 0x2 EXP SUB AND CALLER EQ PUSH2 0x361 JUMPI PUSH1 0x0 DUP1 REVERT JUMPDEST PUSH1 0x8 DUP1 SLOAD PUSH1 0x40 DUP1 MLOAD PUSH1 0x20 PUSH1 0x2 PUSH1 0x1 DUP6 AND ISZERO PUSH2 0x100 MUL PUSH1 0x0 NOT ADD SWAP1 SWAP5 AND SWAP4 SWAP1 SWAP4 DIV PUSH1 0x1F DUP2 ADD DUP5 SWAP1 DIV DUP5 MUL DUP3 ADD DUP5 ADD SWAP1 SWAP3 MSTORE DUP2 DUP2 MSTORE PUSH2 0x422 SWAP4 PUSH2 0x3FB SWAP4 SWAP2 SWAP3 SWAP1 SWAP2 DUP4 ADD DUP3 DUP3 DUP1 ISZERO PUSH2 0x3F1 JUMPI DUP1 PUSH1 0x1F LT PUSH2 0x3C6 JUMPI PUSH2 0x100 DUP1 DUP4 SLOAD DIV MUL DUP4 MSTORE SWAP2 PUSH1 0x20 ADD SWAP2 PUSH2 0x3F1 JUMP JUMPDEST DUP3 ADD SWAP2 SWAP1 PUSH1 0x0 MSTORE PUSH1 0x20 PUSH1 0x0 KECCAK256 SWAP1 JUMPDEST DUP2 SLOAD DUP2 MSTORE SWAP1 PUSH1 0x1 ADD SWAP1 PUSH1 0x20 ADD DUP1 DUP4 GT PUSH2 0x3D4 JUMPI DUP3 SWAP1 SUB PUSH1 0x1F AND DUP3 ADD SWAP2 JUMPDEST POP POP POP POP POP PUSH2 0xF12 JUMP JUMPDEST ADDRESS PUSH32 0x4357855E00000000000000000000000000000000000000000000000000000000 PUSH2 0xF36 JUMP JUMPDEST PUSH1 0x40 DUP1 MLOAD DUP1 DUP3 ADD DUP3 MSTORE PUSH1 0x6 DUP2 MSTORE PUSH32 0x5F6673796D730000000000000000000000000000000000000000000000000000 PUSH1 0x20 DUP1 DUP4 ADD SWAP2 SWAP1 SWAP2 MSTORE DUP3 MLOAD DUP1 DUP5 ADD SWAP1 SWAP4 MSTORE PUSH1 0x3 DUP4 MSTORE PUSH32 0x5844430000000000000000000000000000000000000000000000000000000000 SWAP1 DUP4 ADD MSTORE SWAP2 SWAP3 POP PUSH2 0x49E SWAP2 DUP4 SWAP2 PUSH4 0xFFFFFFFF PUSH2 0xF61 AND JUMP JUMPDEST PUSH1 0x40 DUP1 MLOAD DUP1 DUP3 ADD DUP3 MSTORE PUSH1 0x6 DUP2 MSTORE PUSH32 0x5F7473796D730000000000000000000000000000000000000000000000000000 PUSH1 0x20 DUP1 DUP4 ADD SWAP2 SWAP1 SWAP2 MSTORE DUP3 MLOAD DUP1 DUP5 ADD SWAP1 SWAP4 MSTORE PUSH1 0x4 DUP4 MSTORE PUSH32 0x5553445400000000000000000000000000000000000000000000000000000000 SWAP1 DUP4 ADD MSTORE PUSH2 0x518 SWAP2 DUP4 SWAP2 SWAP1 PUSH4 0xFFFFFFFF PUSH2 0xF61 AND JUMP JUMPDEST PUSH1 0x40 DUP1 MLOAD DUP1 DUP3 ADD SWAP1 SWAP2 MSTORE PUSH1 0x5 DUP2 MSTORE PUSH32 0x74696D6573000000000000000000000000000000000000000000000000000000 PUSH1 0x20 DUP3 ADD MSTORE PUSH2 0x560 SWAP1 DUP3 SWAP1 PUSH2 0x2710 PUSH4 0xFFFFFFFF PUSH2 0xF90 AND JUMP JUMPDEST TIMESTAMP PUSH1 0xA SSTORE PUSH1 0x7 SLOAD PUSH2 0x582 SWAP1 PUSH1 0x1 PUSH1 0xA0 PUSH1 0x2 EXP SUB AND DUP3 PUSH7 0x2386F26FC10000 PUSH2 0xFBA JUMP JUMPDEST PUSH1 0x8 DUP1 SLOAD PUSH1 0x40 DUP1 MLOAD PUSH1 0x20 PUSH1 0x1F PUSH1 0x2 PUSH2 0x100 PUSH1 0x1 DUP8 AND ISZERO MUL PUSH1 0x0 NOT ADD SWAP1 SWAP6 AND SWAP5 SWAP1 SWAP5 DIV SWAP4 DUP5 ADD DUP2 SWAP1 DIV DUP2 MUL DUP3 ADD DUP2 ADD SWAP1 SWAP3 MSTORE DUP3 DUP2 MSTORE SWAP4 SWAP6 POP DUP6 SWAP4 PUSH2 0x5E9 SWAP4 SWAP1 SWAP3 SWAP1 SWAP2 DUP4 ADD DUP3 DUP3 DUP1 ISZERO PUSH2 0x3F1 JUMPI DUP1 PUSH1 0x1F LT PUSH2 0x3C6 JUMPI PUSH2 0x100 DUP1 DUP4 SLOAD DIV MUL DUP4 MSTORE SWAP2 PUSH1 0x20 ADD SWAP2 PUSH2 0x3F1 JUMP JUMPDEST PUSH1 0x40 MLOAD PUSH32 0xEAFD6B8E34637CA199864EE18F22FC46CBC730739912F5B54501A2A9E57E8070 SWAP1 PUSH1 0x0 SWAP1 LOG3 POP SWAP1 JUMP JUMPDEST PUSH1 0x6 SLOAD PUSH1 0x0 SWAP1 PUSH1 0x1 PUSH1 0xA0 PUSH1 0x2 EXP SUB AND CALLER EQ PUSH2 0x630 JUMPI PUSH1 0x0 DUP1 REVERT JUMPDEST PUSH2 0x638 PUSH2 0x1257 JUMP JUMPDEST PUSH1 0x40 DUP1 MLOAD PUSH32 0x70A0823100000000000000000000000000000000000000000000000000000000 DUP2 MSTORE ADDRESS PUSH1 0x4 DUP3 ADD MSTORE SWAP1 MLOAD SWAP2 SWAP3 POP PUSH1 0x1 PUSH1 0xA0 PUSH1 0x2 EXP SUB DUP4 AND SWAP2 PUSH4 0xA9059CBB SWAP2 CALLER SWAP2 DUP5 SWAP2 PUSH4 0x70A08231 SWAP2 PUSH1 0x24 DUP1 DUP4 ADD SWAP3 PUSH1 0x20 SWAP3 SWAP2 SWAP1 DUP3 SWAP1 SUB ADD DUP2 PUSH1 0x0 DUP8 DUP1 EXTCODESIZE ISZERO DUP1 ISZERO PUSH2 0x6A6 JUMPI PUSH1 0x0 DUP1 REVERT JUMPDEST POP GAS CALL ISZERO DUP1 ISZERO PUSH2 0x6BA JUMPI RETURNDATASIZE PUSH1 0x0 DUP1 RETURNDATACOPY RETURNDATASIZE PUSH1 0x0 REVERT JUMPDEST POP POP POP POP PUSH1 0x40 MLOAD RETURNDATASIZE PUSH1 0x20 DUP2 LT ISZERO PUSH2 0x6D0 JUMPI PUSH1 0x0 DUP1 REVERT JUMPDEST POP MLOAD PUSH1 0x40 DUP1 MLOAD PUSH1 0xE0 PUSH1 0x2 EXP PUSH4 0xFFFFFFFF DUP7 AND MUL DUP2 MSTORE PUSH1 0x1 PUSH1 0xA0 PUSH1 0x2 EXP SUB SWAP1 SWAP4 AND PUSH1 0x4 DUP5 ADD MSTORE PUSH1 0x24 DUP4 ADD SWAP2 SWAP1 SWAP2 MSTORE MLOAD PUSH1 0x44 DUP1 DUP4 ADD SWAP3 PUSH1 0x20 SWAP3 SWAP2 SWAP1 DUP3 SWAP1 SUB ADD DUP2 PUSH1 0x0 DUP8 DUP1 EXTCODESIZE ISZERO DUP1 ISZERO PUSH2 0x71F JUMPI PUSH1 0x0 DUP1 REVERT JUMPDEST POP GAS CALL ISZERO DUP1 ISZERO PUSH2 0x733 JUMPI RETURNDATASIZE PUSH1 0x0 DUP1 RETURNDATACOPY RETURNDATASIZE PUSH1 0x0 REVERT JUMPDEST POP POP POP POP PUSH1 0x40 MLOAD RETURNDATASIZE PUSH1 0x20 DUP2 LT ISZERO PUSH2 0x749 JUMPI PUSH1 0x0 DUP1 REVERT JUMPDEST POP MLOAD ISZERO ISZERO PUSH2 0x7A1 JUMPI PUSH1 0x40 DUP1 MLOAD PUSH1 0xE5 PUSH1 0x2 EXP PUSH3 0x461BCD MUL DUP2 MSTORE PUSH1 0x20 PUSH1 0x4 DUP3 ADD MSTORE PUSH1 0x12 PUSH1 0x24 DUP3 ADD MSTORE PUSH32 0x556E61626C6520746F207472616E736665720000000000000000000000000000 PUSH1 0x44 DUP3 ADD MSTORE SWAP1 MLOAD SWAP1 DUP2 SWAP1 SUB PUSH1 0x64 ADD SWAP1 REVERT JUMPDEST POP JUMP JUMPDEST PUSH1 0x0 DUP3 DUP2 MSTORE PUSH1 0x5 PUSH1 0x20 MSTORE PUSH1 0x40 SWAP1 KECCAK256 SLOAD DUP3 SWAP1 PUSH1 0x1 PUSH1 0xA0 PUSH1 0x2 EXP SUB AND CALLER EQ PUSH2 0x83A JUMPI PUSH1 0x40 DUP1 MLOAD PUSH1 0xE5 PUSH1 0x2 EXP PUSH3 0x461BCD MUL DUP2 MSTORE PUSH1 0x20 PUSH1 0x4 DUP3 ADD MSTORE PUSH1 0x28 PUSH1 0x24 DUP3 ADD MSTORE PUSH32 0x536F75726365206D75737420626520746865206F7261636C65206F6620746865 PUSH1 0x44 DUP3 ADD MSTORE PUSH32 0x2072657175657374000000000000000000000000000000000000000000000000 PUSH1 0x64 DUP3 ADD MSTORE SWAP1 MLOAD SWAP1 DUP2 SWAP1 SUB PUSH1 0x84 ADD SWAP1 REVERT JUMPDEST PUSH1 0x0 DUP2 DUP2 MSTORE PUSH1 0x5 PUSH1 0x20 MSTORE PUSH1 0x40 DUP1 DUP3 KECCAK256 DUP1 SLOAD PUSH20 0xFFFFFFFFFFFFFFFFFFFFFFFFFFFFFFFFFFFFFFFF NOT AND SWAP1 SSTORE MLOAD DUP3 SWAP2 PUSH32 0xA40AD10B942505047C532A7399BF5EAC2768B11B7155B40EC80309AEA567F998 SWAP2 LOG2 PUSH1 0x40 MLOAD DUP3 SWAP1 DUP5 SWAP1 PUSH32 0x1CA8663227A7FE9919713A01D344AFBB434E234F35A3E540A6AD924F88771F38 SWAP1 PUSH1 0x0 SWAP1 LOG3 POP PUSH1 0x9 SSTORE POP JUMP JUMPDEST PUSH1 0x9 SLOAD DUP2 JUMP JUMPDEST PUSH1 0x6 SLOAD PUSH1 0x1 PUSH1 0xA0 PUSH1 0x2 EXP SUB AND CALLER EQ PUSH2 0x8DB JUMPI PUSH1 0x0 DUP1 REVERT JUMPDEST PUSH1 0x6 SLOAD PUSH1 0x40 MLOAD PUSH1 0x1 PUSH1 0xA0 PUSH1 0x2 EXP SUB SWAP1 SWAP2 AND SWAP1 PUSH32 0xF8DF31144D9C2F0F6B59D69B8B98ABD5459D07F2742C4DF920B25AAE33C64820 SWAP1 PUSH1 0x0 SWAP1 LOG2 PUSH1 0x6 DUP1 SLOAD PUSH20 0xFFFFFFFFFFFFFFFFFFFFFFFFFFFFFFFFFFFFFFFF NOT AND SWAP1 SSTORE JUMP JUMPDEST PUSH1 0x7 SLOAD PUSH1 0x1 PUSH1 0xA0 PUSH1 0x2 EXP SUB AND DUP2 JUMP JUMPDEST PUSH1 0xA SLOAD DUP2 JUMP JUMPDEST PUSH1 0x6 SLOAD PUSH1 0x1 PUSH1 0xA0 PUSH1 0x2 EXP SUB AND DUP2 JUMP JUMPDEST PUSH1 0x9 SLOAD SWAP1 JUMP JUMPDEST PUSH1 0x0 DUP1 PUSH2 0x967 PUSH2 0x199A JUMP JUMPDEST PUSH1 0x1 PUSH1 0xA0 PUSH1 0x2 EXP SUB DUP5 AND PUSH1 0x0 SWAP1 DUP2 MSTORE PUSH1 0xB PUSH1 0x20 MSTORE PUSH1 0x40 SWAP1 KECCAK256 PUSH1 0x1 ADD SLOAD SWAP2 POP PUSH7 0x2386F26FC10000 DUP3 GT PUSH2 0x9E3 JUMPI PUSH1 0x40 DUP1 MLOAD PUSH1 0xE5 PUSH1 0x2 EXP PUSH3 0x461BCD MUL DUP2 MSTORE PUSH1 0x20 PUSH1 0x4 DUP3 ADD MSTORE PUSH1 0x15 PUSH1 0x24 DUP3 ADD MSTORE PUSH32 0x4E4F5F53554646494349454E545F435245444954530000000000000000000000 PUSH1 0x44 DUP3 ADD MSTORE SWAP1 MLOAD SWAP1 DUP2 SWAP1 SUB PUSH1 0x64 ADD SWAP1 REVERT JUMPDEST PUSH1 0x1 PUSH1 0xA0 PUSH1 0x2 EXP SUB DUP5 AND PUSH1 0x0 SWAP1 DUP2 MSTORE PUSH1 0xB PUSH1 0x20 SWAP1 DUP2 MSTORE PUSH1 0x40 SWAP2 DUP3 SWAP1 KECCAK256 PUSH7 0x2386F26FC0FFFF NOT DUP6 ADD PUSH1 0x1 SWAP2 DUP3 ADD SSTORE PUSH1 0x8 DUP1 SLOAD DUP5 MLOAD PUSH1 0x2 SWAP4 DUP3 AND ISZERO PUSH2 0x100 MUL PUSH1 0x0 NOT ADD SWAP1 SWAP2 AND SWAP3 SWAP1 SWAP3 DIV PUSH1 0x1F DUP2 ADD DUP5 SWAP1 DIV DUP5 MUL DUP4 ADD DUP5 ADD SWAP1 SWAP5 MSTORE DUP4 DUP3 MSTORE PUSH2 0xA6C SWAP4 PUSH2 0x3FB SWAP4 DUP4 ADD DUP3 DUP3 DUP1 ISZERO PUSH2 0x3F1 JUMPI DUP1 PUSH1 0x1F LT PUSH2 0x3C6 JUMPI PUSH2 0x100 DUP1 DUP4 SLOAD DIV MUL DUP4 MSTORE SWAP2 PUSH1 0x20 ADD SWAP2 PUSH2 0x3F1 JUMP JUMPDEST PUSH1 0x40 DUP1 MLOAD DUP1 DUP3 ADD DUP3 MSTORE PUSH1 0x6 DUP2 MSTORE PUSH32 0x5F6673796D730000000000000000000000000000000000000000000000000000 PUSH1 0x20 DUP1 DUP4 ADD SWAP2 SWAP1 SWAP2 MSTORE DUP3 MLOAD DUP1 DUP5 ADD SWAP1 SWAP4 MSTORE PUSH1 0x3 DUP4 MSTORE PUSH32 0x5844430000000000000000000000000000000000000000000000000000000000 SWAP1 DUP4 ADD MSTORE SWAP2 SWAP3 POP PUSH2 0xAE8 SWAP2 DUP4 SWAP2 PUSH4 0xFFFFFFFF PUSH2 0xF61 AND JUMP JUMPDEST PUSH1 0x40 DUP1 MLOAD DUP1 DUP3 ADD DUP3 MSTORE PUSH1 0x6 DUP2 MSTORE PUSH32 0x5F7473796D730000000000000000000000000000000000000000000000000000 PUSH1 0x20 DUP1 DUP4 ADD SWAP2 SWAP1 SWAP2 MSTORE DUP3 MLOAD DUP1 DUP5 ADD SWAP1 SWAP4 MSTORE PUSH1 0x4 DUP4 MSTORE PUSH32 0x5553445400000000000000000000000000000000000000000000000000000000 SWAP1 DUP4 ADD MSTORE PUSH2 0xB62 SWAP2 DUP4 SWAP2 SWAP1 PUSH4 0xFFFFFFFF PUSH2 0xF61 AND JUMP JUMPDEST PUSH1 0x40 DUP1 MLOAD DUP1 DUP3 ADD SWAP1 SWAP2 MSTORE PUSH1 0x5 DUP2 MSTORE PUSH32 0x74696D6573000000000000000000000000000000000000000000000000000000 PUSH1 0x20 DUP3 ADD MSTORE PUSH2 0xBAA SWAP1 DUP3 SWAP1 PUSH2 0x2710 PUSH4 0xFFFFFFFF PUSH2 0xF90 AND JUMP JUMPDEST PUSH1 0x7 SLOAD PUSH2 0xBC8 SWAP1 PUSH1 0x1 PUSH1 0xA0 PUSH1 0x2 EXP SUB AND DUP3 PUSH7 0x2386F26FC10000 PUSH2 0xFBA JUMP JUMPDEST TIMESTAMP PUSH1 0xA SSTORE PUSH1 0x8 DUP1 SLOAD PUSH1 0x40 DUP1 MLOAD PUSH1 0x20 PUSH1 0x1F PUSH1 0x2 PUSH2 0x100 PUSH1 0x1 DUP8 AND ISZERO MUL PUSH1 0x0 NOT ADD SWAP1 SWAP6 AND SWAP5 SWAP1 SWAP5 DIV SWAP4 DUP5 ADD DUP2 SWAP1 DIV DUP2 MUL DUP3 ADD DUP2 ADD SWAP1 SWAP3 MSTORE DUP3 DUP2 MSTORE SWAP4 SWAP7 POP DUP7 SWAP4 PUSH2 0xC33 SWAP4 SWAP1 SWAP3 SWAP1 SWAP2 DUP4 ADD DUP3 DUP3 DUP1 ISZERO PUSH2 0x3F1 JUMPI DUP1 PUSH1 0x1F LT PUSH2 0x3C6 JUMPI PUSH2 0x100 DUP1 DUP4 SLOAD DIV MUL DUP4 MSTORE SWAP2 PUSH1 0x20 ADD SWAP2 PUSH2 0x3F1 JUMP JUMPDEST PUSH1 0x40 MLOAD PUSH1 0x1 PUSH1 0xA0 PUSH1 0x2 EXP SUB DUP8 AND SWAP1 PUSH32 0x7F3DF4038A13E7B83557E5A0EBF67FEC07391A522319AB42E81255E88DE18FFB SWAP1 PUSH1 0x0 SWAP1 LOG4 POP POP SWAP2 SWAP1 POP JUMP JUMPDEST PUSH1 0xB PUSH1 0x20 MSTORE PUSH1 0x0 SWAP1 DUP2 MSTORE PUSH1 0x40 SWAP1 KECCAK256 DUP1 SLOAD PUSH1 0x1 SWAP1 SWAP2 ADD SLOAD PUSH1 0x1 PUSH1 0xA0 PUSH1 0x2 EXP SUB SWAP1 SWAP2 AND SWAP1 DUP3 JUMP JUMPDEST PUSH1 0x0 PUSH2 0xC9D PUSH2 0x1257 JUMP JUMPDEST SWAP1 POP SWAP1 JUMP JUMPDEST PUSH1 0x8 DUP1 SLOAD PUSH1 0x40 DUP1 MLOAD PUSH1 0x20 PUSH1 0x2 PUSH1 0x1 DUP6 AND ISZERO PUSH2 0x100 MUL PUSH1 0x0 NOT ADD SWAP1 SWAP5 AND SWAP4 SWAP1 SWAP4 DIV PUSH1 0x1F DUP2 ADD DUP5 SWAP1 DIV DUP5 MUL DUP3 ADD DUP5 ADD SWAP1 SWAP3 MSTORE DUP2 DUP2 MSTORE SWAP3 SWAP2 DUP4 ADD DUP3 DUP3 DUP1 ISZERO PUSH2 0xD28 JUMPI DUP1 PUSH1 0x1F LT PUSH2 0xCFD JUMPI PUSH2 0x100 DUP1 DUP4 SLOAD DIV MUL DUP4 MSTORE SWAP2 PUSH1 0x20 ADD SWAP2 PUSH2 0xD28 JUMP JUMPDEST DUP3 ADD SWAP2 SWAP1 PUSH1 0x0 MSTORE PUSH1 0x20 PUSH1 0x0 KECCAK256 SWAP1 JUMPDEST DUP2 SLOAD DUP2 MSTORE SWAP1 PUSH1 0x1 ADD SWAP1 PUSH1 0x20 ADD DUP1 DUP4 GT PUSH2 0xD0B JUMPI DUP3 SWAP1 SUB PUSH1 0x1F AND DUP3 ADD SWAP2 JUMPDEST POP POP POP POP POP DUP2 JUMP JUMPDEST PUSH1 0x0 DUP1 PUSH2 0xD3B PUSH2 0x19CF JUMP JUMPDEST PUSH1 0x0 PUSH9 0x56BC75E2D63100000 DUP6 GT ISZERO PUSH2 0xD9E JUMPI PUSH1 0x40 DUP1 MLOAD PUSH1 0xE5 PUSH1 0x2 EXP PUSH3 0x461BCD MUL DUP2 MSTORE PUSH1 0x20 PUSH1 0x4 DUP3 ADD MSTORE PUSH1 0x19 PUSH1 0x24 DUP3 ADD MSTORE PUSH32 0x4E4F545F4D4F52455F5448414E5F3130305F414C4C4F57454400000000000000 PUSH1 0x44 DUP3 ADD MSTORE SWAP1 MLOAD SWAP1 DUP2 SWAP1 SUB PUSH1 0x64 ADD SWAP1 REVERT JUMPDEST PUSH2 0xDA6 PUSH2 0x1257 JUMP JUMPDEST PUSH1 0x40 DUP1 MLOAD PUSH32 0x23B872DD00000000000000000000000000000000000000000000000000000000 DUP2 MSTORE CALLER PUSH1 0x4 DUP3 ADD MSTORE ADDRESS PUSH1 0x24 DUP3 ADD MSTORE PUSH1 0x44 DUP2 ADD DUP9 SWAP1 MSTORE SWAP1 MLOAD SWAP2 SWAP5 POP PUSH1 0x1 PUSH1 0xA0 PUSH1 0x2 EXP SUB DUP6 AND SWAP2 PUSH4 0x23B872DD SWAP2 PUSH1 0x64 DUP1 DUP3 ADD SWAP3 PUSH1 0x20 SWAP3 SWAP1 SWAP2 SWAP1 DUP3 SWAP1 SUB ADD DUP2 PUSH1 0x0 DUP8 DUP1 EXTCODESIZE ISZERO DUP1 ISZERO PUSH2 0xE18 JUMPI PUSH1 0x0 DUP1 REVERT JUMPDEST POP GAS CALL ISZERO DUP1 ISZERO PUSH2 0xE2C JUMPI RETURNDATASIZE PUSH1 0x0 DUP1 RETURNDATACOPY RETURNDATASIZE PUSH1 0x0 REVERT JUMPDEST POP POP POP POP PUSH1 0x40 MLOAD RETURNDATASIZE PUSH1 0x20 DUP2 LT ISZERO PUSH2 0xE42 JUMPI PUSH1 0x0 DUP1 REVERT JUMPDEST POP POP CALLER PUSH1 0x0 DUP2 DUP2 MSTORE PUSH1 0xB PUSH1 0x20 DUP2 DUP2 MSTORE PUSH1 0x40 DUP1 DUP5 KECCAK256 DUP2 MLOAD DUP1 DUP4 ADD DUP4 MSTORE DUP2 SLOAD PUSH1 0x1 PUSH1 0xA0 PUSH1 0x2 EXP SUB DUP2 DUP2 AND DUP4 MSTORE PUSH1 0x1 DUP1 DUP6 ADD DUP1 SLOAD SWAP5 DUP9 ADD DUP6 SWAP1 MSTORE DUP7 MLOAD DUP1 DUP9 ADD SWAP1 SWAP8 MSTORE DUP11 DUP8 MSTORE SWAP15 SWAP1 SWAP4 ADD DUP6 DUP8 ADD SWAP1 DUP2 MSTORE SWAP9 SWAP1 SWAP8 MSTORE SWAP5 SWAP1 SWAP4 MSTORE SWAP1 MLOAD SWAP1 SWAP4 AND PUSH20 0xFFFFFFFFFFFFFFFFFFFFFFFFFFFFFFFFFFFFFFFF NOT SWAP1 SWAP3 AND SWAP2 SWAP1 SWAP2 OR SWAP1 SWAP2 SSTORE SWAP1 MLOAD SWAP1 SWAP6 SSTORE POP SWAP3 SWAP4 SWAP3 POP POP POP JUMP JUMPDEST PUSH1 0x6 SLOAD PUSH1 0x1 PUSH1 0xA0 PUSH1 0x2 EXP SUB AND CALLER EQ PUSH2 0xEE0 JUMPI PUSH1 0x0 DUP1 REVERT JUMPDEST PUSH2 0xEEC DUP5 DUP5 DUP5 DUP5 PUSH2 0x1266 JUMP JUMPDEST POP POP POP POP JUMP JUMPDEST PUSH1 0x6 SLOAD PUSH1 0x1 PUSH1 0xA0 PUSH1 0x2 EXP SUB AND CALLER EQ PUSH2 0xF09 JUMPI PUSH1 0x0 DUP1 REVERT JUMPDEST PUSH2 0x7A1 DUP2 PUSH2 0x1364 JUMP JUMPDEST DUP1 MLOAD PUSH1 0x0 SWAP1 DUP3 SWAP1 ISZERO ISZERO PUSH2 0xF28 JUMPI PUSH1 0x0 SWAP2 POP PUSH2 0xF30 JUMP JUMPDEST PUSH1 0x20 DUP4 ADD MLOAD SWAP2 POP JUMPDEST POP SWAP2 SWAP1 POP JUMP JUMPDEST PUSH2 0xF3E PUSH2 0x199A JUMP JUMPDEST PUSH2 0xF46 PUSH2 0x199A JUMP JUMPDEST PUSH2 0xF58 DUP2 DUP7 DUP7 DUP7 PUSH4 0xFFFFFFFF PUSH2 0x13E2 AND JUMP JUMPDEST SWAP6 SWAP5 POP POP POP POP POP JUMP JUMPDEST PUSH1 0x80 DUP4 ADD MLOAD PUSH2 0xF76 SWAP1 DUP4 PUSH4 0xFFFFFFFF PUSH2 0x141F AND JUMP JUMPDEST PUSH1 0x80 DUP4 ADD MLOAD PUSH2 0xF8B SWAP1 DUP3 PUSH4 0xFFFFFFFF PUSH2 0x141F AND JUMP JUMPDEST POP POP POP JUMP JUMPDEST PUSH1 0x80 DUP4 ADD MLOAD PUSH2 0xFA5 SWAP1 DUP4 PUSH4 0xFFFFFFFF PUSH2 0x141F AND JUMP JUMPDEST PUSH1 0x80 DUP4 ADD MLOAD PUSH2 0xF8B SWAP1 DUP3 PUSH4 0xFFFFFFFF PUSH2 0x143C AND JUMP JUMPDEST PUSH1 0x0 ADDRESS PUSH1 0x4 SLOAD PUSH1 0x40 MLOAD PUSH1 0x20 ADD DUP1 DUP4 PUSH1 0x1 PUSH1 0xA0 PUSH1 0x2 EXP SUB AND PUSH1 0x1 PUSH1 0xA0 PUSH1 0x2 EXP SUB AND PUSH13 0x1000000000000000000000000 MUL DUP2 MSTORE PUSH1 0x14 ADD DUP3 DUP2 MSTORE PUSH1 0x20 ADD SWAP3 POP POP POP PUSH1 0x40 MLOAD PUSH1 0x20 DUP2 DUP4 SUB SUB DUP2 MSTORE SWAP1 PUSH1 0x40 MSTORE PUSH1 0x40 MLOAD DUP1 DUP3 DUP1 MLOAD SWAP1 PUSH1 0x20 ADD SWAP1 DUP1 DUP4 DUP4 JUMPDEST PUSH1 0x20 DUP4 LT PUSH2 0x1036 JUMPI DUP1 MLOAD DUP3 MSTORE PUSH1 0x1F NOT SWAP1 SWAP3 ADD SWAP2 PUSH1 0x20 SWAP2 DUP3 ADD SWAP2 ADD PUSH2 0x1017 JUMP JUMPDEST MLOAD DUP2 MLOAD PUSH1 0x20 SWAP4 DUP5 SUB PUSH2 0x100 EXP PUSH1 0x0 NOT ADD DUP1 NOT SWAP1 SWAP3 AND SWAP2 AND OR SWAP1 MSTORE PUSH1 0x40 DUP1 MLOAD SWAP3 SWAP1 SWAP5 ADD DUP3 SWAP1 SUB SWAP1 SWAP2 KECCAK256 PUSH1 0x4 SLOAD PUSH1 0x60 DUP11 ADD MSTORE PUSH1 0x0 DUP2 DUP2 MSTORE PUSH1 0x5 SWAP1 SWAP3 MSTORE DUP4 DUP3 KECCAK256 DUP1 SLOAD PUSH20 0xFFFFFFFFFFFFFFFFFFFFFFFFFFFFFFFFFFFFFFFF NOT AND PUSH1 0x1 PUSH1 0xA0 PUSH1 0x2 EXP SUB DUP13 AND OR SWAP1 SSTORE SWAP3 MLOAD SWAP3 SWAP6 POP DUP6 SWAP5 POP PUSH32 0xA6745906207AFB96A5801B8E5711FD7B74C5780CE893A973806E179D675BBE24 SWAP4 POP SWAP2 SWAP1 POP LOG2 PUSH1 0x2 SLOAD PUSH1 0x1 PUSH1 0xA0 PUSH1 0x2 EXP SUB AND PUSH4 0x4000AEA0 DUP6 DUP5 PUSH2 0x10E4 DUP8 PUSH2 0x149E JUMP JUMPDEST PUSH1 0x40 MLOAD DUP5 PUSH4 0xFFFFFFFF AND PUSH1 0xE0 PUSH1 0x2 EXP MUL DUP2 MSTORE PUSH1 0x4 ADD DUP1 DUP5 PUSH1 0x1 PUSH1 0xA0 PUSH1 0x2 EXP SUB AND PUSH1 0x1 PUSH1 0xA0 PUSH1 0x2 EXP SUB AND DUP2 MSTORE PUSH1 0x20 ADD DUP4 DUP2 MSTORE PUSH1 0x20 ADD DUP1 PUSH1 0x20 ADD DUP3 DUP2 SUB DUP3 MSTORE DUP4 DUP2 DUP2 MLOAD DUP2 MSTORE PUSH1 0x20 ADD SWAP2 POP DUP1 MLOAD SWAP1 PUSH1 0x20 ADD SWAP1 DUP1 DUP4 DUP4 PUSH1 0x0 JUMPDEST DUP4 DUP2 LT ISZERO PUSH2 0x1151 JUMPI DUP2 DUP2 ADD MLOAD DUP4 DUP3 ADD MSTORE PUSH1 0x20 ADD PUSH2 0x1139 JUMP JUMPDEST POP POP POP POP SWAP1 POP SWAP1 DUP2 ADD SWAP1 PUSH1 0x1F AND DUP1 ISZERO PUSH2 0x117E JUMPI DUP1 DUP3 SUB DUP1 MLOAD PUSH1 0x1 DUP4 PUSH1 0x20 SUB PUSH2 0x100 EXP SUB NOT AND DUP2 MSTORE PUSH1 0x20 ADD SWAP2 POP JUMPDEST POP SWAP5 POP POP POP POP POP PUSH1 0x20 PUSH1 0x40 MLOAD DUP1 DUP4 SUB DUP2 PUSH1 0x0 DUP8 DUP1 EXTCODESIZE ISZERO DUP1 ISZERO PUSH2 0x119F JUMPI PUSH1 0x0 DUP1 REVERT JUMPDEST POP GAS CALL ISZERO DUP1 ISZERO PUSH2 0x11B3 JUMPI RETURNDATASIZE PUSH1 0x0 DUP1 RETURNDATACOPY RETURNDATASIZE PUSH1 0x0 REVERT JUMPDEST POP POP POP POP PUSH1 0x40 MLOAD RETURNDATASIZE PUSH1 0x20 DUP2 LT ISZERO PUSH2 0x11C9 JUMPI PUSH1 0x0 DUP1 REVERT JUMPDEST POP MLOAD ISZERO ISZERO PUSH2 0x1247 JUMPI PUSH1 0x40 DUP1 MLOAD PUSH1 0xE5 PUSH1 0x2 EXP PUSH3 0x461BCD MUL DUP2 MSTORE PUSH1 0x20 PUSH1 0x4 DUP3 ADD MSTORE PUSH1 0x23 PUSH1 0x24 DUP3 ADD MSTORE PUSH32 0x756E61626C6520746F207472616E73666572416E6443616C6C20746F206F7261 PUSH1 0x44 DUP3 ADD MSTORE PUSH32 0x636C650000000000000000000000000000000000000000000000000000000000 PUSH1 0x64 DUP3 ADD MSTORE SWAP1 MLOAD SWAP1 DUP2 SWAP1 SUB PUSH1 0x84 ADD SWAP1 REVERT JUMPDEST PUSH1 0x4 DUP1 SLOAD PUSH1 0x1 ADD SWAP1 SSTORE SWAP4 SWAP3 POP POP POP JUMP JUMPDEST PUSH1 0x2 SLOAD PUSH1 0x1 PUSH1 0xA0 PUSH1 0x2 EXP SUB AND SWAP1 JUMP JUMPDEST PUSH1 0x0 DUP5 DUP2 MSTORE PUSH1 0x5 PUSH1 0x20 MSTORE PUSH1 0x40 DUP1 DUP3 KECCAK256 DUP1 SLOAD PUSH20 0xFFFFFFFFFFFFFFFFFFFFFFFFFFFFFFFFFFFFFFFF NOT DUP2 AND SWAP1 SWAP2 SSTORE SWAP1 MLOAD PUSH1 0x1 PUSH1 0xA0 PUSH1 0x2 EXP SUB SWAP1 SWAP2 AND SWAP2 DUP7 SWAP2 PUSH32 0x715822738DAD692E521EBC0193D189BF23153EB1D4420173D6B30CD8ADD9F9A6 SWAP2 SWAP1 LOG2 PUSH1 0x40 DUP1 MLOAD PUSH32 0x6EE4D55300000000000000000000000000000000000000000000000000000000 DUP2 MSTORE PUSH1 0x4 DUP2 ADD DUP8 SWAP1 MSTORE PUSH1 0x24 DUP2 ADD DUP7 SWAP1 MSTORE PUSH1 0x1 PUSH1 0xE0 PUSH1 0x2 EXP SUB NOT DUP6 AND PUSH1 0x44 DUP3 ADD MSTORE PUSH1 0x64 DUP2 ADD DUP5 SWAP1 MSTORE SWAP1 MLOAD PUSH1 0x1 PUSH1 0xA0 PUSH1 0x2 EXP SUB DUP4 AND SWAP2 PUSH4 0x6EE4D553 SWAP2 PUSH1 0x84 DUP1 DUP4 ADD SWAP3 PUSH1 0x0 SWAP3 SWAP2 SWAP1 DUP3 SWAP1 SUB ADD DUP2 DUP4 DUP8 DUP1 EXTCODESIZE ISZERO DUP1 ISZERO PUSH2 0x1345 JUMPI PUSH1 0x0 DUP1 REVERT JUMPDEST POP GAS CALL ISZERO DUP1 ISZERO PUSH2 0x1359 JUMPI RETURNDATASIZE PUSH1 0x0 DUP1 RETURNDATACOPY RETURNDATASIZE PUSH1 0x0 REVERT JUMPDEST POP POP POP POP POP POP POP POP POP JUMP JUMPDEST PUSH1 0x1 PUSH1 0xA0 PUSH1 0x2 EXP SUB DUP2 AND ISZERO ISZERO PUSH2 0x1379 JUMPI PUSH1 0x0 DUP1 REVERT JUMPDEST PUSH1 0x6 SLOAD PUSH1 0x40 MLOAD PUSH1 0x1 PUSH1 0xA0 PUSH1 0x2 EXP SUB DUP1 DUP5 AND SWAP3 AND SWAP1 PUSH32 0x8BE0079C531659141344CD1FD0A4F28419497F9722A3DAAFE3B4186F6B6457E0 SWAP1 PUSH1 0x0 SWAP1 LOG3 PUSH1 0x6 DUP1 SLOAD PUSH20 0xFFFFFFFFFFFFFFFFFFFFFFFFFFFFFFFFFFFFFFFF NOT AND PUSH1 0x1 PUSH1 0xA0 PUSH1 0x2 EXP SUB SWAP3 SWAP1 SWAP3 AND SWAP2 SWAP1 SWAP2 OR SWAP1 SSTORE JUMP JUMPDEST PUSH2 0x13EA PUSH2 0x199A JUMP JUMPDEST PUSH2 0x13FA DUP6 PUSH1 0x80 ADD MLOAD PUSH2 0x100 PUSH2 0x15F5 JUMP JUMPDEST POP POP SWAP2 DUP4 MSTORE PUSH1 0x1 PUSH1 0xA0 PUSH1 0x2 EXP SUB AND PUSH1 0x20 DUP4 ADD MSTORE PUSH1 0x1 PUSH1 0xE0 PUSH1 0x2 EXP SUB NOT AND PUSH1 0x40 DUP3 ADD MSTORE SWAP1 JUMP JUMPDEST PUSH2 0x142C DUP3 PUSH1 0x3 DUP4 MLOAD PUSH2 0x1635 JUMP JUMPDEST PUSH2 0xF8B DUP3 DUP3 PUSH4 0xFFFFFFFF PUSH2 0x1732 AND JUMP JUMPDEST PUSH8 0xFFFFFFFFFFFFFFFF NOT DUP2 SLT ISZERO PUSH2 0x145C JUMPI PUSH2 0x1457 DUP3 DUP3 PUSH2 0x1753 JUMP JUMPDEST PUSH2 0x149A JUMP JUMPDEST PUSH8 0xFFFFFFFFFFFFFFFF DUP2 SGT ISZERO PUSH2 0x1476 JUMPI PUSH2 0x1457 DUP3 DUP3 PUSH2 0x1792 JUMP JUMPDEST PUSH1 0x0 DUP2 SLT PUSH2 0x148A JUMPI PUSH2 0x1457 DUP3 PUSH1 0x0 DUP4 PUSH2 0x1635 JUMP JUMPDEST PUSH2 0x149A DUP3 PUSH1 0x1 DUP4 PUSH1 0x0 NOT SUB PUSH2 0x1635 JUMP JUMPDEST POP POP JUMP JUMPDEST DUP1 MLOAD PUSH1 0x20 DUP1 DUP4 ADD MLOAD PUSH1 0x40 DUP1 DUP6 ADD MLOAD PUSH1 0x60 DUP7 DUP2 ADD MLOAD PUSH1 0x80 DUP9 ADD MLOAD MLOAD SWAP4 MLOAD PUSH1 0x0 PUSH1 0x24 DUP3 ADD DUP2 DUP2 MSTORE PUSH1 0x44 DUP4 ADD DUP3 SWAP1 MSTORE PUSH1 0x64 DUP4 ADD DUP11 SWAP1 MSTORE PUSH1 0x1 PUSH1 0xA0 PUSH1 0x2 EXP SUB DUP9 AND PUSH1 0x84 DUP5 ADD MSTORE PUSH1 0x1 PUSH1 0xE0 PUSH1 0x2 EXP SUB NOT DUP7 AND PUSH1 0xA4 DUP5 ADD MSTORE PUSH1 0xC4 DUP4 ADD DUP5 SWAP1 MSTORE PUSH1 0x1 PUSH1 0xE4 DUP5 ADD DUP2 SWAP1 MSTORE PUSH2 0x100 PUSH2 0x104 DUP6 ADD SWAP1 DUP2 MSTORE DUP9 MLOAD PUSH2 0x124 DUP7 ADD MSTORE DUP9 MLOAD SWAP7 SWAP12 PUSH32 0x4042994600000000000000000000000000000000000000000000000000000000 SWAP12 SWAP5 SWAP11 DUP12 SWAP11 SWAP2 SWAP10 SWAP1 SWAP9 SWAP1 SWAP8 SWAP7 SWAP4 SWAP6 SWAP2 SWAP5 SWAP4 PUSH2 0x144 ADD SWAP2 DUP6 ADD SWAP1 DUP1 DUP4 DUP4 DUP15 JUMPDEST DUP4 DUP2 LT ISZERO PUSH2 0x156E JUMPI DUP2 DUP2 ADD MLOAD DUP4 DUP3 ADD MSTORE PUSH1 0x20 ADD PUSH2 0x1556 JUMP JUMPDEST POP POP POP POP SWAP1 POP SWAP1 DUP2 ADD SWAP1 PUSH1 0x1F AND DUP1 ISZERO PUSH2 0x159B JUMPI DUP1 DUP3 SUB DUP1 MLOAD PUSH1 0x1 DUP4 PUSH1 0x20 SUB PUSH2 0x100 EXP SUB NOT AND DUP2 MSTORE PUSH1 0x20 ADD SWAP2 POP JUMPDEST POP PUSH1 0x40 DUP1 MLOAD PUSH1 0x1F NOT DUP2 DUP5 SUB ADD DUP2 MSTORE SWAP2 SWAP1 MSTORE PUSH1 0x20 DUP2 ADD DUP1 MLOAD PUSH28 0xFFFFFFFFFFFFFFFFFFFFFFFFFFFFFFFFFFFFFFFFFFFFFFFFFFFFFFFF AND PUSH1 0x1 PUSH1 0xE0 PUSH1 0x2 EXP SUB NOT SWAP1 SWAP14 AND SWAP13 SWAP1 SWAP13 OR SWAP1 SWAP12 MSTORE POP SWAP9 SWAP10 POP POP POP POP POP POP POP POP POP POP SWAP2 SWAP1 POP JUMP JUMPDEST PUSH2 0x15FD PUSH2 0x19E6 JUMP JUMPDEST PUSH1 0x20 DUP3 MOD ISZERO PUSH2 0x1612 JUMPI PUSH1 0x20 DUP3 MOD PUSH1 0x20 SUB DUP3 ADD SWAP2 POP JUMPDEST POP PUSH1 0x20 DUP1 DUP4 ADD DUP3 SWAP1 MSTORE PUSH1 0x40 DUP1 MLOAD DUP1 DUP6 MSTORE PUSH1 0x0 DUP2 MSTORE DUP4 ADD SWAP1 SWAP2 ADD SWAP1 MSTORE DUP2 JUMPDEST SWAP3 SWAP2 POP POP JUMP JUMPDEST PUSH1 0x17 DUP2 GT PUSH2 0x1657 JUMPI PUSH2 0x1651 DUP4 PUSH1 0xFF DUP5 DUP2 AND PUSH1 0x20 MUL AND DUP4 OR PUSH2 0x17CD JUMP JUMPDEST POP PUSH2 0xF8B JUMP JUMPDEST PUSH1 0xFF DUP2 GT PUSH2 0x168B JUMPI PUSH2 0x1678 DUP4 PUSH1 0x18 PUSH1 0x20 PUSH1 0xFF DUP7 AND MUL OR PUSH4 0xFFFFFFFF PUSH2 0x17CD AND JUMP JUMPDEST POP PUSH2 0x1651 DUP4 DUP3 PUSH1 0x1 PUSH4 0xFFFFFFFF PUSH2 0x17E5 AND JUMP JUMPDEST PUSH2 0xFFFF DUP2 GT PUSH2 0x16C0 JUMPI PUSH2 0x16AD DUP4 PUSH1 0x19 PUSH1 0x20 PUSH1 0xFF DUP7 AND MUL OR PUSH4 0xFFFFFFFF PUSH2 0x17CD AND JUMP JUMPDEST POP PUSH2 0x1651 DUP4 DUP3 PUSH1 0x2 PUSH4 0xFFFFFFFF PUSH2 0x17E5 AND JUMP JUMPDEST PUSH4 0xFFFFFFFF DUP2 GT PUSH2 0x16F7 JUMPI PUSH2 0x16E4 DUP4 PUSH1 0x1A PUSH1 0x20 PUSH1 0xFF DUP7 AND MUL OR PUSH4 0xFFFFFFFF PUSH2 0x17CD AND JUMP JUMPDEST POP PUSH2 0x1651 DUP4 DUP3 PUSH1 0x4 PUSH4 0xFFFFFFFF PUSH2 0x17E5 AND JUMP JUMPDEST PUSH8 0xFFFFFFFFFFFFFFFF DUP2 GT PUSH2 0xF8B JUMPI PUSH2 0x171F DUP4 PUSH1 0x1B PUSH1 0x20 PUSH1 0xFF DUP7 AND MUL OR PUSH4 0xFFFFFFFF PUSH2 0x17CD AND JUMP JUMPDEST POP PUSH2 0xEEC DUP4 DUP3 PUSH1 0x8 PUSH4 0xFFFFFFFF PUSH2 0x17E5 AND JUMP JUMPDEST PUSH2 0x173A PUSH2 0x19E6 JUMP JUMPDEST PUSH2 0x174C DUP4 DUP5 PUSH1 0x0 ADD MLOAD MLOAD DUP5 DUP6 MLOAD PUSH2 0x1806 JUMP JUMPDEST SWAP4 SWAP3 POP POP POP JUMP JUMPDEST PUSH2 0x1764 DUP3 PUSH1 0xC3 PUSH4 0xFFFFFFFF PUSH2 0x17CD AND JUMP JUMPDEST POP PUSH2 0x149A DUP3 DUP3 PUSH1 0x0 NOT SUB PUSH1 0x40 MLOAD PUSH1 0x20 ADD DUP1 DUP3 DUP2 MSTORE PUSH1 0x20 ADD SWAP2 POP POP PUSH1 0x40 MLOAD PUSH1 0x20 DUP2 DUP4 SUB SUB DUP2 MSTORE SWAP1 PUSH1 0x40 MSTORE PUSH2 0x18BC JUMP JUMPDEST PUSH2 0x17A3 DUP3 PUSH1 0xC2 PUSH4 0xFFFFFFFF PUSH2 0x17CD AND JUMP JUMPDEST POP PUSH2 0x149A DUP3 DUP3 PUSH1 0x40 MLOAD PUSH1 0x20 ADD DUP1 DUP3 DUP2 MSTORE PUSH1 0x20 ADD SWAP2 POP POP PUSH1 0x40 MLOAD PUSH1 0x20 DUP2 DUP4 SUB SUB DUP2 MSTORE SWAP1 PUSH1 0x40 MSTORE PUSH2 0x18BC JUMP JUMPDEST PUSH2 0x17D5 PUSH2 0x19E6 JUMP JUMPDEST PUSH2 0x174C DUP4 DUP5 PUSH1 0x0 ADD MLOAD MLOAD DUP5 PUSH2 0x18C9 JUMP JUMPDEST PUSH2 0x17ED PUSH2 0x19E6 JUMP JUMPDEST PUSH2 0x17FE DUP5 DUP6 PUSH1 0x0 ADD MLOAD MLOAD DUP6 DUP6 PUSH2 0x1914 JUMP JUMPDEST SWAP5 SWAP4 POP POP POP POP JUMP JUMPDEST PUSH2 0x180E PUSH2 0x19E6 JUMP JUMPDEST PUSH1 0x0 DUP1 PUSH1 0x0 DUP6 MLOAD DUP6 GT ISZERO ISZERO ISZERO PUSH2 0x1823 JUMPI PUSH1 0x0 DUP1 REVERT JUMPDEST DUP8 PUSH1 0x20 ADD MLOAD DUP6 DUP9 ADD GT ISZERO PUSH2 0x184D JUMPI PUSH2 0x184D DUP9 PUSH2 0x1845 DUP11 PUSH1 0x20 ADD MLOAD DUP11 DUP10 ADD PUSH2 0x1972 JUMP JUMPDEST PUSH1 0x2 MUL PUSH2 0x1983 JUMP JUMPDEST DUP8 MLOAD DUP1 MLOAD DUP9 PUSH1 0x20 DUP4 ADD ADD SWAP5 POP DUP1 DUP10 DUP9 ADD GT ISZERO PUSH2 0x1869 JUMPI DUP9 DUP8 ADD DUP3 MSTORE JUMPDEST PUSH1 0x20 DUP9 ADD SWAP4 POP POP POP JUMPDEST PUSH1 0x20 DUP6 LT PUSH2 0x1894 JUMPI DUP2 MLOAD DUP4 MSTORE PUSH1 0x1F NOT SWAP1 SWAP5 ADD SWAP4 PUSH1 0x20 SWAP3 DUP4 ADD SWAP3 SWAP1 SWAP2 ADD SWAP1 PUSH2 0x1872 JUMP JUMPDEST POP MLOAD DUP2 MLOAD PUSH1 0x20 SWAP5 SWAP1 SWAP5 SUB PUSH2 0x100 EXP PUSH1 0x0 NOT ADD DUP1 NOT SWAP1 SWAP2 AND SWAP4 AND SWAP3 SWAP1 SWAP3 OR SWAP1 SWAP2 MSTORE POP SWAP2 SWAP3 SWAP2 POP POP JUMP JUMPDEST PUSH2 0x142C DUP3 PUSH1 0x2 DUP4 MLOAD PUSH2 0x1635 JUMP JUMPDEST PUSH2 0x18D1 PUSH2 0x19E6 JUMP JUMPDEST PUSH1 0x20 DUP5 ADD MLOAD DUP4 LT PUSH2 0x18ED JUMPI PUSH2 0x18ED DUP5 DUP6 PUSH1 0x20 ADD MLOAD PUSH1 0x2 MUL PUSH2 0x1983 JUMP JUMPDEST DUP4 MLOAD DUP1 MLOAD PUSH1 0x20 DUP6 DUP4 ADD ADD DUP5 DUP2 MSTORE8 DUP2 DUP7 EQ ISZERO PUSH2 0x1909 JUMPI PUSH1 0x1 DUP3 ADD DUP4 MSTORE JUMPDEST POP SWAP5 SWAP6 SWAP5 POP POP POP POP POP JUMP JUMPDEST PUSH2 0x191C PUSH2 0x19E6 JUMP JUMPDEST PUSH1 0x0 DUP6 PUSH1 0x20 ADD MLOAD DUP6 DUP5 ADD GT ISZERO PUSH2 0x193B JUMPI PUSH2 0x193B DUP7 DUP7 DUP6 ADD PUSH1 0x2 MUL PUSH2 0x1983 JUMP JUMPDEST PUSH1 0x1 DUP4 PUSH2 0x100 EXP SUB SWAP1 POP DUP6 MLOAD DUP4 DUP7 DUP3 ADD ADD DUP6 DUP4 NOT DUP3 MLOAD AND OR DUP2 MSTORE DUP2 MLOAD DUP6 DUP9 ADD GT ISZERO PUSH2 0x1966 JUMPI DUP5 DUP8 ADD DUP3 MSTORE JUMPDEST POP SWAP6 SWAP7 SWAP6 POP POP POP POP POP POP JUMP JUMPDEST PUSH1 0x0 DUP2 DUP4 GT ISZERO PUSH2 0xF30 JUMPI POP DUP2 PUSH2 0x162F JUMP JUMPDEST DUP2 MLOAD PUSH2 0x198F DUP4 DUP4 PUSH2 0x15F5 JUMP JUMPDEST POP PUSH2 0xEEC DUP4 DUP3 PUSH2 0x1732 JUMP JUMPDEST PUSH1 0x40 DUP1 MLOAD PUSH1 0xC0 DUP2 ADD DUP3 MSTORE PUSH1 0x0 DUP1 DUP3 MSTORE PUSH1 0x20 DUP3 ADD DUP2 SWAP1 MSTORE SWAP2 DUP2 ADD DUP3 SWAP1 MSTORE PUSH1 0x60 DUP2 ADD SWAP2 SWAP1 SWAP2 MSTORE PUSH1 0x80 DUP2 ADD PUSH2 0x19CA PUSH2 0x19E6 JUMP JUMPDEST SWAP1 MSTORE SWAP1 JUMP JUMPDEST PUSH1 0x40 DUP1 MLOAD DUP1 DUP3 ADD SWAP1 SWAP2 MSTORE PUSH1 0x0 DUP1 DUP3 MSTORE PUSH1 0x20 DUP3 ADD MSTORE SWAP1 JUMP JUMPDEST PUSH1 0x40 DUP1 MLOAD DUP1 DUP3 ADD SWAP1 SWAP2 MSTORE PUSH1 0x60 DUP2 MSTORE PUSH1 0x0 PUSH1 0x20 DUP3 ADD MSTORE SWAP1 JUMP STOP LOG1 PUSH6 0x627A7A723058 KECCAK256 0xb7 0xb8 MSTORE PUSH7 0x636901284703ED SWAP1 DUP12 EXP PUSH17 0x6EB34AA426C6416FED9EAA7768FEB050FF STOP 0x29 "
				},
				"gasEstimates": {
					"creation": {
						"codeDepositCost": "1339600",
						"executionCost": "infinite",
						"totalCost": "infinite"
					},
					"external": {
						"cancelRequest(bytes32,uint256,bytes4,uint256)": "infinite",
						"currentValue()": "513",
						"depositPLI(uint256)": "infinite",
						"fulfill(bytes32,uint256)": "43582",
						"getPluginToken()": "877",
						"jobId()": "infinite",
						"latestTimestamp()": "579",
						"oracle()": "710",
						"owner()": "754",
						"plidbs(address)": "1215",
						"renounceOwnership()": "22226",
						"requestData(address)": "infinite",
						"showPrice()": "623",
						"testMyFunc()": "infinite",
						"transferOwnership(address)": "23153",
						"withdrawPli()": "infinite"
					},
					"internal": {
						"stringToBytes32(string memory)": "infinite"
					}
				},
				"methodIdentifiers": {
					"cancelRequest(bytes32,uint256,bytes4,uint256)": "ec65d0f8",
					"currentValue()": "698996f8",
					"depositPLI(uint256)": "d378d5eb",
					"fulfill(bytes32,uint256)": "4357855e",
					"getPluginToken()": "a4b6f67e",
					"jobId()": "c2939d97",
					"latestTimestamp()": "8205bf6a",
					"oracle()": "7dc0d1d0",
					"owner()": "8da5cb5b",
					"plidbs(address)": "a2e36c5f",
					"renounceOwnership()": "715018a6",
					"requestData(address)": "9dd4cc5d",
					"showPrice()": "8e0e0abb",
					"testMyFunc()": "2d8c762c",
					"transferOwnership(address)": "f2fde38b",
					"withdrawPli()": "37fccd30"
				}
			},
			"userdoc": {
				"methods": {
					"renounceOwnership()": {
						"notice": "Renouncing to ownership will leave the contract without an owner. It will not be possible to call the functions with the `onlyOwner` modifier anymore."
					}
				}
			}
		}
	}
}