{
	"test.sol": {
		"test": {
			"abi": [
				{
					"anonymous": false,
					"inputs": [
						{
							"indexed": false,
							"internalType": "string",
							"name": "comment",
							"type": "string"
						},
						{
							"indexed": false,
							"internalType": "uint256",
							"name": "patKey",
							"type": "uint256"
						},
						{
							"indexed": false,
							"internalType": "uint256",
							"name": "docKey",
							"type": "uint256"
						},
						{
							"indexed": false,
							"internalType": "uint256",
							"name": "registeredOn",
							"type": "uint256"
						}
					],
					"name": "RecordEvents",
					"type": "event"
				},
				{
					"anonymous": false,
					"inputs": [
						{
							"indexed": false,
							"internalType": "uint256",
							"name": "patientKey",
							"type": "uint256"
						},
						{
							"indexed": false,
							"internalType": "string",
							"name": "evenType",
							"type": "string"
						},
						{
							"indexed": false,
							"internalType": "uint256",
							"name": "registeredOn",
							"type": "uint256"
						}
					],
					"name": "patregistration",
					"type": "event"
				},
				{
					"inputs": [
						{
							"internalType": "uint256",
							"name": "_patKey",
							"type": "uint256"
						},
						{
							"internalType": "uint256",
							"name": "_docKey",
							"type": "uint256"
						},
						{
							"internalType": "enum test.access",
							"name": "ac",
							"type": "uint8"
						}
					],
					"name": "accessControl",
					"outputs": [],
					"stateMutability": "nonpayable",
					"type": "function"
				},
				{
					"inputs": [
						{
							"internalType": "uint256",
							"name": "",
							"type": "uint256"
						},
						{
							"internalType": "uint256",
							"name": "",
							"type": "uint256"
						}
					],
					"name": "accessForDoctor",
					"outputs": [
						{
							"internalType": "bool",
							"name": "",
							"type": "bool"
						}
					],
					"stateMutability": "view",
					"type": "function"
				},
				{
					"inputs": [
						{
							"internalType": "uint256",
							"name": "",
							"type": "uint256"
						},
						{
							"internalType": "uint256",
							"name": "",
							"type": "uint256"
						}
					],
					"name": "careGiverData",
					"outputs": [
						{
							"internalType": "string",
							"name": "careName",
							"type": "string"
						},
						{
							"internalType": "string",
							"name": "careMobile",
							"type": "string"
						},
						{
							"internalType": "string",
							"name": "careRelation",
							"type": "string"
						},
						{
							"internalType": "bool",
							"name": "isExist",
							"type": "bool"
						}
					],
					"stateMutability": "view",
					"type": "function"
				},
				{
					"inputs": [
						{
							"internalType": "uint256",
							"name": "",
							"type": "uint256"
						}
					],
					"name": "doctorAccess",
					"outputs": [
						{
							"internalType": "string",
							"name": "doctorName",
							"type": "string"
						},
						{
							"internalType": "string",
							"name": "doctorEmail",
							"type": "string"
						},
						{
							"internalType": "string",
							"name": "doctorMobile",
							"type": "string"
						},
						{
							"internalType": "string",
							"name": "doctorPass",
							"type": "string"
						},
						{
							"internalType": "string",
							"name": "doctorCred",
							"type": "string"
						},
						{
							"internalType": "enum test.DoctorType",
							"name": "docType",
							"type": "uint8"
						},
						{
							"internalType": "enum test.Sex",
							"name": "docSex",
							"type": "uint8"
						},
						{
							"internalType": "bool",
							"name": "isExist",
							"type": "bool"
						}
					],
					"stateMutability": "view",
					"type": "function"
				},
				{
					"inputs": [
						{
							"internalType": "uint256",
							"name": "",
							"type": "uint256"
						}
					],
					"name": "patientAccess",
					"outputs": [
						{
							"internalType": "string",
							"name": "patientName",
							"type": "string"
						},
						{
							"internalType": "string",
							"name": "patientEmail",
							"type": "string"
						},
						{
							"internalType": "string",
							"name": "patientMobile",
							"type": "string"
						},
						{
							"internalType": "string",
							"name": "patientPass",
							"type": "string"
						},
						{
							"internalType": "bool",
							"name": "isExist",
							"type": "bool"
						}
					],
					"stateMutability": "view",
					"type": "function"
				},
				{
					"inputs": [
						{
							"internalType": "uint256",
							"name": "",
							"type": "uint256"
						}
					],
					"name": "patientLocData",
					"outputs": [
						{
							"internalType": "string",
							"name": "city",
							"type": "string"
						},
						{
							"internalType": "string",
							"name": "state",
							"type": "string"
						},
						{
							"internalType": "string",
							"name": "country",
							"type": "string"
						},
						{
							"internalType": "string",
							"name": "landmark",
							"type": "string"
						},
						{
							"internalType": "uint256",
							"name": "pincode",
							"type": "uint256"
						}
					],
					"stateMutability": "view",
					"type": "function"
				},
				{
					"inputs": [
						{
							"internalType": "uint256",
							"name": "",
							"type": "uint256"
						}
					],
					"name": "patienthealthData",
					"outputs": [
						{
							"internalType": "string",
							"name": "allergies",
							"type": "string"
						},
						{
							"internalType": "string",
							"name": "lifesaver",
							"type": "string"
						},
						{
							"internalType": "uint256",
							"name": "height",
							"type": "uint256"
						},
						{
							"internalType": "uint256",
							"name": "weight",
							"type": "uint256"
						}
					],
					"stateMutability": "view",
					"type": "function"
				},
				{
					"inputs": [
						{
							"internalType": "uint256",
							"name": "",
							"type": "uint256"
						},
						{
							"internalType": "uint256",
							"name": "",
							"type": "uint256"
						}
					],
					"name": "patientrecordsData",
					"outputs": [
						{
							"internalType": "uint256",
							"name": "",
							"type": "uint256"
						}
					],
					"stateMutability": "view",
					"type": "function"
				},
				{
					"inputs": [
						{
							"internalType": "uint256",
							"name": "patKey",
							"type": "uint256"
						},
						{
							"internalType": "uint256",
							"name": "docKey",
							"type": "uint256"
						},
						{
							"internalType": "uint256",
							"name": "rt",
							"type": "uint256"
						},
						{
							"internalType": "uint256",
							"name": "recordHash",
							"type": "uint256"
						}
					],
					"name": "recordByDoctor",
					"outputs": [],
					"stateMutability": "nonpayable",
					"type": "function"
				},
				{
					"inputs": [
						{
							"internalType": "uint256",
							"name": "patKey",
							"type": "uint256"
						},
						{
							"internalType": "uint256",
							"name": "rt",
							"type": "uint256"
						},
						{
							"internalType": "uint256",
							"name": "recordHash",
							"type": "uint256"
						}
					],
					"name": "recordByPatient",
					"outputs": [],
					"stateMutability": "nonpayable",
					"type": "function"
				},
				{
					"inputs": [
						{
							"internalType": "uint256",
							"name": "patKey",
							"type": "uint256"
						},
						{
							"internalType": "string",
							"name": "careName",
							"type": "string"
						},
						{
							"internalType": "string",
							"name": "careMobile",
							"type": "string"
						},
						{
							"internalType": "string",
							"name": "careRelation",
							"type": "string"
						}
					],
					"name": "registerCareGiver",
					"outputs": [],
					"stateMutability": "nonpayable",
					"type": "function"
				},
				{
					"inputs": [
						{
							"internalType": "string",
							"name": "doctorName",
							"type": "string"
						},
						{
							"internalType": "string",
							"name": "doctorEmail",
							"type": "string"
						},
						{
							"internalType": "string",
							"name": "doctorMobile",
							"type": "string"
						},
						{
							"internalType": "string",
							"name": "doctorPass",
							"type": "string"
						},
						{
							"internalType": "string",
							"name": "doctorCred",
							"type": "string"
						},
						{
							"internalType": "enum test.DoctorType",
							"name": "_doctorType",
							"type": "uint8"
						},
						{
							"internalType": "enum test.Sex",
							"name": "_gender",
							"type": "uint8"
						},
						{
							"internalType": "enum test.stateChange",
							"name": "reup",
							"type": "uint8"
						}
					],
					"name": "registerDoctor",
					"outputs": [],
					"stateMutability": "nonpayable",
					"type": "function"
				},
				{
					"inputs": [
						{
							"internalType": "string",
							"name": "allergies",
							"type": "string"
						},
						{
							"internalType": "string",
							"name": "lifesaver",
							"type": "string"
						},
						{
							"internalType": "uint256",
							"name": "height",
							"type": "uint256"
						},
						{
							"internalType": "uint256",
							"name": "weight",
							"type": "uint256"
						},
						{
							"internalType": "uint256",
							"name": "patKey",
							"type": "uint256"
						}
					],
					"name": "registerPatientHealth",
					"outputs": [],
					"stateMutability": "nonpayable",
					"type": "function"
				},
				{
					"inputs": [
						{
							"internalType": "string",
							"name": "city",
							"type": "string"
						},
						{
							"internalType": "string",
							"name": "state",
							"type": "string"
						},
						{
							"internalType": "string",
							"name": "country",
							"type": "string"
						},
						{
							"internalType": "string",
							"name": "landmark",
							"type": "string"
						},
						{
							"internalType": "uint256",
							"name": "pincode",
							"type": "uint256"
						},
						{
							"internalType": "uint256",
							"name": "patKey",
							"type": "uint256"
						}
					],
					"name": "registerPatientLoc",
					"outputs": [],
					"stateMutability": "nonpayable",
					"type": "function"
				},
				{
					"inputs": [
						{
							"internalType": "string",
							"name": "patientName",
							"type": "string"
						},
						{
							"internalType": "string",
							"name": "patientEmail",
							"type": "string"
						},
						{
							"internalType": "string",
							"name": "patientMobile",
							"type": "string"
						},
						{
							"internalType": "string",
							"name": "patientPass",
							"type": "string"
						},
						{
							"internalType": "enum test.stateChange",
							"name": "reup",
							"type": "uint8"
						}
					],
					"name": "registerPatients",
					"outputs": [],
					"stateMutability": "nonpayable",
					"type": "function"
				},
				{
					"inputs": [
						{
							"internalType": "uint256",
							"name": "patKey",
							"type": "uint256"
						},
						{
							"internalType": "string",
							"name": "careName",
							"type": "string"
						},
						{
							"internalType": "string",
							"name": "careMobile",
							"type": "string"
						},
						{
							"internalType": "string",
							"name": "careRelation",
							"type": "string"
						}
					],
					"name": "updateCareGiver",
					"outputs": [],
					"stateMutability": "nonpayable",
					"type": "function"
				}
			],
			"devdoc": {
				"kind": "dev",
				"methods": {},
				"version": 1
			},
			"evm": {
				"assembly": "    /* \"test.sol\":114:9227  contract test{... */\n  mstore(0x40, 0x80)\n  callvalue\n  dup1\n  iszero\n  tag_1\n  jumpi\n  0x00\n  dup1\n  revert\ntag_1:\n  pop\n  dataSize(sub_0)\n  dup1\n  dataOffset(sub_0)\n  0x00\n  codecopy\n  0x00\n  return\nstop\n\nsub_0: assembly {\n        /* \"test.sol\":114:9227  contract test{... */\n      mstore(0x40, 0x80)\n      callvalue\n      dup1\n      iszero\n      tag_1\n      jumpi\n      0x00\n      dup1\n      revert\n    tag_1:\n      pop\n      jumpi(tag_2, lt(calldatasize, 0x04))\n      shr(0xe0, calldataload(0x00))\n      dup1\n      0xcbd46fa3\n      gt\n      tag_19\n      jumpi\n      dup1\n      0xe078a1c6\n      gt\n      tag_20\n      jumpi\n      dup1\n      0xe078a1c6\n      eq\n      tag_15\n      jumpi\n      dup1\n      0xedef7049\n      eq\n      tag_16\n      jumpi\n      dup1\n      0xf60b48cb\n      eq\n      tag_17\n      jumpi\n      dup1\n      0xf75be4eb\n      eq\n      tag_18\n      jumpi\n      0x00\n      dup1\n      revert\n    tag_20:\n      dup1\n      0xcbd46fa3\n      eq\n      tag_11\n      jumpi\n      dup1\n      0xd1bbf4e0\n      eq\n      tag_12\n      jumpi\n      dup1\n      0xd7349705\n      eq\n      tag_13\n      jumpi\n      dup1\n      0xdb3e3976\n      eq\n      tag_14\n      jumpi\n      0x00\n      dup1\n      revert\n    tag_19:\n      dup1\n      0x4fcd407a\n      gt\n      tag_21\n      jumpi\n      dup1\n      0x4fcd407a\n      eq\n      tag_7\n      jumpi\n      dup1\n      0x764b6b38\n      eq\n      tag_8\n      jumpi\n      dup1\n      0xa269b418\n      eq\n      tag_9\n      jumpi\n      dup1\n      0xc977baf3\n      eq\n      tag_10\n      jumpi\n      0x00\n      dup1\n      revert\n    tag_21:\n      dup1\n      0x021bf487\n      eq\n      tag_3\n      jumpi\n      dup1\n      0x0a77f6b0\n      eq\n      tag_4\n      jumpi\n      dup1\n      0x2990bc6f\n      eq\n      tag_5\n      jumpi\n      dup1\n      0x2ee8e639\n      eq\n      tag_6\n      jumpi\n    tag_2:\n      0x00\n      dup1\n      revert\n        /* \"test.sol\":7542:7731  function recordByPatient(... */\n    tag_3:\n      tag_22\n      tag_23\n      calldatasize\n      0x04\n      tag_24\n      jump\t// in\n    tag_23:\n      tag_25\n      jump\t// in\n    tag_22:\n      stop\n        /* \"test.sol\":1907:1956  mapping(uint => doctorEnroll) public doctorAccess */\n    tag_4:\n      tag_26\n      tag_27\n      calldatasize\n      0x04\n      tag_28\n      jump\t// in\n    tag_27:\n      tag_29\n      jump\t// in\n    tag_26:\n      mload(0x40)\n      tag_30\n      swap9\n      swap8\n      swap7\n      swap6\n      swap5\n      swap4\n      swap3\n      swap2\n      swap1\n      tag_31\n      jump\t// in\n    tag_30:\n      mload(0x40)\n      dup1\n      swap2\n      sub\n      swap1\n      return\n        /* \"test.sol\":1854:1905  mapping(uint => patientEnroll) public patientAccess */\n    tag_5:\n      tag_32\n      tag_33\n      calldatasize\n      0x04\n      tag_28\n      jump\t// in\n    tag_33:\n      tag_34\n      jump\t// in\n    tag_32:\n      mload(0x40)\n      tag_30\n      swap6\n      swap5\n      swap4\n      swap3\n      swap2\n      swap1\n      tag_36\n      jump\t// in\n        /* \"test.sol\":6980:7536  function updateCareGiver(... */\n    tag_6:\n      tag_22\n      tag_38\n      calldatasize\n      0x04\n      tag_39\n      jump\t// in\n    tag_38:\n      tag_40\n      jump\t// in\n        /* \"test.sol\":2198:2259  mapping(uint => mapping(uint => bool)) public accessForDoctor */\n    tag_7:\n      tag_41\n      tag_42\n      calldatasize\n      0x04\n      tag_43\n      jump\t// in\n    tag_42:\n      0x06\n      0x20\n      swap1\n      dup2\n      mstore\n      0x00\n      swap3\n      dup4\n      mstore\n      0x40\n      dup1\n      dup5\n      keccak256\n      swap1\n      swap2\n      mstore\n      swap1\n      dup3\n      mstore\n      swap1\n      keccak256\n      sload\n      0xff\n      and\n      dup2\n      jump\n    tag_41:\n      mload(0x40)\n        /* \"#utility.yul\":10236:10250   */\n      swap1\n      iszero\n        /* \"#utility.yul\":10229:10251   */\n      iszero\n        /* \"#utility.yul\":10211:10252   */\n      dup2\n      mstore\n        /* \"#utility.yul\":10199:10201   */\n      0x20\n        /* \"#utility.yul\":10184:10202   */\n      add\n        /* \"test.sol\":2198:2259  mapping(uint => mapping(uint => bool)) public accessForDoctor */\n      tag_30\n        /* \"#utility.yul\":10166:10258   */\n      jump\n        /* \"test.sol\":7737:8040  function recordByDoctor(... */\n    tag_8:\n      tag_22\n      tag_48\n      calldatasize\n      0x04\n      tag_49\n      jump\t// in\n    tag_48:\n      tag_50\n      jump\t// in\n        /* \"test.sol\":8146:9009  function accessControl(... */\n    tag_9:\n      tag_22\n      tag_52\n      calldatasize\n      0x04\n      tag_53\n      jump\t// in\n    tag_52:\n      tag_54\n      jump\t// in\n        /* \"test.sol\":2009:2064  mapping(uint => patienthealth) public patienthealthData */\n    tag_10:\n      tag_55\n      tag_56\n      calldatasize\n      0x04\n      tag_28\n      jump\t// in\n    tag_56:\n      tag_57\n      jump\t// in\n    tag_55:\n      mload(0x40)\n      tag_30\n      swap5\n      swap4\n      swap3\n      swap2\n      swap1\n      tag_59\n      jump\t// in\n        /* \"test.sol\":2132:2196  mapping(uint => mapping(uint => careGiver)) public careGiverData */\n    tag_11:\n      tag_60\n      tag_61\n      calldatasize\n      0x04\n      tag_43\n      jump\t// in\n    tag_61:\n      tag_62\n      jump\t// in\n    tag_60:\n      mload(0x40)\n      tag_30\n      swap5\n      swap4\n      swap3\n      swap2\n      swap1\n      tag_64\n      jump\t// in\n        /* \"test.sol\":6455:6974  function registerCareGiver(... */\n    tag_12:\n      tag_22\n      tag_66\n      calldatasize\n      0x04\n      tag_39\n      jump\t// in\n    tag_66:\n      tag_67\n      jump\t// in\n        /* \"test.sol\":6037:6449  function registerPatientHealth(... */\n    tag_13:\n      tag_22\n      tag_69\n      calldatasize\n      0x04\n      tag_70\n      jump\t// in\n    tag_69:\n      tag_71\n      jump\t// in\n        /* \"test.sol\":3920:5552  function registerDoctor(... */\n    tag_14:\n      tag_22\n      tag_73\n      calldatasize\n      0x04\n      tag_74\n      jump\t// in\n    tag_73:\n      tag_75\n      jump\t// in\n        /* \"test.sol\":5593:6031  function registerPatientLoc(... */\n    tag_15:\n      tag_22\n      tag_77\n      calldatasize\n      0x04\n      tag_78\n      jump\t// in\n    tag_77:\n      tag_79\n      jump\t// in\n        /* \"test.sol\":2295:3891  function registerPatients(... */\n    tag_16:\n      tag_22\n      tag_81\n      calldatasize\n      0x04\n      tag_82\n      jump\t// in\n    tag_81:\n      tag_83\n      jump\t// in\n        /* \"test.sol\":2066:2130  mapping(uint => mapping(uint => uint)) public patientrecordsData */\n    tag_17:\n      tag_84\n      tag_85\n      calldatasize\n      0x04\n      tag_43\n      jump\t// in\n    tag_85:\n      0x04\n      0x20\n      swap1\n      dup2\n      mstore\n      0x00\n      swap3\n      dup4\n      mstore\n      0x40\n      dup1\n      dup5\n      keccak256\n      swap1\n      swap2\n      mstore\n      swap1\n      dup3\n      mstore\n      swap1\n      keccak256\n      sload\n      dup2\n      jump\n    tag_84:\n      mload(0x40)\n        /* \"#utility.yul\":18340:18365   */\n      swap1\n      dup2\n      mstore\n        /* \"#utility.yul\":18328:18330   */\n      0x20\n        /* \"#utility.yul\":18313:18331   */\n      add\n        /* \"test.sol\":2066:2130  mapping(uint => mapping(uint => uint)) public patientrecordsData */\n      tag_30\n        /* \"#utility.yul\":18295:18371   */\n      jump\n        /* \"test.sol\":1958:2007  mapping(uint => patientGeo) public patientLocData */\n    tag_18:\n      tag_89\n      tag_90\n      calldatasize\n      0x04\n      tag_28\n      jump\t// in\n    tag_90:\n      tag_91\n      jump\t// in\n    tag_89:\n      mload(0x40)\n      tag_30\n      swap6\n      swap5\n      swap4\n      swap3\n      swap2\n      swap1\n      tag_93\n      jump\t// in\n        /* \"test.sol\":7542:7731  function recordByPatient(... */\n    tag_25:\n        /* \"test.sol\":1600:1613  patientAccess */\n      0x00\n        /* \"test.sol\":1600:1622  patientAccess[_patKey] */\n      dup4\n      dup2\n      mstore\n      0x20\n      dup2\n      swap1\n      mstore\n      0x40\n      swap1\n      keccak256\n        /* \"test.sol\":1600:1630  patientAccess[_patKey].isExist */\n      0x04\n      add\n      sload\n        /* \"test.sol\":7660:7666  patKey */\n      dup4\n      swap1\n        /* \"test.sol\":1600:1630  patientAccess[_patKey].isExist */\n      0xff\n      and\n        /* \"test.sol\":1600:1638  patientAccess[_patKey].isExist == true */\n      iszero\n      iszero\n        /* \"test.sol\":1600:1630  patientAccess[_patKey].isExist */\n      0x01\n        /* \"test.sol\":1600:1638  patientAccess[_patKey].isExist == true */\n      eq\n        /* \"test.sol\":1592:1682  require(patientAccess[_patKey].isExist == true, ... */\n      tag_95\n      jumpi\n      mload(0x40)\n      shl(0xe5, 0x461bcd)\n      dup2\n      mstore\n      0x04\n      add\n      tag_96\n      swap1\n      tag_97\n      jump\t// in\n    tag_96:\n      mload(0x40)\n      dup1\n      swap2\n      sub\n      swap1\n      revert\n    tag_95:\n      pop\n        /* \"test.sol\":7681:7707  patientrecordsData[patKey] */\n      0x00\n      swap3\n      dup4\n      mstore\n        /* \"test.sol\":7681:7699  patientrecordsData */\n      0x04\n        /* \"test.sol\":7681:7707  patientrecordsData[patKey] */\n      0x20\n      swap1\n      dup2\n      mstore\n      0x40\n      dup1\n      dup6\n      keccak256\n        /* \"test.sol\":7681:7711  patientrecordsData[patKey][rt] */\n      swap4\n      dup6\n      mstore\n      swap3\n      swap1\n      mstore\n      swap2\n      keccak256\n        /* \"test.sol\":7681:7724  patientrecordsData[patKey][rt] = recordHash */\n      sstore\n        /* \"test.sol\":7542:7731  function recordByPatient(... */\n      jump\t// out\n        /* \"test.sol\":1907:1956  mapping(uint => doctorEnroll) public doctorAccess */\n    tag_29:\n      mstore(0x20, 0x01)\n      0x00\n      swap1\n      dup2\n      mstore\n      0x40\n      swap1\n      keccak256\n      dup1\n      sload\n      dup2\n      swap1\n      tag_99\n      swap1\n      tag_100\n      jump\t// in\n    tag_99:\n      dup1\n      0x1f\n      add\n      0x20\n      dup1\n      swap2\n      div\n      mul\n      0x20\n      add\n      mload(0x40)\n      swap1\n      dup2\n      add\n      0x40\n      mstore\n      dup1\n      swap3\n      swap2\n      swap1\n      dup2\n      dup2\n      mstore\n      0x20\n      add\n      dup3\n      dup1\n      sload\n      tag_101\n      swap1\n      tag_100\n      jump\t// in\n    tag_101:\n      dup1\n      iszero\n      tag_102\n      jumpi\n      dup1\n      0x1f\n      lt\n      tag_103\n      jumpi\n      0x0100\n      dup1\n      dup4\n      sload\n      div\n      mul\n      dup4\n      mstore\n      swap2\n      0x20\n      add\n      swap2\n      jump(tag_102)\n    tag_103:\n      dup3\n      add\n      swap2\n      swap1\n      0x00\n      mstore\n      keccak256(0x00, 0x20)\n      swap1\n    tag_104:\n      dup2\n      sload\n      dup2\n      mstore\n      swap1\n      0x01\n      add\n      swap1\n      0x20\n      add\n      dup1\n      dup4\n      gt\n      tag_104\n      jumpi\n      dup3\n      swap1\n      sub\n      0x1f\n      and\n      dup3\n      add\n      swap2\n    tag_102:\n      pop\n      pop\n      pop\n      pop\n      pop\n      swap1\n      dup1\n      0x01\n      add\n      dup1\n      sload\n      tag_105\n      swap1\n      tag_100\n      jump\t// in\n    tag_105:\n      dup1\n      0x1f\n      add\n      0x20\n      dup1\n      swap2\n      div\n      mul\n      0x20\n      add\n      mload(0x40)\n      swap1\n      dup2\n      add\n      0x40\n      mstore\n      dup1\n      swap3\n      swap2\n      swap1\n      dup2\n      dup2\n      mstore\n      0x20\n      add\n      dup3\n      dup1\n      sload\n      tag_106\n      swap1\n      tag_100\n      jump\t// in\n    tag_106:\n      dup1\n      iszero\n      tag_107\n      jumpi\n      dup1\n      0x1f\n      lt\n      tag_108\n      jumpi\n      0x0100\n      dup1\n      dup4\n      sload\n      div\n      mul\n      dup4\n      mstore\n      swap2\n      0x20\n      add\n      swap2\n      jump(tag_107)\n    tag_108:\n      dup3\n      add\n      swap2\n      swap1\n      0x00\n      mstore\n      keccak256(0x00, 0x20)\n      swap1\n    tag_109:\n      dup2\n      sload\n      dup2\n      mstore\n      swap1\n      0x01\n      add\n      swap1\n      0x20\n      add\n      dup1\n      dup4\n      gt\n      tag_109\n      jumpi\n      dup3\n      swap1\n      sub\n      0x1f\n      and\n      dup3\n      add\n      swap2\n    tag_107:\n      pop\n      pop\n      pop\n      pop\n      pop\n      swap1\n      dup1\n      0x02\n      add\n      dup1\n      sload\n      tag_110\n      swap1\n      tag_100\n      jump\t// in\n    tag_110:\n      dup1\n      0x1f\n      add\n      0x20\n      dup1\n      swap2\n      div\n      mul\n      0x20\n      add\n      mload(0x40)\n      swap1\n      dup2\n      add\n      0x40\n      mstore\n      dup1\n      swap3\n      swap2\n      swap1\n      dup2\n      dup2\n      mstore\n      0x20\n      add\n      dup3\n      dup1\n      sload\n      tag_111\n      swap1\n      tag_100\n      jump\t// in\n    tag_111:\n      dup1\n      iszero\n      tag_112\n      jumpi\n      dup1\n      0x1f\n      lt\n      tag_113\n      jumpi\n      0x0100\n      dup1\n      dup4\n      sload\n      div\n      mul\n      dup4\n      mstore\n      swap2\n      0x20\n      add\n      swap2\n      jump(tag_112)\n    tag_113:\n      dup3\n      add\n      swap2\n      swap1\n      0x00\n      mstore\n      keccak256(0x00, 0x20)\n      swap1\n    tag_114:\n      dup2\n      sload\n      dup2\n      mstore\n      swap1\n      0x01\n      add\n      swap1\n      0x20\n      add\n      dup1\n      dup4\n      gt\n      tag_114\n      jumpi\n      dup3\n      swap1\n      sub\n      0x1f\n      and\n      dup3\n      add\n      swap2\n    tag_112:\n      pop\n      pop\n      pop\n      pop\n      pop\n      swap1\n      dup1\n      0x03\n      add\n      dup1\n      sload\n      tag_115\n      swap1\n      tag_100\n      jump\t// in\n    tag_115:\n      dup1\n      0x1f\n      add\n      0x20\n      dup1\n      swap2\n      div\n      mul\n      0x20\n      add\n      mload(0x40)\n      swap1\n      dup2\n      add\n      0x40\n      mstore\n      dup1\n      swap3\n      swap2\n      swap1\n      dup2\n      dup2\n      mstore\n      0x20\n      add\n      dup3\n      dup1\n      sload\n      tag_116\n      swap1\n      tag_100\n      jump\t// in\n    tag_116:\n      dup1\n      iszero\n      tag_117\n      jumpi\n      dup1\n      0x1f\n      lt\n      tag_118\n      jumpi\n      0x0100\n      dup1\n      dup4\n      sload\n      div\n      mul\n      dup4\n      mstore\n      swap2\n      0x20\n      add\n      swap2\n      jump(tag_117)\n    tag_118:\n      dup3\n      add\n      swap2\n      swap1\n      0x00\n      mstore\n      keccak256(0x00, 0x20)\n      swap1\n    tag_119:\n      dup2\n      sload\n      dup2\n      mstore\n      swap1\n      0x01\n      add\n      swap1\n      0x20\n      add\n      dup1\n      dup4\n      gt\n      tag_119\n      jumpi\n      dup3\n      swap1\n      sub\n      0x1f\n      and\n      dup3\n      add\n      swap2\n    tag_117:\n      pop\n      pop\n      pop\n      pop\n      pop\n      swap1\n      dup1\n      0x04\n      add\n      dup1\n      sload\n      tag_120\n      swap1\n      tag_100\n      jump\t// in\n    tag_120:\n      dup1\n      0x1f\n      add\n      0x20\n      dup1\n      swap2\n      div\n      mul\n      0x20\n      add\n      mload(0x40)\n      swap1\n      dup2\n      add\n      0x40\n      mstore\n      dup1\n      swap3\n      swap2\n      swap1\n      dup2\n      dup2\n      mstore\n      0x20\n      add\n      dup3\n      dup1\n      sload\n      tag_121\n      swap1\n      tag_100\n      jump\t// in\n    tag_121:\n      dup1\n      iszero\n      tag_122\n      jumpi\n      dup1\n      0x1f\n      lt\n      tag_123\n      jumpi\n      0x0100\n      dup1\n      dup4\n      sload\n      div\n      mul\n      dup4\n      mstore\n      swap2\n      0x20\n      add\n      swap2\n      jump(tag_122)\n    tag_123:\n      dup3\n      add\n      swap2\n      swap1\n      0x00\n      mstore\n      keccak256(0x00, 0x20)\n      swap1\n    tag_124:\n      dup2\n      sload\n      dup2\n      mstore\n      swap1\n      0x01\n      add\n      swap1\n      0x20\n      add\n      dup1\n      dup4\n      gt\n      tag_124\n      jumpi\n      dup3\n      swap1\n      sub\n      0x1f\n      and\n      dup3\n      add\n      swap2\n    tag_122:\n      pop\n      pop\n      pop\n      0x05\n      swap1\n      swap4\n      add\n      sload\n      swap2\n      swap3\n      pop\n      pop\n      0xff\n      dup1\n      dup3\n      and\n      swap2\n      0x0100\n      dup2\n      div\n      dup3\n      and\n      swap2\n      0x010000\n      swap1\n      swap2\n      div\n      and\n      dup9\n      jump\t// out\n        /* \"test.sol\":1854:1905  mapping(uint => patientEnroll) public patientAccess */\n    tag_34:\n      0x00\n      0x20\n      dup2\n      swap1\n      mstore\n      swap1\n      dup2\n      mstore\n      0x40\n      swap1\n      keccak256\n      dup1\n      sload\n      dup2\n      swap1\n      tag_125\n      swap1\n      tag_100\n      jump\t// in\n    tag_125:\n      dup1\n      0x1f\n      add\n      0x20\n      dup1\n      swap2\n      div\n      mul\n      0x20\n      add\n      mload(0x40)\n      swap1\n      dup2\n      add\n      0x40\n      mstore\n      dup1\n      swap3\n      swap2\n      swap1\n      dup2\n      dup2\n      mstore\n      0x20\n      add\n      dup3\n      dup1\n      sload\n      tag_126\n      swap1\n      tag_100\n      jump\t// in\n    tag_126:\n      dup1\n      iszero\n      tag_127\n      jumpi\n      dup1\n      0x1f\n      lt\n      tag_128\n      jumpi\n      0x0100\n      dup1\n      dup4\n      sload\n      div\n      mul\n      dup4\n      mstore\n      swap2\n      0x20\n      add\n      swap2\n      jump(tag_127)\n    tag_128:\n      dup3\n      add\n      swap2\n      swap1\n      0x00\n      mstore\n      keccak256(0x00, 0x20)\n      swap1\n    tag_129:\n      dup2\n      sload\n      dup2\n      mstore\n      swap1\n      0x01\n      add\n      swap1\n      0x20\n      add\n      dup1\n      dup4\n      gt\n      tag_129\n      jumpi\n      dup3\n      swap1\n      sub\n      0x1f\n      and\n      dup3\n      add\n      swap2\n    tag_127:\n      pop\n      pop\n      pop\n      pop\n      pop\n      swap1\n      dup1\n      0x01\n      add\n      dup1\n      sload\n      tag_130\n      swap1\n      tag_100\n      jump\t// in\n    tag_130:\n      dup1\n      0x1f\n      add\n      0x20\n      dup1\n      swap2\n      div\n      mul\n      0x20\n      add\n      mload(0x40)\n      swap1\n      dup2\n      add\n      0x40\n      mstore\n      dup1\n      swap3\n      swap2\n      swap1\n      dup2\n      dup2\n      mstore\n      0x20\n      add\n      dup3\n      dup1\n      sload\n      tag_131\n      swap1\n      tag_100\n      jump\t// in\n    tag_131:\n      dup1\n      iszero\n      tag_132\n      jumpi\n      dup1\n      0x1f\n      lt\n      tag_133\n      jumpi\n      0x0100\n      dup1\n      dup4\n      sload\n      div\n      mul\n      dup4\n      mstore\n      swap2\n      0x20\n      add\n      swap2\n      jump(tag_132)\n    tag_133:\n      dup3\n      add\n      swap2\n      swap1\n      0x00\n      mstore\n      keccak256(0x00, 0x20)\n      swap1\n    tag_134:\n      dup2\n      sload\n      dup2\n      mstore\n      swap1\n      0x01\n      add\n      swap1\n      0x20\n      add\n      dup1\n      dup4\n      gt\n      tag_134\n      jumpi\n      dup3\n      swap1\n      sub\n      0x1f\n      and\n      dup3\n      add\n      swap2\n    tag_132:\n      pop\n      pop\n      pop\n      pop\n      pop\n      swap1\n      dup1\n      0x02\n      add\n      dup1\n      sload\n      tag_135\n      swap1\n      tag_100\n      jump\t// in\n    tag_135:\n      dup1\n      0x1f\n      add\n      0x20\n      dup1\n      swap2\n      div\n      mul\n      0x20\n      add\n      mload(0x40)\n      swap1\n      dup2\n      add\n      0x40\n      mstore\n      dup1\n      swap3\n      swap2\n      swap1\n      dup2\n      dup2\n      mstore\n      0x20\n      add\n      dup3\n      dup1\n      sload\n      tag_136\n      swap1\n      tag_100\n      jump\t// in\n    tag_136:\n      dup1\n      iszero\n      tag_137\n      jumpi\n      dup1\n      0x1f\n      lt\n      tag_138\n      jumpi\n      0x0100\n      dup1\n      dup4\n      sload\n      div\n      mul\n      dup4\n      mstore\n      swap2\n      0x20\n      add\n      swap2\n      jump(tag_137)\n    tag_138:\n      dup3\n      add\n      swap2\n      swap1\n      0x00\n      mstore\n      keccak256(0x00, 0x20)\n      swap1\n    tag_139:\n      dup2\n      sload\n      dup2\n      mstore\n      swap1\n      0x01\n      add\n      swap1\n      0x20\n      add\n      dup1\n      dup4\n      gt\n      tag_139\n      jumpi\n      dup3\n      swap1\n      sub\n      0x1f\n      and\n      dup3\n      add\n      swap2\n    tag_137:\n      pop\n      pop\n      pop\n      pop\n      pop\n      swap1\n      dup1\n      0x03\n      add\n      dup1\n      sload\n      tag_140\n      swap1\n      tag_100\n      jump\t// in\n    tag_140:\n      dup1\n      0x1f\n      add\n      0x20\n      dup1\n      swap2\n      div\n      mul\n      0x20\n      add\n      mload(0x40)\n      swap1\n      dup2\n      add\n      0x40\n      mstore\n      dup1\n      swap3\n      swap2\n      swap1\n      dup2\n      dup2\n      mstore\n      0x20\n      add\n      dup3\n      dup1\n      sload\n      tag_141\n      swap1\n      tag_100\n      jump\t// in\n    tag_141:\n      dup1\n      iszero\n      tag_142\n      jumpi\n      dup1\n      0x1f\n      lt\n      tag_143\n      jumpi\n      0x0100\n      dup1\n      dup4\n      sload\n      div\n      mul\n      dup4\n      mstore\n      swap2\n      0x20\n      add\n      swap2\n      jump(tag_142)\n    tag_143:\n      dup3\n      add\n      swap2\n      swap1\n      0x00\n      mstore\n      keccak256(0x00, 0x20)\n      swap1\n    tag_144:\n      dup2\n      sload\n      dup2\n      mstore\n      swap1\n      0x01\n      add\n      swap1\n      0x20\n      add\n      dup1\n      dup4\n      gt\n      tag_144\n      jumpi\n      dup3\n      swap1\n      sub\n      0x1f\n      and\n      dup3\n      add\n      swap2\n    tag_142:\n      pop\n      pop\n      pop\n      0x04\n      swap1\n      swap4\n      add\n      sload\n      swap2\n      swap3\n      pop\n      pop\n      0xff\n      and\n      dup6\n      jump\t// out\n        /* \"test.sol\":6980:7536  function updateCareGiver(... */\n    tag_40:\n        /* \"test.sol\":1600:1613  patientAccess */\n      0x00\n        /* \"test.sol\":1600:1622  patientAccess[_patKey] */\n      dup5\n      dup2\n      mstore\n      0x20\n      dup2\n      swap1\n      mstore\n      0x40\n      swap1\n      keccak256\n        /* \"test.sol\":1600:1630  patientAccess[_patKey].isExist */\n      0x04\n      add\n      sload\n        /* \"test.sol\":7154:7160  patKey */\n      dup5\n      swap1\n        /* \"test.sol\":1600:1630  patientAccess[_patKey].isExist */\n      0xff\n      and\n        /* \"test.sol\":1600:1638  patientAccess[_patKey].isExist == true */\n      iszero\n      iszero\n        /* \"test.sol\":1600:1630  patientAccess[_patKey].isExist */\n      0x01\n        /* \"test.sol\":1600:1638  patientAccess[_patKey].isExist == true */\n      eq\n        /* \"test.sol\":1592:1682  require(patientAccess[_patKey].isExist == true, ... */\n      tag_146\n      jumpi\n      mload(0x40)\n      shl(0xe5, 0x461bcd)\n      dup2\n      mstore\n      0x04\n      add\n      tag_96\n      swap1\n      tag_97\n      jump\t// in\n    tag_146:\n        /* \"test.sol\":7175:7181  uint i */\n      0x00\n        /* \"test.sol\":7171:7410  for(uint i=0;i<=2;i++){... */\n    tag_149:\n        /* \"test.sol\":7187:7188  2 */\n      0x02\n        /* \"test.sol\":7184:7185  i */\n      dup2\n        /* \"test.sol\":7184:7188  i<=2 */\n      gt\n        /* \"test.sol\":7171:7410  for(uint i=0;i<=2;i++){... */\n      tag_150\n      jumpi\n        /* \"test.sol\":7265:7291  keccak256(bytes(careName)) */\n      dup5\n      mload\n      0x20\n      dup1\n      dup8\n      add\n      swap2\n      swap1\n      swap2\n      keccak256\n        /* \"test.sol\":7226:7247  careGiverData[patKey] */\n      0x00\n      dup9\n      dup2\n      mstore\n        /* \"test.sol\":7226:7239  careGiverData */\n      0x05\n        /* \"test.sol\":7226:7247  careGiverData[patKey] */\n      dup4\n      mstore\n      0x40\n      dup1\n      dup3\n      keccak256\n        /* \"test.sol\":7226:7250  careGiverData[patKey][i] */\n      dup6\n      dup4\n      mstore\n      swap1\n      swap4\n      mstore\n      dup3\n      swap1\n      keccak256\n        /* \"test.sol\":7210:7261  keccak256(bytes(careGiverData[patKey][i].careName)) */\n      swap2\n      mload\n        /* \"test.sol\":7265:7291  keccak256(bytes(careName)) */\n      swap1\n      swap2\n        /* \"test.sol\":7210:7261  keccak256(bytes(careGiverData[patKey][i].careName)) */\n      tag_152\n      swap2\n      tag_153\n      jump\t// in\n    tag_152:\n      mload(0x40)\n      dup1\n      swap2\n      sub\n      swap1\n      keccak256\n        /* \"test.sol\":7210:7291  keccak256(bytes(careGiverData[patKey][i].careName)) == keccak256(bytes(careName)) */\n      eq\n        /* \"test.sol\":7207:7400  if(keccak256(bytes(careGiverData[patKey][i].careName)) == keccak256(bytes(careName))){... */\n      iszero\n      tag_154\n      jumpi\n        /* \"test.sol\":7337:7385  careGiver(careName,careMobile,careRelation,true) */\n      0x40\n      dup1\n      mload\n      0x80\n      dup2\n      add\n      dup3\n      mstore\n      dup7\n      dup2\n      mstore\n      0x20\n      dup1\n      dup3\n      add\n      dup8\n      swap1\n      mstore\n      dup2\n      dup4\n      add\n      dup7\n      swap1\n      mstore\n        /* \"test.sol\":7380:7384  true */\n      0x01\n        /* \"test.sol\":7337:7385  careGiver(careName,careMobile,careRelation,true) */\n      0x60\n      dup4\n      add\n      mstore\n      0x00\n        /* \"test.sol\":7310:7331  careGiverData[patKey] */\n      dup10\n      dup2\n      mstore\n        /* \"test.sol\":7310:7323  careGiverData */\n      0x05\n        /* \"test.sol\":7310:7331  careGiverData[patKey] */\n      dup3\n      mstore\n      dup4\n      dup2\n      keccak256\n        /* \"test.sol\":7310:7334  careGiverData[patKey][i] */\n      dup6\n      dup3\n      mstore\n      dup3\n      mstore\n      swap3\n      swap1\n      swap3\n      keccak256\n        /* \"test.sol\":7310:7385  careGiverData[patKey][i] = careGiver(careName,careMobile,careRelation,true) */\n      dup2\n      mload\n      dup1\n      mload\n        /* \"test.sol\":7337:7385  careGiver(careName,careMobile,careRelation,true) */\n      swap3\n      swap4\n        /* \"test.sol\":7310:7334  careGiverData[patKey][i] */\n      swap2\n      swap3\n        /* \"test.sol\":7310:7385  careGiverData[patKey][i] = careGiver(careName,careMobile,careRelation,true) */\n      tag_155\n      swap3\n        /* \"test.sol\":7310:7334  careGiverData[patKey][i] */\n      dup5\n      swap3\n        /* \"test.sol\":7310:7385  careGiverData[patKey][i] = careGiver(careName,careMobile,careRelation,true) */\n      add\n      swap1\n      tag_156\n      jump\t// in\n    tag_155:\n      pop\n      0x20\n      dup3\n      dup2\n      add\n      mload\n      dup1\n      mload\n      tag_157\n      swap3\n      0x01\n      dup6\n      add\n      swap3\n      add\n      swap1\n      tag_156\n      jump\t// in\n    tag_157:\n      pop\n      0x40\n      dup3\n      add\n      mload\n      dup1\n      mload\n      tag_158\n      swap2\n      0x02\n      dup5\n      add\n      swap2\n      0x20\n      swap1\n      swap2\n      add\n      swap1\n      tag_156\n      jump\t// in\n    tag_158:\n      pop\n      0x60\n      swap2\n      swap1\n      swap2\n      add\n      mload\n      0x03\n      swap1\n      swap2\n      add\n      dup1\n      sload\n      not(0xff)\n      and\n      swap2\n      iszero\n      iszero\n      swap2\n      swap1\n      swap2\n      or\n      swap1\n      sstore\n        /* \"test.sol\":7207:7400  if(keccak256(bytes(careGiverData[patKey][i].careName)) == keccak256(bytes(careName))){... */\n    tag_154:\n        /* \"test.sol\":7189:7192  i++ */\n      dup1\n      tag_159\n      dup2\n      tag_160\n      jump\t// in\n    tag_159:\n      swap2\n      pop\n      pop\n        /* \"test.sol\":7171:7410  for(uint i=0;i<=2;i++){... */\n      jump(tag_149)\n    tag_150:\n      pop\n      0x00\n      dup1\n      mload\n      0x20\n      data_f1783972c13bbde284b8765b8e27686842dfd940022613858bd0f693b0907129\n      dup4\n      codecopy\n      dup2\n      mload\n      swap2\n      mstore\n        /* \"test.sol\":7453:7459  patKey */\n      dup6\n        /* \"test.sol\":7512:7527  block.timestamp */\n      timestamp\n        /* \"test.sol\":7424:7528  patregistration(... */\n      mload(0x40)\n      tag_161\n      swap3\n      swap2\n      swap1\n        /* \"#utility.yul\":20483:20508   */\n      swap2\n      dup3\n      mstore\n        /* \"#utility.yul\":20544:20546   */\n      0x60\n        /* \"#utility.yul\":20539:20541   */\n      0x20\n        /* \"#utility.yul\":20524:20542   */\n      dup4\n      add\n        /* \"#utility.yul\":20517:20547   */\n      dup2\n      swap1\n      mstore\n        /* \"#utility.yul\":20583:20585   */\n      0x17\n        /* \"#utility.yul\":20563:20581   */\n      swap1\n      dup4\n      add\n        /* \"#utility.yul\":20556:20586   */\n      mstore\n        /* \"#utility.yul\":20623:20648   */\n      0x4361726567697665722044617461206d6f646966696564000000000000000000\n        /* \"#utility.yul\":20617:20620   */\n      0x80\n        /* \"#utility.yul\":20602:20621   */\n      dup4\n      add\n        /* \"#utility.yul\":20595:20649   */\n      mstore\n        /* \"#utility.yul\":20716:20718   */\n      0x40\n        /* \"#utility.yul\":20701:20719   */\n      dup3\n      add\n        /* \"#utility.yul\":20694:20728   */\n      mstore\n        /* \"#utility.yul\":20681:20684   */\n      0xa0\n        /* \"#utility.yul\":20666:20685   */\n      add\n      swap1\n        /* \"#utility.yul\":20473:20734   */\n      jump\n        /* \"test.sol\":7424:7528  patregistration(... */\n    tag_161:\n      mload(0x40)\n      dup1\n      swap2\n      sub\n      swap1\n      log1\n        /* \"test.sol\":6980:7536  function updateCareGiver(... */\n      pop\n      pop\n      pop\n      pop\n      pop\n      jump\t// out\n        /* \"test.sol\":7737:8040  function recordByDoctor(... */\n    tag_50:\n        /* \"test.sol\":1600:1613  patientAccess */\n      0x00\n        /* \"test.sol\":1600:1622  patientAccess[_patKey] */\n      dup5\n      dup2\n      mstore\n      0x20\n      dup2\n      swap1\n      mstore\n      0x40\n      swap1\n      keccak256\n        /* \"test.sol\":1600:1630  patientAccess[_patKey].isExist */\n      0x04\n      add\n      sload\n        /* \"test.sol\":7875:7881  patKey */\n      dup5\n      swap1\n        /* \"test.sol\":1600:1630  patientAccess[_patKey].isExist */\n      0xff\n      and\n        /* \"test.sol\":1600:1638  patientAccess[_patKey].isExist == true */\n      iszero\n      iszero\n        /* \"test.sol\":1600:1630  patientAccess[_patKey].isExist */\n      0x01\n        /* \"test.sol\":1600:1638  patientAccess[_patKey].isExist == true */\n      eq\n        /* \"test.sol\":1592:1682  require(patientAccess[_patKey].isExist == true, ... */\n      tag_164\n      jumpi\n      mload(0x40)\n      shl(0xe5, 0x461bcd)\n      dup2\n      mstore\n      0x04\n      add\n      tag_96\n      swap1\n      tag_97\n      jump\t// in\n    tag_164:\n        /* \"test.sol\":7904:7927  accessForDoctor[patKey] */\n      0x00\n      dup6\n      dup2\n      mstore\n        /* \"test.sol\":7904:7919  accessForDoctor */\n      0x06\n        /* \"test.sol\":7904:7927  accessForDoctor[patKey] */\n      0x20\n      swap1\n      dup2\n      mstore\n      0x40\n      dup1\n      dup4\n      keccak256\n        /* \"test.sol\":7904:7935  accessForDoctor[patKey][docKey] */\n      dup8\n      dup5\n      mstore\n      swap1\n      swap2\n      mstore\n      swap1\n      keccak256\n      sload\n      0xff\n      and\n        /* \"test.sol\":7904:7943  accessForDoctor[patKey][docKey] == true */\n      iszero\n      iszero\n        /* \"test.sol\":7904:7935  accessForDoctor[patKey][docKey] */\n      0x01\n        /* \"test.sol\":7904:7943  accessForDoctor[patKey][docKey] == true */\n      eq\n        /* \"test.sol\":7896:7976  require(accessForDoctor[patKey][docKey] == true,\"No access provided by patient\") */\n      tag_167\n      jumpi\n      mload(0x40)\n      shl(0xe5, 0x461bcd)\n      dup2\n      mstore\n        /* \"#utility.yul\":17229:17231   */\n      0x20\n        /* \"test.sol\":7896:7976  require(accessForDoctor[patKey][docKey] == true,\"No access provided by patient\") */\n      0x04\n      dup3\n      add\n        /* \"#utility.yul\":17211:17232   */\n      mstore\n        /* \"#utility.yul\":17268:17270   */\n      0x1d\n        /* \"#utility.yul\":17248:17266   */\n      0x24\n      dup3\n      add\n        /* \"#utility.yul\":17241:17271   */\n      mstore\n        /* \"#utility.yul\":17307:17338   */\n      0x4e6f206163636573732070726f76696465642062792070617469656e74000000\n        /* \"#utility.yul\":17287:17305   */\n      0x44\n      dup3\n      add\n        /* \"#utility.yul\":17280:17339   */\n      mstore\n        /* \"#utility.yul\":17356:17374   */\n      0x64\n      add\n        /* \"test.sol\":7896:7976  require(accessForDoctor[patKey][docKey] == true,\"No access provided by patient\") */\n      tag_96\n        /* \"#utility.yul\":17201:17380   */\n      jump\n        /* \"test.sol\":7896:7976  require(accessForDoctor[patKey][docKey] == true,\"No access provided by patient\") */\n    tag_167:\n      pop\n        /* \"test.sol\":7990:8016  patientrecordsData[patKey] */\n      0x00\n      swap4\n      dup5\n      mstore\n        /* \"test.sol\":7990:8008  patientrecordsData */\n      0x04\n        /* \"test.sol\":7990:8016  patientrecordsData[patKey] */\n      0x20\n      swap1\n      dup2\n      mstore\n      0x40\n      dup1\n      dup7\n      keccak256\n        /* \"test.sol\":7990:8020  patientrecordsData[patKey][rt] */\n      swap4\n      dup7\n      mstore\n      swap3\n      swap1\n      mstore\n      swap3\n      keccak256\n        /* \"test.sol\":7990:8033  patientrecordsData[patKey][rt] = recordHash */\n      swap2\n      swap1\n      swap2\n      sstore\n      pop\n        /* \"test.sol\":7737:8040  function recordByDoctor(... */\n      jump\t// out\n        /* \"test.sol\":8146:9009  function accessControl(... */\n    tag_54:\n        /* \"test.sol\":1754:1775  doctorAccess[_docKey] */\n      0x00\n      dup3\n      dup2\n      mstore\n        /* \"test.sol\":1754:1766  doctorAccess */\n      0x01\n        /* \"test.sol\":1754:1775  doctorAccess[_docKey] */\n      0x20\n      dup2\n      swap1\n      mstore\n      0x40\n      swap1\n      swap2\n      keccak256\n        /* \"test.sol\":1754:1783  doctorAccess[_docKey].isExist */\n      0x05\n      add\n      sload\n        /* \"test.sol\":1754:1775  doctorAccess[_docKey] */\n      dup4\n      swap2\n        /* \"test.sol\":1754:1783  doctorAccess[_docKey].isExist */\n      0x010000\n      swap1\n      swap2\n      div\n      0xff\n      and\n        /* \"test.sol\":1754:1791  doctorAccess[_docKey].isExist == true */\n      iszero\n      iszero\n      eq\n        /* \"test.sol\":1746:1834  require(doctorAccess[_docKey].isExist == true, ... */\n      tag_171\n      jumpi\n      mload(0x40)\n      shl(0xe5, 0x461bcd)\n      dup2\n      mstore\n        /* \"#utility.yul\":15719:15721   */\n      0x20\n        /* \"test.sol\":1746:1834  require(doctorAccess[_docKey].isExist == true, ... */\n      0x04\n      dup3\n      add\n        /* \"#utility.yul\":15701:15722   */\n      mstore\n        /* \"#utility.yul\":15758:15760   */\n      0x15\n        /* \"#utility.yul\":15738:15756   */\n      0x24\n      dup3\n      add\n        /* \"#utility.yul\":15731:15761   */\n      mstore\n      shl(0x5a, 0x111bd8dd1bdc88139bdd081c9959da5cdd195c9959)\n        /* \"#utility.yul\":15777:15795   */\n      0x44\n      dup3\n      add\n        /* \"#utility.yul\":15770:15821   */\n      mstore\n        /* \"#utility.yul\":15838:15856   */\n      0x64\n      add\n        /* \"test.sol\":1746:1834  require(doctorAccess[_docKey].isExist == true, ... */\n      tag_96\n        /* \"#utility.yul\":15691:15862   */\n      jump\n        /* \"test.sol\":1746:1834  require(doctorAccess[_docKey].isExist == true, ... */\n    tag_171:\n        /* \"test.sol\":8279:8306  string memory accessComment */\n      0x60\n        /* \"test.sol\":8325:8337  access.GRANT */\n      0x00\n        /* \"test.sol\":8319:8321  ac */\n      dup4\n        /* \"test.sol\":8319:8337  ac == access.GRANT */\n      0x01\n      dup2\n      gt\n      iszero\n      tag_176\n      jumpi\n      mstore(0x00, shl(0xe0, 0x4e487b71))\n      mstore(0x04, 0x21)\n      revert(0x00, 0x24)\n    tag_176:\n      eq\n        /* \"test.sol\":8316:8588  if(ac == access.GRANT){... */\n      iszero\n      tag_177\n      jumpi\n        /* \"test.sol\":8360:8384  accessForDoctor[_patKey] */\n      0x00\n      dup6\n      dup2\n      mstore\n        /* \"test.sol\":8360:8375  accessForDoctor */\n      0x06\n        /* \"test.sol\":8360:8384  accessForDoctor[_patKey] */\n      0x20\n      swap1\n      dup2\n      mstore\n      0x40\n      dup1\n      dup4\n      keccak256\n        /* \"test.sol\":8360:8393  accessForDoctor[_patKey][_docKey] */\n      dup8\n      dup5\n      mstore\n      swap1\n      swap2\n      mstore\n      swap1\n      keccak256\n      sload\n      0xff\n      and\n        /* \"test.sol\":8360:8402  accessForDoctor[_patKey][_docKey] == false */\n      iszero\n        /* \"test.sol\":8352:8463  require(accessForDoctor[_patKey][_docKey] == false,... */\n      tag_178\n      jumpi\n      mload(0x40)\n      shl(0xe5, 0x461bcd)\n      dup2\n      mstore\n        /* \"#utility.yul\":15314:15316   */\n      0x20\n        /* \"test.sol\":8352:8463  require(accessForDoctor[_patKey][_docKey] == false,... */\n      0x04\n      dup3\n      add\n        /* \"#utility.yul\":15296:15317   */\n      mstore\n        /* \"#utility.yul\":15353:15355   */\n      0x24\n        /* \"#utility.yul\":15333:15351   */\n      dup1\n      dup3\n      add\n        /* \"#utility.yul\":15326:15356   */\n      mstore\n        /* \"#utility.yul\":15392:15426   */\n      0x4548522d41432d30313a2041636365737320686164206265656e2070726f7669\n        /* \"#utility.yul\":15372:15390   */\n      0x44\n      dup3\n      add\n        /* \"#utility.yul\":15365:15427   */\n      mstore\n      shl(0xe0, 0x64656421)\n        /* \"#utility.yul\":15443:15461   */\n      0x64\n      dup3\n      add\n        /* \"#utility.yul\":15436:15470   */\n      mstore\n        /* \"#utility.yul\":15487:15506   */\n      0x84\n      add\n        /* \"test.sol\":8352:8463  require(accessForDoctor[_patKey][_docKey] == false,... */\n      tag_96\n        /* \"#utility.yul\":15286:15512   */\n      jump\n        /* \"test.sol\":8352:8463  require(accessForDoctor[_patKey][_docKey] == false,... */\n    tag_178:\n      pop\n        /* \"test.sol\":8477:8501  accessForDoctor[_patKey] */\n      0x00\n      dup5\n      dup2\n      mstore\n        /* \"test.sol\":8477:8492  accessForDoctor */\n      0x06\n        /* \"test.sol\":8477:8501  accessForDoctor[_patKey] */\n      0x20\n      swap1\n      dup2\n      mstore\n      0x40\n      dup1\n      dup4\n      keccak256\n        /* \"test.sol\":8477:8510  accessForDoctor[_patKey][_docKey] */\n      dup7\n      dup5\n      mstore\n      dup3\n      mstore\n      swap2\n      dup3\n      swap1\n      keccak256\n        /* \"test.sol\":8477:8517  accessForDoctor[_patKey][_docKey] = true */\n      dup1\n      sload\n      not(0xff)\n      and\n        /* \"test.sol\":8513:8517  true */\n      0x01\n        /* \"test.sol\":8477:8517  accessForDoctor[_patKey][_docKey] = true */\n      or\n      swap1\n      sstore\n        /* \"test.sol\":8531:8577  accessComment = \"Access is provided to doctor\" */\n      dup2\n      mload\n      dup1\n      dup4\n      add\n      swap1\n      swap3\n      mstore\n      0x1c\n      dup3\n      mstore\n      0x4163636573732069732070726f766964656420746f20646f63746f7200000000\n      swap1\n      dup3\n      add\n      mstore\n        /* \"test.sol\":8316:8588  if(ac == access.GRANT){... */\n    tag_177:\n        /* \"test.sol\":8606:8619  access.REVOKE */\n      0x01\n        /* \"test.sol\":8600:8602  ac */\n      dup4\n        /* \"test.sol\":8600:8619  ac == access.REVOKE */\n      0x01\n      dup2\n      gt\n      iszero\n      tag_182\n      jumpi\n      mstore(0x00, shl(0xe0, 0x4e487b71))\n      mstore(0x04, 0x21)\n      revert(0x00, 0x24)\n    tag_182:\n      eq\n        /* \"test.sol\":8597:8868  if(ac == access.REVOKE){... */\n      iszero\n      tag_183\n      jumpi\n        /* \"test.sol\":8642:8666  accessForDoctor[_patKey] */\n      0x00\n      dup6\n      dup2\n      mstore\n        /* \"test.sol\":8642:8657  accessForDoctor */\n      0x06\n        /* \"test.sol\":8642:8666  accessForDoctor[_patKey] */\n      0x20\n      swap1\n      dup2\n      mstore\n      0x40\n      dup1\n      dup4\n      keccak256\n        /* \"test.sol\":8642:8675  accessForDoctor[_patKey][_docKey] */\n      dup8\n      dup5\n      mstore\n      swap1\n      swap2\n      mstore\n      swap1\n      keccak256\n      sload\n      0xff\n      and\n        /* \"test.sol\":8642:8683  accessForDoctor[_patKey][_docKey] == true */\n      iszero\n      iszero\n        /* \"test.sol\":8642:8675  accessForDoctor[_patKey][_docKey] */\n      0x01\n        /* \"test.sol\":8642:8683  accessForDoctor[_patKey][_docKey] == true */\n      eq\n        /* \"test.sol\":8634:8743  require(accessForDoctor[_patKey][_docKey] == true,... */\n      tag_184\n      jumpi\n      mload(0x40)\n      shl(0xe5, 0x461bcd)\n      dup2\n      mstore\n        /* \"#utility.yul\":16069:16071   */\n      0x20\n        /* \"test.sol\":8634:8743  require(accessForDoctor[_patKey][_docKey] == true,... */\n      0x04\n      dup3\n      add\n        /* \"#utility.yul\":16051:16072   */\n      mstore\n        /* \"#utility.yul\":16108:16110   */\n      0x23\n        /* \"#utility.yul\":16088:16106   */\n      0x24\n      dup3\n      add\n        /* \"#utility.yul\":16081:16111   */\n      mstore\n        /* \"#utility.yul\":16147:16181   */\n      0x4548522d41432d30323a2041636365737320776173206e6f742070726f766964\n        /* \"#utility.yul\":16127:16145   */\n      0x44\n      dup3\n      add\n        /* \"#utility.yul\":16120:16182   */\n      mstore\n      shl(0xe8, 0x656421)\n        /* \"#utility.yul\":16198:16216   */\n      0x64\n      dup3\n      add\n        /* \"#utility.yul\":16191:16224   */\n      mstore\n        /* \"#utility.yul\":16241:16260   */\n      0x84\n      add\n        /* \"test.sol\":8634:8743  require(accessForDoctor[_patKey][_docKey] == true,... */\n      tag_96\n        /* \"#utility.yul\":16041:16266   */\n      jump\n        /* \"test.sol\":8634:8743  require(accessForDoctor[_patKey][_docKey] == true,... */\n    tag_184:\n      pop\n        /* \"test.sol\":8793:8798  false */\n      0x00\n        /* \"test.sol\":8757:8781  accessForDoctor[_patKey] */\n      dup5\n      dup2\n      mstore\n        /* \"test.sol\":8757:8772  accessForDoctor */\n      0x06\n        /* \"test.sol\":8757:8781  accessForDoctor[_patKey] */\n      0x20\n      swap1\n      dup2\n      mstore\n      0x40\n      dup1\n      dup4\n      keccak256\n        /* \"test.sol\":8757:8790  accessForDoctor[_patKey][_docKey] */\n      dup7\n      dup5\n      mstore\n      dup3\n      mstore\n      swap2\n      dup3\n      swap1\n      keccak256\n        /* \"test.sol\":8757:8798  accessForDoctor[_patKey][_docKey] = false */\n      dup1\n      sload\n      not(0xff)\n      and\n      swap1\n      sstore\n        /* \"test.sol\":8812:8857  accessComment = \"Access is revoked to doctor\" */\n      dup2\n      mload\n      dup1\n      dup4\n      add\n      swap1\n      swap3\n      mstore\n      0x1b\n      dup3\n      mstore\n      0x416363657373206973207265766f6b656420746f20646f63746f720000000000\n      swap1\n      dup3\n      add\n      mstore\n        /* \"test.sol\":8597:8868  if(ac == access.REVOKE){... */\n    tag_183:\n        /* \"test.sol\":8882:9002  RecordEvents(... */\n      0xf4702a3b8b6c43f2fa41588e64688a0c0bc61f411971bd5ec9c64b828d4bccb0\n        /* \"test.sol\":8908:8921  accessComment */\n      dup2\n        /* \"test.sol\":8935:8942  _patKey */\n      dup7\n        /* \"test.sol\":8956:8963  _docKey */\n      dup7\n        /* \"test.sol\":8977:8992  block.timestamp */\n      timestamp\n        /* \"test.sol\":8882:9002  RecordEvents(... */\n      mload(0x40)\n      tag_161\n      swap5\n      swap4\n      swap3\n      swap2\n      swap1\n      tag_188\n      jump\t// in\n        /* \"test.sol\":2009:2064  mapping(uint => patienthealth) public patienthealthData */\n    tag_57:\n      mstore(0x20, 0x03)\n      0x00\n      swap1\n      dup2\n      mstore\n      0x40\n      swap1\n      keccak256\n      dup1\n      sload\n      dup2\n      swap1\n      tag_189\n      swap1\n      tag_100\n      jump\t// in\n    tag_189:\n      dup1\n      0x1f\n      add\n      0x20\n      dup1\n      swap2\n      div\n      mul\n      0x20\n      add\n      mload(0x40)\n      swap1\n      dup2\n      add\n      0x40\n      mstore\n      dup1\n      swap3\n      swap2\n      swap1\n      dup2\n      dup2\n      mstore\n      0x20\n      add\n      dup3\n      dup1\n      sload\n      tag_190\n      swap1\n      tag_100\n      jump\t// in\n    tag_190:\n      dup1\n      iszero\n      tag_191\n      jumpi\n      dup1\n      0x1f\n      lt\n      tag_192\n      jumpi\n      0x0100\n      dup1\n      dup4\n      sload\n      div\n      mul\n      dup4\n      mstore\n      swap2\n      0x20\n      add\n      swap2\n      jump(tag_191)\n    tag_192:\n      dup3\n      add\n      swap2\n      swap1\n      0x00\n      mstore\n      keccak256(0x00, 0x20)\n      swap1\n    tag_193:\n      dup2\n      sload\n      dup2\n      mstore\n      swap1\n      0x01\n      add\n      swap1\n      0x20\n      add\n      dup1\n      dup4\n      gt\n      tag_193\n      jumpi\n      dup3\n      swap1\n      sub\n      0x1f\n      and\n      dup3\n      add\n      swap2\n    tag_191:\n      pop\n      pop\n      pop\n      pop\n      pop\n      swap1\n      dup1\n      0x01\n      add\n      dup1\n      sload\n      tag_194\n      swap1\n      tag_100\n      jump\t// in\n    tag_194:\n      dup1\n      0x1f\n      add\n      0x20\n      dup1\n      swap2\n      div\n      mul\n      0x20\n      add\n      mload(0x40)\n      swap1\n      dup2\n      add\n      0x40\n      mstore\n      dup1\n      swap3\n      swap2\n      swap1\n      dup2\n      dup2\n      mstore\n      0x20\n      add\n      dup3\n      dup1\n      sload\n      tag_195\n      swap1\n      tag_100\n      jump\t// in\n    tag_195:\n      dup1\n      iszero\n      tag_196\n      jumpi\n      dup1\n      0x1f\n      lt\n      tag_197\n      jumpi\n      0x0100\n      dup1\n      dup4\n      sload\n      div\n      mul\n      dup4\n      mstore\n      swap2\n      0x20\n      add\n      swap2\n      jump(tag_196)\n    tag_197:\n      dup3\n      add\n      swap2\n      swap1\n      0x00\n      mstore\n      keccak256(0x00, 0x20)\n      swap1\n    tag_198:\n      dup2\n      sload\n      dup2\n      mstore\n      swap1\n      0x01\n      add\n      swap1\n      0x20\n      add\n      dup1\n      dup4\n      gt\n      tag_198\n      jumpi\n      dup3\n      swap1\n      sub\n      0x1f\n      and\n      dup3\n      add\n      swap2\n    tag_196:\n      pop\n      pop\n      pop\n      pop\n      pop\n      swap1\n      dup1\n      0x02\n      add\n      sload\n      swap1\n      dup1\n      0x03\n      add\n      sload\n      swap1\n      pop\n      dup5\n      jump\t// out\n        /* \"test.sol\":2132:2196  mapping(uint => mapping(uint => careGiver)) public careGiverData */\n    tag_62:\n      0x05\n      0x20\n      swap1\n      dup2\n      mstore\n      0x00\n      swap3\n      dup4\n      mstore\n      0x40\n      dup1\n      dup5\n      keccak256\n      swap1\n      swap2\n      mstore\n      swap1\n      dup3\n      mstore\n      swap1\n      keccak256\n      dup1\n      sload\n      dup2\n      swap1\n      tag_199\n      swap1\n      tag_100\n      jump\t// in\n    tag_199:\n      dup1\n      0x1f\n      add\n      0x20\n      dup1\n      swap2\n      div\n      mul\n      0x20\n      add\n      mload(0x40)\n      swap1\n      dup2\n      add\n      0x40\n      mstore\n      dup1\n      swap3\n      swap2\n      swap1\n      dup2\n      dup2\n      mstore\n      0x20\n      add\n      dup3\n      dup1\n      sload\n      tag_200\n      swap1\n      tag_100\n      jump\t// in\n    tag_200:\n      dup1\n      iszero\n      tag_201\n      jumpi\n      dup1\n      0x1f\n      lt\n      tag_202\n      jumpi\n      0x0100\n      dup1\n      dup4\n      sload\n      div\n      mul\n      dup4\n      mstore\n      swap2\n      0x20\n      add\n      swap2\n      jump(tag_201)\n    tag_202:\n      dup3\n      add\n      swap2\n      swap1\n      0x00\n      mstore\n      keccak256(0x00, 0x20)\n      swap1\n    tag_203:\n      dup2\n      sload\n      dup2\n      mstore\n      swap1\n      0x01\n      add\n      swap1\n      0x20\n      add\n      dup1\n      dup4\n      gt\n      tag_203\n      jumpi\n      dup3\n      swap1\n      sub\n      0x1f\n      and\n      dup3\n      add\n      swap2\n    tag_201:\n      pop\n      pop\n      pop\n      pop\n      pop\n      swap1\n      dup1\n      0x01\n      add\n      dup1\n      sload\n      tag_204\n      swap1\n      tag_100\n      jump\t// in\n    tag_204:\n      dup1\n      0x1f\n      add\n      0x20\n      dup1\n      swap2\n      div\n      mul\n      0x20\n      add\n      mload(0x40)\n      swap1\n      dup2\n      add\n      0x40\n      mstore\n      dup1\n      swap3\n      swap2\n      swap1\n      dup2\n      dup2\n      mstore\n      0x20\n      add\n      dup3\n      dup1\n      sload\n      tag_205\n      swap1\n      tag_100\n      jump\t// in\n    tag_205:\n      dup1\n      iszero\n      tag_206\n      jumpi\n      dup1\n      0x1f\n      lt\n      tag_207\n      jumpi\n      0x0100\n      dup1\n      dup4\n      sload\n      div\n      mul\n      dup4\n      mstore\n      swap2\n      0x20\n      add\n      swap2\n      jump(tag_206)\n    tag_207:\n      dup3\n      add\n      swap2\n      swap1\n      0x00\n      mstore\n      keccak256(0x00, 0x20)\n      swap1\n    tag_208:\n      dup2\n      sload\n      dup2\n      mstore\n      swap1\n      0x01\n      add\n      swap1\n      0x20\n      add\n      dup1\n      dup4\n      gt\n      tag_208\n      jumpi\n      dup3\n      swap1\n      sub\n      0x1f\n      and\n      dup3\n      add\n      swap2\n    tag_206:\n      pop\n      pop\n      pop\n      pop\n      pop\n      swap1\n      dup1\n      0x02\n      add\n      dup1\n      sload\n      tag_209\n      swap1\n      tag_100\n      jump\t// in\n    tag_209:\n      dup1\n      0x1f\n      add\n      0x20\n      dup1\n      swap2\n      div\n      mul\n      0x20\n      add\n      mload(0x40)\n      swap1\n      dup2\n      add\n      0x40\n      mstore\n      dup1\n      swap3\n      swap2\n      swap1\n      dup2\n      dup2\n      mstore\n      0x20\n      add\n      dup3\n      dup1\n      sload\n      tag_210\n      swap1\n      tag_100\n      jump\t// in\n    tag_210:\n      dup1\n      iszero\n      tag_211\n      jumpi\n      dup1\n      0x1f\n      lt\n      tag_212\n      jumpi\n      0x0100\n      dup1\n      dup4\n      sload\n      div\n      mul\n      dup4\n      mstore\n      swap2\n      0x20\n      add\n      swap2\n      jump(tag_211)\n    tag_212:\n      dup3\n      add\n      swap2\n      swap1\n      0x00\n      mstore\n      keccak256(0x00, 0x20)\n      swap1\n    tag_213:\n      dup2\n      sload\n      dup2\n      mstore\n      swap1\n      0x01\n      add\n      swap1\n      0x20\n      add\n      dup1\n      dup4\n      gt\n      tag_213\n      jumpi\n      dup3\n      swap1\n      sub\n      0x1f\n      and\n      dup3\n      add\n      swap2\n    tag_211:\n      pop\n      pop\n      pop\n      0x03\n      swap1\n      swap4\n      add\n      sload\n      swap2\n      swap3\n      pop\n      pop\n      0xff\n      and\n      dup5\n      jump\t// out\n        /* \"test.sol\":6455:6974  function registerCareGiver(... */\n    tag_67:\n        /* \"test.sol\":1600:1613  patientAccess */\n      0x00\n        /* \"test.sol\":1600:1622  patientAccess[_patKey] */\n      dup5\n      dup2\n      mstore\n      0x20\n      dup2\n      swap1\n      mstore\n      0x40\n      swap1\n      keccak256\n        /* \"test.sol\":1600:1630  patientAccess[_patKey].isExist */\n      0x04\n      add\n      sload\n        /* \"test.sol\":6631:6637  patKey */\n      dup5\n      swap1\n        /* \"test.sol\":1600:1630  patientAccess[_patKey].isExist */\n      0xff\n      and\n        /* \"test.sol\":1600:1638  patientAccess[_patKey].isExist == true */\n      iszero\n      iszero\n        /* \"test.sol\":1600:1630  patientAccess[_patKey].isExist */\n      0x01\n        /* \"test.sol\":1600:1638  patientAccess[_patKey].isExist == true */\n      eq\n        /* \"test.sol\":1592:1682  require(patientAccess[_patKey].isExist == true, ... */\n      tag_215\n      jumpi\n      mload(0x40)\n      shl(0xe5, 0x461bcd)\n      dup2\n      mstore\n      0x04\n      add\n      tag_96\n      swap1\n      tag_97\n      jump\t// in\n    tag_215:\n        /* \"test.sol\":6652:6658  uint i */\n      0x00\n        /* \"test.sol\":6648:6847  for(uint i=0;i<=2;i++){... */\n    tag_218:\n        /* \"test.sol\":6664:6665  2 */\n      0x02\n        /* \"test.sol\":6661:6662  i */\n      dup2\n        /* \"test.sol\":6661:6665  i<=2 */\n      gt\n        /* \"test.sol\":6648:6847  for(uint i=0;i<=2;i++){... */\n      tag_219\n      jumpi\n        /* \"test.sol\":6687:6708  careGiverData[patKey] */\n      0x00\n      dup7\n      dup2\n      mstore\n        /* \"test.sol\":6687:6700  careGiverData */\n      0x05\n        /* \"test.sol\":6687:6708  careGiverData[patKey] */\n      0x20\n      swap1\n      dup2\n      mstore\n      0x40\n      dup1\n      dup4\n      keccak256\n        /* \"test.sol\":6687:6711  careGiverData[patKey][i] */\n      dup5\n      dup5\n      mstore\n      swap1\n      swap2\n      mstore\n      swap1\n      keccak256\n        /* \"test.sol\":6687:6719  careGiverData[patKey][i].isExist */\n      0x03\n      add\n      sload\n      0xff\n      and\n        /* \"test.sol\":6684:6837  if(careGiverData[patKey][i].isExist == false){... */\n      tag_221\n      jumpi\n        /* \"test.sol\":6774:6822  careGiver(careName,careMobile,careRelation,true) */\n      0x40\n      dup1\n      mload\n      0x80\n      dup2\n      add\n      dup3\n      mstore\n      dup7\n      dup2\n      mstore\n      0x20\n      dup1\n      dup3\n      add\n      dup8\n      swap1\n      mstore\n      dup2\n      dup4\n      add\n      dup7\n      swap1\n      mstore\n        /* \"test.sol\":6817:6821  true */\n      0x01\n        /* \"test.sol\":6774:6822  careGiver(careName,careMobile,careRelation,true) */\n      0x60\n      dup4\n      add\n      mstore\n      0x00\n        /* \"test.sol\":6747:6768  careGiverData[patKey] */\n      dup10\n      dup2\n      mstore\n        /* \"test.sol\":6747:6760  careGiverData */\n      0x05\n        /* \"test.sol\":6747:6768  careGiverData[patKey] */\n      dup3\n      mstore\n      dup4\n      dup2\n      keccak256\n        /* \"test.sol\":6747:6771  careGiverData[patKey][i] */\n      dup6\n      dup3\n      mstore\n      dup3\n      mstore\n      swap3\n      swap1\n      swap3\n      keccak256\n        /* \"test.sol\":6747:6822  careGiverData[patKey][i] = careGiver(careName,careMobile,careRelation,true) */\n      dup2\n      mload\n      dup1\n      mload\n        /* \"test.sol\":6774:6822  careGiver(careName,careMobile,careRelation,true) */\n      swap3\n      swap4\n        /* \"test.sol\":6747:6771  careGiverData[patKey][i] */\n      swap2\n      swap3\n        /* \"test.sol\":6747:6822  careGiverData[patKey][i] = careGiver(careName,careMobile,careRelation,true) */\n      tag_222\n      swap3\n        /* \"test.sol\":6747:6771  careGiverData[patKey][i] */\n      dup5\n      swap3\n        /* \"test.sol\":6747:6822  careGiverData[patKey][i] = careGiver(careName,careMobile,careRelation,true) */\n      add\n      swap1\n      tag_156\n      jump\t// in\n    tag_222:\n      pop\n      0x20\n      dup3\n      dup2\n      add\n      mload\n      dup1\n      mload\n      tag_223\n      swap3\n      0x01\n      dup6\n      add\n      swap3\n      add\n      swap1\n      tag_156\n      jump\t// in\n    tag_223:\n      pop\n      0x40\n      dup3\n      add\n      mload\n      dup1\n      mload\n      tag_224\n      swap2\n      0x02\n      dup5\n      add\n      swap2\n      0x20\n      swap1\n      swap2\n      add\n      swap1\n      tag_156\n      jump\t// in\n    tag_224:\n      pop\n      0x60\n      swap2\n      swap1\n      swap2\n      add\n      mload\n      0x03\n      swap1\n      swap2\n      add\n      dup1\n      sload\n      not(0xff)\n      and\n      swap2\n      iszero\n      iszero\n      swap2\n      swap1\n      swap2\n      or\n      swap1\n      sstore\n        /* \"test.sol\":6684:6837  if(careGiverData[patKey][i].isExist == false){... */\n    tag_221:\n        /* \"test.sol\":6666:6669  i++ */\n      dup1\n      tag_225\n      dup2\n      tag_160\n      jump\t// in\n    tag_225:\n      swap2\n      pop\n      pop\n        /* \"test.sol\":6648:6847  for(uint i=0;i<=2;i++){... */\n      jump(tag_218)\n    tag_219:\n      pop\n      0x00\n      dup1\n      mload\n      0x20\n      data_f1783972c13bbde284b8765b8e27686842dfd940022613858bd0f693b0907129\n      dup4\n      codecopy\n      dup2\n      mload\n      swap2\n      mstore\n        /* \"test.sol\":6890:6896  patKey */\n      dup6\n        /* \"test.sol\":6951:6966  block.timestamp */\n      timestamp\n        /* \"test.sol\":6861:6967  patregistration(... */\n      mload(0x40)\n      tag_161\n      swap3\n      swap2\n      swap1\n        /* \"#utility.yul\":19485:19510   */\n      swap2\n      dup3\n      mstore\n        /* \"#utility.yul\":19546:19548   */\n      0x60\n        /* \"#utility.yul\":19541:19543   */\n      0x20\n        /* \"#utility.yul\":19526:19544   */\n      dup4\n      add\n        /* \"#utility.yul\":19519:19549   */\n      dup2\n      swap1\n      mstore\n        /* \"#utility.yul\":19585:19587   */\n      0x19\n        /* \"#utility.yul\":19565:19583   */\n      swap1\n      dup4\n      add\n        /* \"#utility.yul\":19558:19588   */\n      mstore\n        /* \"#utility.yul\":19625:19652   */\n      0x4361726567697665722044617461207265676973746572656400000000000000\n        /* \"#utility.yul\":19619:19622   */\n      0x80\n        /* \"#utility.yul\":19604:19623   */\n      dup4\n      add\n        /* \"#utility.yul\":19597:19653   */\n      mstore\n        /* \"#utility.yul\":19720:19722   */\n      0x40\n        /* \"#utility.yul\":19705:19723   */\n      dup3\n      add\n        /* \"#utility.yul\":19698:19732   */\n      mstore\n        /* \"#utility.yul\":19685:19688   */\n      0xa0\n        /* \"#utility.yul\":19670:19689   */\n      add\n      swap1\n        /* \"#utility.yul\":19475:19738   */\n      jump\n        /* \"test.sol\":6037:6449  function registerPatientHealth(... */\n    tag_71:\n        /* \"test.sol\":1600:1613  patientAccess */\n      0x00\n        /* \"test.sol\":1600:1622  patientAccess[_patKey] */\n      dup2\n      dup2\n      mstore\n      0x20\n      dup2\n      swap1\n      mstore\n      0x40\n      swap1\n      keccak256\n        /* \"test.sol\":1600:1630  patientAccess[_patKey].isExist */\n      0x04\n      add\n      sload\n        /* \"test.sol\":6223:6229  patKey */\n      dup2\n      swap1\n        /* \"test.sol\":1600:1630  patientAccess[_patKey].isExist */\n      0xff\n      and\n        /* \"test.sol\":1600:1638  patientAccess[_patKey].isExist == true */\n      iszero\n      iszero\n        /* \"test.sol\":1600:1630  patientAccess[_patKey].isExist */\n      0x01\n        /* \"test.sol\":1600:1638  patientAccess[_patKey].isExist == true */\n      eq\n        /* \"test.sol\":1592:1682  require(patientAccess[_patKey].isExist == true, ... */\n      tag_229\n      jumpi\n      mload(0x40)\n      shl(0xe5, 0x461bcd)\n      dup2\n      mstore\n      0x04\n      add\n      tag_96\n      swap1\n      tag_97\n      jump\t// in\n    tag_229:\n        /* \"test.sol\":6268:6316  patienthealth(allergies,lifesaver,height,weight) */\n      0x40\n      dup1\n      mload\n      0x80\n      dup2\n      add\n      dup3\n      mstore\n      dup8\n      dup2\n      mstore\n      0x20\n      dup1\n      dup3\n      add\n      dup9\n      swap1\n      mstore\n      dup2\n      dup4\n      add\n      dup8\n      swap1\n      mstore\n      0x60\n      dup3\n      add\n      dup7\n      swap1\n      mstore\n      0x00\n        /* \"test.sol\":6240:6265  patienthealthData[patKey] */\n      dup6\n      dup2\n      mstore\n        /* \"test.sol\":6240:6257  patienthealthData */\n      0x03\n        /* \"test.sol\":6240:6265  patienthealthData[patKey] */\n      dup3\n      mstore\n      swap3\n      swap1\n      swap3\n      keccak256\n        /* \"test.sol\":6240:6316  patienthealthData[patKey] = patienthealth(allergies,lifesaver,height,weight) */\n      dup2\n      mload\n      dup1\n      mload\n        /* \"test.sol\":6268:6316  patienthealth(allergies,lifesaver,height,weight) */\n      swap3\n      swap4\n        /* \"test.sol\":6240:6265  patienthealthData[patKey] */\n      swap2\n      swap3\n        /* \"test.sol\":6240:6316  patienthealthData[patKey] = patienthealth(allergies,lifesaver,height,weight) */\n      tag_232\n      swap3\n        /* \"test.sol\":6240:6265  patienthealthData[patKey] */\n      dup5\n      swap3\n        /* \"test.sol\":6240:6316  patienthealthData[patKey] = patienthealth(allergies,lifesaver,height,weight) */\n      add\n      swap1\n      tag_156\n      jump\t// in\n    tag_232:\n      pop\n      0x20\n      dup3\n      dup2\n      add\n      mload\n      dup1\n      mload\n      tag_233\n      swap3\n      0x01\n      dup6\n      add\n      swap3\n      add\n      swap1\n      tag_156\n      jump\t// in\n    tag_233:\n      pop\n      0x40\n      dup3\n      add\n      mload\n      dup2\n      0x02\n      add\n      sstore\n      0x60\n      dup3\n      add\n      mload\n      dup2\n      0x03\n      add\n      sstore\n      swap1\n      pop\n      pop\n      0x00\n      dup1\n      mload\n      0x20\n      data_f1783972c13bbde284b8765b8e27686842dfd940022613858bd0f693b0907129\n      dup4\n      codecopy\n      dup2\n      mload\n      swap2\n      mstore\n        /* \"test.sol\":6360:6366  patKey */\n      dup3\n        /* \"test.sol\":6423:6438  block.timestamp */\n      timestamp\n        /* \"test.sol\":6331:6439  patregistration(... */\n      mload(0x40)\n      tag_234\n      swap3\n      swap2\n      swap1\n        /* \"#utility.yul\":19983:20008   */\n      swap2\n      dup3\n      mstore\n        /* \"#utility.yul\":20044:20046   */\n      0x60\n        /* \"#utility.yul\":20039:20041   */\n      0x20\n        /* \"#utility.yul\":20024:20042   */\n      dup4\n      add\n        /* \"#utility.yul\":20017:20047   */\n      dup2\n      swap1\n      mstore\n        /* \"#utility.yul\":20083:20085   */\n      0x1b\n        /* \"#utility.yul\":20063:20081   */\n      swap1\n      dup4\n      add\n        /* \"#utility.yul\":20056:20086   */\n      mstore\n        /* \"#utility.yul\":20123:20152   */\n      0x50617469656e74204865616c7468204461746120757064617465640000000000\n        /* \"#utility.yul\":20117:20120   */\n      0x80\n        /* \"#utility.yul\":20102:20121   */\n      dup4\n      add\n        /* \"#utility.yul\":20095:20153   */\n      mstore\n        /* \"#utility.yul\":20220:20222   */\n      0x40\n        /* \"#utility.yul\":20205:20223   */\n      dup3\n      add\n        /* \"#utility.yul\":20198:20232   */\n      mstore\n        /* \"#utility.yul\":20185:20188   */\n      0xa0\n        /* \"#utility.yul\":20170:20189   */\n      add\n      swap1\n        /* \"#utility.yul\":19973:20238   */\n      jump\n        /* \"test.sol\":6331:6439  patregistration(... */\n    tag_234:\n      mload(0x40)\n      dup1\n      swap2\n      sub\n      swap1\n      log1\n        /* \"test.sol\":6037:6449  function registerPatientHealth(... */\n      pop\n      pop\n      pop\n      pop\n      pop\n      pop\n      jump\t// out\n        /* \"test.sol\":3920:5552  function registerDoctor(... */\n    tag_75:\n        /* \"test.sol\":4219:4230  uint docKey */\n      0x00\n        /* \"test.sol\":4265:4277  doctorMobile */\n      dup7\n        /* \"test.sol\":4278:4289  doctorEmail */\n      dup9\n        /* \"test.sol\":4248:4290  abi.encodePacked(doctorMobile,doctorEmail) */\n      add(0x20, mload(0x40))\n      tag_237\n      swap3\n      swap2\n      swap1\n      tag_238\n      jump\t// in\n    tag_237:\n      0x40\n      dup1\n      mload\n      not(0x1f)\n      dup2\n      dup5\n      sub\n      add\n      dup2\n      mstore\n      swap2\n      swap1\n      mstore\n        /* \"test.sol\":4238:4291  keccak256(abi.encodePacked(doctorMobile,doctorEmail)) */\n      dup1\n      mload\n        /* \"test.sol\":4248:4290  abi.encodePacked(doctorMobile,doctorEmail) */\n      0x20\n        /* \"test.sol\":4238:4291  keccak256(abi.encodePacked(doctorMobile,doctorEmail)) */\n      swap1\n      swap2\n      add\n      keccak256\n      swap1\n      pop\n        /* \"test.sol\":4302:4324  string memory comments */\n      0x60\n        /* \"test.sol\":4233:4292  uint(keccak256(abi.encodePacked(doctorMobile,doctorEmail))) */\n      0x00\n        /* \"test.sol\":4337:4341  reup */\n      dup4\n        /* \"test.sol\":4337:4365  reup == stateChange.REGISTER */\n      0x01\n      dup2\n      gt\n      iszero\n      tag_240\n      jumpi\n      mstore(0x00, shl(0xe0, 0x4e487b71))\n      mstore(0x04, 0x21)\n      revert(0x00, 0x24)\n    tag_240:\n      eq\n        /* \"test.sol\":4334:4872  if(reup == stateChange.REGISTER){... */\n      iszero\n      tag_241\n      jumpi\n        /* \"test.sol\":4459:4470  doctorEmail */\n      dup9\n        /* \"test.sol\":4443:4472  keccak256(bytes(doctorEmail)) */\n      dup1\n      mload\n      swap1\n      0x20\n      add\n      keccak256\n        /* \"test.sol\":4405:4417  doctorAccess */\n      0x01\n        /* \"test.sol\":4405:4425  doctorAccess[docKey] */\n      0x00\n        /* \"test.sol\":4418:4424  docKey */\n      dup5\n        /* \"test.sol\":4405:4425  doctorAccess[docKey] */\n      dup2\n      mstore\n      0x20\n      add\n      swap1\n      dup2\n      mstore\n      0x20\n      add\n      0x00\n      keccak256\n        /* \"test.sol\":4405:4437  doctorAccess[docKey].doctorEmail */\n      0x01\n      add\n        /* \"test.sol\":4389:4439  keccak256(bytes(doctorAccess[docKey].doctorEmail)) */\n      mload(0x40)\n      tag_242\n      swap2\n      swap1\n      tag_153\n      jump\t// in\n    tag_242:\n      mload(0x40)\n      dup1\n      swap2\n      sub\n      swap1\n      keccak256\n        /* \"test.sol\":4389:4472  keccak256(bytes(doctorAccess[docKey].doctorEmail)) != keccak256(bytes(doctorEmail)) */\n      eq\n      iszero\n        /* \"test.sol\":4380:4512  require (keccak256(bytes(doctorAccess[docKey].doctorEmail)) != keccak256(bytes(doctorEmail)), \"EHR-RD-01: Doctor already Enrolled.\") */\n      tag_243\n      jumpi\n      mload(0x40)\n      shl(0xe5, 0x461bcd)\n      dup2\n      mstore\n      0x04\n      add\n      tag_96\n      swap1\n      tag_245\n      jump\t// in\n    tag_243:\n        /* \"test.sol\":4606:4618  doctorMobile */\n      dup8\n        /* \"test.sol\":4590:4620  keccak256(bytes(doctorMobile)) */\n      dup1\n      mload\n      swap1\n      0x20\n      add\n      keccak256\n        /* \"test.sol\":4551:4563  doctorAccess */\n      0x01\n        /* \"test.sol\":4551:4571  doctorAccess[docKey] */\n      0x00\n        /* \"test.sol\":4564:4570  docKey */\n      dup5\n        /* \"test.sol\":4551:4571  doctorAccess[docKey] */\n      dup2\n      mstore\n      0x20\n      add\n      swap1\n      dup2\n      mstore\n      0x20\n      add\n      0x00\n      keccak256\n        /* \"test.sol\":4551:4584  doctorAccess[docKey].doctorMobile */\n      0x02\n      add\n        /* \"test.sol\":4535:4586  keccak256(bytes(doctorAccess[docKey].doctorMobile)) */\n      mload(0x40)\n      tag_246\n      swap2\n      swap1\n      tag_153\n      jump\t// in\n    tag_246:\n      mload(0x40)\n      dup1\n      swap2\n      sub\n      swap1\n      keccak256\n        /* \"test.sol\":4535:4620  keccak256(bytes(doctorAccess[docKey].doctorMobile)) != keccak256(bytes(doctorMobile)) */\n      eq\n      iszero\n        /* \"test.sol\":4526:4660  require (keccak256(bytes(doctorAccess[docKey].doctorMobile)) != keccak256(bytes(doctorMobile)), \"EHR-RD-02: Doctor already Enrolled.\") */\n      tag_247\n      jumpi\n      mload(0x40)\n      shl(0xe5, 0x461bcd)\n      dup2\n      mstore\n      0x04\n      add\n      tag_96\n      swap1\n      tag_249\n      jump\t// in\n    tag_247:\n        /* \"test.sol\":4697:4810  doctorEnroll(doctorName,doctorEmail,doctorMobile,doctorPass,doctorCred,DoctorType(_doctorType),Sex(_gender),true) */\n      mload(0x40)\n      dup1\n      0x0100\n      add\n      0x40\n      mstore\n      dup1\n        /* \"test.sol\":4710:4720  doctorName */\n      dup12\n        /* \"test.sol\":4697:4810  doctorEnroll(doctorName,doctorEmail,doctorMobile,doctorPass,doctorCred,DoctorType(_doctorType),Sex(_gender),true) */\n      dup2\n      mstore\n      0x20\n      add\n        /* \"test.sol\":4721:4732  doctorEmail */\n      dup11\n        /* \"test.sol\":4697:4810  doctorEnroll(doctorName,doctorEmail,doctorMobile,doctorPass,doctorCred,DoctorType(_doctorType),Sex(_gender),true) */\n      dup2\n      mstore\n      0x20\n      add\n        /* \"test.sol\":4733:4745  doctorMobile */\n      dup10\n        /* \"test.sol\":4697:4810  doctorEnroll(doctorName,doctorEmail,doctorMobile,doctorPass,doctorCred,DoctorType(_doctorType),Sex(_gender),true) */\n      dup2\n      mstore\n      0x20\n      add\n        /* \"test.sol\":4746:4756  doctorPass */\n      dup9\n        /* \"test.sol\":4697:4810  doctorEnroll(doctorName,doctorEmail,doctorMobile,doctorPass,doctorCred,DoctorType(_doctorType),Sex(_gender),true) */\n      dup2\n      mstore\n      0x20\n      add\n        /* \"test.sol\":4757:4767  doctorCred */\n      dup8\n        /* \"test.sol\":4697:4810  doctorEnroll(doctorName,doctorEmail,doctorMobile,doctorPass,doctorCred,DoctorType(_doctorType),Sex(_gender),true) */\n      dup2\n      mstore\n      0x20\n      add\n        /* \"test.sol\":4779:4790  _doctorType */\n      dup7\n        /* \"test.sol\":4697:4810  doctorEnroll(doctorName,doctorEmail,doctorMobile,doctorPass,doctorCred,DoctorType(_doctorType),Sex(_gender),true) */\n      0x04\n      dup2\n      gt\n      iszero\n      tag_250\n      jumpi\n      mstore(0x00, shl(0xe0, 0x4e487b71))\n      mstore(0x04, 0x21)\n      revert(0x00, 0x24)\n    tag_250:\n      dup2\n      mstore\n      0x20\n      add\n        /* \"test.sol\":4796:4803  _gender */\n      dup6\n        /* \"test.sol\":4697:4810  doctorEnroll(doctorName,doctorEmail,doctorMobile,doctorPass,doctorCred,DoctorType(_doctorType),Sex(_gender),true) */\n      0x02\n      dup2\n      gt\n      iszero\n      tag_251\n      jumpi\n      mstore(0x00, shl(0xe0, 0x4e487b71))\n      mstore(0x04, 0x21)\n      revert(0x00, 0x24)\n    tag_251:\n      dup2\n      mstore\n        /* \"test.sol\":4805:4809  true */\n      0x01\n        /* \"test.sol\":4697:4810  doctorEnroll(doctorName,doctorEmail,doctorMobile,doctorPass,doctorCred,DoctorType(_doctorType),Sex(_gender),true) */\n      0x20\n      swap2\n      dup3\n      add\n      dup2\n      swap1\n      mstore\n      0x00\n        /* \"test.sol\":4674:4694  doctorAccess[docKey] */\n      dup6\n      dup2\n      mstore\n      swap1\n      dup3\n      mstore\n      0x40\n      swap1\n      keccak256\n        /* \"test.sol\":4674:4810  doctorAccess[docKey] = doctorEnroll(doctorName,doctorEmail,doctorMobile,doctorPass,doctorCred,DoctorType(_doctorType),Sex(_gender),true) */\n      dup3\n      mload\n      dup1\n      mload\n        /* \"test.sol\":4674:4694  doctorAccess[docKey] */\n      swap2\n      swap3\n        /* \"test.sol\":4674:4810  doctorAccess[docKey] = doctorEnroll(doctorName,doctorEmail,doctorMobile,doctorPass,doctorCred,DoctorType(_doctorType),Sex(_gender),true) */\n      tag_252\n      swap3\n        /* \"test.sol\":4674:4694  doctorAccess[docKey] */\n      dup5\n      swap3\n        /* \"test.sol\":4674:4810  doctorAccess[docKey] = doctorEnroll(doctorName,doctorEmail,doctorMobile,doctorPass,doctorCred,DoctorType(_doctorType),Sex(_gender),true) */\n      swap1\n      swap2\n      add\n      swap1\n      tag_156\n      jump\t// in\n    tag_252:\n      pop\n      0x20\n      dup3\n      dup2\n      add\n      mload\n      dup1\n      mload\n      tag_253\n      swap3\n      0x01\n      dup6\n      add\n      swap3\n      add\n      swap1\n      tag_156\n      jump\t// in\n    tag_253:\n      pop\n      0x40\n      dup3\n      add\n      mload\n      dup1\n      mload\n      tag_254\n      swap2\n      0x02\n      dup5\n      add\n      swap2\n      0x20\n      swap1\n      swap2\n      add\n      swap1\n      tag_156\n      jump\t// in\n    tag_254:\n      pop\n      0x60\n      dup3\n      add\n      mload\n      dup1\n      mload\n      tag_255\n      swap2\n      0x03\n      dup5\n      add\n      swap2\n      0x20\n      swap1\n      swap2\n      add\n      swap1\n      tag_156\n      jump\t// in\n    tag_255:\n      pop\n      0x80\n      dup3\n      add\n      mload\n      dup1\n      mload\n      tag_256\n      swap2\n      0x04\n      dup5\n      add\n      swap2\n      0x20\n      swap1\n      swap2\n      add\n      swap1\n      tag_156\n      jump\t// in\n    tag_256:\n      pop\n      0xa0\n      dup3\n      add\n      mload\n      0x05\n      dup3\n      add\n      dup1\n      sload\n      not(0xff)\n      and\n      0x01\n      dup4\n      0x04\n      dup2\n      gt\n      iszero\n      tag_257\n      jumpi\n      mstore(0x00, shl(0xe0, 0x4e487b71))\n      mstore(0x04, 0x21)\n      revert(0x00, 0x24)\n    tag_257:\n      mul\n      or\n      swap1\n      sstore\n      pop\n      0xc0\n      dup3\n      add\n      mload\n      0x05\n      dup3\n      add\n      dup1\n      sload\n      not(0xff00)\n      and\n      0x0100\n      dup4\n      0x02\n      dup2\n      gt\n      iszero\n      tag_258\n      jumpi\n      mstore(0x00, shl(0xe0, 0x4e487b71))\n      mstore(0x04, 0x21)\n      revert(0x00, 0x24)\n    tag_258:\n      mul\n      or\n      swap1\n      sstore\n      pop\n      0xe0\n      swap2\n      swap1\n      swap2\n      add\n      mload\n      0x05\n      swap1\n      swap2\n      add\n      dup1\n      sload\n      swap2\n      iszero\n      iszero\n      0x010000\n      mul\n      not(0xff0000)\n      swap1\n      swap3\n      and\n      swap2\n      swap1\n      swap2\n      or\n      swap1\n      sstore\n      pop\n        /* \"test.sol\":4824:4861  comments = \"Doctor Registration Done\" */\n      0x40\n      dup1\n      mload\n      dup1\n      dup3\n      add\n      swap1\n      swap2\n      mstore\n      0x18\n      dup2\n      mstore\n      0x446f63746f7220526567697374726174696f6e20446f6e650000000000000000\n      0x20\n      dup3\n      add\n      mstore\n        /* \"test.sol\":4334:4872  if(reup == stateChange.REGISTER){... */\n    tag_241:\n        /* \"test.sol\":4892:4910  stateChange.UPDATE */\n      0x01\n        /* \"test.sol\":4884:4888  reup */\n      dup4\n        /* \"test.sol\":4884:4910  reup == stateChange.UPDATE */\n      0x01\n      dup2\n      gt\n      iszero\n      tag_260\n      jumpi\n      mstore(0x00, shl(0xe0, 0x4e487b71))\n      mstore(0x04, 0x21)\n      revert(0x00, 0x24)\n    tag_260:\n      eq\n        /* \"test.sol\":4881:5444  if(reup == stateChange.UPDATE){... */\n      iszero\n      tag_261\n      jumpi\n        /* \"test.sol\":5004:5015  doctorEmail */\n      dup9\n        /* \"test.sol\":4988:5017  keccak256(bytes(doctorEmail)) */\n      dup1\n      mload\n      swap1\n      0x20\n      add\n      keccak256\n        /* \"test.sol\":4950:4962  doctorAccess */\n      0x01\n        /* \"test.sol\":4950:4970  doctorAccess[docKey] */\n      0x00\n        /* \"test.sol\":4963:4969  docKey */\n      dup5\n        /* \"test.sol\":4950:4970  doctorAccess[docKey] */\n      dup2\n      mstore\n      0x20\n      add\n      swap1\n      dup2\n      mstore\n      0x20\n      add\n      0x00\n      keccak256\n        /* \"test.sol\":4950:4982  doctorAccess[docKey].doctorEmail */\n      0x01\n      add\n        /* \"test.sol\":4934:4984  keccak256(bytes(doctorAccess[docKey].doctorEmail)) */\n      mload(0x40)\n      tag_262\n      swap2\n      swap1\n      tag_153\n      jump\t// in\n    tag_262:\n      mload(0x40)\n      dup1\n      swap2\n      sub\n      swap1\n      keccak256\n        /* \"test.sol\":4934:5017  keccak256(bytes(doctorAccess[docKey].doctorEmail)) == keccak256(bytes(doctorEmail)) */\n      eq\n        /* \"test.sol\":4925:5057  require (keccak256(bytes(doctorAccess[docKey].doctorEmail)) == keccak256(bytes(doctorEmail)), \"EHR-RD-01: Doctor already Enrolled.\") */\n      tag_263\n      jumpi\n      mload(0x40)\n      shl(0xe5, 0x461bcd)\n      dup2\n      mstore\n      0x04\n      add\n      tag_96\n      swap1\n      tag_245\n      jump\t// in\n    tag_263:\n        /* \"test.sol\":5151:5163  doctorMobile */\n      dup8\n        /* \"test.sol\":5135:5165  keccak256(bytes(doctorMobile)) */\n      dup1\n      mload\n      swap1\n      0x20\n      add\n      keccak256\n        /* \"test.sol\":5096:5108  doctorAccess */\n      0x01\n        /* \"test.sol\":5096:5116  doctorAccess[docKey] */\n      0x00\n        /* \"test.sol\":5109:5115  docKey */\n      dup5\n        /* \"test.sol\":5096:5116  doctorAccess[docKey] */\n      dup2\n      mstore\n      0x20\n      add\n      swap1\n      dup2\n      mstore\n      0x20\n      add\n      0x00\n      keccak256\n        /* \"test.sol\":5096:5129  doctorAccess[docKey].doctorMobile */\n      0x02\n      add\n        /* \"test.sol\":5080:5131  keccak256(bytes(doctorAccess[docKey].doctorMobile)) */\n      mload(0x40)\n      tag_265\n      swap2\n      swap1\n      tag_153\n      jump\t// in\n    tag_265:\n      mload(0x40)\n      dup1\n      swap2\n      sub\n      swap1\n      keccak256\n        /* \"test.sol\":5080:5165  keccak256(bytes(doctorAccess[docKey].doctorMobile)) == keccak256(bytes(doctorMobile)) */\n      eq\n        /* \"test.sol\":5071:5205  require (keccak256(bytes(doctorAccess[docKey].doctorMobile)) == keccak256(bytes(doctorMobile)), \"EHR-RD-02: Doctor already Enrolled.\") */\n      tag_266\n      jumpi\n      mload(0x40)\n      shl(0xe5, 0x461bcd)\n      dup2\n      mstore\n      0x04\n      add\n      tag_96\n      swap1\n      tag_249\n      jump\t// in\n    tag_266:\n        /* \"test.sol\":5219:5239  doctorAccess[docKey] */\n      0x00\n      dup3\n      dup2\n      mstore\n        /* \"test.sol\":5219:5231  doctorAccess */\n      0x01\n        /* \"test.sol\":5219:5239  doctorAccess[docKey] */\n      0x20\n      swap1\n      dup2\n      mstore\n      0x40\n      swap1\n      swap2\n      keccak256\n        /* \"test.sol\":5219:5263  doctorAccess[docKey].doctorName = doctorName */\n      dup12\n      mload\n      tag_268\n      swap3\n      dup14\n      add\n      swap1\n      tag_156\n      jump\t// in\n    tag_268:\n      pop\n        /* \"test.sol\":5277:5297  doctorAccess[docKey] */\n      0x00\n      dup3\n      dup2\n      mstore\n        /* \"test.sol\":5277:5289  doctorAccess */\n      0x01\n        /* \"test.sol\":5277:5297  doctorAccess[docKey] */\n      0x20\n      dup2\n      dup2\n      mstore\n      0x40\n      swap1\n      swap3\n      keccak256\n        /* \"test.sol\":5277:5323  doctorAccess[docKey].doctorEmail = doctorEmail */\n      dup12\n      mload\n      tag_269\n      swap4\n        /* \"test.sol\":5277:5309  doctorAccess[docKey].doctorEmail */\n      swap2\n      swap1\n      swap3\n      add\n      swap2\n        /* \"test.sol\":5277:5323  doctorAccess[docKey].doctorEmail = doctorEmail */\n      swap1\n      dup13\n      add\n      swap1\n      tag_156\n      jump\t// in\n    tag_269:\n      pop\n        /* \"test.sol\":5337:5357  doctorAccess[docKey] */\n      0x00\n      dup3\n      dup2\n      mstore\n        /* \"test.sol\":5337:5349  doctorAccess */\n      0x01\n        /* \"test.sol\":5337:5357  doctorAccess[docKey] */\n      0x20\n      swap1\n      dup2\n      mstore\n      0x40\n      swap1\n      swap2\n      keccak256\n        /* \"test.sol\":5337:5385  doctorAccess[docKey].doctorMobile = doctorMobile */\n      dup10\n      mload\n      tag_270\n      swap3\n        /* \"test.sol\":5337:5370  doctorAccess[docKey].doctorMobile */\n      0x02\n      swap1\n      swap3\n      add\n      swap2\n        /* \"test.sol\":5337:5385  doctorAccess[docKey].doctorMobile = doctorMobile */\n      dup12\n      add\n      swap1\n      tag_156\n      jump\t// in\n    tag_270:\n      pop\n      pop\n        /* \"test.sol\":5399:5433  comments = \"Doctor Record Updated\" */\n      0x40\n      dup1\n      mload\n      dup1\n      dup3\n      add\n      swap1\n      swap2\n      mstore\n      0x15\n      dup2\n      mstore\n      shl(0x5a, 0x111bd8dd1bdc88149958dbdc9908155c19185d1959)\n      0x20\n      dup3\n      add\n      mstore\n        /* \"test.sol\":4881:5444  if(reup == stateChange.UPDATE){... */\n    tag_261:\n      0x00\n      dup1\n      mload\n      0x20\n      data_f1783972c13bbde284b8765b8e27686842dfd940022613858bd0f693b0907129\n      dup4\n      codecopy\n      dup2\n      mload\n      swap2\n      mstore\n        /* \"test.sol\":5487:5493  docKey */\n      dup3\n        /* \"test.sol\":5507:5515  comments */\n      dup3\n        /* \"test.sol\":5529:5544  block.timestamp */\n      timestamp\n        /* \"test.sol\":5458:5545  patregistration(... */\n      mload(0x40)\n      tag_271\n      swap4\n      swap3\n      swap2\n      swap1\n      tag_272\n      jump\t// in\n    tag_271:\n      mload(0x40)\n      dup1\n      swap2\n      sub\n      swap1\n      log1\n        /* \"test.sol\":3920:5552  function registerDoctor(... */\n      pop\n      pop\n      pop\n      pop\n      pop\n      pop\n      pop\n      pop\n      pop\n      pop\n      jump\t// out\n        /* \"test.sol\":5593:6031  function registerPatientLoc(... */\n    tag_79:\n        /* \"test.sol\":1600:1613  patientAccess */\n      0x00\n        /* \"test.sol\":1600:1622  patientAccess[_patKey] */\n      dup2\n      dup2\n      mstore\n      0x20\n      dup2\n      swap1\n      mstore\n      0x40\n      swap1\n      keccak256\n        /* \"test.sol\":1600:1630  patientAccess[_patKey].isExist */\n      0x04\n      add\n      sload\n        /* \"test.sol\":5810:5816  patKey */\n      dup2\n      swap1\n        /* \"test.sol\":1600:1630  patientAccess[_patKey].isExist */\n      0xff\n      and\n        /* \"test.sol\":1600:1638  patientAccess[_patKey].isExist == true */\n      iszero\n      iszero\n        /* \"test.sol\":1600:1630  patientAccess[_patKey].isExist */\n      0x01\n        /* \"test.sol\":1600:1638  patientAccess[_patKey].isExist == true */\n      eq\n        /* \"test.sol\":1592:1682  require(patientAccess[_patKey].isExist == true, ... */\n      tag_274\n      jumpi\n      mload(0x40)\n      shl(0xe5, 0x461bcd)\n      dup2\n      mstore\n      0x04\n      add\n      tag_96\n      swap1\n      tag_97\n      jump\t// in\n    tag_274:\n        /* \"test.sol\":5852:5899  patientGeo(city,state,country,landmark,pincode) */\n      0x40\n      dup1\n      mload\n      0xa0\n      dup2\n      add\n      dup3\n      mstore\n      dup9\n      dup2\n      mstore\n      0x20\n      dup1\n      dup3\n      add\n      dup10\n      swap1\n      mstore\n      dup2\n      dup4\n      add\n      dup9\n      swap1\n      mstore\n      0x60\n      dup3\n      add\n      dup8\n      swap1\n      mstore\n      0x80\n      dup3\n      add\n      dup7\n      swap1\n      mstore\n      0x00\n        /* \"test.sol\":5827:5849  patientLocData[patKey] */\n      dup6\n      dup2\n      mstore\n        /* \"test.sol\":5827:5841  patientLocData */\n      0x02\n        /* \"test.sol\":5827:5849  patientLocData[patKey] */\n      dup3\n      mstore\n      swap3\n      swap1\n      swap3\n      keccak256\n        /* \"test.sol\":5827:5899  patientLocData[patKey] = patientGeo(city,state,country,landmark,pincode) */\n      dup2\n      mload\n      dup1\n      mload\n        /* \"test.sol\":5852:5899  patientGeo(city,state,country,landmark,pincode) */\n      swap3\n      swap4\n        /* \"test.sol\":5827:5849  patientLocData[patKey] */\n      swap2\n      swap3\n        /* \"test.sol\":5827:5899  patientLocData[patKey] = patientGeo(city,state,country,landmark,pincode) */\n      tag_277\n      swap3\n        /* \"test.sol\":5827:5849  patientLocData[patKey] */\n      dup5\n      swap3\n        /* \"test.sol\":5827:5899  patientLocData[patKey] = patientGeo(city,state,country,landmark,pincode) */\n      add\n      swap1\n      tag_156\n      jump\t// in\n    tag_277:\n      pop\n      0x20\n      dup3\n      dup2\n      add\n      mload\n      dup1\n      mload\n      tag_278\n      swap3\n      0x01\n      dup6\n      add\n      swap3\n      add\n      swap1\n      tag_156\n      jump\t// in\n    tag_278:\n      pop\n      0x40\n      dup3\n      add\n      mload\n      dup1\n      mload\n      tag_279\n      swap2\n      0x02\n      dup5\n      add\n      swap2\n      0x20\n      swap1\n      swap2\n      add\n      swap1\n      tag_156\n      jump\t// in\n    tag_279:\n      pop\n      0x60\n      dup3\n      add\n      mload\n      dup1\n      mload\n      tag_280\n      swap2\n      0x03\n      dup5\n      add\n      swap2\n      0x20\n      swap1\n      swap2\n      add\n      swap1\n      tag_156\n      jump\t// in\n    tag_280:\n      pop\n      0x80\n      swap2\n      dup3\n      add\n      mload\n      0x04\n      swap1\n      swap2\n      add\n      sstore\n        /* \"test.sol\":5914:6024  patregistration(... */\n      0x40\n      dup1\n      mload\n        /* \"#utility.yul\":18983:19008   */\n      dup5\n      dup2\n      mstore\n        /* \"#utility.yul\":19044:19046   */\n      0x60\n        /* \"#utility.yul\":19039:19041   */\n      0x20\n        /* \"#utility.yul\":19024:19042   */\n      dup3\n      add\n        /* \"#utility.yul\":19017:19047   */\n      dup2\n      swap1\n      mstore\n        /* \"#utility.yul\":19083:19085   */\n      0x1d\n        /* \"#utility.yul\":19063:19081   */\n      swap1\n      dup3\n      add\n        /* \"#utility.yul\":19056:19086   */\n      mstore\n        /* \"#utility.yul\":19123:19154   */\n      0x50617469656e74204c6f636174696f6e20446174612075706461746564000000\n        /* \"#utility.yul\":19102:19121   */\n      swap3\n      dup2\n      add\n        /* \"#utility.yul\":19095:19155   */\n      swap3\n      swap1\n      swap3\n      mstore\n        /* \"test.sol\":6008:6023  block.timestamp */\n      timestamp\n        /* \"#utility.yul\":19207:19225   */\n      swap1\n      dup3\n      add\n        /* \"#utility.yul\":19200:19234   */\n      mstore\n      0x00\n      dup1\n      mload\n      0x20\n      data_f1783972c13bbde284b8765b8e27686842dfd940022613858bd0f693b0907129\n      dup4\n      codecopy\n      dup2\n      mload\n      swap2\n      mstore\n        /* \"test.sol\":5914:6024  patregistration(... */\n      swap1\n        /* \"#utility.yul\":19187:19190   */\n      0xa0\n        /* \"#utility.yul\":19172:19191   */\n      add\n        /* \"test.sol\":5914:6024  patregistration(... */\n    tag_281:\n      mload(0x40)\n      dup1\n      swap2\n      sub\n      swap1\n      log1\n        /* \"test.sol\":5593:6031  function registerPatientLoc(... */\n      pop\n      pop\n      pop\n      pop\n      pop\n      pop\n      pop\n      jump\t// out\n        /* \"test.sol\":2295:3891  function registerPatients(... */\n    tag_83:\n        /* \"test.sol\":2513:2528  uint patientKey */\n      0x00\n        /* \"test.sol\":2563:2576  patientMobile */\n      dup4\n        /* \"test.sol\":2577:2589  patientEmail */\n      dup6\n        /* \"test.sol\":2546:2590  abi.encodePacked(patientMobile,patientEmail) */\n      add(0x20, mload(0x40))\n      tag_284\n      swap3\n      swap2\n      swap1\n      tag_238\n      jump\t// in\n    tag_284:\n      0x40\n      dup1\n      mload\n      not(0x1f)\n      dup2\n      dup5\n      sub\n      add\n      dup2\n      mstore\n      swap2\n      swap1\n      mstore\n        /* \"test.sol\":2536:2591  keccak256(abi.encodePacked(patientMobile,patientEmail)) */\n      dup1\n      mload\n        /* \"test.sol\":2546:2590  abi.encodePacked(patientMobile,patientEmail) */\n      0x20\n        /* \"test.sol\":2536:2591  keccak256(abi.encodePacked(patientMobile,patientEmail)) */\n      swap1\n      swap2\n      add\n      keccak256\n      swap1\n      pop\n        /* \"test.sol\":2602:2624  string memory comments */\n      0x60\n        /* \"test.sol\":2531:2592  uint(keccak256(abi.encodePacked(patientMobile,patientEmail))) */\n      0x00\n        /* \"test.sol\":2637:2641  reup */\n      dup4\n        /* \"test.sol\":2637:2665  reup == stateChange.REGISTER */\n      0x01\n      dup2\n      gt\n      iszero\n      tag_286\n      jumpi\n      mstore(0x00, shl(0xe0, 0x4e487b71))\n      mstore(0x04, 0x21)\n      revert(0x00, 0x24)\n    tag_286:\n      eq\n        /* \"test.sol\":2634:3151  if(reup == stateChange.REGISTER){... */\n      iszero\n      tag_287\n      jumpi\n        /* \"test.sol\":2765:2777  patientEmail */\n      dup6\n        /* \"test.sol\":2749:2779  keccak256(bytes(patientEmail)) */\n      dup1\n      mload\n      swap1\n      0x20\n      add\n      keccak256\n        /* \"test.sol\":2705:2718  patientAccess */\n      0x00\n        /* \"test.sol\":2705:2730  patientAccess[patientKey] */\n      dup1\n        /* \"test.sol\":2719:2729  patientKey */\n      dup5\n        /* \"test.sol\":2705:2730  patientAccess[patientKey] */\n      dup2\n      mstore\n      0x20\n      add\n      swap1\n      dup2\n      mstore\n      0x20\n      add\n      0x00\n      keccak256\n        /* \"test.sol\":2705:2743  patientAccess[patientKey].patientEmail */\n      0x01\n      add\n        /* \"test.sol\":2689:2745  keccak256(bytes(patientAccess[patientKey].patientEmail)) */\n      mload(0x40)\n      tag_288\n      swap2\n      swap1\n      tag_153\n      jump\t// in\n    tag_288:\n      mload(0x40)\n      dup1\n      swap2\n      sub\n      swap1\n      keccak256\n        /* \"test.sol\":2689:2779  keccak256(bytes(patientAccess[patientKey].patientEmail)) != keccak256(bytes(patientEmail)) */\n      eq\n      iszero\n        /* \"test.sol\":2680:2820  require (keccak256(bytes(patientAccess[patientKey].patientEmail)) != keccak256(bytes(patientEmail)), \"EHR-RP-01: Patient already Enrolled.\") */\n      tag_289\n      jumpi\n      mload(0x40)\n      shl(0xe5, 0x461bcd)\n      dup2\n      mstore\n      0x04\n      add\n      tag_96\n      swap1\n      tag_291\n      jump\t// in\n    tag_289:\n        /* \"test.sol\":2920:2933  patientMobile */\n      dup5\n        /* \"test.sol\":2904:2935  keccak256(bytes(patientMobile)) */\n      dup1\n      mload\n      swap1\n      0x20\n      add\n      keccak256\n        /* \"test.sol\":2859:2872  patientAccess */\n      0x00\n        /* \"test.sol\":2859:2884  patientAccess[patientKey] */\n      dup1\n        /* \"test.sol\":2873:2883  patientKey */\n      dup5\n        /* \"test.sol\":2859:2884  patientAccess[patientKey] */\n      dup2\n      mstore\n      0x20\n      add\n      swap1\n      dup2\n      mstore\n      0x20\n      add\n      0x00\n      keccak256\n        /* \"test.sol\":2859:2898  patientAccess[patientKey].patientMobile */\n      0x02\n      add\n        /* \"test.sol\":2843:2900  keccak256(bytes(patientAccess[patientKey].patientMobile)) */\n      mload(0x40)\n      tag_292\n      swap2\n      swap1\n      tag_153\n      jump\t// in\n    tag_292:\n      mload(0x40)\n      dup1\n      swap2\n      sub\n      swap1\n      keccak256\n        /* \"test.sol\":2843:2935  keccak256(bytes(patientAccess[patientKey].patientMobile)) != keccak256(bytes(patientMobile)) */\n      eq\n      iszero\n        /* \"test.sol\":2834:2976  require (keccak256(bytes(patientAccess[patientKey].patientMobile)) != keccak256(bytes(patientMobile)), \"EHR-RP-02: Patient already Enrolled.\") */\n      tag_293\n      jumpi\n      mload(0x40)\n      shl(0xe5, 0x461bcd)\n      dup2\n      mstore\n      0x04\n      add\n      tag_96\n      swap1\n      tag_295\n      jump\t// in\n    tag_293:\n        /* \"test.sol\":3018:3088  patientEnroll(patientName,patientEmail,patientMobile,patientPass,true) */\n      0x40\n      dup1\n      mload\n      0xa0\n      dup2\n      add\n      dup3\n      mstore\n      dup9\n      dup2\n      mstore\n      0x20\n      dup1\n      dup3\n      add\n      dup10\n      swap1\n      mstore\n      dup2\n      dup4\n      add\n      dup9\n      swap1\n      mstore\n      0x60\n      dup3\n      add\n      dup8\n      swap1\n      mstore\n        /* \"test.sol\":3083:3087  true */\n      0x01\n        /* \"test.sol\":3018:3088  patientEnroll(patientName,patientEmail,patientMobile,patientPass,true) */\n      0x80\n      dup4\n      add\n      mstore\n      0x00\n        /* \"test.sol\":2990:3015  patientAccess[patientKey] */\n      dup6\n      dup2\n      mstore\n      dup1\n      dup3\n      mstore\n      swap3\n      swap1\n      swap3\n      keccak256\n        /* \"test.sol\":2990:3088  patientAccess[patientKey] = patientEnroll(patientName,patientEmail,patientMobile,patientPass,true) */\n      dup2\n      mload\n      dup1\n      mload\n        /* \"test.sol\":3018:3088  patientEnroll(patientName,patientEmail,patientMobile,patientPass,true) */\n      swap3\n      swap4\n        /* \"test.sol\":2990:3015  patientAccess[patientKey] */\n      swap2\n      swap3\n        /* \"test.sol\":2990:3088  patientAccess[patientKey] = patientEnroll(patientName,patientEmail,patientMobile,patientPass,true) */\n      tag_296\n      swap3\n        /* \"test.sol\":2990:3015  patientAccess[patientKey] */\n      dup5\n      swap3\n        /* \"test.sol\":2990:3088  patientAccess[patientKey] = patientEnroll(patientName,patientEmail,patientMobile,patientPass,true) */\n      add\n      swap1\n      tag_156\n      jump\t// in\n    tag_296:\n      pop\n      0x20\n      dup3\n      dup2\n      add\n      mload\n      dup1\n      mload\n      tag_297\n      swap3\n      0x01\n      dup6\n      add\n      swap3\n      add\n      swap1\n      tag_156\n      jump\t// in\n    tag_297:\n      pop\n      0x40\n      dup3\n      add\n      mload\n      dup1\n      mload\n      tag_298\n      swap2\n      0x02\n      dup5\n      add\n      swap2\n      0x20\n      swap1\n      swap2\n      add\n      swap1\n      tag_156\n      jump\t// in\n    tag_298:\n      pop\n      0x60\n      dup3\n      add\n      mload\n      dup1\n      mload\n      tag_299\n      swap2\n      0x03\n      dup5\n      add\n      swap2\n      0x20\n      swap1\n      swap2\n      add\n      swap1\n      tag_156\n      jump\t// in\n    tag_299:\n      pop\n      0x80\n      swap2\n      swap1\n      swap2\n      add\n      mload\n      0x04\n      swap1\n      swap2\n      add\n      dup1\n      sload\n      not(0xff)\n      and\n      swap2\n      iszero\n      iszero\n      swap2\n      swap1\n      swap2\n      or\n      swap1\n      sstore\n      pop\n        /* \"test.sol\":3102:3140  comments = \"Patient Registration Done\" */\n      0x40\n      dup1\n      mload\n      dup1\n      dup3\n      add\n      swap1\n      swap2\n      mstore\n      0x19\n      dup2\n      mstore\n      0x50617469656e7420526567697374726174696f6e20446f6e6500000000000000\n      0x20\n      dup3\n      add\n      mstore\n        /* \"test.sol\":2634:3151  if(reup == stateChange.REGISTER){... */\n    tag_287:\n        /* \"test.sol\":3171:3189  stateChange.UPDATE */\n      0x01\n        /* \"test.sol\":3163:3167  reup */\n      dup4\n        /* \"test.sol\":3163:3189  reup == stateChange.UPDATE */\n      0x01\n      dup2\n      gt\n      iszero\n      tag_301\n      jumpi\n      mstore(0x00, shl(0xe0, 0x4e487b71))\n      mstore(0x04, 0x21)\n      revert(0x00, 0x24)\n    tag_301:\n      eq\n        /* \"test.sol\":3160:3761  if(reup == stateChange.UPDATE){... */\n      iszero\n      tag_302\n      jumpi\n        /* \"test.sol\":3289:3301  patientEmail */\n      dup6\n        /* \"test.sol\":3273:3303  keccak256(bytes(patientEmail)) */\n      dup1\n      mload\n      swap1\n      0x20\n      add\n      keccak256\n        /* \"test.sol\":3229:3242  patientAccess */\n      0x00\n        /* \"test.sol\":3229:3254  patientAccess[patientKey] */\n      dup1\n        /* \"test.sol\":3243:3253  patientKey */\n      dup5\n        /* \"test.sol\":3229:3254  patientAccess[patientKey] */\n      dup2\n      mstore\n      0x20\n      add\n      swap1\n      dup2\n      mstore\n      0x20\n      add\n      0x00\n      keccak256\n        /* \"test.sol\":3229:3267  patientAccess[patientKey].patientEmail */\n      0x01\n      add\n        /* \"test.sol\":3213:3269  keccak256(bytes(patientAccess[patientKey].patientEmail)) */\n      mload(0x40)\n      tag_303\n      swap2\n      swap1\n      tag_153\n      jump\t// in\n    tag_303:\n      mload(0x40)\n      dup1\n      swap2\n      sub\n      swap1\n      keccak256\n        /* \"test.sol\":3213:3303  keccak256(bytes(patientAccess[patientKey].patientEmail)) == keccak256(bytes(patientEmail)) */\n      eq\n        /* \"test.sol\":3204:3344  require (keccak256(bytes(patientAccess[patientKey].patientEmail)) == keccak256(bytes(patientEmail)), \"EHR-RP-01: Patient already Enrolled.\") */\n      tag_304\n      jumpi\n      mload(0x40)\n      shl(0xe5, 0x461bcd)\n      dup2\n      mstore\n      0x04\n      add\n      tag_96\n      swap1\n      tag_291\n      jump\t// in\n    tag_304:\n        /* \"test.sol\":3444:3457  patientMobile */\n      dup5\n        /* \"test.sol\":3428:3459  keccak256(bytes(patientMobile)) */\n      dup1\n      mload\n      swap1\n      0x20\n      add\n      keccak256\n        /* \"test.sol\":3383:3396  patientAccess */\n      0x00\n        /* \"test.sol\":3383:3408  patientAccess[patientKey] */\n      dup1\n        /* \"test.sol\":3397:3407  patientKey */\n      dup5\n        /* \"test.sol\":3383:3408  patientAccess[patientKey] */\n      dup2\n      mstore\n      0x20\n      add\n      swap1\n      dup2\n      mstore\n      0x20\n      add\n      0x00\n      keccak256\n        /* \"test.sol\":3383:3422  patientAccess[patientKey].patientMobile */\n      0x02\n      add\n        /* \"test.sol\":3367:3424  keccak256(bytes(patientAccess[patientKey].patientMobile)) */\n      mload(0x40)\n      tag_306\n      swap2\n      swap1\n      tag_153\n      jump\t// in\n    tag_306:\n      mload(0x40)\n      dup1\n      swap2\n      sub\n      swap1\n      keccak256\n        /* \"test.sol\":3367:3459  keccak256(bytes(patientAccess[patientKey].patientMobile)) == keccak256(bytes(patientMobile)) */\n      eq\n        /* \"test.sol\":3358:3500  require (keccak256(bytes(patientAccess[patientKey].patientMobile)) == keccak256(bytes(patientMobile)), \"EHR-RP-02: Patient already Enrolled.\") */\n      tag_307\n      jumpi\n      mload(0x40)\n      shl(0xe5, 0x461bcd)\n      dup2\n      mstore\n      0x04\n      add\n      tag_96\n      swap1\n      tag_295\n      jump\t// in\n    tag_307:\n        /* \"test.sol\":3514:3527  patientAccess */\n      0x00\n        /* \"test.sol\":3514:3539  patientAccess[patientKey] */\n      dup3\n      dup2\n      mstore\n      0x20\n      dup2\n      dup2\n      mstore\n      0x40\n      swap1\n      swap2\n      keccak256\n        /* \"test.sol\":3514:3565  patientAccess[patientKey].patientName = patientName */\n      dup9\n      mload\n      tag_309\n      swap3\n      dup11\n      add\n      swap1\n      tag_156\n      jump\t// in\n    tag_309:\n      pop\n        /* \"test.sol\":3579:3592  patientAccess */\n      0x00\n        /* \"test.sol\":3579:3604  patientAccess[patientKey] */\n      dup3\n      dup2\n      mstore\n      0x20\n      dup2\n      dup2\n      mstore\n      0x40\n      swap1\n      swap2\n      keccak256\n        /* \"test.sol\":3579:3632  patientAccess[patientKey].patientEmail = patientEmail */\n      dup8\n      mload\n      tag_310\n      swap3\n        /* \"test.sol\":3579:3617  patientAccess[patientKey].patientEmail */\n      0x01\n      swap1\n      swap3\n      add\n      swap2\n        /* \"test.sol\":3579:3632  patientAccess[patientKey].patientEmail = patientEmail */\n      dup10\n      add\n      swap1\n      tag_156\n      jump\t// in\n    tag_310:\n      pop\n        /* \"test.sol\":3646:3659  patientAccess */\n      0x00\n        /* \"test.sol\":3646:3671  patientAccess[patientKey] */\n      dup3\n      dup2\n      mstore\n      0x20\n      dup2\n      dup2\n      mstore\n      0x40\n      swap1\n      swap2\n      keccak256\n        /* \"test.sol\":3646:3701  patientAccess[patientKey].patientMobile = patientMobile */\n      dup7\n      mload\n      tag_311\n      swap3\n        /* \"test.sol\":3646:3685  patientAccess[patientKey].patientMobile */\n      0x02\n      swap1\n      swap3\n      add\n      swap2\n        /* \"test.sol\":3646:3701  patientAccess[patientKey].patientMobile = patientMobile */\n      dup9\n      add\n      swap1\n      tag_156\n      jump\t// in\n    tag_311:\n      pop\n      pop\n        /* \"test.sol\":3715:3750  comments = \"Patient Record Updated\" */\n      0x40\n      dup1\n      mload\n      dup1\n      dup3\n      add\n      swap1\n      swap2\n      mstore\n      0x16\n      dup2\n      mstore\n      shl(0x52, 0x14185d1a595b9d08149958dbdc9908155c19185d1959)\n      0x20\n      dup3\n      add\n      mstore\n        /* \"test.sol\":3160:3761  if(reup == stateChange.UPDATE){... */\n    tag_302:\n      0x00\n      dup1\n      mload\n      0x20\n      data_f1783972c13bbde284b8765b8e27686842dfd940022613858bd0f693b0907129\n      dup4\n      codecopy\n      dup2\n      mload\n      swap2\n      mstore\n        /* \"test.sol\":3822:3832  patientKey */\n      dup3\n        /* \"test.sol\":3846:3854  comments */\n      dup3\n        /* \"test.sol\":3868:3883  block.timestamp */\n      timestamp\n        /* \"test.sol\":3793:3884  patregistration(... */\n      mload(0x40)\n      tag_281\n      swap4\n      swap3\n      swap2\n      swap1\n      tag_272\n      jump\t// in\n        /* \"test.sol\":1958:2007  mapping(uint => patientGeo) public patientLocData */\n    tag_91:\n      mstore(0x20, 0x02)\n      0x00\n      swap1\n      dup2\n      mstore\n      0x40\n      swap1\n      keccak256\n      dup1\n      sload\n      dup2\n      swap1\n      tag_313\n      swap1\n      tag_100\n      jump\t// in\n    tag_313:\n      dup1\n      0x1f\n      add\n      0x20\n      dup1\n      swap2\n      div\n      mul\n      0x20\n      add\n      mload(0x40)\n      swap1\n      dup2\n      add\n      0x40\n      mstore\n      dup1\n      swap3\n      swap2\n      swap1\n      dup2\n      dup2\n      mstore\n      0x20\n      add\n      dup3\n      dup1\n      sload\n      tag_314\n      swap1\n      tag_100\n      jump\t// in\n    tag_314:\n      dup1\n      iszero\n      tag_315\n      jumpi\n      dup1\n      0x1f\n      lt\n      tag_316\n      jumpi\n      0x0100\n      dup1\n      dup4\n      sload\n      div\n      mul\n      dup4\n      mstore\n      swap2\n      0x20\n      add\n      swap2\n      jump(tag_315)\n    tag_316:\n      dup3\n      add\n      swap2\n      swap1\n      0x00\n      mstore\n      keccak256(0x00, 0x20)\n      swap1\n    tag_317:\n      dup2\n      sload\n      dup2\n      mstore\n      swap1\n      0x01\n      add\n      swap1\n      0x20\n      add\n      dup1\n      dup4\n      gt\n      tag_317\n      jumpi\n      dup3\n      swap1\n      sub\n      0x1f\n      and\n      dup3\n      add\n      swap2\n    tag_315:\n      pop\n      pop\n      pop\n      pop\n      pop\n      swap1\n      dup1\n      0x01\n      add\n      dup1\n      sload\n      tag_318\n      swap1\n      tag_100\n      jump\t// in\n    tag_318:\n      dup1\n      0x1f\n      add\n      0x20\n      dup1\n      swap2\n      div\n      mul\n      0x20\n      add\n      mload(0x40)\n      swap1\n      dup2\n      add\n      0x40\n      mstore\n      dup1\n      swap3\n      swap2\n      swap1\n      dup2\n      dup2\n      mstore\n      0x20\n      add\n      dup3\n      dup1\n      sload\n      tag_319\n      swap1\n      tag_100\n      jump\t// in\n    tag_319:\n      dup1\n      iszero\n      tag_320\n      jumpi\n      dup1\n      0x1f\n      lt\n      tag_321\n      jumpi\n      0x0100\n      dup1\n      dup4\n      sload\n      div\n      mul\n      dup4\n      mstore\n      swap2\n      0x20\n      add\n      swap2\n      jump(tag_320)\n    tag_321:\n      dup3\n      add\n      swap2\n      swap1\n      0x00\n      mstore\n      keccak256(0x00, 0x20)\n      swap1\n    tag_322:\n      dup2\n      sload\n      dup2\n      mstore\n      swap1\n      0x01\n      add\n      swap1\n      0x20\n      add\n      dup1\n      dup4\n      gt\n      tag_322\n      jumpi\n      dup3\n      swap1\n      sub\n      0x1f\n      and\n      dup3\n      add\n      swap2\n    tag_320:\n      pop\n      pop\n      pop\n      pop\n      pop\n      swap1\n      dup1\n      0x02\n      add\n      dup1\n      sload\n      tag_323\n      swap1\n      tag_100\n      jump\t// in\n    tag_323:\n      dup1\n      0x1f\n      add\n      0x20\n      dup1\n      swap2\n      div\n      mul\n      0x20\n      add\n      mload(0x40)\n      swap1\n      dup2\n      add\n      0x40\n      mstore\n      dup1\n      swap3\n      swap2\n      swap1\n      dup2\n      dup2\n      mstore\n      0x20\n      add\n      dup3\n      dup1\n      sload\n      tag_324\n      swap1\n      tag_100\n      jump\t// in\n    tag_324:\n      dup1\n      iszero\n      tag_325\n      jumpi\n      dup1\n      0x1f\n      lt\n      tag_326\n      jumpi\n      0x0100\n      dup1\n      dup4\n      sload\n      div\n      mul\n      dup4\n      mstore\n      swap2\n      0x20\n      add\n      swap2\n      jump(tag_325)\n    tag_326:\n      dup3\n      add\n      swap2\n      swap1\n      0x00\n      mstore\n      keccak256(0x00, 0x20)\n      swap1\n    tag_327:\n      dup2\n      sload\n      dup2\n      mstore\n      swap1\n      0x01\n      add\n      swap1\n      0x20\n      add\n      dup1\n      dup4\n      gt\n      tag_327\n      jumpi\n      dup3\n      swap1\n      sub\n      0x1f\n      and\n      dup3\n      add\n      swap2\n    tag_325:\n      pop\n      pop\n      pop\n      pop\n      pop\n      swap1\n      dup1\n      0x03\n      add\n      dup1\n      sload\n      tag_328\n      swap1\n      tag_100\n      jump\t// in\n    tag_328:\n      dup1\n      0x1f\n      add\n      0x20\n      dup1\n      swap2\n      div\n      mul\n      0x20\n      add\n      mload(0x40)\n      swap1\n      dup2\n      add\n      0x40\n      mstore\n      dup1\n      swap3\n      swap2\n      swap1\n      dup2\n      dup2\n      mstore\n      0x20\n      add\n      dup3\n      dup1\n      sload\n      tag_329\n      swap1\n      tag_100\n      jump\t// in\n    tag_329:\n      dup1\n      iszero\n      tag_330\n      jumpi\n      dup1\n      0x1f\n      lt\n      tag_331\n      jumpi\n      0x0100\n      dup1\n      dup4\n      sload\n      div\n      mul\n      dup4\n      mstore\n      swap2\n      0x20\n      add\n      swap2\n      jump(tag_330)\n    tag_331:\n      dup3\n      add\n      swap2\n      swap1\n      0x00\n      mstore\n      keccak256(0x00, 0x20)\n      swap1\n    tag_332:\n      dup2\n      sload\n      dup2\n      mstore\n      swap1\n      0x01\n      add\n      swap1\n      0x20\n      add\n      dup1\n      dup4\n      gt\n      tag_332\n      jumpi\n      dup3\n      swap1\n      sub\n      0x1f\n      and\n      dup3\n      add\n      swap2\n    tag_330:\n      pop\n      pop\n      pop\n      pop\n      pop\n      swap1\n      dup1\n      0x04\n      add\n      sload\n      swap1\n      pop\n      dup6\n      jump\t// out\n    tag_156:\n      dup3\n      dup1\n      sload\n      tag_333\n      swap1\n      tag_100\n      jump\t// in\n    tag_333:\n      swap1\n      0x00\n      mstore\n      keccak256(0x00, 0x20)\n      swap1\n      0x1f\n      add\n      0x20\n      swap1\n      div\n      dup2\n      add\n      swap3\n      dup3\n      tag_335\n      jumpi\n      0x00\n      dup6\n      sstore\n      jump(tag_338)\n    tag_335:\n      dup3\n      0x1f\n      lt\n      tag_336\n      jumpi\n      dup1\n      mload\n      not(0xff)\n      and\n      dup4\n      dup1\n      add\n      or\n      dup6\n      sstore\n      jump(tag_338)\n    tag_336:\n      dup3\n      dup1\n      add\n      0x01\n      add\n      dup6\n      sstore\n      dup3\n      iszero\n      tag_338\n      jumpi\n      swap2\n      dup3\n      add\n    tag_337:\n      dup3\n      dup2\n      gt\n      iszero\n      tag_338\n      jumpi\n      dup3\n      mload\n      dup3\n      sstore\n      swap2\n      0x20\n      add\n      swap2\n      swap1\n      0x01\n      add\n      swap1\n      jump(tag_337)\n    tag_338:\n      pop\n      tag_339\n      swap3\n      swap2\n      pop\n      tag_340\n      jump\t// in\n    tag_339:\n      pop\n      swap1\n      jump\t// out\n    tag_340:\n    tag_341:\n      dup1\n      dup3\n      gt\n      iszero\n      tag_339\n      jumpi\n      0x00\n      dup2\n      sstore\n      0x01\n      add\n      jump(tag_341)\n        /* \"#utility.yul\":14:165   */\n    tag_344:\n        /* \"#utility.yul\":90:110   */\n      dup1\n      calldataload\n        /* \"#utility.yul\":139:140   */\n      0x05\n        /* \"#utility.yul\":129:141   */\n      dup2\n      lt\n        /* \"#utility.yul\":119:121   */\n      tag_346\n      jumpi\n        /* \"#utility.yul\":155:156   */\n      0x00\n        /* \"#utility.yul\":152:153   */\n      dup1\n        /* \"#utility.yul\":145:157   */\n      revert\n        /* \"#utility.yul\":119:121   */\n    tag_346:\n        /* \"#utility.yul\":71:165   */\n      swap2\n      swap1\n      pop\n      jump\t// out\n        /* \"#utility.yul\":170:314   */\n    tag_347:\n        /* \"#utility.yul\":239:259   */\n      dup1\n      calldataload\n        /* \"#utility.yul\":288:289   */\n      0x03\n        /* \"#utility.yul\":278:290   */\n      dup2\n      lt\n        /* \"#utility.yul\":268:270   */\n      tag_346\n      jumpi\n        /* \"#utility.yul\":304:305   */\n      0x00\n        /* \"#utility.yul\":301:302   */\n      dup1\n        /* \"#utility.yul\":294:306   */\n      revert\n        /* \"#utility.yul\":319:461   */\n    tag_350:\n        /* \"#utility.yul\":391:411   */\n      dup1\n      calldataload\n        /* \"#utility.yul\":420:455   */\n      tag_346\n        /* \"#utility.yul\":391:411   */\n      dup2\n        /* \"#utility.yul\":420:455   */\n      tag_353\n      jump\t// in\n        /* \"#utility.yul\":466:1205   */\n    tag_354:\n        /* \"#utility.yul\":509:514   */\n      0x00\n        /* \"#utility.yul\":562:565   */\n      dup3\n        /* \"#utility.yul\":555:559   */\n      0x1f\n        /* \"#utility.yul\":547:553   */\n      dup4\n        /* \"#utility.yul\":543:560   */\n      add\n        /* \"#utility.yul\":539:566   */\n      slt\n        /* \"#utility.yul\":529:531   */\n      tag_356\n      jumpi\n        /* \"#utility.yul\":584:589   */\n      dup1\n        /* \"#utility.yul\":577:582   */\n      dup2\n        /* \"#utility.yul\":570:590   */\n      revert\n        /* \"#utility.yul\":529:531   */\n    tag_356:\n        /* \"#utility.yul\":624:630   */\n      dup2\n        /* \"#utility.yul\":611:631   */\n      calldataload\n        /* \"#utility.yul\":650:668   */\n      0xffffffffffffffff\n        /* \"#utility.yul\":687:689   */\n      dup1\n        /* \"#utility.yul\":683:685   */\n      dup3\n        /* \"#utility.yul\":680:690   */\n      gt\n        /* \"#utility.yul\":677:679   */\n      iszero\n      tag_358\n      jumpi\n        /* \"#utility.yul\":693:711   */\n      tag_358\n      tag_359\n      jump\t// in\n    tag_358:\n        /* \"#utility.yul\":768:770   */\n      0x40\n        /* \"#utility.yul\":762:771   */\n      mload\n        /* \"#utility.yul\":736:738   */\n      0x1f\n        /* \"#utility.yul\":822:835   */\n      dup4\n      add\n      not(0x1f)\n        /* \"#utility.yul\":818:840   */\n      swap1\n      dup2\n      and\n        /* \"#utility.yul\":842:844   */\n      0x3f\n        /* \"#utility.yul\":814:845   */\n      add\n        /* \"#utility.yul\":810:850   */\n      and\n        /* \"#utility.yul\":798:851   */\n      dup2\n      add\n      swap1\n        /* \"#utility.yul\":866:884   */\n      dup3\n      dup3\n      gt\n        /* \"#utility.yul\":886:908   */\n      dup2\n      dup4\n      lt\n        /* \"#utility.yul\":863:909   */\n      or\n        /* \"#utility.yul\":860:862   */\n      iszero\n      tag_361\n      jumpi\n        /* \"#utility.yul\":912:930   */\n      tag_361\n      tag_359\n      jump\t// in\n    tag_361:\n        /* \"#utility.yul\":952:962   */\n      dup2\n        /* \"#utility.yul\":948:950   */\n      0x40\n        /* \"#utility.yul\":941:963   */\n      mstore\n        /* \"#utility.yul\":987:989   */\n      dup4\n        /* \"#utility.yul\":979:985   */\n      dup2\n        /* \"#utility.yul\":972:990   */\n      mstore\n        /* \"#utility.yul\":1033:1036   */\n      dup7\n        /* \"#utility.yul\":1026:1030   */\n      0x20\n        /* \"#utility.yul\":1021:1023   */\n      dup6\n        /* \"#utility.yul\":1013:1019   */\n      dup9\n        /* \"#utility.yul\":1009:1024   */\n      add\n        /* \"#utility.yul\":1005:1031   */\n      add\n        /* \"#utility.yul\":1002:1037   */\n      gt\n        /* \"#utility.yul\":999:1001   */\n      iszero\n      tag_362\n      jumpi\n        /* \"#utility.yul\":1054:1059   */\n      dup5\n        /* \"#utility.yul\":1047:1052   */\n      dup6\n        /* \"#utility.yul\":1040:1060   */\n      revert\n        /* \"#utility.yul\":999:1001   */\n    tag_362:\n        /* \"#utility.yul\":1122:1124   */\n      dup4\n        /* \"#utility.yul\":1115:1119   */\n      0x20\n        /* \"#utility.yul\":1107:1113   */\n      dup8\n        /* \"#utility.yul\":1103:1120   */\n      add\n        /* \"#utility.yul\":1096:1100   */\n      0x20\n        /* \"#utility.yul\":1088:1094   */\n      dup4\n        /* \"#utility.yul\":1084:1101   */\n      add\n        /* \"#utility.yul\":1071:1125   */\n      calldatacopy\n        /* \"#utility.yul\":1145:1160   */\n      swap3\n      dup4\n      add\n        /* \"#utility.yul\":1162:1166   */\n      0x20\n        /* \"#utility.yul\":1141:1167   */\n      add\n        /* \"#utility.yul\":1134:1175   */\n      swap4\n      swap1\n      swap4\n      mstore\n      pop\n        /* \"#utility.yul\":1149:1155   */\n      swap4\n        /* \"#utility.yul\":519:1205   */\n      swap3\n      pop\n      pop\n      pop\n      jump\t// out\n        /* \"#utility.yul\":1210:2357   */\n    tag_82:\n        /* \"#utility.yul\":1358:1364   */\n      0x00\n        /* \"#utility.yul\":1366:1372   */\n      dup1\n        /* \"#utility.yul\":1374:1380   */\n      0x00\n        /* \"#utility.yul\":1382:1388   */\n      dup1\n        /* \"#utility.yul\":1390:1396   */\n      0x00\n        /* \"#utility.yul\":1443:1446   */\n      0xa0\n        /* \"#utility.yul\":1431:1440   */\n      dup7\n        /* \"#utility.yul\":1422:1429   */\n      dup9\n        /* \"#utility.yul\":1418:1441   */\n      sub\n        /* \"#utility.yul\":1414:1447   */\n      slt\n        /* \"#utility.yul\":1411:1413   */\n      iszero\n      tag_364\n      jumpi\n        /* \"#utility.yul\":1465:1471   */\n      dup1\n        /* \"#utility.yul\":1457:1463   */\n      dup2\n        /* \"#utility.yul\":1450:1472   */\n      revert\n        /* \"#utility.yul\":1411:1413   */\n    tag_364:\n        /* \"#utility.yul\":1510:1519   */\n      dup6\n        /* \"#utility.yul\":1497:1520   */\n      calldataload\n        /* \"#utility.yul\":1539:1557   */\n      0xffffffffffffffff\n        /* \"#utility.yul\":1580:1582   */\n      dup1\n        /* \"#utility.yul\":1572:1578   */\n      dup3\n        /* \"#utility.yul\":1569:1583   */\n      gt\n        /* \"#utility.yul\":1566:1568   */\n      iszero\n      tag_365\n      jumpi\n        /* \"#utility.yul\":1601:1607   */\n      dup3\n        /* \"#utility.yul\":1593:1599   */\n      dup4\n        /* \"#utility.yul\":1586:1608   */\n      revert\n        /* \"#utility.yul\":1566:1568   */\n    tag_365:\n        /* \"#utility.yul\":1629:1679   */\n      tag_366\n        /* \"#utility.yul\":1671:1678   */\n      dup10\n        /* \"#utility.yul\":1662:1668   */\n      dup4\n        /* \"#utility.yul\":1651:1660   */\n      dup11\n        /* \"#utility.yul\":1647:1669   */\n      add\n        /* \"#utility.yul\":1629:1679   */\n      tag_354\n      jump\t// in\n    tag_366:\n        /* \"#utility.yul\":1619:1679   */\n      swap7\n      pop\n        /* \"#utility.yul\":1732:1734   */\n      0x20\n        /* \"#utility.yul\":1721:1730   */\n      dup9\n        /* \"#utility.yul\":1717:1735   */\n      add\n        /* \"#utility.yul\":1704:1736   */\n      calldataload\n        /* \"#utility.yul\":1688:1736   */\n      swap2\n      pop\n        /* \"#utility.yul\":1761:1763   */\n      dup1\n        /* \"#utility.yul\":1751:1759   */\n      dup3\n        /* \"#utility.yul\":1748:1764   */\n      gt\n        /* \"#utility.yul\":1745:1747   */\n      iszero\n      tag_367\n      jumpi\n        /* \"#utility.yul\":1782:1788   */\n      dup3\n        /* \"#utility.yul\":1774:1780   */\n      dup4\n        /* \"#utility.yul\":1767:1789   */\n      revert\n        /* \"#utility.yul\":1745:1747   */\n    tag_367:\n        /* \"#utility.yul\":1810:1862   */\n      tag_368\n        /* \"#utility.yul\":1854:1861   */\n      dup10\n        /* \"#utility.yul\":1843:1851   */\n      dup4\n        /* \"#utility.yul\":1832:1841   */\n      dup11\n        /* \"#utility.yul\":1828:1852   */\n      add\n        /* \"#utility.yul\":1810:1862   */\n      tag_354\n      jump\t// in\n    tag_368:\n        /* \"#utility.yul\":1800:1862   */\n      swap6\n      pop\n        /* \"#utility.yul\":1915:1917   */\n      0x40\n        /* \"#utility.yul\":1904:1913   */\n      dup9\n        /* \"#utility.yul\":1900:1918   */\n      add\n        /* \"#utility.yul\":1887:1919   */\n      calldataload\n        /* \"#utility.yul\":1871:1919   */\n      swap2\n      pop\n        /* \"#utility.yul\":1944:1946   */\n      dup1\n        /* \"#utility.yul\":1934:1942   */\n      dup3\n        /* \"#utility.yul\":1931:1947   */\n      gt\n        /* \"#utility.yul\":1928:1930   */\n      iszero\n      tag_369\n      jumpi\n        /* \"#utility.yul\":1965:1971   */\n      dup3\n        /* \"#utility.yul\":1957:1963   */\n      dup4\n        /* \"#utility.yul\":1950:1972   */\n      revert\n        /* \"#utility.yul\":1928:1930   */\n    tag_369:\n        /* \"#utility.yul\":1993:2045   */\n      tag_370\n        /* \"#utility.yul\":2037:2044   */\n      dup10\n        /* \"#utility.yul\":2026:2034   */\n      dup4\n        /* \"#utility.yul\":2015:2024   */\n      dup11\n        /* \"#utility.yul\":2011:2035   */\n      add\n        /* \"#utility.yul\":1993:2045   */\n      tag_354\n      jump\t// in\n    tag_370:\n        /* \"#utility.yul\":1983:2045   */\n      swap5\n      pop\n        /* \"#utility.yul\":2098:2100   */\n      0x60\n        /* \"#utility.yul\":2087:2096   */\n      dup9\n        /* \"#utility.yul\":2083:2101   */\n      add\n        /* \"#utility.yul\":2070:2102   */\n      calldataload\n        /* \"#utility.yul\":2054:2102   */\n      swap2\n      pop\n        /* \"#utility.yul\":2127:2129   */\n      dup1\n        /* \"#utility.yul\":2117:2125   */\n      dup3\n        /* \"#utility.yul\":2114:2130   */\n      gt\n        /* \"#utility.yul\":2111:2113   */\n      iszero\n      tag_371\n      jumpi\n        /* \"#utility.yul\":2148:2154   */\n      dup3\n        /* \"#utility.yul\":2140:2146   */\n      dup4\n        /* \"#utility.yul\":2133:2155   */\n      revert\n        /* \"#utility.yul\":2111:2113   */\n    tag_371:\n      pop\n        /* \"#utility.yul\":2176:2228   */\n      tag_372\n        /* \"#utility.yul\":2220:2227   */\n      dup9\n        /* \"#utility.yul\":2209:2217   */\n      dup3\n        /* \"#utility.yul\":2198:2207   */\n      dup10\n        /* \"#utility.yul\":2194:2218   */\n      add\n        /* \"#utility.yul\":2176:2228   */\n      tag_354\n      jump\t// in\n    tag_372:\n        /* \"#utility.yul\":2166:2228   */\n      swap3\n      pop\n      pop\n        /* \"#utility.yul\":2278:2281   */\n      0x80\n        /* \"#utility.yul\":2267:2276   */\n      dup7\n        /* \"#utility.yul\":2263:2282   */\n      add\n        /* \"#utility.yul\":2250:2283   */\n      calldataload\n        /* \"#utility.yul\":2292:2327   */\n      tag_373\n        /* \"#utility.yul\":2321:2326   */\n      dup2\n        /* \"#utility.yul\":2292:2327   */\n      tag_353\n      jump\t// in\n    tag_373:\n        /* \"#utility.yul\":2346:2351   */\n      dup1\n        /* \"#utility.yul\":2336:2351   */\n      swap2\n      pop\n      pop\n        /* \"#utility.yul\":1401:2357   */\n      swap3\n      swap6\n      pop\n      swap3\n      swap6\n      swap1\n      swap4\n      pop\n      jump\t// out\n        /* \"#utility.yul\":2362:3837   */\n    tag_74:\n        /* \"#utility.yul\":2566:2572   */\n      0x00\n        /* \"#utility.yul\":2574:2580   */\n      dup1\n        /* \"#utility.yul\":2582:2588   */\n      0x00\n        /* \"#utility.yul\":2590:2596   */\n      dup1\n        /* \"#utility.yul\":2598:2604   */\n      0x00\n        /* \"#utility.yul\":2606:2612   */\n      dup1\n        /* \"#utility.yul\":2614:2620   */\n      0x00\n        /* \"#utility.yul\":2622:2628   */\n      dup1\n        /* \"#utility.yul\":2675:2678   */\n      0x0100\n        /* \"#utility.yul\":2663:2672   */\n      dup10\n        /* \"#utility.yul\":2654:2661   */\n      dup12\n        /* \"#utility.yul\":2650:2673   */\n      sub\n        /* \"#utility.yul\":2646:2679   */\n      slt\n        /* \"#utility.yul\":2643:2645   */\n      iszero\n      tag_375\n      jumpi\n        /* \"#utility.yul\":2697:2703   */\n      dup3\n        /* \"#utility.yul\":2689:2695   */\n      dup4\n        /* \"#utility.yul\":2682:2704   */\n      revert\n        /* \"#utility.yul\":2643:2645   */\n    tag_375:\n        /* \"#utility.yul\":2742:2751   */\n      dup9\n        /* \"#utility.yul\":2729:2752   */\n      calldataload\n        /* \"#utility.yul\":2771:2789   */\n      0xffffffffffffffff\n        /* \"#utility.yul\":2812:2814   */\n      dup1\n        /* \"#utility.yul\":2804:2810   */\n      dup3\n        /* \"#utility.yul\":2801:2815   */\n      gt\n        /* \"#utility.yul\":2798:2800   */\n      iszero\n      tag_376\n      jumpi\n        /* \"#utility.yul\":2833:2839   */\n      dup5\n        /* \"#utility.yul\":2825:2831   */\n      dup6\n        /* \"#utility.yul\":2818:2840   */\n      revert\n        /* \"#utility.yul\":2798:2800   */\n    tag_376:\n        /* \"#utility.yul\":2861:2911   */\n      tag_377\n        /* \"#utility.yul\":2903:2910   */\n      dup13\n        /* \"#utility.yul\":2894:2900   */\n      dup4\n        /* \"#utility.yul\":2883:2892   */\n      dup14\n        /* \"#utility.yul\":2879:2901   */\n      add\n        /* \"#utility.yul\":2861:2911   */\n      tag_354\n      jump\t// in\n    tag_377:\n        /* \"#utility.yul\":2851:2911   */\n      swap10\n      pop\n        /* \"#utility.yul\":2964:2966   */\n      0x20\n        /* \"#utility.yul\":2953:2962   */\n      dup12\n        /* \"#utility.yul\":2949:2967   */\n      add\n        /* \"#utility.yul\":2936:2968   */\n      calldataload\n        /* \"#utility.yul\":2920:2968   */\n      swap2\n      pop\n        /* \"#utility.yul\":2993:2995   */\n      dup1\n        /* \"#utility.yul\":2983:2991   */\n      dup3\n        /* \"#utility.yul\":2980:2996   */\n      gt\n        /* \"#utility.yul\":2977:2979   */\n      iszero\n      tag_378\n      jumpi\n        /* \"#utility.yul\":3014:3020   */\n      dup5\n        /* \"#utility.yul\":3006:3012   */\n      dup6\n        /* \"#utility.yul\":2999:3021   */\n      revert\n        /* \"#utility.yul\":2977:2979   */\n    tag_378:\n        /* \"#utility.yul\":3042:3094   */\n      tag_379\n        /* \"#utility.yul\":3086:3093   */\n      dup13\n        /* \"#utility.yul\":3075:3083   */\n      dup4\n        /* \"#utility.yul\":3064:3073   */\n      dup14\n        /* \"#utility.yul\":3060:3084   */\n      add\n        /* \"#utility.yul\":3042:3094   */\n      tag_354\n      jump\t// in\n    tag_379:\n        /* \"#utility.yul\":3032:3094   */\n      swap9\n      pop\n        /* \"#utility.yul\":3147:3149   */\n      0x40\n        /* \"#utility.yul\":3136:3145   */\n      dup12\n        /* \"#utility.yul\":3132:3150   */\n      add\n        /* \"#utility.yul\":3119:3151   */\n      calldataload\n        /* \"#utility.yul\":3103:3151   */\n      swap2\n      pop\n        /* \"#utility.yul\":3176:3178   */\n      dup1\n        /* \"#utility.yul\":3166:3174   */\n      dup3\n        /* \"#utility.yul\":3163:3179   */\n      gt\n        /* \"#utility.yul\":3160:3162   */\n      iszero\n      tag_380\n      jumpi\n        /* \"#utility.yul\":3197:3203   */\n      dup5\n        /* \"#utility.yul\":3189:3195   */\n      dup6\n        /* \"#utility.yul\":3182:3204   */\n      revert\n        /* \"#utility.yul\":3160:3162   */\n    tag_380:\n        /* \"#utility.yul\":3225:3277   */\n      tag_381\n        /* \"#utility.yul\":3269:3276   */\n      dup13\n        /* \"#utility.yul\":3258:3266   */\n      dup4\n        /* \"#utility.yul\":3247:3256   */\n      dup14\n        /* \"#utility.yul\":3243:3267   */\n      add\n        /* \"#utility.yul\":3225:3277   */\n      tag_354\n      jump\t// in\n    tag_381:\n        /* \"#utility.yul\":3215:3277   */\n      swap8\n      pop\n        /* \"#utility.yul\":3330:3332   */\n      0x60\n        /* \"#utility.yul\":3319:3328   */\n      dup12\n        /* \"#utility.yul\":3315:3333   */\n      add\n        /* \"#utility.yul\":3302:3334   */\n      calldataload\n        /* \"#utility.yul\":3286:3334   */\n      swap2\n      pop\n        /* \"#utility.yul\":3359:3361   */\n      dup1\n        /* \"#utility.yul\":3349:3357   */\n      dup3\n        /* \"#utility.yul\":3346:3362   */\n      gt\n        /* \"#utility.yul\":3343:3345   */\n      iszero\n      tag_382\n      jumpi\n        /* \"#utility.yul\":3380:3386   */\n      dup5\n        /* \"#utility.yul\":3372:3378   */\n      dup6\n        /* \"#utility.yul\":3365:3387   */\n      revert\n        /* \"#utility.yul\":3343:3345   */\n    tag_382:\n        /* \"#utility.yul\":3408:3460   */\n      tag_383\n        /* \"#utility.yul\":3452:3459   */\n      dup13\n        /* \"#utility.yul\":3441:3449   */\n      dup4\n        /* \"#utility.yul\":3430:3439   */\n      dup14\n        /* \"#utility.yul\":3426:3450   */\n      add\n        /* \"#utility.yul\":3408:3460   */\n      tag_354\n      jump\t// in\n    tag_383:\n        /* \"#utility.yul\":3398:3460   */\n      swap7\n      pop\n        /* \"#utility.yul\":3513:3516   */\n      0x80\n        /* \"#utility.yul\":3502:3511   */\n      dup12\n        /* \"#utility.yul\":3498:3517   */\n      add\n        /* \"#utility.yul\":3485:3518   */\n      calldataload\n        /* \"#utility.yul\":3469:3518   */\n      swap2\n      pop\n        /* \"#utility.yul\":3543:3545   */\n      dup1\n        /* \"#utility.yul\":3533:3541   */\n      dup3\n        /* \"#utility.yul\":3530:3546   */\n      gt\n        /* \"#utility.yul\":3527:3529   */\n      iszero\n      tag_384\n      jumpi\n        /* \"#utility.yul\":3564:3570   */\n      dup5\n        /* \"#utility.yul\":3556:3562   */\n      dup6\n        /* \"#utility.yul\":3549:3571   */\n      revert\n        /* \"#utility.yul\":3527:3529   */\n    tag_384:\n      pop\n        /* \"#utility.yul\":3592:3644   */\n      tag_385\n        /* \"#utility.yul\":3636:3643   */\n      dup12\n        /* \"#utility.yul\":3625:3633   */\n      dup3\n        /* \"#utility.yul\":3614:3623   */\n      dup13\n        /* \"#utility.yul\":3610:3634   */\n      add\n        /* \"#utility.yul\":3592:3644   */\n      tag_354\n      jump\t// in\n    tag_385:\n        /* \"#utility.yul\":3582:3644   */\n      swap5\n      pop\n      pop\n        /* \"#utility.yul\":3663:3710   */\n      tag_386\n        /* \"#utility.yul\":3705:3708   */\n      0xa0\n        /* \"#utility.yul\":3694:3703   */\n      dup11\n        /* \"#utility.yul\":3690:3709   */\n      add\n        /* \"#utility.yul\":3663:3710   */\n      tag_344\n      jump\t// in\n    tag_386:\n        /* \"#utility.yul\":3653:3710   */\n      swap3\n      pop\n        /* \"#utility.yul\":3729:3769   */\n      tag_387\n        /* \"#utility.yul\":3764:3767   */\n      0xc0\n        /* \"#utility.yul\":3753:3762   */\n      dup11\n        /* \"#utility.yul\":3749:3768   */\n      add\n        /* \"#utility.yul\":3729:3769   */\n      tag_347\n      jump\t// in\n    tag_387:\n        /* \"#utility.yul\":3719:3769   */\n      swap2\n      pop\n        /* \"#utility.yul\":3788:3831   */\n      tag_388\n        /* \"#utility.yul\":3826:3829   */\n      0xe0\n        /* \"#utility.yul\":3815:3824   */\n      dup11\n        /* \"#utility.yul\":3811:3830   */\n      add\n        /* \"#utility.yul\":3788:3831   */\n      tag_350\n      jump\t// in\n    tag_388:\n        /* \"#utility.yul\":3778:3831   */\n      swap1\n      pop\n        /* \"#utility.yul\":2633:3837   */\n      swap3\n      swap6\n      swap9\n      pop\n      swap3\n      swap6\n      swap9\n      swap1\n      swap4\n      swap7\n      pop\n      jump\t// out\n        /* \"#utility.yul\":3842:4974   */\n    tag_78:\n        /* \"#utility.yul\":3986:3992   */\n      0x00\n        /* \"#utility.yul\":3994:4000   */\n      dup1\n        /* \"#utility.yul\":4002:4008   */\n      0x00\n        /* \"#utility.yul\":4010:4016   */\n      dup1\n        /* \"#utility.yul\":4018:4024   */\n      0x00\n        /* \"#utility.yul\":4026:4032   */\n      dup1\n        /* \"#utility.yul\":4079:4082   */\n      0xc0\n        /* \"#utility.yul\":4067:4076   */\n      dup8\n        /* \"#utility.yul\":4058:4065   */\n      dup10\n        /* \"#utility.yul\":4054:4077   */\n      sub\n        /* \"#utility.yul\":4050:4083   */\n      slt\n        /* \"#utility.yul\":4047:4049   */\n      iszero\n      tag_390\n      jumpi\n        /* \"#utility.yul\":4101:4107   */\n      dup2\n        /* \"#utility.yul\":4093:4099   */\n      dup3\n        /* \"#utility.yul\":4086:4108   */\n      revert\n        /* \"#utility.yul\":4047:4049   */\n    tag_390:\n        /* \"#utility.yul\":4146:4155   */\n      dup7\n        /* \"#utility.yul\":4133:4156   */\n      calldataload\n        /* \"#utility.yul\":4175:4193   */\n      0xffffffffffffffff\n        /* \"#utility.yul\":4216:4218   */\n      dup1\n        /* \"#utility.yul\":4208:4214   */\n      dup3\n        /* \"#utility.yul\":4205:4219   */\n      gt\n        /* \"#utility.yul\":4202:4204   */\n      iszero\n      tag_391\n      jumpi\n        /* \"#utility.yul\":4237:4243   */\n      dup4\n        /* \"#utility.yul\":4229:4235   */\n      dup5\n        /* \"#utility.yul\":4222:4244   */\n      revert\n        /* \"#utility.yul\":4202:4204   */\n    tag_391:\n        /* \"#utility.yul\":4265:4315   */\n      tag_392\n        /* \"#utility.yul\":4307:4314   */\n      dup11\n        /* \"#utility.yul\":4298:4304   */\n      dup4\n        /* \"#utility.yul\":4287:4296   */\n      dup12\n        /* \"#utility.yul\":4283:4305   */\n      add\n        /* \"#utility.yul\":4265:4315   */\n      tag_354\n      jump\t// in\n    tag_392:\n        /* \"#utility.yul\":4255:4315   */\n      swap8\n      pop\n        /* \"#utility.yul\":4368:4370   */\n      0x20\n        /* \"#utility.yul\":4357:4366   */\n      dup10\n        /* \"#utility.yul\":4353:4371   */\n      add\n        /* \"#utility.yul\":4340:4372   */\n      calldataload\n        /* \"#utility.yul\":4324:4372   */\n      swap2\n      pop\n        /* \"#utility.yul\":4397:4399   */\n      dup1\n        /* \"#utility.yul\":4387:4395   */\n      dup3\n        /* \"#utility.yul\":4384:4400   */\n      gt\n        /* \"#utility.yul\":4381:4383   */\n      iszero\n      tag_393\n      jumpi\n        /* \"#utility.yul\":4418:4424   */\n      dup4\n        /* \"#utility.yul\":4410:4416   */\n      dup5\n        /* \"#utility.yul\":4403:4425   */\n      revert\n        /* \"#utility.yul\":4381:4383   */\n    tag_393:\n        /* \"#utility.yul\":4446:4498   */\n      tag_394\n        /* \"#utility.yul\":4490:4497   */\n      dup11\n        /* \"#utility.yul\":4479:4487   */\n      dup4\n        /* \"#utility.yul\":4468:4477   */\n      dup12\n        /* \"#utility.yul\":4464:4488   */\n      add\n        /* \"#utility.yul\":4446:4498   */\n      tag_354\n      jump\t// in\n    tag_394:\n        /* \"#utility.yul\":4436:4498   */\n      swap7\n      pop\n        /* \"#utility.yul\":4551:4553   */\n      0x40\n        /* \"#utility.yul\":4540:4549   */\n      dup10\n        /* \"#utility.yul\":4536:4554   */\n      add\n        /* \"#utility.yul\":4523:4555   */\n      calldataload\n        /* \"#utility.yul\":4507:4555   */\n      swap2\n      pop\n        /* \"#utility.yul\":4580:4582   */\n      dup1\n        /* \"#utility.yul\":4570:4578   */\n      dup3\n        /* \"#utility.yul\":4567:4583   */\n      gt\n        /* \"#utility.yul\":4564:4566   */\n      iszero\n      tag_395\n      jumpi\n        /* \"#utility.yul\":4601:4607   */\n      dup4\n        /* \"#utility.yul\":4593:4599   */\n      dup5\n        /* \"#utility.yul\":4586:4608   */\n      revert\n        /* \"#utility.yul\":4564:4566   */\n    tag_395:\n        /* \"#utility.yul\":4629:4681   */\n      tag_396\n        /* \"#utility.yul\":4673:4680   */\n      dup11\n        /* \"#utility.yul\":4662:4670   */\n      dup4\n        /* \"#utility.yul\":4651:4660   */\n      dup12\n        /* \"#utility.yul\":4647:4671   */\n      add\n        /* \"#utility.yul\":4629:4681   */\n      tag_354\n      jump\t// in\n    tag_396:\n        /* \"#utility.yul\":4619:4681   */\n      swap6\n      pop\n        /* \"#utility.yul\":4734:4736   */\n      0x60\n        /* \"#utility.yul\":4723:4732   */\n      dup10\n        /* \"#utility.yul\":4719:4737   */\n      add\n        /* \"#utility.yul\":4706:4738   */\n      calldataload\n        /* \"#utility.yul\":4690:4738   */\n      swap2\n      pop\n        /* \"#utility.yul\":4763:4765   */\n      dup1\n        /* \"#utility.yul\":4753:4761   */\n      dup3\n        /* \"#utility.yul\":4750:4766   */\n      gt\n        /* \"#utility.yul\":4747:4749   */\n      iszero\n      tag_397\n      jumpi\n        /* \"#utility.yul\":4784:4790   */\n      dup4\n        /* \"#utility.yul\":4776:4782   */\n      dup5\n        /* \"#utility.yul\":4769:4791   */\n      revert\n        /* \"#utility.yul\":4747:4749   */\n    tag_397:\n      pop\n        /* \"#utility.yul\":4812:4864   */\n      tag_398\n        /* \"#utility.yul\":4856:4863   */\n      dup10\n        /* \"#utility.yul\":4845:4853   */\n      dup3\n        /* \"#utility.yul\":4834:4843   */\n      dup11\n        /* \"#utility.yul\":4830:4854   */\n      add\n        /* \"#utility.yul\":4812:4864   */\n      tag_354\n      jump\t// in\n    tag_398:\n        /* \"#utility.yul\":4802:4864   */\n      swap4\n      pop\n      pop\n        /* \"#utility.yul\":4911:4914   */\n      0x80\n        /* \"#utility.yul\":4900:4909   */\n      dup8\n        /* \"#utility.yul\":4896:4915   */\n      add\n        /* \"#utility.yul\":4883:4916   */\n      calldataload\n        /* \"#utility.yul\":4873:4916   */\n      swap2\n      pop\n        /* \"#utility.yul\":4963:4966   */\n      0xa0\n        /* \"#utility.yul\":4952:4961   */\n      dup8\n        /* \"#utility.yul\":4948:4967   */\n      add\n        /* \"#utility.yul\":4935:4968   */\n      calldataload\n        /* \"#utility.yul\":4925:4968   */\n      swap1\n      pop\n        /* \"#utility.yul\":4037:4974   */\n      swap3\n      swap6\n      pop\n      swap3\n      swap6\n      pop\n      swap3\n      swap6\n      jump\t// out\n        /* \"#utility.yul\":4979:5758   */\n    tag_70:\n        /* \"#utility.yul\":5094:5100   */\n      0x00\n        /* \"#utility.yul\":5102:5108   */\n      dup1\n        /* \"#utility.yul\":5110:5116   */\n      0x00\n        /* \"#utility.yul\":5118:5124   */\n      dup1\n        /* \"#utility.yul\":5126:5132   */\n      0x00\n        /* \"#utility.yul\":5179:5182   */\n      0xa0\n        /* \"#utility.yul\":5167:5176   */\n      dup7\n        /* \"#utility.yul\":5158:5165   */\n      dup9\n        /* \"#utility.yul\":5154:5177   */\n      sub\n        /* \"#utility.yul\":5150:5183   */\n      slt\n        /* \"#utility.yul\":5147:5149   */\n      iszero\n      tag_400\n      jumpi\n        /* \"#utility.yul\":5201:5207   */\n      dup1\n        /* \"#utility.yul\":5193:5199   */\n      dup2\n        /* \"#utility.yul\":5186:5208   */\n      revert\n        /* \"#utility.yul\":5147:5149   */\n    tag_400:\n        /* \"#utility.yul\":5246:5255   */\n      dup6\n        /* \"#utility.yul\":5233:5256   */\n      calldataload\n        /* \"#utility.yul\":5275:5293   */\n      0xffffffffffffffff\n        /* \"#utility.yul\":5316:5318   */\n      dup1\n        /* \"#utility.yul\":5308:5314   */\n      dup3\n        /* \"#utility.yul\":5305:5319   */\n      gt\n        /* \"#utility.yul\":5302:5304   */\n      iszero\n      tag_401\n      jumpi\n        /* \"#utility.yul\":5337:5343   */\n      dup3\n        /* \"#utility.yul\":5329:5335   */\n      dup4\n        /* \"#utility.yul\":5322:5344   */\n      revert\n        /* \"#utility.yul\":5302:5304   */\n    tag_401:\n        /* \"#utility.yul\":5365:5415   */\n      tag_402\n        /* \"#utility.yul\":5407:5414   */\n      dup10\n        /* \"#utility.yul\":5398:5404   */\n      dup4\n        /* \"#utility.yul\":5387:5396   */\n      dup11\n        /* \"#utility.yul\":5383:5405   */\n      add\n        /* \"#utility.yul\":5365:5415   */\n      tag_354\n      jump\t// in\n    tag_402:\n        /* \"#utility.yul\":5355:5415   */\n      swap7\n      pop\n        /* \"#utility.yul\":5468:5470   */\n      0x20\n        /* \"#utility.yul\":5457:5466   */\n      dup9\n        /* \"#utility.yul\":5453:5471   */\n      add\n        /* \"#utility.yul\":5440:5472   */\n      calldataload\n        /* \"#utility.yul\":5424:5472   */\n      swap2\n      pop\n        /* \"#utility.yul\":5497:5499   */\n      dup1\n        /* \"#utility.yul\":5487:5495   */\n      dup3\n        /* \"#utility.yul\":5484:5500   */\n      gt\n        /* \"#utility.yul\":5481:5483   */\n      iszero\n      tag_403\n      jumpi\n        /* \"#utility.yul\":5518:5524   */\n      dup3\n        /* \"#utility.yul\":5510:5516   */\n      dup4\n        /* \"#utility.yul\":5503:5525   */\n      revert\n        /* \"#utility.yul\":5481:5483   */\n    tag_403:\n      pop\n        /* \"#utility.yul\":5546:5598   */\n      tag_404\n        /* \"#utility.yul\":5590:5597   */\n      dup9\n        /* \"#utility.yul\":5579:5587   */\n      dup3\n        /* \"#utility.yul\":5568:5577   */\n      dup10\n        /* \"#utility.yul\":5564:5588   */\n      add\n        /* \"#utility.yul\":5546:5598   */\n      tag_354\n      jump\t// in\n    tag_404:\n        /* \"#utility.yul\":5137:5758   */\n      swap6\n      swap9\n        /* \"#utility.yul\":5536:5598   */\n      swap6\n      swap8\n      pop\n      pop\n      pop\n      pop\n        /* \"#utility.yul\":5645:5647   */\n      0x40\n        /* \"#utility.yul\":5630:5648   */\n      dup5\n      add\n        /* \"#utility.yul\":5617:5649   */\n      calldataload\n      swap4\n        /* \"#utility.yul\":5696:5698   */\n      0x60\n        /* \"#utility.yul\":5681:5699   */\n      dup2\n      add\n        /* \"#utility.yul\":5668:5700   */\n      calldataload\n      swap4\n        /* \"#utility.yul\":5747:5750   */\n      0x80\n        /* \"#utility.yul\":5732:5751   */\n      swap1\n      swap2\n      add\n        /* \"#utility.yul\":5719:5752   */\n      calldataload\n      swap3\n      pop\n        /* \"#utility.yul\":5137:5758   */\n      swap1\n      pop\n      jump\t// out\n        /* \"#utility.yul\":5763:5953   */\n    tag_28:\n        /* \"#utility.yul\":5822:5828   */\n      0x00\n        /* \"#utility.yul\":5875:5877   */\n      0x20\n        /* \"#utility.yul\":5863:5872   */\n      dup3\n        /* \"#utility.yul\":5854:5861   */\n      dup5\n        /* \"#utility.yul\":5850:5873   */\n      sub\n        /* \"#utility.yul\":5846:5878   */\n      slt\n        /* \"#utility.yul\":5843:5845   */\n      iszero\n      tag_406\n      jumpi\n        /* \"#utility.yul\":5896:5902   */\n      dup1\n        /* \"#utility.yul\":5888:5894   */\n      dup2\n        /* \"#utility.yul\":5881:5903   */\n      revert\n        /* \"#utility.yul\":5843:5845   */\n    tag_406:\n      pop\n        /* \"#utility.yul\":5924:5947   */\n      calldataload\n      swap2\n        /* \"#utility.yul\":5833:5953   */\n      swap1\n      pop\n      jump\t// out\n        /* \"#utility.yul\":5958:6810   */\n    tag_39:\n        /* \"#utility.yul\":6074:6080   */\n      0x00\n        /* \"#utility.yul\":6082:6088   */\n      dup1\n        /* \"#utility.yul\":6090:6096   */\n      0x00\n        /* \"#utility.yul\":6098:6104   */\n      dup1\n        /* \"#utility.yul\":6151:6154   */\n      0x80\n        /* \"#utility.yul\":6139:6148   */\n      dup6\n        /* \"#utility.yul\":6130:6137   */\n      dup8\n        /* \"#utility.yul\":6126:6149   */\n      sub\n        /* \"#utility.yul\":6122:6155   */\n      slt\n        /* \"#utility.yul\":6119:6121   */\n      iszero\n      tag_408\n      jumpi\n        /* \"#utility.yul\":6173:6179   */\n      dup4\n        /* \"#utility.yul\":6165:6171   */\n      dup5\n        /* \"#utility.yul\":6158:6180   */\n      revert\n        /* \"#utility.yul\":6119:6121   */\n    tag_408:\n        /* \"#utility.yul\":6214:6223   */\n      dup5\n        /* \"#utility.yul\":6201:6224   */\n      calldataload\n        /* \"#utility.yul\":6191:6224   */\n      swap4\n      pop\n        /* \"#utility.yul\":6275:6277   */\n      0x20\n        /* \"#utility.yul\":6264:6273   */\n      dup6\n        /* \"#utility.yul\":6260:6278   */\n      add\n        /* \"#utility.yul\":6247:6279   */\n      calldataload\n        /* \"#utility.yul\":6298:6316   */\n      0xffffffffffffffff\n        /* \"#utility.yul\":6339:6341   */\n      dup1\n        /* \"#utility.yul\":6331:6337   */\n      dup3\n        /* \"#utility.yul\":6328:6342   */\n      gt\n        /* \"#utility.yul\":6325:6327   */\n      iszero\n      tag_409\n      jumpi\n        /* \"#utility.yul\":6360:6366   */\n      dup5\n        /* \"#utility.yul\":6352:6358   */\n      dup6\n        /* \"#utility.yul\":6345:6367   */\n      revert\n        /* \"#utility.yul\":6325:6327   */\n    tag_409:\n        /* \"#utility.yul\":6388:6438   */\n      tag_410\n        /* \"#utility.yul\":6430:6437   */\n      dup9\n        /* \"#utility.yul\":6421:6427   */\n      dup4\n        /* \"#utility.yul\":6410:6419   */\n      dup10\n        /* \"#utility.yul\":6406:6428   */\n      add\n        /* \"#utility.yul\":6388:6438   */\n      tag_354\n      jump\t// in\n    tag_410:\n        /* \"#utility.yul\":6378:6438   */\n      swap5\n      pop\n        /* \"#utility.yul\":6491:6493   */\n      0x40\n        /* \"#utility.yul\":6480:6489   */\n      dup8\n        /* \"#utility.yul\":6476:6494   */\n      add\n        /* \"#utility.yul\":6463:6495   */\n      calldataload\n        /* \"#utility.yul\":6447:6495   */\n      swap2\n      pop\n        /* \"#utility.yul\":6520:6522   */\n      dup1\n        /* \"#utility.yul\":6510:6518   */\n      dup3\n        /* \"#utility.yul\":6507:6523   */\n      gt\n        /* \"#utility.yul\":6504:6506   */\n      iszero\n      tag_411\n      jumpi\n        /* \"#utility.yul\":6541:6547   */\n      dup4\n        /* \"#utility.yul\":6533:6539   */\n      dup5\n        /* \"#utility.yul\":6526:6548   */\n      revert\n        /* \"#utility.yul\":6504:6506   */\n    tag_411:\n        /* \"#utility.yul\":6569:6621   */\n      tag_412\n        /* \"#utility.yul\":6613:6620   */\n      dup9\n        /* \"#utility.yul\":6602:6610   */\n      dup4\n        /* \"#utility.yul\":6591:6600   */\n      dup10\n        /* \"#utility.yul\":6587:6611   */\n      add\n        /* \"#utility.yul\":6569:6621   */\n      tag_354\n      jump\t// in\n    tag_412:\n        /* \"#utility.yul\":6559:6621   */\n      swap4\n      pop\n        /* \"#utility.yul\":6674:6676   */\n      0x60\n        /* \"#utility.yul\":6663:6672   */\n      dup8\n        /* \"#utility.yul\":6659:6677   */\n      add\n        /* \"#utility.yul\":6646:6678   */\n      calldataload\n        /* \"#utility.yul\":6630:6678   */\n      swap2\n      pop\n        /* \"#utility.yul\":6703:6705   */\n      dup1\n        /* \"#utility.yul\":6693:6701   */\n      dup3\n        /* \"#utility.yul\":6690:6706   */\n      gt\n        /* \"#utility.yul\":6687:6689   */\n      iszero\n      tag_413\n      jumpi\n        /* \"#utility.yul\":6724:6730   */\n      dup3\n        /* \"#utility.yul\":6716:6722   */\n      dup4\n        /* \"#utility.yul\":6709:6731   */\n      revert\n        /* \"#utility.yul\":6687:6689   */\n    tag_413:\n      pop\n        /* \"#utility.yul\":6752:6804   */\n      tag_414\n        /* \"#utility.yul\":6796:6803   */\n      dup8\n        /* \"#utility.yul\":6785:6793   */\n      dup3\n        /* \"#utility.yul\":6774:6783   */\n      dup9\n        /* \"#utility.yul\":6770:6794   */\n      add\n        /* \"#utility.yul\":6752:6804   */\n      tag_354\n      jump\t// in\n    tag_414:\n        /* \"#utility.yul\":6742:6804   */\n      swap2\n      pop\n      pop\n        /* \"#utility.yul\":6109:6810   */\n      swap3\n      swap6\n      swap2\n      swap5\n      pop\n      swap3\n      pop\n      jump\t// out\n        /* \"#utility.yul\":6815:7073   */\n    tag_43:\n        /* \"#utility.yul\":6883:6889   */\n      0x00\n        /* \"#utility.yul\":6891:6897   */\n      dup1\n        /* \"#utility.yul\":6944:6946   */\n      0x40\n        /* \"#utility.yul\":6932:6941   */\n      dup4\n        /* \"#utility.yul\":6923:6930   */\n      dup6\n        /* \"#utility.yul\":6919:6942   */\n      sub\n        /* \"#utility.yul\":6915:6947   */\n      slt\n        /* \"#utility.yul\":6912:6914   */\n      iszero\n      tag_416\n      jumpi\n        /* \"#utility.yul\":6965:6971   */\n      dup2\n        /* \"#utility.yul\":6957:6963   */\n      dup3\n        /* \"#utility.yul\":6950:6972   */\n      revert\n        /* \"#utility.yul\":6912:6914   */\n    tag_416:\n      pop\n      pop\n        /* \"#utility.yul\":6993:7016   */\n      dup1\n      calldataload\n      swap3\n        /* \"#utility.yul\":7063:7065   */\n      0x20\n        /* \"#utility.yul\":7048:7066   */\n      swap1\n      swap2\n      add\n        /* \"#utility.yul\":7035:7067   */\n      calldataload\n      swap2\n      pop\n        /* \"#utility.yul\":6902:7073   */\n      jump\t// out\n        /* \"#utility.yul\":7078:7484   */\n    tag_53:\n        /* \"#utility.yul\":7164:7170   */\n      0x00\n        /* \"#utility.yul\":7172:7178   */\n      dup1\n        /* \"#utility.yul\":7180:7186   */\n      0x00\n        /* \"#utility.yul\":7233:7235   */\n      0x60\n        /* \"#utility.yul\":7221:7230   */\n      dup5\n        /* \"#utility.yul\":7212:7219   */\n      dup7\n        /* \"#utility.yul\":7208:7231   */\n      sub\n        /* \"#utility.yul\":7204:7236   */\n      slt\n        /* \"#utility.yul\":7201:7203   */\n      iszero\n      tag_418\n      jumpi\n        /* \"#utility.yul\":7254:7260   */\n      dup3\n        /* \"#utility.yul\":7246:7252   */\n      dup4\n        /* \"#utility.yul\":7239:7261   */\n      revert\n        /* \"#utility.yul\":7201:7203   */\n    tag_418:\n        /* \"#utility.yul\":7295:7304   */\n      dup4\n        /* \"#utility.yul\":7282:7305   */\n      calldataload\n        /* \"#utility.yul\":7272:7305   */\n      swap3\n      pop\n        /* \"#utility.yul\":7352:7354   */\n      0x20\n        /* \"#utility.yul\":7341:7350   */\n      dup5\n        /* \"#utility.yul\":7337:7355   */\n      add\n        /* \"#utility.yul\":7324:7356   */\n      calldataload\n        /* \"#utility.yul\":7314:7356   */\n      swap2\n      pop\n        /* \"#utility.yul\":7406:7408   */\n      0x40\n        /* \"#utility.yul\":7395:7404   */\n      dup5\n        /* \"#utility.yul\":7391:7409   */\n      add\n        /* \"#utility.yul\":7378:7410   */\n      calldataload\n        /* \"#utility.yul\":7419:7454   */\n      tag_419\n        /* \"#utility.yul\":7448:7453   */\n      dup2\n        /* \"#utility.yul\":7419:7454   */\n      tag_353\n      jump\t// in\n    tag_419:\n        /* \"#utility.yul\":7473:7478   */\n      dup1\n        /* \"#utility.yul\":7463:7478   */\n      swap2\n      pop\n      pop\n        /* \"#utility.yul\":7191:7484   */\n      swap3\n      pop\n      swap3\n      pop\n      swap3\n      jump\t// out\n        /* \"#utility.yul\":7489:7815   */\n    tag_24:\n        /* \"#utility.yul\":7566:7572   */\n      0x00\n        /* \"#utility.yul\":7574:7580   */\n      dup1\n        /* \"#utility.yul\":7582:7588   */\n      0x00\n        /* \"#utility.yul\":7635:7637   */\n      0x60\n        /* \"#utility.yul\":7623:7632   */\n      dup5\n        /* \"#utility.yul\":7614:7621   */\n      dup7\n        /* \"#utility.yul\":7610:7633   */\n      sub\n        /* \"#utility.yul\":7606:7638   */\n      slt\n        /* \"#utility.yul\":7603:7605   */\n      iszero\n      tag_421\n      jumpi\n        /* \"#utility.yul\":7656:7662   */\n      dup3\n        /* \"#utility.yul\":7648:7654   */\n      dup4\n        /* \"#utility.yul\":7641:7663   */\n      revert\n        /* \"#utility.yul\":7603:7605   */\n    tag_421:\n      pop\n      pop\n        /* \"#utility.yul\":7684:7707   */\n      dup2\n      calldataload\n      swap4\n        /* \"#utility.yul\":7754:7756   */\n      0x20\n        /* \"#utility.yul\":7739:7757   */\n      dup4\n      add\n        /* \"#utility.yul\":7726:7758   */\n      calldataload\n      swap4\n      pop\n        /* \"#utility.yul\":7805:7807   */\n      0x40\n        /* \"#utility.yul\":7790:7808   */\n      swap1\n      swap3\n      add\n        /* \"#utility.yul\":7777:7809   */\n      calldataload\n      swap2\n        /* \"#utility.yul\":7593:7815   */\n      swap1\n      pop\n      jump\t// out\n        /* \"#utility.yul\":7820:8215   */\n    tag_49:\n        /* \"#utility.yul\":7906:7912   */\n      0x00\n        /* \"#utility.yul\":7914:7920   */\n      dup1\n        /* \"#utility.yul\":7922:7928   */\n      0x00\n        /* \"#utility.yul\":7930:7936   */\n      dup1\n        /* \"#utility.yul\":7983:7986   */\n      0x80\n        /* \"#utility.yul\":7971:7980   */\n      dup6\n        /* \"#utility.yul\":7962:7969   */\n      dup8\n        /* \"#utility.yul\":7958:7981   */\n      sub\n        /* \"#utility.yul\":7954:7987   */\n      slt\n        /* \"#utility.yul\":7951:7953   */\n      iszero\n      tag_423\n      jumpi\n        /* \"#utility.yul\":8005:8011   */\n      dup2\n        /* \"#utility.yul\":7997:8003   */\n      dup3\n        /* \"#utility.yul\":7990:8012   */\n      revert\n        /* \"#utility.yul\":7951:7953   */\n    tag_423:\n      pop\n      pop\n        /* \"#utility.yul\":8033:8056   */\n      dup3\n      calldataload\n      swap5\n        /* \"#utility.yul\":8103:8105   */\n      0x20\n        /* \"#utility.yul\":8088:8106   */\n      dup5\n      add\n        /* \"#utility.yul\":8075:8107   */\n      calldataload\n      swap5\n      pop\n        /* \"#utility.yul\":8154:8156   */\n      0x40\n        /* \"#utility.yul\":8139:8157   */\n      dup5\n      add\n        /* \"#utility.yul\":8126:8158   */\n      calldataload\n      swap4\n        /* \"#utility.yul\":8205:8207   */\n      0x60\n        /* \"#utility.yul\":8190:8208   */\n      add\n        /* \"#utility.yul\":8177:8209   */\n      calldataload\n      swap3\n      pop\n        /* \"#utility.yul\":7941:8215   */\n      swap1\n      pop\n      jump\t// out\n        /* \"#utility.yul\":8220:8478   */\n    tag_424:\n        /* \"#utility.yul\":8262:8265   */\n      0x00\n        /* \"#utility.yul\":8300:8305   */\n      dup2\n        /* \"#utility.yul\":8294:8306   */\n      mload\n        /* \"#utility.yul\":8327:8333   */\n      dup1\n        /* \"#utility.yul\":8322:8325   */\n      dup5\n        /* \"#utility.yul\":8315:8334   */\n      mstore\n        /* \"#utility.yul\":8343:8406   */\n      tag_426\n        /* \"#utility.yul\":8399:8405   */\n      dup2\n        /* \"#utility.yul\":8392:8396   */\n      0x20\n        /* \"#utility.yul\":8387:8390   */\n      dup7\n        /* \"#utility.yul\":8383:8397   */\n      add\n        /* \"#utility.yul\":8376:8380   */\n      0x20\n        /* \"#utility.yul\":8369:8374   */\n      dup7\n        /* \"#utility.yul\":8365:8381   */\n      add\n        /* \"#utility.yul\":8343:8406   */\n      tag_427\n      jump\t// in\n    tag_426:\n        /* \"#utility.yul\":8460:8462   */\n      0x1f\n        /* \"#utility.yul\":8439:8454   */\n      add\n      not(0x1f)\n        /* \"#utility.yul\":8435:8464   */\n      and\n        /* \"#utility.yul\":8426:8465   */\n      swap3\n      swap1\n      swap3\n      add\n        /* \"#utility.yul\":8467:8471   */\n      0x20\n        /* \"#utility.yul\":8422:8472   */\n      add\n      swap3\n        /* \"#utility.yul\":8270:8478   */\n      swap2\n      pop\n      pop\n      jump\t// out\n        /* \"#utility.yul\":8483:9591   */\n    tag_153:\n        /* \"#utility.yul\":8613:8616   */\n      0x00\n        /* \"#utility.yul\":8642:8645   */\n      dup1\n        /* \"#utility.yul\":8677:8683   */\n      dup4\n        /* \"#utility.yul\":8671:8684   */\n      sload\n        /* \"#utility.yul\":8707:8710   */\n      dup3\n        /* \"#utility.yul\":8729:8730   */\n      0x01\n        /* \"#utility.yul\":8757:8766   */\n      dup3\n        /* \"#utility.yul\":8753:8755   */\n      dup2\n        /* \"#utility.yul\":8749:8767   */\n      shr\n        /* \"#utility.yul\":8739:8767   */\n      swap2\n      pop\n        /* \"#utility.yul\":8817:8819   */\n      dup1\n        /* \"#utility.yul\":8806:8815   */\n      dup4\n        /* \"#utility.yul\":8802:8820   */\n      and\n        /* \"#utility.yul\":8839:8857   */\n      dup1\n        /* \"#utility.yul\":8829:8831   */\n      tag_429\n      jumpi\n        /* \"#utility.yul\":8883:8887   */\n      0x7f\n        /* \"#utility.yul\":8875:8881   */\n      dup4\n        /* \"#utility.yul\":8871:8888   */\n      and\n        /* \"#utility.yul\":8861:8888   */\n      swap3\n      pop\n        /* \"#utility.yul\":8829:8831   */\n    tag_429:\n        /* \"#utility.yul\":8909:8911   */\n      0x20\n        /* \"#utility.yul\":8957:8959   */\n      dup1\n        /* \"#utility.yul\":8949:8955   */\n      dup5\n        /* \"#utility.yul\":8946:8960   */\n      lt\n        /* \"#utility.yul\":8926:8944   */\n      dup3\n        /* \"#utility.yul\":8923:8961   */\n      eq\n        /* \"#utility.yul\":8920:8922   */\n      iszero\n      tag_430\n      jumpi\n      shl(0xe0, 0x4e487b71)\n        /* \"#utility.yul\":8984:9017   */\n      dup8\n      mstore\n        /* \"#utility.yul\":9040:9044   */\n      0x22\n        /* \"#utility.yul\":9037:9038   */\n      0x04\n        /* \"#utility.yul\":9030:9045   */\n      mstore\n        /* \"#utility.yul\":9070:9074   */\n      0x24\n        /* \"#utility.yul\":8991:8994   */\n      dup8\n        /* \"#utility.yul\":9058:9075   */\n      revert\n        /* \"#utility.yul\":8920:8922   */\n    tag_430:\n        /* \"#utility.yul\":9101:9119   */\n      dup2\n        /* \"#utility.yul\":9128:9232   */\n      dup1\n      iszero\n      tag_432\n      jumpi\n        /* \"#utility.yul\":9246:9247   */\n      0x01\n        /* \"#utility.yul\":9241:9566   */\n      dup2\n      eq\n      tag_433\n      jumpi\n        /* \"#utility.yul\":9094:9566   */\n      jump(tag_431)\n        /* \"#utility.yul\":9128:9232   */\n    tag_432:\n      not(0xff)\n        /* \"#utility.yul\":9161:9185   */\n      dup7\n      and\n        /* \"#utility.yul\":9149:9186   */\n      dup10\n      mstore\n        /* \"#utility.yul\":9206:9222   */\n      dup5\n      dup10\n      add\n      swap7\n      pop\n        /* \"#utility.yul\":9128:9232   */\n      jump(tag_431)\n        /* \"#utility.yul\":9241:9566   */\n    tag_433:\n        /* \"#utility.yul\":20789:20793   */\n      0x00\n        /* \"#utility.yul\":20808:20825   */\n      dup11\n      dup2\n      mstore\n        /* \"#utility.yul\":20858:20862   */\n      0x20\n        /* \"#utility.yul\":20842:20863   */\n      swap1\n      keccak256\n        /* \"#utility.yul\":9339:9342   */\n      dup9\n        /* \"#utility.yul\":9355:9520   */\n    tag_436:\n        /* \"#utility.yul\":9369:9375   */\n      dup7\n        /* \"#utility.yul\":9366:9367   */\n      dup2\n        /* \"#utility.yul\":9363:9376   */\n      lt\n        /* \"#utility.yul\":9355:9520   */\n      iszero\n      tag_438\n      jumpi\n        /* \"#utility.yul\":9447:9461   */\n      dup2\n      sload\n        /* \"#utility.yul\":9434:9445   */\n      dup12\n      dup3\n      add\n        /* \"#utility.yul\":9427:9462   */\n      mstore\n        /* \"#utility.yul\":9490:9506   */\n      swap1\n      dup6\n      add\n      swap1\n        /* \"#utility.yul\":9384:9394   */\n      dup4\n      add\n        /* \"#utility.yul\":9355:9520   */\n      jump(tag_436)\n    tag_438:\n        /* \"#utility.yul\":9359:9362   */\n      pop\n      pop\n        /* \"#utility.yul\":9549:9555   */\n      dup5\n        /* \"#utility.yul\":9544:9547   */\n      dup10\n        /* \"#utility.yul\":9540:9556   */\n      add\n        /* \"#utility.yul\":9533:9556   */\n      swap7\n      pop\n        /* \"#utility.yul\":9094:9566   */\n    tag_431:\n      pop\n        /* \"#utility.yul\":9582:9585   */\n      swap5\n      swap9\n        /* \"#utility.yul\":8621:9591   */\n      swap8\n      pop\n      pop\n      pop\n      pop\n      pop\n      pop\n      pop\n      pop\n      jump\t// out\n        /* \"#utility.yul\":9596:10066   */\n    tag_238:\n        /* \"#utility.yul\":9775:9778   */\n      0x00\n        /* \"#utility.yul\":9813:9819   */\n      dup4\n        /* \"#utility.yul\":9807:9820   */\n      mload\n        /* \"#utility.yul\":9829:9882   */\n      tag_440\n        /* \"#utility.yul\":9875:9881   */\n      dup2\n        /* \"#utility.yul\":9870:9873   */\n      dup5\n        /* \"#utility.yul\":9863:9867   */\n      0x20\n        /* \"#utility.yul\":9855:9861   */\n      dup9\n        /* \"#utility.yul\":9851:9868   */\n      add\n        /* \"#utility.yul\":9829:9882   */\n      tag_427\n      jump\t// in\n    tag_440:\n        /* \"#utility.yul\":9945:9958   */\n      dup4\n      mload\n        /* \"#utility.yul\":9904:9920   */\n      swap1\n      dup4\n      add\n      swap1\n        /* \"#utility.yul\":9967:10024   */\n      tag_441\n        /* \"#utility.yul\":9945:9958   */\n      dup2\n        /* \"#utility.yul\":9904:9920   */\n      dup4\n        /* \"#utility.yul\":10001:10005   */\n      0x20\n        /* \"#utility.yul\":9989:10006   */\n      dup9\n      add\n        /* \"#utility.yul\":9967:10024   */\n      tag_427\n      jump\t// in\n    tag_441:\n        /* \"#utility.yul\":10040:10060   */\n      add\n      swap5\n        /* \"#utility.yul\":9783:10066   */\n      swap4\n      pop\n      pop\n      pop\n      pop\n      jump\t// out\n        /* \"#utility.yul\":10263:10892   */\n    tag_64:\n        /* \"#utility.yul\":10530:10533   */\n      0x80\n        /* \"#utility.yul\":10519:10528   */\n      dup2\n        /* \"#utility.yul\":10512:10534   */\n      mstore\n        /* \"#utility.yul\":10493:10497   */\n      0x00\n        /* \"#utility.yul\":10557:10603   */\n      tag_444\n        /* \"#utility.yul\":10598:10601   */\n      0x80\n        /* \"#utility.yul\":10587:10596   */\n      dup4\n        /* \"#utility.yul\":10583:10602   */\n      add\n        /* \"#utility.yul\":10575:10581   */\n      dup8\n        /* \"#utility.yul\":10557:10603   */\n      tag_424\n      jump\t// in\n    tag_444:\n        /* \"#utility.yul\":10651:10660   */\n      dup3\n        /* \"#utility.yul\":10643:10649   */\n      dup2\n        /* \"#utility.yul\":10639:10661   */\n      sub\n        /* \"#utility.yul\":10634:10636   */\n      0x20\n        /* \"#utility.yul\":10623:10632   */\n      dup5\n        /* \"#utility.yul\":10619:10637   */\n      add\n        /* \"#utility.yul\":10612:10662   */\n      mstore\n        /* \"#utility.yul\":10685:10718   */\n      tag_445\n        /* \"#utility.yul\":10711:10717   */\n      dup2\n        /* \"#utility.yul\":10703:10709   */\n      dup8\n        /* \"#utility.yul\":10685:10718   */\n      tag_424\n      jump\t// in\n    tag_445:\n        /* \"#utility.yul\":10671:10718   */\n      swap1\n      pop\n        /* \"#utility.yul\":10766:10775   */\n      dup3\n        /* \"#utility.yul\":10758:10764   */\n      dup2\n        /* \"#utility.yul\":10754:10776   */\n      sub\n        /* \"#utility.yul\":10749:10751   */\n      0x40\n        /* \"#utility.yul\":10738:10747   */\n      dup5\n        /* \"#utility.yul\":10734:10752   */\n      add\n        /* \"#utility.yul\":10727:10777   */\n      mstore\n        /* \"#utility.yul\":10794:10827   */\n      tag_446\n        /* \"#utility.yul\":10820:10826   */\n      dup2\n        /* \"#utility.yul\":10812:10818   */\n      dup7\n        /* \"#utility.yul\":10794:10827   */\n      tag_424\n      jump\t// in\n    tag_446:\n        /* \"#utility.yul\":10786:10827   */\n      swap2\n      pop\n      pop\n        /* \"#utility.yul\":10877:10883   */\n      dup3\n        /* \"#utility.yul\":10870:10884   */\n      iszero\n        /* \"#utility.yul\":10863:10885   */\n      iszero\n        /* \"#utility.yul\":10858:10860   */\n      0x60\n        /* \"#utility.yul\":10847:10856   */\n      dup4\n        /* \"#utility.yul\":10843:10861   */\n      add\n        /* \"#utility.yul\":10836:10886   */\n      mstore\n        /* \"#utility.yul\":10502:10892   */\n      swap6\n      swap5\n      pop\n      pop\n      pop\n      pop\n      pop\n      jump\t// out\n        /* \"#utility.yul\":10897:11690   */\n    tag_36:\n        /* \"#utility.yul\":11212:11215   */\n      0xa0\n        /* \"#utility.yul\":11201:11210   */\n      dup2\n        /* \"#utility.yul\":11194:11216   */\n      mstore\n        /* \"#utility.yul\":11175:11179   */\n      0x00\n        /* \"#utility.yul\":11239:11285   */\n      tag_448\n        /* \"#utility.yul\":11280:11283   */\n      0xa0\n        /* \"#utility.yul\":11269:11278   */\n      dup4\n        /* \"#utility.yul\":11265:11284   */\n      add\n        /* \"#utility.yul\":11257:11263   */\n      dup9\n        /* \"#utility.yul\":11239:11285   */\n      tag_424\n      jump\t// in\n    tag_448:\n        /* \"#utility.yul\":11333:11342   */\n      dup3\n        /* \"#utility.yul\":11325:11331   */\n      dup2\n        /* \"#utility.yul\":11321:11343   */\n      sub\n        /* \"#utility.yul\":11316:11318   */\n      0x20\n        /* \"#utility.yul\":11305:11314   */\n      dup5\n        /* \"#utility.yul\":11301:11319   */\n      add\n        /* \"#utility.yul\":11294:11344   */\n      mstore\n        /* \"#utility.yul\":11367:11400   */\n      tag_449\n        /* \"#utility.yul\":11393:11399   */\n      dup2\n        /* \"#utility.yul\":11385:11391   */\n      dup9\n        /* \"#utility.yul\":11367:11400   */\n      tag_424\n      jump\t// in\n    tag_449:\n        /* \"#utility.yul\":11353:11400   */\n      swap1\n      pop\n        /* \"#utility.yul\":11448:11457   */\n      dup3\n        /* \"#utility.yul\":11440:11446   */\n      dup2\n        /* \"#utility.yul\":11436:11458   */\n      sub\n        /* \"#utility.yul\":11431:11433   */\n      0x40\n        /* \"#utility.yul\":11420:11429   */\n      dup5\n        /* \"#utility.yul\":11416:11434   */\n      add\n        /* \"#utility.yul\":11409:11459   */\n      mstore\n        /* \"#utility.yul\":11482:11515   */\n      tag_450\n        /* \"#utility.yul\":11508:11514   */\n      dup2\n        /* \"#utility.yul\":11500:11506   */\n      dup8\n        /* \"#utility.yul\":11482:11515   */\n      tag_424\n      jump\t// in\n    tag_450:\n        /* \"#utility.yul\":11468:11515   */\n      swap1\n      pop\n        /* \"#utility.yul\":11563:11572   */\n      dup3\n        /* \"#utility.yul\":11555:11561   */\n      dup2\n        /* \"#utility.yul\":11551:11573   */\n      sub\n        /* \"#utility.yul\":11546:11548   */\n      0x60\n        /* \"#utility.yul\":11535:11544   */\n      dup5\n        /* \"#utility.yul\":11531:11549   */\n      add\n        /* \"#utility.yul\":11524:11574   */\n      mstore\n        /* \"#utility.yul\":11591:11624   */\n      tag_451\n        /* \"#utility.yul\":11617:11623   */\n      dup2\n        /* \"#utility.yul\":11609:11615   */\n      dup7\n        /* \"#utility.yul\":11591:11624   */\n      tag_424\n      jump\t// in\n    tag_451:\n        /* \"#utility.yul\":11583:11624   */\n      swap2\n      pop\n      pop\n        /* \"#utility.yul\":11675:11681   */\n      dup3\n        /* \"#utility.yul\":11668:11682   */\n      iszero\n        /* \"#utility.yul\":11661:11683   */\n      iszero\n        /* \"#utility.yul\":11655:11658   */\n      0x80\n        /* \"#utility.yul\":11644:11653   */\n      dup4\n        /* \"#utility.yul\":11640:11659   */\n      add\n        /* \"#utility.yul\":11633:11684   */\n      mstore\n        /* \"#utility.yul\":11184:11690   */\n      swap7\n      swap6\n      pop\n      pop\n      pop\n      pop\n      pop\n      pop\n      jump\t// out\n        /* \"#utility.yul\":11695:12943   */\n    tag_31:\n        /* \"#utility.yul\":12092:12096   */\n      0x00\n        /* \"#utility.yul\":12121:12124   */\n      0x0100\n        /* \"#utility.yul\":12151:12153   */\n      dup1\n        /* \"#utility.yul\":12140:12149   */\n      dup4\n        /* \"#utility.yul\":12133:12154   */\n      mstore\n        /* \"#utility.yul\":12177:12222   */\n      tag_453\n        /* \"#utility.yul\":12218:12220   */\n      dup2\n        /* \"#utility.yul\":12207:12216   */\n      dup5\n        /* \"#utility.yul\":12203:12221   */\n      add\n        /* \"#utility.yul\":12195:12201   */\n      dup13\n        /* \"#utility.yul\":12177:12222   */\n      tag_424\n      jump\t// in\n    tag_453:\n        /* \"#utility.yul\":12163:12222   */\n      swap1\n      pop\n        /* \"#utility.yul\":12270:12279   */\n      dup3\n        /* \"#utility.yul\":12262:12268   */\n      dup2\n        /* \"#utility.yul\":12258:12280   */\n      sub\n        /* \"#utility.yul\":12253:12255   */\n      0x20\n        /* \"#utility.yul\":12242:12251   */\n      dup5\n        /* \"#utility.yul\":12238:12256   */\n      add\n        /* \"#utility.yul\":12231:12281   */\n      mstore\n        /* \"#utility.yul\":12304:12337   */\n      tag_454\n        /* \"#utility.yul\":12330:12336   */\n      dup2\n        /* \"#utility.yul\":12322:12328   */\n      dup12\n        /* \"#utility.yul\":12304:12337   */\n      tag_424\n      jump\t// in\n    tag_454:\n        /* \"#utility.yul\":12290:12337   */\n      swap1\n      pop\n        /* \"#utility.yul\":12385:12394   */\n      dup3\n        /* \"#utility.yul\":12377:12383   */\n      dup2\n        /* \"#utility.yul\":12373:12395   */\n      sub\n        /* \"#utility.yul\":12368:12370   */\n      0x40\n        /* \"#utility.yul\":12357:12366   */\n      dup5\n        /* \"#utility.yul\":12353:12371   */\n      add\n        /* \"#utility.yul\":12346:12396   */\n      mstore\n        /* \"#utility.yul\":12419:12452   */\n      tag_455\n        /* \"#utility.yul\":12445:12451   */\n      dup2\n        /* \"#utility.yul\":12437:12443   */\n      dup11\n        /* \"#utility.yul\":12419:12452   */\n      tag_424\n      jump\t// in\n    tag_455:\n        /* \"#utility.yul\":12405:12452   */\n      swap1\n      pop\n        /* \"#utility.yul\":12500:12509   */\n      dup3\n        /* \"#utility.yul\":12492:12498   */\n      dup2\n        /* \"#utility.yul\":12488:12510   */\n      sub\n        /* \"#utility.yul\":12483:12485   */\n      0x60\n        /* \"#utility.yul\":12472:12481   */\n      dup5\n        /* \"#utility.yul\":12468:12486   */\n      add\n        /* \"#utility.yul\":12461:12511   */\n      mstore\n        /* \"#utility.yul\":12534:12567   */\n      tag_456\n        /* \"#utility.yul\":12560:12566   */\n      dup2\n        /* \"#utility.yul\":12552:12558   */\n      dup10\n        /* \"#utility.yul\":12534:12567   */\n      tag_424\n      jump\t// in\n    tag_456:\n        /* \"#utility.yul\":12520:12567   */\n      swap1\n      pop\n        /* \"#utility.yul\":12616:12625   */\n      dup3\n        /* \"#utility.yul\":12608:12614   */\n      dup2\n        /* \"#utility.yul\":12604:12626   */\n      sub\n        /* \"#utility.yul\":12598:12601   */\n      0x80\n        /* \"#utility.yul\":12587:12596   */\n      dup5\n        /* \"#utility.yul\":12583:12602   */\n      add\n        /* \"#utility.yul\":12576:12627   */\n      mstore\n        /* \"#utility.yul\":12644:12677   */\n      tag_457\n        /* \"#utility.yul\":12670:12676   */\n      dup2\n        /* \"#utility.yul\":12662:12668   */\n      dup9\n        /* \"#utility.yul\":12644:12677   */\n      tag_424\n      jump\t// in\n    tag_457:\n        /* \"#utility.yul\":12636:12677   */\n      swap2\n      pop\n      pop\n        /* \"#utility.yul\":12707:12708   */\n      0x05\n        /* \"#utility.yul\":12699:12705   */\n      dup6\n        /* \"#utility.yul\":12696:12709   */\n      lt\n        /* \"#utility.yul\":12686:12688   */\n      tag_459\n      jumpi\n        /* \"#utility.yul\":12713:12731   */\n      tag_459\n      tag_460\n      jump\t// in\n    tag_459:\n        /* \"#utility.yul\":12770:12776   */\n      dup5\n        /* \"#utility.yul\":12764:12767   */\n      0xa0\n        /* \"#utility.yul\":12753:12762   */\n      dup4\n        /* \"#utility.yul\":12749:12768   */\n      add\n        /* \"#utility.yul\":12742:12777   */\n      mstore\n        /* \"#utility.yul\":12807:12808   */\n      0x03\n        /* \"#utility.yul\":12799:12805   */\n      dup5\n        /* \"#utility.yul\":12796:12809   */\n      lt\n        /* \"#utility.yul\":12786:12788   */\n      tag_462\n      jumpi\n        /* \"#utility.yul\":12813:12831   */\n      tag_462\n      tag_460\n      jump\t// in\n    tag_462:\n        /* \"#utility.yul\":12870:12876   */\n      dup4\n        /* \"#utility.yul\":12864:12867   */\n      0xc0\n        /* \"#utility.yul\":12853:12862   */\n      dup4\n        /* \"#utility.yul\":12849:12868   */\n      add\n        /* \"#utility.yul\":12842:12877   */\n      mstore\n        /* \"#utility.yul\":12928:12934   */\n      dup3\n        /* \"#utility.yul\":12921:12935   */\n      iszero\n        /* \"#utility.yul\":12914:12936   */\n      iszero\n        /* \"#utility.yul\":12908:12911   */\n      0xe0\n        /* \"#utility.yul\":12897:12906   */\n      dup4\n        /* \"#utility.yul\":12893:12912   */\n      add\n        /* \"#utility.yul\":12886:12937   */\n      mstore\n        /* \"#utility.yul\":12101:12943   */\n      swap10\n      swap9\n      pop\n      pop\n      pop\n      pop\n      pop\n      pop\n      pop\n      pop\n      pop\n      jump\t// out\n        /* \"#utility.yul\":12948:13731   */\n    tag_93:\n        /* \"#utility.yul\":13269:13272   */\n      0xa0\n        /* \"#utility.yul\":13258:13267   */\n      dup2\n        /* \"#utility.yul\":13251:13273   */\n      mstore\n        /* \"#utility.yul\":13232:13236   */\n      0x00\n        /* \"#utility.yul\":13296:13342   */\n      tag_464\n        /* \"#utility.yul\":13337:13340   */\n      0xa0\n        /* \"#utility.yul\":13326:13335   */\n      dup4\n        /* \"#utility.yul\":13322:13341   */\n      add\n        /* \"#utility.yul\":13314:13320   */\n      dup9\n        /* \"#utility.yul\":13296:13342   */\n      tag_424\n      jump\t// in\n    tag_464:\n        /* \"#utility.yul\":13390:13399   */\n      dup3\n        /* \"#utility.yul\":13382:13388   */\n      dup2\n        /* \"#utility.yul\":13378:13400   */\n      sub\n        /* \"#utility.yul\":13373:13375   */\n      0x20\n        /* \"#utility.yul\":13362:13371   */\n      dup5\n        /* \"#utility.yul\":13358:13376   */\n      add\n        /* \"#utility.yul\":13351:13401   */\n      mstore\n        /* \"#utility.yul\":13424:13457   */\n      tag_465\n        /* \"#utility.yul\":13450:13456   */\n      dup2\n        /* \"#utility.yul\":13442:13448   */\n      dup9\n        /* \"#utility.yul\":13424:13457   */\n      tag_424\n      jump\t// in\n    tag_465:\n        /* \"#utility.yul\":13410:13457   */\n      swap1\n      pop\n        /* \"#utility.yul\":13505:13514   */\n      dup3\n        /* \"#utility.yul\":13497:13503   */\n      dup2\n        /* \"#utility.yul\":13493:13515   */\n      sub\n        /* \"#utility.yul\":13488:13490   */\n      0x40\n        /* \"#utility.yul\":13477:13486   */\n      dup5\n        /* \"#utility.yul\":13473:13491   */\n      add\n        /* \"#utility.yul\":13466:13516   */\n      mstore\n        /* \"#utility.yul\":13539:13572   */\n      tag_466\n        /* \"#utility.yul\":13565:13571   */\n      dup2\n        /* \"#utility.yul\":13557:13563   */\n      dup8\n        /* \"#utility.yul\":13539:13572   */\n      tag_424\n      jump\t// in\n    tag_466:\n        /* \"#utility.yul\":13525:13572   */\n      swap1\n      pop\n        /* \"#utility.yul\":13620:13629   */\n      dup3\n        /* \"#utility.yul\":13612:13618   */\n      dup2\n        /* \"#utility.yul\":13608:13630   */\n      sub\n        /* \"#utility.yul\":13603:13605   */\n      0x60\n        /* \"#utility.yul\":13592:13601   */\n      dup5\n        /* \"#utility.yul\":13588:13606   */\n      add\n        /* \"#utility.yul\":13581:13631   */\n      mstore\n        /* \"#utility.yul\":13648:13681   */\n      tag_467\n        /* \"#utility.yul\":13674:13680   */\n      dup2\n        /* \"#utility.yul\":13666:13672   */\n      dup7\n        /* \"#utility.yul\":13648:13681   */\n      tag_424\n      jump\t// in\n    tag_467:\n        /* \"#utility.yul\":13640:13681   */\n      swap2\n      pop\n      pop\n        /* \"#utility.yul\":13718:13724   */\n      dup3\n        /* \"#utility.yul\":13712:13715   */\n      0x80\n        /* \"#utility.yul\":13701:13710   */\n      dup4\n        /* \"#utility.yul\":13697:13716   */\n      add\n        /* \"#utility.yul\":13690:13725   */\n      mstore\n        /* \"#utility.yul\":13241:13731   */\n      swap7\n      swap6\n      pop\n      pop\n      pop\n      pop\n      pop\n      pop\n      jump\t// out\n        /* \"#utility.yul\":13736:14263   */\n    tag_59:\n        /* \"#utility.yul\":13989:13992   */\n      0x80\n        /* \"#utility.yul\":13978:13987   */\n      dup2\n        /* \"#utility.yul\":13971:13993   */\n      mstore\n        /* \"#utility.yul\":13952:13956   */\n      0x00\n        /* \"#utility.yul\":14016:14062   */\n      tag_469\n        /* \"#utility.yul\":14057:14060   */\n      0x80\n        /* \"#utility.yul\":14046:14055   */\n      dup4\n        /* \"#utility.yul\":14042:14061   */\n      add\n        /* \"#utility.yul\":14034:14040   */\n      dup8\n        /* \"#utility.yul\":14016:14062   */\n      tag_424\n      jump\t// in\n    tag_469:\n        /* \"#utility.yul\":14110:14119   */\n      dup3\n        /* \"#utility.yul\":14102:14108   */\n      dup2\n        /* \"#utility.yul\":14098:14120   */\n      sub\n        /* \"#utility.yul\":14093:14095   */\n      0x20\n        /* \"#utility.yul\":14082:14091   */\n      dup5\n        /* \"#utility.yul\":14078:14096   */\n      add\n        /* \"#utility.yul\":14071:14121   */\n      mstore\n        /* \"#utility.yul\":14138:14171   */\n      tag_470\n        /* \"#utility.yul\":14164:14170   */\n      dup2\n        /* \"#utility.yul\":14156:14162   */\n      dup8\n        /* \"#utility.yul\":14138:14171   */\n      tag_424\n      jump\t// in\n    tag_470:\n        /* \"#utility.yul\":14202:14204   */\n      0x40\n        /* \"#utility.yul\":14187:14205   */\n      dup5\n      add\n        /* \"#utility.yul\":14180:14214   */\n      swap6\n      swap1\n      swap6\n      mstore\n      pop\n      pop\n        /* \"#utility.yul\":14245:14247   */\n      0x60\n        /* \"#utility.yul\":14230:14248   */\n      add\n        /* \"#utility.yul\":14223:14257   */\n      mstore\n        /* \"#utility.yul\":14130:14171   */\n      swap3\n        /* \"#utility.yul\":13961:14263   */\n      swap2\n      pop\n      pop\n      jump\t// out\n        /* \"#utility.yul\":14268:14703   */\n    tag_188:\n        /* \"#utility.yul\":14501:14504   */\n      0x80\n        /* \"#utility.yul\":14490:14499   */\n      dup2\n        /* \"#utility.yul\":14483:14505   */\n      mstore\n        /* \"#utility.yul\":14464:14468   */\n      0x00\n        /* \"#utility.yul\":14522:14568   */\n      tag_472\n        /* \"#utility.yul\":14563:14566   */\n      0x80\n        /* \"#utility.yul\":14552:14561   */\n      dup4\n        /* \"#utility.yul\":14548:14567   */\n      add\n        /* \"#utility.yul\":14540:14546   */\n      dup8\n        /* \"#utility.yul\":14522:14568   */\n      tag_424\n      jump\t// in\n    tag_472:\n        /* \"#utility.yul\":14599:14601   */\n      0x20\n        /* \"#utility.yul\":14584:14602   */\n      dup4\n      add\n        /* \"#utility.yul\":14577:14611   */\n      swap6\n      swap1\n      swap6\n      mstore\n      pop\n        /* \"#utility.yul\":14642:14644   */\n      0x40\n        /* \"#utility.yul\":14627:14645   */\n      dup2\n      add\n        /* \"#utility.yul\":14620:14654   */\n      swap3\n      swap1\n      swap3\n      mstore\n        /* \"#utility.yul\":14685:14687   */\n      0x60\n        /* \"#utility.yul\":14670:14688   */\n      swap1\n      swap2\n      add\n        /* \"#utility.yul\":14663:14697   */\n      mstore\n        /* \"#utility.yul\":14514:14568   */\n      swap2\n        /* \"#utility.yul\":14473:14703   */\n      swap1\n      pop\n      jump\t// out\n        /* \"#utility.yul\":14708:15107   */\n    tag_245:\n        /* \"#utility.yul\":14910:14912   */\n      0x20\n        /* \"#utility.yul\":14892:14913   */\n      dup1\n      dup3\n      mstore\n        /* \"#utility.yul\":14949:14951   */\n      0x23\n        /* \"#utility.yul\":14929:14947   */\n      swap1\n      dup3\n      add\n        /* \"#utility.yul\":14922:14952   */\n      mstore\n        /* \"#utility.yul\":14988:15022   */\n      0x4548522d52442d30313a20446f63746f7220616c726561647920456e726f6c6c\n        /* \"#utility.yul\":14983:14985   */\n      0x40\n        /* \"#utility.yul\":14968:14986   */\n      dup3\n      add\n        /* \"#utility.yul\":14961:15023   */\n      mstore\n      shl(0xe9, 0x32b217)\n        /* \"#utility.yul\":15054:15056   */\n      0x60\n        /* \"#utility.yul\":15039:15057   */\n      dup3\n      add\n        /* \"#utility.yul\":15032:15065   */\n      mstore\n        /* \"#utility.yul\":15097:15100   */\n      0x80\n        /* \"#utility.yul\":15082:15101   */\n      add\n      swap1\n        /* \"#utility.yul\":14882:15107   */\n      jump\t// out\n        /* \"#utility.yul\":16271:16617   */\n    tag_97:\n        /* \"#utility.yul\":16473:16475   */\n      0x20\n        /* \"#utility.yul\":16455:16476   */\n      dup1\n      dup3\n      mstore\n        /* \"#utility.yul\":16512:16514   */\n      0x16\n        /* \"#utility.yul\":16492:16510   */\n      swap1\n      dup3\n      add\n        /* \"#utility.yul\":16485:16515   */\n      mstore\n      shl(0x52, 0x14185d1a595b9d08139bdd081c9959da5cdd195c9959)\n        /* \"#utility.yul\":16546:16548   */\n      0x40\n        /* \"#utility.yul\":16531:16549   */\n      dup3\n      add\n        /* \"#utility.yul\":16524:16576   */\n      mstore\n        /* \"#utility.yul\":16608:16610   */\n      0x60\n        /* \"#utility.yul\":16593:16611   */\n      add\n      swap1\n        /* \"#utility.yul\":16445:16617   */\n      jump\t// out\n        /* \"#utility.yul\":16622:17022   */\n    tag_295:\n        /* \"#utility.yul\":16824:16826   */\n      0x20\n        /* \"#utility.yul\":16806:16827   */\n      dup1\n      dup3\n      mstore\n        /* \"#utility.yul\":16863:16865   */\n      0x24\n        /* \"#utility.yul\":16843:16861   */\n      swap1\n      dup3\n      add\n        /* \"#utility.yul\":16836:16866   */\n      mstore\n        /* \"#utility.yul\":16902:16936   */\n      0x4548522d52502d30323a2050617469656e7420616c726561647920456e726f6c\n        /* \"#utility.yul\":16897:16899   */\n      0x40\n        /* \"#utility.yul\":16882:16900   */\n      dup3\n      add\n        /* \"#utility.yul\":16875:16937   */\n      mstore\n      shl(0xe1, 0x3632b217)\n        /* \"#utility.yul\":16968:16970   */\n      0x60\n        /* \"#utility.yul\":16953:16971   */\n      dup3\n      add\n        /* \"#utility.yul\":16946:16980   */\n      mstore\n        /* \"#utility.yul\":17012:17015   */\n      0x80\n        /* \"#utility.yul\":16997:17016   */\n      add\n      swap1\n        /* \"#utility.yul\":16796:17022   */\n      jump\t// out\n        /* \"#utility.yul\":17385:17784   */\n    tag_249:\n        /* \"#utility.yul\":17587:17589   */\n      0x20\n        /* \"#utility.yul\":17569:17590   */\n      dup1\n      dup3\n      mstore\n        /* \"#utility.yul\":17626:17628   */\n      0x23\n        /* \"#utility.yul\":17606:17624   */\n      swap1\n      dup3\n      add\n        /* \"#utility.yul\":17599:17629   */\n      mstore\n        /* \"#utility.yul\":17665:17699   */\n      0x4548522d52442d30323a20446f63746f7220616c726561647920456e726f6c6c\n        /* \"#utility.yul\":17660:17662   */\n      0x40\n        /* \"#utility.yul\":17645:17663   */\n      dup3\n      add\n        /* \"#utility.yul\":17638:17700   */\n      mstore\n      shl(0xe9, 0x32b217)\n        /* \"#utility.yul\":17731:17733   */\n      0x60\n        /* \"#utility.yul\":17716:17734   */\n      dup3\n      add\n        /* \"#utility.yul\":17709:17742   */\n      mstore\n        /* \"#utility.yul\":17774:17777   */\n      0x80\n        /* \"#utility.yul\":17759:17778   */\n      add\n      swap1\n        /* \"#utility.yul\":17559:17784   */\n      jump\t// out\n        /* \"#utility.yul\":17789:18189   */\n    tag_291:\n        /* \"#utility.yul\":17991:17993   */\n      0x20\n        /* \"#utility.yul\":17973:17994   */\n      dup1\n      dup3\n      mstore\n        /* \"#utility.yul\":18030:18032   */\n      0x24\n        /* \"#utility.yul\":18010:18028   */\n      swap1\n      dup3\n      add\n        /* \"#utility.yul\":18003:18033   */\n      mstore\n        /* \"#utility.yul\":18069:18103   */\n      0x4548522d52502d30313a2050617469656e7420616c726561647920456e726f6c\n        /* \"#utility.yul\":18064:18066   */\n      0x40\n        /* \"#utility.yul\":18049:18067   */\n      dup3\n      add\n        /* \"#utility.yul\":18042:18104   */\n      mstore\n      shl(0xe1, 0x3632b217)\n        /* \"#utility.yul\":18135:18137   */\n      0x60\n        /* \"#utility.yul\":18120:18138   */\n      dup3\n      add\n        /* \"#utility.yul\":18113:18147   */\n      mstore\n        /* \"#utility.yul\":18179:18182   */\n      0x80\n        /* \"#utility.yul\":18164:18183   */\n      add\n      swap1\n        /* \"#utility.yul\":17963:18189   */\n      jump\t// out\n        /* \"#utility.yul\":18376:18738   */\n    tag_272:\n        /* \"#utility.yul\":18581:18587   */\n      dup4\n        /* \"#utility.yul\":18570:18579   */\n      dup2\n        /* \"#utility.yul\":18563:18588   */\n      mstore\n        /* \"#utility.yul\":18624:18626   */\n      0x60\n        /* \"#utility.yul\":18619:18621   */\n      0x20\n        /* \"#utility.yul\":18608:18617   */\n      dup3\n        /* \"#utility.yul\":18604:18622   */\n      add\n        /* \"#utility.yul\":18597:18627   */\n      mstore\n        /* \"#utility.yul\":18544:18548   */\n      0x00\n        /* \"#utility.yul\":18644:18689   */\n      tag_484\n        /* \"#utility.yul\":18685:18687   */\n      0x60\n        /* \"#utility.yul\":18674:18683   */\n      dup4\n        /* \"#utility.yul\":18670:18688   */\n      add\n        /* \"#utility.yul\":18662:18668   */\n      dup6\n        /* \"#utility.yul\":18644:18689   */\n      tag_424\n      jump\t// in\n    tag_484:\n        /* \"#utility.yul\":18636:18689   */\n      swap1\n      pop\n        /* \"#utility.yul\":18725:18731   */\n      dup3\n        /* \"#utility.yul\":18720:18722   */\n      0x40\n        /* \"#utility.yul\":18709:18718   */\n      dup4\n        /* \"#utility.yul\":18705:18723   */\n      add\n        /* \"#utility.yul\":18698:18732   */\n      mstore\n        /* \"#utility.yul\":18553:18738   */\n      swap5\n      swap4\n      pop\n      pop\n      pop\n      pop\n      jump\t// out\n        /* \"#utility.yul\":20874:21132   */\n    tag_427:\n        /* \"#utility.yul\":20946:20947   */\n      0x00\n        /* \"#utility.yul\":20956:21069   */\n    tag_491:\n        /* \"#utility.yul\":20970:20976   */\n      dup4\n        /* \"#utility.yul\":20967:20968   */\n      dup2\n        /* \"#utility.yul\":20964:20977   */\n      lt\n        /* \"#utility.yul\":20956:21069   */\n      iszero\n      tag_493\n      jumpi\n        /* \"#utility.yul\":21046:21057   */\n      dup2\n      dup2\n      add\n        /* \"#utility.yul\":21040:21058   */\n      mload\n        /* \"#utility.yul\":21027:21038   */\n      dup4\n      dup3\n      add\n        /* \"#utility.yul\":21020:21059   */\n      mstore\n        /* \"#utility.yul\":20992:20994   */\n      0x20\n        /* \"#utility.yul\":20985:20995   */\n      add\n        /* \"#utility.yul\":20956:21069   */\n      jump(tag_491)\n    tag_493:\n        /* \"#utility.yul\":21087:21093   */\n      dup4\n        /* \"#utility.yul\":21084:21085   */\n      dup2\n        /* \"#utility.yul\":21081:21094   */\n      gt\n        /* \"#utility.yul\":21078:21080   */\n      iszero\n      tag_494\n      jumpi\n        /* \"#utility.yul\":21122:21123   */\n      0x00\n        /* \"#utility.yul\":21113:21119   */\n      dup5\n        /* \"#utility.yul\":21108:21111   */\n      dup5\n        /* \"#utility.yul\":21104:21120   */\n      add\n        /* \"#utility.yul\":21097:21124   */\n      mstore\n        /* \"#utility.yul\":21078:21080   */\n    tag_494:\n      pop\n        /* \"#utility.yul\":20927:21132   */\n      pop\n      pop\n      pop\n      jump\t// out\n        /* \"#utility.yul\":21137:21517   */\n    tag_100:\n        /* \"#utility.yul\":21216:21217   */\n      0x01\n        /* \"#utility.yul\":21212:21224   */\n      dup2\n      dup2\n      shr\n      swap1\n        /* \"#utility.yul\":21259:21271   */\n      dup3\n      and\n      dup1\n        /* \"#utility.yul\":21280:21282   */\n      tag_496\n      jumpi\n        /* \"#utility.yul\":21334:21338   */\n      0x7f\n        /* \"#utility.yul\":21326:21332   */\n      dup3\n        /* \"#utility.yul\":21322:21339   */\n      and\n        /* \"#utility.yul\":21312:21339   */\n      swap2\n      pop\n        /* \"#utility.yul\":21280:21282   */\n    tag_496:\n        /* \"#utility.yul\":21387:21389   */\n      0x20\n        /* \"#utility.yul\":21379:21385   */\n      dup3\n        /* \"#utility.yul\":21376:21390   */\n      lt\n        /* \"#utility.yul\":21356:21374   */\n      dup2\n        /* \"#utility.yul\":21353:21391   */\n      eq\n        /* \"#utility.yul\":21350:21352   */\n      iszero\n      tag_497\n      jumpi\n        /* \"#utility.yul\":21433:21443   */\n      0x4e487b71\n        /* \"#utility.yul\":21428:21431   */\n      0xe0\n        /* \"#utility.yul\":21424:21444   */\n      shl\n        /* \"#utility.yul\":21421:21422   */\n      0x00\n        /* \"#utility.yul\":21414:21445   */\n      mstore\n        /* \"#utility.yul\":21468:21472   */\n      0x22\n        /* \"#utility.yul\":21465:21466   */\n      0x04\n        /* \"#utility.yul\":21458:21473   */\n      mstore\n        /* \"#utility.yul\":21496:21500   */\n      0x24\n        /* \"#utility.yul\":21493:21494   */\n      0x00\n        /* \"#utility.yul\":21486:21501   */\n      revert\n        /* \"#utility.yul\":21350:21352   */\n    tag_497:\n      pop\n        /* \"#utility.yul\":21192:21517   */\n      swap2\n      swap1\n      pop\n      jump\t// out\n        /* \"#utility.yul\":21522:21758   */\n    tag_160:\n        /* \"#utility.yul\":21561:21564   */\n      0x00\n      not(0x00)\n        /* \"#utility.yul\":21582:21599   */\n      dup3\n      eq\n        /* \"#utility.yul\":21579:21581   */\n      iszero\n      tag_499\n      jumpi\n      shl(0xe0, 0x4e487b71)\n        /* \"#utility.yul\":21622:21655   */\n      dup2\n      mstore\n        /* \"#utility.yul\":21678:21682   */\n      0x11\n        /* \"#utility.yul\":21675:21676   */\n      0x04\n        /* \"#utility.yul\":21668:21683   */\n      mstore\n        /* \"#utility.yul\":21708:21712   */\n      0x24\n        /* \"#utility.yul\":21629:21632   */\n      dup2\n        /* \"#utility.yul\":21696:21713   */\n      revert\n        /* \"#utility.yul\":21579:21581   */\n    tag_499:\n      pop\n        /* \"#utility.yul\":21750:21751   */\n      0x01\n        /* \"#utility.yul\":21739:21752   */\n      add\n      swap1\n        /* \"#utility.yul\":21569:21758   */\n      jump\t// out\n        /* \"#utility.yul\":21763:21890   */\n    tag_460:\n        /* \"#utility.yul\":21824:21834   */\n      0x4e487b71\n        /* \"#utility.yul\":21819:21822   */\n      0xe0\n        /* \"#utility.yul\":21815:21835   */\n      shl\n        /* \"#utility.yul\":21812:21813   */\n      0x00\n        /* \"#utility.yul\":21805:21836   */\n      mstore\n        /* \"#utility.yul\":21855:21859   */\n      0x21\n        /* \"#utility.yul\":21852:21853   */\n      0x04\n        /* \"#utility.yul\":21845:21860   */\n      mstore\n        /* \"#utility.yul\":21879:21883   */\n      0x24\n        /* \"#utility.yul\":21876:21877   */\n      0x00\n        /* \"#utility.yul\":21869:21884   */\n      revert\n        /* \"#utility.yul\":21895:22022   */\n    tag_359:\n        /* \"#utility.yul\":21956:21966   */\n      0x4e487b71\n        /* \"#utility.yul\":21951:21954   */\n      0xe0\n        /* \"#utility.yul\":21947:21967   */\n      shl\n        /* \"#utility.yul\":21944:21945   */\n      0x00\n        /* \"#utility.yul\":21937:21968   */\n      mstore\n        /* \"#utility.yul\":21987:21991   */\n      0x41\n        /* \"#utility.yul\":21984:21985   */\n      0x04\n        /* \"#utility.yul\":21977:21992   */\n      mstore\n        /* \"#utility.yul\":22011:22015   */\n      0x24\n        /* \"#utility.yul\":22008:22009   */\n      0x00\n        /* \"#utility.yul\":22001:22016   */\n      revert\n        /* \"#utility.yul\":22027:22132   */\n    tag_353:\n        /* \"#utility.yul\":22106:22107   */\n      0x02\n        /* \"#utility.yul\":22099:22104   */\n      dup2\n        /* \"#utility.yul\":22096:22108   */\n      lt\n        /* \"#utility.yul\":22086:22088   */\n      tag_503\n      jumpi\n        /* \"#utility.yul\":22122:22123   */\n      0x00\n        /* \"#utility.yul\":22119:22120   */\n      dup1\n        /* \"#utility.yul\":22112:22124   */\n      revert\n        /* \"#utility.yul\":22086:22088   */\n    tag_503:\n        /* \"#utility.yul\":22076:22132   */\n      pop\n      jump\t// out\n    stop\n    data_f1783972c13bbde284b8765b8e27686842dfd940022613858bd0f693b0907129 1041037d4b3ee5730fce647ebd981cd0fd8864f61cd34868ef88a3fa6af64721\n\n    auxdata: 0xa26469706673582212202f271b8fce576efcb21b7e27b8a746516f62ef39ed957caf4b0eb97dbecd1ef864736f6c63430008040033\n}\n",
				"bytecode": {
					"linkReferences": {},
					"object": "608060405234801561001057600080fd5b506129a4806100206000396000f3fe608060405234801561001057600080fd5b50600436106101005760003560e01c8063cbd46fa311610097578063e078a1c611610066578063e078a1c614610264578063edef704914610277578063f60b48cb1461028a578063f75be4eb146102c357600080fd5b8063cbd46fa314610208578063d1bbf4e01461022b578063d73497051461023e578063db3e39761461025157600080fd5b80634fcd407a116100d35780634fcd407a14610181578063764b6b38146101bf578063a269b418146101d2578063c977baf3146101e557600080fd5b8063021bf487146101055780630a77f6b01461011a5780632990bc6f1461014a5780632ee8e6391461016e575b600080fd5b6101186101133660046123a8565b6102e7565b005b61012d6101283660046122a9565b610345565b6040516101419897969594939291906125a9565b60405180910390f35b61015d6101583660046122a9565b610637565b604051610141959493929190612547565b61011861017c3660046122c1565b610888565b6101af61018f36600461234f565b600660209081526000928352604080842090915290825290205460ff1681565b6040519015158152602001610141565b6101186101cd3660046123d3565b610a25565b6101186101e0366004612370565b610aec565b6101f86101f33660046122a9565b610d78565b60405161014194939291906126b1565b61021b61021636600461234f565b610eb0565b60405161014194939291906124fa565b6101186102393660046122c1565b61107e565b61011861024c36600461222d565b6111f3565b61011861025f366004612075565b61130d565b610118610272366004612173565b611771565b610118610285366004611fb8565b6118ba565b6102b561029836600461234f565b600460209081526000928352604080842090915290825290205481565b604051908152602001610141565b6102d66102d13660046122a9565b611c1c565b604051610141959493929190612651565b600083815260208190526040902060040154839060ff1615156001146103285760405162461bcd60e51b815260040161031f9061275c565b60405180910390fd5b506000928352600460209081526040808520938552929052912055565b600160205260009081526040902080548190610360906128b0565b80601f016020809104026020016040519081016040528092919081815260200182805461038c906128b0565b80156103d95780601f106103ae576101008083540402835291602001916103d9565b820191906000526020600020905b8154815290600101906020018083116103bc57829003601f168201915b5050505050908060010180546103ee906128b0565b80601f016020809104026020016040519081016040528092919081815260200182805461041a906128b0565b80156104675780601f1061043c57610100808354040283529160200191610467565b820191906000526020600020905b81548152906001019060200180831161044a57829003601f168201915b50505050509080600201805461047c906128b0565b80601f01602080910402602001604051908101604052809291908181526020018280546104a8906128b0565b80156104f55780601f106104ca576101008083540402835291602001916104f5565b820191906000526020600020905b8154815290600101906020018083116104d857829003601f168201915b50505050509080600301805461050a906128b0565b80601f0160208091040260200160405190810160405280929190818152602001828054610536906128b0565b80156105835780601f1061055857610100808354040283529160200191610583565b820191906000526020600020905b81548152906001019060200180831161056657829003601f168201915b505050505090806004018054610598906128b0565b80601f01602080910402602001604051908101604052809291908181526020018280546105c4906128b0565b80156106115780601f106105e657610100808354040283529160200191610611565b820191906000526020600020905b8154815290600101906020018083116105f457829003601f168201915b5050506005909301549192505060ff808216916101008104821691620100009091041688565b600060208190529081526040902080548190610652906128b0565b80601f016020809104026020016040519081016040528092919081815260200182805461067e906128b0565b80156106cb5780601f106106a0576101008083540402835291602001916106cb565b820191906000526020600020905b8154815290600101906020018083116106ae57829003601f168201915b5050505050908060010180546106e0906128b0565b80601f016020809104026020016040519081016040528092919081815260200182805461070c906128b0565b80156107595780601f1061072e57610100808354040283529160200191610759565b820191906000526020600020905b81548152906001019060200180831161073c57829003601f168201915b50505050509080600201805461076e906128b0565b80601f016020809104026020016040519081016040528092919081815260200182805461079a906128b0565b80156107e75780601f106107bc576101008083540402835291602001916107e7565b820191906000526020600020905b8154815290600101906020018083116107ca57829003601f168201915b5050505050908060030180546107fc906128b0565b80601f0160208091040260200160405190810160405280929190818152602001828054610828906128b0565b80156108755780601f1061084a57610100808354040283529160200191610875565b820191906000526020600020905b81548152906001019060200180831161085857829003601f168201915b5050506004909301549192505060ff1685565b600084815260208190526040902060040154849060ff1615156001146108c05760405162461bcd60e51b815260040161031f9061275c565b60005b600281116109b85784516020808701919091206000888152600583526040808220858352909352829020915190916108fa91612430565b604051809103902014156109a6576040805160808101825286815260208082018790528183018690526001606083015260008981526005825283812085825282529290922081518051929391926109549284920190611e6a565b50602082810151805161096d9260018501920190611e6a565b5060408201518051610989916002840191602090910190611e6a565b50606091909101516003909101805460ff19169115159190911790555b806109b0816128eb565b9150506108c3565b5060008051602061294f8339815191528542604051610a169291909182526060602083018190526017908301527f4361726567697665722044617461206d6f6469666965640000000000000000006080830152604082015260a00190565b60405180910390a15050505050565b600084815260208190526040902060040154849060ff161515600114610a5d5760405162461bcd60e51b815260040161031f9061275c565b600085815260066020908152604080832087845290915290205460ff161515600114610acb5760405162461bcd60e51b815260206004820152601d60248201527f4e6f206163636573732070726f76696465642062792070617469656e74000000604482015260640161031f565b50600093845260046020908152604080862093865292905292209190915550565b60008281526001602081905260409091206005015483916201000090910460ff16151514610b545760405162461bcd60e51b8152602060048201526015602482015274111bd8dd1bdc88139bdd081c9959da5cdd195c9959605a1b604482015260640161031f565b60606000836001811115610b7857634e487b7160e01b600052602160045260246000fd5b1415610c4c57600085815260066020908152604080832087845290915290205460ff1615610bf45760405162461bcd60e51b8152602060048201526024808201527f4548522d41432d30313a2041636365737320686164206265656e2070726f76696044820152636465642160e01b606482015260840161031f565b506000848152600660209081526040808320868452825291829020805460ff191660011790558151808301909252601c82527f4163636573732069732070726f766964656420746f20646f63746f7200000000908201525b6001836001811115610c6e57634e487b7160e01b600052602160045260246000fd5b1415610d4357600085815260066020908152604080832087845290915290205460ff161515600114610cee5760405162461bcd60e51b815260206004820152602360248201527f4548522d41432d30323a2041636365737320776173206e6f742070726f76696460448201526265642160e81b606482015260840161031f565b506000848152600660209081526040808320868452825291829020805460ff191690558151808301909252601b82527f416363657373206973207265766f6b656420746f20646f63746f720000000000908201525b7ff4702a3b8b6c43f2fa41588e64688a0c0bc61f411971bd5ec9c64b828d4bccb081868642604051610a1694939291906126ea565b600360205260009081526040902080548190610d93906128b0565b80601f0160208091040260200160405190810160405280929190818152602001828054610dbf906128b0565b8015610e0c5780601f10610de157610100808354040283529160200191610e0c565b820191906000526020600020905b815481529060010190602001808311610def57829003601f168201915b505050505090806001018054610e21906128b0565b80601f0160208091040260200160405190810160405280929190818152602001828054610e4d906128b0565b8015610e9a5780601f10610e6f57610100808354040283529160200191610e9a565b820191906000526020600020905b815481529060010190602001808311610e7d57829003601f168201915b5050505050908060020154908060030154905084565b6005602090815260009283526040808420909152908252902080548190610ed6906128b0565b80601f0160208091040260200160405190810160405280929190818152602001828054610f02906128b0565b8015610f4f5780601f10610f2457610100808354040283529160200191610f4f565b820191906000526020600020905b815481529060010190602001808311610f3257829003601f168201915b505050505090806001018054610f64906128b0565b80601f0160208091040260200160405190810160405280929190818152602001828054610f90906128b0565b8015610fdd5780601f10610fb257610100808354040283529160200191610fdd565b820191906000526020600020905b815481529060010190602001808311610fc057829003601f168201915b505050505090806002018054610ff2906128b0565b80601f016020809104026020016040519081016040528092919081815260200182805461101e906128b0565b801561106b5780601f106110405761010080835404028352916020019161106b565b820191906000526020600020905b81548152906001019060200180831161104e57829003601f168201915b5050506003909301549192505060ff1684565b600084815260208190526040902060040154849060ff1615156001146110b65760405162461bcd60e51b815260040161031f9061275c565b60005b6002811161119557600086815260056020908152604080832084845290915290206003015460ff16611183576040805160808101825286815260208082018790528183018690526001606083015260008981526005825283812085825282529290922081518051929391926111319284920190611e6a565b50602082810151805161114a9260018501920190611e6a565b5060408201518051611166916002840191602090910190611e6a565b50606091909101516003909101805460ff19169115159190911790555b8061118d816128eb565b9150506110b9565b5060008051602061294f8339815191528542604051610a169291909182526060602083018190526019908301527f43617265676976657220446174612072656769737465726564000000000000006080830152604082015260a00190565b600081815260208190526040902060040154819060ff16151560011461122b5760405162461bcd60e51b815260040161031f9061275c565b6040805160808101825287815260208082018890528183018790526060820186905260008581526003825292909220815180519293919261126f9284920190611e6a565b5060208281015180516112889260018501920190611e6a565b50604082015181600201556060820151816003015590505060008051602061294f83398151915282426040516112fd929190918252606060208301819052601b908301527f50617469656e74204865616c74682044617461207570646174656400000000006080830152604082015260a00190565b60405180910390a1505050505050565b600086886040516020016113229291906124cb565b60408051601f19818403018152919052805160209091012090506060600083600181111561136057634e487b7160e01b600052602160045260246000fd5b14156115da578880519060200120600160008481526020019081526020016000206001016040516113919190612430565b604051809103902014156113b75760405162461bcd60e51b815260040161031f90612719565b8780519060200120600160008481526020019081526020016000206002016040516113e29190612430565b604051809103902014156114085760405162461bcd60e51b815260040161031f906127d0565b6040518061010001604052808b81526020018a815260200189815260200188815260200187815260200186600481111561145257634e487b7160e01b600052602160045260246000fd5b815260200185600281111561147757634e487b7160e01b600052602160045260246000fd5b8152600160209182018190526000858152908252604090208251805191926114a492849290910190611e6a565b5060208281015180516114bd9260018501920190611e6a565b50604082015180516114d9916002840191602090910190611e6a565b50606082015180516114f5916003840191602090910190611e6a565b5060808201518051611511916004840191602090910190611e6a565b5060a082015160058201805460ff1916600183600481111561154357634e487b7160e01b600052602160045260246000fd5b021790555060c082015160058201805461ff00191661010083600281111561157b57634e487b7160e01b600052602160045260246000fd5b021790555060e0919091015160059091018054911515620100000262ff0000199092169190911790555060408051808201909152601881527f446f63746f7220526567697374726174696f6e20446f6e65000000000000000060208201525b60018360018111156115fc57634e487b7160e01b600052602160045260246000fd5b141561173c5788805190602001206001600084815260200190815260200160002060010160405161162d9190612430565b6040518091039020146116525760405162461bcd60e51b815260040161031f90612719565b87805190602001206001600084815260200190815260200160002060020160405161167d9190612430565b6040518091039020146116a25760405162461bcd60e51b815260040161031f906127d0565b60008281526001602090815260409091208b516116c1928d0190611e6a565b5060008281526001602081815260409092208b516116e7939190920191908c0190611e6a565b506000828152600160209081526040909120895161170d926002909201918b0190611e6a565b5050604080518082019091526015815274111bd8dd1bdc88149958dbdc9908155c19185d1959605a1b60208201525b60008051602061294f83398151915282824260405161175d93929190612857565b60405180910390a150505050505050505050565b600081815260208190526040902060040154819060ff1615156001146117a95760405162461bcd60e51b815260040161031f9061275c565b6040805160a081018252888152602080820189905281830188905260608201879052608082018690526000858152600282529290922081518051929391926117f49284920190611e6a565b50602082810151805161180d9260018501920190611e6a565b5060408201518051611829916002840191602090910190611e6a565b5060608201518051611845916003840191602090910190611e6a565b5060809182015160049091015560408051848152606060208201819052601d908201527f50617469656e74204c6f636174696f6e2044617461207570646174656400000092810192909252429082015260008051602061294f8339815191529060a0015b60405180910390a150505050505050565b600083856040516020016118cf9291906124cb565b60408051601f19818403018152919052805160209091012090506060600083600181111561190d57634e487b7160e01b600052602160045260246000fd5b1415611aa057858051906020012060008084815260200190815260200160002060010160405161193d9190612430565b604051809103902014156119635760405162461bcd60e51b815260040161031f90612813565b848051906020012060008084815260200190815260200160002060020160405161198d9190612430565b604051809103902014156119b35760405162461bcd60e51b815260040161031f9061278c565b6040805160a0810182528881526020808201899052818301889052606082018790526001608083015260008581528082529290922081518051929391926119fd9284920190611e6a565b506020828101518051611a169260018501920190611e6a565b5060408201518051611a32916002840191602090910190611e6a565b5060608201518051611a4e916003840191602090910190611e6a565b50608091909101516004909101805460ff19169115159190911790555060408051808201909152601981527f50617469656e7420526567697374726174696f6e20446f6e650000000000000060208201525b6001836001811115611ac257634e487b7160e01b600052602160045260246000fd5b1415611bfb578580519060200120600080848152602001908152602001600020600101604051611af29190612430565b604051809103902014611b175760405162461bcd60e51b815260040161031f90612813565b8480519060200120600080848152602001908152602001600020600201604051611b419190612430565b604051809103902014611b665760405162461bcd60e51b815260040161031f9061278c565b6000828152602081815260409091208851611b83928a0190611e6a565b506000828152602081815260409091208751611ba792600190920191890190611e6a565b506000828152602081815260409091208651611bcb92600290920191880190611e6a565b505060408051808201909152601681527514185d1a595b9d08149958dbdc9908155c19185d195960521b60208201525b60008051602061294f8339815191528282426040516118a993929190612857565b600260205260009081526040902080548190611c37906128b0565b80601f0160208091040260200160405190810160405280929190818152602001828054611c63906128b0565b8015611cb05780601f10611c8557610100808354040283529160200191611cb0565b820191906000526020600020905b815481529060010190602001808311611c9357829003601f168201915b505050505090806001018054611cc5906128b0565b80601f0160208091040260200160405190810160405280929190818152602001828054611cf1906128b0565b8015611d3e5780601f10611d1357610100808354040283529160200191611d3e565b820191906000526020600020905b815481529060010190602001808311611d2157829003601f168201915b505050505090806002018054611d53906128b0565b80601f0160208091040260200160405190810160405280929190818152602001828054611d7f906128b0565b8015611dcc5780601f10611da157610100808354040283529160200191611dcc565b820191906000526020600020905b815481529060010190602001808311611daf57829003601f168201915b505050505090806003018054611de1906128b0565b80601f0160208091040260200160405190810160405280929190818152602001828054611e0d906128b0565b8015611e5a5780601f10611e2f57610100808354040283529160200191611e5a565b820191906000526020600020905b815481529060010190602001808311611e3d57829003601f168201915b5050505050908060040154905085565b828054611e76906128b0565b90600052602060002090601f016020900481019282611e985760008555611ede565b82601f10611eb157805160ff1916838001178555611ede565b82800160010185558215611ede579182015b82811115611ede578251825591602001919060010190611ec3565b50611eea929150611eee565b5090565b5b80821115611eea5760008155600101611eef565b803560058110611f1257600080fd5b919050565b803560038110611f1257600080fd5b8035611f128161293e565b600082601f830112611f41578081fd5b813567ffffffffffffffff80821115611f5c57611f5c612928565b604051601f8301601f19908116603f01168101908282118183101715611f8457611f84612928565b81604052838152866020858801011115611f9c578485fd5b8360208701602083013792830160200193909352509392505050565b600080600080600060a08688031215611fcf578081fd5b853567ffffffffffffffff80821115611fe6578283fd5b611ff289838a01611f31565b96506020880135915080821115612007578283fd5b61201389838a01611f31565b95506040880135915080821115612028578283fd5b61203489838a01611f31565b94506060880135915080821115612049578283fd5b5061205688828901611f31565b92505060808601356120678161293e565b809150509295509295909350565b600080600080600080600080610100898b031215612091578283fd5b883567ffffffffffffffff808211156120a8578485fd5b6120b48c838d01611f31565b995060208b01359150808211156120c9578485fd5b6120d58c838d01611f31565b985060408b01359150808211156120ea578485fd5b6120f68c838d01611f31565b975060608b013591508082111561210b578485fd5b6121178c838d01611f31565b965060808b013591508082111561212c578485fd5b506121398b828c01611f31565b94505061214860a08a01611f03565b925061215660c08a01611f17565b915061216460e08a01611f26565b90509295985092959890939650565b60008060008060008060c0878903121561218b578182fd5b863567ffffffffffffffff808211156121a2578384fd5b6121ae8a838b01611f31565b975060208901359150808211156121c3578384fd5b6121cf8a838b01611f31565b965060408901359150808211156121e4578384fd5b6121f08a838b01611f31565b95506060890135915080821115612205578384fd5b5061221289828a01611f31565b9350506080870135915060a087013590509295509295509295565b600080600080600060a08688031215612244578081fd5b853567ffffffffffffffff8082111561225b578283fd5b61226789838a01611f31565b9650602088013591508082111561227c578283fd5b5061228988828901611f31565b959895975050505060408401359360608101359360809091013592509050565b6000602082840312156122ba578081fd5b5035919050565b600080600080608085870312156122d6578384fd5b84359350602085013567ffffffffffffffff808211156122f4578485fd5b61230088838901611f31565b94506040870135915080821115612315578384fd5b61232188838901611f31565b93506060870135915080821115612336578283fd5b5061234387828801611f31565b91505092959194509250565b60008060408385031215612361578182fd5b50508035926020909101359150565b600080600060608486031215612384578283fd5b8335925060208401359150604084013561239d8161293e565b809150509250925092565b6000806000606084860312156123bc578283fd5b505081359360208301359350604090920135919050565b600080600080608085870312156123e8578182fd5b5050823594602084013594506040840135936060013592509050565b6000815180845261241c816020860160208601612880565b601f01601f19169290920160200192915050565b600080835482600182811c91508083168061244c57607f831692505b602080841082141561246c57634e487b7160e01b87526022600452602487fd5b8180156124805760018114612491576124bd565b60ff198616895284890196506124bd565b60008a815260209020885b868110156124b55781548b82015290850190830161249c565b505084890196505b509498975050505050505050565b600083516124dd818460208801612880565b8351908301906124f1818360208801612880565b01949350505050565b60808152600061250d6080830187612404565b828103602084015261251f8187612404565b905082810360408401526125338186612404565b915050821515606083015295945050505050565b60a08152600061255a60a0830188612404565b828103602084015261256c8188612404565b905082810360408401526125808187612404565b905082810360608401526125948186612404565b91505082151560808301529695505050505050565b60006101008083526125bd8184018c612404565b905082810360208401526125d1818b612404565b905082810360408401526125e5818a612404565b905082810360608401526125f98189612404565b9050828103608084015261260d8188612404565b9150506005851061262057612620612912565b8460a08301526003841061263657612636612912565b8360c083015282151560e08301529998505050505050505050565b60a08152600061266460a0830188612404565b82810360208401526126768188612404565b9050828103604084015261268a8187612404565b9050828103606084015261269e8186612404565b9150508260808301529695505050505050565b6080815260006126c46080830187612404565b82810360208401526126d68187612404565b604084019590955250506060015292915050565b6080815260006126fd6080830187612404565b6020830195909552506040810192909252606090910152919050565b60208082526023908201527f4548522d52442d30313a20446f63746f7220616c726561647920456e726f6c6c60408201526232b21760e91b606082015260800190565b60208082526016908201527514185d1a595b9d08139bdd081c9959da5cdd195c995960521b604082015260600190565b60208082526024908201527f4548522d52502d30323a2050617469656e7420616c726561647920456e726f6c6040820152633632b21760e11b606082015260800190565b60208082526023908201527f4548522d52442d30323a20446f63746f7220616c726561647920456e726f6c6c60408201526232b21760e91b606082015260800190565b60208082526024908201527f4548522d52502d30313a2050617469656e7420616c726561647920456e726f6c6040820152633632b21760e11b606082015260800190565b8381526060602082015260006128706060830185612404565b9050826040830152949350505050565b60005b8381101561289b578181015183820152602001612883565b838111156128aa576000848401525b50505050565b600181811c908216806128c457607f821691505b602082108114156128e557634e487b7160e01b600052602260045260246000fd5b50919050565b600060001982141561290b57634e487b7160e01b81526011600452602481fd5b5060010190565b634e487b7160e01b600052602160045260246000fd5b634e487b7160e01b600052604160045260246000fd5b6002811061294b57600080fd5b5056fe1041037d4b3ee5730fce647ebd981cd0fd8864f61cd34868ef88a3fa6af64721a26469706673582212202f271b8fce576efcb21b7e27b8a746516f62ef39ed957caf4b0eb97dbecd1ef864736f6c63430008040033",
					"opcodes": "PUSH1 0x80 PUSH1 0x40 MSTORE CALLVALUE DUP1 ISZERO PUSH2 0x10 JUMPI PUSH1 0x0 DUP1 REVERT JUMPDEST POP PUSH2 0x29A4 DUP1 PUSH2 0x20 PUSH1 0x0 CODECOPY PUSH1 0x0 RETURN INVALID PUSH1 0x80 PUSH1 0x40 MSTORE CALLVALUE DUP1 ISZERO PUSH2 0x10 JUMPI PUSH1 0x0 DUP1 REVERT JUMPDEST POP PUSH1 0x4 CALLDATASIZE LT PUSH2 0x100 JUMPI PUSH1 0x0 CALLDATALOAD PUSH1 0xE0 SHR DUP1 PUSH4 0xCBD46FA3 GT PUSH2 0x97 JUMPI DUP1 PUSH4 0xE078A1C6 GT PUSH2 0x66 JUMPI DUP1 PUSH4 0xE078A1C6 EQ PUSH2 0x264 JUMPI DUP1 PUSH4 0xEDEF7049 EQ PUSH2 0x277 JUMPI DUP1 PUSH4 0xF60B48CB EQ PUSH2 0x28A JUMPI DUP1 PUSH4 0xF75BE4EB EQ PUSH2 0x2C3 JUMPI PUSH1 0x0 DUP1 REVERT JUMPDEST DUP1 PUSH4 0xCBD46FA3 EQ PUSH2 0x208 JUMPI DUP1 PUSH4 0xD1BBF4E0 EQ PUSH2 0x22B JUMPI DUP1 PUSH4 0xD7349705 EQ PUSH2 0x23E JUMPI DUP1 PUSH4 0xDB3E3976 EQ PUSH2 0x251 JUMPI PUSH1 0x0 DUP1 REVERT JUMPDEST DUP1 PUSH4 0x4FCD407A GT PUSH2 0xD3 JUMPI DUP1 PUSH4 0x4FCD407A EQ PUSH2 0x181 JUMPI DUP1 PUSH4 0x764B6B38 EQ PUSH2 0x1BF JUMPI DUP1 PUSH4 0xA269B418 EQ PUSH2 0x1D2 JUMPI DUP1 PUSH4 0xC977BAF3 EQ PUSH2 0x1E5 JUMPI PUSH1 0x0 DUP1 REVERT JUMPDEST DUP1 PUSH4 0x21BF487 EQ PUSH2 0x105 JUMPI DUP1 PUSH4 0xA77F6B0 EQ PUSH2 0x11A JUMPI DUP1 PUSH4 0x2990BC6F EQ PUSH2 0x14A JUMPI DUP1 PUSH4 0x2EE8E639 EQ PUSH2 0x16E JUMPI JUMPDEST PUSH1 0x0 DUP1 REVERT JUMPDEST PUSH2 0x118 PUSH2 0x113 CALLDATASIZE PUSH1 0x4 PUSH2 0x23A8 JUMP JUMPDEST PUSH2 0x2E7 JUMP JUMPDEST STOP JUMPDEST PUSH2 0x12D PUSH2 0x128 CALLDATASIZE PUSH1 0x4 PUSH2 0x22A9 JUMP JUMPDEST PUSH2 0x345 JUMP JUMPDEST PUSH1 0x40 MLOAD PUSH2 0x141 SWAP9 SWAP8 SWAP7 SWAP6 SWAP5 SWAP4 SWAP3 SWAP2 SWAP1 PUSH2 0x25A9 JUMP JUMPDEST PUSH1 0x40 MLOAD DUP1 SWAP2 SUB SWAP1 RETURN JUMPDEST PUSH2 0x15D PUSH2 0x158 CALLDATASIZE PUSH1 0x4 PUSH2 0x22A9 JUMP JUMPDEST PUSH2 0x637 JUMP JUMPDEST PUSH1 0x40 MLOAD PUSH2 0x141 SWAP6 SWAP5 SWAP4 SWAP3 SWAP2 SWAP1 PUSH2 0x2547 JUMP JUMPDEST PUSH2 0x118 PUSH2 0x17C CALLDATASIZE PUSH1 0x4 PUSH2 0x22C1 JUMP JUMPDEST PUSH2 0x888 JUMP JUMPDEST PUSH2 0x1AF PUSH2 0x18F CALLDATASIZE PUSH1 0x4 PUSH2 0x234F JUMP JUMPDEST PUSH1 0x6 PUSH1 0x20 SWAP1 DUP2 MSTORE PUSH1 0x0 SWAP3 DUP4 MSTORE PUSH1 0x40 DUP1 DUP5 KECCAK256 SWAP1 SWAP2 MSTORE SWAP1 DUP3 MSTORE SWAP1 KECCAK256 SLOAD PUSH1 0xFF AND DUP2 JUMP JUMPDEST PUSH1 0x40 MLOAD SWAP1 ISZERO ISZERO DUP2 MSTORE PUSH1 0x20 ADD PUSH2 0x141 JUMP JUMPDEST PUSH2 0x118 PUSH2 0x1CD CALLDATASIZE PUSH1 0x4 PUSH2 0x23D3 JUMP JUMPDEST PUSH2 0xA25 JUMP JUMPDEST PUSH2 0x118 PUSH2 0x1E0 CALLDATASIZE PUSH1 0x4 PUSH2 0x2370 JUMP JUMPDEST PUSH2 0xAEC JUMP JUMPDEST PUSH2 0x1F8 PUSH2 0x1F3 CALLDATASIZE PUSH1 0x4 PUSH2 0x22A9 JUMP JUMPDEST PUSH2 0xD78 JUMP JUMPDEST PUSH1 0x40 MLOAD PUSH2 0x141 SWAP5 SWAP4 SWAP3 SWAP2 SWAP1 PUSH2 0x26B1 JUMP JUMPDEST PUSH2 0x21B PUSH2 0x216 CALLDATASIZE PUSH1 0x4 PUSH2 0x234F JUMP JUMPDEST PUSH2 0xEB0 JUMP JUMPDEST PUSH1 0x40 MLOAD PUSH2 0x141 SWAP5 SWAP4 SWAP3 SWAP2 SWAP1 PUSH2 0x24FA JUMP JUMPDEST PUSH2 0x118 PUSH2 0x239 CALLDATASIZE PUSH1 0x4 PUSH2 0x22C1 JUMP JUMPDEST PUSH2 0x107E JUMP JUMPDEST PUSH2 0x118 PUSH2 0x24C CALLDATASIZE PUSH1 0x4 PUSH2 0x222D JUMP JUMPDEST PUSH2 0x11F3 JUMP JUMPDEST PUSH2 0x118 PUSH2 0x25F CALLDATASIZE PUSH1 0x4 PUSH2 0x2075 JUMP JUMPDEST PUSH2 0x130D JUMP JUMPDEST PUSH2 0x118 PUSH2 0x272 CALLDATASIZE PUSH1 0x4 PUSH2 0x2173 JUMP JUMPDEST PUSH2 0x1771 JUMP JUMPDEST PUSH2 0x118 PUSH2 0x285 CALLDATASIZE PUSH1 0x4 PUSH2 0x1FB8 JUMP JUMPDEST PUSH2 0x18BA JUMP JUMPDEST PUSH2 0x2B5 PUSH2 0x298 CALLDATASIZE PUSH1 0x4 PUSH2 0x234F JUMP JUMPDEST PUSH1 0x4 PUSH1 0x20 SWAP1 DUP2 MSTORE PUSH1 0x0 SWAP3 DUP4 MSTORE PUSH1 0x40 DUP1 DUP5 KECCAK256 SWAP1 SWAP2 MSTORE SWAP1 DUP3 MSTORE SWAP1 KECCAK256 SLOAD DUP2 JUMP JUMPDEST PUSH1 0x40 MLOAD SWAP1 DUP2 MSTORE PUSH1 0x20 ADD PUSH2 0x141 JUMP JUMPDEST PUSH2 0x2D6 PUSH2 0x2D1 CALLDATASIZE PUSH1 0x4 PUSH2 0x22A9 JUMP JUMPDEST PUSH2 0x1C1C JUMP JUMPDEST PUSH1 0x40 MLOAD PUSH2 0x141 SWAP6 SWAP5 SWAP4 SWAP3 SWAP2 SWAP1 PUSH2 0x2651 JUMP JUMPDEST PUSH1 0x0 DUP4 DUP2 MSTORE PUSH1 0x20 DUP2 SWAP1 MSTORE PUSH1 0x40 SWAP1 KECCAK256 PUSH1 0x4 ADD SLOAD DUP4 SWAP1 PUSH1 0xFF AND ISZERO ISZERO PUSH1 0x1 EQ PUSH2 0x328 JUMPI PUSH1 0x40 MLOAD PUSH3 0x461BCD PUSH1 0xE5 SHL DUP2 MSTORE PUSH1 0x4 ADD PUSH2 0x31F SWAP1 PUSH2 0x275C JUMP JUMPDEST PUSH1 0x40 MLOAD DUP1 SWAP2 SUB SWAP1 REVERT JUMPDEST POP PUSH1 0x0 SWAP3 DUP4 MSTORE PUSH1 0x4 PUSH1 0x20 SWAP1 DUP2 MSTORE PUSH1 0x40 DUP1 DUP6 KECCAK256 SWAP4 DUP6 MSTORE SWAP3 SWAP1 MSTORE SWAP2 KECCAK256 SSTORE JUMP JUMPDEST PUSH1 0x1 PUSH1 0x20 MSTORE PUSH1 0x0 SWAP1 DUP2 MSTORE PUSH1 0x40 SWAP1 KECCAK256 DUP1 SLOAD DUP2 SWAP1 PUSH2 0x360 SWAP1 PUSH2 0x28B0 JUMP JUMPDEST DUP1 PUSH1 0x1F ADD PUSH1 0x20 DUP1 SWAP2 DIV MUL PUSH1 0x20 ADD PUSH1 0x40 MLOAD SWAP1 DUP2 ADD PUSH1 0x40 MSTORE DUP1 SWAP3 SWAP2 SWAP1 DUP2 DUP2 MSTORE PUSH1 0x20 ADD DUP3 DUP1 SLOAD PUSH2 0x38C SWAP1 PUSH2 0x28B0 JUMP JUMPDEST DUP1 ISZERO PUSH2 0x3D9 JUMPI DUP1 PUSH1 0x1F LT PUSH2 0x3AE JUMPI PUSH2 0x100 DUP1 DUP4 SLOAD DIV MUL DUP4 MSTORE SWAP2 PUSH1 0x20 ADD SWAP2 PUSH2 0x3D9 JUMP JUMPDEST DUP3 ADD SWAP2 SWAP1 PUSH1 0x0 MSTORE PUSH1 0x20 PUSH1 0x0 KECCAK256 SWAP1 JUMPDEST DUP2 SLOAD DUP2 MSTORE SWAP1 PUSH1 0x1 ADD SWAP1 PUSH1 0x20 ADD DUP1 DUP4 GT PUSH2 0x3BC JUMPI DUP3 SWAP1 SUB PUSH1 0x1F AND DUP3 ADD SWAP2 JUMPDEST POP POP POP POP POP SWAP1 DUP1 PUSH1 0x1 ADD DUP1 SLOAD PUSH2 0x3EE SWAP1 PUSH2 0x28B0 JUMP JUMPDEST DUP1 PUSH1 0x1F ADD PUSH1 0x20 DUP1 SWAP2 DIV MUL PUSH1 0x20 ADD PUSH1 0x40 MLOAD SWAP1 DUP2 ADD PUSH1 0x40 MSTORE DUP1 SWAP3 SWAP2 SWAP1 DUP2 DUP2 MSTORE PUSH1 0x20 ADD DUP3 DUP1 SLOAD PUSH2 0x41A SWAP1 PUSH2 0x28B0 JUMP JUMPDEST DUP1 ISZERO PUSH2 0x467 JUMPI DUP1 PUSH1 0x1F LT PUSH2 0x43C JUMPI PUSH2 0x100 DUP1 DUP4 SLOAD DIV MUL DUP4 MSTORE SWAP2 PUSH1 0x20 ADD SWAP2 PUSH2 0x467 JUMP JUMPDEST DUP3 ADD SWAP2 SWAP1 PUSH1 0x0 MSTORE PUSH1 0x20 PUSH1 0x0 KECCAK256 SWAP1 JUMPDEST DUP2 SLOAD DUP2 MSTORE SWAP1 PUSH1 0x1 ADD SWAP1 PUSH1 0x20 ADD DUP1 DUP4 GT PUSH2 0x44A JUMPI DUP3 SWAP1 SUB PUSH1 0x1F AND DUP3 ADD SWAP2 JUMPDEST POP POP POP POP POP SWAP1 DUP1 PUSH1 0x2 ADD DUP1 SLOAD PUSH2 0x47C SWAP1 PUSH2 0x28B0 JUMP JUMPDEST DUP1 PUSH1 0x1F ADD PUSH1 0x20 DUP1 SWAP2 DIV MUL PUSH1 0x20 ADD PUSH1 0x40 MLOAD SWAP1 DUP2 ADD PUSH1 0x40 MSTORE DUP1 SWAP3 SWAP2 SWAP1 DUP2 DUP2 MSTORE PUSH1 0x20 ADD DUP3 DUP1 SLOAD PUSH2 0x4A8 SWAP1 PUSH2 0x28B0 JUMP JUMPDEST DUP1 ISZERO PUSH2 0x4F5 JUMPI DUP1 PUSH1 0x1F LT PUSH2 0x4CA JUMPI PUSH2 0x100 DUP1 DUP4 SLOAD DIV MUL DUP4 MSTORE SWAP2 PUSH1 0x20 ADD SWAP2 PUSH2 0x4F5 JUMP JUMPDEST DUP3 ADD SWAP2 SWAP1 PUSH1 0x0 MSTORE PUSH1 0x20 PUSH1 0x0 KECCAK256 SWAP1 JUMPDEST DUP2 SLOAD DUP2 MSTORE SWAP1 PUSH1 0x1 ADD SWAP1 PUSH1 0x20 ADD DUP1 DUP4 GT PUSH2 0x4D8 JUMPI DUP3 SWAP1 SUB PUSH1 0x1F AND DUP3 ADD SWAP2 JUMPDEST POP POP POP POP POP SWAP1 DUP1 PUSH1 0x3 ADD DUP1 SLOAD PUSH2 0x50A SWAP1 PUSH2 0x28B0 JUMP JUMPDEST DUP1 PUSH1 0x1F ADD PUSH1 0x20 DUP1 SWAP2 DIV MUL PUSH1 0x20 ADD PUSH1 0x40 MLOAD SWAP1 DUP2 ADD PUSH1 0x40 MSTORE DUP1 SWAP3 SWAP2 SWAP1 DUP2 DUP2 MSTORE PUSH1 0x20 ADD DUP3 DUP1 SLOAD PUSH2 0x536 SWAP1 PUSH2 0x28B0 JUMP JUMPDEST DUP1 ISZERO PUSH2 0x583 JUMPI DUP1 PUSH1 0x1F LT PUSH2 0x558 JUMPI PUSH2 0x100 DUP1 DUP4 SLOAD DIV MUL DUP4 MSTORE SWAP2 PUSH1 0x20 ADD SWAP2 PUSH2 0x583 JUMP JUMPDEST DUP3 ADD SWAP2 SWAP1 PUSH1 0x0 MSTORE PUSH1 0x20 PUSH1 0x0 KECCAK256 SWAP1 JUMPDEST DUP2 SLOAD DUP2 MSTORE SWAP1 PUSH1 0x1 ADD SWAP1 PUSH1 0x20 ADD DUP1 DUP4 GT PUSH2 0x566 JUMPI DUP3 SWAP1 SUB PUSH1 0x1F AND DUP3 ADD SWAP2 JUMPDEST POP POP POP POP POP SWAP1 DUP1 PUSH1 0x4 ADD DUP1 SLOAD PUSH2 0x598 SWAP1 PUSH2 0x28B0 JUMP JUMPDEST DUP1 PUSH1 0x1F ADD PUSH1 0x20 DUP1 SWAP2 DIV MUL PUSH1 0x20 ADD PUSH1 0x40 MLOAD SWAP1 DUP2 ADD PUSH1 0x40 MSTORE DUP1 SWAP3 SWAP2 SWAP1 DUP2 DUP2 MSTORE PUSH1 0x20 ADD DUP3 DUP1 SLOAD PUSH2 0x5C4 SWAP1 PUSH2 0x28B0 JUMP JUMPDEST DUP1 ISZERO PUSH2 0x611 JUMPI DUP1 PUSH1 0x1F LT PUSH2 0x5E6 JUMPI PUSH2 0x100 DUP1 DUP4 SLOAD DIV MUL DUP4 MSTORE SWAP2 PUSH1 0x20 ADD SWAP2 PUSH2 0x611 JUMP JUMPDEST DUP3 ADD SWAP2 SWAP1 PUSH1 0x0 MSTORE PUSH1 0x20 PUSH1 0x0 KECCAK256 SWAP1 JUMPDEST DUP2 SLOAD DUP2 MSTORE SWAP1 PUSH1 0x1 ADD SWAP1 PUSH1 0x20 ADD DUP1 DUP4 GT PUSH2 0x5F4 JUMPI DUP3 SWAP1 SUB PUSH1 0x1F AND DUP3 ADD SWAP2 JUMPDEST POP POP POP PUSH1 0x5 SWAP1 SWAP4 ADD SLOAD SWAP2 SWAP3 POP POP PUSH1 0xFF DUP1 DUP3 AND SWAP2 PUSH2 0x100 DUP2 DIV DUP3 AND SWAP2 PUSH3 0x10000 SWAP1 SWAP2 DIV AND DUP9 JUMP JUMPDEST PUSH1 0x0 PUSH1 0x20 DUP2 SWAP1 MSTORE SWAP1 DUP2 MSTORE PUSH1 0x40 SWAP1 KECCAK256 DUP1 SLOAD DUP2 SWAP1 PUSH2 0x652 SWAP1 PUSH2 0x28B0 JUMP JUMPDEST DUP1 PUSH1 0x1F ADD PUSH1 0x20 DUP1 SWAP2 DIV MUL PUSH1 0x20 ADD PUSH1 0x40 MLOAD SWAP1 DUP2 ADD PUSH1 0x40 MSTORE DUP1 SWAP3 SWAP2 SWAP1 DUP2 DUP2 MSTORE PUSH1 0x20 ADD DUP3 DUP1 SLOAD PUSH2 0x67E SWAP1 PUSH2 0x28B0 JUMP JUMPDEST DUP1 ISZERO PUSH2 0x6CB JUMPI DUP1 PUSH1 0x1F LT PUSH2 0x6A0 JUMPI PUSH2 0x100 DUP1 DUP4 SLOAD DIV MUL DUP4 MSTORE SWAP2 PUSH1 0x20 ADD SWAP2 PUSH2 0x6CB JUMP JUMPDEST DUP3 ADD SWAP2 SWAP1 PUSH1 0x0 MSTORE PUSH1 0x20 PUSH1 0x0 KECCAK256 SWAP1 JUMPDEST DUP2 SLOAD DUP2 MSTORE SWAP1 PUSH1 0x1 ADD SWAP1 PUSH1 0x20 ADD DUP1 DUP4 GT PUSH2 0x6AE JUMPI DUP3 SWAP1 SUB PUSH1 0x1F AND DUP3 ADD SWAP2 JUMPDEST POP POP POP POP POP SWAP1 DUP1 PUSH1 0x1 ADD DUP1 SLOAD PUSH2 0x6E0 SWAP1 PUSH2 0x28B0 JUMP JUMPDEST DUP1 PUSH1 0x1F ADD PUSH1 0x20 DUP1 SWAP2 DIV MUL PUSH1 0x20 ADD PUSH1 0x40 MLOAD SWAP1 DUP2 ADD PUSH1 0x40 MSTORE DUP1 SWAP3 SWAP2 SWAP1 DUP2 DUP2 MSTORE PUSH1 0x20 ADD DUP3 DUP1 SLOAD PUSH2 0x70C SWAP1 PUSH2 0x28B0 JUMP JUMPDEST DUP1 ISZERO PUSH2 0x759 JUMPI DUP1 PUSH1 0x1F LT PUSH2 0x72E JUMPI PUSH2 0x100 DUP1 DUP4 SLOAD DIV MUL DUP4 MSTORE SWAP2 PUSH1 0x20 ADD SWAP2 PUSH2 0x759 JUMP JUMPDEST DUP3 ADD SWAP2 SWAP1 PUSH1 0x0 MSTORE PUSH1 0x20 PUSH1 0x0 KECCAK256 SWAP1 JUMPDEST DUP2 SLOAD DUP2 MSTORE SWAP1 PUSH1 0x1 ADD SWAP1 PUSH1 0x20 ADD DUP1 DUP4 GT PUSH2 0x73C JUMPI DUP3 SWAP1 SUB PUSH1 0x1F AND DUP3 ADD SWAP2 JUMPDEST POP POP POP POP POP SWAP1 DUP1 PUSH1 0x2 ADD DUP1 SLOAD PUSH2 0x76E SWAP1 PUSH2 0x28B0 JUMP JUMPDEST DUP1 PUSH1 0x1F ADD PUSH1 0x20 DUP1 SWAP2 DIV MUL PUSH1 0x20 ADD PUSH1 0x40 MLOAD SWAP1 DUP2 ADD PUSH1 0x40 MSTORE DUP1 SWAP3 SWAP2 SWAP1 DUP2 DUP2 MSTORE PUSH1 0x20 ADD DUP3 DUP1 SLOAD PUSH2 0x79A SWAP1 PUSH2 0x28B0 JUMP JUMPDEST DUP1 ISZERO PUSH2 0x7E7 JUMPI DUP1 PUSH1 0x1F LT PUSH2 0x7BC JUMPI PUSH2 0x100 DUP1 DUP4 SLOAD DIV MUL DUP4 MSTORE SWAP2 PUSH1 0x20 ADD SWAP2 PUSH2 0x7E7 JUMP JUMPDEST DUP3 ADD SWAP2 SWAP1 PUSH1 0x0 MSTORE PUSH1 0x20 PUSH1 0x0 KECCAK256 SWAP1 JUMPDEST DUP2 SLOAD DUP2 MSTORE SWAP1 PUSH1 0x1 ADD SWAP1 PUSH1 0x20 ADD DUP1 DUP4 GT PUSH2 0x7CA JUMPI DUP3 SWAP1 SUB PUSH1 0x1F AND DUP3 ADD SWAP2 JUMPDEST POP POP POP POP POP SWAP1 DUP1 PUSH1 0x3 ADD DUP1 SLOAD PUSH2 0x7FC SWAP1 PUSH2 0x28B0 JUMP JUMPDEST DUP1 PUSH1 0x1F ADD PUSH1 0x20 DUP1 SWAP2 DIV MUL PUSH1 0x20 ADD PUSH1 0x40 MLOAD SWAP1 DUP2 ADD PUSH1 0x40 MSTORE DUP1 SWAP3 SWAP2 SWAP1 DUP2 DUP2 MSTORE PUSH1 0x20 ADD DUP3 DUP1 SLOAD PUSH2 0x828 SWAP1 PUSH2 0x28B0 JUMP JUMPDEST DUP1 ISZERO PUSH2 0x875 JUMPI DUP1 PUSH1 0x1F LT PUSH2 0x84A JUMPI PUSH2 0x100 DUP1 DUP4 SLOAD DIV MUL DUP4 MSTORE SWAP2 PUSH1 0x20 ADD SWAP2 PUSH2 0x875 JUMP JUMPDEST DUP3 ADD SWAP2 SWAP1 PUSH1 0x0 MSTORE PUSH1 0x20 PUSH1 0x0 KECCAK256 SWAP1 JUMPDEST DUP2 SLOAD DUP2 MSTORE SWAP1 PUSH1 0x1 ADD SWAP1 PUSH1 0x20 ADD DUP1 DUP4 GT PUSH2 0x858 JUMPI DUP3 SWAP1 SUB PUSH1 0x1F AND DUP3 ADD SWAP2 JUMPDEST POP POP POP PUSH1 0x4 SWAP1 SWAP4 ADD SLOAD SWAP2 SWAP3 POP POP PUSH1 0xFF AND DUP6 JUMP JUMPDEST PUSH1 0x0 DUP5 DUP2 MSTORE PUSH1 0x20 DUP2 SWAP1 MSTORE PUSH1 0x40 SWAP1 KECCAK256 PUSH1 0x4 ADD SLOAD DUP5 SWAP1 PUSH1 0xFF AND ISZERO ISZERO PUSH1 0x1 EQ PUSH2 0x8C0 JUMPI PUSH1 0x40 MLOAD PUSH3 0x461BCD PUSH1 0xE5 SHL DUP2 MSTORE PUSH1 0x4 ADD PUSH2 0x31F SWAP1 PUSH2 0x275C JUMP JUMPDEST PUSH1 0x0 JUMPDEST PUSH1 0x2 DUP2 GT PUSH2 0x9B8 JUMPI DUP5 MLOAD PUSH1 0x20 DUP1 DUP8 ADD SWAP2 SWAP1 SWAP2 KECCAK256 PUSH1 0x0 DUP9 DUP2 MSTORE PUSH1 0x5 DUP4 MSTORE PUSH1 0x40 DUP1 DUP3 KECCAK256 DUP6 DUP4 MSTORE SWAP1 SWAP4 MSTORE DUP3 SWAP1 KECCAK256 SWAP2 MLOAD SWAP1 SWAP2 PUSH2 0x8FA SWAP2 PUSH2 0x2430 JUMP JUMPDEST PUSH1 0x40 MLOAD DUP1 SWAP2 SUB SWAP1 KECCAK256 EQ ISZERO PUSH2 0x9A6 JUMPI PUSH1 0x40 DUP1 MLOAD PUSH1 0x80 DUP2 ADD DUP3 MSTORE DUP7 DUP2 MSTORE PUSH1 0x20 DUP1 DUP3 ADD DUP8 SWAP1 MSTORE DUP2 DUP4 ADD DUP7 SWAP1 MSTORE PUSH1 0x1 PUSH1 0x60 DUP4 ADD MSTORE PUSH1 0x0 DUP10 DUP2 MSTORE PUSH1 0x5 DUP3 MSTORE DUP4 DUP2 KECCAK256 DUP6 DUP3 MSTORE DUP3 MSTORE SWAP3 SWAP1 SWAP3 KECCAK256 DUP2 MLOAD DUP1 MLOAD SWAP3 SWAP4 SWAP2 SWAP3 PUSH2 0x954 SWAP3 DUP5 SWAP3 ADD SWAP1 PUSH2 0x1E6A JUMP JUMPDEST POP PUSH1 0x20 DUP3 DUP2 ADD MLOAD DUP1 MLOAD PUSH2 0x96D SWAP3 PUSH1 0x1 DUP6 ADD SWAP3 ADD SWAP1 PUSH2 0x1E6A JUMP JUMPDEST POP PUSH1 0x40 DUP3 ADD MLOAD DUP1 MLOAD PUSH2 0x989 SWAP2 PUSH1 0x2 DUP5 ADD SWAP2 PUSH1 0x20 SWAP1 SWAP2 ADD SWAP1 PUSH2 0x1E6A JUMP JUMPDEST POP PUSH1 0x60 SWAP2 SWAP1 SWAP2 ADD MLOAD PUSH1 0x3 SWAP1 SWAP2 ADD DUP1 SLOAD PUSH1 0xFF NOT AND SWAP2 ISZERO ISZERO SWAP2 SWAP1 SWAP2 OR SWAP1 SSTORE JUMPDEST DUP1 PUSH2 0x9B0 DUP2 PUSH2 0x28EB JUMP JUMPDEST SWAP2 POP POP PUSH2 0x8C3 JUMP JUMPDEST POP PUSH1 0x0 DUP1 MLOAD PUSH1 0x20 PUSH2 0x294F DUP4 CODECOPY DUP2 MLOAD SWAP2 MSTORE DUP6 TIMESTAMP PUSH1 0x40 MLOAD PUSH2 0xA16 SWAP3 SWAP2 SWAP1 SWAP2 DUP3 MSTORE PUSH1 0x60 PUSH1 0x20 DUP4 ADD DUP2 SWAP1 MSTORE PUSH1 0x17 SWAP1 DUP4 ADD MSTORE PUSH32 0x4361726567697665722044617461206D6F646966696564000000000000000000 PUSH1 0x80 DUP4 ADD MSTORE PUSH1 0x40 DUP3 ADD MSTORE PUSH1 0xA0 ADD SWAP1 JUMP JUMPDEST PUSH1 0x40 MLOAD DUP1 SWAP2 SUB SWAP1 LOG1 POP POP POP POP POP JUMP JUMPDEST PUSH1 0x0 DUP5 DUP2 MSTORE PUSH1 0x20 DUP2 SWAP1 MSTORE PUSH1 0x40 SWAP1 KECCAK256 PUSH1 0x4 ADD SLOAD DUP5 SWAP1 PUSH1 0xFF AND ISZERO ISZERO PUSH1 0x1 EQ PUSH2 0xA5D JUMPI PUSH1 0x40 MLOAD PUSH3 0x461BCD PUSH1 0xE5 SHL DUP2 MSTORE PUSH1 0x4 ADD PUSH2 0x31F SWAP1 PUSH2 0x275C JUMP JUMPDEST PUSH1 0x0 DUP6 DUP2 MSTORE PUSH1 0x6 PUSH1 0x20 SWAP1 DUP2 MSTORE PUSH1 0x40 DUP1 DUP4 KECCAK256 DUP8 DUP5 MSTORE SWAP1 SWAP2 MSTORE SWAP1 KECCAK256 SLOAD PUSH1 0xFF AND ISZERO ISZERO PUSH1 0x1 EQ PUSH2 0xACB JUMPI PUSH1 0x40 MLOAD PUSH3 0x461BCD PUSH1 0xE5 SHL DUP2 MSTORE PUSH1 0x20 PUSH1 0x4 DUP3 ADD MSTORE PUSH1 0x1D PUSH1 0x24 DUP3 ADD MSTORE PUSH32 0x4E6F206163636573732070726F76696465642062792070617469656E74000000 PUSH1 0x44 DUP3 ADD MSTORE PUSH1 0x64 ADD PUSH2 0x31F JUMP JUMPDEST POP PUSH1 0x0 SWAP4 DUP5 MSTORE PUSH1 0x4 PUSH1 0x20 SWAP1 DUP2 MSTORE PUSH1 0x40 DUP1 DUP7 KECCAK256 SWAP4 DUP7 MSTORE SWAP3 SWAP1 MSTORE SWAP3 KECCAK256 SWAP2 SWAP1 SWAP2 SSTORE POP JUMP JUMPDEST PUSH1 0x0 DUP3 DUP2 MSTORE PUSH1 0x1 PUSH1 0x20 DUP2 SWAP1 MSTORE PUSH1 0x40 SWAP1 SWAP2 KECCAK256 PUSH1 0x5 ADD SLOAD DUP4 SWAP2 PUSH3 0x10000 SWAP1 SWAP2 DIV PUSH1 0xFF AND ISZERO ISZERO EQ PUSH2 0xB54 JUMPI PUSH1 0x40 MLOAD PUSH3 0x461BCD PUSH1 0xE5 SHL DUP2 MSTORE PUSH1 0x20 PUSH1 0x4 DUP3 ADD MSTORE PUSH1 0x15 PUSH1 0x24 DUP3 ADD MSTORE PUSH21 0x111BD8DD1BDC88139BDD081C9959DA5CDD195C9959 PUSH1 0x5A SHL PUSH1 0x44 DUP3 ADD MSTORE PUSH1 0x64 ADD PUSH2 0x31F JUMP JUMPDEST PUSH1 0x60 PUSH1 0x0 DUP4 PUSH1 0x1 DUP2 GT ISZERO PUSH2 0xB78 JUMPI PUSH4 0x4E487B71 PUSH1 0xE0 SHL PUSH1 0x0 MSTORE PUSH1 0x21 PUSH1 0x4 MSTORE PUSH1 0x24 PUSH1 0x0 REVERT JUMPDEST EQ ISZERO PUSH2 0xC4C JUMPI PUSH1 0x0 DUP6 DUP2 MSTORE PUSH1 0x6 PUSH1 0x20 SWAP1 DUP2 MSTORE PUSH1 0x40 DUP1 DUP4 KECCAK256 DUP8 DUP5 MSTORE SWAP1 SWAP2 MSTORE SWAP1 KECCAK256 SLOAD PUSH1 0xFF AND ISZERO PUSH2 0xBF4 JUMPI PUSH1 0x40 MLOAD PUSH3 0x461BCD PUSH1 0xE5 SHL DUP2 MSTORE PUSH1 0x20 PUSH1 0x4 DUP3 ADD MSTORE PUSH1 0x24 DUP1 DUP3 ADD MSTORE PUSH32 0x4548522D41432D30313A2041636365737320686164206265656E2070726F7669 PUSH1 0x44 DUP3 ADD MSTORE PUSH4 0x64656421 PUSH1 0xE0 SHL PUSH1 0x64 DUP3 ADD MSTORE PUSH1 0x84 ADD PUSH2 0x31F JUMP JUMPDEST POP PUSH1 0x0 DUP5 DUP2 MSTORE PUSH1 0x6 PUSH1 0x20 SWAP1 DUP2 MSTORE PUSH1 0x40 DUP1 DUP4 KECCAK256 DUP7 DUP5 MSTORE DUP3 MSTORE SWAP2 DUP3 SWAP1 KECCAK256 DUP1 SLOAD PUSH1 0xFF NOT AND PUSH1 0x1 OR SWAP1 SSTORE DUP2 MLOAD DUP1 DUP4 ADD SWAP1 SWAP3 MSTORE PUSH1 0x1C DUP3 MSTORE PUSH32 0x4163636573732069732070726F766964656420746F20646F63746F7200000000 SWAP1 DUP3 ADD MSTORE JUMPDEST PUSH1 0x1 DUP4 PUSH1 0x1 DUP2 GT ISZERO PUSH2 0xC6E JUMPI PUSH4 0x4E487B71 PUSH1 0xE0 SHL PUSH1 0x0 MSTORE PUSH1 0x21 PUSH1 0x4 MSTORE PUSH1 0x24 PUSH1 0x0 REVERT JUMPDEST EQ ISZERO PUSH2 0xD43 JUMPI PUSH1 0x0 DUP6 DUP2 MSTORE PUSH1 0x6 PUSH1 0x20 SWAP1 DUP2 MSTORE PUSH1 0x40 DUP1 DUP4 KECCAK256 DUP8 DUP5 MSTORE SWAP1 SWAP2 MSTORE SWAP1 KECCAK256 SLOAD PUSH1 0xFF AND ISZERO ISZERO PUSH1 0x1 EQ PUSH2 0xCEE JUMPI PUSH1 0x40 MLOAD PUSH3 0x461BCD PUSH1 0xE5 SHL DUP2 MSTORE PUSH1 0x20 PUSH1 0x4 DUP3 ADD MSTORE PUSH1 0x23 PUSH1 0x24 DUP3 ADD MSTORE PUSH32 0x4548522D41432D30323A2041636365737320776173206E6F742070726F766964 PUSH1 0x44 DUP3 ADD MSTORE PUSH3 0x656421 PUSH1 0xE8 SHL PUSH1 0x64 DUP3 ADD MSTORE PUSH1 0x84 ADD PUSH2 0x31F JUMP JUMPDEST POP PUSH1 0x0 DUP5 DUP2 MSTORE PUSH1 0x6 PUSH1 0x20 SWAP1 DUP2 MSTORE PUSH1 0x40 DUP1 DUP4 KECCAK256 DUP7 DUP5 MSTORE DUP3 MSTORE SWAP2 DUP3 SWAP1 KECCAK256 DUP1 SLOAD PUSH1 0xFF NOT AND SWAP1 SSTORE DUP2 MLOAD DUP1 DUP4 ADD SWAP1 SWAP3 MSTORE PUSH1 0x1B DUP3 MSTORE PUSH32 0x416363657373206973207265766F6B656420746F20646F63746F720000000000 SWAP1 DUP3 ADD MSTORE JUMPDEST PUSH32 0xF4702A3B8B6C43F2FA41588E64688A0C0BC61F411971BD5EC9C64B828D4BCCB0 DUP2 DUP7 DUP7 TIMESTAMP PUSH1 0x40 MLOAD PUSH2 0xA16 SWAP5 SWAP4 SWAP3 SWAP2 SWAP1 PUSH2 0x26EA JUMP JUMPDEST PUSH1 0x3 PUSH1 0x20 MSTORE PUSH1 0x0 SWAP1 DUP2 MSTORE PUSH1 0x40 SWAP1 KECCAK256 DUP1 SLOAD DUP2 SWAP1 PUSH2 0xD93 SWAP1 PUSH2 0x28B0 JUMP JUMPDEST DUP1 PUSH1 0x1F ADD PUSH1 0x20 DUP1 SWAP2 DIV MUL PUSH1 0x20 ADD PUSH1 0x40 MLOAD SWAP1 DUP2 ADD PUSH1 0x40 MSTORE DUP1 SWAP3 SWAP2 SWAP1 DUP2 DUP2 MSTORE PUSH1 0x20 ADD DUP3 DUP1 SLOAD PUSH2 0xDBF SWAP1 PUSH2 0x28B0 JUMP JUMPDEST DUP1 ISZERO PUSH2 0xE0C JUMPI DUP1 PUSH1 0x1F LT PUSH2 0xDE1 JUMPI PUSH2 0x100 DUP1 DUP4 SLOAD DIV MUL DUP4 MSTORE SWAP2 PUSH1 0x20 ADD SWAP2 PUSH2 0xE0C JUMP JUMPDEST DUP3 ADD SWAP2 SWAP1 PUSH1 0x0 MSTORE PUSH1 0x20 PUSH1 0x0 KECCAK256 SWAP1 JUMPDEST DUP2 SLOAD DUP2 MSTORE SWAP1 PUSH1 0x1 ADD SWAP1 PUSH1 0x20 ADD DUP1 DUP4 GT PUSH2 0xDEF JUMPI DUP3 SWAP1 SUB PUSH1 0x1F AND DUP3 ADD SWAP2 JUMPDEST POP POP POP POP POP SWAP1 DUP1 PUSH1 0x1 ADD DUP1 SLOAD PUSH2 0xE21 SWAP1 PUSH2 0x28B0 JUMP JUMPDEST DUP1 PUSH1 0x1F ADD PUSH1 0x20 DUP1 SWAP2 DIV MUL PUSH1 0x20 ADD PUSH1 0x40 MLOAD SWAP1 DUP2 ADD PUSH1 0x40 MSTORE DUP1 SWAP3 SWAP2 SWAP1 DUP2 DUP2 MSTORE PUSH1 0x20 ADD DUP3 DUP1 SLOAD PUSH2 0xE4D SWAP1 PUSH2 0x28B0 JUMP JUMPDEST DUP1 ISZERO PUSH2 0xE9A JUMPI DUP1 PUSH1 0x1F LT PUSH2 0xE6F JUMPI PUSH2 0x100 DUP1 DUP4 SLOAD DIV MUL DUP4 MSTORE SWAP2 PUSH1 0x20 ADD SWAP2 PUSH2 0xE9A JUMP JUMPDEST DUP3 ADD SWAP2 SWAP1 PUSH1 0x0 MSTORE PUSH1 0x20 PUSH1 0x0 KECCAK256 SWAP1 JUMPDEST DUP2 SLOAD DUP2 MSTORE SWAP1 PUSH1 0x1 ADD SWAP1 PUSH1 0x20 ADD DUP1 DUP4 GT PUSH2 0xE7D JUMPI DUP3 SWAP1 SUB PUSH1 0x1F AND DUP3 ADD SWAP2 JUMPDEST POP POP POP POP POP SWAP1 DUP1 PUSH1 0x2 ADD SLOAD SWAP1 DUP1 PUSH1 0x3 ADD SLOAD SWAP1 POP DUP5 JUMP JUMPDEST PUSH1 0x5 PUSH1 0x20 SWAP1 DUP2 MSTORE PUSH1 0x0 SWAP3 DUP4 MSTORE PUSH1 0x40 DUP1 DUP5 KECCAK256 SWAP1 SWAP2 MSTORE SWAP1 DUP3 MSTORE SWAP1 KECCAK256 DUP1 SLOAD DUP2 SWAP1 PUSH2 0xED6 SWAP1 PUSH2 0x28B0 JUMP JUMPDEST DUP1 PUSH1 0x1F ADD PUSH1 0x20 DUP1 SWAP2 DIV MUL PUSH1 0x20 ADD PUSH1 0x40 MLOAD SWAP1 DUP2 ADD PUSH1 0x40 MSTORE DUP1 SWAP3 SWAP2 SWAP1 DUP2 DUP2 MSTORE PUSH1 0x20 ADD DUP3 DUP1 SLOAD PUSH2 0xF02 SWAP1 PUSH2 0x28B0 JUMP JUMPDEST DUP1 ISZERO PUSH2 0xF4F JUMPI DUP1 PUSH1 0x1F LT PUSH2 0xF24 JUMPI PUSH2 0x100 DUP1 DUP4 SLOAD DIV MUL DUP4 MSTORE SWAP2 PUSH1 0x20 ADD SWAP2 PUSH2 0xF4F JUMP JUMPDEST DUP3 ADD SWAP2 SWAP1 PUSH1 0x0 MSTORE PUSH1 0x20 PUSH1 0x0 KECCAK256 SWAP1 JUMPDEST DUP2 SLOAD DUP2 MSTORE SWAP1 PUSH1 0x1 ADD SWAP1 PUSH1 0x20 ADD DUP1 DUP4 GT PUSH2 0xF32 JUMPI DUP3 SWAP1 SUB PUSH1 0x1F AND DUP3 ADD SWAP2 JUMPDEST POP POP POP POP POP SWAP1 DUP1 PUSH1 0x1 ADD DUP1 SLOAD PUSH2 0xF64 SWAP1 PUSH2 0x28B0 JUMP JUMPDEST DUP1 PUSH1 0x1F ADD PUSH1 0x20 DUP1 SWAP2 DIV MUL PUSH1 0x20 ADD PUSH1 0x40 MLOAD SWAP1 DUP2 ADD PUSH1 0x40 MSTORE DUP1 SWAP3 SWAP2 SWAP1 DUP2 DUP2 MSTORE PUSH1 0x20 ADD DUP3 DUP1 SLOAD PUSH2 0xF90 SWAP1 PUSH2 0x28B0 JUMP JUMPDEST DUP1 ISZERO PUSH2 0xFDD JUMPI DUP1 PUSH1 0x1F LT PUSH2 0xFB2 JUMPI PUSH2 0x100 DUP1 DUP4 SLOAD DIV MUL DUP4 MSTORE SWAP2 PUSH1 0x20 ADD SWAP2 PUSH2 0xFDD JUMP JUMPDEST DUP3 ADD SWAP2 SWAP1 PUSH1 0x0 MSTORE PUSH1 0x20 PUSH1 0x0 KECCAK256 SWAP1 JUMPDEST DUP2 SLOAD DUP2 MSTORE SWAP1 PUSH1 0x1 ADD SWAP1 PUSH1 0x20 ADD DUP1 DUP4 GT PUSH2 0xFC0 JUMPI DUP3 SWAP1 SUB PUSH1 0x1F AND DUP3 ADD SWAP2 JUMPDEST POP POP POP POP POP SWAP1 DUP1 PUSH1 0x2 ADD DUP1 SLOAD PUSH2 0xFF2 SWAP1 PUSH2 0x28B0 JUMP JUMPDEST DUP1 PUSH1 0x1F ADD PUSH1 0x20 DUP1 SWAP2 DIV MUL PUSH1 0x20 ADD PUSH1 0x40 MLOAD SWAP1 DUP2 ADD PUSH1 0x40 MSTORE DUP1 SWAP3 SWAP2 SWAP1 DUP2 DUP2 MSTORE PUSH1 0x20 ADD DUP3 DUP1 SLOAD PUSH2 0x101E SWAP1 PUSH2 0x28B0 JUMP JUMPDEST DUP1 ISZERO PUSH2 0x106B JUMPI DUP1 PUSH1 0x1F LT PUSH2 0x1040 JUMPI PUSH2 0x100 DUP1 DUP4 SLOAD DIV MUL DUP4 MSTORE SWAP2 PUSH1 0x20 ADD SWAP2 PUSH2 0x106B JUMP JUMPDEST DUP3 ADD SWAP2 SWAP1 PUSH1 0x0 MSTORE PUSH1 0x20 PUSH1 0x0 KECCAK256 SWAP1 JUMPDEST DUP2 SLOAD DUP2 MSTORE SWAP1 PUSH1 0x1 ADD SWAP1 PUSH1 0x20 ADD DUP1 DUP4 GT PUSH2 0x104E JUMPI DUP3 SWAP1 SUB PUSH1 0x1F AND DUP3 ADD SWAP2 JUMPDEST POP POP POP PUSH1 0x3 SWAP1 SWAP4 ADD SLOAD SWAP2 SWAP3 POP POP PUSH1 0xFF AND DUP5 JUMP JUMPDEST PUSH1 0x0 DUP5 DUP2 MSTORE PUSH1 0x20 DUP2 SWAP1 MSTORE PUSH1 0x40 SWAP1 KECCAK256 PUSH1 0x4 ADD SLOAD DUP5 SWAP1 PUSH1 0xFF AND ISZERO ISZERO PUSH1 0x1 EQ PUSH2 0x10B6 JUMPI PUSH1 0x40 MLOAD PUSH3 0x461BCD PUSH1 0xE5 SHL DUP2 MSTORE PUSH1 0x4 ADD PUSH2 0x31F SWAP1 PUSH2 0x275C JUMP JUMPDEST PUSH1 0x0 JUMPDEST PUSH1 0x2 DUP2 GT PUSH2 0x1195 JUMPI PUSH1 0x0 DUP7 DUP2 MSTORE PUSH1 0x5 PUSH1 0x20 SWAP1 DUP2 MSTORE PUSH1 0x40 DUP1 DUP4 KECCAK256 DUP5 DUP5 MSTORE SWAP1 SWAP2 MSTORE SWAP1 KECCAK256 PUSH1 0x3 ADD SLOAD PUSH1 0xFF AND PUSH2 0x1183 JUMPI PUSH1 0x40 DUP1 MLOAD PUSH1 0x80 DUP2 ADD DUP3 MSTORE DUP7 DUP2 MSTORE PUSH1 0x20 DUP1 DUP3 ADD DUP8 SWAP1 MSTORE DUP2 DUP4 ADD DUP7 SWAP1 MSTORE PUSH1 0x1 PUSH1 0x60 DUP4 ADD MSTORE PUSH1 0x0 DUP10 DUP2 MSTORE PUSH1 0x5 DUP3 MSTORE DUP4 DUP2 KECCAK256 DUP6 DUP3 MSTORE DUP3 MSTORE SWAP3 SWAP1 SWAP3 KECCAK256 DUP2 MLOAD DUP1 MLOAD SWAP3 SWAP4 SWAP2 SWAP3 PUSH2 0x1131 SWAP3 DUP5 SWAP3 ADD SWAP1 PUSH2 0x1E6A JUMP JUMPDEST POP PUSH1 0x20 DUP3 DUP2 ADD MLOAD DUP1 MLOAD PUSH2 0x114A SWAP3 PUSH1 0x1 DUP6 ADD SWAP3 ADD SWAP1 PUSH2 0x1E6A JUMP JUMPDEST POP PUSH1 0x40 DUP3 ADD MLOAD DUP1 MLOAD PUSH2 0x1166 SWAP2 PUSH1 0x2 DUP5 ADD SWAP2 PUSH1 0x20 SWAP1 SWAP2 ADD SWAP1 PUSH2 0x1E6A JUMP JUMPDEST POP PUSH1 0x60 SWAP2 SWAP1 SWAP2 ADD MLOAD PUSH1 0x3 SWAP1 SWAP2 ADD DUP1 SLOAD PUSH1 0xFF NOT AND SWAP2 ISZERO ISZERO SWAP2 SWAP1 SWAP2 OR SWAP1 SSTORE JUMPDEST DUP1 PUSH2 0x118D DUP2 PUSH2 0x28EB JUMP JUMPDEST SWAP2 POP POP PUSH2 0x10B9 JUMP JUMPDEST POP PUSH1 0x0 DUP1 MLOAD PUSH1 0x20 PUSH2 0x294F DUP4 CODECOPY DUP2 MLOAD SWAP2 MSTORE DUP6 TIMESTAMP PUSH1 0x40 MLOAD PUSH2 0xA16 SWAP3 SWAP2 SWAP1 SWAP2 DUP3 MSTORE PUSH1 0x60 PUSH1 0x20 DUP4 ADD DUP2 SWAP1 MSTORE PUSH1 0x19 SWAP1 DUP4 ADD MSTORE PUSH32 0x4361726567697665722044617461207265676973746572656400000000000000 PUSH1 0x80 DUP4 ADD MSTORE PUSH1 0x40 DUP3 ADD MSTORE PUSH1 0xA0 ADD SWAP1 JUMP JUMPDEST PUSH1 0x0 DUP2 DUP2 MSTORE PUSH1 0x20 DUP2 SWAP1 MSTORE PUSH1 0x40 SWAP1 KECCAK256 PUSH1 0x4 ADD SLOAD DUP2 SWAP1 PUSH1 0xFF AND ISZERO ISZERO PUSH1 0x1 EQ PUSH2 0x122B JUMPI PUSH1 0x40 MLOAD PUSH3 0x461BCD PUSH1 0xE5 SHL DUP2 MSTORE PUSH1 0x4 ADD PUSH2 0x31F SWAP1 PUSH2 0x275C JUMP JUMPDEST PUSH1 0x40 DUP1 MLOAD PUSH1 0x80 DUP2 ADD DUP3 MSTORE DUP8 DUP2 MSTORE PUSH1 0x20 DUP1 DUP3 ADD DUP9 SWAP1 MSTORE DUP2 DUP4 ADD DUP8 SWAP1 MSTORE PUSH1 0x60 DUP3 ADD DUP7 SWAP1 MSTORE PUSH1 0x0 DUP6 DUP2 MSTORE PUSH1 0x3 DUP3 MSTORE SWAP3 SWAP1 SWAP3 KECCAK256 DUP2 MLOAD DUP1 MLOAD SWAP3 SWAP4 SWAP2 SWAP3 PUSH2 0x126F SWAP3 DUP5 SWAP3 ADD SWAP1 PUSH2 0x1E6A JUMP JUMPDEST POP PUSH1 0x20 DUP3 DUP2 ADD MLOAD DUP1 MLOAD PUSH2 0x1288 SWAP3 PUSH1 0x1 DUP6 ADD SWAP3 ADD SWAP1 PUSH2 0x1E6A JUMP JUMPDEST POP PUSH1 0x40 DUP3 ADD MLOAD DUP2 PUSH1 0x2 ADD SSTORE PUSH1 0x60 DUP3 ADD MLOAD DUP2 PUSH1 0x3 ADD SSTORE SWAP1 POP POP PUSH1 0x0 DUP1 MLOAD PUSH1 0x20 PUSH2 0x294F DUP4 CODECOPY DUP2 MLOAD SWAP2 MSTORE DUP3 TIMESTAMP PUSH1 0x40 MLOAD PUSH2 0x12FD SWAP3 SWAP2 SWAP1 SWAP2 DUP3 MSTORE PUSH1 0x60 PUSH1 0x20 DUP4 ADD DUP2 SWAP1 MSTORE PUSH1 0x1B SWAP1 DUP4 ADD MSTORE PUSH32 0x50617469656E74204865616C7468204461746120757064617465640000000000 PUSH1 0x80 DUP4 ADD MSTORE PUSH1 0x40 DUP3 ADD MSTORE PUSH1 0xA0 ADD SWAP1 JUMP JUMPDEST PUSH1 0x40 MLOAD DUP1 SWAP2 SUB SWAP1 LOG1 POP POP POP POP POP POP JUMP JUMPDEST PUSH1 0x0 DUP7 DUP9 PUSH1 0x40 MLOAD PUSH1 0x20 ADD PUSH2 0x1322 SWAP3 SWAP2 SWAP1 PUSH2 0x24CB JUMP JUMPDEST PUSH1 0x40 DUP1 MLOAD PUSH1 0x1F NOT DUP2 DUP5 SUB ADD DUP2 MSTORE SWAP2 SWAP1 MSTORE DUP1 MLOAD PUSH1 0x20 SWAP1 SWAP2 ADD KECCAK256 SWAP1 POP PUSH1 0x60 PUSH1 0x0 DUP4 PUSH1 0x1 DUP2 GT ISZERO PUSH2 0x1360 JUMPI PUSH4 0x4E487B71 PUSH1 0xE0 SHL PUSH1 0x0 MSTORE PUSH1 0x21 PUSH1 0x4 MSTORE PUSH1 0x24 PUSH1 0x0 REVERT JUMPDEST EQ ISZERO PUSH2 0x15DA JUMPI DUP9 DUP1 MLOAD SWAP1 PUSH1 0x20 ADD KECCAK256 PUSH1 0x1 PUSH1 0x0 DUP5 DUP2 MSTORE PUSH1 0x20 ADD SWAP1 DUP2 MSTORE PUSH1 0x20 ADD PUSH1 0x0 KECCAK256 PUSH1 0x1 ADD PUSH1 0x40 MLOAD PUSH2 0x1391 SWAP2 SWAP1 PUSH2 0x2430 JUMP JUMPDEST PUSH1 0x40 MLOAD DUP1 SWAP2 SUB SWAP1 KECCAK256 EQ ISZERO PUSH2 0x13B7 JUMPI PUSH1 0x40 MLOAD PUSH3 0x461BCD PUSH1 0xE5 SHL DUP2 MSTORE PUSH1 0x4 ADD PUSH2 0x31F SWAP1 PUSH2 0x2719 JUMP JUMPDEST DUP8 DUP1 MLOAD SWAP1 PUSH1 0x20 ADD KECCAK256 PUSH1 0x1 PUSH1 0x0 DUP5 DUP2 MSTORE PUSH1 0x20 ADD SWAP1 DUP2 MSTORE PUSH1 0x20 ADD PUSH1 0x0 KECCAK256 PUSH1 0x2 ADD PUSH1 0x40 MLOAD PUSH2 0x13E2 SWAP2 SWAP1 PUSH2 0x2430 JUMP JUMPDEST PUSH1 0x40 MLOAD DUP1 SWAP2 SUB SWAP1 KECCAK256 EQ ISZERO PUSH2 0x1408 JUMPI PUSH1 0x40 MLOAD PUSH3 0x461BCD PUSH1 0xE5 SHL DUP2 MSTORE PUSH1 0x4 ADD PUSH2 0x31F SWAP1 PUSH2 0x27D0 JUMP JUMPDEST PUSH1 0x40 MLOAD DUP1 PUSH2 0x100 ADD PUSH1 0x40 MSTORE DUP1 DUP12 DUP2 MSTORE PUSH1 0x20 ADD DUP11 DUP2 MSTORE PUSH1 0x20 ADD DUP10 DUP2 MSTORE PUSH1 0x20 ADD DUP9 DUP2 MSTORE PUSH1 0x20 ADD DUP8 DUP2 MSTORE PUSH1 0x20 ADD DUP7 PUSH1 0x4 DUP2 GT ISZERO PUSH2 0x1452 JUMPI PUSH4 0x4E487B71 PUSH1 0xE0 SHL PUSH1 0x0 MSTORE PUSH1 0x21 PUSH1 0x4 MSTORE PUSH1 0x24 PUSH1 0x0 REVERT JUMPDEST DUP2 MSTORE PUSH1 0x20 ADD DUP6 PUSH1 0x2 DUP2 GT ISZERO PUSH2 0x1477 JUMPI PUSH4 0x4E487B71 PUSH1 0xE0 SHL PUSH1 0x0 MSTORE PUSH1 0x21 PUSH1 0x4 MSTORE PUSH1 0x24 PUSH1 0x0 REVERT JUMPDEST DUP2 MSTORE PUSH1 0x1 PUSH1 0x20 SWAP2 DUP3 ADD DUP2 SWAP1 MSTORE PUSH1 0x0 DUP6 DUP2 MSTORE SWAP1 DUP3 MSTORE PUSH1 0x40 SWAP1 KECCAK256 DUP3 MLOAD DUP1 MLOAD SWAP2 SWAP3 PUSH2 0x14A4 SWAP3 DUP5 SWAP3 SWAP1 SWAP2 ADD SWAP1 PUSH2 0x1E6A JUMP JUMPDEST POP PUSH1 0x20 DUP3 DUP2 ADD MLOAD DUP1 MLOAD PUSH2 0x14BD SWAP3 PUSH1 0x1 DUP6 ADD SWAP3 ADD SWAP1 PUSH2 0x1E6A JUMP JUMPDEST POP PUSH1 0x40 DUP3 ADD MLOAD DUP1 MLOAD PUSH2 0x14D9 SWAP2 PUSH1 0x2 DUP5 ADD SWAP2 PUSH1 0x20 SWAP1 SWAP2 ADD SWAP1 PUSH2 0x1E6A JUMP JUMPDEST POP PUSH1 0x60 DUP3 ADD MLOAD DUP1 MLOAD PUSH2 0x14F5 SWAP2 PUSH1 0x3 DUP5 ADD SWAP2 PUSH1 0x20 SWAP1 SWAP2 ADD SWAP1 PUSH2 0x1E6A JUMP JUMPDEST POP PUSH1 0x80 DUP3 ADD MLOAD DUP1 MLOAD PUSH2 0x1511 SWAP2 PUSH1 0x4 DUP5 ADD SWAP2 PUSH1 0x20 SWAP1 SWAP2 ADD SWAP1 PUSH2 0x1E6A JUMP JUMPDEST POP PUSH1 0xA0 DUP3 ADD MLOAD PUSH1 0x5 DUP3 ADD DUP1 SLOAD PUSH1 0xFF NOT AND PUSH1 0x1 DUP4 PUSH1 0x4 DUP2 GT ISZERO PUSH2 0x1543 JUMPI PUSH4 0x4E487B71 PUSH1 0xE0 SHL PUSH1 0x0 MSTORE PUSH1 0x21 PUSH1 0x4 MSTORE PUSH1 0x24 PUSH1 0x0 REVERT JUMPDEST MUL OR SWAP1 SSTORE POP PUSH1 0xC0 DUP3 ADD MLOAD PUSH1 0x5 DUP3 ADD DUP1 SLOAD PUSH2 0xFF00 NOT AND PUSH2 0x100 DUP4 PUSH1 0x2 DUP2 GT ISZERO PUSH2 0x157B JUMPI PUSH4 0x4E487B71 PUSH1 0xE0 SHL PUSH1 0x0 MSTORE PUSH1 0x21 PUSH1 0x4 MSTORE PUSH1 0x24 PUSH1 0x0 REVERT JUMPDEST MUL OR SWAP1 SSTORE POP PUSH1 0xE0 SWAP2 SWAP1 SWAP2 ADD MLOAD PUSH1 0x5 SWAP1 SWAP2 ADD DUP1 SLOAD SWAP2 ISZERO ISZERO PUSH3 0x10000 MUL PUSH3 0xFF0000 NOT SWAP1 SWAP3 AND SWAP2 SWAP1 SWAP2 OR SWAP1 SSTORE POP PUSH1 0x40 DUP1 MLOAD DUP1 DUP3 ADD SWAP1 SWAP2 MSTORE PUSH1 0x18 DUP2 MSTORE PUSH32 0x446F63746F7220526567697374726174696F6E20446F6E650000000000000000 PUSH1 0x20 DUP3 ADD MSTORE JUMPDEST PUSH1 0x1 DUP4 PUSH1 0x1 DUP2 GT ISZERO PUSH2 0x15FC JUMPI PUSH4 0x4E487B71 PUSH1 0xE0 SHL PUSH1 0x0 MSTORE PUSH1 0x21 PUSH1 0x4 MSTORE PUSH1 0x24 PUSH1 0x0 REVERT JUMPDEST EQ ISZERO PUSH2 0x173C JUMPI DUP9 DUP1 MLOAD SWAP1 PUSH1 0x20 ADD KECCAK256 PUSH1 0x1 PUSH1 0x0 DUP5 DUP2 MSTORE PUSH1 0x20 ADD SWAP1 DUP2 MSTORE PUSH1 0x20 ADD PUSH1 0x0 KECCAK256 PUSH1 0x1 ADD PUSH1 0x40 MLOAD PUSH2 0x162D SWAP2 SWAP1 PUSH2 0x2430 JUMP JUMPDEST PUSH1 0x40 MLOAD DUP1 SWAP2 SUB SWAP1 KECCAK256 EQ PUSH2 0x1652 JUMPI PUSH1 0x40 MLOAD PUSH3 0x461BCD PUSH1 0xE5 SHL DUP2 MSTORE PUSH1 0x4 ADD PUSH2 0x31F SWAP1 PUSH2 0x2719 JUMP JUMPDEST DUP8 DUP1 MLOAD SWAP1 PUSH1 0x20 ADD KECCAK256 PUSH1 0x1 PUSH1 0x0 DUP5 DUP2 MSTORE PUSH1 0x20 ADD SWAP1 DUP2 MSTORE PUSH1 0x20 ADD PUSH1 0x0 KECCAK256 PUSH1 0x2 ADD PUSH1 0x40 MLOAD PUSH2 0x167D SWAP2 SWAP1 PUSH2 0x2430 JUMP JUMPDEST PUSH1 0x40 MLOAD DUP1 SWAP2 SUB SWAP1 KECCAK256 EQ PUSH2 0x16A2 JUMPI PUSH1 0x40 MLOAD PUSH3 0x461BCD PUSH1 0xE5 SHL DUP2 MSTORE PUSH1 0x4 ADD PUSH2 0x31F SWAP1 PUSH2 0x27D0 JUMP JUMPDEST PUSH1 0x0 DUP3 DUP2 MSTORE PUSH1 0x1 PUSH1 0x20 SWAP1 DUP2 MSTORE PUSH1 0x40 SWAP1 SWAP2 KECCAK256 DUP12 MLOAD PUSH2 0x16C1 SWAP3 DUP14 ADD SWAP1 PUSH2 0x1E6A JUMP JUMPDEST POP PUSH1 0x0 DUP3 DUP2 MSTORE PUSH1 0x1 PUSH1 0x20 DUP2 DUP2 MSTORE PUSH1 0x40 SWAP1 SWAP3 KECCAK256 DUP12 MLOAD PUSH2 0x16E7 SWAP4 SWAP2 SWAP1 SWAP3 ADD SWAP2 SWAP1 DUP13 ADD SWAP1 PUSH2 0x1E6A JUMP JUMPDEST POP PUSH1 0x0 DUP3 DUP2 MSTORE PUSH1 0x1 PUSH1 0x20 SWAP1 DUP2 MSTORE PUSH1 0x40 SWAP1 SWAP2 KECCAK256 DUP10 MLOAD PUSH2 0x170D SWAP3 PUSH1 0x2 SWAP1 SWAP3 ADD SWAP2 DUP12 ADD SWAP1 PUSH2 0x1E6A JUMP JUMPDEST POP POP PUSH1 0x40 DUP1 MLOAD DUP1 DUP3 ADD SWAP1 SWAP2 MSTORE PUSH1 0x15 DUP2 MSTORE PUSH21 0x111BD8DD1BDC88149958DBDC9908155C19185D1959 PUSH1 0x5A SHL PUSH1 0x20 DUP3 ADD MSTORE JUMPDEST PUSH1 0x0 DUP1 MLOAD PUSH1 0x20 PUSH2 0x294F DUP4 CODECOPY DUP2 MLOAD SWAP2 MSTORE DUP3 DUP3 TIMESTAMP PUSH1 0x40 MLOAD PUSH2 0x175D SWAP4 SWAP3 SWAP2 SWAP1 PUSH2 0x2857 JUMP JUMPDEST PUSH1 0x40 MLOAD DUP1 SWAP2 SUB SWAP1 LOG1 POP POP POP POP POP POP POP POP POP POP JUMP JUMPDEST PUSH1 0x0 DUP2 DUP2 MSTORE PUSH1 0x20 DUP2 SWAP1 MSTORE PUSH1 0x40 SWAP1 KECCAK256 PUSH1 0x4 ADD SLOAD DUP2 SWAP1 PUSH1 0xFF AND ISZERO ISZERO PUSH1 0x1 EQ PUSH2 0x17A9 JUMPI PUSH1 0x40 MLOAD PUSH3 0x461BCD PUSH1 0xE5 SHL DUP2 MSTORE PUSH1 0x4 ADD PUSH2 0x31F SWAP1 PUSH2 0x275C JUMP JUMPDEST PUSH1 0x40 DUP1 MLOAD PUSH1 0xA0 DUP2 ADD DUP3 MSTORE DUP9 DUP2 MSTORE PUSH1 0x20 DUP1 DUP3 ADD DUP10 SWAP1 MSTORE DUP2 DUP4 ADD DUP9 SWAP1 MSTORE PUSH1 0x60 DUP3 ADD DUP8 SWAP1 MSTORE PUSH1 0x80 DUP3 ADD DUP7 SWAP1 MSTORE PUSH1 0x0 DUP6 DUP2 MSTORE PUSH1 0x2 DUP3 MSTORE SWAP3 SWAP1 SWAP3 KECCAK256 DUP2 MLOAD DUP1 MLOAD SWAP3 SWAP4 SWAP2 SWAP3 PUSH2 0x17F4 SWAP3 DUP5 SWAP3 ADD SWAP1 PUSH2 0x1E6A JUMP JUMPDEST POP PUSH1 0x20 DUP3 DUP2 ADD MLOAD DUP1 MLOAD PUSH2 0x180D SWAP3 PUSH1 0x1 DUP6 ADD SWAP3 ADD SWAP1 PUSH2 0x1E6A JUMP JUMPDEST POP PUSH1 0x40 DUP3 ADD MLOAD DUP1 MLOAD PUSH2 0x1829 SWAP2 PUSH1 0x2 DUP5 ADD SWAP2 PUSH1 0x20 SWAP1 SWAP2 ADD SWAP1 PUSH2 0x1E6A JUMP JUMPDEST POP PUSH1 0x60 DUP3 ADD MLOAD DUP1 MLOAD PUSH2 0x1845 SWAP2 PUSH1 0x3 DUP5 ADD SWAP2 PUSH1 0x20 SWAP1 SWAP2 ADD SWAP1 PUSH2 0x1E6A JUMP JUMPDEST POP PUSH1 0x80 SWAP2 DUP3 ADD MLOAD PUSH1 0x4 SWAP1 SWAP2 ADD SSTORE PUSH1 0x40 DUP1 MLOAD DUP5 DUP2 MSTORE PUSH1 0x60 PUSH1 0x20 DUP3 ADD DUP2 SWAP1 MSTORE PUSH1 0x1D SWAP1 DUP3 ADD MSTORE PUSH32 0x50617469656E74204C6F636174696F6E20446174612075706461746564000000 SWAP3 DUP2 ADD SWAP3 SWAP1 SWAP3 MSTORE TIMESTAMP SWAP1 DUP3 ADD MSTORE PUSH1 0x0 DUP1 MLOAD PUSH1 0x20 PUSH2 0x294F DUP4 CODECOPY DUP2 MLOAD SWAP2 MSTORE SWAP1 PUSH1 0xA0 ADD JUMPDEST PUSH1 0x40 MLOAD DUP1 SWAP2 SUB SWAP1 LOG1 POP POP POP POP POP POP POP JUMP JUMPDEST PUSH1 0x0 DUP4 DUP6 PUSH1 0x40 MLOAD PUSH1 0x20 ADD PUSH2 0x18CF SWAP3 SWAP2 SWAP1 PUSH2 0x24CB JUMP JUMPDEST PUSH1 0x40 DUP1 MLOAD PUSH1 0x1F NOT DUP2 DUP5 SUB ADD DUP2 MSTORE SWAP2 SWAP1 MSTORE DUP1 MLOAD PUSH1 0x20 SWAP1 SWAP2 ADD KECCAK256 SWAP1 POP PUSH1 0x60 PUSH1 0x0 DUP4 PUSH1 0x1 DUP2 GT ISZERO PUSH2 0x190D JUMPI PUSH4 0x4E487B71 PUSH1 0xE0 SHL PUSH1 0x0 MSTORE PUSH1 0x21 PUSH1 0x4 MSTORE PUSH1 0x24 PUSH1 0x0 REVERT JUMPDEST EQ ISZERO PUSH2 0x1AA0 JUMPI DUP6 DUP1 MLOAD SWAP1 PUSH1 0x20 ADD KECCAK256 PUSH1 0x0 DUP1 DUP5 DUP2 MSTORE PUSH1 0x20 ADD SWAP1 DUP2 MSTORE PUSH1 0x20 ADD PUSH1 0x0 KECCAK256 PUSH1 0x1 ADD PUSH1 0x40 MLOAD PUSH2 0x193D SWAP2 SWAP1 PUSH2 0x2430 JUMP JUMPDEST PUSH1 0x40 MLOAD DUP1 SWAP2 SUB SWAP1 KECCAK256 EQ ISZERO PUSH2 0x1963 JUMPI PUSH1 0x40 MLOAD PUSH3 0x461BCD PUSH1 0xE5 SHL DUP2 MSTORE PUSH1 0x4 ADD PUSH2 0x31F SWAP1 PUSH2 0x2813 JUMP JUMPDEST DUP5 DUP1 MLOAD SWAP1 PUSH1 0x20 ADD KECCAK256 PUSH1 0x0 DUP1 DUP5 DUP2 MSTORE PUSH1 0x20 ADD SWAP1 DUP2 MSTORE PUSH1 0x20 ADD PUSH1 0x0 KECCAK256 PUSH1 0x2 ADD PUSH1 0x40 MLOAD PUSH2 0x198D SWAP2 SWAP1 PUSH2 0x2430 JUMP JUMPDEST PUSH1 0x40 MLOAD DUP1 SWAP2 SUB SWAP1 KECCAK256 EQ ISZERO PUSH2 0x19B3 JUMPI PUSH1 0x40 MLOAD PUSH3 0x461BCD PUSH1 0xE5 SHL DUP2 MSTORE PUSH1 0x4 ADD PUSH2 0x31F SWAP1 PUSH2 0x278C JUMP JUMPDEST PUSH1 0x40 DUP1 MLOAD PUSH1 0xA0 DUP2 ADD DUP3 MSTORE DUP9 DUP2 MSTORE PUSH1 0x20 DUP1 DUP3 ADD DUP10 SWAP1 MSTORE DUP2 DUP4 ADD DUP9 SWAP1 MSTORE PUSH1 0x60 DUP3 ADD DUP8 SWAP1 MSTORE PUSH1 0x1 PUSH1 0x80 DUP4 ADD MSTORE PUSH1 0x0 DUP6 DUP2 MSTORE DUP1 DUP3 MSTORE SWAP3 SWAP1 SWAP3 KECCAK256 DUP2 MLOAD DUP1 MLOAD SWAP3 SWAP4 SWAP2 SWAP3 PUSH2 0x19FD SWAP3 DUP5 SWAP3 ADD SWAP1 PUSH2 0x1E6A JUMP JUMPDEST POP PUSH1 0x20 DUP3 DUP2 ADD MLOAD DUP1 MLOAD PUSH2 0x1A16 SWAP3 PUSH1 0x1 DUP6 ADD SWAP3 ADD SWAP1 PUSH2 0x1E6A JUMP JUMPDEST POP PUSH1 0x40 DUP3 ADD MLOAD DUP1 MLOAD PUSH2 0x1A32 SWAP2 PUSH1 0x2 DUP5 ADD SWAP2 PUSH1 0x20 SWAP1 SWAP2 ADD SWAP1 PUSH2 0x1E6A JUMP JUMPDEST POP PUSH1 0x60 DUP3 ADD MLOAD DUP1 MLOAD PUSH2 0x1A4E SWAP2 PUSH1 0x3 DUP5 ADD SWAP2 PUSH1 0x20 SWAP1 SWAP2 ADD SWAP1 PUSH2 0x1E6A JUMP JUMPDEST POP PUSH1 0x80 SWAP2 SWAP1 SWAP2 ADD MLOAD PUSH1 0x4 SWAP1 SWAP2 ADD DUP1 SLOAD PUSH1 0xFF NOT AND SWAP2 ISZERO ISZERO SWAP2 SWAP1 SWAP2 OR SWAP1 SSTORE POP PUSH1 0x40 DUP1 MLOAD DUP1 DUP3 ADD SWAP1 SWAP2 MSTORE PUSH1 0x19 DUP2 MSTORE PUSH32 0x50617469656E7420526567697374726174696F6E20446F6E6500000000000000 PUSH1 0x20 DUP3 ADD MSTORE JUMPDEST PUSH1 0x1 DUP4 PUSH1 0x1 DUP2 GT ISZERO PUSH2 0x1AC2 JUMPI PUSH4 0x4E487B71 PUSH1 0xE0 SHL PUSH1 0x0 MSTORE PUSH1 0x21 PUSH1 0x4 MSTORE PUSH1 0x24 PUSH1 0x0 REVERT JUMPDEST EQ ISZERO PUSH2 0x1BFB JUMPI DUP6 DUP1 MLOAD SWAP1 PUSH1 0x20 ADD KECCAK256 PUSH1 0x0 DUP1 DUP5 DUP2 MSTORE PUSH1 0x20 ADD SWAP1 DUP2 MSTORE PUSH1 0x20 ADD PUSH1 0x0 KECCAK256 PUSH1 0x1 ADD PUSH1 0x40 MLOAD PUSH2 0x1AF2 SWAP2 SWAP1 PUSH2 0x2430 JUMP JUMPDEST PUSH1 0x40 MLOAD DUP1 SWAP2 SUB SWAP1 KECCAK256 EQ PUSH2 0x1B17 JUMPI PUSH1 0x40 MLOAD PUSH3 0x461BCD PUSH1 0xE5 SHL DUP2 MSTORE PUSH1 0x4 ADD PUSH2 0x31F SWAP1 PUSH2 0x2813 JUMP JUMPDEST DUP5 DUP1 MLOAD SWAP1 PUSH1 0x20 ADD KECCAK256 PUSH1 0x0 DUP1 DUP5 DUP2 MSTORE PUSH1 0x20 ADD SWAP1 DUP2 MSTORE PUSH1 0x20 ADD PUSH1 0x0 KECCAK256 PUSH1 0x2 ADD PUSH1 0x40 MLOAD PUSH2 0x1B41 SWAP2 SWAP1 PUSH2 0x2430 JUMP JUMPDEST PUSH1 0x40 MLOAD DUP1 SWAP2 SUB SWAP1 KECCAK256 EQ PUSH2 0x1B66 JUMPI PUSH1 0x40 MLOAD PUSH3 0x461BCD PUSH1 0xE5 SHL DUP2 MSTORE PUSH1 0x4 ADD PUSH2 0x31F SWAP1 PUSH2 0x278C JUMP JUMPDEST PUSH1 0x0 DUP3 DUP2 MSTORE PUSH1 0x20 DUP2 DUP2 MSTORE PUSH1 0x40 SWAP1 SWAP2 KECCAK256 DUP9 MLOAD PUSH2 0x1B83 SWAP3 DUP11 ADD SWAP1 PUSH2 0x1E6A JUMP JUMPDEST POP PUSH1 0x0 DUP3 DUP2 MSTORE PUSH1 0x20 DUP2 DUP2 MSTORE PUSH1 0x40 SWAP1 SWAP2 KECCAK256 DUP8 MLOAD PUSH2 0x1BA7 SWAP3 PUSH1 0x1 SWAP1 SWAP3 ADD SWAP2 DUP10 ADD SWAP1 PUSH2 0x1E6A JUMP JUMPDEST POP PUSH1 0x0 DUP3 DUP2 MSTORE PUSH1 0x20 DUP2 DUP2 MSTORE PUSH1 0x40 SWAP1 SWAP2 KECCAK256 DUP7 MLOAD PUSH2 0x1BCB SWAP3 PUSH1 0x2 SWAP1 SWAP3 ADD SWAP2 DUP9 ADD SWAP1 PUSH2 0x1E6A JUMP JUMPDEST POP POP PUSH1 0x40 DUP1 MLOAD DUP1 DUP3 ADD SWAP1 SWAP2 MSTORE PUSH1 0x16 DUP2 MSTORE PUSH22 0x14185D1A595B9D08149958DBDC9908155C19185D1959 PUSH1 0x52 SHL PUSH1 0x20 DUP3 ADD MSTORE JUMPDEST PUSH1 0x0 DUP1 MLOAD PUSH1 0x20 PUSH2 0x294F DUP4 CODECOPY DUP2 MLOAD SWAP2 MSTORE DUP3 DUP3 TIMESTAMP PUSH1 0x40 MLOAD PUSH2 0x18A9 SWAP4 SWAP3 SWAP2 SWAP1 PUSH2 0x2857 JUMP JUMPDEST PUSH1 0x2 PUSH1 0x20 MSTORE PUSH1 0x0 SWAP1 DUP2 MSTORE PUSH1 0x40 SWAP1 KECCAK256 DUP1 SLOAD DUP2 SWAP1 PUSH2 0x1C37 SWAP1 PUSH2 0x28B0 JUMP JUMPDEST DUP1 PUSH1 0x1F ADD PUSH1 0x20 DUP1 SWAP2 DIV MUL PUSH1 0x20 ADD PUSH1 0x40 MLOAD SWAP1 DUP2 ADD PUSH1 0x40 MSTORE DUP1 SWAP3 SWAP2 SWAP1 DUP2 DUP2 MSTORE PUSH1 0x20 ADD DUP3 DUP1 SLOAD PUSH2 0x1C63 SWAP1 PUSH2 0x28B0 JUMP JUMPDEST DUP1 ISZERO PUSH2 0x1CB0 JUMPI DUP1 PUSH1 0x1F LT PUSH2 0x1C85 JUMPI PUSH2 0x100 DUP1 DUP4 SLOAD DIV MUL DUP4 MSTORE SWAP2 PUSH1 0x20 ADD SWAP2 PUSH2 0x1CB0 JUMP JUMPDEST DUP3 ADD SWAP2 SWAP1 PUSH1 0x0 MSTORE PUSH1 0x20 PUSH1 0x0 KECCAK256 SWAP1 JUMPDEST DUP2 SLOAD DUP2 MSTORE SWAP1 PUSH1 0x1 ADD SWAP1 PUSH1 0x20 ADD DUP1 DUP4 GT PUSH2 0x1C93 JUMPI DUP3 SWAP1 SUB PUSH1 0x1F AND DUP3 ADD SWAP2 JUMPDEST POP POP POP POP POP SWAP1 DUP1 PUSH1 0x1 ADD DUP1 SLOAD PUSH2 0x1CC5 SWAP1 PUSH2 0x28B0 JUMP JUMPDEST DUP1 PUSH1 0x1F ADD PUSH1 0x20 DUP1 SWAP2 DIV MUL PUSH1 0x20 ADD PUSH1 0x40 MLOAD SWAP1 DUP2 ADD PUSH1 0x40 MSTORE DUP1 SWAP3 SWAP2 SWAP1 DUP2 DUP2 MSTORE PUSH1 0x20 ADD DUP3 DUP1 SLOAD PUSH2 0x1CF1 SWAP1 PUSH2 0x28B0 JUMP JUMPDEST DUP1 ISZERO PUSH2 0x1D3E JUMPI DUP1 PUSH1 0x1F LT PUSH2 0x1D13 JUMPI PUSH2 0x100 DUP1 DUP4 SLOAD DIV MUL DUP4 MSTORE SWAP2 PUSH1 0x20 ADD SWAP2 PUSH2 0x1D3E JUMP JUMPDEST DUP3 ADD SWAP2 SWAP1 PUSH1 0x0 MSTORE PUSH1 0x20 PUSH1 0x0 KECCAK256 SWAP1 JUMPDEST DUP2 SLOAD DUP2 MSTORE SWAP1 PUSH1 0x1 ADD SWAP1 PUSH1 0x20 ADD DUP1 DUP4 GT PUSH2 0x1D21 JUMPI DUP3 SWAP1 SUB PUSH1 0x1F AND DUP3 ADD SWAP2 JUMPDEST POP POP POP POP POP SWAP1 DUP1 PUSH1 0x2 ADD DUP1 SLOAD PUSH2 0x1D53 SWAP1 PUSH2 0x28B0 JUMP JUMPDEST DUP1 PUSH1 0x1F ADD PUSH1 0x20 DUP1 SWAP2 DIV MUL PUSH1 0x20 ADD PUSH1 0x40 MLOAD SWAP1 DUP2 ADD PUSH1 0x40 MSTORE DUP1 SWAP3 SWAP2 SWAP1 DUP2 DUP2 MSTORE PUSH1 0x20 ADD DUP3 DUP1 SLOAD PUSH2 0x1D7F SWAP1 PUSH2 0x28B0 JUMP JUMPDEST DUP1 ISZERO PUSH2 0x1DCC JUMPI DUP1 PUSH1 0x1F LT PUSH2 0x1DA1 JUMPI PUSH2 0x100 DUP1 DUP4 SLOAD DIV MUL DUP4 MSTORE SWAP2 PUSH1 0x20 ADD SWAP2 PUSH2 0x1DCC JUMP JUMPDEST DUP3 ADD SWAP2 SWAP1 PUSH1 0x0 MSTORE PUSH1 0x20 PUSH1 0x0 KECCAK256 SWAP1 JUMPDEST DUP2 SLOAD DUP2 MSTORE SWAP1 PUSH1 0x1 ADD SWAP1 PUSH1 0x20 ADD DUP1 DUP4 GT PUSH2 0x1DAF JUMPI DUP3 SWAP1 SUB PUSH1 0x1F AND DUP3 ADD SWAP2 JUMPDEST POP POP POP POP POP SWAP1 DUP1 PUSH1 0x3 ADD DUP1 SLOAD PUSH2 0x1DE1 SWAP1 PUSH2 0x28B0 JUMP JUMPDEST DUP1 PUSH1 0x1F ADD PUSH1 0x20 DUP1 SWAP2 DIV MUL PUSH1 0x20 ADD PUSH1 0x40 MLOAD SWAP1 DUP2 ADD PUSH1 0x40 MSTORE DUP1 SWAP3 SWAP2 SWAP1 DUP2 DUP2 MSTORE PUSH1 0x20 ADD DUP3 DUP1 SLOAD PUSH2 0x1E0D SWAP1 PUSH2 0x28B0 JUMP JUMPDEST DUP1 ISZERO PUSH2 0x1E5A JUMPI DUP1 PUSH1 0x1F LT PUSH2 0x1E2F JUMPI PUSH2 0x100 DUP1 DUP4 SLOAD DIV MUL DUP4 MSTORE SWAP2 PUSH1 0x20 ADD SWAP2 PUSH2 0x1E5A JUMP JUMPDEST DUP3 ADD SWAP2 SWAP1 PUSH1 0x0 MSTORE PUSH1 0x20 PUSH1 0x0 KECCAK256 SWAP1 JUMPDEST DUP2 SLOAD DUP2 MSTORE SWAP1 PUSH1 0x1 ADD SWAP1 PUSH1 0x20 ADD DUP1 DUP4 GT PUSH2 0x1E3D JUMPI DUP3 SWAP1 SUB PUSH1 0x1F AND DUP3 ADD SWAP2 JUMPDEST POP POP POP POP POP SWAP1 DUP1 PUSH1 0x4 ADD SLOAD SWAP1 POP DUP6 JUMP JUMPDEST DUP3 DUP1 SLOAD PUSH2 0x1E76 SWAP1 PUSH2 0x28B0 JUMP JUMPDEST SWAP1 PUSH1 0x0 MSTORE PUSH1 0x20 PUSH1 0x0 KECCAK256 SWAP1 PUSH1 0x1F ADD PUSH1 0x20 SWAP1 DIV DUP2 ADD SWAP3 DUP3 PUSH2 0x1E98 JUMPI PUSH1 0x0 DUP6 SSTORE PUSH2 0x1EDE JUMP JUMPDEST DUP3 PUSH1 0x1F LT PUSH2 0x1EB1 JUMPI DUP1 MLOAD PUSH1 0xFF NOT AND DUP4 DUP1 ADD OR DUP6 SSTORE PUSH2 0x1EDE JUMP JUMPDEST DUP3 DUP1 ADD PUSH1 0x1 ADD DUP6 SSTORE DUP3 ISZERO PUSH2 0x1EDE JUMPI SWAP2 DUP3 ADD JUMPDEST DUP3 DUP2 GT ISZERO PUSH2 0x1EDE JUMPI DUP3 MLOAD DUP3 SSTORE SWAP2 PUSH1 0x20 ADD SWAP2 SWAP1 PUSH1 0x1 ADD SWAP1 PUSH2 0x1EC3 JUMP JUMPDEST POP PUSH2 0x1EEA SWAP3 SWAP2 POP PUSH2 0x1EEE JUMP JUMPDEST POP SWAP1 JUMP JUMPDEST JUMPDEST DUP1 DUP3 GT ISZERO PUSH2 0x1EEA JUMPI PUSH1 0x0 DUP2 SSTORE PUSH1 0x1 ADD PUSH2 0x1EEF JUMP JUMPDEST DUP1 CALLDATALOAD PUSH1 0x5 DUP2 LT PUSH2 0x1F12 JUMPI PUSH1 0x0 DUP1 REVERT JUMPDEST SWAP2 SWAP1 POP JUMP JUMPDEST DUP1 CALLDATALOAD PUSH1 0x3 DUP2 LT PUSH2 0x1F12 JUMPI PUSH1 0x0 DUP1 REVERT JUMPDEST DUP1 CALLDATALOAD PUSH2 0x1F12 DUP2 PUSH2 0x293E JUMP JUMPDEST PUSH1 0x0 DUP3 PUSH1 0x1F DUP4 ADD SLT PUSH2 0x1F41 JUMPI DUP1 DUP2 REVERT JUMPDEST DUP2 CALLDATALOAD PUSH8 0xFFFFFFFFFFFFFFFF DUP1 DUP3 GT ISZERO PUSH2 0x1F5C JUMPI PUSH2 0x1F5C PUSH2 0x2928 JUMP JUMPDEST PUSH1 0x40 MLOAD PUSH1 0x1F DUP4 ADD PUSH1 0x1F NOT SWAP1 DUP2 AND PUSH1 0x3F ADD AND DUP2 ADD SWAP1 DUP3 DUP3 GT DUP2 DUP4 LT OR ISZERO PUSH2 0x1F84 JUMPI PUSH2 0x1F84 PUSH2 0x2928 JUMP JUMPDEST DUP2 PUSH1 0x40 MSTORE DUP4 DUP2 MSTORE DUP7 PUSH1 0x20 DUP6 DUP9 ADD ADD GT ISZERO PUSH2 0x1F9C JUMPI DUP5 DUP6 REVERT JUMPDEST DUP4 PUSH1 0x20 DUP8 ADD PUSH1 0x20 DUP4 ADD CALLDATACOPY SWAP3 DUP4 ADD PUSH1 0x20 ADD SWAP4 SWAP1 SWAP4 MSTORE POP SWAP4 SWAP3 POP POP POP JUMP JUMPDEST PUSH1 0x0 DUP1 PUSH1 0x0 DUP1 PUSH1 0x0 PUSH1 0xA0 DUP7 DUP9 SUB SLT ISZERO PUSH2 0x1FCF JUMPI DUP1 DUP2 REVERT JUMPDEST DUP6 CALLDATALOAD PUSH8 0xFFFFFFFFFFFFFFFF DUP1 DUP3 GT ISZERO PUSH2 0x1FE6 JUMPI DUP3 DUP4 REVERT JUMPDEST PUSH2 0x1FF2 DUP10 DUP4 DUP11 ADD PUSH2 0x1F31 JUMP JUMPDEST SWAP7 POP PUSH1 0x20 DUP9 ADD CALLDATALOAD SWAP2 POP DUP1 DUP3 GT ISZERO PUSH2 0x2007 JUMPI DUP3 DUP4 REVERT JUMPDEST PUSH2 0x2013 DUP10 DUP4 DUP11 ADD PUSH2 0x1F31 JUMP JUMPDEST SWAP6 POP PUSH1 0x40 DUP9 ADD CALLDATALOAD SWAP2 POP DUP1 DUP3 GT ISZERO PUSH2 0x2028 JUMPI DUP3 DUP4 REVERT JUMPDEST PUSH2 0x2034 DUP10 DUP4 DUP11 ADD PUSH2 0x1F31 JUMP JUMPDEST SWAP5 POP PUSH1 0x60 DUP9 ADD CALLDATALOAD SWAP2 POP DUP1 DUP3 GT ISZERO PUSH2 0x2049 JUMPI DUP3 DUP4 REVERT JUMPDEST POP PUSH2 0x2056 DUP9 DUP3 DUP10 ADD PUSH2 0x1F31 JUMP JUMPDEST SWAP3 POP POP PUSH1 0x80 DUP7 ADD CALLDATALOAD PUSH2 0x2067 DUP2 PUSH2 0x293E JUMP JUMPDEST DUP1 SWAP2 POP POP SWAP3 SWAP6 POP SWAP3 SWAP6 SWAP1 SWAP4 POP JUMP JUMPDEST PUSH1 0x0 DUP1 PUSH1 0x0 DUP1 PUSH1 0x0 DUP1 PUSH1 0x0 DUP1 PUSH2 0x100 DUP10 DUP12 SUB SLT ISZERO PUSH2 0x2091 JUMPI DUP3 DUP4 REVERT JUMPDEST DUP9 CALLDATALOAD PUSH8 0xFFFFFFFFFFFFFFFF DUP1 DUP3 GT ISZERO PUSH2 0x20A8 JUMPI DUP5 DUP6 REVERT JUMPDEST PUSH2 0x20B4 DUP13 DUP4 DUP14 ADD PUSH2 0x1F31 JUMP JUMPDEST SWAP10 POP PUSH1 0x20 DUP12 ADD CALLDATALOAD SWAP2 POP DUP1 DUP3 GT ISZERO PUSH2 0x20C9 JUMPI DUP5 DUP6 REVERT JUMPDEST PUSH2 0x20D5 DUP13 DUP4 DUP14 ADD PUSH2 0x1F31 JUMP JUMPDEST SWAP9 POP PUSH1 0x40 DUP12 ADD CALLDATALOAD SWAP2 POP DUP1 DUP3 GT ISZERO PUSH2 0x20EA JUMPI DUP5 DUP6 REVERT JUMPDEST PUSH2 0x20F6 DUP13 DUP4 DUP14 ADD PUSH2 0x1F31 JUMP JUMPDEST SWAP8 POP PUSH1 0x60 DUP12 ADD CALLDATALOAD SWAP2 POP DUP1 DUP3 GT ISZERO PUSH2 0x210B JUMPI DUP5 DUP6 REVERT JUMPDEST PUSH2 0x2117 DUP13 DUP4 DUP14 ADD PUSH2 0x1F31 JUMP JUMPDEST SWAP7 POP PUSH1 0x80 DUP12 ADD CALLDATALOAD SWAP2 POP DUP1 DUP3 GT ISZERO PUSH2 0x212C JUMPI DUP5 DUP6 REVERT JUMPDEST POP PUSH2 0x2139 DUP12 DUP3 DUP13 ADD PUSH2 0x1F31 JUMP JUMPDEST SWAP5 POP POP PUSH2 0x2148 PUSH1 0xA0 DUP11 ADD PUSH2 0x1F03 JUMP JUMPDEST SWAP3 POP PUSH2 0x2156 PUSH1 0xC0 DUP11 ADD PUSH2 0x1F17 JUMP JUMPDEST SWAP2 POP PUSH2 0x2164 PUSH1 0xE0 DUP11 ADD PUSH2 0x1F26 JUMP JUMPDEST SWAP1 POP SWAP3 SWAP6 SWAP9 POP SWAP3 SWAP6 SWAP9 SWAP1 SWAP4 SWAP7 POP JUMP JUMPDEST PUSH1 0x0 DUP1 PUSH1 0x0 DUP1 PUSH1 0x0 DUP1 PUSH1 0xC0 DUP8 DUP10 SUB SLT ISZERO PUSH2 0x218B JUMPI DUP2 DUP3 REVERT JUMPDEST DUP7 CALLDATALOAD PUSH8 0xFFFFFFFFFFFFFFFF DUP1 DUP3 GT ISZERO PUSH2 0x21A2 JUMPI DUP4 DUP5 REVERT JUMPDEST PUSH2 0x21AE DUP11 DUP4 DUP12 ADD PUSH2 0x1F31 JUMP JUMPDEST SWAP8 POP PUSH1 0x20 DUP10 ADD CALLDATALOAD SWAP2 POP DUP1 DUP3 GT ISZERO PUSH2 0x21C3 JUMPI DUP4 DUP5 REVERT JUMPDEST PUSH2 0x21CF DUP11 DUP4 DUP12 ADD PUSH2 0x1F31 JUMP JUMPDEST SWAP7 POP PUSH1 0x40 DUP10 ADD CALLDATALOAD SWAP2 POP DUP1 DUP3 GT ISZERO PUSH2 0x21E4 JUMPI DUP4 DUP5 REVERT JUMPDEST PUSH2 0x21F0 DUP11 DUP4 DUP12 ADD PUSH2 0x1F31 JUMP JUMPDEST SWAP6 POP PUSH1 0x60 DUP10 ADD CALLDATALOAD SWAP2 POP DUP1 DUP3 GT ISZERO PUSH2 0x2205 JUMPI DUP4 DUP5 REVERT JUMPDEST POP PUSH2 0x2212 DUP10 DUP3 DUP11 ADD PUSH2 0x1F31 JUMP JUMPDEST SWAP4 POP POP PUSH1 0x80 DUP8 ADD CALLDATALOAD SWAP2 POP PUSH1 0xA0 DUP8 ADD CALLDATALOAD SWAP1 POP SWAP3 SWAP6 POP SWAP3 SWAP6 POP SWAP3 SWAP6 JUMP JUMPDEST PUSH1 0x0 DUP1 PUSH1 0x0 DUP1 PUSH1 0x0 PUSH1 0xA0 DUP7 DUP9 SUB SLT ISZERO PUSH2 0x2244 JUMPI DUP1 DUP2 REVERT JUMPDEST DUP6 CALLDATALOAD PUSH8 0xFFFFFFFFFFFFFFFF DUP1 DUP3 GT ISZERO PUSH2 0x225B JUMPI DUP3 DUP4 REVERT JUMPDEST PUSH2 0x2267 DUP10 DUP4 DUP11 ADD PUSH2 0x1F31 JUMP JUMPDEST SWAP7 POP PUSH1 0x20 DUP9 ADD CALLDATALOAD SWAP2 POP DUP1 DUP3 GT ISZERO PUSH2 0x227C JUMPI DUP3 DUP4 REVERT JUMPDEST POP PUSH2 0x2289 DUP9 DUP3 DUP10 ADD PUSH2 0x1F31 JUMP JUMPDEST SWAP6 SWAP9 SWAP6 SWAP8 POP POP POP POP PUSH1 0x40 DUP5 ADD CALLDATALOAD SWAP4 PUSH1 0x60 DUP2 ADD CALLDATALOAD SWAP4 PUSH1 0x80 SWAP1 SWAP2 ADD CALLDATALOAD SWAP3 POP SWAP1 POP JUMP JUMPDEST PUSH1 0x0 PUSH1 0x20 DUP3 DUP5 SUB SLT ISZERO PUSH2 0x22BA JUMPI DUP1 DUP2 REVERT JUMPDEST POP CALLDATALOAD SWAP2 SWAP1 POP JUMP JUMPDEST PUSH1 0x0 DUP1 PUSH1 0x0 DUP1 PUSH1 0x80 DUP6 DUP8 SUB SLT ISZERO PUSH2 0x22D6 JUMPI DUP4 DUP5 REVERT JUMPDEST DUP5 CALLDATALOAD SWAP4 POP PUSH1 0x20 DUP6 ADD CALLDATALOAD PUSH8 0xFFFFFFFFFFFFFFFF DUP1 DUP3 GT ISZERO PUSH2 0x22F4 JUMPI DUP5 DUP6 REVERT JUMPDEST PUSH2 0x2300 DUP9 DUP4 DUP10 ADD PUSH2 0x1F31 JUMP JUMPDEST SWAP5 POP PUSH1 0x40 DUP8 ADD CALLDATALOAD SWAP2 POP DUP1 DUP3 GT ISZERO PUSH2 0x2315 JUMPI DUP4 DUP5 REVERT JUMPDEST PUSH2 0x2321 DUP9 DUP4 DUP10 ADD PUSH2 0x1F31 JUMP JUMPDEST SWAP4 POP PUSH1 0x60 DUP8 ADD CALLDATALOAD SWAP2 POP DUP1 DUP3 GT ISZERO PUSH2 0x2336 JUMPI DUP3 DUP4 REVERT JUMPDEST POP PUSH2 0x2343 DUP8 DUP3 DUP9 ADD PUSH2 0x1F31 JUMP JUMPDEST SWAP2 POP POP SWAP3 SWAP6 SWAP2 SWAP5 POP SWAP3 POP JUMP JUMPDEST PUSH1 0x0 DUP1 PUSH1 0x40 DUP4 DUP6 SUB SLT ISZERO PUSH2 0x2361 JUMPI DUP2 DUP3 REVERT JUMPDEST POP POP DUP1 CALLDATALOAD SWAP3 PUSH1 0x20 SWAP1 SWAP2 ADD CALLDATALOAD SWAP2 POP JUMP JUMPDEST PUSH1 0x0 DUP1 PUSH1 0x0 PUSH1 0x60 DUP5 DUP7 SUB SLT ISZERO PUSH2 0x2384 JUMPI DUP3 DUP4 REVERT JUMPDEST DUP4 CALLDATALOAD SWAP3 POP PUSH1 0x20 DUP5 ADD CALLDATALOAD SWAP2 POP PUSH1 0x40 DUP5 ADD CALLDATALOAD PUSH2 0x239D DUP2 PUSH2 0x293E JUMP JUMPDEST DUP1 SWAP2 POP POP SWAP3 POP SWAP3 POP SWAP3 JUMP JUMPDEST PUSH1 0x0 DUP1 PUSH1 0x0 PUSH1 0x60 DUP5 DUP7 SUB SLT ISZERO PUSH2 0x23BC JUMPI DUP3 DUP4 REVERT JUMPDEST POP POP DUP2 CALLDATALOAD SWAP4 PUSH1 0x20 DUP4 ADD CALLDATALOAD SWAP4 POP PUSH1 0x40 SWAP1 SWAP3 ADD CALLDATALOAD SWAP2 SWAP1 POP JUMP JUMPDEST PUSH1 0x0 DUP1 PUSH1 0x0 DUP1 PUSH1 0x80 DUP6 DUP8 SUB SLT ISZERO PUSH2 0x23E8 JUMPI DUP2 DUP3 REVERT JUMPDEST POP POP DUP3 CALLDATALOAD SWAP5 PUSH1 0x20 DUP5 ADD CALLDATALOAD SWAP5 POP PUSH1 0x40 DUP5 ADD CALLDATALOAD SWAP4 PUSH1 0x60 ADD CALLDATALOAD SWAP3 POP SWAP1 POP JUMP JUMPDEST PUSH1 0x0 DUP2 MLOAD DUP1 DUP5 MSTORE PUSH2 0x241C DUP2 PUSH1 0x20 DUP7 ADD PUSH1 0x20 DUP7 ADD PUSH2 0x2880 JUMP JUMPDEST PUSH1 0x1F ADD PUSH1 0x1F NOT AND SWAP3 SWAP1 SWAP3 ADD PUSH1 0x20 ADD SWAP3 SWAP2 POP POP JUMP JUMPDEST PUSH1 0x0 DUP1 DUP4 SLOAD DUP3 PUSH1 0x1 DUP3 DUP2 SHR SWAP2 POP DUP1 DUP4 AND DUP1 PUSH2 0x244C JUMPI PUSH1 0x7F DUP4 AND SWAP3 POP JUMPDEST PUSH1 0x20 DUP1 DUP5 LT DUP3 EQ ISZERO PUSH2 0x246C JUMPI PUSH4 0x4E487B71 PUSH1 0xE0 SHL DUP8 MSTORE PUSH1 0x22 PUSH1 0x4 MSTORE PUSH1 0x24 DUP8 REVERT JUMPDEST DUP2 DUP1 ISZERO PUSH2 0x2480 JUMPI PUSH1 0x1 DUP2 EQ PUSH2 0x2491 JUMPI PUSH2 0x24BD JUMP JUMPDEST PUSH1 0xFF NOT DUP7 AND DUP10 MSTORE DUP5 DUP10 ADD SWAP7 POP PUSH2 0x24BD JUMP JUMPDEST PUSH1 0x0 DUP11 DUP2 MSTORE PUSH1 0x20 SWAP1 KECCAK256 DUP9 JUMPDEST DUP7 DUP2 LT ISZERO PUSH2 0x24B5 JUMPI DUP2 SLOAD DUP12 DUP3 ADD MSTORE SWAP1 DUP6 ADD SWAP1 DUP4 ADD PUSH2 0x249C JUMP JUMPDEST POP POP DUP5 DUP10 ADD SWAP7 POP JUMPDEST POP SWAP5 SWAP9 SWAP8 POP POP POP POP POP POP POP POP JUMP JUMPDEST PUSH1 0x0 DUP4 MLOAD PUSH2 0x24DD DUP2 DUP5 PUSH1 0x20 DUP9 ADD PUSH2 0x2880 JUMP JUMPDEST DUP4 MLOAD SWAP1 DUP4 ADD SWAP1 PUSH2 0x24F1 DUP2 DUP4 PUSH1 0x20 DUP9 ADD PUSH2 0x2880 JUMP JUMPDEST ADD SWAP5 SWAP4 POP POP POP POP JUMP JUMPDEST PUSH1 0x80 DUP2 MSTORE PUSH1 0x0 PUSH2 0x250D PUSH1 0x80 DUP4 ADD DUP8 PUSH2 0x2404 JUMP JUMPDEST DUP3 DUP2 SUB PUSH1 0x20 DUP5 ADD MSTORE PUSH2 0x251F DUP2 DUP8 PUSH2 0x2404 JUMP JUMPDEST SWAP1 POP DUP3 DUP2 SUB PUSH1 0x40 DUP5 ADD MSTORE PUSH2 0x2533 DUP2 DUP7 PUSH2 0x2404 JUMP JUMPDEST SWAP2 POP POP DUP3 ISZERO ISZERO PUSH1 0x60 DUP4 ADD MSTORE SWAP6 SWAP5 POP POP POP POP POP JUMP JUMPDEST PUSH1 0xA0 DUP2 MSTORE PUSH1 0x0 PUSH2 0x255A PUSH1 0xA0 DUP4 ADD DUP9 PUSH2 0x2404 JUMP JUMPDEST DUP3 DUP2 SUB PUSH1 0x20 DUP5 ADD MSTORE PUSH2 0x256C DUP2 DUP9 PUSH2 0x2404 JUMP JUMPDEST SWAP1 POP DUP3 DUP2 SUB PUSH1 0x40 DUP5 ADD MSTORE PUSH2 0x2580 DUP2 DUP8 PUSH2 0x2404 JUMP JUMPDEST SWAP1 POP DUP3 DUP2 SUB PUSH1 0x60 DUP5 ADD MSTORE PUSH2 0x2594 DUP2 DUP7 PUSH2 0x2404 JUMP JUMPDEST SWAP2 POP POP DUP3 ISZERO ISZERO PUSH1 0x80 DUP4 ADD MSTORE SWAP7 SWAP6 POP POP POP POP POP POP JUMP JUMPDEST PUSH1 0x0 PUSH2 0x100 DUP1 DUP4 MSTORE PUSH2 0x25BD DUP2 DUP5 ADD DUP13 PUSH2 0x2404 JUMP JUMPDEST SWAP1 POP DUP3 DUP2 SUB PUSH1 0x20 DUP5 ADD MSTORE PUSH2 0x25D1 DUP2 DUP12 PUSH2 0x2404 JUMP JUMPDEST SWAP1 POP DUP3 DUP2 SUB PUSH1 0x40 DUP5 ADD MSTORE PUSH2 0x25E5 DUP2 DUP11 PUSH2 0x2404 JUMP JUMPDEST SWAP1 POP DUP3 DUP2 SUB PUSH1 0x60 DUP5 ADD MSTORE PUSH2 0x25F9 DUP2 DUP10 PUSH2 0x2404 JUMP JUMPDEST SWAP1 POP DUP3 DUP2 SUB PUSH1 0x80 DUP5 ADD MSTORE PUSH2 0x260D DUP2 DUP9 PUSH2 0x2404 JUMP JUMPDEST SWAP2 POP POP PUSH1 0x5 DUP6 LT PUSH2 0x2620 JUMPI PUSH2 0x2620 PUSH2 0x2912 JUMP JUMPDEST DUP5 PUSH1 0xA0 DUP4 ADD MSTORE PUSH1 0x3 DUP5 LT PUSH2 0x2636 JUMPI PUSH2 0x2636 PUSH2 0x2912 JUMP JUMPDEST DUP4 PUSH1 0xC0 DUP4 ADD MSTORE DUP3 ISZERO ISZERO PUSH1 0xE0 DUP4 ADD MSTORE SWAP10 SWAP9 POP POP POP POP POP POP POP POP POP JUMP JUMPDEST PUSH1 0xA0 DUP2 MSTORE PUSH1 0x0 PUSH2 0x2664 PUSH1 0xA0 DUP4 ADD DUP9 PUSH2 0x2404 JUMP JUMPDEST DUP3 DUP2 SUB PUSH1 0x20 DUP5 ADD MSTORE PUSH2 0x2676 DUP2 DUP9 PUSH2 0x2404 JUMP JUMPDEST SWAP1 POP DUP3 DUP2 SUB PUSH1 0x40 DUP5 ADD MSTORE PUSH2 0x268A DUP2 DUP8 PUSH2 0x2404 JUMP JUMPDEST SWAP1 POP DUP3 DUP2 SUB PUSH1 0x60 DUP5 ADD MSTORE PUSH2 0x269E DUP2 DUP7 PUSH2 0x2404 JUMP JUMPDEST SWAP2 POP POP DUP3 PUSH1 0x80 DUP4 ADD MSTORE SWAP7 SWAP6 POP POP POP POP POP POP JUMP JUMPDEST PUSH1 0x80 DUP2 MSTORE PUSH1 0x0 PUSH2 0x26C4 PUSH1 0x80 DUP4 ADD DUP8 PUSH2 0x2404 JUMP JUMPDEST DUP3 DUP2 SUB PUSH1 0x20 DUP5 ADD MSTORE PUSH2 0x26D6 DUP2 DUP8 PUSH2 0x2404 JUMP JUMPDEST PUSH1 0x40 DUP5 ADD SWAP6 SWAP1 SWAP6 MSTORE POP POP PUSH1 0x60 ADD MSTORE SWAP3 SWAP2 POP POP JUMP JUMPDEST PUSH1 0x80 DUP2 MSTORE PUSH1 0x0 PUSH2 0x26FD PUSH1 0x80 DUP4 ADD DUP8 PUSH2 0x2404 JUMP JUMPDEST PUSH1 0x20 DUP4 ADD SWAP6 SWAP1 SWAP6 MSTORE POP PUSH1 0x40 DUP2 ADD SWAP3 SWAP1 SWAP3 MSTORE PUSH1 0x60 SWAP1 SWAP2 ADD MSTORE SWAP2 SWAP1 POP JUMP JUMPDEST PUSH1 0x20 DUP1 DUP3 MSTORE PUSH1 0x23 SWAP1 DUP3 ADD MSTORE PUSH32 0x4548522D52442D30313A20446F63746F7220616C726561647920456E726F6C6C PUSH1 0x40 DUP3 ADD MSTORE PUSH3 0x32B217 PUSH1 0xE9 SHL PUSH1 0x60 DUP3 ADD MSTORE PUSH1 0x80 ADD SWAP1 JUMP JUMPDEST PUSH1 0x20 DUP1 DUP3 MSTORE PUSH1 0x16 SWAP1 DUP3 ADD MSTORE PUSH22 0x14185D1A595B9D08139BDD081C9959DA5CDD195C9959 PUSH1 0x52 SHL PUSH1 0x40 DUP3 ADD MSTORE PUSH1 0x60 ADD SWAP1 JUMP JUMPDEST PUSH1 0x20 DUP1 DUP3 MSTORE PUSH1 0x24 SWAP1 DUP3 ADD MSTORE PUSH32 0x4548522D52502D30323A2050617469656E7420616C726561647920456E726F6C PUSH1 0x40 DUP3 ADD MSTORE PUSH4 0x3632B217 PUSH1 0xE1 SHL PUSH1 0x60 DUP3 ADD MSTORE PUSH1 0x80 ADD SWAP1 JUMP JUMPDEST PUSH1 0x20 DUP1 DUP3 MSTORE PUSH1 0x23 SWAP1 DUP3 ADD MSTORE PUSH32 0x4548522D52442D30323A20446F63746F7220616C726561647920456E726F6C6C PUSH1 0x40 DUP3 ADD MSTORE PUSH3 0x32B217 PUSH1 0xE9 SHL PUSH1 0x60 DUP3 ADD MSTORE PUSH1 0x80 ADD SWAP1 JUMP JUMPDEST PUSH1 0x20 DUP1 DUP3 MSTORE PUSH1 0x24 SWAP1 DUP3 ADD MSTORE PUSH32 0x4548522D52502D30313A2050617469656E7420616C726561647920456E726F6C PUSH1 0x40 DUP3 ADD MSTORE PUSH4 0x3632B217 PUSH1 0xE1 SHL PUSH1 0x60 DUP3 ADD MSTORE PUSH1 0x80 ADD SWAP1 JUMP JUMPDEST DUP4 DUP2 MSTORE PUSH1 0x60 PUSH1 0x20 DUP3 ADD MSTORE PUSH1 0x0 PUSH2 0x2870 PUSH1 0x60 DUP4 ADD DUP6 PUSH2 0x2404 JUMP JUMPDEST SWAP1 POP DUP3 PUSH1 0x40 DUP4 ADD MSTORE SWAP5 SWAP4 POP POP POP POP JUMP JUMPDEST PUSH1 0x0 JUMPDEST DUP4 DUP2 LT ISZERO PUSH2 0x289B JUMPI DUP2 DUP2 ADD MLOAD DUP4 DUP3 ADD MSTORE PUSH1 0x20 ADD PUSH2 0x2883 JUMP JUMPDEST DUP4 DUP2 GT ISZERO PUSH2 0x28AA JUMPI PUSH1 0x0 DUP5 DUP5 ADD MSTORE JUMPDEST POP POP POP POP JUMP JUMPDEST PUSH1 0x1 DUP2 DUP2 SHR SWAP1 DUP3 AND DUP1 PUSH2 0x28C4 JUMPI PUSH1 0x7F DUP3 AND SWAP2 POP JUMPDEST PUSH1 0x20 DUP3 LT DUP2 EQ ISZERO PUSH2 0x28E5 JUMPI PUSH4 0x4E487B71 PUSH1 0xE0 SHL PUSH1 0x0 MSTORE PUSH1 0x22 PUSH1 0x4 MSTORE PUSH1 0x24 PUSH1 0x0 REVERT JUMPDEST POP SWAP2 SWAP1 POP JUMP JUMPDEST PUSH1 0x0 PUSH1 0x0 NOT DUP3 EQ ISZERO PUSH2 0x290B JUMPI PUSH4 0x4E487B71 PUSH1 0xE0 SHL DUP2 MSTORE PUSH1 0x11 PUSH1 0x4 MSTORE PUSH1 0x24 DUP2 REVERT JUMPDEST POP PUSH1 0x1 ADD SWAP1 JUMP JUMPDEST PUSH4 0x4E487B71 PUSH1 0xE0 SHL PUSH1 0x0 MSTORE PUSH1 0x21 PUSH1 0x4 MSTORE PUSH1 0x24 PUSH1 0x0 REVERT JUMPDEST PUSH4 0x4E487B71 PUSH1 0xE0 SHL PUSH1 0x0 MSTORE PUSH1 0x41 PUSH1 0x4 MSTORE PUSH1 0x24 PUSH1 0x0 REVERT JUMPDEST PUSH1 0x2 DUP2 LT PUSH2 0x294B JUMPI PUSH1 0x0 DUP1 REVERT JUMPDEST POP JUMP INVALID LT COINBASE SUB PUSH30 0x4B3EE5730FCE647EBD981CD0FD8864F61CD34868EF88A3FA6AF64721A264 PUSH10 0x706673582212202F271B DUP16 0xCE JUMPI PUSH15 0xFCB21B7E27B8A746516F62EF39ED95 PUSH29 0xAF4B0EB97DBECD1EF864736F6C63430008040033000000000000000000 "
				},
				"gasEstimates": {
					"creation": {
						"codeDepositCost": "2132000",
						"executionCost": "2272",
						"totalCost": "2134272"
					},
					"external": {
						"accessControl(uint256,uint256,uint8)": "infinite",
						"accessForDoctor(uint256,uint256)": "1268",
						"careGiverData(uint256,uint256)": "infinite",
						"doctorAccess(uint256)": "infinite",
						"patientAccess(uint256)": "infinite",
						"patientLocData(uint256)": "infinite",
						"patienthealthData(uint256)": "infinite",
						"patientrecordsData(uint256,uint256)": "1299",
						"recordByDoctor(uint256,uint256,uint256,uint256)": "22369",
						"recordByPatient(uint256,uint256,uint256)": "21350",
						"registerCareGiver(uint256,string,string,string)": "infinite",
						"registerDoctor(string,string,string,string,string,uint8,uint8,uint8)": "infinite",
						"registerPatientHealth(string,string,uint256,uint256,uint256)": "infinite",
						"registerPatientLoc(string,string,string,string,uint256,uint256)": "infinite",
						"registerPatients(string,string,string,string,uint8)": "infinite",
						"updateCareGiver(uint256,string,string,string)": "infinite"
					}
				},
				"methodIdentifiers": {
					"accessControl(uint256,uint256,uint8)": "a269b418",
					"accessForDoctor(uint256,uint256)": "4fcd407a",
					"careGiverData(uint256,uint256)": "cbd46fa3",
					"doctorAccess(uint256)": "0a77f6b0",
					"patientAccess(uint256)": "2990bc6f",
					"patientLocData(uint256)": "f75be4eb",
					"patienthealthData(uint256)": "c977baf3",
					"patientrecordsData(uint256,uint256)": "f60b48cb",
					"recordByDoctor(uint256,uint256,uint256,uint256)": "764b6b38",
					"recordByPatient(uint256,uint256,uint256)": "021bf487",
					"registerCareGiver(uint256,string,string,string)": "d1bbf4e0",
					"registerDoctor(string,string,string,string,string,uint8,uint8,uint8)": "db3e3976",
					"registerPatientHealth(string,string,uint256,uint256,uint256)": "d7349705",
					"registerPatientLoc(string,string,string,string,uint256,uint256)": "e078a1c6",
					"registerPatients(string,string,string,string,uint8)": "edef7049",
					"updateCareGiver(uint256,string,string,string)": "2ee8e639"
				}
			},
			"storageLayout": {
				"storage": [
					{
						"astId": 147,
						"contract": "test.sol:test",
						"label": "patientAccess",
						"offset": 0,
						"slot": "0",
						"type": "t_mapping(t_uint256,t_struct(patientEnroll)53_storage)"
					},
					{
						"astId": 152,
						"contract": "test.sol:test",
						"label": "doctorAccess",
						"offset": 0,
						"slot": "1",
						"type": "t_mapping(t_uint256,t_struct(doctorEnroll)42_storage)"
					},
					{
						"astId": 157,
						"contract": "test.sol:test",
						"label": "patientLocData",
						"offset": 0,
						"slot": "2",
						"type": "t_mapping(t_uint256,t_struct(patientGeo)64_storage)"
					},
					{
						"astId": 162,
						"contract": "test.sol:test",
						"label": "patienthealthData",
						"offset": 0,
						"slot": "3",
						"type": "t_mapping(t_uint256,t_struct(patienthealth)82_storage)"
					},
					{
						"astId": 168,
						"contract": "test.sol:test",
						"label": "patientrecordsData",
						"offset": 0,
						"slot": "4",
						"type": "t_mapping(t_uint256,t_mapping(t_uint256,t_uint256))"
					},
					{
						"astId": 175,
						"contract": "test.sol:test",
						"label": "careGiverData",
						"offset": 0,
						"slot": "5",
						"type": "t_mapping(t_uint256,t_mapping(t_uint256,t_struct(careGiver)73_storage))"
					},
					{
						"astId": 181,
						"contract": "test.sol:test",
						"label": "accessForDoctor",
						"offset": 0,
						"slot": "6",
						"type": "t_mapping(t_uint256,t_mapping(t_uint256,t_bool))"
					}
				],
				"types": {
					"t_bool": {
						"encoding": "inplace",
						"label": "bool",
						"numberOfBytes": "1"
					},
					"t_enum(DoctorType)10": {
						"encoding": "inplace",
						"label": "enum test.DoctorType",
						"numberOfBytes": "1"
					},
					"t_enum(Sex)14": {
						"encoding": "inplace",
						"label": "enum test.Sex",
						"numberOfBytes": "1"
					},
					"t_mapping(t_uint256,t_bool)": {
						"encoding": "mapping",
						"key": "t_uint256",
						"label": "mapping(uint256 => bool)",
						"numberOfBytes": "32",
						"value": "t_bool"
					},
					"t_mapping(t_uint256,t_mapping(t_uint256,t_bool))": {
						"encoding": "mapping",
						"key": "t_uint256",
						"label": "mapping(uint256 => mapping(uint256 => bool))",
						"numberOfBytes": "32",
						"value": "t_mapping(t_uint256,t_bool)"
					},
					"t_mapping(t_uint256,t_mapping(t_uint256,t_struct(careGiver)73_storage))": {
						"encoding": "mapping",
						"key": "t_uint256",
						"label": "mapping(uint256 => mapping(uint256 => struct test.careGiver))",
						"numberOfBytes": "32",
						"value": "t_mapping(t_uint256,t_struct(careGiver)73_storage)"
					},
					"t_mapping(t_uint256,t_mapping(t_uint256,t_uint256))": {
						"encoding": "mapping",
						"key": "t_uint256",
						"label": "mapping(uint256 => mapping(uint256 => uint256))",
						"numberOfBytes": "32",
						"value": "t_mapping(t_uint256,t_uint256)"
					},
					"t_mapping(t_uint256,t_struct(careGiver)73_storage)": {
						"encoding": "mapping",
						"key": "t_uint256",
						"label": "mapping(uint256 => struct test.careGiver)",
						"numberOfBytes": "32",
						"value": "t_struct(careGiver)73_storage"
					},
					"t_mapping(t_uint256,t_struct(doctorEnroll)42_storage)": {
						"encoding": "mapping",
						"key": "t_uint256",
						"label": "mapping(uint256 => struct test.doctorEnroll)",
						"numberOfBytes": "32",
						"value": "t_struct(doctorEnroll)42_storage"
					},
					"t_mapping(t_uint256,t_struct(patientEnroll)53_storage)": {
						"encoding": "mapping",
						"key": "t_uint256",
						"label": "mapping(uint256 => struct test.patientEnroll)",
						"numberOfBytes": "32",
						"value": "t_struct(patientEnroll)53_storage"
					},
					"t_mapping(t_uint256,t_struct(patientGeo)64_storage)": {
						"encoding": "mapping",
						"key": "t_uint256",
						"label": "mapping(uint256 => struct test.patientGeo)",
						"numberOfBytes": "32",
						"value": "t_struct(patientGeo)64_storage"
					},
					"t_mapping(t_uint256,t_struct(patienthealth)82_storage)": {
						"encoding": "mapping",
						"key": "t_uint256",
						"label": "mapping(uint256 => struct test.patienthealth)",
						"numberOfBytes": "32",
						"value": "t_struct(patienthealth)82_storage"
					},
					"t_mapping(t_uint256,t_uint256)": {
						"encoding": "mapping",
						"key": "t_uint256",
						"label": "mapping(uint256 => uint256)",
						"numberOfBytes": "32",
						"value": "t_uint256"
					},
					"t_string_storage": {
						"encoding": "bytes",
						"label": "string",
						"numberOfBytes": "32"
					},
					"t_struct(careGiver)73_storage": {
						"encoding": "inplace",
						"label": "struct test.careGiver",
						"members": [
							{
								"astId": 66,
								"contract": "test.sol:test",
								"label": "careName",
								"offset": 0,
								"slot": "0",
								"type": "t_string_storage"
							},
							{
								"astId": 68,
								"contract": "test.sol:test",
								"label": "careMobile",
								"offset": 0,
								"slot": "1",
								"type": "t_string_storage"
							},
							{
								"astId": 70,
								"contract": "test.sol:test",
								"label": "careRelation",
								"offset": 0,
								"slot": "2",
								"type": "t_string_storage"
							},
							{
								"astId": 72,
								"contract": "test.sol:test",
								"label": "isExist",
								"offset": 0,
								"slot": "3",
								"type": "t_bool"
							}
						],
						"numberOfBytes": "128"
					},
					"t_struct(doctorEnroll)42_storage": {
						"encoding": "inplace",
						"label": "struct test.doctorEnroll",
						"members": [
							{
								"astId": 25,
								"contract": "test.sol:test",
								"label": "doctorName",
								"offset": 0,
								"slot": "0",
								"type": "t_string_storage"
							},
							{
								"astId": 27,
								"contract": "test.sol:test",
								"label": "doctorEmail",
								"offset": 0,
								"slot": "1",
								"type": "t_string_storage"
							},
							{
								"astId": 29,
								"contract": "test.sol:test",
								"label": "doctorMobile",
								"offset": 0,
								"slot": "2",
								"type": "t_string_storage"
							},
							{
								"astId": 31,
								"contract": "test.sol:test",
								"label": "doctorPass",
								"offset": 0,
								"slot": "3",
								"type": "t_string_storage"
							},
							{
								"astId": 33,
								"contract": "test.sol:test",
								"label": "doctorCred",
								"offset": 0,
								"slot": "4",
								"type": "t_string_storage"
							},
							{
								"astId": 36,
								"contract": "test.sol:test",
								"label": "docType",
								"offset": 0,
								"slot": "5",
								"type": "t_enum(DoctorType)10"
							},
							{
								"astId": 39,
								"contract": "test.sol:test",
								"label": "docSex",
								"offset": 1,
								"slot": "5",
								"type": "t_enum(Sex)14"
							},
							{
								"astId": 41,
								"contract": "test.sol:test",
								"label": "isExist",
								"offset": 2,
								"slot": "5",
								"type": "t_bool"
							}
						],
						"numberOfBytes": "192"
					},
					"t_struct(patientEnroll)53_storage": {
						"encoding": "inplace",
						"label": "struct test.patientEnroll",
						"members": [
							{
								"astId": 44,
								"contract": "test.sol:test",
								"label": "patientName",
								"offset": 0,
								"slot": "0",
								"type": "t_string_storage"
							},
							{
								"astId": 46,
								"contract": "test.sol:test",
								"label": "patientEmail",
								"offset": 0,
								"slot": "1",
								"type": "t_string_storage"
							},
							{
								"astId": 48,
								"contract": "test.sol:test",
								"label": "patientMobile",
								"offset": 0,
								"slot": "2",
								"type": "t_string_storage"
							},
							{
								"astId": 50,
								"contract": "test.sol:test",
								"label": "patientPass",
								"offset": 0,
								"slot": "3",
								"type": "t_string_storage"
							},
							{
								"astId": 52,
								"contract": "test.sol:test",
								"label": "isExist",
								"offset": 0,
								"slot": "4",
								"type": "t_bool"
							}
						],
						"numberOfBytes": "160"
					},
					"t_struct(patientGeo)64_storage": {
						"encoding": "inplace",
						"label": "struct test.patientGeo",
						"members": [
							{
								"astId": 55,
								"contract": "test.sol:test",
								"label": "city",
								"offset": 0,
								"slot": "0",
								"type": "t_string_storage"
							},
							{
								"astId": 57,
								"contract": "test.sol:test",
								"label": "state",
								"offset": 0,
								"slot": "1",
								"type": "t_string_storage"
							},
							{
								"astId": 59,
								"contract": "test.sol:test",
								"label": "country",
								"offset": 0,
								"slot": "2",
								"type": "t_string_storage"
							},
							{
								"astId": 61,
								"contract": "test.sol:test",
								"label": "landmark",
								"offset": 0,
								"slot": "3",
								"type": "t_string_storage"
							},
							{
								"astId": 63,
								"contract": "test.sol:test",
								"label": "pincode",
								"offset": 0,
								"slot": "4",
								"type": "t_uint256"
							}
						],
						"numberOfBytes": "160"
					},
					"t_struct(patienthealth)82_storage": {
						"encoding": "inplace",
						"label": "struct test.patienthealth",
						"members": [
							{
								"astId": 75,
								"contract": "test.sol:test",
								"label": "allergies",
								"offset": 0,
								"slot": "0",
								"type": "t_string_storage"
							},
							{
								"astId": 77,
								"contract": "test.sol:test",
								"label": "lifesaver",
								"offset": 0,
								"slot": "1",
								"type": "t_string_storage"
							},
							{
								"astId": 79,
								"contract": "test.sol:test",
								"label": "height",
								"offset": 0,
								"slot": "2",
								"type": "t_uint256"
							},
							{
								"astId": 81,
								"contract": "test.sol:test",
								"label": "weight",
								"offset": 0,
								"slot": "3",
								"type": "t_uint256"
							}
						],
						"numberOfBytes": "128"
					},
					"t_uint256": {
						"encoding": "inplace",
						"label": "uint256",
						"numberOfBytes": "32"
					}
				}
			},
			"userdoc": {
				"kind": "user",
				"methods": {},
				"version": 1
			}
		}
	}
}