{
	"data": {
		"bytecode": {
			"linkReferences": {},
			"object": "60016004556003610120908152624d524960e81b610140526080908152600961016081815268109313d3d1151154d560ba1b6101805260a0526101a09081526810d3d59251151154d560ba1b6101c05260c05260106101e09081526f434f564944434552544946494341544560801b6102005260e0526102606040526007610220908152660434845434b55560cc1b6102405261010052620000a690600f9060056200010b565b50348015620000b457600080fd5b5060405162002fb938038062002fb9833981016040819052620000d79162000274565b600280546001600160a01b0319166001600160a01b03831617905550600680546001600160a01b03191633179055620002e1565b8280548282559060005260206000209081019282156200015d579160200282015b828111156200015d57825180516200014c9184916020909101906200016f565b50916020019190600101906200012c565b506200016b929150620001fa565b5090565b8280546200017d90620002a4565b90600052602060002090601f016020900481019282620001a15760008555620001ec565b82601f10620001bc57805160ff1916838001178555620001ec565b82800160010185558215620001ec579182015b82811115620001ec578251825591602001919060010190620001cf565b506200016b9291506200021b565b808211156200016b57600062000211828262000232565b50600101620001fa565b5b808211156200016b57600081556001016200021c565b5080546200024090620002a4565b6000825580601f1062000251575050565b601f0160209004906000526020600020908101906200027191906200021b565b50565b60006020828403121562000286578081fd5b81516001600160a01b03811681146200029d578182fd5b9392505050565b600181811c90821680620002b957607f821691505b60208210811415620002db57634e487b7160e01b600052602260045260246000fd5b50919050565b612cc880620002f16000396000f3fe608060405234801561001057600080fd5b50600436106101165760003560e01c80639c472131116100a2578063bf18516d11610071578063bf18516d146102cc578063c593da30146102df578063c5c3b3ea14610303578063cbab247714610316578063d805c2c31461032957600080fd5b80639c47213114610228578063a76a710b1461023b578063b846a82c1461024e578063b91711fd1461027157600080fd5b8063445d5377116100e9578063445d5377146101945780634e6c73a5146101a75780636eb0000d146101c75780638da5cb5b146101ea5780638eb841171461021557600080fd5b80632452c72a1461011b5780632eae0ef6146101305780633133957b1461015c5780633e15b17214610181575b600080fd5b61012e6101293660046124fb565b61037f565b005b61014361013e3660046125df565b610538565b6040516101539493929190612741565b60405180910390f35b61016f61016a3660046120ca565b6105f2565b604051610153969594939291906127e0565b61016f61018f3660046120ca565b6108dc565b61012e6101a2366004612420565b610902565b6101ba6101b53660046121db565b6109f5565b6040516101539190612727565b6101da6101d53660046120ca565b610dcf565b6040516101539493929190612938565b6006546101fd906001600160a01b031681565b6040516001600160a01b039091168152602001610153565b61012e6102233660046124fb565b610f12565b6101ba6102363660046121db565b6110ac565b61012e610249366004612166565b611471565b61026161025c3660046124b8565b6117c3565b6040516101539493929190612793565b6102bc61027f366004612105565b8151602081840181018051600d82529282019482019490942091909352815180830184018051928152908401929093019190912091525460ff1681565b6040519015158152602001610153565b61012e6102da366004612593565b6119a1565b6102f26102ed3660046120ca565b611a91565b604051610153959493929190612857565b6101ba6103113660046122db565b611cea565b61012e6103243660046123af565b611e26565b610371610337366004612105565b8151602081840181018051600b82529282019482019490942091909352815180830184018051928152908401929093019190912091525481565b604051908152602001610153565b846007816040516103909190612692565b9081526040519081900360200190206005015460ff1615156001146103d05760405162461bcd60e51b81526004016103c790612b38565b60405180910390fd5b600c866040516103e09190612692565b908152604080519182900360209081019092206000888152925290206003015460ff1615156001146104545760405162461bcd60e51b815260206004820152601a60248201527f4548522d5243472d30323a204e6f74207265676973746572656400000000000060448201526064016103c7565b604051806080016040528085815260200184815260200183815260200160011515815250600c876040516104889190612692565b90815260408051602092819003830190206000898152908352208251805191926104b792849290910190611f9a565b5060208281015180516104d09260018501920190611f9a565b50604082015180516104ec916002840191602090910190611f9a565b50606091909101516003909101805460ff1916911515919091179055604051600080516020612c73833981519152906105289088904290612a7c565b60405180910390a1505050505050565b600e6020526000908152604090208054819061055390612bfb565b80601f016020809104026020016040519081016040528092919081815260200182805461057f90612bfb565b80156105cc5780601f106105a1576101008083540402835291602001916105cc565b820191906000526020600020905b8154815290600101906020018083116105af57829003601f168201915b5050506001909301549192505060ff808216916101008104821691620100009091041684565b805160208183018101805160078252928201919093012091528054819061061890612bfb565b80601f016020809104026020016040519081016040528092919081815260200182805461064490612bfb565b80156106915780601f1061066657610100808354040283529160200191610691565b820191906000526020600020905b81548152906001019060200180831161067457829003601f168201915b5050505050908060010180546106a690612bfb565b80601f01602080910402602001604051908101604052809291908181526020018280546106d290612bfb565b801561071f5780601f106106f45761010080835404028352916020019161071f565b820191906000526020600020905b81548152906001019060200180831161070257829003601f168201915b50505050509080600201805461073490612bfb565b80601f016020809104026020016040519081016040528092919081815260200182805461076090612bfb565b80156107ad5780601f10610782576101008083540402835291602001916107ad565b820191906000526020600020905b81548152906001019060200180831161079057829003601f168201915b5050505050908060030180546107c290612bfb565b80601f01602080910402602001604051908101604052809291908181526020018280546107ee90612bfb565b801561083b5780601f106108105761010080835404028352916020019161083b565b820191906000526020600020905b81548152906001019060200180831161081e57829003601f168201915b50505050509080600401805461085090612bfb565b80601f016020809104026020016040519081016040528092919081815260200182805461087c90612bfb565b80156108c95780601f1061089e576101008083540402835291602001916108c9565b820191906000526020600020905b8154815290600101906020018083116108ac57829003601f168201915b5050506005909301549192505060ff1686565b805160208183018101805160088252928201919093012091528054819061061890612bfb565b806007816040516109139190612692565b9081526040519081900360200190206005015460ff16151560011461094a5760405162461bcd60e51b81526004016103c790612b38565b604051806080016040528087815260200186815260200185815260200184815250600a8360405161097b9190612692565b908152602001604051809103902060008201518160000190805190602001906109a5929190611f9a565b5060208281015180516109be9260018501920190611f9a565b506040820151816002015560608201518160030155905050600080516020612c738339815191528242604051610528929190612a23565b606080806000846001811115610a1b57634e487b7160e01b600052602160045260246000fd5b1415610c9e578785604051602001610a349291906126ae565b60405160208183030381529060405291508880519060200120600883604051610a5d9190612692565b9081526020016040518091039020600101604051610a7b9190612623565b60405180910390201415610add5760405162461bcd60e51b815260206004820152602360248201527f4548522d52442d30313a20446f63746f7220616c726561647920456e726f6c6c60448201526232b21760e91b60648201526084016103c7565b8780519060200120600883604051610af59190612692565b9081526020016040518091039020600201604051610b139190612623565b60405180910390201415610b755760405162461bcd60e51b815260206004820152602360248201527f4548522d52442d30323a20446f63746f7220616c726561647920456e726f6c6c60448201526232b21760e91b60648201526084016103c7565b6040518060c001604052808b81526020018a815260200189815260200188815260200186815260200160011515815250600883604051610bb59190612692565b90815260200160405180910390206000820151816000019080519060200190610bdf929190611f9a565b506020828101518051610bf89260018501920190611f9a565b5060408201518051610c14916002840191602090910190611f9a565b5060608201518051610c30916003840191602090910190611f9a565b5060808201518051610c4c916004840191602090910190611f9a565b5060a091909101516005909101805460ff19169115159190911790555060408051808201909152601881527f446f63746f7220526567697374726174696f6e20446f6e65000000000000000060208201525b6001846001811115610cc057634e487b7160e01b600052602160045260246000fd5b1415610d995785915089600883604051610cda9190612692565b90815260200160405180910390206000019080519060200190610cfe929190611f9a565b5088600883604051610d109190612692565b90815260200160405180910390206001019080519060200190610d34929190611f9a565b5087600883604051610d469190612692565b90815260200160405180910390206002019080519060200190610d6a929190611f9a565b5050604080518082019091526015815274111bd8dd1bdc88149958dbdc9908155c19185d1959605a1b60208201525b600080516020612c73833981519152828242604051610dba93929190612902565b60405180910390a15050979650505050505050565b8051602081830181018051600a82529282019190930120915280548190610df590612bfb565b80601f0160208091040260200160405190810160405280929190818152602001828054610e2190612bfb565b8015610e6e5780601f10610e4357610100808354040283529160200191610e6e565b820191906000526020600020905b815481529060010190602001808311610e5157829003601f168201915b505050505090806001018054610e8390612bfb565b80601f0160208091040260200160405190810160405280929190818152602001828054610eaf90612bfb565b8015610efc5780601f10610ed157610100808354040283529160200191610efc565b820191906000526020600020905b815481529060010190602001808311610edf57829003601f168201915b5050505050908060020154908060030154905084565b84600781604051610f239190612692565b9081526040519081900360200190206005015460ff161515600114610f5a5760405162461bcd60e51b81526004016103c790612b38565b600c86604051610f6a9190612692565b90815260408051602092819003830190206000888152925290206003015460ff1615610fd85760405162461bcd60e51b815260206004820152601e60248201527f4548522d5243472d30313a20416c72656164792072656769737465726564000060448201526064016103c7565b604051806080016040528085815260200184815260200183815260200160011515815250600c8760405161100c9190612692565b908152604080516020928190038301902060008981529083522082518051919261103b92849290910190611f9a565b5060208281015180516110549260018501920190611f9a565b5060408201518051611070916002840191602090910190611f9a565b50606091909101516003909101805460ff1916911515919091179055604051600080516020612c738339815191529061052890889042906129ca565b6060808060008460018111156110d257634e487b7160e01b600052602160045260246000fd5b14156113555787856040516020016110eb929190612701565b604051602081830303815290604052915088805190602001206007836040516111149190612692565b90815260200160405180910390206001016040516111329190612623565b604051809103902014156111945760405162461bcd60e51b8152602060048201526024808201527f4548522d52502d30313a2050617469656e7420616c726561647920456e726f6c6044820152633632b21760e11b60648201526084016103c7565b87805190602001206007836040516111ac9190612692565b90815260200160405180910390206002016040516111ca9190612623565b6040518091039020141561122c5760405162461bcd60e51b8152602060048201526024808201527f4548522d52502d30323a2050617469656e7420616c726561647920456e726f6c6044820152633632b21760e11b60648201526084016103c7565b6040518060c001604052808b81526020018a81526020018981526020018881526020018681526020016001151581525060078360405161126c9190612692565b90815260200160405180910390206000820151816000019080519060200190611296929190611f9a565b5060208281015180516112af9260018501920190611f9a565b50604082015180516112cb916002840191602090910190611f9a565b50606082015180516112e7916003840191602090910190611f9a565b5060808201518051611303916004840191602090910190611f9a565b5060a091909101516005909101805460ff19169115159190911790555060408051808201909152601981527f50617469656e7420526567697374726174696f6e20446f6e650000000000000060208201525b600184600181111561137757634e487b7160e01b600052602160045260246000fd5b1415610d9957859150896007836040516113919190612692565b908152602001604051809103902060000190805190602001906113b5929190611f9a565b50886007836040516113c79190612692565b908152602001604051809103902060010190805190602001906113eb929190611f9a565b50876007836040516113fd9190612692565b90815260200160405180910390206002019080519060200190611421929190611f9a565b505060408051808201909152601681527514185d1a595b9d08149958dbdc9908155c19185d195960521b6020820152600080516020612c73833981519152828242604051610dba93929190612902565b816008816040516114829190612692565b9081526040519081900360200190206005015460ff1615156001146114e15760405162461bcd60e51b8152602060048201526015602482015274111bd8dd1bdc88139bdd081c9959da5cdd195c9959605a1b60448201526064016103c7565b6060600083600181111561150557634e487b7160e01b600052602160045260246000fd5b141561162f57600d8560405161151b9190612692565b9081526020016040518091039020846040516115379190612692565b9081526040519081900360200190205460ff16156115a35760405162461bcd60e51b8152602060048201526024808201527f4548522d41432d30313a2041636365737320686164206265656e2070726f76696044820152636465642160e01b60648201526084016103c7565b6001600d866040516115b59190612692565b9081526020016040518091039020856040516115d19190612692565b908152602001604051809103902060006101000a81548160ff0219169083151502179055506040518060400160405280601c81526020017f4163636573732069732070726f766964656420746f20646f63746f720000000081525090505b600183600181111561165157634e487b7160e01b600052602160045260246000fd5b141561177f57600d856040516116679190612692565b9081526020016040518091039020846040516116839190612692565b9081526040519081900360200190205460ff1615156001146116f35760405162461bcd60e51b815260206004820152602360248201527f4548522d41432d30323a2041636365737320776173206e6f742070726f76696460448201526265642160e81b60648201526084016103c7565b6000600d866040516117059190612692565b9081526020016040518091039020856040516117219190612692565b908152602001604051809103902060006101000a81548160ff0219169083151502179055506040518060400160405280601b81526020017f416363657373206973207265766f6b656420746f20646f63746f72000000000081525090505b7f17b1d4f7e8d69d318c75f6f5306c643ce1a5b0a384ab6184d09ffee93a15ca77818686426040516117b494939291906128b7565b60405180910390a15050505050565b8151602081840181018051600c82529282019482019490942091909352909152600090815260409020805481906117f990612bfb565b80601f016020809104026020016040519081016040528092919081815260200182805461182590612bfb565b80156118725780601f1061184757610100808354040283529160200191611872565b820191906000526020600020905b81548152906001019060200180831161185557829003601f168201915b50505050509080600101805461188790612bfb565b80601f01602080910402602001604051908101604052809291908181526020018280546118b390612bfb565b80156119005780601f106118d557610100808354040283529160200191611900565b820191906000526020600020905b8154815290600101906020018083116118e357829003601f168201915b50505050509080600201805461191590612bfb565b80601f016020809104026020016040519081016040528092919081815260200182805461194190612bfb565b801561198e5780601f106119635761010080835404028352916020019161198e565b820191906000526020600020905b81548152906001019060200180831161197157829003601f168201915b5050506003909301549192505060ff1684565b826007816040516119b29190612692565b9081526040519081900360200190206005015460ff1615156001146119e95760405162461bcd60e51b81526004016103c790612b38565b81600b856040516119fa9190612692565b9081526020016040518091039020600f8581548110611a2957634e487b7160e01b600052603260045260246000fd5b90600052602060002001604051611a409190612623565b9081526020016040518091039020819055507f17b1d4f7e8d69d318c75f6f5306c643ce1a5b0a384ab6184d09ffee93a15ca778442604051611a83929190612b68565b60405180910390a150505050565b8051602081830181018051600982529282019190930120915280548190611ab790612bfb565b80601f0160208091040260200160405190810160405280929190818152602001828054611ae390612bfb565b8015611b305780601f10611b0557610100808354040283529160200191611b30565b820191906000526020600020905b815481529060010190602001808311611b1357829003601f168201915b505050505090806001018054611b4590612bfb565b80601f0160208091040260200160405190810160405280929190818152602001828054611b7190612bfb565b8015611bbe5780601f10611b9357610100808354040283529160200191611bbe565b820191906000526020600020905b815481529060010190602001808311611ba157829003601f168201915b505050505090806002018054611bd390612bfb565b80601f0160208091040260200160405190810160405280929190818152602001828054611bff90612bfb565b8015611c4c5780601f10611c2157610100808354040283529160200191611c4c565b820191906000526020600020905b815481529060010190602001808311611c2f57829003601f168201915b505050505090806003018054611c6190612bfb565b80601f0160208091040260200160405190810160405280929190818152602001828054611c8d90612bfb565b8015611cda5780601f10611caf57610100808354040283529160200191611cda565b820191906000526020600020905b815481529060010190602001808311611cbd57829003601f168201915b5050505050908060040154905085565b606081600781604051611cfd9190612692565b9081526040519081900360200190206005015460ff161515600114611d345760405162461bcd60e51b81526004016103c790612b38565b6040518060a0016040528089815260200188815260200187815260200186815260200185815250600984604051611d6b9190612692565b90815260200160405180910390206000820151816000019080519060200190611d95929190611f9a565b506020828101518051611dae9260018501920190611f9a565b5060408201518051611dca916002840191602090910190611f9a565b5060608201518051611de6916003840191602090910190611f9a565b5060808201518160040155905050600080516020612c738339815191528342604051611e13929190612971565b60405180910390a1509695505050505050565b83600781604051611e379190612692565b9081526040519081900360200190206005015460ff161515600114611e6e5760405162461bcd60e51b81526004016103c790612b38565b600d85604051611e7e9190612692565b908152602001604051809103902084604051611e9a9190612692565b9081526040519081900360200190205460ff161515600114611efe5760405162461bcd60e51b815260206004820152601d60248201527f4e6f206163636573732070726f76696465642062792070617469656e7400000060448201526064016103c7565b81600b86604051611f0f9190612692565b9081526020016040518091039020600f8581548110611f3e57634e487b7160e01b600052603260045260246000fd5b90600052602060002001604051611f559190612623565b9081526020016040518091039020819055507f17b1d4f7e8d69d318c75f6f5306c643ce1a5b0a384ab6184d09ffee93a15ca778585426040516117b493929190612ad5565b828054611fa690612bfb565b90600052602060002090601f016020900481019282611fc8576000855561200e565b82601f10611fe157805160ff191683800117855561200e565b8280016001018555821561200e579182015b8281111561200e578251825591602001919060010190611ff3565b5061201a92915061201e565b5090565b5b8082111561201a576000815560010161201f565b803561203e81612c62565b919050565b600082601f830112612053578081fd5b813567ffffffffffffffff8082111561206e5761206e612c4c565b604051601f8301601f19908116603f0116810190828211818310171561209657612096612c4c565b816040528381528660208588010111156120ae578485fd5b8360208701602083013792830160200193909352509392505050565b6000602082840312156120db578081fd5b813567ffffffffffffffff8111156120f1578182fd5b6120fd84828501612043565b949350505050565b60008060408385031215612117578081fd5b823567ffffffffffffffff8082111561212e578283fd5b61213a86838701612043565b9350602085013591508082111561214f578283fd5b5061215c85828601612043565b9150509250929050565b60008060006060848603121561217a578081fd5b833567ffffffffffffffff80821115612191578283fd5b61219d87838801612043565b945060208601359150808211156121b2578283fd5b506121bf86828701612043565b92505060408401356121d081612c62565b809150509250925092565b600080600080600080600060e0888a0312156121f5578283fd5b873567ffffffffffffffff8082111561220c578485fd5b6122188b838c01612043565b985060208a013591508082111561222d578485fd5b6122398b838c01612043565b975060408a013591508082111561224e578485fd5b61225a8b838c01612043565b965060608a013591508082111561226f578485fd5b61227b8b838c01612043565b955060808a0135915080821115612290578485fd5b61229c8b838c01612043565b945060a08a01359150808211156122b1578384fd5b506122be8a828b01612043565b9250506122cd60c08901612033565b905092959891949750929550565b60008060008060008060c087890312156122f3578182fd5b863567ffffffffffffffff8082111561230a578384fd5b6123168a838b01612043565b9750602089013591508082111561232b578384fd5b6123378a838b01612043565b9650604089013591508082111561234c578384fd5b6123588a838b01612043565b9550606089013591508082111561236d578384fd5b6123798a838b01612043565b94506080890135935060a0890135915080821115612395578283fd5b506123a289828a01612043565b9150509295509295509295565b600080600080608085870312156123c4578384fd5b843567ffffffffffffffff808211156123db578586fd5b6123e788838901612043565b955060208701359150808211156123fc578485fd5b5061240987828801612043565b949794965050505060408301359260600135919050565b600080600080600060a08688031215612437578081fd5b853567ffffffffffffffff8082111561244e578283fd5b61245a89838a01612043565b9650602088013591508082111561246f578283fd5b61247b89838a01612043565b95506040880135945060608801359350608088013591508082111561249e578283fd5b506124ab88828901612043565b9150509295509295909350565b600080604083850312156124ca578182fd5b823567ffffffffffffffff8111156124e0578283fd5b6124ec85828601612043565b95602094909401359450505050565b600080600080600060a08688031215612512578081fd5b853567ffffffffffffffff80821115612529578283fd5b61253589838a01612043565b9650602088013595506040880135915080821115612551578283fd5b61255d89838a01612043565b94506060880135915080821115612572578283fd5b61257e89838a01612043565b9350608088013591508082111561249e578283fd5b6000806000606084860312156125a7578283fd5b833567ffffffffffffffff8111156125bd578384fd5b6125c986828701612043565b9660208601359650604090950135949350505050565b6000602082840312156125f0578081fd5b5035919050565b6000815180845261260f816020860160208601612bcb565b601f01601f19169290920160200192915050565b600080835461263181612bfb565b60018281168015612649576001811461265a57612686565b60ff19841687528287019450612686565b8786526020808720875b8581101561267d5781548a820152908401908201612664565b50505082870194505b50929695505050505050565b600082516126a4818460208701612bcb565b9190910192915050565b6a504c492d4548522d444f2d60a81b8152600083516126d481600b850160208801612bcb565b602d60f81b600b9184019182015283516126f581600c840160208801612bcb565b01600c01949350505050565b6a504c492d4548522d50412d60a81b8152600083516126d481600b850160208801612bcb565b60208152600061273a60208301846125f7565b9392505050565b60808152600061275460808301876125f7565b90506005851061276657612766612c36565b8460208301526003841061277c5761277c612c36565b836040830152821515606083015295945050505050565b6080815260006127a660808301876125f7565b82810360208401526127b881876125f7565b905082810360408401526127cc81866125f7565b915050821515606083015295945050505050565b60c0815260006127f360c08301896125f7565b828103602084015261280581896125f7565b9050828103604084015261281981886125f7565b9050828103606084015261282d81876125f7565b9050828103608084015261284181866125f7565b91505082151560a0830152979650505050505050565b60a08152600061286a60a08301886125f7565b828103602084015261287c81886125f7565b9050828103604084015261289081876125f7565b905082810360608401526128a481866125f7565b9150508260808301529695505050505050565b6080815260006128ca60808301876125f7565b82810360208401526128dc81876125f7565b905082810360408401526128f081866125f7565b91505082606083015295945050505050565b60608152600061291560608301866125f7565b828103602084015261292781866125f7565b915050826040830152949350505050565b60808152600061294b60808301876125f7565b828103602084015261295d81876125f7565b604084019590955250506060015292915050565b60608152600061298460608301856125f7565b8281036020840152601d81527f50617469656e74204c6f636174696f6e204461746120757064617465640000006020820152604081019150508260408301529392505050565b6060815260006129dd60608301856125f7565b8281036020840152601981527f43617265676976657220446174612072656769737465726564000000000000006020820152604081019150508260408301529392505050565b606081526000612a3660608301856125f7565b8281036020840152601b81527f50617469656e74204865616c74682044617461207570646174656400000000006020820152604081019150508260408301529392505050565b606081526000612a8f60608301856125f7565b8281036020840152601781527f4361726567697665722044617461206d6f6469666965640000000000000000006020820152604081019150508260408301529392505050565b6080815260166080820152752932b1b7b9321030b23232b210313c902237b1ba37b960511b60a082015260c060208201526000612b1560c08301866125f7565b8281036040840152612b2781866125f7565b915050826060830152949350505050565b60208082526016908201527514185d1a595b9d08139bdd081c9959da5cdd195c995960521b604082015260600190565b60808152601760808201527f5265636f72642061646465642062792050617469656e7400000000000000000060a082015260c060208201526000612baf60c08301856125f7565b8281036040840152908152606090910191909152602001919050565b60005b83811015612be6578181015183820152602001612bce565b83811115612bf5576000848401525b50505050565b600181811c90821680612c0f57607f821691505b60208210811415612c3057634e487b7160e01b600052602260045260246000fd5b50919050565b634e487b7160e01b600052602160045260246000fd5b634e487b7160e01b600052604160045260246000fd5b60028110612c6f57600080fd5b5056fecbccc75181643fd524237671d958ed31b175e71684fd728cd0c0727dad0dfe04a264697066735822122025bd805583bfd8b9268b41364205b8d56e1bdae98af7be6dae12d5b48052063064736f6c63430008040033",
			"opcodes": "PUSH1 0x1 PUSH1 0x4 SSTORE PUSH1 0x3 PUSH2 0x120 SWAP1 DUP2 MSTORE PUSH3 0x4D5249 PUSH1 0xE8 SHL PUSH2 0x140 MSTORE PUSH1 0x80 SWAP1 DUP2 MSTORE PUSH1 0x9 PUSH2 0x160 DUP2 DUP2 MSTORE PUSH9 0x109313D3D1151154D5 PUSH1 0xBA SHL PUSH2 0x180 MSTORE PUSH1 0xA0 MSTORE PUSH2 0x1A0 SWAP1 DUP2 MSTORE PUSH9 0x10D3D59251151154D5 PUSH1 0xBA SHL PUSH2 0x1C0 MSTORE PUSH1 0xC0 MSTORE PUSH1 0x10 PUSH2 0x1E0 SWAP1 DUP2 MSTORE PUSH16 0x434F5649444345525449464943415445 PUSH1 0x80 SHL PUSH2 0x200 MSTORE PUSH1 0xE0 MSTORE PUSH2 0x260 PUSH1 0x40 MSTORE PUSH1 0x7 PUSH2 0x220 SWAP1 DUP2 MSTORE PUSH7 0x434845434B555 PUSH1 0xCC SHL PUSH2 0x240 MSTORE PUSH2 0x100 MSTORE PUSH3 0xA6 SWAP1 PUSH1 0xF SWAP1 PUSH1 0x5 PUSH3 0x10B JUMP JUMPDEST POP CALLVALUE DUP1 ISZERO PUSH3 0xB4 JUMPI PUSH1 0x0 DUP1 REVERT JUMPDEST POP PUSH1 0x40 MLOAD PUSH3 0x2FB9 CODESIZE SUB DUP1 PUSH3 0x2FB9 DUP4 CODECOPY DUP2 ADD PUSH1 0x40 DUP2 SWAP1 MSTORE PUSH3 0xD7 SWAP2 PUSH3 0x274 JUMP JUMPDEST PUSH1 0x2 DUP1 SLOAD PUSH1 0x1 PUSH1 0x1 PUSH1 0xA0 SHL SUB NOT AND PUSH1 0x1 PUSH1 0x1 PUSH1 0xA0 SHL SUB DUP4 AND OR SWAP1 SSTORE POP PUSH1 0x6 DUP1 SLOAD PUSH1 0x1 PUSH1 0x1 PUSH1 0xA0 SHL SUB NOT AND CALLER OR SWAP1 SSTORE PUSH3 0x2E1 JUMP JUMPDEST DUP3 DUP1 SLOAD DUP3 DUP3 SSTORE SWAP1 PUSH1 0x0 MSTORE PUSH1 0x20 PUSH1 0x0 KECCAK256 SWAP1 DUP2 ADD SWAP3 DUP3 ISZERO PUSH3 0x15D JUMPI SWAP2 PUSH1 0x20 MUL DUP3 ADD JUMPDEST DUP3 DUP2 GT ISZERO PUSH3 0x15D JUMPI DUP3 MLOAD DUP1 MLOAD PUSH3 0x14C SWAP2 DUP5 SWAP2 PUSH1 0x20 SWAP1 SWAP2 ADD SWAP1 PUSH3 0x16F JUMP JUMPDEST POP SWAP2 PUSH1 0x20 ADD SWAP2 SWAP1 PUSH1 0x1 ADD SWAP1 PUSH3 0x12C JUMP JUMPDEST POP PUSH3 0x16B SWAP3 SWAP2 POP PUSH3 0x1FA JUMP JUMPDEST POP SWAP1 JUMP JUMPDEST DUP3 DUP1 SLOAD PUSH3 0x17D SWAP1 PUSH3 0x2A4 JUMP JUMPDEST SWAP1 PUSH1 0x0 MSTORE PUSH1 0x20 PUSH1 0x0 KECCAK256 SWAP1 PUSH1 0x1F ADD PUSH1 0x20 SWAP1 DIV DUP2 ADD SWAP3 DUP3 PUSH3 0x1A1 JUMPI PUSH1 0x0 DUP6 SSTORE PUSH3 0x1EC JUMP JUMPDEST DUP3 PUSH1 0x1F LT PUSH3 0x1BC JUMPI DUP1 MLOAD PUSH1 0xFF NOT AND DUP4 DUP1 ADD OR DUP6 SSTORE PUSH3 0x1EC JUMP JUMPDEST DUP3 DUP1 ADD PUSH1 0x1 ADD DUP6 SSTORE DUP3 ISZERO PUSH3 0x1EC JUMPI SWAP2 DUP3 ADD JUMPDEST DUP3 DUP2 GT ISZERO PUSH3 0x1EC JUMPI DUP3 MLOAD DUP3 SSTORE SWAP2 PUSH1 0x20 ADD SWAP2 SWAP1 PUSH1 0x1 ADD SWAP1 PUSH3 0x1CF JUMP JUMPDEST POP PUSH3 0x16B SWAP3 SWAP2 POP PUSH3 0x21B JUMP JUMPDEST DUP1 DUP3 GT ISZERO PUSH3 0x16B JUMPI PUSH1 0x0 PUSH3 0x211 DUP3 DUP3 PUSH3 0x232 JUMP JUMPDEST POP PUSH1 0x1 ADD PUSH3 0x1FA JUMP JUMPDEST JUMPDEST DUP1 DUP3 GT ISZERO PUSH3 0x16B JUMPI PUSH1 0x0 DUP2 SSTORE PUSH1 0x1 ADD PUSH3 0x21C JUMP JUMPDEST POP DUP1 SLOAD PUSH3 0x240 SWAP1 PUSH3 0x2A4 JUMP JUMPDEST PUSH1 0x0 DUP3 SSTORE DUP1 PUSH1 0x1F LT PUSH3 0x251 JUMPI POP POP JUMP JUMPDEST PUSH1 0x1F ADD PUSH1 0x20 SWAP1 DIV SWAP1 PUSH1 0x0 MSTORE PUSH1 0x20 PUSH1 0x0 KECCAK256 SWAP1 DUP2 ADD SWAP1 PUSH3 0x271 SWAP2 SWAP1 PUSH3 0x21B JUMP JUMPDEST POP JUMP JUMPDEST PUSH1 0x0 PUSH1 0x20 DUP3 DUP5 SUB SLT ISZERO PUSH3 0x286 JUMPI DUP1 DUP2 REVERT JUMPDEST DUP2 MLOAD PUSH1 0x1 PUSH1 0x1 PUSH1 0xA0 SHL SUB DUP2 AND DUP2 EQ PUSH3 0x29D JUMPI DUP2 DUP3 REVERT JUMPDEST SWAP4 SWAP3 POP POP POP JUMP JUMPDEST PUSH1 0x1 DUP2 DUP2 SHR SWAP1 DUP3 AND DUP1 PUSH3 0x2B9 JUMPI PUSH1 0x7F DUP3 AND SWAP2 POP JUMPDEST PUSH1 0x20 DUP3 LT DUP2 EQ ISZERO PUSH3 0x2DB JUMPI PUSH4 0x4E487B71 PUSH1 0xE0 SHL PUSH1 0x0 MSTORE PUSH1 0x22 PUSH1 0x4 MSTORE PUSH1 0x24 PUSH1 0x0 REVERT JUMPDEST POP SWAP2 SWAP1 POP JUMP JUMPDEST PUSH2 0x2CC8 DUP1 PUSH3 0x2F1 PUSH1 0x0 CODECOPY PUSH1 0x0 RETURN INVALID PUSH1 0x80 PUSH1 0x40 MSTORE CALLVALUE DUP1 ISZERO PUSH2 0x10 JUMPI PUSH1 0x0 DUP1 REVERT JUMPDEST POP PUSH1 0x4 CALLDATASIZE LT PUSH2 0x116 JUMPI PUSH1 0x0 CALLDATALOAD PUSH1 0xE0 SHR DUP1 PUSH4 0x9C472131 GT PUSH2 0xA2 JUMPI DUP1 PUSH4 0xBF18516D GT PUSH2 0x71 JUMPI DUP1 PUSH4 0xBF18516D EQ PUSH2 0x2CC JUMPI DUP1 PUSH4 0xC593DA30 EQ PUSH2 0x2DF JUMPI DUP1 PUSH4 0xC5C3B3EA EQ PUSH2 0x303 JUMPI DUP1 PUSH4 0xCBAB2477 EQ PUSH2 0x316 JUMPI DUP1 PUSH4 0xD805C2C3 EQ PUSH2 0x329 JUMPI PUSH1 0x0 DUP1 REVERT JUMPDEST DUP1 PUSH4 0x9C472131 EQ PUSH2 0x228 JUMPI DUP1 PUSH4 0xA76A710B EQ PUSH2 0x23B JUMPI DUP1 PUSH4 0xB846A82C EQ PUSH2 0x24E JUMPI DUP1 PUSH4 0xB91711FD EQ PUSH2 0x271 JUMPI PUSH1 0x0 DUP1 REVERT JUMPDEST DUP1 PUSH4 0x445D5377 GT PUSH2 0xE9 JUMPI DUP1 PUSH4 0x445D5377 EQ PUSH2 0x194 JUMPI DUP1 PUSH4 0x4E6C73A5 EQ PUSH2 0x1A7 JUMPI DUP1 PUSH4 0x6EB0000D EQ PUSH2 0x1C7 JUMPI DUP1 PUSH4 0x8DA5CB5B EQ PUSH2 0x1EA JUMPI DUP1 PUSH4 0x8EB84117 EQ PUSH2 0x215 JUMPI PUSH1 0x0 DUP1 REVERT JUMPDEST DUP1 PUSH4 0x2452C72A EQ PUSH2 0x11B JUMPI DUP1 PUSH4 0x2EAE0EF6 EQ PUSH2 0x130 JUMPI DUP1 PUSH4 0x3133957B EQ PUSH2 0x15C JUMPI DUP1 PUSH4 0x3E15B172 EQ PUSH2 0x181 JUMPI JUMPDEST PUSH1 0x0 DUP1 REVERT JUMPDEST PUSH2 0x12E PUSH2 0x129 CALLDATASIZE PUSH1 0x4 PUSH2 0x24FB JUMP JUMPDEST PUSH2 0x37F JUMP JUMPDEST STOP JUMPDEST PUSH2 0x143 PUSH2 0x13E CALLDATASIZE PUSH1 0x4 PUSH2 0x25DF JUMP JUMPDEST PUSH2 0x538 JUMP JUMPDEST PUSH1 0x40 MLOAD PUSH2 0x153 SWAP5 SWAP4 SWAP3 SWAP2 SWAP1 PUSH2 0x2741 JUMP JUMPDEST PUSH1 0x40 MLOAD DUP1 SWAP2 SUB SWAP1 RETURN JUMPDEST PUSH2 0x16F PUSH2 0x16A CALLDATASIZE PUSH1 0x4 PUSH2 0x20CA JUMP JUMPDEST PUSH2 0x5F2 JUMP JUMPDEST PUSH1 0x40 MLOAD PUSH2 0x153 SWAP7 SWAP6 SWAP5 SWAP4 SWAP3 SWAP2 SWAP1 PUSH2 0x27E0 JUMP JUMPDEST PUSH2 0x16F PUSH2 0x18F CALLDATASIZE PUSH1 0x4 PUSH2 0x20CA JUMP JUMPDEST PUSH2 0x8DC JUMP JUMPDEST PUSH2 0x12E PUSH2 0x1A2 CALLDATASIZE PUSH1 0x4 PUSH2 0x2420 JUMP JUMPDEST PUSH2 0x902 JUMP JUMPDEST PUSH2 0x1BA PUSH2 0x1B5 CALLDATASIZE PUSH1 0x4 PUSH2 0x21DB JUMP JUMPDEST PUSH2 0x9F5 JUMP JUMPDEST PUSH1 0x40 MLOAD PUSH2 0x153 SWAP2 SWAP1 PUSH2 0x2727 JUMP JUMPDEST PUSH2 0x1DA PUSH2 0x1D5 CALLDATASIZE PUSH1 0x4 PUSH2 0x20CA JUMP JUMPDEST PUSH2 0xDCF JUMP JUMPDEST PUSH1 0x40 MLOAD PUSH2 0x153 SWAP5 SWAP4 SWAP3 SWAP2 SWAP1 PUSH2 0x2938 JUMP JUMPDEST PUSH1 0x6 SLOAD PUSH2 0x1FD SWAP1 PUSH1 0x1 PUSH1 0x1 PUSH1 0xA0 SHL SUB AND DUP2 JUMP JUMPDEST PUSH1 0x40 MLOAD PUSH1 0x1 PUSH1 0x1 PUSH1 0xA0 SHL SUB SWAP1 SWAP2 AND DUP2 MSTORE PUSH1 0x20 ADD PUSH2 0x153 JUMP JUMPDEST PUSH2 0x12E PUSH2 0x223 CALLDATASIZE PUSH1 0x4 PUSH2 0x24FB JUMP JUMPDEST PUSH2 0xF12 JUMP JUMPDEST PUSH2 0x1BA PUSH2 0x236 CALLDATASIZE PUSH1 0x4 PUSH2 0x21DB JUMP JUMPDEST PUSH2 0x10AC JUMP JUMPDEST PUSH2 0x12E PUSH2 0x249 CALLDATASIZE PUSH1 0x4 PUSH2 0x2166 JUMP JUMPDEST PUSH2 0x1471 JUMP JUMPDEST PUSH2 0x261 PUSH2 0x25C CALLDATASIZE PUSH1 0x4 PUSH2 0x24B8 JUMP JUMPDEST PUSH2 0x17C3 JUMP JUMPDEST PUSH1 0x40 MLOAD PUSH2 0x153 SWAP5 SWAP4 SWAP3 SWAP2 SWAP1 PUSH2 0x2793 JUMP JUMPDEST PUSH2 0x2BC PUSH2 0x27F CALLDATASIZE PUSH1 0x4 PUSH2 0x2105 JUMP JUMPDEST DUP2 MLOAD PUSH1 0x20 DUP2 DUP5 ADD DUP2 ADD DUP1 MLOAD PUSH1 0xD DUP3 MSTORE SWAP3 DUP3 ADD SWAP5 DUP3 ADD SWAP5 SWAP1 SWAP5 KECCAK256 SWAP2 SWAP1 SWAP4 MSTORE DUP2 MLOAD DUP1 DUP4 ADD DUP5 ADD DUP1 MLOAD SWAP3 DUP2 MSTORE SWAP1 DUP5 ADD SWAP3 SWAP1 SWAP4 ADD SWAP2 SWAP1 SWAP2 KECCAK256 SWAP2 MSTORE SLOAD PUSH1 0xFF AND DUP2 JUMP JUMPDEST PUSH1 0x40 MLOAD SWAP1 ISZERO ISZERO DUP2 MSTORE PUSH1 0x20 ADD PUSH2 0x153 JUMP JUMPDEST PUSH2 0x12E PUSH2 0x2DA CALLDATASIZE PUSH1 0x4 PUSH2 0x2593 JUMP JUMPDEST PUSH2 0x19A1 JUMP JUMPDEST PUSH2 0x2F2 PUSH2 0x2ED CALLDATASIZE PUSH1 0x4 PUSH2 0x20CA JUMP JUMPDEST PUSH2 0x1A91 JUMP JUMPDEST PUSH1 0x40 MLOAD PUSH2 0x153 SWAP6 SWAP5 SWAP4 SWAP3 SWAP2 SWAP1 PUSH2 0x2857 JUMP JUMPDEST PUSH2 0x1BA PUSH2 0x311 CALLDATASIZE PUSH1 0x4 PUSH2 0x22DB JUMP JUMPDEST PUSH2 0x1CEA JUMP JUMPDEST PUSH2 0x12E PUSH2 0x324 CALLDATASIZE PUSH1 0x4 PUSH2 0x23AF JUMP JUMPDEST PUSH2 0x1E26 JUMP JUMPDEST PUSH2 0x371 PUSH2 0x337 CALLDATASIZE PUSH1 0x4 PUSH2 0x2105 JUMP JUMPDEST DUP2 MLOAD PUSH1 0x20 DUP2 DUP5 ADD DUP2 ADD DUP1 MLOAD PUSH1 0xB DUP3 MSTORE SWAP3 DUP3 ADD SWAP5 DUP3 ADD SWAP5 SWAP1 SWAP5 KECCAK256 SWAP2 SWAP1 SWAP4 MSTORE DUP2 MLOAD DUP1 DUP4 ADD DUP5 ADD DUP1 MLOAD SWAP3 DUP2 MSTORE SWAP1 DUP5 ADD SWAP3 SWAP1 SWAP4 ADD SWAP2 SWAP1 SWAP2 KECCAK256 SWAP2 MSTORE SLOAD DUP2 JUMP JUMPDEST PUSH1 0x40 MLOAD SWAP1 DUP2 MSTORE PUSH1 0x20 ADD PUSH2 0x153 JUMP JUMPDEST DUP5 PUSH1 0x7 DUP2 PUSH1 0x40 MLOAD PUSH2 0x390 SWAP2 SWAP1 PUSH2 0x2692 JUMP JUMPDEST SWAP1 DUP2 MSTORE PUSH1 0x40 MLOAD SWAP1 DUP2 SWAP1 SUB PUSH1 0x20 ADD SWAP1 KECCAK256 PUSH1 0x5 ADD SLOAD PUSH1 0xFF AND ISZERO ISZERO PUSH1 0x1 EQ PUSH2 0x3D0 JUMPI PUSH1 0x40 MLOAD PUSH3 0x461BCD PUSH1 0xE5 SHL DUP2 MSTORE PUSH1 0x4 ADD PUSH2 0x3C7 SWAP1 PUSH2 0x2B38 JUMP JUMPDEST PUSH1 0x40 MLOAD DUP1 SWAP2 SUB SWAP1 REVERT JUMPDEST PUSH1 0xC DUP7 PUSH1 0x40 MLOAD PUSH2 0x3E0 SWAP2 SWAP1 PUSH2 0x2692 JUMP JUMPDEST SWAP1 DUP2 MSTORE PUSH1 0x40 DUP1 MLOAD SWAP2 DUP3 SWAP1 SUB PUSH1 0x20 SWAP1 DUP2 ADD SWAP1 SWAP3 KECCAK256 PUSH1 0x0 DUP9 DUP2 MSTORE SWAP3 MSTORE SWAP1 KECCAK256 PUSH1 0x3 ADD SLOAD PUSH1 0xFF AND ISZERO ISZERO PUSH1 0x1 EQ PUSH2 0x454 JUMPI PUSH1 0x40 MLOAD PUSH3 0x461BCD PUSH1 0xE5 SHL DUP2 MSTORE PUSH1 0x20 PUSH1 0x4 DUP3 ADD MSTORE PUSH1 0x1A PUSH1 0x24 DUP3 ADD MSTORE PUSH32 0x4548522D5243472D30323A204E6F742072656769737465726564000000000000 PUSH1 0x44 DUP3 ADD MSTORE PUSH1 0x64 ADD PUSH2 0x3C7 JUMP JUMPDEST PUSH1 0x40 MLOAD DUP1 PUSH1 0x80 ADD PUSH1 0x40 MSTORE DUP1 DUP6 DUP2 MSTORE PUSH1 0x20 ADD DUP5 DUP2 MSTORE PUSH1 0x20 ADD DUP4 DUP2 MSTORE PUSH1 0x20 ADD PUSH1 0x1 ISZERO ISZERO DUP2 MSTORE POP PUSH1 0xC DUP8 PUSH1 0x40 MLOAD PUSH2 0x488 SWAP2 SWAP1 PUSH2 0x2692 JUMP JUMPDEST SWAP1 DUP2 MSTORE PUSH1 0x40 DUP1 MLOAD PUSH1 0x20 SWAP3 DUP2 SWAP1 SUB DUP4 ADD SWAP1 KECCAK256 PUSH1 0x0 DUP10 DUP2 MSTORE SWAP1 DUP4 MSTORE KECCAK256 DUP3 MLOAD DUP1 MLOAD SWAP2 SWAP3 PUSH2 0x4B7 SWAP3 DUP5 SWAP3 SWAP1 SWAP2 ADD SWAP1 PUSH2 0x1F9A JUMP JUMPDEST POP PUSH1 0x20 DUP3 DUP2 ADD MLOAD DUP1 MLOAD PUSH2 0x4D0 SWAP3 PUSH1 0x1 DUP6 ADD SWAP3 ADD SWAP1 PUSH2 0x1F9A JUMP JUMPDEST POP PUSH1 0x40 DUP3 ADD MLOAD DUP1 MLOAD PUSH2 0x4EC SWAP2 PUSH1 0x2 DUP5 ADD SWAP2 PUSH1 0x20 SWAP1 SWAP2 ADD SWAP1 PUSH2 0x1F9A JUMP JUMPDEST POP PUSH1 0x60 SWAP2 SWAP1 SWAP2 ADD MLOAD PUSH1 0x3 SWAP1 SWAP2 ADD DUP1 SLOAD PUSH1 0xFF NOT AND SWAP2 ISZERO ISZERO SWAP2 SWAP1 SWAP2 OR SWAP1 SSTORE PUSH1 0x40 MLOAD PUSH1 0x0 DUP1 MLOAD PUSH1 0x20 PUSH2 0x2C73 DUP4 CODECOPY DUP2 MLOAD SWAP2 MSTORE SWAP1 PUSH2 0x528 SWAP1 DUP9 SWAP1 TIMESTAMP SWAP1 PUSH2 0x2A7C JUMP JUMPDEST PUSH1 0x40 MLOAD DUP1 SWAP2 SUB SWAP1 LOG1 POP POP POP POP POP POP JUMP JUMPDEST PUSH1 0xE PUSH1 0x20 MSTORE PUSH1 0x0 SWAP1 DUP2 MSTORE PUSH1 0x40 SWAP1 KECCAK256 DUP1 SLOAD DUP2 SWAP1 PUSH2 0x553 SWAP1 PUSH2 0x2BFB JUMP JUMPDEST DUP1 PUSH1 0x1F ADD PUSH1 0x20 DUP1 SWAP2 DIV MUL PUSH1 0x20 ADD PUSH1 0x40 MLOAD SWAP1 DUP2 ADD PUSH1 0x40 MSTORE DUP1 SWAP3 SWAP2 SWAP1 DUP2 DUP2 MSTORE PUSH1 0x20 ADD DUP3 DUP1 SLOAD PUSH2 0x57F SWAP1 PUSH2 0x2BFB JUMP JUMPDEST DUP1 ISZERO PUSH2 0x5CC JUMPI DUP1 PUSH1 0x1F LT PUSH2 0x5A1 JUMPI PUSH2 0x100 DUP1 DUP4 SLOAD DIV MUL DUP4 MSTORE SWAP2 PUSH1 0x20 ADD SWAP2 PUSH2 0x5CC JUMP JUMPDEST DUP3 ADD SWAP2 SWAP1 PUSH1 0x0 MSTORE PUSH1 0x20 PUSH1 0x0 KECCAK256 SWAP1 JUMPDEST DUP2 SLOAD DUP2 MSTORE SWAP1 PUSH1 0x1 ADD SWAP1 PUSH1 0x20 ADD DUP1 DUP4 GT PUSH2 0x5AF JUMPI DUP3 SWAP1 SUB PUSH1 0x1F AND DUP3 ADD SWAP2 JUMPDEST POP POP POP PUSH1 0x1 SWAP1 SWAP4 ADD SLOAD SWAP2 SWAP3 POP POP PUSH1 0xFF DUP1 DUP3 AND SWAP2 PUSH2 0x100 DUP2 DIV DUP3 AND SWAP2 PUSH3 0x10000 SWAP1 SWAP2 DIV AND DUP5 JUMP JUMPDEST DUP1 MLOAD PUSH1 0x20 DUP2 DUP4 ADD DUP2 ADD DUP1 MLOAD PUSH1 0x7 DUP3 MSTORE SWAP3 DUP3 ADD SWAP2 SWAP1 SWAP4 ADD KECCAK256 SWAP2 MSTORE DUP1 SLOAD DUP2 SWAP1 PUSH2 0x618 SWAP1 PUSH2 0x2BFB JUMP JUMPDEST DUP1 PUSH1 0x1F ADD PUSH1 0x20 DUP1 SWAP2 DIV MUL PUSH1 0x20 ADD PUSH1 0x40 MLOAD SWAP1 DUP2 ADD PUSH1 0x40 MSTORE DUP1 SWAP3 SWAP2 SWAP1 DUP2 DUP2 MSTORE PUSH1 0x20 ADD DUP3 DUP1 SLOAD PUSH2 0x644 SWAP1 PUSH2 0x2BFB JUMP JUMPDEST DUP1 ISZERO PUSH2 0x691 JUMPI DUP1 PUSH1 0x1F LT PUSH2 0x666 JUMPI PUSH2 0x100 DUP1 DUP4 SLOAD DIV MUL DUP4 MSTORE SWAP2 PUSH1 0x20 ADD SWAP2 PUSH2 0x691 JUMP JUMPDEST DUP3 ADD SWAP2 SWAP1 PUSH1 0x0 MSTORE PUSH1 0x20 PUSH1 0x0 KECCAK256 SWAP1 JUMPDEST DUP2 SLOAD DUP2 MSTORE SWAP1 PUSH1 0x1 ADD SWAP1 PUSH1 0x20 ADD DUP1 DUP4 GT PUSH2 0x674 JUMPI DUP3 SWAP1 SUB PUSH1 0x1F AND DUP3 ADD SWAP2 JUMPDEST POP POP POP POP POP SWAP1 DUP1 PUSH1 0x1 ADD DUP1 SLOAD PUSH2 0x6A6 SWAP1 PUSH2 0x2BFB JUMP JUMPDEST DUP1 PUSH1 0x1F ADD PUSH1 0x20 DUP1 SWAP2 DIV MUL PUSH1 0x20 ADD PUSH1 0x40 MLOAD SWAP1 DUP2 ADD PUSH1 0x40 MSTORE DUP1 SWAP3 SWAP2 SWAP1 DUP2 DUP2 MSTORE PUSH1 0x20 ADD DUP3 DUP1 SLOAD PUSH2 0x6D2 SWAP1 PUSH2 0x2BFB JUMP JUMPDEST DUP1 ISZERO PUSH2 0x71F JUMPI DUP1 PUSH1 0x1F LT PUSH2 0x6F4 JUMPI PUSH2 0x100 DUP1 DUP4 SLOAD DIV MUL DUP4 MSTORE SWAP2 PUSH1 0x20 ADD SWAP2 PUSH2 0x71F JUMP JUMPDEST DUP3 ADD SWAP2 SWAP1 PUSH1 0x0 MSTORE PUSH1 0x20 PUSH1 0x0 KECCAK256 SWAP1 JUMPDEST DUP2 SLOAD DUP2 MSTORE SWAP1 PUSH1 0x1 ADD SWAP1 PUSH1 0x20 ADD DUP1 DUP4 GT PUSH2 0x702 JUMPI DUP3 SWAP1 SUB PUSH1 0x1F AND DUP3 ADD SWAP2 JUMPDEST POP POP POP POP POP SWAP1 DUP1 PUSH1 0x2 ADD DUP1 SLOAD PUSH2 0x734 SWAP1 PUSH2 0x2BFB JUMP JUMPDEST DUP1 PUSH1 0x1F ADD PUSH1 0x20 DUP1 SWAP2 DIV MUL PUSH1 0x20 ADD PUSH1 0x40 MLOAD SWAP1 DUP2 ADD PUSH1 0x40 MSTORE DUP1 SWAP3 SWAP2 SWAP1 DUP2 DUP2 MSTORE PUSH1 0x20 ADD DUP3 DUP1 SLOAD PUSH2 0x760 SWAP1 PUSH2 0x2BFB JUMP JUMPDEST DUP1 ISZERO PUSH2 0x7AD JUMPI DUP1 PUSH1 0x1F LT PUSH2 0x782 JUMPI PUSH2 0x100 DUP1 DUP4 SLOAD DIV MUL DUP4 MSTORE SWAP2 PUSH1 0x20 ADD SWAP2 PUSH2 0x7AD JUMP JUMPDEST DUP3 ADD SWAP2 SWAP1 PUSH1 0x0 MSTORE PUSH1 0x20 PUSH1 0x0 KECCAK256 SWAP1 JUMPDEST DUP2 SLOAD DUP2 MSTORE SWAP1 PUSH1 0x1 ADD SWAP1 PUSH1 0x20 ADD DUP1 DUP4 GT PUSH2 0x790 JUMPI DUP3 SWAP1 SUB PUSH1 0x1F AND DUP3 ADD SWAP2 JUMPDEST POP POP POP POP POP SWAP1 DUP1 PUSH1 0x3 ADD DUP1 SLOAD PUSH2 0x7C2 SWAP1 PUSH2 0x2BFB JUMP JUMPDEST DUP1 PUSH1 0x1F ADD PUSH1 0x20 DUP1 SWAP2 DIV MUL PUSH1 0x20 ADD PUSH1 0x40 MLOAD SWAP1 DUP2 ADD PUSH1 0x40 MSTORE DUP1 SWAP3 SWAP2 SWAP1 DUP2 DUP2 MSTORE PUSH1 0x20 ADD DUP3 DUP1 SLOAD PUSH2 0x7EE SWAP1 PUSH2 0x2BFB JUMP JUMPDEST DUP1 ISZERO PUSH2 0x83B JUMPI DUP1 PUSH1 0x1F LT PUSH2 0x810 JUMPI PUSH2 0x100 DUP1 DUP4 SLOAD DIV MUL DUP4 MSTORE SWAP2 PUSH1 0x20 ADD SWAP2 PUSH2 0x83B JUMP JUMPDEST DUP3 ADD SWAP2 SWAP1 PUSH1 0x0 MSTORE PUSH1 0x20 PUSH1 0x0 KECCAK256 SWAP1 JUMPDEST DUP2 SLOAD DUP2 MSTORE SWAP1 PUSH1 0x1 ADD SWAP1 PUSH1 0x20 ADD DUP1 DUP4 GT PUSH2 0x81E JUMPI DUP3 SWAP1 SUB PUSH1 0x1F AND DUP3 ADD SWAP2 JUMPDEST POP POP POP POP POP SWAP1 DUP1 PUSH1 0x4 ADD DUP1 SLOAD PUSH2 0x850 SWAP1 PUSH2 0x2BFB JUMP JUMPDEST DUP1 PUSH1 0x1F ADD PUSH1 0x20 DUP1 SWAP2 DIV MUL PUSH1 0x20 ADD PUSH1 0x40 MLOAD SWAP1 DUP2 ADD PUSH1 0x40 MSTORE DUP1 SWAP3 SWAP2 SWAP1 DUP2 DUP2 MSTORE PUSH1 0x20 ADD DUP3 DUP1 SLOAD PUSH2 0x87C SWAP1 PUSH2 0x2BFB JUMP JUMPDEST DUP1 ISZERO PUSH2 0x8C9 JUMPI DUP1 PUSH1 0x1F LT PUSH2 0x89E JUMPI PUSH2 0x100 DUP1 DUP4 SLOAD DIV MUL DUP4 MSTORE SWAP2 PUSH1 0x20 ADD SWAP2 PUSH2 0x8C9 JUMP JUMPDEST DUP3 ADD SWAP2 SWAP1 PUSH1 0x0 MSTORE PUSH1 0x20 PUSH1 0x0 KECCAK256 SWAP1 JUMPDEST DUP2 SLOAD DUP2 MSTORE SWAP1 PUSH1 0x1 ADD SWAP1 PUSH1 0x20 ADD DUP1 DUP4 GT PUSH2 0x8AC JUMPI DUP3 SWAP1 SUB PUSH1 0x1F AND DUP3 ADD SWAP2 JUMPDEST POP POP POP PUSH1 0x5 SWAP1 SWAP4 ADD SLOAD SWAP2 SWAP3 POP POP PUSH1 0xFF AND DUP7 JUMP JUMPDEST DUP1 MLOAD PUSH1 0x20 DUP2 DUP4 ADD DUP2 ADD DUP1 MLOAD PUSH1 0x8 DUP3 MSTORE SWAP3 DUP3 ADD SWAP2 SWAP1 SWAP4 ADD KECCAK256 SWAP2 MSTORE DUP1 SLOAD DUP2 SWAP1 PUSH2 0x618 SWAP1 PUSH2 0x2BFB JUMP JUMPDEST DUP1 PUSH1 0x7 DUP2 PUSH1 0x40 MLOAD PUSH2 0x913 SWAP2 SWAP1 PUSH2 0x2692 JUMP JUMPDEST SWAP1 DUP2 MSTORE PUSH1 0x40 MLOAD SWAP1 DUP2 SWAP1 SUB PUSH1 0x20 ADD SWAP1 KECCAK256 PUSH1 0x5 ADD SLOAD PUSH1 0xFF AND ISZERO ISZERO PUSH1 0x1 EQ PUSH2 0x94A JUMPI PUSH1 0x40 MLOAD PUSH3 0x461BCD PUSH1 0xE5 SHL DUP2 MSTORE PUSH1 0x4 ADD PUSH2 0x3C7 SWAP1 PUSH2 0x2B38 JUMP JUMPDEST PUSH1 0x40 MLOAD DUP1 PUSH1 0x80 ADD PUSH1 0x40 MSTORE DUP1 DUP8 DUP2 MSTORE PUSH1 0x20 ADD DUP7 DUP2 MSTORE PUSH1 0x20 ADD DUP6 DUP2 MSTORE PUSH1 0x20 ADD DUP5 DUP2 MSTORE POP PUSH1 0xA DUP4 PUSH1 0x40 MLOAD PUSH2 0x97B SWAP2 SWAP1 PUSH2 0x2692 JUMP JUMPDEST SWAP1 DUP2 MSTORE PUSH1 0x20 ADD PUSH1 0x40 MLOAD DUP1 SWAP2 SUB SWAP1 KECCAK256 PUSH1 0x0 DUP3 ADD MLOAD DUP2 PUSH1 0x0 ADD SWAP1 DUP1 MLOAD SWAP1 PUSH1 0x20 ADD SWAP1 PUSH2 0x9A5 SWAP3 SWAP2 SWAP1 PUSH2 0x1F9A JUMP JUMPDEST POP PUSH1 0x20 DUP3 DUP2 ADD MLOAD DUP1 MLOAD PUSH2 0x9BE SWAP3 PUSH1 0x1 DUP6 ADD SWAP3 ADD SWAP1 PUSH2 0x1F9A JUMP JUMPDEST POP PUSH1 0x40 DUP3 ADD MLOAD DUP2 PUSH1 0x2 ADD SSTORE PUSH1 0x60 DUP3 ADD MLOAD DUP2 PUSH1 0x3 ADD SSTORE SWAP1 POP POP PUSH1 0x0 DUP1 MLOAD PUSH1 0x20 PUSH2 0x2C73 DUP4 CODECOPY DUP2 MLOAD SWAP2 MSTORE DUP3 TIMESTAMP PUSH1 0x40 MLOAD PUSH2 0x528 SWAP3 SWAP2 SWAP1 PUSH2 0x2A23 JUMP JUMPDEST PUSH1 0x60 DUP1 DUP1 PUSH1 0x0 DUP5 PUSH1 0x1 DUP2 GT ISZERO PUSH2 0xA1B JUMPI PUSH4 0x4E487B71 PUSH1 0xE0 SHL PUSH1 0x0 MSTORE PUSH1 0x21 PUSH1 0x4 MSTORE PUSH1 0x24 PUSH1 0x0 REVERT JUMPDEST EQ ISZERO PUSH2 0xC9E JUMPI DUP8 DUP6 PUSH1 0x40 MLOAD PUSH1 0x20 ADD PUSH2 0xA34 SWAP3 SWAP2 SWAP1 PUSH2 0x26AE JUMP JUMPDEST PUSH1 0x40 MLOAD PUSH1 0x20 DUP2 DUP4 SUB SUB DUP2 MSTORE SWAP1 PUSH1 0x40 MSTORE SWAP2 POP DUP9 DUP1 MLOAD SWAP1 PUSH1 0x20 ADD KECCAK256 PUSH1 0x8 DUP4 PUSH1 0x40 MLOAD PUSH2 0xA5D SWAP2 SWAP1 PUSH2 0x2692 JUMP JUMPDEST SWAP1 DUP2 MSTORE PUSH1 0x20 ADD PUSH1 0x40 MLOAD DUP1 SWAP2 SUB SWAP1 KECCAK256 PUSH1 0x1 ADD PUSH1 0x40 MLOAD PUSH2 0xA7B SWAP2 SWAP1 PUSH2 0x2623 JUMP JUMPDEST PUSH1 0x40 MLOAD DUP1 SWAP2 SUB SWAP1 KECCAK256 EQ ISZERO PUSH2 0xADD JUMPI PUSH1 0x40 MLOAD PUSH3 0x461BCD PUSH1 0xE5 SHL DUP2 MSTORE PUSH1 0x20 PUSH1 0x4 DUP3 ADD MSTORE PUSH1 0x23 PUSH1 0x24 DUP3 ADD MSTORE PUSH32 0x4548522D52442D30313A20446F63746F7220616C726561647920456E726F6C6C PUSH1 0x44 DUP3 ADD MSTORE PUSH3 0x32B217 PUSH1 0xE9 SHL PUSH1 0x64 DUP3 ADD MSTORE PUSH1 0x84 ADD PUSH2 0x3C7 JUMP JUMPDEST DUP8 DUP1 MLOAD SWAP1 PUSH1 0x20 ADD KECCAK256 PUSH1 0x8 DUP4 PUSH1 0x40 MLOAD PUSH2 0xAF5 SWAP2 SWAP1 PUSH2 0x2692 JUMP JUMPDEST SWAP1 DUP2 MSTORE PUSH1 0x20 ADD PUSH1 0x40 MLOAD DUP1 SWAP2 SUB SWAP1 KECCAK256 PUSH1 0x2 ADD PUSH1 0x40 MLOAD PUSH2 0xB13 SWAP2 SWAP1 PUSH2 0x2623 JUMP JUMPDEST PUSH1 0x40 MLOAD DUP1 SWAP2 SUB SWAP1 KECCAK256 EQ ISZERO PUSH2 0xB75 JUMPI PUSH1 0x40 MLOAD PUSH3 0x461BCD PUSH1 0xE5 SHL DUP2 MSTORE PUSH1 0x20 PUSH1 0x4 DUP3 ADD MSTORE PUSH1 0x23 PUSH1 0x24 DUP3 ADD MSTORE PUSH32 0x4548522D52442D30323A20446F63746F7220616C726561647920456E726F6C6C PUSH1 0x44 DUP3 ADD MSTORE PUSH3 0x32B217 PUSH1 0xE9 SHL PUSH1 0x64 DUP3 ADD MSTORE PUSH1 0x84 ADD PUSH2 0x3C7 JUMP JUMPDEST PUSH1 0x40 MLOAD DUP1 PUSH1 0xC0 ADD PUSH1 0x40 MSTORE DUP1 DUP12 DUP2 MSTORE PUSH1 0x20 ADD DUP11 DUP2 MSTORE PUSH1 0x20 ADD DUP10 DUP2 MSTORE PUSH1 0x20 ADD DUP9 DUP2 MSTORE PUSH1 0x20 ADD DUP7 DUP2 MSTORE PUSH1 0x20 ADD PUSH1 0x1 ISZERO ISZERO DUP2 MSTORE POP PUSH1 0x8 DUP4 PUSH1 0x40 MLOAD PUSH2 0xBB5 SWAP2 SWAP1 PUSH2 0x2692 JUMP JUMPDEST SWAP1 DUP2 MSTORE PUSH1 0x20 ADD PUSH1 0x40 MLOAD DUP1 SWAP2 SUB SWAP1 KECCAK256 PUSH1 0x0 DUP3 ADD MLOAD DUP2 PUSH1 0x0 ADD SWAP1 DUP1 MLOAD SWAP1 PUSH1 0x20 ADD SWAP1 PUSH2 0xBDF SWAP3 SWAP2 SWAP1 PUSH2 0x1F9A JUMP JUMPDEST POP PUSH1 0x20 DUP3 DUP2 ADD MLOAD DUP1 MLOAD PUSH2 0xBF8 SWAP3 PUSH1 0x1 DUP6 ADD SWAP3 ADD SWAP1 PUSH2 0x1F9A JUMP JUMPDEST POP PUSH1 0x40 DUP3 ADD MLOAD DUP1 MLOAD PUSH2 0xC14 SWAP2 PUSH1 0x2 DUP5 ADD SWAP2 PUSH1 0x20 SWAP1 SWAP2 ADD SWAP1 PUSH2 0x1F9A JUMP JUMPDEST POP PUSH1 0x60 DUP3 ADD MLOAD DUP1 MLOAD PUSH2 0xC30 SWAP2 PUSH1 0x3 DUP5 ADD SWAP2 PUSH1 0x20 SWAP1 SWAP2 ADD SWAP1 PUSH2 0x1F9A JUMP JUMPDEST POP PUSH1 0x80 DUP3 ADD MLOAD DUP1 MLOAD PUSH2 0xC4C SWAP2 PUSH1 0x4 DUP5 ADD SWAP2 PUSH1 0x20 SWAP1 SWAP2 ADD SWAP1 PUSH2 0x1F9A JUMP JUMPDEST POP PUSH1 0xA0 SWAP2 SWAP1 SWAP2 ADD MLOAD PUSH1 0x5 SWAP1 SWAP2 ADD DUP1 SLOAD PUSH1 0xFF NOT AND SWAP2 ISZERO ISZERO SWAP2 SWAP1 SWAP2 OR SWAP1 SSTORE POP PUSH1 0x40 DUP1 MLOAD DUP1 DUP3 ADD SWAP1 SWAP2 MSTORE PUSH1 0x18 DUP2 MSTORE PUSH32 0x446F63746F7220526567697374726174696F6E20446F6E650000000000000000 PUSH1 0x20 DUP3 ADD MSTORE JUMPDEST PUSH1 0x1 DUP5 PUSH1 0x1 DUP2 GT ISZERO PUSH2 0xCC0 JUMPI PUSH4 0x4E487B71 PUSH1 0xE0 SHL PUSH1 0x0 MSTORE PUSH1 0x21 PUSH1 0x4 MSTORE PUSH1 0x24 PUSH1 0x0 REVERT JUMPDEST EQ ISZERO PUSH2 0xD99 JUMPI DUP6 SWAP2 POP DUP10 PUSH1 0x8 DUP4 PUSH1 0x40 MLOAD PUSH2 0xCDA SWAP2 SWAP1 PUSH2 0x2692 JUMP JUMPDEST SWAP1 DUP2 MSTORE PUSH1 0x20 ADD PUSH1 0x40 MLOAD DUP1 SWAP2 SUB SWAP1 KECCAK256 PUSH1 0x0 ADD SWAP1 DUP1 MLOAD SWAP1 PUSH1 0x20 ADD SWAP1 PUSH2 0xCFE SWAP3 SWAP2 SWAP1 PUSH2 0x1F9A JUMP JUMPDEST POP DUP9 PUSH1 0x8 DUP4 PUSH1 0x40 MLOAD PUSH2 0xD10 SWAP2 SWAP1 PUSH2 0x2692 JUMP JUMPDEST SWAP1 DUP2 MSTORE PUSH1 0x20 ADD PUSH1 0x40 MLOAD DUP1 SWAP2 SUB SWAP1 KECCAK256 PUSH1 0x1 ADD SWAP1 DUP1 MLOAD SWAP1 PUSH1 0x20 ADD SWAP1 PUSH2 0xD34 SWAP3 SWAP2 SWAP1 PUSH2 0x1F9A JUMP JUMPDEST POP DUP8 PUSH1 0x8 DUP4 PUSH1 0x40 MLOAD PUSH2 0xD46 SWAP2 SWAP1 PUSH2 0x2692 JUMP JUMPDEST SWAP1 DUP2 MSTORE PUSH1 0x20 ADD PUSH1 0x40 MLOAD DUP1 SWAP2 SUB SWAP1 KECCAK256 PUSH1 0x2 ADD SWAP1 DUP1 MLOAD SWAP1 PUSH1 0x20 ADD SWAP1 PUSH2 0xD6A SWAP3 SWAP2 SWAP1 PUSH2 0x1F9A JUMP JUMPDEST POP POP PUSH1 0x40 DUP1 MLOAD DUP1 DUP3 ADD SWAP1 SWAP2 MSTORE PUSH1 0x15 DUP2 MSTORE PUSH21 0x111BD8DD1BDC88149958DBDC9908155C19185D1959 PUSH1 0x5A SHL PUSH1 0x20 DUP3 ADD MSTORE JUMPDEST PUSH1 0x0 DUP1 MLOAD PUSH1 0x20 PUSH2 0x2C73 DUP4 CODECOPY DUP2 MLOAD SWAP2 MSTORE DUP3 DUP3 TIMESTAMP PUSH1 0x40 MLOAD PUSH2 0xDBA SWAP4 SWAP3 SWAP2 SWAP1 PUSH2 0x2902 JUMP JUMPDEST PUSH1 0x40 MLOAD DUP1 SWAP2 SUB SWAP1 LOG1 POP POP SWAP8 SWAP7 POP POP POP POP POP POP POP JUMP JUMPDEST DUP1 MLOAD PUSH1 0x20 DUP2 DUP4 ADD DUP2 ADD DUP1 MLOAD PUSH1 0xA DUP3 MSTORE SWAP3 DUP3 ADD SWAP2 SWAP1 SWAP4 ADD KECCAK256 SWAP2 MSTORE DUP1 SLOAD DUP2 SWAP1 PUSH2 0xDF5 SWAP1 PUSH2 0x2BFB JUMP JUMPDEST DUP1 PUSH1 0x1F ADD PUSH1 0x20 DUP1 SWAP2 DIV MUL PUSH1 0x20 ADD PUSH1 0x40 MLOAD SWAP1 DUP2 ADD PUSH1 0x40 MSTORE DUP1 SWAP3 SWAP2 SWAP1 DUP2 DUP2 MSTORE PUSH1 0x20 ADD DUP3 DUP1 SLOAD PUSH2 0xE21 SWAP1 PUSH2 0x2BFB JUMP JUMPDEST DUP1 ISZERO PUSH2 0xE6E JUMPI DUP1 PUSH1 0x1F LT PUSH2 0xE43 JUMPI PUSH2 0x100 DUP1 DUP4 SLOAD DIV MUL DUP4 MSTORE SWAP2 PUSH1 0x20 ADD SWAP2 PUSH2 0xE6E JUMP JUMPDEST DUP3 ADD SWAP2 SWAP1 PUSH1 0x0 MSTORE PUSH1 0x20 PUSH1 0x0 KECCAK256 SWAP1 JUMPDEST DUP2 SLOAD DUP2 MSTORE SWAP1 PUSH1 0x1 ADD SWAP1 PUSH1 0x20 ADD DUP1 DUP4 GT PUSH2 0xE51 JUMPI DUP3 SWAP1 SUB PUSH1 0x1F AND DUP3 ADD SWAP2 JUMPDEST POP POP POP POP POP SWAP1 DUP1 PUSH1 0x1 ADD DUP1 SLOAD PUSH2 0xE83 SWAP1 PUSH2 0x2BFB JUMP JUMPDEST DUP1 PUSH1 0x1F ADD PUSH1 0x20 DUP1 SWAP2 DIV MUL PUSH1 0x20 ADD PUSH1 0x40 MLOAD SWAP1 DUP2 ADD PUSH1 0x40 MSTORE DUP1 SWAP3 SWAP2 SWAP1 DUP2 DUP2 MSTORE PUSH1 0x20 ADD DUP3 DUP1 SLOAD PUSH2 0xEAF SWAP1 PUSH2 0x2BFB JUMP JUMPDEST DUP1 ISZERO PUSH2 0xEFC JUMPI DUP1 PUSH1 0x1F LT PUSH2 0xED1 JUMPI PUSH2 0x100 DUP1 DUP4 SLOAD DIV MUL DUP4 MSTORE SWAP2 PUSH1 0x20 ADD SWAP2 PUSH2 0xEFC JUMP JUMPDEST DUP3 ADD SWAP2 SWAP1 PUSH1 0x0 MSTORE PUSH1 0x20 PUSH1 0x0 KECCAK256 SWAP1 JUMPDEST DUP2 SLOAD DUP2 MSTORE SWAP1 PUSH1 0x1 ADD SWAP1 PUSH1 0x20 ADD DUP1 DUP4 GT PUSH2 0xEDF JUMPI DUP3 SWAP1 SUB PUSH1 0x1F AND DUP3 ADD SWAP2 JUMPDEST POP POP POP POP POP SWAP1 DUP1 PUSH1 0x2 ADD SLOAD SWAP1 DUP1 PUSH1 0x3 ADD SLOAD SWAP1 POP DUP5 JUMP JUMPDEST DUP5 PUSH1 0x7 DUP2 PUSH1 0x40 MLOAD PUSH2 0xF23 SWAP2 SWAP1 PUSH2 0x2692 JUMP JUMPDEST SWAP1 DUP2 MSTORE PUSH1 0x40 MLOAD SWAP1 DUP2 SWAP1 SUB PUSH1 0x20 ADD SWAP1 KECCAK256 PUSH1 0x5 ADD SLOAD PUSH1 0xFF AND ISZERO ISZERO PUSH1 0x1 EQ PUSH2 0xF5A JUMPI PUSH1 0x40 MLOAD PUSH3 0x461BCD PUSH1 0xE5 SHL DUP2 MSTORE PUSH1 0x4 ADD PUSH2 0x3C7 SWAP1 PUSH2 0x2B38 JUMP JUMPDEST PUSH1 0xC DUP7 PUSH1 0x40 MLOAD PUSH2 0xF6A SWAP2 SWAP1 PUSH2 0x2692 JUMP JUMPDEST SWAP1 DUP2 MSTORE PUSH1 0x40 DUP1 MLOAD PUSH1 0x20 SWAP3 DUP2 SWAP1 SUB DUP4 ADD SWAP1 KECCAK256 PUSH1 0x0 DUP9 DUP2 MSTORE SWAP3 MSTORE SWAP1 KECCAK256 PUSH1 0x3 ADD SLOAD PUSH1 0xFF AND ISZERO PUSH2 0xFD8 JUMPI PUSH1 0x40 MLOAD PUSH3 0x461BCD PUSH1 0xE5 SHL DUP2 MSTORE PUSH1 0x20 PUSH1 0x4 DUP3 ADD MSTORE PUSH1 0x1E PUSH1 0x24 DUP3 ADD MSTORE PUSH32 0x4548522D5243472D30313A20416C726561647920726567697374657265640000 PUSH1 0x44 DUP3 ADD MSTORE PUSH1 0x64 ADD PUSH2 0x3C7 JUMP JUMPDEST PUSH1 0x40 MLOAD DUP1 PUSH1 0x80 ADD PUSH1 0x40 MSTORE DUP1 DUP6 DUP2 MSTORE PUSH1 0x20 ADD DUP5 DUP2 MSTORE PUSH1 0x20 ADD DUP4 DUP2 MSTORE PUSH1 0x20 ADD PUSH1 0x1 ISZERO ISZERO DUP2 MSTORE POP PUSH1 0xC DUP8 PUSH1 0x40 MLOAD PUSH2 0x100C SWAP2 SWAP1 PUSH2 0x2692 JUMP JUMPDEST SWAP1 DUP2 MSTORE PUSH1 0x40 DUP1 MLOAD PUSH1 0x20 SWAP3 DUP2 SWAP1 SUB DUP4 ADD SWAP1 KECCAK256 PUSH1 0x0 DUP10 DUP2 MSTORE SWAP1 DUP4 MSTORE KECCAK256 DUP3 MLOAD DUP1 MLOAD SWAP2 SWAP3 PUSH2 0x103B SWAP3 DUP5 SWAP3 SWAP1 SWAP2 ADD SWAP1 PUSH2 0x1F9A JUMP JUMPDEST POP PUSH1 0x20 DUP3 DUP2 ADD MLOAD DUP1 MLOAD PUSH2 0x1054 SWAP3 PUSH1 0x1 DUP6 ADD SWAP3 ADD SWAP1 PUSH2 0x1F9A JUMP JUMPDEST POP PUSH1 0x40 DUP3 ADD MLOAD DUP1 MLOAD PUSH2 0x1070 SWAP2 PUSH1 0x2 DUP5 ADD SWAP2 PUSH1 0x20 SWAP1 SWAP2 ADD SWAP1 PUSH2 0x1F9A JUMP JUMPDEST POP PUSH1 0x60 SWAP2 SWAP1 SWAP2 ADD MLOAD PUSH1 0x3 SWAP1 SWAP2 ADD DUP1 SLOAD PUSH1 0xFF NOT AND SWAP2 ISZERO ISZERO SWAP2 SWAP1 SWAP2 OR SWAP1 SSTORE PUSH1 0x40 MLOAD PUSH1 0x0 DUP1 MLOAD PUSH1 0x20 PUSH2 0x2C73 DUP4 CODECOPY DUP2 MLOAD SWAP2 MSTORE SWAP1 PUSH2 0x528 SWAP1 DUP9 SWAP1 TIMESTAMP SWAP1 PUSH2 0x29CA JUMP JUMPDEST PUSH1 0x60 DUP1 DUP1 PUSH1 0x0 DUP5 PUSH1 0x1 DUP2 GT ISZERO PUSH2 0x10D2 JUMPI PUSH4 0x4E487B71 PUSH1 0xE0 SHL PUSH1 0x0 MSTORE PUSH1 0x21 PUSH1 0x4 MSTORE PUSH1 0x24 PUSH1 0x0 REVERT JUMPDEST EQ ISZERO PUSH2 0x1355 JUMPI DUP8 DUP6 PUSH1 0x40 MLOAD PUSH1 0x20 ADD PUSH2 0x10EB SWAP3 SWAP2 SWAP1 PUSH2 0x2701 JUMP JUMPDEST PUSH1 0x40 MLOAD PUSH1 0x20 DUP2 DUP4 SUB SUB DUP2 MSTORE SWAP1 PUSH1 0x40 MSTORE SWAP2 POP DUP9 DUP1 MLOAD SWAP1 PUSH1 0x20 ADD KECCAK256 PUSH1 0x7 DUP4 PUSH1 0x40 MLOAD PUSH2 0x1114 SWAP2 SWAP1 PUSH2 0x2692 JUMP JUMPDEST SWAP1 DUP2 MSTORE PUSH1 0x20 ADD PUSH1 0x40 MLOAD DUP1 SWAP2 SUB SWAP1 KECCAK256 PUSH1 0x1 ADD PUSH1 0x40 MLOAD PUSH2 0x1132 SWAP2 SWAP1 PUSH2 0x2623 JUMP JUMPDEST PUSH1 0x40 MLOAD DUP1 SWAP2 SUB SWAP1 KECCAK256 EQ ISZERO PUSH2 0x1194 JUMPI PUSH1 0x40 MLOAD PUSH3 0x461BCD PUSH1 0xE5 SHL DUP2 MSTORE PUSH1 0x20 PUSH1 0x4 DUP3 ADD MSTORE PUSH1 0x24 DUP1 DUP3 ADD MSTORE PUSH32 0x4548522D52502D30313A2050617469656E7420616C726561647920456E726F6C PUSH1 0x44 DUP3 ADD MSTORE PUSH4 0x3632B217 PUSH1 0xE1 SHL PUSH1 0x64 DUP3 ADD MSTORE PUSH1 0x84 ADD PUSH2 0x3C7 JUMP JUMPDEST DUP8 DUP1 MLOAD SWAP1 PUSH1 0x20 ADD KECCAK256 PUSH1 0x7 DUP4 PUSH1 0x40 MLOAD PUSH2 0x11AC SWAP2 SWAP1 PUSH2 0x2692 JUMP JUMPDEST SWAP1 DUP2 MSTORE PUSH1 0x20 ADD PUSH1 0x40 MLOAD DUP1 SWAP2 SUB SWAP1 KECCAK256 PUSH1 0x2 ADD PUSH1 0x40 MLOAD PUSH2 0x11CA SWAP2 SWAP1 PUSH2 0x2623 JUMP JUMPDEST PUSH1 0x40 MLOAD DUP1 SWAP2 SUB SWAP1 KECCAK256 EQ ISZERO PUSH2 0x122C JUMPI PUSH1 0x40 MLOAD PUSH3 0x461BCD PUSH1 0xE5 SHL DUP2 MSTORE PUSH1 0x20 PUSH1 0x4 DUP3 ADD MSTORE PUSH1 0x24 DUP1 DUP3 ADD MSTORE PUSH32 0x4548522D52502D30323A2050617469656E7420616C726561647920456E726F6C PUSH1 0x44 DUP3 ADD MSTORE PUSH4 0x3632B217 PUSH1 0xE1 SHL PUSH1 0x64 DUP3 ADD MSTORE PUSH1 0x84 ADD PUSH2 0x3C7 JUMP JUMPDEST PUSH1 0x40 MLOAD DUP1 PUSH1 0xC0 ADD PUSH1 0x40 MSTORE DUP1 DUP12 DUP2 MSTORE PUSH1 0x20 ADD DUP11 DUP2 MSTORE PUSH1 0x20 ADD DUP10 DUP2 MSTORE PUSH1 0x20 ADD DUP9 DUP2 MSTORE PUSH1 0x20 ADD DUP7 DUP2 MSTORE PUSH1 0x20 ADD PUSH1 0x1 ISZERO ISZERO DUP2 MSTORE POP PUSH1 0x7 DUP4 PUSH1 0x40 MLOAD PUSH2 0x126C SWAP2 SWAP1 PUSH2 0x2692 JUMP JUMPDEST SWAP1 DUP2 MSTORE PUSH1 0x20 ADD PUSH1 0x40 MLOAD DUP1 SWAP2 SUB SWAP1 KECCAK256 PUSH1 0x0 DUP3 ADD MLOAD DUP2 PUSH1 0x0 ADD SWAP1 DUP1 MLOAD SWAP1 PUSH1 0x20 ADD SWAP1 PUSH2 0x1296 SWAP3 SWAP2 SWAP1 PUSH2 0x1F9A JUMP JUMPDEST POP PUSH1 0x20 DUP3 DUP2 ADD MLOAD DUP1 MLOAD PUSH2 0x12AF SWAP3 PUSH1 0x1 DUP6 ADD SWAP3 ADD SWAP1 PUSH2 0x1F9A JUMP JUMPDEST POP PUSH1 0x40 DUP3 ADD MLOAD DUP1 MLOAD PUSH2 0x12CB SWAP2 PUSH1 0x2 DUP5 ADD SWAP2 PUSH1 0x20 SWAP1 SWAP2 ADD SWAP1 PUSH2 0x1F9A JUMP JUMPDEST POP PUSH1 0x60 DUP3 ADD MLOAD DUP1 MLOAD PUSH2 0x12E7 SWAP2 PUSH1 0x3 DUP5 ADD SWAP2 PUSH1 0x20 SWAP1 SWAP2 ADD SWAP1 PUSH2 0x1F9A JUMP JUMPDEST POP PUSH1 0x80 DUP3 ADD MLOAD DUP1 MLOAD PUSH2 0x1303 SWAP2 PUSH1 0x4 DUP5 ADD SWAP2 PUSH1 0x20 SWAP1 SWAP2 ADD SWAP1 PUSH2 0x1F9A JUMP JUMPDEST POP PUSH1 0xA0 SWAP2 SWAP1 SWAP2 ADD MLOAD PUSH1 0x5 SWAP1 SWAP2 ADD DUP1 SLOAD PUSH1 0xFF NOT AND SWAP2 ISZERO ISZERO SWAP2 SWAP1 SWAP2 OR SWAP1 SSTORE POP PUSH1 0x40 DUP1 MLOAD DUP1 DUP3 ADD SWAP1 SWAP2 MSTORE PUSH1 0x19 DUP2 MSTORE PUSH32 0x50617469656E7420526567697374726174696F6E20446F6E6500000000000000 PUSH1 0x20 DUP3 ADD MSTORE JUMPDEST PUSH1 0x1 DUP5 PUSH1 0x1 DUP2 GT ISZERO PUSH2 0x1377 JUMPI PUSH4 0x4E487B71 PUSH1 0xE0 SHL PUSH1 0x0 MSTORE PUSH1 0x21 PUSH1 0x4 MSTORE PUSH1 0x24 PUSH1 0x0 REVERT JUMPDEST EQ ISZERO PUSH2 0xD99 JUMPI DUP6 SWAP2 POP DUP10 PUSH1 0x7 DUP4 PUSH1 0x40 MLOAD PUSH2 0x1391 SWAP2 SWAP1 PUSH2 0x2692 JUMP JUMPDEST SWAP1 DUP2 MSTORE PUSH1 0x20 ADD PUSH1 0x40 MLOAD DUP1 SWAP2 SUB SWAP1 KECCAK256 PUSH1 0x0 ADD SWAP1 DUP1 MLOAD SWAP1 PUSH1 0x20 ADD SWAP1 PUSH2 0x13B5 SWAP3 SWAP2 SWAP1 PUSH2 0x1F9A JUMP JUMPDEST POP DUP9 PUSH1 0x7 DUP4 PUSH1 0x40 MLOAD PUSH2 0x13C7 SWAP2 SWAP1 PUSH2 0x2692 JUMP JUMPDEST SWAP1 DUP2 MSTORE PUSH1 0x20 ADD PUSH1 0x40 MLOAD DUP1 SWAP2 SUB SWAP1 KECCAK256 PUSH1 0x1 ADD SWAP1 DUP1 MLOAD SWAP1 PUSH1 0x20 ADD SWAP1 PUSH2 0x13EB SWAP3 SWAP2 SWAP1 PUSH2 0x1F9A JUMP JUMPDEST POP DUP8 PUSH1 0x7 DUP4 PUSH1 0x40 MLOAD PUSH2 0x13FD SWAP2 SWAP1 PUSH2 0x2692 JUMP JUMPDEST SWAP1 DUP2 MSTORE PUSH1 0x20 ADD PUSH1 0x40 MLOAD DUP1 SWAP2 SUB SWAP1 KECCAK256 PUSH1 0x2 ADD SWAP1 DUP1 MLOAD SWAP1 PUSH1 0x20 ADD SWAP1 PUSH2 0x1421 SWAP3 SWAP2 SWAP1 PUSH2 0x1F9A JUMP JUMPDEST POP POP PUSH1 0x40 DUP1 MLOAD DUP1 DUP3 ADD SWAP1 SWAP2 MSTORE PUSH1 0x16 DUP2 MSTORE PUSH22 0x14185D1A595B9D08149958DBDC9908155C19185D1959 PUSH1 0x52 SHL PUSH1 0x20 DUP3 ADD MSTORE PUSH1 0x0 DUP1 MLOAD PUSH1 0x20 PUSH2 0x2C73 DUP4 CODECOPY DUP2 MLOAD SWAP2 MSTORE DUP3 DUP3 TIMESTAMP PUSH1 0x40 MLOAD PUSH2 0xDBA SWAP4 SWAP3 SWAP2 SWAP1 PUSH2 0x2902 JUMP JUMPDEST DUP2 PUSH1 0x8 DUP2 PUSH1 0x40 MLOAD PUSH2 0x1482 SWAP2 SWAP1 PUSH2 0x2692 JUMP JUMPDEST SWAP1 DUP2 MSTORE PUSH1 0x40 MLOAD SWAP1 DUP2 SWAP1 SUB PUSH1 0x20 ADD SWAP1 KECCAK256 PUSH1 0x5 ADD SLOAD PUSH1 0xFF AND ISZERO ISZERO PUSH1 0x1 EQ PUSH2 0x14E1 JUMPI PUSH1 0x40 MLOAD PUSH3 0x461BCD PUSH1 0xE5 SHL DUP2 MSTORE PUSH1 0x20 PUSH1 0x4 DUP3 ADD MSTORE PUSH1 0x15 PUSH1 0x24 DUP3 ADD MSTORE PUSH21 0x111BD8DD1BDC88139BDD081C9959DA5CDD195C9959 PUSH1 0x5A SHL PUSH1 0x44 DUP3 ADD MSTORE PUSH1 0x64 ADD PUSH2 0x3C7 JUMP JUMPDEST PUSH1 0x60 PUSH1 0x0 DUP4 PUSH1 0x1 DUP2 GT ISZERO PUSH2 0x1505 JUMPI PUSH4 0x4E487B71 PUSH1 0xE0 SHL PUSH1 0x0 MSTORE PUSH1 0x21 PUSH1 0x4 MSTORE PUSH1 0x24 PUSH1 0x0 REVERT JUMPDEST EQ ISZERO PUSH2 0x162F JUMPI PUSH1 0xD DUP6 PUSH1 0x40 MLOAD PUSH2 0x151B SWAP2 SWAP1 PUSH2 0x2692 JUMP JUMPDEST SWAP1 DUP2 MSTORE PUSH1 0x20 ADD PUSH1 0x40 MLOAD DUP1 SWAP2 SUB SWAP1 KECCAK256 DUP5 PUSH1 0x40 MLOAD PUSH2 0x1537 SWAP2 SWAP1 PUSH2 0x2692 JUMP JUMPDEST SWAP1 DUP2 MSTORE PUSH1 0x40 MLOAD SWAP1 DUP2 SWAP1 SUB PUSH1 0x20 ADD SWAP1 KECCAK256 SLOAD PUSH1 0xFF AND ISZERO PUSH2 0x15A3 JUMPI PUSH1 0x40 MLOAD PUSH3 0x461BCD PUSH1 0xE5 SHL DUP2 MSTORE PUSH1 0x20 PUSH1 0x4 DUP3 ADD MSTORE PUSH1 0x24 DUP1 DUP3 ADD MSTORE PUSH32 0x4548522D41432D30313A2041636365737320686164206265656E2070726F7669 PUSH1 0x44 DUP3 ADD MSTORE PUSH4 0x64656421 PUSH1 0xE0 SHL PUSH1 0x64 DUP3 ADD MSTORE PUSH1 0x84 ADD PUSH2 0x3C7 JUMP JUMPDEST PUSH1 0x1 PUSH1 0xD DUP7 PUSH1 0x40 MLOAD PUSH2 0x15B5 SWAP2 SWAP1 PUSH2 0x2692 JUMP JUMPDEST SWAP1 DUP2 MSTORE PUSH1 0x20 ADD PUSH1 0x40 MLOAD DUP1 SWAP2 SUB SWAP1 KECCAK256 DUP6 PUSH1 0x40 MLOAD PUSH2 0x15D1 SWAP2 SWAP1 PUSH2 0x2692 JUMP JUMPDEST SWAP1 DUP2 MSTORE PUSH1 0x20 ADD PUSH1 0x40 MLOAD DUP1 SWAP2 SUB SWAP1 KECCAK256 PUSH1 0x0 PUSH2 0x100 EXP DUP2 SLOAD DUP2 PUSH1 0xFF MUL NOT AND SWAP1 DUP4 ISZERO ISZERO MUL OR SWAP1 SSTORE POP PUSH1 0x40 MLOAD DUP1 PUSH1 0x40 ADD PUSH1 0x40 MSTORE DUP1 PUSH1 0x1C DUP2 MSTORE PUSH1 0x20 ADD PUSH32 0x4163636573732069732070726F766964656420746F20646F63746F7200000000 DUP2 MSTORE POP SWAP1 POP JUMPDEST PUSH1 0x1 DUP4 PUSH1 0x1 DUP2 GT ISZERO PUSH2 0x1651 JUMPI PUSH4 0x4E487B71 PUSH1 0xE0 SHL PUSH1 0x0 MSTORE PUSH1 0x21 PUSH1 0x4 MSTORE PUSH1 0x24 PUSH1 0x0 REVERT JUMPDEST EQ ISZERO PUSH2 0x177F JUMPI PUSH1 0xD DUP6 PUSH1 0x40 MLOAD PUSH2 0x1667 SWAP2 SWAP1 PUSH2 0x2692 JUMP JUMPDEST SWAP1 DUP2 MSTORE PUSH1 0x20 ADD PUSH1 0x40 MLOAD DUP1 SWAP2 SUB SWAP1 KECCAK256 DUP5 PUSH1 0x40 MLOAD PUSH2 0x1683 SWAP2 SWAP1 PUSH2 0x2692 JUMP JUMPDEST SWAP1 DUP2 MSTORE PUSH1 0x40 MLOAD SWAP1 DUP2 SWAP1 SUB PUSH1 0x20 ADD SWAP1 KECCAK256 SLOAD PUSH1 0xFF AND ISZERO ISZERO PUSH1 0x1 EQ PUSH2 0x16F3 JUMPI PUSH1 0x40 MLOAD PUSH3 0x461BCD PUSH1 0xE5 SHL DUP2 MSTORE PUSH1 0x20 PUSH1 0x4 DUP3 ADD MSTORE PUSH1 0x23 PUSH1 0x24 DUP3 ADD MSTORE PUSH32 0x4548522D41432D30323A2041636365737320776173206E6F742070726F766964 PUSH1 0x44 DUP3 ADD MSTORE PUSH3 0x656421 PUSH1 0xE8 SHL PUSH1 0x64 DUP3 ADD MSTORE PUSH1 0x84 ADD PUSH2 0x3C7 JUMP JUMPDEST PUSH1 0x0 PUSH1 0xD DUP7 PUSH1 0x40 MLOAD PUSH2 0x1705 SWAP2 SWAP1 PUSH2 0x2692 JUMP JUMPDEST SWAP1 DUP2 MSTORE PUSH1 0x20 ADD PUSH1 0x40 MLOAD DUP1 SWAP2 SUB SWAP1 KECCAK256 DUP6 PUSH1 0x40 MLOAD PUSH2 0x1721 SWAP2 SWAP1 PUSH2 0x2692 JUMP JUMPDEST SWAP1 DUP2 MSTORE PUSH1 0x20 ADD PUSH1 0x40 MLOAD DUP1 SWAP2 SUB SWAP1 KECCAK256 PUSH1 0x0 PUSH2 0x100 EXP DUP2 SLOAD DUP2 PUSH1 0xFF MUL NOT AND SWAP1 DUP4 ISZERO ISZERO MUL OR SWAP1 SSTORE POP PUSH1 0x40 MLOAD DUP1 PUSH1 0x40 ADD PUSH1 0x40 MSTORE DUP1 PUSH1 0x1B DUP2 MSTORE PUSH1 0x20 ADD PUSH32 0x416363657373206973207265766F6B656420746F20646F63746F720000000000 DUP2 MSTORE POP SWAP1 POP JUMPDEST PUSH32 0x17B1D4F7E8D69D318C75F6F5306C643CE1A5B0A384AB6184D09FFEE93A15CA77 DUP2 DUP7 DUP7 TIMESTAMP PUSH1 0x40 MLOAD PUSH2 0x17B4 SWAP5 SWAP4 SWAP3 SWAP2 SWAP1 PUSH2 0x28B7 JUMP JUMPDEST PUSH1 0x40 MLOAD DUP1 SWAP2 SUB SWAP1 LOG1 POP POP POP POP POP JUMP JUMPDEST DUP2 MLOAD PUSH1 0x20 DUP2 DUP5 ADD DUP2 ADD DUP1 MLOAD PUSH1 0xC DUP3 MSTORE SWAP3 DUP3 ADD SWAP5 DUP3 ADD SWAP5 SWAP1 SWAP5 KECCAK256 SWAP2 SWAP1 SWAP4 MSTORE SWAP1 SWAP2 MSTORE PUSH1 0x0 SWAP1 DUP2 MSTORE PUSH1 0x40 SWAP1 KECCAK256 DUP1 SLOAD DUP2 SWAP1 PUSH2 0x17F9 SWAP1 PUSH2 0x2BFB JUMP JUMPDEST DUP1 PUSH1 0x1F ADD PUSH1 0x20 DUP1 SWAP2 DIV MUL PUSH1 0x20 ADD PUSH1 0x40 MLOAD SWAP1 DUP2 ADD PUSH1 0x40 MSTORE DUP1 SWAP3 SWAP2 SWAP1 DUP2 DUP2 MSTORE PUSH1 0x20 ADD DUP3 DUP1 SLOAD PUSH2 0x1825 SWAP1 PUSH2 0x2BFB JUMP JUMPDEST DUP1 ISZERO PUSH2 0x1872 JUMPI DUP1 PUSH1 0x1F LT PUSH2 0x1847 JUMPI PUSH2 0x100 DUP1 DUP4 SLOAD DIV MUL DUP4 MSTORE SWAP2 PUSH1 0x20 ADD SWAP2 PUSH2 0x1872 JUMP JUMPDEST DUP3 ADD SWAP2 SWAP1 PUSH1 0x0 MSTORE PUSH1 0x20 PUSH1 0x0 KECCAK256 SWAP1 JUMPDEST DUP2 SLOAD DUP2 MSTORE SWAP1 PUSH1 0x1 ADD SWAP1 PUSH1 0x20 ADD DUP1 DUP4 GT PUSH2 0x1855 JUMPI DUP3 SWAP1 SUB PUSH1 0x1F AND DUP3 ADD SWAP2 JUMPDEST POP POP POP POP POP SWAP1 DUP1 PUSH1 0x1 ADD DUP1 SLOAD PUSH2 0x1887 SWAP1 PUSH2 0x2BFB JUMP JUMPDEST DUP1 PUSH1 0x1F ADD PUSH1 0x20 DUP1 SWAP2 DIV MUL PUSH1 0x20 ADD PUSH1 0x40 MLOAD SWAP1 DUP2 ADD PUSH1 0x40 MSTORE DUP1 SWAP3 SWAP2 SWAP1 DUP2 DUP2 MSTORE PUSH1 0x20 ADD DUP3 DUP1 SLOAD PUSH2 0x18B3 SWAP1 PUSH2 0x2BFB JUMP JUMPDEST DUP1 ISZERO PUSH2 0x1900 JUMPI DUP1 PUSH1 0x1F LT PUSH2 0x18D5 JUMPI PUSH2 0x100 DUP1 DUP4 SLOAD DIV MUL DUP4 MSTORE SWAP2 PUSH1 0x20 ADD SWAP2 PUSH2 0x1900 JUMP JUMPDEST DUP3 ADD SWAP2 SWAP1 PUSH1 0x0 MSTORE PUSH1 0x20 PUSH1 0x0 KECCAK256 SWAP1 JUMPDEST DUP2 SLOAD DUP2 MSTORE SWAP1 PUSH1 0x1 ADD SWAP1 PUSH1 0x20 ADD DUP1 DUP4 GT PUSH2 0x18E3 JUMPI DUP3 SWAP1 SUB PUSH1 0x1F AND DUP3 ADD SWAP2 JUMPDEST POP POP POP POP POP SWAP1 DUP1 PUSH1 0x2 ADD DUP1 SLOAD PUSH2 0x1915 SWAP1 PUSH2 0x2BFB JUMP JUMPDEST DUP1 PUSH1 0x1F ADD PUSH1 0x20 DUP1 SWAP2 DIV MUL PUSH1 0x20 ADD PUSH1 0x40 MLOAD SWAP1 DUP2 ADD PUSH1 0x40 MSTORE DUP1 SWAP3 SWAP2 SWAP1 DUP2 DUP2 MSTORE PUSH1 0x20 ADD DUP3 DUP1 SLOAD PUSH2 0x1941 SWAP1 PUSH2 0x2BFB JUMP JUMPDEST DUP1 ISZERO PUSH2 0x198E JUMPI DUP1 PUSH1 0x1F LT PUSH2 0x1963 JUMPI PUSH2 0x100 DUP1 DUP4 SLOAD DIV MUL DUP4 MSTORE SWAP2 PUSH1 0x20 ADD SWAP2 PUSH2 0x198E JUMP JUMPDEST DUP3 ADD SWAP2 SWAP1 PUSH1 0x0 MSTORE PUSH1 0x20 PUSH1 0x0 KECCAK256 SWAP1 JUMPDEST DUP2 SLOAD DUP2 MSTORE SWAP1 PUSH1 0x1 ADD SWAP1 PUSH1 0x20 ADD DUP1 DUP4 GT PUSH2 0x1971 JUMPI DUP3 SWAP1 SUB PUSH1 0x1F AND DUP3 ADD SWAP2 JUMPDEST POP POP POP PUSH1 0x3 SWAP1 SWAP4 ADD SLOAD SWAP2 SWAP3 POP POP PUSH1 0xFF AND DUP5 JUMP JUMPDEST DUP3 PUSH1 0x7 DUP2 PUSH1 0x40 MLOAD PUSH2 0x19B2 SWAP2 SWAP1 PUSH2 0x2692 JUMP JUMPDEST SWAP1 DUP2 MSTORE PUSH1 0x40 MLOAD SWAP1 DUP2 SWAP1 SUB PUSH1 0x20 ADD SWAP1 KECCAK256 PUSH1 0x5 ADD SLOAD PUSH1 0xFF AND ISZERO ISZERO PUSH1 0x1 EQ PUSH2 0x19E9 JUMPI PUSH1 0x40 MLOAD PUSH3 0x461BCD PUSH1 0xE5 SHL DUP2 MSTORE PUSH1 0x4 ADD PUSH2 0x3C7 SWAP1 PUSH2 0x2B38 JUMP JUMPDEST DUP2 PUSH1 0xB DUP6 PUSH1 0x40 MLOAD PUSH2 0x19FA SWAP2 SWAP1 PUSH2 0x2692 JUMP JUMPDEST SWAP1 DUP2 MSTORE PUSH1 0x20 ADD PUSH1 0x40 MLOAD DUP1 SWAP2 SUB SWAP1 KECCAK256 PUSH1 0xF DUP6 DUP2 SLOAD DUP2 LT PUSH2 0x1A29 JUMPI PUSH4 0x4E487B71 PUSH1 0xE0 SHL PUSH1 0x0 MSTORE PUSH1 0x32 PUSH1 0x4 MSTORE PUSH1 0x24 PUSH1 0x0 REVERT JUMPDEST SWAP1 PUSH1 0x0 MSTORE PUSH1 0x20 PUSH1 0x0 KECCAK256 ADD PUSH1 0x40 MLOAD PUSH2 0x1A40 SWAP2 SWAP1 PUSH2 0x2623 JUMP JUMPDEST SWAP1 DUP2 MSTORE PUSH1 0x20 ADD PUSH1 0x40 MLOAD DUP1 SWAP2 SUB SWAP1 KECCAK256 DUP2 SWAP1 SSTORE POP PUSH32 0x17B1D4F7E8D69D318C75F6F5306C643CE1A5B0A384AB6184D09FFEE93A15CA77 DUP5 TIMESTAMP PUSH1 0x40 MLOAD PUSH2 0x1A83 SWAP3 SWAP2 SWAP1 PUSH2 0x2B68 JUMP JUMPDEST PUSH1 0x40 MLOAD DUP1 SWAP2 SUB SWAP1 LOG1 POP POP POP POP JUMP JUMPDEST DUP1 MLOAD PUSH1 0x20 DUP2 DUP4 ADD DUP2 ADD DUP1 MLOAD PUSH1 0x9 DUP3 MSTORE SWAP3 DUP3 ADD SWAP2 SWAP1 SWAP4 ADD KECCAK256 SWAP2 MSTORE DUP1 SLOAD DUP2 SWAP1 PUSH2 0x1AB7 SWAP1 PUSH2 0x2BFB JUMP JUMPDEST DUP1 PUSH1 0x1F ADD PUSH1 0x20 DUP1 SWAP2 DIV MUL PUSH1 0x20 ADD PUSH1 0x40 MLOAD SWAP1 DUP2 ADD PUSH1 0x40 MSTORE DUP1 SWAP3 SWAP2 SWAP1 DUP2 DUP2 MSTORE PUSH1 0x20 ADD DUP3 DUP1 SLOAD PUSH2 0x1AE3 SWAP1 PUSH2 0x2BFB JUMP JUMPDEST DUP1 ISZERO PUSH2 0x1B30 JUMPI DUP1 PUSH1 0x1F LT PUSH2 0x1B05 JUMPI PUSH2 0x100 DUP1 DUP4 SLOAD DIV MUL DUP4 MSTORE SWAP2 PUSH1 0x20 ADD SWAP2 PUSH2 0x1B30 JUMP JUMPDEST DUP3 ADD SWAP2 SWAP1 PUSH1 0x0 MSTORE PUSH1 0x20 PUSH1 0x0 KECCAK256 SWAP1 JUMPDEST DUP2 SLOAD DUP2 MSTORE SWAP1 PUSH1 0x1 ADD SWAP1 PUSH1 0x20 ADD DUP1 DUP4 GT PUSH2 0x1B13 JUMPI DUP3 SWAP1 SUB PUSH1 0x1F AND DUP3 ADD SWAP2 JUMPDEST POP POP POP POP POP SWAP1 DUP1 PUSH1 0x1 ADD DUP1 SLOAD PUSH2 0x1B45 SWAP1 PUSH2 0x2BFB JUMP JUMPDEST DUP1 PUSH1 0x1F ADD PUSH1 0x20 DUP1 SWAP2 DIV MUL PUSH1 0x20 ADD PUSH1 0x40 MLOAD SWAP1 DUP2 ADD PUSH1 0x40 MSTORE DUP1 SWAP3 SWAP2 SWAP1 DUP2 DUP2 MSTORE PUSH1 0x20 ADD DUP3 DUP1 SLOAD PUSH2 0x1B71 SWAP1 PUSH2 0x2BFB JUMP JUMPDEST DUP1 ISZERO PUSH2 0x1BBE JUMPI DUP1 PUSH1 0x1F LT PUSH2 0x1B93 JUMPI PUSH2 0x100 DUP1 DUP4 SLOAD DIV MUL DUP4 MSTORE SWAP2 PUSH1 0x20 ADD SWAP2 PUSH2 0x1BBE JUMP JUMPDEST DUP3 ADD SWAP2 SWAP1 PUSH1 0x0 MSTORE PUSH1 0x20 PUSH1 0x0 KECCAK256 SWAP1 JUMPDEST DUP2 SLOAD DUP2 MSTORE SWAP1 PUSH1 0x1 ADD SWAP1 PUSH1 0x20 ADD DUP1 DUP4 GT PUSH2 0x1BA1 JUMPI DUP3 SWAP1 SUB PUSH1 0x1F AND DUP3 ADD SWAP2 JUMPDEST POP POP POP POP POP SWAP1 DUP1 PUSH1 0x2 ADD DUP1 SLOAD PUSH2 0x1BD3 SWAP1 PUSH2 0x2BFB JUMP JUMPDEST DUP1 PUSH1 0x1F ADD PUSH1 0x20 DUP1 SWAP2 DIV MUL PUSH1 0x20 ADD PUSH1 0x40 MLOAD SWAP1 DUP2 ADD PUSH1 0x40 MSTORE DUP1 SWAP3 SWAP2 SWAP1 DUP2 DUP2 MSTORE PUSH1 0x20 ADD DUP3 DUP1 SLOAD PUSH2 0x1BFF SWAP1 PUSH2 0x2BFB JUMP JUMPDEST DUP1 ISZERO PUSH2 0x1C4C JUMPI DUP1 PUSH1 0x1F LT PUSH2 0x1C21 JUMPI PUSH2 0x100 DUP1 DUP4 SLOAD DIV MUL DUP4 MSTORE SWAP2 PUSH1 0x20 ADD SWAP2 PUSH2 0x1C4C JUMP JUMPDEST DUP3 ADD SWAP2 SWAP1 PUSH1 0x0 MSTORE PUSH1 0x20 PUSH1 0x0 KECCAK256 SWAP1 JUMPDEST DUP2 SLOAD DUP2 MSTORE SWAP1 PUSH1 0x1 ADD SWAP1 PUSH1 0x20 ADD DUP1 DUP4 GT PUSH2 0x1C2F JUMPI DUP3 SWAP1 SUB PUSH1 0x1F AND DUP3 ADD SWAP2 JUMPDEST POP POP POP POP POP SWAP1 DUP1 PUSH1 0x3 ADD DUP1 SLOAD PUSH2 0x1C61 SWAP1 PUSH2 0x2BFB JUMP JUMPDEST DUP1 PUSH1 0x1F ADD PUSH1 0x20 DUP1 SWAP2 DIV MUL PUSH1 0x20 ADD PUSH1 0x40 MLOAD SWAP1 DUP2 ADD PUSH1 0x40 MSTORE DUP1 SWAP3 SWAP2 SWAP1 DUP2 DUP2 MSTORE PUSH1 0x20 ADD DUP3 DUP1 SLOAD PUSH2 0x1C8D SWAP1 PUSH2 0x2BFB JUMP JUMPDEST DUP1 ISZERO PUSH2 0x1CDA JUMPI DUP1 PUSH1 0x1F LT PUSH2 0x1CAF JUMPI PUSH2 0x100 DUP1 DUP4 SLOAD DIV MUL DUP4 MSTORE SWAP2 PUSH1 0x20 ADD SWAP2 PUSH2 0x1CDA JUMP JUMPDEST DUP3 ADD SWAP2 SWAP1 PUSH1 0x0 MSTORE PUSH1 0x20 PUSH1 0x0 KECCAK256 SWAP1 JUMPDEST DUP2 SLOAD DUP2 MSTORE SWAP1 PUSH1 0x1 ADD SWAP1 PUSH1 0x20 ADD DUP1 DUP4 GT PUSH2 0x1CBD JUMPI DUP3 SWAP1 SUB PUSH1 0x1F AND DUP3 ADD SWAP2 JUMPDEST POP POP POP POP POP SWAP1 DUP1 PUSH1 0x4 ADD SLOAD SWAP1 POP DUP6 JUMP JUMPDEST PUSH1 0x60 DUP2 PUSH1 0x7 DUP2 PUSH1 0x40 MLOAD PUSH2 0x1CFD SWAP2 SWAP1 PUSH2 0x2692 JUMP JUMPDEST SWAP1 DUP2 MSTORE PUSH1 0x40 MLOAD SWAP1 DUP2 SWAP1 SUB PUSH1 0x20 ADD SWAP1 KECCAK256 PUSH1 0x5 ADD SLOAD PUSH1 0xFF AND ISZERO ISZERO PUSH1 0x1 EQ PUSH2 0x1D34 JUMPI PUSH1 0x40 MLOAD PUSH3 0x461BCD PUSH1 0xE5 SHL DUP2 MSTORE PUSH1 0x4 ADD PUSH2 0x3C7 SWAP1 PUSH2 0x2B38 JUMP JUMPDEST PUSH1 0x40 MLOAD DUP1 PUSH1 0xA0 ADD PUSH1 0x40 MSTORE DUP1 DUP10 DUP2 MSTORE PUSH1 0x20 ADD DUP9 DUP2 MSTORE PUSH1 0x20 ADD DUP8 DUP2 MSTORE PUSH1 0x20 ADD DUP7 DUP2 MSTORE PUSH1 0x20 ADD DUP6 DUP2 MSTORE POP PUSH1 0x9 DUP5 PUSH1 0x40 MLOAD PUSH2 0x1D6B SWAP2 SWAP1 PUSH2 0x2692 JUMP JUMPDEST SWAP1 DUP2 MSTORE PUSH1 0x20 ADD PUSH1 0x40 MLOAD DUP1 SWAP2 SUB SWAP1 KECCAK256 PUSH1 0x0 DUP3 ADD MLOAD DUP2 PUSH1 0x0 ADD SWAP1 DUP1 MLOAD SWAP1 PUSH1 0x20 ADD SWAP1 PUSH2 0x1D95 SWAP3 SWAP2 SWAP1 PUSH2 0x1F9A JUMP JUMPDEST POP PUSH1 0x20 DUP3 DUP2 ADD MLOAD DUP1 MLOAD PUSH2 0x1DAE SWAP3 PUSH1 0x1 DUP6 ADD SWAP3 ADD SWAP1 PUSH2 0x1F9A JUMP JUMPDEST POP PUSH1 0x40 DUP3 ADD MLOAD DUP1 MLOAD PUSH2 0x1DCA SWAP2 PUSH1 0x2 DUP5 ADD SWAP2 PUSH1 0x20 SWAP1 SWAP2 ADD SWAP1 PUSH2 0x1F9A JUMP JUMPDEST POP PUSH1 0x60 DUP3 ADD MLOAD DUP1 MLOAD PUSH2 0x1DE6 SWAP2 PUSH1 0x3 DUP5 ADD SWAP2 PUSH1 0x20 SWAP1 SWAP2 ADD SWAP1 PUSH2 0x1F9A JUMP JUMPDEST POP PUSH1 0x80 DUP3 ADD MLOAD DUP2 PUSH1 0x4 ADD SSTORE SWAP1 POP POP PUSH1 0x0 DUP1 MLOAD PUSH1 0x20 PUSH2 0x2C73 DUP4 CODECOPY DUP2 MLOAD SWAP2 MSTORE DUP4 TIMESTAMP PUSH1 0x40 MLOAD PUSH2 0x1E13 SWAP3 SWAP2 SWAP1 PUSH2 0x2971 JUMP JUMPDEST PUSH1 0x40 MLOAD DUP1 SWAP2 SUB SWAP1 LOG1 POP SWAP7 SWAP6 POP POP POP POP POP POP JUMP JUMPDEST DUP4 PUSH1 0x7 DUP2 PUSH1 0x40 MLOAD PUSH2 0x1E37 SWAP2 SWAP1 PUSH2 0x2692 JUMP JUMPDEST SWAP1 DUP2 MSTORE PUSH1 0x40 MLOAD SWAP1 DUP2 SWAP1 SUB PUSH1 0x20 ADD SWAP1 KECCAK256 PUSH1 0x5 ADD SLOAD PUSH1 0xFF AND ISZERO ISZERO PUSH1 0x1 EQ PUSH2 0x1E6E JUMPI PUSH1 0x40 MLOAD PUSH3 0x461BCD PUSH1 0xE5 SHL DUP2 MSTORE PUSH1 0x4 ADD PUSH2 0x3C7 SWAP1 PUSH2 0x2B38 JUMP JUMPDEST PUSH1 0xD DUP6 PUSH1 0x40 MLOAD PUSH2 0x1E7E SWAP2 SWAP1 PUSH2 0x2692 JUMP JUMPDEST SWAP1 DUP2 MSTORE PUSH1 0x20 ADD PUSH1 0x40 MLOAD DUP1 SWAP2 SUB SWAP1 KECCAK256 DUP5 PUSH1 0x40 MLOAD PUSH2 0x1E9A SWAP2 SWAP1 PUSH2 0x2692 JUMP JUMPDEST SWAP1 DUP2 MSTORE PUSH1 0x40 MLOAD SWAP1 DUP2 SWAP1 SUB PUSH1 0x20 ADD SWAP1 KECCAK256 SLOAD PUSH1 0xFF AND ISZERO ISZERO PUSH1 0x1 EQ PUSH2 0x1EFE JUMPI PUSH1 0x40 MLOAD PUSH3 0x461BCD PUSH1 0xE5 SHL DUP2 MSTORE PUSH1 0x20 PUSH1 0x4 DUP3 ADD MSTORE PUSH1 0x1D PUSH1 0x24 DUP3 ADD MSTORE PUSH32 0x4E6F206163636573732070726F76696465642062792070617469656E74000000 PUSH1 0x44 DUP3 ADD MSTORE PUSH1 0x64 ADD PUSH2 0x3C7 JUMP JUMPDEST DUP2 PUSH1 0xB DUP7 PUSH1 0x40 MLOAD PUSH2 0x1F0F SWAP2 SWAP1 PUSH2 0x2692 JUMP JUMPDEST SWAP1 DUP2 MSTORE PUSH1 0x20 ADD PUSH1 0x40 MLOAD DUP1 SWAP2 SUB SWAP1 KECCAK256 PUSH1 0xF DUP6 DUP2 SLOAD DUP2 LT PUSH2 0x1F3E JUMPI PUSH4 0x4E487B71 PUSH1 0xE0 SHL PUSH1 0x0 MSTORE PUSH1 0x32 PUSH1 0x4 MSTORE PUSH1 0x24 PUSH1 0x0 REVERT JUMPDEST SWAP1 PUSH1 0x0 MSTORE PUSH1 0x20 PUSH1 0x0 KECCAK256 ADD PUSH1 0x40 MLOAD PUSH2 0x1F55 SWAP2 SWAP1 PUSH2 0x2623 JUMP JUMPDEST SWAP1 DUP2 MSTORE PUSH1 0x20 ADD PUSH1 0x40 MLOAD DUP1 SWAP2 SUB SWAP1 KECCAK256 DUP2 SWAP1 SSTORE POP PUSH32 0x17B1D4F7E8D69D318C75F6F5306C643CE1A5B0A384AB6184D09FFEE93A15CA77 DUP6 DUP6 TIMESTAMP PUSH1 0x40 MLOAD PUSH2 0x17B4 SWAP4 SWAP3 SWAP2 SWAP1 PUSH2 0x2AD5 JUMP JUMPDEST DUP3 DUP1 SLOAD PUSH2 0x1FA6 SWAP1 PUSH2 0x2BFB JUMP JUMPDEST SWAP1 PUSH1 0x0 MSTORE PUSH1 0x20 PUSH1 0x0 KECCAK256 SWAP1 PUSH1 0x1F ADD PUSH1 0x20 SWAP1 DIV DUP2 ADD SWAP3 DUP3 PUSH2 0x1FC8 JUMPI PUSH1 0x0 DUP6 SSTORE PUSH2 0x200E JUMP JUMPDEST DUP3 PUSH1 0x1F LT PUSH2 0x1FE1 JUMPI DUP1 MLOAD PUSH1 0xFF NOT AND DUP4 DUP1 ADD OR DUP6 SSTORE PUSH2 0x200E JUMP JUMPDEST DUP3 DUP1 ADD PUSH1 0x1 ADD DUP6 SSTORE DUP3 ISZERO PUSH2 0x200E JUMPI SWAP2 DUP3 ADD JUMPDEST DUP3 DUP2 GT ISZERO PUSH2 0x200E JUMPI DUP3 MLOAD DUP3 SSTORE SWAP2 PUSH1 0x20 ADD SWAP2 SWAP1 PUSH1 0x1 ADD SWAP1 PUSH2 0x1FF3 JUMP JUMPDEST POP PUSH2 0x201A SWAP3 SWAP2 POP PUSH2 0x201E JUMP JUMPDEST POP SWAP1 JUMP JUMPDEST JUMPDEST DUP1 DUP3 GT ISZERO PUSH2 0x201A JUMPI PUSH1 0x0 DUP2 SSTORE PUSH1 0x1 ADD PUSH2 0x201F JUMP JUMPDEST DUP1 CALLDATALOAD PUSH2 0x203E DUP2 PUSH2 0x2C62 JUMP JUMPDEST SWAP2 SWAP1 POP JUMP JUMPDEST PUSH1 0x0 DUP3 PUSH1 0x1F DUP4 ADD SLT PUSH2 0x2053 JUMPI DUP1 DUP2 REVERT JUMPDEST DUP2 CALLDATALOAD PUSH8 0xFFFFFFFFFFFFFFFF DUP1 DUP3 GT ISZERO PUSH2 0x206E JUMPI PUSH2 0x206E PUSH2 0x2C4C JUMP JUMPDEST PUSH1 0x40 MLOAD PUSH1 0x1F DUP4 ADD PUSH1 0x1F NOT SWAP1 DUP2 AND PUSH1 0x3F ADD AND DUP2 ADD SWAP1 DUP3 DUP3 GT DUP2 DUP4 LT OR ISZERO PUSH2 0x2096 JUMPI PUSH2 0x2096 PUSH2 0x2C4C JUMP JUMPDEST DUP2 PUSH1 0x40 MSTORE DUP4 DUP2 MSTORE DUP7 PUSH1 0x20 DUP6 DUP9 ADD ADD GT ISZERO PUSH2 0x20AE JUMPI DUP5 DUP6 REVERT JUMPDEST DUP4 PUSH1 0x20 DUP8 ADD PUSH1 0x20 DUP4 ADD CALLDATACOPY SWAP3 DUP4 ADD PUSH1 0x20 ADD SWAP4 SWAP1 SWAP4 MSTORE POP SWAP4 SWAP3 POP POP POP JUMP JUMPDEST PUSH1 0x0 PUSH1 0x20 DUP3 DUP5 SUB SLT ISZERO PUSH2 0x20DB JUMPI DUP1 DUP2 REVERT JUMPDEST DUP2 CALLDATALOAD PUSH8 0xFFFFFFFFFFFFFFFF DUP2 GT ISZERO PUSH2 0x20F1 JUMPI DUP2 DUP3 REVERT JUMPDEST PUSH2 0x20FD DUP5 DUP3 DUP6 ADD PUSH2 0x2043 JUMP JUMPDEST SWAP5 SWAP4 POP POP POP POP JUMP JUMPDEST PUSH1 0x0 DUP1 PUSH1 0x40 DUP4 DUP6 SUB SLT ISZERO PUSH2 0x2117 JUMPI DUP1 DUP2 REVERT JUMPDEST DUP3 CALLDATALOAD PUSH8 0xFFFFFFFFFFFFFFFF DUP1 DUP3 GT ISZERO PUSH2 0x212E JUMPI DUP3 DUP4 REVERT JUMPDEST PUSH2 0x213A DUP7 DUP4 DUP8 ADD PUSH2 0x2043 JUMP JUMPDEST SWAP4 POP PUSH1 0x20 DUP6 ADD CALLDATALOAD SWAP2 POP DUP1 DUP3 GT ISZERO PUSH2 0x214F JUMPI DUP3 DUP4 REVERT JUMPDEST POP PUSH2 0x215C DUP6 DUP3 DUP7 ADD PUSH2 0x2043 JUMP JUMPDEST SWAP2 POP POP SWAP3 POP SWAP3 SWAP1 POP JUMP JUMPDEST PUSH1 0x0 DUP1 PUSH1 0x0 PUSH1 0x60 DUP5 DUP7 SUB SLT ISZERO PUSH2 0x217A JUMPI DUP1 DUP2 REVERT JUMPDEST DUP4 CALLDATALOAD PUSH8 0xFFFFFFFFFFFFFFFF DUP1 DUP3 GT ISZERO PUSH2 0x2191 JUMPI DUP3 DUP4 REVERT JUMPDEST PUSH2 0x219D DUP8 DUP4 DUP9 ADD PUSH2 0x2043 JUMP JUMPDEST SWAP5 POP PUSH1 0x20 DUP7 ADD CALLDATALOAD SWAP2 POP DUP1 DUP3 GT ISZERO PUSH2 0x21B2 JUMPI DUP3 DUP4 REVERT JUMPDEST POP PUSH2 0x21BF DUP7 DUP3 DUP8 ADD PUSH2 0x2043 JUMP JUMPDEST SWAP3 POP POP PUSH1 0x40 DUP5 ADD CALLDATALOAD PUSH2 0x21D0 DUP2 PUSH2 0x2C62 JUMP JUMPDEST DUP1 SWAP2 POP POP SWAP3 POP SWAP3 POP SWAP3 JUMP JUMPDEST PUSH1 0x0 DUP1 PUSH1 0x0 DUP1 PUSH1 0x0 DUP1 PUSH1 0x0 PUSH1 0xE0 DUP9 DUP11 SUB SLT ISZERO PUSH2 0x21F5 JUMPI DUP3 DUP4 REVERT JUMPDEST DUP8 CALLDATALOAD PUSH8 0xFFFFFFFFFFFFFFFF DUP1 DUP3 GT ISZERO PUSH2 0x220C JUMPI DUP5 DUP6 REVERT JUMPDEST PUSH2 0x2218 DUP12 DUP4 DUP13 ADD PUSH2 0x2043 JUMP JUMPDEST SWAP9 POP PUSH1 0x20 DUP11 ADD CALLDATALOAD SWAP2 POP DUP1 DUP3 GT ISZERO PUSH2 0x222D JUMPI DUP5 DUP6 REVERT JUMPDEST PUSH2 0x2239 DUP12 DUP4 DUP13 ADD PUSH2 0x2043 JUMP JUMPDEST SWAP8 POP PUSH1 0x40 DUP11 ADD CALLDATALOAD SWAP2 POP DUP1 DUP3 GT ISZERO PUSH2 0x224E JUMPI DUP5 DUP6 REVERT JUMPDEST PUSH2 0x225A DUP12 DUP4 DUP13 ADD PUSH2 0x2043 JUMP JUMPDEST SWAP7 POP PUSH1 0x60 DUP11 ADD CALLDATALOAD SWAP2 POP DUP1 DUP3 GT ISZERO PUSH2 0x226F JUMPI DUP5 DUP6 REVERT JUMPDEST PUSH2 0x227B DUP12 DUP4 DUP13 ADD PUSH2 0x2043 JUMP JUMPDEST SWAP6 POP PUSH1 0x80 DUP11 ADD CALLDATALOAD SWAP2 POP DUP1 DUP3 GT ISZERO PUSH2 0x2290 JUMPI DUP5 DUP6 REVERT JUMPDEST PUSH2 0x229C DUP12 DUP4 DUP13 ADD PUSH2 0x2043 JUMP JUMPDEST SWAP5 POP PUSH1 0xA0 DUP11 ADD CALLDATALOAD SWAP2 POP DUP1 DUP3 GT ISZERO PUSH2 0x22B1 JUMPI DUP4 DUP5 REVERT JUMPDEST POP PUSH2 0x22BE DUP11 DUP3 DUP12 ADD PUSH2 0x2043 JUMP JUMPDEST SWAP3 POP POP PUSH2 0x22CD PUSH1 0xC0 DUP10 ADD PUSH2 0x2033 JUMP JUMPDEST SWAP1 POP SWAP3 SWAP6 SWAP9 SWAP2 SWAP5 SWAP8 POP SWAP3 SWAP6 POP JUMP JUMPDEST PUSH1 0x0 DUP1 PUSH1 0x0 DUP1 PUSH1 0x0 DUP1 PUSH1 0xC0 DUP8 DUP10 SUB SLT ISZERO PUSH2 0x22F3 JUMPI DUP2 DUP3 REVERT JUMPDEST DUP7 CALLDATALOAD PUSH8 0xFFFFFFFFFFFFFFFF DUP1 DUP3 GT ISZERO PUSH2 0x230A JUMPI DUP4 DUP5 REVERT JUMPDEST PUSH2 0x2316 DUP11 DUP4 DUP12 ADD PUSH2 0x2043 JUMP JUMPDEST SWAP8 POP PUSH1 0x20 DUP10 ADD CALLDATALOAD SWAP2 POP DUP1 DUP3 GT ISZERO PUSH2 0x232B JUMPI DUP4 DUP5 REVERT JUMPDEST PUSH2 0x2337 DUP11 DUP4 DUP12 ADD PUSH2 0x2043 JUMP JUMPDEST SWAP7 POP PUSH1 0x40 DUP10 ADD CALLDATALOAD SWAP2 POP DUP1 DUP3 GT ISZERO PUSH2 0x234C JUMPI DUP4 DUP5 REVERT JUMPDEST PUSH2 0x2358 DUP11 DUP4 DUP12 ADD PUSH2 0x2043 JUMP JUMPDEST SWAP6 POP PUSH1 0x60 DUP10 ADD CALLDATALOAD SWAP2 POP DUP1 DUP3 GT ISZERO PUSH2 0x236D JUMPI DUP4 DUP5 REVERT JUMPDEST PUSH2 0x2379 DUP11 DUP4 DUP12 ADD PUSH2 0x2043 JUMP JUMPDEST SWAP5 POP PUSH1 0x80 DUP10 ADD CALLDATALOAD SWAP4 POP PUSH1 0xA0 DUP10 ADD CALLDATALOAD SWAP2 POP DUP1 DUP3 GT ISZERO PUSH2 0x2395 JUMPI DUP3 DUP4 REVERT JUMPDEST POP PUSH2 0x23A2 DUP10 DUP3 DUP11 ADD PUSH2 0x2043 JUMP JUMPDEST SWAP2 POP POP SWAP3 SWAP6 POP SWAP3 SWAP6 POP SWAP3 SWAP6 JUMP JUMPDEST PUSH1 0x0 DUP1 PUSH1 0x0 DUP1 PUSH1 0x80 DUP6 DUP8 SUB SLT ISZERO PUSH2 0x23C4 JUMPI DUP4 DUP5 REVERT JUMPDEST DUP5 CALLDATALOAD PUSH8 0xFFFFFFFFFFFFFFFF DUP1 DUP3 GT ISZERO PUSH2 0x23DB JUMPI DUP6 DUP7 REVERT JUMPDEST PUSH2 0x23E7 DUP9 DUP4 DUP10 ADD PUSH2 0x2043 JUMP JUMPDEST SWAP6 POP PUSH1 0x20 DUP8 ADD CALLDATALOAD SWAP2 POP DUP1 DUP3 GT ISZERO PUSH2 0x23FC JUMPI DUP5 DUP6 REVERT JUMPDEST POP PUSH2 0x2409 DUP8 DUP3 DUP9 ADD PUSH2 0x2043 JUMP JUMPDEST SWAP5 SWAP8 SWAP5 SWAP7 POP POP POP POP PUSH1 0x40 DUP4 ADD CALLDATALOAD SWAP3 PUSH1 0x60 ADD CALLDATALOAD SWAP2 SWAP1 POP JUMP JUMPDEST PUSH1 0x0 DUP1 PUSH1 0x0 DUP1 PUSH1 0x0 PUSH1 0xA0 DUP7 DUP9 SUB SLT ISZERO PUSH2 0x2437 JUMPI DUP1 DUP2 REVERT JUMPDEST DUP6 CALLDATALOAD PUSH8 0xFFFFFFFFFFFFFFFF DUP1 DUP3 GT ISZERO PUSH2 0x244E JUMPI DUP3 DUP4 REVERT JUMPDEST PUSH2 0x245A DUP10 DUP4 DUP11 ADD PUSH2 0x2043 JUMP JUMPDEST SWAP7 POP PUSH1 0x20 DUP9 ADD CALLDATALOAD SWAP2 POP DUP1 DUP3 GT ISZERO PUSH2 0x246F JUMPI DUP3 DUP4 REVERT JUMPDEST PUSH2 0x247B DUP10 DUP4 DUP11 ADD PUSH2 0x2043 JUMP JUMPDEST SWAP6 POP PUSH1 0x40 DUP9 ADD CALLDATALOAD SWAP5 POP PUSH1 0x60 DUP9 ADD CALLDATALOAD SWAP4 POP PUSH1 0x80 DUP9 ADD CALLDATALOAD SWAP2 POP DUP1 DUP3 GT ISZERO PUSH2 0x249E JUMPI DUP3 DUP4 REVERT JUMPDEST POP PUSH2 0x24AB DUP9 DUP3 DUP10 ADD PUSH2 0x2043 JUMP JUMPDEST SWAP2 POP POP SWAP3 SWAP6 POP SWAP3 SWAP6 SWAP1 SWAP4 POP JUMP JUMPDEST PUSH1 0x0 DUP1 PUSH1 0x40 DUP4 DUP6 SUB SLT ISZERO PUSH2 0x24CA JUMPI DUP2 DUP3 REVERT JUMPDEST DUP3 CALLDATALOAD PUSH8 0xFFFFFFFFFFFFFFFF DUP2 GT ISZERO PUSH2 0x24E0 JUMPI DUP3 DUP4 REVERT JUMPDEST PUSH2 0x24EC DUP6 DUP3 DUP7 ADD PUSH2 0x2043 JUMP JUMPDEST SWAP6 PUSH1 0x20 SWAP5 SWAP1 SWAP5 ADD CALLDATALOAD SWAP5 POP POP POP POP JUMP JUMPDEST PUSH1 0x0 DUP1 PUSH1 0x0 DUP1 PUSH1 0x0 PUSH1 0xA0 DUP7 DUP9 SUB SLT ISZERO PUSH2 0x2512 JUMPI DUP1 DUP2 REVERT JUMPDEST DUP6 CALLDATALOAD PUSH8 0xFFFFFFFFFFFFFFFF DUP1 DUP3 GT ISZERO PUSH2 0x2529 JUMPI DUP3 DUP4 REVERT JUMPDEST PUSH2 0x2535 DUP10 DUP4 DUP11 ADD PUSH2 0x2043 JUMP JUMPDEST SWAP7 POP PUSH1 0x20 DUP9 ADD CALLDATALOAD SWAP6 POP PUSH1 0x40 DUP9 ADD CALLDATALOAD SWAP2 POP DUP1 DUP3 GT ISZERO PUSH2 0x2551 JUMPI DUP3 DUP4 REVERT JUMPDEST PUSH2 0x255D DUP10 DUP4 DUP11 ADD PUSH2 0x2043 JUMP JUMPDEST SWAP5 POP PUSH1 0x60 DUP9 ADD CALLDATALOAD SWAP2 POP DUP1 DUP3 GT ISZERO PUSH2 0x2572 JUMPI DUP3 DUP4 REVERT JUMPDEST PUSH2 0x257E DUP10 DUP4 DUP11 ADD PUSH2 0x2043 JUMP JUMPDEST SWAP4 POP PUSH1 0x80 DUP9 ADD CALLDATALOAD SWAP2 POP DUP1 DUP3 GT ISZERO PUSH2 0x249E JUMPI DUP3 DUP4 REVERT JUMPDEST PUSH1 0x0 DUP1 PUSH1 0x0 PUSH1 0x60 DUP5 DUP7 SUB SLT ISZERO PUSH2 0x25A7 JUMPI DUP3 DUP4 REVERT JUMPDEST DUP4 CALLDATALOAD PUSH8 0xFFFFFFFFFFFFFFFF DUP2 GT ISZERO PUSH2 0x25BD JUMPI DUP4 DUP5 REVERT JUMPDEST PUSH2 0x25C9 DUP7 DUP3 DUP8 ADD PUSH2 0x2043 JUMP JUMPDEST SWAP7 PUSH1 0x20 DUP7 ADD CALLDATALOAD SWAP7 POP PUSH1 0x40 SWAP1 SWAP6 ADD CALLDATALOAD SWAP5 SWAP4 POP POP POP POP JUMP JUMPDEST PUSH1 0x0 PUSH1 0x20 DUP3 DUP5 SUB SLT ISZERO PUSH2 0x25F0 JUMPI DUP1 DUP2 REVERT JUMPDEST POP CALLDATALOAD SWAP2 SWAP1 POP JUMP JUMPDEST PUSH1 0x0 DUP2 MLOAD DUP1 DUP5 MSTORE PUSH2 0x260F DUP2 PUSH1 0x20 DUP7 ADD PUSH1 0x20 DUP7 ADD PUSH2 0x2BCB JUMP JUMPDEST PUSH1 0x1F ADD PUSH1 0x1F NOT AND SWAP3 SWAP1 SWAP3 ADD PUSH1 0x20 ADD SWAP3 SWAP2 POP POP JUMP JUMPDEST PUSH1 0x0 DUP1 DUP4 SLOAD PUSH2 0x2631 DUP2 PUSH2 0x2BFB JUMP JUMPDEST PUSH1 0x1 DUP3 DUP2 AND DUP1 ISZERO PUSH2 0x2649 JUMPI PUSH1 0x1 DUP2 EQ PUSH2 0x265A JUMPI PUSH2 0x2686 JUMP JUMPDEST PUSH1 0xFF NOT DUP5 AND DUP8 MSTORE DUP3 DUP8 ADD SWAP5 POP PUSH2 0x2686 JUMP JUMPDEST DUP8 DUP7 MSTORE PUSH1 0x20 DUP1 DUP8 KECCAK256 DUP8 JUMPDEST DUP6 DUP2 LT ISZERO PUSH2 0x267D JUMPI DUP2 SLOAD DUP11 DUP3 ADD MSTORE SWAP1 DUP5 ADD SWAP1 DUP3 ADD PUSH2 0x2664 JUMP JUMPDEST POP POP POP DUP3 DUP8 ADD SWAP5 POP JUMPDEST POP SWAP3 SWAP7 SWAP6 POP POP POP POP POP POP JUMP JUMPDEST PUSH1 0x0 DUP3 MLOAD PUSH2 0x26A4 DUP2 DUP5 PUSH1 0x20 DUP8 ADD PUSH2 0x2BCB JUMP JUMPDEST SWAP2 SWAP1 SWAP2 ADD SWAP3 SWAP2 POP POP JUMP JUMPDEST PUSH11 0x504C492D4548522D444F2D PUSH1 0xA8 SHL DUP2 MSTORE PUSH1 0x0 DUP4 MLOAD PUSH2 0x26D4 DUP2 PUSH1 0xB DUP6 ADD PUSH1 0x20 DUP9 ADD PUSH2 0x2BCB JUMP JUMPDEST PUSH1 0x2D PUSH1 0xF8 SHL PUSH1 0xB SWAP2 DUP5 ADD SWAP2 DUP3 ADD MSTORE DUP4 MLOAD PUSH2 0x26F5 DUP2 PUSH1 0xC DUP5 ADD PUSH1 0x20 DUP9 ADD PUSH2 0x2BCB JUMP JUMPDEST ADD PUSH1 0xC ADD SWAP5 SWAP4 POP POP POP POP JUMP JUMPDEST PUSH11 0x504C492D4548522D50412D PUSH1 0xA8 SHL DUP2 MSTORE PUSH1 0x0 DUP4 MLOAD PUSH2 0x26D4 DUP2 PUSH1 0xB DUP6 ADD PUSH1 0x20 DUP9 ADD PUSH2 0x2BCB JUMP JUMPDEST PUSH1 0x20 DUP2 MSTORE PUSH1 0x0 PUSH2 0x273A PUSH1 0x20 DUP4 ADD DUP5 PUSH2 0x25F7 JUMP JUMPDEST SWAP4 SWAP3 POP POP POP JUMP JUMPDEST PUSH1 0x80 DUP2 MSTORE PUSH1 0x0 PUSH2 0x2754 PUSH1 0x80 DUP4 ADD DUP8 PUSH2 0x25F7 JUMP JUMPDEST SWAP1 POP PUSH1 0x5 DUP6 LT PUSH2 0x2766 JUMPI PUSH2 0x2766 PUSH2 0x2C36 JUMP JUMPDEST DUP5 PUSH1 0x20 DUP4 ADD MSTORE PUSH1 0x3 DUP5 LT PUSH2 0x277C JUMPI PUSH2 0x277C PUSH2 0x2C36 JUMP JUMPDEST DUP4 PUSH1 0x40 DUP4 ADD MSTORE DUP3 ISZERO ISZERO PUSH1 0x60 DUP4 ADD MSTORE SWAP6 SWAP5 POP POP POP POP POP JUMP JUMPDEST PUSH1 0x80 DUP2 MSTORE PUSH1 0x0 PUSH2 0x27A6 PUSH1 0x80 DUP4 ADD DUP8 PUSH2 0x25F7 JUMP JUMPDEST DUP3 DUP2 SUB PUSH1 0x20 DUP5 ADD MSTORE PUSH2 0x27B8 DUP2 DUP8 PUSH2 0x25F7 JUMP JUMPDEST SWAP1 POP DUP3 DUP2 SUB PUSH1 0x40 DUP5 ADD MSTORE PUSH2 0x27CC DUP2 DUP7 PUSH2 0x25F7 JUMP JUMPDEST SWAP2 POP POP DUP3 ISZERO ISZERO PUSH1 0x60 DUP4 ADD MSTORE SWAP6 SWAP5 POP POP POP POP POP JUMP JUMPDEST PUSH1 0xC0 DUP2 MSTORE PUSH1 0x0 PUSH2 0x27F3 PUSH1 0xC0 DUP4 ADD DUP10 PUSH2 0x25F7 JUMP JUMPDEST DUP3 DUP2 SUB PUSH1 0x20 DUP5 ADD MSTORE PUSH2 0x2805 DUP2 DUP10 PUSH2 0x25F7 JUMP JUMPDEST SWAP1 POP DUP3 DUP2 SUB PUSH1 0x40 DUP5 ADD MSTORE PUSH2 0x2819 DUP2 DUP9 PUSH2 0x25F7 JUMP JUMPDEST SWAP1 POP DUP3 DUP2 SUB PUSH1 0x60 DUP5 ADD MSTORE PUSH2 0x282D DUP2 DUP8 PUSH2 0x25F7 JUMP JUMPDEST SWAP1 POP DUP3 DUP2 SUB PUSH1 0x80 DUP5 ADD MSTORE PUSH2 0x2841 DUP2 DUP7 PUSH2 0x25F7 JUMP JUMPDEST SWAP2 POP POP DUP3 ISZERO ISZERO PUSH1 0xA0 DUP4 ADD MSTORE SWAP8 SWAP7 POP POP POP POP POP POP POP JUMP JUMPDEST PUSH1 0xA0 DUP2 MSTORE PUSH1 0x0 PUSH2 0x286A PUSH1 0xA0 DUP4 ADD DUP9 PUSH2 0x25F7 JUMP JUMPDEST DUP3 DUP2 SUB PUSH1 0x20 DUP5 ADD MSTORE PUSH2 0x287C DUP2 DUP9 PUSH2 0x25F7 JUMP JUMPDEST SWAP1 POP DUP3 DUP2 SUB PUSH1 0x40 DUP5 ADD MSTORE PUSH2 0x2890 DUP2 DUP8 PUSH2 0x25F7 JUMP JUMPDEST SWAP1 POP DUP3 DUP2 SUB PUSH1 0x60 DUP5 ADD MSTORE PUSH2 0x28A4 DUP2 DUP7 PUSH2 0x25F7 JUMP JUMPDEST SWAP2 POP POP DUP3 PUSH1 0x80 DUP4 ADD MSTORE SWAP7 SWAP6 POP POP POP POP POP POP JUMP JUMPDEST PUSH1 0x80 DUP2 MSTORE PUSH1 0x0 PUSH2 0x28CA PUSH1 0x80 DUP4 ADD DUP8 PUSH2 0x25F7 JUMP JUMPDEST DUP3 DUP2 SUB PUSH1 0x20 DUP5 ADD MSTORE PUSH2 0x28DC DUP2 DUP8 PUSH2 0x25F7 JUMP JUMPDEST SWAP1 POP DUP3 DUP2 SUB PUSH1 0x40 DUP5 ADD MSTORE PUSH2 0x28F0 DUP2 DUP7 PUSH2 0x25F7 JUMP JUMPDEST SWAP2 POP POP DUP3 PUSH1 0x60 DUP4 ADD MSTORE SWAP6 SWAP5 POP POP POP POP POP JUMP JUMPDEST PUSH1 0x60 DUP2 MSTORE PUSH1 0x0 PUSH2 0x2915 PUSH1 0x60 DUP4 ADD DUP7 PUSH2 0x25F7 JUMP JUMPDEST DUP3 DUP2 SUB PUSH1 0x20 DUP5 ADD MSTORE PUSH2 0x2927 DUP2 DUP7 PUSH2 0x25F7 JUMP JUMPDEST SWAP2 POP POP DUP3 PUSH1 0x40 DUP4 ADD MSTORE SWAP5 SWAP4 POP POP POP POP JUMP JUMPDEST PUSH1 0x80 DUP2 MSTORE PUSH1 0x0 PUSH2 0x294B PUSH1 0x80 DUP4 ADD DUP8 PUSH2 0x25F7 JUMP JUMPDEST DUP3 DUP2 SUB PUSH1 0x20 DUP5 ADD MSTORE PUSH2 0x295D DUP2 DUP8 PUSH2 0x25F7 JUMP JUMPDEST PUSH1 0x40 DUP5 ADD SWAP6 SWAP1 SWAP6 MSTORE POP POP PUSH1 0x60 ADD MSTORE SWAP3 SWAP2 POP POP JUMP JUMPDEST PUSH1 0x60 DUP2 MSTORE PUSH1 0x0 PUSH2 0x2984 PUSH1 0x60 DUP4 ADD DUP6 PUSH2 0x25F7 JUMP JUMPDEST DUP3 DUP2 SUB PUSH1 0x20 DUP5 ADD MSTORE PUSH1 0x1D DUP2 MSTORE PUSH32 0x50617469656E74204C6F636174696F6E20446174612075706461746564000000 PUSH1 0x20 DUP3 ADD MSTORE PUSH1 0x40 DUP2 ADD SWAP2 POP POP DUP3 PUSH1 0x40 DUP4 ADD MSTORE SWAP4 SWAP3 POP POP POP JUMP JUMPDEST PUSH1 0x60 DUP2 MSTORE PUSH1 0x0 PUSH2 0x29DD PUSH1 0x60 DUP4 ADD DUP6 PUSH2 0x25F7 JUMP JUMPDEST DUP3 DUP2 SUB PUSH1 0x20 DUP5 ADD MSTORE PUSH1 0x19 DUP2 MSTORE PUSH32 0x4361726567697665722044617461207265676973746572656400000000000000 PUSH1 0x20 DUP3 ADD MSTORE PUSH1 0x40 DUP2 ADD SWAP2 POP POP DUP3 PUSH1 0x40 DUP4 ADD MSTORE SWAP4 SWAP3 POP POP POP JUMP JUMPDEST PUSH1 0x60 DUP2 MSTORE PUSH1 0x0 PUSH2 0x2A36 PUSH1 0x60 DUP4 ADD DUP6 PUSH2 0x25F7 JUMP JUMPDEST DUP3 DUP2 SUB PUSH1 0x20 DUP5 ADD MSTORE PUSH1 0x1B DUP2 MSTORE PUSH32 0x50617469656E74204865616C7468204461746120757064617465640000000000 PUSH1 0x20 DUP3 ADD MSTORE PUSH1 0x40 DUP2 ADD SWAP2 POP POP DUP3 PUSH1 0x40 DUP4 ADD MSTORE SWAP4 SWAP3 POP POP POP JUMP JUMPDEST PUSH1 0x60 DUP2 MSTORE PUSH1 0x0 PUSH2 0x2A8F PUSH1 0x60 DUP4 ADD DUP6 PUSH2 0x25F7 JUMP JUMPDEST DUP3 DUP2 SUB PUSH1 0x20 DUP5 ADD MSTORE PUSH1 0x17 DUP2 MSTORE PUSH32 0x4361726567697665722044617461206D6F646966696564000000000000000000 PUSH1 0x20 DUP3 ADD MSTORE PUSH1 0x40 DUP2 ADD SWAP2 POP POP DUP3 PUSH1 0x40 DUP4 ADD MSTORE SWAP4 SWAP3 POP POP POP JUMP JUMPDEST PUSH1 0x80 DUP2 MSTORE PUSH1 0x16 PUSH1 0x80 DUP3 ADD MSTORE PUSH22 0x2932B1B7B9321030B23232B210313C902237B1BA37B9 PUSH1 0x51 SHL PUSH1 0xA0 DUP3 ADD MSTORE PUSH1 0xC0 PUSH1 0x20 DUP3 ADD MSTORE PUSH1 0x0 PUSH2 0x2B15 PUSH1 0xC0 DUP4 ADD DUP7 PUSH2 0x25F7 JUMP JUMPDEST DUP3 DUP2 SUB PUSH1 0x40 DUP5 ADD MSTORE PUSH2 0x2B27 DUP2 DUP7 PUSH2 0x25F7 JUMP JUMPDEST SWAP2 POP POP DUP3 PUSH1 0x60 DUP4 ADD MSTORE SWAP5 SWAP4 POP POP POP POP JUMP JUMPDEST PUSH1 0x20 DUP1 DUP3 MSTORE PUSH1 0x16 SWAP1 DUP3 ADD MSTORE PUSH22 0x14185D1A595B9D08139BDD081C9959DA5CDD195C9959 PUSH1 0x52 SHL PUSH1 0x40 DUP3 ADD MSTORE PUSH1 0x60 ADD SWAP1 JUMP JUMPDEST PUSH1 0x80 DUP2 MSTORE PUSH1 0x17 PUSH1 0x80 DUP3 ADD MSTORE PUSH32 0x5265636F72642061646465642062792050617469656E74000000000000000000 PUSH1 0xA0 DUP3 ADD MSTORE PUSH1 0xC0 PUSH1 0x20 DUP3 ADD MSTORE PUSH1 0x0 PUSH2 0x2BAF PUSH1 0xC0 DUP4 ADD DUP6 PUSH2 0x25F7 JUMP JUMPDEST DUP3 DUP2 SUB PUSH1 0x40 DUP5 ADD MSTORE SWAP1 DUP2 MSTORE PUSH1 0x60 SWAP1 SWAP2 ADD SWAP2 SWAP1 SWAP2 MSTORE PUSH1 0x20 ADD SWAP2 SWAP1 POP JUMP JUMPDEST PUSH1 0x0 JUMPDEST DUP4 DUP2 LT ISZERO PUSH2 0x2BE6 JUMPI DUP2 DUP2 ADD MLOAD DUP4 DUP3 ADD MSTORE PUSH1 0x20 ADD PUSH2 0x2BCE JUMP JUMPDEST DUP4 DUP2 GT ISZERO PUSH2 0x2BF5 JUMPI PUSH1 0x0 DUP5 DUP5 ADD MSTORE JUMPDEST POP POP POP POP JUMP JUMPDEST PUSH1 0x1 DUP2 DUP2 SHR SWAP1 DUP3 AND DUP1 PUSH2 0x2C0F JUMPI PUSH1 0x7F DUP3 AND SWAP2 POP JUMPDEST PUSH1 0x20 DUP3 LT DUP2 EQ ISZERO PUSH2 0x2C30 JUMPI PUSH4 0x4E487B71 PUSH1 0xE0 SHL PUSH1 0x0 MSTORE PUSH1 0x22 PUSH1 0x4 MSTORE PUSH1 0x24 PUSH1 0x0 REVERT JUMPDEST POP SWAP2 SWAP1 POP JUMP JUMPDEST PUSH4 0x4E487B71 PUSH1 0xE0 SHL PUSH1 0x0 MSTORE PUSH1 0x21 PUSH1 0x4 MSTORE PUSH1 0x24 PUSH1 0x0 REVERT JUMPDEST PUSH4 0x4E487B71 PUSH1 0xE0 SHL PUSH1 0x0 MSTORE PUSH1 0x41 PUSH1 0x4 MSTORE PUSH1 0x24 PUSH1 0x0 REVERT JUMPDEST PUSH1 0x2 DUP2 LT PUSH2 0x2C6F JUMPI PUSH1 0x0 DUP1 REVERT JUMPDEST POP JUMP INVALID 0xCB 0xCC 0xC7 MLOAD DUP2 PUSH5 0x3FD5242376 PUSH18 0xD958ED31B175E71684FD728CD0C0727DAD0D INVALID DIV LOG2 PUSH5 0x6970667358 0x22 SLT KECCAK256 0x25 0xBD DUP1 SSTORE DUP4 0xBF 0xD8 0xB9 0x26 DUP12 COINBASE CALLDATASIZE TIMESTAMP SDIV 0xB8 0xD5 PUSH15 0x1BDAE98AF7BE6DAE12D5B480520630 PUSH5 0x736F6C6343 STOP ADDMOD DIV STOP CALLER "
		},
		"gasEstimates": {
			"creation": {
				"codeDepositCost": "2292800",
				"executionCost": "infinite",
				"totalCost": "infinite"
			},
			"external": {
				"accessControl(string,string,uint8)": "infinite",
				"accessForDoctor(string,string)": "infinite",
				"careGiverData(string,uint256)": "infinite",
				"doctorAccess(string)": "infinite",
				"doctorCredentialsStore(uint256)": "infinite",
				"owner()": "1126",
				"patientAccess(string)": "infinite",
				"patientLocData(string)": "infinite",
				"patienthealthData(string)": "infinite",
				"patientrecordsData(string,string)": "infinite",
				"recordByDoctor(string,string,uint256,uint256)": "infinite",
				"recordByPatient(string,uint256,uint256)": "infinite",
				"registerCareGiver(string,uint256,string,string,string)": "infinite",
				"registerDoctor(string,string,string,string,string,string,uint8)": "infinite",
				"registerPatientHealth(string,string,uint256,uint256,string)": "infinite",
				"registerPatientLoc(string,string,string,string,uint256,string)": "infinite",
				"registerPatients(string,string,string,string,string,string,uint8)": "infinite",
				"updateCareGiver(string,uint256,string,string,string)": "infinite"
			}
		},
		"methodIdentifiers": {
			"accessControl(string,string,uint8)": "a76a710b",
			"accessForDoctor(string,string)": "b91711fd",
			"careGiverData(string,uint256)": "b846a82c",
			"doctorAccess(string)": "3e15b172",
			"doctorCredentialsStore(uint256)": "2eae0ef6",
			"owner()": "8da5cb5b",
			"patientAccess(string)": "3133957b",
			"patientLocData(string)": "c593da30",
			"patienthealthData(string)": "6eb0000d",
			"patientrecordsData(string,string)": "d805c2c3",
			"recordByDoctor(string,string,uint256,uint256)": "cbab2477",
			"recordByPatient(string,uint256,uint256)": "bf18516d",
			"registerCareGiver(string,uint256,string,string,string)": "8eb84117",
			"registerDoctor(string,string,string,string,string,string,uint8)": "4e6c73a5",
			"registerPatientHealth(string,string,uint256,uint256,string)": "445d5377",
			"registerPatientLoc(string,string,string,string,uint256,string)": "c5c3b3ea",
			"registerPatients(string,string,string,string,string,string,uint8)": "9c472131",
			"updateCareGiver(string,uint256,string,string,string)": "2452c72a"
		}
	},
	"abi": [
		{
			"inputs": [
				{
					"internalType": "address",
					"name": "_pli",
					"type": "address"
				}
			],
			"stateMutability": "nonpayable",
			"type": "constructor"
		},
		{
			"anonymous": false,
			"inputs": [
				{
					"indexed": true,
					"internalType": "bytes32",
					"name": "id",
					"type": "bytes32"
				}
			],
			"name": "PluginCancelled",
			"type": "event"
		},
		{
			"anonymous": false,
			"inputs": [
				{
					"indexed": true,
					"internalType": "bytes32",
					"name": "id",
					"type": "bytes32"
				}
			],
			"name": "PluginFulfilled",
			"type": "event"
		},
		{
			"anonymous": false,
			"inputs": [
				{
					"indexed": true,
					"internalType": "bytes32",
					"name": "id",
					"type": "bytes32"
				}
			],
			"name": "PluginRequested",
			"type": "event"
		},
		{
			"anonymous": false,
			"inputs": [
				{
					"indexed": false,
					"internalType": "string",
					"name": "comment",
					"type": "string"
				},
				{
					"indexed": false,
					"internalType": "string",
					"name": "patKey",
					"type": "string"
				},
				{
					"indexed": false,
					"internalType": "string",
					"name": "docKey",
					"type": "string"
				},
				{
					"indexed": false,
					"internalType": "uint256",
					"name": "registeredOn",
					"type": "uint256"
				}
			],
			"name": "RecordEvents",
			"type": "event"
		},
		{
			"anonymous": false,
			"inputs": [
				{
					"indexed": false,
					"internalType": "string",
					"name": "retValue",
					"type": "string"
				},
				{
					"indexed": false,
					"internalType": "string",
					"name": "evenType",
					"type": "string"
				},
				{
					"indexed": false,
					"internalType": "uint256",
					"name": "registeredOn",
					"type": "uint256"
				}
			],
			"name": "ehrEvent",
			"type": "event"
		},
		{
			"inputs": [
				{
					"internalType": "string",
					"name": "_patKey",
					"type": "string"
				},
				{
					"internalType": "string",
					"name": "_docKey",
					"type": "string"
				},
				{
					"internalType": "enum GenericInterface.access",
					"name": "ac",
					"type": "uint8"
				}
			],
			"name": "accessControl",
			"outputs": [],
			"stateMutability": "nonpayable",
			"type": "function"
		},
		{
			"inputs": [
				{
					"internalType": "string",
					"name": "",
					"type": "string"
				},
				{
					"internalType": "string",
					"name": "",
					"type": "string"
				}
			],
			"name": "accessForDoctor",
			"outputs": [
				{
					"internalType": "bool",
					"name": "",
					"type": "bool"
				}
			],
			"stateMutability": "view",
			"type": "function"
		},
		{
			"inputs": [
				{
					"internalType": "string",
					"name": "",
					"type": "string"
				},
				{
					"internalType": "uint256",
					"name": "",
					"type": "uint256"
				}
			],
			"name": "careGiverData",
			"outputs": [
				{
					"internalType": "string",
					"name": "careName",
					"type": "string"
				},
				{
					"internalType": "string",
					"name": "careMobile",
					"type": "string"
				},
				{
					"internalType": "string",
					"name": "careRelation",
					"type": "string"
				},
				{
					"internalType": "bool",
					"name": "isExist",
					"type": "bool"
				}
			],
			"stateMutability": "view",
			"type": "function"
		},
		{
			"inputs": [
				{
					"internalType": "string",
					"name": "",
					"type": "string"
				}
			],
			"name": "doctorAccess",
			"outputs": [
				{
					"internalType": "string",
					"name": "doctorName",
					"type": "string"
				},
				{
					"internalType": "string",
					"name": "doctorEmail",
					"type": "string"
				},
				{
					"internalType": "string",
					"name": "doctorMobile",
					"type": "string"
				},
				{
					"internalType": "string",
					"name": "doctorPass",
					"type": "string"
				},
				{
					"internalType": "string",
					"name": "doctorDob",
					"type": "string"
				},
				{
					"internalType": "bool",
					"name": "isExist",
					"type": "bool"
				}
			],
			"stateMutability": "view",
			"type": "function"
		},
		{
			"inputs": [
				{
					"internalType": "uint256",
					"name": "",
					"type": "uint256"
				}
			],
			"name": "doctorCredentialsStore",
			"outputs": [
				{
					"internalType": "string",
					"name": "doctorCred",
					"type": "string"
				},
				{
					"internalType": "enum DoctorInterface.DoctorType",
					"name": "docType",
					"type": "uint8"
				},
				{
					"internalType": "enum GenericInterface.Sex",
					"name": "docSex",
					"type": "uint8"
				},
				{
					"internalType": "bool",
					"name": "isExist",
					"type": "bool"
				}
			],
			"stateMutability": "view",
			"type": "function"
		},
		{
			"inputs": [],
			"name": "owner",
			"outputs": [
				{
					"internalType": "address",
					"name": "",
					"type": "address"
				}
			],
			"stateMutability": "view",
			"type": "function"
		},
		{
			"inputs": [
				{
					"internalType": "string",
					"name": "",
					"type": "string"
				}
			],
			"name": "patientAccess",
			"outputs": [
				{
					"internalType": "string",
					"name": "patientName",
					"type": "string"
				},
				{
					"internalType": "string",
					"name": "patientEmail",
					"type": "string"
				},
				{
					"internalType": "string",
					"name": "patientMobile",
					"type": "string"
				},
				{
					"internalType": "string",
					"name": "patientPass",
					"type": "string"
				},
				{
					"internalType": "string",
					"name": "patientDob",
					"type": "string"
				},
				{
					"internalType": "bool",
					"name": "isExist",
					"type": "bool"
				}
			],
			"stateMutability": "view",
			"type": "function"
		},
		{
			"inputs": [
				{
					"internalType": "string",
					"name": "",
					"type": "string"
				}
			],
			"name": "patientLocData",
			"outputs": [
				{
					"internalType": "string",
					"name": "city",
					"type": "string"
				},
				{
					"internalType": "string",
					"name": "state",
					"type": "string"
				},
				{
					"internalType": "string",
					"name": "country",
					"type": "string"
				},
				{
					"internalType": "string",
					"name": "landmark",
					"type": "string"
				},
				{
					"internalType": "uint256",
					"name": "pincode",
					"type": "uint256"
				}
			],
			"stateMutability": "view",
			"type": "function"
		},
		{
			"inputs": [
				{
					"internalType": "string",
					"name": "",
					"type": "string"
				}
			],
			"name": "patienthealthData",
			"outputs": [
				{
					"internalType": "string",
					"name": "allergies",
					"type": "string"
				},
				{
					"internalType": "string",
					"name": "lifesaver",
					"type": "string"
				},
				{
					"internalType": "uint256",
					"name": "height",
					"type": "uint256"
				},
				{
					"internalType": "uint256",
					"name": "weight",
					"type": "uint256"
				}
			],
			"stateMutability": "view",
			"type": "function"
		},
		{
			"inputs": [
				{
					"internalType": "string",
					"name": "",
					"type": "string"
				},
				{
					"internalType": "string",
					"name": "",
					"type": "string"
				}
			],
			"name": "patientrecordsData",
			"outputs": [
				{
					"internalType": "uint256",
					"name": "",
					"type": "uint256"
				}
			],
			"stateMutability": "view",
			"type": "function"
		},
		{
			"inputs": [
				{
					"internalType": "string",
					"name": "patKey",
					"type": "string"
				},
				{
					"internalType": "string",
					"name": "docKey",
					"type": "string"
				},
				{
					"internalType": "uint256",
					"name": "rt",
					"type": "uint256"
				},
				{
					"internalType": "uint256",
					"name": "recordHash",
					"type": "uint256"
				}
			],
			"name": "recordByDoctor",
			"outputs": [],
			"stateMutability": "nonpayable",
			"type": "function"
		},
		{
			"inputs": [
				{
					"internalType": "string",
					"name": "patKey",
					"type": "string"
				},
				{
					"internalType": "uint256",
					"name": "rt",
					"type": "uint256"
				},
				{
					"internalType": "uint256",
					"name": "recordHash",
					"type": "uint256"
				}
			],
			"name": "recordByPatient",
			"outputs": [],
			"stateMutability": "nonpayable",
			"type": "function"
		},
		{
			"inputs": [
				{
					"internalType": "string",
					"name": "patKey",
					"type": "string"
				},
				{
					"internalType": "uint256",
					"name": "position",
					"type": "uint256"
				},
				{
					"internalType": "string",
					"name": "careName",
					"type": "string"
				},
				{
					"internalType": "string",
					"name": "careMobile",
					"type": "string"
				},
				{
					"internalType": "string",
					"name": "careRelation",
					"type": "string"
				}
			],
			"name": "registerCareGiver",
			"outputs": [],
			"stateMutability": "nonpayable",
			"type": "function"
		},
		{
			"inputs": [
				{
					"internalType": "string",
					"name": "doctorName",
					"type": "string"
				},
				{
					"internalType": "string",
					"name": "doctorEmail",
					"type": "string"
				},
				{
					"internalType": "string",
					"name": "doctorMobile",
					"type": "string"
				},
				{
					"internalType": "string",
					"name": "doctorPass",
					"type": "string"
				},
				{
					"internalType": "string",
					"name": "doctorKey",
					"type": "string"
				},
				{
					"internalType": "string",
					"name": "doctorDob",
					"type": "string"
				},
				{
					"internalType": "enum GenericInterface.stateChange",
					"name": "reup",
					"type": "uint8"
				}
			],
			"name": "registerDoctor",
			"outputs": [
				{
					"internalType": "string",
					"name": "docKey",
					"type": "string"
				}
			],
			"stateMutability": "nonpayable",
			"type": "function"
		},
		{
			"inputs": [
				{
					"internalType": "string",
					"name": "allergies",
					"type": "string"
				},
				{
					"internalType": "string",
					"name": "lifesaver",
					"type": "string"
				},
				{
					"internalType": "uint256",
					"name": "height",
					"type": "uint256"
				},
				{
					"internalType": "uint256",
					"name": "weight",
					"type": "uint256"
				},
				{
					"internalType": "string",
					"name": "patKey",
					"type": "string"
				}
			],
			"name": "registerPatientHealth",
			"outputs": [],
			"stateMutability": "nonpayable",
			"type": "function"
		},
		{
			"inputs": [
				{
					"internalType": "string",
					"name": "city",
					"type": "string"
				},
				{
					"internalType": "string",
					"name": "state",
					"type": "string"
				},
				{
					"internalType": "string",
					"name": "country",
					"type": "string"
				},
				{
					"internalType": "string",
					"name": "landmark",
					"type": "string"
				},
				{
					"internalType": "uint256",
					"name": "pincode",
					"type": "uint256"
				},
				{
					"internalType": "string",
					"name": "patKey",
					"type": "string"
				}
			],
			"name": "registerPatientLoc",
			"outputs": [
				{
					"internalType": "string",
					"name": "",
					"type": "string"
				}
			],
			"stateMutability": "nonpayable",
			"type": "function"
		},
		{
			"inputs": [
				{
					"internalType": "string",
					"name": "patientName",
					"type": "string"
				},
				{
					"internalType": "string",
					"name": "patientEmail",
					"type": "string"
				},
				{
					"internalType": "string",
					"name": "patientMobile",
					"type": "string"
				},
				{
					"internalType": "string",
					"name": "patientPass",
					"type": "string"
				},
				{
					"internalType": "string",
					"name": "patientKey",
					"type": "string"
				},
				{
					"internalType": "string",
					"name": "patientDob",
					"type": "string"
				},
				{
					"internalType": "enum GenericInterface.stateChange",
					"name": "reup",
					"type": "uint8"
				}
			],
			"name": "registerPatients",
			"outputs": [
				{
					"internalType": "string",
					"name": "patKey",
					"type": "string"
				}
			],
			"stateMutability": "nonpayable",
			"type": "function"
		},
		{
			"inputs": [
				{
					"internalType": "string",
					"name": "patKey",
					"type": "string"
				},
				{
					"internalType": "uint256",
					"name": "position",
					"type": "uint256"
				},
				{
					"internalType": "string",
					"name": "careName",
					"type": "string"
				},
				{
					"internalType": "string",
					"name": "careMobile",
					"type": "string"
				},
				{
					"internalType": "string",
					"name": "careRelation",
					"type": "string"
				}
			],
			"name": "updateCareGiver",
			"outputs": [],
			"stateMutability": "nonpayable",
			"type": "function"
		}
	]
}