{
	"data": {
		"bytecode": {
			"linkReferences": {},
			"object": "608060405260016004553480156200001657600080fd5b5060405162001b9d38038062001b9d833981016040908152815160208301519183015160068054600160a060020a0319163317905590920162000062836401000000006200009c810204565b60078054600160a060020a031916600160a060020a038416179055805162000092906008906020840190620000be565b5050505062000163565b60028054600160a060020a031916600160a060020a0392909216919091179055565b828054600181600116156101000203166002900490600052602060002090601f016020900481019282601f106200010157805160ff191683800117855562000131565b8280016001018555821562000131579182015b828111156200013157825182559160200191906001019062000114565b506200013f92915062000143565b5090565b6200016091905b808211156200013f57600081556001016200014a565b90565b611a2a80620001736000396000f3006080604052600436106100cc5763ffffffff60e060020a6000350416632d8c762c81146100d157806337fccd30146100f85780634357855e1461010f578063698996f81461012a578063715018a61461013f5780637dc0d1d0146101545780638205bf6a146101855780638da5cb5b1461019a5780638e0e0abb146101af5780639dd4cc5d146101c4578063a2e36c5f146101e5578063a4b6f67e14610229578063c2939d971461023e578063d378d5eb146102c8578063ec65d0f8146102f4578063f2fde38b1461031f575b600080fd5b3480156100dd57600080fd5b506100e6610340565b60408051918252519081900360200190f35b34801561010457600080fd5b5061010d610616565b005b34801561011b57600080fd5b5061010d6004356024356107a4565b34801561013657600080fd5b506100e66108be565b34801561014b57600080fd5b5061010d6108c4565b34801561016057600080fd5b50610169610932565b60408051600160a060020a039092168252519081900360200190f35b34801561019157600080fd5b506100e6610941565b3480156101a657600080fd5b50610169610947565b3480156101bb57600080fd5b506100e6610956565b3480156101d057600080fd5b506100e6600160a060020a036004351661095c565b3480156101f157600080fd5b50610206600160a060020a0360043516610c6e565b60408051600160a060020a03909316835260208301919091528051918290030190f35b34801561023557600080fd5b50610169610c93565b34801561024a57600080fd5b50610253610ca2565b6040805160208082528351818301528351919283929083019185019080838360005b8381101561028d578181015183820152602001610275565b50505050905090810190601f1680156102ba5780820380516001836020036101000a031916815260200191505b509250505060405180910390f35b3480156102d457600080fd5b506102e0600435610d30565b604080519115158252519081900360200190f35b34801561030057600080fd5b5061010d600435602435600160e060020a031960443516606435610ec9565b34801561032b57600080fd5b5061010d600160a060020a0360043516610ef2565b600061034a61199a565b600654600160a060020a0316331461036157600080fd5b6008805460408051602060026001851615610100026000190190941693909304601f8101849004840282018401909252818152610422936103fb93919290918301828280156103f15780601f106103c6576101008083540402835291602001916103f1565b820191906000526020600020905b8154815290600101906020018083116103d457829003601f168201915b5050505050610f12565b307f4357855e00000000000000000000000000000000000000000000000000000000610f36565b604080518082018252600681527f5f6673796d7300000000000000000000000000000000000000000000000000006020808301919091528251808401909352600383527f58444300000000000000000000000000000000000000000000000000000000009083015291925061049e91839163ffffffff610f6116565b604080518082018252600681527f5f7473796d7300000000000000000000000000000000000000000000000000006020808301919091528251808401909352600483527f5553445400000000000000000000000000000000000000000000000000000000908301526105189183919063ffffffff610f6116565b60408051808201909152600581527f74696d6573000000000000000000000000000000000000000000000000000000602082015261056090829061271063ffffffff610f9016565b42600a5560075461058290600160a060020a031682662386f26fc10000610fba565b60088054604080516020601f6002610100600187161502600019019095169490940493840181900481028201810190925282815293955085936105e993909290918301828280156103f15780601f106103c6576101008083540402835291602001916103f1565b6040517feafd6b8e34637ca199864ee18f22fc46cbc730739912f5b54501a2a9e57e807090600090a35090565b600654600090600160a060020a0316331461063057600080fd5b610638611257565b604080517f70a082310000000000000000000000000000000000000000000000000000000081523060048201529051919250600160a060020a0383169163a9059cbb91339184916370a082319160248083019260209291908290030181600087803b1580156106a657600080fd5b505af11580156106ba573d6000803e3d6000fd5b505050506040513d60208110156106d057600080fd5b50516040805160e060020a63ffffffff8616028152600160a060020a03909316600484015260248301919091525160448083019260209291908290030181600087803b15801561071f57600080fd5b505af1158015610733573d6000803e3d6000fd5b505050506040513d602081101561074957600080fd5b505115156107a1576040805160e560020a62461bcd02815260206004820152601260248201527f556e61626c6520746f207472616e736665720000000000000000000000000000604482015290519081900360640190fd5b50565b6000828152600560205260409020548290600160a060020a0316331461083a576040805160e560020a62461bcd02815260206004820152602860248201527f536f75726365206d75737420626520746865206f7261636c65206f662074686560448201527f2072657175657374000000000000000000000000000000000000000000000000606482015290519081900360840190fd5b600081815260056020526040808220805473ffffffffffffffffffffffffffffffffffffffff191690555182917fa40ad10b942505047c532a7399bf5eac2768b11b7155b40ec80309aea567f99891a2604051829084907f1ca8663227a7fe9919713a01d344afbb434e234f35a3e540a6ad924f88771f3890600090a35060095550565b60095481565b600654600160a060020a031633146108db57600080fd5b600654604051600160a060020a03909116907ff8df31144d9c2f0f6b59d69b8b98abd5459d07f2742c4df920b25aae33c6482090600090a26006805473ffffffffffffffffffffffffffffffffffffffff19169055565b600754600160a060020a031681565b600a5481565b600654600160a060020a031681565b60095490565b60008061096761199a565b600160a060020a0384166000908152600b60205260409020600101549150662386f26fc1000082116109e3576040805160e560020a62461bcd02815260206004820152601560248201527f4e4f5f53554646494349454e545f435245444954530000000000000000000000604482015290519081900360640190fd5b600160a060020a0384166000908152600b6020908152604091829020662386f26fc0ffff198501600191820155600880548451600293821615610100026000190190911692909204601f8101849004840283018401909452838252610a6c936103fb938301828280156103f15780601f106103c6576101008083540402835291602001916103f1565b604080518082018252600681527f5f6673796d7300000000000000000000000000000000000000000000000000006020808301919091528251808401909352600383527f584443000000000000000000000000000000000000000000000000000000000090830152919250610ae891839163ffffffff610f6116565b604080518082018252600681527f5f7473796d7300000000000000000000000000000000000000000000000000006020808301919091528251808401909352600483527f555344540000000000000000000000000000000000000000000000000000000090830152610b629183919063ffffffff610f6116565b60408051808201909152600581527f74696d65730000000000000000000000000000000000000000000000000000006020820152610baa90829061271063ffffffff610f9016565b600754610bc890600160a060020a031682662386f26fc10000610fba565b42600a5560088054604080516020601f600261010060018716150260001901909516949094049384018190048102820181019092528281529396508693610c3393909290918301828280156103f15780601f106103c6576101008083540402835291602001916103f1565b604051600160a060020a038716907f7f3df4038a13e7b83557e5a0ebf67fec07391a522319ab42e81255e88de18ffb90600090a45050919050565b600b6020526000908152604090208054600190910154600160a060020a039091169082565b6000610c9d611257565b905090565b6008805460408051602060026001851615610100026000190190941693909304601f81018490048402820184019092528181529291830182828015610d285780601f10610cfd57610100808354040283529160200191610d28565b820191906000526020600020905b815481529060010190602001808311610d0b57829003601f168201915b505050505081565b600080610d3b6119cf565b600068056bc75e2d63100000851115610d9e576040805160e560020a62461bcd02815260206004820152601960248201527f4e4f545f4d4f52455f5448414e5f3130305f414c4c4f57454400000000000000604482015290519081900360640190fd5b610da6611257565b604080517f23b872dd000000000000000000000000000000000000000000000000000000008152336004820152306024820152604481018890529051919450600160a060020a038516916323b872dd916064808201926020929091908290030181600087803b158015610e1857600080fd5b505af1158015610e2c573d6000803e3d6000fd5b505050506040513d6020811015610e4257600080fd5b5050336000818152600b60208181526040808420815180830183528154600160a060020a0381811683526001808501805494880185905286518088019097528a87529e9093018587019081529890975294909352905190931673ffffffffffffffffffffffffffffffffffffffff1990921691909117909155905190955550929392505050565b600654600160a060020a03163314610ee057600080fd5b610eec84848484611266565b50505050565b600654600160a060020a03163314610f0957600080fd5b6107a181611364565b805160009082901515610f285760009150610f30565b602083015191505b50919050565b610f3e61199a565b610f4661199a565b610f588186868663ffffffff6113e216565b95945050505050565b6080830151610f76908363ffffffff61141f16565b6080830151610f8b908263ffffffff61141f16565b505050565b6080830151610fa5908363ffffffff61141f16565b6080830151610f8b908263ffffffff61143c16565b6000306004546040516020018083600160a060020a0316600160a060020a03166c01000000000000000000000000028152601401828152602001925050506040516020818303038152906040526040518082805190602001908083835b602083106110365780518252601f199092019160209182019101611017565b51815160209384036101000a6000190180199092169116179052604080519290940182900390912060045460608a015260008181526005909252838220805473ffffffffffffffffffffffffffffffffffffffff1916600160a060020a038c1617905592519295508594507fa6745906207afb96a5801b8e5711fd7b74c5780ce893a973806e179d675bbe249350919050a2600254600160a060020a0316634000aea085846110e48761149e565b6040518463ffffffff1660e060020a0281526004018084600160a060020a0316600160a060020a0316815260200183815260200180602001828103825283818151815260200191508051906020019080838360005b83811015611151578181015183820152602001611139565b50505050905090810190601f16801561117e5780820380516001836020036101000a031916815260200191505b50945050505050602060405180830381600087803b15801561119f57600080fd5b505af11580156111b3573d6000803e3d6000fd5b505050506040513d60208110156111c957600080fd5b50511515611247576040805160e560020a62461bcd02815260206004820152602360248201527f756e61626c6520746f207472616e73666572416e6443616c6c20746f206f726160448201527f636c650000000000000000000000000000000000000000000000000000000000606482015290519081900360840190fd5b6004805460010190559392505050565b600254600160a060020a031690565b600084815260056020526040808220805473ffffffffffffffffffffffffffffffffffffffff1981169091559051600160a060020a039091169186917f715822738dad692e521ebc0193d189bf23153eb1d4420173d6b30cd8add9f9a69190a2604080517f6ee4d5530000000000000000000000000000000000000000000000000000000081526004810187905260248101869052600160e060020a031985166044820152606481018490529051600160a060020a03831691636ee4d55391608480830192600092919082900301818387803b15801561134557600080fd5b505af1158015611359573d6000803e3d6000fd5b505050505050505050565b600160a060020a038116151561137957600080fd5b600654604051600160a060020a038084169216907f8be0079c531659141344cd1fd0a4f28419497f9722a3daafe3b4186f6b6457e090600090a36006805473ffffffffffffffffffffffffffffffffffffffff1916600160a060020a0392909216919091179055565b6113ea61199a565b6113fa85608001516101006115f5565b5050918352600160a060020a03166020830152600160e060020a031916604082015290565b61142c8260038351611635565b610f8b828263ffffffff61173216565b67ffffffffffffffff1981121561145c576114578282611753565b61149a565b67ffffffffffffffff811315611476576114578282611792565b6000811261148a5761145782600083611635565b61149a8260018360001903611635565b5050565b8051602080830151604080850151606086810151608088015151935160006024820181815260448301829052606483018a9052600160a060020a0388166084840152600160e060020a0319861660a484015260c48301849052600160e48401819052610100610104850190815288516101248601528851969b7f40429946000000000000000000000000000000000000000000000000000000009b949a8b9a91999098909796939591949361014401918501908083838e5b8381101561156e578181015183820152602001611556565b50505050905090810190601f16801561159b5780820380516001836020036101000a031916815260200191505b5060408051601f198184030181529190526020810180517bffffffffffffffffffffffffffffffffffffffffffffffffffffffff16600160e060020a0319909d169c909c17909b5250989950505050505050505050919050565b6115fd6119e6565b60208206156116125760208206602003820191505b506020808301829052604080518085526000815283019091019052815b92915050565b60178111611657576116518360ff8481166020021683176117cd565b50610f8b565b60ff811161168b57611678836018602060ff8616021763ffffffff6117cd16565b506116518382600163ffffffff6117e516565b61ffff81116116c0576116ad836019602060ff8616021763ffffffff6117cd16565b506116518382600263ffffffff6117e516565b63ffffffff81116116f7576116e483601a602060ff8616021763ffffffff6117cd16565b506116518382600463ffffffff6117e516565b67ffffffffffffffff8111610f8b5761171f83601b602060ff8616021763ffffffff6117cd16565b50610eec8382600863ffffffff6117e516565b61173a6119e6565b61174c83846000015151848551611806565b9392505050565b6117648260c363ffffffff6117cd16565b5061149a828260001903604051602001808281526020019150506040516020818303038152906040526118bc565b6117a38260c263ffffffff6117cd16565b5061149a8282604051602001808281526020019150506040516020818303038152906040526118bc565b6117d56119e6565b61174c83846000015151846118c9565b6117ed6119e6565b6117fe848560000151518585611914565b949350505050565b61180e6119e6565b60008060008551851115151561182357600080fd5b8760200151858801111561184d5761184d886118458a602001518a8901611972565b600202611983565b8751805188602083010194508089880111156118695788870182525b60208801935050505b602085106118945781518352601f199094019360209283019290910190611872565b505181516020949094036101000a600019018019909116931692909217909152509192915050565b61142c8260028351611635565b6118d16119e6565b602084015183106118ed576118ed848560200151600202611983565b8351805160208583010184815381861415611909576001820183525b509495945050505050565b61191c6119e6565b60008560200151858401111561193b5761193b86868501600202611983565b6001836101000a03905085518386820101858319825116178152815185880111156119665784870182525b50959695505050505050565b600081831115610f3057508161162f565b815161198f83836115f5565b50610eec8382611732565b6040805160c0810182526000808252602082018190529181018290526060810191909152608081016119ca6119e6565b905290565b604080518082019091526000808252602082015290565b604080518082019091526060815260006020820152905600a165627a7a72305820b7b85266636901284703ed908b0a706eb34aa426c6416fed9eaa7768feb050ff0029",
			"opcodes": "PUSH1 0x80 PUSH1 0x40 MSTORE PUSH1 0x1 PUSH1 0x4 SSTORE CALLVALUE DUP1 ISZERO PUSH3 0x16 JUMPI PUSH1 0x0 DUP1 REVERT JUMPDEST POP PUSH1 0x40 MLOAD PUSH3 0x1B9D CODESIZE SUB DUP1 PUSH3 0x1B9D DUP4 CODECOPY DUP2 ADD PUSH1 0x40 SWAP1 DUP2 MSTORE DUP2 MLOAD PUSH1 0x20 DUP4 ADD MLOAD SWAP2 DUP4 ADD MLOAD PUSH1 0x6 DUP1 SLOAD PUSH1 0x1 PUSH1 0xA0 PUSH1 0x2 EXP SUB NOT AND CALLER OR SWAP1 SSTORE SWAP1 SWAP3 ADD PUSH3 0x62 DUP4 PUSH5 0x100000000 PUSH3 0x9C DUP2 MUL DIV JUMP JUMPDEST PUSH1 0x7 DUP1 SLOAD PUSH1 0x1 PUSH1 0xA0 PUSH1 0x2 EXP SUB NOT AND PUSH1 0x1 PUSH1 0xA0 PUSH1 0x2 EXP SUB DUP5 AND OR SWAP1 SSTORE DUP1 MLOAD PUSH3 0x92 SWAP1 PUSH1 0x8 SWAP1 PUSH1 0x20 DUP5 ADD SWAP1 PUSH3 0xBE JUMP JUMPDEST POP POP POP POP PUSH3 0x163 JUMP JUMPDEST PUSH1 0x2 DUP1 SLOAD PUSH1 0x1 PUSH1 0xA0 PUSH1 0x2 EXP SUB NOT AND PUSH1 0x1 PUSH1 0xA0 PUSH1 0x2 EXP SUB SWAP3 SWAP1 SWAP3 AND SWAP2 SWAP1 SWAP2 OR SWAP1 SSTORE JUMP JUMPDEST DUP3 DUP1 SLOAD PUSH1 0x1 DUP2 PUSH1 0x1 AND ISZERO PUSH2 0x100 MUL SUB AND PUSH1 0x2 SWAP1 DIV SWAP1 PUSH1 0x0 MSTORE PUSH1 0x20 PUSH1 0x0 KECCAK256 SWAP1 PUSH1 0x1F ADD PUSH1 0x20 SWAP1 DIV DUP2 ADD SWAP3 DUP3 PUSH1 0x1F LT PUSH3 0x101 JUMPI DUP1 MLOAD PUSH1 0xFF NOT AND DUP4 DUP1 ADD OR DUP6 SSTORE PUSH3 0x131 JUMP JUMPDEST DUP3 DUP1 ADD PUSH1 0x1 ADD DUP6 SSTORE DUP3 ISZERO PUSH3 0x131 JUMPI SWAP2 DUP3 ADD JUMPDEST DUP3 DUP2 GT ISZERO PUSH3 0x131 JUMPI DUP3 MLOAD DUP3 SSTORE SWAP2 PUSH1 0x20 ADD SWAP2 SWAP1 PUSH1 0x1 ADD SWAP1 PUSH3 0x114 JUMP JUMPDEST POP PUSH3 0x13F SWAP3 SWAP2 POP PUSH3 0x143 JUMP JUMPDEST POP SWAP1 JUMP JUMPDEST PUSH3 0x160 SWAP2 SWAP1 JUMPDEST DUP1 DUP3 GT ISZERO PUSH3 0x13F JUMPI PUSH1 0x0 DUP2 SSTORE PUSH1 0x1 ADD PUSH3 0x14A JUMP JUMPDEST SWAP1 JUMP JUMPDEST PUSH2 0x1A2A DUP1 PUSH3 0x173 PUSH1 0x0 CODECOPY PUSH1 0x0 RETURN STOP PUSH1 0x80 PUSH1 0x40 MSTORE PUSH1 0x4 CALLDATASIZE LT PUSH2 0xCC JUMPI PUSH4 0xFFFFFFFF PUSH1 0xE0 PUSH1 0x2 EXP PUSH1 0x0 CALLDATALOAD DIV AND PUSH4 0x2D8C762C DUP2 EQ PUSH2 0xD1 JUMPI DUP1 PUSH4 0x37FCCD30 EQ PUSH2 0xF8 JUMPI DUP1 PUSH4 0x4357855E EQ PUSH2 0x10F JUMPI DUP1 PUSH4 0x698996F8 EQ PUSH2 0x12A JUMPI DUP1 PUSH4 0x715018A6 EQ PUSH2 0x13F JUMPI DUP1 PUSH4 0x7DC0D1D0 EQ PUSH2 0x154 JUMPI DUP1 PUSH4 0x8205BF6A EQ PUSH2 0x185 JUMPI DUP1 PUSH4 0x8DA5CB5B EQ PUSH2 0x19A JUMPI DUP1 PUSH4 0x8E0E0ABB EQ PUSH2 0x1AF JUMPI DUP1 PUSH4 0x9DD4CC5D EQ PUSH2 0x1C4 JUMPI DUP1 PUSH4 0xA2E36C5F EQ PUSH2 0x1E5 JUMPI DUP1 PUSH4 0xA4B6F67E EQ PUSH2 0x229 JUMPI DUP1 PUSH4 0xC2939D97 EQ PUSH2 0x23E JUMPI DUP1 PUSH4 0xD378D5EB EQ PUSH2 0x2C8 JUMPI DUP1 PUSH4 0xEC65D0F8 EQ PUSH2 0x2F4 JUMPI DUP1 PUSH4 0xF2FDE38B EQ PUSH2 0x31F JUMPI JUMPDEST PUSH1 0x0 DUP1 REVERT JUMPDEST CALLVALUE DUP1 ISZERO PUSH2 0xDD JUMPI PUSH1 0x0 DUP1 REVERT JUMPDEST POP PUSH2 0xE6 PUSH2 0x340 JUMP JUMPDEST PUSH1 0x40 DUP1 MLOAD SWAP2 DUP3 MSTORE MLOAD SWAP1 DUP2 SWAP1 SUB PUSH1 0x20 ADD SWAP1 RETURN JUMPDEST CALLVALUE DUP1 ISZERO PUSH2 0x104 JUMPI PUSH1 0x0 DUP1 REVERT JUMPDEST POP PUSH2 0x10D PUSH2 0x616 JUMP JUMPDEST STOP JUMPDEST CALLVALUE DUP1 ISZERO PUSH2 0x11B JUMPI PUSH1 0x0 DUP1 REVERT JUMPDEST POP PUSH2 0x10D PUSH1 0x4 CALLDATALOAD PUSH1 0x24 CALLDATALOAD PUSH2 0x7A4 JUMP JUMPDEST CALLVALUE DUP1 ISZERO PUSH2 0x136 JUMPI PUSH1 0x0 DUP1 REVERT JUMPDEST POP PUSH2 0xE6 PUSH2 0x8BE JUMP JUMPDEST CALLVALUE DUP1 ISZERO PUSH2 0x14B JUMPI PUSH1 0x0 DUP1 REVERT JUMPDEST POP PUSH2 0x10D PUSH2 0x8C4 JUMP JUMPDEST CALLVALUE DUP1 ISZERO PUSH2 0x160 JUMPI PUSH1 0x0 DUP1 REVERT JUMPDEST POP PUSH2 0x169 PUSH2 0x932 JUMP JUMPDEST PUSH1 0x40 DUP1 MLOAD PUSH1 0x1 PUSH1 0xA0 PUSH1 0x2 EXP SUB SWAP1 SWAP3 AND DUP3 MSTORE MLOAD SWAP1 DUP2 SWAP1 SUB PUSH1 0x20 ADD SWAP1 RETURN JUMPDEST CALLVALUE DUP1 ISZERO PUSH2 0x191 JUMPI PUSH1 0x0 DUP1 REVERT JUMPDEST POP PUSH2 0xE6 PUSH2 0x941 JUMP JUMPDEST CALLVALUE DUP1 ISZERO PUSH2 0x1A6 JUMPI PUSH1 0x0 DUP1 REVERT JUMPDEST POP PUSH2 0x169 PUSH2 0x947 JUMP JUMPDEST CALLVALUE DUP1 ISZERO PUSH2 0x1BB JUMPI PUSH1 0x0 DUP1 REVERT JUMPDEST POP PUSH2 0xE6 PUSH2 0x956 JUMP JUMPDEST CALLVALUE DUP1 ISZERO PUSH2 0x1D0 JUMPI PUSH1 0x0 DUP1 REVERT JUMPDEST POP PUSH2 0xE6 PUSH1 0x1 PUSH1 0xA0 PUSH1 0x2 EXP SUB PUSH1 0x4 CALLDATALOAD AND PUSH2 0x95C JUMP JUMPDEST CALLVALUE DUP1 ISZERO PUSH2 0x1F1 JUMPI PUSH1 0x0 DUP1 REVERT JUMPDEST POP PUSH2 0x206 PUSH1 0x1 PUSH1 0xA0 PUSH1 0x2 EXP SUB PUSH1 0x4 CALLDATALOAD AND PUSH2 0xC6E JUMP JUMPDEST PUSH1 0x40 DUP1 MLOAD PUSH1 0x1 PUSH1 0xA0 PUSH1 0x2 EXP SUB SWAP1 SWAP4 AND DUP4 MSTORE PUSH1 0x20 DUP4 ADD SWAP2 SWAP1 SWAP2 MSTORE DUP1 MLOAD SWAP2 DUP3 SWAP1 SUB ADD SWAP1 RETURN JUMPDEST CALLVALUE DUP1 ISZERO PUSH2 0x235 JUMPI PUSH1 0x0 DUP1 REVERT JUMPDEST POP PUSH2 0x169 PUSH2 0xC93 JUMP JUMPDEST CALLVALUE DUP1 ISZERO PUSH2 0x24A JUMPI PUSH1 0x0 DUP1 REVERT JUMPDEST POP PUSH2 0x253 PUSH2 0xCA2 JUMP JUMPDEST PUSH1 0x40 DUP1 MLOAD PUSH1 0x20 DUP1 DUP3 MSTORE DUP4 MLOAD DUP2 DUP4 ADD MSTORE DUP4 MLOAD SWAP2 SWAP3 DUP4 SWAP3 SWAP1 DUP4 ADD SWAP2 DUP6 ADD SWAP1 DUP1 DUP4 DUP4 PUSH1 0x0 JUMPDEST DUP4 DUP2 LT ISZERO PUSH2 0x28D JUMPI DUP2 DUP2 ADD MLOAD DUP4 DUP3 ADD MSTORE PUSH1 0x20 ADD PUSH2 0x275 JUMP JUMPDEST POP POP POP POP SWAP1 POP SWAP1 DUP2 ADD SWAP1 PUSH1 0x1F AND DUP1 ISZERO PUSH2 0x2BA JUMPI DUP1 DUP3 SUB DUP1 MLOAD PUSH1 0x1 DUP4 PUSH1 0x20 SUB PUSH2 0x100 EXP SUB NOT AND DUP2 MSTORE PUSH1 0x20 ADD SWAP2 POP JUMPDEST POP SWAP3 POP POP POP PUSH1 0x40 MLOAD DUP1 SWAP2 SUB SWAP1 RETURN JUMPDEST CALLVALUE DUP1 ISZERO PUSH2 0x2D4 JUMPI PUSH1 0x0 DUP1 REVERT JUMPDEST POP PUSH2 0x2E0 PUSH1 0x4 CALLDATALOAD PUSH2 0xD30 JUMP JUMPDEST PUSH1 0x40 DUP1 MLOAD SWAP2 ISZERO ISZERO DUP3 MSTORE MLOAD SWAP1 DUP2 SWAP1 SUB PUSH1 0x20 ADD SWAP1 RETURN JUMPDEST CALLVALUE DUP1 ISZERO PUSH2 0x300 JUMPI PUSH1 0x0 DUP1 REVERT JUMPDEST POP PUSH2 0x10D PUSH1 0x4 CALLDATALOAD PUSH1 0x24 CALLDATALOAD PUSH1 0x1 PUSH1 0xE0 PUSH1 0x2 EXP SUB NOT PUSH1 0x44 CALLDATALOAD AND PUSH1 0x64 CALLDATALOAD PUSH2 0xEC9 JUMP JUMPDEST CALLVALUE DUP1 ISZERO PUSH2 0x32B JUMPI PUSH1 0x0 DUP1 REVERT JUMPDEST POP PUSH2 0x10D PUSH1 0x1 PUSH1 0xA0 PUSH1 0x2 EXP SUB PUSH1 0x4 CALLDATALOAD AND PUSH2 0xEF2 JUMP JUMPDEST PUSH1 0x0 PUSH2 0x34A PUSH2 0x199A JUMP JUMPDEST PUSH1 0x6 SLOAD PUSH1 0x1 PUSH1 0xA0 PUSH1 0x2 EXP SUB AND CALLER EQ PUSH2 0x361 JUMPI PUSH1 0x0 DUP1 REVERT JUMPDEST PUSH1 0x8 DUP1 SLOAD PUSH1 0x40 DUP1 MLOAD PUSH1 0x20 PUSH1 0x2 PUSH1 0x1 DUP6 AND ISZERO PUSH2 0x100 MUL PUSH1 0x0 NOT ADD SWAP1 SWAP5 AND SWAP4 SWAP1 SWAP4 DIV PUSH1 0x1F DUP2 ADD DUP5 SWAP1 DIV DUP5 MUL DUP3 ADD DUP5 ADD SWAP1 SWAP3 MSTORE DUP2 DUP2 MSTORE PUSH2 0x422 SWAP4 PUSH2 0x3FB SWAP4 SWAP2 SWAP3 SWAP1 SWAP2 DUP4 ADD DUP3 DUP3 DUP1 ISZERO PUSH2 0x3F1 JUMPI DUP1 PUSH1 0x1F LT PUSH2 0x3C6 JUMPI PUSH2 0x100 DUP1 DUP4 SLOAD DIV MUL DUP4 MSTORE SWAP2 PUSH1 0x20 ADD SWAP2 PUSH2 0x3F1 JUMP JUMPDEST DUP3 ADD SWAP2 SWAP1 PUSH1 0x0 MSTORE PUSH1 0x20 PUSH1 0x0 KECCAK256 SWAP1 JUMPDEST DUP2 SLOAD DUP2 MSTORE SWAP1 PUSH1 0x1 ADD SWAP1 PUSH1 0x20 ADD DUP1 DUP4 GT PUSH2 0x3D4 JUMPI DUP3 SWAP1 SUB PUSH1 0x1F AND DUP3 ADD SWAP2 JUMPDEST POP POP POP POP POP PUSH2 0xF12 JUMP JUMPDEST ADDRESS PUSH32 0x4357855E00000000000000000000000000000000000000000000000000000000 PUSH2 0xF36 JUMP JUMPDEST PUSH1 0x40 DUP1 MLOAD DUP1 DUP3 ADD DUP3 MSTORE PUSH1 0x6 DUP2 MSTORE PUSH32 0x5F6673796D730000000000000000000000000000000000000000000000000000 PUSH1 0x20 DUP1 DUP4 ADD SWAP2 SWAP1 SWAP2 MSTORE DUP3 MLOAD DUP1 DUP5 ADD SWAP1 SWAP4 MSTORE PUSH1 0x3 DUP4 MSTORE PUSH32 0x5844430000000000000000000000000000000000000000000000000000000000 SWAP1 DUP4 ADD MSTORE SWAP2 SWAP3 POP PUSH2 0x49E SWAP2 DUP4 SWAP2 PUSH4 0xFFFFFFFF PUSH2 0xF61 AND JUMP JUMPDEST PUSH1 0x40 DUP1 MLOAD DUP1 DUP3 ADD DUP3 MSTORE PUSH1 0x6 DUP2 MSTORE PUSH32 0x5F7473796D730000000000000000000000000000000000000000000000000000 PUSH1 0x20 DUP1 DUP4 ADD SWAP2 SWAP1 SWAP2 MSTORE DUP3 MLOAD DUP1 DUP5 ADD SWAP1 SWAP4 MSTORE PUSH1 0x4 DUP4 MSTORE PUSH32 0x5553445400000000000000000000000000000000000000000000000000000000 SWAP1 DUP4 ADD MSTORE PUSH2 0x518 SWAP2 DUP4 SWAP2 SWAP1 PUSH4 0xFFFFFFFF PUSH2 0xF61 AND JUMP JUMPDEST PUSH1 0x40 DUP1 MLOAD DUP1 DUP3 ADD SWAP1 SWAP2 MSTORE PUSH1 0x5 DUP2 MSTORE PUSH32 0x74696D6573000000000000000000000000000000000000000000000000000000 PUSH1 0x20 DUP3 ADD MSTORE PUSH2 0x560 SWAP1 DUP3 SWAP1 PUSH2 0x2710 PUSH4 0xFFFFFFFF PUSH2 0xF90 AND JUMP JUMPDEST TIMESTAMP PUSH1 0xA SSTORE PUSH1 0x7 SLOAD PUSH2 0x582 SWAP1 PUSH1 0x1 PUSH1 0xA0 PUSH1 0x2 EXP SUB AND DUP3 PUSH7 0x2386F26FC10000 PUSH2 0xFBA JUMP JUMPDEST PUSH1 0x8 DUP1 SLOAD PUSH1 0x40 DUP1 MLOAD PUSH1 0x20 PUSH1 0x1F PUSH1 0x2 PUSH2 0x100 PUSH1 0x1 DUP8 AND ISZERO MUL PUSH1 0x0 NOT ADD SWAP1 SWAP6 AND SWAP5 SWAP1 SWAP5 DIV SWAP4 DUP5 ADD DUP2 SWAP1 DIV DUP2 MUL DUP3 ADD DUP2 ADD SWAP1 SWAP3 MSTORE DUP3 DUP2 MSTORE SWAP4 SWAP6 POP DUP6 SWAP4 PUSH2 0x5E9 SWAP4 SWAP1 SWAP3 SWAP1 SWAP2 DUP4 ADD DUP3 DUP3 DUP1 ISZERO PUSH2 0x3F1 JUMPI DUP1 PUSH1 0x1F LT PUSH2 0x3C6 JUMPI PUSH2 0x100 DUP1 DUP4 SLOAD DIV MUL DUP4 MSTORE SWAP2 PUSH1 0x20 ADD SWAP2 PUSH2 0x3F1 JUMP JUMPDEST PUSH1 0x40 MLOAD PUSH32 0xEAFD6B8E34637CA199864EE18F22FC46CBC730739912F5B54501A2A9E57E8070 SWAP1 PUSH1 0x0 SWAP1 LOG3 POP SWAP1 JUMP JUMPDEST PUSH1 0x6 SLOAD PUSH1 0x0 SWAP1 PUSH1 0x1 PUSH1 0xA0 PUSH1 0x2 EXP SUB AND CALLER EQ PUSH2 0x630 JUMPI PUSH1 0x0 DUP1 REVERT JUMPDEST PUSH2 0x638 PUSH2 0x1257 JUMP JUMPDEST PUSH1 0x40 DUP1 MLOAD PUSH32 0x70A0823100000000000000000000000000000000000000000000000000000000 DUP2 MSTORE ADDRESS PUSH1 0x4 DUP3 ADD MSTORE SWAP1 MLOAD SWAP2 SWAP3 POP PUSH1 0x1 PUSH1 0xA0 PUSH1 0x2 EXP SUB DUP4 AND SWAP2 PUSH4 0xA9059CBB SWAP2 CALLER SWAP2 DUP5 SWAP2 PUSH4 0x70A08231 SWAP2 PUSH1 0x24 DUP1 DUP4 ADD SWAP3 PUSH1 0x20 SWAP3 SWAP2 SWAP1 DUP3 SWAP1 SUB ADD DUP2 PUSH1 0x0 DUP8 DUP1 EXTCODESIZE ISZERO DUP1 ISZERO PUSH2 0x6A6 JUMPI PUSH1 0x0 DUP1 REVERT JUMPDEST POP GAS CALL ISZERO DUP1 ISZERO PUSH2 0x6BA JUMPI RETURNDATASIZE PUSH1 0x0 DUP1 RETURNDATACOPY RETURNDATASIZE PUSH1 0x0 REVERT JUMPDEST POP POP POP POP PUSH1 0x40 MLOAD RETURNDATASIZE PUSH1 0x20 DUP2 LT ISZERO PUSH2 0x6D0 JUMPI PUSH1 0x0 DUP1 REVERT JUMPDEST POP MLOAD PUSH1 0x40 DUP1 MLOAD PUSH1 0xE0 PUSH1 0x2 EXP PUSH4 0xFFFFFFFF DUP7 AND MUL DUP2 MSTORE PUSH1 0x1 PUSH1 0xA0 PUSH1 0x2 EXP SUB SWAP1 SWAP4 AND PUSH1 0x4 DUP5 ADD MSTORE PUSH1 0x24 DUP4 ADD SWAP2 SWAP1 SWAP2 MSTORE MLOAD PUSH1 0x44 DUP1 DUP4 ADD SWAP3 PUSH1 0x20 SWAP3 SWAP2 SWAP1 DUP3 SWAP1 SUB ADD DUP2 PUSH1 0x0 DUP8 DUP1 EXTCODESIZE ISZERO DUP1 ISZERO PUSH2 0x71F JUMPI PUSH1 0x0 DUP1 REVERT JUMPDEST POP GAS CALL ISZERO DUP1 ISZERO PUSH2 0x733 JUMPI RETURNDATASIZE PUSH1 0x0 DUP1 RETURNDATACOPY RETURNDATASIZE PUSH1 0x0 REVERT JUMPDEST POP POP POP POP PUSH1 0x40 MLOAD RETURNDATASIZE PUSH1 0x20 DUP2 LT ISZERO PUSH2 0x749 JUMPI PUSH1 0x0 DUP1 REVERT JUMPDEST POP MLOAD ISZERO ISZERO PUSH2 0x7A1 JUMPI PUSH1 0x40 DUP1 MLOAD PUSH1 0xE5 PUSH1 0x2 EXP PUSH3 0x461BCD MUL DUP2 MSTORE PUSH1 0x20 PUSH1 0x4 DUP3 ADD MSTORE PUSH1 0x12 PUSH1 0x24 DUP3 ADD MSTORE PUSH32 0x556E61626C6520746F207472616E736665720000000000000000000000000000 PUSH1 0x44 DUP3 ADD MSTORE SWAP1 MLOAD SWAP1 DUP2 SWAP1 SUB PUSH1 0x64 ADD SWAP1 REVERT JUMPDEST POP JUMP JUMPDEST PUSH1 0x0 DUP3 DUP2 MSTORE PUSH1 0x5 PUSH1 0x20 MSTORE PUSH1 0x40 SWAP1 KECCAK256 SLOAD DUP3 SWAP1 PUSH1 0x1 PUSH1 0xA0 PUSH1 0x2 EXP SUB AND CALLER EQ PUSH2 0x83A JUMPI PUSH1 0x40 DUP1 MLOAD PUSH1 0xE5 PUSH1 0x2 EXP PUSH3 0x461BCD MUL DUP2 MSTORE PUSH1 0x20 PUSH1 0x4 DUP3 ADD MSTORE PUSH1 0x28 PUSH1 0x24 DUP3 ADD MSTORE PUSH32 0x536F75726365206D75737420626520746865206F7261636C65206F6620746865 PUSH1 0x44 DUP3 ADD MSTORE PUSH32 0x2072657175657374000000000000000000000000000000000000000000000000 PUSH1 0x64 DUP3 ADD MSTORE SWAP1 MLOAD SWAP1 DUP2 SWAP1 SUB PUSH1 0x84 ADD SWAP1 REVERT JUMPDEST PUSH1 0x0 DUP2 DUP2 MSTORE PUSH1 0x5 PUSH1 0x20 MSTORE PUSH1 0x40 DUP1 DUP3 KECCAK256 DUP1 SLOAD PUSH20 0xFFFFFFFFFFFFFFFFFFFFFFFFFFFFFFFFFFFFFFFF NOT AND SWAP1 SSTORE MLOAD DUP3 SWAP2 PUSH32 0xA40AD10B942505047C532A7399BF5EAC2768B11B7155B40EC80309AEA567F998 SWAP2 LOG2 PUSH1 0x40 MLOAD DUP3 SWAP1 DUP5 SWAP1 PUSH32 0x1CA8663227A7FE9919713A01D344AFBB434E234F35A3E540A6AD924F88771F38 SWAP1 PUSH1 0x0 SWAP1 LOG3 POP PUSH1 0x9 SSTORE POP JUMP JUMPDEST PUSH1 0x9 SLOAD DUP2 JUMP JUMPDEST PUSH1 0x6 SLOAD PUSH1 0x1 PUSH1 0xA0 PUSH1 0x2 EXP SUB AND CALLER EQ PUSH2 0x8DB JUMPI PUSH1 0x0 DUP1 REVERT JUMPDEST PUSH1 0x6 SLOAD PUSH1 0x40 MLOAD PUSH1 0x1 PUSH1 0xA0 PUSH1 0x2 EXP SUB SWAP1 SWAP2 AND SWAP1 PUSH32 0xF8DF31144D9C2F0F6B59D69B8B98ABD5459D07F2742C4DF920B25AAE33C64820 SWAP1 PUSH1 0x0 SWAP1 LOG2 PUSH1 0x6 DUP1 SLOAD PUSH20 0xFFFFFFFFFFFFFFFFFFFFFFFFFFFFFFFFFFFFFFFF NOT AND SWAP1 SSTORE JUMP JUMPDEST PUSH1 0x7 SLOAD PUSH1 0x1 PUSH1 0xA0 PUSH1 0x2 EXP SUB AND DUP2 JUMP JUMPDEST PUSH1 0xA SLOAD DUP2 JUMP JUMPDEST PUSH1 0x6 SLOAD PUSH1 0x1 PUSH1 0xA0 PUSH1 0x2 EXP SUB AND DUP2 JUMP JUMPDEST PUSH1 0x9 SLOAD SWAP1 JUMP JUMPDEST PUSH1 0x0 DUP1 PUSH2 0x967 PUSH2 0x199A JUMP JUMPDEST PUSH1 0x1 PUSH1 0xA0 PUSH1 0x2 EXP SUB DUP5 AND PUSH1 0x0 SWAP1 DUP2 MSTORE PUSH1 0xB PUSH1 0x20 MSTORE PUSH1 0x40 SWAP1 KECCAK256 PUSH1 0x1 ADD SLOAD SWAP2 POP PUSH7 0x2386F26FC10000 DUP3 GT PUSH2 0x9E3 JUMPI PUSH1 0x40 DUP1 MLOAD PUSH1 0xE5 PUSH1 0x2 EXP PUSH3 0x461BCD MUL DUP2 MSTORE PUSH1 0x20 PUSH1 0x4 DUP3 ADD MSTORE PUSH1 0x15 PUSH1 0x24 DUP3 ADD MSTORE PUSH32 0x4E4F5F53554646494349454E545F435245444954530000000000000000000000 PUSH1 0x44 DUP3 ADD MSTORE SWAP1 MLOAD SWAP1 DUP2 SWAP1 SUB PUSH1 0x64 ADD SWAP1 REVERT JUMPDEST PUSH1 0x1 PUSH1 0xA0 PUSH1 0x2 EXP SUB DUP5 AND PUSH1 0x0 SWAP1 DUP2 MSTORE PUSH1 0xB PUSH1 0x20 SWAP1 DUP2 MSTORE PUSH1 0x40 SWAP2 DUP3 SWAP1 KECCAK256 PUSH7 0x2386F26FC0FFFF NOT DUP6 ADD PUSH1 0x1 SWAP2 DUP3 ADD SSTORE PUSH1 0x8 DUP1 SLOAD DUP5 MLOAD PUSH1 0x2 SWAP4 DUP3 AND ISZERO PUSH2 0x100 MUL PUSH1 0x0 NOT ADD SWAP1 SWAP2 AND SWAP3 SWAP1 SWAP3 DIV PUSH1 0x1F DUP2 ADD DUP5 SWAP1 DIV DUP5 MUL DUP4 ADD DUP5 ADD SWAP1 SWAP5 MSTORE DUP4 DUP3 MSTORE PUSH2 0xA6C SWAP4 PUSH2 0x3FB SWAP4 DUP4 ADD DUP3 DUP3 DUP1 ISZERO PUSH2 0x3F1 JUMPI DUP1 PUSH1 0x1F LT PUSH2 0x3C6 JUMPI PUSH2 0x100 DUP1 DUP4 SLOAD DIV MUL DUP4 MSTORE SWAP2 PUSH1 0x20 ADD SWAP2 PUSH2 0x3F1 JUMP JUMPDEST PUSH1 0x40 DUP1 MLOAD DUP1 DUP3 ADD DUP3 MSTORE PUSH1 0x6 DUP2 MSTORE PUSH32 0x5F6673796D730000000000000000000000000000000000000000000000000000 PUSH1 0x20 DUP1 DUP4 ADD SWAP2 SWAP1 SWAP2 MSTORE DUP3 MLOAD DUP1 DUP5 ADD SWAP1 SWAP4 MSTORE PUSH1 0x3 DUP4 MSTORE PUSH32 0x5844430000000000000000000000000000000000000000000000000000000000 SWAP1 DUP4 ADD MSTORE SWAP2 SWAP3 POP PUSH2 0xAE8 SWAP2 DUP4 SWAP2 PUSH4 0xFFFFFFFF PUSH2 0xF61 AND JUMP JUMPDEST PUSH1 0x40 DUP1 MLOAD DUP1 DUP3 ADD DUP3 MSTORE PUSH1 0x6 DUP2 MSTORE PUSH32 0x5F7473796D730000000000000000000000000000000000000000000000000000 PUSH1 0x20 DUP1 DUP4 ADD SWAP2 SWAP1 SWAP2 MSTORE DUP3 MLOAD DUP1 DUP5 ADD SWAP1 SWAP4 MSTORE PUSH1 0x4 DUP4 MSTORE PUSH32 0x5553445400000000000000000000000000000000000000000000000000000000 SWAP1 DUP4 ADD MSTORE PUSH2 0xB62 SWAP2 DUP4 SWAP2 SWAP1 PUSH4 0xFFFFFFFF PUSH2 0xF61 AND JUMP JUMPDEST PUSH1 0x40 DUP1 MLOAD DUP1 DUP3 ADD SWAP1 SWAP2 MSTORE PUSH1 0x5 DUP2 MSTORE PUSH32 0x74696D6573000000000000000000000000000000000000000000000000000000 PUSH1 0x20 DUP3 ADD MSTORE PUSH2 0xBAA SWAP1 DUP3 SWAP1 PUSH2 0x2710 PUSH4 0xFFFFFFFF PUSH2 0xF90 AND JUMP JUMPDEST PUSH1 0x7 SLOAD PUSH2 0xBC8 SWAP1 PUSH1 0x1 PUSH1 0xA0 PUSH1 0x2 EXP SUB AND DUP3 PUSH7 0x2386F26FC10000 PUSH2 0xFBA JUMP JUMPDEST TIMESTAMP PUSH1 0xA SSTORE PUSH1 0x8 DUP1 SLOAD PUSH1 0x40 DUP1 MLOAD PUSH1 0x20 PUSH1 0x1F PUSH1 0x2 PUSH2 0x100 PUSH1 0x1 DUP8 AND ISZERO MUL PUSH1 0x0 NOT ADD SWAP1 SWAP6 AND SWAP5 SWAP1 SWAP5 DIV SWAP4 DUP5 ADD DUP2 SWAP1 DIV DUP2 MUL DUP3 ADD DUP2 ADD SWAP1 SWAP3 MSTORE DUP3 DUP2 MSTORE SWAP4 SWAP7 POP DUP7 SWAP4 PUSH2 0xC33 SWAP4 SWAP1 SWAP3 SWAP1 SWAP2 DUP4 ADD DUP3 DUP3 DUP1 ISZERO PUSH2 0x3F1 JUMPI DUP1 PUSH1 0x1F LT PUSH2 0x3C6 JUMPI PUSH2 0x100 DUP1 DUP4 SLOAD DIV MUL DUP4 MSTORE SWAP2 PUSH1 0x20 ADD SWAP2 PUSH2 0x3F1 JUMP JUMPDEST PUSH1 0x40 MLOAD PUSH1 0x1 PUSH1 0xA0 PUSH1 0x2 EXP SUB DUP8 AND SWAP1 PUSH32 0x7F3DF4038A13E7B83557E5A0EBF67FEC07391A522319AB42E81255E88DE18FFB SWAP1 PUSH1 0x0 SWAP1 LOG4 POP POP SWAP2 SWAP1 POP JUMP JUMPDEST PUSH1 0xB PUSH1 0x20 MSTORE PUSH1 0x0 SWAP1 DUP2 MSTORE PUSH1 0x40 SWAP1 KECCAK256 DUP1 SLOAD PUSH1 0x1 SWAP1 SWAP2 ADD SLOAD PUSH1 0x1 PUSH1 0xA0 PUSH1 0x2 EXP SUB SWAP1 SWAP2 AND SWAP1 DUP3 JUMP JUMPDEST PUSH1 0x0 PUSH2 0xC9D PUSH2 0x1257 JUMP JUMPDEST SWAP1 POP SWAP1 JUMP JUMPDEST PUSH1 0x8 DUP1 SLOAD PUSH1 0x40 DUP1 MLOAD PUSH1 0x20 PUSH1 0x2 PUSH1 0x1 DUP6 AND ISZERO PUSH2 0x100 MUL PUSH1 0x0 NOT ADD SWAP1 SWAP5 AND SWAP4 SWAP1 SWAP4 DIV PUSH1 0x1F DUP2 ADD DUP5 SWAP1 DIV DUP5 MUL DUP3 ADD DUP5 ADD SWAP1 SWAP3 MSTORE DUP2 DUP2 MSTORE SWAP3 SWAP2 DUP4 ADD DUP3 DUP3 DUP1 ISZERO PUSH2 0xD28 JUMPI DUP1 PUSH1 0x1F LT PUSH2 0xCFD JUMPI PUSH2 0x100 DUP1 DUP4 SLOAD DIV MUL DUP4 MSTORE SWAP2 PUSH1 0x20 ADD SWAP2 PUSH2 0xD28 JUMP JUMPDEST DUP3 ADD SWAP2 SWAP1 PUSH1 0x0 MSTORE PUSH1 0x20 PUSH1 0x0 KECCAK256 SWAP1 JUMPDEST DUP2 SLOAD DUP2 MSTORE SWAP1 PUSH1 0x1 ADD SWAP1 PUSH1 0x20 ADD DUP1 DUP4 GT PUSH2 0xD0B JUMPI DUP3 SWAP1 SUB PUSH1 0x1F AND DUP3 ADD SWAP2 JUMPDEST POP POP POP POP POP DUP2 JUMP JUMPDEST PUSH1 0x0 DUP1 PUSH2 0xD3B PUSH2 0x19CF JUMP JUMPDEST PUSH1 0x0 PUSH9 0x56BC75E2D63100000 DUP6 GT ISZERO PUSH2 0xD9E JUMPI PUSH1 0x40 DUP1 MLOAD PUSH1 0xE5 PUSH1 0x2 EXP PUSH3 0x461BCD MUL DUP2 MSTORE PUSH1 0x20 PUSH1 0x4 DUP3 ADD MSTORE PUSH1 0x19 PUSH1 0x24 DUP3 ADD MSTORE PUSH32 0x4E4F545F4D4F52455F5448414E5F3130305F414C4C4F57454400000000000000 PUSH1 0x44 DUP3 ADD MSTORE SWAP1 MLOAD SWAP1 DUP2 SWAP1 SUB PUSH1 0x64 ADD SWAP1 REVERT JUMPDEST PUSH2 0xDA6 PUSH2 0x1257 JUMP JUMPDEST PUSH1 0x40 DUP1 MLOAD PUSH32 0x23B872DD00000000000000000000000000000000000000000000000000000000 DUP2 MSTORE CALLER PUSH1 0x4 DUP3 ADD MSTORE ADDRESS PUSH1 0x24 DUP3 ADD MSTORE PUSH1 0x44 DUP2 ADD DUP9 SWAP1 MSTORE SWAP1 MLOAD SWAP2 SWAP5 POP PUSH1 0x1 PUSH1 0xA0 PUSH1 0x2 EXP SUB DUP6 AND SWAP2 PUSH4 0x23B872DD SWAP2 PUSH1 0x64 DUP1 DUP3 ADD SWAP3 PUSH1 0x20 SWAP3 SWAP1 SWAP2 SWAP1 DUP3 SWAP1 SUB ADD DUP2 PUSH1 0x0 DUP8 DUP1 EXTCODESIZE ISZERO DUP1 ISZERO PUSH2 0xE18 JUMPI PUSH1 0x0 DUP1 REVERT JUMPDEST POP GAS CALL ISZERO DUP1 ISZERO PUSH2 0xE2C JUMPI RETURNDATASIZE PUSH1 0x0 DUP1 RETURNDATACOPY RETURNDATASIZE PUSH1 0x0 REVERT JUMPDEST POP POP POP POP PUSH1 0x40 MLOAD RETURNDATASIZE PUSH1 0x20 DUP2 LT ISZERO PUSH2 0xE42 JUMPI PUSH1 0x0 DUP1 REVERT JUMPDEST POP POP CALLER PUSH1 0x0 DUP2 DUP2 MSTORE PUSH1 0xB PUSH1 0x20 DUP2 DUP2 MSTORE PUSH1 0x40 DUP1 DUP5 KECCAK256 DUP2 MLOAD DUP1 DUP4 ADD DUP4 MSTORE DUP2 SLOAD PUSH1 0x1 PUSH1 0xA0 PUSH1 0x2 EXP SUB DUP2 DUP2 AND DUP4 MSTORE PUSH1 0x1 DUP1 DUP6 ADD DUP1 SLOAD SWAP5 DUP9 ADD DUP6 SWAP1 MSTORE DUP7 MLOAD DUP1 DUP9 ADD SWAP1 SWAP8 MSTORE DUP11 DUP8 MSTORE SWAP15 SWAP1 SWAP4 ADD DUP6 DUP8 ADD SWAP1 DUP2 MSTORE SWAP9 SWAP1 SWAP8 MSTORE SWAP5 SWAP1 SWAP4 MSTORE SWAP1 MLOAD SWAP1 SWAP4 AND PUSH20 0xFFFFFFFFFFFFFFFFFFFFFFFFFFFFFFFFFFFFFFFF NOT SWAP1 SWAP3 AND SWAP2 SWAP1 SWAP2 OR SWAP1 SWAP2 SSTORE SWAP1 MLOAD SWAP1 SWAP6 SSTORE POP SWAP3 SWAP4 SWAP3 POP POP POP JUMP JUMPDEST PUSH1 0x6 SLOAD PUSH1 0x1 PUSH1 0xA0 PUSH1 0x2 EXP SUB AND CALLER EQ PUSH2 0xEE0 JUMPI PUSH1 0x0 DUP1 REVERT JUMPDEST PUSH2 0xEEC DUP5 DUP5 DUP5 DUP5 PUSH2 0x1266 JUMP JUMPDEST POP POP POP POP JUMP JUMPDEST PUSH1 0x6 SLOAD PUSH1 0x1 PUSH1 0xA0 PUSH1 0x2 EXP SUB AND CALLER EQ PUSH2 0xF09 JUMPI PUSH1 0x0 DUP1 REVERT JUMPDEST PUSH2 0x7A1 DUP2 PUSH2 0x1364 JUMP JUMPDEST DUP1 MLOAD PUSH1 0x0 SWAP1 DUP3 SWAP1 ISZERO ISZERO PUSH2 0xF28 JUMPI PUSH1 0x0 SWAP2 POP PUSH2 0xF30 JUMP JUMPDEST PUSH1 0x20 DUP4 ADD MLOAD SWAP2 POP JUMPDEST POP SWAP2 SWAP1 POP JUMP JUMPDEST PUSH2 0xF3E PUSH2 0x199A JUMP JUMPDEST PUSH2 0xF46 PUSH2 0x199A JUMP JUMPDEST PUSH2 0xF58 DUP2 DUP7 DUP7 DUP7 PUSH4 0xFFFFFFFF PUSH2 0x13E2 AND JUMP JUMPDEST SWAP6 SWAP5 POP POP POP POP POP JUMP JUMPDEST PUSH1 0x80 DUP4 ADD MLOAD PUSH2 0xF76 SWAP1 DUP4 PUSH4 0xFFFFFFFF PUSH2 0x141F AND JUMP JUMPDEST PUSH1 0x80 DUP4 ADD MLOAD PUSH2 0xF8B SWAP1 DUP3 PUSH4 0xFFFFFFFF PUSH2 0x141F AND JUMP JUMPDEST POP POP POP JUMP JUMPDEST PUSH1 0x80 DUP4 ADD MLOAD PUSH2 0xFA5 SWAP1 DUP4 PUSH4 0xFFFFFFFF PUSH2 0x141F AND JUMP JUMPDEST PUSH1 0x80 DUP4 ADD MLOAD PUSH2 0xF8B SWAP1 DUP3 PUSH4 0xFFFFFFFF PUSH2 0x143C AND JUMP JUMPDEST PUSH1 0x0 ADDRESS PUSH1 0x4 SLOAD PUSH1 0x40 MLOAD PUSH1 0x20 ADD DUP1 DUP4 PUSH1 0x1 PUSH1 0xA0 PUSH1 0x2 EXP SUB AND PUSH1 0x1 PUSH1 0xA0 PUSH1 0x2 EXP SUB AND PUSH13 0x1000000000000000000000000 MUL DUP2 MSTORE PUSH1 0x14 ADD DUP3 DUP2 MSTORE PUSH1 0x20 ADD SWAP3 POP POP POP PUSH1 0x40 MLOAD PUSH1 0x20 DUP2 DUP4 SUB SUB DUP2 MSTORE SWAP1 PUSH1 0x40 MSTORE PUSH1 0x40 MLOAD DUP1 DUP3 DUP1 MLOAD SWAP1 PUSH1 0x20 ADD SWAP1 DUP1 DUP4 DUP4 JUMPDEST PUSH1 0x20 DUP4 LT PUSH2 0x1036 JUMPI DUP1 MLOAD DUP3 MSTORE PUSH1 0x1F NOT SWAP1 SWAP3 ADD SWAP2 PUSH1 0x20 SWAP2 DUP3 ADD SWAP2 ADD PUSH2 0x1017 JUMP JUMPDEST MLOAD DUP2 MLOAD PUSH1 0x20 SWAP4 DUP5 SUB PUSH2 0x100 EXP PUSH1 0x0 NOT ADD DUP1 NOT SWAP1 SWAP3 AND SWAP2 AND OR SWAP1 MSTORE PUSH1 0x40 DUP1 MLOAD SWAP3 SWAP1 SWAP5 ADD DUP3 SWAP1 SUB SWAP1 SWAP2 KECCAK256 PUSH1 0x4 SLOAD PUSH1 0x60 DUP11 ADD MSTORE PUSH1 0x0 DUP2 DUP2 MSTORE PUSH1 0x5 SWAP1 SWAP3 MSTORE DUP4 DUP3 KECCAK256 DUP1 SLOAD PUSH20 0xFFFFFFFFFFFFFFFFFFFFFFFFFFFFFFFFFFFFFFFF NOT AND PUSH1 0x1 PUSH1 0xA0 PUSH1 0x2 EXP SUB DUP13 AND OR SWAP1 SSTORE SWAP3 MLOAD SWAP3 SWAP6 POP DUP6 SWAP5 POP PUSH32 0xA6745906207AFB96A5801B8E5711FD7B74C5780CE893A973806E179D675BBE24 SWAP4 POP SWAP2 SWAP1 POP LOG2 PUSH1 0x2 SLOAD PUSH1 0x1 PUSH1 0xA0 PUSH1 0x2 EXP SUB AND PUSH4 0x4000AEA0 DUP6 DUP5 PUSH2 0x10E4 DUP8 PUSH2 0x149E JUMP JUMPDEST PUSH1 0x40 MLOAD DUP5 PUSH4 0xFFFFFFFF AND PUSH1 0xE0 PUSH1 0x2 EXP MUL DUP2 MSTORE PUSH1 0x4 ADD DUP1 DUP5 PUSH1 0x1 PUSH1 0xA0 PUSH1 0x2 EXP SUB AND PUSH1 0x1 PUSH1 0xA0 PUSH1 0x2 EXP SUB AND DUP2 MSTORE PUSH1 0x20 ADD DUP4 DUP2 MSTORE PUSH1 0x20 ADD DUP1 PUSH1 0x20 ADD DUP3 DUP2 SUB DUP3 MSTORE DUP4 DUP2 DUP2 MLOAD DUP2 MSTORE PUSH1 0x20 ADD SWAP2 POP DUP1 MLOAD SWAP1 PUSH1 0x20 ADD SWAP1 DUP1 DUP4 DUP4 PUSH1 0x0 JUMPDEST DUP4 DUP2 LT ISZERO PUSH2 0x1151 JUMPI DUP2 DUP2 ADD MLOAD DUP4 DUP3 ADD MSTORE PUSH1 0x20 ADD PUSH2 0x1139 JUMP JUMPDEST POP POP POP POP SWAP1 POP SWAP1 DUP2 ADD SWAP1 PUSH1 0x1F AND DUP1 ISZERO PUSH2 0x117E JUMPI DUP1 DUP3 SUB DUP1 MLOAD PUSH1 0x1 DUP4 PUSH1 0x20 SUB PUSH2 0x100 EXP SUB NOT AND DUP2 MSTORE PUSH1 0x20 ADD SWAP2 POP JUMPDEST POP SWAP5 POP POP POP POP POP PUSH1 0x20 PUSH1 0x40 MLOAD DUP1 DUP4 SUB DUP2 PUSH1 0x0 DUP8 DUP1 EXTCODESIZE ISZERO DUP1 ISZERO PUSH2 0x119F JUMPI PUSH1 0x0 DUP1 REVERT JUMPDEST POP GAS CALL ISZERO DUP1 ISZERO PUSH2 0x11B3 JUMPI RETURNDATASIZE PUSH1 0x0 DUP1 RETURNDATACOPY RETURNDATASIZE PUSH1 0x0 REVERT JUMPDEST POP POP POP POP PUSH1 0x40 MLOAD RETURNDATASIZE PUSH1 0x20 DUP2 LT ISZERO PUSH2 0x11C9 JUMPI PUSH1 0x0 DUP1 REVERT JUMPDEST POP MLOAD ISZERO ISZERO PUSH2 0x1247 JUMPI PUSH1 0x40 DUP1 MLOAD PUSH1 0xE5 PUSH1 0x2 EXP PUSH3 0x461BCD MUL DUP2 MSTORE PUSH1 0x20 PUSH1 0x4 DUP3 ADD MSTORE PUSH1 0x23 PUSH1 0x24 DUP3 ADD MSTORE PUSH32 0x756E61626C6520746F207472616E73666572416E6443616C6C20746F206F7261 PUSH1 0x44 DUP3 ADD MSTORE PUSH32 0x636C650000000000000000000000000000000000000000000000000000000000 PUSH1 0x64 DUP3 ADD MSTORE SWAP1 MLOAD SWAP1 DUP2 SWAP1 SUB PUSH1 0x84 ADD SWAP1 REVERT JUMPDEST PUSH1 0x4 DUP1 SLOAD PUSH1 0x1 ADD SWAP1 SSTORE SWAP4 SWAP3 POP POP POP JUMP JUMPDEST PUSH1 0x2 SLOAD PUSH1 0x1 PUSH1 0xA0 PUSH1 0x2 EXP SUB AND SWAP1 JUMP JUMPDEST PUSH1 0x0 DUP5 DUP2 MSTORE PUSH1 0x5 PUSH1 0x20 MSTORE PUSH1 0x40 DUP1 DUP3 KECCAK256 DUP1 SLOAD PUSH20 0xFFFFFFFFFFFFFFFFFFFFFFFFFFFFFFFFFFFFFFFF NOT DUP2 AND SWAP1 SWAP2 SSTORE SWAP1 MLOAD PUSH1 0x1 PUSH1 0xA0 PUSH1 0x2 EXP SUB SWAP1 SWAP2 AND SWAP2 DUP7 SWAP2 PUSH32 0x715822738DAD692E521EBC0193D189BF23153EB1D4420173D6B30CD8ADD9F9A6 SWAP2 SWAP1 LOG2 PUSH1 0x40 DUP1 MLOAD PUSH32 0x6EE4D55300000000000000000000000000000000000000000000000000000000 DUP2 MSTORE PUSH1 0x4 DUP2 ADD DUP8 SWAP1 MSTORE PUSH1 0x24 DUP2 ADD DUP7 SWAP1 MSTORE PUSH1 0x1 PUSH1 0xE0 PUSH1 0x2 EXP SUB NOT DUP6 AND PUSH1 0x44 DUP3 ADD MSTORE PUSH1 0x64 DUP2 ADD DUP5 SWAP1 MSTORE SWAP1 MLOAD PUSH1 0x1 PUSH1 0xA0 PUSH1 0x2 EXP SUB DUP4 AND SWAP2 PUSH4 0x6EE4D553 SWAP2 PUSH1 0x84 DUP1 DUP4 ADD SWAP3 PUSH1 0x0 SWAP3 SWAP2 SWAP1 DUP3 SWAP1 SUB ADD DUP2 DUP4 DUP8 DUP1 EXTCODESIZE ISZERO DUP1 ISZERO PUSH2 0x1345 JUMPI PUSH1 0x0 DUP1 REVERT JUMPDEST POP GAS CALL ISZERO DUP1 ISZERO PUSH2 0x1359 JUMPI RETURNDATASIZE PUSH1 0x0 DUP1 RETURNDATACOPY RETURNDATASIZE PUSH1 0x0 REVERT JUMPDEST POP POP POP POP POP POP POP POP POP JUMP JUMPDEST PUSH1 0x1 PUSH1 0xA0 PUSH1 0x2 EXP SUB DUP2 AND ISZERO ISZERO PUSH2 0x1379 JUMPI PUSH1 0x0 DUP1 REVERT JUMPDEST PUSH1 0x6 SLOAD PUSH1 0x40 MLOAD PUSH1 0x1 PUSH1 0xA0 PUSH1 0x2 EXP SUB DUP1 DUP5 AND SWAP3 AND SWAP1 PUSH32 0x8BE0079C531659141344CD1FD0A4F28419497F9722A3DAAFE3B4186F6B6457E0 SWAP1 PUSH1 0x0 SWAP1 LOG3 PUSH1 0x6 DUP1 SLOAD PUSH20 0xFFFFFFFFFFFFFFFFFFFFFFFFFFFFFFFFFFFFFFFF NOT AND PUSH1 0x1 PUSH1 0xA0 PUSH1 0x2 EXP SUB SWAP3 SWAP1 SWAP3 AND SWAP2 SWAP1 SWAP2 OR SWAP1 SSTORE JUMP JUMPDEST PUSH2 0x13EA PUSH2 0x199A JUMP JUMPDEST PUSH2 0x13FA DUP6 PUSH1 0x80 ADD MLOAD PUSH2 0x100 PUSH2 0x15F5 JUMP JUMPDEST POP POP SWAP2 DUP4 MSTORE PUSH1 0x1 PUSH1 0xA0 PUSH1 0x2 EXP SUB AND PUSH1 0x20 DUP4 ADD MSTORE PUSH1 0x1 PUSH1 0xE0 PUSH1 0x2 EXP SUB NOT AND PUSH1 0x40 DUP3 ADD MSTORE SWAP1 JUMP JUMPDEST PUSH2 0x142C DUP3 PUSH1 0x3 DUP4 MLOAD PUSH2 0x1635 JUMP JUMPDEST PUSH2 0xF8B DUP3 DUP3 PUSH4 0xFFFFFFFF PUSH2 0x1732 AND JUMP JUMPDEST PUSH8 0xFFFFFFFFFFFFFFFF NOT DUP2 SLT ISZERO PUSH2 0x145C JUMPI PUSH2 0x1457 DUP3 DUP3 PUSH2 0x1753 JUMP JUMPDEST PUSH2 0x149A JUMP JUMPDEST PUSH8 0xFFFFFFFFFFFFFFFF DUP2 SGT ISZERO PUSH2 0x1476 JUMPI PUSH2 0x1457 DUP3 DUP3 PUSH2 0x1792 JUMP JUMPDEST PUSH1 0x0 DUP2 SLT PUSH2 0x148A JUMPI PUSH2 0x1457 DUP3 PUSH1 0x0 DUP4 PUSH2 0x1635 JUMP JUMPDEST PUSH2 0x149A DUP3 PUSH1 0x1 DUP4 PUSH1 0x0 NOT SUB PUSH2 0x1635 JUMP JUMPDEST POP POP JUMP JUMPDEST DUP1 MLOAD PUSH1 0x20 DUP1 DUP4 ADD MLOAD PUSH1 0x40 DUP1 DUP6 ADD MLOAD PUSH1 0x60 DUP7 DUP2 ADD MLOAD PUSH1 0x80 DUP9 ADD MLOAD MLOAD SWAP4 MLOAD PUSH1 0x0 PUSH1 0x24 DUP3 ADD DUP2 DUP2 MSTORE PUSH1 0x44 DUP4 ADD DUP3 SWAP1 MSTORE PUSH1 0x64 DUP4 ADD DUP11 SWAP1 MSTORE PUSH1 0x1 PUSH1 0xA0 PUSH1 0x2 EXP SUB DUP9 AND PUSH1 0x84 DUP5 ADD MSTORE PUSH1 0x1 PUSH1 0xE0 PUSH1 0x2 EXP SUB NOT DUP7 AND PUSH1 0xA4 DUP5 ADD MSTORE PUSH1 0xC4 DUP4 ADD DUP5 SWAP1 MSTORE PUSH1 0x1 PUSH1 0xE4 DUP5 ADD DUP2 SWAP1 MSTORE PUSH2 0x100 PUSH2 0x104 DUP6 ADD SWAP1 DUP2 MSTORE DUP9 MLOAD PUSH2 0x124 DUP7 ADD MSTORE DUP9 MLOAD SWAP7 SWAP12 PUSH32 0x4042994600000000000000000000000000000000000000000000000000000000 SWAP12 SWAP5 SWAP11 DUP12 SWAP11 SWAP2 SWAP10 SWAP1 SWAP9 SWAP1 SWAP8 SWAP7 SWAP4 SWAP6 SWAP2 SWAP5 SWAP4 PUSH2 0x144 ADD SWAP2 DUP6 ADD SWAP1 DUP1 DUP4 DUP4 DUP15 JUMPDEST DUP4 DUP2 LT ISZERO PUSH2 0x156E JUMPI DUP2 DUP2 ADD MLOAD DUP4 DUP3 ADD MSTORE PUSH1 0x20 ADD PUSH2 0x1556 JUMP JUMPDEST POP POP POP POP SWAP1 POP SWAP1 DUP2 ADD SWAP1 PUSH1 0x1F AND DUP1 ISZERO PUSH2 0x159B JUMPI DUP1 DUP3 SUB DUP1 MLOAD PUSH1 0x1 DUP4 PUSH1 0x20 SUB PUSH2 0x100 EXP SUB NOT AND DUP2 MSTORE PUSH1 0x20 ADD SWAP2 POP JUMPDEST POP PUSH1 0x40 DUP1 MLOAD PUSH1 0x1F NOT DUP2 DUP5 SUB ADD DUP2 MSTORE SWAP2 SWAP1 MSTORE PUSH1 0x20 DUP2 ADD DUP1 MLOAD PUSH28 0xFFFFFFFFFFFFFFFFFFFFFFFFFFFFFFFFFFFFFFFFFFFFFFFFFFFFFFFF AND PUSH1 0x1 PUSH1 0xE0 PUSH1 0x2 EXP SUB NOT SWAP1 SWAP14 AND SWAP13 SWAP1 SWAP13 OR SWAP1 SWAP12 MSTORE POP SWAP9 SWAP10 POP POP POP POP POP POP POP POP POP POP SWAP2 SWAP1 POP JUMP JUMPDEST PUSH2 0x15FD PUSH2 0x19E6 JUMP JUMPDEST PUSH1 0x20 DUP3 MOD ISZERO PUSH2 0x1612 JUMPI PUSH1 0x20 DUP3 MOD PUSH1 0x20 SUB DUP3 ADD SWAP2 POP JUMPDEST POP PUSH1 0x20 DUP1 DUP4 ADD DUP3 SWAP1 MSTORE PUSH1 0x40 DUP1 MLOAD DUP1 DUP6 MSTORE PUSH1 0x0 DUP2 MSTORE DUP4 ADD SWAP1 SWAP2 ADD SWAP1 MSTORE DUP2 JUMPDEST SWAP3 SWAP2 POP POP JUMP JUMPDEST PUSH1 0x17 DUP2 GT PUSH2 0x1657 JUMPI PUSH2 0x1651 DUP4 PUSH1 0xFF DUP5 DUP2 AND PUSH1 0x20 MUL AND DUP4 OR PUSH2 0x17CD JUMP JUMPDEST POP PUSH2 0xF8B JUMP JUMPDEST PUSH1 0xFF DUP2 GT PUSH2 0x168B JUMPI PUSH2 0x1678 DUP4 PUSH1 0x18 PUSH1 0x20 PUSH1 0xFF DUP7 AND MUL OR PUSH4 0xFFFFFFFF PUSH2 0x17CD AND JUMP JUMPDEST POP PUSH2 0x1651 DUP4 DUP3 PUSH1 0x1 PUSH4 0xFFFFFFFF PUSH2 0x17E5 AND JUMP JUMPDEST PUSH2 0xFFFF DUP2 GT PUSH2 0x16C0 JUMPI PUSH2 0x16AD DUP4 PUSH1 0x19 PUSH1 0x20 PUSH1 0xFF DUP7 AND MUL OR PUSH4 0xFFFFFFFF PUSH2 0x17CD AND JUMP JUMPDEST POP PUSH2 0x1651 DUP4 DUP3 PUSH1 0x2 PUSH4 0xFFFFFFFF PUSH2 0x17E5 AND JUMP JUMPDEST PUSH4 0xFFFFFFFF DUP2 GT PUSH2 0x16F7 JUMPI PUSH2 0x16E4 DUP4 PUSH1 0x1A PUSH1 0x20 PUSH1 0xFF DUP7 AND MUL OR PUSH4 0xFFFFFFFF PUSH2 0x17CD AND JUMP JUMPDEST POP PUSH2 0x1651 DUP4 DUP3 PUSH1 0x4 PUSH4 0xFFFFFFFF PUSH2 0x17E5 AND JUMP JUMPDEST PUSH8 0xFFFFFFFFFFFFFFFF DUP2 GT PUSH2 0xF8B JUMPI PUSH2 0x171F DUP4 PUSH1 0x1B PUSH1 0x20 PUSH1 0xFF DUP7 AND MUL OR PUSH4 0xFFFFFFFF PUSH2 0x17CD AND JUMP JUMPDEST POP PUSH2 0xEEC DUP4 DUP3 PUSH1 0x8 PUSH4 0xFFFFFFFF PUSH2 0x17E5 AND JUMP JUMPDEST PUSH2 0x173A PUSH2 0x19E6 JUMP JUMPDEST PUSH2 0x174C DUP4 DUP5 PUSH1 0x0 ADD MLOAD MLOAD DUP5 DUP6 MLOAD PUSH2 0x1806 JUMP JUMPDEST SWAP4 SWAP3 POP POP POP JUMP JUMPDEST PUSH2 0x1764 DUP3 PUSH1 0xC3 PUSH4 0xFFFFFFFF PUSH2 0x17CD AND JUMP JUMPDEST POP PUSH2 0x149A DUP3 DUP3 PUSH1 0x0 NOT SUB PUSH1 0x40 MLOAD PUSH1 0x20 ADD DUP1 DUP3 DUP2 MSTORE PUSH1 0x20 ADD SWAP2 POP POP PUSH1 0x40 MLOAD PUSH1 0x20 DUP2 DUP4 SUB SUB DUP2 MSTORE SWAP1 PUSH1 0x40 MSTORE PUSH2 0x18BC JUMP JUMPDEST PUSH2 0x17A3 DUP3 PUSH1 0xC2 PUSH4 0xFFFFFFFF PUSH2 0x17CD AND JUMP JUMPDEST POP PUSH2 0x149A DUP3 DUP3 PUSH1 0x40 MLOAD PUSH1 0x20 ADD DUP1 DUP3 DUP2 MSTORE PUSH1 0x20 ADD SWAP2 POP POP PUSH1 0x40 MLOAD PUSH1 0x20 DUP2 DUP4 SUB SUB DUP2 MSTORE SWAP1 PUSH1 0x40 MSTORE PUSH2 0x18BC JUMP JUMPDEST PUSH2 0x17D5 PUSH2 0x19E6 JUMP JUMPDEST PUSH2 0x174C DUP4 DUP5 PUSH1 0x0 ADD MLOAD MLOAD DUP5 PUSH2 0x18C9 JUMP JUMPDEST PUSH2 0x17ED PUSH2 0x19E6 JUMP JUMPDEST PUSH2 0x17FE DUP5 DUP6 PUSH1 0x0 ADD MLOAD MLOAD DUP6 DUP6 PUSH2 0x1914 JUMP JUMPDEST SWAP5 SWAP4 POP POP POP POP JUMP JUMPDEST PUSH2 0x180E PUSH2 0x19E6 JUMP JUMPDEST PUSH1 0x0 DUP1 PUSH1 0x0 DUP6 MLOAD DUP6 GT ISZERO ISZERO ISZERO PUSH2 0x1823 JUMPI PUSH1 0x0 DUP1 REVERT JUMPDEST DUP8 PUSH1 0x20 ADD MLOAD DUP6 DUP9 ADD GT ISZERO PUSH2 0x184D JUMPI PUSH2 0x184D DUP9 PUSH2 0x1845 DUP11 PUSH1 0x20 ADD MLOAD DUP11 DUP10 ADD PUSH2 0x1972 JUMP JUMPDEST PUSH1 0x2 MUL PUSH2 0x1983 JUMP JUMPDEST DUP8 MLOAD DUP1 MLOAD DUP9 PUSH1 0x20 DUP4 ADD ADD SWAP5 POP DUP1 DUP10 DUP9 ADD GT ISZERO PUSH2 0x1869 JUMPI DUP9 DUP8 ADD DUP3 MSTORE JUMPDEST PUSH1 0x20 DUP9 ADD SWAP4 POP POP POP JUMPDEST PUSH1 0x20 DUP6 LT PUSH2 0x1894 JUMPI DUP2 MLOAD DUP4 MSTORE PUSH1 0x1F NOT SWAP1 SWAP5 ADD SWAP4 PUSH1 0x20 SWAP3 DUP4 ADD SWAP3 SWAP1 SWAP2 ADD SWAP1 PUSH2 0x1872 JUMP JUMPDEST POP MLOAD DUP2 MLOAD PUSH1 0x20 SWAP5 SWAP1 SWAP5 SUB PUSH2 0x100 EXP PUSH1 0x0 NOT ADD DUP1 NOT SWAP1 SWAP2 AND SWAP4 AND SWAP3 SWAP1 SWAP3 OR SWAP1 SWAP2 MSTORE POP SWAP2 SWAP3 SWAP2 POP POP JUMP JUMPDEST PUSH2 0x142C DUP3 PUSH1 0x2 DUP4 MLOAD PUSH2 0x1635 JUMP JUMPDEST PUSH2 0x18D1 PUSH2 0x19E6 JUMP JUMPDEST PUSH1 0x20 DUP5 ADD MLOAD DUP4 LT PUSH2 0x18ED JUMPI PUSH2 0x18ED DUP5 DUP6 PUSH1 0x20 ADD MLOAD PUSH1 0x2 MUL PUSH2 0x1983 JUMP JUMPDEST DUP4 MLOAD DUP1 MLOAD PUSH1 0x20 DUP6 DUP4 ADD ADD DUP5 DUP2 MSTORE8 DUP2 DUP7 EQ ISZERO PUSH2 0x1909 JUMPI PUSH1 0x1 DUP3 ADD DUP4 MSTORE JUMPDEST POP SWAP5 SWAP6 SWAP5 POP POP POP POP POP JUMP JUMPDEST PUSH2 0x191C PUSH2 0x19E6 JUMP JUMPDEST PUSH1 0x0 DUP6 PUSH1 0x20 ADD MLOAD DUP6 DUP5 ADD GT ISZERO PUSH2 0x193B JUMPI PUSH2 0x193B DUP7 DUP7 DUP6 ADD PUSH1 0x2 MUL PUSH2 0x1983 JUMP JUMPDEST PUSH1 0x1 DUP4 PUSH2 0x100 EXP SUB SWAP1 POP DUP6 MLOAD DUP4 DUP7 DUP3 ADD ADD DUP6 DUP4 NOT DUP3 MLOAD AND OR DUP2 MSTORE DUP2 MLOAD DUP6 DUP9 ADD GT ISZERO PUSH2 0x1966 JUMPI DUP5 DUP8 ADD DUP3 MSTORE JUMPDEST POP SWAP6 SWAP7 SWAP6 POP POP POP POP POP POP JUMP JUMPDEST PUSH1 0x0 DUP2 DUP4 GT ISZERO PUSH2 0xF30 JUMPI POP DUP2 PUSH2 0x162F JUMP JUMPDEST DUP2 MLOAD PUSH2 0x198F DUP4 DUP4 PUSH2 0x15F5 JUMP JUMPDEST POP PUSH2 0xEEC DUP4 DUP3 PUSH2 0x1732 JUMP JUMPDEST PUSH1 0x40 DUP1 MLOAD PUSH1 0xC0 DUP2 ADD DUP3 MSTORE PUSH1 0x0 DUP1 DUP3 MSTORE PUSH1 0x20 DUP3 ADD DUP2 SWAP1 MSTORE SWAP2 DUP2 ADD DUP3 SWAP1 MSTORE PUSH1 0x60 DUP2 ADD SWAP2 SWAP1 SWAP2 MSTORE PUSH1 0x80 DUP2 ADD PUSH2 0x19CA PUSH2 0x19E6 JUMP JUMPDEST SWAP1 MSTORE SWAP1 JUMP JUMPDEST PUSH1 0x40 DUP1 MLOAD DUP1 DUP3 ADD SWAP1 SWAP2 MSTORE PUSH1 0x0 DUP1 DUP3 MSTORE PUSH1 0x20 DUP3 ADD MSTORE SWAP1 JUMP JUMPDEST PUSH1 0x40 DUP1 MLOAD DUP1 DUP3 ADD SWAP1 SWAP2 MSTORE PUSH1 0x60 DUP2 MSTORE PUSH1 0x0 PUSH1 0x20 DUP3 ADD MSTORE SWAP1 JUMP STOP LOG1 PUSH6 0x627A7A723058 KECCAK256 0xb7 0xb8 MSTORE PUSH7 0x636901284703ED SWAP1 DUP12 EXP PUSH17 0x6EB34AA426C6416FED9EAA7768FEB050FF STOP 0x29 "
		},
		"gasEstimates": {
			"creation": {
				"codeDepositCost": "1339600",
				"executionCost": "infinite",
				"totalCost": "infinite"
			},
			"external": {
				"cancelRequest(bytes32,uint256,bytes4,uint256)": "infinite",
				"currentValue()": "513",
				"depositPLI(uint256)": "infinite",
				"fulfill(bytes32,uint256)": "43582",
				"getPluginToken()": "877",
				"jobId()": "infinite",
				"latestTimestamp()": "579",
				"oracle()": "710",
				"owner()": "754",
				"plidbs(address)": "1215",
				"renounceOwnership()": "22226",
				"requestData(address)": "infinite",
				"showPrice()": "623",
				"testMyFunc()": "infinite",
				"transferOwnership(address)": "23153",
				"withdrawPli()": "infinite"
			},
			"internal": {
				"stringToBytes32(string memory)": "infinite"
			}
		},
		"methodIdentifiers": {
			"cancelRequest(bytes32,uint256,bytes4,uint256)": "ec65d0f8",
			"currentValue()": "698996f8",
			"depositPLI(uint256)": "d378d5eb",
			"fulfill(bytes32,uint256)": "4357855e",
			"getPluginToken()": "a4b6f67e",
			"jobId()": "c2939d97",
			"latestTimestamp()": "8205bf6a",
			"oracle()": "7dc0d1d0",
			"owner()": "8da5cb5b",
			"plidbs(address)": "a2e36c5f",
			"renounceOwnership()": "715018a6",
			"requestData(address)": "9dd4cc5d",
			"showPrice()": "8e0e0abb",
			"testMyFunc()": "2d8c762c",
			"transferOwnership(address)": "f2fde38b",
			"withdrawPli()": "37fccd30"
		}
	},
	"abi": [
		{
			"constant": false,
			"inputs": [],
			"name": "testMyFunc",
			"outputs": [
				{
					"name": "requestId",
					"type": "bytes32"
				}
			],
			"payable": false,
			"stateMutability": "nonpayable",
			"type": "function"
		},
		{
			"constant": false,
			"inputs": [],
			"name": "withdrawPli",
			"outputs": [],
			"payable": false,
			"stateMutability": "nonpayable",
			"type": "function"
		},
		{
			"constant": false,
			"inputs": [
				{
					"name": "_requestId",
					"type": "bytes32"
				},
				{
					"name": "_currentval",
					"type": "uint256"
				}
			],
			"name": "fulfill",
			"outputs": [],
			"payable": false,
			"stateMutability": "nonpayable",
			"type": "function"
		},
		{
			"constant": true,
			"inputs": [],
			"name": "currentValue",
			"outputs": [
				{
					"name": "",
					"type": "uint256"
				}
			],
			"payable": false,
			"stateMutability": "view",
			"type": "function"
		},
		{
			"constant": false,
			"inputs": [],
			"name": "renounceOwnership",
			"outputs": [],
			"payable": false,
			"stateMutability": "nonpayable",
			"type": "function"
		},
		{
			"constant": true,
			"inputs": [],
			"name": "oracle",
			"outputs": [
				{
					"name": "",
					"type": "address"
				}
			],
			"payable": false,
			"stateMutability": "view",
			"type": "function"
		},
		{
			"constant": true,
			"inputs": [],
			"name": "latestTimestamp",
			"outputs": [
				{
					"name": "",
					"type": "uint256"
				}
			],
			"payable": false,
			"stateMutability": "view",
			"type": "function"
		},
		{
			"constant": true,
			"inputs": [],
			"name": "owner",
			"outputs": [
				{
					"name": "",
					"type": "address"
				}
			],
			"payable": false,
			"stateMutability": "view",
			"type": "function"
		},
		{
			"constant": true,
			"inputs": [],
			"name": "showPrice",
			"outputs": [
				{
					"name": "",
					"type": "uint256"
				}
			],
			"payable": false,
			"stateMutability": "view",
			"type": "function"
		},
		{
			"constant": false,
			"inputs": [
				{
					"name": "_caller",
					"type": "address"
				}
			],
			"name": "requestData",
			"outputs": [
				{
					"name": "requestId",
					"type": "bytes32"
				}
			],
			"payable": false,
			"stateMutability": "nonpayable",
			"type": "function"
		},
		{
			"constant": true,
			"inputs": [
				{
					"name": "",
					"type": "address"
				}
			],
			"name": "plidbs",
			"outputs": [
				{
					"name": "depositor",
					"type": "address"
				},
				{
					"name": "totalcredits",
					"type": "uint256"
				}
			],
			"payable": false,
			"stateMutability": "view",
			"type": "function"
		},
		{
			"constant": true,
			"inputs": [],
			"name": "getPluginToken",
			"outputs": [
				{
					"name": "",
					"type": "address"
				}
			],
			"payable": false,
			"stateMutability": "view",
			"type": "function"
		},
		{
			"constant": true,
			"inputs": [],
			"name": "jobId",
			"outputs": [
				{
					"name": "",
					"type": "string"
				}
			],
			"payable": false,
			"stateMutability": "view",
			"type": "function"
		},
		{
			"constant": false,
			"inputs": [
				{
					"name": "_value",
					"type": "uint256"
				}
			],
			"name": "depositPLI",
			"outputs": [
				{
					"name": "",
					"type": "bool"
				}
			],
			"payable": false,
			"stateMutability": "nonpayable",
			"type": "function"
		},
		{
			"constant": false,
			"inputs": [
				{
					"name": "_requestId",
					"type": "bytes32"
				},
				{
					"name": "_payment",
					"type": "uint256"
				},
				{
					"name": "_callbackFunctionId",
					"type": "bytes4"
				},
				{
					"name": "_expiration",
					"type": "uint256"
				}
			],
			"name": "cancelRequest",
			"outputs": [],
			"payable": false,
			"stateMutability": "nonpayable",
			"type": "function"
		},
		{
			"constant": false,
			"inputs": [
				{
					"name": "_newOwner",
					"type": "address"
				}
			],
			"name": "transferOwnership",
			"outputs": [],
			"payable": false,
			"stateMutability": "nonpayable",
			"type": "function"
		},
		{
			"inputs": [
				{
					"name": "_pli",
					"type": "address"
				},
				{
					"name": "_oracle",
					"type": "address"
				},
				{
					"name": "_jobid",
					"type": "string"
				}
			],
			"payable": false,
			"stateMutability": "nonpayable",
			"type": "constructor"
		},
		{
			"anonymous": false,
			"inputs": [
				{
					"indexed": true,
					"name": "requestId",
					"type": "bytes32"
				},
				{
					"indexed": true,
					"name": "currentVal",
					"type": "uint256"
				}
			],
			"name": "RequestFulfilled",
			"type": "event"
		},
		{
			"anonymous": false,
			"inputs": [
				{
					"indexed": true,
					"name": "requester",
					"type": "address"
				},
				{
					"indexed": true,
					"name": "jobId",
					"type": "bytes32"
				},
				{
					"indexed": true,
					"name": "requestId",
					"type": "bytes32"
				}
			],
			"name": "requestCreated",
			"type": "event"
		},
		{
			"anonymous": false,
			"inputs": [
				{
					"indexed": true,
					"name": "jobId",
					"type": "bytes32"
				},
				{
					"indexed": true,
					"name": "requestId",
					"type": "bytes32"
				}
			],
			"name": "requestCreatedTest",
			"type": "event"
		},
		{
			"anonymous": false,
			"inputs": [
				{
					"indexed": true,
					"name": "previousOwner",
					"type": "address"
				}
			],
			"name": "OwnershipRenounced",
			"type": "event"
		},
		{
			"anonymous": false,
			"inputs": [
				{
					"indexed": true,
					"name": "previousOwner",
					"type": "address"
				},
				{
					"indexed": true,
					"name": "newOwner",
					"type": "address"
				}
			],
			"name": "OwnershipTransferred",
			"type": "event"
		},
		{
			"anonymous": false,
			"inputs": [
				{
					"indexed": true,
					"name": "id",
					"type": "bytes32"
				}
			],
			"name": "PluginRequested",
			"type": "event"
		},
		{
			"anonymous": false,
			"inputs": [
				{
					"indexed": true,
					"name": "id",
					"type": "bytes32"
				}
			],
			"name": "PluginFulfilled",
			"type": "event"
		},
		{
			"anonymous": false,
			"inputs": [
				{
					"indexed": true,
					"name": "id",
					"type": "bytes32"
				}
			],
			"name": "PluginCancelled",
			"type": "event"
		}
	]
}